{
  "_format": "hh-sol-artifact-1",
  "contractName": "LotteryUpgradeable",
  "sourceName": "contracts/LotteryUpgradeable.sol",
  "abi": [
    {
      "inputs": [
        {
          "internalType": "address",
          "name": "_callee",
          "type": "address"
        }
      ],
      "stateMutability": "nonpayable",
      "type": "constructor"
    },
    {
      "inputs": [],
      "name": "callee",
      "outputs": [
        {
          "internalType": "address",
          "name": "",
          "type": "address"
        }
      ],
      "stateMutability": "view",
      "type": "function"
    },
    {
      "inputs": [],
      "name": "costTicket",
      "outputs": [
        {
          "internalType": "uint256",
          "name": "",
          "type": "uint256"
        }
      ],
      "stateMutability": "view",
      "type": "function"
    },
    {
      "inputs": [
        {
          "internalType": "uint256",
          "name": "_costTicket",
          "type": "uint256"
        }
      ],
      "name": "delegateCallCostTicket",
      "outputs": [],
      "stateMutability": "nonpayable",
      "type": "function"
    },
    {
      "inputs": [
        {
          "internalType": "uint256",
          "name": "_endAt",
          "type": "uint256"
        }
      ],
      "name": "delegateCallEndAt",
      "outputs": [],
      "stateMutability": "nonpayable",
      "type": "function"
    },
    {
      "inputs": [
        {
          "internalType": "uint256",
          "name": "_startAt",
          "type": "uint256"
        }
      ],
      "name": "delegateCallStartAt",
      "outputs": [],
      "stateMutability": "nonpayable",
      "type": "function"
    },
    {
      "inputs": [],
      "name": "endAt",
      "outputs": [
        {
          "internalType": "uint256",
          "name": "",
          "type": "uint256"
        }
      ],
      "stateMutability": "view",
      "type": "function"
    },
    {
      "inputs": [],
      "name": "startAt",
      "outputs": [
        {
          "internalType": "uint256",
          "name": "",
          "type": "uint256"
        }
      ],
      "stateMutability": "view",
      "type": "function"
    }
  ],
  "bytecode": "0x608060405234801561001057600080fd5b5060405161098c38038061098c833981810160405281019061003291906100dc565b80600360006101000a81548173ffffffffffffffffffffffffffffffffffffffff021916908373ffffffffffffffffffffffffffffffffffffffff16021790555050610109565b600080fd5b600073ffffffffffffffffffffffffffffffffffffffff82169050919050565b60006100a98261007e565b9050919050565b6100b98161009e565b81146100c457600080fd5b50565b6000815190506100d6816100b0565b92915050565b6000602082840312156100f2576100f1610079565b5b6000610100848285016100c7565b91505092915050565b610874806101186000396000f3fe608060405234801561001057600080fd5b506004361061007d5760003560e01c8063a136e5081161005b578063a136e508146100d8578063c7446565146100f6578063ceee2e2014610114578063f0423cdf146101325761007d565b80633b5498e7146100825780634d0fff811461009e5780637cc3ae8c146100ba575b600080fd5b61009c600480360381019061009791906105f4565b61014e565b005b6100b860048036038101906100b391906105f4565b6102ae565b005b6100c2610421565b6040516100cf9190610630565b60405180910390f35b6100e0610427565b6040516100ed9190610630565b60405180910390f35b6100fe61042d565b60405161010b9190610630565b60405180910390f35b61011c610433565b604051610129919061068c565b60405180910390f35b61014c600480360381019061014791906105f4565b610459565b005b6000600360009054906101000a900473ffffffffffffffffffffffffffffffffffffffff1673ffffffffffffffffffffffffffffffffffffffff168260405160240161019a9190610630565b6040516020818303038152906040527f7cad8f08000000000000000000000000000000000000000000000000000000007bffffffffffffffffffffffffffffffffffffffffffffffffffffffff19166020820180517bffffffffffffffffffffffffffffffffffffffffffffffffffffffff83818316178352505050506040516102249190610721565b6000604051808303816000865af19150503d8060008114610261576040519150601f19603f3d011682016040523d82523d6000602084013e610266565b606091505b50509050806102aa576040517f08c379a00000000000000000000000000000000000000000000000000000000081526004016102a190610795565b60405180910390fd5b5050565b6000600360009054906101000a900473ffffffffffffffffffffffffffffffffffffffff1673ffffffffffffffffffffffffffffffffffffffff16670de0b6b3a7640000836102fd91906107e4565b60405160240161030d9190610630565b6040516020818303038152906040527f4bad1af4000000000000000000000000000000000000000000000000000000007bffffffffffffffffffffffffffffffffffffffffffffffffffffffff19166020820180517bffffffffffffffffffffffffffffffffffffffffffffffffffffffff83818316178352505050506040516103979190610721565b6000604051808303816000865af19150503d80600081146103d4576040519150601f19603f3d011682016040523d82523d6000602084013e6103d9565b606091505b505090508061041d576040517f08c379a000000000000000000000000000000000000000000000000000000000815260040161041490610795565b60405180910390fd5b5050565b60015481565b60025481565b60005481565b600360009054906101000a900473ffffffffffffffffffffffffffffffffffffffff1681565b6000600360009054906101000a900473ffffffffffffffffffffffffffffffffffffffff1673ffffffffffffffffffffffffffffffffffffffff16826040516024016104a59190610630565b6040516020818303038152906040527ff3a133a9000000000000000000000000000000000000000000000000000000007bffffffffffffffffffffffffffffffffffffffffffffffffffffffff19166020820180517bffffffffffffffffffffffffffffffffffffffffffffffffffffffff838183161783525050505060405161052f9190610721565b6000604051808303816000865af19150503d806000811461056c576040519150601f19603f3d011682016040523d82523d6000602084013e610571565b606091505b50509050806105b5576040517f08c379a00000000000000000000000000000000000000000000000000000000081526004016105ac90610795565b60405180910390fd5b5050565b600080fd5b6000819050919050565b6105d1816105be565b81146105dc57600080fd5b50565b6000813590506105ee816105c8565b92915050565b60006020828403121561060a576106096105b9565b5b6000610618848285016105df565b91505092915050565b61062a816105be565b82525050565b60006020820190506106456000830184610621565b92915050565b600073ffffffffffffffffffffffffffffffffffffffff82169050919050565b60006106768261064b565b9050919050565b6106868161066b565b82525050565b60006020820190506106a1600083018461067d565b92915050565b600081519050919050565b600081905092915050565b60005b838110156106db5780820151818401526020810190506106c0565b838111156106ea576000848401525b50505050565b60006106fb826106a7565b61070581856106b2565b93506107158185602086016106bd565b80840191505092915050565b600061072d82846106f0565b915081905092915050565b600082825260208201905092915050565b7f44656c65676174652063616c6c206661696c6564000000000000000000000000600082015250565b600061077f601483610738565b915061078a82610749565b602082019050919050565b600060208201905081810360008301526107ae81610772565b9050919050565b7f4e487b7100000000000000000000000000000000000000000000000000000000600052601160045260246000fd5b60006107ef826105be565b91506107fa836105be565b9250817fffffffffffffffffffffffffffffffffffffffffffffffffffffffffffffffff0483118215151615610833576108326107b5565b5b82820290509291505056fea2646970667358221220f0b4746450ee5e49b003015a860ab9fc6f4086e31400328da42fd04a224e060064736f6c634300080b0033",
  "linkReferences": {},
  "deployedLinkReferences": {}
}