{
  "contracts/upgradeERC20Adress.sol": {
    "ERC20Upgrade": {
      "abi": [
        {
          "inputs": [
            {
              "internalType": "contract MyToken",
              "name": "_token",
              "type": "address"
            }
          ],
          "name": "initialize",
          "outputs": [],
          "stateMutability": "nonpayable",
          "type": "function"
        },
        {
          "inputs": [],
          "name": "token",
          "outputs": [
            {
              "internalType": "contract MyToken",
              "name": "",
              "type": "address"
            }
          ],
          "stateMutability": "view",
          "type": "function"
        }
      ],
      "evm": {
        "bytecode": {
          "linkReferences": {},
          "object": "608060405234801561001057600080fd5b5061022e806100206000396000f3fe608060405234801561001057600080fd5b50600436106100365760003560e01c8063c4d66de81461003b578063fc0c546a14610057575b600080fd5b61005560048036038101906100509190610151565b610075565b005b61005f6100b8565b60405161006c91906101dd565b60405180910390f35b806000806101000a81548173ffffffffffffffffffffffffffffffffffffffff021916908373ffffffffffffffffffffffffffffffffffffffff16021790555050565b60008054906101000a900473ffffffffffffffffffffffffffffffffffffffff1681565b600080fd5b600073ffffffffffffffffffffffffffffffffffffffff82169050919050565b600061010c826100e1565b9050919050565b600061011e82610101565b9050919050565b61012e81610113565b811461013957600080fd5b50565b60008135905061014b81610125565b92915050565b600060208284031215610167576101666100dc565b5b60006101758482850161013c565b91505092915050565b6000819050919050565b60006101a361019e610199846100e1565b61017e565b6100e1565b9050919050565b60006101b582610188565b9050919050565b60006101c7826101aa565b9050919050565b6101d7816101bc565b82525050565b60006020820190506101f260008301846101ce565b9291505056fea2646970667358221220f14ad63d4e9b1424123634e6d2e82eb08a5cf9a4e3a3accb4881c4d3285d710564736f6c634300080b0033",
          "opcodes": "PUSH1 0x80 PUSH1 0x40 MSTORE CALLVALUE DUP1 ISZERO PUSH2 0x10 JUMPI PUSH1 0x0 DUP1 REVERT JUMPDEST POP PUSH2 0x22E DUP1 PUSH2 0x20 PUSH1 0x0 CODECOPY PUSH1 0x0 RETURN INVALID PUSH1 0x80 PUSH1 0x40 MSTORE CALLVALUE DUP1 ISZERO PUSH2 0x10 JUMPI PUSH1 0x0 DUP1 REVERT JUMPDEST POP PUSH1 0x4 CALLDATASIZE LT PUSH2 0x36 JUMPI PUSH1 0x0 CALLDATALOAD PUSH1 0xE0 SHR DUP1 PUSH4 0xC4D66DE8 EQ PUSH2 0x3B JUMPI DUP1 PUSH4 0xFC0C546A EQ PUSH2 0x57 JUMPI JUMPDEST PUSH1 0x0 DUP1 REVERT JUMPDEST PUSH2 0x55 PUSH1 0x4 DUP1 CALLDATASIZE SUB DUP2 ADD SWAP1 PUSH2 0x50 SWAP2 SWAP1 PUSH2 0x151 JUMP JUMPDEST PUSH2 0x75 JUMP JUMPDEST STOP JUMPDEST PUSH2 0x5F PUSH2 0xB8 JUMP JUMPDEST PUSH1 0x40 MLOAD PUSH2 0x6C SWAP2 SWAP1 PUSH2 0x1DD JUMP JUMPDEST PUSH1 0x40 MLOAD DUP1 SWAP2 SUB SWAP1 RETURN JUMPDEST DUP1 PUSH1 0x0 DUP1 PUSH2 0x100 EXP DUP2 SLOAD DUP2 PUSH20 0xFFFFFFFFFFFFFFFFFFFFFFFFFFFFFFFFFFFFFFFF MUL NOT AND SWAP1 DUP4 PUSH20 0xFFFFFFFFFFFFFFFFFFFFFFFFFFFFFFFFFFFFFFFF AND MUL OR SWAP1 SSTORE POP POP JUMP JUMPDEST PUSH1 0x0 DUP1 SLOAD SWAP1 PUSH2 0x100 EXP SWAP1 DIV PUSH20 0xFFFFFFFFFFFFFFFFFFFFFFFFFFFFFFFFFFFFFFFF AND DUP2 JUMP JUMPDEST PUSH1 0x0 DUP1 REVERT JUMPDEST PUSH1 0x0 PUSH20 0xFFFFFFFFFFFFFFFFFFFFFFFFFFFFFFFFFFFFFFFF DUP3 AND SWAP1 POP SWAP2 SWAP1 POP JUMP JUMPDEST PUSH1 0x0 PUSH2 0x10C DUP3 PUSH2 0xE1 JUMP JUMPDEST SWAP1 POP SWAP2 SWAP1 POP JUMP JUMPDEST PUSH1 0x0 PUSH2 0x11E DUP3 PUSH2 0x101 JUMP JUMPDEST SWAP1 POP SWAP2 SWAP1 POP JUMP JUMPDEST PUSH2 0x12E DUP2 PUSH2 0x113 JUMP JUMPDEST DUP2 EQ PUSH2 0x139 JUMPI PUSH1 0x0 DUP1 REVERT JUMPDEST POP JUMP JUMPDEST PUSH1 0x0 DUP2 CALLDATALOAD SWAP1 POP PUSH2 0x14B DUP2 PUSH2 0x125 JUMP JUMPDEST SWAP3 SWAP2 POP POP JUMP JUMPDEST PUSH1 0x0 PUSH1 0x20 DUP3 DUP5 SUB SLT ISZERO PUSH2 0x167 JUMPI PUSH2 0x166 PUSH2 0xDC JUMP JUMPDEST JUMPDEST PUSH1 0x0 PUSH2 0x175 DUP5 DUP3 DUP6 ADD PUSH2 0x13C JUMP JUMPDEST SWAP2 POP POP SWAP3 SWAP2 POP POP JUMP JUMPDEST PUSH1 0x0 DUP2 SWAP1 POP SWAP2 SWAP1 POP JUMP JUMPDEST PUSH1 0x0 PUSH2 0x1A3 PUSH2 0x19E PUSH2 0x199 DUP5 PUSH2 0xE1 JUMP JUMPDEST PUSH2 0x17E JUMP JUMPDEST PUSH2 0xE1 JUMP JUMPDEST SWAP1 POP SWAP2 SWAP1 POP JUMP JUMPDEST PUSH1 0x0 PUSH2 0x1B5 DUP3 PUSH2 0x188 JUMP JUMPDEST SWAP1 POP SWAP2 SWAP1 POP JUMP JUMPDEST PUSH1 0x0 PUSH2 0x1C7 DUP3 PUSH2 0x1AA JUMP JUMPDEST SWAP1 POP SWAP2 SWAP1 POP JUMP JUMPDEST PUSH2 0x1D7 DUP2 PUSH2 0x1BC JUMP JUMPDEST DUP3 MSTORE POP POP JUMP JUMPDEST PUSH1 0x0 PUSH1 0x20 DUP3 ADD SWAP1 POP PUSH2 0x1F2 PUSH1 0x0 DUP4 ADD DUP5 PUSH2 0x1CE JUMP JUMPDEST SWAP3 SWAP2 POP POP JUMP INVALID LOG2 PUSH5 0x6970667358 0x22 SLT KECCAK256 CALL 0x4A 0xD6 RETURNDATASIZE 0x4E SWAP12 EQ 0x24 SLT CALLDATASIZE CALLVALUE 0xE6 0xD2 0xE8 0x2E 0xB0 DUP11 0x5C 0xF9 LOG4 0xE3 LOG3 0xAC 0xCB BASEFEE DUP2 0xC4 0xD3 0x28 0x5D PUSH18 0x564736F6C634300080B0033000000000000 "
        },
        "methodIdentifiers": {
          "initialize(address)": "c4d66de8",
          "token()": "fc0c546a"
        }
      },
      "storageLayout": {
        "storage": [
          {
            "astId": 1998,
            "contract": "contracts/upgradeERC20Adress.sol:ERC20Upgrade",
            "label": "token",
            "offset": 0,
            "slot": "0",
            "type": "t_contract(MyToken)1391"
          }
        ],
        "types": {
          "t_contract(MyToken)1391": {
            "encoding": "inplace",
            "label": "contract MyToken",
            "numberOfBytes": "20"
          }
        }
      }
    }
  }
}