{
  "_format": "hh-sol-artifact-1",
  "contractName": "LotteryUpgradable",
  "sourceName": "contracts/LotteryUpgradable.sol",
  "abi": [
    {
      "inputs": [
        {
          "internalType": "address",
          "name": "_callee",
          "type": "address"
        }
      ],
      "stateMutability": "nonpayable",
      "type": "constructor"
    },
    {
      "inputs": [],
      "name": "callee",
      "outputs": [
        {
          "internalType": "address",
          "name": "",
          "type": "address"
        }
      ],
      "stateMutability": "view",
      "type": "function"
    },
    {
      "inputs": [],
      "name": "costTicket",
      "outputs": [
        {
          "internalType": "uint256",
          "name": "",
          "type": "uint256"
        }
      ],
      "stateMutability": "view",
      "type": "function"
    },
    {
      "inputs": [
        {
          "internalType": "uint256",
          "name": "_costTicket",
          "type": "uint256"
        }
      ],
      "name": "delegateCallCostTicket",
      "outputs": [],
      "stateMutability": "nonpayable",
      "type": "function"
    },
    {
      "inputs": [
        {
          "internalType": "uint256",
          "name": "_endAt",
          "type": "uint256"
        }
      ],
      "name": "delegateCallEndAt",
      "outputs": [],
      "stateMutability": "nonpayable",
      "type": "function"
    },
    {
      "inputs": [
        {
          "internalType": "uint256",
          "name": "_startAt",
          "type": "uint256"
        }
      ],
      "name": "delegateCallStartAt",
      "outputs": [],
      "stateMutability": "nonpayable",
      "type": "function"
    },
    {
      "inputs": [],
      "name": "endAt",
      "outputs": [
        {
          "internalType": "uint256",
          "name": "",
          "type": "uint256"
        }
      ],
      "stateMutability": "view",
      "type": "function"
    },
    {
      "inputs": [],
      "name": "startAt",
      "outputs": [
        {
          "internalType": "uint256",
          "name": "",
          "type": "uint256"
        }
      ],
      "stateMutability": "view",
      "type": "function"
    }
  ],
  "bytecode": "0x608060405234801561001057600080fd5b506040516108f03803806108f0833981810160405281019061003291906100dc565b80600360006101000a81548173ffffffffffffffffffffffffffffffffffffffff021916908373ffffffffffffffffffffffffffffffffffffffff16021790555050610109565b600080fd5b600073ffffffffffffffffffffffffffffffffffffffff82169050919050565b60006100a98261007e565b9050919050565b6100b98161009e565b81146100c457600080fd5b50565b6000815190506100d6816100b0565b92915050565b6000602082840312156100f2576100f1610079565b5b6000610100848285016100c7565b91505092915050565b6107d8806101186000396000f3fe608060405234801561001057600080fd5b506004361061007d5760003560e01c8063a136e5081161005b578063a136e508146100d8578063c7446565146100f6578063ceee2e2014610114578063f0423cdf146101325761007d565b80633b5498e7146100825780634d0fff811461009e5780637cc3ae8c146100ba575b600080fd5b61009c600480360381019061009791906105e1565b61014e565b005b6100b860048036038101906100b391906105e1565b6102ae565b005b6100c261040e565b6040516100cf919061061d565b60405180910390f35b6100e0610414565b6040516100ed919061061d565b60405180910390f35b6100fe61041a565b60405161010b919061061d565b60405180910390f35b61011c610420565b6040516101299190610679565b60405180910390f35b61014c600480360381019061014791906105e1565b610446565b005b6000600360009054906101000a900473ffffffffffffffffffffffffffffffffffffffff1673ffffffffffffffffffffffffffffffffffffffff168260405160240161019a919061061d565b6040516020818303038152906040527f7cad8f08000000000000000000000000000000000000000000000000000000007bffffffffffffffffffffffffffffffffffffffffffffffffffffffff19166020820180517bffffffffffffffffffffffffffffffffffffffffffffffffffffffff8381831617835250505050604051610224919061070e565b6000604051808303816000865af19150503d8060008114610261576040519150601f19603f3d011682016040523d82523d6000602084013e610266565b606091505b50509050806102aa576040517f08c379a00000000000000000000000000000000000000000000000000000000081526004016102a190610782565b60405180910390fd5b5050565b6000600360009054906101000a900473ffffffffffffffffffffffffffffffffffffffff1673ffffffffffffffffffffffffffffffffffffffff16826040516024016102fa919061061d565b6040516020818303038152906040527f4bad1af4000000000000000000000000000000000000000000000000000000007bffffffffffffffffffffffffffffffffffffffffffffffffffffffff19166020820180517bffffffffffffffffffffffffffffffffffffffffffffffffffffffff8381831617835250505050604051610384919061070e565b6000604051808303816000865af19150503d80600081146103c1576040519150601f19603f3d011682016040523d82523d6000602084013e6103c6565b606091505b505090508061040a576040517f08c379a000000000000000000000000000000000000000000000000000000000815260040161040190610782565b60405180910390fd5b5050565b60015481565b60025481565b60005481565b600360009054906101000a900473ffffffffffffffffffffffffffffffffffffffff1681565b6000600360009054906101000a900473ffffffffffffffffffffffffffffffffffffffff1673ffffffffffffffffffffffffffffffffffffffff1682604051602401610492919061061d565b6040516020818303038152906040527ff3a133a9000000000000000000000000000000000000000000000000000000007bffffffffffffffffffffffffffffffffffffffffffffffffffffffff19166020820180517bffffffffffffffffffffffffffffffffffffffffffffffffffffffff838183161783525050505060405161051c919061070e565b6000604051808303816000865af19150503d8060008114610559576040519150601f19603f3d011682016040523d82523d6000602084013e61055e565b606091505b50509050806105a2576040517f08c379a000000000000000000000000000000000000000000000000000000000815260040161059990610782565b60405180910390fd5b5050565b600080fd5b6000819050919050565b6105be816105ab565b81146105c957600080fd5b50565b6000813590506105db816105b5565b92915050565b6000602082840312156105f7576105f66105a6565b5b6000610605848285016105cc565b91505092915050565b610617816105ab565b82525050565b6000602082019050610632600083018461060e565b92915050565b600073ffffffffffffffffffffffffffffffffffffffff82169050919050565b600061066382610638565b9050919050565b61067381610658565b82525050565b600060208201905061068e600083018461066a565b92915050565b600081519050919050565b600081905092915050565b60005b838110156106c85780820151818401526020810190506106ad565b838111156106d7576000848401525b50505050565b60006106e882610694565b6106f2818561069f565b93506107028185602086016106aa565b80840191505092915050565b600061071a82846106dd565b915081905092915050565b600082825260208201905092915050565b7f44656c65676174652063616c6c206661696c6564000000000000000000000000600082015250565b600061076c601483610725565b915061077782610736565b602082019050919050565b6000602082019050818103600083015261079b8161075f565b905091905056fea2646970667358221220e8c279ba7490da4be3823b9645ef31931dcca7aacba29eea44116577bec2237164736f6c634300080b0033",
  "linkReferences": {},
  "deployedLinkReferences": {}
}