{
	"contracts/Lottery.sol": {
		"Lottery": {
			"abi": [
				{
					"inputs": [
						{
							"internalType": "address",
							"name": "have",
							"type": "address"
						},
						{
							"internalType": "address",
							"name": "want",
							"type": "address"
						}
					],
					"name": "OnlyCoordinatorCanFulfill",
					"type": "error"
				},
				{
					"inputs": [
						{
							"internalType": "uint256",
							"name": "_numTicket",
							"type": "uint256"
						}
					],
					"name": "enter",
					"outputs": [],
					"stateMutability": "payable",
					"type": "function"
				},
				{
					"inputs": [],
					"name": "getAmountPlayer",
					"outputs": [
						{
							"internalType": "uint256",
							"name": "",
							"type": "uint256"
						}
					],
					"stateMutability": "view",
					"type": "function"
				},
				{
					"inputs": [],
					"name": "getBalance",
					"outputs": [
						{
							"internalType": "uint256",
							"name": "",
							"type": "uint256"
						}
					],
					"stateMutability": "view",
					"type": "function"
				},
				{
					"inputs": [],
					"name": "getLuckyNumber",
					"outputs": [
						{
							"internalType": "uint256",
							"name": "",
							"type": "uint256"
						}
					],
					"stateMutability": "view",
					"type": "function"
				},
				{
					"inputs": [
						{
							"internalType": "uint256",
							"name": "_index",
							"type": "uint256"
						}
					],
					"name": "getPlayers",
					"outputs": [
						{
							"internalType": "address payable",
							"name": "",
							"type": "address"
						},
						{
							"internalType": "uint256",
							"name": "",
							"type": "uint256"
						}
					],
					"stateMutability": "view",
					"type": "function"
				},
				{
					"inputs": [
						{
							"internalType": "uint256",
							"name": "lottery",
							"type": "uint256"
						}
					],
					"name": "getWinnerByLottery",
					"outputs": [
						{
							"internalType": "address payable",
							"name": "",
							"type": "address"
						}
					],
					"stateMutability": "view",
					"type": "function"
				},
				{
					"inputs": [
						{
							"internalType": "uint256",
							"name": "",
							"type": "uint256"
						}
					],
					"name": "lotteryHistory",
					"outputs": [
						{
							"internalType": "address payable",
							"name": "",
							"type": "address"
						}
					],
					"stateMutability": "view",
					"type": "function"
				},
				{
					"inputs": [],
					"name": "lotteryId",
					"outputs": [
						{
							"internalType": "uint256",
							"name": "",
							"type": "uint256"
						}
					],
					"stateMutability": "view",
					"type": "function"
				},
				{
					"inputs": [],
					"name": "lotteryStatus",
					"outputs": [
						{
							"internalType": "enum Lottery.Status",
							"name": "",
							"type": "uint8"
						}
					],
					"stateMutability": "view",
					"type": "function"
				},
				{
					"inputs": [
						{
							"internalType": "uint256",
							"name": "requestId",
							"type": "uint256"
						},
						{
							"internalType": "uint256[]",
							"name": "randomWords",
							"type": "uint256[]"
						}
					],
					"name": "rawFulfillRandomWords",
					"outputs": [],
					"stateMutability": "nonpayable",
					"type": "function"
				},
				{
					"inputs": [],
					"name": "requestRandomWords",
					"outputs": [],
					"stateMutability": "nonpayable",
					"type": "function"
				},
				{
					"inputs": [
						{
							"internalType": "uint256",
							"name": "",
							"type": "uint256"
						}
					],
					"name": "s_randomWords",
					"outputs": [
						{
							"internalType": "uint256",
							"name": "",
							"type": "uint256"
						}
					],
					"stateMutability": "view",
					"type": "function"
				},
				{
					"inputs": [],
					"name": "s_requestId",
					"outputs": [
						{
							"internalType": "uint256",
							"name": "",
							"type": "uint256"
						}
					],
					"stateMutability": "view",
					"type": "function"
				}
			],
			"devdoc": {
				"kind": "dev",
				"methods": {},
				"version": 1
			},
			"evm": {
				"assembly": "    /* \"contracts/Lottery.sol\":426:4328  contract Lottery is VRFConsumerBaseV2(0x6168499c0cFfCaCD319c818142124B7A15E857ab) {... */\n  mstore(0x40, 0xa0)\n    /* \"contracts/Lottery.sol\":1015:1021  100000 */\n  0x0186a0\n    /* \"contracts/Lottery.sol\":989:1021  uint32 callbackGasLimit = 100000 */\n  0x00\n  dup1\n  0x0100\n  exp\n  dup2\n  sload\n  dup2\n  0xffffffff\n  mul\n  not\n  and\n  swap1\n  dup4\n  0xffffffff\n  and\n  mul\n  or\n  swap1\n  sstore\n  pop\n    /* \"contracts/Lottery.sol\":1112:1113  3 */\n  0x03\n    /* \"contracts/Lottery.sol\":1082:1113  uint16 requestConfirmations = 3 */\n  0x00\n  exp(0x0100, 0x04)\n  dup2\n  sload\n  dup2\n  0xffff\n  mul\n  not\n  and\n  swap1\n  dup4\n  0xffff\n  and\n  mul\n  or\n  swap1\n  sstore\n  pop\n    /* \"contracts/Lottery.sol\":1258:1259  2 */\n  0x02\n    /* \"contracts/Lottery.sol\":1239:1259  uint32 numWords =  2 */\n  0x00\n  exp(0x0100, 0x06)\n  dup2\n  sload\n  dup2\n  0xffffffff\n  mul\n  not\n  and\n  swap1\n  dup4\n  0xffffffff\n  and\n  mul\n  or\n  swap1\n  sstore\n  pop\n    /* \"contracts/Lottery.sol\":1352:1362  msg.sender */\n  caller\n    /* \"contracts/Lottery.sol\":1334:1362  address s_owner = msg.sender */\n  0x03\n  exp(0x0100, 0x00)\n  dup2\n  sload\n  dup2\n  0xffffffffffffffffffffffffffffffffffffffff\n  mul\n  not\n  and\n  swap1\n  dup4\n  0xffffffffffffffffffffffffffffffffffffffff\n  and\n  mul\n  or\n  swap1\n  sstore\n  pop\n    /* \"contracts/Lottery.sol\":1773:1774  0 */\n  0x00\n    /* \"contracts/Lottery.sol\":1745:1774  uint internal playerCount = 0 */\n  0x08\n  sstore\n    /* \"contracts/Lottery.sol\":2094:2112  Status.NOT_STARTED */\n  0x00\n    /* \"contracts/Lottery.sol\":2064:2112  Status public lotteryStatus = Status.NOT_STARTED */\n  0x09\n  exp(0x0100, 0x00)\n  dup2\n  sload\n  dup2\n  0xff\n  mul\n  not\n  and\n  swap1\n  dup4\n  0x03\n  dup2\n  gt\n  iszero\n  tag_1\n  jumpi\n  tag_2\n  tag_3\n  jump\t// in\ntag_2:\ntag_1:\n  mul\n  or\n  swap1\n  sstore\n  pop\n    /* \"contracts/Lottery.sol\":426:4328  contract Lottery is VRFConsumerBaseV2(0x6168499c0cFfCaCD319c818142124B7A15E857ab) {... */\n  callvalue\n  dup1\n  iszero\n  tag_4\n  jumpi\n  0x00\n  dup1\n  revert\ntag_4:\n  pop\n    /* \"contracts/Lottery.sol\":464:506  0x6168499c0cFfCaCD319c818142124B7A15E857ab */\n  0x6168499c0cffcacd319c818142124b7a15e857ab\n    /* \"@chainlink/contracts/src/v0.8/VRFConsumerBaseV2.sol\":5616:5631  _vrfCoordinator */\n  dup1\n    /* \"@chainlink/contracts/src/v0.8/VRFConsumerBaseV2.sol\":5599:5631  vrfCoordinator = _vrfCoordinator */\n  0xffffffffffffffffffffffffffffffffffffffff\n  and\n  0x80\n  dup2\n  0xffffffffffffffffffffffffffffffffffffffff\n  and\n  dup2\n  mstore\n  pop\n  pop\n    /* \"@chainlink/contracts/src/v0.8/VRFConsumerBaseV2.sol\":5556:5636  constructor(address _vrfCoordinator) {... */\n  pop\n    /* \"contracts/Lottery.sol\":426:4328  contract Lottery is VRFConsumerBaseV2(0x6168499c0cFfCaCD319c818142124B7A15E857ab) {... */\n  jump(tag_7)\n    /* \"#utility.yul\":7:187   */\ntag_3:\n    /* \"#utility.yul\":55:132   */\n  0x4e487b7100000000000000000000000000000000000000000000000000000000\n    /* \"#utility.yul\":52:53   */\n  0x00\n    /* \"#utility.yul\":45:133   */\n  mstore\n    /* \"#utility.yul\":152:156   */\n  0x21\n    /* \"#utility.yul\":149:150   */\n  0x04\n    /* \"#utility.yul\":142:157   */\n  mstore\n    /* \"#utility.yul\":176:180   */\n  0x24\n    /* \"#utility.yul\":173:174   */\n  0x00\n    /* \"#utility.yul\":166:181   */\n  revert\n    /* \"contracts/Lottery.sol\":426:4328  contract Lottery is VRFConsumerBaseV2(0x6168499c0cFfCaCD319c818142124B7A15E857ab) {... */\ntag_7:\n  mload(0x80)\n  codecopy(0x00, dataOffset(sub_0), dataSize(sub_0))\n  0x00\n  assignImmutable(\"0x1a192fabce13988b84994d4296e6cdc418d55e2f1d7f942188d4040b94fc57ac\")\n  return(0x00, dataSize(sub_0))\nstop\n\nsub_0: assembly {\n        /* \"contracts/Lottery.sol\":426:4328  contract Lottery is VRFConsumerBaseV2(0x6168499c0cFfCaCD319c818142124B7A15E857ab) {... */\n      mstore(0x40, 0x80)\n      jumpi(tag_1, lt(calldatasize, 0x04))\n      shr(0xe0, calldataload(0x00))\n      dup1\n      0x6d6fe230\n      gt\n      tag_15\n      jumpi\n      dup1\n      0xe580f47b\n      gt\n      tag_16\n      jumpi\n      dup1\n      0xe580f47b\n      eq\n      tag_11\n      jumpi\n      dup1\n      0xe69f19cd\n      eq\n      tag_12\n      jumpi\n      dup1\n      0xe89e106a\n      eq\n      tag_13\n      jumpi\n      dup1\n      0xf6eaffc8\n      eq\n      tag_14\n      jumpi\n      jump(tag_1)\n    tag_16:\n      dup1\n      0x6d6fe230\n      eq\n      tag_8\n      jumpi\n      dup1\n      0xa59f3e0c\n      eq\n      tag_9\n      jumpi\n      dup1\n      0xe0c86289\n      eq\n      tag_10\n      jumpi\n      jump(tag_1)\n    tag_15:\n      dup1\n      0x0d683dd9\n      eq\n      tag_2\n      jumpi\n      dup1\n      0x12065fe0\n      eq\n      tag_3\n      jumpi\n      dup1\n      0x1fe543e3\n      eq\n      tag_4\n      jumpi\n      dup1\n      0x281d098d\n      eq\n      tag_5\n      jumpi\n      dup1\n      0x32eb85a4\n      eq\n      tag_6\n      jumpi\n      dup1\n      0x460e2049\n      eq\n      tag_7\n      jumpi\n    tag_1:\n      0x00\n      dup1\n      revert\n        /* \"contracts/Lottery.sol\":2064:2112  Status public lotteryStatus = Status.NOT_STARTED */\n    tag_2:\n      callvalue\n      dup1\n      iszero\n      tag_17\n      jumpi\n      0x00\n      dup1\n      revert\n    tag_17:\n      pop\n      tag_18\n      tag_19\n      jump\t// in\n    tag_18:\n      mload(0x40)\n      tag_20\n      swap2\n      swap1\n      tag_21\n      jump\t// in\n    tag_20:\n      mload(0x40)\n      dup1\n      swap2\n      sub\n      swap1\n      return\n        /* \"contracts/Lottery.sol\":2339:2433  function getBalance() public view returns (uint) {... */\n    tag_3:\n      callvalue\n      dup1\n      iszero\n      tag_22\n      jumpi\n      0x00\n      dup1\n      revert\n    tag_22:\n      pop\n      tag_23\n      tag_24\n      jump\t// in\n    tag_23:\n      mload(0x40)\n      tag_25\n      swap2\n      swap1\n      tag_26\n      jump\t// in\n    tag_25:\n      mload(0x40)\n      dup1\n      swap2\n      sub\n      swap1\n      return\n        /* \"@chainlink/contracts/src/v0.8/VRFConsumerBaseV2.sol\":6618:6874  function rawFulfillRandomWords(uint256 requestId, uint256[] memory randomWords) external {... */\n    tag_4:\n      callvalue\n      dup1\n      iszero\n      tag_27\n      jumpi\n      0x00\n      dup1\n      revert\n    tag_27:\n      pop\n      tag_28\n      0x04\n      dup1\n      calldatasize\n      sub\n      dup2\n      add\n      swap1\n      tag_29\n      swap2\n      swap1\n      tag_30\n      jump\t// in\n    tag_29:\n      tag_31\n      jump\t// in\n    tag_28:\n      stop\n        /* \"contracts/Lottery.sol\":2206:2333  function getWinnerByLottery(uint lottery) public view returns (address payable) {... */\n    tag_5:\n      callvalue\n      dup1\n      iszero\n      tag_32\n      jumpi\n      0x00\n      dup1\n      revert\n    tag_32:\n      pop\n      tag_33\n      0x04\n      dup1\n      calldatasize\n      sub\n      dup2\n      add\n      swap1\n      tag_34\n      swap2\n      swap1\n      tag_35\n      jump\t// in\n    tag_34:\n      tag_36\n      jump\t// in\n    tag_33:\n      mload(0x40)\n      tag_37\n      swap2\n      swap1\n      tag_38\n      jump\t// in\n    tag_37:\n      mload(0x40)\n      dup1\n      swap2\n      sub\n      swap1\n      return\n        /* \"contracts/Lottery.sol\":2689:2777  function getAmountPlayer() public view returns (uint){... */\n    tag_6:\n      callvalue\n      dup1\n      iszero\n      tag_39\n      jumpi\n      0x00\n      dup1\n      revert\n    tag_39:\n      pop\n      tag_40\n      tag_41\n      jump\t// in\n    tag_40:\n      mload(0x40)\n      tag_42\n      swap2\n      swap1\n      tag_26\n      jump\t// in\n    tag_42:\n      mload(0x40)\n      dup1\n      swap2\n      sub\n      swap1\n      return\n        /* \"contracts/Lottery.sol\":2439:2679  function getPlayers(uint _index) public view returns (address payable, uint) {... */\n    tag_7:\n      callvalue\n      dup1\n      iszero\n      tag_43\n      jumpi\n      0x00\n      dup1\n      revert\n    tag_43:\n      pop\n      tag_44\n      0x04\n      dup1\n      calldatasize\n      sub\n      dup2\n      add\n      swap1\n      tag_45\n      swap2\n      swap1\n      tag_35\n      jump\t// in\n    tag_45:\n      tag_46\n      jump\t// in\n    tag_44:\n      mload(0x40)\n      tag_47\n      swap3\n      swap2\n      swap1\n      tag_48\n      jump\t// in\n    tag_47:\n      mload(0x40)\n      dup1\n      swap2\n      sub\n      swap1\n      return\n        /* \"contracts/Lottery.sol\":1400:1455  mapping (uint => address payable) public lotteryHistory */\n    tag_8:\n      callvalue\n      dup1\n      iszero\n      tag_49\n      jumpi\n      0x00\n      dup1\n      revert\n    tag_49:\n      pop\n      tag_50\n      0x04\n      dup1\n      calldatasize\n      sub\n      dup2\n      add\n      swap1\n      tag_51\n      swap2\n      swap1\n      tag_35\n      jump\t// in\n    tag_51:\n      tag_52\n      jump\t// in\n    tag_50:\n      mload(0x40)\n      tag_53\n      swap2\n      swap1\n      tag_38\n      jump\t// in\n    tag_53:\n      mload(0x40)\n      dup1\n      swap2\n      sub\n      swap1\n      return\n        /* \"contracts/Lottery.sol\":2782:3299  function enter(uint _numTicket) public payable {... */\n    tag_9:\n      tag_54\n      0x04\n      dup1\n      calldatasize\n      sub\n      dup2\n      add\n      swap1\n      tag_55\n      swap2\n      swap1\n      tag_35\n      jump\t// in\n    tag_55:\n      tag_56\n      jump\t// in\n    tag_54:\n      stop\n        /* \"contracts/Lottery.sol\":3539:3852  function requestRandomWords() external onlyOwner {... */\n    tag_10:\n      callvalue\n      dup1\n      iszero\n      tag_57\n      jumpi\n      0x00\n      dup1\n      revert\n    tag_57:\n      pop\n      tag_58\n      tag_59\n      jump\t// in\n    tag_58:\n      stop\n        /* \"contracts/Lottery.sol\":1373:1394  uint public lotteryId */\n    tag_11:\n      callvalue\n      dup1\n      iszero\n      tag_60\n      jumpi\n      0x00\n      dup1\n      revert\n    tag_60:\n      pop\n      tag_61\n      tag_62\n      jump\t// in\n    tag_61:\n      mload(0x40)\n      tag_63\n      swap2\n      swap1\n      tag_26\n      jump\t// in\n    tag_63:\n      mload(0x40)\n      dup1\n      swap2\n      sub\n      swap1\n      return\n        /* \"contracts/Lottery.sol\":4137:4245  function getLuckyNumber() public view returns(uint){... */\n    tag_12:\n      callvalue\n      dup1\n      iszero\n      tag_64\n      jumpi\n      0x00\n      dup1\n      revert\n    tag_64:\n      pop\n      tag_65\n      tag_66\n      jump\t// in\n    tag_65:\n      mload(0x40)\n      tag_67\n      swap2\n      swap1\n      tag_26\n      jump\t// in\n    tag_67:\n      mload(0x40)\n      dup1\n      swap2\n      sub\n      swap1\n      return\n        /* \"contracts/Lottery.sol\":1302:1328  uint256 public s_requestId */\n    tag_13:\n      callvalue\n      dup1\n      iszero\n      tag_68\n      jumpi\n      0x00\n      dup1\n      revert\n    tag_68:\n      pop\n      tag_69\n      tag_70\n      jump\t// in\n    tag_69:\n      mload(0x40)\n      tag_71\n      swap2\n      swap1\n      tag_26\n      jump\t// in\n    tag_71:\n      mload(0x40)\n      dup1\n      swap2\n      sub\n      swap1\n      return\n        /* \"contracts/Lottery.sol\":1266:1296  uint256[] public s_randomWords */\n    tag_14:\n      callvalue\n      dup1\n      iszero\n      tag_72\n      jumpi\n      0x00\n      dup1\n      revert\n    tag_72:\n      pop\n      tag_73\n      0x04\n      dup1\n      calldatasize\n      sub\n      dup2\n      add\n      swap1\n      tag_74\n      swap2\n      swap1\n      tag_35\n      jump\t// in\n    tag_74:\n      tag_75\n      jump\t// in\n    tag_73:\n      mload(0x40)\n      tag_76\n      swap2\n      swap1\n      tag_26\n      jump\t// in\n    tag_76:\n      mload(0x40)\n      dup1\n      swap2\n      sub\n      swap1\n      return\n        /* \"contracts/Lottery.sol\":2064:2112  Status public lotteryStatus = Status.NOT_STARTED */\n    tag_19:\n      0x09\n      0x00\n      swap1\n      sload\n      swap1\n      0x0100\n      exp\n      swap1\n      div\n      0xff\n      and\n      dup2\n      jump\t// out\n        /* \"contracts/Lottery.sol\":2339:2433  function getBalance() public view returns (uint) {... */\n    tag_24:\n        /* \"contracts/Lottery.sol\":2382:2386  uint */\n      0x00\n        /* \"contracts/Lottery.sol\":2405:2426  address(this).balance */\n      selfbalance\n        /* \"contracts/Lottery.sol\":2398:2426  return address(this).balance */\n      swap1\n      pop\n        /* \"contracts/Lottery.sol\":2339:2433  function getBalance() public view returns (uint) {... */\n      swap1\n      jump\t// out\n        /* \"@chainlink/contracts/src/v0.8/VRFConsumerBaseV2.sol\":6618:6874  function rawFulfillRandomWords(uint256 requestId, uint256[] memory randomWords) external {... */\n    tag_31:\n        /* \"@chainlink/contracts/src/v0.8/VRFConsumerBaseV2.sol\":6731:6745  vrfCoordinator */\n      immutable(\"0x1a192fabce13988b84994d4296e6cdc418d55e2f1d7f942188d4040b94fc57ac\")\n        /* \"@chainlink/contracts/src/v0.8/VRFConsumerBaseV2.sol\":6717:6745  msg.sender != vrfCoordinator */\n      0xffffffffffffffffffffffffffffffffffffffff\n      and\n        /* \"@chainlink/contracts/src/v0.8/VRFConsumerBaseV2.sol\":6717:6727  msg.sender */\n      caller\n        /* \"@chainlink/contracts/src/v0.8/VRFConsumerBaseV2.sol\":6717:6745  msg.sender != vrfCoordinator */\n      0xffffffffffffffffffffffffffffffffffffffff\n      and\n      eq\n        /* \"@chainlink/contracts/src/v0.8/VRFConsumerBaseV2.sol\":6713:6822  if (msg.sender != vrfCoordinator) {... */\n      tag_79\n      jumpi\n        /* \"@chainlink/contracts/src/v0.8/VRFConsumerBaseV2.sol\":6788:6798  msg.sender */\n      caller\n        /* \"@chainlink/contracts/src/v0.8/VRFConsumerBaseV2.sol\":6800:6814  vrfCoordinator */\n      immutable(\"0x1a192fabce13988b84994d4296e6cdc418d55e2f1d7f942188d4040b94fc57ac\")\n        /* \"@chainlink/contracts/src/v0.8/VRFConsumerBaseV2.sol\":6762:6815  OnlyCoordinatorCanFulfill(msg.sender, vrfCoordinator) */\n      mload(0x40)\n      0x1cf993f400000000000000000000000000000000000000000000000000000000\n      dup2\n      mstore\n      0x04\n      add\n      tag_80\n      swap3\n      swap2\n      swap1\n      tag_81\n      jump\t// in\n    tag_80:\n      mload(0x40)\n      dup1\n      swap2\n      sub\n      swap1\n      revert\n        /* \"@chainlink/contracts/src/v0.8/VRFConsumerBaseV2.sol\":6713:6822  if (msg.sender != vrfCoordinator) {... */\n    tag_79:\n        /* \"@chainlink/contracts/src/v0.8/VRFConsumerBaseV2.sol\":6827:6869  fulfillRandomWords(requestId, randomWords) */\n      tag_82\n        /* \"@chainlink/contracts/src/v0.8/VRFConsumerBaseV2.sol\":6846:6855  requestId */\n      dup3\n        /* \"@chainlink/contracts/src/v0.8/VRFConsumerBaseV2.sol\":6857:6868  randomWords */\n      dup3\n        /* \"@chainlink/contracts/src/v0.8/VRFConsumerBaseV2.sol\":6827:6845  fulfillRandomWords */\n      tag_83\n        /* \"@chainlink/contracts/src/v0.8/VRFConsumerBaseV2.sol\":6827:6869  fulfillRandomWords(requestId, randomWords) */\n      jump\t// in\n    tag_82:\n        /* \"@chainlink/contracts/src/v0.8/VRFConsumerBaseV2.sol\":6618:6874  function rawFulfillRandomWords(uint256 requestId, uint256[] memory randomWords) external {... */\n      pop\n      pop\n      jump\t// out\n        /* \"contracts/Lottery.sol\":2206:2333  function getWinnerByLottery(uint lottery) public view returns (address payable) {... */\n    tag_36:\n        /* \"contracts/Lottery.sol\":2269:2284  address payable */\n      0x00\n        /* \"contracts/Lottery.sol\":2303:2317  lotteryHistory */\n      0x05\n        /* \"contracts/Lottery.sol\":2303:2326  lotteryHistory[lottery] */\n      0x00\n        /* \"contracts/Lottery.sol\":2318:2325  lottery */\n      dup4\n        /* \"contracts/Lottery.sol\":2303:2326  lotteryHistory[lottery] */\n      dup2\n      mstore\n      0x20\n      add\n      swap1\n      dup2\n      mstore\n      0x20\n      add\n      0x00\n      keccak256\n      0x00\n      swap1\n      sload\n      swap1\n      0x0100\n      exp\n      swap1\n      div\n      0xffffffffffffffffffffffffffffffffffffffff\n      and\n        /* \"contracts/Lottery.sol\":2296:2326  return lotteryHistory[lottery] */\n      swap1\n      pop\n        /* \"contracts/Lottery.sol\":2206:2333  function getWinnerByLottery(uint lottery) public view returns (address payable) {... */\n      swap2\n      swap1\n      pop\n      jump\t// out\n        /* \"contracts/Lottery.sol\":2689:2777  function getAmountPlayer() public view returns (uint){... */\n    tag_41:\n        /* \"contracts/Lottery.sol\":2737:2741  uint */\n      0x00\n        /* \"contracts/Lottery.sol\":2759:2770  playerCount */\n      sload(0x08)\n        /* \"contracts/Lottery.sol\":2752:2770  return playerCount */\n      swap1\n      pop\n        /* \"contracts/Lottery.sol\":2689:2777  function getAmountPlayer() public view returns (uint){... */\n      swap1\n      jump\t// out\n        /* \"contracts/Lottery.sol\":2439:2679  function getPlayers(uint _index) public view returns (address payable, uint) {... */\n    tag_46:\n        /* \"contracts/Lottery.sol\":2493:2508  address payable */\n      0x00\n        /* \"contracts/Lottery.sol\":2510:2514  uint */\n      dup1\n        /* \"contracts/Lottery.sol\":2526:2558  Participants storage participant */\n      0x00\n        /* \"contracts/Lottery.sol\":2561:2571  allLottery */\n      0x07\n        /* \"contracts/Lottery.sol\":2561:2579  allLottery[_index] */\n      0x00\n        /* \"contracts/Lottery.sol\":2572:2578  _index */\n      dup6\n        /* \"contracts/Lottery.sol\":2561:2579  allLottery[_index] */\n      dup2\n      mstore\n      0x20\n      add\n      swap1\n      dup2\n      mstore\n      0x20\n      add\n      0x00\n      keccak256\n        /* \"contracts/Lottery.sol\":2526:2579  Participants storage participant = allLottery[_index] */\n      swap1\n      pop\n        /* \"contracts/Lottery.sol\":2609:2620  participant */\n      dup1\n        /* \"contracts/Lottery.sol\":2609:2627  participant.player */\n      0x00\n      add\n      0x00\n      swap1\n      sload\n      swap1\n      0x0100\n      exp\n      swap1\n      div\n      0xffffffffffffffffffffffffffffffffffffffff\n      and\n        /* \"contracts/Lottery.sol\":2641:2652  participant */\n      dup2\n        /* \"contracts/Lottery.sol\":2641:2662  participant.numTicket */\n      0x01\n      add\n      sload\n        /* \"contracts/Lottery.sol\":2589:2672  return(... */\n      swap3\n      pop\n      swap3\n      pop\n      pop\n        /* \"contracts/Lottery.sol\":2439:2679  function getPlayers(uint _index) public view returns (address payable, uint) {... */\n      swap2\n      pop\n      swap2\n      jump\t// out\n        /* \"contracts/Lottery.sol\":1400:1455  mapping (uint => address payable) public lotteryHistory */\n    tag_52:\n      mstore(0x20, 0x05)\n      dup1\n      0x00\n      mstore\n      keccak256(0x00, 0x40)\n      0x00\n      swap2\n      pop\n      sload\n      swap1\n      0x0100\n      exp\n      swap1\n      div\n      0xffffffffffffffffffffffffffffffffffffffff\n      and\n      dup2\n      jump\t// out\n        /* \"contracts/Lottery.sol\":2782:3299  function enter(uint _numTicket) public payable {... */\n    tag_56:\n        /* \"contracts/Lottery.sol\":2859:2864  2 wei */\n      0x02\n        /* \"contracts/Lottery.sol\":2847:2856  msg.value */\n      callvalue\n        /* \"contracts/Lottery.sol\":2847:2864  msg.value > 2 wei */\n      gt\n        /* \"contracts/Lottery.sol\":2839:2885  require(msg.value > 2 wei, \"Not enough token\") */\n      tag_88\n      jumpi\n      mload(0x40)\n      0x08c379a000000000000000000000000000000000000000000000000000000000\n      dup2\n      mstore\n      0x04\n      add\n      tag_89\n      swap1\n      tag_90\n      jump\t// in\n    tag_89:\n      mload(0x40)\n      dup1\n      swap2\n      sub\n      swap1\n      revert\n    tag_88:\n        /* \"contracts/Lottery.sol\":2917:2918  1 */\n      0x01\n        /* \"contracts/Lottery.sol\":2903:2913  _numTicket */\n      dup2\n        /* \"contracts/Lottery.sol\":2903:2918  _numTicket >= 1 */\n      lt\n      iszero\n        /* \"contracts/Lottery.sol\":2903:2938  _numTicket >= 1 && _numTicket <= 10 */\n      dup1\n      iszero\n      tag_91\n      jumpi\n      pop\n        /* \"contracts/Lottery.sol\":2936:2938  10 */\n      0x0a\n        /* \"contracts/Lottery.sol\":2922:2932  _numTicket */\n      dup2\n        /* \"contracts/Lottery.sol\":2922:2938  _numTicket <= 10 */\n      gt\n      iszero\n        /* \"contracts/Lottery.sol\":2903:2938  _numTicket >= 1 && _numTicket <= 10 */\n    tag_91:\n        /* \"contracts/Lottery.sol\":2895:2969  require(_numTicket >= 1 && _numTicket <= 10, \"Number ticket out of range\") */\n      tag_92\n      jumpi\n      mload(0x40)\n      0x08c379a000000000000000000000000000000000000000000000000000000000\n      dup2\n      mstore\n      0x04\n      add\n      tag_93\n      swap1\n      tag_94\n      jump\t// in\n    tag_93:\n      mload(0x40)\n      dup1\n      swap2\n      sub\n      swap1\n      revert\n    tag_92:\n        /* \"contracts/Lottery.sol\":2979:3009  Participants storage newPlayer */\n      0x00\n        /* \"contracts/Lottery.sol\":3012:3022  allLottery */\n      0x07\n        /* \"contracts/Lottery.sol\":3012:3035  allLottery[playerCount] */\n      0x00\n        /* \"contracts/Lottery.sol\":3023:3034  playerCount */\n      sload(0x08)\n        /* \"contracts/Lottery.sol\":3012:3035  allLottery[playerCount] */\n      dup2\n      mstore\n      0x20\n      add\n      swap1\n      dup2\n      mstore\n      0x20\n      add\n      0x00\n      keccak256\n        /* \"contracts/Lottery.sol\":2979:3035  Participants storage newPlayer = allLottery[playerCount] */\n      swap1\n      pop\n        /* \"contracts/Lottery.sol\":3072:3082  msg.sender */\n      caller\n        /* \"contracts/Lottery.sol\":3045:3054  newPlayer */\n      dup2\n        /* \"contracts/Lottery.sol\":3045:3061  newPlayer.player */\n      0x00\n      add\n      0x00\n        /* \"contracts/Lottery.sol\":3045:3083  newPlayer.player = payable(msg.sender) */\n      0x0100\n      exp\n      dup2\n      sload\n      dup2\n      0xffffffffffffffffffffffffffffffffffffffff\n      mul\n      not\n      and\n      swap1\n      dup4\n      0xffffffffffffffffffffffffffffffffffffffff\n      and\n      mul\n      or\n      swap1\n      sstore\n      pop\n        /* \"contracts/Lottery.sol\":3115:3125  _numTicket */\n      dup2\n        /* \"contracts/Lottery.sol\":3093:3102  newPlayer */\n      dup2\n        /* \"contracts/Lottery.sol\":3093:3112  newPlayer.numTicket */\n      0x01\n      add\n        /* \"contracts/Lottery.sol\":3093:3125  newPlayer.numTicket = _numTicket */\n      dup2\n      swap1\n      sstore\n      pop\n        /* \"contracts/Lottery.sol\":3135:3169  ListNumberTicket storage addTicket */\n      0x00\n        /* \"contracts/Lottery.sol\":3172:3183  groupTicket */\n      0x06\n        /* \"contracts/Lottery.sol\":3172:3204  groupTicket[newPlayer.numTicket] */\n      0x00\n        /* \"contracts/Lottery.sol\":3184:3193  newPlayer */\n      dup4\n        /* \"contracts/Lottery.sol\":3184:3203  newPlayer.numTicket */\n      0x01\n      add\n      sload\n        /* \"contracts/Lottery.sol\":3172:3204  groupTicket[newPlayer.numTicket] */\n      dup2\n      mstore\n      0x20\n      add\n      swap1\n      dup2\n      mstore\n      0x20\n      add\n      0x00\n      keccak256\n        /* \"contracts/Lottery.sol\":3135:3204  ListNumberTicket storage addTicket = groupTicket[newPlayer.numTicket] */\n      swap1\n      pop\n        /* \"contracts/Lottery.sol\":3214:3223  addTicket */\n      dup1\n        /* \"contracts/Lottery.sol\":3214:3235  addTicket.groupPlayer */\n      0x00\n      add\n        /* \"contracts/Lottery.sol\":3249:3259  msg.sender */\n      caller\n        /* \"contracts/Lottery.sol\":3214:3261  addTicket.groupPlayer.push(payable(msg.sender)) */\n      swap1\n      dup1\n      0x01\n      dup2\n      sload\n      add\n      dup1\n      dup3\n      sstore\n      dup1\n      swap2\n      pop\n      pop\n      0x01\n      swap1\n      sub\n      swap1\n      0x00\n      mstore\n      keccak256(0x00, 0x20)\n      add\n      0x00\n      swap1\n      swap2\n      swap1\n      swap2\n      swap1\n      swap2\n      0x0100\n      exp\n      dup2\n      sload\n      dup2\n      0xffffffffffffffffffffffffffffffffffffffff\n      mul\n      not\n      and\n      swap1\n      dup4\n      0xffffffffffffffffffffffffffffffffffffffff\n      and\n      mul\n      or\n      swap1\n      sstore\n      pop\n        /* \"contracts/Lottery.sol\":3271:3292  increasePlayerCount() */\n      tag_96\n        /* \"contracts/Lottery.sol\":3271:3290  increasePlayerCount */\n      tag_97\n        /* \"contracts/Lottery.sol\":3271:3292  increasePlayerCount() */\n      jump\t// in\n    tag_96:\n        /* \"contracts/Lottery.sol\":2829:3299  {... */\n      pop\n      pop\n        /* \"contracts/Lottery.sol\":2782:3299  function enter(uint _numTicket) public payable {... */\n      pop\n      jump\t// out\n        /* \"contracts/Lottery.sol\":3539:3852  function requestRandomWords() external onlyOwner {... */\n    tag_59:\n        /* \"contracts/Lottery.sol\":4302:4309  s_owner */\n      0x03\n      0x00\n      swap1\n      sload\n      swap1\n      0x0100\n      exp\n      swap1\n      div\n      0xffffffffffffffffffffffffffffffffffffffff\n      and\n        /* \"contracts/Lottery.sol\":4288:4309  msg.sender == s_owner */\n      0xffffffffffffffffffffffffffffffffffffffff\n      and\n        /* \"contracts/Lottery.sol\":4288:4298  msg.sender */\n      caller\n        /* \"contracts/Lottery.sol\":4288:4309  msg.sender == s_owner */\n      0xffffffffffffffffffffffffffffffffffffffff\n      and\n      eq\n        /* \"contracts/Lottery.sol\":4280:4310  require(msg.sender == s_owner) */\n      tag_99\n      jumpi\n      0x00\n      dup1\n      revert\n    tag_99:\n        /* \"contracts/Lottery.sol\":3834:3845  playerCount */\n      sload(0x08)\n        /* \"contracts/Lottery.sol\":594:636  0x6168499c0cFfCaCD319c818142124B7A15E857ab */\n      0x6168499c0cffcacd319c818142124b7a15e857ab\n        /* \"contracts/Lottery.sol\":3674:3704  COORDINATOR.requestRandomWords */\n      0xffffffffffffffffffffffffffffffffffffffff\n      and\n      0x5d3b1d30\n        /* \"contracts/Lottery.sol\":912:978  0xd89b2bf150e3b9e13446986e571fb9cab24b13cea0a43ea20a6049a85cc807cc */\n      0xd89b2bf150e3b9e13446986e571fb9cab24b13cea0a43ea20a6049a85cc807cc\n        /* \"contracts/Lottery.sol\":3714:3721  keyHash */\n      0x00\n      shl\n        /* \"contracts/Lottery.sol\":796:800  7130 */\n      0x1bda\n        /* \"contracts/Lottery.sol\":3757:3777  requestConfirmations */\n      0x00\n      0x04\n      swap1\n      sload\n      swap1\n      0x0100\n      exp\n      swap1\n      div\n      0xffff\n      and\n        /* \"contracts/Lottery.sol\":3787:3803  callbackGasLimit */\n      0x00\n      dup1\n      sload\n      swap1\n      0x0100\n      exp\n      swap1\n      div\n      0xffffffff\n      and\n        /* \"contracts/Lottery.sol\":3813:3821  numWords */\n      0x00\n      0x06\n      swap1\n      sload\n      swap1\n      0x0100\n      exp\n      swap1\n      div\n      0xffffffff\n      and\n        /* \"contracts/Lottery.sol\":3674:3831  COORDINATOR.requestRandomWords(... */\n      mload(0x40)\n      dup7\n      0xffffffff\n      and\n      0xe0\n      shl\n      dup2\n      mstore\n      0x04\n      add\n      tag_101\n      swap6\n      swap5\n      swap4\n      swap3\n      swap2\n      swap1\n      tag_102\n      jump\t// in\n    tag_101:\n      0x20\n      mload(0x40)\n      dup1\n      dup4\n      sub\n      dup2\n      0x00\n      dup8\n      gas\n      call\n      iszero\n      dup1\n      iszero\n      tag_104\n      jumpi\n      returndatasize\n      0x00\n      dup1\n      returndatacopy\n      revert(0x00, returndatasize)\n    tag_104:\n      pop\n      pop\n      pop\n      pop\n      mload(0x40)\n      returndatasize\n      not(0x1f)\n      0x1f\n      dup3\n      add\n      and\n      dup3\n      add\n      dup1\n      0x40\n      mstore\n      pop\n      dup2\n      add\n      swap1\n      tag_105\n      swap2\n      swap1\n      tag_106\n      jump\t// in\n    tag_105:\n        /* \"contracts/Lottery.sol\":3674:3845  COORDINATOR.requestRandomWords(... */\n      tag_107\n      swap2\n      swap1\n      tag_108\n      jump\t// in\n    tag_107:\n        /* \"contracts/Lottery.sol\":3660:3671  s_requestId */\n      0x02\n        /* \"contracts/Lottery.sol\":3660:3845  s_requestId = COORDINATOR.requestRandomWords(... */\n      dup2\n      swap1\n      sstore\n      pop\n        /* \"contracts/Lottery.sol\":3539:3852  function requestRandomWords() external onlyOwner {... */\n      jump\t// out\n        /* \"contracts/Lottery.sol\":1373:1394  uint public lotteryId */\n    tag_62:\n      sload(0x04)\n      dup2\n      jump\t// out\n        /* \"contracts/Lottery.sol\":4137:4245  function getLuckyNumber() public view returns(uint){... */\n    tag_66:\n        /* \"contracts/Lottery.sol\":4183:4187  uint */\n      0x00\n        /* \"contracts/Lottery.sol\":4205:4215  allLottery */\n      0x07\n        /* \"contracts/Lottery.sol\":4205:4228  allLottery[s_requestId] */\n      0x00\n        /* \"contracts/Lottery.sol\":4216:4227  s_requestId */\n      sload(0x02)\n        /* \"contracts/Lottery.sol\":4205:4228  allLottery[s_requestId] */\n      dup2\n      mstore\n      0x20\n      add\n      swap1\n      dup2\n      mstore\n      0x20\n      add\n      0x00\n      keccak256\n        /* \"contracts/Lottery.sol\":4205:4238  allLottery[s_requestId].numTicket */\n      0x01\n      add\n      sload\n        /* \"contracts/Lottery.sol\":4198:4238  return allLottery[s_requestId].numTicket */\n      swap1\n      pop\n        /* \"contracts/Lottery.sol\":4137:4245  function getLuckyNumber() public view returns(uint){... */\n      swap1\n      jump\t// out\n        /* \"contracts/Lottery.sol\":1302:1328  uint256 public s_requestId */\n    tag_70:\n      sload(0x02)\n      dup2\n      jump\t// out\n        /* \"contracts/Lottery.sol\":1266:1296  uint256[] public s_randomWords */\n    tag_75:\n      0x01\n      dup2\n      dup2\n      sload\n      dup2\n      lt\n      tag_110\n      jumpi\n      0x00\n      dup1\n      revert\n    tag_110:\n      swap1\n      0x00\n      mstore\n      keccak256(0x00, 0x20)\n      add\n      0x00\n      swap2\n      pop\n      swap1\n      pop\n      sload\n      dup2\n      jump\t// out\n        /* \"contracts/Lottery.sol\":3858:4025  function fulfillRandomWords(... */\n    tag_83:\n        /* \"contracts/Lottery.sol\":4007:4018  randomWords */\n      dup1\n        /* \"contracts/Lottery.sol\":3991:4004  s_randomWords */\n      0x01\n        /* \"contracts/Lottery.sol\":3991:4018  s_randomWords = randomWords */\n      swap1\n      dup1\n      mload\n      swap1\n      0x20\n      add\n      swap1\n      tag_113\n      swap3\n      swap2\n      swap1\n      tag_114\n      jump\t// in\n    tag_113:\n      pop\n        /* \"contracts/Lottery.sol\":3858:4025  function fulfillRandomWords(... */\n      pop\n      pop\n      jump\t// out\n        /* \"contracts/Lottery.sol\":3310:3380  function increasePlayerCount() internal {... */\n    tag_97:\n        /* \"contracts/Lottery.sol\":3360:3371  playerCount */\n      0x08\n      0x00\n        /* \"contracts/Lottery.sol\":3360:3373  playerCount++ */\n      dup2\n      sload\n      dup1\n      swap3\n      swap2\n      swap1\n      tag_116\n      swap1\n      tag_117\n      jump\t// in\n    tag_116:\n      swap2\n      swap1\n      pop\n      sstore\n      pop\n        /* \"contracts/Lottery.sol\":3310:3380  function increasePlayerCount() internal {... */\n      jump\t// out\n    tag_114:\n      dup3\n      dup1\n      sload\n      dup3\n      dup3\n      sstore\n      swap1\n      0x00\n      mstore\n      keccak256(0x00, 0x20)\n      swap1\n      dup2\n      add\n      swap3\n      dup3\n      iszero\n      tag_118\n      jumpi\n      swap2\n      0x20\n      mul\n      dup3\n      add\n    tag_119:\n      dup3\n      dup2\n      gt\n      iszero\n      tag_120\n      jumpi\n      dup3\n      mload\n      dup3\n      sstore\n      swap2\n      0x20\n      add\n      swap2\n      swap1\n      0x01\n      add\n      swap1\n      jump(tag_119)\n    tag_120:\n    tag_118:\n      pop\n      swap1\n      pop\n      tag_121\n      swap2\n      swap1\n      tag_122\n      jump\t// in\n    tag_121:\n      pop\n      swap1\n      jump\t// out\n    tag_122:\n    tag_123:\n      dup1\n      dup3\n      gt\n      iszero\n      tag_124\n      jumpi\n      0x00\n      dup2\n      0x00\n      swap1\n      sstore\n      pop\n      0x01\n      add\n      jump(tag_123)\n    tag_124:\n      pop\n      swap1\n      jump\t// out\n        /* \"#utility.yul\":7:187   */\n    tag_125:\n        /* \"#utility.yul\":55:132   */\n      0x4e487b7100000000000000000000000000000000000000000000000000000000\n        /* \"#utility.yul\":52:53   */\n      0x00\n        /* \"#utility.yul\":45:133   */\n      mstore\n        /* \"#utility.yul\":152:156   */\n      0x21\n        /* \"#utility.yul\":149:150   */\n      0x04\n        /* \"#utility.yul\":142:157   */\n      mstore\n        /* \"#utility.yul\":176:180   */\n      0x24\n        /* \"#utility.yul\":173:174   */\n      0x00\n        /* \"#utility.yul\":166:181   */\n      revert\n        /* \"#utility.yul\":193:308   */\n    tag_126:\n        /* \"#utility.yul\":276:277   */\n      0x04\n        /* \"#utility.yul\":269:274   */\n      dup2\n        /* \"#utility.yul\":266:278   */\n      lt\n        /* \"#utility.yul\":256:302   */\n      tag_170\n      jumpi\n        /* \"#utility.yul\":282:300   */\n      tag_171\n      tag_125\n      jump\t// in\n    tag_171:\n        /* \"#utility.yul\":256:302   */\n    tag_170:\n        /* \"#utility.yul\":193:308   */\n      pop\n      jump\t// out\n        /* \"#utility.yul\":314:445   */\n    tag_127:\n        /* \"#utility.yul\":361:368   */\n      0x00\n        /* \"#utility.yul\":390:395   */\n      dup2\n        /* \"#utility.yul\":379:395   */\n      swap1\n      pop\n        /* \"#utility.yul\":396:439   */\n      tag_173\n        /* \"#utility.yul\":433:438   */\n      dup3\n        /* \"#utility.yul\":396:439   */\n      tag_126\n      jump\t// in\n    tag_173:\n        /* \"#utility.yul\":314:445   */\n      swap2\n      swap1\n      pop\n      jump\t// out\n        /* \"#utility.yul\":451:582   */\n    tag_128:\n        /* \"#utility.yul\":509:518   */\n      0x00\n        /* \"#utility.yul\":542:576   */\n      tag_175\n        /* \"#utility.yul\":570:575   */\n      dup3\n        /* \"#utility.yul\":542:576   */\n      tag_127\n      jump\t// in\n    tag_175:\n        /* \"#utility.yul\":529:576   */\n      swap1\n      pop\n        /* \"#utility.yul\":451:582   */\n      swap2\n      swap1\n      pop\n      jump\t// out\n        /* \"#utility.yul\":588:735   */\n    tag_129:\n        /* \"#utility.yul\":683:728   */\n      tag_177\n        /* \"#utility.yul\":722:727   */\n      dup2\n        /* \"#utility.yul\":683:728   */\n      tag_128\n      jump\t// in\n    tag_177:\n        /* \"#utility.yul\":678:681   */\n      dup3\n        /* \"#utility.yul\":671:729   */\n      mstore\n        /* \"#utility.yul\":588:735   */\n      pop\n      pop\n      jump\t// out\n        /* \"#utility.yul\":741:979   */\n    tag_21:\n        /* \"#utility.yul\":842:846   */\n      0x00\n        /* \"#utility.yul\":880:882   */\n      0x20\n        /* \"#utility.yul\":869:878   */\n      dup3\n        /* \"#utility.yul\":865:883   */\n      add\n        /* \"#utility.yul\":857:883   */\n      swap1\n      pop\n        /* \"#utility.yul\":893:972   */\n      tag_179\n        /* \"#utility.yul\":969:970   */\n      0x00\n        /* \"#utility.yul\":958:967   */\n      dup4\n        /* \"#utility.yul\":954:971   */\n      add\n        /* \"#utility.yul\":945:951   */\n      dup5\n        /* \"#utility.yul\":893:972   */\n      tag_129\n      jump\t// in\n    tag_179:\n        /* \"#utility.yul\":741:979   */\n      swap3\n      swap2\n      pop\n      pop\n      jump\t// out\n        /* \"#utility.yul\":985:1062   */\n    tag_130:\n        /* \"#utility.yul\":1022:1029   */\n      0x00\n        /* \"#utility.yul\":1051:1056   */\n      dup2\n        /* \"#utility.yul\":1040:1056   */\n      swap1\n      pop\n        /* \"#utility.yul\":985:1062   */\n      swap2\n      swap1\n      pop\n      jump\t// out\n        /* \"#utility.yul\":1068:1186   */\n    tag_131:\n        /* \"#utility.yul\":1155:1179   */\n      tag_182\n        /* \"#utility.yul\":1173:1178   */\n      dup2\n        /* \"#utility.yul\":1155:1179   */\n      tag_130\n      jump\t// in\n    tag_182:\n        /* \"#utility.yul\":1150:1153   */\n      dup3\n        /* \"#utility.yul\":1143:1180   */\n      mstore\n        /* \"#utility.yul\":1068:1186   */\n      pop\n      pop\n      jump\t// out\n        /* \"#utility.yul\":1192:1414   */\n    tag_26:\n        /* \"#utility.yul\":1285:1289   */\n      0x00\n        /* \"#utility.yul\":1323:1325   */\n      0x20\n        /* \"#utility.yul\":1312:1321   */\n      dup3\n        /* \"#utility.yul\":1308:1326   */\n      add\n        /* \"#utility.yul\":1300:1326   */\n      swap1\n      pop\n        /* \"#utility.yul\":1336:1407   */\n      tag_184\n        /* \"#utility.yul\":1404:1405   */\n      0x00\n        /* \"#utility.yul\":1393:1402   */\n      dup4\n        /* \"#utility.yul\":1389:1406   */\n      add\n        /* \"#utility.yul\":1380:1386   */\n      dup5\n        /* \"#utility.yul\":1336:1407   */\n      tag_131\n      jump\t// in\n    tag_184:\n        /* \"#utility.yul\":1192:1414   */\n      swap3\n      swap2\n      pop\n      pop\n      jump\t// out\n        /* \"#utility.yul\":1420:1495   */\n    tag_132:\n        /* \"#utility.yul\":1453:1459   */\n      0x00\n        /* \"#utility.yul\":1486:1488   */\n      0x40\n        /* \"#utility.yul\":1480:1489   */\n      mload\n        /* \"#utility.yul\":1470:1489   */\n      swap1\n      pop\n        /* \"#utility.yul\":1420:1495   */\n      swap1\n      jump\t// out\n        /* \"#utility.yul\":1501:1618   */\n    tag_133:\n        /* \"#utility.yul\":1610:1611   */\n      0x00\n        /* \"#utility.yul\":1607:1608   */\n      dup1\n        /* \"#utility.yul\":1600:1612   */\n      revert\n        /* \"#utility.yul\":1624:1741   */\n    tag_134:\n        /* \"#utility.yul\":1733:1734   */\n      0x00\n        /* \"#utility.yul\":1730:1731   */\n      dup1\n        /* \"#utility.yul\":1723:1735   */\n      revert\n        /* \"#utility.yul\":1747:1869   */\n    tag_135:\n        /* \"#utility.yul\":1820:1844   */\n      tag_189\n        /* \"#utility.yul\":1838:1843   */\n      dup2\n        /* \"#utility.yul\":1820:1844   */\n      tag_130\n      jump\t// in\n    tag_189:\n        /* \"#utility.yul\":1813:1818   */\n      dup2\n        /* \"#utility.yul\":1810:1845   */\n      eq\n        /* \"#utility.yul\":1800:1863   */\n      tag_190\n      jumpi\n        /* \"#utility.yul\":1859:1860   */\n      0x00\n        /* \"#utility.yul\":1856:1857   */\n      dup1\n        /* \"#utility.yul\":1849:1861   */\n      revert\n        /* \"#utility.yul\":1800:1863   */\n    tag_190:\n        /* \"#utility.yul\":1747:1869   */\n      pop\n      jump\t// out\n        /* \"#utility.yul\":1875:2014   */\n    tag_136:\n        /* \"#utility.yul\":1921:1926   */\n      0x00\n        /* \"#utility.yul\":1959:1965   */\n      dup2\n        /* \"#utility.yul\":1946:1966   */\n      calldataload\n        /* \"#utility.yul\":1937:1966   */\n      swap1\n      pop\n        /* \"#utility.yul\":1975:2008   */\n      tag_192\n        /* \"#utility.yul\":2002:2007   */\n      dup2\n        /* \"#utility.yul\":1975:2008   */\n      tag_135\n      jump\t// in\n    tag_192:\n        /* \"#utility.yul\":1875:2014   */\n      swap3\n      swap2\n      pop\n      pop\n      jump\t// out\n        /* \"#utility.yul\":2020:2137   */\n    tag_137:\n        /* \"#utility.yul\":2129:2130   */\n      0x00\n        /* \"#utility.yul\":2126:2127   */\n      dup1\n        /* \"#utility.yul\":2119:2131   */\n      revert\n        /* \"#utility.yul\":2143:2245   */\n    tag_138:\n        /* \"#utility.yul\":2184:2190   */\n      0x00\n        /* \"#utility.yul\":2235:2237   */\n      0x1f\n        /* \"#utility.yul\":2231:2238   */\n      not\n        /* \"#utility.yul\":2226:2228   */\n      0x1f\n        /* \"#utility.yul\":2219:2224   */\n      dup4\n        /* \"#utility.yul\":2215:2229   */\n      add\n        /* \"#utility.yul\":2211:2239   */\n      and\n        /* \"#utility.yul\":2201:2239   */\n      swap1\n      pop\n        /* \"#utility.yul\":2143:2245   */\n      swap2\n      swap1\n      pop\n      jump\t// out\n        /* \"#utility.yul\":2251:2431   */\n    tag_139:\n        /* \"#utility.yul\":2299:2376   */\n      0x4e487b7100000000000000000000000000000000000000000000000000000000\n        /* \"#utility.yul\":2296:2297   */\n      0x00\n        /* \"#utility.yul\":2289:2377   */\n      mstore\n        /* \"#utility.yul\":2396:2400   */\n      0x41\n        /* \"#utility.yul\":2393:2394   */\n      0x04\n        /* \"#utility.yul\":2386:2401   */\n      mstore\n        /* \"#utility.yul\":2420:2424   */\n      0x24\n        /* \"#utility.yul\":2417:2418   */\n      0x00\n        /* \"#utility.yul\":2410:2425   */\n      revert\n        /* \"#utility.yul\":2437:2718   */\n    tag_140:\n        /* \"#utility.yul\":2520:2547   */\n      tag_197\n        /* \"#utility.yul\":2542:2546   */\n      dup3\n        /* \"#utility.yul\":2520:2547   */\n      tag_138\n      jump\t// in\n    tag_197:\n        /* \"#utility.yul\":2512:2518   */\n      dup2\n        /* \"#utility.yul\":2508:2548   */\n      add\n        /* \"#utility.yul\":2650:2656   */\n      dup2\n        /* \"#utility.yul\":2638:2648   */\n      dup2\n        /* \"#utility.yul\":2635:2657   */\n      lt\n        /* \"#utility.yul\":2614:2632   */\n      0xffffffffffffffff\n        /* \"#utility.yul\":2602:2612   */\n      dup3\n        /* \"#utility.yul\":2599:2633   */\n      gt\n        /* \"#utility.yul\":2596:2658   */\n      or\n        /* \"#utility.yul\":2593:2681   */\n      iszero\n      tag_198\n      jumpi\n        /* \"#utility.yul\":2661:2679   */\n      tag_199\n      tag_139\n      jump\t// in\n    tag_199:\n        /* \"#utility.yul\":2593:2681   */\n    tag_198:\n        /* \"#utility.yul\":2701:2711   */\n      dup1\n        /* \"#utility.yul\":2697:2699   */\n      0x40\n        /* \"#utility.yul\":2690:2712   */\n      mstore\n        /* \"#utility.yul\":2480:2718   */\n      pop\n        /* \"#utility.yul\":2437:2718   */\n      pop\n      pop\n      jump\t// out\n        /* \"#utility.yul\":2724:2853   */\n    tag_141:\n        /* \"#utility.yul\":2758:2764   */\n      0x00\n        /* \"#utility.yul\":2785:2805   */\n      tag_201\n      tag_132\n      jump\t// in\n    tag_201:\n        /* \"#utility.yul\":2775:2805   */\n      swap1\n      pop\n        /* \"#utility.yul\":2814:2847   */\n      tag_202\n        /* \"#utility.yul\":2842:2846   */\n      dup3\n        /* \"#utility.yul\":2834:2840   */\n      dup3\n        /* \"#utility.yul\":2814:2847   */\n      tag_140\n      jump\t// in\n    tag_202:\n        /* \"#utility.yul\":2724:2853   */\n      swap2\n      swap1\n      pop\n      jump\t// out\n        /* \"#utility.yul\":2859:3170   */\n    tag_142:\n        /* \"#utility.yul\":2936:2940   */\n      0x00\n        /* \"#utility.yul\":3026:3044   */\n      0xffffffffffffffff\n        /* \"#utility.yul\":3018:3024   */\n      dup3\n        /* \"#utility.yul\":3015:3045   */\n      gt\n        /* \"#utility.yul\":3012:3068   */\n      iszero\n      tag_204\n      jumpi\n        /* \"#utility.yul\":3048:3066   */\n      tag_205\n      tag_139\n      jump\t// in\n    tag_205:\n        /* \"#utility.yul\":3012:3068   */\n    tag_204:\n        /* \"#utility.yul\":3098:3102   */\n      0x20\n        /* \"#utility.yul\":3090:3096   */\n      dup3\n        /* \"#utility.yul\":3086:3103   */\n      mul\n        /* \"#utility.yul\":3078:3103   */\n      swap1\n      pop\n        /* \"#utility.yul\":3158:3162   */\n      0x20\n        /* \"#utility.yul\":3152:3156   */\n      dup2\n        /* \"#utility.yul\":3148:3163   */\n      add\n        /* \"#utility.yul\":3140:3163   */\n      swap1\n      pop\n        /* \"#utility.yul\":2859:3170   */\n      swap2\n      swap1\n      pop\n      jump\t// out\n        /* \"#utility.yul\":3176:3293   */\n    tag_143:\n        /* \"#utility.yul\":3285:3286   */\n      0x00\n        /* \"#utility.yul\":3282:3283   */\n      dup1\n        /* \"#utility.yul\":3275:3287   */\n      revert\n        /* \"#utility.yul\":3316:4026   */\n    tag_144:\n        /* \"#utility.yul\":3412:3417   */\n      0x00\n        /* \"#utility.yul\":3437:3518   */\n      tag_208\n        /* \"#utility.yul\":3453:3517   */\n      tag_209\n        /* \"#utility.yul\":3510:3516   */\n      dup5\n        /* \"#utility.yul\":3453:3517   */\n      tag_142\n      jump\t// in\n    tag_209:\n        /* \"#utility.yul\":3437:3518   */\n      tag_141\n      jump\t// in\n    tag_208:\n        /* \"#utility.yul\":3428:3518   */\n      swap1\n      pop\n        /* \"#utility.yul\":3538:3543   */\n      dup1\n        /* \"#utility.yul\":3567:3573   */\n      dup4\n        /* \"#utility.yul\":3560:3565   */\n      dup3\n        /* \"#utility.yul\":3553:3574   */\n      mstore\n        /* \"#utility.yul\":3601:3605   */\n      0x20\n        /* \"#utility.yul\":3594:3599   */\n      dup3\n        /* \"#utility.yul\":3590:3606   */\n      add\n        /* \"#utility.yul\":3583:3606   */\n      swap1\n      pop\n        /* \"#utility.yul\":3654:3658   */\n      0x20\n        /* \"#utility.yul\":3646:3652   */\n      dup5\n        /* \"#utility.yul\":3642:3659   */\n      mul\n        /* \"#utility.yul\":3634:3640   */\n      dup4\n        /* \"#utility.yul\":3630:3660   */\n      add\n        /* \"#utility.yul\":3683:3686   */\n      dup6\n        /* \"#utility.yul\":3675:3681   */\n      dup2\n        /* \"#utility.yul\":3672:3687   */\n      gt\n        /* \"#utility.yul\":3669:3791   */\n      iszero\n      tag_210\n      jumpi\n        /* \"#utility.yul\":3702:3781   */\n      tag_211\n      tag_143\n      jump\t// in\n    tag_211:\n        /* \"#utility.yul\":3669:3791   */\n    tag_210:\n        /* \"#utility.yul\":3817:3823   */\n      dup4\n        /* \"#utility.yul\":3800:4020   */\n    tag_212:\n        /* \"#utility.yul\":3834:3840   */\n      dup2\n        /* \"#utility.yul\":3829:3832   */\n      dup2\n        /* \"#utility.yul\":3826:3841   */\n      lt\n        /* \"#utility.yul\":3800:4020   */\n      iszero\n      tag_214\n      jumpi\n        /* \"#utility.yul\":3909:3912   */\n      dup1\n        /* \"#utility.yul\":3938:3975   */\n      tag_215\n        /* \"#utility.yul\":3971:3974   */\n      dup9\n        /* \"#utility.yul\":3959:3969   */\n      dup3\n        /* \"#utility.yul\":3938:3975   */\n      tag_136\n      jump\t// in\n    tag_215:\n        /* \"#utility.yul\":3933:3936   */\n      dup5\n        /* \"#utility.yul\":3926:3976   */\n      mstore\n        /* \"#utility.yul\":4005:4009   */\n      0x20\n        /* \"#utility.yul\":4000:4003   */\n      dup5\n        /* \"#utility.yul\":3996:4010   */\n      add\n        /* \"#utility.yul\":3989:4010   */\n      swap4\n      pop\n        /* \"#utility.yul\":3876:4020   */\n      pop\n        /* \"#utility.yul\":3860:3864   */\n      0x20\n        /* \"#utility.yul\":3855:3858   */\n      dup2\n        /* \"#utility.yul\":3851:3865   */\n      add\n        /* \"#utility.yul\":3844:3865   */\n      swap1\n      pop\n        /* \"#utility.yul\":3800:4020   */\n      jump(tag_212)\n    tag_214:\n        /* \"#utility.yul\":3804:3825   */\n      pop\n        /* \"#utility.yul\":3418:4026   */\n      pop\n      pop\n        /* \"#utility.yul\":3316:4026   */\n      swap4\n      swap3\n      pop\n      pop\n      pop\n      jump\t// out\n        /* \"#utility.yul\":4049:4419   */\n    tag_145:\n        /* \"#utility.yul\":4120:4125   */\n      0x00\n        /* \"#utility.yul\":4169:4172   */\n      dup3\n        /* \"#utility.yul\":4162:4166   */\n      0x1f\n        /* \"#utility.yul\":4154:4160   */\n      dup4\n        /* \"#utility.yul\":4150:4167   */\n      add\n        /* \"#utility.yul\":4146:4173   */\n      slt\n        /* \"#utility.yul\":4136:4258   */\n      tag_217\n      jumpi\n        /* \"#utility.yul\":4177:4256   */\n      tag_218\n      tag_137\n      jump\t// in\n    tag_218:\n        /* \"#utility.yul\":4136:4258   */\n    tag_217:\n        /* \"#utility.yul\":4294:4300   */\n      dup2\n        /* \"#utility.yul\":4281:4301   */\n      calldataload\n        /* \"#utility.yul\":4319:4413   */\n      tag_219\n        /* \"#utility.yul\":4409:4412   */\n      dup5\n        /* \"#utility.yul\":4401:4407   */\n      dup3\n        /* \"#utility.yul\":4394:4398   */\n      0x20\n        /* \"#utility.yul\":4386:4392   */\n      dup7\n        /* \"#utility.yul\":4382:4399   */\n      add\n        /* \"#utility.yul\":4319:4413   */\n      tag_144\n      jump\t// in\n    tag_219:\n        /* \"#utility.yul\":4310:4413   */\n      swap2\n      pop\n        /* \"#utility.yul\":4126:4419   */\n      pop\n        /* \"#utility.yul\":4049:4419   */\n      swap3\n      swap2\n      pop\n      pop\n      jump\t// out\n        /* \"#utility.yul\":4425:5109   */\n    tag_30:\n        /* \"#utility.yul\":4518:4524   */\n      0x00\n        /* \"#utility.yul\":4526:4532   */\n      dup1\n        /* \"#utility.yul\":4575:4577   */\n      0x40\n        /* \"#utility.yul\":4563:4572   */\n      dup4\n        /* \"#utility.yul\":4554:4561   */\n      dup6\n        /* \"#utility.yul\":4550:4573   */\n      sub\n        /* \"#utility.yul\":4546:4578   */\n      slt\n        /* \"#utility.yul\":4543:4662   */\n      iszero\n      tag_221\n      jumpi\n        /* \"#utility.yul\":4581:4660   */\n      tag_222\n      tag_133\n      jump\t// in\n    tag_222:\n        /* \"#utility.yul\":4543:4662   */\n    tag_221:\n        /* \"#utility.yul\":4701:4702   */\n      0x00\n        /* \"#utility.yul\":4726:4779   */\n      tag_223\n        /* \"#utility.yul\":4771:4778   */\n      dup6\n        /* \"#utility.yul\":4762:4768   */\n      dup3\n        /* \"#utility.yul\":4751:4760   */\n      dup7\n        /* \"#utility.yul\":4747:4769   */\n      add\n        /* \"#utility.yul\":4726:4779   */\n      tag_136\n      jump\t// in\n    tag_223:\n        /* \"#utility.yul\":4716:4779   */\n      swap3\n      pop\n        /* \"#utility.yul\":4672:4789   */\n      pop\n        /* \"#utility.yul\":4856:4858   */\n      0x20\n        /* \"#utility.yul\":4845:4854   */\n      dup4\n        /* \"#utility.yul\":4841:4859   */\n      add\n        /* \"#utility.yul\":4828:4860   */\n      calldataload\n        /* \"#utility.yul\":4887:4905   */\n      0xffffffffffffffff\n        /* \"#utility.yul\":4879:4885   */\n      dup2\n        /* \"#utility.yul\":4876:4906   */\n      gt\n        /* \"#utility.yul\":4873:4990   */\n      iszero\n      tag_224\n      jumpi\n        /* \"#utility.yul\":4909:4988   */\n      tag_225\n      tag_134\n      jump\t// in\n    tag_225:\n        /* \"#utility.yul\":4873:4990   */\n    tag_224:\n        /* \"#utility.yul\":5014:5092   */\n      tag_226\n        /* \"#utility.yul\":5084:5091   */\n      dup6\n        /* \"#utility.yul\":5075:5081   */\n      dup3\n        /* \"#utility.yul\":5064:5073   */\n      dup7\n        /* \"#utility.yul\":5060:5082   */\n      add\n        /* \"#utility.yul\":5014:5092   */\n      tag_145\n      jump\t// in\n    tag_226:\n        /* \"#utility.yul\":5004:5092   */\n      swap2\n      pop\n        /* \"#utility.yul\":4799:5102   */\n      pop\n        /* \"#utility.yul\":4425:5109   */\n      swap3\n      pop\n      swap3\n      swap1\n      pop\n      jump\t// out\n        /* \"#utility.yul\":5115:5444   */\n    tag_35:\n        /* \"#utility.yul\":5174:5180   */\n      0x00\n        /* \"#utility.yul\":5223:5225   */\n      0x20\n        /* \"#utility.yul\":5211:5220   */\n      dup3\n        /* \"#utility.yul\":5202:5209   */\n      dup5\n        /* \"#utility.yul\":5198:5221   */\n      sub\n        /* \"#utility.yul\":5194:5226   */\n      slt\n        /* \"#utility.yul\":5191:5310   */\n      iszero\n      tag_228\n      jumpi\n        /* \"#utility.yul\":5229:5308   */\n      tag_229\n      tag_133\n      jump\t// in\n    tag_229:\n        /* \"#utility.yul\":5191:5310   */\n    tag_228:\n        /* \"#utility.yul\":5349:5350   */\n      0x00\n        /* \"#utility.yul\":5374:5427   */\n      tag_230\n        /* \"#utility.yul\":5419:5426   */\n      dup5\n        /* \"#utility.yul\":5410:5416   */\n      dup3\n        /* \"#utility.yul\":5399:5408   */\n      dup6\n        /* \"#utility.yul\":5395:5417   */\n      add\n        /* \"#utility.yul\":5374:5427   */\n      tag_136\n      jump\t// in\n    tag_230:\n        /* \"#utility.yul\":5364:5427   */\n      swap2\n      pop\n        /* \"#utility.yul\":5320:5437   */\n      pop\n        /* \"#utility.yul\":5115:5444   */\n      swap3\n      swap2\n      pop\n      pop\n      jump\t// out\n        /* \"#utility.yul\":5450:5576   */\n    tag_146:\n        /* \"#utility.yul\":5487:5494   */\n      0x00\n        /* \"#utility.yul\":5527:5569   */\n      0xffffffffffffffffffffffffffffffffffffffff\n        /* \"#utility.yul\":5520:5525   */\n      dup3\n        /* \"#utility.yul\":5516:5570   */\n      and\n        /* \"#utility.yul\":5505:5570   */\n      swap1\n      pop\n        /* \"#utility.yul\":5450:5576   */\n      swap2\n      swap1\n      pop\n      jump\t// out\n        /* \"#utility.yul\":5582:5686   */\n    tag_147:\n        /* \"#utility.yul\":5627:5634   */\n      0x00\n        /* \"#utility.yul\":5656:5680   */\n      tag_233\n        /* \"#utility.yul\":5674:5679   */\n      dup3\n        /* \"#utility.yul\":5656:5680   */\n      tag_146\n      jump\t// in\n    tag_233:\n        /* \"#utility.yul\":5645:5680   */\n      swap1\n      pop\n        /* \"#utility.yul\":5582:5686   */\n      swap2\n      swap1\n      pop\n      jump\t// out\n        /* \"#utility.yul\":5692:5834   */\n    tag_148:\n        /* \"#utility.yul\":5795:5827   */\n      tag_235\n        /* \"#utility.yul\":5821:5826   */\n      dup2\n        /* \"#utility.yul\":5795:5827   */\n      tag_147\n      jump\t// in\n    tag_235:\n        /* \"#utility.yul\":5790:5793   */\n      dup3\n        /* \"#utility.yul\":5783:5828   */\n      mstore\n        /* \"#utility.yul\":5692:5834   */\n      pop\n      pop\n      jump\t// out\n        /* \"#utility.yul\":5840:6094   */\n    tag_38:\n        /* \"#utility.yul\":5949:5953   */\n      0x00\n        /* \"#utility.yul\":5987:5989   */\n      0x20\n        /* \"#utility.yul\":5976:5985   */\n      dup3\n        /* \"#utility.yul\":5972:5990   */\n      add\n        /* \"#utility.yul\":5964:5990   */\n      swap1\n      pop\n        /* \"#utility.yul\":6000:6087   */\n      tag_237\n        /* \"#utility.yul\":6084:6085   */\n      0x00\n        /* \"#utility.yul\":6073:6082   */\n      dup4\n        /* \"#utility.yul\":6069:6086   */\n      add\n        /* \"#utility.yul\":6060:6066   */\n      dup5\n        /* \"#utility.yul\":6000:6087   */\n      tag_148\n      jump\t// in\n    tag_237:\n        /* \"#utility.yul\":5840:6094   */\n      swap3\n      swap2\n      pop\n      pop\n      jump\t// out\n        /* \"#utility.yul\":6100:6464   */\n    tag_48:\n        /* \"#utility.yul\":6237:6241   */\n      0x00\n        /* \"#utility.yul\":6275:6277   */\n      0x40\n        /* \"#utility.yul\":6264:6273   */\n      dup3\n        /* \"#utility.yul\":6260:6278   */\n      add\n        /* \"#utility.yul\":6252:6278   */\n      swap1\n      pop\n        /* \"#utility.yul\":6288:6375   */\n      tag_239\n        /* \"#utility.yul\":6372:6373   */\n      0x00\n        /* \"#utility.yul\":6361:6370   */\n      dup4\n        /* \"#utility.yul\":6357:6374   */\n      add\n        /* \"#utility.yul\":6348:6354   */\n      dup6\n        /* \"#utility.yul\":6288:6375   */\n      tag_148\n      jump\t// in\n    tag_239:\n        /* \"#utility.yul\":6385:6457   */\n      tag_240\n        /* \"#utility.yul\":6453:6455   */\n      0x20\n        /* \"#utility.yul\":6442:6451   */\n      dup4\n        /* \"#utility.yul\":6438:6456   */\n      add\n        /* \"#utility.yul\":6429:6435   */\n      dup5\n        /* \"#utility.yul\":6385:6457   */\n      tag_131\n      jump\t// in\n    tag_240:\n        /* \"#utility.yul\":6100:6464   */\n      swap4\n      swap3\n      pop\n      pop\n      pop\n      jump\t// out\n        /* \"#utility.yul\":6470:6566   */\n    tag_149:\n        /* \"#utility.yul\":6507:6514   */\n      0x00\n        /* \"#utility.yul\":6536:6560   */\n      tag_242\n        /* \"#utility.yul\":6554:6559   */\n      dup3\n        /* \"#utility.yul\":6536:6560   */\n      tag_146\n      jump\t// in\n    tag_242:\n        /* \"#utility.yul\":6525:6560   */\n      swap1\n      pop\n        /* \"#utility.yul\":6470:6566   */\n      swap2\n      swap1\n      pop\n      jump\t// out\n        /* \"#utility.yul\":6572:6690   */\n    tag_150:\n        /* \"#utility.yul\":6659:6683   */\n      tag_244\n        /* \"#utility.yul\":6677:6682   */\n      dup2\n        /* \"#utility.yul\":6659:6683   */\n      tag_149\n      jump\t// in\n    tag_244:\n        /* \"#utility.yul\":6654:6657   */\n      dup3\n        /* \"#utility.yul\":6647:6684   */\n      mstore\n        /* \"#utility.yul\":6572:6690   */\n      pop\n      pop\n      jump\t// out\n        /* \"#utility.yul\":6696:7028   */\n    tag_81:\n        /* \"#utility.yul\":6817:6821   */\n      0x00\n        /* \"#utility.yul\":6855:6857   */\n      0x40\n        /* \"#utility.yul\":6844:6853   */\n      dup3\n        /* \"#utility.yul\":6840:6858   */\n      add\n        /* \"#utility.yul\":6832:6858   */\n      swap1\n      pop\n        /* \"#utility.yul\":6868:6939   */\n      tag_246\n        /* \"#utility.yul\":6936:6937   */\n      0x00\n        /* \"#utility.yul\":6925:6934   */\n      dup4\n        /* \"#utility.yul\":6921:6938   */\n      add\n        /* \"#utility.yul\":6912:6918   */\n      dup6\n        /* \"#utility.yul\":6868:6939   */\n      tag_150\n      jump\t// in\n    tag_246:\n        /* \"#utility.yul\":6949:7021   */\n      tag_247\n        /* \"#utility.yul\":7017:7019   */\n      0x20\n        /* \"#utility.yul\":7006:7015   */\n      dup4\n        /* \"#utility.yul\":7002:7020   */\n      add\n        /* \"#utility.yul\":6993:6999   */\n      dup5\n        /* \"#utility.yul\":6949:7021   */\n      tag_150\n      jump\t// in\n    tag_247:\n        /* \"#utility.yul\":6696:7028   */\n      swap4\n      swap3\n      pop\n      pop\n      pop\n      jump\t// out\n        /* \"#utility.yul\":7034:7203   */\n    tag_151:\n        /* \"#utility.yul\":7118:7129   */\n      0x00\n        /* \"#utility.yul\":7152:7158   */\n      dup3\n        /* \"#utility.yul\":7147:7150   */\n      dup3\n        /* \"#utility.yul\":7140:7159   */\n      mstore\n        /* \"#utility.yul\":7192:7196   */\n      0x20\n        /* \"#utility.yul\":7187:7190   */\n      dup3\n        /* \"#utility.yul\":7183:7197   */\n      add\n        /* \"#utility.yul\":7168:7197   */\n      swap1\n      pop\n        /* \"#utility.yul\":7034:7203   */\n      swap3\n      swap2\n      pop\n      pop\n      jump\t// out\n        /* \"#utility.yul\":7209:7375   */\n    tag_152:\n        /* \"#utility.yul\":7349:7367   */\n      0x4e6f7420656e6f75676820746f6b656e00000000000000000000000000000000\n        /* \"#utility.yul\":7345:7346   */\n      0x00\n        /* \"#utility.yul\":7337:7343   */\n      dup3\n        /* \"#utility.yul\":7333:7347   */\n      add\n        /* \"#utility.yul\":7326:7368   */\n      mstore\n        /* \"#utility.yul\":7209:7375   */\n      pop\n      jump\t// out\n        /* \"#utility.yul\":7381:7747   */\n    tag_153:\n        /* \"#utility.yul\":7523:7526   */\n      0x00\n        /* \"#utility.yul\":7544:7611   */\n      tag_251\n        /* \"#utility.yul\":7608:7610   */\n      0x10\n        /* \"#utility.yul\":7603:7606   */\n      dup4\n        /* \"#utility.yul\":7544:7611   */\n      tag_151\n      jump\t// in\n    tag_251:\n        /* \"#utility.yul\":7537:7611   */\n      swap2\n      pop\n        /* \"#utility.yul\":7620:7713   */\n      tag_252\n        /* \"#utility.yul\":7709:7712   */\n      dup3\n        /* \"#utility.yul\":7620:7713   */\n      tag_152\n      jump\t// in\n    tag_252:\n        /* \"#utility.yul\":7738:7740   */\n      0x20\n        /* \"#utility.yul\":7733:7736   */\n      dup3\n        /* \"#utility.yul\":7729:7741   */\n      add\n        /* \"#utility.yul\":7722:7741   */\n      swap1\n      pop\n        /* \"#utility.yul\":7381:7747   */\n      swap2\n      swap1\n      pop\n      jump\t// out\n        /* \"#utility.yul\":7753:8172   */\n    tag_90:\n        /* \"#utility.yul\":7919:7923   */\n      0x00\n        /* \"#utility.yul\":7957:7959   */\n      0x20\n        /* \"#utility.yul\":7946:7955   */\n      dup3\n        /* \"#utility.yul\":7942:7960   */\n      add\n        /* \"#utility.yul\":7934:7960   */\n      swap1\n      pop\n        /* \"#utility.yul\":8006:8015   */\n      dup2\n        /* \"#utility.yul\":8000:8004   */\n      dup2\n        /* \"#utility.yul\":7996:8016   */\n      sub\n        /* \"#utility.yul\":7992:7993   */\n      0x00\n        /* \"#utility.yul\":7981:7990   */\n      dup4\n        /* \"#utility.yul\":7977:7994   */\n      add\n        /* \"#utility.yul\":7970:8017   */\n      mstore\n        /* \"#utility.yul\":8034:8165   */\n      tag_254\n        /* \"#utility.yul\":8160:8164   */\n      dup2\n        /* \"#utility.yul\":8034:8165   */\n      tag_153\n      jump\t// in\n    tag_254:\n        /* \"#utility.yul\":8026:8165   */\n      swap1\n      pop\n        /* \"#utility.yul\":7753:8172   */\n      swap2\n      swap1\n      pop\n      jump\t// out\n        /* \"#utility.yul\":8178:8354   */\n    tag_154:\n        /* \"#utility.yul\":8318:8346   */\n      0x4e756d626572207469636b6574206f7574206f662072616e6765000000000000\n        /* \"#utility.yul\":8314:8315   */\n      0x00\n        /* \"#utility.yul\":8306:8312   */\n      dup3\n        /* \"#utility.yul\":8302:8316   */\n      add\n        /* \"#utility.yul\":8295:8347   */\n      mstore\n        /* \"#utility.yul\":8178:8354   */\n      pop\n      jump\t// out\n        /* \"#utility.yul\":8360:8726   */\n    tag_155:\n        /* \"#utility.yul\":8502:8505   */\n      0x00\n        /* \"#utility.yul\":8523:8590   */\n      tag_257\n        /* \"#utility.yul\":8587:8589   */\n      0x1a\n        /* \"#utility.yul\":8582:8585   */\n      dup4\n        /* \"#utility.yul\":8523:8590   */\n      tag_151\n      jump\t// in\n    tag_257:\n        /* \"#utility.yul\":8516:8590   */\n      swap2\n      pop\n        /* \"#utility.yul\":8599:8692   */\n      tag_258\n        /* \"#utility.yul\":8688:8691   */\n      dup3\n        /* \"#utility.yul\":8599:8692   */\n      tag_154\n      jump\t// in\n    tag_258:\n        /* \"#utility.yul\":8717:8719   */\n      0x20\n        /* \"#utility.yul\":8712:8715   */\n      dup3\n        /* \"#utility.yul\":8708:8720   */\n      add\n        /* \"#utility.yul\":8701:8720   */\n      swap1\n      pop\n        /* \"#utility.yul\":8360:8726   */\n      swap2\n      swap1\n      pop\n      jump\t// out\n        /* \"#utility.yul\":8732:9151   */\n    tag_94:\n        /* \"#utility.yul\":8898:8902   */\n      0x00\n        /* \"#utility.yul\":8936:8938   */\n      0x20\n        /* \"#utility.yul\":8925:8934   */\n      dup3\n        /* \"#utility.yul\":8921:8939   */\n      add\n        /* \"#utility.yul\":8913:8939   */\n      swap1\n      pop\n        /* \"#utility.yul\":8985:8994   */\n      dup2\n        /* \"#utility.yul\":8979:8983   */\n      dup2\n        /* \"#utility.yul\":8975:8995   */\n      sub\n        /* \"#utility.yul\":8971:8972   */\n      0x00\n        /* \"#utility.yul\":8960:8969   */\n      dup4\n        /* \"#utility.yul\":8956:8973   */\n      add\n        /* \"#utility.yul\":8949:8996   */\n      mstore\n        /* \"#utility.yul\":9013:9144   */\n      tag_260\n        /* \"#utility.yul\":9139:9143   */\n      dup2\n        /* \"#utility.yul\":9013:9144   */\n      tag_155\n      jump\t// in\n    tag_260:\n        /* \"#utility.yul\":9005:9144   */\n      swap1\n      pop\n        /* \"#utility.yul\":8732:9151   */\n      swap2\n      swap1\n      pop\n      jump\t// out\n        /* \"#utility.yul\":9157:9234   */\n    tag_156:\n        /* \"#utility.yul\":9194:9201   */\n      0x00\n        /* \"#utility.yul\":9223:9228   */\n      dup2\n        /* \"#utility.yul\":9212:9228   */\n      swap1\n      pop\n        /* \"#utility.yul\":9157:9234   */\n      swap2\n      swap1\n      pop\n      jump\t// out\n        /* \"#utility.yul\":9240:9358   */\n    tag_157:\n        /* \"#utility.yul\":9327:9351   */\n      tag_263\n        /* \"#utility.yul\":9345:9350   */\n      dup2\n        /* \"#utility.yul\":9327:9351   */\n      tag_156\n      jump\t// in\n    tag_263:\n        /* \"#utility.yul\":9322:9325   */\n      dup3\n        /* \"#utility.yul\":9315:9352   */\n      mstore\n        /* \"#utility.yul\":9240:9358   */\n      pop\n      pop\n      jump\t// out\n        /* \"#utility.yul\":9364:9465   */\n    tag_158:\n        /* \"#utility.yul\":9400:9407   */\n      0x00\n        /* \"#utility.yul\":9440:9458   */\n      0xffffffffffffffff\n        /* \"#utility.yul\":9433:9438   */\n      dup3\n        /* \"#utility.yul\":9429:9459   */\n      and\n        /* \"#utility.yul\":9418:9459   */\n      swap1\n      pop\n        /* \"#utility.yul\":9364:9465   */\n      swap2\n      swap1\n      pop\n      jump\t// out\n        /* \"#utility.yul\":9471:9586   */\n    tag_159:\n        /* \"#utility.yul\":9556:9579   */\n      tag_266\n        /* \"#utility.yul\":9573:9578   */\n      dup2\n        /* \"#utility.yul\":9556:9579   */\n      tag_158\n      jump\t// in\n    tag_266:\n        /* \"#utility.yul\":9551:9554   */\n      dup3\n        /* \"#utility.yul\":9544:9580   */\n      mstore\n        /* \"#utility.yul\":9471:9586   */\n      pop\n      pop\n      jump\t// out\n        /* \"#utility.yul\":9592:9681   */\n    tag_160:\n        /* \"#utility.yul\":9628:9635   */\n      0x00\n        /* \"#utility.yul\":9668:9674   */\n      0xffff\n        /* \"#utility.yul\":9661:9666   */\n      dup3\n        /* \"#utility.yul\":9657:9675   */\n      and\n        /* \"#utility.yul\":9646:9675   */\n      swap1\n      pop\n        /* \"#utility.yul\":9592:9681   */\n      swap2\n      swap1\n      pop\n      jump\t// out\n        /* \"#utility.yul\":9687:9802   */\n    tag_161:\n        /* \"#utility.yul\":9772:9795   */\n      tag_269\n        /* \"#utility.yul\":9789:9794   */\n      dup2\n        /* \"#utility.yul\":9772:9795   */\n      tag_160\n      jump\t// in\n    tag_269:\n        /* \"#utility.yul\":9767:9770   */\n      dup3\n        /* \"#utility.yul\":9760:9796   */\n      mstore\n        /* \"#utility.yul\":9687:9802   */\n      pop\n      pop\n      jump\t// out\n        /* \"#utility.yul\":9808:9901   */\n    tag_162:\n        /* \"#utility.yul\":9844:9851   */\n      0x00\n        /* \"#utility.yul\":9884:9894   */\n      0xffffffff\n        /* \"#utility.yul\":9877:9882   */\n      dup3\n        /* \"#utility.yul\":9873:9895   */\n      and\n        /* \"#utility.yul\":9862:9895   */\n      swap1\n      pop\n        /* \"#utility.yul\":9808:9901   */\n      swap2\n      swap1\n      pop\n      jump\t// out\n        /* \"#utility.yul\":9907:10022   */\n    tag_163:\n        /* \"#utility.yul\":9992:10015   */\n      tag_272\n        /* \"#utility.yul\":10009:10014   */\n      dup2\n        /* \"#utility.yul\":9992:10015   */\n      tag_162\n      jump\t// in\n    tag_272:\n        /* \"#utility.yul\":9987:9990   */\n      dup3\n        /* \"#utility.yul\":9980:10016   */\n      mstore\n        /* \"#utility.yul\":9907:10022   */\n      pop\n      pop\n      jump\t// out\n        /* \"#utility.yul\":10028:10676   */\n    tag_102:\n        /* \"#utility.yul\":10225:10229   */\n      0x00\n        /* \"#utility.yul\":10263:10266   */\n      0xa0\n        /* \"#utility.yul\":10252:10261   */\n      dup3\n        /* \"#utility.yul\":10248:10267   */\n      add\n        /* \"#utility.yul\":10240:10267   */\n      swap1\n      pop\n        /* \"#utility.yul\":10277:10348   */\n      tag_274\n        /* \"#utility.yul\":10345:10346   */\n      0x00\n        /* \"#utility.yul\":10334:10343   */\n      dup4\n        /* \"#utility.yul\":10330:10347   */\n      add\n        /* \"#utility.yul\":10321:10327   */\n      dup9\n        /* \"#utility.yul\":10277:10348   */\n      tag_157\n      jump\t// in\n    tag_274:\n        /* \"#utility.yul\":10358:10428   */\n      tag_275\n        /* \"#utility.yul\":10424:10426   */\n      0x20\n        /* \"#utility.yul\":10413:10422   */\n      dup4\n        /* \"#utility.yul\":10409:10427   */\n      add\n        /* \"#utility.yul\":10400:10406   */\n      dup8\n        /* \"#utility.yul\":10358:10428   */\n      tag_159\n      jump\t// in\n    tag_275:\n        /* \"#utility.yul\":10438:10508   */\n      tag_276\n        /* \"#utility.yul\":10504:10506   */\n      0x40\n        /* \"#utility.yul\":10493:10502   */\n      dup4\n        /* \"#utility.yul\":10489:10507   */\n      add\n        /* \"#utility.yul\":10480:10486   */\n      dup7\n        /* \"#utility.yul\":10438:10508   */\n      tag_161\n      jump\t// in\n    tag_276:\n        /* \"#utility.yul\":10518:10588   */\n      tag_277\n        /* \"#utility.yul\":10584:10586   */\n      0x60\n        /* \"#utility.yul\":10573:10582   */\n      dup4\n        /* \"#utility.yul\":10569:10587   */\n      add\n        /* \"#utility.yul\":10560:10566   */\n      dup6\n        /* \"#utility.yul\":10518:10588   */\n      tag_163\n      jump\t// in\n    tag_277:\n        /* \"#utility.yul\":10598:10669   */\n      tag_278\n        /* \"#utility.yul\":10664:10667   */\n      0x80\n        /* \"#utility.yul\":10653:10662   */\n      dup4\n        /* \"#utility.yul\":10649:10668   */\n      add\n        /* \"#utility.yul\":10640:10646   */\n      dup5\n        /* \"#utility.yul\":10598:10669   */\n      tag_163\n      jump\t// in\n    tag_278:\n        /* \"#utility.yul\":10028:10676   */\n      swap7\n      swap6\n      pop\n      pop\n      pop\n      pop\n      pop\n      pop\n      jump\t// out\n        /* \"#utility.yul\":10682:10825   */\n    tag_164:\n        /* \"#utility.yul\":10739:10744   */\n      0x00\n        /* \"#utility.yul\":10770:10776   */\n      dup2\n        /* \"#utility.yul\":10764:10777   */\n      mload\n        /* \"#utility.yul\":10755:10777   */\n      swap1\n      pop\n        /* \"#utility.yul\":10786:10819   */\n      tag_280\n        /* \"#utility.yul\":10813:10818   */\n      dup2\n        /* \"#utility.yul\":10786:10819   */\n      tag_135\n      jump\t// in\n    tag_280:\n        /* \"#utility.yul\":10682:10825   */\n      swap3\n      swap2\n      pop\n      pop\n      jump\t// out\n        /* \"#utility.yul\":10831:11182   */\n    tag_106:\n        /* \"#utility.yul\":10901:10907   */\n      0x00\n        /* \"#utility.yul\":10950:10952   */\n      0x20\n        /* \"#utility.yul\":10938:10947   */\n      dup3\n        /* \"#utility.yul\":10929:10936   */\n      dup5\n        /* \"#utility.yul\":10925:10948   */\n      sub\n        /* \"#utility.yul\":10921:10953   */\n      slt\n        /* \"#utility.yul\":10918:11037   */\n      iszero\n      tag_282\n      jumpi\n        /* \"#utility.yul\":10956:11035   */\n      tag_283\n      tag_133\n      jump\t// in\n    tag_283:\n        /* \"#utility.yul\":10918:11037   */\n    tag_282:\n        /* \"#utility.yul\":11076:11077   */\n      0x00\n        /* \"#utility.yul\":11101:11165   */\n      tag_284\n        /* \"#utility.yul\":11157:11164   */\n      dup5\n        /* \"#utility.yul\":11148:11154   */\n      dup3\n        /* \"#utility.yul\":11137:11146   */\n      dup6\n        /* \"#utility.yul\":11133:11155   */\n      add\n        /* \"#utility.yul\":11101:11165   */\n      tag_164\n      jump\t// in\n    tag_284:\n        /* \"#utility.yul\":11091:11165   */\n      swap2\n      pop\n        /* \"#utility.yul\":11047:11175   */\n      pop\n        /* \"#utility.yul\":10831:11182   */\n      swap3\n      swap2\n      pop\n      pop\n      jump\t// out\n        /* \"#utility.yul\":11188:11368   */\n    tag_165:\n        /* \"#utility.yul\":11236:11313   */\n      0x4e487b7100000000000000000000000000000000000000000000000000000000\n        /* \"#utility.yul\":11233:11234   */\n      0x00\n        /* \"#utility.yul\":11226:11314   */\n      mstore\n        /* \"#utility.yul\":11333:11337   */\n      0x12\n        /* \"#utility.yul\":11330:11331   */\n      0x04\n        /* \"#utility.yul\":11323:11338   */\n      mstore\n        /* \"#utility.yul\":11357:11361   */\n      0x24\n        /* \"#utility.yul\":11354:11355   */\n      0x00\n        /* \"#utility.yul\":11347:11362   */\n      revert\n        /* \"#utility.yul\":11374:11550   */\n    tag_108:\n        /* \"#utility.yul\":11406:11407   */\n      0x00\n        /* \"#utility.yul\":11423:11443   */\n      tag_287\n        /* \"#utility.yul\":11441:11442   */\n      dup3\n        /* \"#utility.yul\":11423:11443   */\n      tag_130\n      jump\t// in\n    tag_287:\n        /* \"#utility.yul\":11418:11443   */\n      swap2\n      pop\n        /* \"#utility.yul\":11457:11477   */\n      tag_288\n        /* \"#utility.yul\":11475:11476   */\n      dup4\n        /* \"#utility.yul\":11457:11477   */\n      tag_130\n      jump\t// in\n    tag_288:\n        /* \"#utility.yul\":11452:11477   */\n      swap3\n      pop\n        /* \"#utility.yul\":11496:11497   */\n      dup3\n        /* \"#utility.yul\":11486:11521   */\n      tag_289\n      jumpi\n        /* \"#utility.yul\":11501:11519   */\n      tag_290\n      tag_165\n      jump\t// in\n    tag_290:\n        /* \"#utility.yul\":11486:11521   */\n    tag_289:\n        /* \"#utility.yul\":11542:11543   */\n      dup3\n        /* \"#utility.yul\":11539:11540   */\n      dup3\n        /* \"#utility.yul\":11535:11544   */\n      mod\n        /* \"#utility.yul\":11530:11544   */\n      swap1\n      pop\n        /* \"#utility.yul\":11374:11550   */\n      swap3\n      swap2\n      pop\n      pop\n      jump\t// out\n        /* \"#utility.yul\":11556:11736   */\n    tag_166:\n        /* \"#utility.yul\":11604:11681   */\n      0x4e487b7100000000000000000000000000000000000000000000000000000000\n        /* \"#utility.yul\":11601:11602   */\n      0x00\n        /* \"#utility.yul\":11594:11682   */\n      mstore\n        /* \"#utility.yul\":11701:11705   */\n      0x11\n        /* \"#utility.yul\":11698:11699   */\n      0x04\n        /* \"#utility.yul\":11691:11706   */\n      mstore\n        /* \"#utility.yul\":11725:11729   */\n      0x24\n        /* \"#utility.yul\":11722:11723   */\n      0x00\n        /* \"#utility.yul\":11715:11730   */\n      revert\n        /* \"#utility.yul\":11742:11975   */\n    tag_117:\n        /* \"#utility.yul\":11781:11784   */\n      0x00\n        /* \"#utility.yul\":11804:11828   */\n      tag_293\n        /* \"#utility.yul\":11822:11827   */\n      dup3\n        /* \"#utility.yul\":11804:11828   */\n      tag_130\n      jump\t// in\n    tag_293:\n        /* \"#utility.yul\":11795:11828   */\n      swap2\n      pop\n        /* \"#utility.yul\":11850:11916   */\n      0xffffffffffffffffffffffffffffffffffffffffffffffffffffffffffffffff\n        /* \"#utility.yul\":11843:11848   */\n      dup3\n        /* \"#utility.yul\":11840:11917   */\n      eq\n        /* \"#utility.yul\":11837:11940   */\n      iszero\n      tag_294\n      jumpi\n        /* \"#utility.yul\":11920:11938   */\n      tag_295\n      tag_166\n      jump\t// in\n    tag_295:\n        /* \"#utility.yul\":11837:11940   */\n    tag_294:\n        /* \"#utility.yul\":11967:11968   */\n      0x01\n        /* \"#utility.yul\":11960:11965   */\n      dup3\n        /* \"#utility.yul\":11956:11969   */\n      add\n        /* \"#utility.yul\":11949:11969   */\n      swap1\n      pop\n        /* \"#utility.yul\":11742:11975   */\n      swap2\n      swap1\n      pop\n      jump\t// out\n\n    auxdata: 0xa264697066735822122003eac44ee9f14de8bf6559af1575397d349bc41e8114d01a494530ba85d320b864736f6c634300080c0033\n}\n",
				"bytecode": {
					"linkReferences": {},
					"object": "60a0604052620186a06000806101000a81548163ffffffff021916908363ffffffff1602179055506003600060046101000a81548161ffff021916908361ffff1602179055506002600060066101000a81548163ffffffff021916908363ffffffff16021790555033600360006101000a81548173ffffffffffffffffffffffffffffffffffffffff021916908373ffffffffffffffffffffffffffffffffffffffff16021790555060006008556000600960006101000a81548160ff021916908360038111156100d3576100d2610134565b5b02179055503480156100e457600080fd5b50736168499c0cffcacd319c818142124b7a15e857ab8073ffffffffffffffffffffffffffffffffffffffff1660808173ffffffffffffffffffffffffffffffffffffffff168152505050610163565b7f4e487b7100000000000000000000000000000000000000000000000000000000600052602160045260246000fd5b608051610f4b61018560003960008181610337015261038b0152610f4b6000f3fe6080604052600436106100c25760003560e01c80636d6fe2301161007f578063e580f47b11610059578063e580f47b1461025c578063e69f19cd14610287578063e89e106a146102b2578063f6eaffc8146102dd576100c2565b80636d6fe230146101ec578063a59f3e0c14610229578063e0c8628914610245576100c2565b80630d683dd9146100c757806312065fe0146100f25780631fe543e31461011d578063281d098d1461014657806332eb85a414610183578063460e2049146101ae575b600080fd5b3480156100d357600080fd5b506100dc61031a565b6040516100e99190610907565b60405180910390f35b3480156100fe57600080fd5b5061010761032d565b604051610114919061093b565b60405180910390f35b34801561012957600080fd5b50610144600480360381019061013f9190610aef565b610335565b005b34801561015257600080fd5b5061016d60048036038101906101689190610b4b565b6103f5565b60405161017a9190610bb9565b60405180910390f35b34801561018f57600080fd5b50610198610432565b6040516101a5919061093b565b60405180910390f35b3480156101ba57600080fd5b506101d560048036038101906101d09190610b4b565b61043c565b6040516101e3929190610bd4565b60405180910390f35b3480156101f857600080fd5b50610213600480360381019061020e9190610b4b565b61048a565b6040516102209190610bb9565b60405180910390f35b610243600480360381019061023e9190610b4b565b6104bd565b005b34801561025157600080fd5b5061025a610643565b005b34801561026857600080fd5b506102716107a1565b60405161027e919061093b565b60405180910390f35b34801561029357600080fd5b5061029c6107a7565b6040516102a9919061093b565b60405180910390f35b3480156102be57600080fd5b506102c76107c7565b6040516102d4919061093b565b60405180910390f35b3480156102e957600080fd5b5061030460048036038101906102ff9190610b4b565b6107cd565b604051610311919061093b565b60405180910390f35b600960009054906101000a900460ff1681565b600047905090565b7f000000000000000000000000000000000000000000000000000000000000000073ffffffffffffffffffffffffffffffffffffffff163373ffffffffffffffffffffffffffffffffffffffff16146103e757337f00000000000000000000000000000000000000000000000000000000000000006040517f1cf993f40000000000000000000000000000000000000000000000000000000081526004016103de929190610c1e565b60405180910390fd5b6103f182826107f1565b5050565b60006005600083815260200190815260200160002060009054906101000a900473ffffffffffffffffffffffffffffffffffffffff169050919050565b6000600854905090565b60008060006007600085815260200190815260200160002090508060000160009054906101000a900473ffffffffffffffffffffffffffffffffffffffff1681600101549250925050915091565b60056020528060005260406000206000915054906101000a900473ffffffffffffffffffffffffffffffffffffffff1681565b60023411610500576040517f08c379a00000000000000000000000000000000000000000000000000000000081526004016104f790610ca4565b60405180910390fd5b600181101580156105125750600a8111155b610551576040517f08c379a000000000000000000000000000000000000000000000000000000000815260040161054890610d10565b60405180910390fd5b60006007600060085481526020019081526020016000209050338160000160006101000a81548173ffffffffffffffffffffffffffffffffffffffff021916908373ffffffffffffffffffffffffffffffffffffffff16021790555081816001018190555060006006600083600101548152602001908152602001600020905080600001339080600181540180825580915050600190039060005260206000200160009091909190916101000a81548173ffffffffffffffffffffffffffffffffffffffff021916908373ffffffffffffffffffffffffffffffffffffffff16021790555061063e61080c565b505050565b600360009054906101000a900473ffffffffffffffffffffffffffffffffffffffff1673ffffffffffffffffffffffffffffffffffffffff163373ffffffffffffffffffffffffffffffffffffffff161461069d57600080fd5b600854736168499c0cffcacd319c818142124b7a15e857ab73ffffffffffffffffffffffffffffffffffffffff16635d3b1d307fd89b2bf150e3b9e13446986e571fb9cab24b13cea0a43ea20a6049a85cc807cc60001b611bda600060049054906101000a900461ffff1660008054906101000a900463ffffffff16600060069054906101000a900463ffffffff166040518663ffffffff1660e01b815260040161074c959493929190610da8565b6020604051808303816000875af115801561076b573d6000803e3d6000fd5b505050506040513d601f19601f8201168201806040525081019061078f9190610e10565b6107999190610e6c565b600281905550565b60045481565b600060076000600254815260200190815260200160002060010154905090565b60025481565b600181815481106107dd57600080fd5b906000526020600020016000915090505481565b8060019080519060200190610807929190610826565b505050565b6008600081548092919061081f90610ecc565b9190505550565b828054828255906000526020600020908101928215610862579160200282015b82811115610861578251825591602001919060010190610846565b5b50905061086f9190610873565b5090565b5b8082111561088c576000816000905550600101610874565b5090565b7f4e487b7100000000000000000000000000000000000000000000000000000000600052602160045260246000fd5b600481106108d0576108cf610890565b5b50565b60008190506108e1826108bf565b919050565b60006108f1826108d3565b9050919050565b610901816108e6565b82525050565b600060208201905061091c60008301846108f8565b92915050565b6000819050919050565b61093581610922565b82525050565b6000602082019050610950600083018461092c565b92915050565b6000604051905090565b600080fd5b600080fd5b61097381610922565b811461097e57600080fd5b50565b6000813590506109908161096a565b92915050565b600080fd5b6000601f19601f8301169050919050565b7f4e487b7100000000000000000000000000000000000000000000000000000000600052604160045260246000fd5b6109e48261099b565b810181811067ffffffffffffffff82111715610a0357610a026109ac565b5b80604052505050565b6000610a16610956565b9050610a2282826109db565b919050565b600067ffffffffffffffff821115610a4257610a416109ac565b5b602082029050602081019050919050565b600080fd5b6000610a6b610a6684610a27565b610a0c565b90508083825260208201905060208402830185811115610a8e57610a8d610a53565b5b835b81811015610ab75780610aa38882610981565b845260208401935050602081019050610a90565b5050509392505050565b600082601f830112610ad657610ad5610996565b5b8135610ae6848260208601610a58565b91505092915050565b60008060408385031215610b0657610b05610960565b5b6000610b1485828601610981565b925050602083013567ffffffffffffffff811115610b3557610b34610965565b5b610b4185828601610ac1565b9150509250929050565b600060208284031215610b6157610b60610960565b5b6000610b6f84828501610981565b91505092915050565b600073ffffffffffffffffffffffffffffffffffffffff82169050919050565b6000610ba382610b78565b9050919050565b610bb381610b98565b82525050565b6000602082019050610bce6000830184610baa565b92915050565b6000604082019050610be96000830185610baa565b610bf6602083018461092c565b9392505050565b6000610c0882610b78565b9050919050565b610c1881610bfd565b82525050565b6000604082019050610c336000830185610c0f565b610c406020830184610c0f565b9392505050565b600082825260208201905092915050565b7f4e6f7420656e6f75676820746f6b656e00000000000000000000000000000000600082015250565b6000610c8e601083610c47565b9150610c9982610c58565b602082019050919050565b60006020820190508181036000830152610cbd81610c81565b9050919050565b7f4e756d626572207469636b6574206f7574206f662072616e6765000000000000600082015250565b6000610cfa601a83610c47565b9150610d0582610cc4565b602082019050919050565b60006020820190508181036000830152610d2981610ced565b9050919050565b6000819050919050565b610d4381610d30565b82525050565b600067ffffffffffffffff82169050919050565b610d6681610d49565b82525050565b600061ffff82169050919050565b610d8381610d6c565b82525050565b600063ffffffff82169050919050565b610da281610d89565b82525050565b600060a082019050610dbd6000830188610d3a565b610dca6020830187610d5d565b610dd76040830186610d7a565b610de46060830185610d99565b610df16080830184610d99565b9695505050505050565b600081519050610e0a8161096a565b92915050565b600060208284031215610e2657610e25610960565b5b6000610e3484828501610dfb565b91505092915050565b7f4e487b7100000000000000000000000000000000000000000000000000000000600052601260045260246000fd5b6000610e7782610922565b9150610e8283610922565b925082610e9257610e91610e3d565b5b828206905092915050565b7f4e487b7100000000000000000000000000000000000000000000000000000000600052601160045260246000fd5b6000610ed782610922565b91507fffffffffffffffffffffffffffffffffffffffffffffffffffffffffffffffff821415610f0a57610f09610e9d565b5b60018201905091905056fea264697066735822122003eac44ee9f14de8bf6559af1575397d349bc41e8114d01a494530ba85d320b864736f6c634300080c0033",
					"opcodes": "PUSH1 0xA0 PUSH1 0x40 MSTORE PUSH3 0x186A0 PUSH1 0x0 DUP1 PUSH2 0x100 EXP DUP2 SLOAD DUP2 PUSH4 0xFFFFFFFF MUL NOT AND SWAP1 DUP4 PUSH4 0xFFFFFFFF AND MUL OR SWAP1 SSTORE POP PUSH1 0x3 PUSH1 0x0 PUSH1 0x4 PUSH2 0x100 EXP DUP2 SLOAD DUP2 PUSH2 0xFFFF MUL NOT AND SWAP1 DUP4 PUSH2 0xFFFF AND MUL OR SWAP1 SSTORE POP PUSH1 0x2 PUSH1 0x0 PUSH1 0x6 PUSH2 0x100 EXP DUP2 SLOAD DUP2 PUSH4 0xFFFFFFFF MUL NOT AND SWAP1 DUP4 PUSH4 0xFFFFFFFF AND MUL OR SWAP1 SSTORE POP CALLER PUSH1 0x3 PUSH1 0x0 PUSH2 0x100 EXP DUP2 SLOAD DUP2 PUSH20 0xFFFFFFFFFFFFFFFFFFFFFFFFFFFFFFFFFFFFFFFF MUL NOT AND SWAP1 DUP4 PUSH20 0xFFFFFFFFFFFFFFFFFFFFFFFFFFFFFFFFFFFFFFFF AND MUL OR SWAP1 SSTORE POP PUSH1 0x0 PUSH1 0x8 SSTORE PUSH1 0x0 PUSH1 0x9 PUSH1 0x0 PUSH2 0x100 EXP DUP2 SLOAD DUP2 PUSH1 0xFF MUL NOT AND SWAP1 DUP4 PUSH1 0x3 DUP2 GT ISZERO PUSH2 0xD3 JUMPI PUSH2 0xD2 PUSH2 0x134 JUMP JUMPDEST JUMPDEST MUL OR SWAP1 SSTORE POP CALLVALUE DUP1 ISZERO PUSH2 0xE4 JUMPI PUSH1 0x0 DUP1 REVERT JUMPDEST POP PUSH20 0x6168499C0CFFCACD319C818142124B7A15E857AB DUP1 PUSH20 0xFFFFFFFFFFFFFFFFFFFFFFFFFFFFFFFFFFFFFFFF AND PUSH1 0x80 DUP2 PUSH20 0xFFFFFFFFFFFFFFFFFFFFFFFFFFFFFFFFFFFFFFFF AND DUP2 MSTORE POP POP POP PUSH2 0x163 JUMP JUMPDEST PUSH32 0x4E487B7100000000000000000000000000000000000000000000000000000000 PUSH1 0x0 MSTORE PUSH1 0x21 PUSH1 0x4 MSTORE PUSH1 0x24 PUSH1 0x0 REVERT JUMPDEST PUSH1 0x80 MLOAD PUSH2 0xF4B PUSH2 0x185 PUSH1 0x0 CODECOPY PUSH1 0x0 DUP2 DUP2 PUSH2 0x337 ADD MSTORE PUSH2 0x38B ADD MSTORE PUSH2 0xF4B PUSH1 0x0 RETURN INVALID PUSH1 0x80 PUSH1 0x40 MSTORE PUSH1 0x4 CALLDATASIZE LT PUSH2 0xC2 JUMPI PUSH1 0x0 CALLDATALOAD PUSH1 0xE0 SHR DUP1 PUSH4 0x6D6FE230 GT PUSH2 0x7F JUMPI DUP1 PUSH4 0xE580F47B GT PUSH2 0x59 JUMPI DUP1 PUSH4 0xE580F47B EQ PUSH2 0x25C JUMPI DUP1 PUSH4 0xE69F19CD EQ PUSH2 0x287 JUMPI DUP1 PUSH4 0xE89E106A EQ PUSH2 0x2B2 JUMPI DUP1 PUSH4 0xF6EAFFC8 EQ PUSH2 0x2DD JUMPI PUSH2 0xC2 JUMP JUMPDEST DUP1 PUSH4 0x6D6FE230 EQ PUSH2 0x1EC JUMPI DUP1 PUSH4 0xA59F3E0C EQ PUSH2 0x229 JUMPI DUP1 PUSH4 0xE0C86289 EQ PUSH2 0x245 JUMPI PUSH2 0xC2 JUMP JUMPDEST DUP1 PUSH4 0xD683DD9 EQ PUSH2 0xC7 JUMPI DUP1 PUSH4 0x12065FE0 EQ PUSH2 0xF2 JUMPI DUP1 PUSH4 0x1FE543E3 EQ PUSH2 0x11D JUMPI DUP1 PUSH4 0x281D098D EQ PUSH2 0x146 JUMPI DUP1 PUSH4 0x32EB85A4 EQ PUSH2 0x183 JUMPI DUP1 PUSH4 0x460E2049 EQ PUSH2 0x1AE JUMPI JUMPDEST PUSH1 0x0 DUP1 REVERT JUMPDEST CALLVALUE DUP1 ISZERO PUSH2 0xD3 JUMPI PUSH1 0x0 DUP1 REVERT JUMPDEST POP PUSH2 0xDC PUSH2 0x31A JUMP JUMPDEST PUSH1 0x40 MLOAD PUSH2 0xE9 SWAP2 SWAP1 PUSH2 0x907 JUMP JUMPDEST PUSH1 0x40 MLOAD DUP1 SWAP2 SUB SWAP1 RETURN JUMPDEST CALLVALUE DUP1 ISZERO PUSH2 0xFE JUMPI PUSH1 0x0 DUP1 REVERT JUMPDEST POP PUSH2 0x107 PUSH2 0x32D JUMP JUMPDEST PUSH1 0x40 MLOAD PUSH2 0x114 SWAP2 SWAP1 PUSH2 0x93B JUMP JUMPDEST PUSH1 0x40 MLOAD DUP1 SWAP2 SUB SWAP1 RETURN JUMPDEST CALLVALUE DUP1 ISZERO PUSH2 0x129 JUMPI PUSH1 0x0 DUP1 REVERT JUMPDEST POP PUSH2 0x144 PUSH1 0x4 DUP1 CALLDATASIZE SUB DUP2 ADD SWAP1 PUSH2 0x13F SWAP2 SWAP1 PUSH2 0xAEF JUMP JUMPDEST PUSH2 0x335 JUMP JUMPDEST STOP JUMPDEST CALLVALUE DUP1 ISZERO PUSH2 0x152 JUMPI PUSH1 0x0 DUP1 REVERT JUMPDEST POP PUSH2 0x16D PUSH1 0x4 DUP1 CALLDATASIZE SUB DUP2 ADD SWAP1 PUSH2 0x168 SWAP2 SWAP1 PUSH2 0xB4B JUMP JUMPDEST PUSH2 0x3F5 JUMP JUMPDEST PUSH1 0x40 MLOAD PUSH2 0x17A SWAP2 SWAP1 PUSH2 0xBB9 JUMP JUMPDEST PUSH1 0x40 MLOAD DUP1 SWAP2 SUB SWAP1 RETURN JUMPDEST CALLVALUE DUP1 ISZERO PUSH2 0x18F JUMPI PUSH1 0x0 DUP1 REVERT JUMPDEST POP PUSH2 0x198 PUSH2 0x432 JUMP JUMPDEST PUSH1 0x40 MLOAD PUSH2 0x1A5 SWAP2 SWAP1 PUSH2 0x93B JUMP JUMPDEST PUSH1 0x40 MLOAD DUP1 SWAP2 SUB SWAP1 RETURN JUMPDEST CALLVALUE DUP1 ISZERO PUSH2 0x1BA JUMPI PUSH1 0x0 DUP1 REVERT JUMPDEST POP PUSH2 0x1D5 PUSH1 0x4 DUP1 CALLDATASIZE SUB DUP2 ADD SWAP1 PUSH2 0x1D0 SWAP2 SWAP1 PUSH2 0xB4B JUMP JUMPDEST PUSH2 0x43C JUMP JUMPDEST PUSH1 0x40 MLOAD PUSH2 0x1E3 SWAP3 SWAP2 SWAP1 PUSH2 0xBD4 JUMP JUMPDEST PUSH1 0x40 MLOAD DUP1 SWAP2 SUB SWAP1 RETURN JUMPDEST CALLVALUE DUP1 ISZERO PUSH2 0x1F8 JUMPI PUSH1 0x0 DUP1 REVERT JUMPDEST POP PUSH2 0x213 PUSH1 0x4 DUP1 CALLDATASIZE SUB DUP2 ADD SWAP1 PUSH2 0x20E SWAP2 SWAP1 PUSH2 0xB4B JUMP JUMPDEST PUSH2 0x48A JUMP JUMPDEST PUSH1 0x40 MLOAD PUSH2 0x220 SWAP2 SWAP1 PUSH2 0xBB9 JUMP JUMPDEST PUSH1 0x40 MLOAD DUP1 SWAP2 SUB SWAP1 RETURN JUMPDEST PUSH2 0x243 PUSH1 0x4 DUP1 CALLDATASIZE SUB DUP2 ADD SWAP1 PUSH2 0x23E SWAP2 SWAP1 PUSH2 0xB4B JUMP JUMPDEST PUSH2 0x4BD JUMP JUMPDEST STOP JUMPDEST CALLVALUE DUP1 ISZERO PUSH2 0x251 JUMPI PUSH1 0x0 DUP1 REVERT JUMPDEST POP PUSH2 0x25A PUSH2 0x643 JUMP JUMPDEST STOP JUMPDEST CALLVALUE DUP1 ISZERO PUSH2 0x268 JUMPI PUSH1 0x0 DUP1 REVERT JUMPDEST POP PUSH2 0x271 PUSH2 0x7A1 JUMP JUMPDEST PUSH1 0x40 MLOAD PUSH2 0x27E SWAP2 SWAP1 PUSH2 0x93B JUMP JUMPDEST PUSH1 0x40 MLOAD DUP1 SWAP2 SUB SWAP1 RETURN JUMPDEST CALLVALUE DUP1 ISZERO PUSH2 0x293 JUMPI PUSH1 0x0 DUP1 REVERT JUMPDEST POP PUSH2 0x29C PUSH2 0x7A7 JUMP JUMPDEST PUSH1 0x40 MLOAD PUSH2 0x2A9 SWAP2 SWAP1 PUSH2 0x93B JUMP JUMPDEST PUSH1 0x40 MLOAD DUP1 SWAP2 SUB SWAP1 RETURN JUMPDEST CALLVALUE DUP1 ISZERO PUSH2 0x2BE JUMPI PUSH1 0x0 DUP1 REVERT JUMPDEST POP PUSH2 0x2C7 PUSH2 0x7C7 JUMP JUMPDEST PUSH1 0x40 MLOAD PUSH2 0x2D4 SWAP2 SWAP1 PUSH2 0x93B JUMP JUMPDEST PUSH1 0x40 MLOAD DUP1 SWAP2 SUB SWAP1 RETURN JUMPDEST CALLVALUE DUP1 ISZERO PUSH2 0x2E9 JUMPI PUSH1 0x0 DUP1 REVERT JUMPDEST POP PUSH2 0x304 PUSH1 0x4 DUP1 CALLDATASIZE SUB DUP2 ADD SWAP1 PUSH2 0x2FF SWAP2 SWAP1 PUSH2 0xB4B JUMP JUMPDEST PUSH2 0x7CD JUMP JUMPDEST PUSH1 0x40 MLOAD PUSH2 0x311 SWAP2 SWAP1 PUSH2 0x93B JUMP JUMPDEST PUSH1 0x40 MLOAD DUP1 SWAP2 SUB SWAP1 RETURN JUMPDEST PUSH1 0x9 PUSH1 0x0 SWAP1 SLOAD SWAP1 PUSH2 0x100 EXP SWAP1 DIV PUSH1 0xFF AND DUP2 JUMP JUMPDEST PUSH1 0x0 SELFBALANCE SWAP1 POP SWAP1 JUMP JUMPDEST PUSH32 0x0 PUSH20 0xFFFFFFFFFFFFFFFFFFFFFFFFFFFFFFFFFFFFFFFF AND CALLER PUSH20 0xFFFFFFFFFFFFFFFFFFFFFFFFFFFFFFFFFFFFFFFF AND EQ PUSH2 0x3E7 JUMPI CALLER PUSH32 0x0 PUSH1 0x40 MLOAD PUSH32 0x1CF993F400000000000000000000000000000000000000000000000000000000 DUP2 MSTORE PUSH1 0x4 ADD PUSH2 0x3DE SWAP3 SWAP2 SWAP1 PUSH2 0xC1E JUMP JUMPDEST PUSH1 0x40 MLOAD DUP1 SWAP2 SUB SWAP1 REVERT JUMPDEST PUSH2 0x3F1 DUP3 DUP3 PUSH2 0x7F1 JUMP JUMPDEST POP POP JUMP JUMPDEST PUSH1 0x0 PUSH1 0x5 PUSH1 0x0 DUP4 DUP2 MSTORE PUSH1 0x20 ADD SWAP1 DUP2 MSTORE PUSH1 0x20 ADD PUSH1 0x0 KECCAK256 PUSH1 0x0 SWAP1 SLOAD SWAP1 PUSH2 0x100 EXP SWAP1 DIV PUSH20 0xFFFFFFFFFFFFFFFFFFFFFFFFFFFFFFFFFFFFFFFF AND SWAP1 POP SWAP2 SWAP1 POP JUMP JUMPDEST PUSH1 0x0 PUSH1 0x8 SLOAD SWAP1 POP SWAP1 JUMP JUMPDEST PUSH1 0x0 DUP1 PUSH1 0x0 PUSH1 0x7 PUSH1 0x0 DUP6 DUP2 MSTORE PUSH1 0x20 ADD SWAP1 DUP2 MSTORE PUSH1 0x20 ADD PUSH1 0x0 KECCAK256 SWAP1 POP DUP1 PUSH1 0x0 ADD PUSH1 0x0 SWAP1 SLOAD SWAP1 PUSH2 0x100 EXP SWAP1 DIV PUSH20 0xFFFFFFFFFFFFFFFFFFFFFFFFFFFFFFFFFFFFFFFF AND DUP2 PUSH1 0x1 ADD SLOAD SWAP3 POP SWAP3 POP POP SWAP2 POP SWAP2 JUMP JUMPDEST PUSH1 0x5 PUSH1 0x20 MSTORE DUP1 PUSH1 0x0 MSTORE PUSH1 0x40 PUSH1 0x0 KECCAK256 PUSH1 0x0 SWAP2 POP SLOAD SWAP1 PUSH2 0x100 EXP SWAP1 DIV PUSH20 0xFFFFFFFFFFFFFFFFFFFFFFFFFFFFFFFFFFFFFFFF AND DUP2 JUMP JUMPDEST PUSH1 0x2 CALLVALUE GT PUSH2 0x500 JUMPI PUSH1 0x40 MLOAD PUSH32 0x8C379A000000000000000000000000000000000000000000000000000000000 DUP2 MSTORE PUSH1 0x4 ADD PUSH2 0x4F7 SWAP1 PUSH2 0xCA4 JUMP JUMPDEST PUSH1 0x40 MLOAD DUP1 SWAP2 SUB SWAP1 REVERT JUMPDEST PUSH1 0x1 DUP2 LT ISZERO DUP1 ISZERO PUSH2 0x512 JUMPI POP PUSH1 0xA DUP2 GT ISZERO JUMPDEST PUSH2 0x551 JUMPI PUSH1 0x40 MLOAD PUSH32 0x8C379A000000000000000000000000000000000000000000000000000000000 DUP2 MSTORE PUSH1 0x4 ADD PUSH2 0x548 SWAP1 PUSH2 0xD10 JUMP JUMPDEST PUSH1 0x40 MLOAD DUP1 SWAP2 SUB SWAP1 REVERT JUMPDEST PUSH1 0x0 PUSH1 0x7 PUSH1 0x0 PUSH1 0x8 SLOAD DUP2 MSTORE PUSH1 0x20 ADD SWAP1 DUP2 MSTORE PUSH1 0x20 ADD PUSH1 0x0 KECCAK256 SWAP1 POP CALLER DUP2 PUSH1 0x0 ADD PUSH1 0x0 PUSH2 0x100 EXP DUP2 SLOAD DUP2 PUSH20 0xFFFFFFFFFFFFFFFFFFFFFFFFFFFFFFFFFFFFFFFF MUL NOT AND SWAP1 DUP4 PUSH20 0xFFFFFFFFFFFFFFFFFFFFFFFFFFFFFFFFFFFFFFFF AND MUL OR SWAP1 SSTORE POP DUP2 DUP2 PUSH1 0x1 ADD DUP2 SWAP1 SSTORE POP PUSH1 0x0 PUSH1 0x6 PUSH1 0x0 DUP4 PUSH1 0x1 ADD SLOAD DUP2 MSTORE PUSH1 0x20 ADD SWAP1 DUP2 MSTORE PUSH1 0x20 ADD PUSH1 0x0 KECCAK256 SWAP1 POP DUP1 PUSH1 0x0 ADD CALLER SWAP1 DUP1 PUSH1 0x1 DUP2 SLOAD ADD DUP1 DUP3 SSTORE DUP1 SWAP2 POP POP PUSH1 0x1 SWAP1 SUB SWAP1 PUSH1 0x0 MSTORE PUSH1 0x20 PUSH1 0x0 KECCAK256 ADD PUSH1 0x0 SWAP1 SWAP2 SWAP1 SWAP2 SWAP1 SWAP2 PUSH2 0x100 EXP DUP2 SLOAD DUP2 PUSH20 0xFFFFFFFFFFFFFFFFFFFFFFFFFFFFFFFFFFFFFFFF MUL NOT AND SWAP1 DUP4 PUSH20 0xFFFFFFFFFFFFFFFFFFFFFFFFFFFFFFFFFFFFFFFF AND MUL OR SWAP1 SSTORE POP PUSH2 0x63E PUSH2 0x80C JUMP JUMPDEST POP POP POP JUMP JUMPDEST PUSH1 0x3 PUSH1 0x0 SWAP1 SLOAD SWAP1 PUSH2 0x100 EXP SWAP1 DIV PUSH20 0xFFFFFFFFFFFFFFFFFFFFFFFFFFFFFFFFFFFFFFFF AND PUSH20 0xFFFFFFFFFFFFFFFFFFFFFFFFFFFFFFFFFFFFFFFF AND CALLER PUSH20 0xFFFFFFFFFFFFFFFFFFFFFFFFFFFFFFFFFFFFFFFF AND EQ PUSH2 0x69D JUMPI PUSH1 0x0 DUP1 REVERT JUMPDEST PUSH1 0x8 SLOAD PUSH20 0x6168499C0CFFCACD319C818142124B7A15E857AB PUSH20 0xFFFFFFFFFFFFFFFFFFFFFFFFFFFFFFFFFFFFFFFF AND PUSH4 0x5D3B1D30 PUSH32 0xD89B2BF150E3B9E13446986E571FB9CAB24B13CEA0A43EA20A6049A85CC807CC PUSH1 0x0 SHL PUSH2 0x1BDA PUSH1 0x0 PUSH1 0x4 SWAP1 SLOAD SWAP1 PUSH2 0x100 EXP SWAP1 DIV PUSH2 0xFFFF AND PUSH1 0x0 DUP1 SLOAD SWAP1 PUSH2 0x100 EXP SWAP1 DIV PUSH4 0xFFFFFFFF AND PUSH1 0x0 PUSH1 0x6 SWAP1 SLOAD SWAP1 PUSH2 0x100 EXP SWAP1 DIV PUSH4 0xFFFFFFFF AND PUSH1 0x40 MLOAD DUP7 PUSH4 0xFFFFFFFF AND PUSH1 0xE0 SHL DUP2 MSTORE PUSH1 0x4 ADD PUSH2 0x74C SWAP6 SWAP5 SWAP4 SWAP3 SWAP2 SWAP1 PUSH2 0xDA8 JUMP JUMPDEST PUSH1 0x20 PUSH1 0x40 MLOAD DUP1 DUP4 SUB DUP2 PUSH1 0x0 DUP8 GAS CALL ISZERO DUP1 ISZERO PUSH2 0x76B JUMPI RETURNDATASIZE PUSH1 0x0 DUP1 RETURNDATACOPY RETURNDATASIZE PUSH1 0x0 REVERT JUMPDEST POP POP POP POP PUSH1 0x40 MLOAD RETURNDATASIZE PUSH1 0x1F NOT PUSH1 0x1F DUP3 ADD AND DUP3 ADD DUP1 PUSH1 0x40 MSTORE POP DUP2 ADD SWAP1 PUSH2 0x78F SWAP2 SWAP1 PUSH2 0xE10 JUMP JUMPDEST PUSH2 0x799 SWAP2 SWAP1 PUSH2 0xE6C JUMP JUMPDEST PUSH1 0x2 DUP2 SWAP1 SSTORE POP JUMP JUMPDEST PUSH1 0x4 SLOAD DUP2 JUMP JUMPDEST PUSH1 0x0 PUSH1 0x7 PUSH1 0x0 PUSH1 0x2 SLOAD DUP2 MSTORE PUSH1 0x20 ADD SWAP1 DUP2 MSTORE PUSH1 0x20 ADD PUSH1 0x0 KECCAK256 PUSH1 0x1 ADD SLOAD SWAP1 POP SWAP1 JUMP JUMPDEST PUSH1 0x2 SLOAD DUP2 JUMP JUMPDEST PUSH1 0x1 DUP2 DUP2 SLOAD DUP2 LT PUSH2 0x7DD JUMPI PUSH1 0x0 DUP1 REVERT JUMPDEST SWAP1 PUSH1 0x0 MSTORE PUSH1 0x20 PUSH1 0x0 KECCAK256 ADD PUSH1 0x0 SWAP2 POP SWAP1 POP SLOAD DUP2 JUMP JUMPDEST DUP1 PUSH1 0x1 SWAP1 DUP1 MLOAD SWAP1 PUSH1 0x20 ADD SWAP1 PUSH2 0x807 SWAP3 SWAP2 SWAP1 PUSH2 0x826 JUMP JUMPDEST POP POP POP JUMP JUMPDEST PUSH1 0x8 PUSH1 0x0 DUP2 SLOAD DUP1 SWAP3 SWAP2 SWAP1 PUSH2 0x81F SWAP1 PUSH2 0xECC JUMP JUMPDEST SWAP2 SWAP1 POP SSTORE POP JUMP JUMPDEST DUP3 DUP1 SLOAD DUP3 DUP3 SSTORE SWAP1 PUSH1 0x0 MSTORE PUSH1 0x20 PUSH1 0x0 KECCAK256 SWAP1 DUP2 ADD SWAP3 DUP3 ISZERO PUSH2 0x862 JUMPI SWAP2 PUSH1 0x20 MUL DUP3 ADD JUMPDEST DUP3 DUP2 GT ISZERO PUSH2 0x861 JUMPI DUP3 MLOAD DUP3 SSTORE SWAP2 PUSH1 0x20 ADD SWAP2 SWAP1 PUSH1 0x1 ADD SWAP1 PUSH2 0x846 JUMP JUMPDEST JUMPDEST POP SWAP1 POP PUSH2 0x86F SWAP2 SWAP1 PUSH2 0x873 JUMP JUMPDEST POP SWAP1 JUMP JUMPDEST JUMPDEST DUP1 DUP3 GT ISZERO PUSH2 0x88C JUMPI PUSH1 0x0 DUP2 PUSH1 0x0 SWAP1 SSTORE POP PUSH1 0x1 ADD PUSH2 0x874 JUMP JUMPDEST POP SWAP1 JUMP JUMPDEST PUSH32 0x4E487B7100000000000000000000000000000000000000000000000000000000 PUSH1 0x0 MSTORE PUSH1 0x21 PUSH1 0x4 MSTORE PUSH1 0x24 PUSH1 0x0 REVERT JUMPDEST PUSH1 0x4 DUP2 LT PUSH2 0x8D0 JUMPI PUSH2 0x8CF PUSH2 0x890 JUMP JUMPDEST JUMPDEST POP JUMP JUMPDEST PUSH1 0x0 DUP2 SWAP1 POP PUSH2 0x8E1 DUP3 PUSH2 0x8BF JUMP JUMPDEST SWAP2 SWAP1 POP JUMP JUMPDEST PUSH1 0x0 PUSH2 0x8F1 DUP3 PUSH2 0x8D3 JUMP JUMPDEST SWAP1 POP SWAP2 SWAP1 POP JUMP JUMPDEST PUSH2 0x901 DUP2 PUSH2 0x8E6 JUMP JUMPDEST DUP3 MSTORE POP POP JUMP JUMPDEST PUSH1 0x0 PUSH1 0x20 DUP3 ADD SWAP1 POP PUSH2 0x91C PUSH1 0x0 DUP4 ADD DUP5 PUSH2 0x8F8 JUMP JUMPDEST SWAP3 SWAP2 POP POP JUMP JUMPDEST PUSH1 0x0 DUP2 SWAP1 POP SWAP2 SWAP1 POP JUMP JUMPDEST PUSH2 0x935 DUP2 PUSH2 0x922 JUMP JUMPDEST DUP3 MSTORE POP POP JUMP JUMPDEST PUSH1 0x0 PUSH1 0x20 DUP3 ADD SWAP1 POP PUSH2 0x950 PUSH1 0x0 DUP4 ADD DUP5 PUSH2 0x92C JUMP JUMPDEST SWAP3 SWAP2 POP POP JUMP JUMPDEST PUSH1 0x0 PUSH1 0x40 MLOAD SWAP1 POP SWAP1 JUMP JUMPDEST PUSH1 0x0 DUP1 REVERT JUMPDEST PUSH1 0x0 DUP1 REVERT JUMPDEST PUSH2 0x973 DUP2 PUSH2 0x922 JUMP JUMPDEST DUP2 EQ PUSH2 0x97E JUMPI PUSH1 0x0 DUP1 REVERT JUMPDEST POP JUMP JUMPDEST PUSH1 0x0 DUP2 CALLDATALOAD SWAP1 POP PUSH2 0x990 DUP2 PUSH2 0x96A JUMP JUMPDEST SWAP3 SWAP2 POP POP JUMP JUMPDEST PUSH1 0x0 DUP1 REVERT JUMPDEST PUSH1 0x0 PUSH1 0x1F NOT PUSH1 0x1F DUP4 ADD AND SWAP1 POP SWAP2 SWAP1 POP JUMP JUMPDEST PUSH32 0x4E487B7100000000000000000000000000000000000000000000000000000000 PUSH1 0x0 MSTORE PUSH1 0x41 PUSH1 0x4 MSTORE PUSH1 0x24 PUSH1 0x0 REVERT JUMPDEST PUSH2 0x9E4 DUP3 PUSH2 0x99B JUMP JUMPDEST DUP2 ADD DUP2 DUP2 LT PUSH8 0xFFFFFFFFFFFFFFFF DUP3 GT OR ISZERO PUSH2 0xA03 JUMPI PUSH2 0xA02 PUSH2 0x9AC JUMP JUMPDEST JUMPDEST DUP1 PUSH1 0x40 MSTORE POP POP POP JUMP JUMPDEST PUSH1 0x0 PUSH2 0xA16 PUSH2 0x956 JUMP JUMPDEST SWAP1 POP PUSH2 0xA22 DUP3 DUP3 PUSH2 0x9DB JUMP JUMPDEST SWAP2 SWAP1 POP JUMP JUMPDEST PUSH1 0x0 PUSH8 0xFFFFFFFFFFFFFFFF DUP3 GT ISZERO PUSH2 0xA42 JUMPI PUSH2 0xA41 PUSH2 0x9AC JUMP JUMPDEST JUMPDEST PUSH1 0x20 DUP3 MUL SWAP1 POP PUSH1 0x20 DUP2 ADD SWAP1 POP SWAP2 SWAP1 POP JUMP JUMPDEST PUSH1 0x0 DUP1 REVERT JUMPDEST PUSH1 0x0 PUSH2 0xA6B PUSH2 0xA66 DUP5 PUSH2 0xA27 JUMP JUMPDEST PUSH2 0xA0C JUMP JUMPDEST SWAP1 POP DUP1 DUP4 DUP3 MSTORE PUSH1 0x20 DUP3 ADD SWAP1 POP PUSH1 0x20 DUP5 MUL DUP4 ADD DUP6 DUP2 GT ISZERO PUSH2 0xA8E JUMPI PUSH2 0xA8D PUSH2 0xA53 JUMP JUMPDEST JUMPDEST DUP4 JUMPDEST DUP2 DUP2 LT ISZERO PUSH2 0xAB7 JUMPI DUP1 PUSH2 0xAA3 DUP9 DUP3 PUSH2 0x981 JUMP JUMPDEST DUP5 MSTORE PUSH1 0x20 DUP5 ADD SWAP4 POP POP PUSH1 0x20 DUP2 ADD SWAP1 POP PUSH2 0xA90 JUMP JUMPDEST POP POP POP SWAP4 SWAP3 POP POP POP JUMP JUMPDEST PUSH1 0x0 DUP3 PUSH1 0x1F DUP4 ADD SLT PUSH2 0xAD6 JUMPI PUSH2 0xAD5 PUSH2 0x996 JUMP JUMPDEST JUMPDEST DUP2 CALLDATALOAD PUSH2 0xAE6 DUP5 DUP3 PUSH1 0x20 DUP7 ADD PUSH2 0xA58 JUMP JUMPDEST SWAP2 POP POP SWAP3 SWAP2 POP POP JUMP JUMPDEST PUSH1 0x0 DUP1 PUSH1 0x40 DUP4 DUP6 SUB SLT ISZERO PUSH2 0xB06 JUMPI PUSH2 0xB05 PUSH2 0x960 JUMP JUMPDEST JUMPDEST PUSH1 0x0 PUSH2 0xB14 DUP6 DUP3 DUP7 ADD PUSH2 0x981 JUMP JUMPDEST SWAP3 POP POP PUSH1 0x20 DUP4 ADD CALLDATALOAD PUSH8 0xFFFFFFFFFFFFFFFF DUP2 GT ISZERO PUSH2 0xB35 JUMPI PUSH2 0xB34 PUSH2 0x965 JUMP JUMPDEST JUMPDEST PUSH2 0xB41 DUP6 DUP3 DUP7 ADD PUSH2 0xAC1 JUMP JUMPDEST SWAP2 POP POP SWAP3 POP SWAP3 SWAP1 POP JUMP JUMPDEST PUSH1 0x0 PUSH1 0x20 DUP3 DUP5 SUB SLT ISZERO PUSH2 0xB61 JUMPI PUSH2 0xB60 PUSH2 0x960 JUMP JUMPDEST JUMPDEST PUSH1 0x0 PUSH2 0xB6F DUP5 DUP3 DUP6 ADD PUSH2 0x981 JUMP JUMPDEST SWAP2 POP POP SWAP3 SWAP2 POP POP JUMP JUMPDEST PUSH1 0x0 PUSH20 0xFFFFFFFFFFFFFFFFFFFFFFFFFFFFFFFFFFFFFFFF DUP3 AND SWAP1 POP SWAP2 SWAP1 POP JUMP JUMPDEST PUSH1 0x0 PUSH2 0xBA3 DUP3 PUSH2 0xB78 JUMP JUMPDEST SWAP1 POP SWAP2 SWAP1 POP JUMP JUMPDEST PUSH2 0xBB3 DUP2 PUSH2 0xB98 JUMP JUMPDEST DUP3 MSTORE POP POP JUMP JUMPDEST PUSH1 0x0 PUSH1 0x20 DUP3 ADD SWAP1 POP PUSH2 0xBCE PUSH1 0x0 DUP4 ADD DUP5 PUSH2 0xBAA JUMP JUMPDEST SWAP3 SWAP2 POP POP JUMP JUMPDEST PUSH1 0x0 PUSH1 0x40 DUP3 ADD SWAP1 POP PUSH2 0xBE9 PUSH1 0x0 DUP4 ADD DUP6 PUSH2 0xBAA JUMP JUMPDEST PUSH2 0xBF6 PUSH1 0x20 DUP4 ADD DUP5 PUSH2 0x92C JUMP JUMPDEST SWAP4 SWAP3 POP POP POP JUMP JUMPDEST PUSH1 0x0 PUSH2 0xC08 DUP3 PUSH2 0xB78 JUMP JUMPDEST SWAP1 POP SWAP2 SWAP1 POP JUMP JUMPDEST PUSH2 0xC18 DUP2 PUSH2 0xBFD JUMP JUMPDEST DUP3 MSTORE POP POP JUMP JUMPDEST PUSH1 0x0 PUSH1 0x40 DUP3 ADD SWAP1 POP PUSH2 0xC33 PUSH1 0x0 DUP4 ADD DUP6 PUSH2 0xC0F JUMP JUMPDEST PUSH2 0xC40 PUSH1 0x20 DUP4 ADD DUP5 PUSH2 0xC0F JUMP JUMPDEST SWAP4 SWAP3 POP POP POP JUMP JUMPDEST PUSH1 0x0 DUP3 DUP3 MSTORE PUSH1 0x20 DUP3 ADD SWAP1 POP SWAP3 SWAP2 POP POP JUMP JUMPDEST PUSH32 0x4E6F7420656E6F75676820746F6B656E00000000000000000000000000000000 PUSH1 0x0 DUP3 ADD MSTORE POP JUMP JUMPDEST PUSH1 0x0 PUSH2 0xC8E PUSH1 0x10 DUP4 PUSH2 0xC47 JUMP JUMPDEST SWAP2 POP PUSH2 0xC99 DUP3 PUSH2 0xC58 JUMP JUMPDEST PUSH1 0x20 DUP3 ADD SWAP1 POP SWAP2 SWAP1 POP JUMP JUMPDEST PUSH1 0x0 PUSH1 0x20 DUP3 ADD SWAP1 POP DUP2 DUP2 SUB PUSH1 0x0 DUP4 ADD MSTORE PUSH2 0xCBD DUP2 PUSH2 0xC81 JUMP JUMPDEST SWAP1 POP SWAP2 SWAP1 POP JUMP JUMPDEST PUSH32 0x4E756D626572207469636B6574206F7574206F662072616E6765000000000000 PUSH1 0x0 DUP3 ADD MSTORE POP JUMP JUMPDEST PUSH1 0x0 PUSH2 0xCFA PUSH1 0x1A DUP4 PUSH2 0xC47 JUMP JUMPDEST SWAP2 POP PUSH2 0xD05 DUP3 PUSH2 0xCC4 JUMP JUMPDEST PUSH1 0x20 DUP3 ADD SWAP1 POP SWAP2 SWAP1 POP JUMP JUMPDEST PUSH1 0x0 PUSH1 0x20 DUP3 ADD SWAP1 POP DUP2 DUP2 SUB PUSH1 0x0 DUP4 ADD MSTORE PUSH2 0xD29 DUP2 PUSH2 0xCED JUMP JUMPDEST SWAP1 POP SWAP2 SWAP1 POP JUMP JUMPDEST PUSH1 0x0 DUP2 SWAP1 POP SWAP2 SWAP1 POP JUMP JUMPDEST PUSH2 0xD43 DUP2 PUSH2 0xD30 JUMP JUMPDEST DUP3 MSTORE POP POP JUMP JUMPDEST PUSH1 0x0 PUSH8 0xFFFFFFFFFFFFFFFF DUP3 AND SWAP1 POP SWAP2 SWAP1 POP JUMP JUMPDEST PUSH2 0xD66 DUP2 PUSH2 0xD49 JUMP JUMPDEST DUP3 MSTORE POP POP JUMP JUMPDEST PUSH1 0x0 PUSH2 0xFFFF DUP3 AND SWAP1 POP SWAP2 SWAP1 POP JUMP JUMPDEST PUSH2 0xD83 DUP2 PUSH2 0xD6C JUMP JUMPDEST DUP3 MSTORE POP POP JUMP JUMPDEST PUSH1 0x0 PUSH4 0xFFFFFFFF DUP3 AND SWAP1 POP SWAP2 SWAP1 POP JUMP JUMPDEST PUSH2 0xDA2 DUP2 PUSH2 0xD89 JUMP JUMPDEST DUP3 MSTORE POP POP JUMP JUMPDEST PUSH1 0x0 PUSH1 0xA0 DUP3 ADD SWAP1 POP PUSH2 0xDBD PUSH1 0x0 DUP4 ADD DUP9 PUSH2 0xD3A JUMP JUMPDEST PUSH2 0xDCA PUSH1 0x20 DUP4 ADD DUP8 PUSH2 0xD5D JUMP JUMPDEST PUSH2 0xDD7 PUSH1 0x40 DUP4 ADD DUP7 PUSH2 0xD7A JUMP JUMPDEST PUSH2 0xDE4 PUSH1 0x60 DUP4 ADD DUP6 PUSH2 0xD99 JUMP JUMPDEST PUSH2 0xDF1 PUSH1 0x80 DUP4 ADD DUP5 PUSH2 0xD99 JUMP JUMPDEST SWAP7 SWAP6 POP POP POP POP POP POP JUMP JUMPDEST PUSH1 0x0 DUP2 MLOAD SWAP1 POP PUSH2 0xE0A DUP2 PUSH2 0x96A JUMP JUMPDEST SWAP3 SWAP2 POP POP JUMP JUMPDEST PUSH1 0x0 PUSH1 0x20 DUP3 DUP5 SUB SLT ISZERO PUSH2 0xE26 JUMPI PUSH2 0xE25 PUSH2 0x960 JUMP JUMPDEST JUMPDEST PUSH1 0x0 PUSH2 0xE34 DUP5 DUP3 DUP6 ADD PUSH2 0xDFB JUMP JUMPDEST SWAP2 POP POP SWAP3 SWAP2 POP POP JUMP JUMPDEST PUSH32 0x4E487B7100000000000000000000000000000000000000000000000000000000 PUSH1 0x0 MSTORE PUSH1 0x12 PUSH1 0x4 MSTORE PUSH1 0x24 PUSH1 0x0 REVERT JUMPDEST PUSH1 0x0 PUSH2 0xE77 DUP3 PUSH2 0x922 JUMP JUMPDEST SWAP2 POP PUSH2 0xE82 DUP4 PUSH2 0x922 JUMP JUMPDEST SWAP3 POP DUP3 PUSH2 0xE92 JUMPI PUSH2 0xE91 PUSH2 0xE3D JUMP JUMPDEST JUMPDEST DUP3 DUP3 MOD SWAP1 POP SWAP3 SWAP2 POP POP JUMP JUMPDEST PUSH32 0x4E487B7100000000000000000000000000000000000000000000000000000000 PUSH1 0x0 MSTORE PUSH1 0x11 PUSH1 0x4 MSTORE PUSH1 0x24 PUSH1 0x0 REVERT JUMPDEST PUSH1 0x0 PUSH2 0xED7 DUP3 PUSH2 0x922 JUMP JUMPDEST SWAP2 POP PUSH32 0xFFFFFFFFFFFFFFFFFFFFFFFFFFFFFFFFFFFFFFFFFFFFFFFFFFFFFFFFFFFFFFFF DUP3 EQ ISZERO PUSH2 0xF0A JUMPI PUSH2 0xF09 PUSH2 0xE9D JUMP JUMPDEST JUMPDEST PUSH1 0x1 DUP3 ADD SWAP1 POP SWAP2 SWAP1 POP JUMP INVALID LOG2 PUSH5 0x6970667358 0x22 SLT KECCAK256 SUB 0xEA 0xC4 0x4E 0xE9 CALL 0x4D 0xE8 0xBF PUSH6 0x59AF1575397D CALLVALUE SWAP12 0xC4 0x1E DUP2 EQ 0xD0 BYTE 0x49 GASLIMIT ADDRESS 0xBA DUP6 0xD3 KECCAK256 0xB8 PUSH5 0x736F6C6343 STOP ADDMOD 0xC STOP CALLER "
				},
				"gasEstimates": {
					"creation": {
						"codeDepositCost": "783000",
						"executionCost": "infinite",
						"totalCost": "infinite"
					},
					"external": {
						"enter(uint256)": "infinite",
						"getAmountPlayer()": "2526",
						"getBalance()": "362",
						"getLuckyNumber()": "4665",
						"getPlayers(uint256)": "infinite",
						"getWinnerByLottery(uint256)": "2932",
						"lotteryHistory(uint256)": "2862",
						"lotteryId()": "2451",
						"lotteryStatus()": "2561",
						"rawFulfillRandomWords(uint256,uint256[])": "infinite",
						"requestRandomWords()": "infinite",
						"s_randomWords(uint256)": "infinite",
						"s_requestId()": "2495"
					},
					"internal": {
						"fulfillRandomWords(uint256,uint256[] memory)": "infinite",
						"increasePlayerCount()": "24369"
					}
				},
				"methodIdentifiers": {
					"enter(uint256)": "a59f3e0c",
					"getAmountPlayer()": "32eb85a4",
					"getBalance()": "12065fe0",
					"getLuckyNumber()": "e69f19cd",
					"getPlayers(uint256)": "460e2049",
					"getWinnerByLottery(uint256)": "281d098d",
					"lotteryHistory(uint256)": "6d6fe230",
					"lotteryId()": "e580f47b",
					"lotteryStatus()": "0d683dd9",
					"rawFulfillRandomWords(uint256,uint256[])": "1fe543e3",
					"requestRandomWords()": "e0c86289",
					"s_randomWords(uint256)": "f6eaffc8",
					"s_requestId()": "e89e106a"
				}
			},
			"storageLayout": {
				"storage": [
					{
						"astId": 721,
						"contract": "contracts/Lottery.sol:Lottery",
						"label": "callbackGasLimit",
						"offset": 0,
						"slot": "0",
						"type": "t_uint32"
					},
					{
						"astId": 724,
						"contract": "contracts/Lottery.sol:Lottery",
						"label": "requestConfirmations",
						"offset": 4,
						"slot": "0",
						"type": "t_uint16"
					},
					{
						"astId": 727,
						"contract": "contracts/Lottery.sol:Lottery",
						"label": "numWords",
						"offset": 6,
						"slot": "0",
						"type": "t_uint32"
					},
					{
						"astId": 730,
						"contract": "contracts/Lottery.sol:Lottery",
						"label": "s_randomWords",
						"offset": 0,
						"slot": "1",
						"type": "t_array(t_uint256)dyn_storage"
					},
					{
						"astId": 732,
						"contract": "contracts/Lottery.sol:Lottery",
						"label": "s_requestId",
						"offset": 0,
						"slot": "2",
						"type": "t_uint256"
					},
					{
						"astId": 736,
						"contract": "contracts/Lottery.sol:Lottery",
						"label": "s_owner",
						"offset": 0,
						"slot": "3",
						"type": "t_address"
					},
					{
						"astId": 738,
						"contract": "contracts/Lottery.sol:Lottery",
						"label": "lotteryId",
						"offset": 0,
						"slot": "4",
						"type": "t_uint256"
					},
					{
						"astId": 742,
						"contract": "contracts/Lottery.sol:Lottery",
						"label": "lotteryHistory",
						"offset": 0,
						"slot": "5",
						"type": "t_mapping(t_uint256,t_address_payable)"
					},
					{
						"astId": 751,
						"contract": "contracts/Lottery.sol:Lottery",
						"label": "groupTicket",
						"offset": 0,
						"slot": "6",
						"type": "t_mapping(t_uint256,t_struct(ListNumberTicket)746_storage)"
					},
					{
						"astId": 761,
						"contract": "contracts/Lottery.sol:Lottery",
						"label": "allLottery",
						"offset": 0,
						"slot": "7",
						"type": "t_mapping(t_uint256,t_struct(Participants)756_storage)"
					},
					{
						"astId": 764,
						"contract": "contracts/Lottery.sol:Lottery",
						"label": "playerCount",
						"offset": 0,
						"slot": "8",
						"type": "t_uint256"
					},
					{
						"astId": 774,
						"contract": "contracts/Lottery.sol:Lottery",
						"label": "lotteryStatus",
						"offset": 0,
						"slot": "9",
						"type": "t_enum(Status)769"
					}
				],
				"types": {
					"t_address": {
						"encoding": "inplace",
						"label": "address",
						"numberOfBytes": "20"
					},
					"t_address_payable": {
						"encoding": "inplace",
						"label": "address payable",
						"numberOfBytes": "20"
					},
					"t_array(t_address_payable)dyn_storage": {
						"base": "t_address_payable",
						"encoding": "dynamic_array",
						"label": "address payable[]",
						"numberOfBytes": "32"
					},
					"t_array(t_uint256)dyn_storage": {
						"base": "t_uint256",
						"encoding": "dynamic_array",
						"label": "uint256[]",
						"numberOfBytes": "32"
					},
					"t_enum(Status)769": {
						"encoding": "inplace",
						"label": "enum Lottery.Status",
						"numberOfBytes": "1"
					},
					"t_mapping(t_uint256,t_address_payable)": {
						"encoding": "mapping",
						"key": "t_uint256",
						"label": "mapping(uint256 => address payable)",
						"numberOfBytes": "32",
						"value": "t_address_payable"
					},
					"t_mapping(t_uint256,t_struct(ListNumberTicket)746_storage)": {
						"encoding": "mapping",
						"key": "t_uint256",
						"label": "mapping(uint256 => struct Lottery.ListNumberTicket)",
						"numberOfBytes": "32",
						"value": "t_struct(ListNumberTicket)746_storage"
					},
					"t_mapping(t_uint256,t_struct(Participants)756_storage)": {
						"encoding": "mapping",
						"key": "t_uint256",
						"label": "mapping(uint256 => struct Lottery.Participants)",
						"numberOfBytes": "32",
						"value": "t_struct(Participants)756_storage"
					},
					"t_struct(ListNumberTicket)746_storage": {
						"encoding": "inplace",
						"label": "struct Lottery.ListNumberTicket",
						"members": [
							{
								"astId": 745,
								"contract": "contracts/Lottery.sol:Lottery",
								"label": "groupPlayer",
								"offset": 0,
								"slot": "0",
								"type": "t_array(t_address_payable)dyn_storage"
							}
						],
						"numberOfBytes": "32"
					},
					"t_struct(Participants)756_storage": {
						"encoding": "inplace",
						"label": "struct Lottery.Participants",
						"members": [
							{
								"astId": 753,
								"contract": "contracts/Lottery.sol:Lottery",
								"label": "player",
								"offset": 0,
								"slot": "0",
								"type": "t_address_payable"
							},
							{
								"astId": 755,
								"contract": "contracts/Lottery.sol:Lottery",
								"label": "numTicket",
								"offset": 0,
								"slot": "1",
								"type": "t_uint256"
							}
						],
						"numberOfBytes": "64"
					},
					"t_uint16": {
						"encoding": "inplace",
						"label": "uint16",
						"numberOfBytes": "2"
					},
					"t_uint256": {
						"encoding": "inplace",
						"label": "uint256",
						"numberOfBytes": "32"
					},
					"t_uint32": {
						"encoding": "inplace",
						"label": "uint32",
						"numberOfBytes": "4"
					}
				}
			},
			"userdoc": {
				"kind": "user",
				"methods": {},
				"version": 1
			}
		}
	}
}