{
	"contracts/Lottery.sol": {
		"Lottery": {
			"abi": [
				{
					"inputs": [
						{
							"internalType": "address",
							"name": "have",
							"type": "address"
						},
						{
							"internalType": "address",
							"name": "want",
							"type": "address"
						}
					],
					"name": "OnlyCoordinatorCanFulfill",
					"type": "error"
				},
				{
					"inputs": [],
					"name": "_requestRandomWords",
					"outputs": [],
					"stateMutability": "nonpayable",
					"type": "function"
				},
				{
					"inputs": [],
					"name": "closeLottery",
					"outputs": [],
					"stateMutability": "nonpayable",
					"type": "function"
				},
				{
					"inputs": [
						{
							"internalType": "uint256",
							"name": "_numTicket",
							"type": "uint256"
						}
					],
					"name": "enter",
					"outputs": [],
					"stateMutability": "payable",
					"type": "function"
				},
				{
					"inputs": [
						{
							"internalType": "uint256",
							"name": "_numTicket",
							"type": "uint256"
						}
					],
					"name": "enterNumberTicket",
					"outputs": [],
					"stateMutability": "nonpayable",
					"type": "function"
				},
				{
					"inputs": [],
					"name": "getAmountPlayer",
					"outputs": [
						{
							"internalType": "uint256",
							"name": "",
							"type": "uint256"
						}
					],
					"stateMutability": "view",
					"type": "function"
				},
				{
					"inputs": [],
					"name": "getAmountWinner",
					"outputs": [
						{
							"internalType": "uint256",
							"name": "",
							"type": "uint256"
						}
					],
					"stateMutability": "view",
					"type": "function"
				},
				{
					"inputs": [],
					"name": "getBalance",
					"outputs": [
						{
							"internalType": "uint256",
							"name": "",
							"type": "uint256"
						}
					],
					"stateMutability": "view",
					"type": "function"
				},
				{
					"inputs": [
						{
							"internalType": "uint256",
							"name": "index",
							"type": "uint256"
						}
					],
					"name": "getListWinner",
					"outputs": [
						{
							"internalType": "address",
							"name": "",
							"type": "address"
						}
					],
					"stateMutability": "view",
					"type": "function"
				},
				{
					"inputs": [
						{
							"internalType": "uint256",
							"name": "_index",
							"type": "uint256"
						}
					],
					"name": "getPlayers",
					"outputs": [
						{
							"internalType": "address payable",
							"name": "",
							"type": "address"
						},
						{
							"internalType": "uint256",
							"name": "",
							"type": "uint256"
						}
					],
					"stateMutability": "view",
					"type": "function"
				},
				{
					"inputs": [],
					"name": "lotteryId",
					"outputs": [
						{
							"internalType": "uint256",
							"name": "",
							"type": "uint256"
						}
					],
					"stateMutability": "view",
					"type": "function"
				},
				{
					"inputs": [
						{
							"internalType": "uint256",
							"name": "requestId",
							"type": "uint256"
						},
						{
							"internalType": "uint256[]",
							"name": "randomWords",
							"type": "uint256[]"
						}
					],
					"name": "rawFulfillRandomWords",
					"outputs": [],
					"stateMutability": "nonpayable",
					"type": "function"
				},
				{
					"inputs": [
						{
							"internalType": "uint256",
							"name": "",
							"type": "uint256"
						}
					],
					"name": "s_randomWords",
					"outputs": [
						{
							"internalType": "uint256",
							"name": "",
							"type": "uint256"
						}
					],
					"stateMutability": "view",
					"type": "function"
				},
				{
					"inputs": [],
					"name": "s_requestId",
					"outputs": [
						{
							"internalType": "uint256",
							"name": "",
							"type": "uint256"
						}
					],
					"stateMutability": "view",
					"type": "function"
				}
			],
			"devdoc": {
				"kind": "dev",
				"methods": {},
				"version": 1
			},
			"evm": {
				"assembly": "    /* \"contracts/Lottery.sol\":426:5205  contract Lottery is VRFConsumerBaseV2(0x6168499c0cFfCaCD319c818142124B7A15E857ab) {... */\n  mstore(0x40, 0xa0)\n    /* \"contracts/Lottery.sol\":1021:1027  100000 */\n  0x0186a0\n    /* \"contracts/Lottery.sol\":995:1027  uint32 callbackGasLimit = 100000 */\n  0x00\n  dup1\n  0x0100\n  exp\n  dup2\n  sload\n  dup2\n  0xffffffff\n  mul\n  not\n  and\n  swap1\n  dup4\n  0xffffffff\n  and\n  mul\n  or\n  swap1\n  sstore\n  pop\n    /* \"contracts/Lottery.sol\":1118:1119  3 */\n  0x03\n    /* \"contracts/Lottery.sol\":1088:1119  uint16 requestConfirmations = 3 */\n  0x00\n  exp(0x0100, 0x04)\n  dup2\n  sload\n  dup2\n  0xffff\n  mul\n  not\n  and\n  swap1\n  dup4\n  0xffff\n  and\n  mul\n  or\n  swap1\n  sstore\n  pop\n    /* \"contracts/Lottery.sol\":1264:1265  2 */\n  0x02\n    /* \"contracts/Lottery.sol\":1245:1265  uint32 numWords =  2 */\n  0x00\n  exp(0x0100, 0x06)\n  dup2\n  sload\n  dup2\n  0xffffffff\n  mul\n  not\n  and\n  swap1\n  dup4\n  0xffffffff\n  and\n  mul\n  or\n  swap1\n  sstore\n  pop\n    /* \"contracts/Lottery.sol\":1358:1368  msg.sender */\n  caller\n    /* \"contracts/Lottery.sol\":1340:1368  address s_owner = msg.sender */\n  0x03\n  exp(0x0100, 0x00)\n  dup2\n  sload\n  dup2\n  0xffffffffffffffffffffffffffffffffffffffff\n  mul\n  not\n  and\n  swap1\n  dup4\n  0xffffffffffffffffffffffffffffffffffffffff\n  and\n  mul\n  or\n  swap1\n  sstore\n  pop\n    /* \"contracts/Lottery.sol\":1718:1719  0 */\n  0x00\n    /* \"contracts/Lottery.sol\":1690:1719  uint internal playerCount = 0 */\n  0x07\n  sstore\n    /* \"contracts/Lottery.sol\":426:5205  contract Lottery is VRFConsumerBaseV2(0x6168499c0cFfCaCD319c818142124B7A15E857ab) {... */\n  callvalue\n  dup1\n  iszero\n  tag_1\n  jumpi\n  0x00\n  dup1\n  revert\ntag_1:\n  pop\n    /* \"contracts/Lottery.sol\":464:506  0x6168499c0cFfCaCD319c818142124B7A15E857ab */\n  0x6168499c0cffcacd319c818142124b7a15e857ab\n    /* \"@chainlink/contracts/src/v0.8/VRFConsumerBaseV2.sol\":5616:5631  _vrfCoordinator */\n  dup1\n    /* \"@chainlink/contracts/src/v0.8/VRFConsumerBaseV2.sol\":5599:5631  vrfCoordinator = _vrfCoordinator */\n  0xffffffffffffffffffffffffffffffffffffffff\n  and\n  0x80\n  dup2\n  0xffffffffffffffffffffffffffffffffffffffff\n  and\n  dup2\n  mstore\n  pop\n  pop\n    /* \"@chainlink/contracts/src/v0.8/VRFConsumerBaseV2.sol\":5556:5636  constructor(address _vrfCoordinator) {... */\n  pop\n    /* \"contracts/Lottery.sol\":426:5205  contract Lottery is VRFConsumerBaseV2(0x6168499c0cFfCaCD319c818142124B7A15E857ab) {... */\n  mload(0x80)\n  codecopy(0x00, dataOffset(sub_0), dataSize(sub_0))\n  0x00\n  assignImmutable(\"0x1a192fabce13988b84994d4296e6cdc418d55e2f1d7f942188d4040b94fc57ac\")\n  return(0x00, dataSize(sub_0))\nstop\n\nsub_0: assembly {\n        /* \"contracts/Lottery.sol\":426:5205  contract Lottery is VRFConsumerBaseV2(0x6168499c0cFfCaCD319c818142124B7A15E857ab) {... */\n      mstore(0x40, 0x80)\n      jumpi(tag_1, lt(calldatasize, 0x04))\n      shr(0xe0, calldataload(0x00))\n      dup1\n      0x693521d5\n      gt\n      tag_15\n      jumpi\n      dup1\n      0xce10b8ad\n      gt\n      tag_16\n      jumpi\n      dup1\n      0xce10b8ad\n      eq\n      tag_11\n      jumpi\n      dup1\n      0xe580f47b\n      eq\n      tag_12\n      jumpi\n      dup1\n      0xe89e106a\n      eq\n      tag_13\n      jumpi\n      dup1\n      0xf6eaffc8\n      eq\n      tag_14\n      jumpi\n      jump(tag_1)\n    tag_16:\n      dup1\n      0x693521d5\n      eq\n      tag_8\n      jumpi\n      dup1\n      0x6fd09816\n      eq\n      tag_9\n      jumpi\n      dup1\n      0xa59f3e0c\n      eq\n      tag_10\n      jumpi\n      jump(tag_1)\n    tag_15:\n      dup1\n      0x12065fe0\n      eq\n      tag_2\n      jumpi\n      dup1\n      0x18b425ff\n      eq\n      tag_3\n      jumpi\n      dup1\n      0x1fe543e3\n      eq\n      tag_4\n      jumpi\n      dup1\n      0x32eb85a4\n      eq\n      tag_5\n      jumpi\n      dup1\n      0x391ea700\n      eq\n      tag_6\n      jumpi\n      dup1\n      0x460e2049\n      eq\n      tag_7\n      jumpi\n    tag_1:\n      0x00\n      dup1\n      revert\n        /* \"contracts/Lottery.sol\":1898:1980  function getBalance() public view returns (uint) {... */\n    tag_2:\n      callvalue\n      dup1\n      iszero\n      tag_17\n      jumpi\n      0x00\n      dup1\n      revert\n    tag_17:\n      pop\n      tag_18\n      tag_19\n      jump\t// in\n    tag_18:\n      mload(0x40)\n      tag_20\n      swap2\n      swap1\n      tag_21\n      jump\t// in\n    tag_20:\n      mload(0x40)\n      dup1\n      swap2\n      sub\n      swap1\n      return\n        /* \"contracts/Lottery.sol\":4891:5024  function getListWinner(uint256 index) public view returns(address){... */\n    tag_3:\n      callvalue\n      dup1\n      iszero\n      tag_22\n      jumpi\n      0x00\n      dup1\n      revert\n    tag_22:\n      pop\n      tag_23\n      0x04\n      dup1\n      calldatasize\n      sub\n      dup2\n      add\n      swap1\n      tag_24\n      swap2\n      swap1\n      tag_25\n      jump\t// in\n    tag_24:\n      tag_26\n      jump\t// in\n    tag_23:\n      mload(0x40)\n      tag_27\n      swap2\n      swap1\n      tag_28\n      jump\t// in\n    tag_27:\n      mload(0x40)\n      dup1\n      swap2\n      sub\n      swap1\n      return\n        /* \"@chainlink/contracts/src/v0.8/VRFConsumerBaseV2.sol\":6618:6874  function rawFulfillRandomWords(uint256 requestId, uint256[] memory randomWords) external {... */\n    tag_4:\n      callvalue\n      dup1\n      iszero\n      tag_29\n      jumpi\n      0x00\n      dup1\n      revert\n    tag_29:\n      pop\n      tag_30\n      0x04\n      dup1\n      calldatasize\n      sub\n      dup2\n      add\n      swap1\n      tag_31\n      swap2\n      swap1\n      tag_32\n      jump\t// in\n    tag_31:\n      tag_33\n      jump\t// in\n    tag_30:\n      stop\n        /* \"contracts/Lottery.sol\":2236:2324  function getAmountPlayer() public view returns (uint){... */\n    tag_5:\n      callvalue\n      dup1\n      iszero\n      tag_34\n      jumpi\n      0x00\n      dup1\n      revert\n    tag_34:\n      pop\n      tag_35\n      tag_36\n      jump\t// in\n    tag_35:\n      mload(0x40)\n      tag_37\n      swap2\n      swap1\n      tag_21\n      jump\t// in\n    tag_37:\n      mload(0x40)\n      dup1\n      swap2\n      sub\n      swap1\n      return\n        /* \"contracts/Lottery.sol\":3195:3576  function _requestRandomWords() external onlyOwner {... */\n    tag_6:\n      callvalue\n      dup1\n      iszero\n      tag_38\n      jumpi\n      0x00\n      dup1\n      revert\n    tag_38:\n      pop\n      tag_39\n      tag_40\n      jump\t// in\n    tag_39:\n      stop\n        /* \"contracts/Lottery.sol\":1986:2226  function getPlayers(uint _index) public view returns (address payable, uint) {... */\n    tag_7:\n      callvalue\n      dup1\n      iszero\n      tag_41\n      jumpi\n      0x00\n      dup1\n      revert\n    tag_41:\n      pop\n      tag_42\n      0x04\n      dup1\n      calldatasize\n      sub\n      dup2\n      add\n      swap1\n      tag_43\n      swap2\n      swap1\n      tag_25\n      jump\t// in\n    tag_43:\n      tag_44\n      jump\t// in\n    tag_42:\n      mload(0x40)\n      tag_45\n      swap3\n      swap2\n      swap1\n      tag_46\n      jump\t// in\n    tag_45:\n      mload(0x40)\n      dup1\n      swap2\n      sub\n      swap1\n      return\n        /* \"contracts/Lottery.sol\":4763:4885  function getAmountWinner() public view returns(uint256){... */\n    tag_8:\n      callvalue\n      dup1\n      iszero\n      tag_47\n      jumpi\n      0x00\n      dup1\n      revert\n    tag_47:\n      pop\n      tag_48\n      tag_49\n      jump\t// in\n    tag_48:\n      mload(0x40)\n      tag_50\n      swap2\n      swap1\n      tag_21\n      jump\t// in\n    tag_50:\n      mload(0x40)\n      dup1\n      swap2\n      sub\n      swap1\n      return\n        /* \"contracts/Lottery.sol\":3960:4540  function closeLottery() external onlyOwner{... */\n    tag_9:\n      callvalue\n      dup1\n      iszero\n      tag_51\n      jumpi\n      0x00\n      dup1\n      revert\n    tag_51:\n      pop\n      tag_52\n      tag_53\n      jump\t// in\n    tag_52:\n      stop\n        /* \"contracts/Lottery.sol\":2403:2953  function enter(uint _numTicket) public payable {... */\n    tag_10:\n      tag_54\n      0x04\n      dup1\n      calldatasize\n      sub\n      dup2\n      add\n      swap1\n      tag_55\n      swap2\n      swap1\n      tag_25\n      jump\t// in\n    tag_55:\n      tag_56\n      jump\t// in\n    tag_54:\n      stop\n        /* \"contracts/Lottery.sol\":2329:2398  function enterNumberTicket(uint256 _numTicket) public{... */\n    tag_11:\n      callvalue\n      dup1\n      iszero\n      tag_57\n      jumpi\n      0x00\n      dup1\n      revert\n    tag_57:\n      pop\n      tag_58\n      0x04\n      dup1\n      calldatasize\n      sub\n      dup2\n      add\n      swap1\n      tag_59\n      swap2\n      swap1\n      tag_25\n      jump\t// in\n    tag_59:\n      tag_60\n      jump\t// in\n    tag_58:\n      stop\n        /* \"contracts/Lottery.sol\":1379:1400  uint public lotteryId */\n    tag_12:\n      callvalue\n      dup1\n      iszero\n      tag_61\n      jumpi\n      0x00\n      dup1\n      revert\n    tag_61:\n      pop\n      tag_62\n      tag_63\n      jump\t// in\n    tag_62:\n      mload(0x40)\n      tag_64\n      swap2\n      swap1\n      tag_21\n      jump\t// in\n    tag_64:\n      mload(0x40)\n      dup1\n      swap2\n      sub\n      swap1\n      return\n        /* \"contracts/Lottery.sol\":1308:1334  uint256 public s_requestId */\n    tag_13:\n      callvalue\n      dup1\n      iszero\n      tag_65\n      jumpi\n      0x00\n      dup1\n      revert\n    tag_65:\n      pop\n      tag_66\n      tag_67\n      jump\t// in\n    tag_66:\n      mload(0x40)\n      tag_68\n      swap2\n      swap1\n      tag_21\n      jump\t// in\n    tag_68:\n      mload(0x40)\n      dup1\n      swap2\n      sub\n      swap1\n      return\n        /* \"contracts/Lottery.sol\":1272:1302  uint256[] public s_randomWords */\n    tag_14:\n      callvalue\n      dup1\n      iszero\n      tag_69\n      jumpi\n      0x00\n      dup1\n      revert\n    tag_69:\n      pop\n      tag_70\n      0x04\n      dup1\n      calldatasize\n      sub\n      dup2\n      add\n      swap1\n      tag_71\n      swap2\n      swap1\n      tag_25\n      jump\t// in\n    tag_71:\n      tag_72\n      jump\t// in\n    tag_70:\n      mload(0x40)\n      tag_73\n      swap2\n      swap1\n      tag_21\n      jump\t// in\n    tag_73:\n      mload(0x40)\n      dup1\n      swap2\n      sub\n      swap1\n      return\n        /* \"contracts/Lottery.sol\":1898:1980  function getBalance() public view returns (uint) {... */\n    tag_19:\n        /* \"contracts/Lottery.sol\":1941:1945  uint */\n      0x00\n        /* \"contracts/Lottery.sol\":1964:1973  prizePool */\n      sload(0x08)\n        /* \"contracts/Lottery.sol\":1957:1973  return prizePool */\n      swap1\n      pop\n        /* \"contracts/Lottery.sol\":1898:1980  function getBalance() public view returns (uint) {... */\n      swap1\n      jump\t// out\n        /* \"contracts/Lottery.sol\":4891:5024  function getListWinner(uint256 index) public view returns(address){... */\n    tag_26:\n        /* \"contracts/Lottery.sol\":4949:4956  address */\n      0x00\n        /* \"contracts/Lottery.sol\":4974:4985  groupTicket */\n      0x05\n        /* \"contracts/Lottery.sol\":4974:4998  groupTicket[luckyNumber] */\n      0x00\n        /* \"contracts/Lottery.sol\":4986:4997  luckyNumber */\n      sload(0x09)\n        /* \"contracts/Lottery.sol\":4974:4998  groupTicket[luckyNumber] */\n      dup2\n      mstore\n      0x20\n      add\n      swap1\n      dup2\n      mstore\n      0x20\n      add\n      0x00\n      keccak256\n        /* \"contracts/Lottery.sol\":4974:5010  groupTicket[luckyNumber].groupPlayer */\n      0x00\n      add\n        /* \"contracts/Lottery.sol\":5011:5016  index */\n      dup3\n        /* \"contracts/Lottery.sol\":4974:5017  groupTicket[luckyNumber].groupPlayer[index] */\n      dup2\n      sload\n      dup2\n      lt\n      tag_76\n      jumpi\n      tag_77\n      tag_78\n      jump\t// in\n    tag_77:\n    tag_76:\n      swap1\n      0x00\n      mstore\n      keccak256(0x00, 0x20)\n      add\n      0x00\n      swap1\n      sload\n      swap1\n      0x0100\n      exp\n      swap1\n      div\n      0xffffffffffffffffffffffffffffffffffffffff\n      and\n        /* \"contracts/Lottery.sol\":4967:5017  return groupTicket[luckyNumber].groupPlayer[index] */\n      swap1\n      pop\n        /* \"contracts/Lottery.sol\":4891:5024  function getListWinner(uint256 index) public view returns(address){... */\n      swap2\n      swap1\n      pop\n      jump\t// out\n        /* \"@chainlink/contracts/src/v0.8/VRFConsumerBaseV2.sol\":6618:6874  function rawFulfillRandomWords(uint256 requestId, uint256[] memory randomWords) external {... */\n    tag_33:\n        /* \"@chainlink/contracts/src/v0.8/VRFConsumerBaseV2.sol\":6731:6745  vrfCoordinator */\n      immutable(\"0x1a192fabce13988b84994d4296e6cdc418d55e2f1d7f942188d4040b94fc57ac\")\n        /* \"@chainlink/contracts/src/v0.8/VRFConsumerBaseV2.sol\":6717:6745  msg.sender != vrfCoordinator */\n      0xffffffffffffffffffffffffffffffffffffffff\n      and\n        /* \"@chainlink/contracts/src/v0.8/VRFConsumerBaseV2.sol\":6717:6727  msg.sender */\n      caller\n        /* \"@chainlink/contracts/src/v0.8/VRFConsumerBaseV2.sol\":6717:6745  msg.sender != vrfCoordinator */\n      0xffffffffffffffffffffffffffffffffffffffff\n      and\n      eq\n        /* \"@chainlink/contracts/src/v0.8/VRFConsumerBaseV2.sol\":6713:6822  if (msg.sender != vrfCoordinator) {... */\n      tag_81\n      jumpi\n        /* \"@chainlink/contracts/src/v0.8/VRFConsumerBaseV2.sol\":6788:6798  msg.sender */\n      caller\n        /* \"@chainlink/contracts/src/v0.8/VRFConsumerBaseV2.sol\":6800:6814  vrfCoordinator */\n      immutable(\"0x1a192fabce13988b84994d4296e6cdc418d55e2f1d7f942188d4040b94fc57ac\")\n        /* \"@chainlink/contracts/src/v0.8/VRFConsumerBaseV2.sol\":6762:6815  OnlyCoordinatorCanFulfill(msg.sender, vrfCoordinator) */\n      mload(0x40)\n      0x1cf993f400000000000000000000000000000000000000000000000000000000\n      dup2\n      mstore\n      0x04\n      add\n      tag_82\n      swap3\n      swap2\n      swap1\n      tag_83\n      jump\t// in\n    tag_82:\n      mload(0x40)\n      dup1\n      swap2\n      sub\n      swap1\n      revert\n        /* \"@chainlink/contracts/src/v0.8/VRFConsumerBaseV2.sol\":6713:6822  if (msg.sender != vrfCoordinator) {... */\n    tag_81:\n        /* \"@chainlink/contracts/src/v0.8/VRFConsumerBaseV2.sol\":6827:6869  fulfillRandomWords(requestId, randomWords) */\n      tag_84\n        /* \"@chainlink/contracts/src/v0.8/VRFConsumerBaseV2.sol\":6846:6855  requestId */\n      dup3\n        /* \"@chainlink/contracts/src/v0.8/VRFConsumerBaseV2.sol\":6857:6868  randomWords */\n      dup3\n        /* \"@chainlink/contracts/src/v0.8/VRFConsumerBaseV2.sol\":6827:6845  fulfillRandomWords */\n      tag_85\n        /* \"@chainlink/contracts/src/v0.8/VRFConsumerBaseV2.sol\":6827:6869  fulfillRandomWords(requestId, randomWords) */\n      jump\t// in\n    tag_84:\n        /* \"@chainlink/contracts/src/v0.8/VRFConsumerBaseV2.sol\":6618:6874  function rawFulfillRandomWords(uint256 requestId, uint256[] memory randomWords) external {... */\n      pop\n      pop\n      jump\t// out\n        /* \"contracts/Lottery.sol\":2236:2324  function getAmountPlayer() public view returns (uint){... */\n    tag_36:\n        /* \"contracts/Lottery.sol\":2284:2288  uint */\n      0x00\n        /* \"contracts/Lottery.sol\":2306:2317  playerCount */\n      sload(0x07)\n        /* \"contracts/Lottery.sol\":2299:2317  return playerCount */\n      swap1\n      pop\n        /* \"contracts/Lottery.sol\":2236:2324  function getAmountPlayer() public view returns (uint){... */\n      swap1\n      jump\t// out\n        /* \"contracts/Lottery.sol\":3195:3576  function _requestRandomWords() external onlyOwner {... */\n    tag_40:\n        /* \"contracts/Lottery.sol\":5179:5186  s_owner */\n      0x03\n      0x00\n      swap1\n      sload\n      swap1\n      0x0100\n      exp\n      swap1\n      div\n      0xffffffffffffffffffffffffffffffffffffffff\n      and\n        /* \"contracts/Lottery.sol\":5165:5186  msg.sender == s_owner */\n      0xffffffffffffffffffffffffffffffffffffffff\n      and\n        /* \"contracts/Lottery.sol\":5165:5175  msg.sender */\n      caller\n        /* \"contracts/Lottery.sol\":5165:5186  msg.sender == s_owner */\n      0xffffffffffffffffffffffffffffffffffffffff\n      and\n      eq\n        /* \"contracts/Lottery.sol\":5157:5187  require(msg.sender == s_owner) */\n      tag_88\n      jumpi\n      0x00\n      dup1\n      revert\n    tag_88:\n        /* \"contracts/Lottery.sol\":3491:3502  playerCount */\n      sload(0x07)\n        /* \"contracts/Lottery.sol\":594:636  0x6168499c0cFfCaCD319c818142124B7A15E857ab */\n      0x6168499c0cffcacd319c818142124b7a15e857ab\n        /* \"contracts/Lottery.sol\":3331:3361  COORDINATOR.requestRandomWords */\n      0xffffffffffffffffffffffffffffffffffffffff\n      and\n      0x5d3b1d30\n        /* \"contracts/Lottery.sol\":918:984  0xd89b2bf150e3b9e13446986e571fb9cab24b13cea0a43ea20a6049a85cc807cc */\n      0xd89b2bf150e3b9e13446986e571fb9cab24b13cea0a43ea20a6049a85cc807cc\n        /* \"contracts/Lottery.sol\":3371:3378  keyHash */\n      0x00\n      shl\n        /* \"contracts/Lottery.sol\":802:806  7370 */\n      0x1cca\n        /* \"contracts/Lottery.sol\":3414:3434  requestConfirmations */\n      0x00\n      0x04\n      swap1\n      sload\n      swap1\n      0x0100\n      exp\n      swap1\n      div\n      0xffff\n      and\n        /* \"contracts/Lottery.sol\":3444:3460  callbackGasLimit */\n      0x00\n      dup1\n      sload\n      swap1\n      0x0100\n      exp\n      swap1\n      div\n      0xffffffff\n      and\n        /* \"contracts/Lottery.sol\":3470:3478  numWords */\n      0x00\n      0x06\n      swap1\n      sload\n      swap1\n      0x0100\n      exp\n      swap1\n      div\n      0xffffffff\n      and\n        /* \"contracts/Lottery.sol\":3331:3488  COORDINATOR.requestRandomWords(... */\n      mload(0x40)\n      dup7\n      0xffffffff\n      and\n      0xe0\n      shl\n      dup2\n      mstore\n      0x04\n      add\n      tag_90\n      swap6\n      swap5\n      swap4\n      swap3\n      swap2\n      swap1\n      tag_91\n      jump\t// in\n    tag_90:\n      0x20\n      mload(0x40)\n      dup1\n      dup4\n      sub\n      dup2\n      0x00\n      dup8\n      gas\n      call\n      iszero\n      dup1\n      iszero\n      tag_93\n      jumpi\n      returndatasize\n      0x00\n      dup1\n      returndatacopy\n      revert(0x00, returndatasize)\n    tag_93:\n      pop\n      pop\n      pop\n      pop\n      mload(0x40)\n      returndatasize\n      not(0x1f)\n      0x1f\n      dup3\n      add\n      and\n      dup3\n      add\n      dup1\n      0x40\n      mstore\n      pop\n      dup2\n      add\n      swap1\n      tag_94\n      swap2\n      swap1\n      tag_95\n      jump\t// in\n    tag_94:\n        /* \"contracts/Lottery.sol\":3331:3502  COORDINATOR.requestRandomWords(... */\n      tag_96\n      swap2\n      swap1\n      tag_97\n      jump\t// in\n    tag_96:\n        /* \"contracts/Lottery.sol\":3317:3328  s_requestId */\n      0x02\n        /* \"contracts/Lottery.sol\":3317:3502  s_requestId = COORDINATOR.requestRandomWords(... */\n      dup2\n      swap1\n      sstore\n      pop\n        /* \"contracts/Lottery.sol\":3527:3537  allLottery */\n      0x06\n        /* \"contracts/Lottery.sol\":3527:3550  allLottery[s_requestId] */\n      0x00\n        /* \"contracts/Lottery.sol\":3538:3549  s_requestId */\n      sload(0x02)\n        /* \"contracts/Lottery.sol\":3527:3550  allLottery[s_requestId] */\n      dup2\n      mstore\n      0x20\n      add\n      swap1\n      dup2\n      mstore\n      0x20\n      add\n      0x00\n      keccak256\n        /* \"contracts/Lottery.sol\":3527:3560  allLottery[s_requestId].numTicket */\n      0x01\n      add\n      sload\n        /* \"contracts/Lottery.sol\":3513:3524  luckyNumber */\n      0x09\n        /* \"contracts/Lottery.sol\":3513:3560  luckyNumber = allLottery[s_requestId].numTicket */\n      dup2\n      swap1\n      sstore\n      pop\n        /* \"contracts/Lottery.sol\":3195:3576  function _requestRandomWords() external onlyOwner {... */\n      jump\t// out\n        /* \"contracts/Lottery.sol\":1986:2226  function getPlayers(uint _index) public view returns (address payable, uint) {... */\n    tag_44:\n        /* \"contracts/Lottery.sol\":2040:2055  address payable */\n      0x00\n        /* \"contracts/Lottery.sol\":2057:2061  uint */\n      dup1\n        /* \"contracts/Lottery.sol\":2073:2105  Participants storage participant */\n      0x00\n        /* \"contracts/Lottery.sol\":2108:2118  allLottery */\n      0x06\n        /* \"contracts/Lottery.sol\":2108:2126  allLottery[_index] */\n      0x00\n        /* \"contracts/Lottery.sol\":2119:2125  _index */\n      dup6\n        /* \"contracts/Lottery.sol\":2108:2126  allLottery[_index] */\n      dup2\n      mstore\n      0x20\n      add\n      swap1\n      dup2\n      mstore\n      0x20\n      add\n      0x00\n      keccak256\n        /* \"contracts/Lottery.sol\":2073:2126  Participants storage participant = allLottery[_index] */\n      swap1\n      pop\n        /* \"contracts/Lottery.sol\":2156:2167  participant */\n      dup1\n        /* \"contracts/Lottery.sol\":2156:2174  participant.player */\n      0x00\n      add\n      0x00\n      swap1\n      sload\n      swap1\n      0x0100\n      exp\n      swap1\n      div\n      0xffffffffffffffffffffffffffffffffffffffff\n      and\n        /* \"contracts/Lottery.sol\":2188:2199  participant */\n      dup2\n        /* \"contracts/Lottery.sol\":2188:2209  participant.numTicket */\n      0x01\n      add\n      sload\n        /* \"contracts/Lottery.sol\":2136:2219  return(... */\n      swap3\n      pop\n      swap3\n      pop\n      pop\n        /* \"contracts/Lottery.sol\":1986:2226  function getPlayers(uint _index) public view returns (address payable, uint) {... */\n      swap2\n      pop\n      swap2\n      jump\t// out\n        /* \"contracts/Lottery.sol\":4763:4885  function getAmountWinner() public view returns(uint256){... */\n    tag_49:\n        /* \"contracts/Lottery.sol\":4810:4817  uint256 */\n      0x00\n        /* \"contracts/Lottery.sol\":4835:4846  groupTicket */\n      0x05\n        /* \"contracts/Lottery.sol\":4835:4859  groupTicket[luckyNumber] */\n      0x00\n        /* \"contracts/Lottery.sol\":4847:4858  luckyNumber */\n      sload(0x09)\n        /* \"contracts/Lottery.sol\":4835:4859  groupTicket[luckyNumber] */\n      dup2\n      mstore\n      0x20\n      add\n      swap1\n      dup2\n      mstore\n      0x20\n      add\n      0x00\n      keccak256\n        /* \"contracts/Lottery.sol\":4835:4871  groupTicket[luckyNumber].groupPlayer */\n      0x00\n      add\n        /* \"contracts/Lottery.sol\":4835:4878  groupTicket[luckyNumber].groupPlayer.length */\n      dup1\n      sload\n      swap1\n      pop\n        /* \"contracts/Lottery.sol\":4828:4878  return groupTicket[luckyNumber].groupPlayer.length */\n      swap1\n      pop\n        /* \"contracts/Lottery.sol\":4763:4885  function getAmountWinner() public view returns(uint256){... */\n      swap1\n      jump\t// out\n        /* \"contracts/Lottery.sol\":3960:4540  function closeLottery() external onlyOwner{... */\n    tag_53:\n        /* \"contracts/Lottery.sol\":5179:5186  s_owner */\n      0x03\n      0x00\n      swap1\n      sload\n      swap1\n      0x0100\n      exp\n      swap1\n      div\n      0xffffffffffffffffffffffffffffffffffffffff\n      and\n        /* \"contracts/Lottery.sol\":5165:5186  msg.sender == s_owner */\n      0xffffffffffffffffffffffffffffffffffffffff\n      and\n        /* \"contracts/Lottery.sol\":5165:5175  msg.sender */\n      caller\n        /* \"contracts/Lottery.sol\":5165:5186  msg.sender == s_owner */\n      0xffffffffffffffffffffffffffffffffffffffff\n      and\n      eq\n        /* \"contracts/Lottery.sol\":5157:5187  require(msg.sender == s_owner) */\n      tag_101\n      jumpi\n      0x00\n      dup1\n      revert\n    tag_101:\n        /* \"contracts/Lottery.sol\":4012:4029  uint256 lenWinner */\n      0x00\n        /* \"contracts/Lottery.sol\":4032:4043  groupTicket */\n      0x05\n        /* \"contracts/Lottery.sol\":4032:4056  groupTicket[luckyNumber] */\n      0x00\n        /* \"contracts/Lottery.sol\":4044:4055  luckyNumber */\n      sload(0x09)\n        /* \"contracts/Lottery.sol\":4032:4056  groupTicket[luckyNumber] */\n      dup2\n      mstore\n      0x20\n      add\n      swap1\n      dup2\n      mstore\n      0x20\n      add\n      0x00\n      keccak256\n        /* \"contracts/Lottery.sol\":4032:4068  groupTicket[luckyNumber].groupPlayer */\n      0x00\n      add\n        /* \"contracts/Lottery.sol\":4032:4075  groupTicket[luckyNumber].groupPlayer.length */\n      dup1\n      sload\n      swap1\n      pop\n        /* \"contracts/Lottery.sol\":4012:4075  uint256 lenWinner = groupTicket[luckyNumber].groupPlayer.length */\n      swap1\n      pop\n        /* \"contracts/Lottery.sol\":4119:4138  uint256 winnerPrize */\n      0x00\n        /* \"contracts/Lottery.sol\":4153:4162  lenWinner */\n      dup2\n        /* \"contracts/Lottery.sol\":4141:4150  prizePool */\n      sload(0x08)\n        /* \"contracts/Lottery.sol\":4141:4162  prizePool / lenWinner */\n      tag_103\n      swap2\n      swap1\n      tag_104\n      jump\t// in\n    tag_103:\n        /* \"contracts/Lottery.sol\":4119:4162  uint256 winnerPrize = prizePool / lenWinner */\n      swap1\n      pop\n        /* \"contracts/Lottery.sol\":4204:4205  0 */\n      0x00\n        /* \"contracts/Lottery.sol\":4180:4201  address(this).balance */\n      selfbalance\n        /* \"contracts/Lottery.sol\":4180:4205  address(this).balance !=0 */\n      sub\n        /* \"contracts/Lottery.sol\":4172:4228  require(address(this).balance !=0, \"prizePool is empty\") */\n      tag_105\n      jumpi\n      mload(0x40)\n      0x08c379a000000000000000000000000000000000000000000000000000000000\n      dup2\n      mstore\n      0x04\n      add\n      tag_106\n      swap1\n      tag_107\n      jump\t// in\n    tag_106:\n      mload(0x40)\n      dup1\n      swap2\n      sub\n      swap1\n      revert\n    tag_105:\n        /* \"contracts/Lottery.sol\":4259:4260  0 */\n      0x00\n        /* \"contracts/Lottery.sol\":4246:4255  lenWinner */\n      dup3\n        /* \"contracts/Lottery.sol\":4246:4260  lenWinner != 0 */\n      sub\n        /* \"contracts/Lottery.sol\":4238:4274  require(lenWinner != 0, \"No winner\") */\n      tag_108\n      jumpi\n      mload(0x40)\n      0x08c379a000000000000000000000000000000000000000000000000000000000\n      dup2\n      mstore\n      0x04\n      add\n      tag_109\n      swap1\n      tag_110\n      jump\t// in\n    tag_109:\n      mload(0x40)\n      dup1\n      swap2\n      sub\n      swap1\n      revert\n    tag_108:\n        /* \"contracts/Lottery.sol\":4288:4297  uint256 i */\n      0x00\n        /* \"contracts/Lottery.sol\":4284:4534  for(uint256 i = 0; i < lenWinner; i++){... */\n    tag_111:\n        /* \"contracts/Lottery.sol\":4307:4316  lenWinner */\n      dup3\n        /* \"contracts/Lottery.sol\":4303:4304  i */\n      dup2\n        /* \"contracts/Lottery.sol\":4303:4316  i < lenWinner */\n      lt\n        /* \"contracts/Lottery.sol\":4284:4534  for(uint256 i = 0; i < lenWinner; i++){... */\n      iszero\n      tag_112\n      jumpi\n        /* \"contracts/Lottery.sol\":4336:4404  _transferPrize(winnerPrize, groupTicket[luckyNumber].groupPlayer[i]) */\n      tag_114\n        /* \"contracts/Lottery.sol\":4351:4362  winnerPrize */\n      dup3\n        /* \"contracts/Lottery.sol\":4364:4375  groupTicket */\n      0x05\n        /* \"contracts/Lottery.sol\":4364:4388  groupTicket[luckyNumber] */\n      0x00\n        /* \"contracts/Lottery.sol\":4376:4387  luckyNumber */\n      sload(0x09)\n        /* \"contracts/Lottery.sol\":4364:4388  groupTicket[luckyNumber] */\n      dup2\n      mstore\n      0x20\n      add\n      swap1\n      dup2\n      mstore\n      0x20\n      add\n      0x00\n      keccak256\n        /* \"contracts/Lottery.sol\":4364:4400  groupTicket[luckyNumber].groupPlayer */\n      0x00\n      add\n        /* \"contracts/Lottery.sol\":4401:4402  i */\n      dup4\n        /* \"contracts/Lottery.sol\":4364:4403  groupTicket[luckyNumber].groupPlayer[i] */\n      dup2\n      sload\n      dup2\n      lt\n      tag_115\n      jumpi\n      tag_116\n      tag_78\n      jump\t// in\n    tag_116:\n    tag_115:\n      swap1\n      0x00\n      mstore\n      keccak256(0x00, 0x20)\n      add\n      0x00\n      swap1\n      sload\n      swap1\n      0x0100\n      exp\n      swap1\n      div\n      0xffffffffffffffffffffffffffffffffffffffff\n      and\n        /* \"contracts/Lottery.sol\":4336:4350  _transferPrize */\n      tag_118\n        /* \"contracts/Lottery.sol\":4336:4404  _transferPrize(winnerPrize, groupTicket[luckyNumber].groupPlayer[i]) */\n      jump\t// in\n    tag_114:\n        /* \"contracts/Lottery.sol\":4318:4321  i++ */\n      dup1\n      dup1\n      tag_119\n      swap1\n      tag_120\n      jump\t// in\n    tag_119:\n      swap2\n      pop\n      pop\n        /* \"contracts/Lottery.sol\":4284:4534  for(uint256 i = 0; i < lenWinner; i++){... */\n      jump(tag_111)\n    tag_112:\n      pop\n        /* \"contracts/Lottery.sol\":4002:4540  {... */\n      pop\n      pop\n        /* \"contracts/Lottery.sol\":3960:4540  function closeLottery() external onlyOwner{... */\n      jump\t// out\n        /* \"contracts/Lottery.sol\":2403:2953  function enter(uint _numTicket) public payable {... */\n    tag_56:\n        /* \"contracts/Lottery.sol\":2481:2486  2 wei */\n      0x02\n        /* \"contracts/Lottery.sol\":2468:2477  msg.value */\n      callvalue\n        /* \"contracts/Lottery.sol\":2468:2486  msg.value >= 2 wei */\n      lt\n      iszero\n        /* \"contracts/Lottery.sol\":2460:2507  require(msg.value >= 2 wei, \"Not enough token\") */\n      tag_122\n      jumpi\n      mload(0x40)\n      0x08c379a000000000000000000000000000000000000000000000000000000000\n      dup2\n      mstore\n      0x04\n      add\n      tag_123\n      swap1\n      tag_124\n      jump\t// in\n    tag_123:\n      mload(0x40)\n      dup1\n      swap2\n      sub\n      swap1\n      revert\n    tag_122:\n        /* \"contracts/Lottery.sol\":2530:2539  msg.value */\n      callvalue\n        /* \"contracts/Lottery.sol\":2517:2526  prizePool */\n      0x08\n      0x00\n        /* \"contracts/Lottery.sol\":2517:2539  prizePool += msg.value */\n      dup3\n      dup3\n      sload\n      tag_125\n      swap2\n      swap1\n      tag_126\n      jump\t// in\n    tag_125:\n      swap3\n      pop\n      pop\n      dup2\n      swap1\n      sstore\n      pop\n        /* \"contracts/Lottery.sol\":2571:2572  1 */\n      0x01\n        /* \"contracts/Lottery.sol\":2557:2567  _numTicket */\n      dup2\n        /* \"contracts/Lottery.sol\":2557:2572  _numTicket >= 1 */\n      lt\n      iszero\n        /* \"contracts/Lottery.sol\":2557:2592  _numTicket >= 1 && _numTicket <= 10 */\n      dup1\n      iszero\n      tag_127\n      jumpi\n      pop\n        /* \"contracts/Lottery.sol\":2590:2592  10 */\n      0x0a\n        /* \"contracts/Lottery.sol\":2576:2586  _numTicket */\n      dup2\n        /* \"contracts/Lottery.sol\":2576:2592  _numTicket <= 10 */\n      gt\n      iszero\n        /* \"contracts/Lottery.sol\":2557:2592  _numTicket >= 1 && _numTicket <= 10 */\n    tag_127:\n        /* \"contracts/Lottery.sol\":2549:2623  require(_numTicket >= 1 && _numTicket <= 10, \"Number ticket out of range\") */\n      tag_128\n      jumpi\n      mload(0x40)\n      0x08c379a000000000000000000000000000000000000000000000000000000000\n      dup2\n      mstore\n      0x04\n      add\n      tag_129\n      swap1\n      tag_130\n      jump\t// in\n    tag_129:\n      mload(0x40)\n      dup1\n      swap2\n      sub\n      swap1\n      revert\n    tag_128:\n        /* \"contracts/Lottery.sol\":2633:2663  Participants storage newPlayer */\n      0x00\n        /* \"contracts/Lottery.sol\":2666:2676  allLottery */\n      0x06\n        /* \"contracts/Lottery.sol\":2666:2689  allLottery[playerCount] */\n      0x00\n        /* \"contracts/Lottery.sol\":2677:2688  playerCount */\n      sload(0x07)\n        /* \"contracts/Lottery.sol\":2666:2689  allLottery[playerCount] */\n      dup2\n      mstore\n      0x20\n      add\n      swap1\n      dup2\n      mstore\n      0x20\n      add\n      0x00\n      keccak256\n        /* \"contracts/Lottery.sol\":2633:2689  Participants storage newPlayer = allLottery[playerCount] */\n      swap1\n      pop\n        /* \"contracts/Lottery.sol\":2726:2736  msg.sender */\n      caller\n        /* \"contracts/Lottery.sol\":2699:2708  newPlayer */\n      dup2\n        /* \"contracts/Lottery.sol\":2699:2715  newPlayer.player */\n      0x00\n      add\n      0x00\n        /* \"contracts/Lottery.sol\":2699:2737  newPlayer.player = payable(msg.sender) */\n      0x0100\n      exp\n      dup2\n      sload\n      dup2\n      0xffffffffffffffffffffffffffffffffffffffff\n      mul\n      not\n      and\n      swap1\n      dup4\n      0xffffffffffffffffffffffffffffffffffffffff\n      and\n      mul\n      or\n      swap1\n      sstore\n      pop\n        /* \"contracts/Lottery.sol\":2769:2779  _numTicket */\n      dup2\n        /* \"contracts/Lottery.sol\":2747:2756  newPlayer */\n      dup2\n        /* \"contracts/Lottery.sol\":2747:2766  newPlayer.numTicket */\n      0x01\n      add\n        /* \"contracts/Lottery.sol\":2747:2779  newPlayer.numTicket = _numTicket */\n      dup2\n      swap1\n      sstore\n      pop\n        /* \"contracts/Lottery.sol\":2789:2823  ListNumberTicket storage addTicket */\n      0x00\n        /* \"contracts/Lottery.sol\":2826:2837  groupTicket */\n      0x05\n        /* \"contracts/Lottery.sol\":2826:2858  groupTicket[newPlayer.numTicket] */\n      0x00\n        /* \"contracts/Lottery.sol\":2838:2847  newPlayer */\n      dup4\n        /* \"contracts/Lottery.sol\":2838:2857  newPlayer.numTicket */\n      0x01\n      add\n      sload\n        /* \"contracts/Lottery.sol\":2826:2858  groupTicket[newPlayer.numTicket] */\n      dup2\n      mstore\n      0x20\n      add\n      swap1\n      dup2\n      mstore\n      0x20\n      add\n      0x00\n      keccak256\n        /* \"contracts/Lottery.sol\":2789:2858  ListNumberTicket storage addTicket = groupTicket[newPlayer.numTicket] */\n      swap1\n      pop\n        /* \"contracts/Lottery.sol\":2868:2877  addTicket */\n      dup1\n        /* \"contracts/Lottery.sol\":2868:2889  addTicket.groupPlayer */\n      0x00\n      add\n        /* \"contracts/Lottery.sol\":2903:2913  msg.sender */\n      caller\n        /* \"contracts/Lottery.sol\":2868:2915  addTicket.groupPlayer.push(payable(msg.sender)) */\n      swap1\n      dup1\n      0x01\n      dup2\n      sload\n      add\n      dup1\n      dup3\n      sstore\n      dup1\n      swap2\n      pop\n      pop\n      0x01\n      swap1\n      sub\n      swap1\n      0x00\n      mstore\n      keccak256(0x00, 0x20)\n      add\n      0x00\n      swap1\n      swap2\n      swap1\n      swap2\n      swap1\n      swap2\n      0x0100\n      exp\n      dup2\n      sload\n      dup2\n      0xffffffffffffffffffffffffffffffffffffffff\n      mul\n      not\n      and\n      swap1\n      dup4\n      0xffffffffffffffffffffffffffffffffffffffff\n      and\n      mul\n      or\n      swap1\n      sstore\n      pop\n        /* \"contracts/Lottery.sol\":2925:2946  increasePlayerCount() */\n      tag_132\n        /* \"contracts/Lottery.sol\":2925:2944  increasePlayerCount */\n      tag_133\n        /* \"contracts/Lottery.sol\":2925:2946  increasePlayerCount() */\n      jump\t// in\n    tag_132:\n        /* \"contracts/Lottery.sol\":2450:2953  {... */\n      pop\n      pop\n        /* \"contracts/Lottery.sol\":2403:2953  function enter(uint _numTicket) public payable {... */\n      pop\n      jump\t// out\n        /* \"contracts/Lottery.sol\":2329:2398  function enterNumberTicket(uint256 _numTicket) public{... */\n    tag_60:\n      pop\n      jump\t// out\n        /* \"contracts/Lottery.sol\":1379:1400  uint public lotteryId */\n    tag_63:\n      sload(0x04)\n      dup2\n      jump\t// out\n        /* \"contracts/Lottery.sol\":1308:1334  uint256 public s_requestId */\n    tag_67:\n      sload(0x02)\n      dup2\n      jump\t// out\n        /* \"contracts/Lottery.sol\":1272:1302  uint256[] public s_randomWords */\n    tag_72:\n      0x01\n      dup2\n      dup2\n      sload\n      dup2\n      lt\n      tag_135\n      jumpi\n      0x00\n      dup1\n      revert\n    tag_135:\n      swap1\n      0x00\n      mstore\n      keccak256(0x00, 0x20)\n      add\n      0x00\n      swap2\n      pop\n      swap1\n      pop\n      sload\n      dup2\n      jump\t// out\n        /* \"contracts/Lottery.sol\":3582:3749  function fulfillRandomWords(... */\n    tag_85:\n        /* \"contracts/Lottery.sol\":3731:3742  randomWords */\n      dup1\n        /* \"contracts/Lottery.sol\":3715:3728  s_randomWords */\n      0x01\n        /* \"contracts/Lottery.sol\":3715:3742  s_randomWords = randomWords */\n      swap1\n      dup1\n      mload\n      swap1\n      0x20\n      add\n      swap1\n      tag_138\n      swap3\n      swap2\n      swap1\n      tag_139\n      jump\t// in\n    tag_138:\n      pop\n        /* \"contracts/Lottery.sol\":3582:3749  function fulfillRandomWords(... */\n      pop\n      pop\n      jump\t// out\n        /* \"contracts/Lottery.sol\":4550:4757  function _transferPrize(uint256 _winnerPrize, address payable winner) private{... */\n    tag_118:\n        /* \"contracts/Lottery.sol\":4650:4662  _winnerPrize */\n      dup2\n        /* \"contracts/Lottery.sol\":4637:4646  prizePool */\n      0x08\n      0x00\n        /* \"contracts/Lottery.sol\":4637:4662  prizePool -= _winnerPrize */\n      dup3\n      dup3\n      sload\n      tag_141\n      swap2\n      swap1\n      tag_142\n      jump\t// in\n    tag_141:\n      swap3\n      pop\n      pop\n      dup2\n      swap1\n      sstore\n      pop\n        /* \"contracts/Lottery.sol\":4672:4678  winner */\n      dup1\n        /* \"contracts/Lottery.sol\":4672:4687  winner.transfer */\n      0xffffffffffffffffffffffffffffffffffffffff\n      and\n        /* \"contracts/Lottery.sol\":4672:4701  winner.transfer(_winnerPrize) */\n      0x08fc\n        /* \"contracts/Lottery.sol\":4688:4700  _winnerPrize */\n      dup4\n        /* \"contracts/Lottery.sol\":4672:4701  winner.transfer(_winnerPrize) */\n      swap1\n      dup2\n      iszero\n      mul\n      swap1\n      mload(0x40)\n      0x00\n      mload(0x40)\n      dup1\n      dup4\n      sub\n      dup2\n      dup6\n      dup9\n      dup9\n      call\n      swap4\n      pop\n      pop\n      pop\n      pop\n      iszero\n      dup1\n      iszero\n      tag_144\n      jumpi\n      returndatasize\n      0x00\n      dup1\n      returndatacopy\n      revert(0x00, returndatasize)\n    tag_144:\n      pop\n        /* \"contracts/Lottery.sol\":4550:4757  function _transferPrize(uint256 _winnerPrize, address payable winner) private{... */\n      pop\n      pop\n      jump\t// out\n        /* \"contracts/Lottery.sol\":2964:3034  function increasePlayerCount() internal {... */\n    tag_133:\n        /* \"contracts/Lottery.sol\":3014:3025  playerCount */\n      0x07\n      0x00\n        /* \"contracts/Lottery.sol\":3014:3027  playerCount++ */\n      dup2\n      sload\n      dup1\n      swap3\n      swap2\n      swap1\n      tag_146\n      swap1\n      tag_120\n      jump\t// in\n    tag_146:\n      swap2\n      swap1\n      pop\n      sstore\n      pop\n        /* \"contracts/Lottery.sol\":2964:3034  function increasePlayerCount() internal {... */\n      jump\t// out\n    tag_139:\n      dup3\n      dup1\n      sload\n      dup3\n      dup3\n      sstore\n      swap1\n      0x00\n      mstore\n      keccak256(0x00, 0x20)\n      swap1\n      dup2\n      add\n      swap3\n      dup3\n      iszero\n      tag_147\n      jumpi\n      swap2\n      0x20\n      mul\n      dup3\n      add\n    tag_148:\n      dup3\n      dup2\n      gt\n      iszero\n      tag_149\n      jumpi\n      dup3\n      mload\n      dup3\n      sstore\n      swap2\n      0x20\n      add\n      swap2\n      swap1\n      0x01\n      add\n      swap1\n      jump(tag_148)\n    tag_149:\n    tag_147:\n      pop\n      swap1\n      pop\n      tag_150\n      swap2\n      swap1\n      tag_151\n      jump\t// in\n    tag_150:\n      pop\n      swap1\n      jump\t// out\n    tag_151:\n    tag_152:\n      dup1\n      dup3\n      gt\n      iszero\n      tag_153\n      jumpi\n      0x00\n      dup2\n      0x00\n      swap1\n      sstore\n      pop\n      0x01\n      add\n      jump(tag_152)\n    tag_153:\n      pop\n      swap1\n      jump\t// out\n        /* \"#utility.yul\":7:84   */\n    tag_154:\n        /* \"#utility.yul\":44:51   */\n      0x00\n        /* \"#utility.yul\":73:78   */\n      dup2\n        /* \"#utility.yul\":62:78   */\n      swap1\n      pop\n        /* \"#utility.yul\":7:84   */\n      swap2\n      swap1\n      pop\n      jump\t// out\n        /* \"#utility.yul\":90:208   */\n    tag_155:\n        /* \"#utility.yul\":177:201   */\n      tag_198\n        /* \"#utility.yul\":195:200   */\n      dup2\n        /* \"#utility.yul\":177:201   */\n      tag_154\n      jump\t// in\n    tag_198:\n        /* \"#utility.yul\":172:175   */\n      dup3\n        /* \"#utility.yul\":165:202   */\n      mstore\n        /* \"#utility.yul\":90:208   */\n      pop\n      pop\n      jump\t// out\n        /* \"#utility.yul\":214:436   */\n    tag_21:\n        /* \"#utility.yul\":307:311   */\n      0x00\n        /* \"#utility.yul\":345:347   */\n      0x20\n        /* \"#utility.yul\":334:343   */\n      dup3\n        /* \"#utility.yul\":330:348   */\n      add\n        /* \"#utility.yul\":322:348   */\n      swap1\n      pop\n        /* \"#utility.yul\":358:429   */\n      tag_200\n        /* \"#utility.yul\":426:427   */\n      0x00\n        /* \"#utility.yul\":415:424   */\n      dup4\n        /* \"#utility.yul\":411:428   */\n      add\n        /* \"#utility.yul\":402:408   */\n      dup5\n        /* \"#utility.yul\":358:429   */\n      tag_155\n      jump\t// in\n    tag_200:\n        /* \"#utility.yul\":214:436   */\n      swap3\n      swap2\n      pop\n      pop\n      jump\t// out\n        /* \"#utility.yul\":442:517   */\n    tag_156:\n        /* \"#utility.yul\":475:481   */\n      0x00\n        /* \"#utility.yul\":508:510   */\n      0x40\n        /* \"#utility.yul\":502:511   */\n      mload\n        /* \"#utility.yul\":492:511   */\n      swap1\n      pop\n        /* \"#utility.yul\":442:517   */\n      swap1\n      jump\t// out\n        /* \"#utility.yul\":523:640   */\n    tag_157:\n        /* \"#utility.yul\":632:633   */\n      0x00\n        /* \"#utility.yul\":629:630   */\n      dup1\n        /* \"#utility.yul\":622:634   */\n      revert\n        /* \"#utility.yul\":646:763   */\n    tag_158:\n        /* \"#utility.yul\":755:756   */\n      0x00\n        /* \"#utility.yul\":752:753   */\n      dup1\n        /* \"#utility.yul\":745:757   */\n      revert\n        /* \"#utility.yul\":769:891   */\n    tag_159:\n        /* \"#utility.yul\":842:866   */\n      tag_205\n        /* \"#utility.yul\":860:865   */\n      dup2\n        /* \"#utility.yul\":842:866   */\n      tag_154\n      jump\t// in\n    tag_205:\n        /* \"#utility.yul\":835:840   */\n      dup2\n        /* \"#utility.yul\":832:867   */\n      eq\n        /* \"#utility.yul\":822:885   */\n      tag_206\n      jumpi\n        /* \"#utility.yul\":881:882   */\n      0x00\n        /* \"#utility.yul\":878:879   */\n      dup1\n        /* \"#utility.yul\":871:883   */\n      revert\n        /* \"#utility.yul\":822:885   */\n    tag_206:\n        /* \"#utility.yul\":769:891   */\n      pop\n      jump\t// out\n        /* \"#utility.yul\":897:1036   */\n    tag_160:\n        /* \"#utility.yul\":943:948   */\n      0x00\n        /* \"#utility.yul\":981:987   */\n      dup2\n        /* \"#utility.yul\":968:988   */\n      calldataload\n        /* \"#utility.yul\":959:988   */\n      swap1\n      pop\n        /* \"#utility.yul\":997:1030   */\n      tag_208\n        /* \"#utility.yul\":1024:1029   */\n      dup2\n        /* \"#utility.yul\":997:1030   */\n      tag_159\n      jump\t// in\n    tag_208:\n        /* \"#utility.yul\":897:1036   */\n      swap3\n      swap2\n      pop\n      pop\n      jump\t// out\n        /* \"#utility.yul\":1042:1371   */\n    tag_25:\n        /* \"#utility.yul\":1101:1107   */\n      0x00\n        /* \"#utility.yul\":1150:1152   */\n      0x20\n        /* \"#utility.yul\":1138:1147   */\n      dup3\n        /* \"#utility.yul\":1129:1136   */\n      dup5\n        /* \"#utility.yul\":1125:1148   */\n      sub\n        /* \"#utility.yul\":1121:1153   */\n      slt\n        /* \"#utility.yul\":1118:1237   */\n      iszero\n      tag_210\n      jumpi\n        /* \"#utility.yul\":1156:1235   */\n      tag_211\n      tag_157\n      jump\t// in\n    tag_211:\n        /* \"#utility.yul\":1118:1237   */\n    tag_210:\n        /* \"#utility.yul\":1276:1277   */\n      0x00\n        /* \"#utility.yul\":1301:1354   */\n      tag_212\n        /* \"#utility.yul\":1346:1353   */\n      dup5\n        /* \"#utility.yul\":1337:1343   */\n      dup3\n        /* \"#utility.yul\":1326:1335   */\n      dup6\n        /* \"#utility.yul\":1322:1344   */\n      add\n        /* \"#utility.yul\":1301:1354   */\n      tag_160\n      jump\t// in\n    tag_212:\n        /* \"#utility.yul\":1291:1354   */\n      swap2\n      pop\n        /* \"#utility.yul\":1247:1364   */\n      pop\n        /* \"#utility.yul\":1042:1371   */\n      swap3\n      swap2\n      pop\n      pop\n      jump\t// out\n        /* \"#utility.yul\":1377:1503   */\n    tag_161:\n        /* \"#utility.yul\":1414:1421   */\n      0x00\n        /* \"#utility.yul\":1454:1496   */\n      0xffffffffffffffffffffffffffffffffffffffff\n        /* \"#utility.yul\":1447:1452   */\n      dup3\n        /* \"#utility.yul\":1443:1497   */\n      and\n        /* \"#utility.yul\":1432:1497   */\n      swap1\n      pop\n        /* \"#utility.yul\":1377:1503   */\n      swap2\n      swap1\n      pop\n      jump\t// out\n        /* \"#utility.yul\":1509:1605   */\n    tag_162:\n        /* \"#utility.yul\":1546:1553   */\n      0x00\n        /* \"#utility.yul\":1575:1599   */\n      tag_215\n        /* \"#utility.yul\":1593:1598   */\n      dup3\n        /* \"#utility.yul\":1575:1599   */\n      tag_161\n      jump\t// in\n    tag_215:\n        /* \"#utility.yul\":1564:1599   */\n      swap1\n      pop\n        /* \"#utility.yul\":1509:1605   */\n      swap2\n      swap1\n      pop\n      jump\t// out\n        /* \"#utility.yul\":1611:1729   */\n    tag_163:\n        /* \"#utility.yul\":1698:1722   */\n      tag_217\n        /* \"#utility.yul\":1716:1721   */\n      dup2\n        /* \"#utility.yul\":1698:1722   */\n      tag_162\n      jump\t// in\n    tag_217:\n        /* \"#utility.yul\":1693:1696   */\n      dup3\n        /* \"#utility.yul\":1686:1723   */\n      mstore\n        /* \"#utility.yul\":1611:1729   */\n      pop\n      pop\n      jump\t// out\n        /* \"#utility.yul\":1735:1957   */\n    tag_28:\n        /* \"#utility.yul\":1828:1832   */\n      0x00\n        /* \"#utility.yul\":1866:1868   */\n      0x20\n        /* \"#utility.yul\":1855:1864   */\n      dup3\n        /* \"#utility.yul\":1851:1869   */\n      add\n        /* \"#utility.yul\":1843:1869   */\n      swap1\n      pop\n        /* \"#utility.yul\":1879:1950   */\n      tag_219\n        /* \"#utility.yul\":1947:1948   */\n      0x00\n        /* \"#utility.yul\":1936:1945   */\n      dup4\n        /* \"#utility.yul\":1932:1949   */\n      add\n        /* \"#utility.yul\":1923:1929   */\n      dup5\n        /* \"#utility.yul\":1879:1950   */\n      tag_163\n      jump\t// in\n    tag_219:\n        /* \"#utility.yul\":1735:1957   */\n      swap3\n      swap2\n      pop\n      pop\n      jump\t// out\n        /* \"#utility.yul\":1963:2080   */\n    tag_164:\n        /* \"#utility.yul\":2072:2073   */\n      0x00\n        /* \"#utility.yul\":2069:2070   */\n      dup1\n        /* \"#utility.yul\":2062:2074   */\n      revert\n        /* \"#utility.yul\":2086:2188   */\n    tag_165:\n        /* \"#utility.yul\":2127:2133   */\n      0x00\n        /* \"#utility.yul\":2178:2180   */\n      0x1f\n        /* \"#utility.yul\":2174:2181   */\n      not\n        /* \"#utility.yul\":2169:2171   */\n      0x1f\n        /* \"#utility.yul\":2162:2167   */\n      dup4\n        /* \"#utility.yul\":2158:2172   */\n      add\n        /* \"#utility.yul\":2154:2182   */\n      and\n        /* \"#utility.yul\":2144:2182   */\n      swap1\n      pop\n        /* \"#utility.yul\":2086:2188   */\n      swap2\n      swap1\n      pop\n      jump\t// out\n        /* \"#utility.yul\":2194:2374   */\n    tag_166:\n        /* \"#utility.yul\":2242:2319   */\n      0x4e487b7100000000000000000000000000000000000000000000000000000000\n        /* \"#utility.yul\":2239:2240   */\n      0x00\n        /* \"#utility.yul\":2232:2320   */\n      mstore\n        /* \"#utility.yul\":2339:2343   */\n      0x41\n        /* \"#utility.yul\":2336:2337   */\n      0x04\n        /* \"#utility.yul\":2329:2344   */\n      mstore\n        /* \"#utility.yul\":2363:2367   */\n      0x24\n        /* \"#utility.yul\":2360:2361   */\n      0x00\n        /* \"#utility.yul\":2353:2368   */\n      revert\n        /* \"#utility.yul\":2380:2661   */\n    tag_167:\n        /* \"#utility.yul\":2463:2490   */\n      tag_224\n        /* \"#utility.yul\":2485:2489   */\n      dup3\n        /* \"#utility.yul\":2463:2490   */\n      tag_165\n      jump\t// in\n    tag_224:\n        /* \"#utility.yul\":2455:2461   */\n      dup2\n        /* \"#utility.yul\":2451:2491   */\n      add\n        /* \"#utility.yul\":2593:2599   */\n      dup2\n        /* \"#utility.yul\":2581:2591   */\n      dup2\n        /* \"#utility.yul\":2578:2600   */\n      lt\n        /* \"#utility.yul\":2557:2575   */\n      0xffffffffffffffff\n        /* \"#utility.yul\":2545:2555   */\n      dup3\n        /* \"#utility.yul\":2542:2576   */\n      gt\n        /* \"#utility.yul\":2539:2601   */\n      or\n        /* \"#utility.yul\":2536:2624   */\n      iszero\n      tag_225\n      jumpi\n        /* \"#utility.yul\":2604:2622   */\n      tag_226\n      tag_166\n      jump\t// in\n    tag_226:\n        /* \"#utility.yul\":2536:2624   */\n    tag_225:\n        /* \"#utility.yul\":2644:2654   */\n      dup1\n        /* \"#utility.yul\":2640:2642   */\n      0x40\n        /* \"#utility.yul\":2633:2655   */\n      mstore\n        /* \"#utility.yul\":2423:2661   */\n      pop\n        /* \"#utility.yul\":2380:2661   */\n      pop\n      pop\n      jump\t// out\n        /* \"#utility.yul\":2667:2796   */\n    tag_168:\n        /* \"#utility.yul\":2701:2707   */\n      0x00\n        /* \"#utility.yul\":2728:2748   */\n      tag_228\n      tag_156\n      jump\t// in\n    tag_228:\n        /* \"#utility.yul\":2718:2748   */\n      swap1\n      pop\n        /* \"#utility.yul\":2757:2790   */\n      tag_229\n        /* \"#utility.yul\":2785:2789   */\n      dup3\n        /* \"#utility.yul\":2777:2783   */\n      dup3\n        /* \"#utility.yul\":2757:2790   */\n      tag_167\n      jump\t// in\n    tag_229:\n        /* \"#utility.yul\":2667:2796   */\n      swap2\n      swap1\n      pop\n      jump\t// out\n        /* \"#utility.yul\":2802:3113   */\n    tag_169:\n        /* \"#utility.yul\":2879:2883   */\n      0x00\n        /* \"#utility.yul\":2969:2987   */\n      0xffffffffffffffff\n        /* \"#utility.yul\":2961:2967   */\n      dup3\n        /* \"#utility.yul\":2958:2988   */\n      gt\n        /* \"#utility.yul\":2955:3011   */\n      iszero\n      tag_231\n      jumpi\n        /* \"#utility.yul\":2991:3009   */\n      tag_232\n      tag_166\n      jump\t// in\n    tag_232:\n        /* \"#utility.yul\":2955:3011   */\n    tag_231:\n        /* \"#utility.yul\":3041:3045   */\n      0x20\n        /* \"#utility.yul\":3033:3039   */\n      dup3\n        /* \"#utility.yul\":3029:3046   */\n      mul\n        /* \"#utility.yul\":3021:3046   */\n      swap1\n      pop\n        /* \"#utility.yul\":3101:3105   */\n      0x20\n        /* \"#utility.yul\":3095:3099   */\n      dup2\n        /* \"#utility.yul\":3091:3106   */\n      add\n        /* \"#utility.yul\":3083:3106   */\n      swap1\n      pop\n        /* \"#utility.yul\":2802:3113   */\n      swap2\n      swap1\n      pop\n      jump\t// out\n        /* \"#utility.yul\":3119:3236   */\n    tag_170:\n        /* \"#utility.yul\":3228:3229   */\n      0x00\n        /* \"#utility.yul\":3225:3226   */\n      dup1\n        /* \"#utility.yul\":3218:3230   */\n      revert\n        /* \"#utility.yul\":3259:3969   */\n    tag_171:\n        /* \"#utility.yul\":3355:3360   */\n      0x00\n        /* \"#utility.yul\":3380:3461   */\n      tag_235\n        /* \"#utility.yul\":3396:3460   */\n      tag_236\n        /* \"#utility.yul\":3453:3459   */\n      dup5\n        /* \"#utility.yul\":3396:3460   */\n      tag_169\n      jump\t// in\n    tag_236:\n        /* \"#utility.yul\":3380:3461   */\n      tag_168\n      jump\t// in\n    tag_235:\n        /* \"#utility.yul\":3371:3461   */\n      swap1\n      pop\n        /* \"#utility.yul\":3481:3486   */\n      dup1\n        /* \"#utility.yul\":3510:3516   */\n      dup4\n        /* \"#utility.yul\":3503:3508   */\n      dup3\n        /* \"#utility.yul\":3496:3517   */\n      mstore\n        /* \"#utility.yul\":3544:3548   */\n      0x20\n        /* \"#utility.yul\":3537:3542   */\n      dup3\n        /* \"#utility.yul\":3533:3549   */\n      add\n        /* \"#utility.yul\":3526:3549   */\n      swap1\n      pop\n        /* \"#utility.yul\":3597:3601   */\n      0x20\n        /* \"#utility.yul\":3589:3595   */\n      dup5\n        /* \"#utility.yul\":3585:3602   */\n      mul\n        /* \"#utility.yul\":3577:3583   */\n      dup4\n        /* \"#utility.yul\":3573:3603   */\n      add\n        /* \"#utility.yul\":3626:3629   */\n      dup6\n        /* \"#utility.yul\":3618:3624   */\n      dup2\n        /* \"#utility.yul\":3615:3630   */\n      gt\n        /* \"#utility.yul\":3612:3734   */\n      iszero\n      tag_237\n      jumpi\n        /* \"#utility.yul\":3645:3724   */\n      tag_238\n      tag_170\n      jump\t// in\n    tag_238:\n        /* \"#utility.yul\":3612:3734   */\n    tag_237:\n        /* \"#utility.yul\":3760:3766   */\n      dup4\n        /* \"#utility.yul\":3743:3963   */\n    tag_239:\n        /* \"#utility.yul\":3777:3783   */\n      dup2\n        /* \"#utility.yul\":3772:3775   */\n      dup2\n        /* \"#utility.yul\":3769:3784   */\n      lt\n        /* \"#utility.yul\":3743:3963   */\n      iszero\n      tag_241\n      jumpi\n        /* \"#utility.yul\":3852:3855   */\n      dup1\n        /* \"#utility.yul\":3881:3918   */\n      tag_242\n        /* \"#utility.yul\":3914:3917   */\n      dup9\n        /* \"#utility.yul\":3902:3912   */\n      dup3\n        /* \"#utility.yul\":3881:3918   */\n      tag_160\n      jump\t// in\n    tag_242:\n        /* \"#utility.yul\":3876:3879   */\n      dup5\n        /* \"#utility.yul\":3869:3919   */\n      mstore\n        /* \"#utility.yul\":3948:3952   */\n      0x20\n        /* \"#utility.yul\":3943:3946   */\n      dup5\n        /* \"#utility.yul\":3939:3953   */\n      add\n        /* \"#utility.yul\":3932:3953   */\n      swap4\n      pop\n        /* \"#utility.yul\":3819:3963   */\n      pop\n        /* \"#utility.yul\":3803:3807   */\n      0x20\n        /* \"#utility.yul\":3798:3801   */\n      dup2\n        /* \"#utility.yul\":3794:3808   */\n      add\n        /* \"#utility.yul\":3787:3808   */\n      swap1\n      pop\n        /* \"#utility.yul\":3743:3963   */\n      jump(tag_239)\n    tag_241:\n        /* \"#utility.yul\":3747:3768   */\n      pop\n        /* \"#utility.yul\":3361:3969   */\n      pop\n      pop\n        /* \"#utility.yul\":3259:3969   */\n      swap4\n      swap3\n      pop\n      pop\n      pop\n      jump\t// out\n        /* \"#utility.yul\":3992:4362   */\n    tag_172:\n        /* \"#utility.yul\":4063:4068   */\n      0x00\n        /* \"#utility.yul\":4112:4115   */\n      dup3\n        /* \"#utility.yul\":4105:4109   */\n      0x1f\n        /* \"#utility.yul\":4097:4103   */\n      dup4\n        /* \"#utility.yul\":4093:4110   */\n      add\n        /* \"#utility.yul\":4089:4116   */\n      slt\n        /* \"#utility.yul\":4079:4201   */\n      tag_244\n      jumpi\n        /* \"#utility.yul\":4120:4199   */\n      tag_245\n      tag_164\n      jump\t// in\n    tag_245:\n        /* \"#utility.yul\":4079:4201   */\n    tag_244:\n        /* \"#utility.yul\":4237:4243   */\n      dup2\n        /* \"#utility.yul\":4224:4244   */\n      calldataload\n        /* \"#utility.yul\":4262:4356   */\n      tag_246\n        /* \"#utility.yul\":4352:4355   */\n      dup5\n        /* \"#utility.yul\":4344:4350   */\n      dup3\n        /* \"#utility.yul\":4337:4341   */\n      0x20\n        /* \"#utility.yul\":4329:4335   */\n      dup7\n        /* \"#utility.yul\":4325:4342   */\n      add\n        /* \"#utility.yul\":4262:4356   */\n      tag_171\n      jump\t// in\n    tag_246:\n        /* \"#utility.yul\":4253:4356   */\n      swap2\n      pop\n        /* \"#utility.yul\":4069:4362   */\n      pop\n        /* \"#utility.yul\":3992:4362   */\n      swap3\n      swap2\n      pop\n      pop\n      jump\t// out\n        /* \"#utility.yul\":4368:5052   */\n    tag_32:\n        /* \"#utility.yul\":4461:4467   */\n      0x00\n        /* \"#utility.yul\":4469:4475   */\n      dup1\n        /* \"#utility.yul\":4518:4520   */\n      0x40\n        /* \"#utility.yul\":4506:4515   */\n      dup4\n        /* \"#utility.yul\":4497:4504   */\n      dup6\n        /* \"#utility.yul\":4493:4516   */\n      sub\n        /* \"#utility.yul\":4489:4521   */\n      slt\n        /* \"#utility.yul\":4486:4605   */\n      iszero\n      tag_248\n      jumpi\n        /* \"#utility.yul\":4524:4603   */\n      tag_249\n      tag_157\n      jump\t// in\n    tag_249:\n        /* \"#utility.yul\":4486:4605   */\n    tag_248:\n        /* \"#utility.yul\":4644:4645   */\n      0x00\n        /* \"#utility.yul\":4669:4722   */\n      tag_250\n        /* \"#utility.yul\":4714:4721   */\n      dup6\n        /* \"#utility.yul\":4705:4711   */\n      dup3\n        /* \"#utility.yul\":4694:4703   */\n      dup7\n        /* \"#utility.yul\":4690:4712   */\n      add\n        /* \"#utility.yul\":4669:4722   */\n      tag_160\n      jump\t// in\n    tag_250:\n        /* \"#utility.yul\":4659:4722   */\n      swap3\n      pop\n        /* \"#utility.yul\":4615:4732   */\n      pop\n        /* \"#utility.yul\":4799:4801   */\n      0x20\n        /* \"#utility.yul\":4788:4797   */\n      dup4\n        /* \"#utility.yul\":4784:4802   */\n      add\n        /* \"#utility.yul\":4771:4803   */\n      calldataload\n        /* \"#utility.yul\":4830:4848   */\n      0xffffffffffffffff\n        /* \"#utility.yul\":4822:4828   */\n      dup2\n        /* \"#utility.yul\":4819:4849   */\n      gt\n        /* \"#utility.yul\":4816:4933   */\n      iszero\n      tag_251\n      jumpi\n        /* \"#utility.yul\":4852:4931   */\n      tag_252\n      tag_158\n      jump\t// in\n    tag_252:\n        /* \"#utility.yul\":4816:4933   */\n    tag_251:\n        /* \"#utility.yul\":4957:5035   */\n      tag_253\n        /* \"#utility.yul\":5027:5034   */\n      dup6\n        /* \"#utility.yul\":5018:5024   */\n      dup3\n        /* \"#utility.yul\":5007:5016   */\n      dup7\n        /* \"#utility.yul\":5003:5025   */\n      add\n        /* \"#utility.yul\":4957:5035   */\n      tag_172\n      jump\t// in\n    tag_253:\n        /* \"#utility.yul\":4947:5035   */\n      swap2\n      pop\n        /* \"#utility.yul\":4742:5045   */\n      pop\n        /* \"#utility.yul\":4368:5052   */\n      swap3\n      pop\n      swap3\n      swap1\n      pop\n      jump\t// out\n        /* \"#utility.yul\":5058:5162   */\n    tag_173:\n        /* \"#utility.yul\":5103:5110   */\n      0x00\n        /* \"#utility.yul\":5132:5156   */\n      tag_255\n        /* \"#utility.yul\":5150:5155   */\n      dup3\n        /* \"#utility.yul\":5132:5156   */\n      tag_161\n      jump\t// in\n    tag_255:\n        /* \"#utility.yul\":5121:5156   */\n      swap1\n      pop\n        /* \"#utility.yul\":5058:5162   */\n      swap2\n      swap1\n      pop\n      jump\t// out\n        /* \"#utility.yul\":5168:5310   */\n    tag_174:\n        /* \"#utility.yul\":5271:5303   */\n      tag_257\n        /* \"#utility.yul\":5297:5302   */\n      dup2\n        /* \"#utility.yul\":5271:5303   */\n      tag_173\n      jump\t// in\n    tag_257:\n        /* \"#utility.yul\":5266:5269   */\n      dup3\n        /* \"#utility.yul\":5259:5304   */\n      mstore\n        /* \"#utility.yul\":5168:5310   */\n      pop\n      pop\n      jump\t// out\n        /* \"#utility.yul\":5316:5680   */\n    tag_46:\n        /* \"#utility.yul\":5453:5457   */\n      0x00\n        /* \"#utility.yul\":5491:5493   */\n      0x40\n        /* \"#utility.yul\":5480:5489   */\n      dup3\n        /* \"#utility.yul\":5476:5494   */\n      add\n        /* \"#utility.yul\":5468:5494   */\n      swap1\n      pop\n        /* \"#utility.yul\":5504:5591   */\n      tag_259\n        /* \"#utility.yul\":5588:5589   */\n      0x00\n        /* \"#utility.yul\":5577:5586   */\n      dup4\n        /* \"#utility.yul\":5573:5590   */\n      add\n        /* \"#utility.yul\":5564:5570   */\n      dup6\n        /* \"#utility.yul\":5504:5591   */\n      tag_174\n      jump\t// in\n    tag_259:\n        /* \"#utility.yul\":5601:5673   */\n      tag_260\n        /* \"#utility.yul\":5669:5671   */\n      0x20\n        /* \"#utility.yul\":5658:5667   */\n      dup4\n        /* \"#utility.yul\":5654:5672   */\n      add\n        /* \"#utility.yul\":5645:5651   */\n      dup5\n        /* \"#utility.yul\":5601:5673   */\n      tag_155\n      jump\t// in\n    tag_260:\n        /* \"#utility.yul\":5316:5680   */\n      swap4\n      swap3\n      pop\n      pop\n      pop\n      jump\t// out\n        /* \"#utility.yul\":5686:5866   */\n    tag_78:\n        /* \"#utility.yul\":5734:5811   */\n      0x4e487b7100000000000000000000000000000000000000000000000000000000\n        /* \"#utility.yul\":5731:5732   */\n      0x00\n        /* \"#utility.yul\":5724:5812   */\n      mstore\n        /* \"#utility.yul\":5831:5835   */\n      0x32\n        /* \"#utility.yul\":5828:5829   */\n      0x04\n        /* \"#utility.yul\":5821:5836   */\n      mstore\n        /* \"#utility.yul\":5855:5859   */\n      0x24\n        /* \"#utility.yul\":5852:5853   */\n      0x00\n        /* \"#utility.yul\":5845:5860   */\n      revert\n        /* \"#utility.yul\":5872:6204   */\n    tag_83:\n        /* \"#utility.yul\":5993:5997   */\n      0x00\n        /* \"#utility.yul\":6031:6033   */\n      0x40\n        /* \"#utility.yul\":6020:6029   */\n      dup3\n        /* \"#utility.yul\":6016:6034   */\n      add\n        /* \"#utility.yul\":6008:6034   */\n      swap1\n      pop\n        /* \"#utility.yul\":6044:6115   */\n      tag_263\n        /* \"#utility.yul\":6112:6113   */\n      0x00\n        /* \"#utility.yul\":6101:6110   */\n      dup4\n        /* \"#utility.yul\":6097:6114   */\n      add\n        /* \"#utility.yul\":6088:6094   */\n      dup6\n        /* \"#utility.yul\":6044:6115   */\n      tag_163\n      jump\t// in\n    tag_263:\n        /* \"#utility.yul\":6125:6197   */\n      tag_264\n        /* \"#utility.yul\":6193:6195   */\n      0x20\n        /* \"#utility.yul\":6182:6191   */\n      dup4\n        /* \"#utility.yul\":6178:6196   */\n      add\n        /* \"#utility.yul\":6169:6175   */\n      dup5\n        /* \"#utility.yul\":6125:6197   */\n      tag_163\n      jump\t// in\n    tag_264:\n        /* \"#utility.yul\":5872:6204   */\n      swap4\n      swap3\n      pop\n      pop\n      pop\n      jump\t// out\n        /* \"#utility.yul\":6210:6287   */\n    tag_175:\n        /* \"#utility.yul\":6247:6254   */\n      0x00\n        /* \"#utility.yul\":6276:6281   */\n      dup2\n        /* \"#utility.yul\":6265:6281   */\n      swap1\n      pop\n        /* \"#utility.yul\":6210:6287   */\n      swap2\n      swap1\n      pop\n      jump\t// out\n        /* \"#utility.yul\":6293:6411   */\n    tag_176:\n        /* \"#utility.yul\":6380:6404   */\n      tag_267\n        /* \"#utility.yul\":6398:6403   */\n      dup2\n        /* \"#utility.yul\":6380:6404   */\n      tag_175\n      jump\t// in\n    tag_267:\n        /* \"#utility.yul\":6375:6378   */\n      dup3\n        /* \"#utility.yul\":6368:6405   */\n      mstore\n        /* \"#utility.yul\":6293:6411   */\n      pop\n      pop\n      jump\t// out\n        /* \"#utility.yul\":6417:6518   */\n    tag_177:\n        /* \"#utility.yul\":6453:6460   */\n      0x00\n        /* \"#utility.yul\":6493:6511   */\n      0xffffffffffffffff\n        /* \"#utility.yul\":6486:6491   */\n      dup3\n        /* \"#utility.yul\":6482:6512   */\n      and\n        /* \"#utility.yul\":6471:6512   */\n      swap1\n      pop\n        /* \"#utility.yul\":6417:6518   */\n      swap2\n      swap1\n      pop\n      jump\t// out\n        /* \"#utility.yul\":6524:6639   */\n    tag_178:\n        /* \"#utility.yul\":6609:6632   */\n      tag_270\n        /* \"#utility.yul\":6626:6631   */\n      dup2\n        /* \"#utility.yul\":6609:6632   */\n      tag_177\n      jump\t// in\n    tag_270:\n        /* \"#utility.yul\":6604:6607   */\n      dup3\n        /* \"#utility.yul\":6597:6633   */\n      mstore\n        /* \"#utility.yul\":6524:6639   */\n      pop\n      pop\n      jump\t// out\n        /* \"#utility.yul\":6645:6734   */\n    tag_179:\n        /* \"#utility.yul\":6681:6688   */\n      0x00\n        /* \"#utility.yul\":6721:6727   */\n      0xffff\n        /* \"#utility.yul\":6714:6719   */\n      dup3\n        /* \"#utility.yul\":6710:6728   */\n      and\n        /* \"#utility.yul\":6699:6728   */\n      swap1\n      pop\n        /* \"#utility.yul\":6645:6734   */\n      swap2\n      swap1\n      pop\n      jump\t// out\n        /* \"#utility.yul\":6740:6855   */\n    tag_180:\n        /* \"#utility.yul\":6825:6848   */\n      tag_273\n        /* \"#utility.yul\":6842:6847   */\n      dup2\n        /* \"#utility.yul\":6825:6848   */\n      tag_179\n      jump\t// in\n    tag_273:\n        /* \"#utility.yul\":6820:6823   */\n      dup3\n        /* \"#utility.yul\":6813:6849   */\n      mstore\n        /* \"#utility.yul\":6740:6855   */\n      pop\n      pop\n      jump\t// out\n        /* \"#utility.yul\":6861:6954   */\n    tag_181:\n        /* \"#utility.yul\":6897:6904   */\n      0x00\n        /* \"#utility.yul\":6937:6947   */\n      0xffffffff\n        /* \"#utility.yul\":6930:6935   */\n      dup3\n        /* \"#utility.yul\":6926:6948   */\n      and\n        /* \"#utility.yul\":6915:6948   */\n      swap1\n      pop\n        /* \"#utility.yul\":6861:6954   */\n      swap2\n      swap1\n      pop\n      jump\t// out\n        /* \"#utility.yul\":6960:7075   */\n    tag_182:\n        /* \"#utility.yul\":7045:7068   */\n      tag_276\n        /* \"#utility.yul\":7062:7067   */\n      dup2\n        /* \"#utility.yul\":7045:7068   */\n      tag_181\n      jump\t// in\n    tag_276:\n        /* \"#utility.yul\":7040:7043   */\n      dup3\n        /* \"#utility.yul\":7033:7069   */\n      mstore\n        /* \"#utility.yul\":6960:7075   */\n      pop\n      pop\n      jump\t// out\n        /* \"#utility.yul\":7081:7729   */\n    tag_91:\n        /* \"#utility.yul\":7278:7282   */\n      0x00\n        /* \"#utility.yul\":7316:7319   */\n      0xa0\n        /* \"#utility.yul\":7305:7314   */\n      dup3\n        /* \"#utility.yul\":7301:7320   */\n      add\n        /* \"#utility.yul\":7293:7320   */\n      swap1\n      pop\n        /* \"#utility.yul\":7330:7401   */\n      tag_278\n        /* \"#utility.yul\":7398:7399   */\n      0x00\n        /* \"#utility.yul\":7387:7396   */\n      dup4\n        /* \"#utility.yul\":7383:7400   */\n      add\n        /* \"#utility.yul\":7374:7380   */\n      dup9\n        /* \"#utility.yul\":7330:7401   */\n      tag_176\n      jump\t// in\n    tag_278:\n        /* \"#utility.yul\":7411:7481   */\n      tag_279\n        /* \"#utility.yul\":7477:7479   */\n      0x20\n        /* \"#utility.yul\":7466:7475   */\n      dup4\n        /* \"#utility.yul\":7462:7480   */\n      add\n        /* \"#utility.yul\":7453:7459   */\n      dup8\n        /* \"#utility.yul\":7411:7481   */\n      tag_178\n      jump\t// in\n    tag_279:\n        /* \"#utility.yul\":7491:7561   */\n      tag_280\n        /* \"#utility.yul\":7557:7559   */\n      0x40\n        /* \"#utility.yul\":7546:7555   */\n      dup4\n        /* \"#utility.yul\":7542:7560   */\n      add\n        /* \"#utility.yul\":7533:7539   */\n      dup7\n        /* \"#utility.yul\":7491:7561   */\n      tag_180\n      jump\t// in\n    tag_280:\n        /* \"#utility.yul\":7571:7641   */\n      tag_281\n        /* \"#utility.yul\":7637:7639   */\n      0x60\n        /* \"#utility.yul\":7626:7635   */\n      dup4\n        /* \"#utility.yul\":7622:7640   */\n      add\n        /* \"#utility.yul\":7613:7619   */\n      dup6\n        /* \"#utility.yul\":7571:7641   */\n      tag_182\n      jump\t// in\n    tag_281:\n        /* \"#utility.yul\":7651:7722   */\n      tag_282\n        /* \"#utility.yul\":7717:7720   */\n      0x80\n        /* \"#utility.yul\":7706:7715   */\n      dup4\n        /* \"#utility.yul\":7702:7721   */\n      add\n        /* \"#utility.yul\":7693:7699   */\n      dup5\n        /* \"#utility.yul\":7651:7722   */\n      tag_182\n      jump\t// in\n    tag_282:\n        /* \"#utility.yul\":7081:7729   */\n      swap7\n      swap6\n      pop\n      pop\n      pop\n      pop\n      pop\n      pop\n      jump\t// out\n        /* \"#utility.yul\":7735:7878   */\n    tag_183:\n        /* \"#utility.yul\":7792:7797   */\n      0x00\n        /* \"#utility.yul\":7823:7829   */\n      dup2\n        /* \"#utility.yul\":7817:7830   */\n      mload\n        /* \"#utility.yul\":7808:7830   */\n      swap1\n      pop\n        /* \"#utility.yul\":7839:7872   */\n      tag_284\n        /* \"#utility.yul\":7866:7871   */\n      dup2\n        /* \"#utility.yul\":7839:7872   */\n      tag_159\n      jump\t// in\n    tag_284:\n        /* \"#utility.yul\":7735:7878   */\n      swap3\n      swap2\n      pop\n      pop\n      jump\t// out\n        /* \"#utility.yul\":7884:8235   */\n    tag_95:\n        /* \"#utility.yul\":7954:7960   */\n      0x00\n        /* \"#utility.yul\":8003:8005   */\n      0x20\n        /* \"#utility.yul\":7991:8000   */\n      dup3\n        /* \"#utility.yul\":7982:7989   */\n      dup5\n        /* \"#utility.yul\":7978:8001   */\n      sub\n        /* \"#utility.yul\":7974:8006   */\n      slt\n        /* \"#utility.yul\":7971:8090   */\n      iszero\n      tag_286\n      jumpi\n        /* \"#utility.yul\":8009:8088   */\n      tag_287\n      tag_157\n      jump\t// in\n    tag_287:\n        /* \"#utility.yul\":7971:8090   */\n    tag_286:\n        /* \"#utility.yul\":8129:8130   */\n      0x00\n        /* \"#utility.yul\":8154:8218   */\n      tag_288\n        /* \"#utility.yul\":8210:8217   */\n      dup5\n        /* \"#utility.yul\":8201:8207   */\n      dup3\n        /* \"#utility.yul\":8190:8199   */\n      dup6\n        /* \"#utility.yul\":8186:8208   */\n      add\n        /* \"#utility.yul\":8154:8218   */\n      tag_183\n      jump\t// in\n    tag_288:\n        /* \"#utility.yul\":8144:8218   */\n      swap2\n      pop\n        /* \"#utility.yul\":8100:8228   */\n      pop\n        /* \"#utility.yul\":7884:8235   */\n      swap3\n      swap2\n      pop\n      pop\n      jump\t// out\n        /* \"#utility.yul\":8241:8421   */\n    tag_184:\n        /* \"#utility.yul\":8289:8366   */\n      0x4e487b7100000000000000000000000000000000000000000000000000000000\n        /* \"#utility.yul\":8286:8287   */\n      0x00\n        /* \"#utility.yul\":8279:8367   */\n      mstore\n        /* \"#utility.yul\":8386:8390   */\n      0x12\n        /* \"#utility.yul\":8383:8384   */\n      0x04\n        /* \"#utility.yul\":8376:8391   */\n      mstore\n        /* \"#utility.yul\":8410:8414   */\n      0x24\n        /* \"#utility.yul\":8407:8408   */\n      0x00\n        /* \"#utility.yul\":8400:8415   */\n      revert\n        /* \"#utility.yul\":8427:8603   */\n    tag_97:\n        /* \"#utility.yul\":8459:8460   */\n      0x00\n        /* \"#utility.yul\":8476:8496   */\n      tag_291\n        /* \"#utility.yul\":8494:8495   */\n      dup3\n        /* \"#utility.yul\":8476:8496   */\n      tag_154\n      jump\t// in\n    tag_291:\n        /* \"#utility.yul\":8471:8496   */\n      swap2\n      pop\n        /* \"#utility.yul\":8510:8530   */\n      tag_292\n        /* \"#utility.yul\":8528:8529   */\n      dup4\n        /* \"#utility.yul\":8510:8530   */\n      tag_154\n      jump\t// in\n    tag_292:\n        /* \"#utility.yul\":8505:8530   */\n      swap3\n      pop\n        /* \"#utility.yul\":8549:8550   */\n      dup3\n        /* \"#utility.yul\":8539:8574   */\n      tag_293\n      jumpi\n        /* \"#utility.yul\":8554:8572   */\n      tag_294\n      tag_184\n      jump\t// in\n    tag_294:\n        /* \"#utility.yul\":8539:8574   */\n    tag_293:\n        /* \"#utility.yul\":8595:8596   */\n      dup3\n        /* \"#utility.yul\":8592:8593   */\n      dup3\n        /* \"#utility.yul\":8588:8597   */\n      mod\n        /* \"#utility.yul\":8583:8597   */\n      swap1\n      pop\n        /* \"#utility.yul\":8427:8603   */\n      swap3\n      swap2\n      pop\n      pop\n      jump\t// out\n        /* \"#utility.yul\":8609:8789   */\n    tag_185:\n        /* \"#utility.yul\":8657:8734   */\n      0x4e487b7100000000000000000000000000000000000000000000000000000000\n        /* \"#utility.yul\":8654:8655   */\n      0x00\n        /* \"#utility.yul\":8647:8735   */\n      mstore\n        /* \"#utility.yul\":8754:8758   */\n      0x11\n        /* \"#utility.yul\":8751:8752   */\n      0x04\n        /* \"#utility.yul\":8744:8759   */\n      mstore\n        /* \"#utility.yul\":8778:8782   */\n      0x24\n        /* \"#utility.yul\":8775:8776   */\n      0x00\n        /* \"#utility.yul\":8768:8783   */\n      revert\n        /* \"#utility.yul\":8795:8980   */\n    tag_104:\n        /* \"#utility.yul\":8835:8836   */\n      0x00\n        /* \"#utility.yul\":8852:8872   */\n      tag_297\n        /* \"#utility.yul\":8870:8871   */\n      dup3\n        /* \"#utility.yul\":8852:8872   */\n      tag_154\n      jump\t// in\n    tag_297:\n        /* \"#utility.yul\":8847:8872   */\n      swap2\n      pop\n        /* \"#utility.yul\":8886:8906   */\n      tag_298\n        /* \"#utility.yul\":8904:8905   */\n      dup4\n        /* \"#utility.yul\":8886:8906   */\n      tag_154\n      jump\t// in\n    tag_298:\n        /* \"#utility.yul\":8881:8906   */\n      swap3\n      pop\n        /* \"#utility.yul\":8925:8926   */\n      dup3\n        /* \"#utility.yul\":8915:8950   */\n      tag_299\n      jumpi\n        /* \"#utility.yul\":8930:8948   */\n      tag_300\n      tag_184\n      jump\t// in\n    tag_300:\n        /* \"#utility.yul\":8915:8950   */\n    tag_299:\n        /* \"#utility.yul\":8972:8973   */\n      dup3\n        /* \"#utility.yul\":8969:8970   */\n      dup3\n        /* \"#utility.yul\":8965:8974   */\n      div\n        /* \"#utility.yul\":8960:8974   */\n      swap1\n      pop\n        /* \"#utility.yul\":8795:8980   */\n      swap3\n      swap2\n      pop\n      pop\n      jump\t// out\n        /* \"#utility.yul\":8986:9155   */\n    tag_186:\n        /* \"#utility.yul\":9070:9081   */\n      0x00\n        /* \"#utility.yul\":9104:9110   */\n      dup3\n        /* \"#utility.yul\":9099:9102   */\n      dup3\n        /* \"#utility.yul\":9092:9111   */\n      mstore\n        /* \"#utility.yul\":9144:9148   */\n      0x20\n        /* \"#utility.yul\":9139:9142   */\n      dup3\n        /* \"#utility.yul\":9135:9149   */\n      add\n        /* \"#utility.yul\":9120:9149   */\n      swap1\n      pop\n        /* \"#utility.yul\":8986:9155   */\n      swap3\n      swap2\n      pop\n      pop\n      jump\t// out\n        /* \"#utility.yul\":9161:9329   */\n    tag_187:\n        /* \"#utility.yul\":9301:9321   */\n      0x7072697a65506f6f6c20697320656d7074790000000000000000000000000000\n        /* \"#utility.yul\":9297:9298   */\n      0x00\n        /* \"#utility.yul\":9289:9295   */\n      dup3\n        /* \"#utility.yul\":9285:9299   */\n      add\n        /* \"#utility.yul\":9278:9322   */\n      mstore\n        /* \"#utility.yul\":9161:9329   */\n      pop\n      jump\t// out\n        /* \"#utility.yul\":9335:9701   */\n    tag_188:\n        /* \"#utility.yul\":9477:9480   */\n      0x00\n        /* \"#utility.yul\":9498:9565   */\n      tag_304\n        /* \"#utility.yul\":9562:9564   */\n      0x12\n        /* \"#utility.yul\":9557:9560   */\n      dup4\n        /* \"#utility.yul\":9498:9565   */\n      tag_186\n      jump\t// in\n    tag_304:\n        /* \"#utility.yul\":9491:9565   */\n      swap2\n      pop\n        /* \"#utility.yul\":9574:9667   */\n      tag_305\n        /* \"#utility.yul\":9663:9666   */\n      dup3\n        /* \"#utility.yul\":9574:9667   */\n      tag_187\n      jump\t// in\n    tag_305:\n        /* \"#utility.yul\":9692:9694   */\n      0x20\n        /* \"#utility.yul\":9687:9690   */\n      dup3\n        /* \"#utility.yul\":9683:9695   */\n      add\n        /* \"#utility.yul\":9676:9695   */\n      swap1\n      pop\n        /* \"#utility.yul\":9335:9701   */\n      swap2\n      swap1\n      pop\n      jump\t// out\n        /* \"#utility.yul\":9707:10126   */\n    tag_107:\n        /* \"#utility.yul\":9873:9877   */\n      0x00\n        /* \"#utility.yul\":9911:9913   */\n      0x20\n        /* \"#utility.yul\":9900:9909   */\n      dup3\n        /* \"#utility.yul\":9896:9914   */\n      add\n        /* \"#utility.yul\":9888:9914   */\n      swap1\n      pop\n        /* \"#utility.yul\":9960:9969   */\n      dup2\n        /* \"#utility.yul\":9954:9958   */\n      dup2\n        /* \"#utility.yul\":9950:9970   */\n      sub\n        /* \"#utility.yul\":9946:9947   */\n      0x00\n        /* \"#utility.yul\":9935:9944   */\n      dup4\n        /* \"#utility.yul\":9931:9948   */\n      add\n        /* \"#utility.yul\":9924:9971   */\n      mstore\n        /* \"#utility.yul\":9988:10119   */\n      tag_307\n        /* \"#utility.yul\":10114:10118   */\n      dup2\n        /* \"#utility.yul\":9988:10119   */\n      tag_188\n      jump\t// in\n    tag_307:\n        /* \"#utility.yul\":9980:10119   */\n      swap1\n      pop\n        /* \"#utility.yul\":9707:10126   */\n      swap2\n      swap1\n      pop\n      jump\t// out\n        /* \"#utility.yul\":10132:10291   */\n    tag_189:\n        /* \"#utility.yul\":10272:10283   */\n      0x4e6f2077696e6e65720000000000000000000000000000000000000000000000\n        /* \"#utility.yul\":10268:10269   */\n      0x00\n        /* \"#utility.yul\":10260:10266   */\n      dup3\n        /* \"#utility.yul\":10256:10270   */\n      add\n        /* \"#utility.yul\":10249:10284   */\n      mstore\n        /* \"#utility.yul\":10132:10291   */\n      pop\n      jump\t// out\n        /* \"#utility.yul\":10297:10662   */\n    tag_190:\n        /* \"#utility.yul\":10439:10442   */\n      0x00\n        /* \"#utility.yul\":10460:10526   */\n      tag_310\n        /* \"#utility.yul\":10524:10525   */\n      0x09\n        /* \"#utility.yul\":10519:10522   */\n      dup4\n        /* \"#utility.yul\":10460:10526   */\n      tag_186\n      jump\t// in\n    tag_310:\n        /* \"#utility.yul\":10453:10526   */\n      swap2\n      pop\n        /* \"#utility.yul\":10535:10628   */\n      tag_311\n        /* \"#utility.yul\":10624:10627   */\n      dup3\n        /* \"#utility.yul\":10535:10628   */\n      tag_189\n      jump\t// in\n    tag_311:\n        /* \"#utility.yul\":10653:10655   */\n      0x20\n        /* \"#utility.yul\":10648:10651   */\n      dup3\n        /* \"#utility.yul\":10644:10656   */\n      add\n        /* \"#utility.yul\":10637:10656   */\n      swap1\n      pop\n        /* \"#utility.yul\":10297:10662   */\n      swap2\n      swap1\n      pop\n      jump\t// out\n        /* \"#utility.yul\":10668:11087   */\n    tag_110:\n        /* \"#utility.yul\":10834:10838   */\n      0x00\n        /* \"#utility.yul\":10872:10874   */\n      0x20\n        /* \"#utility.yul\":10861:10870   */\n      dup3\n        /* \"#utility.yul\":10857:10875   */\n      add\n        /* \"#utility.yul\":10849:10875   */\n      swap1\n      pop\n        /* \"#utility.yul\":10921:10930   */\n      dup2\n        /* \"#utility.yul\":10915:10919   */\n      dup2\n        /* \"#utility.yul\":10911:10931   */\n      sub\n        /* \"#utility.yul\":10907:10908   */\n      0x00\n        /* \"#utility.yul\":10896:10905   */\n      dup4\n        /* \"#utility.yul\":10892:10909   */\n      add\n        /* \"#utility.yul\":10885:10932   */\n      mstore\n        /* \"#utility.yul\":10949:11080   */\n      tag_313\n        /* \"#utility.yul\":11075:11079   */\n      dup2\n        /* \"#utility.yul\":10949:11080   */\n      tag_190\n      jump\t// in\n    tag_313:\n        /* \"#utility.yul\":10941:11080   */\n      swap1\n      pop\n        /* \"#utility.yul\":10668:11087   */\n      swap2\n      swap1\n      pop\n      jump\t// out\n        /* \"#utility.yul\":11093:11326   */\n    tag_120:\n        /* \"#utility.yul\":11132:11135   */\n      0x00\n        /* \"#utility.yul\":11155:11179   */\n      tag_315\n        /* \"#utility.yul\":11173:11178   */\n      dup3\n        /* \"#utility.yul\":11155:11179   */\n      tag_154\n      jump\t// in\n    tag_315:\n        /* \"#utility.yul\":11146:11179   */\n      swap2\n      pop\n        /* \"#utility.yul\":11201:11267   */\n      0xffffffffffffffffffffffffffffffffffffffffffffffffffffffffffffffff\n        /* \"#utility.yul\":11194:11199   */\n      dup3\n        /* \"#utility.yul\":11191:11268   */\n      sub\n        /* \"#utility.yul\":11188:11291   */\n      tag_316\n      jumpi\n        /* \"#utility.yul\":11271:11289   */\n      tag_317\n      tag_185\n      jump\t// in\n    tag_317:\n        /* \"#utility.yul\":11188:11291   */\n    tag_316:\n        /* \"#utility.yul\":11318:11319   */\n      0x01\n        /* \"#utility.yul\":11311:11316   */\n      dup3\n        /* \"#utility.yul\":11307:11320   */\n      add\n        /* \"#utility.yul\":11300:11320   */\n      swap1\n      pop\n        /* \"#utility.yul\":11093:11326   */\n      swap2\n      swap1\n      pop\n      jump\t// out\n        /* \"#utility.yul\":11332:11498   */\n    tag_191:\n        /* \"#utility.yul\":11472:11490   */\n      0x4e6f7420656e6f75676820746f6b656e00000000000000000000000000000000\n        /* \"#utility.yul\":11468:11469   */\n      0x00\n        /* \"#utility.yul\":11460:11466   */\n      dup3\n        /* \"#utility.yul\":11456:11470   */\n      add\n        /* \"#utility.yul\":11449:11491   */\n      mstore\n        /* \"#utility.yul\":11332:11498   */\n      pop\n      jump\t// out\n        /* \"#utility.yul\":11504:11870   */\n    tag_192:\n        /* \"#utility.yul\":11646:11649   */\n      0x00\n        /* \"#utility.yul\":11667:11734   */\n      tag_320\n        /* \"#utility.yul\":11731:11733   */\n      0x10\n        /* \"#utility.yul\":11726:11729   */\n      dup4\n        /* \"#utility.yul\":11667:11734   */\n      tag_186\n      jump\t// in\n    tag_320:\n        /* \"#utility.yul\":11660:11734   */\n      swap2\n      pop\n        /* \"#utility.yul\":11743:11836   */\n      tag_321\n        /* \"#utility.yul\":11832:11835   */\n      dup3\n        /* \"#utility.yul\":11743:11836   */\n      tag_191\n      jump\t// in\n    tag_321:\n        /* \"#utility.yul\":11861:11863   */\n      0x20\n        /* \"#utility.yul\":11856:11859   */\n      dup3\n        /* \"#utility.yul\":11852:11864   */\n      add\n        /* \"#utility.yul\":11845:11864   */\n      swap1\n      pop\n        /* \"#utility.yul\":11504:11870   */\n      swap2\n      swap1\n      pop\n      jump\t// out\n        /* \"#utility.yul\":11876:12295   */\n    tag_124:\n        /* \"#utility.yul\":12042:12046   */\n      0x00\n        /* \"#utility.yul\":12080:12082   */\n      0x20\n        /* \"#utility.yul\":12069:12078   */\n      dup3\n        /* \"#utility.yul\":12065:12083   */\n      add\n        /* \"#utility.yul\":12057:12083   */\n      swap1\n      pop\n        /* \"#utility.yul\":12129:12138   */\n      dup2\n        /* \"#utility.yul\":12123:12127   */\n      dup2\n        /* \"#utility.yul\":12119:12139   */\n      sub\n        /* \"#utility.yul\":12115:12116   */\n      0x00\n        /* \"#utility.yul\":12104:12113   */\n      dup4\n        /* \"#utility.yul\":12100:12117   */\n      add\n        /* \"#utility.yul\":12093:12140   */\n      mstore\n        /* \"#utility.yul\":12157:12288   */\n      tag_323\n        /* \"#utility.yul\":12283:12287   */\n      dup2\n        /* \"#utility.yul\":12157:12288   */\n      tag_192\n      jump\t// in\n    tag_323:\n        /* \"#utility.yul\":12149:12288   */\n      swap1\n      pop\n        /* \"#utility.yul\":11876:12295   */\n      swap2\n      swap1\n      pop\n      jump\t// out\n        /* \"#utility.yul\":12301:12606   */\n    tag_126:\n        /* \"#utility.yul\":12341:12344   */\n      0x00\n        /* \"#utility.yul\":12360:12380   */\n      tag_325\n        /* \"#utility.yul\":12378:12379   */\n      dup3\n        /* \"#utility.yul\":12360:12380   */\n      tag_154\n      jump\t// in\n    tag_325:\n        /* \"#utility.yul\":12355:12380   */\n      swap2\n      pop\n        /* \"#utility.yul\":12394:12414   */\n      tag_326\n        /* \"#utility.yul\":12412:12413   */\n      dup4\n        /* \"#utility.yul\":12394:12414   */\n      tag_154\n      jump\t// in\n    tag_326:\n        /* \"#utility.yul\":12389:12414   */\n      swap3\n      pop\n        /* \"#utility.yul\":12548:12549   */\n      dup3\n        /* \"#utility.yul\":12480:12546   */\n      0xffffffffffffffffffffffffffffffffffffffffffffffffffffffffffffffff\n        /* \"#utility.yul\":12476:12550   */\n      sub\n        /* \"#utility.yul\":12473:12474   */\n      dup3\n        /* \"#utility.yul\":12470:12551   */\n      gt\n        /* \"#utility.yul\":12467:12574   */\n      iszero\n      tag_327\n      jumpi\n        /* \"#utility.yul\":12554:12572   */\n      tag_328\n      tag_185\n      jump\t// in\n    tag_328:\n        /* \"#utility.yul\":12467:12574   */\n    tag_327:\n        /* \"#utility.yul\":12598:12599   */\n      dup3\n        /* \"#utility.yul\":12595:12596   */\n      dup3\n        /* \"#utility.yul\":12591:12600   */\n      add\n        /* \"#utility.yul\":12584:12600   */\n      swap1\n      pop\n        /* \"#utility.yul\":12301:12606   */\n      swap3\n      swap2\n      pop\n      pop\n      jump\t// out\n        /* \"#utility.yul\":12612:12788   */\n    tag_193:\n        /* \"#utility.yul\":12752:12780   */\n      0x4e756d626572207469636b6574206f7574206f662072616e6765000000000000\n        /* \"#utility.yul\":12748:12749   */\n      0x00\n        /* \"#utility.yul\":12740:12746   */\n      dup3\n        /* \"#utility.yul\":12736:12750   */\n      add\n        /* \"#utility.yul\":12729:12781   */\n      mstore\n        /* \"#utility.yul\":12612:12788   */\n      pop\n      jump\t// out\n        /* \"#utility.yul\":12794:13160   */\n    tag_194:\n        /* \"#utility.yul\":12936:12939   */\n      0x00\n        /* \"#utility.yul\":12957:13024   */\n      tag_331\n        /* \"#utility.yul\":13021:13023   */\n      0x1a\n        /* \"#utility.yul\":13016:13019   */\n      dup4\n        /* \"#utility.yul\":12957:13024   */\n      tag_186\n      jump\t// in\n    tag_331:\n        /* \"#utility.yul\":12950:13024   */\n      swap2\n      pop\n        /* \"#utility.yul\":13033:13126   */\n      tag_332\n        /* \"#utility.yul\":13122:13125   */\n      dup3\n        /* \"#utility.yul\":13033:13126   */\n      tag_193\n      jump\t// in\n    tag_332:\n        /* \"#utility.yul\":13151:13153   */\n      0x20\n        /* \"#utility.yul\":13146:13149   */\n      dup3\n        /* \"#utility.yul\":13142:13154   */\n      add\n        /* \"#utility.yul\":13135:13154   */\n      swap1\n      pop\n        /* \"#utility.yul\":12794:13160   */\n      swap2\n      swap1\n      pop\n      jump\t// out\n        /* \"#utility.yul\":13166:13585   */\n    tag_130:\n        /* \"#utility.yul\":13332:13336   */\n      0x00\n        /* \"#utility.yul\":13370:13372   */\n      0x20\n        /* \"#utility.yul\":13359:13368   */\n      dup3\n        /* \"#utility.yul\":13355:13373   */\n      add\n        /* \"#utility.yul\":13347:13373   */\n      swap1\n      pop\n        /* \"#utility.yul\":13419:13428   */\n      dup2\n        /* \"#utility.yul\":13413:13417   */\n      dup2\n        /* \"#utility.yul\":13409:13429   */\n      sub\n        /* \"#utility.yul\":13405:13406   */\n      0x00\n        /* \"#utility.yul\":13394:13403   */\n      dup4\n        /* \"#utility.yul\":13390:13407   */\n      add\n        /* \"#utility.yul\":13383:13430   */\n      mstore\n        /* \"#utility.yul\":13447:13578   */\n      tag_334\n        /* \"#utility.yul\":13573:13577   */\n      dup2\n        /* \"#utility.yul\":13447:13578   */\n      tag_194\n      jump\t// in\n    tag_334:\n        /* \"#utility.yul\":13439:13578   */\n      swap1\n      pop\n        /* \"#utility.yul\":13166:13585   */\n      swap2\n      swap1\n      pop\n      jump\t// out\n        /* \"#utility.yul\":13591:13782   */\n    tag_142:\n        /* \"#utility.yul\":13631:13635   */\n      0x00\n        /* \"#utility.yul\":13651:13671   */\n      tag_336\n        /* \"#utility.yul\":13669:13670   */\n      dup3\n        /* \"#utility.yul\":13651:13671   */\n      tag_154\n      jump\t// in\n    tag_336:\n        /* \"#utility.yul\":13646:13671   */\n      swap2\n      pop\n        /* \"#utility.yul\":13685:13705   */\n      tag_337\n        /* \"#utility.yul\":13703:13704   */\n      dup4\n        /* \"#utility.yul\":13685:13705   */\n      tag_154\n      jump\t// in\n    tag_337:\n        /* \"#utility.yul\":13680:13705   */\n      swap3\n      pop\n        /* \"#utility.yul\":13724:13725   */\n      dup3\n        /* \"#utility.yul\":13721:13722   */\n      dup3\n        /* \"#utility.yul\":13718:13726   */\n      lt\n        /* \"#utility.yul\":13715:13749   */\n      iszero\n      tag_338\n      jumpi\n        /* \"#utility.yul\":13729:13747   */\n      tag_339\n      tag_185\n      jump\t// in\n    tag_339:\n        /* \"#utility.yul\":13715:13749   */\n    tag_338:\n        /* \"#utility.yul\":13774:13775   */\n      dup3\n        /* \"#utility.yul\":13771:13772   */\n      dup3\n        /* \"#utility.yul\":13767:13776   */\n      sub\n        /* \"#utility.yul\":13759:13776   */\n      swap1\n      pop\n        /* \"#utility.yul\":13591:13782   */\n      swap3\n      swap2\n      pop\n      pop\n      jump\t// out\n\n    auxdata: 0xa2646970667358221220c69cbc658c122ea6b2f5b09d644346cd6cdff7e07a2ce1512293d52d969ca8bc64736f6c634300080f0033\n}\n",
				"bytecode": {
					"linkReferences": {},
					"object": "60a0604052620186a06000806101000a81548163ffffffff021916908363ffffffff1602179055506003600060046101000a81548161ffff021916908361ffff1602179055506002600060066101000a81548163ffffffff021916908363ffffffff16021790555033600360006101000a81548173ffffffffffffffffffffffffffffffffffffffff021916908373ffffffffffffffffffffffffffffffffffffffff16021790555060006007553480156100b957600080fd5b50736168499c0cffcacd319c818142124b7a15e857ab8073ffffffffffffffffffffffffffffffffffffffff1660808173ffffffffffffffffffffffffffffffffffffffff1681525050506080516112656101266000396000818161035c01526103b001526112656000f3fe6080604052600436106100c25760003560e01c8063693521d51161007f578063ce10b8ad11610059578063ce10b8ad14610236578063e580f47b1461025f578063e89e106a1461028a578063f6eaffc8146102b5576100c2565b8063693521d5146101d85780636fd0981614610203578063a59f3e0c1461021a576100c2565b806312065fe0146100c757806318b425ff146100f25780631fe543e31461012f57806332eb85a414610158578063391ea70014610183578063460e20491461019a575b600080fd5b3480156100d357600080fd5b506100dc6102f2565b6040516100e99190610a94565b60405180910390f35b3480156100fe57600080fd5b5061011960048036038101906101149190610aef565b6102fc565b6040516101269190610b5d565b60405180910390f35b34801561013b57600080fd5b5061015660048036038101906101519190610cd1565b61035a565b005b34801561016457600080fd5b5061016d61041a565b60405161017a9190610a94565b60405180910390f35b34801561018f57600080fd5b50610198610424565b005b3480156101a657600080fd5b506101c160048036038101906101bc9190610aef565b6105a1565b6040516101cf929190610d4e565b60405180910390f35b3480156101e457600080fd5b506101ed6105ef565b6040516101fa9190610a94565b60405180910390f35b34801561020f57600080fd5b50610218610612565b005b610234600480360381019061022f9190610aef565b6107a5565b005b34801561024257600080fd5b5061025d60048036038101906102589190610aef565b610945565b005b34801561026b57600080fd5b50610274610948565b6040516102819190610a94565b60405180910390f35b34801561029657600080fd5b5061029f61094e565b6040516102ac9190610a94565b60405180910390f35b3480156102c157600080fd5b506102dc60048036038101906102d79190610aef565b610954565b6040516102e99190610a94565b60405180910390f35b6000600854905090565b6000600560006009548152602001908152602001600020600001828154811061032857610327610d77565b5b9060005260206000200160009054906101000a900473ffffffffffffffffffffffffffffffffffffffff169050919050565b7f000000000000000000000000000000000000000000000000000000000000000073ffffffffffffffffffffffffffffffffffffffff163373ffffffffffffffffffffffffffffffffffffffff161461040c57337f00000000000000000000000000000000000000000000000000000000000000006040517f1cf993f4000000000000000000000000000000000000000000000000000000008152600401610403929190610da6565b60405180910390fd5b6104168282610978565b5050565b6000600754905090565b600360009054906101000a900473ffffffffffffffffffffffffffffffffffffffff1673ffffffffffffffffffffffffffffffffffffffff163373ffffffffffffffffffffffffffffffffffffffff161461047e57600080fd5b600754736168499c0cffcacd319c818142124b7a15e857ab73ffffffffffffffffffffffffffffffffffffffff16635d3b1d307fd89b2bf150e3b9e13446986e571fb9cab24b13cea0a43ea20a6049a85cc807cc60001b611cca600060049054906101000a900461ffff1660008054906101000a900463ffffffff16600060069054906101000a900463ffffffff166040518663ffffffff1660e01b815260040161052d959493929190610e47565b6020604051808303816000875af115801561054c573d6000803e3d6000fd5b505050506040513d601f19601f820116820180604052508101906105709190610eaf565b61057a9190610f0b565b60028190555060066000600254815260200190815260200160002060010154600981905550565b60008060006006600085815260200190815260200160002090508060000160009054906101000a900473ffffffffffffffffffffffffffffffffffffffff1681600101549250925050915091565b600060056000600954815260200190815260200160002060000180549050905090565b600360009054906101000a900473ffffffffffffffffffffffffffffffffffffffff1673ffffffffffffffffffffffffffffffffffffffff163373ffffffffffffffffffffffffffffffffffffffff161461066c57600080fd5b600060056000600954815260200190815260200160002060000180549050905060008160085461069c9190610f6b565b9050600047036106e1576040517f08c379a00000000000000000000000000000000000000000000000000000000081526004016106d890610ff9565b60405180910390fd5b60008203610724576040517f08c379a000000000000000000000000000000000000000000000000000000000815260040161071b90611065565b60405180910390fd5b60005b828110156107a05761078d82600560006009548152602001908152602001600020600001838154811061075d5761075c610d77565b5b9060005260206000200160009054906101000a900473ffffffffffffffffffffffffffffffffffffffff16610993565b808061079890611085565b915050610727565b505050565b60023410156107e9576040517f08c379a00000000000000000000000000000000000000000000000000000000081526004016107e090611119565b60405180910390fd5b34600860008282546107fb9190611139565b92505081905550600181101580156108145750600a8111155b610853576040517f08c379a000000000000000000000000000000000000000000000000000000000815260040161084a906111db565b60405180910390fd5b60006006600060075481526020019081526020016000209050338160000160006101000a81548173ffffffffffffffffffffffffffffffffffffffff021916908373ffffffffffffffffffffffffffffffffffffffff16021790555081816001018190555060006005600083600101548152602001908152602001600020905080600001339080600181540180825580915050600190039060005260206000200160009091909190916101000a81548173ffffffffffffffffffffffffffffffffffffffff021916908373ffffffffffffffffffffffffffffffffffffffff1602179055506109406109f7565b505050565b50565b60045481565b60025481565b6001818154811061096457600080fd5b906000526020600020016000915090505481565b806001908051906020019061098e929190610a11565b505050565b81600860008282546109a591906111fb565b925050819055508073ffffffffffffffffffffffffffffffffffffffff166108fc839081150290604051600060405180830381858888f193505050501580156109f2573d6000803e3d6000fd5b505050565b60076000815480929190610a0a90611085565b9190505550565b828054828255906000526020600020908101928215610a4d579160200282015b82811115610a4c578251825591602001919060010190610a31565b5b509050610a5a9190610a5e565b5090565b5b80821115610a77576000816000905550600101610a5f565b5090565b6000819050919050565b610a8e81610a7b565b82525050565b6000602082019050610aa96000830184610a85565b92915050565b6000604051905090565b600080fd5b600080fd5b610acc81610a7b565b8114610ad757600080fd5b50565b600081359050610ae981610ac3565b92915050565b600060208284031215610b0557610b04610ab9565b5b6000610b1384828501610ada565b91505092915050565b600073ffffffffffffffffffffffffffffffffffffffff82169050919050565b6000610b4782610b1c565b9050919050565b610b5781610b3c565b82525050565b6000602082019050610b726000830184610b4e565b92915050565b600080fd5b6000601f19601f8301169050919050565b7f4e487b7100000000000000000000000000000000000000000000000000000000600052604160045260246000fd5b610bc682610b7d565b810181811067ffffffffffffffff82111715610be557610be4610b8e565b5b80604052505050565b6000610bf8610aaf565b9050610c048282610bbd565b919050565b600067ffffffffffffffff821115610c2457610c23610b8e565b5b602082029050602081019050919050565b600080fd5b6000610c4d610c4884610c09565b610bee565b90508083825260208201905060208402830185811115610c7057610c6f610c35565b5b835b81811015610c995780610c858882610ada565b845260208401935050602081019050610c72565b5050509392505050565b600082601f830112610cb857610cb7610b78565b5b8135610cc8848260208601610c3a565b91505092915050565b60008060408385031215610ce857610ce7610ab9565b5b6000610cf685828601610ada565b925050602083013567ffffffffffffffff811115610d1757610d16610abe565b5b610d2385828601610ca3565b9150509250929050565b6000610d3882610b1c565b9050919050565b610d4881610d2d565b82525050565b6000604082019050610d636000830185610d3f565b610d706020830184610a85565b9392505050565b7f4e487b7100000000000000000000000000000000000000000000000000000000600052603260045260246000fd5b6000604082019050610dbb6000830185610b4e565b610dc86020830184610b4e565b9392505050565b6000819050919050565b610de281610dcf565b82525050565b600067ffffffffffffffff82169050919050565b610e0581610de8565b82525050565b600061ffff82169050919050565b610e2281610e0b565b82525050565b600063ffffffff82169050919050565b610e4181610e28565b82525050565b600060a082019050610e5c6000830188610dd9565b610e696020830187610dfc565b610e766040830186610e19565b610e836060830185610e38565b610e906080830184610e38565b9695505050505050565b600081519050610ea981610ac3565b92915050565b600060208284031215610ec557610ec4610ab9565b5b6000610ed384828501610e9a565b91505092915050565b7f4e487b7100000000000000000000000000000000000000000000000000000000600052601260045260246000fd5b6000610f1682610a7b565b9150610f2183610a7b565b925082610f3157610f30610edc565b5b828206905092915050565b7f4e487b7100000000000000000000000000000000000000000000000000000000600052601160045260246000fd5b6000610f7682610a7b565b9150610f8183610a7b565b925082610f9157610f90610edc565b5b828204905092915050565b600082825260208201905092915050565b7f7072697a65506f6f6c20697320656d7074790000000000000000000000000000600082015250565b6000610fe3601283610f9c565b9150610fee82610fad565b602082019050919050565b6000602082019050818103600083015261101281610fd6565b9050919050565b7f4e6f2077696e6e65720000000000000000000000000000000000000000000000600082015250565b600061104f600983610f9c565b915061105a82611019565b602082019050919050565b6000602082019050818103600083015261107e81611042565b9050919050565b600061109082610a7b565b91507fffffffffffffffffffffffffffffffffffffffffffffffffffffffffffffffff82036110c2576110c1610f3c565b5b600182019050919050565b7f4e6f7420656e6f75676820746f6b656e00000000000000000000000000000000600082015250565b6000611103601083610f9c565b915061110e826110cd565b602082019050919050565b60006020820190508181036000830152611132816110f6565b9050919050565b600061114482610a7b565b915061114f83610a7b565b9250827fffffffffffffffffffffffffffffffffffffffffffffffffffffffffffffffff0382111561118457611183610f3c565b5b828201905092915050565b7f4e756d626572207469636b6574206f7574206f662072616e6765000000000000600082015250565b60006111c5601a83610f9c565b91506111d08261118f565b602082019050919050565b600060208201905081810360008301526111f4816111b8565b9050919050565b600061120682610a7b565b915061121183610a7b565b92508282101561122457611223610f3c565b5b82820390509291505056fea2646970667358221220c69cbc658c122ea6b2f5b09d644346cd6cdff7e07a2ce1512293d52d969ca8bc64736f6c634300080f0033",
					"opcodes": "PUSH1 0xA0 PUSH1 0x40 MSTORE PUSH3 0x186A0 PUSH1 0x0 DUP1 PUSH2 0x100 EXP DUP2 SLOAD DUP2 PUSH4 0xFFFFFFFF MUL NOT AND SWAP1 DUP4 PUSH4 0xFFFFFFFF AND MUL OR SWAP1 SSTORE POP PUSH1 0x3 PUSH1 0x0 PUSH1 0x4 PUSH2 0x100 EXP DUP2 SLOAD DUP2 PUSH2 0xFFFF MUL NOT AND SWAP1 DUP4 PUSH2 0xFFFF AND MUL OR SWAP1 SSTORE POP PUSH1 0x2 PUSH1 0x0 PUSH1 0x6 PUSH2 0x100 EXP DUP2 SLOAD DUP2 PUSH4 0xFFFFFFFF MUL NOT AND SWAP1 DUP4 PUSH4 0xFFFFFFFF AND MUL OR SWAP1 SSTORE POP CALLER PUSH1 0x3 PUSH1 0x0 PUSH2 0x100 EXP DUP2 SLOAD DUP2 PUSH20 0xFFFFFFFFFFFFFFFFFFFFFFFFFFFFFFFFFFFFFFFF MUL NOT AND SWAP1 DUP4 PUSH20 0xFFFFFFFFFFFFFFFFFFFFFFFFFFFFFFFFFFFFFFFF AND MUL OR SWAP1 SSTORE POP PUSH1 0x0 PUSH1 0x7 SSTORE CALLVALUE DUP1 ISZERO PUSH2 0xB9 JUMPI PUSH1 0x0 DUP1 REVERT JUMPDEST POP PUSH20 0x6168499C0CFFCACD319C818142124B7A15E857AB DUP1 PUSH20 0xFFFFFFFFFFFFFFFFFFFFFFFFFFFFFFFFFFFFFFFF AND PUSH1 0x80 DUP2 PUSH20 0xFFFFFFFFFFFFFFFFFFFFFFFFFFFFFFFFFFFFFFFF AND DUP2 MSTORE POP POP POP PUSH1 0x80 MLOAD PUSH2 0x1265 PUSH2 0x126 PUSH1 0x0 CODECOPY PUSH1 0x0 DUP2 DUP2 PUSH2 0x35C ADD MSTORE PUSH2 0x3B0 ADD MSTORE PUSH2 0x1265 PUSH1 0x0 RETURN INVALID PUSH1 0x80 PUSH1 0x40 MSTORE PUSH1 0x4 CALLDATASIZE LT PUSH2 0xC2 JUMPI PUSH1 0x0 CALLDATALOAD PUSH1 0xE0 SHR DUP1 PUSH4 0x693521D5 GT PUSH2 0x7F JUMPI DUP1 PUSH4 0xCE10B8AD GT PUSH2 0x59 JUMPI DUP1 PUSH4 0xCE10B8AD EQ PUSH2 0x236 JUMPI DUP1 PUSH4 0xE580F47B EQ PUSH2 0x25F JUMPI DUP1 PUSH4 0xE89E106A EQ PUSH2 0x28A JUMPI DUP1 PUSH4 0xF6EAFFC8 EQ PUSH2 0x2B5 JUMPI PUSH2 0xC2 JUMP JUMPDEST DUP1 PUSH4 0x693521D5 EQ PUSH2 0x1D8 JUMPI DUP1 PUSH4 0x6FD09816 EQ PUSH2 0x203 JUMPI DUP1 PUSH4 0xA59F3E0C EQ PUSH2 0x21A JUMPI PUSH2 0xC2 JUMP JUMPDEST DUP1 PUSH4 0x12065FE0 EQ PUSH2 0xC7 JUMPI DUP1 PUSH4 0x18B425FF EQ PUSH2 0xF2 JUMPI DUP1 PUSH4 0x1FE543E3 EQ PUSH2 0x12F JUMPI DUP1 PUSH4 0x32EB85A4 EQ PUSH2 0x158 JUMPI DUP1 PUSH4 0x391EA700 EQ PUSH2 0x183 JUMPI DUP1 PUSH4 0x460E2049 EQ PUSH2 0x19A JUMPI JUMPDEST PUSH1 0x0 DUP1 REVERT JUMPDEST CALLVALUE DUP1 ISZERO PUSH2 0xD3 JUMPI PUSH1 0x0 DUP1 REVERT JUMPDEST POP PUSH2 0xDC PUSH2 0x2F2 JUMP JUMPDEST PUSH1 0x40 MLOAD PUSH2 0xE9 SWAP2 SWAP1 PUSH2 0xA94 JUMP JUMPDEST PUSH1 0x40 MLOAD DUP1 SWAP2 SUB SWAP1 RETURN JUMPDEST CALLVALUE DUP1 ISZERO PUSH2 0xFE JUMPI PUSH1 0x0 DUP1 REVERT JUMPDEST POP PUSH2 0x119 PUSH1 0x4 DUP1 CALLDATASIZE SUB DUP2 ADD SWAP1 PUSH2 0x114 SWAP2 SWAP1 PUSH2 0xAEF JUMP JUMPDEST PUSH2 0x2FC JUMP JUMPDEST PUSH1 0x40 MLOAD PUSH2 0x126 SWAP2 SWAP1 PUSH2 0xB5D JUMP JUMPDEST PUSH1 0x40 MLOAD DUP1 SWAP2 SUB SWAP1 RETURN JUMPDEST CALLVALUE DUP1 ISZERO PUSH2 0x13B JUMPI PUSH1 0x0 DUP1 REVERT JUMPDEST POP PUSH2 0x156 PUSH1 0x4 DUP1 CALLDATASIZE SUB DUP2 ADD SWAP1 PUSH2 0x151 SWAP2 SWAP1 PUSH2 0xCD1 JUMP JUMPDEST PUSH2 0x35A JUMP JUMPDEST STOP JUMPDEST CALLVALUE DUP1 ISZERO PUSH2 0x164 JUMPI PUSH1 0x0 DUP1 REVERT JUMPDEST POP PUSH2 0x16D PUSH2 0x41A JUMP JUMPDEST PUSH1 0x40 MLOAD PUSH2 0x17A SWAP2 SWAP1 PUSH2 0xA94 JUMP JUMPDEST PUSH1 0x40 MLOAD DUP1 SWAP2 SUB SWAP1 RETURN JUMPDEST CALLVALUE DUP1 ISZERO PUSH2 0x18F JUMPI PUSH1 0x0 DUP1 REVERT JUMPDEST POP PUSH2 0x198 PUSH2 0x424 JUMP JUMPDEST STOP JUMPDEST CALLVALUE DUP1 ISZERO PUSH2 0x1A6 JUMPI PUSH1 0x0 DUP1 REVERT JUMPDEST POP PUSH2 0x1C1 PUSH1 0x4 DUP1 CALLDATASIZE SUB DUP2 ADD SWAP1 PUSH2 0x1BC SWAP2 SWAP1 PUSH2 0xAEF JUMP JUMPDEST PUSH2 0x5A1 JUMP JUMPDEST PUSH1 0x40 MLOAD PUSH2 0x1CF SWAP3 SWAP2 SWAP1 PUSH2 0xD4E JUMP JUMPDEST PUSH1 0x40 MLOAD DUP1 SWAP2 SUB SWAP1 RETURN JUMPDEST CALLVALUE DUP1 ISZERO PUSH2 0x1E4 JUMPI PUSH1 0x0 DUP1 REVERT JUMPDEST POP PUSH2 0x1ED PUSH2 0x5EF JUMP JUMPDEST PUSH1 0x40 MLOAD PUSH2 0x1FA SWAP2 SWAP1 PUSH2 0xA94 JUMP JUMPDEST PUSH1 0x40 MLOAD DUP1 SWAP2 SUB SWAP1 RETURN JUMPDEST CALLVALUE DUP1 ISZERO PUSH2 0x20F JUMPI PUSH1 0x0 DUP1 REVERT JUMPDEST POP PUSH2 0x218 PUSH2 0x612 JUMP JUMPDEST STOP JUMPDEST PUSH2 0x234 PUSH1 0x4 DUP1 CALLDATASIZE SUB DUP2 ADD SWAP1 PUSH2 0x22F SWAP2 SWAP1 PUSH2 0xAEF JUMP JUMPDEST PUSH2 0x7A5 JUMP JUMPDEST STOP JUMPDEST CALLVALUE DUP1 ISZERO PUSH2 0x242 JUMPI PUSH1 0x0 DUP1 REVERT JUMPDEST POP PUSH2 0x25D PUSH1 0x4 DUP1 CALLDATASIZE SUB DUP2 ADD SWAP1 PUSH2 0x258 SWAP2 SWAP1 PUSH2 0xAEF JUMP JUMPDEST PUSH2 0x945 JUMP JUMPDEST STOP JUMPDEST CALLVALUE DUP1 ISZERO PUSH2 0x26B JUMPI PUSH1 0x0 DUP1 REVERT JUMPDEST POP PUSH2 0x274 PUSH2 0x948 JUMP JUMPDEST PUSH1 0x40 MLOAD PUSH2 0x281 SWAP2 SWAP1 PUSH2 0xA94 JUMP JUMPDEST PUSH1 0x40 MLOAD DUP1 SWAP2 SUB SWAP1 RETURN JUMPDEST CALLVALUE DUP1 ISZERO PUSH2 0x296 JUMPI PUSH1 0x0 DUP1 REVERT JUMPDEST POP PUSH2 0x29F PUSH2 0x94E JUMP JUMPDEST PUSH1 0x40 MLOAD PUSH2 0x2AC SWAP2 SWAP1 PUSH2 0xA94 JUMP JUMPDEST PUSH1 0x40 MLOAD DUP1 SWAP2 SUB SWAP1 RETURN JUMPDEST CALLVALUE DUP1 ISZERO PUSH2 0x2C1 JUMPI PUSH1 0x0 DUP1 REVERT JUMPDEST POP PUSH2 0x2DC PUSH1 0x4 DUP1 CALLDATASIZE SUB DUP2 ADD SWAP1 PUSH2 0x2D7 SWAP2 SWAP1 PUSH2 0xAEF JUMP JUMPDEST PUSH2 0x954 JUMP JUMPDEST PUSH1 0x40 MLOAD PUSH2 0x2E9 SWAP2 SWAP1 PUSH2 0xA94 JUMP JUMPDEST PUSH1 0x40 MLOAD DUP1 SWAP2 SUB SWAP1 RETURN JUMPDEST PUSH1 0x0 PUSH1 0x8 SLOAD SWAP1 POP SWAP1 JUMP JUMPDEST PUSH1 0x0 PUSH1 0x5 PUSH1 0x0 PUSH1 0x9 SLOAD DUP2 MSTORE PUSH1 0x20 ADD SWAP1 DUP2 MSTORE PUSH1 0x20 ADD PUSH1 0x0 KECCAK256 PUSH1 0x0 ADD DUP3 DUP2 SLOAD DUP2 LT PUSH2 0x328 JUMPI PUSH2 0x327 PUSH2 0xD77 JUMP JUMPDEST JUMPDEST SWAP1 PUSH1 0x0 MSTORE PUSH1 0x20 PUSH1 0x0 KECCAK256 ADD PUSH1 0x0 SWAP1 SLOAD SWAP1 PUSH2 0x100 EXP SWAP1 DIV PUSH20 0xFFFFFFFFFFFFFFFFFFFFFFFFFFFFFFFFFFFFFFFF AND SWAP1 POP SWAP2 SWAP1 POP JUMP JUMPDEST PUSH32 0x0 PUSH20 0xFFFFFFFFFFFFFFFFFFFFFFFFFFFFFFFFFFFFFFFF AND CALLER PUSH20 0xFFFFFFFFFFFFFFFFFFFFFFFFFFFFFFFFFFFFFFFF AND EQ PUSH2 0x40C JUMPI CALLER PUSH32 0x0 PUSH1 0x40 MLOAD PUSH32 0x1CF993F400000000000000000000000000000000000000000000000000000000 DUP2 MSTORE PUSH1 0x4 ADD PUSH2 0x403 SWAP3 SWAP2 SWAP1 PUSH2 0xDA6 JUMP JUMPDEST PUSH1 0x40 MLOAD DUP1 SWAP2 SUB SWAP1 REVERT JUMPDEST PUSH2 0x416 DUP3 DUP3 PUSH2 0x978 JUMP JUMPDEST POP POP JUMP JUMPDEST PUSH1 0x0 PUSH1 0x7 SLOAD SWAP1 POP SWAP1 JUMP JUMPDEST PUSH1 0x3 PUSH1 0x0 SWAP1 SLOAD SWAP1 PUSH2 0x100 EXP SWAP1 DIV PUSH20 0xFFFFFFFFFFFFFFFFFFFFFFFFFFFFFFFFFFFFFFFF AND PUSH20 0xFFFFFFFFFFFFFFFFFFFFFFFFFFFFFFFFFFFFFFFF AND CALLER PUSH20 0xFFFFFFFFFFFFFFFFFFFFFFFFFFFFFFFFFFFFFFFF AND EQ PUSH2 0x47E JUMPI PUSH1 0x0 DUP1 REVERT JUMPDEST PUSH1 0x7 SLOAD PUSH20 0x6168499C0CFFCACD319C818142124B7A15E857AB PUSH20 0xFFFFFFFFFFFFFFFFFFFFFFFFFFFFFFFFFFFFFFFF AND PUSH4 0x5D3B1D30 PUSH32 0xD89B2BF150E3B9E13446986E571FB9CAB24B13CEA0A43EA20A6049A85CC807CC PUSH1 0x0 SHL PUSH2 0x1CCA PUSH1 0x0 PUSH1 0x4 SWAP1 SLOAD SWAP1 PUSH2 0x100 EXP SWAP1 DIV PUSH2 0xFFFF AND PUSH1 0x0 DUP1 SLOAD SWAP1 PUSH2 0x100 EXP SWAP1 DIV PUSH4 0xFFFFFFFF AND PUSH1 0x0 PUSH1 0x6 SWAP1 SLOAD SWAP1 PUSH2 0x100 EXP SWAP1 DIV PUSH4 0xFFFFFFFF AND PUSH1 0x40 MLOAD DUP7 PUSH4 0xFFFFFFFF AND PUSH1 0xE0 SHL DUP2 MSTORE PUSH1 0x4 ADD PUSH2 0x52D SWAP6 SWAP5 SWAP4 SWAP3 SWAP2 SWAP1 PUSH2 0xE47 JUMP JUMPDEST PUSH1 0x20 PUSH1 0x40 MLOAD DUP1 DUP4 SUB DUP2 PUSH1 0x0 DUP8 GAS CALL ISZERO DUP1 ISZERO PUSH2 0x54C JUMPI RETURNDATASIZE PUSH1 0x0 DUP1 RETURNDATACOPY RETURNDATASIZE PUSH1 0x0 REVERT JUMPDEST POP POP POP POP PUSH1 0x40 MLOAD RETURNDATASIZE PUSH1 0x1F NOT PUSH1 0x1F DUP3 ADD AND DUP3 ADD DUP1 PUSH1 0x40 MSTORE POP DUP2 ADD SWAP1 PUSH2 0x570 SWAP2 SWAP1 PUSH2 0xEAF JUMP JUMPDEST PUSH2 0x57A SWAP2 SWAP1 PUSH2 0xF0B JUMP JUMPDEST PUSH1 0x2 DUP2 SWAP1 SSTORE POP PUSH1 0x6 PUSH1 0x0 PUSH1 0x2 SLOAD DUP2 MSTORE PUSH1 0x20 ADD SWAP1 DUP2 MSTORE PUSH1 0x20 ADD PUSH1 0x0 KECCAK256 PUSH1 0x1 ADD SLOAD PUSH1 0x9 DUP2 SWAP1 SSTORE POP JUMP JUMPDEST PUSH1 0x0 DUP1 PUSH1 0x0 PUSH1 0x6 PUSH1 0x0 DUP6 DUP2 MSTORE PUSH1 0x20 ADD SWAP1 DUP2 MSTORE PUSH1 0x20 ADD PUSH1 0x0 KECCAK256 SWAP1 POP DUP1 PUSH1 0x0 ADD PUSH1 0x0 SWAP1 SLOAD SWAP1 PUSH2 0x100 EXP SWAP1 DIV PUSH20 0xFFFFFFFFFFFFFFFFFFFFFFFFFFFFFFFFFFFFFFFF AND DUP2 PUSH1 0x1 ADD SLOAD SWAP3 POP SWAP3 POP POP SWAP2 POP SWAP2 JUMP JUMPDEST PUSH1 0x0 PUSH1 0x5 PUSH1 0x0 PUSH1 0x9 SLOAD DUP2 MSTORE PUSH1 0x20 ADD SWAP1 DUP2 MSTORE PUSH1 0x20 ADD PUSH1 0x0 KECCAK256 PUSH1 0x0 ADD DUP1 SLOAD SWAP1 POP SWAP1 POP SWAP1 JUMP JUMPDEST PUSH1 0x3 PUSH1 0x0 SWAP1 SLOAD SWAP1 PUSH2 0x100 EXP SWAP1 DIV PUSH20 0xFFFFFFFFFFFFFFFFFFFFFFFFFFFFFFFFFFFFFFFF AND PUSH20 0xFFFFFFFFFFFFFFFFFFFFFFFFFFFFFFFFFFFFFFFF AND CALLER PUSH20 0xFFFFFFFFFFFFFFFFFFFFFFFFFFFFFFFFFFFFFFFF AND EQ PUSH2 0x66C JUMPI PUSH1 0x0 DUP1 REVERT JUMPDEST PUSH1 0x0 PUSH1 0x5 PUSH1 0x0 PUSH1 0x9 SLOAD DUP2 MSTORE PUSH1 0x20 ADD SWAP1 DUP2 MSTORE PUSH1 0x20 ADD PUSH1 0x0 KECCAK256 PUSH1 0x0 ADD DUP1 SLOAD SWAP1 POP SWAP1 POP PUSH1 0x0 DUP2 PUSH1 0x8 SLOAD PUSH2 0x69C SWAP2 SWAP1 PUSH2 0xF6B JUMP JUMPDEST SWAP1 POP PUSH1 0x0 SELFBALANCE SUB PUSH2 0x6E1 JUMPI PUSH1 0x40 MLOAD PUSH32 0x8C379A000000000000000000000000000000000000000000000000000000000 DUP2 MSTORE PUSH1 0x4 ADD PUSH2 0x6D8 SWAP1 PUSH2 0xFF9 JUMP JUMPDEST PUSH1 0x40 MLOAD DUP1 SWAP2 SUB SWAP1 REVERT JUMPDEST PUSH1 0x0 DUP3 SUB PUSH2 0x724 JUMPI PUSH1 0x40 MLOAD PUSH32 0x8C379A000000000000000000000000000000000000000000000000000000000 DUP2 MSTORE PUSH1 0x4 ADD PUSH2 0x71B SWAP1 PUSH2 0x1065 JUMP JUMPDEST PUSH1 0x40 MLOAD DUP1 SWAP2 SUB SWAP1 REVERT JUMPDEST PUSH1 0x0 JUMPDEST DUP3 DUP2 LT ISZERO PUSH2 0x7A0 JUMPI PUSH2 0x78D DUP3 PUSH1 0x5 PUSH1 0x0 PUSH1 0x9 SLOAD DUP2 MSTORE PUSH1 0x20 ADD SWAP1 DUP2 MSTORE PUSH1 0x20 ADD PUSH1 0x0 KECCAK256 PUSH1 0x0 ADD DUP4 DUP2 SLOAD DUP2 LT PUSH2 0x75D JUMPI PUSH2 0x75C PUSH2 0xD77 JUMP JUMPDEST JUMPDEST SWAP1 PUSH1 0x0 MSTORE PUSH1 0x20 PUSH1 0x0 KECCAK256 ADD PUSH1 0x0 SWAP1 SLOAD SWAP1 PUSH2 0x100 EXP SWAP1 DIV PUSH20 0xFFFFFFFFFFFFFFFFFFFFFFFFFFFFFFFFFFFFFFFF AND PUSH2 0x993 JUMP JUMPDEST DUP1 DUP1 PUSH2 0x798 SWAP1 PUSH2 0x1085 JUMP JUMPDEST SWAP2 POP POP PUSH2 0x727 JUMP JUMPDEST POP POP POP JUMP JUMPDEST PUSH1 0x2 CALLVALUE LT ISZERO PUSH2 0x7E9 JUMPI PUSH1 0x40 MLOAD PUSH32 0x8C379A000000000000000000000000000000000000000000000000000000000 DUP2 MSTORE PUSH1 0x4 ADD PUSH2 0x7E0 SWAP1 PUSH2 0x1119 JUMP JUMPDEST PUSH1 0x40 MLOAD DUP1 SWAP2 SUB SWAP1 REVERT JUMPDEST CALLVALUE PUSH1 0x8 PUSH1 0x0 DUP3 DUP3 SLOAD PUSH2 0x7FB SWAP2 SWAP1 PUSH2 0x1139 JUMP JUMPDEST SWAP3 POP POP DUP2 SWAP1 SSTORE POP PUSH1 0x1 DUP2 LT ISZERO DUP1 ISZERO PUSH2 0x814 JUMPI POP PUSH1 0xA DUP2 GT ISZERO JUMPDEST PUSH2 0x853 JUMPI PUSH1 0x40 MLOAD PUSH32 0x8C379A000000000000000000000000000000000000000000000000000000000 DUP2 MSTORE PUSH1 0x4 ADD PUSH2 0x84A SWAP1 PUSH2 0x11DB JUMP JUMPDEST PUSH1 0x40 MLOAD DUP1 SWAP2 SUB SWAP1 REVERT JUMPDEST PUSH1 0x0 PUSH1 0x6 PUSH1 0x0 PUSH1 0x7 SLOAD DUP2 MSTORE PUSH1 0x20 ADD SWAP1 DUP2 MSTORE PUSH1 0x20 ADD PUSH1 0x0 KECCAK256 SWAP1 POP CALLER DUP2 PUSH1 0x0 ADD PUSH1 0x0 PUSH2 0x100 EXP DUP2 SLOAD DUP2 PUSH20 0xFFFFFFFFFFFFFFFFFFFFFFFFFFFFFFFFFFFFFFFF MUL NOT AND SWAP1 DUP4 PUSH20 0xFFFFFFFFFFFFFFFFFFFFFFFFFFFFFFFFFFFFFFFF AND MUL OR SWAP1 SSTORE POP DUP2 DUP2 PUSH1 0x1 ADD DUP2 SWAP1 SSTORE POP PUSH1 0x0 PUSH1 0x5 PUSH1 0x0 DUP4 PUSH1 0x1 ADD SLOAD DUP2 MSTORE PUSH1 0x20 ADD SWAP1 DUP2 MSTORE PUSH1 0x20 ADD PUSH1 0x0 KECCAK256 SWAP1 POP DUP1 PUSH1 0x0 ADD CALLER SWAP1 DUP1 PUSH1 0x1 DUP2 SLOAD ADD DUP1 DUP3 SSTORE DUP1 SWAP2 POP POP PUSH1 0x1 SWAP1 SUB SWAP1 PUSH1 0x0 MSTORE PUSH1 0x20 PUSH1 0x0 KECCAK256 ADD PUSH1 0x0 SWAP1 SWAP2 SWAP1 SWAP2 SWAP1 SWAP2 PUSH2 0x100 EXP DUP2 SLOAD DUP2 PUSH20 0xFFFFFFFFFFFFFFFFFFFFFFFFFFFFFFFFFFFFFFFF MUL NOT AND SWAP1 DUP4 PUSH20 0xFFFFFFFFFFFFFFFFFFFFFFFFFFFFFFFFFFFFFFFF AND MUL OR SWAP1 SSTORE POP PUSH2 0x940 PUSH2 0x9F7 JUMP JUMPDEST POP POP POP JUMP JUMPDEST POP JUMP JUMPDEST PUSH1 0x4 SLOAD DUP2 JUMP JUMPDEST PUSH1 0x2 SLOAD DUP2 JUMP JUMPDEST PUSH1 0x1 DUP2 DUP2 SLOAD DUP2 LT PUSH2 0x964 JUMPI PUSH1 0x0 DUP1 REVERT JUMPDEST SWAP1 PUSH1 0x0 MSTORE PUSH1 0x20 PUSH1 0x0 KECCAK256 ADD PUSH1 0x0 SWAP2 POP SWAP1 POP SLOAD DUP2 JUMP JUMPDEST DUP1 PUSH1 0x1 SWAP1 DUP1 MLOAD SWAP1 PUSH1 0x20 ADD SWAP1 PUSH2 0x98E SWAP3 SWAP2 SWAP1 PUSH2 0xA11 JUMP JUMPDEST POP POP POP JUMP JUMPDEST DUP2 PUSH1 0x8 PUSH1 0x0 DUP3 DUP3 SLOAD PUSH2 0x9A5 SWAP2 SWAP1 PUSH2 0x11FB JUMP JUMPDEST SWAP3 POP POP DUP2 SWAP1 SSTORE POP DUP1 PUSH20 0xFFFFFFFFFFFFFFFFFFFFFFFFFFFFFFFFFFFFFFFF AND PUSH2 0x8FC DUP4 SWAP1 DUP2 ISZERO MUL SWAP1 PUSH1 0x40 MLOAD PUSH1 0x0 PUSH1 0x40 MLOAD DUP1 DUP4 SUB DUP2 DUP6 DUP9 DUP9 CALL SWAP4 POP POP POP POP ISZERO DUP1 ISZERO PUSH2 0x9F2 JUMPI RETURNDATASIZE PUSH1 0x0 DUP1 RETURNDATACOPY RETURNDATASIZE PUSH1 0x0 REVERT JUMPDEST POP POP POP JUMP JUMPDEST PUSH1 0x7 PUSH1 0x0 DUP2 SLOAD DUP1 SWAP3 SWAP2 SWAP1 PUSH2 0xA0A SWAP1 PUSH2 0x1085 JUMP JUMPDEST SWAP2 SWAP1 POP SSTORE POP JUMP JUMPDEST DUP3 DUP1 SLOAD DUP3 DUP3 SSTORE SWAP1 PUSH1 0x0 MSTORE PUSH1 0x20 PUSH1 0x0 KECCAK256 SWAP1 DUP2 ADD SWAP3 DUP3 ISZERO PUSH2 0xA4D JUMPI SWAP2 PUSH1 0x20 MUL DUP3 ADD JUMPDEST DUP3 DUP2 GT ISZERO PUSH2 0xA4C JUMPI DUP3 MLOAD DUP3 SSTORE SWAP2 PUSH1 0x20 ADD SWAP2 SWAP1 PUSH1 0x1 ADD SWAP1 PUSH2 0xA31 JUMP JUMPDEST JUMPDEST POP SWAP1 POP PUSH2 0xA5A SWAP2 SWAP1 PUSH2 0xA5E JUMP JUMPDEST POP SWAP1 JUMP JUMPDEST JUMPDEST DUP1 DUP3 GT ISZERO PUSH2 0xA77 JUMPI PUSH1 0x0 DUP2 PUSH1 0x0 SWAP1 SSTORE POP PUSH1 0x1 ADD PUSH2 0xA5F JUMP JUMPDEST POP SWAP1 JUMP JUMPDEST PUSH1 0x0 DUP2 SWAP1 POP SWAP2 SWAP1 POP JUMP JUMPDEST PUSH2 0xA8E DUP2 PUSH2 0xA7B JUMP JUMPDEST DUP3 MSTORE POP POP JUMP JUMPDEST PUSH1 0x0 PUSH1 0x20 DUP3 ADD SWAP1 POP PUSH2 0xAA9 PUSH1 0x0 DUP4 ADD DUP5 PUSH2 0xA85 JUMP JUMPDEST SWAP3 SWAP2 POP POP JUMP JUMPDEST PUSH1 0x0 PUSH1 0x40 MLOAD SWAP1 POP SWAP1 JUMP JUMPDEST PUSH1 0x0 DUP1 REVERT JUMPDEST PUSH1 0x0 DUP1 REVERT JUMPDEST PUSH2 0xACC DUP2 PUSH2 0xA7B JUMP JUMPDEST DUP2 EQ PUSH2 0xAD7 JUMPI PUSH1 0x0 DUP1 REVERT JUMPDEST POP JUMP JUMPDEST PUSH1 0x0 DUP2 CALLDATALOAD SWAP1 POP PUSH2 0xAE9 DUP2 PUSH2 0xAC3 JUMP JUMPDEST SWAP3 SWAP2 POP POP JUMP JUMPDEST PUSH1 0x0 PUSH1 0x20 DUP3 DUP5 SUB SLT ISZERO PUSH2 0xB05 JUMPI PUSH2 0xB04 PUSH2 0xAB9 JUMP JUMPDEST JUMPDEST PUSH1 0x0 PUSH2 0xB13 DUP5 DUP3 DUP6 ADD PUSH2 0xADA JUMP JUMPDEST SWAP2 POP POP SWAP3 SWAP2 POP POP JUMP JUMPDEST PUSH1 0x0 PUSH20 0xFFFFFFFFFFFFFFFFFFFFFFFFFFFFFFFFFFFFFFFF DUP3 AND SWAP1 POP SWAP2 SWAP1 POP JUMP JUMPDEST PUSH1 0x0 PUSH2 0xB47 DUP3 PUSH2 0xB1C JUMP JUMPDEST SWAP1 POP SWAP2 SWAP1 POP JUMP JUMPDEST PUSH2 0xB57 DUP2 PUSH2 0xB3C JUMP JUMPDEST DUP3 MSTORE POP POP JUMP JUMPDEST PUSH1 0x0 PUSH1 0x20 DUP3 ADD SWAP1 POP PUSH2 0xB72 PUSH1 0x0 DUP4 ADD DUP5 PUSH2 0xB4E JUMP JUMPDEST SWAP3 SWAP2 POP POP JUMP JUMPDEST PUSH1 0x0 DUP1 REVERT JUMPDEST PUSH1 0x0 PUSH1 0x1F NOT PUSH1 0x1F DUP4 ADD AND SWAP1 POP SWAP2 SWAP1 POP JUMP JUMPDEST PUSH32 0x4E487B7100000000000000000000000000000000000000000000000000000000 PUSH1 0x0 MSTORE PUSH1 0x41 PUSH1 0x4 MSTORE PUSH1 0x24 PUSH1 0x0 REVERT JUMPDEST PUSH2 0xBC6 DUP3 PUSH2 0xB7D JUMP JUMPDEST DUP2 ADD DUP2 DUP2 LT PUSH8 0xFFFFFFFFFFFFFFFF DUP3 GT OR ISZERO PUSH2 0xBE5 JUMPI PUSH2 0xBE4 PUSH2 0xB8E JUMP JUMPDEST JUMPDEST DUP1 PUSH1 0x40 MSTORE POP POP POP JUMP JUMPDEST PUSH1 0x0 PUSH2 0xBF8 PUSH2 0xAAF JUMP JUMPDEST SWAP1 POP PUSH2 0xC04 DUP3 DUP3 PUSH2 0xBBD JUMP JUMPDEST SWAP2 SWAP1 POP JUMP JUMPDEST PUSH1 0x0 PUSH8 0xFFFFFFFFFFFFFFFF DUP3 GT ISZERO PUSH2 0xC24 JUMPI PUSH2 0xC23 PUSH2 0xB8E JUMP JUMPDEST JUMPDEST PUSH1 0x20 DUP3 MUL SWAP1 POP PUSH1 0x20 DUP2 ADD SWAP1 POP SWAP2 SWAP1 POP JUMP JUMPDEST PUSH1 0x0 DUP1 REVERT JUMPDEST PUSH1 0x0 PUSH2 0xC4D PUSH2 0xC48 DUP5 PUSH2 0xC09 JUMP JUMPDEST PUSH2 0xBEE JUMP JUMPDEST SWAP1 POP DUP1 DUP4 DUP3 MSTORE PUSH1 0x20 DUP3 ADD SWAP1 POP PUSH1 0x20 DUP5 MUL DUP4 ADD DUP6 DUP2 GT ISZERO PUSH2 0xC70 JUMPI PUSH2 0xC6F PUSH2 0xC35 JUMP JUMPDEST JUMPDEST DUP4 JUMPDEST DUP2 DUP2 LT ISZERO PUSH2 0xC99 JUMPI DUP1 PUSH2 0xC85 DUP9 DUP3 PUSH2 0xADA JUMP JUMPDEST DUP5 MSTORE PUSH1 0x20 DUP5 ADD SWAP4 POP POP PUSH1 0x20 DUP2 ADD SWAP1 POP PUSH2 0xC72 JUMP JUMPDEST POP POP POP SWAP4 SWAP3 POP POP POP JUMP JUMPDEST PUSH1 0x0 DUP3 PUSH1 0x1F DUP4 ADD SLT PUSH2 0xCB8 JUMPI PUSH2 0xCB7 PUSH2 0xB78 JUMP JUMPDEST JUMPDEST DUP2 CALLDATALOAD PUSH2 0xCC8 DUP5 DUP3 PUSH1 0x20 DUP7 ADD PUSH2 0xC3A JUMP JUMPDEST SWAP2 POP POP SWAP3 SWAP2 POP POP JUMP JUMPDEST PUSH1 0x0 DUP1 PUSH1 0x40 DUP4 DUP6 SUB SLT ISZERO PUSH2 0xCE8 JUMPI PUSH2 0xCE7 PUSH2 0xAB9 JUMP JUMPDEST JUMPDEST PUSH1 0x0 PUSH2 0xCF6 DUP6 DUP3 DUP7 ADD PUSH2 0xADA JUMP JUMPDEST SWAP3 POP POP PUSH1 0x20 DUP4 ADD CALLDATALOAD PUSH8 0xFFFFFFFFFFFFFFFF DUP2 GT ISZERO PUSH2 0xD17 JUMPI PUSH2 0xD16 PUSH2 0xABE JUMP JUMPDEST JUMPDEST PUSH2 0xD23 DUP6 DUP3 DUP7 ADD PUSH2 0xCA3 JUMP JUMPDEST SWAP2 POP POP SWAP3 POP SWAP3 SWAP1 POP JUMP JUMPDEST PUSH1 0x0 PUSH2 0xD38 DUP3 PUSH2 0xB1C JUMP JUMPDEST SWAP1 POP SWAP2 SWAP1 POP JUMP JUMPDEST PUSH2 0xD48 DUP2 PUSH2 0xD2D JUMP JUMPDEST DUP3 MSTORE POP POP JUMP JUMPDEST PUSH1 0x0 PUSH1 0x40 DUP3 ADD SWAP1 POP PUSH2 0xD63 PUSH1 0x0 DUP4 ADD DUP6 PUSH2 0xD3F JUMP JUMPDEST PUSH2 0xD70 PUSH1 0x20 DUP4 ADD DUP5 PUSH2 0xA85 JUMP JUMPDEST SWAP4 SWAP3 POP POP POP JUMP JUMPDEST PUSH32 0x4E487B7100000000000000000000000000000000000000000000000000000000 PUSH1 0x0 MSTORE PUSH1 0x32 PUSH1 0x4 MSTORE PUSH1 0x24 PUSH1 0x0 REVERT JUMPDEST PUSH1 0x0 PUSH1 0x40 DUP3 ADD SWAP1 POP PUSH2 0xDBB PUSH1 0x0 DUP4 ADD DUP6 PUSH2 0xB4E JUMP JUMPDEST PUSH2 0xDC8 PUSH1 0x20 DUP4 ADD DUP5 PUSH2 0xB4E JUMP JUMPDEST SWAP4 SWAP3 POP POP POP JUMP JUMPDEST PUSH1 0x0 DUP2 SWAP1 POP SWAP2 SWAP1 POP JUMP JUMPDEST PUSH2 0xDE2 DUP2 PUSH2 0xDCF JUMP JUMPDEST DUP3 MSTORE POP POP JUMP JUMPDEST PUSH1 0x0 PUSH8 0xFFFFFFFFFFFFFFFF DUP3 AND SWAP1 POP SWAP2 SWAP1 POP JUMP JUMPDEST PUSH2 0xE05 DUP2 PUSH2 0xDE8 JUMP JUMPDEST DUP3 MSTORE POP POP JUMP JUMPDEST PUSH1 0x0 PUSH2 0xFFFF DUP3 AND SWAP1 POP SWAP2 SWAP1 POP JUMP JUMPDEST PUSH2 0xE22 DUP2 PUSH2 0xE0B JUMP JUMPDEST DUP3 MSTORE POP POP JUMP JUMPDEST PUSH1 0x0 PUSH4 0xFFFFFFFF DUP3 AND SWAP1 POP SWAP2 SWAP1 POP JUMP JUMPDEST PUSH2 0xE41 DUP2 PUSH2 0xE28 JUMP JUMPDEST DUP3 MSTORE POP POP JUMP JUMPDEST PUSH1 0x0 PUSH1 0xA0 DUP3 ADD SWAP1 POP PUSH2 0xE5C PUSH1 0x0 DUP4 ADD DUP9 PUSH2 0xDD9 JUMP JUMPDEST PUSH2 0xE69 PUSH1 0x20 DUP4 ADD DUP8 PUSH2 0xDFC JUMP JUMPDEST PUSH2 0xE76 PUSH1 0x40 DUP4 ADD DUP7 PUSH2 0xE19 JUMP JUMPDEST PUSH2 0xE83 PUSH1 0x60 DUP4 ADD DUP6 PUSH2 0xE38 JUMP JUMPDEST PUSH2 0xE90 PUSH1 0x80 DUP4 ADD DUP5 PUSH2 0xE38 JUMP JUMPDEST SWAP7 SWAP6 POP POP POP POP POP POP JUMP JUMPDEST PUSH1 0x0 DUP2 MLOAD SWAP1 POP PUSH2 0xEA9 DUP2 PUSH2 0xAC3 JUMP JUMPDEST SWAP3 SWAP2 POP POP JUMP JUMPDEST PUSH1 0x0 PUSH1 0x20 DUP3 DUP5 SUB SLT ISZERO PUSH2 0xEC5 JUMPI PUSH2 0xEC4 PUSH2 0xAB9 JUMP JUMPDEST JUMPDEST PUSH1 0x0 PUSH2 0xED3 DUP5 DUP3 DUP6 ADD PUSH2 0xE9A JUMP JUMPDEST SWAP2 POP POP SWAP3 SWAP2 POP POP JUMP JUMPDEST PUSH32 0x4E487B7100000000000000000000000000000000000000000000000000000000 PUSH1 0x0 MSTORE PUSH1 0x12 PUSH1 0x4 MSTORE PUSH1 0x24 PUSH1 0x0 REVERT JUMPDEST PUSH1 0x0 PUSH2 0xF16 DUP3 PUSH2 0xA7B JUMP JUMPDEST SWAP2 POP PUSH2 0xF21 DUP4 PUSH2 0xA7B JUMP JUMPDEST SWAP3 POP DUP3 PUSH2 0xF31 JUMPI PUSH2 0xF30 PUSH2 0xEDC JUMP JUMPDEST JUMPDEST DUP3 DUP3 MOD SWAP1 POP SWAP3 SWAP2 POP POP JUMP JUMPDEST PUSH32 0x4E487B7100000000000000000000000000000000000000000000000000000000 PUSH1 0x0 MSTORE PUSH1 0x11 PUSH1 0x4 MSTORE PUSH1 0x24 PUSH1 0x0 REVERT JUMPDEST PUSH1 0x0 PUSH2 0xF76 DUP3 PUSH2 0xA7B JUMP JUMPDEST SWAP2 POP PUSH2 0xF81 DUP4 PUSH2 0xA7B JUMP JUMPDEST SWAP3 POP DUP3 PUSH2 0xF91 JUMPI PUSH2 0xF90 PUSH2 0xEDC JUMP JUMPDEST JUMPDEST DUP3 DUP3 DIV SWAP1 POP SWAP3 SWAP2 POP POP JUMP JUMPDEST PUSH1 0x0 DUP3 DUP3 MSTORE PUSH1 0x20 DUP3 ADD SWAP1 POP SWAP3 SWAP2 POP POP JUMP JUMPDEST PUSH32 0x7072697A65506F6F6C20697320656D7074790000000000000000000000000000 PUSH1 0x0 DUP3 ADD MSTORE POP JUMP JUMPDEST PUSH1 0x0 PUSH2 0xFE3 PUSH1 0x12 DUP4 PUSH2 0xF9C JUMP JUMPDEST SWAP2 POP PUSH2 0xFEE DUP3 PUSH2 0xFAD JUMP JUMPDEST PUSH1 0x20 DUP3 ADD SWAP1 POP SWAP2 SWAP1 POP JUMP JUMPDEST PUSH1 0x0 PUSH1 0x20 DUP3 ADD SWAP1 POP DUP2 DUP2 SUB PUSH1 0x0 DUP4 ADD MSTORE PUSH2 0x1012 DUP2 PUSH2 0xFD6 JUMP JUMPDEST SWAP1 POP SWAP2 SWAP1 POP JUMP JUMPDEST PUSH32 0x4E6F2077696E6E65720000000000000000000000000000000000000000000000 PUSH1 0x0 DUP3 ADD MSTORE POP JUMP JUMPDEST PUSH1 0x0 PUSH2 0x104F PUSH1 0x9 DUP4 PUSH2 0xF9C JUMP JUMPDEST SWAP2 POP PUSH2 0x105A DUP3 PUSH2 0x1019 JUMP JUMPDEST PUSH1 0x20 DUP3 ADD SWAP1 POP SWAP2 SWAP1 POP JUMP JUMPDEST PUSH1 0x0 PUSH1 0x20 DUP3 ADD SWAP1 POP DUP2 DUP2 SUB PUSH1 0x0 DUP4 ADD MSTORE PUSH2 0x107E DUP2 PUSH2 0x1042 JUMP JUMPDEST SWAP1 POP SWAP2 SWAP1 POP JUMP JUMPDEST PUSH1 0x0 PUSH2 0x1090 DUP3 PUSH2 0xA7B JUMP JUMPDEST SWAP2 POP PUSH32 0xFFFFFFFFFFFFFFFFFFFFFFFFFFFFFFFFFFFFFFFFFFFFFFFFFFFFFFFFFFFFFFFF DUP3 SUB PUSH2 0x10C2 JUMPI PUSH2 0x10C1 PUSH2 0xF3C JUMP JUMPDEST JUMPDEST PUSH1 0x1 DUP3 ADD SWAP1 POP SWAP2 SWAP1 POP JUMP JUMPDEST PUSH32 0x4E6F7420656E6F75676820746F6B656E00000000000000000000000000000000 PUSH1 0x0 DUP3 ADD MSTORE POP JUMP JUMPDEST PUSH1 0x0 PUSH2 0x1103 PUSH1 0x10 DUP4 PUSH2 0xF9C JUMP JUMPDEST SWAP2 POP PUSH2 0x110E DUP3 PUSH2 0x10CD JUMP JUMPDEST PUSH1 0x20 DUP3 ADD SWAP1 POP SWAP2 SWAP1 POP JUMP JUMPDEST PUSH1 0x0 PUSH1 0x20 DUP3 ADD SWAP1 POP DUP2 DUP2 SUB PUSH1 0x0 DUP4 ADD MSTORE PUSH2 0x1132 DUP2 PUSH2 0x10F6 JUMP JUMPDEST SWAP1 POP SWAP2 SWAP1 POP JUMP JUMPDEST PUSH1 0x0 PUSH2 0x1144 DUP3 PUSH2 0xA7B JUMP JUMPDEST SWAP2 POP PUSH2 0x114F DUP4 PUSH2 0xA7B JUMP JUMPDEST SWAP3 POP DUP3 PUSH32 0xFFFFFFFFFFFFFFFFFFFFFFFFFFFFFFFFFFFFFFFFFFFFFFFFFFFFFFFFFFFFFFFF SUB DUP3 GT ISZERO PUSH2 0x1184 JUMPI PUSH2 0x1183 PUSH2 0xF3C JUMP JUMPDEST JUMPDEST DUP3 DUP3 ADD SWAP1 POP SWAP3 SWAP2 POP POP JUMP JUMPDEST PUSH32 0x4E756D626572207469636B6574206F7574206F662072616E6765000000000000 PUSH1 0x0 DUP3 ADD MSTORE POP JUMP JUMPDEST PUSH1 0x0 PUSH2 0x11C5 PUSH1 0x1A DUP4 PUSH2 0xF9C JUMP JUMPDEST SWAP2 POP PUSH2 0x11D0 DUP3 PUSH2 0x118F JUMP JUMPDEST PUSH1 0x20 DUP3 ADD SWAP1 POP SWAP2 SWAP1 POP JUMP JUMPDEST PUSH1 0x0 PUSH1 0x20 DUP3 ADD SWAP1 POP DUP2 DUP2 SUB PUSH1 0x0 DUP4 ADD MSTORE PUSH2 0x11F4 DUP2 PUSH2 0x11B8 JUMP JUMPDEST SWAP1 POP SWAP2 SWAP1 POP JUMP JUMPDEST PUSH1 0x0 PUSH2 0x1206 DUP3 PUSH2 0xA7B JUMP JUMPDEST SWAP2 POP PUSH2 0x1211 DUP4 PUSH2 0xA7B JUMP JUMPDEST SWAP3 POP DUP3 DUP3 LT ISZERO PUSH2 0x1224 JUMPI PUSH2 0x1223 PUSH2 0xF3C JUMP JUMPDEST JUMPDEST DUP3 DUP3 SUB SWAP1 POP SWAP3 SWAP2 POP POP JUMP INVALID LOG2 PUSH5 0x6970667358 0x22 SLT KECCAK256 0xC6 SWAP13 0xBC PUSH6 0x8C122EA6B2F5 0xB0 SWAP14 PUSH5 0x4346CD6CDF 0xF7 0xE0 PUSH27 0x2CE1512293D52D969CA8BC64736F6C634300080F00330000000000 "
				},
				"gasEstimates": {
					"creation": {
						"codeDepositCost": "941800",
						"executionCost": "infinite",
						"totalCost": "infinite"
					},
					"external": {
						"_requestRandomWords()": "infinite",
						"closeLottery()": "infinite",
						"enter(uint256)": "infinite",
						"enterNumberTicket(uint256)": "428",
						"getAmountPlayer()": "2504",
						"getAmountWinner()": "4652",
						"getBalance()": "2438",
						"getListWinner(uint256)": "7174",
						"getPlayers(uint256)": "infinite",
						"lotteryId()": "2473",
						"rawFulfillRandomWords(uint256,uint256[])": "infinite",
						"s_randomWords(uint256)": "infinite",
						"s_requestId()": "2495"
					},
					"internal": {
						"_transferPrize(uint256,address payable)": "infinite",
						"fulfillRandomWords(uint256,uint256[] memory)": "infinite",
						"increasePlayerCount()": "24366"
					}
				},
				"methodIdentifiers": {
					"_requestRandomWords()": "391ea700",
					"closeLottery()": "6fd09816",
					"enter(uint256)": "a59f3e0c",
					"enterNumberTicket(uint256)": "ce10b8ad",
					"getAmountPlayer()": "32eb85a4",
					"getAmountWinner()": "693521d5",
					"getBalance()": "12065fe0",
					"getListWinner(uint256)": "18b425ff",
					"getPlayers(uint256)": "460e2049",
					"lotteryId()": "e580f47b",
					"rawFulfillRandomWords(uint256,uint256[])": "1fe543e3",
					"s_randomWords(uint256)": "f6eaffc8",
					"s_requestId()": "e89e106a"
				}
			},
			"storageLayout": {
				"storage": [
					{
						"astId": 721,
						"contract": "contracts/Lottery.sol:Lottery",
						"label": "callbackGasLimit",
						"offset": 0,
						"slot": "0",
						"type": "t_uint32"
					},
					{
						"astId": 724,
						"contract": "contracts/Lottery.sol:Lottery",
						"label": "requestConfirmations",
						"offset": 4,
						"slot": "0",
						"type": "t_uint16"
					},
					{
						"astId": 727,
						"contract": "contracts/Lottery.sol:Lottery",
						"label": "numWords",
						"offset": 6,
						"slot": "0",
						"type": "t_uint32"
					},
					{
						"astId": 730,
						"contract": "contracts/Lottery.sol:Lottery",
						"label": "s_randomWords",
						"offset": 0,
						"slot": "1",
						"type": "t_array(t_uint256)dyn_storage"
					},
					{
						"astId": 732,
						"contract": "contracts/Lottery.sol:Lottery",
						"label": "s_requestId",
						"offset": 0,
						"slot": "2",
						"type": "t_uint256"
					},
					{
						"astId": 736,
						"contract": "contracts/Lottery.sol:Lottery",
						"label": "s_owner",
						"offset": 0,
						"slot": "3",
						"type": "t_address"
					},
					{
						"astId": 738,
						"contract": "contracts/Lottery.sol:Lottery",
						"label": "lotteryId",
						"offset": 0,
						"slot": "4",
						"type": "t_uint256"
					},
					{
						"astId": 747,
						"contract": "contracts/Lottery.sol:Lottery",
						"label": "groupTicket",
						"offset": 0,
						"slot": "5",
						"type": "t_mapping(t_uint256,t_struct(ListNumberTicket)742_storage)"
					},
					{
						"astId": 757,
						"contract": "contracts/Lottery.sol:Lottery",
						"label": "allLottery",
						"offset": 0,
						"slot": "6",
						"type": "t_mapping(t_uint256,t_struct(Participants)752_storage)"
					},
					{
						"astId": 760,
						"contract": "contracts/Lottery.sol:Lottery",
						"label": "playerCount",
						"offset": 0,
						"slot": "7",
						"type": "t_uint256"
					},
					{
						"astId": 762,
						"contract": "contracts/Lottery.sol:Lottery",
						"label": "prizePool",
						"offset": 0,
						"slot": "8",
						"type": "t_uint256"
					},
					{
						"astId": 764,
						"contract": "contracts/Lottery.sol:Lottery",
						"label": "luckyNumber",
						"offset": 0,
						"slot": "9",
						"type": "t_uint256"
					},
					{
						"astId": 766,
						"contract": "contracts/Lottery.sol:Lottery",
						"label": "numTicketPlayer",
						"offset": 0,
						"slot": "10",
						"type": "t_uint256"
					}
				],
				"types": {
					"t_address": {
						"encoding": "inplace",
						"label": "address",
						"numberOfBytes": "20"
					},
					"t_address_payable": {
						"encoding": "inplace",
						"label": "address payable",
						"numberOfBytes": "20"
					},
					"t_array(t_address_payable)dyn_storage": {
						"base": "t_address_payable",
						"encoding": "dynamic_array",
						"label": "address payable[]",
						"numberOfBytes": "32"
					},
					"t_array(t_uint256)dyn_storage": {
						"base": "t_uint256",
						"encoding": "dynamic_array",
						"label": "uint256[]",
						"numberOfBytes": "32"
					},
					"t_mapping(t_uint256,t_struct(ListNumberTicket)742_storage)": {
						"encoding": "mapping",
						"key": "t_uint256",
						"label": "mapping(uint256 => struct Lottery.ListNumberTicket)",
						"numberOfBytes": "32",
						"value": "t_struct(ListNumberTicket)742_storage"
					},
					"t_mapping(t_uint256,t_struct(Participants)752_storage)": {
						"encoding": "mapping",
						"key": "t_uint256",
						"label": "mapping(uint256 => struct Lottery.Participants)",
						"numberOfBytes": "32",
						"value": "t_struct(Participants)752_storage"
					},
					"t_struct(ListNumberTicket)742_storage": {
						"encoding": "inplace",
						"label": "struct Lottery.ListNumberTicket",
						"members": [
							{
								"astId": 741,
								"contract": "contracts/Lottery.sol:Lottery",
								"label": "groupPlayer",
								"offset": 0,
								"slot": "0",
								"type": "t_array(t_address_payable)dyn_storage"
							}
						],
						"numberOfBytes": "32"
					},
					"t_struct(Participants)752_storage": {
						"encoding": "inplace",
						"label": "struct Lottery.Participants",
						"members": [
							{
								"astId": 749,
								"contract": "contracts/Lottery.sol:Lottery",
								"label": "player",
								"offset": 0,
								"slot": "0",
								"type": "t_address_payable"
							},
							{
								"astId": 751,
								"contract": "contracts/Lottery.sol:Lottery",
								"label": "numTicket",
								"offset": 0,
								"slot": "1",
								"type": "t_uint256"
							}
						],
						"numberOfBytes": "64"
					},
					"t_uint16": {
						"encoding": "inplace",
						"label": "uint16",
						"numberOfBytes": "2"
					},
					"t_uint256": {
						"encoding": "inplace",
						"label": "uint256",
						"numberOfBytes": "32"
					},
					"t_uint32": {
						"encoding": "inplace",
						"label": "uint32",
						"numberOfBytes": "4"
					}
				}
			},
			"userdoc": {
				"kind": "user",
				"methods": {},
				"version": 1
			}
		}
	}
}