{
	"contracts/Lottery.sol": {
		"Lottery": {
			"abi": [
				{
					"inputs": [
						{
							"internalType": "uint64",
							"name": "subscriptionId",
							"type": "uint64"
						}
					],
					"stateMutability": "nonpayable",
					"type": "constructor"
				},
				{
					"inputs": [
						{
							"internalType": "address",
							"name": "have",
							"type": "address"
						},
						{
							"internalType": "address",
							"name": "want",
							"type": "address"
						}
					],
					"name": "OnlyCoordinatorCanFulfill",
					"type": "error"
				},
				{
					"inputs": [
						{
							"internalType": "uint256",
							"name": "_numTicket",
							"type": "uint256"
						}
					],
					"name": "enter",
					"outputs": [],
					"stateMutability": "payable",
					"type": "function"
				},
				{
					"inputs": [],
					"name": "getAmountPlayer",
					"outputs": [
						{
							"internalType": "uint256",
							"name": "",
							"type": "uint256"
						}
					],
					"stateMutability": "view",
					"type": "function"
				},
				{
					"inputs": [],
					"name": "getBalance",
					"outputs": [
						{
							"internalType": "uint256",
							"name": "",
							"type": "uint256"
						}
					],
					"stateMutability": "view",
					"type": "function"
				},
				{
					"inputs": [
						{
							"internalType": "uint256",
							"name": "_index",
							"type": "uint256"
						}
					],
					"name": "getPlayers",
					"outputs": [
						{
							"internalType": "address payable",
							"name": "",
							"type": "address"
						},
						{
							"internalType": "uint256",
							"name": "",
							"type": "uint256"
						}
					],
					"stateMutability": "view",
					"type": "function"
				},
				{
					"inputs": [
						{
							"internalType": "uint256",
							"name": "lottery",
							"type": "uint256"
						}
					],
					"name": "getWinnerByLottery",
					"outputs": [
						{
							"internalType": "address payable",
							"name": "",
							"type": "address"
						}
					],
					"stateMutability": "view",
					"type": "function"
				},
				{
					"inputs": [
						{
							"internalType": "uint256",
							"name": "",
							"type": "uint256"
						}
					],
					"name": "lotteryHistory",
					"outputs": [
						{
							"internalType": "address payable",
							"name": "",
							"type": "address"
						}
					],
					"stateMutability": "view",
					"type": "function"
				},
				{
					"inputs": [],
					"name": "lotteryId",
					"outputs": [
						{
							"internalType": "uint256",
							"name": "",
							"type": "uint256"
						}
					],
					"stateMutability": "view",
					"type": "function"
				},
				{
					"inputs": [
						{
							"internalType": "uint256",
							"name": "requestId",
							"type": "uint256"
						},
						{
							"internalType": "uint256[]",
							"name": "randomWords",
							"type": "uint256[]"
						}
					],
					"name": "rawFulfillRandomWords",
					"outputs": [],
					"stateMutability": "nonpayable",
					"type": "function"
				},
				{
					"inputs": [],
					"name": "requestRandomWords",
					"outputs": [],
					"stateMutability": "nonpayable",
					"type": "function"
				},
				{
					"inputs": [
						{
							"internalType": "uint256",
							"name": "",
							"type": "uint256"
						}
					],
					"name": "s_randomWords",
					"outputs": [
						{
							"internalType": "uint256",
							"name": "",
							"type": "uint256"
						}
					],
					"stateMutability": "view",
					"type": "function"
				},
				{
					"inputs": [],
					"name": "s_requestId",
					"outputs": [
						{
							"internalType": "uint256",
							"name": "",
							"type": "uint256"
						}
					],
					"stateMutability": "view",
					"type": "function"
				}
			],
			"devdoc": {
				"kind": "dev",
				"methods": {},
				"version": 1
			},
			"evm": {
				"assembly": "    /* \"contracts/Lottery.sol\":356:3783  contract Lottery is VRFConsumerBaseV2 {... */\n  mstore(0x40, 0xa0)\n    /* \"contracts/Lottery.sol\":556:598  0x6168499c0cFfCaCD319c818142124B7A15E857ab */\n  0x6168499c0cffcacd319c818142124b7a15e857ab\n    /* \"contracts/Lottery.sol\":531:598  address vrfCoordinator = 0x6168499c0cFfCaCD319c818142124B7A15E857ab */\n  0x01\n  exp(0x0100, 0x00)\n  dup2\n  sload\n  dup2\n  0xffffffffffffffffffffffffffffffffffffffff\n  mul\n  not\n  and\n  swap1\n  dup4\n  0xffffffffffffffffffffffffffffffffffffffff\n  and\n  mul\n  or\n  swap1\n  sstore\n  pop\n    /* \"contracts/Lottery.sol\":701:767  0xd89b2bf150e3b9e13446986e571fb9cab24b13cea0a43ea20a6049a85cc807cc */\n  0xd89b2bf150e3b9e13446986e571fb9cab24b13cea0a43ea20a6049a85cc807cc\n    /* \"contracts/Lottery.sol\":683:767  bytes32 keyHash = 0xd89b2bf150e3b9e13446986e571fb9cab24b13cea0a43ea20a6049a85cc807cc */\n  0x00\n  shl\n  0x02\n  sstore\n    /* \"contracts/Lottery.sol\":804:810  100000 */\n  0x0186a0\n    /* \"contracts/Lottery.sol\":778:810  uint32 callbackGasLimit = 100000 */\n  0x03\n  exp(0x0100, 0x00)\n  dup2\n  sload\n  dup2\n  0xffffffff\n  mul\n  not\n  and\n  swap1\n  dup4\n  0xffffffff\n  and\n  mul\n  or\n  swap1\n  sstore\n  pop\n    /* \"contracts/Lottery.sol\":901:902  3 */\n  0x03\n    /* \"contracts/Lottery.sol\":871:902  uint16 requestConfirmations = 3 */\n  dup1\n  exp(0x0100, 0x04)\n  dup2\n  sload\n  dup2\n  0xffff\n  mul\n  not\n  and\n  swap1\n  dup4\n  0xffff\n  and\n  mul\n  or\n  swap1\n  sstore\n  pop\n    /* \"contracts/Lottery.sol\":1047:1048  2 */\n  0x02\n    /* \"contracts/Lottery.sol\":1028:1048  uint32 numWords =  2 */\n  0x03\n  exp(0x0100, 0x06)\n  dup2\n  sload\n  dup2\n  0xffffffff\n  mul\n  not\n  and\n  swap1\n  dup4\n  0xffffffff\n  and\n  mul\n  or\n  swap1\n  sstore\n  pop\n    /* \"contracts/Lottery.sol\":1549:1550  0 */\n  0x00\n    /* \"contracts/Lottery.sol\":1521:1550  uint internal playerCount = 0 */\n  0x0b\n  sstore\n    /* \"contracts/Lottery.sol\":2836:3050  constructor(uint64 subscriptionId) VRFConsumerBaseV2(vrfCoordinator) {... */\n  callvalue\n  dup1\n  iszero\n  tag_1\n  jumpi\n  0x00\n  dup1\n  revert\ntag_1:\n  pop\n  mload(0x40)\n  sub(codesize, bytecodeSize)\n  dup1\n  bytecodeSize\n  dup4\n  codecopy\n  dup2\n  dup2\n  add\n  0x40\n  mstore\n  dup2\n  add\n  swap1\n  tag_2\n  swap2\n  swap1\n  tag_3\n  jump\t// in\ntag_2:\n    /* \"contracts/Lottery.sol\":2889:2903  vrfCoordinator */\n  0x01\n  0x00\n  swap1\n  sload\n  swap1\n  0x0100\n  exp\n  swap1\n  div\n  0xffffffffffffffffffffffffffffffffffffffff\n  and\n    /* \"@chainlink/contracts/src/v0.8/VRFConsumerBaseV2.sol\":5616:5631  _vrfCoordinator */\n  dup1\n    /* \"@chainlink/contracts/src/v0.8/VRFConsumerBaseV2.sol\":5599:5631  vrfCoordinator = _vrfCoordinator */\n  0xffffffffffffffffffffffffffffffffffffffff\n  and\n  0x80\n  dup2\n  0xffffffffffffffffffffffffffffffffffffffff\n  and\n  0x60\n  shl\n  dup2\n  mstore\n  pop\n  pop\n    /* \"@chainlink/contracts/src/v0.8/VRFConsumerBaseV2.sol\":5556:5636  constructor(address _vrfCoordinator) {... */\n  pop\n    /* \"contracts/Lottery.sol\":2955:2969  vrfCoordinator */\n  0x01\n  0x00\n  swap1\n  sload\n  swap1\n  0x0100\n  exp\n  swap1\n  div\n  0xffffffffffffffffffffffffffffffffffffffff\n  and\n    /* \"contracts/Lottery.sol\":2915:2926  COORDINATOR */\n  0x00\n  dup1\n    /* \"contracts/Lottery.sol\":2915:2970  COORDINATOR = VRFCoordinatorV2Interface(vrfCoordinator) */\n  0x0100\n  exp\n  dup2\n  sload\n  dup2\n  0xffffffffffffffffffffffffffffffffffffffff\n  mul\n  not\n  and\n  swap1\n  dup4\n  0xffffffffffffffffffffffffffffffffffffffff\n  and\n  mul\n  or\n  swap1\n  sstore\n  pop\n    /* \"contracts/Lottery.sol\":2990:3000  msg.sender */\n  caller\n    /* \"contracts/Lottery.sol\":2980:2987  s_owner */\n  0x06\n  0x00\n    /* \"contracts/Lottery.sol\":2980:3000  s_owner = msg.sender */\n  0x0100\n  exp\n  dup2\n  sload\n  dup2\n  0xffffffffffffffffffffffffffffffffffffffff\n  mul\n  not\n  and\n  swap1\n  dup4\n  0xffffffffffffffffffffffffffffffffffffffff\n  and\n  mul\n  or\n  swap1\n  sstore\n  pop\n    /* \"contracts/Lottery.sol\":3029:3043  subscriptionId */\n  dup1\n    /* \"contracts/Lottery.sol\":3010:3026  s_subscriptionId */\n  0x00\n  0x14\n    /* \"contracts/Lottery.sol\":3010:3043  s_subscriptionId = subscriptionId */\n  0x0100\n  exp\n  dup2\n  sload\n  dup2\n  0xffffffffffffffff\n  mul\n  not\n  and\n  swap1\n  dup4\n  0xffffffffffffffff\n  and\n  mul\n  or\n  swap1\n  sstore\n  pop\n    /* \"contracts/Lottery.sol\":2836:3050  constructor(uint64 subscriptionId) VRFConsumerBaseV2(vrfCoordinator) {... */\n  pop\n    /* \"contracts/Lottery.sol\":356:3783  contract Lottery is VRFConsumerBaseV2 {... */\n  jump(tag_8)\n    /* \"#utility.yul\":7:148   */\ntag_10:\n    /* \"#utility.yul\":63:68   */\n  0x00\n    /* \"#utility.yul\":94:100   */\n  dup2\n    /* \"#utility.yul\":88:101   */\n  mload\n    /* \"#utility.yul\":79:101   */\n  swap1\n  pop\n    /* \"#utility.yul\":110:142   */\n  tag_12\n    /* \"#utility.yul\":136:141   */\n  dup2\n    /* \"#utility.yul\":110:142   */\n  tag_13\n  jump\t// in\ntag_12:\n    /* \"#utility.yul\":7:148   */\n  swap3\n  swap2\n  pop\n  pop\n  jump\t// out\n    /* \"#utility.yul\":154:503   */\ntag_3:\n    /* \"#utility.yul\":223:229   */\n  0x00\n    /* \"#utility.yul\":272:274   */\n  0x20\n    /* \"#utility.yul\":260:269   */\n  dup3\n    /* \"#utility.yul\":251:258   */\n  dup5\n    /* \"#utility.yul\":247:270   */\n  sub\n    /* \"#utility.yul\":243:275   */\n  slt\n    /* \"#utility.yul\":240:359   */\n  iszero\n  tag_15\n  jumpi\n    /* \"#utility.yul\":278:357   */\n  tag_16\n  tag_17\n  jump\t// in\ntag_16:\n    /* \"#utility.yul\":240:359   */\ntag_15:\n    /* \"#utility.yul\":398:399   */\n  0x00\n    /* \"#utility.yul\":423:486   */\n  tag_18\n    /* \"#utility.yul\":478:485   */\n  dup5\n    /* \"#utility.yul\":469:475   */\n  dup3\n    /* \"#utility.yul\":458:467   */\n  dup6\n    /* \"#utility.yul\":454:476   */\n  add\n    /* \"#utility.yul\":423:486   */\n  tag_10\n  jump\t// in\ntag_18:\n    /* \"#utility.yul\":413:486   */\n  swap2\n  pop\n    /* \"#utility.yul\":369:496   */\n  pop\n    /* \"#utility.yul\":154:503   */\n  swap3\n  swap2\n  pop\n  pop\n  jump\t// out\n    /* \"#utility.yul\":590:691   */\ntag_21:\n    /* \"#utility.yul\":626:633   */\n  0x00\n    /* \"#utility.yul\":666:684   */\n  0xffffffffffffffff\n    /* \"#utility.yul\":659:664   */\n  dup3\n    /* \"#utility.yul\":655:685   */\n  and\n    /* \"#utility.yul\":644:685   */\n  swap1\n  pop\n    /* \"#utility.yul\":590:691   */\n  swap2\n  swap1\n  pop\n  jump\t// out\n    /* \"#utility.yul\":820:937   */\ntag_17:\n    /* \"#utility.yul\":929:930   */\n  0x00\n    /* \"#utility.yul\":926:927   */\n  dup1\n    /* \"#utility.yul\":919:931   */\n  revert\n    /* \"#utility.yul\":943:1063   */\ntag_13:\n    /* \"#utility.yul\":1015:1038   */\n  tag_27\n    /* \"#utility.yul\":1032:1037   */\n  dup2\n    /* \"#utility.yul\":1015:1038   */\n  tag_21\n  jump\t// in\ntag_27:\n    /* \"#utility.yul\":1008:1013   */\n  dup2\n    /* \"#utility.yul\":1005:1039   */\n  eq\n    /* \"#utility.yul\":995:1057   */\n  tag_28\n  jumpi\n    /* \"#utility.yul\":1053:1054   */\n  0x00\n    /* \"#utility.yul\":1050:1051   */\n  dup1\n    /* \"#utility.yul\":1043:1055   */\n  revert\n    /* \"#utility.yul\":995:1057   */\ntag_28:\n    /* \"#utility.yul\":943:1063   */\n  pop\n  jump\t// out\n    /* \"contracts/Lottery.sol\":356:3783  contract Lottery is VRFConsumerBaseV2 {... */\ntag_8:\n  shr(0x60, mload(0x80))\n  codecopy(0x00, dataOffset(sub_0), dataSize(sub_0))\n  0x00\n  assignImmutable(\"0x1a192fabce13988b84994d4296e6cdc418d55e2f1d7f942188d4040b94fc57ac\")\n  return(0x00, dataSize(sub_0))\nstop\n\nsub_0: assembly {\n        /* \"contracts/Lottery.sol\":356:3783  contract Lottery is VRFConsumerBaseV2 {... */\n      mstore(0x40, 0x80)\n      jumpi(tag_1, lt(calldatasize, 0x04))\n      shr(0xe0, calldataload(0x00))\n      dup1\n      0x6d6fe230\n      gt\n      tag_13\n      jumpi\n      dup1\n      0x6d6fe230\n      eq\n      tag_7\n      jumpi\n      dup1\n      0xa59f3e0c\n      eq\n      tag_8\n      jumpi\n      dup1\n      0xe0c86289\n      eq\n      tag_9\n      jumpi\n      dup1\n      0xe580f47b\n      eq\n      tag_10\n      jumpi\n      dup1\n      0xe89e106a\n      eq\n      tag_11\n      jumpi\n      dup1\n      0xf6eaffc8\n      eq\n      tag_12\n      jumpi\n      jump(tag_1)\n    tag_13:\n      dup1\n      0x12065fe0\n      eq\n      tag_2\n      jumpi\n      dup1\n      0x1fe543e3\n      eq\n      tag_3\n      jumpi\n      dup1\n      0x281d098d\n      eq\n      tag_4\n      jumpi\n      dup1\n      0x32eb85a4\n      eq\n      tag_5\n      jumpi\n      dup1\n      0x460e2049\n      eq\n      tag_6\n      jumpi\n    tag_1:\n      0x00\n      dup1\n      revert\n        /* \"contracts/Lottery.sol\":1690:1784  function getBalance() public view returns (uint) {... */\n    tag_2:\n      callvalue\n      dup1\n      iszero\n      tag_14\n      jumpi\n      0x00\n      dup1\n      revert\n    tag_14:\n      pop\n      tag_15\n      tag_16\n      jump\t// in\n    tag_15:\n      mload(0x40)\n      tag_17\n      swap2\n      swap1\n      tag_18\n      jump\t// in\n    tag_17:\n      mload(0x40)\n      dup1\n      swap2\n      sub\n      swap1\n      return\n        /* \"@chainlink/contracts/src/v0.8/VRFConsumerBaseV2.sol\":6618:6874  function rawFulfillRandomWords(uint256 requestId, uint256[] memory randomWords) external {... */\n    tag_3:\n      callvalue\n      dup1\n      iszero\n      tag_19\n      jumpi\n      0x00\n      dup1\n      revert\n    tag_19:\n      pop\n      tag_20\n      0x04\n      dup1\n      calldatasize\n      sub\n      dup2\n      add\n      swap1\n      tag_21\n      swap2\n      swap1\n      tag_22\n      jump\t// in\n    tag_21:\n      tag_23\n      jump\t// in\n    tag_20:\n      stop\n        /* \"contracts/Lottery.sol\":1557:1684  function getWinnerByLottery(uint lottery) public view returns (address payable) {... */\n    tag_4:\n      callvalue\n      dup1\n      iszero\n      tag_24\n      jumpi\n      0x00\n      dup1\n      revert\n    tag_24:\n      pop\n      tag_25\n      0x04\n      dup1\n      calldatasize\n      sub\n      dup2\n      add\n      swap1\n      tag_26\n      swap2\n      swap1\n      tag_27\n      jump\t// in\n    tag_26:\n      tag_28\n      jump\t// in\n    tag_25:\n      mload(0x40)\n      tag_29\n      swap2\n      swap1\n      tag_30\n      jump\t// in\n    tag_29:\n      mload(0x40)\n      dup1\n      swap2\n      sub\n      swap1\n      return\n        /* \"contracts/Lottery.sol\":2040:2128  function getAmountPlayer() public view returns (uint){... */\n    tag_5:\n      callvalue\n      dup1\n      iszero\n      tag_31\n      jumpi\n      0x00\n      dup1\n      revert\n    tag_31:\n      pop\n      tag_32\n      tag_33\n      jump\t// in\n    tag_32:\n      mload(0x40)\n      tag_34\n      swap2\n      swap1\n      tag_18\n      jump\t// in\n    tag_34:\n      mload(0x40)\n      dup1\n      swap2\n      sub\n      swap1\n      return\n        /* \"contracts/Lottery.sol\":1790:2030  function getPlayers(uint _index) public view returns (address payable, uint) {... */\n    tag_6:\n      callvalue\n      dup1\n      iszero\n      tag_35\n      jumpi\n      0x00\n      dup1\n      revert\n    tag_35:\n      pop\n      tag_36\n      0x04\n      dup1\n      calldatasize\n      sub\n      dup2\n      add\n      swap1\n      tag_37\n      swap2\n      swap1\n      tag_27\n      jump\t// in\n    tag_37:\n      tag_38\n      jump\t// in\n    tag_36:\n      mload(0x40)\n      tag_39\n      swap3\n      swap2\n      swap1\n      tag_40\n      jump\t// in\n    tag_39:\n      mload(0x40)\n      dup1\n      swap2\n      sub\n      swap1\n      return\n        /* \"contracts/Lottery.sol\":1176:1231  mapping (uint => address payable) public lotteryHistory */\n    tag_7:\n      callvalue\n      dup1\n      iszero\n      tag_41\n      jumpi\n      0x00\n      dup1\n      revert\n    tag_41:\n      pop\n      tag_42\n      0x04\n      dup1\n      calldatasize\n      sub\n      dup2\n      add\n      swap1\n      tag_43\n      swap2\n      swap1\n      tag_27\n      jump\t// in\n    tag_43:\n      tag_44\n      jump\t// in\n    tag_42:\n      mload(0x40)\n      tag_45\n      swap2\n      swap1\n      tag_30\n      jump\t// in\n    tag_45:\n      mload(0x40)\n      dup1\n      swap2\n      sub\n      swap1\n      return\n        /* \"contracts/Lottery.sol\":2133:2650  function enter(uint _numTicket) public payable {... */\n    tag_8:\n      tag_46\n      0x04\n      dup1\n      calldatasize\n      sub\n      dup2\n      add\n      swap1\n      tag_47\n      swap2\n      swap1\n      tag_27\n      jump\t// in\n    tag_47:\n      tag_48\n      jump\t// in\n    tag_46:\n      stop\n        /* \"contracts/Lottery.sol\":3112:3420  function requestRandomWords() external onlyOwner {... */\n    tag_9:\n      callvalue\n      dup1\n      iszero\n      tag_49\n      jumpi\n      0x00\n      dup1\n      revert\n    tag_49:\n      pop\n      tag_50\n      tag_51\n      jump\t// in\n    tag_50:\n      stop\n        /* \"contracts/Lottery.sol\":1149:1170  uint public lotteryId */\n    tag_10:\n      callvalue\n      dup1\n      iszero\n      tag_52\n      jumpi\n      0x00\n      dup1\n      revert\n    tag_52:\n      pop\n      tag_53\n      tag_54\n      jump\t// in\n    tag_53:\n      mload(0x40)\n      tag_55\n      swap2\n      swap1\n      tag_18\n      jump\t// in\n    tag_55:\n      mload(0x40)\n      dup1\n      swap2\n      sub\n      swap1\n      return\n        /* \"contracts/Lottery.sol\":1091:1117  uint256 public s_requestId */\n    tag_11:\n      callvalue\n      dup1\n      iszero\n      tag_56\n      jumpi\n      0x00\n      dup1\n      revert\n    tag_56:\n      pop\n      tag_57\n      tag_58\n      jump\t// in\n    tag_57:\n      mload(0x40)\n      tag_59\n      swap2\n      swap1\n      tag_18\n      jump\t// in\n    tag_59:\n      mload(0x40)\n      dup1\n      swap2\n      sub\n      swap1\n      return\n        /* \"contracts/Lottery.sol\":1055:1085  uint256[] public s_randomWords */\n    tag_12:\n      callvalue\n      dup1\n      iszero\n      tag_60\n      jumpi\n      0x00\n      dup1\n      revert\n    tag_60:\n      pop\n      tag_61\n      0x04\n      dup1\n      calldatasize\n      sub\n      dup2\n      add\n      swap1\n      tag_62\n      swap2\n      swap1\n      tag_27\n      jump\t// in\n    tag_62:\n      tag_63\n      jump\t// in\n    tag_61:\n      mload(0x40)\n      tag_64\n      swap2\n      swap1\n      tag_18\n      jump\t// in\n    tag_64:\n      mload(0x40)\n      dup1\n      swap2\n      sub\n      swap1\n      return\n        /* \"contracts/Lottery.sol\":1690:1784  function getBalance() public view returns (uint) {... */\n    tag_16:\n        /* \"contracts/Lottery.sol\":1733:1737  uint */\n      0x00\n        /* \"contracts/Lottery.sol\":1756:1777  address(this).balance */\n      selfbalance\n        /* \"contracts/Lottery.sol\":1749:1777  return address(this).balance */\n      swap1\n      pop\n        /* \"contracts/Lottery.sol\":1690:1784  function getBalance() public view returns (uint) {... */\n      swap1\n      jump\t// out\n        /* \"@chainlink/contracts/src/v0.8/VRFConsumerBaseV2.sol\":6618:6874  function rawFulfillRandomWords(uint256 requestId, uint256[] memory randomWords) external {... */\n    tag_23:\n        /* \"@chainlink/contracts/src/v0.8/VRFConsumerBaseV2.sol\":6731:6745  vrfCoordinator */\n      immutable(\"0x1a192fabce13988b84994d4296e6cdc418d55e2f1d7f942188d4040b94fc57ac\")\n        /* \"@chainlink/contracts/src/v0.8/VRFConsumerBaseV2.sol\":6717:6745  msg.sender != vrfCoordinator */\n      0xffffffffffffffffffffffffffffffffffffffff\n      and\n        /* \"@chainlink/contracts/src/v0.8/VRFConsumerBaseV2.sol\":6717:6727  msg.sender */\n      caller\n        /* \"@chainlink/contracts/src/v0.8/VRFConsumerBaseV2.sol\":6717:6745  msg.sender != vrfCoordinator */\n      0xffffffffffffffffffffffffffffffffffffffff\n      and\n      eq\n        /* \"@chainlink/contracts/src/v0.8/VRFConsumerBaseV2.sol\":6713:6822  if (msg.sender != vrfCoordinator) {... */\n      tag_67\n      jumpi\n        /* \"@chainlink/contracts/src/v0.8/VRFConsumerBaseV2.sol\":6788:6798  msg.sender */\n      caller\n        /* \"@chainlink/contracts/src/v0.8/VRFConsumerBaseV2.sol\":6800:6814  vrfCoordinator */\n      immutable(\"0x1a192fabce13988b84994d4296e6cdc418d55e2f1d7f942188d4040b94fc57ac\")\n        /* \"@chainlink/contracts/src/v0.8/VRFConsumerBaseV2.sol\":6762:6815  OnlyCoordinatorCanFulfill(msg.sender, vrfCoordinator) */\n      mload(0x40)\n      0x1cf993f400000000000000000000000000000000000000000000000000000000\n      dup2\n      mstore\n      0x04\n      add\n      tag_68\n      swap3\n      swap2\n      swap1\n      tag_69\n      jump\t// in\n    tag_68:\n      mload(0x40)\n      dup1\n      swap2\n      sub\n      swap1\n      revert\n        /* \"@chainlink/contracts/src/v0.8/VRFConsumerBaseV2.sol\":6713:6822  if (msg.sender != vrfCoordinator) {... */\n    tag_67:\n        /* \"@chainlink/contracts/src/v0.8/VRFConsumerBaseV2.sol\":6827:6869  fulfillRandomWords(requestId, randomWords) */\n      tag_70\n        /* \"@chainlink/contracts/src/v0.8/VRFConsumerBaseV2.sol\":6846:6855  requestId */\n      dup3\n        /* \"@chainlink/contracts/src/v0.8/VRFConsumerBaseV2.sol\":6857:6868  randomWords */\n      dup3\n        /* \"@chainlink/contracts/src/v0.8/VRFConsumerBaseV2.sol\":6827:6845  fulfillRandomWords */\n      tag_71\n        /* \"@chainlink/contracts/src/v0.8/VRFConsumerBaseV2.sol\":6827:6869  fulfillRandomWords(requestId, randomWords) */\n      jump\t// in\n    tag_70:\n        /* \"@chainlink/contracts/src/v0.8/VRFConsumerBaseV2.sol\":6618:6874  function rawFulfillRandomWords(uint256 requestId, uint256[] memory randomWords) external {... */\n      pop\n      pop\n      jump\t// out\n        /* \"contracts/Lottery.sol\":1557:1684  function getWinnerByLottery(uint lottery) public view returns (address payable) {... */\n    tag_28:\n        /* \"contracts/Lottery.sol\":1620:1635  address payable */\n      0x00\n        /* \"contracts/Lottery.sol\":1654:1668  lotteryHistory */\n      0x08\n        /* \"contracts/Lottery.sol\":1654:1677  lotteryHistory[lottery] */\n      0x00\n        /* \"contracts/Lottery.sol\":1669:1676  lottery */\n      dup4\n        /* \"contracts/Lottery.sol\":1654:1677  lotteryHistory[lottery] */\n      dup2\n      mstore\n      0x20\n      add\n      swap1\n      dup2\n      mstore\n      0x20\n      add\n      0x00\n      keccak256\n      0x00\n      swap1\n      sload\n      swap1\n      0x0100\n      exp\n      swap1\n      div\n      0xffffffffffffffffffffffffffffffffffffffff\n      and\n        /* \"contracts/Lottery.sol\":1647:1677  return lotteryHistory[lottery] */\n      swap1\n      pop\n        /* \"contracts/Lottery.sol\":1557:1684  function getWinnerByLottery(uint lottery) public view returns (address payable) {... */\n      swap2\n      swap1\n      pop\n      jump\t// out\n        /* \"contracts/Lottery.sol\":2040:2128  function getAmountPlayer() public view returns (uint){... */\n    tag_33:\n        /* \"contracts/Lottery.sol\":2088:2092  uint */\n      0x00\n        /* \"contracts/Lottery.sol\":2110:2121  playerCount */\n      sload(0x0b)\n        /* \"contracts/Lottery.sol\":2103:2121  return playerCount */\n      swap1\n      pop\n        /* \"contracts/Lottery.sol\":2040:2128  function getAmountPlayer() public view returns (uint){... */\n      swap1\n      jump\t// out\n        /* \"contracts/Lottery.sol\":1790:2030  function getPlayers(uint _index) public view returns (address payable, uint) {... */\n    tag_38:\n        /* \"contracts/Lottery.sol\":1844:1859  address payable */\n      0x00\n        /* \"contracts/Lottery.sol\":1861:1865  uint */\n      dup1\n        /* \"contracts/Lottery.sol\":1877:1909  Participants storage participant */\n      0x00\n        /* \"contracts/Lottery.sol\":1912:1922  allLottery */\n      0x0a\n        /* \"contracts/Lottery.sol\":1912:1930  allLottery[_index] */\n      0x00\n        /* \"contracts/Lottery.sol\":1923:1929  _index */\n      dup6\n        /* \"contracts/Lottery.sol\":1912:1930  allLottery[_index] */\n      dup2\n      mstore\n      0x20\n      add\n      swap1\n      dup2\n      mstore\n      0x20\n      add\n      0x00\n      keccak256\n        /* \"contracts/Lottery.sol\":1877:1930  Participants storage participant = allLottery[_index] */\n      swap1\n      pop\n        /* \"contracts/Lottery.sol\":1960:1971  participant */\n      dup1\n        /* \"contracts/Lottery.sol\":1960:1978  participant.player */\n      0x00\n      add\n      0x00\n      swap1\n      sload\n      swap1\n      0x0100\n      exp\n      swap1\n      div\n      0xffffffffffffffffffffffffffffffffffffffff\n      and\n        /* \"contracts/Lottery.sol\":1992:2003  participant */\n      dup2\n        /* \"contracts/Lottery.sol\":1992:2013  participant.numTicket */\n      0x01\n      add\n      sload\n        /* \"contracts/Lottery.sol\":1940:2023  return(... */\n      swap3\n      pop\n      swap3\n      pop\n      pop\n        /* \"contracts/Lottery.sol\":1790:2030  function getPlayers(uint _index) public view returns (address payable, uint) {... */\n      swap2\n      pop\n      swap2\n      jump\t// out\n        /* \"contracts/Lottery.sol\":1176:1231  mapping (uint => address payable) public lotteryHistory */\n    tag_44:\n      mstore(0x20, 0x08)\n      dup1\n      0x00\n      mstore\n      keccak256(0x00, 0x40)\n      0x00\n      swap2\n      pop\n      sload\n      swap1\n      0x0100\n      exp\n      swap1\n      div\n      0xffffffffffffffffffffffffffffffffffffffff\n      and\n      dup2\n      jump\t// out\n        /* \"contracts/Lottery.sol\":2133:2650  function enter(uint _numTicket) public payable {... */\n    tag_48:\n        /* \"contracts/Lottery.sol\":2210:2215  2 wei */\n      0x02\n        /* \"contracts/Lottery.sol\":2198:2207  msg.value */\n      callvalue\n        /* \"contracts/Lottery.sol\":2198:2215  msg.value > 2 wei */\n      gt\n        /* \"contracts/Lottery.sol\":2190:2236  require(msg.value > 2 wei, \"Not enough token\") */\n      tag_76\n      jumpi\n      mload(0x40)\n      0x08c379a000000000000000000000000000000000000000000000000000000000\n      dup2\n      mstore\n      0x04\n      add\n      tag_77\n      swap1\n      tag_78\n      jump\t// in\n    tag_77:\n      mload(0x40)\n      dup1\n      swap2\n      sub\n      swap1\n      revert\n    tag_76:\n        /* \"contracts/Lottery.sol\":2268:2269  1 */\n      0x01\n        /* \"contracts/Lottery.sol\":2254:2264  _numTicket */\n      dup2\n        /* \"contracts/Lottery.sol\":2254:2269  _numTicket >= 1 */\n      lt\n      iszero\n        /* \"contracts/Lottery.sol\":2254:2289  _numTicket >= 1 && _numTicket <= 10 */\n      dup1\n      iszero\n      tag_79\n      jumpi\n      pop\n        /* \"contracts/Lottery.sol\":2287:2289  10 */\n      0x0a\n        /* \"contracts/Lottery.sol\":2273:2283  _numTicket */\n      dup2\n        /* \"contracts/Lottery.sol\":2273:2289  _numTicket <= 10 */\n      gt\n      iszero\n        /* \"contracts/Lottery.sol\":2254:2289  _numTicket >= 1 && _numTicket <= 10 */\n    tag_79:\n        /* \"contracts/Lottery.sol\":2246:2320  require(_numTicket >= 1 && _numTicket <= 10, \"Number ticket out of range\") */\n      tag_80\n      jumpi\n      mload(0x40)\n      0x08c379a000000000000000000000000000000000000000000000000000000000\n      dup2\n      mstore\n      0x04\n      add\n      tag_81\n      swap1\n      tag_82\n      jump\t// in\n    tag_81:\n      mload(0x40)\n      dup1\n      swap2\n      sub\n      swap1\n      revert\n    tag_80:\n        /* \"contracts/Lottery.sol\":2330:2360  Participants storage newPlayer */\n      0x00\n        /* \"contracts/Lottery.sol\":2363:2373  allLottery */\n      0x0a\n        /* \"contracts/Lottery.sol\":2363:2386  allLottery[playerCount] */\n      0x00\n        /* \"contracts/Lottery.sol\":2374:2385  playerCount */\n      sload(0x0b)\n        /* \"contracts/Lottery.sol\":2363:2386  allLottery[playerCount] */\n      dup2\n      mstore\n      0x20\n      add\n      swap1\n      dup2\n      mstore\n      0x20\n      add\n      0x00\n      keccak256\n        /* \"contracts/Lottery.sol\":2330:2386  Participants storage newPlayer = allLottery[playerCount] */\n      swap1\n      pop\n        /* \"contracts/Lottery.sol\":2423:2433  msg.sender */\n      caller\n        /* \"contracts/Lottery.sol\":2396:2405  newPlayer */\n      dup2\n        /* \"contracts/Lottery.sol\":2396:2412  newPlayer.player */\n      0x00\n      add\n      0x00\n        /* \"contracts/Lottery.sol\":2396:2434  newPlayer.player = payable(msg.sender) */\n      0x0100\n      exp\n      dup2\n      sload\n      dup2\n      0xffffffffffffffffffffffffffffffffffffffff\n      mul\n      not\n      and\n      swap1\n      dup4\n      0xffffffffffffffffffffffffffffffffffffffff\n      and\n      mul\n      or\n      swap1\n      sstore\n      pop\n        /* \"contracts/Lottery.sol\":2466:2476  _numTicket */\n      dup2\n        /* \"contracts/Lottery.sol\":2444:2453  newPlayer */\n      dup2\n        /* \"contracts/Lottery.sol\":2444:2463  newPlayer.numTicket */\n      0x01\n      add\n        /* \"contracts/Lottery.sol\":2444:2476  newPlayer.numTicket = _numTicket */\n      dup2\n      swap1\n      sstore\n      pop\n        /* \"contracts/Lottery.sol\":2486:2520  ListNumberTicket storage addTicket */\n      0x00\n        /* \"contracts/Lottery.sol\":2523:2534  groupTicket */\n      0x09\n        /* \"contracts/Lottery.sol\":2523:2555  groupTicket[newPlayer.numTicket] */\n      0x00\n        /* \"contracts/Lottery.sol\":2535:2544  newPlayer */\n      dup4\n        /* \"contracts/Lottery.sol\":2535:2554  newPlayer.numTicket */\n      0x01\n      add\n      sload\n        /* \"contracts/Lottery.sol\":2523:2555  groupTicket[newPlayer.numTicket] */\n      dup2\n      mstore\n      0x20\n      add\n      swap1\n      dup2\n      mstore\n      0x20\n      add\n      0x00\n      keccak256\n        /* \"contracts/Lottery.sol\":2486:2555  ListNumberTicket storage addTicket = groupTicket[newPlayer.numTicket] */\n      swap1\n      pop\n        /* \"contracts/Lottery.sol\":2565:2574  addTicket */\n      dup1\n        /* \"contracts/Lottery.sol\":2565:2586  addTicket.groupPlayer */\n      0x00\n      add\n        /* \"contracts/Lottery.sol\":2600:2610  msg.sender */\n      caller\n        /* \"contracts/Lottery.sol\":2565:2612  addTicket.groupPlayer.push(payable(msg.sender)) */\n      swap1\n      dup1\n      0x01\n      dup2\n      sload\n      add\n      dup1\n      dup3\n      sstore\n      dup1\n      swap2\n      pop\n      pop\n      0x01\n      swap1\n      sub\n      swap1\n      0x00\n      mstore\n      keccak256(0x00, 0x20)\n      add\n      0x00\n      swap1\n      swap2\n      swap1\n      swap2\n      swap1\n      swap2\n      0x0100\n      exp\n      dup2\n      sload\n      dup2\n      0xffffffffffffffffffffffffffffffffffffffff\n      mul\n      not\n      and\n      swap1\n      dup4\n      0xffffffffffffffffffffffffffffffffffffffff\n      and\n      mul\n      or\n      swap1\n      sstore\n      pop\n        /* \"contracts/Lottery.sol\":2622:2643  increasePlayerCount() */\n      tag_84\n        /* \"contracts/Lottery.sol\":2622:2641  increasePlayerCount */\n      tag_85\n        /* \"contracts/Lottery.sol\":2622:2643  increasePlayerCount() */\n      jump\t// in\n    tag_84:\n        /* \"contracts/Lottery.sol\":2180:2650  {... */\n      pop\n      pop\n        /* \"contracts/Lottery.sol\":2133:2650  function enter(uint _numTicket) public payable {... */\n      pop\n      jump\t// out\n        /* \"contracts/Lottery.sol\":3112:3420  function requestRandomWords() external onlyOwner {... */\n    tag_51:\n        /* \"contracts/Lottery.sol\":3757:3764  s_owner */\n      0x06\n      0x00\n      swap1\n      sload\n      swap1\n      0x0100\n      exp\n      swap1\n      div\n      0xffffffffffffffffffffffffffffffffffffffff\n      and\n        /* \"contracts/Lottery.sol\":3743:3764  msg.sender == s_owner */\n      0xffffffffffffffffffffffffffffffffffffffff\n      and\n        /* \"contracts/Lottery.sol\":3743:3753  msg.sender */\n      caller\n        /* \"contracts/Lottery.sol\":3743:3764  msg.sender == s_owner */\n      0xffffffffffffffffffffffffffffffffffffffff\n      and\n      eq\n        /* \"contracts/Lottery.sol\":3735:3765  require(msg.sender == s_owner) */\n      tag_87\n      jumpi\n      0x00\n      dup1\n      revert\n    tag_87:\n        /* \"contracts/Lottery.sol\":3412:3413  1 */\n      0x01\n        /* \"contracts/Lottery.sol\":3407:3409  20 */\n      0x14\n        /* \"contracts/Lottery.sol\":3247:3258  COORDINATOR */\n      0x00\n      dup1\n      sload\n      swap1\n      0x0100\n      exp\n      swap1\n      div\n      0xffffffffffffffffffffffffffffffffffffffff\n      and\n        /* \"contracts/Lottery.sol\":3247:3277  COORDINATOR.requestRandomWords */\n      0xffffffffffffffffffffffffffffffffffffffff\n      and\n      0x5d3b1d30\n        /* \"contracts/Lottery.sol\":3287:3294  keyHash */\n      sload(0x02)\n        /* \"contracts/Lottery.sol\":3304:3320  s_subscriptionId */\n      0x00\n      0x14\n      swap1\n      sload\n      swap1\n      0x0100\n      exp\n      swap1\n      div\n      0xffffffffffffffff\n      and\n        /* \"contracts/Lottery.sol\":3330:3350  requestConfirmations */\n      0x03\n      0x04\n      swap1\n      sload\n      swap1\n      0x0100\n      exp\n      swap1\n      div\n      0xffff\n      and\n        /* \"contracts/Lottery.sol\":3360:3376  callbackGasLimit */\n      0x03\n      0x00\n      swap1\n      sload\n      swap1\n      0x0100\n      exp\n      swap1\n      div\n      0xffffffff\n      and\n        /* \"contracts/Lottery.sol\":3386:3394  numWords */\n      0x03\n      0x06\n      swap1\n      sload\n      swap1\n      0x0100\n      exp\n      swap1\n      div\n      0xffffffff\n      and\n        /* \"contracts/Lottery.sol\":3247:3404  COORDINATOR.requestRandomWords(... */\n      mload(0x40)\n      dup7\n      0xffffffff\n      and\n      0xe0\n      shl\n      dup2\n      mstore\n      0x04\n      add\n      tag_89\n      swap6\n      swap5\n      swap4\n      swap3\n      swap2\n      swap1\n      tag_90\n      jump\t// in\n    tag_89:\n      0x20\n      mload(0x40)\n      dup1\n      dup4\n      sub\n      dup2\n      0x00\n      dup8\n      dup1\n      extcodesize\n      iszero\n      dup1\n      iszero\n      tag_91\n      jumpi\n      0x00\n      dup1\n      revert\n    tag_91:\n      pop\n      gas\n      call\n      iszero\n      dup1\n      iszero\n      tag_93\n      jumpi\n      returndatasize\n      0x00\n      dup1\n      returndatacopy\n      revert(0x00, returndatasize)\n    tag_93:\n      pop\n      pop\n      pop\n      pop\n      mload(0x40)\n      returndatasize\n      not(0x1f)\n      0x1f\n      dup3\n      add\n      and\n      dup3\n      add\n      dup1\n      0x40\n      mstore\n      pop\n      dup2\n      add\n      swap1\n      tag_94\n      swap2\n      swap1\n      tag_95\n      jump\t// in\n    tag_94:\n        /* \"contracts/Lottery.sol\":3247:3409  COORDINATOR.requestRandomWords(... */\n      tag_96\n      swap2\n      swap1\n      tag_97\n      jump\t// in\n    tag_96:\n        /* \"contracts/Lottery.sol\":3247:3413  COORDINATOR.requestRandomWords(... */\n      tag_98\n      swap2\n      swap1\n      tag_99\n      jump\t// in\n    tag_98:\n        /* \"contracts/Lottery.sol\":3233:3244  s_requestId */\n      0x05\n        /* \"contracts/Lottery.sol\":3233:3413  s_requestId = COORDINATOR.requestRandomWords(... */\n      dup2\n      swap1\n      sstore\n      pop\n        /* \"contracts/Lottery.sol\":3112:3420  function requestRandomWords() external onlyOwner {... */\n      jump\t// out\n        /* \"contracts/Lottery.sol\":1149:1170  uint public lotteryId */\n    tag_54:\n      sload(0x07)\n      dup2\n      jump\t// out\n        /* \"contracts/Lottery.sol\":1091:1117  uint256 public s_requestId */\n    tag_58:\n      sload(0x05)\n      dup2\n      jump\t// out\n        /* \"contracts/Lottery.sol\":1055:1085  uint256[] public s_randomWords */\n    tag_63:\n      0x04\n      dup2\n      dup2\n      sload\n      dup2\n      lt\n      tag_100\n      jumpi\n      0x00\n      dup1\n      revert\n    tag_100:\n      swap1\n      0x00\n      mstore\n      keccak256(0x00, 0x20)\n      add\n      0x00\n      swap2\n      pop\n      swap1\n      pop\n      sload\n      dup2\n      jump\t// out\n        /* \"contracts/Lottery.sol\":3426:3593  function fulfillRandomWords(... */\n    tag_71:\n        /* \"contracts/Lottery.sol\":3575:3586  randomWords */\n      dup1\n        /* \"contracts/Lottery.sol\":3559:3572  s_randomWords */\n      0x04\n        /* \"contracts/Lottery.sol\":3559:3586  s_randomWords = randomWords */\n      swap1\n      dup1\n      mload\n      swap1\n      0x20\n      add\n      swap1\n      tag_103\n      swap3\n      swap2\n      swap1\n      tag_104\n      jump\t// in\n    tag_103:\n      pop\n        /* \"contracts/Lottery.sol\":3426:3593  function fulfillRandomWords(... */\n      pop\n      pop\n      jump\t// out\n        /* \"contracts/Lottery.sol\":2661:2731  function increasePlayerCount() internal {... */\n    tag_85:\n        /* \"contracts/Lottery.sol\":2711:2722  playerCount */\n      0x0b\n      0x00\n        /* \"contracts/Lottery.sol\":2711:2724  playerCount++ */\n      dup2\n      sload\n      dup1\n      swap3\n      swap2\n      swap1\n      tag_106\n      swap1\n      tag_107\n      jump\t// in\n    tag_106:\n      swap2\n      swap1\n      pop\n      sstore\n      pop\n        /* \"contracts/Lottery.sol\":2661:2731  function increasePlayerCount() internal {... */\n      jump\t// out\n    tag_104:\n      dup3\n      dup1\n      sload\n      dup3\n      dup3\n      sstore\n      swap1\n      0x00\n      mstore\n      keccak256(0x00, 0x20)\n      swap1\n      dup2\n      add\n      swap3\n      dup3\n      iszero\n      tag_108\n      jumpi\n      swap2\n      0x20\n      mul\n      dup3\n      add\n    tag_109:\n      dup3\n      dup2\n      gt\n      iszero\n      tag_110\n      jumpi\n      dup3\n      mload\n      dup3\n      sstore\n      swap2\n      0x20\n      add\n      swap2\n      swap1\n      0x01\n      add\n      swap1\n      jump(tag_109)\n    tag_110:\n    tag_108:\n      pop\n      swap1\n      pop\n      tag_111\n      swap2\n      swap1\n      tag_112\n      jump\t// in\n    tag_111:\n      pop\n      swap1\n      jump\t// out\n    tag_112:\n    tag_113:\n      dup1\n      dup3\n      gt\n      iszero\n      tag_114\n      jumpi\n      0x00\n      dup2\n      0x00\n      swap1\n      sstore\n      pop\n      0x01\n      add\n      jump(tag_113)\n    tag_114:\n      pop\n      swap1\n      jump\t// out\n        /* \"#utility.yul\":24:746   */\n    tag_116:\n        /* \"#utility.yul\":120:125   */\n      0x00\n        /* \"#utility.yul\":145:226   */\n      tag_118\n        /* \"#utility.yul\":161:225   */\n      tag_119\n        /* \"#utility.yul\":218:224   */\n      dup5\n        /* \"#utility.yul\":161:225   */\n      tag_120\n      jump\t// in\n    tag_119:\n        /* \"#utility.yul\":145:226   */\n      tag_121\n      jump\t// in\n    tag_118:\n        /* \"#utility.yul\":136:226   */\n      swap1\n      pop\n        /* \"#utility.yul\":246:251   */\n      dup1\n        /* \"#utility.yul\":275:281   */\n      dup4\n        /* \"#utility.yul\":268:273   */\n      dup3\n        /* \"#utility.yul\":261:282   */\n      mstore\n        /* \"#utility.yul\":309:313   */\n      0x20\n        /* \"#utility.yul\":302:307   */\n      dup3\n        /* \"#utility.yul\":298:314   */\n      add\n        /* \"#utility.yul\":291:314   */\n      swap1\n      pop\n        /* \"#utility.yul\":335:341   */\n      dup3\n        /* \"#utility.yul\":385:388   */\n      dup6\n        /* \"#utility.yul\":377:381   */\n      0x20\n        /* \"#utility.yul\":369:375   */\n      dup7\n        /* \"#utility.yul\":365:382   */\n      mul\n        /* \"#utility.yul\":360:363   */\n      dup3\n        /* \"#utility.yul\":356:383   */\n      add\n        /* \"#utility.yul\":353:389   */\n      gt\n        /* \"#utility.yul\":350:493   */\n      iszero\n      tag_122\n      jumpi\n        /* \"#utility.yul\":404:483   */\n      tag_123\n      tag_124\n      jump\t// in\n    tag_123:\n        /* \"#utility.yul\":350:493   */\n    tag_122:\n        /* \"#utility.yul\":517:518   */\n      0x00\n        /* \"#utility.yul\":502:740   */\n    tag_125:\n        /* \"#utility.yul\":527:533   */\n      dup6\n        /* \"#utility.yul\":524:525   */\n      dup2\n        /* \"#utility.yul\":521:534   */\n      lt\n        /* \"#utility.yul\":502:740   */\n      iszero\n      tag_127\n      jumpi\n        /* \"#utility.yul\":595:598   */\n      dup2\n        /* \"#utility.yul\":624:661   */\n      tag_128\n        /* \"#utility.yul\":657:660   */\n      dup9\n        /* \"#utility.yul\":645:655   */\n      dup3\n        /* \"#utility.yul\":624:661   */\n      tag_129\n      jump\t// in\n    tag_128:\n        /* \"#utility.yul\":619:622   */\n      dup5\n        /* \"#utility.yul\":612:662   */\n      mstore\n        /* \"#utility.yul\":691:695   */\n      0x20\n        /* \"#utility.yul\":686:689   */\n      dup5\n        /* \"#utility.yul\":682:696   */\n      add\n        /* \"#utility.yul\":675:696   */\n      swap4\n      pop\n        /* \"#utility.yul\":725:729   */\n      0x20\n        /* \"#utility.yul\":720:723   */\n      dup4\n        /* \"#utility.yul\":716:730   */\n      add\n        /* \"#utility.yul\":709:730   */\n      swap3\n      pop\n        /* \"#utility.yul\":562:740   */\n      pop\n        /* \"#utility.yul\":549:550   */\n      0x01\n        /* \"#utility.yul\":546:547   */\n      dup2\n        /* \"#utility.yul\":542:551   */\n      add\n        /* \"#utility.yul\":537:551   */\n      swap1\n      pop\n        /* \"#utility.yul\":502:740   */\n      jump(tag_125)\n    tag_127:\n        /* \"#utility.yul\":506:520   */\n      pop\n        /* \"#utility.yul\":126:746   */\n      pop\n      pop\n        /* \"#utility.yul\":24:746   */\n      swap4\n      swap3\n      pop\n      pop\n      pop\n      jump\t// out\n        /* \"#utility.yul\":769:1139   */\n    tag_130:\n        /* \"#utility.yul\":840:845   */\n      0x00\n        /* \"#utility.yul\":889:892   */\n      dup3\n        /* \"#utility.yul\":882:886   */\n      0x1f\n        /* \"#utility.yul\":874:880   */\n      dup4\n        /* \"#utility.yul\":870:887   */\n      add\n        /* \"#utility.yul\":866:893   */\n      slt\n        /* \"#utility.yul\":856:978   */\n      tag_132\n      jumpi\n        /* \"#utility.yul\":897:976   */\n      tag_133\n      tag_134\n      jump\t// in\n    tag_133:\n        /* \"#utility.yul\":856:978   */\n    tag_132:\n        /* \"#utility.yul\":1014:1020   */\n      dup2\n        /* \"#utility.yul\":1001:1021   */\n      calldataload\n        /* \"#utility.yul\":1039:1133   */\n      tag_135\n        /* \"#utility.yul\":1129:1132   */\n      dup5\n        /* \"#utility.yul\":1121:1127   */\n      dup3\n        /* \"#utility.yul\":1114:1118   */\n      0x20\n        /* \"#utility.yul\":1106:1112   */\n      dup7\n        /* \"#utility.yul\":1102:1119   */\n      add\n        /* \"#utility.yul\":1039:1133   */\n      tag_116\n      jump\t// in\n    tag_135:\n        /* \"#utility.yul\":1030:1133   */\n      swap2\n      pop\n        /* \"#utility.yul\":846:1139   */\n      pop\n        /* \"#utility.yul\":769:1139   */\n      swap3\n      swap2\n      pop\n      pop\n      jump\t// out\n        /* \"#utility.yul\":1145:1284   */\n    tag_129:\n        /* \"#utility.yul\":1191:1196   */\n      0x00\n        /* \"#utility.yul\":1229:1235   */\n      dup2\n        /* \"#utility.yul\":1216:1236   */\n      calldataload\n        /* \"#utility.yul\":1207:1236   */\n      swap1\n      pop\n        /* \"#utility.yul\":1245:1278   */\n      tag_137\n        /* \"#utility.yul\":1272:1277   */\n      dup2\n        /* \"#utility.yul\":1245:1278   */\n      tag_138\n      jump\t// in\n    tag_137:\n        /* \"#utility.yul\":1145:1284   */\n      swap3\n      swap2\n      pop\n      pop\n      jump\t// out\n        /* \"#utility.yul\":1290:1433   */\n    tag_139:\n        /* \"#utility.yul\":1347:1352   */\n      0x00\n        /* \"#utility.yul\":1378:1384   */\n      dup2\n        /* \"#utility.yul\":1372:1385   */\n      mload\n        /* \"#utility.yul\":1363:1385   */\n      swap1\n      pop\n        /* \"#utility.yul\":1394:1427   */\n      tag_141\n        /* \"#utility.yul\":1421:1426   */\n      dup2\n        /* \"#utility.yul\":1394:1427   */\n      tag_138\n      jump\t// in\n    tag_141:\n        /* \"#utility.yul\":1290:1433   */\n      swap3\n      swap2\n      pop\n      pop\n      jump\t// out\n        /* \"#utility.yul\":1439:1768   */\n    tag_27:\n        /* \"#utility.yul\":1498:1504   */\n      0x00\n        /* \"#utility.yul\":1547:1549   */\n      0x20\n        /* \"#utility.yul\":1535:1544   */\n      dup3\n        /* \"#utility.yul\":1526:1533   */\n      dup5\n        /* \"#utility.yul\":1522:1545   */\n      sub\n        /* \"#utility.yul\":1518:1550   */\n      slt\n        /* \"#utility.yul\":1515:1634   */\n      iszero\n      tag_143\n      jumpi\n        /* \"#utility.yul\":1553:1632   */\n      tag_144\n      tag_145\n      jump\t// in\n    tag_144:\n        /* \"#utility.yul\":1515:1634   */\n    tag_143:\n        /* \"#utility.yul\":1673:1674   */\n      0x00\n        /* \"#utility.yul\":1698:1751   */\n      tag_146\n        /* \"#utility.yul\":1743:1750   */\n      dup5\n        /* \"#utility.yul\":1734:1740   */\n      dup3\n        /* \"#utility.yul\":1723:1732   */\n      dup6\n        /* \"#utility.yul\":1719:1741   */\n      add\n        /* \"#utility.yul\":1698:1751   */\n      tag_129\n      jump\t// in\n    tag_146:\n        /* \"#utility.yul\":1688:1751   */\n      swap2\n      pop\n        /* \"#utility.yul\":1644:1761   */\n      pop\n        /* \"#utility.yul\":1439:1768   */\n      swap3\n      swap2\n      pop\n      pop\n      jump\t// out\n        /* \"#utility.yul\":1774:2125   */\n    tag_95:\n        /* \"#utility.yul\":1844:1850   */\n      0x00\n        /* \"#utility.yul\":1893:1895   */\n      0x20\n        /* \"#utility.yul\":1881:1890   */\n      dup3\n        /* \"#utility.yul\":1872:1879   */\n      dup5\n        /* \"#utility.yul\":1868:1891   */\n      sub\n        /* \"#utility.yul\":1864:1896   */\n      slt\n        /* \"#utility.yul\":1861:1980   */\n      iszero\n      tag_148\n      jumpi\n        /* \"#utility.yul\":1899:1978   */\n      tag_149\n      tag_145\n      jump\t// in\n    tag_149:\n        /* \"#utility.yul\":1861:1980   */\n    tag_148:\n        /* \"#utility.yul\":2019:2020   */\n      0x00\n        /* \"#utility.yul\":2044:2108   */\n      tag_150\n        /* \"#utility.yul\":2100:2107   */\n      dup5\n        /* \"#utility.yul\":2091:2097   */\n      dup3\n        /* \"#utility.yul\":2080:2089   */\n      dup6\n        /* \"#utility.yul\":2076:2098   */\n      add\n        /* \"#utility.yul\":2044:2108   */\n      tag_139\n      jump\t// in\n    tag_150:\n        /* \"#utility.yul\":2034:2108   */\n      swap2\n      pop\n        /* \"#utility.yul\":1990:2118   */\n      pop\n        /* \"#utility.yul\":1774:2125   */\n      swap3\n      swap2\n      pop\n      pop\n      jump\t// out\n        /* \"#utility.yul\":2131:2815   */\n    tag_22:\n        /* \"#utility.yul\":2224:2230   */\n      0x00\n        /* \"#utility.yul\":2232:2238   */\n      dup1\n        /* \"#utility.yul\":2281:2283   */\n      0x40\n        /* \"#utility.yul\":2269:2278   */\n      dup4\n        /* \"#utility.yul\":2260:2267   */\n      dup6\n        /* \"#utility.yul\":2256:2279   */\n      sub\n        /* \"#utility.yul\":2252:2284   */\n      slt\n        /* \"#utility.yul\":2249:2368   */\n      iszero\n      tag_152\n      jumpi\n        /* \"#utility.yul\":2287:2366   */\n      tag_153\n      tag_145\n      jump\t// in\n    tag_153:\n        /* \"#utility.yul\":2249:2368   */\n    tag_152:\n        /* \"#utility.yul\":2407:2408   */\n      0x00\n        /* \"#utility.yul\":2432:2485   */\n      tag_154\n        /* \"#utility.yul\":2477:2484   */\n      dup6\n        /* \"#utility.yul\":2468:2474   */\n      dup3\n        /* \"#utility.yul\":2457:2466   */\n      dup7\n        /* \"#utility.yul\":2453:2475   */\n      add\n        /* \"#utility.yul\":2432:2485   */\n      tag_129\n      jump\t// in\n    tag_154:\n        /* \"#utility.yul\":2422:2485   */\n      swap3\n      pop\n        /* \"#utility.yul\":2378:2495   */\n      pop\n        /* \"#utility.yul\":2562:2564   */\n      0x20\n        /* \"#utility.yul\":2551:2560   */\n      dup4\n        /* \"#utility.yul\":2547:2565   */\n      add\n        /* \"#utility.yul\":2534:2566   */\n      calldataload\n        /* \"#utility.yul\":2593:2611   */\n      0xffffffffffffffff\n        /* \"#utility.yul\":2585:2591   */\n      dup2\n        /* \"#utility.yul\":2582:2612   */\n      gt\n        /* \"#utility.yul\":2579:2696   */\n      iszero\n      tag_155\n      jumpi\n        /* \"#utility.yul\":2615:2694   */\n      tag_156\n      tag_157\n      jump\t// in\n    tag_156:\n        /* \"#utility.yul\":2579:2696   */\n    tag_155:\n        /* \"#utility.yul\":2720:2798   */\n      tag_158\n        /* \"#utility.yul\":2790:2797   */\n      dup6\n        /* \"#utility.yul\":2781:2787   */\n      dup3\n        /* \"#utility.yul\":2770:2779   */\n      dup7\n        /* \"#utility.yul\":2766:2788   */\n      add\n        /* \"#utility.yul\":2720:2798   */\n      tag_130\n      jump\t// in\n    tag_158:\n        /* \"#utility.yul\":2710:2798   */\n      swap2\n      pop\n        /* \"#utility.yul\":2505:2808   */\n      pop\n        /* \"#utility.yul\":2131:2815   */\n      swap3\n      pop\n      swap3\n      swap1\n      pop\n      jump\t// out\n        /* \"#utility.yul\":2821:2963   */\n    tag_159:\n        /* \"#utility.yul\":2924:2956   */\n      tag_161\n        /* \"#utility.yul\":2950:2955   */\n      dup2\n        /* \"#utility.yul\":2924:2956   */\n      tag_162\n      jump\t// in\n    tag_161:\n        /* \"#utility.yul\":2919:2922   */\n      dup3\n        /* \"#utility.yul\":2912:2957   */\n      mstore\n        /* \"#utility.yul\":2821:2963   */\n      pop\n      pop\n      jump\t// out\n        /* \"#utility.yul\":2969:3087   */\n    tag_163:\n        /* \"#utility.yul\":3056:3080   */\n      tag_165\n        /* \"#utility.yul\":3074:3079   */\n      dup2\n        /* \"#utility.yul\":3056:3080   */\n      tag_166\n      jump\t// in\n    tag_165:\n        /* \"#utility.yul\":3051:3054   */\n      dup3\n        /* \"#utility.yul\":3044:3081   */\n      mstore\n        /* \"#utility.yul\":2969:3087   */\n      pop\n      pop\n      jump\t// out\n        /* \"#utility.yul\":3093:3211   */\n    tag_167:\n        /* \"#utility.yul\":3180:3204   */\n      tag_169\n        /* \"#utility.yul\":3198:3203   */\n      dup2\n        /* \"#utility.yul\":3180:3204   */\n      tag_170\n      jump\t// in\n    tag_169:\n        /* \"#utility.yul\":3175:3178   */\n      dup3\n        /* \"#utility.yul\":3168:3205   */\n      mstore\n        /* \"#utility.yul\":3093:3211   */\n      pop\n      pop\n      jump\t// out\n        /* \"#utility.yul\":3217:3583   */\n    tag_171:\n        /* \"#utility.yul\":3359:3362   */\n      0x00\n        /* \"#utility.yul\":3380:3447   */\n      tag_173\n        /* \"#utility.yul\":3444:3446   */\n      0x10\n        /* \"#utility.yul\":3439:3442   */\n      dup4\n        /* \"#utility.yul\":3380:3447   */\n      tag_174\n      jump\t// in\n    tag_173:\n        /* \"#utility.yul\":3373:3447   */\n      swap2\n      pop\n        /* \"#utility.yul\":3456:3549   */\n      tag_175\n        /* \"#utility.yul\":3545:3548   */\n      dup3\n        /* \"#utility.yul\":3456:3549   */\n      tag_176\n      jump\t// in\n    tag_175:\n        /* \"#utility.yul\":3574:3576   */\n      0x20\n        /* \"#utility.yul\":3569:3572   */\n      dup3\n        /* \"#utility.yul\":3565:3577   */\n      add\n        /* \"#utility.yul\":3558:3577   */\n      swap1\n      pop\n        /* \"#utility.yul\":3217:3583   */\n      swap2\n      swap1\n      pop\n      jump\t// out\n        /* \"#utility.yul\":3589:3955   */\n    tag_177:\n        /* \"#utility.yul\":3731:3734   */\n      0x00\n        /* \"#utility.yul\":3752:3819   */\n      tag_179\n        /* \"#utility.yul\":3816:3818   */\n      0x1a\n        /* \"#utility.yul\":3811:3814   */\n      dup4\n        /* \"#utility.yul\":3752:3819   */\n      tag_174\n      jump\t// in\n    tag_179:\n        /* \"#utility.yul\":3745:3819   */\n      swap2\n      pop\n        /* \"#utility.yul\":3828:3921   */\n      tag_180\n        /* \"#utility.yul\":3917:3920   */\n      dup3\n        /* \"#utility.yul\":3828:3921   */\n      tag_181\n      jump\t// in\n    tag_180:\n        /* \"#utility.yul\":3946:3948   */\n      0x20\n        /* \"#utility.yul\":3941:3944   */\n      dup3\n        /* \"#utility.yul\":3937:3949   */\n      add\n        /* \"#utility.yul\":3930:3949   */\n      swap1\n      pop\n        /* \"#utility.yul\":3589:3955   */\n      swap2\n      swap1\n      pop\n      jump\t// out\n        /* \"#utility.yul\":3961:4076   */\n    tag_182:\n        /* \"#utility.yul\":4046:4069   */\n      tag_184\n        /* \"#utility.yul\":4063:4068   */\n      dup2\n        /* \"#utility.yul\":4046:4069   */\n      tag_185\n      jump\t// in\n    tag_184:\n        /* \"#utility.yul\":4041:4044   */\n      dup3\n        /* \"#utility.yul\":4034:4070   */\n      mstore\n        /* \"#utility.yul\":3961:4076   */\n      pop\n      pop\n      jump\t// out\n        /* \"#utility.yul\":4082:4200   */\n    tag_186:\n        /* \"#utility.yul\":4169:4193   */\n      tag_188\n        /* \"#utility.yul\":4187:4192   */\n      dup2\n        /* \"#utility.yul\":4169:4193   */\n      tag_189\n      jump\t// in\n    tag_188:\n        /* \"#utility.yul\":4164:4167   */\n      dup3\n        /* \"#utility.yul\":4157:4194   */\n      mstore\n        /* \"#utility.yul\":4082:4200   */\n      pop\n      pop\n      jump\t// out\n        /* \"#utility.yul\":4206:4321   */\n    tag_190:\n        /* \"#utility.yul\":4291:4314   */\n      tag_192\n        /* \"#utility.yul\":4308:4313   */\n      dup2\n        /* \"#utility.yul\":4291:4314   */\n      tag_193\n      jump\t// in\n    tag_192:\n        /* \"#utility.yul\":4286:4289   */\n      dup3\n        /* \"#utility.yul\":4279:4315   */\n      mstore\n        /* \"#utility.yul\":4206:4321   */\n      pop\n      pop\n      jump\t// out\n        /* \"#utility.yul\":4327:4442   */\n    tag_194:\n        /* \"#utility.yul\":4412:4435   */\n      tag_196\n        /* \"#utility.yul\":4429:4434   */\n      dup2\n        /* \"#utility.yul\":4412:4435   */\n      tag_197\n      jump\t// in\n    tag_196:\n        /* \"#utility.yul\":4407:4410   */\n      dup3\n        /* \"#utility.yul\":4400:4436   */\n      mstore\n        /* \"#utility.yul\":4327:4442   */\n      pop\n      pop\n      jump\t// out\n        /* \"#utility.yul\":4448:4702   */\n    tag_30:\n        /* \"#utility.yul\":4557:4561   */\n      0x00\n        /* \"#utility.yul\":4595:4597   */\n      0x20\n        /* \"#utility.yul\":4584:4593   */\n      dup3\n        /* \"#utility.yul\":4580:4598   */\n      add\n        /* \"#utility.yul\":4572:4598   */\n      swap1\n      pop\n        /* \"#utility.yul\":4608:4695   */\n      tag_199\n        /* \"#utility.yul\":4692:4693   */\n      0x00\n        /* \"#utility.yul\":4681:4690   */\n      dup4\n        /* \"#utility.yul\":4677:4694   */\n      add\n        /* \"#utility.yul\":4668:4674   */\n      dup5\n        /* \"#utility.yul\":4608:4695   */\n      tag_159\n      jump\t// in\n    tag_199:\n        /* \"#utility.yul\":4448:4702   */\n      swap3\n      swap2\n      pop\n      pop\n      jump\t// out\n        /* \"#utility.yul\":4708:5072   */\n    tag_40:\n        /* \"#utility.yul\":4845:4849   */\n      0x00\n        /* \"#utility.yul\":4883:4885   */\n      0x40\n        /* \"#utility.yul\":4872:4881   */\n      dup3\n        /* \"#utility.yul\":4868:4886   */\n      add\n        /* \"#utility.yul\":4860:4886   */\n      swap1\n      pop\n        /* \"#utility.yul\":4896:4983   */\n      tag_201\n        /* \"#utility.yul\":4980:4981   */\n      0x00\n        /* \"#utility.yul\":4969:4978   */\n      dup4\n        /* \"#utility.yul\":4965:4982   */\n      add\n        /* \"#utility.yul\":4956:4962   */\n      dup6\n        /* \"#utility.yul\":4896:4983   */\n      tag_159\n      jump\t// in\n    tag_201:\n        /* \"#utility.yul\":4993:5065   */\n      tag_202\n        /* \"#utility.yul\":5061:5063   */\n      0x20\n        /* \"#utility.yul\":5050:5059   */\n      dup4\n        /* \"#utility.yul\":5046:5064   */\n      add\n        /* \"#utility.yul\":5037:5043   */\n      dup5\n        /* \"#utility.yul\":4993:5065   */\n      tag_186\n      jump\t// in\n    tag_202:\n        /* \"#utility.yul\":4708:5072   */\n      swap4\n      swap3\n      pop\n      pop\n      pop\n      jump\t// out\n        /* \"#utility.yul\":5078:5410   */\n    tag_69:\n        /* \"#utility.yul\":5199:5203   */\n      0x00\n        /* \"#utility.yul\":5237:5239   */\n      0x40\n        /* \"#utility.yul\":5226:5235   */\n      dup3\n        /* \"#utility.yul\":5222:5240   */\n      add\n        /* \"#utility.yul\":5214:5240   */\n      swap1\n      pop\n        /* \"#utility.yul\":5250:5321   */\n      tag_204\n        /* \"#utility.yul\":5318:5319   */\n      0x00\n        /* \"#utility.yul\":5307:5316   */\n      dup4\n        /* \"#utility.yul\":5303:5320   */\n      add\n        /* \"#utility.yul\":5294:5300   */\n      dup6\n        /* \"#utility.yul\":5250:5321   */\n      tag_163\n      jump\t// in\n    tag_204:\n        /* \"#utility.yul\":5331:5403   */\n      tag_205\n        /* \"#utility.yul\":5399:5401   */\n      0x20\n        /* \"#utility.yul\":5388:5397   */\n      dup4\n        /* \"#utility.yul\":5384:5402   */\n      add\n        /* \"#utility.yul\":5375:5381   */\n      dup5\n        /* \"#utility.yul\":5331:5403   */\n      tag_163\n      jump\t// in\n    tag_205:\n        /* \"#utility.yul\":5078:5410   */\n      swap4\n      swap3\n      pop\n      pop\n      pop\n      jump\t// out\n        /* \"#utility.yul\":5416:6064   */\n    tag_90:\n        /* \"#utility.yul\":5613:5617   */\n      0x00\n        /* \"#utility.yul\":5651:5654   */\n      0xa0\n        /* \"#utility.yul\":5640:5649   */\n      dup3\n        /* \"#utility.yul\":5636:5655   */\n      add\n        /* \"#utility.yul\":5628:5655   */\n      swap1\n      pop\n        /* \"#utility.yul\":5665:5736   */\n      tag_207\n        /* \"#utility.yul\":5733:5734   */\n      0x00\n        /* \"#utility.yul\":5722:5731   */\n      dup4\n        /* \"#utility.yul\":5718:5735   */\n      add\n        /* \"#utility.yul\":5709:5715   */\n      dup9\n        /* \"#utility.yul\":5665:5736   */\n      tag_167\n      jump\t// in\n    tag_207:\n        /* \"#utility.yul\":5746:5816   */\n      tag_208\n        /* \"#utility.yul\":5812:5814   */\n      0x20\n        /* \"#utility.yul\":5801:5810   */\n      dup4\n        /* \"#utility.yul\":5797:5815   */\n      add\n        /* \"#utility.yul\":5788:5794   */\n      dup8\n        /* \"#utility.yul\":5746:5816   */\n      tag_194\n      jump\t// in\n    tag_208:\n        /* \"#utility.yul\":5826:5896   */\n      tag_209\n        /* \"#utility.yul\":5892:5894   */\n      0x40\n        /* \"#utility.yul\":5881:5890   */\n      dup4\n        /* \"#utility.yul\":5877:5895   */\n      add\n        /* \"#utility.yul\":5868:5874   */\n      dup7\n        /* \"#utility.yul\":5826:5896   */\n      tag_182\n      jump\t// in\n    tag_209:\n        /* \"#utility.yul\":5906:5976   */\n      tag_210\n        /* \"#utility.yul\":5972:5974   */\n      0x60\n        /* \"#utility.yul\":5961:5970   */\n      dup4\n        /* \"#utility.yul\":5957:5975   */\n      add\n        /* \"#utility.yul\":5948:5954   */\n      dup6\n        /* \"#utility.yul\":5906:5976   */\n      tag_190\n      jump\t// in\n    tag_210:\n        /* \"#utility.yul\":5986:6057   */\n      tag_211\n        /* \"#utility.yul\":6052:6055   */\n      0x80\n        /* \"#utility.yul\":6041:6050   */\n      dup4\n        /* \"#utility.yul\":6037:6056   */\n      add\n        /* \"#utility.yul\":6028:6034   */\n      dup5\n        /* \"#utility.yul\":5986:6057   */\n      tag_190\n      jump\t// in\n    tag_211:\n        /* \"#utility.yul\":5416:6064   */\n      swap7\n      swap6\n      pop\n      pop\n      pop\n      pop\n      pop\n      pop\n      jump\t// out\n        /* \"#utility.yul\":6070:6489   */\n    tag_78:\n        /* \"#utility.yul\":6236:6240   */\n      0x00\n        /* \"#utility.yul\":6274:6276   */\n      0x20\n        /* \"#utility.yul\":6263:6272   */\n      dup3\n        /* \"#utility.yul\":6259:6277   */\n      add\n        /* \"#utility.yul\":6251:6277   */\n      swap1\n      pop\n        /* \"#utility.yul\":6323:6332   */\n      dup2\n        /* \"#utility.yul\":6317:6321   */\n      dup2\n        /* \"#utility.yul\":6313:6333   */\n      sub\n        /* \"#utility.yul\":6309:6310   */\n      0x00\n        /* \"#utility.yul\":6298:6307   */\n      dup4\n        /* \"#utility.yul\":6294:6311   */\n      add\n        /* \"#utility.yul\":6287:6334   */\n      mstore\n        /* \"#utility.yul\":6351:6482   */\n      tag_213\n        /* \"#utility.yul\":6477:6481   */\n      dup2\n        /* \"#utility.yul\":6351:6482   */\n      tag_171\n      jump\t// in\n    tag_213:\n        /* \"#utility.yul\":6343:6482   */\n      swap1\n      pop\n        /* \"#utility.yul\":6070:6489   */\n      swap2\n      swap1\n      pop\n      jump\t// out\n        /* \"#utility.yul\":6495:6914   */\n    tag_82:\n        /* \"#utility.yul\":6661:6665   */\n      0x00\n        /* \"#utility.yul\":6699:6701   */\n      0x20\n        /* \"#utility.yul\":6688:6697   */\n      dup3\n        /* \"#utility.yul\":6684:6702   */\n      add\n        /* \"#utility.yul\":6676:6702   */\n      swap1\n      pop\n        /* \"#utility.yul\":6748:6757   */\n      dup2\n        /* \"#utility.yul\":6742:6746   */\n      dup2\n        /* \"#utility.yul\":6738:6758   */\n      sub\n        /* \"#utility.yul\":6734:6735   */\n      0x00\n        /* \"#utility.yul\":6723:6732   */\n      dup4\n        /* \"#utility.yul\":6719:6736   */\n      add\n        /* \"#utility.yul\":6712:6759   */\n      mstore\n        /* \"#utility.yul\":6776:6907   */\n      tag_215\n        /* \"#utility.yul\":6902:6906   */\n      dup2\n        /* \"#utility.yul\":6776:6907   */\n      tag_177\n      jump\t// in\n    tag_215:\n        /* \"#utility.yul\":6768:6907   */\n      swap1\n      pop\n        /* \"#utility.yul\":6495:6914   */\n      swap2\n      swap1\n      pop\n      jump\t// out\n        /* \"#utility.yul\":6920:7142   */\n    tag_18:\n        /* \"#utility.yul\":7013:7017   */\n      0x00\n        /* \"#utility.yul\":7051:7053   */\n      0x20\n        /* \"#utility.yul\":7040:7049   */\n      dup3\n        /* \"#utility.yul\":7036:7054   */\n      add\n        /* \"#utility.yul\":7028:7054   */\n      swap1\n      pop\n        /* \"#utility.yul\":7064:7135   */\n      tag_217\n        /* \"#utility.yul\":7132:7133   */\n      0x00\n        /* \"#utility.yul\":7121:7130   */\n      dup4\n        /* \"#utility.yul\":7117:7134   */\n      add\n        /* \"#utility.yul\":7108:7114   */\n      dup5\n        /* \"#utility.yul\":7064:7135   */\n      tag_186\n      jump\t// in\n    tag_217:\n        /* \"#utility.yul\":6920:7142   */\n      swap3\n      swap2\n      pop\n      pop\n      jump\t// out\n        /* \"#utility.yul\":7148:7277   */\n    tag_121:\n        /* \"#utility.yul\":7182:7188   */\n      0x00\n        /* \"#utility.yul\":7209:7229   */\n      tag_219\n      tag_220\n      jump\t// in\n    tag_219:\n        /* \"#utility.yul\":7199:7229   */\n      swap1\n      pop\n        /* \"#utility.yul\":7238:7271   */\n      tag_221\n        /* \"#utility.yul\":7266:7270   */\n      dup3\n        /* \"#utility.yul\":7258:7264   */\n      dup3\n        /* \"#utility.yul\":7238:7271   */\n      tag_222\n      jump\t// in\n    tag_221:\n        /* \"#utility.yul\":7148:7277   */\n      swap2\n      swap1\n      pop\n      jump\t// out\n        /* \"#utility.yul\":7283:7358   */\n    tag_220:\n        /* \"#utility.yul\":7316:7322   */\n      0x00\n        /* \"#utility.yul\":7349:7351   */\n      0x40\n        /* \"#utility.yul\":7343:7352   */\n      mload\n        /* \"#utility.yul\":7333:7352   */\n      swap1\n      pop\n        /* \"#utility.yul\":7283:7358   */\n      swap1\n      jump\t// out\n        /* \"#utility.yul\":7364:7675   */\n    tag_120:\n        /* \"#utility.yul\":7441:7445   */\n      0x00\n        /* \"#utility.yul\":7531:7549   */\n      0xffffffffffffffff\n        /* \"#utility.yul\":7523:7529   */\n      dup3\n        /* \"#utility.yul\":7520:7550   */\n      gt\n        /* \"#utility.yul\":7517:7573   */\n      iszero\n      tag_225\n      jumpi\n        /* \"#utility.yul\":7553:7571   */\n      tag_226\n      tag_227\n      jump\t// in\n    tag_226:\n        /* \"#utility.yul\":7517:7573   */\n    tag_225:\n        /* \"#utility.yul\":7603:7607   */\n      0x20\n        /* \"#utility.yul\":7595:7601   */\n      dup3\n        /* \"#utility.yul\":7591:7608   */\n      mul\n        /* \"#utility.yul\":7583:7608   */\n      swap1\n      pop\n        /* \"#utility.yul\":7663:7667   */\n      0x20\n        /* \"#utility.yul\":7657:7661   */\n      dup2\n        /* \"#utility.yul\":7653:7668   */\n      add\n        /* \"#utility.yul\":7645:7668   */\n      swap1\n      pop\n        /* \"#utility.yul\":7364:7675   */\n      swap2\n      swap1\n      pop\n      jump\t// out\n        /* \"#utility.yul\":7681:7850   */\n    tag_174:\n        /* \"#utility.yul\":7765:7776   */\n      0x00\n        /* \"#utility.yul\":7799:7805   */\n      dup3\n        /* \"#utility.yul\":7794:7797   */\n      dup3\n        /* \"#utility.yul\":7787:7806   */\n      mstore\n        /* \"#utility.yul\":7839:7843   */\n      0x20\n        /* \"#utility.yul\":7834:7837   */\n      dup3\n        /* \"#utility.yul\":7830:7844   */\n      add\n        /* \"#utility.yul\":7815:7844   */\n      swap1\n      pop\n        /* \"#utility.yul\":7681:7850   */\n      swap3\n      swap2\n      pop\n      pop\n      jump\t// out\n        /* \"#utility.yul\":7856:8161   */\n    tag_99:\n        /* \"#utility.yul\":7896:7899   */\n      0x00\n        /* \"#utility.yul\":7915:7935   */\n      tag_230\n        /* \"#utility.yul\":7933:7934   */\n      dup3\n        /* \"#utility.yul\":7915:7935   */\n      tag_189\n      jump\t// in\n    tag_230:\n        /* \"#utility.yul\":7910:7935   */\n      swap2\n      pop\n        /* \"#utility.yul\":7949:7969   */\n      tag_231\n        /* \"#utility.yul\":7967:7968   */\n      dup4\n        /* \"#utility.yul\":7949:7969   */\n      tag_189\n      jump\t// in\n    tag_231:\n        /* \"#utility.yul\":7944:7969   */\n      swap3\n      pop\n        /* \"#utility.yul\":8103:8104   */\n      dup3\n        /* \"#utility.yul\":8035:8101   */\n      0xffffffffffffffffffffffffffffffffffffffffffffffffffffffffffffffff\n        /* \"#utility.yul\":8031:8105   */\n      sub\n        /* \"#utility.yul\":8028:8029   */\n      dup3\n        /* \"#utility.yul\":8025:8106   */\n      gt\n        /* \"#utility.yul\":8022:8129   */\n      iszero\n      tag_232\n      jumpi\n        /* \"#utility.yul\":8109:8127   */\n      tag_233\n      tag_234\n      jump\t// in\n    tag_233:\n        /* \"#utility.yul\":8022:8129   */\n    tag_232:\n        /* \"#utility.yul\":8153:8154   */\n      dup3\n        /* \"#utility.yul\":8150:8151   */\n      dup3\n        /* \"#utility.yul\":8146:8155   */\n      add\n        /* \"#utility.yul\":8139:8155   */\n      swap1\n      pop\n        /* \"#utility.yul\":7856:8161   */\n      swap3\n      swap2\n      pop\n      pop\n      jump\t// out\n        /* \"#utility.yul\":8167:8263   */\n    tag_166:\n        /* \"#utility.yul\":8204:8211   */\n      0x00\n        /* \"#utility.yul\":8233:8257   */\n      tag_236\n        /* \"#utility.yul\":8251:8256   */\n      dup3\n        /* \"#utility.yul\":8233:8257   */\n      tag_237\n      jump\t// in\n    tag_236:\n        /* \"#utility.yul\":8222:8257   */\n      swap1\n      pop\n        /* \"#utility.yul\":8167:8263   */\n      swap2\n      swap1\n      pop\n      jump\t// out\n        /* \"#utility.yul\":8269:8373   */\n    tag_162:\n        /* \"#utility.yul\":8314:8321   */\n      0x00\n        /* \"#utility.yul\":8343:8367   */\n      tag_239\n        /* \"#utility.yul\":8361:8366   */\n      dup3\n        /* \"#utility.yul\":8343:8367   */\n      tag_237\n      jump\t// in\n    tag_239:\n        /* \"#utility.yul\":8332:8367   */\n      swap1\n      pop\n        /* \"#utility.yul\":8269:8373   */\n      swap2\n      swap1\n      pop\n      jump\t// out\n        /* \"#utility.yul\":8379:8456   */\n    tag_170:\n        /* \"#utility.yul\":8416:8423   */\n      0x00\n        /* \"#utility.yul\":8445:8450   */\n      dup2\n        /* \"#utility.yul\":8434:8450   */\n      swap1\n      pop\n        /* \"#utility.yul\":8379:8456   */\n      swap2\n      swap1\n      pop\n      jump\t// out\n        /* \"#utility.yul\":8462:8551   */\n    tag_185:\n        /* \"#utility.yul\":8498:8505   */\n      0x00\n        /* \"#utility.yul\":8538:8544   */\n      0xffff\n        /* \"#utility.yul\":8531:8536   */\n      dup3\n        /* \"#utility.yul\":8527:8545   */\n      and\n        /* \"#utility.yul\":8516:8545   */\n      swap1\n      pop\n        /* \"#utility.yul\":8462:8551   */\n      swap2\n      swap1\n      pop\n      jump\t// out\n        /* \"#utility.yul\":8557:8683   */\n    tag_237:\n        /* \"#utility.yul\":8594:8601   */\n      0x00\n        /* \"#utility.yul\":8634:8676   */\n      0xffffffffffffffffffffffffffffffffffffffff\n        /* \"#utility.yul\":8627:8632   */\n      dup3\n        /* \"#utility.yul\":8623:8677   */\n      and\n        /* \"#utility.yul\":8612:8677   */\n      swap1\n      pop\n        /* \"#utility.yul\":8557:8683   */\n      swap2\n      swap1\n      pop\n      jump\t// out\n        /* \"#utility.yul\":8689:8766   */\n    tag_189:\n        /* \"#utility.yul\":8726:8733   */\n      0x00\n        /* \"#utility.yul\":8755:8760   */\n      dup2\n        /* \"#utility.yul\":8744:8760   */\n      swap1\n      pop\n        /* \"#utility.yul\":8689:8766   */\n      swap2\n      swap1\n      pop\n      jump\t// out\n        /* \"#utility.yul\":8772:8865   */\n    tag_193:\n        /* \"#utility.yul\":8808:8815   */\n      0x00\n        /* \"#utility.yul\":8848:8858   */\n      0xffffffff\n        /* \"#utility.yul\":8841:8846   */\n      dup3\n        /* \"#utility.yul\":8837:8859   */\n      and\n        /* \"#utility.yul\":8826:8859   */\n      swap1\n      pop\n        /* \"#utility.yul\":8772:8865   */\n      swap2\n      swap1\n      pop\n      jump\t// out\n        /* \"#utility.yul\":8871:8972   */\n    tag_197:\n        /* \"#utility.yul\":8907:8914   */\n      0x00\n        /* \"#utility.yul\":8947:8965   */\n      0xffffffffffffffff\n        /* \"#utility.yul\":8940:8945   */\n      dup3\n        /* \"#utility.yul\":8936:8966   */\n      and\n        /* \"#utility.yul\":8925:8966   */\n      swap1\n      pop\n        /* \"#utility.yul\":8871:8972   */\n      swap2\n      swap1\n      pop\n      jump\t// out\n        /* \"#utility.yul\":8978:9259   */\n    tag_222:\n        /* \"#utility.yul\":9061:9088   */\n      tag_247\n        /* \"#utility.yul\":9083:9087   */\n      dup3\n        /* \"#utility.yul\":9061:9088   */\n      tag_248\n      jump\t// in\n    tag_247:\n        /* \"#utility.yul\":9053:9059   */\n      dup2\n        /* \"#utility.yul\":9049:9089   */\n      add\n        /* \"#utility.yul\":9191:9197   */\n      dup2\n        /* \"#utility.yul\":9179:9189   */\n      dup2\n        /* \"#utility.yul\":9176:9198   */\n      lt\n        /* \"#utility.yul\":9155:9173   */\n      0xffffffffffffffff\n        /* \"#utility.yul\":9143:9153   */\n      dup3\n        /* \"#utility.yul\":9140:9174   */\n      gt\n        /* \"#utility.yul\":9137:9199   */\n      or\n        /* \"#utility.yul\":9134:9222   */\n      iszero\n      tag_249\n      jumpi\n        /* \"#utility.yul\":9202:9220   */\n      tag_250\n      tag_227\n      jump\t// in\n    tag_250:\n        /* \"#utility.yul\":9134:9222   */\n    tag_249:\n        /* \"#utility.yul\":9242:9252   */\n      dup1\n        /* \"#utility.yul\":9238:9240   */\n      0x40\n        /* \"#utility.yul\":9231:9253   */\n      mstore\n        /* \"#utility.yul\":9021:9259   */\n      pop\n        /* \"#utility.yul\":8978:9259   */\n      pop\n      pop\n      jump\t// out\n        /* \"#utility.yul\":9265:9498   */\n    tag_107:\n        /* \"#utility.yul\":9304:9307   */\n      0x00\n        /* \"#utility.yul\":9327:9351   */\n      tag_252\n        /* \"#utility.yul\":9345:9350   */\n      dup3\n        /* \"#utility.yul\":9327:9351   */\n      tag_189\n      jump\t// in\n    tag_252:\n        /* \"#utility.yul\":9318:9351   */\n      swap2\n      pop\n        /* \"#utility.yul\":9373:9439   */\n      0xffffffffffffffffffffffffffffffffffffffffffffffffffffffffffffffff\n        /* \"#utility.yul\":9366:9371   */\n      dup3\n        /* \"#utility.yul\":9363:9440   */\n      eq\n        /* \"#utility.yul\":9360:9463   */\n      iszero\n      tag_253\n      jumpi\n        /* \"#utility.yul\":9443:9461   */\n      tag_254\n      tag_234\n      jump\t// in\n    tag_254:\n        /* \"#utility.yul\":9360:9463   */\n    tag_253:\n        /* \"#utility.yul\":9490:9491   */\n      0x01\n        /* \"#utility.yul\":9483:9488   */\n      dup3\n        /* \"#utility.yul\":9479:9492   */\n      add\n        /* \"#utility.yul\":9472:9492   */\n      swap1\n      pop\n        /* \"#utility.yul\":9265:9498   */\n      swap2\n      swap1\n      pop\n      jump\t// out\n        /* \"#utility.yul\":9504:9680   */\n    tag_97:\n        /* \"#utility.yul\":9536:9537   */\n      0x00\n        /* \"#utility.yul\":9553:9573   */\n      tag_256\n        /* \"#utility.yul\":9571:9572   */\n      dup3\n        /* \"#utility.yul\":9553:9573   */\n      tag_189\n      jump\t// in\n    tag_256:\n        /* \"#utility.yul\":9548:9573   */\n      swap2\n      pop\n        /* \"#utility.yul\":9587:9607   */\n      tag_257\n        /* \"#utility.yul\":9605:9606   */\n      dup4\n        /* \"#utility.yul\":9587:9607   */\n      tag_189\n      jump\t// in\n    tag_257:\n        /* \"#utility.yul\":9582:9607   */\n      swap3\n      pop\n        /* \"#utility.yul\":9626:9627   */\n      dup3\n        /* \"#utility.yul\":9616:9651   */\n      tag_258\n      jumpi\n        /* \"#utility.yul\":9631:9649   */\n      tag_259\n      tag_260\n      jump\t// in\n    tag_259:\n        /* \"#utility.yul\":9616:9651   */\n    tag_258:\n        /* \"#utility.yul\":9672:9673   */\n      dup3\n        /* \"#utility.yul\":9669:9670   */\n      dup3\n        /* \"#utility.yul\":9665:9674   */\n      mod\n        /* \"#utility.yul\":9660:9674   */\n      swap1\n      pop\n        /* \"#utility.yul\":9504:9680   */\n      swap3\n      swap2\n      pop\n      pop\n      jump\t// out\n        /* \"#utility.yul\":9686:9866   */\n    tag_234:\n        /* \"#utility.yul\":9734:9811   */\n      0x4e487b7100000000000000000000000000000000000000000000000000000000\n        /* \"#utility.yul\":9731:9732   */\n      0x00\n        /* \"#utility.yul\":9724:9812   */\n      mstore\n        /* \"#utility.yul\":9831:9835   */\n      0x11\n        /* \"#utility.yul\":9828:9829   */\n      0x04\n        /* \"#utility.yul\":9821:9836   */\n      mstore\n        /* \"#utility.yul\":9855:9859   */\n      0x24\n        /* \"#utility.yul\":9852:9853   */\n      0x00\n        /* \"#utility.yul\":9845:9860   */\n      revert\n        /* \"#utility.yul\":9872:10052   */\n    tag_260:\n        /* \"#utility.yul\":9920:9997   */\n      0x4e487b7100000000000000000000000000000000000000000000000000000000\n        /* \"#utility.yul\":9917:9918   */\n      0x00\n        /* \"#utility.yul\":9910:9998   */\n      mstore\n        /* \"#utility.yul\":10017:10021   */\n      0x12\n        /* \"#utility.yul\":10014:10015   */\n      0x04\n        /* \"#utility.yul\":10007:10022   */\n      mstore\n        /* \"#utility.yul\":10041:10045   */\n      0x24\n        /* \"#utility.yul\":10038:10039   */\n      0x00\n        /* \"#utility.yul\":10031:10046   */\n      revert\n        /* \"#utility.yul\":10058:10238   */\n    tag_227:\n        /* \"#utility.yul\":10106:10183   */\n      0x4e487b7100000000000000000000000000000000000000000000000000000000\n        /* \"#utility.yul\":10103:10104   */\n      0x00\n        /* \"#utility.yul\":10096:10184   */\n      mstore\n        /* \"#utility.yul\":10203:10207   */\n      0x41\n        /* \"#utility.yul\":10200:10201   */\n      0x04\n        /* \"#utility.yul\":10193:10208   */\n      mstore\n        /* \"#utility.yul\":10227:10231   */\n      0x24\n        /* \"#utility.yul\":10224:10225   */\n      0x00\n        /* \"#utility.yul\":10217:10232   */\n      revert\n        /* \"#utility.yul\":10244:10361   */\n    tag_134:\n        /* \"#utility.yul\":10353:10354   */\n      0x00\n        /* \"#utility.yul\":10350:10351   */\n      dup1\n        /* \"#utility.yul\":10343:10355   */\n      revert\n        /* \"#utility.yul\":10367:10484   */\n    tag_124:\n        /* \"#utility.yul\":10476:10477   */\n      0x00\n        /* \"#utility.yul\":10473:10474   */\n      dup1\n        /* \"#utility.yul\":10466:10478   */\n      revert\n        /* \"#utility.yul\":10490:10607   */\n    tag_157:\n        /* \"#utility.yul\":10599:10600   */\n      0x00\n        /* \"#utility.yul\":10596:10597   */\n      dup1\n        /* \"#utility.yul\":10589:10601   */\n      revert\n        /* \"#utility.yul\":10613:10730   */\n    tag_145:\n        /* \"#utility.yul\":10722:10723   */\n      0x00\n        /* \"#utility.yul\":10719:10720   */\n      dup1\n        /* \"#utility.yul\":10712:10724   */\n      revert\n        /* \"#utility.yul\":10736:10838   */\n    tag_248:\n        /* \"#utility.yul\":10777:10783   */\n      0x00\n        /* \"#utility.yul\":10828:10830   */\n      0x1f\n        /* \"#utility.yul\":10824:10831   */\n      not\n        /* \"#utility.yul\":10819:10821   */\n      0x1f\n        /* \"#utility.yul\":10812:10817   */\n      dup4\n        /* \"#utility.yul\":10808:10822   */\n      add\n        /* \"#utility.yul\":10804:10832   */\n      and\n        /* \"#utility.yul\":10794:10832   */\n      swap1\n      pop\n        /* \"#utility.yul\":10736:10838   */\n      swap2\n      swap1\n      pop\n      jump\t// out\n        /* \"#utility.yul\":10844:11010   */\n    tag_176:\n        /* \"#utility.yul\":10984:11002   */\n      0x4e6f7420656e6f75676820746f6b656e00000000000000000000000000000000\n        /* \"#utility.yul\":10980:10981   */\n      0x00\n        /* \"#utility.yul\":10972:10978   */\n      dup3\n        /* \"#utility.yul\":10968:10982   */\n      add\n        /* \"#utility.yul\":10961:11003   */\n      mstore\n        /* \"#utility.yul\":10844:11010   */\n      pop\n      jump\t// out\n        /* \"#utility.yul\":11016:11192   */\n    tag_181:\n        /* \"#utility.yul\":11156:11184   */\n      0x4e756d626572207469636b6574206f7574206f662072616e6765000000000000\n        /* \"#utility.yul\":11152:11153   */\n      0x00\n        /* \"#utility.yul\":11144:11150   */\n      dup3\n        /* \"#utility.yul\":11140:11154   */\n      add\n        /* \"#utility.yul\":11133:11185   */\n      mstore\n        /* \"#utility.yul\":11016:11192   */\n      pop\n      jump\t// out\n        /* \"#utility.yul\":11198:11320   */\n    tag_138:\n        /* \"#utility.yul\":11271:11295   */\n      tag_272\n        /* \"#utility.yul\":11289:11294   */\n      dup2\n        /* \"#utility.yul\":11271:11295   */\n      tag_189\n      jump\t// in\n    tag_272:\n        /* \"#utility.yul\":11264:11269   */\n      dup2\n        /* \"#utility.yul\":11261:11296   */\n      eq\n        /* \"#utility.yul\":11251:11314   */\n      tag_273\n      jumpi\n        /* \"#utility.yul\":11310:11311   */\n      0x00\n        /* \"#utility.yul\":11307:11308   */\n      dup1\n        /* \"#utility.yul\":11300:11312   */\n      revert\n        /* \"#utility.yul\":11251:11314   */\n    tag_273:\n        /* \"#utility.yul\":11198:11320   */\n      pop\n      jump\t// out\n\n    auxdata: 0xa2646970667358221220b66ed4ccd6bcba2538807289e5d29937cfd980187df3ccb555346d7cdbfedced64736f6c63430008070033\n}\n",
				"bytecode": {
					"linkReferences": {},
					"object": "60a0604052736168499c0cffcacd319c818142124b7a15e857ab600160006101000a81548173ffffffffffffffffffffffffffffffffffffffff021916908373ffffffffffffffffffffffffffffffffffffffff1602179055507fd89b2bf150e3b9e13446986e571fb9cab24b13cea0a43ea20a6049a85cc807cc60001b600255620186a0600360006101000a81548163ffffffff021916908363ffffffff16021790555060038060046101000a81548161ffff021916908361ffff1602179055506002600360066101000a81548163ffffffff021916908363ffffffff1602179055506000600b553480156100f457600080fd5b5060405161115c38038061115c83398181016040528101906101169190610258565b600160009054906101000a900473ffffffffffffffffffffffffffffffffffffffff168073ffffffffffffffffffffffffffffffffffffffff1660808173ffffffffffffffffffffffffffffffffffffffff1660601b8152505050600160009054906101000a900473ffffffffffffffffffffffffffffffffffffffff166000806101000a81548173ffffffffffffffffffffffffffffffffffffffff021916908373ffffffffffffffffffffffffffffffffffffffff16021790555033600660006101000a81548173ffffffffffffffffffffffffffffffffffffffff021916908373ffffffffffffffffffffffffffffffffffffffff16021790555080600060146101000a81548167ffffffffffffffff021916908367ffffffffffffffff160217905550506102b5565b6000815190506102528161029e565b92915050565b60006020828403121561026e5761026d610299565b5b600061027c84828501610243565b91505092915050565b600067ffffffffffffffff82169050919050565b600080fd5b6102a781610285565b81146102b257600080fd5b50565b60805160601c610e826102da600039600081816102a801526102fc0152610e826000f3fe60806040526004361061009c5760003560e01c80636d6fe230116100645780636d6fe2301461019b578063a59f3e0c146101d8578063e0c86289146101f4578063e580f47b1461020b578063e89e106a14610236578063f6eaffc8146102615761009c565b806312065fe0146100a15780631fe543e3146100cc578063281d098d146100f557806332eb85a414610132578063460e20491461015d575b600080fd5b3480156100ad57600080fd5b506100b661029e565b6040516100c39190610b29565b60405180910390f35b3480156100d857600080fd5b506100f360048036038101906100ee919061091e565b6102a6565b005b34801561010157600080fd5b5061011c600480360381019061011791906108c4565b610366565b6040516101299190610a29565b60405180910390f35b34801561013e57600080fd5b506101476103a3565b6040516101549190610b29565b60405180910390f35b34801561016957600080fd5b50610184600480360381019061017f91906108c4565b6103ad565b604051610192929190610a44565b60405180910390f35b3480156101a757600080fd5b506101c260048036038101906101bd91906108c4565b6103fb565b6040516101cf9190610a29565b60405180910390f35b6101f260048036038101906101ed91906108c4565b61042e565b005b34801561020057600080fd5b506102096105b4565b005b34801561021757600080fd5b5061022061072d565b60405161022d9190610b29565b60405180910390f35b34801561024257600080fd5b5061024b610733565b6040516102589190610b29565b60405180910390f35b34801561026d57600080fd5b50610288600480360381019061028391906108c4565b610739565b6040516102959190610b29565b60405180910390f35b600047905090565b7f000000000000000000000000000000000000000000000000000000000000000073ffffffffffffffffffffffffffffffffffffffff163373ffffffffffffffffffffffffffffffffffffffff161461035857337f00000000000000000000000000000000000000000000000000000000000000006040517f1cf993f400000000000000000000000000000000000000000000000000000000815260040161034f929190610a6d565b60405180910390fd5b610362828261075d565b5050565b60006008600083815260200190815260200160002060009054906101000a900473ffffffffffffffffffffffffffffffffffffffff169050919050565b6000600b54905090565b6000806000600a600085815260200190815260200160002090508060000160009054906101000a900473ffffffffffffffffffffffffffffffffffffffff1681600101549250925050915091565b60086020528060005260406000206000915054906101000a900473ffffffffffffffffffffffffffffffffffffffff1681565b60023411610471576040517f08c379a000000000000000000000000000000000000000000000000000000000815260040161046890610ae9565b60405180910390fd5b600181101580156104835750600a8111155b6104c2576040517f08c379a00000000000000000000000000000000000000000000000000000000081526004016104b990610b09565b60405180910390fd5b6000600a6000600b5481526020019081526020016000209050338160000160006101000a81548173ffffffffffffffffffffffffffffffffffffffff021916908373ffffffffffffffffffffffffffffffffffffffff16021790555081816001018190555060006009600083600101548152602001908152602001600020905080600001339080600181540180825580915050600190039060005260206000200160009091909190916101000a81548173ffffffffffffffffffffffffffffffffffffffff021916908373ffffffffffffffffffffffffffffffffffffffff1602179055506105af610778565b505050565b600660009054906101000a900473ffffffffffffffffffffffffffffffffffffffff1673ffffffffffffffffffffffffffffffffffffffff163373ffffffffffffffffffffffffffffffffffffffff161461060e57600080fd5b6001601460008054906101000a900473ffffffffffffffffffffffffffffffffffffffff1673ffffffffffffffffffffffffffffffffffffffff16635d3b1d30600254600060149054906101000a900467ffffffffffffffff16600360049054906101000a900461ffff16600360009054906101000a900463ffffffff16600360069054906101000a900463ffffffff166040518663ffffffff1660e01b81526004016106bf959493929190610a96565b602060405180830381600087803b1580156106d957600080fd5b505af11580156106ed573d6000803e3d6000fd5b505050506040513d601f19601f8201168201806040525081019061071191906108f1565b61071b9190610d00565b6107259190610ba6565b600581905550565b60075481565b60055481565b6004818154811061074957600080fd5b906000526020600020016000915090505481565b8060049080519060200190610773929190610792565b505050565b600b600081548092919061078b90610cb7565b9190505550565b8280548282559060005260206000209081019282156107ce579160200282015b828111156107cd5782518255916020019190600101906107b2565b5b5090506107db91906107df565b5090565b5b808211156107f85760008160009055506001016107e0565b5090565b600061080f61080a84610b69565b610b44565b9050808382526020820190508285602086028201111561083257610831610dc3565b5b60005b858110156108625781610848888261089a565b845260208401935060208301925050600181019050610835565b5050509392505050565b600082601f83011261088157610880610dbe565b5b81356108918482602086016107fc565b91505092915050565b6000813590506108a981610e35565b92915050565b6000815190506108be81610e35565b92915050565b6000602082840312156108da576108d9610dcd565b5b60006108e88482850161089a565b91505092915050565b60006020828403121561090757610906610dcd565b5b6000610915848285016108af565b91505092915050565b6000806040838503121561093557610934610dcd565b5b60006109438582860161089a565b925050602083013567ffffffffffffffff81111561096457610963610dc8565b5b6109708582860161086c565b9150509250929050565b61098381610c0e565b82525050565b61099281610bfc565b82525050565b6109a181610c20565b82525050565b60006109b4601083610b95565b91506109bf82610de3565b602082019050919050565b60006109d7601a83610b95565b91506109e282610e0c565b602082019050919050565b6109f681610c2a565b82525050565b610a0581610c58565b82525050565b610a1481610c62565b82525050565b610a2381610c72565b82525050565b6000602082019050610a3e600083018461097a565b92915050565b6000604082019050610a59600083018561097a565b610a6660208301846109fc565b9392505050565b6000604082019050610a826000830185610989565b610a8f6020830184610989565b9392505050565b600060a082019050610aab6000830188610998565b610ab86020830187610a1a565b610ac560408301866109ed565b610ad26060830185610a0b565b610adf6080830184610a0b565b9695505050505050565b60006020820190508181036000830152610b02816109a7565b9050919050565b60006020820190508181036000830152610b22816109ca565b9050919050565b6000602082019050610b3e60008301846109fc565b92915050565b6000610b4e610b5f565b9050610b5a8282610c86565b919050565b6000604051905090565b600067ffffffffffffffff821115610b8457610b83610d8f565b5b602082029050602081019050919050565b600082825260208201905092915050565b6000610bb182610c58565b9150610bbc83610c58565b9250827fffffffffffffffffffffffffffffffffffffffffffffffffffffffffffffffff03821115610bf157610bf0610d31565b5b828201905092915050565b6000610c0782610c38565b9050919050565b6000610c1982610c38565b9050919050565b6000819050919050565b600061ffff82169050919050565b600073ffffffffffffffffffffffffffffffffffffffff82169050919050565b6000819050919050565b600063ffffffff82169050919050565b600067ffffffffffffffff82169050919050565b610c8f82610dd2565b810181811067ffffffffffffffff82111715610cae57610cad610d8f565b5b80604052505050565b6000610cc282610c58565b91507fffffffffffffffffffffffffffffffffffffffffffffffffffffffffffffffff821415610cf557610cf4610d31565b5b600182019050919050565b6000610d0b82610c58565b9150610d1683610c58565b925082610d2657610d25610d60565b5b828206905092915050565b7f4e487b7100000000000000000000000000000000000000000000000000000000600052601160045260246000fd5b7f4e487b7100000000000000000000000000000000000000000000000000000000600052601260045260246000fd5b7f4e487b7100000000000000000000000000000000000000000000000000000000600052604160045260246000fd5b600080fd5b600080fd5b600080fd5b600080fd5b6000601f19601f8301169050919050565b7f4e6f7420656e6f75676820746f6b656e00000000000000000000000000000000600082015250565b7f4e756d626572207469636b6574206f7574206f662072616e6765000000000000600082015250565b610e3e81610c58565b8114610e4957600080fd5b5056fea2646970667358221220b66ed4ccd6bcba2538807289e5d29937cfd980187df3ccb555346d7cdbfedced64736f6c63430008070033",
					"opcodes": "PUSH1 0xA0 PUSH1 0x40 MSTORE PUSH20 0x6168499C0CFFCACD319C818142124B7A15E857AB PUSH1 0x1 PUSH1 0x0 PUSH2 0x100 EXP DUP2 SLOAD DUP2 PUSH20 0xFFFFFFFFFFFFFFFFFFFFFFFFFFFFFFFFFFFFFFFF MUL NOT AND SWAP1 DUP4 PUSH20 0xFFFFFFFFFFFFFFFFFFFFFFFFFFFFFFFFFFFFFFFF AND MUL OR SWAP1 SSTORE POP PUSH32 0xD89B2BF150E3B9E13446986E571FB9CAB24B13CEA0A43EA20A6049A85CC807CC PUSH1 0x0 SHL PUSH1 0x2 SSTORE PUSH3 0x186A0 PUSH1 0x3 PUSH1 0x0 PUSH2 0x100 EXP DUP2 SLOAD DUP2 PUSH4 0xFFFFFFFF MUL NOT AND SWAP1 DUP4 PUSH4 0xFFFFFFFF AND MUL OR SWAP1 SSTORE POP PUSH1 0x3 DUP1 PUSH1 0x4 PUSH2 0x100 EXP DUP2 SLOAD DUP2 PUSH2 0xFFFF MUL NOT AND SWAP1 DUP4 PUSH2 0xFFFF AND MUL OR SWAP1 SSTORE POP PUSH1 0x2 PUSH1 0x3 PUSH1 0x6 PUSH2 0x100 EXP DUP2 SLOAD DUP2 PUSH4 0xFFFFFFFF MUL NOT AND SWAP1 DUP4 PUSH4 0xFFFFFFFF AND MUL OR SWAP1 SSTORE POP PUSH1 0x0 PUSH1 0xB SSTORE CALLVALUE DUP1 ISZERO PUSH2 0xF4 JUMPI PUSH1 0x0 DUP1 REVERT JUMPDEST POP PUSH1 0x40 MLOAD PUSH2 0x115C CODESIZE SUB DUP1 PUSH2 0x115C DUP4 CODECOPY DUP2 DUP2 ADD PUSH1 0x40 MSTORE DUP2 ADD SWAP1 PUSH2 0x116 SWAP2 SWAP1 PUSH2 0x258 JUMP JUMPDEST PUSH1 0x1 PUSH1 0x0 SWAP1 SLOAD SWAP1 PUSH2 0x100 EXP SWAP1 DIV PUSH20 0xFFFFFFFFFFFFFFFFFFFFFFFFFFFFFFFFFFFFFFFF AND DUP1 PUSH20 0xFFFFFFFFFFFFFFFFFFFFFFFFFFFFFFFFFFFFFFFF AND PUSH1 0x80 DUP2 PUSH20 0xFFFFFFFFFFFFFFFFFFFFFFFFFFFFFFFFFFFFFFFF AND PUSH1 0x60 SHL DUP2 MSTORE POP POP POP PUSH1 0x1 PUSH1 0x0 SWAP1 SLOAD SWAP1 PUSH2 0x100 EXP SWAP1 DIV PUSH20 0xFFFFFFFFFFFFFFFFFFFFFFFFFFFFFFFFFFFFFFFF AND PUSH1 0x0 DUP1 PUSH2 0x100 EXP DUP2 SLOAD DUP2 PUSH20 0xFFFFFFFFFFFFFFFFFFFFFFFFFFFFFFFFFFFFFFFF MUL NOT AND SWAP1 DUP4 PUSH20 0xFFFFFFFFFFFFFFFFFFFFFFFFFFFFFFFFFFFFFFFF AND MUL OR SWAP1 SSTORE POP CALLER PUSH1 0x6 PUSH1 0x0 PUSH2 0x100 EXP DUP2 SLOAD DUP2 PUSH20 0xFFFFFFFFFFFFFFFFFFFFFFFFFFFFFFFFFFFFFFFF MUL NOT AND SWAP1 DUP4 PUSH20 0xFFFFFFFFFFFFFFFFFFFFFFFFFFFFFFFFFFFFFFFF AND MUL OR SWAP1 SSTORE POP DUP1 PUSH1 0x0 PUSH1 0x14 PUSH2 0x100 EXP DUP2 SLOAD DUP2 PUSH8 0xFFFFFFFFFFFFFFFF MUL NOT AND SWAP1 DUP4 PUSH8 0xFFFFFFFFFFFFFFFF AND MUL OR SWAP1 SSTORE POP POP PUSH2 0x2B5 JUMP JUMPDEST PUSH1 0x0 DUP2 MLOAD SWAP1 POP PUSH2 0x252 DUP2 PUSH2 0x29E JUMP JUMPDEST SWAP3 SWAP2 POP POP JUMP JUMPDEST PUSH1 0x0 PUSH1 0x20 DUP3 DUP5 SUB SLT ISZERO PUSH2 0x26E JUMPI PUSH2 0x26D PUSH2 0x299 JUMP JUMPDEST JUMPDEST PUSH1 0x0 PUSH2 0x27C DUP5 DUP3 DUP6 ADD PUSH2 0x243 JUMP JUMPDEST SWAP2 POP POP SWAP3 SWAP2 POP POP JUMP JUMPDEST PUSH1 0x0 PUSH8 0xFFFFFFFFFFFFFFFF DUP3 AND SWAP1 POP SWAP2 SWAP1 POP JUMP JUMPDEST PUSH1 0x0 DUP1 REVERT JUMPDEST PUSH2 0x2A7 DUP2 PUSH2 0x285 JUMP JUMPDEST DUP2 EQ PUSH2 0x2B2 JUMPI PUSH1 0x0 DUP1 REVERT JUMPDEST POP JUMP JUMPDEST PUSH1 0x80 MLOAD PUSH1 0x60 SHR PUSH2 0xE82 PUSH2 0x2DA PUSH1 0x0 CODECOPY PUSH1 0x0 DUP2 DUP2 PUSH2 0x2A8 ADD MSTORE PUSH2 0x2FC ADD MSTORE PUSH2 0xE82 PUSH1 0x0 RETURN INVALID PUSH1 0x80 PUSH1 0x40 MSTORE PUSH1 0x4 CALLDATASIZE LT PUSH2 0x9C JUMPI PUSH1 0x0 CALLDATALOAD PUSH1 0xE0 SHR DUP1 PUSH4 0x6D6FE230 GT PUSH2 0x64 JUMPI DUP1 PUSH4 0x6D6FE230 EQ PUSH2 0x19B JUMPI DUP1 PUSH4 0xA59F3E0C EQ PUSH2 0x1D8 JUMPI DUP1 PUSH4 0xE0C86289 EQ PUSH2 0x1F4 JUMPI DUP1 PUSH4 0xE580F47B EQ PUSH2 0x20B JUMPI DUP1 PUSH4 0xE89E106A EQ PUSH2 0x236 JUMPI DUP1 PUSH4 0xF6EAFFC8 EQ PUSH2 0x261 JUMPI PUSH2 0x9C JUMP JUMPDEST DUP1 PUSH4 0x12065FE0 EQ PUSH2 0xA1 JUMPI DUP1 PUSH4 0x1FE543E3 EQ PUSH2 0xCC JUMPI DUP1 PUSH4 0x281D098D EQ PUSH2 0xF5 JUMPI DUP1 PUSH4 0x32EB85A4 EQ PUSH2 0x132 JUMPI DUP1 PUSH4 0x460E2049 EQ PUSH2 0x15D JUMPI JUMPDEST PUSH1 0x0 DUP1 REVERT JUMPDEST CALLVALUE DUP1 ISZERO PUSH2 0xAD JUMPI PUSH1 0x0 DUP1 REVERT JUMPDEST POP PUSH2 0xB6 PUSH2 0x29E JUMP JUMPDEST PUSH1 0x40 MLOAD PUSH2 0xC3 SWAP2 SWAP1 PUSH2 0xB29 JUMP JUMPDEST PUSH1 0x40 MLOAD DUP1 SWAP2 SUB SWAP1 RETURN JUMPDEST CALLVALUE DUP1 ISZERO PUSH2 0xD8 JUMPI PUSH1 0x0 DUP1 REVERT JUMPDEST POP PUSH2 0xF3 PUSH1 0x4 DUP1 CALLDATASIZE SUB DUP2 ADD SWAP1 PUSH2 0xEE SWAP2 SWAP1 PUSH2 0x91E JUMP JUMPDEST PUSH2 0x2A6 JUMP JUMPDEST STOP JUMPDEST CALLVALUE DUP1 ISZERO PUSH2 0x101 JUMPI PUSH1 0x0 DUP1 REVERT JUMPDEST POP PUSH2 0x11C PUSH1 0x4 DUP1 CALLDATASIZE SUB DUP2 ADD SWAP1 PUSH2 0x117 SWAP2 SWAP1 PUSH2 0x8C4 JUMP JUMPDEST PUSH2 0x366 JUMP JUMPDEST PUSH1 0x40 MLOAD PUSH2 0x129 SWAP2 SWAP1 PUSH2 0xA29 JUMP JUMPDEST PUSH1 0x40 MLOAD DUP1 SWAP2 SUB SWAP1 RETURN JUMPDEST CALLVALUE DUP1 ISZERO PUSH2 0x13E JUMPI PUSH1 0x0 DUP1 REVERT JUMPDEST POP PUSH2 0x147 PUSH2 0x3A3 JUMP JUMPDEST PUSH1 0x40 MLOAD PUSH2 0x154 SWAP2 SWAP1 PUSH2 0xB29 JUMP JUMPDEST PUSH1 0x40 MLOAD DUP1 SWAP2 SUB SWAP1 RETURN JUMPDEST CALLVALUE DUP1 ISZERO PUSH2 0x169 JUMPI PUSH1 0x0 DUP1 REVERT JUMPDEST POP PUSH2 0x184 PUSH1 0x4 DUP1 CALLDATASIZE SUB DUP2 ADD SWAP1 PUSH2 0x17F SWAP2 SWAP1 PUSH2 0x8C4 JUMP JUMPDEST PUSH2 0x3AD JUMP JUMPDEST PUSH1 0x40 MLOAD PUSH2 0x192 SWAP3 SWAP2 SWAP1 PUSH2 0xA44 JUMP JUMPDEST PUSH1 0x40 MLOAD DUP1 SWAP2 SUB SWAP1 RETURN JUMPDEST CALLVALUE DUP1 ISZERO PUSH2 0x1A7 JUMPI PUSH1 0x0 DUP1 REVERT JUMPDEST POP PUSH2 0x1C2 PUSH1 0x4 DUP1 CALLDATASIZE SUB DUP2 ADD SWAP1 PUSH2 0x1BD SWAP2 SWAP1 PUSH2 0x8C4 JUMP JUMPDEST PUSH2 0x3FB JUMP JUMPDEST PUSH1 0x40 MLOAD PUSH2 0x1CF SWAP2 SWAP1 PUSH2 0xA29 JUMP JUMPDEST PUSH1 0x40 MLOAD DUP1 SWAP2 SUB SWAP1 RETURN JUMPDEST PUSH2 0x1F2 PUSH1 0x4 DUP1 CALLDATASIZE SUB DUP2 ADD SWAP1 PUSH2 0x1ED SWAP2 SWAP1 PUSH2 0x8C4 JUMP JUMPDEST PUSH2 0x42E JUMP JUMPDEST STOP JUMPDEST CALLVALUE DUP1 ISZERO PUSH2 0x200 JUMPI PUSH1 0x0 DUP1 REVERT JUMPDEST POP PUSH2 0x209 PUSH2 0x5B4 JUMP JUMPDEST STOP JUMPDEST CALLVALUE DUP1 ISZERO PUSH2 0x217 JUMPI PUSH1 0x0 DUP1 REVERT JUMPDEST POP PUSH2 0x220 PUSH2 0x72D JUMP JUMPDEST PUSH1 0x40 MLOAD PUSH2 0x22D SWAP2 SWAP1 PUSH2 0xB29 JUMP JUMPDEST PUSH1 0x40 MLOAD DUP1 SWAP2 SUB SWAP1 RETURN JUMPDEST CALLVALUE DUP1 ISZERO PUSH2 0x242 JUMPI PUSH1 0x0 DUP1 REVERT JUMPDEST POP PUSH2 0x24B PUSH2 0x733 JUMP JUMPDEST PUSH1 0x40 MLOAD PUSH2 0x258 SWAP2 SWAP1 PUSH2 0xB29 JUMP JUMPDEST PUSH1 0x40 MLOAD DUP1 SWAP2 SUB SWAP1 RETURN JUMPDEST CALLVALUE DUP1 ISZERO PUSH2 0x26D JUMPI PUSH1 0x0 DUP1 REVERT JUMPDEST POP PUSH2 0x288 PUSH1 0x4 DUP1 CALLDATASIZE SUB DUP2 ADD SWAP1 PUSH2 0x283 SWAP2 SWAP1 PUSH2 0x8C4 JUMP JUMPDEST PUSH2 0x739 JUMP JUMPDEST PUSH1 0x40 MLOAD PUSH2 0x295 SWAP2 SWAP1 PUSH2 0xB29 JUMP JUMPDEST PUSH1 0x40 MLOAD DUP1 SWAP2 SUB SWAP1 RETURN JUMPDEST PUSH1 0x0 SELFBALANCE SWAP1 POP SWAP1 JUMP JUMPDEST PUSH32 0x0 PUSH20 0xFFFFFFFFFFFFFFFFFFFFFFFFFFFFFFFFFFFFFFFF AND CALLER PUSH20 0xFFFFFFFFFFFFFFFFFFFFFFFFFFFFFFFFFFFFFFFF AND EQ PUSH2 0x358 JUMPI CALLER PUSH32 0x0 PUSH1 0x40 MLOAD PUSH32 0x1CF993F400000000000000000000000000000000000000000000000000000000 DUP2 MSTORE PUSH1 0x4 ADD PUSH2 0x34F SWAP3 SWAP2 SWAP1 PUSH2 0xA6D JUMP JUMPDEST PUSH1 0x40 MLOAD DUP1 SWAP2 SUB SWAP1 REVERT JUMPDEST PUSH2 0x362 DUP3 DUP3 PUSH2 0x75D JUMP JUMPDEST POP POP JUMP JUMPDEST PUSH1 0x0 PUSH1 0x8 PUSH1 0x0 DUP4 DUP2 MSTORE PUSH1 0x20 ADD SWAP1 DUP2 MSTORE PUSH1 0x20 ADD PUSH1 0x0 KECCAK256 PUSH1 0x0 SWAP1 SLOAD SWAP1 PUSH2 0x100 EXP SWAP1 DIV PUSH20 0xFFFFFFFFFFFFFFFFFFFFFFFFFFFFFFFFFFFFFFFF AND SWAP1 POP SWAP2 SWAP1 POP JUMP JUMPDEST PUSH1 0x0 PUSH1 0xB SLOAD SWAP1 POP SWAP1 JUMP JUMPDEST PUSH1 0x0 DUP1 PUSH1 0x0 PUSH1 0xA PUSH1 0x0 DUP6 DUP2 MSTORE PUSH1 0x20 ADD SWAP1 DUP2 MSTORE PUSH1 0x20 ADD PUSH1 0x0 KECCAK256 SWAP1 POP DUP1 PUSH1 0x0 ADD PUSH1 0x0 SWAP1 SLOAD SWAP1 PUSH2 0x100 EXP SWAP1 DIV PUSH20 0xFFFFFFFFFFFFFFFFFFFFFFFFFFFFFFFFFFFFFFFF AND DUP2 PUSH1 0x1 ADD SLOAD SWAP3 POP SWAP3 POP POP SWAP2 POP SWAP2 JUMP JUMPDEST PUSH1 0x8 PUSH1 0x20 MSTORE DUP1 PUSH1 0x0 MSTORE PUSH1 0x40 PUSH1 0x0 KECCAK256 PUSH1 0x0 SWAP2 POP SLOAD SWAP1 PUSH2 0x100 EXP SWAP1 DIV PUSH20 0xFFFFFFFFFFFFFFFFFFFFFFFFFFFFFFFFFFFFFFFF AND DUP2 JUMP JUMPDEST PUSH1 0x2 CALLVALUE GT PUSH2 0x471 JUMPI PUSH1 0x40 MLOAD PUSH32 0x8C379A000000000000000000000000000000000000000000000000000000000 DUP2 MSTORE PUSH1 0x4 ADD PUSH2 0x468 SWAP1 PUSH2 0xAE9 JUMP JUMPDEST PUSH1 0x40 MLOAD DUP1 SWAP2 SUB SWAP1 REVERT JUMPDEST PUSH1 0x1 DUP2 LT ISZERO DUP1 ISZERO PUSH2 0x483 JUMPI POP PUSH1 0xA DUP2 GT ISZERO JUMPDEST PUSH2 0x4C2 JUMPI PUSH1 0x40 MLOAD PUSH32 0x8C379A000000000000000000000000000000000000000000000000000000000 DUP2 MSTORE PUSH1 0x4 ADD PUSH2 0x4B9 SWAP1 PUSH2 0xB09 JUMP JUMPDEST PUSH1 0x40 MLOAD DUP1 SWAP2 SUB SWAP1 REVERT JUMPDEST PUSH1 0x0 PUSH1 0xA PUSH1 0x0 PUSH1 0xB SLOAD DUP2 MSTORE PUSH1 0x20 ADD SWAP1 DUP2 MSTORE PUSH1 0x20 ADD PUSH1 0x0 KECCAK256 SWAP1 POP CALLER DUP2 PUSH1 0x0 ADD PUSH1 0x0 PUSH2 0x100 EXP DUP2 SLOAD DUP2 PUSH20 0xFFFFFFFFFFFFFFFFFFFFFFFFFFFFFFFFFFFFFFFF MUL NOT AND SWAP1 DUP4 PUSH20 0xFFFFFFFFFFFFFFFFFFFFFFFFFFFFFFFFFFFFFFFF AND MUL OR SWAP1 SSTORE POP DUP2 DUP2 PUSH1 0x1 ADD DUP2 SWAP1 SSTORE POP PUSH1 0x0 PUSH1 0x9 PUSH1 0x0 DUP4 PUSH1 0x1 ADD SLOAD DUP2 MSTORE PUSH1 0x20 ADD SWAP1 DUP2 MSTORE PUSH1 0x20 ADD PUSH1 0x0 KECCAK256 SWAP1 POP DUP1 PUSH1 0x0 ADD CALLER SWAP1 DUP1 PUSH1 0x1 DUP2 SLOAD ADD DUP1 DUP3 SSTORE DUP1 SWAP2 POP POP PUSH1 0x1 SWAP1 SUB SWAP1 PUSH1 0x0 MSTORE PUSH1 0x20 PUSH1 0x0 KECCAK256 ADD PUSH1 0x0 SWAP1 SWAP2 SWAP1 SWAP2 SWAP1 SWAP2 PUSH2 0x100 EXP DUP2 SLOAD DUP2 PUSH20 0xFFFFFFFFFFFFFFFFFFFFFFFFFFFFFFFFFFFFFFFF MUL NOT AND SWAP1 DUP4 PUSH20 0xFFFFFFFFFFFFFFFFFFFFFFFFFFFFFFFFFFFFFFFF AND MUL OR SWAP1 SSTORE POP PUSH2 0x5AF PUSH2 0x778 JUMP JUMPDEST POP POP POP JUMP JUMPDEST PUSH1 0x6 PUSH1 0x0 SWAP1 SLOAD SWAP1 PUSH2 0x100 EXP SWAP1 DIV PUSH20 0xFFFFFFFFFFFFFFFFFFFFFFFFFFFFFFFFFFFFFFFF AND PUSH20 0xFFFFFFFFFFFFFFFFFFFFFFFFFFFFFFFFFFFFFFFF AND CALLER PUSH20 0xFFFFFFFFFFFFFFFFFFFFFFFFFFFFFFFFFFFFFFFF AND EQ PUSH2 0x60E JUMPI PUSH1 0x0 DUP1 REVERT JUMPDEST PUSH1 0x1 PUSH1 0x14 PUSH1 0x0 DUP1 SLOAD SWAP1 PUSH2 0x100 EXP SWAP1 DIV PUSH20 0xFFFFFFFFFFFFFFFFFFFFFFFFFFFFFFFFFFFFFFFF AND PUSH20 0xFFFFFFFFFFFFFFFFFFFFFFFFFFFFFFFFFFFFFFFF AND PUSH4 0x5D3B1D30 PUSH1 0x2 SLOAD PUSH1 0x0 PUSH1 0x14 SWAP1 SLOAD SWAP1 PUSH2 0x100 EXP SWAP1 DIV PUSH8 0xFFFFFFFFFFFFFFFF AND PUSH1 0x3 PUSH1 0x4 SWAP1 SLOAD SWAP1 PUSH2 0x100 EXP SWAP1 DIV PUSH2 0xFFFF AND PUSH1 0x3 PUSH1 0x0 SWAP1 SLOAD SWAP1 PUSH2 0x100 EXP SWAP1 DIV PUSH4 0xFFFFFFFF AND PUSH1 0x3 PUSH1 0x6 SWAP1 SLOAD SWAP1 PUSH2 0x100 EXP SWAP1 DIV PUSH4 0xFFFFFFFF AND PUSH1 0x40 MLOAD DUP7 PUSH4 0xFFFFFFFF AND PUSH1 0xE0 SHL DUP2 MSTORE PUSH1 0x4 ADD PUSH2 0x6BF SWAP6 SWAP5 SWAP4 SWAP3 SWAP2 SWAP1 PUSH2 0xA96 JUMP JUMPDEST PUSH1 0x20 PUSH1 0x40 MLOAD DUP1 DUP4 SUB DUP2 PUSH1 0x0 DUP8 DUP1 EXTCODESIZE ISZERO DUP1 ISZERO PUSH2 0x6D9 JUMPI PUSH1 0x0 DUP1 REVERT JUMPDEST POP GAS CALL ISZERO DUP1 ISZERO PUSH2 0x6ED JUMPI RETURNDATASIZE PUSH1 0x0 DUP1 RETURNDATACOPY RETURNDATASIZE PUSH1 0x0 REVERT JUMPDEST POP POP POP POP PUSH1 0x40 MLOAD RETURNDATASIZE PUSH1 0x1F NOT PUSH1 0x1F DUP3 ADD AND DUP3 ADD DUP1 PUSH1 0x40 MSTORE POP DUP2 ADD SWAP1 PUSH2 0x711 SWAP2 SWAP1 PUSH2 0x8F1 JUMP JUMPDEST PUSH2 0x71B SWAP2 SWAP1 PUSH2 0xD00 JUMP JUMPDEST PUSH2 0x725 SWAP2 SWAP1 PUSH2 0xBA6 JUMP JUMPDEST PUSH1 0x5 DUP2 SWAP1 SSTORE POP JUMP JUMPDEST PUSH1 0x7 SLOAD DUP2 JUMP JUMPDEST PUSH1 0x5 SLOAD DUP2 JUMP JUMPDEST PUSH1 0x4 DUP2 DUP2 SLOAD DUP2 LT PUSH2 0x749 JUMPI PUSH1 0x0 DUP1 REVERT JUMPDEST SWAP1 PUSH1 0x0 MSTORE PUSH1 0x20 PUSH1 0x0 KECCAK256 ADD PUSH1 0x0 SWAP2 POP SWAP1 POP SLOAD DUP2 JUMP JUMPDEST DUP1 PUSH1 0x4 SWAP1 DUP1 MLOAD SWAP1 PUSH1 0x20 ADD SWAP1 PUSH2 0x773 SWAP3 SWAP2 SWAP1 PUSH2 0x792 JUMP JUMPDEST POP POP POP JUMP JUMPDEST PUSH1 0xB PUSH1 0x0 DUP2 SLOAD DUP1 SWAP3 SWAP2 SWAP1 PUSH2 0x78B SWAP1 PUSH2 0xCB7 JUMP JUMPDEST SWAP2 SWAP1 POP SSTORE POP JUMP JUMPDEST DUP3 DUP1 SLOAD DUP3 DUP3 SSTORE SWAP1 PUSH1 0x0 MSTORE PUSH1 0x20 PUSH1 0x0 KECCAK256 SWAP1 DUP2 ADD SWAP3 DUP3 ISZERO PUSH2 0x7CE JUMPI SWAP2 PUSH1 0x20 MUL DUP3 ADD JUMPDEST DUP3 DUP2 GT ISZERO PUSH2 0x7CD JUMPI DUP3 MLOAD DUP3 SSTORE SWAP2 PUSH1 0x20 ADD SWAP2 SWAP1 PUSH1 0x1 ADD SWAP1 PUSH2 0x7B2 JUMP JUMPDEST JUMPDEST POP SWAP1 POP PUSH2 0x7DB SWAP2 SWAP1 PUSH2 0x7DF JUMP JUMPDEST POP SWAP1 JUMP JUMPDEST JUMPDEST DUP1 DUP3 GT ISZERO PUSH2 0x7F8 JUMPI PUSH1 0x0 DUP2 PUSH1 0x0 SWAP1 SSTORE POP PUSH1 0x1 ADD PUSH2 0x7E0 JUMP JUMPDEST POP SWAP1 JUMP JUMPDEST PUSH1 0x0 PUSH2 0x80F PUSH2 0x80A DUP5 PUSH2 0xB69 JUMP JUMPDEST PUSH2 0xB44 JUMP JUMPDEST SWAP1 POP DUP1 DUP4 DUP3 MSTORE PUSH1 0x20 DUP3 ADD SWAP1 POP DUP3 DUP6 PUSH1 0x20 DUP7 MUL DUP3 ADD GT ISZERO PUSH2 0x832 JUMPI PUSH2 0x831 PUSH2 0xDC3 JUMP JUMPDEST JUMPDEST PUSH1 0x0 JUMPDEST DUP6 DUP2 LT ISZERO PUSH2 0x862 JUMPI DUP2 PUSH2 0x848 DUP9 DUP3 PUSH2 0x89A JUMP JUMPDEST DUP5 MSTORE PUSH1 0x20 DUP5 ADD SWAP4 POP PUSH1 0x20 DUP4 ADD SWAP3 POP POP PUSH1 0x1 DUP2 ADD SWAP1 POP PUSH2 0x835 JUMP JUMPDEST POP POP POP SWAP4 SWAP3 POP POP POP JUMP JUMPDEST PUSH1 0x0 DUP3 PUSH1 0x1F DUP4 ADD SLT PUSH2 0x881 JUMPI PUSH2 0x880 PUSH2 0xDBE JUMP JUMPDEST JUMPDEST DUP2 CALLDATALOAD PUSH2 0x891 DUP5 DUP3 PUSH1 0x20 DUP7 ADD PUSH2 0x7FC JUMP JUMPDEST SWAP2 POP POP SWAP3 SWAP2 POP POP JUMP JUMPDEST PUSH1 0x0 DUP2 CALLDATALOAD SWAP1 POP PUSH2 0x8A9 DUP2 PUSH2 0xE35 JUMP JUMPDEST SWAP3 SWAP2 POP POP JUMP JUMPDEST PUSH1 0x0 DUP2 MLOAD SWAP1 POP PUSH2 0x8BE DUP2 PUSH2 0xE35 JUMP JUMPDEST SWAP3 SWAP2 POP POP JUMP JUMPDEST PUSH1 0x0 PUSH1 0x20 DUP3 DUP5 SUB SLT ISZERO PUSH2 0x8DA JUMPI PUSH2 0x8D9 PUSH2 0xDCD JUMP JUMPDEST JUMPDEST PUSH1 0x0 PUSH2 0x8E8 DUP5 DUP3 DUP6 ADD PUSH2 0x89A JUMP JUMPDEST SWAP2 POP POP SWAP3 SWAP2 POP POP JUMP JUMPDEST PUSH1 0x0 PUSH1 0x20 DUP3 DUP5 SUB SLT ISZERO PUSH2 0x907 JUMPI PUSH2 0x906 PUSH2 0xDCD JUMP JUMPDEST JUMPDEST PUSH1 0x0 PUSH2 0x915 DUP5 DUP3 DUP6 ADD PUSH2 0x8AF JUMP JUMPDEST SWAP2 POP POP SWAP3 SWAP2 POP POP JUMP JUMPDEST PUSH1 0x0 DUP1 PUSH1 0x40 DUP4 DUP6 SUB SLT ISZERO PUSH2 0x935 JUMPI PUSH2 0x934 PUSH2 0xDCD JUMP JUMPDEST JUMPDEST PUSH1 0x0 PUSH2 0x943 DUP6 DUP3 DUP7 ADD PUSH2 0x89A JUMP JUMPDEST SWAP3 POP POP PUSH1 0x20 DUP4 ADD CALLDATALOAD PUSH8 0xFFFFFFFFFFFFFFFF DUP2 GT ISZERO PUSH2 0x964 JUMPI PUSH2 0x963 PUSH2 0xDC8 JUMP JUMPDEST JUMPDEST PUSH2 0x970 DUP6 DUP3 DUP7 ADD PUSH2 0x86C JUMP JUMPDEST SWAP2 POP POP SWAP3 POP SWAP3 SWAP1 POP JUMP JUMPDEST PUSH2 0x983 DUP2 PUSH2 0xC0E JUMP JUMPDEST DUP3 MSTORE POP POP JUMP JUMPDEST PUSH2 0x992 DUP2 PUSH2 0xBFC JUMP JUMPDEST DUP3 MSTORE POP POP JUMP JUMPDEST PUSH2 0x9A1 DUP2 PUSH2 0xC20 JUMP JUMPDEST DUP3 MSTORE POP POP JUMP JUMPDEST PUSH1 0x0 PUSH2 0x9B4 PUSH1 0x10 DUP4 PUSH2 0xB95 JUMP JUMPDEST SWAP2 POP PUSH2 0x9BF DUP3 PUSH2 0xDE3 JUMP JUMPDEST PUSH1 0x20 DUP3 ADD SWAP1 POP SWAP2 SWAP1 POP JUMP JUMPDEST PUSH1 0x0 PUSH2 0x9D7 PUSH1 0x1A DUP4 PUSH2 0xB95 JUMP JUMPDEST SWAP2 POP PUSH2 0x9E2 DUP3 PUSH2 0xE0C JUMP JUMPDEST PUSH1 0x20 DUP3 ADD SWAP1 POP SWAP2 SWAP1 POP JUMP JUMPDEST PUSH2 0x9F6 DUP2 PUSH2 0xC2A JUMP JUMPDEST DUP3 MSTORE POP POP JUMP JUMPDEST PUSH2 0xA05 DUP2 PUSH2 0xC58 JUMP JUMPDEST DUP3 MSTORE POP POP JUMP JUMPDEST PUSH2 0xA14 DUP2 PUSH2 0xC62 JUMP JUMPDEST DUP3 MSTORE POP POP JUMP JUMPDEST PUSH2 0xA23 DUP2 PUSH2 0xC72 JUMP JUMPDEST DUP3 MSTORE POP POP JUMP JUMPDEST PUSH1 0x0 PUSH1 0x20 DUP3 ADD SWAP1 POP PUSH2 0xA3E PUSH1 0x0 DUP4 ADD DUP5 PUSH2 0x97A JUMP JUMPDEST SWAP3 SWAP2 POP POP JUMP JUMPDEST PUSH1 0x0 PUSH1 0x40 DUP3 ADD SWAP1 POP PUSH2 0xA59 PUSH1 0x0 DUP4 ADD DUP6 PUSH2 0x97A JUMP JUMPDEST PUSH2 0xA66 PUSH1 0x20 DUP4 ADD DUP5 PUSH2 0x9FC JUMP JUMPDEST SWAP4 SWAP3 POP POP POP JUMP JUMPDEST PUSH1 0x0 PUSH1 0x40 DUP3 ADD SWAP1 POP PUSH2 0xA82 PUSH1 0x0 DUP4 ADD DUP6 PUSH2 0x989 JUMP JUMPDEST PUSH2 0xA8F PUSH1 0x20 DUP4 ADD DUP5 PUSH2 0x989 JUMP JUMPDEST SWAP4 SWAP3 POP POP POP JUMP JUMPDEST PUSH1 0x0 PUSH1 0xA0 DUP3 ADD SWAP1 POP PUSH2 0xAAB PUSH1 0x0 DUP4 ADD DUP9 PUSH2 0x998 JUMP JUMPDEST PUSH2 0xAB8 PUSH1 0x20 DUP4 ADD DUP8 PUSH2 0xA1A JUMP JUMPDEST PUSH2 0xAC5 PUSH1 0x40 DUP4 ADD DUP7 PUSH2 0x9ED JUMP JUMPDEST PUSH2 0xAD2 PUSH1 0x60 DUP4 ADD DUP6 PUSH2 0xA0B JUMP JUMPDEST PUSH2 0xADF PUSH1 0x80 DUP4 ADD DUP5 PUSH2 0xA0B JUMP JUMPDEST SWAP7 SWAP6 POP POP POP POP POP POP JUMP JUMPDEST PUSH1 0x0 PUSH1 0x20 DUP3 ADD SWAP1 POP DUP2 DUP2 SUB PUSH1 0x0 DUP4 ADD MSTORE PUSH2 0xB02 DUP2 PUSH2 0x9A7 JUMP JUMPDEST SWAP1 POP SWAP2 SWAP1 POP JUMP JUMPDEST PUSH1 0x0 PUSH1 0x20 DUP3 ADD SWAP1 POP DUP2 DUP2 SUB PUSH1 0x0 DUP4 ADD MSTORE PUSH2 0xB22 DUP2 PUSH2 0x9CA JUMP JUMPDEST SWAP1 POP SWAP2 SWAP1 POP JUMP JUMPDEST PUSH1 0x0 PUSH1 0x20 DUP3 ADD SWAP1 POP PUSH2 0xB3E PUSH1 0x0 DUP4 ADD DUP5 PUSH2 0x9FC JUMP JUMPDEST SWAP3 SWAP2 POP POP JUMP JUMPDEST PUSH1 0x0 PUSH2 0xB4E PUSH2 0xB5F JUMP JUMPDEST SWAP1 POP PUSH2 0xB5A DUP3 DUP3 PUSH2 0xC86 JUMP JUMPDEST SWAP2 SWAP1 POP JUMP JUMPDEST PUSH1 0x0 PUSH1 0x40 MLOAD SWAP1 POP SWAP1 JUMP JUMPDEST PUSH1 0x0 PUSH8 0xFFFFFFFFFFFFFFFF DUP3 GT ISZERO PUSH2 0xB84 JUMPI PUSH2 0xB83 PUSH2 0xD8F JUMP JUMPDEST JUMPDEST PUSH1 0x20 DUP3 MUL SWAP1 POP PUSH1 0x20 DUP2 ADD SWAP1 POP SWAP2 SWAP1 POP JUMP JUMPDEST PUSH1 0x0 DUP3 DUP3 MSTORE PUSH1 0x20 DUP3 ADD SWAP1 POP SWAP3 SWAP2 POP POP JUMP JUMPDEST PUSH1 0x0 PUSH2 0xBB1 DUP3 PUSH2 0xC58 JUMP JUMPDEST SWAP2 POP PUSH2 0xBBC DUP4 PUSH2 0xC58 JUMP JUMPDEST SWAP3 POP DUP3 PUSH32 0xFFFFFFFFFFFFFFFFFFFFFFFFFFFFFFFFFFFFFFFFFFFFFFFFFFFFFFFFFFFFFFFF SUB DUP3 GT ISZERO PUSH2 0xBF1 JUMPI PUSH2 0xBF0 PUSH2 0xD31 JUMP JUMPDEST JUMPDEST DUP3 DUP3 ADD SWAP1 POP SWAP3 SWAP2 POP POP JUMP JUMPDEST PUSH1 0x0 PUSH2 0xC07 DUP3 PUSH2 0xC38 JUMP JUMPDEST SWAP1 POP SWAP2 SWAP1 POP JUMP JUMPDEST PUSH1 0x0 PUSH2 0xC19 DUP3 PUSH2 0xC38 JUMP JUMPDEST SWAP1 POP SWAP2 SWAP1 POP JUMP JUMPDEST PUSH1 0x0 DUP2 SWAP1 POP SWAP2 SWAP1 POP JUMP JUMPDEST PUSH1 0x0 PUSH2 0xFFFF DUP3 AND SWAP1 POP SWAP2 SWAP1 POP JUMP JUMPDEST PUSH1 0x0 PUSH20 0xFFFFFFFFFFFFFFFFFFFFFFFFFFFFFFFFFFFFFFFF DUP3 AND SWAP1 POP SWAP2 SWAP1 POP JUMP JUMPDEST PUSH1 0x0 DUP2 SWAP1 POP SWAP2 SWAP1 POP JUMP JUMPDEST PUSH1 0x0 PUSH4 0xFFFFFFFF DUP3 AND SWAP1 POP SWAP2 SWAP1 POP JUMP JUMPDEST PUSH1 0x0 PUSH8 0xFFFFFFFFFFFFFFFF DUP3 AND SWAP1 POP SWAP2 SWAP1 POP JUMP JUMPDEST PUSH2 0xC8F DUP3 PUSH2 0xDD2 JUMP JUMPDEST DUP2 ADD DUP2 DUP2 LT PUSH8 0xFFFFFFFFFFFFFFFF DUP3 GT OR ISZERO PUSH2 0xCAE JUMPI PUSH2 0xCAD PUSH2 0xD8F JUMP JUMPDEST JUMPDEST DUP1 PUSH1 0x40 MSTORE POP POP POP JUMP JUMPDEST PUSH1 0x0 PUSH2 0xCC2 DUP3 PUSH2 0xC58 JUMP JUMPDEST SWAP2 POP PUSH32 0xFFFFFFFFFFFFFFFFFFFFFFFFFFFFFFFFFFFFFFFFFFFFFFFFFFFFFFFFFFFFFFFF DUP3 EQ ISZERO PUSH2 0xCF5 JUMPI PUSH2 0xCF4 PUSH2 0xD31 JUMP JUMPDEST JUMPDEST PUSH1 0x1 DUP3 ADD SWAP1 POP SWAP2 SWAP1 POP JUMP JUMPDEST PUSH1 0x0 PUSH2 0xD0B DUP3 PUSH2 0xC58 JUMP JUMPDEST SWAP2 POP PUSH2 0xD16 DUP4 PUSH2 0xC58 JUMP JUMPDEST SWAP3 POP DUP3 PUSH2 0xD26 JUMPI PUSH2 0xD25 PUSH2 0xD60 JUMP JUMPDEST JUMPDEST DUP3 DUP3 MOD SWAP1 POP SWAP3 SWAP2 POP POP JUMP JUMPDEST PUSH32 0x4E487B7100000000000000000000000000000000000000000000000000000000 PUSH1 0x0 MSTORE PUSH1 0x11 PUSH1 0x4 MSTORE PUSH1 0x24 PUSH1 0x0 REVERT JUMPDEST PUSH32 0x4E487B7100000000000000000000000000000000000000000000000000000000 PUSH1 0x0 MSTORE PUSH1 0x12 PUSH1 0x4 MSTORE PUSH1 0x24 PUSH1 0x0 REVERT JUMPDEST PUSH32 0x4E487B7100000000000000000000000000000000000000000000000000000000 PUSH1 0x0 MSTORE PUSH1 0x41 PUSH1 0x4 MSTORE PUSH1 0x24 PUSH1 0x0 REVERT JUMPDEST PUSH1 0x0 DUP1 REVERT JUMPDEST PUSH1 0x0 DUP1 REVERT JUMPDEST PUSH1 0x0 DUP1 REVERT JUMPDEST PUSH1 0x0 DUP1 REVERT JUMPDEST PUSH1 0x0 PUSH1 0x1F NOT PUSH1 0x1F DUP4 ADD AND SWAP1 POP SWAP2 SWAP1 POP JUMP JUMPDEST PUSH32 0x4E6F7420656E6F75676820746F6B656E00000000000000000000000000000000 PUSH1 0x0 DUP3 ADD MSTORE POP JUMP JUMPDEST PUSH32 0x4E756D626572207469636B6574206F7574206F662072616E6765000000000000 PUSH1 0x0 DUP3 ADD MSTORE POP JUMP JUMPDEST PUSH2 0xE3E DUP2 PUSH2 0xC58 JUMP JUMPDEST DUP2 EQ PUSH2 0xE49 JUMPI PUSH1 0x0 DUP1 REVERT JUMPDEST POP JUMP INVALID LOG2 PUSH5 0x6970667358 0x22 SLT KECCAK256 0xB6 PUSH15 0xD4CCD6BCBA2538807289E5D29937CF 0xD9 DUP1 XOR PUSH30 0xF3CCB555346D7CDBFEDCED64736F6C634300080700330000000000000000 "
				},
				"gasEstimates": {
					"creation": {
						"codeDepositCost": "742800",
						"executionCost": "infinite",
						"totalCost": "infinite"
					},
					"external": {
						"enter(uint256)": "infinite",
						"getAmountPlayer()": "2504",
						"getBalance()": "340",
						"getPlayers(uint256)": "infinite",
						"getWinnerByLottery(uint256)": "2910",
						"lotteryHistory(uint256)": "2839",
						"lotteryId()": "2495",
						"rawFulfillRandomWords(uint256,uint256[])": "infinite",
						"requestRandomWords()": "infinite",
						"s_randomWords(uint256)": "infinite",
						"s_requestId()": "2517"
					},
					"internal": {
						"fulfillRandomWords(uint256,uint256[] memory)": "infinite",
						"increasePlayerCount()": "24369"
					}
				},
				"methodIdentifiers": {
					"enter(uint256)": "a59f3e0c",
					"getAmountPlayer()": "32eb85a4",
					"getBalance()": "12065fe0",
					"getPlayers(uint256)": "460e2049",
					"getWinnerByLottery(uint256)": "281d098d",
					"lotteryHistory(uint256)": "6d6fe230",
					"lotteryId()": "e580f47b",
					"rawFulfillRandomWords(uint256,uint256[])": "1fe543e3",
					"requestRandomWords()": "e0c86289",
					"s_randomWords(uint256)": "f6eaffc8",
					"s_requestId()": "e89e106a"
				}
			},
			"storageLayout": {
				"storage": [
					{
						"astId": 708,
						"contract": "contracts/Lottery.sol:Lottery",
						"label": "COORDINATOR",
						"offset": 0,
						"slot": "0",
						"type": "t_contract(VRFCoordinatorV2Interface)146"
					},
					{
						"astId": 710,
						"contract": "contracts/Lottery.sol:Lottery",
						"label": "s_subscriptionId",
						"offset": 20,
						"slot": "0",
						"type": "t_uint64"
					},
					{
						"astId": 713,
						"contract": "contracts/Lottery.sol:Lottery",
						"label": "vrfCoordinator",
						"offset": 0,
						"slot": "1",
						"type": "t_address"
					},
					{
						"astId": 716,
						"contract": "contracts/Lottery.sol:Lottery",
						"label": "keyHash",
						"offset": 0,
						"slot": "2",
						"type": "t_bytes32"
					},
					{
						"astId": 719,
						"contract": "contracts/Lottery.sol:Lottery",
						"label": "callbackGasLimit",
						"offset": 0,
						"slot": "3",
						"type": "t_uint32"
					},
					{
						"astId": 722,
						"contract": "contracts/Lottery.sol:Lottery",
						"label": "requestConfirmations",
						"offset": 4,
						"slot": "3",
						"type": "t_uint16"
					},
					{
						"astId": 725,
						"contract": "contracts/Lottery.sol:Lottery",
						"label": "numWords",
						"offset": 6,
						"slot": "3",
						"type": "t_uint32"
					},
					{
						"astId": 728,
						"contract": "contracts/Lottery.sol:Lottery",
						"label": "s_randomWords",
						"offset": 0,
						"slot": "4",
						"type": "t_array(t_uint256)dyn_storage"
					},
					{
						"astId": 730,
						"contract": "contracts/Lottery.sol:Lottery",
						"label": "s_requestId",
						"offset": 0,
						"slot": "5",
						"type": "t_uint256"
					},
					{
						"astId": 732,
						"contract": "contracts/Lottery.sol:Lottery",
						"label": "s_owner",
						"offset": 0,
						"slot": "6",
						"type": "t_address"
					},
					{
						"astId": 734,
						"contract": "contracts/Lottery.sol:Lottery",
						"label": "lotteryId",
						"offset": 0,
						"slot": "7",
						"type": "t_uint256"
					},
					{
						"astId": 738,
						"contract": "contracts/Lottery.sol:Lottery",
						"label": "lotteryHistory",
						"offset": 0,
						"slot": "8",
						"type": "t_mapping(t_uint256,t_address_payable)"
					},
					{
						"astId": 747,
						"contract": "contracts/Lottery.sol:Lottery",
						"label": "groupTicket",
						"offset": 0,
						"slot": "9",
						"type": "t_mapping(t_uint256,t_struct(ListNumberTicket)742_storage)"
					},
					{
						"astId": 757,
						"contract": "contracts/Lottery.sol:Lottery",
						"label": "allLottery",
						"offset": 0,
						"slot": "10",
						"type": "t_mapping(t_uint256,t_struct(Participants)752_storage)"
					},
					{
						"astId": 760,
						"contract": "contracts/Lottery.sol:Lottery",
						"label": "playerCount",
						"offset": 0,
						"slot": "11",
						"type": "t_uint256"
					}
				],
				"types": {
					"t_address": {
						"encoding": "inplace",
						"label": "address",
						"numberOfBytes": "20"
					},
					"t_address_payable": {
						"encoding": "inplace",
						"label": "address payable",
						"numberOfBytes": "20"
					},
					"t_array(t_address_payable)dyn_storage": {
						"base": "t_address_payable",
						"encoding": "dynamic_array",
						"label": "address payable[]",
						"numberOfBytes": "32"
					},
					"t_array(t_uint256)dyn_storage": {
						"base": "t_uint256",
						"encoding": "dynamic_array",
						"label": "uint256[]",
						"numberOfBytes": "32"
					},
					"t_bytes32": {
						"encoding": "inplace",
						"label": "bytes32",
						"numberOfBytes": "32"
					},
					"t_contract(VRFCoordinatorV2Interface)146": {
						"encoding": "inplace",
						"label": "contract VRFCoordinatorV2Interface",
						"numberOfBytes": "20"
					},
					"t_mapping(t_uint256,t_address_payable)": {
						"encoding": "mapping",
						"key": "t_uint256",
						"label": "mapping(uint256 => address payable)",
						"numberOfBytes": "32",
						"value": "t_address_payable"
					},
					"t_mapping(t_uint256,t_struct(ListNumberTicket)742_storage)": {
						"encoding": "mapping",
						"key": "t_uint256",
						"label": "mapping(uint256 => struct Lottery.ListNumberTicket)",
						"numberOfBytes": "32",
						"value": "t_struct(ListNumberTicket)742_storage"
					},
					"t_mapping(t_uint256,t_struct(Participants)752_storage)": {
						"encoding": "mapping",
						"key": "t_uint256",
						"label": "mapping(uint256 => struct Lottery.Participants)",
						"numberOfBytes": "32",
						"value": "t_struct(Participants)752_storage"
					},
					"t_struct(ListNumberTicket)742_storage": {
						"encoding": "inplace",
						"label": "struct Lottery.ListNumberTicket",
						"members": [
							{
								"astId": 741,
								"contract": "contracts/Lottery.sol:Lottery",
								"label": "groupPlayer",
								"offset": 0,
								"slot": "0",
								"type": "t_array(t_address_payable)dyn_storage"
							}
						],
						"numberOfBytes": "32"
					},
					"t_struct(Participants)752_storage": {
						"encoding": "inplace",
						"label": "struct Lottery.Participants",
						"members": [
							{
								"astId": 749,
								"contract": "contracts/Lottery.sol:Lottery",
								"label": "player",
								"offset": 0,
								"slot": "0",
								"type": "t_address_payable"
							},
							{
								"astId": 751,
								"contract": "contracts/Lottery.sol:Lottery",
								"label": "numTicket",
								"offset": 0,
								"slot": "1",
								"type": "t_uint256"
							}
						],
						"numberOfBytes": "64"
					},
					"t_uint16": {
						"encoding": "inplace",
						"label": "uint16",
						"numberOfBytes": "2"
					},
					"t_uint256": {
						"encoding": "inplace",
						"label": "uint256",
						"numberOfBytes": "32"
					},
					"t_uint32": {
						"encoding": "inplace",
						"label": "uint32",
						"numberOfBytes": "4"
					},
					"t_uint64": {
						"encoding": "inplace",
						"label": "uint64",
						"numberOfBytes": "8"
					}
				}
			},
			"userdoc": {
				"kind": "user",
				"methods": {},
				"version": 1
			}
		}
	}
}