{
	"contracts/Lottery.sol": {
		"Lottery": {
			"abi": [
				{
					"inputs": [
						{
							"internalType": "uint256",
							"name": "_numTicket",
							"type": "uint256"
						}
					],
					"name": "enter",
					"outputs": [],
					"stateMutability": "payable",
					"type": "function"
				},
				{
					"inputs": [],
					"name": "getBalance",
					"outputs": [
						{
							"internalType": "uint256",
							"name": "",
							"type": "uint256"
						}
					],
					"stateMutability": "view",
					"type": "function"
				},
				{
					"inputs": [],
					"name": "getNumberPlayer",
					"outputs": [
						{
							"internalType": "uint256",
							"name": "",
							"type": "uint256"
						}
					],
					"stateMutability": "view",
					"type": "function"
				},
				{
					"inputs": [
						{
							"internalType": "uint256",
							"name": "_index",
							"type": "uint256"
						}
					],
					"name": "getPlayers",
					"outputs": [
						{
							"internalType": "address payable",
							"name": "",
							"type": "address"
						},
						{
							"internalType": "uint256",
							"name": "",
							"type": "uint256"
						}
					],
					"stateMutability": "view",
					"type": "function"
				},
				{
					"inputs": [
						{
							"internalType": "uint256",
							"name": "lottery",
							"type": "uint256"
						}
					],
					"name": "getWinnerByLottery",
					"outputs": [
						{
							"internalType": "address payable",
							"name": "",
							"type": "address"
						}
					],
					"stateMutability": "view",
					"type": "function"
				},
				{
					"inputs": [
						{
							"internalType": "uint256",
							"name": "",
							"type": "uint256"
						}
					],
					"name": "lotteryHistory",
					"outputs": [
						{
							"internalType": "address payable",
							"name": "",
							"type": "address"
						}
					],
					"stateMutability": "view",
					"type": "function"
				},
				{
					"inputs": [],
					"name": "lotteryId",
					"outputs": [
						{
							"internalType": "uint256",
							"name": "",
							"type": "uint256"
						}
					],
					"stateMutability": "view",
					"type": "function"
				},
				{
					"inputs": [],
					"name": "owner",
					"outputs": [
						{
							"internalType": "address",
							"name": "",
							"type": "address"
						}
					],
					"stateMutability": "view",
					"type": "function"
				},
				{
					"inputs": [],
					"name": "randomResult",
					"outputs": [
						{
							"internalType": "uint256",
							"name": "",
							"type": "uint256"
						}
					],
					"stateMutability": "view",
					"type": "function"
				}
			],
			"devdoc": {
				"kind": "dev",
				"methods": {},
				"version": 1
			},
			"evm": {
				"assembly": "    /* \"contracts/Lottery.sol\":355:2748  contract Lottery {... */\n  mstore(0x40, 0x80)\n    /* \"contracts/Lottery.sol\":829:830  0 */\n  0x00\n    /* \"contracts/Lottery.sol\":801:830  uint internal playerCount = 0 */\n  0x05\n  sstore\n    /* \"contracts/Lottery.sol\":355:2748  contract Lottery {... */\n  callvalue\n  dup1\n  iszero\n  tag_1\n  jumpi\n  0x00\n  dup1\n  revert\ntag_1:\n  pop\n  dataSize(sub_0)\n  dup1\n  dataOffset(sub_0)\n  0x00\n  codecopy\n  0x00\n  return\nstop\n\nsub_0: assembly {\n        /* \"contracts/Lottery.sol\":355:2748  contract Lottery {... */\n      mstore(0x40, 0x80)\n      jumpi(tag_1, lt(calldatasize, 0x04))\n      shr(0xe0, calldataload(0x00))\n      dup1\n      0x6d6fe230\n      gt\n      tag_11\n      jumpi\n      dup1\n      0x6d6fe230\n      eq\n      tag_6\n      jumpi\n      dup1\n      0x7128501f\n      eq\n      tag_7\n      jumpi\n      dup1\n      0x8da5cb5b\n      eq\n      tag_8\n      jumpi\n      dup1\n      0xa59f3e0c\n      eq\n      tag_9\n      jumpi\n      dup1\n      0xe580f47b\n      eq\n      tag_10\n      jumpi\n      jump(tag_1)\n    tag_11:\n      dup1\n      0x12065fe0\n      eq\n      tag_2\n      jumpi\n      dup1\n      0x281d098d\n      eq\n      tag_3\n      jumpi\n      dup1\n      0x42619f66\n      eq\n      tag_4\n      jumpi\n      dup1\n      0x460e2049\n      eq\n      tag_5\n      jumpi\n    tag_1:\n      0x00\n      dup1\n      revert\n        /* \"contracts/Lottery.sol\":1131:1225  function getBalance() public view returns (uint) {... */\n    tag_2:\n      callvalue\n      dup1\n      iszero\n      tag_12\n      jumpi\n      0x00\n      dup1\n      revert\n    tag_12:\n      pop\n      tag_13\n      tag_14\n      jump\t// in\n    tag_13:\n      mload(0x40)\n      tag_15\n      swap2\n      swap1\n      tag_16\n      jump\t// in\n    tag_15:\n      mload(0x40)\n      dup1\n      swap2\n      sub\n      swap1\n      return\n        /* \"contracts/Lottery.sol\":998:1125  function getWinnerByLottery(uint lottery) public view returns (address payable) {... */\n    tag_3:\n      callvalue\n      dup1\n      iszero\n      tag_17\n      jumpi\n      0x00\n      dup1\n      revert\n    tag_17:\n      pop\n      tag_18\n      0x04\n      dup1\n      calldatasize\n      sub\n      dup2\n      add\n      swap1\n      tag_19\n      swap2\n      swap1\n      tag_20\n      jump\t// in\n    tag_19:\n      tag_21\n      jump\t// in\n    tag_18:\n      mload(0x40)\n      tag_22\n      swap2\n      swap1\n      tag_23\n      jump\t// in\n    tag_22:\n      mload(0x40)\n      dup1\n      swap2\n      sub\n      swap1\n      return\n        /* \"contracts/Lottery.sol\":968:992  uint public randomResult */\n    tag_4:\n      callvalue\n      dup1\n      iszero\n      tag_24\n      jumpi\n      0x00\n      dup1\n      revert\n    tag_24:\n      pop\n      tag_25\n      tag_26\n      jump\t// in\n    tag_25:\n      mload(0x40)\n      tag_27\n      swap2\n      swap1\n      tag_16\n      jump\t// in\n    tag_27:\n      mload(0x40)\n      dup1\n      swap2\n      sub\n      swap1\n      return\n        /* \"contracts/Lottery.sol\":1231:1471  function getPlayers(uint _index) public view returns (address payable, uint) {... */\n    tag_5:\n      callvalue\n      dup1\n      iszero\n      tag_28\n      jumpi\n      0x00\n      dup1\n      revert\n    tag_28:\n      pop\n      tag_29\n      0x04\n      dup1\n      calldatasize\n      sub\n      dup2\n      add\n      swap1\n      tag_30\n      swap2\n      swap1\n      tag_20\n      jump\t// in\n    tag_30:\n      tag_31\n      jump\t// in\n    tag_29:\n      mload(0x40)\n      tag_32\n      swap3\n      swap2\n      swap1\n      tag_33\n      jump\t// in\n    tag_32:\n      mload(0x40)\n      dup1\n      swap2\n      sub\n      swap1\n      return\n        /* \"contracts/Lottery.sol\":456:511  mapping (uint => address payable) public lotteryHistory */\n    tag_6:\n      callvalue\n      dup1\n      iszero\n      tag_34\n      jumpi\n      0x00\n      dup1\n      revert\n    tag_34:\n      pop\n      tag_35\n      0x04\n      dup1\n      calldatasize\n      sub\n      dup2\n      add\n      swap1\n      tag_36\n      swap2\n      swap1\n      tag_20\n      jump\t// in\n    tag_36:\n      tag_37\n      jump\t// in\n    tag_35:\n      mload(0x40)\n      tag_38\n      swap2\n      swap1\n      tag_23\n      jump\t// in\n    tag_38:\n      mload(0x40)\n      dup1\n      swap2\n      sub\n      swap1\n      return\n        /* \"contracts/Lottery.sol\":1481:1569  function getNumberPlayer() public view returns (uint){... */\n    tag_7:\n      callvalue\n      dup1\n      iszero\n      tag_39\n      jumpi\n      0x00\n      dup1\n      revert\n    tag_39:\n      pop\n      tag_40\n      tag_41\n      jump\t// in\n    tag_40:\n      mload(0x40)\n      tag_42\n      swap2\n      swap1\n      tag_16\n      jump\t// in\n    tag_42:\n      mload(0x40)\n      dup1\n      swap2\n      sub\n      swap1\n      return\n        /* \"contracts/Lottery.sol\":403:423  address public owner */\n    tag_8:\n      callvalue\n      dup1\n      iszero\n      tag_43\n      jumpi\n      0x00\n      dup1\n      revert\n    tag_43:\n      pop\n      tag_44\n      tag_45\n      jump\t// in\n    tag_44:\n      mload(0x40)\n      tag_46\n      swap2\n      swap1\n      tag_47\n      jump\t// in\n    tag_46:\n      mload(0x40)\n      dup1\n      swap2\n      sub\n      swap1\n      return\n        /* \"contracts/Lottery.sol\":1574:2091  function enter(uint _numTicket) public payable {... */\n    tag_9:\n      tag_48\n      0x04\n      dup1\n      calldatasize\n      sub\n      dup2\n      add\n      swap1\n      tag_49\n      swap2\n      swap1\n      tag_20\n      jump\t// in\n    tag_49:\n      tag_50\n      jump\t// in\n    tag_48:\n      stop\n        /* \"contracts/Lottery.sol\":429:450  uint public lotteryId */\n    tag_10:\n      callvalue\n      dup1\n      iszero\n      tag_51\n      jumpi\n      0x00\n      dup1\n      revert\n    tag_51:\n      pop\n      tag_52\n      tag_53\n      jump\t// in\n    tag_52:\n      mload(0x40)\n      tag_54\n      swap2\n      swap1\n      tag_16\n      jump\t// in\n    tag_54:\n      mload(0x40)\n      dup1\n      swap2\n      sub\n      swap1\n      return\n        /* \"contracts/Lottery.sol\":1131:1225  function getBalance() public view returns (uint) {... */\n    tag_14:\n        /* \"contracts/Lottery.sol\":1174:1178  uint */\n      0x00\n        /* \"contracts/Lottery.sol\":1197:1218  address(this).balance */\n      selfbalance\n        /* \"contracts/Lottery.sol\":1190:1218  return address(this).balance */\n      swap1\n      pop\n        /* \"contracts/Lottery.sol\":1131:1225  function getBalance() public view returns (uint) {... */\n      swap1\n      jump\t// out\n        /* \"contracts/Lottery.sol\":998:1125  function getWinnerByLottery(uint lottery) public view returns (address payable) {... */\n    tag_21:\n        /* \"contracts/Lottery.sol\":1061:1076  address payable */\n      0x00\n        /* \"contracts/Lottery.sol\":1095:1109  lotteryHistory */\n      0x02\n        /* \"contracts/Lottery.sol\":1095:1118  lotteryHistory[lottery] */\n      0x00\n        /* \"contracts/Lottery.sol\":1110:1117  lottery */\n      dup4\n        /* \"contracts/Lottery.sol\":1095:1118  lotteryHistory[lottery] */\n      dup2\n      mstore\n      0x20\n      add\n      swap1\n      dup2\n      mstore\n      0x20\n      add\n      0x00\n      keccak256\n      0x00\n      swap1\n      sload\n      swap1\n      0x0100\n      exp\n      swap1\n      div\n      0xffffffffffffffffffffffffffffffffffffffff\n      and\n        /* \"contracts/Lottery.sol\":1088:1118  return lotteryHistory[lottery] */\n      swap1\n      pop\n        /* \"contracts/Lottery.sol\":998:1125  function getWinnerByLottery(uint lottery) public view returns (address payable) {... */\n      swap2\n      swap1\n      pop\n      jump\t// out\n        /* \"contracts/Lottery.sol\":968:992  uint public randomResult */\n    tag_26:\n      sload(0x08)\n      dup2\n      jump\t// out\n        /* \"contracts/Lottery.sol\":1231:1471  function getPlayers(uint _index) public view returns (address payable, uint) {... */\n    tag_31:\n        /* \"contracts/Lottery.sol\":1285:1300  address payable */\n      0x00\n        /* \"contracts/Lottery.sol\":1302:1306  uint */\n      dup1\n        /* \"contracts/Lottery.sol\":1318:1350  Participants storage participant */\n      0x00\n        /* \"contracts/Lottery.sol\":1353:1363  allLottery */\n      0x04\n        /* \"contracts/Lottery.sol\":1353:1371  allLottery[_index] */\n      0x00\n        /* \"contracts/Lottery.sol\":1364:1370  _index */\n      dup6\n        /* \"contracts/Lottery.sol\":1353:1371  allLottery[_index] */\n      dup2\n      mstore\n      0x20\n      add\n      swap1\n      dup2\n      mstore\n      0x20\n      add\n      0x00\n      keccak256\n        /* \"contracts/Lottery.sol\":1318:1371  Participants storage participant = allLottery[_index] */\n      swap1\n      pop\n        /* \"contracts/Lottery.sol\":1401:1412  participant */\n      dup1\n        /* \"contracts/Lottery.sol\":1401:1419  participant.player */\n      0x00\n      add\n      0x00\n      swap1\n      sload\n      swap1\n      0x0100\n      exp\n      swap1\n      div\n      0xffffffffffffffffffffffffffffffffffffffff\n      and\n        /* \"contracts/Lottery.sol\":1433:1444  participant */\n      dup2\n        /* \"contracts/Lottery.sol\":1433:1454  participant.numTicket */\n      0x01\n      add\n      sload\n        /* \"contracts/Lottery.sol\":1381:1464  return(... */\n      swap3\n      pop\n      swap3\n      pop\n      pop\n        /* \"contracts/Lottery.sol\":1231:1471  function getPlayers(uint _index) public view returns (address payable, uint) {... */\n      swap2\n      pop\n      swap2\n      jump\t// out\n        /* \"contracts/Lottery.sol\":456:511  mapping (uint => address payable) public lotteryHistory */\n    tag_37:\n      mstore(0x20, 0x02)\n      dup1\n      0x00\n      mstore\n      keccak256(0x00, 0x40)\n      0x00\n      swap2\n      pop\n      sload\n      swap1\n      0x0100\n      exp\n      swap1\n      div\n      0xffffffffffffffffffffffffffffffffffffffff\n      and\n      dup2\n      jump\t// out\n        /* \"contracts/Lottery.sol\":1481:1569  function getNumberPlayer() public view returns (uint){... */\n    tag_41:\n        /* \"contracts/Lottery.sol\":1529:1533  uint */\n      0x00\n        /* \"contracts/Lottery.sol\":1551:1562  playerCount */\n      sload(0x05)\n        /* \"contracts/Lottery.sol\":1544:1562  return playerCount */\n      swap1\n      pop\n        /* \"contracts/Lottery.sol\":1481:1569  function getNumberPlayer() public view returns (uint){... */\n      swap1\n      jump\t// out\n        /* \"contracts/Lottery.sol\":403:423  address public owner */\n    tag_45:\n      0x00\n      dup1\n      sload\n      swap1\n      0x0100\n      exp\n      swap1\n      div\n      0xffffffffffffffffffffffffffffffffffffffff\n      and\n      dup2\n      jump\t// out\n        /* \"contracts/Lottery.sol\":1574:2091  function enter(uint _numTicket) public payable {... */\n    tag_50:\n        /* \"contracts/Lottery.sol\":1651:1656  2 wei */\n      0x02\n        /* \"contracts/Lottery.sol\":1639:1648  msg.value */\n      callvalue\n        /* \"contracts/Lottery.sol\":1639:1656  msg.value > 2 wei */\n      gt\n        /* \"contracts/Lottery.sol\":1631:1677  require(msg.value > 2 wei, \"Not enough token\") */\n      tag_60\n      jumpi\n      mload(0x40)\n      0x08c379a000000000000000000000000000000000000000000000000000000000\n      dup2\n      mstore\n      0x04\n      add\n      tag_61\n      swap1\n      tag_62\n      jump\t// in\n    tag_61:\n      mload(0x40)\n      dup1\n      swap2\n      sub\n      swap1\n      revert\n    tag_60:\n        /* \"contracts/Lottery.sol\":1709:1710  1 */\n      0x01\n        /* \"contracts/Lottery.sol\":1695:1705  _numTicket */\n      dup2\n        /* \"contracts/Lottery.sol\":1695:1710  _numTicket >= 1 */\n      lt\n      iszero\n        /* \"contracts/Lottery.sol\":1695:1730  _numTicket >= 1 && _numTicket <= 10 */\n      dup1\n      iszero\n      tag_63\n      jumpi\n      pop\n        /* \"contracts/Lottery.sol\":1728:1730  10 */\n      0x0a\n        /* \"contracts/Lottery.sol\":1714:1724  _numTicket */\n      dup2\n        /* \"contracts/Lottery.sol\":1714:1730  _numTicket <= 10 */\n      gt\n      iszero\n        /* \"contracts/Lottery.sol\":1695:1730  _numTicket >= 1 && _numTicket <= 10 */\n    tag_63:\n        /* \"contracts/Lottery.sol\":1687:1761  require(_numTicket >= 1 && _numTicket <= 10, \"Number ticket out of range\") */\n      tag_64\n      jumpi\n      mload(0x40)\n      0x08c379a000000000000000000000000000000000000000000000000000000000\n      dup2\n      mstore\n      0x04\n      add\n      tag_65\n      swap1\n      tag_66\n      jump\t// in\n    tag_65:\n      mload(0x40)\n      dup1\n      swap2\n      sub\n      swap1\n      revert\n    tag_64:\n        /* \"contracts/Lottery.sol\":1771:1801  Participants storage newPlayer */\n      0x00\n        /* \"contracts/Lottery.sol\":1804:1814  allLottery */\n      0x04\n        /* \"contracts/Lottery.sol\":1804:1827  allLottery[playerCount] */\n      0x00\n        /* \"contracts/Lottery.sol\":1815:1826  playerCount */\n      sload(0x05)\n        /* \"contracts/Lottery.sol\":1804:1827  allLottery[playerCount] */\n      dup2\n      mstore\n      0x20\n      add\n      swap1\n      dup2\n      mstore\n      0x20\n      add\n      0x00\n      keccak256\n        /* \"contracts/Lottery.sol\":1771:1827  Participants storage newPlayer = allLottery[playerCount] */\n      swap1\n      pop\n        /* \"contracts/Lottery.sol\":1864:1874  msg.sender */\n      caller\n        /* \"contracts/Lottery.sol\":1837:1846  newPlayer */\n      dup2\n        /* \"contracts/Lottery.sol\":1837:1853  newPlayer.player */\n      0x00\n      add\n      0x00\n        /* \"contracts/Lottery.sol\":1837:1875  newPlayer.player = payable(msg.sender) */\n      0x0100\n      exp\n      dup2\n      sload\n      dup2\n      0xffffffffffffffffffffffffffffffffffffffff\n      mul\n      not\n      and\n      swap1\n      dup4\n      0xffffffffffffffffffffffffffffffffffffffff\n      and\n      mul\n      or\n      swap1\n      sstore\n      pop\n        /* \"contracts/Lottery.sol\":1907:1917  _numTicket */\n      dup2\n        /* \"contracts/Lottery.sol\":1885:1894  newPlayer */\n      dup2\n        /* \"contracts/Lottery.sol\":1885:1904  newPlayer.numTicket */\n      0x01\n      add\n        /* \"contracts/Lottery.sol\":1885:1917  newPlayer.numTicket = _numTicket */\n      dup2\n      swap1\n      sstore\n      pop\n        /* \"contracts/Lottery.sol\":1927:1961  ListNumberTicket storage addTicket */\n      0x00\n        /* \"contracts/Lottery.sol\":1964:1975  groupTicket */\n      0x03\n        /* \"contracts/Lottery.sol\":1964:1996  groupTicket[newPlayer.numTicket] */\n      0x00\n        /* \"contracts/Lottery.sol\":1976:1985  newPlayer */\n      dup4\n        /* \"contracts/Lottery.sol\":1976:1995  newPlayer.numTicket */\n      0x01\n      add\n      sload\n        /* \"contracts/Lottery.sol\":1964:1996  groupTicket[newPlayer.numTicket] */\n      dup2\n      mstore\n      0x20\n      add\n      swap1\n      dup2\n      mstore\n      0x20\n      add\n      0x00\n      keccak256\n        /* \"contracts/Lottery.sol\":1927:1996  ListNumberTicket storage addTicket = groupTicket[newPlayer.numTicket] */\n      swap1\n      pop\n        /* \"contracts/Lottery.sol\":2006:2015  addTicket */\n      dup1\n        /* \"contracts/Lottery.sol\":2006:2027  addTicket.groupPlayer */\n      0x00\n      add\n        /* \"contracts/Lottery.sol\":2041:2051  msg.sender */\n      caller\n        /* \"contracts/Lottery.sol\":2006:2053  addTicket.groupPlayer.push(payable(msg.sender)) */\n      swap1\n      dup1\n      0x01\n      dup2\n      sload\n      add\n      dup1\n      dup3\n      sstore\n      dup1\n      swap2\n      pop\n      pop\n      0x01\n      swap1\n      sub\n      swap1\n      0x00\n      mstore\n      keccak256(0x00, 0x20)\n      add\n      0x00\n      swap1\n      swap2\n      swap1\n      swap2\n      swap1\n      swap2\n      0x0100\n      exp\n      dup2\n      sload\n      dup2\n      0xffffffffffffffffffffffffffffffffffffffff\n      mul\n      not\n      and\n      swap1\n      dup4\n      0xffffffffffffffffffffffffffffffffffffffff\n      and\n      mul\n      or\n      swap1\n      sstore\n      pop\n        /* \"contracts/Lottery.sol\":2063:2084  increasePlayerCount() */\n      tag_68\n        /* \"contracts/Lottery.sol\":2063:2082  increasePlayerCount */\n      tag_69\n        /* \"contracts/Lottery.sol\":2063:2084  increasePlayerCount() */\n      jump\t// in\n    tag_68:\n        /* \"contracts/Lottery.sol\":1621:2091  {... */\n      pop\n      pop\n        /* \"contracts/Lottery.sol\":1574:2091  function enter(uint _numTicket) public payable {... */\n      pop\n      jump\t// out\n        /* \"contracts/Lottery.sol\":429:450  uint public lotteryId */\n    tag_53:\n      sload(0x01)\n      dup2\n      jump\t// out\n        /* \"contracts/Lottery.sol\":2603:2667  function increasePlayerCount() internal {... */\n    tag_69:\n        /* \"contracts/Lottery.sol\":2649:2660  playerCount */\n      0x05\n      0x00\n        /* \"contracts/Lottery.sol\":2649:2662  playerCount++ */\n      dup2\n      sload\n      dup1\n      swap3\n      swap2\n      swap1\n      tag_71\n      swap1\n      tag_72\n      jump\t// in\n    tag_71:\n      swap2\n      swap1\n      pop\n      sstore\n      pop\n        /* \"contracts/Lottery.sol\":2603:2667  function increasePlayerCount() internal {... */\n      jump\t// out\n        /* \"#utility.yul\":7:84   */\n    tag_73:\n        /* \"#utility.yul\":44:51   */\n      0x00\n        /* \"#utility.yul\":73:78   */\n      dup2\n        /* \"#utility.yul\":62:78   */\n      swap1\n      pop\n        /* \"#utility.yul\":7:84   */\n      swap2\n      swap1\n      pop\n      jump\t// out\n        /* \"#utility.yul\":90:208   */\n    tag_74:\n        /* \"#utility.yul\":177:201   */\n      tag_94\n        /* \"#utility.yul\":195:200   */\n      dup2\n        /* \"#utility.yul\":177:201   */\n      tag_73\n      jump\t// in\n    tag_94:\n        /* \"#utility.yul\":172:175   */\n      dup3\n        /* \"#utility.yul\":165:202   */\n      mstore\n        /* \"#utility.yul\":90:208   */\n      pop\n      pop\n      jump\t// out\n        /* \"#utility.yul\":214:436   */\n    tag_16:\n        /* \"#utility.yul\":307:311   */\n      0x00\n        /* \"#utility.yul\":345:347   */\n      0x20\n        /* \"#utility.yul\":334:343   */\n      dup3\n        /* \"#utility.yul\":330:348   */\n      add\n        /* \"#utility.yul\":322:348   */\n      swap1\n      pop\n        /* \"#utility.yul\":358:429   */\n      tag_96\n        /* \"#utility.yul\":426:427   */\n      0x00\n        /* \"#utility.yul\":415:424   */\n      dup4\n        /* \"#utility.yul\":411:428   */\n      add\n        /* \"#utility.yul\":402:408   */\n      dup5\n        /* \"#utility.yul\":358:429   */\n      tag_74\n      jump\t// in\n    tag_96:\n        /* \"#utility.yul\":214:436   */\n      swap3\n      swap2\n      pop\n      pop\n      jump\t// out\n        /* \"#utility.yul\":523:640   */\n    tag_76:\n        /* \"#utility.yul\":632:633   */\n      0x00\n        /* \"#utility.yul\":629:630   */\n      dup1\n        /* \"#utility.yul\":622:634   */\n      revert\n        /* \"#utility.yul\":769:891   */\n    tag_78:\n        /* \"#utility.yul\":842:866   */\n      tag_101\n        /* \"#utility.yul\":860:865   */\n      dup2\n        /* \"#utility.yul\":842:866   */\n      tag_73\n      jump\t// in\n    tag_101:\n        /* \"#utility.yul\":835:840   */\n      dup2\n        /* \"#utility.yul\":832:867   */\n      eq\n        /* \"#utility.yul\":822:885   */\n      tag_102\n      jumpi\n        /* \"#utility.yul\":881:882   */\n      0x00\n        /* \"#utility.yul\":878:879   */\n      dup1\n        /* \"#utility.yul\":871:883   */\n      revert\n        /* \"#utility.yul\":822:885   */\n    tag_102:\n        /* \"#utility.yul\":769:891   */\n      pop\n      jump\t// out\n        /* \"#utility.yul\":897:1036   */\n    tag_79:\n        /* \"#utility.yul\":943:948   */\n      0x00\n        /* \"#utility.yul\":981:987   */\n      dup2\n        /* \"#utility.yul\":968:988   */\n      calldataload\n        /* \"#utility.yul\":959:988   */\n      swap1\n      pop\n        /* \"#utility.yul\":997:1030   */\n      tag_104\n        /* \"#utility.yul\":1024:1029   */\n      dup2\n        /* \"#utility.yul\":997:1030   */\n      tag_78\n      jump\t// in\n    tag_104:\n        /* \"#utility.yul\":897:1036   */\n      swap3\n      swap2\n      pop\n      pop\n      jump\t// out\n        /* \"#utility.yul\":1042:1371   */\n    tag_20:\n        /* \"#utility.yul\":1101:1107   */\n      0x00\n        /* \"#utility.yul\":1150:1152   */\n      0x20\n        /* \"#utility.yul\":1138:1147   */\n      dup3\n        /* \"#utility.yul\":1129:1136   */\n      dup5\n        /* \"#utility.yul\":1125:1148   */\n      sub\n        /* \"#utility.yul\":1121:1153   */\n      slt\n        /* \"#utility.yul\":1118:1237   */\n      iszero\n      tag_106\n      jumpi\n        /* \"#utility.yul\":1156:1235   */\n      tag_107\n      tag_76\n      jump\t// in\n    tag_107:\n        /* \"#utility.yul\":1118:1237   */\n    tag_106:\n        /* \"#utility.yul\":1276:1277   */\n      0x00\n        /* \"#utility.yul\":1301:1354   */\n      tag_108\n        /* \"#utility.yul\":1346:1353   */\n      dup5\n        /* \"#utility.yul\":1337:1343   */\n      dup3\n        /* \"#utility.yul\":1326:1335   */\n      dup6\n        /* \"#utility.yul\":1322:1344   */\n      add\n        /* \"#utility.yul\":1301:1354   */\n      tag_79\n      jump\t// in\n    tag_108:\n        /* \"#utility.yul\":1291:1354   */\n      swap2\n      pop\n        /* \"#utility.yul\":1247:1364   */\n      pop\n        /* \"#utility.yul\":1042:1371   */\n      swap3\n      swap2\n      pop\n      pop\n      jump\t// out\n        /* \"#utility.yul\":1377:1503   */\n    tag_80:\n        /* \"#utility.yul\":1414:1421   */\n      0x00\n        /* \"#utility.yul\":1454:1496   */\n      0xffffffffffffffffffffffffffffffffffffffff\n        /* \"#utility.yul\":1447:1452   */\n      dup3\n        /* \"#utility.yul\":1443:1497   */\n      and\n        /* \"#utility.yul\":1432:1497   */\n      swap1\n      pop\n        /* \"#utility.yul\":1377:1503   */\n      swap2\n      swap1\n      pop\n      jump\t// out\n        /* \"#utility.yul\":1509:1613   */\n    tag_81:\n        /* \"#utility.yul\":1554:1561   */\n      0x00\n        /* \"#utility.yul\":1583:1607   */\n      tag_111\n        /* \"#utility.yul\":1601:1606   */\n      dup3\n        /* \"#utility.yul\":1583:1607   */\n      tag_80\n      jump\t// in\n    tag_111:\n        /* \"#utility.yul\":1572:1607   */\n      swap1\n      pop\n        /* \"#utility.yul\":1509:1613   */\n      swap2\n      swap1\n      pop\n      jump\t// out\n        /* \"#utility.yul\":1619:1761   */\n    tag_82:\n        /* \"#utility.yul\":1722:1754   */\n      tag_113\n        /* \"#utility.yul\":1748:1753   */\n      dup2\n        /* \"#utility.yul\":1722:1754   */\n      tag_81\n      jump\t// in\n    tag_113:\n        /* \"#utility.yul\":1717:1720   */\n      dup3\n        /* \"#utility.yul\":1710:1755   */\n      mstore\n        /* \"#utility.yul\":1619:1761   */\n      pop\n      pop\n      jump\t// out\n        /* \"#utility.yul\":1767:2021   */\n    tag_23:\n        /* \"#utility.yul\":1876:1880   */\n      0x00\n        /* \"#utility.yul\":1914:1916   */\n      0x20\n        /* \"#utility.yul\":1903:1912   */\n      dup3\n        /* \"#utility.yul\":1899:1917   */\n      add\n        /* \"#utility.yul\":1891:1917   */\n      swap1\n      pop\n        /* \"#utility.yul\":1927:2014   */\n      tag_115\n        /* \"#utility.yul\":2011:2012   */\n      0x00\n        /* \"#utility.yul\":2000:2009   */\n      dup4\n        /* \"#utility.yul\":1996:2013   */\n      add\n        /* \"#utility.yul\":1987:1993   */\n      dup5\n        /* \"#utility.yul\":1927:2014   */\n      tag_82\n      jump\t// in\n    tag_115:\n        /* \"#utility.yul\":1767:2021   */\n      swap3\n      swap2\n      pop\n      pop\n      jump\t// out\n        /* \"#utility.yul\":2027:2391   */\n    tag_33:\n        /* \"#utility.yul\":2164:2168   */\n      0x00\n        /* \"#utility.yul\":2202:2204   */\n      0x40\n        /* \"#utility.yul\":2191:2200   */\n      dup3\n        /* \"#utility.yul\":2187:2205   */\n      add\n        /* \"#utility.yul\":2179:2205   */\n      swap1\n      pop\n        /* \"#utility.yul\":2215:2302   */\n      tag_117\n        /* \"#utility.yul\":2299:2300   */\n      0x00\n        /* \"#utility.yul\":2288:2297   */\n      dup4\n        /* \"#utility.yul\":2284:2301   */\n      add\n        /* \"#utility.yul\":2275:2281   */\n      dup6\n        /* \"#utility.yul\":2215:2302   */\n      tag_82\n      jump\t// in\n    tag_117:\n        /* \"#utility.yul\":2312:2384   */\n      tag_118\n        /* \"#utility.yul\":2380:2382   */\n      0x20\n        /* \"#utility.yul\":2369:2378   */\n      dup4\n        /* \"#utility.yul\":2365:2383   */\n      add\n        /* \"#utility.yul\":2356:2362   */\n      dup5\n        /* \"#utility.yul\":2312:2384   */\n      tag_74\n      jump\t// in\n    tag_118:\n        /* \"#utility.yul\":2027:2391   */\n      swap4\n      swap3\n      pop\n      pop\n      pop\n      jump\t// out\n        /* \"#utility.yul\":2397:2493   */\n    tag_83:\n        /* \"#utility.yul\":2434:2441   */\n      0x00\n        /* \"#utility.yul\":2463:2487   */\n      tag_120\n        /* \"#utility.yul\":2481:2486   */\n      dup3\n        /* \"#utility.yul\":2463:2487   */\n      tag_80\n      jump\t// in\n    tag_120:\n        /* \"#utility.yul\":2452:2487   */\n      swap1\n      pop\n        /* \"#utility.yul\":2397:2493   */\n      swap2\n      swap1\n      pop\n      jump\t// out\n        /* \"#utility.yul\":2499:2617   */\n    tag_84:\n        /* \"#utility.yul\":2586:2610   */\n      tag_122\n        /* \"#utility.yul\":2604:2609   */\n      dup2\n        /* \"#utility.yul\":2586:2610   */\n      tag_83\n      jump\t// in\n    tag_122:\n        /* \"#utility.yul\":2581:2584   */\n      dup3\n        /* \"#utility.yul\":2574:2611   */\n      mstore\n        /* \"#utility.yul\":2499:2617   */\n      pop\n      pop\n      jump\t// out\n        /* \"#utility.yul\":2623:2845   */\n    tag_47:\n        /* \"#utility.yul\":2716:2720   */\n      0x00\n        /* \"#utility.yul\":2754:2756   */\n      0x20\n        /* \"#utility.yul\":2743:2752   */\n      dup3\n        /* \"#utility.yul\":2739:2757   */\n      add\n        /* \"#utility.yul\":2731:2757   */\n      swap1\n      pop\n        /* \"#utility.yul\":2767:2838   */\n      tag_124\n        /* \"#utility.yul\":2835:2836   */\n      0x00\n        /* \"#utility.yul\":2824:2833   */\n      dup4\n        /* \"#utility.yul\":2820:2837   */\n      add\n        /* \"#utility.yul\":2811:2817   */\n      dup5\n        /* \"#utility.yul\":2767:2838   */\n      tag_84\n      jump\t// in\n    tag_124:\n        /* \"#utility.yul\":2623:2845   */\n      swap3\n      swap2\n      pop\n      pop\n      jump\t// out\n        /* \"#utility.yul\":2851:3020   */\n    tag_85:\n        /* \"#utility.yul\":2935:2946   */\n      0x00\n        /* \"#utility.yul\":2969:2975   */\n      dup3\n        /* \"#utility.yul\":2964:2967   */\n      dup3\n        /* \"#utility.yul\":2957:2976   */\n      mstore\n        /* \"#utility.yul\":3009:3013   */\n      0x20\n        /* \"#utility.yul\":3004:3007   */\n      dup3\n        /* \"#utility.yul\":3000:3014   */\n      add\n        /* \"#utility.yul\":2985:3014   */\n      swap1\n      pop\n        /* \"#utility.yul\":2851:3020   */\n      swap3\n      swap2\n      pop\n      pop\n      jump\t// out\n        /* \"#utility.yul\":3026:3192   */\n    tag_86:\n        /* \"#utility.yul\":3166:3184   */\n      0x4e6f7420656e6f75676820746f6b656e00000000000000000000000000000000\n        /* \"#utility.yul\":3162:3163   */\n      0x00\n        /* \"#utility.yul\":3154:3160   */\n      dup3\n        /* \"#utility.yul\":3150:3164   */\n      add\n        /* \"#utility.yul\":3143:3185   */\n      mstore\n        /* \"#utility.yul\":3026:3192   */\n      pop\n      jump\t// out\n        /* \"#utility.yul\":3198:3564   */\n    tag_87:\n        /* \"#utility.yul\":3340:3343   */\n      0x00\n        /* \"#utility.yul\":3361:3428   */\n      tag_128\n        /* \"#utility.yul\":3425:3427   */\n      0x10\n        /* \"#utility.yul\":3420:3423   */\n      dup4\n        /* \"#utility.yul\":3361:3428   */\n      tag_85\n      jump\t// in\n    tag_128:\n        /* \"#utility.yul\":3354:3428   */\n      swap2\n      pop\n        /* \"#utility.yul\":3437:3530   */\n      tag_129\n        /* \"#utility.yul\":3526:3529   */\n      dup3\n        /* \"#utility.yul\":3437:3530   */\n      tag_86\n      jump\t// in\n    tag_129:\n        /* \"#utility.yul\":3555:3557   */\n      0x20\n        /* \"#utility.yul\":3550:3553   */\n      dup3\n        /* \"#utility.yul\":3546:3558   */\n      add\n        /* \"#utility.yul\":3539:3558   */\n      swap1\n      pop\n        /* \"#utility.yul\":3198:3564   */\n      swap2\n      swap1\n      pop\n      jump\t// out\n        /* \"#utility.yul\":3570:3989   */\n    tag_62:\n        /* \"#utility.yul\":3736:3740   */\n      0x00\n        /* \"#utility.yul\":3774:3776   */\n      0x20\n        /* \"#utility.yul\":3763:3772   */\n      dup3\n        /* \"#utility.yul\":3759:3777   */\n      add\n        /* \"#utility.yul\":3751:3777   */\n      swap1\n      pop\n        /* \"#utility.yul\":3823:3832   */\n      dup2\n        /* \"#utility.yul\":3817:3821   */\n      dup2\n        /* \"#utility.yul\":3813:3833   */\n      sub\n        /* \"#utility.yul\":3809:3810   */\n      0x00\n        /* \"#utility.yul\":3798:3807   */\n      dup4\n        /* \"#utility.yul\":3794:3811   */\n      add\n        /* \"#utility.yul\":3787:3834   */\n      mstore\n        /* \"#utility.yul\":3851:3982   */\n      tag_131\n        /* \"#utility.yul\":3977:3981   */\n      dup2\n        /* \"#utility.yul\":3851:3982   */\n      tag_87\n      jump\t// in\n    tag_131:\n        /* \"#utility.yul\":3843:3982   */\n      swap1\n      pop\n        /* \"#utility.yul\":3570:3989   */\n      swap2\n      swap1\n      pop\n      jump\t// out\n        /* \"#utility.yul\":3995:4171   */\n    tag_88:\n        /* \"#utility.yul\":4135:4163   */\n      0x4e756d626572207469636b6574206f7574206f662072616e6765000000000000\n        /* \"#utility.yul\":4131:4132   */\n      0x00\n        /* \"#utility.yul\":4123:4129   */\n      dup3\n        /* \"#utility.yul\":4119:4133   */\n      add\n        /* \"#utility.yul\":4112:4164   */\n      mstore\n        /* \"#utility.yul\":3995:4171   */\n      pop\n      jump\t// out\n        /* \"#utility.yul\":4177:4543   */\n    tag_89:\n        /* \"#utility.yul\":4319:4322   */\n      0x00\n        /* \"#utility.yul\":4340:4407   */\n      tag_134\n        /* \"#utility.yul\":4404:4406   */\n      0x1a\n        /* \"#utility.yul\":4399:4402   */\n      dup4\n        /* \"#utility.yul\":4340:4407   */\n      tag_85\n      jump\t// in\n    tag_134:\n        /* \"#utility.yul\":4333:4407   */\n      swap2\n      pop\n        /* \"#utility.yul\":4416:4509   */\n      tag_135\n        /* \"#utility.yul\":4505:4508   */\n      dup3\n        /* \"#utility.yul\":4416:4509   */\n      tag_88\n      jump\t// in\n    tag_135:\n        /* \"#utility.yul\":4534:4536   */\n      0x20\n        /* \"#utility.yul\":4529:4532   */\n      dup3\n        /* \"#utility.yul\":4525:4537   */\n      add\n        /* \"#utility.yul\":4518:4537   */\n      swap1\n      pop\n        /* \"#utility.yul\":4177:4543   */\n      swap2\n      swap1\n      pop\n      jump\t// out\n        /* \"#utility.yul\":4549:4968   */\n    tag_66:\n        /* \"#utility.yul\":4715:4719   */\n      0x00\n        /* \"#utility.yul\":4753:4755   */\n      0x20\n        /* \"#utility.yul\":4742:4751   */\n      dup3\n        /* \"#utility.yul\":4738:4756   */\n      add\n        /* \"#utility.yul\":4730:4756   */\n      swap1\n      pop\n        /* \"#utility.yul\":4802:4811   */\n      dup2\n        /* \"#utility.yul\":4796:4800   */\n      dup2\n        /* \"#utility.yul\":4792:4812   */\n      sub\n        /* \"#utility.yul\":4788:4789   */\n      0x00\n        /* \"#utility.yul\":4777:4786   */\n      dup4\n        /* \"#utility.yul\":4773:4790   */\n      add\n        /* \"#utility.yul\":4766:4813   */\n      mstore\n        /* \"#utility.yul\":4830:4961   */\n      tag_137\n        /* \"#utility.yul\":4956:4960   */\n      dup2\n        /* \"#utility.yul\":4830:4961   */\n      tag_89\n      jump\t// in\n    tag_137:\n        /* \"#utility.yul\":4822:4961   */\n      swap1\n      pop\n        /* \"#utility.yul\":4549:4968   */\n      swap2\n      swap1\n      pop\n      jump\t// out\n        /* \"#utility.yul\":4974:5154   */\n    tag_90:\n        /* \"#utility.yul\":5022:5099   */\n      0x4e487b7100000000000000000000000000000000000000000000000000000000\n        /* \"#utility.yul\":5019:5020   */\n      0x00\n        /* \"#utility.yul\":5012:5100   */\n      mstore\n        /* \"#utility.yul\":5119:5123   */\n      0x11\n        /* \"#utility.yul\":5116:5117   */\n      0x04\n        /* \"#utility.yul\":5109:5124   */\n      mstore\n        /* \"#utility.yul\":5143:5147   */\n      0x24\n        /* \"#utility.yul\":5140:5141   */\n      0x00\n        /* \"#utility.yul\":5133:5148   */\n      revert\n        /* \"#utility.yul\":5160:5393   */\n    tag_72:\n        /* \"#utility.yul\":5199:5202   */\n      0x00\n        /* \"#utility.yul\":5222:5246   */\n      tag_140\n        /* \"#utility.yul\":5240:5245   */\n      dup3\n        /* \"#utility.yul\":5222:5246   */\n      tag_73\n      jump\t// in\n    tag_140:\n        /* \"#utility.yul\":5213:5246   */\n      swap2\n      pop\n        /* \"#utility.yul\":5268:5334   */\n      0xffffffffffffffffffffffffffffffffffffffffffffffffffffffffffffffff\n        /* \"#utility.yul\":5261:5266   */\n      dup3\n        /* \"#utility.yul\":5258:5335   */\n      sub\n        /* \"#utility.yul\":5255:5358   */\n      tag_141\n      jumpi\n        /* \"#utility.yul\":5338:5356   */\n      tag_142\n      tag_90\n      jump\t// in\n    tag_142:\n        /* \"#utility.yul\":5255:5358   */\n    tag_141:\n        /* \"#utility.yul\":5385:5386   */\n      0x01\n        /* \"#utility.yul\":5378:5383   */\n      dup3\n        /* \"#utility.yul\":5374:5387   */\n      add\n        /* \"#utility.yul\":5367:5387   */\n      swap1\n      pop\n        /* \"#utility.yul\":5160:5393   */\n      swap2\n      swap1\n      pop\n      jump\t// out\n\n    auxdata: 0xa26469706673582212204bd2a870a3196b10fe3df5f781dadab44ccf5ffb30e5c52277f06df3bb28599b64736f6c634300080f0033\n}\n",
				"bytecode": {
					"linkReferences": {},
					"object": "6080604052600060055534801561001557600080fd5b506107bf806100256000396000f3fe6080604052600436106100865760003560e01c80636d6fe230116100595780636d6fe2301461015c5780637128501f146101995780638da5cb5b146101c4578063a59f3e0c146101ef578063e580f47b1461020b57610086565b806312065fe01461008b578063281d098d146100b657806342619f66146100f3578063460e20491461011e575b600080fd5b34801561009757600080fd5b506100a0610236565b6040516100ad91906104ef565b60405180910390f35b3480156100c257600080fd5b506100dd60048036038101906100d8919061053b565b61023e565b6040516100ea91906105a9565b60405180910390f35b3480156100ff57600080fd5b5061010861027b565b60405161011591906104ef565b60405180910390f35b34801561012a57600080fd5b506101456004803603810190610140919061053b565b610281565b6040516101539291906105c4565b60405180910390f35b34801561016857600080fd5b50610183600480360381019061017e919061053b565b6102cf565b60405161019091906105a9565b60405180910390f35b3480156101a557600080fd5b506101ae610302565b6040516101bb91906104ef565b60405180910390f35b3480156101d057600080fd5b506101d961030c565b6040516101e6919061060e565b60405180910390f35b6102096004803603810190610204919061053b565b610330565b005b34801561021757600080fd5b506102206104b6565b60405161022d91906104ef565b60405180910390f35b600047905090565b60006002600083815260200190815260200160002060009054906101000a900473ffffffffffffffffffffffffffffffffffffffff169050919050565b60085481565b60008060006004600085815260200190815260200160002090508060000160009054906101000a900473ffffffffffffffffffffffffffffffffffffffff1681600101549250925050915091565b60026020528060005260406000206000915054906101000a900473ffffffffffffffffffffffffffffffffffffffff1681565b6000600554905090565b60008054906101000a900473ffffffffffffffffffffffffffffffffffffffff1681565b60023411610373576040517f08c379a000000000000000000000000000000000000000000000000000000000815260040161036a90610686565b60405180910390fd5b600181101580156103855750600a8111155b6103c4576040517f08c379a00000000000000000000000000000000000000000000000000000000081526004016103bb906106f2565b60405180910390fd5b60006004600060055481526020019081526020016000209050338160000160006101000a81548173ffffffffffffffffffffffffffffffffffffffff021916908373ffffffffffffffffffffffffffffffffffffffff16021790555081816001018190555060006003600083600101548152602001908152602001600020905080600001339080600181540180825580915050600190039060005260206000200160009091909190916101000a81548173ffffffffffffffffffffffffffffffffffffffff021916908373ffffffffffffffffffffffffffffffffffffffff1602179055506104b16104bc565b505050565b60015481565b600560008154809291906104cf90610741565b9190505550565b6000819050919050565b6104e9816104d6565b82525050565b600060208201905061050460008301846104e0565b92915050565b600080fd5b610518816104d6565b811461052357600080fd5b50565b6000813590506105358161050f565b92915050565b6000602082840312156105515761055061050a565b5b600061055f84828501610526565b91505092915050565b600073ffffffffffffffffffffffffffffffffffffffff82169050919050565b600061059382610568565b9050919050565b6105a381610588565b82525050565b60006020820190506105be600083018461059a565b92915050565b60006040820190506105d9600083018561059a565b6105e660208301846104e0565b9392505050565b60006105f882610568565b9050919050565b610608816105ed565b82525050565b600060208201905061062360008301846105ff565b92915050565b600082825260208201905092915050565b7f4e6f7420656e6f75676820746f6b656e00000000000000000000000000000000600082015250565b6000610670601083610629565b915061067b8261063a565b602082019050919050565b6000602082019050818103600083015261069f81610663565b9050919050565b7f4e756d626572207469636b6574206f7574206f662072616e6765000000000000600082015250565b60006106dc601a83610629565b91506106e7826106a6565b602082019050919050565b6000602082019050818103600083015261070b816106cf565b9050919050565b7f4e487b7100000000000000000000000000000000000000000000000000000000600052601160045260246000fd5b600061074c826104d6565b91507fffffffffffffffffffffffffffffffffffffffffffffffffffffffffffffffff820361077e5761077d610712565b5b60018201905091905056fea26469706673582212204bd2a870a3196b10fe3df5f781dadab44ccf5ffb30e5c52277f06df3bb28599b64736f6c634300080f0033",
					"opcodes": "PUSH1 0x80 PUSH1 0x40 MSTORE PUSH1 0x0 PUSH1 0x5 SSTORE CALLVALUE DUP1 ISZERO PUSH2 0x15 JUMPI PUSH1 0x0 DUP1 REVERT JUMPDEST POP PUSH2 0x7BF DUP1 PUSH2 0x25 PUSH1 0x0 CODECOPY PUSH1 0x0 RETURN INVALID PUSH1 0x80 PUSH1 0x40 MSTORE PUSH1 0x4 CALLDATASIZE LT PUSH2 0x86 JUMPI PUSH1 0x0 CALLDATALOAD PUSH1 0xE0 SHR DUP1 PUSH4 0x6D6FE230 GT PUSH2 0x59 JUMPI DUP1 PUSH4 0x6D6FE230 EQ PUSH2 0x15C JUMPI DUP1 PUSH4 0x7128501F EQ PUSH2 0x199 JUMPI DUP1 PUSH4 0x8DA5CB5B EQ PUSH2 0x1C4 JUMPI DUP1 PUSH4 0xA59F3E0C EQ PUSH2 0x1EF JUMPI DUP1 PUSH4 0xE580F47B EQ PUSH2 0x20B JUMPI PUSH2 0x86 JUMP JUMPDEST DUP1 PUSH4 0x12065FE0 EQ PUSH2 0x8B JUMPI DUP1 PUSH4 0x281D098D EQ PUSH2 0xB6 JUMPI DUP1 PUSH4 0x42619F66 EQ PUSH2 0xF3 JUMPI DUP1 PUSH4 0x460E2049 EQ PUSH2 0x11E JUMPI JUMPDEST PUSH1 0x0 DUP1 REVERT JUMPDEST CALLVALUE DUP1 ISZERO PUSH2 0x97 JUMPI PUSH1 0x0 DUP1 REVERT JUMPDEST POP PUSH2 0xA0 PUSH2 0x236 JUMP JUMPDEST PUSH1 0x40 MLOAD PUSH2 0xAD SWAP2 SWAP1 PUSH2 0x4EF JUMP JUMPDEST PUSH1 0x40 MLOAD DUP1 SWAP2 SUB SWAP1 RETURN JUMPDEST CALLVALUE DUP1 ISZERO PUSH2 0xC2 JUMPI PUSH1 0x0 DUP1 REVERT JUMPDEST POP PUSH2 0xDD PUSH1 0x4 DUP1 CALLDATASIZE SUB DUP2 ADD SWAP1 PUSH2 0xD8 SWAP2 SWAP1 PUSH2 0x53B JUMP JUMPDEST PUSH2 0x23E JUMP JUMPDEST PUSH1 0x40 MLOAD PUSH2 0xEA SWAP2 SWAP1 PUSH2 0x5A9 JUMP JUMPDEST PUSH1 0x40 MLOAD DUP1 SWAP2 SUB SWAP1 RETURN JUMPDEST CALLVALUE DUP1 ISZERO PUSH2 0xFF JUMPI PUSH1 0x0 DUP1 REVERT JUMPDEST POP PUSH2 0x108 PUSH2 0x27B JUMP JUMPDEST PUSH1 0x40 MLOAD PUSH2 0x115 SWAP2 SWAP1 PUSH2 0x4EF JUMP JUMPDEST PUSH1 0x40 MLOAD DUP1 SWAP2 SUB SWAP1 RETURN JUMPDEST CALLVALUE DUP1 ISZERO PUSH2 0x12A JUMPI PUSH1 0x0 DUP1 REVERT JUMPDEST POP PUSH2 0x145 PUSH1 0x4 DUP1 CALLDATASIZE SUB DUP2 ADD SWAP1 PUSH2 0x140 SWAP2 SWAP1 PUSH2 0x53B JUMP JUMPDEST PUSH2 0x281 JUMP JUMPDEST PUSH1 0x40 MLOAD PUSH2 0x153 SWAP3 SWAP2 SWAP1 PUSH2 0x5C4 JUMP JUMPDEST PUSH1 0x40 MLOAD DUP1 SWAP2 SUB SWAP1 RETURN JUMPDEST CALLVALUE DUP1 ISZERO PUSH2 0x168 JUMPI PUSH1 0x0 DUP1 REVERT JUMPDEST POP PUSH2 0x183 PUSH1 0x4 DUP1 CALLDATASIZE SUB DUP2 ADD SWAP1 PUSH2 0x17E SWAP2 SWAP1 PUSH2 0x53B JUMP JUMPDEST PUSH2 0x2CF JUMP JUMPDEST PUSH1 0x40 MLOAD PUSH2 0x190 SWAP2 SWAP1 PUSH2 0x5A9 JUMP JUMPDEST PUSH1 0x40 MLOAD DUP1 SWAP2 SUB SWAP1 RETURN JUMPDEST CALLVALUE DUP1 ISZERO PUSH2 0x1A5 JUMPI PUSH1 0x0 DUP1 REVERT JUMPDEST POP PUSH2 0x1AE PUSH2 0x302 JUMP JUMPDEST PUSH1 0x40 MLOAD PUSH2 0x1BB SWAP2 SWAP1 PUSH2 0x4EF JUMP JUMPDEST PUSH1 0x40 MLOAD DUP1 SWAP2 SUB SWAP1 RETURN JUMPDEST CALLVALUE DUP1 ISZERO PUSH2 0x1D0 JUMPI PUSH1 0x0 DUP1 REVERT JUMPDEST POP PUSH2 0x1D9 PUSH2 0x30C JUMP JUMPDEST PUSH1 0x40 MLOAD PUSH2 0x1E6 SWAP2 SWAP1 PUSH2 0x60E JUMP JUMPDEST PUSH1 0x40 MLOAD DUP1 SWAP2 SUB SWAP1 RETURN JUMPDEST PUSH2 0x209 PUSH1 0x4 DUP1 CALLDATASIZE SUB DUP2 ADD SWAP1 PUSH2 0x204 SWAP2 SWAP1 PUSH2 0x53B JUMP JUMPDEST PUSH2 0x330 JUMP JUMPDEST STOP JUMPDEST CALLVALUE DUP1 ISZERO PUSH2 0x217 JUMPI PUSH1 0x0 DUP1 REVERT JUMPDEST POP PUSH2 0x220 PUSH2 0x4B6 JUMP JUMPDEST PUSH1 0x40 MLOAD PUSH2 0x22D SWAP2 SWAP1 PUSH2 0x4EF JUMP JUMPDEST PUSH1 0x40 MLOAD DUP1 SWAP2 SUB SWAP1 RETURN JUMPDEST PUSH1 0x0 SELFBALANCE SWAP1 POP SWAP1 JUMP JUMPDEST PUSH1 0x0 PUSH1 0x2 PUSH1 0x0 DUP4 DUP2 MSTORE PUSH1 0x20 ADD SWAP1 DUP2 MSTORE PUSH1 0x20 ADD PUSH1 0x0 KECCAK256 PUSH1 0x0 SWAP1 SLOAD SWAP1 PUSH2 0x100 EXP SWAP1 DIV PUSH20 0xFFFFFFFFFFFFFFFFFFFFFFFFFFFFFFFFFFFFFFFF AND SWAP1 POP SWAP2 SWAP1 POP JUMP JUMPDEST PUSH1 0x8 SLOAD DUP2 JUMP JUMPDEST PUSH1 0x0 DUP1 PUSH1 0x0 PUSH1 0x4 PUSH1 0x0 DUP6 DUP2 MSTORE PUSH1 0x20 ADD SWAP1 DUP2 MSTORE PUSH1 0x20 ADD PUSH1 0x0 KECCAK256 SWAP1 POP DUP1 PUSH1 0x0 ADD PUSH1 0x0 SWAP1 SLOAD SWAP1 PUSH2 0x100 EXP SWAP1 DIV PUSH20 0xFFFFFFFFFFFFFFFFFFFFFFFFFFFFFFFFFFFFFFFF AND DUP2 PUSH1 0x1 ADD SLOAD SWAP3 POP SWAP3 POP POP SWAP2 POP SWAP2 JUMP JUMPDEST PUSH1 0x2 PUSH1 0x20 MSTORE DUP1 PUSH1 0x0 MSTORE PUSH1 0x40 PUSH1 0x0 KECCAK256 PUSH1 0x0 SWAP2 POP SLOAD SWAP1 PUSH2 0x100 EXP SWAP1 DIV PUSH20 0xFFFFFFFFFFFFFFFFFFFFFFFFFFFFFFFFFFFFFFFF AND DUP2 JUMP JUMPDEST PUSH1 0x0 PUSH1 0x5 SLOAD SWAP1 POP SWAP1 JUMP JUMPDEST PUSH1 0x0 DUP1 SLOAD SWAP1 PUSH2 0x100 EXP SWAP1 DIV PUSH20 0xFFFFFFFFFFFFFFFFFFFFFFFFFFFFFFFFFFFFFFFF AND DUP2 JUMP JUMPDEST PUSH1 0x2 CALLVALUE GT PUSH2 0x373 JUMPI PUSH1 0x40 MLOAD PUSH32 0x8C379A000000000000000000000000000000000000000000000000000000000 DUP2 MSTORE PUSH1 0x4 ADD PUSH2 0x36A SWAP1 PUSH2 0x686 JUMP JUMPDEST PUSH1 0x40 MLOAD DUP1 SWAP2 SUB SWAP1 REVERT JUMPDEST PUSH1 0x1 DUP2 LT ISZERO DUP1 ISZERO PUSH2 0x385 JUMPI POP PUSH1 0xA DUP2 GT ISZERO JUMPDEST PUSH2 0x3C4 JUMPI PUSH1 0x40 MLOAD PUSH32 0x8C379A000000000000000000000000000000000000000000000000000000000 DUP2 MSTORE PUSH1 0x4 ADD PUSH2 0x3BB SWAP1 PUSH2 0x6F2 JUMP JUMPDEST PUSH1 0x40 MLOAD DUP1 SWAP2 SUB SWAP1 REVERT JUMPDEST PUSH1 0x0 PUSH1 0x4 PUSH1 0x0 PUSH1 0x5 SLOAD DUP2 MSTORE PUSH1 0x20 ADD SWAP1 DUP2 MSTORE PUSH1 0x20 ADD PUSH1 0x0 KECCAK256 SWAP1 POP CALLER DUP2 PUSH1 0x0 ADD PUSH1 0x0 PUSH2 0x100 EXP DUP2 SLOAD DUP2 PUSH20 0xFFFFFFFFFFFFFFFFFFFFFFFFFFFFFFFFFFFFFFFF MUL NOT AND SWAP1 DUP4 PUSH20 0xFFFFFFFFFFFFFFFFFFFFFFFFFFFFFFFFFFFFFFFF AND MUL OR SWAP1 SSTORE POP DUP2 DUP2 PUSH1 0x1 ADD DUP2 SWAP1 SSTORE POP PUSH1 0x0 PUSH1 0x3 PUSH1 0x0 DUP4 PUSH1 0x1 ADD SLOAD DUP2 MSTORE PUSH1 0x20 ADD SWAP1 DUP2 MSTORE PUSH1 0x20 ADD PUSH1 0x0 KECCAK256 SWAP1 POP DUP1 PUSH1 0x0 ADD CALLER SWAP1 DUP1 PUSH1 0x1 DUP2 SLOAD ADD DUP1 DUP3 SSTORE DUP1 SWAP2 POP POP PUSH1 0x1 SWAP1 SUB SWAP1 PUSH1 0x0 MSTORE PUSH1 0x20 PUSH1 0x0 KECCAK256 ADD PUSH1 0x0 SWAP1 SWAP2 SWAP1 SWAP2 SWAP1 SWAP2 PUSH2 0x100 EXP DUP2 SLOAD DUP2 PUSH20 0xFFFFFFFFFFFFFFFFFFFFFFFFFFFFFFFFFFFFFFFF MUL NOT AND SWAP1 DUP4 PUSH20 0xFFFFFFFFFFFFFFFFFFFFFFFFFFFFFFFFFFFFFFFF AND MUL OR SWAP1 SSTORE POP PUSH2 0x4B1 PUSH2 0x4BC JUMP JUMPDEST POP POP POP JUMP JUMPDEST PUSH1 0x1 SLOAD DUP2 JUMP JUMPDEST PUSH1 0x5 PUSH1 0x0 DUP2 SLOAD DUP1 SWAP3 SWAP2 SWAP1 PUSH2 0x4CF SWAP1 PUSH2 0x741 JUMP JUMPDEST SWAP2 SWAP1 POP SSTORE POP JUMP JUMPDEST PUSH1 0x0 DUP2 SWAP1 POP SWAP2 SWAP1 POP JUMP JUMPDEST PUSH2 0x4E9 DUP2 PUSH2 0x4D6 JUMP JUMPDEST DUP3 MSTORE POP POP JUMP JUMPDEST PUSH1 0x0 PUSH1 0x20 DUP3 ADD SWAP1 POP PUSH2 0x504 PUSH1 0x0 DUP4 ADD DUP5 PUSH2 0x4E0 JUMP JUMPDEST SWAP3 SWAP2 POP POP JUMP JUMPDEST PUSH1 0x0 DUP1 REVERT JUMPDEST PUSH2 0x518 DUP2 PUSH2 0x4D6 JUMP JUMPDEST DUP2 EQ PUSH2 0x523 JUMPI PUSH1 0x0 DUP1 REVERT JUMPDEST POP JUMP JUMPDEST PUSH1 0x0 DUP2 CALLDATALOAD SWAP1 POP PUSH2 0x535 DUP2 PUSH2 0x50F JUMP JUMPDEST SWAP3 SWAP2 POP POP JUMP JUMPDEST PUSH1 0x0 PUSH1 0x20 DUP3 DUP5 SUB SLT ISZERO PUSH2 0x551 JUMPI PUSH2 0x550 PUSH2 0x50A JUMP JUMPDEST JUMPDEST PUSH1 0x0 PUSH2 0x55F DUP5 DUP3 DUP6 ADD PUSH2 0x526 JUMP JUMPDEST SWAP2 POP POP SWAP3 SWAP2 POP POP JUMP JUMPDEST PUSH1 0x0 PUSH20 0xFFFFFFFFFFFFFFFFFFFFFFFFFFFFFFFFFFFFFFFF DUP3 AND SWAP1 POP SWAP2 SWAP1 POP JUMP JUMPDEST PUSH1 0x0 PUSH2 0x593 DUP3 PUSH2 0x568 JUMP JUMPDEST SWAP1 POP SWAP2 SWAP1 POP JUMP JUMPDEST PUSH2 0x5A3 DUP2 PUSH2 0x588 JUMP JUMPDEST DUP3 MSTORE POP POP JUMP JUMPDEST PUSH1 0x0 PUSH1 0x20 DUP3 ADD SWAP1 POP PUSH2 0x5BE PUSH1 0x0 DUP4 ADD DUP5 PUSH2 0x59A JUMP JUMPDEST SWAP3 SWAP2 POP POP JUMP JUMPDEST PUSH1 0x0 PUSH1 0x40 DUP3 ADD SWAP1 POP PUSH2 0x5D9 PUSH1 0x0 DUP4 ADD DUP6 PUSH2 0x59A JUMP JUMPDEST PUSH2 0x5E6 PUSH1 0x20 DUP4 ADD DUP5 PUSH2 0x4E0 JUMP JUMPDEST SWAP4 SWAP3 POP POP POP JUMP JUMPDEST PUSH1 0x0 PUSH2 0x5F8 DUP3 PUSH2 0x568 JUMP JUMPDEST SWAP1 POP SWAP2 SWAP1 POP JUMP JUMPDEST PUSH2 0x608 DUP2 PUSH2 0x5ED JUMP JUMPDEST DUP3 MSTORE POP POP JUMP JUMPDEST PUSH1 0x0 PUSH1 0x20 DUP3 ADD SWAP1 POP PUSH2 0x623 PUSH1 0x0 DUP4 ADD DUP5 PUSH2 0x5FF JUMP JUMPDEST SWAP3 SWAP2 POP POP JUMP JUMPDEST PUSH1 0x0 DUP3 DUP3 MSTORE PUSH1 0x20 DUP3 ADD SWAP1 POP SWAP3 SWAP2 POP POP JUMP JUMPDEST PUSH32 0x4E6F7420656E6F75676820746F6B656E00000000000000000000000000000000 PUSH1 0x0 DUP3 ADD MSTORE POP JUMP JUMPDEST PUSH1 0x0 PUSH2 0x670 PUSH1 0x10 DUP4 PUSH2 0x629 JUMP JUMPDEST SWAP2 POP PUSH2 0x67B DUP3 PUSH2 0x63A JUMP JUMPDEST PUSH1 0x20 DUP3 ADD SWAP1 POP SWAP2 SWAP1 POP JUMP JUMPDEST PUSH1 0x0 PUSH1 0x20 DUP3 ADD SWAP1 POP DUP2 DUP2 SUB PUSH1 0x0 DUP4 ADD MSTORE PUSH2 0x69F DUP2 PUSH2 0x663 JUMP JUMPDEST SWAP1 POP SWAP2 SWAP1 POP JUMP JUMPDEST PUSH32 0x4E756D626572207469636B6574206F7574206F662072616E6765000000000000 PUSH1 0x0 DUP3 ADD MSTORE POP JUMP JUMPDEST PUSH1 0x0 PUSH2 0x6DC PUSH1 0x1A DUP4 PUSH2 0x629 JUMP JUMPDEST SWAP2 POP PUSH2 0x6E7 DUP3 PUSH2 0x6A6 JUMP JUMPDEST PUSH1 0x20 DUP3 ADD SWAP1 POP SWAP2 SWAP1 POP JUMP JUMPDEST PUSH1 0x0 PUSH1 0x20 DUP3 ADD SWAP1 POP DUP2 DUP2 SUB PUSH1 0x0 DUP4 ADD MSTORE PUSH2 0x70B DUP2 PUSH2 0x6CF JUMP JUMPDEST SWAP1 POP SWAP2 SWAP1 POP JUMP JUMPDEST PUSH32 0x4E487B7100000000000000000000000000000000000000000000000000000000 PUSH1 0x0 MSTORE PUSH1 0x11 PUSH1 0x4 MSTORE PUSH1 0x24 PUSH1 0x0 REVERT JUMPDEST PUSH1 0x0 PUSH2 0x74C DUP3 PUSH2 0x4D6 JUMP JUMPDEST SWAP2 POP PUSH32 0xFFFFFFFFFFFFFFFFFFFFFFFFFFFFFFFFFFFFFFFFFFFFFFFFFFFFFFFFFFFFFFFF DUP3 SUB PUSH2 0x77E JUMPI PUSH2 0x77D PUSH2 0x712 JUMP JUMPDEST JUMPDEST PUSH1 0x1 DUP3 ADD SWAP1 POP SWAP2 SWAP1 POP JUMP INVALID LOG2 PUSH5 0x6970667358 0x22 SLT KECCAK256 0x4B 0xD2 0xA8 PUSH17 0xA3196B10FE3DF5F781DADAB44CCF5FFB30 0xE5 0xC5 0x22 PUSH24 0xF06DF3BB28599B64736F6C634300080F0033000000000000 "
				},
				"gasEstimates": {
					"creation": {
						"codeDepositCost": "396600",
						"executionCost": "5436",
						"totalCost": "402036"
					},
					"external": {
						"enter(uint256)": "infinite",
						"getBalance()": "340",
						"getNumberPlayer()": "2459",
						"getPlayers(uint256)": "infinite",
						"getWinnerByLottery(uint256)": "2888",
						"lotteryHistory(uint256)": "2839",
						"lotteryId()": "2517",
						"owner()": "2555",
						"randomResult()": "2474"
					},
					"internal": {
						"increasePlayerCount()": "24366"
					}
				},
				"methodIdentifiers": {
					"enter(uint256)": "a59f3e0c",
					"getBalance()": "12065fe0",
					"getNumberPlayer()": "7128501f",
					"getPlayers(uint256)": "460e2049",
					"getWinnerByLottery(uint256)": "281d098d",
					"lotteryHistory(uint256)": "6d6fe230",
					"lotteryId()": "e580f47b",
					"owner()": "8da5cb5b",
					"randomResult()": "42619f66"
				}
			},
			"storageLayout": {
				"storage": [
					{
						"astId": 705,
						"contract": "contracts/Lottery.sol:Lottery",
						"label": "owner",
						"offset": 0,
						"slot": "0",
						"type": "t_address"
					},
					{
						"astId": 707,
						"contract": "contracts/Lottery.sol:Lottery",
						"label": "lotteryId",
						"offset": 0,
						"slot": "1",
						"type": "t_uint256"
					},
					{
						"astId": 711,
						"contract": "contracts/Lottery.sol:Lottery",
						"label": "lotteryHistory",
						"offset": 0,
						"slot": "2",
						"type": "t_mapping(t_uint256,t_address_payable)"
					},
					{
						"astId": 720,
						"contract": "contracts/Lottery.sol:Lottery",
						"label": "groupTicket",
						"offset": 0,
						"slot": "3",
						"type": "t_mapping(t_uint256,t_struct(ListNumberTicket)715_storage)"
					},
					{
						"astId": 730,
						"contract": "contracts/Lottery.sol:Lottery",
						"label": "allLottery",
						"offset": 0,
						"slot": "4",
						"type": "t_mapping(t_uint256,t_struct(Participants)725_storage)"
					},
					{
						"astId": 733,
						"contract": "contracts/Lottery.sol:Lottery",
						"label": "playerCount",
						"offset": 0,
						"slot": "5",
						"type": "t_uint256"
					},
					{
						"astId": 735,
						"contract": "contracts/Lottery.sol:Lottery",
						"label": "keyHash",
						"offset": 0,
						"slot": "6",
						"type": "t_bytes32"
					},
					{
						"astId": 737,
						"contract": "contracts/Lottery.sol:Lottery",
						"label": "fee",
						"offset": 0,
						"slot": "7",
						"type": "t_uint256"
					},
					{
						"astId": 739,
						"contract": "contracts/Lottery.sol:Lottery",
						"label": "randomResult",
						"offset": 0,
						"slot": "8",
						"type": "t_uint256"
					}
				],
				"types": {
					"t_address": {
						"encoding": "inplace",
						"label": "address",
						"numberOfBytes": "20"
					},
					"t_address_payable": {
						"encoding": "inplace",
						"label": "address payable",
						"numberOfBytes": "20"
					},
					"t_array(t_address_payable)dyn_storage": {
						"base": "t_address_payable",
						"encoding": "dynamic_array",
						"label": "address payable[]",
						"numberOfBytes": "32"
					},
					"t_bytes32": {
						"encoding": "inplace",
						"label": "bytes32",
						"numberOfBytes": "32"
					},
					"t_mapping(t_uint256,t_address_payable)": {
						"encoding": "mapping",
						"key": "t_uint256",
						"label": "mapping(uint256 => address payable)",
						"numberOfBytes": "32",
						"value": "t_address_payable"
					},
					"t_mapping(t_uint256,t_struct(ListNumberTicket)715_storage)": {
						"encoding": "mapping",
						"key": "t_uint256",
						"label": "mapping(uint256 => struct Lottery.ListNumberTicket)",
						"numberOfBytes": "32",
						"value": "t_struct(ListNumberTicket)715_storage"
					},
					"t_mapping(t_uint256,t_struct(Participants)725_storage)": {
						"encoding": "mapping",
						"key": "t_uint256",
						"label": "mapping(uint256 => struct Lottery.Participants)",
						"numberOfBytes": "32",
						"value": "t_struct(Participants)725_storage"
					},
					"t_struct(ListNumberTicket)715_storage": {
						"encoding": "inplace",
						"label": "struct Lottery.ListNumberTicket",
						"members": [
							{
								"astId": 714,
								"contract": "contracts/Lottery.sol:Lottery",
								"label": "groupPlayer",
								"offset": 0,
								"slot": "0",
								"type": "t_array(t_address_payable)dyn_storage"
							}
						],
						"numberOfBytes": "32"
					},
					"t_struct(Participants)725_storage": {
						"encoding": "inplace",
						"label": "struct Lottery.Participants",
						"members": [
							{
								"astId": 722,
								"contract": "contracts/Lottery.sol:Lottery",
								"label": "player",
								"offset": 0,
								"slot": "0",
								"type": "t_address_payable"
							},
							{
								"astId": 724,
								"contract": "contracts/Lottery.sol:Lottery",
								"label": "numTicket",
								"offset": 0,
								"slot": "1",
								"type": "t_uint256"
							}
						],
						"numberOfBytes": "64"
					},
					"t_uint256": {
						"encoding": "inplace",
						"label": "uint256",
						"numberOfBytes": "32"
					}
				}
			},
			"userdoc": {
				"kind": "user",
				"methods": {},
				"version": 1
			}
		}
	}
}