{
	"contracts/Lottery.sol": {
		"Lottery": {
			"abi": [
				{
					"inputs": [
						{
							"internalType": "address",
							"name": "have",
							"type": "address"
						},
						{
							"internalType": "address",
							"name": "want",
							"type": "address"
						}
					],
					"name": "OnlyCoordinatorCanFulfill",
					"type": "error"
				},
				{
					"inputs": [],
					"name": "closeLottery",
					"outputs": [],
					"stateMutability": "nonpayable",
					"type": "function"
				},
				{
					"inputs": [
						{
							"internalType": "uint256",
							"name": "_numTicket",
							"type": "uint256"
						}
					],
					"name": "enter",
					"outputs": [],
					"stateMutability": "payable",
					"type": "function"
				},
				{
					"inputs": [],
					"name": "getAmountPlayer",
					"outputs": [
						{
							"internalType": "uint256",
							"name": "",
							"type": "uint256"
						}
					],
					"stateMutability": "view",
					"type": "function"
				},
				{
					"inputs": [],
					"name": "getBalance",
					"outputs": [
						{
							"internalType": "uint256",
							"name": "",
							"type": "uint256"
						}
					],
					"stateMutability": "view",
					"type": "function"
				},
				{
					"inputs": [],
					"name": "getListWinner",
					"outputs": [
						{
							"internalType": "address",
							"name": "",
							"type": "address"
						}
					],
					"stateMutability": "view",
					"type": "function"
				},
				{
					"inputs": [
						{
							"internalType": "uint256",
							"name": "_index",
							"type": "uint256"
						}
					],
					"name": "getPlayers",
					"outputs": [
						{
							"internalType": "address payable",
							"name": "",
							"type": "address"
						},
						{
							"internalType": "uint256",
							"name": "",
							"type": "uint256"
						}
					],
					"stateMutability": "view",
					"type": "function"
				},
				{
					"inputs": [
						{
							"internalType": "uint256",
							"name": "lottery",
							"type": "uint256"
						}
					],
					"name": "getWinnerByLottery",
					"outputs": [
						{
							"internalType": "address payable",
							"name": "",
							"type": "address"
						}
					],
					"stateMutability": "view",
					"type": "function"
				},
				{
					"inputs": [
						{
							"internalType": "uint256",
							"name": "",
							"type": "uint256"
						}
					],
					"name": "lotteryHistory",
					"outputs": [
						{
							"internalType": "address payable",
							"name": "",
							"type": "address"
						}
					],
					"stateMutability": "view",
					"type": "function"
				},
				{
					"inputs": [],
					"name": "lotteryId",
					"outputs": [
						{
							"internalType": "uint256",
							"name": "",
							"type": "uint256"
						}
					],
					"stateMutability": "view",
					"type": "function"
				},
				{
					"inputs": [
						{
							"internalType": "uint256",
							"name": "requestId",
							"type": "uint256"
						},
						{
							"internalType": "uint256[]",
							"name": "randomWords",
							"type": "uint256[]"
						}
					],
					"name": "rawFulfillRandomWords",
					"outputs": [],
					"stateMutability": "nonpayable",
					"type": "function"
				},
				{
					"inputs": [
						{
							"internalType": "uint256",
							"name": "",
							"type": "uint256"
						}
					],
					"name": "s_randomWords",
					"outputs": [
						{
							"internalType": "uint256",
							"name": "",
							"type": "uint256"
						}
					],
					"stateMutability": "view",
					"type": "function"
				},
				{
					"inputs": [],
					"name": "s_requestId",
					"outputs": [
						{
							"internalType": "uint256",
							"name": "",
							"type": "uint256"
						}
					],
					"stateMutability": "view",
					"type": "function"
				}
			],
			"devdoc": {
				"kind": "dev",
				"methods": {},
				"version": 1
			},
			"evm": {
				"assembly": "    /* \"contracts/Lottery.sol\":426:4337  contract Lottery is VRFConsumerBaseV2(0x6168499c0cFfCaCD319c818142124B7A15E857ab) {... */\n  mstore(0x40, 0xa0)\n    /* \"contracts/Lottery.sol\":1015:1021  100000 */\n  0x0186a0\n    /* \"contracts/Lottery.sol\":989:1021  uint32 callbackGasLimit = 100000 */\n  0x00\n  dup1\n  0x0100\n  exp\n  dup2\n  sload\n  dup2\n  0xffffffff\n  mul\n  not\n  and\n  swap1\n  dup4\n  0xffffffff\n  and\n  mul\n  or\n  swap1\n  sstore\n  pop\n    /* \"contracts/Lottery.sol\":1112:1113  3 */\n  0x03\n    /* \"contracts/Lottery.sol\":1082:1113  uint16 requestConfirmations = 3 */\n  0x00\n  exp(0x0100, 0x04)\n  dup2\n  sload\n  dup2\n  0xffff\n  mul\n  not\n  and\n  swap1\n  dup4\n  0xffff\n  and\n  mul\n  or\n  swap1\n  sstore\n  pop\n    /* \"contracts/Lottery.sol\":1258:1259  2 */\n  0x02\n    /* \"contracts/Lottery.sol\":1239:1259  uint32 numWords =  2 */\n  0x00\n  exp(0x0100, 0x06)\n  dup2\n  sload\n  dup2\n  0xffffffff\n  mul\n  not\n  and\n  swap1\n  dup4\n  0xffffffff\n  and\n  mul\n  or\n  swap1\n  sstore\n  pop\n    /* \"contracts/Lottery.sol\":1352:1362  msg.sender */\n  caller\n    /* \"contracts/Lottery.sol\":1334:1362  address s_owner = msg.sender */\n  0x03\n  exp(0x0100, 0x00)\n  dup2\n  sload\n  dup2\n  0xffffffffffffffffffffffffffffffffffffffff\n  mul\n  not\n  and\n  swap1\n  dup4\n  0xffffffffffffffffffffffffffffffffffffffff\n  and\n  mul\n  or\n  swap1\n  sstore\n  pop\n    /* \"contracts/Lottery.sol\":1773:1774  0 */\n  0x00\n    /* \"contracts/Lottery.sol\":1745:1774  uint internal playerCount = 0 */\n  0x08\n  sstore\n    /* \"contracts/Lottery.sol\":426:4337  contract Lottery is VRFConsumerBaseV2(0x6168499c0cFfCaCD319c818142124B7A15E857ab) {... */\n  callvalue\n  dup1\n  iszero\n  tag_1\n  jumpi\n  0x00\n  dup1\n  revert\ntag_1:\n  pop\n    /* \"contracts/Lottery.sol\":464:506  0x6168499c0cFfCaCD319c818142124B7A15E857ab */\n  0x6168499c0cffcacd319c818142124b7a15e857ab\n    /* \"@chainlink/contracts/src/v0.8/VRFConsumerBaseV2.sol\":5616:5631  _vrfCoordinator */\n  dup1\n    /* \"@chainlink/contracts/src/v0.8/VRFConsumerBaseV2.sol\":5599:5631  vrfCoordinator = _vrfCoordinator */\n  0xffffffffffffffffffffffffffffffffffffffff\n  and\n  0x80\n  dup2\n  0xffffffffffffffffffffffffffffffffffffffff\n  and\n  dup2\n  mstore\n  pop\n  pop\n    /* \"@chainlink/contracts/src/v0.8/VRFConsumerBaseV2.sol\":5556:5636  constructor(address _vrfCoordinator) {... */\n  pop\n    /* \"contracts/Lottery.sol\":426:4337  contract Lottery is VRFConsumerBaseV2(0x6168499c0cFfCaCD319c818142124B7A15E857ab) {... */\n  mload(0x80)\n  codecopy(0x00, dataOffset(sub_0), dataSize(sub_0))\n  0x00\n  assignImmutable(\"0x1a192fabce13988b84994d4296e6cdc418d55e2f1d7f942188d4040b94fc57ac\")\n  return(0x00, dataSize(sub_0))\nstop\n\nsub_0: assembly {\n        /* \"contracts/Lottery.sol\":426:4337  contract Lottery is VRFConsumerBaseV2(0x6168499c0cFfCaCD319c818142124B7A15E857ab) {... */\n      mstore(0x40, 0x80)\n      jumpi(tag_1, lt(calldatasize, 0x04))\n      shr(0xe0, calldataload(0x00))\n      dup1\n      0x6fd09816\n      gt\n      tag_14\n      jumpi\n      dup1\n      0x6fd09816\n      eq\n      tag_8\n      jumpi\n      dup1\n      0x94957985\n      eq\n      tag_9\n      jumpi\n      dup1\n      0xa59f3e0c\n      eq\n      tag_10\n      jumpi\n      dup1\n      0xe580f47b\n      eq\n      tag_11\n      jumpi\n      dup1\n      0xe89e106a\n      eq\n      tag_12\n      jumpi\n      dup1\n      0xf6eaffc8\n      eq\n      tag_13\n      jumpi\n      jump(tag_1)\n    tag_14:\n      dup1\n      0x12065fe0\n      eq\n      tag_2\n      jumpi\n      dup1\n      0x1fe543e3\n      eq\n      tag_3\n      jumpi\n      dup1\n      0x281d098d\n      eq\n      tag_4\n      jumpi\n      dup1\n      0x32eb85a4\n      eq\n      tag_5\n      jumpi\n      dup1\n      0x460e2049\n      eq\n      tag_6\n      jumpi\n      dup1\n      0x6d6fe230\n      eq\n      tag_7\n      jumpi\n    tag_1:\n      0x00\n      dup1\n      revert\n        /* \"contracts/Lottery.sol\":2049:2131  function getBalance() public view returns (uint) {... */\n    tag_2:\n      callvalue\n      dup1\n      iszero\n      tag_15\n      jumpi\n      0x00\n      dup1\n      revert\n    tag_15:\n      pop\n      tag_16\n      tag_17\n      jump\t// in\n    tag_16:\n      mload(0x40)\n      tag_18\n      swap2\n      swap1\n      tag_19\n      jump\t// in\n    tag_18:\n      mload(0x40)\n      dup1\n      swap2\n      sub\n      swap1\n      return\n        /* \"@chainlink/contracts/src/v0.8/VRFConsumerBaseV2.sol\":6618:6874  function rawFulfillRandomWords(uint256 requestId, uint256[] memory randomWords) external {... */\n    tag_3:\n      callvalue\n      dup1\n      iszero\n      tag_20\n      jumpi\n      0x00\n      dup1\n      revert\n    tag_20:\n      pop\n      tag_21\n      0x04\n      dup1\n      calldatasize\n      sub\n      dup2\n      add\n      swap1\n      tag_22\n      swap2\n      swap1\n      tag_23\n      jump\t// in\n    tag_22:\n      tag_24\n      jump\t// in\n    tag_21:\n      stop\n        /* \"contracts/Lottery.sol\":1916:2043  function getWinnerByLottery(uint lottery) public view returns (address payable) {... */\n    tag_4:\n      callvalue\n      dup1\n      iszero\n      tag_25\n      jumpi\n      0x00\n      dup1\n      revert\n    tag_25:\n      pop\n      tag_26\n      0x04\n      dup1\n      calldatasize\n      sub\n      dup2\n      add\n      swap1\n      tag_27\n      swap2\n      swap1\n      tag_28\n      jump\t// in\n    tag_27:\n      tag_29\n      jump\t// in\n    tag_26:\n      mload(0x40)\n      tag_30\n      swap2\n      swap1\n      tag_31\n      jump\t// in\n    tag_30:\n      mload(0x40)\n      dup1\n      swap2\n      sub\n      swap1\n      return\n        /* \"contracts/Lottery.sol\":2387:2475  function getAmountPlayer() public view returns (uint){... */\n    tag_5:\n      callvalue\n      dup1\n      iszero\n      tag_32\n      jumpi\n      0x00\n      dup1\n      revert\n    tag_32:\n      pop\n      tag_33\n      tag_34\n      jump\t// in\n    tag_33:\n      mload(0x40)\n      tag_35\n      swap2\n      swap1\n      tag_19\n      jump\t// in\n    tag_35:\n      mload(0x40)\n      dup1\n      swap2\n      sub\n      swap1\n      return\n        /* \"contracts/Lottery.sol\":2137:2377  function getPlayers(uint _index) public view returns (address payable, uint) {... */\n    tag_6:\n      callvalue\n      dup1\n      iszero\n      tag_36\n      jumpi\n      0x00\n      dup1\n      revert\n    tag_36:\n      pop\n      tag_37\n      0x04\n      dup1\n      calldatasize\n      sub\n      dup2\n      add\n      swap1\n      tag_38\n      swap2\n      swap1\n      tag_28\n      jump\t// in\n    tag_38:\n      tag_39\n      jump\t// in\n    tag_37:\n      mload(0x40)\n      tag_40\n      swap3\n      swap2\n      swap1\n      tag_41\n      jump\t// in\n    tag_40:\n      mload(0x40)\n      dup1\n      swap2\n      sub\n      swap1\n      return\n        /* \"contracts/Lottery.sol\":1400:1455  mapping (uint => address payable) public lotteryHistory */\n    tag_7:\n      callvalue\n      dup1\n      iszero\n      tag_42\n      jumpi\n      0x00\n      dup1\n      revert\n    tag_42:\n      pop\n      tag_43\n      0x04\n      dup1\n      calldatasize\n      sub\n      dup2\n      add\n      swap1\n      tag_44\n      swap2\n      swap1\n      tag_28\n      jump\t// in\n    tag_44:\n      tag_45\n      jump\t// in\n    tag_43:\n      mload(0x40)\n      tag_46\n      swap2\n      swap1\n      tag_31\n      jump\t// in\n    tag_46:\n      mload(0x40)\n      dup1\n      swap2\n      sub\n      swap1\n      return\n        /* \"contracts/Lottery.sol\":3923:4092  function closeLottery() external onlyOwner{... */\n    tag_8:\n      callvalue\n      dup1\n      iszero\n      tag_47\n      jumpi\n      0x00\n      dup1\n      revert\n    tag_47:\n      pop\n      tag_48\n      tag_49\n      jump\t// in\n    tag_48:\n      stop\n        /* \"contracts/Lottery.sol\":4102:4171  function getListWinner() public view returns(address){... */\n    tag_9:\n      callvalue\n      dup1\n      iszero\n      tag_50\n      jumpi\n      0x00\n      dup1\n      revert\n    tag_50:\n      pop\n      tag_51\n      tag_52\n      jump\t// in\n    tag_51:\n      mload(0x40)\n      tag_53\n      swap2\n      swap1\n      tag_54\n      jump\t// in\n    tag_53:\n      mload(0x40)\n      dup1\n      swap2\n      sub\n      swap1\n      return\n        /* \"contracts/Lottery.sol\":2480:3029  function enter(uint _numTicket) public payable {... */\n    tag_10:\n      tag_55\n      0x04\n      dup1\n      calldatasize\n      sub\n      dup2\n      add\n      swap1\n      tag_56\n      swap2\n      swap1\n      tag_28\n      jump\t// in\n    tag_56:\n      tag_57\n      jump\t// in\n    tag_55:\n      stop\n        /* \"contracts/Lottery.sol\":1373:1394  uint public lotteryId */\n    tag_11:\n      callvalue\n      dup1\n      iszero\n      tag_58\n      jumpi\n      0x00\n      dup1\n      revert\n    tag_58:\n      pop\n      tag_59\n      tag_60\n      jump\t// in\n    tag_59:\n      mload(0x40)\n      tag_61\n      swap2\n      swap1\n      tag_19\n      jump\t// in\n    tag_61:\n      mload(0x40)\n      dup1\n      swap2\n      sub\n      swap1\n      return\n        /* \"contracts/Lottery.sol\":1302:1328  uint256 public s_requestId */\n    tag_12:\n      callvalue\n      dup1\n      iszero\n      tag_62\n      jumpi\n      0x00\n      dup1\n      revert\n    tag_62:\n      pop\n      tag_63\n      tag_64\n      jump\t// in\n    tag_63:\n      mload(0x40)\n      tag_65\n      swap2\n      swap1\n      tag_19\n      jump\t// in\n    tag_65:\n      mload(0x40)\n      dup1\n      swap2\n      sub\n      swap1\n      return\n        /* \"contracts/Lottery.sol\":1266:1296  uint256[] public s_randomWords */\n    tag_13:\n      callvalue\n      dup1\n      iszero\n      tag_66\n      jumpi\n      0x00\n      dup1\n      revert\n    tag_66:\n      pop\n      tag_67\n      0x04\n      dup1\n      calldatasize\n      sub\n      dup2\n      add\n      swap1\n      tag_68\n      swap2\n      swap1\n      tag_28\n      jump\t// in\n    tag_68:\n      tag_69\n      jump\t// in\n    tag_67:\n      mload(0x40)\n      tag_70\n      swap2\n      swap1\n      tag_19\n      jump\t// in\n    tag_70:\n      mload(0x40)\n      dup1\n      swap2\n      sub\n      swap1\n      return\n        /* \"contracts/Lottery.sol\":2049:2131  function getBalance() public view returns (uint) {... */\n    tag_17:\n        /* \"contracts/Lottery.sol\":2092:2096  uint */\n      0x00\n        /* \"contracts/Lottery.sol\":2115:2124  prizePool */\n      sload(0x09)\n        /* \"contracts/Lottery.sol\":2108:2124  return prizePool */\n      swap1\n      pop\n        /* \"contracts/Lottery.sol\":2049:2131  function getBalance() public view returns (uint) {... */\n      swap1\n      jump\t// out\n        /* \"@chainlink/contracts/src/v0.8/VRFConsumerBaseV2.sol\":6618:6874  function rawFulfillRandomWords(uint256 requestId, uint256[] memory randomWords) external {... */\n    tag_24:\n        /* \"@chainlink/contracts/src/v0.8/VRFConsumerBaseV2.sol\":6731:6745  vrfCoordinator */\n      immutable(\"0x1a192fabce13988b84994d4296e6cdc418d55e2f1d7f942188d4040b94fc57ac\")\n        /* \"@chainlink/contracts/src/v0.8/VRFConsumerBaseV2.sol\":6717:6745  msg.sender != vrfCoordinator */\n      0xffffffffffffffffffffffffffffffffffffffff\n      and\n        /* \"@chainlink/contracts/src/v0.8/VRFConsumerBaseV2.sol\":6717:6727  msg.sender */\n      caller\n        /* \"@chainlink/contracts/src/v0.8/VRFConsumerBaseV2.sol\":6717:6745  msg.sender != vrfCoordinator */\n      0xffffffffffffffffffffffffffffffffffffffff\n      and\n      eq\n        /* \"@chainlink/contracts/src/v0.8/VRFConsumerBaseV2.sol\":6713:6822  if (msg.sender != vrfCoordinator) {... */\n      tag_73\n      jumpi\n        /* \"@chainlink/contracts/src/v0.8/VRFConsumerBaseV2.sol\":6788:6798  msg.sender */\n      caller\n        /* \"@chainlink/contracts/src/v0.8/VRFConsumerBaseV2.sol\":6800:6814  vrfCoordinator */\n      immutable(\"0x1a192fabce13988b84994d4296e6cdc418d55e2f1d7f942188d4040b94fc57ac\")\n        /* \"@chainlink/contracts/src/v0.8/VRFConsumerBaseV2.sol\":6762:6815  OnlyCoordinatorCanFulfill(msg.sender, vrfCoordinator) */\n      mload(0x40)\n      0x1cf993f400000000000000000000000000000000000000000000000000000000\n      dup2\n      mstore\n      0x04\n      add\n      tag_74\n      swap3\n      swap2\n      swap1\n      tag_75\n      jump\t// in\n    tag_74:\n      mload(0x40)\n      dup1\n      swap2\n      sub\n      swap1\n      revert\n        /* \"@chainlink/contracts/src/v0.8/VRFConsumerBaseV2.sol\":6713:6822  if (msg.sender != vrfCoordinator) {... */\n    tag_73:\n        /* \"@chainlink/contracts/src/v0.8/VRFConsumerBaseV2.sol\":6827:6869  fulfillRandomWords(requestId, randomWords) */\n      tag_76\n        /* \"@chainlink/contracts/src/v0.8/VRFConsumerBaseV2.sol\":6846:6855  requestId */\n      dup3\n        /* \"@chainlink/contracts/src/v0.8/VRFConsumerBaseV2.sol\":6857:6868  randomWords */\n      dup3\n        /* \"@chainlink/contracts/src/v0.8/VRFConsumerBaseV2.sol\":6827:6845  fulfillRandomWords */\n      tag_77\n        /* \"@chainlink/contracts/src/v0.8/VRFConsumerBaseV2.sol\":6827:6869  fulfillRandomWords(requestId, randomWords) */\n      jump\t// in\n    tag_76:\n        /* \"@chainlink/contracts/src/v0.8/VRFConsumerBaseV2.sol\":6618:6874  function rawFulfillRandomWords(uint256 requestId, uint256[] memory randomWords) external {... */\n      pop\n      pop\n      jump\t// out\n        /* \"contracts/Lottery.sol\":1916:2043  function getWinnerByLottery(uint lottery) public view returns (address payable) {... */\n    tag_29:\n        /* \"contracts/Lottery.sol\":1979:1994  address payable */\n      0x00\n        /* \"contracts/Lottery.sol\":2013:2027  lotteryHistory */\n      0x05\n        /* \"contracts/Lottery.sol\":2013:2036  lotteryHistory[lottery] */\n      0x00\n        /* \"contracts/Lottery.sol\":2028:2035  lottery */\n      dup4\n        /* \"contracts/Lottery.sol\":2013:2036  lotteryHistory[lottery] */\n      dup2\n      mstore\n      0x20\n      add\n      swap1\n      dup2\n      mstore\n      0x20\n      add\n      0x00\n      keccak256\n      0x00\n      swap1\n      sload\n      swap1\n      0x0100\n      exp\n      swap1\n      div\n      0xffffffffffffffffffffffffffffffffffffffff\n      and\n        /* \"contracts/Lottery.sol\":2006:2036  return lotteryHistory[lottery] */\n      swap1\n      pop\n        /* \"contracts/Lottery.sol\":1916:2043  function getWinnerByLottery(uint lottery) public view returns (address payable) {... */\n      swap2\n      swap1\n      pop\n      jump\t// out\n        /* \"contracts/Lottery.sol\":2387:2475  function getAmountPlayer() public view returns (uint){... */\n    tag_34:\n        /* \"contracts/Lottery.sol\":2435:2439  uint */\n      0x00\n        /* \"contracts/Lottery.sol\":2457:2468  playerCount */\n      sload(0x08)\n        /* \"contracts/Lottery.sol\":2450:2468  return playerCount */\n      swap1\n      pop\n        /* \"contracts/Lottery.sol\":2387:2475  function getAmountPlayer() public view returns (uint){... */\n      swap1\n      jump\t// out\n        /* \"contracts/Lottery.sol\":2137:2377  function getPlayers(uint _index) public view returns (address payable, uint) {... */\n    tag_39:\n        /* \"contracts/Lottery.sol\":2191:2206  address payable */\n      0x00\n        /* \"contracts/Lottery.sol\":2208:2212  uint */\n      dup1\n        /* \"contracts/Lottery.sol\":2224:2256  Participants storage participant */\n      0x00\n        /* \"contracts/Lottery.sol\":2259:2269  allLottery */\n      0x07\n        /* \"contracts/Lottery.sol\":2259:2277  allLottery[_index] */\n      0x00\n        /* \"contracts/Lottery.sol\":2270:2276  _index */\n      dup6\n        /* \"contracts/Lottery.sol\":2259:2277  allLottery[_index] */\n      dup2\n      mstore\n      0x20\n      add\n      swap1\n      dup2\n      mstore\n      0x20\n      add\n      0x00\n      keccak256\n        /* \"contracts/Lottery.sol\":2224:2277  Participants storage participant = allLottery[_index] */\n      swap1\n      pop\n        /* \"contracts/Lottery.sol\":2307:2318  participant */\n      dup1\n        /* \"contracts/Lottery.sol\":2307:2325  participant.player */\n      0x00\n      add\n      0x00\n      swap1\n      sload\n      swap1\n      0x0100\n      exp\n      swap1\n      div\n      0xffffffffffffffffffffffffffffffffffffffff\n      and\n        /* \"contracts/Lottery.sol\":2339:2350  participant */\n      dup2\n        /* \"contracts/Lottery.sol\":2339:2360  participant.numTicket */\n      0x01\n      add\n      sload\n        /* \"contracts/Lottery.sol\":2287:2370  return(... */\n      swap3\n      pop\n      swap3\n      pop\n      pop\n        /* \"contracts/Lottery.sol\":2137:2377  function getPlayers(uint _index) public view returns (address payable, uint) {... */\n      swap2\n      pop\n      swap2\n      jump\t// out\n        /* \"contracts/Lottery.sol\":1400:1455  mapping (uint => address payable) public lotteryHistory */\n    tag_45:\n      mstore(0x20, 0x05)\n      dup1\n      0x00\n      mstore\n      keccak256(0x00, 0x40)\n      0x00\n      swap2\n      pop\n      sload\n      swap1\n      0x0100\n      exp\n      swap1\n      div\n      0xffffffffffffffffffffffffffffffffffffffff\n      and\n      dup2\n      jump\t// out\n        /* \"contracts/Lottery.sol\":3923:4092  function closeLottery() external onlyOwner{... */\n    tag_49:\n        /* \"contracts/Lottery.sol\":4311:4318  s_owner */\n      0x03\n      0x00\n      swap1\n      sload\n      swap1\n      0x0100\n      exp\n      swap1\n      div\n      0xffffffffffffffffffffffffffffffffffffffff\n      and\n        /* \"contracts/Lottery.sol\":4297:4318  msg.sender == s_owner */\n      0xffffffffffffffffffffffffffffffffffffffff\n      and\n        /* \"contracts/Lottery.sol\":4297:4307  msg.sender */\n      caller\n        /* \"contracts/Lottery.sol\":4297:4318  msg.sender == s_owner */\n      0xffffffffffffffffffffffffffffffffffffffff\n      and\n      eq\n        /* \"contracts/Lottery.sol\":4289:4319  require(msg.sender == s_owner) */\n      tag_82\n      jumpi\n      0x00\n      dup1\n      revert\n    tag_82:\n        /* \"contracts/Lottery.sol\":3975:3995  requestRandomWords() */\n      tag_84\n        /* \"contracts/Lottery.sol\":3975:3993  requestRandomWords */\n      tag_85\n        /* \"contracts/Lottery.sol\":3975:3995  requestRandomWords() */\n      jump\t// in\n    tag_84:\n        /* \"contracts/Lottery.sol\":4005:4024  uint256 winnerPrize */\n      0x00\n        /* \"contracts/Lottery.sol\":4040:4051  groupTicket */\n      0x06\n        /* \"contracts/Lottery.sol\":4040:4064  groupTicket[luckyNumber] */\n      0x00\n        /* \"contracts/Lottery.sol\":4052:4063  luckyNumber */\n      sload(0x0a)\n        /* \"contracts/Lottery.sol\":4040:4064  groupTicket[luckyNumber] */\n      dup2\n      mstore\n      0x20\n      add\n      swap1\n      dup2\n      mstore\n      0x20\n      add\n      0x00\n      keccak256\n        /* \"contracts/Lottery.sol\":4040:4076  groupTicket[luckyNumber].groupPlayer */\n      0x00\n      add\n        /* \"contracts/Lottery.sol\":4040:4083  groupTicket[luckyNumber].groupPlayer.length */\n      dup1\n      sload\n      swap1\n      pop\n        /* \"contracts/Lottery.sol\":4027:4036  prizePool */\n      sload(0x09)\n        /* \"contracts/Lottery.sol\":4027:4084  prizePool / (groupTicket[luckyNumber].groupPlayer.length) */\n      tag_86\n      swap2\n      swap1\n      tag_87\n      jump\t// in\n    tag_86:\n        /* \"contracts/Lottery.sol\":4005:4084  uint256 winnerPrize = prizePool / (groupTicket[luckyNumber].groupPlayer.length) */\n      swap1\n      pop\n        /* \"contracts/Lottery.sol\":3965:4092  {... */\n      pop\n        /* \"contracts/Lottery.sol\":3923:4092  function closeLottery() external onlyOwner{... */\n      jump\t// out\n        /* \"contracts/Lottery.sol\":4102:4171  function getListWinner() public view returns(address){... */\n    tag_52:\n        /* \"contracts/Lottery.sol\":4147:4154  address */\n      0x00\n        /* \"contracts/Lottery.sol\":4102:4171  function getListWinner() public view returns(address){... */\n      swap1\n      jump\t// out\n        /* \"contracts/Lottery.sol\":2480:3029  function enter(uint _numTicket) public payable {... */\n    tag_57:\n        /* \"contracts/Lottery.sol\":2557:2562  2 wei */\n      0x02\n        /* \"contracts/Lottery.sol\":2545:2554  msg.value */\n      callvalue\n        /* \"contracts/Lottery.sol\":2545:2562  msg.value > 2 wei */\n      gt\n        /* \"contracts/Lottery.sol\":2537:2583  require(msg.value > 2 wei, \"Not enough token\") */\n      tag_90\n      jumpi\n      mload(0x40)\n      0x08c379a000000000000000000000000000000000000000000000000000000000\n      dup2\n      mstore\n      0x04\n      add\n      tag_91\n      swap1\n      tag_92\n      jump\t// in\n    tag_91:\n      mload(0x40)\n      dup1\n      swap2\n      sub\n      swap1\n      revert\n    tag_90:\n        /* \"contracts/Lottery.sol\":2606:2615  msg.value */\n      callvalue\n        /* \"contracts/Lottery.sol\":2593:2602  prizePool */\n      0x09\n      0x00\n        /* \"contracts/Lottery.sol\":2593:2615  prizePool += msg.value */\n      dup3\n      dup3\n      sload\n      tag_93\n      swap2\n      swap1\n      tag_94\n      jump\t// in\n    tag_93:\n      swap3\n      pop\n      pop\n      dup2\n      swap1\n      sstore\n      pop\n        /* \"contracts/Lottery.sol\":2647:2648  1 */\n      0x01\n        /* \"contracts/Lottery.sol\":2633:2643  _numTicket */\n      dup2\n        /* \"contracts/Lottery.sol\":2633:2648  _numTicket >= 1 */\n      lt\n      iszero\n        /* \"contracts/Lottery.sol\":2633:2668  _numTicket >= 1 && _numTicket <= 10 */\n      dup1\n      iszero\n      tag_95\n      jumpi\n      pop\n        /* \"contracts/Lottery.sol\":2666:2668  10 */\n      0x0a\n        /* \"contracts/Lottery.sol\":2652:2662  _numTicket */\n      dup2\n        /* \"contracts/Lottery.sol\":2652:2668  _numTicket <= 10 */\n      gt\n      iszero\n        /* \"contracts/Lottery.sol\":2633:2668  _numTicket >= 1 && _numTicket <= 10 */\n    tag_95:\n        /* \"contracts/Lottery.sol\":2625:2699  require(_numTicket >= 1 && _numTicket <= 10, \"Number ticket out of range\") */\n      tag_96\n      jumpi\n      mload(0x40)\n      0x08c379a000000000000000000000000000000000000000000000000000000000\n      dup2\n      mstore\n      0x04\n      add\n      tag_97\n      swap1\n      tag_98\n      jump\t// in\n    tag_97:\n      mload(0x40)\n      dup1\n      swap2\n      sub\n      swap1\n      revert\n    tag_96:\n        /* \"contracts/Lottery.sol\":2709:2739  Participants storage newPlayer */\n      0x00\n        /* \"contracts/Lottery.sol\":2742:2752  allLottery */\n      0x07\n        /* \"contracts/Lottery.sol\":2742:2765  allLottery[playerCount] */\n      0x00\n        /* \"contracts/Lottery.sol\":2753:2764  playerCount */\n      sload(0x08)\n        /* \"contracts/Lottery.sol\":2742:2765  allLottery[playerCount] */\n      dup2\n      mstore\n      0x20\n      add\n      swap1\n      dup2\n      mstore\n      0x20\n      add\n      0x00\n      keccak256\n        /* \"contracts/Lottery.sol\":2709:2765  Participants storage newPlayer = allLottery[playerCount] */\n      swap1\n      pop\n        /* \"contracts/Lottery.sol\":2802:2812  msg.sender */\n      caller\n        /* \"contracts/Lottery.sol\":2775:2784  newPlayer */\n      dup2\n        /* \"contracts/Lottery.sol\":2775:2791  newPlayer.player */\n      0x00\n      add\n      0x00\n        /* \"contracts/Lottery.sol\":2775:2813  newPlayer.player = payable(msg.sender) */\n      0x0100\n      exp\n      dup2\n      sload\n      dup2\n      0xffffffffffffffffffffffffffffffffffffffff\n      mul\n      not\n      and\n      swap1\n      dup4\n      0xffffffffffffffffffffffffffffffffffffffff\n      and\n      mul\n      or\n      swap1\n      sstore\n      pop\n        /* \"contracts/Lottery.sol\":2845:2855  _numTicket */\n      dup2\n        /* \"contracts/Lottery.sol\":2823:2832  newPlayer */\n      dup2\n        /* \"contracts/Lottery.sol\":2823:2842  newPlayer.numTicket */\n      0x01\n      add\n        /* \"contracts/Lottery.sol\":2823:2855  newPlayer.numTicket = _numTicket */\n      dup2\n      swap1\n      sstore\n      pop\n        /* \"contracts/Lottery.sol\":2865:2899  ListNumberTicket storage addTicket */\n      0x00\n        /* \"contracts/Lottery.sol\":2902:2913  groupTicket */\n      0x06\n        /* \"contracts/Lottery.sol\":2902:2934  groupTicket[newPlayer.numTicket] */\n      0x00\n        /* \"contracts/Lottery.sol\":2914:2923  newPlayer */\n      dup4\n        /* \"contracts/Lottery.sol\":2914:2933  newPlayer.numTicket */\n      0x01\n      add\n      sload\n        /* \"contracts/Lottery.sol\":2902:2934  groupTicket[newPlayer.numTicket] */\n      dup2\n      mstore\n      0x20\n      add\n      swap1\n      dup2\n      mstore\n      0x20\n      add\n      0x00\n      keccak256\n        /* \"contracts/Lottery.sol\":2865:2934  ListNumberTicket storage addTicket = groupTicket[newPlayer.numTicket] */\n      swap1\n      pop\n        /* \"contracts/Lottery.sol\":2944:2953  addTicket */\n      dup1\n        /* \"contracts/Lottery.sol\":2944:2965  addTicket.groupPlayer */\n      0x00\n      add\n        /* \"contracts/Lottery.sol\":2979:2989  msg.sender */\n      caller\n        /* \"contracts/Lottery.sol\":2944:2991  addTicket.groupPlayer.push(payable(msg.sender)) */\n      swap1\n      dup1\n      0x01\n      dup2\n      sload\n      add\n      dup1\n      dup3\n      sstore\n      dup1\n      swap2\n      pop\n      pop\n      0x01\n      swap1\n      sub\n      swap1\n      0x00\n      mstore\n      keccak256(0x00, 0x20)\n      add\n      0x00\n      swap1\n      swap2\n      swap1\n      swap2\n      swap1\n      swap2\n      0x0100\n      exp\n      dup2\n      sload\n      dup2\n      0xffffffffffffffffffffffffffffffffffffffff\n      mul\n      not\n      and\n      swap1\n      dup4\n      0xffffffffffffffffffffffffffffffffffffffff\n      and\n      mul\n      or\n      swap1\n      sstore\n      pop\n        /* \"contracts/Lottery.sol\":3001:3022  increasePlayerCount() */\n      tag_100\n        /* \"contracts/Lottery.sol\":3001:3020  increasePlayerCount */\n      tag_101\n        /* \"contracts/Lottery.sol\":3001:3022  increasePlayerCount() */\n      jump\t// in\n    tag_100:\n        /* \"contracts/Lottery.sol\":2527:3029  {... */\n      pop\n      pop\n        /* \"contracts/Lottery.sol\":2480:3029  function enter(uint _numTicket) public payable {... */\n      pop\n      jump\t// out\n        /* \"contracts/Lottery.sol\":1373:1394  uint public lotteryId */\n    tag_60:\n      sload(0x04)\n      dup2\n      jump\t// out\n        /* \"contracts/Lottery.sol\":1302:1328  uint256 public s_requestId */\n    tag_64:\n      sload(0x02)\n      dup2\n      jump\t// out\n        /* \"contracts/Lottery.sol\":1266:1296  uint256[] public s_randomWords */\n    tag_69:\n      0x01\n      dup2\n      dup2\n      sload\n      dup2\n      lt\n      tag_102\n      jumpi\n      0x00\n      dup1\n      revert\n    tag_102:\n      swap1\n      0x00\n      mstore\n      keccak256(0x00, 0x20)\n      add\n      0x00\n      swap2\n      pop\n      swap1\n      pop\n      sload\n      dup2\n      jump\t// out\n        /* \"contracts/Lottery.sol\":3644:3811  function fulfillRandomWords(... */\n    tag_77:\n        /* \"contracts/Lottery.sol\":3793:3804  randomWords */\n      dup1\n        /* \"contracts/Lottery.sol\":3777:3790  s_randomWords */\n      0x01\n        /* \"contracts/Lottery.sol\":3777:3804  s_randomWords = randomWords */\n      swap1\n      dup1\n      mload\n      swap1\n      0x20\n      add\n      swap1\n      tag_105\n      swap3\n      swap2\n      swap1\n      tag_106\n      jump\t// in\n    tag_105:\n      pop\n        /* \"contracts/Lottery.sol\":3644:3811  function fulfillRandomWords(... */\n      pop\n      pop\n      jump\t// out\n        /* \"contracts/Lottery.sol\":3269:3638  function requestRandomWords() private onlyOwner {... */\n    tag_85:\n        /* \"contracts/Lottery.sol\":4311:4318  s_owner */\n      0x03\n      0x00\n      swap1\n      sload\n      swap1\n      0x0100\n      exp\n      swap1\n      div\n      0xffffffffffffffffffffffffffffffffffffffff\n      and\n        /* \"contracts/Lottery.sol\":4297:4318  msg.sender == s_owner */\n      0xffffffffffffffffffffffffffffffffffffffff\n      and\n        /* \"contracts/Lottery.sol\":4297:4307  msg.sender */\n      caller\n        /* \"contracts/Lottery.sol\":4297:4318  msg.sender == s_owner */\n      0xffffffffffffffffffffffffffffffffffffffff\n      and\n      eq\n        /* \"contracts/Lottery.sol\":4289:4319  require(msg.sender == s_owner) */\n      tag_108\n      jumpi\n      0x00\n      dup1\n      revert\n    tag_108:\n        /* \"contracts/Lottery.sol\":3563:3574  playerCount */\n      sload(0x08)\n        /* \"contracts/Lottery.sol\":594:636  0x6168499c0cFfCaCD319c818142124B7A15E857ab */\n      0x6168499c0cffcacd319c818142124b7a15e857ab\n        /* \"contracts/Lottery.sol\":3403:3433  COORDINATOR.requestRandomWords */\n      0xffffffffffffffffffffffffffffffffffffffff\n      and\n      0x5d3b1d30\n        /* \"contracts/Lottery.sol\":912:978  0xd89b2bf150e3b9e13446986e571fb9cab24b13cea0a43ea20a6049a85cc807cc */\n      0xd89b2bf150e3b9e13446986e571fb9cab24b13cea0a43ea20a6049a85cc807cc\n        /* \"contracts/Lottery.sol\":3443:3450  keyHash */\n      0x00\n      shl\n        /* \"contracts/Lottery.sol\":796:800  7370 */\n      0x1cca\n        /* \"contracts/Lottery.sol\":3486:3506  requestConfirmations */\n      0x00\n      0x04\n      swap1\n      sload\n      swap1\n      0x0100\n      exp\n      swap1\n      div\n      0xffff\n      and\n        /* \"contracts/Lottery.sol\":3516:3532  callbackGasLimit */\n      0x00\n      dup1\n      sload\n      swap1\n      0x0100\n      exp\n      swap1\n      div\n      0xffffffff\n      and\n        /* \"contracts/Lottery.sol\":3542:3550  numWords */\n      0x00\n      0x06\n      swap1\n      sload\n      swap1\n      0x0100\n      exp\n      swap1\n      div\n      0xffffffff\n      and\n        /* \"contracts/Lottery.sol\":3403:3560  COORDINATOR.requestRandomWords(... */\n      mload(0x40)\n      dup7\n      0xffffffff\n      and\n      0xe0\n      shl\n      dup2\n      mstore\n      0x04\n      add\n      tag_110\n      swap6\n      swap5\n      swap4\n      swap3\n      swap2\n      swap1\n      tag_111\n      jump\t// in\n    tag_110:\n      0x20\n      mload(0x40)\n      dup1\n      dup4\n      sub\n      dup2\n      0x00\n      dup8\n      gas\n      call\n      iszero\n      dup1\n      iszero\n      tag_113\n      jumpi\n      returndatasize\n      0x00\n      dup1\n      returndatacopy\n      revert(0x00, returndatasize)\n    tag_113:\n      pop\n      pop\n      pop\n      pop\n      mload(0x40)\n      returndatasize\n      not(0x1f)\n      0x1f\n      dup3\n      add\n      and\n      dup3\n      add\n      dup1\n      0x40\n      mstore\n      pop\n      dup2\n      add\n      swap1\n      tag_114\n      swap2\n      swap1\n      tag_115\n      jump\t// in\n    tag_114:\n        /* \"contracts/Lottery.sol\":3403:3574  COORDINATOR.requestRandomWords(... */\n      tag_116\n      swap2\n      swap1\n      tag_117\n      jump\t// in\n    tag_116:\n        /* \"contracts/Lottery.sol\":3389:3400  s_requestId */\n      0x02\n        /* \"contracts/Lottery.sol\":3389:3574  s_requestId = COORDINATOR.requestRandomWords(... */\n      dup2\n      swap1\n      sstore\n      pop\n        /* \"contracts/Lottery.sol\":3598:3608  allLottery */\n      0x07\n        /* \"contracts/Lottery.sol\":3598:3621  allLottery[s_requestId] */\n      0x00\n        /* \"contracts/Lottery.sol\":3609:3620  s_requestId */\n      sload(0x02)\n        /* \"contracts/Lottery.sol\":3598:3621  allLottery[s_requestId] */\n      dup2\n      mstore\n      0x20\n      add\n      swap1\n      dup2\n      mstore\n      0x20\n      add\n      0x00\n      keccak256\n        /* \"contracts/Lottery.sol\":3598:3631  allLottery[s_requestId].numTicket */\n      0x01\n      add\n      sload\n        /* \"contracts/Lottery.sol\":3584:3595  luckyNumber */\n      0x0a\n        /* \"contracts/Lottery.sol\":3584:3631  luckyNumber = allLottery[s_requestId].numTicket */\n      dup2\n      swap1\n      sstore\n      pop\n        /* \"contracts/Lottery.sol\":3269:3638  function requestRandomWords() private onlyOwner {... */\n      jump\t// out\n        /* \"contracts/Lottery.sol\":3040:3110  function increasePlayerCount() internal {... */\n    tag_101:\n        /* \"contracts/Lottery.sol\":3090:3101  playerCount */\n      0x08\n      0x00\n        /* \"contracts/Lottery.sol\":3090:3103  playerCount++ */\n      dup2\n      sload\n      dup1\n      swap3\n      swap2\n      swap1\n      tag_119\n      swap1\n      tag_120\n      jump\t// in\n    tag_119:\n      swap2\n      swap1\n      pop\n      sstore\n      pop\n        /* \"contracts/Lottery.sol\":3040:3110  function increasePlayerCount() internal {... */\n      jump\t// out\n    tag_106:\n      dup3\n      dup1\n      sload\n      dup3\n      dup3\n      sstore\n      swap1\n      0x00\n      mstore\n      keccak256(0x00, 0x20)\n      swap1\n      dup2\n      add\n      swap3\n      dup3\n      iszero\n      tag_121\n      jumpi\n      swap2\n      0x20\n      mul\n      dup3\n      add\n    tag_122:\n      dup3\n      dup2\n      gt\n      iszero\n      tag_123\n      jumpi\n      dup3\n      mload\n      dup3\n      sstore\n      swap2\n      0x20\n      add\n      swap2\n      swap1\n      0x01\n      add\n      swap1\n      jump(tag_122)\n    tag_123:\n    tag_121:\n      pop\n      swap1\n      pop\n      tag_124\n      swap2\n      swap1\n      tag_125\n      jump\t// in\n    tag_124:\n      pop\n      swap1\n      jump\t// out\n    tag_125:\n    tag_126:\n      dup1\n      dup3\n      gt\n      iszero\n      tag_127\n      jumpi\n      0x00\n      dup2\n      0x00\n      swap1\n      sstore\n      pop\n      0x01\n      add\n      jump(tag_126)\n    tag_127:\n      pop\n      swap1\n      jump\t// out\n        /* \"#utility.yul\":7:84   */\n    tag_128:\n        /* \"#utility.yul\":44:51   */\n      0x00\n        /* \"#utility.yul\":73:78   */\n      dup2\n        /* \"#utility.yul\":62:78   */\n      swap1\n      pop\n        /* \"#utility.yul\":7:84   */\n      swap2\n      swap1\n      pop\n      jump\t// out\n        /* \"#utility.yul\":90:208   */\n    tag_129:\n        /* \"#utility.yul\":177:201   */\n      tag_168\n        /* \"#utility.yul\":195:200   */\n      dup2\n        /* \"#utility.yul\":177:201   */\n      tag_128\n      jump\t// in\n    tag_168:\n        /* \"#utility.yul\":172:175   */\n      dup3\n        /* \"#utility.yul\":165:202   */\n      mstore\n        /* \"#utility.yul\":90:208   */\n      pop\n      pop\n      jump\t// out\n        /* \"#utility.yul\":214:436   */\n    tag_19:\n        /* \"#utility.yul\":307:311   */\n      0x00\n        /* \"#utility.yul\":345:347   */\n      0x20\n        /* \"#utility.yul\":334:343   */\n      dup3\n        /* \"#utility.yul\":330:348   */\n      add\n        /* \"#utility.yul\":322:348   */\n      swap1\n      pop\n        /* \"#utility.yul\":358:429   */\n      tag_170\n        /* \"#utility.yul\":426:427   */\n      0x00\n        /* \"#utility.yul\":415:424   */\n      dup4\n        /* \"#utility.yul\":411:428   */\n      add\n        /* \"#utility.yul\":402:408   */\n      dup5\n        /* \"#utility.yul\":358:429   */\n      tag_129\n      jump\t// in\n    tag_170:\n        /* \"#utility.yul\":214:436   */\n      swap3\n      swap2\n      pop\n      pop\n      jump\t// out\n        /* \"#utility.yul\":442:517   */\n    tag_130:\n        /* \"#utility.yul\":475:481   */\n      0x00\n        /* \"#utility.yul\":508:510   */\n      0x40\n        /* \"#utility.yul\":502:511   */\n      mload\n        /* \"#utility.yul\":492:511   */\n      swap1\n      pop\n        /* \"#utility.yul\":442:517   */\n      swap1\n      jump\t// out\n        /* \"#utility.yul\":523:640   */\n    tag_131:\n        /* \"#utility.yul\":632:633   */\n      0x00\n        /* \"#utility.yul\":629:630   */\n      dup1\n        /* \"#utility.yul\":622:634   */\n      revert\n        /* \"#utility.yul\":646:763   */\n    tag_132:\n        /* \"#utility.yul\":755:756   */\n      0x00\n        /* \"#utility.yul\":752:753   */\n      dup1\n        /* \"#utility.yul\":745:757   */\n      revert\n        /* \"#utility.yul\":769:891   */\n    tag_133:\n        /* \"#utility.yul\":842:866   */\n      tag_175\n        /* \"#utility.yul\":860:865   */\n      dup2\n        /* \"#utility.yul\":842:866   */\n      tag_128\n      jump\t// in\n    tag_175:\n        /* \"#utility.yul\":835:840   */\n      dup2\n        /* \"#utility.yul\":832:867   */\n      eq\n        /* \"#utility.yul\":822:885   */\n      tag_176\n      jumpi\n        /* \"#utility.yul\":881:882   */\n      0x00\n        /* \"#utility.yul\":878:879   */\n      dup1\n        /* \"#utility.yul\":871:883   */\n      revert\n        /* \"#utility.yul\":822:885   */\n    tag_176:\n        /* \"#utility.yul\":769:891   */\n      pop\n      jump\t// out\n        /* \"#utility.yul\":897:1036   */\n    tag_134:\n        /* \"#utility.yul\":943:948   */\n      0x00\n        /* \"#utility.yul\":981:987   */\n      dup2\n        /* \"#utility.yul\":968:988   */\n      calldataload\n        /* \"#utility.yul\":959:988   */\n      swap1\n      pop\n        /* \"#utility.yul\":997:1030   */\n      tag_178\n        /* \"#utility.yul\":1024:1029   */\n      dup2\n        /* \"#utility.yul\":997:1030   */\n      tag_133\n      jump\t// in\n    tag_178:\n        /* \"#utility.yul\":897:1036   */\n      swap3\n      swap2\n      pop\n      pop\n      jump\t// out\n        /* \"#utility.yul\":1042:1159   */\n    tag_135:\n        /* \"#utility.yul\":1151:1152   */\n      0x00\n        /* \"#utility.yul\":1148:1149   */\n      dup1\n        /* \"#utility.yul\":1141:1153   */\n      revert\n        /* \"#utility.yul\":1165:1267   */\n    tag_136:\n        /* \"#utility.yul\":1206:1212   */\n      0x00\n        /* \"#utility.yul\":1257:1259   */\n      0x1f\n        /* \"#utility.yul\":1253:1260   */\n      not\n        /* \"#utility.yul\":1248:1250   */\n      0x1f\n        /* \"#utility.yul\":1241:1246   */\n      dup4\n        /* \"#utility.yul\":1237:1251   */\n      add\n        /* \"#utility.yul\":1233:1261   */\n      and\n        /* \"#utility.yul\":1223:1261   */\n      swap1\n      pop\n        /* \"#utility.yul\":1165:1267   */\n      swap2\n      swap1\n      pop\n      jump\t// out\n        /* \"#utility.yul\":1273:1453   */\n    tag_137:\n        /* \"#utility.yul\":1321:1398   */\n      0x4e487b7100000000000000000000000000000000000000000000000000000000\n        /* \"#utility.yul\":1318:1319   */\n      0x00\n        /* \"#utility.yul\":1311:1399   */\n      mstore\n        /* \"#utility.yul\":1418:1422   */\n      0x41\n        /* \"#utility.yul\":1415:1416   */\n      0x04\n        /* \"#utility.yul\":1408:1423   */\n      mstore\n        /* \"#utility.yul\":1442:1446   */\n      0x24\n        /* \"#utility.yul\":1439:1440   */\n      0x00\n        /* \"#utility.yul\":1432:1447   */\n      revert\n        /* \"#utility.yul\":1459:1740   */\n    tag_138:\n        /* \"#utility.yul\":1542:1569   */\n      tag_183\n        /* \"#utility.yul\":1564:1568   */\n      dup3\n        /* \"#utility.yul\":1542:1569   */\n      tag_136\n      jump\t// in\n    tag_183:\n        /* \"#utility.yul\":1534:1540   */\n      dup2\n        /* \"#utility.yul\":1530:1570   */\n      add\n        /* \"#utility.yul\":1672:1678   */\n      dup2\n        /* \"#utility.yul\":1660:1670   */\n      dup2\n        /* \"#utility.yul\":1657:1679   */\n      lt\n        /* \"#utility.yul\":1636:1654   */\n      0xffffffffffffffff\n        /* \"#utility.yul\":1624:1634   */\n      dup3\n        /* \"#utility.yul\":1621:1655   */\n      gt\n        /* \"#utility.yul\":1618:1680   */\n      or\n        /* \"#utility.yul\":1615:1703   */\n      iszero\n      tag_184\n      jumpi\n        /* \"#utility.yul\":1683:1701   */\n      tag_185\n      tag_137\n      jump\t// in\n    tag_185:\n        /* \"#utility.yul\":1615:1703   */\n    tag_184:\n        /* \"#utility.yul\":1723:1733   */\n      dup1\n        /* \"#utility.yul\":1719:1721   */\n      0x40\n        /* \"#utility.yul\":1712:1734   */\n      mstore\n        /* \"#utility.yul\":1502:1740   */\n      pop\n        /* \"#utility.yul\":1459:1740   */\n      pop\n      pop\n      jump\t// out\n        /* \"#utility.yul\":1746:1875   */\n    tag_139:\n        /* \"#utility.yul\":1780:1786   */\n      0x00\n        /* \"#utility.yul\":1807:1827   */\n      tag_187\n      tag_130\n      jump\t// in\n    tag_187:\n        /* \"#utility.yul\":1797:1827   */\n      swap1\n      pop\n        /* \"#utility.yul\":1836:1869   */\n      tag_188\n        /* \"#utility.yul\":1864:1868   */\n      dup3\n        /* \"#utility.yul\":1856:1862   */\n      dup3\n        /* \"#utility.yul\":1836:1869   */\n      tag_138\n      jump\t// in\n    tag_188:\n        /* \"#utility.yul\":1746:1875   */\n      swap2\n      swap1\n      pop\n      jump\t// out\n        /* \"#utility.yul\":1881:2192   */\n    tag_140:\n        /* \"#utility.yul\":1958:1962   */\n      0x00\n        /* \"#utility.yul\":2048:2066   */\n      0xffffffffffffffff\n        /* \"#utility.yul\":2040:2046   */\n      dup3\n        /* \"#utility.yul\":2037:2067   */\n      gt\n        /* \"#utility.yul\":2034:2090   */\n      iszero\n      tag_190\n      jumpi\n        /* \"#utility.yul\":2070:2088   */\n      tag_191\n      tag_137\n      jump\t// in\n    tag_191:\n        /* \"#utility.yul\":2034:2090   */\n    tag_190:\n        /* \"#utility.yul\":2120:2124   */\n      0x20\n        /* \"#utility.yul\":2112:2118   */\n      dup3\n        /* \"#utility.yul\":2108:2125   */\n      mul\n        /* \"#utility.yul\":2100:2125   */\n      swap1\n      pop\n        /* \"#utility.yul\":2180:2184   */\n      0x20\n        /* \"#utility.yul\":2174:2178   */\n      dup2\n        /* \"#utility.yul\":2170:2185   */\n      add\n        /* \"#utility.yul\":2162:2185   */\n      swap1\n      pop\n        /* \"#utility.yul\":1881:2192   */\n      swap2\n      swap1\n      pop\n      jump\t// out\n        /* \"#utility.yul\":2198:2315   */\n    tag_141:\n        /* \"#utility.yul\":2307:2308   */\n      0x00\n        /* \"#utility.yul\":2304:2305   */\n      dup1\n        /* \"#utility.yul\":2297:2309   */\n      revert\n        /* \"#utility.yul\":2338:3048   */\n    tag_142:\n        /* \"#utility.yul\":2434:2439   */\n      0x00\n        /* \"#utility.yul\":2459:2540   */\n      tag_194\n        /* \"#utility.yul\":2475:2539   */\n      tag_195\n        /* \"#utility.yul\":2532:2538   */\n      dup5\n        /* \"#utility.yul\":2475:2539   */\n      tag_140\n      jump\t// in\n    tag_195:\n        /* \"#utility.yul\":2459:2540   */\n      tag_139\n      jump\t// in\n    tag_194:\n        /* \"#utility.yul\":2450:2540   */\n      swap1\n      pop\n        /* \"#utility.yul\":2560:2565   */\n      dup1\n        /* \"#utility.yul\":2589:2595   */\n      dup4\n        /* \"#utility.yul\":2582:2587   */\n      dup3\n        /* \"#utility.yul\":2575:2596   */\n      mstore\n        /* \"#utility.yul\":2623:2627   */\n      0x20\n        /* \"#utility.yul\":2616:2621   */\n      dup3\n        /* \"#utility.yul\":2612:2628   */\n      add\n        /* \"#utility.yul\":2605:2628   */\n      swap1\n      pop\n        /* \"#utility.yul\":2676:2680   */\n      0x20\n        /* \"#utility.yul\":2668:2674   */\n      dup5\n        /* \"#utility.yul\":2664:2681   */\n      mul\n        /* \"#utility.yul\":2656:2662   */\n      dup4\n        /* \"#utility.yul\":2652:2682   */\n      add\n        /* \"#utility.yul\":2705:2708   */\n      dup6\n        /* \"#utility.yul\":2697:2703   */\n      dup2\n        /* \"#utility.yul\":2694:2709   */\n      gt\n        /* \"#utility.yul\":2691:2813   */\n      iszero\n      tag_196\n      jumpi\n        /* \"#utility.yul\":2724:2803   */\n      tag_197\n      tag_141\n      jump\t// in\n    tag_197:\n        /* \"#utility.yul\":2691:2813   */\n    tag_196:\n        /* \"#utility.yul\":2839:2845   */\n      dup4\n        /* \"#utility.yul\":2822:3042   */\n    tag_198:\n        /* \"#utility.yul\":2856:2862   */\n      dup2\n        /* \"#utility.yul\":2851:2854   */\n      dup2\n        /* \"#utility.yul\":2848:2863   */\n      lt\n        /* \"#utility.yul\":2822:3042   */\n      iszero\n      tag_200\n      jumpi\n        /* \"#utility.yul\":2931:2934   */\n      dup1\n        /* \"#utility.yul\":2960:2997   */\n      tag_201\n        /* \"#utility.yul\":2993:2996   */\n      dup9\n        /* \"#utility.yul\":2981:2991   */\n      dup3\n        /* \"#utility.yul\":2960:2997   */\n      tag_134\n      jump\t// in\n    tag_201:\n        /* \"#utility.yul\":2955:2958   */\n      dup5\n        /* \"#utility.yul\":2948:2998   */\n      mstore\n        /* \"#utility.yul\":3027:3031   */\n      0x20\n        /* \"#utility.yul\":3022:3025   */\n      dup5\n        /* \"#utility.yul\":3018:3032   */\n      add\n        /* \"#utility.yul\":3011:3032   */\n      swap4\n      pop\n        /* \"#utility.yul\":2898:3042   */\n      pop\n        /* \"#utility.yul\":2882:2886   */\n      0x20\n        /* \"#utility.yul\":2877:2880   */\n      dup2\n        /* \"#utility.yul\":2873:2887   */\n      add\n        /* \"#utility.yul\":2866:2887   */\n      swap1\n      pop\n        /* \"#utility.yul\":2822:3042   */\n      jump(tag_198)\n    tag_200:\n        /* \"#utility.yul\":2826:2847   */\n      pop\n        /* \"#utility.yul\":2440:3048   */\n      pop\n      pop\n        /* \"#utility.yul\":2338:3048   */\n      swap4\n      swap3\n      pop\n      pop\n      pop\n      jump\t// out\n        /* \"#utility.yul\":3071:3441   */\n    tag_143:\n        /* \"#utility.yul\":3142:3147   */\n      0x00\n        /* \"#utility.yul\":3191:3194   */\n      dup3\n        /* \"#utility.yul\":3184:3188   */\n      0x1f\n        /* \"#utility.yul\":3176:3182   */\n      dup4\n        /* \"#utility.yul\":3172:3189   */\n      add\n        /* \"#utility.yul\":3168:3195   */\n      slt\n        /* \"#utility.yul\":3158:3280   */\n      tag_203\n      jumpi\n        /* \"#utility.yul\":3199:3278   */\n      tag_204\n      tag_135\n      jump\t// in\n    tag_204:\n        /* \"#utility.yul\":3158:3280   */\n    tag_203:\n        /* \"#utility.yul\":3316:3322   */\n      dup2\n        /* \"#utility.yul\":3303:3323   */\n      calldataload\n        /* \"#utility.yul\":3341:3435   */\n      tag_205\n        /* \"#utility.yul\":3431:3434   */\n      dup5\n        /* \"#utility.yul\":3423:3429   */\n      dup3\n        /* \"#utility.yul\":3416:3420   */\n      0x20\n        /* \"#utility.yul\":3408:3414   */\n      dup7\n        /* \"#utility.yul\":3404:3421   */\n      add\n        /* \"#utility.yul\":3341:3435   */\n      tag_142\n      jump\t// in\n    tag_205:\n        /* \"#utility.yul\":3332:3435   */\n      swap2\n      pop\n        /* \"#utility.yul\":3148:3441   */\n      pop\n        /* \"#utility.yul\":3071:3441   */\n      swap3\n      swap2\n      pop\n      pop\n      jump\t// out\n        /* \"#utility.yul\":3447:4131   */\n    tag_23:\n        /* \"#utility.yul\":3540:3546   */\n      0x00\n        /* \"#utility.yul\":3548:3554   */\n      dup1\n        /* \"#utility.yul\":3597:3599   */\n      0x40\n        /* \"#utility.yul\":3585:3594   */\n      dup4\n        /* \"#utility.yul\":3576:3583   */\n      dup6\n        /* \"#utility.yul\":3572:3595   */\n      sub\n        /* \"#utility.yul\":3568:3600   */\n      slt\n        /* \"#utility.yul\":3565:3684   */\n      iszero\n      tag_207\n      jumpi\n        /* \"#utility.yul\":3603:3682   */\n      tag_208\n      tag_131\n      jump\t// in\n    tag_208:\n        /* \"#utility.yul\":3565:3684   */\n    tag_207:\n        /* \"#utility.yul\":3723:3724   */\n      0x00\n        /* \"#utility.yul\":3748:3801   */\n      tag_209\n        /* \"#utility.yul\":3793:3800   */\n      dup6\n        /* \"#utility.yul\":3784:3790   */\n      dup3\n        /* \"#utility.yul\":3773:3782   */\n      dup7\n        /* \"#utility.yul\":3769:3791   */\n      add\n        /* \"#utility.yul\":3748:3801   */\n      tag_134\n      jump\t// in\n    tag_209:\n        /* \"#utility.yul\":3738:3801   */\n      swap3\n      pop\n        /* \"#utility.yul\":3694:3811   */\n      pop\n        /* \"#utility.yul\":3878:3880   */\n      0x20\n        /* \"#utility.yul\":3867:3876   */\n      dup4\n        /* \"#utility.yul\":3863:3881   */\n      add\n        /* \"#utility.yul\":3850:3882   */\n      calldataload\n        /* \"#utility.yul\":3909:3927   */\n      0xffffffffffffffff\n        /* \"#utility.yul\":3901:3907   */\n      dup2\n        /* \"#utility.yul\":3898:3928   */\n      gt\n        /* \"#utility.yul\":3895:4012   */\n      iszero\n      tag_210\n      jumpi\n        /* \"#utility.yul\":3931:4010   */\n      tag_211\n      tag_132\n      jump\t// in\n    tag_211:\n        /* \"#utility.yul\":3895:4012   */\n    tag_210:\n        /* \"#utility.yul\":4036:4114   */\n      tag_212\n        /* \"#utility.yul\":4106:4113   */\n      dup6\n        /* \"#utility.yul\":4097:4103   */\n      dup3\n        /* \"#utility.yul\":4086:4095   */\n      dup7\n        /* \"#utility.yul\":4082:4104   */\n      add\n        /* \"#utility.yul\":4036:4114   */\n      tag_143\n      jump\t// in\n    tag_212:\n        /* \"#utility.yul\":4026:4114   */\n      swap2\n      pop\n        /* \"#utility.yul\":3821:4124   */\n      pop\n        /* \"#utility.yul\":3447:4131   */\n      swap3\n      pop\n      swap3\n      swap1\n      pop\n      jump\t// out\n        /* \"#utility.yul\":4137:4466   */\n    tag_28:\n        /* \"#utility.yul\":4196:4202   */\n      0x00\n        /* \"#utility.yul\":4245:4247   */\n      0x20\n        /* \"#utility.yul\":4233:4242   */\n      dup3\n        /* \"#utility.yul\":4224:4231   */\n      dup5\n        /* \"#utility.yul\":4220:4243   */\n      sub\n        /* \"#utility.yul\":4216:4248   */\n      slt\n        /* \"#utility.yul\":4213:4332   */\n      iszero\n      tag_214\n      jumpi\n        /* \"#utility.yul\":4251:4330   */\n      tag_215\n      tag_131\n      jump\t// in\n    tag_215:\n        /* \"#utility.yul\":4213:4332   */\n    tag_214:\n        /* \"#utility.yul\":4371:4372   */\n      0x00\n        /* \"#utility.yul\":4396:4449   */\n      tag_216\n        /* \"#utility.yul\":4441:4448   */\n      dup5\n        /* \"#utility.yul\":4432:4438   */\n      dup3\n        /* \"#utility.yul\":4421:4430   */\n      dup6\n        /* \"#utility.yul\":4417:4439   */\n      add\n        /* \"#utility.yul\":4396:4449   */\n      tag_134\n      jump\t// in\n    tag_216:\n        /* \"#utility.yul\":4386:4449   */\n      swap2\n      pop\n        /* \"#utility.yul\":4342:4459   */\n      pop\n        /* \"#utility.yul\":4137:4466   */\n      swap3\n      swap2\n      pop\n      pop\n      jump\t// out\n        /* \"#utility.yul\":4472:4598   */\n    tag_144:\n        /* \"#utility.yul\":4509:4516   */\n      0x00\n        /* \"#utility.yul\":4549:4591   */\n      0xffffffffffffffffffffffffffffffffffffffff\n        /* \"#utility.yul\":4542:4547   */\n      dup3\n        /* \"#utility.yul\":4538:4592   */\n      and\n        /* \"#utility.yul\":4527:4592   */\n      swap1\n      pop\n        /* \"#utility.yul\":4472:4598   */\n      swap2\n      swap1\n      pop\n      jump\t// out\n        /* \"#utility.yul\":4604:4708   */\n    tag_145:\n        /* \"#utility.yul\":4649:4656   */\n      0x00\n        /* \"#utility.yul\":4678:4702   */\n      tag_219\n        /* \"#utility.yul\":4696:4701   */\n      dup3\n        /* \"#utility.yul\":4678:4702   */\n      tag_144\n      jump\t// in\n    tag_219:\n        /* \"#utility.yul\":4667:4702   */\n      swap1\n      pop\n        /* \"#utility.yul\":4604:4708   */\n      swap2\n      swap1\n      pop\n      jump\t// out\n        /* \"#utility.yul\":4714:4856   */\n    tag_146:\n        /* \"#utility.yul\":4817:4849   */\n      tag_221\n        /* \"#utility.yul\":4843:4848   */\n      dup2\n        /* \"#utility.yul\":4817:4849   */\n      tag_145\n      jump\t// in\n    tag_221:\n        /* \"#utility.yul\":4812:4815   */\n      dup3\n        /* \"#utility.yul\":4805:4850   */\n      mstore\n        /* \"#utility.yul\":4714:4856   */\n      pop\n      pop\n      jump\t// out\n        /* \"#utility.yul\":4862:5116   */\n    tag_31:\n        /* \"#utility.yul\":4971:4975   */\n      0x00\n        /* \"#utility.yul\":5009:5011   */\n      0x20\n        /* \"#utility.yul\":4998:5007   */\n      dup3\n        /* \"#utility.yul\":4994:5012   */\n      add\n        /* \"#utility.yul\":4986:5012   */\n      swap1\n      pop\n        /* \"#utility.yul\":5022:5109   */\n      tag_223\n        /* \"#utility.yul\":5106:5107   */\n      0x00\n        /* \"#utility.yul\":5095:5104   */\n      dup4\n        /* \"#utility.yul\":5091:5108   */\n      add\n        /* \"#utility.yul\":5082:5088   */\n      dup5\n        /* \"#utility.yul\":5022:5109   */\n      tag_146\n      jump\t// in\n    tag_223:\n        /* \"#utility.yul\":4862:5116   */\n      swap3\n      swap2\n      pop\n      pop\n      jump\t// out\n        /* \"#utility.yul\":5122:5486   */\n    tag_41:\n        /* \"#utility.yul\":5259:5263   */\n      0x00\n        /* \"#utility.yul\":5297:5299   */\n      0x40\n        /* \"#utility.yul\":5286:5295   */\n      dup3\n        /* \"#utility.yul\":5282:5300   */\n      add\n        /* \"#utility.yul\":5274:5300   */\n      swap1\n      pop\n        /* \"#utility.yul\":5310:5397   */\n      tag_225\n        /* \"#utility.yul\":5394:5395   */\n      0x00\n        /* \"#utility.yul\":5383:5392   */\n      dup4\n        /* \"#utility.yul\":5379:5396   */\n      add\n        /* \"#utility.yul\":5370:5376   */\n      dup6\n        /* \"#utility.yul\":5310:5397   */\n      tag_146\n      jump\t// in\n    tag_225:\n        /* \"#utility.yul\":5407:5479   */\n      tag_226\n        /* \"#utility.yul\":5475:5477   */\n      0x20\n        /* \"#utility.yul\":5464:5473   */\n      dup4\n        /* \"#utility.yul\":5460:5478   */\n      add\n        /* \"#utility.yul\":5451:5457   */\n      dup5\n        /* \"#utility.yul\":5407:5479   */\n      tag_129\n      jump\t// in\n    tag_226:\n        /* \"#utility.yul\":5122:5486   */\n      swap4\n      swap3\n      pop\n      pop\n      pop\n      jump\t// out\n        /* \"#utility.yul\":5492:5588   */\n    tag_147:\n        /* \"#utility.yul\":5529:5536   */\n      0x00\n        /* \"#utility.yul\":5558:5582   */\n      tag_228\n        /* \"#utility.yul\":5576:5581   */\n      dup3\n        /* \"#utility.yul\":5558:5582   */\n      tag_144\n      jump\t// in\n    tag_228:\n        /* \"#utility.yul\":5547:5582   */\n      swap1\n      pop\n        /* \"#utility.yul\":5492:5588   */\n      swap2\n      swap1\n      pop\n      jump\t// out\n        /* \"#utility.yul\":5594:5712   */\n    tag_148:\n        /* \"#utility.yul\":5681:5705   */\n      tag_230\n        /* \"#utility.yul\":5699:5704   */\n      dup2\n        /* \"#utility.yul\":5681:5705   */\n      tag_147\n      jump\t// in\n    tag_230:\n        /* \"#utility.yul\":5676:5679   */\n      dup3\n        /* \"#utility.yul\":5669:5706   */\n      mstore\n        /* \"#utility.yul\":5594:5712   */\n      pop\n      pop\n      jump\t// out\n        /* \"#utility.yul\":5718:5940   */\n    tag_54:\n        /* \"#utility.yul\":5811:5815   */\n      0x00\n        /* \"#utility.yul\":5849:5851   */\n      0x20\n        /* \"#utility.yul\":5838:5847   */\n      dup3\n        /* \"#utility.yul\":5834:5852   */\n      add\n        /* \"#utility.yul\":5826:5852   */\n      swap1\n      pop\n        /* \"#utility.yul\":5862:5933   */\n      tag_232\n        /* \"#utility.yul\":5930:5931   */\n      0x00\n        /* \"#utility.yul\":5919:5928   */\n      dup4\n        /* \"#utility.yul\":5915:5932   */\n      add\n        /* \"#utility.yul\":5906:5912   */\n      dup5\n        /* \"#utility.yul\":5862:5933   */\n      tag_148\n      jump\t// in\n    tag_232:\n        /* \"#utility.yul\":5718:5940   */\n      swap3\n      swap2\n      pop\n      pop\n      jump\t// out\n        /* \"#utility.yul\":5946:6278   */\n    tag_75:\n        /* \"#utility.yul\":6067:6071   */\n      0x00\n        /* \"#utility.yul\":6105:6107   */\n      0x40\n        /* \"#utility.yul\":6094:6103   */\n      dup3\n        /* \"#utility.yul\":6090:6108   */\n      add\n        /* \"#utility.yul\":6082:6108   */\n      swap1\n      pop\n        /* \"#utility.yul\":6118:6189   */\n      tag_234\n        /* \"#utility.yul\":6186:6187   */\n      0x00\n        /* \"#utility.yul\":6175:6184   */\n      dup4\n        /* \"#utility.yul\":6171:6188   */\n      add\n        /* \"#utility.yul\":6162:6168   */\n      dup6\n        /* \"#utility.yul\":6118:6189   */\n      tag_148\n      jump\t// in\n    tag_234:\n        /* \"#utility.yul\":6199:6271   */\n      tag_235\n        /* \"#utility.yul\":6267:6269   */\n      0x20\n        /* \"#utility.yul\":6256:6265   */\n      dup4\n        /* \"#utility.yul\":6252:6270   */\n      add\n        /* \"#utility.yul\":6243:6249   */\n      dup5\n        /* \"#utility.yul\":6199:6271   */\n      tag_148\n      jump\t// in\n    tag_235:\n        /* \"#utility.yul\":5946:6278   */\n      swap4\n      swap3\n      pop\n      pop\n      pop\n      jump\t// out\n        /* \"#utility.yul\":6284:6464   */\n    tag_149:\n        /* \"#utility.yul\":6332:6409   */\n      0x4e487b7100000000000000000000000000000000000000000000000000000000\n        /* \"#utility.yul\":6329:6330   */\n      0x00\n        /* \"#utility.yul\":6322:6410   */\n      mstore\n        /* \"#utility.yul\":6429:6433   */\n      0x12\n        /* \"#utility.yul\":6426:6427   */\n      0x04\n        /* \"#utility.yul\":6419:6434   */\n      mstore\n        /* \"#utility.yul\":6453:6457   */\n      0x24\n        /* \"#utility.yul\":6450:6451   */\n      0x00\n        /* \"#utility.yul\":6443:6458   */\n      revert\n        /* \"#utility.yul\":6470:6650   */\n    tag_150:\n        /* \"#utility.yul\":6518:6595   */\n      0x4e487b7100000000000000000000000000000000000000000000000000000000\n        /* \"#utility.yul\":6515:6516   */\n      0x00\n        /* \"#utility.yul\":6508:6596   */\n      mstore\n        /* \"#utility.yul\":6615:6619   */\n      0x11\n        /* \"#utility.yul\":6612:6613   */\n      0x04\n        /* \"#utility.yul\":6605:6620   */\n      mstore\n        /* \"#utility.yul\":6639:6643   */\n      0x24\n        /* \"#utility.yul\":6636:6637   */\n      0x00\n        /* \"#utility.yul\":6629:6644   */\n      revert\n        /* \"#utility.yul\":6656:6841   */\n    tag_87:\n        /* \"#utility.yul\":6696:6697   */\n      0x00\n        /* \"#utility.yul\":6713:6733   */\n      tag_239\n        /* \"#utility.yul\":6731:6732   */\n      dup3\n        /* \"#utility.yul\":6713:6733   */\n      tag_128\n      jump\t// in\n    tag_239:\n        /* \"#utility.yul\":6708:6733   */\n      swap2\n      pop\n        /* \"#utility.yul\":6747:6767   */\n      tag_240\n        /* \"#utility.yul\":6765:6766   */\n      dup4\n        /* \"#utility.yul\":6747:6767   */\n      tag_128\n      jump\t// in\n    tag_240:\n        /* \"#utility.yul\":6742:6767   */\n      swap3\n      pop\n        /* \"#utility.yul\":6786:6787   */\n      dup3\n        /* \"#utility.yul\":6776:6811   */\n      tag_241\n      jumpi\n        /* \"#utility.yul\":6791:6809   */\n      tag_242\n      tag_149\n      jump\t// in\n    tag_242:\n        /* \"#utility.yul\":6776:6811   */\n    tag_241:\n        /* \"#utility.yul\":6833:6834   */\n      dup3\n        /* \"#utility.yul\":6830:6831   */\n      dup3\n        /* \"#utility.yul\":6826:6835   */\n      div\n        /* \"#utility.yul\":6821:6835   */\n      swap1\n      pop\n        /* \"#utility.yul\":6656:6841   */\n      swap3\n      swap2\n      pop\n      pop\n      jump\t// out\n        /* \"#utility.yul\":6847:7016   */\n    tag_151:\n        /* \"#utility.yul\":6931:6942   */\n      0x00\n        /* \"#utility.yul\":6965:6971   */\n      dup3\n        /* \"#utility.yul\":6960:6963   */\n      dup3\n        /* \"#utility.yul\":6953:6972   */\n      mstore\n        /* \"#utility.yul\":7005:7009   */\n      0x20\n        /* \"#utility.yul\":7000:7003   */\n      dup3\n        /* \"#utility.yul\":6996:7010   */\n      add\n        /* \"#utility.yul\":6981:7010   */\n      swap1\n      pop\n        /* \"#utility.yul\":6847:7016   */\n      swap3\n      swap2\n      pop\n      pop\n      jump\t// out\n        /* \"#utility.yul\":7022:7188   */\n    tag_152:\n        /* \"#utility.yul\":7162:7180   */\n      0x4e6f7420656e6f75676820746f6b656e00000000000000000000000000000000\n        /* \"#utility.yul\":7158:7159   */\n      0x00\n        /* \"#utility.yul\":7150:7156   */\n      dup3\n        /* \"#utility.yul\":7146:7160   */\n      add\n        /* \"#utility.yul\":7139:7181   */\n      mstore\n        /* \"#utility.yul\":7022:7188   */\n      pop\n      jump\t// out\n        /* \"#utility.yul\":7194:7560   */\n    tag_153:\n        /* \"#utility.yul\":7336:7339   */\n      0x00\n        /* \"#utility.yul\":7357:7424   */\n      tag_246\n        /* \"#utility.yul\":7421:7423   */\n      0x10\n        /* \"#utility.yul\":7416:7419   */\n      dup4\n        /* \"#utility.yul\":7357:7424   */\n      tag_151\n      jump\t// in\n    tag_246:\n        /* \"#utility.yul\":7350:7424   */\n      swap2\n      pop\n        /* \"#utility.yul\":7433:7526   */\n      tag_247\n        /* \"#utility.yul\":7522:7525   */\n      dup3\n        /* \"#utility.yul\":7433:7526   */\n      tag_152\n      jump\t// in\n    tag_247:\n        /* \"#utility.yul\":7551:7553   */\n      0x20\n        /* \"#utility.yul\":7546:7549   */\n      dup3\n        /* \"#utility.yul\":7542:7554   */\n      add\n        /* \"#utility.yul\":7535:7554   */\n      swap1\n      pop\n        /* \"#utility.yul\":7194:7560   */\n      swap2\n      swap1\n      pop\n      jump\t// out\n        /* \"#utility.yul\":7566:7985   */\n    tag_92:\n        /* \"#utility.yul\":7732:7736   */\n      0x00\n        /* \"#utility.yul\":7770:7772   */\n      0x20\n        /* \"#utility.yul\":7759:7768   */\n      dup3\n        /* \"#utility.yul\":7755:7773   */\n      add\n        /* \"#utility.yul\":7747:7773   */\n      swap1\n      pop\n        /* \"#utility.yul\":7819:7828   */\n      dup2\n        /* \"#utility.yul\":7813:7817   */\n      dup2\n        /* \"#utility.yul\":7809:7829   */\n      sub\n        /* \"#utility.yul\":7805:7806   */\n      0x00\n        /* \"#utility.yul\":7794:7803   */\n      dup4\n        /* \"#utility.yul\":7790:7807   */\n      add\n        /* \"#utility.yul\":7783:7830   */\n      mstore\n        /* \"#utility.yul\":7847:7978   */\n      tag_249\n        /* \"#utility.yul\":7973:7977   */\n      dup2\n        /* \"#utility.yul\":7847:7978   */\n      tag_153\n      jump\t// in\n    tag_249:\n        /* \"#utility.yul\":7839:7978   */\n      swap1\n      pop\n        /* \"#utility.yul\":7566:7985   */\n      swap2\n      swap1\n      pop\n      jump\t// out\n        /* \"#utility.yul\":7991:8296   */\n    tag_94:\n        /* \"#utility.yul\":8031:8034   */\n      0x00\n        /* \"#utility.yul\":8050:8070   */\n      tag_251\n        /* \"#utility.yul\":8068:8069   */\n      dup3\n        /* \"#utility.yul\":8050:8070   */\n      tag_128\n      jump\t// in\n    tag_251:\n        /* \"#utility.yul\":8045:8070   */\n      swap2\n      pop\n        /* \"#utility.yul\":8084:8104   */\n      tag_252\n        /* \"#utility.yul\":8102:8103   */\n      dup4\n        /* \"#utility.yul\":8084:8104   */\n      tag_128\n      jump\t// in\n    tag_252:\n        /* \"#utility.yul\":8079:8104   */\n      swap3\n      pop\n        /* \"#utility.yul\":8238:8239   */\n      dup3\n        /* \"#utility.yul\":8170:8236   */\n      0xffffffffffffffffffffffffffffffffffffffffffffffffffffffffffffffff\n        /* \"#utility.yul\":8166:8240   */\n      sub\n        /* \"#utility.yul\":8163:8164   */\n      dup3\n        /* \"#utility.yul\":8160:8241   */\n      gt\n        /* \"#utility.yul\":8157:8264   */\n      iszero\n      tag_253\n      jumpi\n        /* \"#utility.yul\":8244:8262   */\n      tag_254\n      tag_150\n      jump\t// in\n    tag_254:\n        /* \"#utility.yul\":8157:8264   */\n    tag_253:\n        /* \"#utility.yul\":8288:8289   */\n      dup3\n        /* \"#utility.yul\":8285:8286   */\n      dup3\n        /* \"#utility.yul\":8281:8290   */\n      add\n        /* \"#utility.yul\":8274:8290   */\n      swap1\n      pop\n        /* \"#utility.yul\":7991:8296   */\n      swap3\n      swap2\n      pop\n      pop\n      jump\t// out\n        /* \"#utility.yul\":8302:8478   */\n    tag_154:\n        /* \"#utility.yul\":8442:8470   */\n      0x4e756d626572207469636b6574206f7574206f662072616e6765000000000000\n        /* \"#utility.yul\":8438:8439   */\n      0x00\n        /* \"#utility.yul\":8430:8436   */\n      dup3\n        /* \"#utility.yul\":8426:8440   */\n      add\n        /* \"#utility.yul\":8419:8471   */\n      mstore\n        /* \"#utility.yul\":8302:8478   */\n      pop\n      jump\t// out\n        /* \"#utility.yul\":8484:8850   */\n    tag_155:\n        /* \"#utility.yul\":8626:8629   */\n      0x00\n        /* \"#utility.yul\":8647:8714   */\n      tag_257\n        /* \"#utility.yul\":8711:8713   */\n      0x1a\n        /* \"#utility.yul\":8706:8709   */\n      dup4\n        /* \"#utility.yul\":8647:8714   */\n      tag_151\n      jump\t// in\n    tag_257:\n        /* \"#utility.yul\":8640:8714   */\n      swap2\n      pop\n        /* \"#utility.yul\":8723:8816   */\n      tag_258\n        /* \"#utility.yul\":8812:8815   */\n      dup3\n        /* \"#utility.yul\":8723:8816   */\n      tag_154\n      jump\t// in\n    tag_258:\n        /* \"#utility.yul\":8841:8843   */\n      0x20\n        /* \"#utility.yul\":8836:8839   */\n      dup3\n        /* \"#utility.yul\":8832:8844   */\n      add\n        /* \"#utility.yul\":8825:8844   */\n      swap1\n      pop\n        /* \"#utility.yul\":8484:8850   */\n      swap2\n      swap1\n      pop\n      jump\t// out\n        /* \"#utility.yul\":8856:9275   */\n    tag_98:\n        /* \"#utility.yul\":9022:9026   */\n      0x00\n        /* \"#utility.yul\":9060:9062   */\n      0x20\n        /* \"#utility.yul\":9049:9058   */\n      dup3\n        /* \"#utility.yul\":9045:9063   */\n      add\n        /* \"#utility.yul\":9037:9063   */\n      swap1\n      pop\n        /* \"#utility.yul\":9109:9118   */\n      dup2\n        /* \"#utility.yul\":9103:9107   */\n      dup2\n        /* \"#utility.yul\":9099:9119   */\n      sub\n        /* \"#utility.yul\":9095:9096   */\n      0x00\n        /* \"#utility.yul\":9084:9093   */\n      dup4\n        /* \"#utility.yul\":9080:9097   */\n      add\n        /* \"#utility.yul\":9073:9120   */\n      mstore\n        /* \"#utility.yul\":9137:9268   */\n      tag_260\n        /* \"#utility.yul\":9263:9267   */\n      dup2\n        /* \"#utility.yul\":9137:9268   */\n      tag_155\n      jump\t// in\n    tag_260:\n        /* \"#utility.yul\":9129:9268   */\n      swap1\n      pop\n        /* \"#utility.yul\":8856:9275   */\n      swap2\n      swap1\n      pop\n      jump\t// out\n        /* \"#utility.yul\":9281:9358   */\n    tag_156:\n        /* \"#utility.yul\":9318:9325   */\n      0x00\n        /* \"#utility.yul\":9347:9352   */\n      dup2\n        /* \"#utility.yul\":9336:9352   */\n      swap1\n      pop\n        /* \"#utility.yul\":9281:9358   */\n      swap2\n      swap1\n      pop\n      jump\t// out\n        /* \"#utility.yul\":9364:9482   */\n    tag_157:\n        /* \"#utility.yul\":9451:9475   */\n      tag_263\n        /* \"#utility.yul\":9469:9474   */\n      dup2\n        /* \"#utility.yul\":9451:9475   */\n      tag_156\n      jump\t// in\n    tag_263:\n        /* \"#utility.yul\":9446:9449   */\n      dup3\n        /* \"#utility.yul\":9439:9476   */\n      mstore\n        /* \"#utility.yul\":9364:9482   */\n      pop\n      pop\n      jump\t// out\n        /* \"#utility.yul\":9488:9589   */\n    tag_158:\n        /* \"#utility.yul\":9524:9531   */\n      0x00\n        /* \"#utility.yul\":9564:9582   */\n      0xffffffffffffffff\n        /* \"#utility.yul\":9557:9562   */\n      dup3\n        /* \"#utility.yul\":9553:9583   */\n      and\n        /* \"#utility.yul\":9542:9583   */\n      swap1\n      pop\n        /* \"#utility.yul\":9488:9589   */\n      swap2\n      swap1\n      pop\n      jump\t// out\n        /* \"#utility.yul\":9595:9710   */\n    tag_159:\n        /* \"#utility.yul\":9680:9703   */\n      tag_266\n        /* \"#utility.yul\":9697:9702   */\n      dup2\n        /* \"#utility.yul\":9680:9703   */\n      tag_158\n      jump\t// in\n    tag_266:\n        /* \"#utility.yul\":9675:9678   */\n      dup3\n        /* \"#utility.yul\":9668:9704   */\n      mstore\n        /* \"#utility.yul\":9595:9710   */\n      pop\n      pop\n      jump\t// out\n        /* \"#utility.yul\":9716:9805   */\n    tag_160:\n        /* \"#utility.yul\":9752:9759   */\n      0x00\n        /* \"#utility.yul\":9792:9798   */\n      0xffff\n        /* \"#utility.yul\":9785:9790   */\n      dup3\n        /* \"#utility.yul\":9781:9799   */\n      and\n        /* \"#utility.yul\":9770:9799   */\n      swap1\n      pop\n        /* \"#utility.yul\":9716:9805   */\n      swap2\n      swap1\n      pop\n      jump\t// out\n        /* \"#utility.yul\":9811:9926   */\n    tag_161:\n        /* \"#utility.yul\":9896:9919   */\n      tag_269\n        /* \"#utility.yul\":9913:9918   */\n      dup2\n        /* \"#utility.yul\":9896:9919   */\n      tag_160\n      jump\t// in\n    tag_269:\n        /* \"#utility.yul\":9891:9894   */\n      dup3\n        /* \"#utility.yul\":9884:9920   */\n      mstore\n        /* \"#utility.yul\":9811:9926   */\n      pop\n      pop\n      jump\t// out\n        /* \"#utility.yul\":9932:10025   */\n    tag_162:\n        /* \"#utility.yul\":9968:9975   */\n      0x00\n        /* \"#utility.yul\":10008:10018   */\n      0xffffffff\n        /* \"#utility.yul\":10001:10006   */\n      dup3\n        /* \"#utility.yul\":9997:10019   */\n      and\n        /* \"#utility.yul\":9986:10019   */\n      swap1\n      pop\n        /* \"#utility.yul\":9932:10025   */\n      swap2\n      swap1\n      pop\n      jump\t// out\n        /* \"#utility.yul\":10031:10146   */\n    tag_163:\n        /* \"#utility.yul\":10116:10139   */\n      tag_272\n        /* \"#utility.yul\":10133:10138   */\n      dup2\n        /* \"#utility.yul\":10116:10139   */\n      tag_162\n      jump\t// in\n    tag_272:\n        /* \"#utility.yul\":10111:10114   */\n      dup3\n        /* \"#utility.yul\":10104:10140   */\n      mstore\n        /* \"#utility.yul\":10031:10146   */\n      pop\n      pop\n      jump\t// out\n        /* \"#utility.yul\":10152:10800   */\n    tag_111:\n        /* \"#utility.yul\":10349:10353   */\n      0x00\n        /* \"#utility.yul\":10387:10390   */\n      0xa0\n        /* \"#utility.yul\":10376:10385   */\n      dup3\n        /* \"#utility.yul\":10372:10391   */\n      add\n        /* \"#utility.yul\":10364:10391   */\n      swap1\n      pop\n        /* \"#utility.yul\":10401:10472   */\n      tag_274\n        /* \"#utility.yul\":10469:10470   */\n      0x00\n        /* \"#utility.yul\":10458:10467   */\n      dup4\n        /* \"#utility.yul\":10454:10471   */\n      add\n        /* \"#utility.yul\":10445:10451   */\n      dup9\n        /* \"#utility.yul\":10401:10472   */\n      tag_157\n      jump\t// in\n    tag_274:\n        /* \"#utility.yul\":10482:10552   */\n      tag_275\n        /* \"#utility.yul\":10548:10550   */\n      0x20\n        /* \"#utility.yul\":10537:10546   */\n      dup4\n        /* \"#utility.yul\":10533:10551   */\n      add\n        /* \"#utility.yul\":10524:10530   */\n      dup8\n        /* \"#utility.yul\":10482:10552   */\n      tag_159\n      jump\t// in\n    tag_275:\n        /* \"#utility.yul\":10562:10632   */\n      tag_276\n        /* \"#utility.yul\":10628:10630   */\n      0x40\n        /* \"#utility.yul\":10617:10626   */\n      dup4\n        /* \"#utility.yul\":10613:10631   */\n      add\n        /* \"#utility.yul\":10604:10610   */\n      dup7\n        /* \"#utility.yul\":10562:10632   */\n      tag_161\n      jump\t// in\n    tag_276:\n        /* \"#utility.yul\":10642:10712   */\n      tag_277\n        /* \"#utility.yul\":10708:10710   */\n      0x60\n        /* \"#utility.yul\":10697:10706   */\n      dup4\n        /* \"#utility.yul\":10693:10711   */\n      add\n        /* \"#utility.yul\":10684:10690   */\n      dup6\n        /* \"#utility.yul\":10642:10712   */\n      tag_163\n      jump\t// in\n    tag_277:\n        /* \"#utility.yul\":10722:10793   */\n      tag_278\n        /* \"#utility.yul\":10788:10791   */\n      0x80\n        /* \"#utility.yul\":10777:10786   */\n      dup4\n        /* \"#utility.yul\":10773:10792   */\n      add\n        /* \"#utility.yul\":10764:10770   */\n      dup5\n        /* \"#utility.yul\":10722:10793   */\n      tag_163\n      jump\t// in\n    tag_278:\n        /* \"#utility.yul\":10152:10800   */\n      swap7\n      swap6\n      pop\n      pop\n      pop\n      pop\n      pop\n      pop\n      jump\t// out\n        /* \"#utility.yul\":10806:10949   */\n    tag_164:\n        /* \"#utility.yul\":10863:10868   */\n      0x00\n        /* \"#utility.yul\":10894:10900   */\n      dup2\n        /* \"#utility.yul\":10888:10901   */\n      mload\n        /* \"#utility.yul\":10879:10901   */\n      swap1\n      pop\n        /* \"#utility.yul\":10910:10943   */\n      tag_280\n        /* \"#utility.yul\":10937:10942   */\n      dup2\n        /* \"#utility.yul\":10910:10943   */\n      tag_133\n      jump\t// in\n    tag_280:\n        /* \"#utility.yul\":10806:10949   */\n      swap3\n      swap2\n      pop\n      pop\n      jump\t// out\n        /* \"#utility.yul\":10955:11306   */\n    tag_115:\n        /* \"#utility.yul\":11025:11031   */\n      0x00\n        /* \"#utility.yul\":11074:11076   */\n      0x20\n        /* \"#utility.yul\":11062:11071   */\n      dup3\n        /* \"#utility.yul\":11053:11060   */\n      dup5\n        /* \"#utility.yul\":11049:11072   */\n      sub\n        /* \"#utility.yul\":11045:11077   */\n      slt\n        /* \"#utility.yul\":11042:11161   */\n      iszero\n      tag_282\n      jumpi\n        /* \"#utility.yul\":11080:11159   */\n      tag_283\n      tag_131\n      jump\t// in\n    tag_283:\n        /* \"#utility.yul\":11042:11161   */\n    tag_282:\n        /* \"#utility.yul\":11200:11201   */\n      0x00\n        /* \"#utility.yul\":11225:11289   */\n      tag_284\n        /* \"#utility.yul\":11281:11288   */\n      dup5\n        /* \"#utility.yul\":11272:11278   */\n      dup3\n        /* \"#utility.yul\":11261:11270   */\n      dup6\n        /* \"#utility.yul\":11257:11279   */\n      add\n        /* \"#utility.yul\":11225:11289   */\n      tag_164\n      jump\t// in\n    tag_284:\n        /* \"#utility.yul\":11215:11289   */\n      swap2\n      pop\n        /* \"#utility.yul\":11171:11299   */\n      pop\n        /* \"#utility.yul\":10955:11306   */\n      swap3\n      swap2\n      pop\n      pop\n      jump\t// out\n        /* \"#utility.yul\":11312:11488   */\n    tag_117:\n        /* \"#utility.yul\":11344:11345   */\n      0x00\n        /* \"#utility.yul\":11361:11381   */\n      tag_286\n        /* \"#utility.yul\":11379:11380   */\n      dup3\n        /* \"#utility.yul\":11361:11381   */\n      tag_128\n      jump\t// in\n    tag_286:\n        /* \"#utility.yul\":11356:11381   */\n      swap2\n      pop\n        /* \"#utility.yul\":11395:11415   */\n      tag_287\n        /* \"#utility.yul\":11413:11414   */\n      dup4\n        /* \"#utility.yul\":11395:11415   */\n      tag_128\n      jump\t// in\n    tag_287:\n        /* \"#utility.yul\":11390:11415   */\n      swap3\n      pop\n        /* \"#utility.yul\":11434:11435   */\n      dup3\n        /* \"#utility.yul\":11424:11459   */\n      tag_288\n      jumpi\n        /* \"#utility.yul\":11439:11457   */\n      tag_289\n      tag_149\n      jump\t// in\n    tag_289:\n        /* \"#utility.yul\":11424:11459   */\n    tag_288:\n        /* \"#utility.yul\":11480:11481   */\n      dup3\n        /* \"#utility.yul\":11477:11478   */\n      dup3\n        /* \"#utility.yul\":11473:11482   */\n      mod\n        /* \"#utility.yul\":11468:11482   */\n      swap1\n      pop\n        /* \"#utility.yul\":11312:11488   */\n      swap3\n      swap2\n      pop\n      pop\n      jump\t// out\n        /* \"#utility.yul\":11494:11727   */\n    tag_120:\n        /* \"#utility.yul\":11533:11536   */\n      0x00\n        /* \"#utility.yul\":11556:11580   */\n      tag_291\n        /* \"#utility.yul\":11574:11579   */\n      dup3\n        /* \"#utility.yul\":11556:11580   */\n      tag_128\n      jump\t// in\n    tag_291:\n        /* \"#utility.yul\":11547:11580   */\n      swap2\n      pop\n        /* \"#utility.yul\":11602:11668   */\n      0xffffffffffffffffffffffffffffffffffffffffffffffffffffffffffffffff\n        /* \"#utility.yul\":11595:11600   */\n      dup3\n        /* \"#utility.yul\":11592:11669   */\n      sub\n        /* \"#utility.yul\":11589:11692   */\n      tag_292\n      jumpi\n        /* \"#utility.yul\":11672:11690   */\n      tag_293\n      tag_150\n      jump\t// in\n    tag_293:\n        /* \"#utility.yul\":11589:11692   */\n    tag_292:\n        /* \"#utility.yul\":11719:11720   */\n      0x01\n        /* \"#utility.yul\":11712:11717   */\n      dup3\n        /* \"#utility.yul\":11708:11721   */\n      add\n        /* \"#utility.yul\":11701:11721   */\n      swap1\n      pop\n        /* \"#utility.yul\":11494:11727   */\n      swap2\n      swap1\n      pop\n      jump\t// out\n\n    auxdata: 0xa2646970667358221220be86e72f0a006207bf17b47f9116e37c2a5d2b4f5e77e370c78bb0f79420515a64736f6c634300080f0033\n}\n",
				"bytecode": {
					"linkReferences": {},
					"object": "60a0604052620186a06000806101000a81548163ffffffff021916908363ffffffff1602179055506003600060046101000a81548161ffff021916908361ffff1602179055506002600060066101000a81548163ffffffff021916908363ffffffff16021790555033600360006101000a81548173ffffffffffffffffffffffffffffffffffffffff021916908373ffffffffffffffffffffffffffffffffffffffff16021790555060006008553480156100b957600080fd5b50736168499c0cffcacd319c818142124b7a15e857ab8073ffffffffffffffffffffffffffffffffffffffff1660808173ffffffffffffffffffffffffffffffffffffffff168152505050608051610fb2610126600039600081816102e001526103340152610fb26000f3fe6080604052600436106100a75760003560e01c80636fd09816116100645780636fd09816146101e357806394957985146101fa578063a59f3e0c14610225578063e580f47b14610241578063e89e106a1461026c578063f6eaffc814610297576100a7565b806312065fe0146100ac5780631fe543e3146100d7578063281d098d1461010057806332eb85a41461013d578063460e2049146101685780636d6fe230146101a6575b600080fd5b3480156100b857600080fd5b506100c16102d4565b6040516100ce9190610901565b60405180910390f35b3480156100e357600080fd5b506100fe60048036038101906100f99190610ab5565b6102de565b005b34801561010c57600080fd5b5061012760048036038101906101229190610b11565b61039e565b6040516101349190610b7f565b60405180910390f35b34801561014957600080fd5b506101526103db565b60405161015f9190610901565b60405180910390f35b34801561017457600080fd5b5061018f600480360381019061018a9190610b11565b6103e5565b60405161019d929190610b9a565b60405180910390f35b3480156101b257600080fd5b506101cd60048036038101906101c89190610b11565b610433565b6040516101da9190610b7f565b60405180910390f35b3480156101ef57600080fd5b506101f8610466565b005b34801561020657600080fd5b5061020f6104f8565b60405161021c9190610be4565b60405180910390f35b61023f600480360381019061023a9190610b11565b6104fd565b005b34801561024d57600080fd5b5061025661069c565b6040516102639190610901565b60405180910390f35b34801561027857600080fd5b506102816106a2565b60405161028e9190610901565b60405180910390f35b3480156102a357600080fd5b506102be60048036038101906102b99190610b11565b6106a8565b6040516102cb9190610901565b60405180910390f35b6000600954905090565b7f000000000000000000000000000000000000000000000000000000000000000073ffffffffffffffffffffffffffffffffffffffff163373ffffffffffffffffffffffffffffffffffffffff161461039057337f00000000000000000000000000000000000000000000000000000000000000006040517f1cf993f4000000000000000000000000000000000000000000000000000000008152600401610387929190610bff565b60405180910390fd5b61039a82826106cc565b5050565b60006005600083815260200190815260200160002060009054906101000a900473ffffffffffffffffffffffffffffffffffffffff169050919050565b6000600854905090565b60008060006007600085815260200190815260200160002090508060000160009054906101000a900473ffffffffffffffffffffffffffffffffffffffff1681600101549250925050915091565b60056020528060005260406000206000915054906101000a900473ffffffffffffffffffffffffffffffffffffffff1681565b600360009054906101000a900473ffffffffffffffffffffffffffffffffffffffff1673ffffffffffffffffffffffffffffffffffffffff163373ffffffffffffffffffffffffffffffffffffffff16146104c057600080fd5b6104c86106e7565b600060066000600a548152602001908152602001600020600001805490506009546104f39190610c86565b905050565b600090565b60023411610540576040517f08c379a000000000000000000000000000000000000000000000000000000000815260040161053790610d14565b60405180910390fd5b34600960008282546105529190610d34565b925050819055506001811015801561056b5750600a8111155b6105aa576040517f08c379a00000000000000000000000000000000000000000000000000000000081526004016105a190610dd6565b60405180910390fd5b60006007600060085481526020019081526020016000209050338160000160006101000a81548173ffffffffffffffffffffffffffffffffffffffff021916908373ffffffffffffffffffffffffffffffffffffffff16021790555081816001018190555060006006600083600101548152602001908152602001600020905080600001339080600181540180825580915050600190039060005260206000200160009091909190916101000a81548173ffffffffffffffffffffffffffffffffffffffff021916908373ffffffffffffffffffffffffffffffffffffffff160217905550610697610864565b505050565b60045481565b60025481565b600181815481106106b857600080fd5b906000526020600020016000915090505481565b80600190805190602001906106e292919061087e565b505050565b600360009054906101000a900473ffffffffffffffffffffffffffffffffffffffff1673ffffffffffffffffffffffffffffffffffffffff163373ffffffffffffffffffffffffffffffffffffffff161461074157600080fd5b600854736168499c0cffcacd319c818142124b7a15e857ab73ffffffffffffffffffffffffffffffffffffffff16635d3b1d307fd89b2bf150e3b9e13446986e571fb9cab24b13cea0a43ea20a6049a85cc807cc60001b611cca600060049054906101000a900461ffff1660008054906101000a900463ffffffff16600060069054906101000a900463ffffffff166040518663ffffffff1660e01b81526004016107f0959493929190610e6e565b6020604051808303816000875af115801561080f573d6000803e3d6000fd5b505050506040513d601f19601f820116820180604052508101906108339190610ed6565b61083d9190610f03565b60028190555060076000600254815260200190815260200160002060010154600a81905550565b6008600081548092919061087790610f34565b9190505550565b8280548282559060005260206000209081019282156108ba579160200282015b828111156108b957825182559160200191906001019061089e565b5b5090506108c791906108cb565b5090565b5b808211156108e45760008160009055506001016108cc565b5090565b6000819050919050565b6108fb816108e8565b82525050565b600060208201905061091660008301846108f2565b92915050565b6000604051905090565b600080fd5b600080fd5b610939816108e8565b811461094457600080fd5b50565b60008135905061095681610930565b92915050565b600080fd5b6000601f19601f8301169050919050565b7f4e487b7100000000000000000000000000000000000000000000000000000000600052604160045260246000fd5b6109aa82610961565b810181811067ffffffffffffffff821117156109c9576109c8610972565b5b80604052505050565b60006109dc61091c565b90506109e882826109a1565b919050565b600067ffffffffffffffff821115610a0857610a07610972565b5b602082029050602081019050919050565b600080fd5b6000610a31610a2c846109ed565b6109d2565b90508083825260208201905060208402830185811115610a5457610a53610a19565b5b835b81811015610a7d5780610a698882610947565b845260208401935050602081019050610a56565b5050509392505050565b600082601f830112610a9c57610a9b61095c565b5b8135610aac848260208601610a1e565b91505092915050565b60008060408385031215610acc57610acb610926565b5b6000610ada85828601610947565b925050602083013567ffffffffffffffff811115610afb57610afa61092b565b5b610b0785828601610a87565b9150509250929050565b600060208284031215610b2757610b26610926565b5b6000610b3584828501610947565b91505092915050565b600073ffffffffffffffffffffffffffffffffffffffff82169050919050565b6000610b6982610b3e565b9050919050565b610b7981610b5e565b82525050565b6000602082019050610b946000830184610b70565b92915050565b6000604082019050610baf6000830185610b70565b610bbc60208301846108f2565b9392505050565b6000610bce82610b3e565b9050919050565b610bde81610bc3565b82525050565b6000602082019050610bf96000830184610bd5565b92915050565b6000604082019050610c146000830185610bd5565b610c216020830184610bd5565b9392505050565b7f4e487b7100000000000000000000000000000000000000000000000000000000600052601260045260246000fd5b7f4e487b7100000000000000000000000000000000000000000000000000000000600052601160045260246000fd5b6000610c91826108e8565b9150610c9c836108e8565b925082610cac57610cab610c28565b5b828204905092915050565b600082825260208201905092915050565b7f4e6f7420656e6f75676820746f6b656e00000000000000000000000000000000600082015250565b6000610cfe601083610cb7565b9150610d0982610cc8565b602082019050919050565b60006020820190508181036000830152610d2d81610cf1565b9050919050565b6000610d3f826108e8565b9150610d4a836108e8565b9250827fffffffffffffffffffffffffffffffffffffffffffffffffffffffffffffffff03821115610d7f57610d7e610c57565b5b828201905092915050565b7f4e756d626572207469636b6574206f7574206f662072616e6765000000000000600082015250565b6000610dc0601a83610cb7565b9150610dcb82610d8a565b602082019050919050565b60006020820190508181036000830152610def81610db3565b9050919050565b6000819050919050565b610e0981610df6565b82525050565b600067ffffffffffffffff82169050919050565b610e2c81610e0f565b82525050565b600061ffff82169050919050565b610e4981610e32565b82525050565b600063ffffffff82169050919050565b610e6881610e4f565b82525050565b600060a082019050610e836000830188610e00565b610e906020830187610e23565b610e9d6040830186610e40565b610eaa6060830185610e5f565b610eb76080830184610e5f565b9695505050505050565b600081519050610ed081610930565b92915050565b600060208284031215610eec57610eeb610926565b5b6000610efa84828501610ec1565b91505092915050565b6000610f0e826108e8565b9150610f19836108e8565b925082610f2957610f28610c28565b5b828206905092915050565b6000610f3f826108e8565b91507fffffffffffffffffffffffffffffffffffffffffffffffffffffffffffffffff8203610f7157610f70610c57565b5b60018201905091905056fea2646970667358221220be86e72f0a006207bf17b47f9116e37c2a5d2b4f5e77e370c78bb0f79420515a64736f6c634300080f0033",
					"opcodes": "PUSH1 0xA0 PUSH1 0x40 MSTORE PUSH3 0x186A0 PUSH1 0x0 DUP1 PUSH2 0x100 EXP DUP2 SLOAD DUP2 PUSH4 0xFFFFFFFF MUL NOT AND SWAP1 DUP4 PUSH4 0xFFFFFFFF AND MUL OR SWAP1 SSTORE POP PUSH1 0x3 PUSH1 0x0 PUSH1 0x4 PUSH2 0x100 EXP DUP2 SLOAD DUP2 PUSH2 0xFFFF MUL NOT AND SWAP1 DUP4 PUSH2 0xFFFF AND MUL OR SWAP1 SSTORE POP PUSH1 0x2 PUSH1 0x0 PUSH1 0x6 PUSH2 0x100 EXP DUP2 SLOAD DUP2 PUSH4 0xFFFFFFFF MUL NOT AND SWAP1 DUP4 PUSH4 0xFFFFFFFF AND MUL OR SWAP1 SSTORE POP CALLER PUSH1 0x3 PUSH1 0x0 PUSH2 0x100 EXP DUP2 SLOAD DUP2 PUSH20 0xFFFFFFFFFFFFFFFFFFFFFFFFFFFFFFFFFFFFFFFF MUL NOT AND SWAP1 DUP4 PUSH20 0xFFFFFFFFFFFFFFFFFFFFFFFFFFFFFFFFFFFFFFFF AND MUL OR SWAP1 SSTORE POP PUSH1 0x0 PUSH1 0x8 SSTORE CALLVALUE DUP1 ISZERO PUSH2 0xB9 JUMPI PUSH1 0x0 DUP1 REVERT JUMPDEST POP PUSH20 0x6168499C0CFFCACD319C818142124B7A15E857AB DUP1 PUSH20 0xFFFFFFFFFFFFFFFFFFFFFFFFFFFFFFFFFFFFFFFF AND PUSH1 0x80 DUP2 PUSH20 0xFFFFFFFFFFFFFFFFFFFFFFFFFFFFFFFFFFFFFFFF AND DUP2 MSTORE POP POP POP PUSH1 0x80 MLOAD PUSH2 0xFB2 PUSH2 0x126 PUSH1 0x0 CODECOPY PUSH1 0x0 DUP2 DUP2 PUSH2 0x2E0 ADD MSTORE PUSH2 0x334 ADD MSTORE PUSH2 0xFB2 PUSH1 0x0 RETURN INVALID PUSH1 0x80 PUSH1 0x40 MSTORE PUSH1 0x4 CALLDATASIZE LT PUSH2 0xA7 JUMPI PUSH1 0x0 CALLDATALOAD PUSH1 0xE0 SHR DUP1 PUSH4 0x6FD09816 GT PUSH2 0x64 JUMPI DUP1 PUSH4 0x6FD09816 EQ PUSH2 0x1E3 JUMPI DUP1 PUSH4 0x94957985 EQ PUSH2 0x1FA JUMPI DUP1 PUSH4 0xA59F3E0C EQ PUSH2 0x225 JUMPI DUP1 PUSH4 0xE580F47B EQ PUSH2 0x241 JUMPI DUP1 PUSH4 0xE89E106A EQ PUSH2 0x26C JUMPI DUP1 PUSH4 0xF6EAFFC8 EQ PUSH2 0x297 JUMPI PUSH2 0xA7 JUMP JUMPDEST DUP1 PUSH4 0x12065FE0 EQ PUSH2 0xAC JUMPI DUP1 PUSH4 0x1FE543E3 EQ PUSH2 0xD7 JUMPI DUP1 PUSH4 0x281D098D EQ PUSH2 0x100 JUMPI DUP1 PUSH4 0x32EB85A4 EQ PUSH2 0x13D JUMPI DUP1 PUSH4 0x460E2049 EQ PUSH2 0x168 JUMPI DUP1 PUSH4 0x6D6FE230 EQ PUSH2 0x1A6 JUMPI JUMPDEST PUSH1 0x0 DUP1 REVERT JUMPDEST CALLVALUE DUP1 ISZERO PUSH2 0xB8 JUMPI PUSH1 0x0 DUP1 REVERT JUMPDEST POP PUSH2 0xC1 PUSH2 0x2D4 JUMP JUMPDEST PUSH1 0x40 MLOAD PUSH2 0xCE SWAP2 SWAP1 PUSH2 0x901 JUMP JUMPDEST PUSH1 0x40 MLOAD DUP1 SWAP2 SUB SWAP1 RETURN JUMPDEST CALLVALUE DUP1 ISZERO PUSH2 0xE3 JUMPI PUSH1 0x0 DUP1 REVERT JUMPDEST POP PUSH2 0xFE PUSH1 0x4 DUP1 CALLDATASIZE SUB DUP2 ADD SWAP1 PUSH2 0xF9 SWAP2 SWAP1 PUSH2 0xAB5 JUMP JUMPDEST PUSH2 0x2DE JUMP JUMPDEST STOP JUMPDEST CALLVALUE DUP1 ISZERO PUSH2 0x10C JUMPI PUSH1 0x0 DUP1 REVERT JUMPDEST POP PUSH2 0x127 PUSH1 0x4 DUP1 CALLDATASIZE SUB DUP2 ADD SWAP1 PUSH2 0x122 SWAP2 SWAP1 PUSH2 0xB11 JUMP JUMPDEST PUSH2 0x39E JUMP JUMPDEST PUSH1 0x40 MLOAD PUSH2 0x134 SWAP2 SWAP1 PUSH2 0xB7F JUMP JUMPDEST PUSH1 0x40 MLOAD DUP1 SWAP2 SUB SWAP1 RETURN JUMPDEST CALLVALUE DUP1 ISZERO PUSH2 0x149 JUMPI PUSH1 0x0 DUP1 REVERT JUMPDEST POP PUSH2 0x152 PUSH2 0x3DB JUMP JUMPDEST PUSH1 0x40 MLOAD PUSH2 0x15F SWAP2 SWAP1 PUSH2 0x901 JUMP JUMPDEST PUSH1 0x40 MLOAD DUP1 SWAP2 SUB SWAP1 RETURN JUMPDEST CALLVALUE DUP1 ISZERO PUSH2 0x174 JUMPI PUSH1 0x0 DUP1 REVERT JUMPDEST POP PUSH2 0x18F PUSH1 0x4 DUP1 CALLDATASIZE SUB DUP2 ADD SWAP1 PUSH2 0x18A SWAP2 SWAP1 PUSH2 0xB11 JUMP JUMPDEST PUSH2 0x3E5 JUMP JUMPDEST PUSH1 0x40 MLOAD PUSH2 0x19D SWAP3 SWAP2 SWAP1 PUSH2 0xB9A JUMP JUMPDEST PUSH1 0x40 MLOAD DUP1 SWAP2 SUB SWAP1 RETURN JUMPDEST CALLVALUE DUP1 ISZERO PUSH2 0x1B2 JUMPI PUSH1 0x0 DUP1 REVERT JUMPDEST POP PUSH2 0x1CD PUSH1 0x4 DUP1 CALLDATASIZE SUB DUP2 ADD SWAP1 PUSH2 0x1C8 SWAP2 SWAP1 PUSH2 0xB11 JUMP JUMPDEST PUSH2 0x433 JUMP JUMPDEST PUSH1 0x40 MLOAD PUSH2 0x1DA SWAP2 SWAP1 PUSH2 0xB7F JUMP JUMPDEST PUSH1 0x40 MLOAD DUP1 SWAP2 SUB SWAP1 RETURN JUMPDEST CALLVALUE DUP1 ISZERO PUSH2 0x1EF JUMPI PUSH1 0x0 DUP1 REVERT JUMPDEST POP PUSH2 0x1F8 PUSH2 0x466 JUMP JUMPDEST STOP JUMPDEST CALLVALUE DUP1 ISZERO PUSH2 0x206 JUMPI PUSH1 0x0 DUP1 REVERT JUMPDEST POP PUSH2 0x20F PUSH2 0x4F8 JUMP JUMPDEST PUSH1 0x40 MLOAD PUSH2 0x21C SWAP2 SWAP1 PUSH2 0xBE4 JUMP JUMPDEST PUSH1 0x40 MLOAD DUP1 SWAP2 SUB SWAP1 RETURN JUMPDEST PUSH2 0x23F PUSH1 0x4 DUP1 CALLDATASIZE SUB DUP2 ADD SWAP1 PUSH2 0x23A SWAP2 SWAP1 PUSH2 0xB11 JUMP JUMPDEST PUSH2 0x4FD JUMP JUMPDEST STOP JUMPDEST CALLVALUE DUP1 ISZERO PUSH2 0x24D JUMPI PUSH1 0x0 DUP1 REVERT JUMPDEST POP PUSH2 0x256 PUSH2 0x69C JUMP JUMPDEST PUSH1 0x40 MLOAD PUSH2 0x263 SWAP2 SWAP1 PUSH2 0x901 JUMP JUMPDEST PUSH1 0x40 MLOAD DUP1 SWAP2 SUB SWAP1 RETURN JUMPDEST CALLVALUE DUP1 ISZERO PUSH2 0x278 JUMPI PUSH1 0x0 DUP1 REVERT JUMPDEST POP PUSH2 0x281 PUSH2 0x6A2 JUMP JUMPDEST PUSH1 0x40 MLOAD PUSH2 0x28E SWAP2 SWAP1 PUSH2 0x901 JUMP JUMPDEST PUSH1 0x40 MLOAD DUP1 SWAP2 SUB SWAP1 RETURN JUMPDEST CALLVALUE DUP1 ISZERO PUSH2 0x2A3 JUMPI PUSH1 0x0 DUP1 REVERT JUMPDEST POP PUSH2 0x2BE PUSH1 0x4 DUP1 CALLDATASIZE SUB DUP2 ADD SWAP1 PUSH2 0x2B9 SWAP2 SWAP1 PUSH2 0xB11 JUMP JUMPDEST PUSH2 0x6A8 JUMP JUMPDEST PUSH1 0x40 MLOAD PUSH2 0x2CB SWAP2 SWAP1 PUSH2 0x901 JUMP JUMPDEST PUSH1 0x40 MLOAD DUP1 SWAP2 SUB SWAP1 RETURN JUMPDEST PUSH1 0x0 PUSH1 0x9 SLOAD SWAP1 POP SWAP1 JUMP JUMPDEST PUSH32 0x0 PUSH20 0xFFFFFFFFFFFFFFFFFFFFFFFFFFFFFFFFFFFFFFFF AND CALLER PUSH20 0xFFFFFFFFFFFFFFFFFFFFFFFFFFFFFFFFFFFFFFFF AND EQ PUSH2 0x390 JUMPI CALLER PUSH32 0x0 PUSH1 0x40 MLOAD PUSH32 0x1CF993F400000000000000000000000000000000000000000000000000000000 DUP2 MSTORE PUSH1 0x4 ADD PUSH2 0x387 SWAP3 SWAP2 SWAP1 PUSH2 0xBFF JUMP JUMPDEST PUSH1 0x40 MLOAD DUP1 SWAP2 SUB SWAP1 REVERT JUMPDEST PUSH2 0x39A DUP3 DUP3 PUSH2 0x6CC JUMP JUMPDEST POP POP JUMP JUMPDEST PUSH1 0x0 PUSH1 0x5 PUSH1 0x0 DUP4 DUP2 MSTORE PUSH1 0x20 ADD SWAP1 DUP2 MSTORE PUSH1 0x20 ADD PUSH1 0x0 KECCAK256 PUSH1 0x0 SWAP1 SLOAD SWAP1 PUSH2 0x100 EXP SWAP1 DIV PUSH20 0xFFFFFFFFFFFFFFFFFFFFFFFFFFFFFFFFFFFFFFFF AND SWAP1 POP SWAP2 SWAP1 POP JUMP JUMPDEST PUSH1 0x0 PUSH1 0x8 SLOAD SWAP1 POP SWAP1 JUMP JUMPDEST PUSH1 0x0 DUP1 PUSH1 0x0 PUSH1 0x7 PUSH1 0x0 DUP6 DUP2 MSTORE PUSH1 0x20 ADD SWAP1 DUP2 MSTORE PUSH1 0x20 ADD PUSH1 0x0 KECCAK256 SWAP1 POP DUP1 PUSH1 0x0 ADD PUSH1 0x0 SWAP1 SLOAD SWAP1 PUSH2 0x100 EXP SWAP1 DIV PUSH20 0xFFFFFFFFFFFFFFFFFFFFFFFFFFFFFFFFFFFFFFFF AND DUP2 PUSH1 0x1 ADD SLOAD SWAP3 POP SWAP3 POP POP SWAP2 POP SWAP2 JUMP JUMPDEST PUSH1 0x5 PUSH1 0x20 MSTORE DUP1 PUSH1 0x0 MSTORE PUSH1 0x40 PUSH1 0x0 KECCAK256 PUSH1 0x0 SWAP2 POP SLOAD SWAP1 PUSH2 0x100 EXP SWAP1 DIV PUSH20 0xFFFFFFFFFFFFFFFFFFFFFFFFFFFFFFFFFFFFFFFF AND DUP2 JUMP JUMPDEST PUSH1 0x3 PUSH1 0x0 SWAP1 SLOAD SWAP1 PUSH2 0x100 EXP SWAP1 DIV PUSH20 0xFFFFFFFFFFFFFFFFFFFFFFFFFFFFFFFFFFFFFFFF AND PUSH20 0xFFFFFFFFFFFFFFFFFFFFFFFFFFFFFFFFFFFFFFFF AND CALLER PUSH20 0xFFFFFFFFFFFFFFFFFFFFFFFFFFFFFFFFFFFFFFFF AND EQ PUSH2 0x4C0 JUMPI PUSH1 0x0 DUP1 REVERT JUMPDEST PUSH2 0x4C8 PUSH2 0x6E7 JUMP JUMPDEST PUSH1 0x0 PUSH1 0x6 PUSH1 0x0 PUSH1 0xA SLOAD DUP2 MSTORE PUSH1 0x20 ADD SWAP1 DUP2 MSTORE PUSH1 0x20 ADD PUSH1 0x0 KECCAK256 PUSH1 0x0 ADD DUP1 SLOAD SWAP1 POP PUSH1 0x9 SLOAD PUSH2 0x4F3 SWAP2 SWAP1 PUSH2 0xC86 JUMP JUMPDEST SWAP1 POP POP JUMP JUMPDEST PUSH1 0x0 SWAP1 JUMP JUMPDEST PUSH1 0x2 CALLVALUE GT PUSH2 0x540 JUMPI PUSH1 0x40 MLOAD PUSH32 0x8C379A000000000000000000000000000000000000000000000000000000000 DUP2 MSTORE PUSH1 0x4 ADD PUSH2 0x537 SWAP1 PUSH2 0xD14 JUMP JUMPDEST PUSH1 0x40 MLOAD DUP1 SWAP2 SUB SWAP1 REVERT JUMPDEST CALLVALUE PUSH1 0x9 PUSH1 0x0 DUP3 DUP3 SLOAD PUSH2 0x552 SWAP2 SWAP1 PUSH2 0xD34 JUMP JUMPDEST SWAP3 POP POP DUP2 SWAP1 SSTORE POP PUSH1 0x1 DUP2 LT ISZERO DUP1 ISZERO PUSH2 0x56B JUMPI POP PUSH1 0xA DUP2 GT ISZERO JUMPDEST PUSH2 0x5AA JUMPI PUSH1 0x40 MLOAD PUSH32 0x8C379A000000000000000000000000000000000000000000000000000000000 DUP2 MSTORE PUSH1 0x4 ADD PUSH2 0x5A1 SWAP1 PUSH2 0xDD6 JUMP JUMPDEST PUSH1 0x40 MLOAD DUP1 SWAP2 SUB SWAP1 REVERT JUMPDEST PUSH1 0x0 PUSH1 0x7 PUSH1 0x0 PUSH1 0x8 SLOAD DUP2 MSTORE PUSH1 0x20 ADD SWAP1 DUP2 MSTORE PUSH1 0x20 ADD PUSH1 0x0 KECCAK256 SWAP1 POP CALLER DUP2 PUSH1 0x0 ADD PUSH1 0x0 PUSH2 0x100 EXP DUP2 SLOAD DUP2 PUSH20 0xFFFFFFFFFFFFFFFFFFFFFFFFFFFFFFFFFFFFFFFF MUL NOT AND SWAP1 DUP4 PUSH20 0xFFFFFFFFFFFFFFFFFFFFFFFFFFFFFFFFFFFFFFFF AND MUL OR SWAP1 SSTORE POP DUP2 DUP2 PUSH1 0x1 ADD DUP2 SWAP1 SSTORE POP PUSH1 0x0 PUSH1 0x6 PUSH1 0x0 DUP4 PUSH1 0x1 ADD SLOAD DUP2 MSTORE PUSH1 0x20 ADD SWAP1 DUP2 MSTORE PUSH1 0x20 ADD PUSH1 0x0 KECCAK256 SWAP1 POP DUP1 PUSH1 0x0 ADD CALLER SWAP1 DUP1 PUSH1 0x1 DUP2 SLOAD ADD DUP1 DUP3 SSTORE DUP1 SWAP2 POP POP PUSH1 0x1 SWAP1 SUB SWAP1 PUSH1 0x0 MSTORE PUSH1 0x20 PUSH1 0x0 KECCAK256 ADD PUSH1 0x0 SWAP1 SWAP2 SWAP1 SWAP2 SWAP1 SWAP2 PUSH2 0x100 EXP DUP2 SLOAD DUP2 PUSH20 0xFFFFFFFFFFFFFFFFFFFFFFFFFFFFFFFFFFFFFFFF MUL NOT AND SWAP1 DUP4 PUSH20 0xFFFFFFFFFFFFFFFFFFFFFFFFFFFFFFFFFFFFFFFF AND MUL OR SWAP1 SSTORE POP PUSH2 0x697 PUSH2 0x864 JUMP JUMPDEST POP POP POP JUMP JUMPDEST PUSH1 0x4 SLOAD DUP2 JUMP JUMPDEST PUSH1 0x2 SLOAD DUP2 JUMP JUMPDEST PUSH1 0x1 DUP2 DUP2 SLOAD DUP2 LT PUSH2 0x6B8 JUMPI PUSH1 0x0 DUP1 REVERT JUMPDEST SWAP1 PUSH1 0x0 MSTORE PUSH1 0x20 PUSH1 0x0 KECCAK256 ADD PUSH1 0x0 SWAP2 POP SWAP1 POP SLOAD DUP2 JUMP JUMPDEST DUP1 PUSH1 0x1 SWAP1 DUP1 MLOAD SWAP1 PUSH1 0x20 ADD SWAP1 PUSH2 0x6E2 SWAP3 SWAP2 SWAP1 PUSH2 0x87E JUMP JUMPDEST POP POP POP JUMP JUMPDEST PUSH1 0x3 PUSH1 0x0 SWAP1 SLOAD SWAP1 PUSH2 0x100 EXP SWAP1 DIV PUSH20 0xFFFFFFFFFFFFFFFFFFFFFFFFFFFFFFFFFFFFFFFF AND PUSH20 0xFFFFFFFFFFFFFFFFFFFFFFFFFFFFFFFFFFFFFFFF AND CALLER PUSH20 0xFFFFFFFFFFFFFFFFFFFFFFFFFFFFFFFFFFFFFFFF AND EQ PUSH2 0x741 JUMPI PUSH1 0x0 DUP1 REVERT JUMPDEST PUSH1 0x8 SLOAD PUSH20 0x6168499C0CFFCACD319C818142124B7A15E857AB PUSH20 0xFFFFFFFFFFFFFFFFFFFFFFFFFFFFFFFFFFFFFFFF AND PUSH4 0x5D3B1D30 PUSH32 0xD89B2BF150E3B9E13446986E571FB9CAB24B13CEA0A43EA20A6049A85CC807CC PUSH1 0x0 SHL PUSH2 0x1CCA PUSH1 0x0 PUSH1 0x4 SWAP1 SLOAD SWAP1 PUSH2 0x100 EXP SWAP1 DIV PUSH2 0xFFFF AND PUSH1 0x0 DUP1 SLOAD SWAP1 PUSH2 0x100 EXP SWAP1 DIV PUSH4 0xFFFFFFFF AND PUSH1 0x0 PUSH1 0x6 SWAP1 SLOAD SWAP1 PUSH2 0x100 EXP SWAP1 DIV PUSH4 0xFFFFFFFF AND PUSH1 0x40 MLOAD DUP7 PUSH4 0xFFFFFFFF AND PUSH1 0xE0 SHL DUP2 MSTORE PUSH1 0x4 ADD PUSH2 0x7F0 SWAP6 SWAP5 SWAP4 SWAP3 SWAP2 SWAP1 PUSH2 0xE6E JUMP JUMPDEST PUSH1 0x20 PUSH1 0x40 MLOAD DUP1 DUP4 SUB DUP2 PUSH1 0x0 DUP8 GAS CALL ISZERO DUP1 ISZERO PUSH2 0x80F JUMPI RETURNDATASIZE PUSH1 0x0 DUP1 RETURNDATACOPY RETURNDATASIZE PUSH1 0x0 REVERT JUMPDEST POP POP POP POP PUSH1 0x40 MLOAD RETURNDATASIZE PUSH1 0x1F NOT PUSH1 0x1F DUP3 ADD AND DUP3 ADD DUP1 PUSH1 0x40 MSTORE POP DUP2 ADD SWAP1 PUSH2 0x833 SWAP2 SWAP1 PUSH2 0xED6 JUMP JUMPDEST PUSH2 0x83D SWAP2 SWAP1 PUSH2 0xF03 JUMP JUMPDEST PUSH1 0x2 DUP2 SWAP1 SSTORE POP PUSH1 0x7 PUSH1 0x0 PUSH1 0x2 SLOAD DUP2 MSTORE PUSH1 0x20 ADD SWAP1 DUP2 MSTORE PUSH1 0x20 ADD PUSH1 0x0 KECCAK256 PUSH1 0x1 ADD SLOAD PUSH1 0xA DUP2 SWAP1 SSTORE POP JUMP JUMPDEST PUSH1 0x8 PUSH1 0x0 DUP2 SLOAD DUP1 SWAP3 SWAP2 SWAP1 PUSH2 0x877 SWAP1 PUSH2 0xF34 JUMP JUMPDEST SWAP2 SWAP1 POP SSTORE POP JUMP JUMPDEST DUP3 DUP1 SLOAD DUP3 DUP3 SSTORE SWAP1 PUSH1 0x0 MSTORE PUSH1 0x20 PUSH1 0x0 KECCAK256 SWAP1 DUP2 ADD SWAP3 DUP3 ISZERO PUSH2 0x8BA JUMPI SWAP2 PUSH1 0x20 MUL DUP3 ADD JUMPDEST DUP3 DUP2 GT ISZERO PUSH2 0x8B9 JUMPI DUP3 MLOAD DUP3 SSTORE SWAP2 PUSH1 0x20 ADD SWAP2 SWAP1 PUSH1 0x1 ADD SWAP1 PUSH2 0x89E JUMP JUMPDEST JUMPDEST POP SWAP1 POP PUSH2 0x8C7 SWAP2 SWAP1 PUSH2 0x8CB JUMP JUMPDEST POP SWAP1 JUMP JUMPDEST JUMPDEST DUP1 DUP3 GT ISZERO PUSH2 0x8E4 JUMPI PUSH1 0x0 DUP2 PUSH1 0x0 SWAP1 SSTORE POP PUSH1 0x1 ADD PUSH2 0x8CC JUMP JUMPDEST POP SWAP1 JUMP JUMPDEST PUSH1 0x0 DUP2 SWAP1 POP SWAP2 SWAP1 POP JUMP JUMPDEST PUSH2 0x8FB DUP2 PUSH2 0x8E8 JUMP JUMPDEST DUP3 MSTORE POP POP JUMP JUMPDEST PUSH1 0x0 PUSH1 0x20 DUP3 ADD SWAP1 POP PUSH2 0x916 PUSH1 0x0 DUP4 ADD DUP5 PUSH2 0x8F2 JUMP JUMPDEST SWAP3 SWAP2 POP POP JUMP JUMPDEST PUSH1 0x0 PUSH1 0x40 MLOAD SWAP1 POP SWAP1 JUMP JUMPDEST PUSH1 0x0 DUP1 REVERT JUMPDEST PUSH1 0x0 DUP1 REVERT JUMPDEST PUSH2 0x939 DUP2 PUSH2 0x8E8 JUMP JUMPDEST DUP2 EQ PUSH2 0x944 JUMPI PUSH1 0x0 DUP1 REVERT JUMPDEST POP JUMP JUMPDEST PUSH1 0x0 DUP2 CALLDATALOAD SWAP1 POP PUSH2 0x956 DUP2 PUSH2 0x930 JUMP JUMPDEST SWAP3 SWAP2 POP POP JUMP JUMPDEST PUSH1 0x0 DUP1 REVERT JUMPDEST PUSH1 0x0 PUSH1 0x1F NOT PUSH1 0x1F DUP4 ADD AND SWAP1 POP SWAP2 SWAP1 POP JUMP JUMPDEST PUSH32 0x4E487B7100000000000000000000000000000000000000000000000000000000 PUSH1 0x0 MSTORE PUSH1 0x41 PUSH1 0x4 MSTORE PUSH1 0x24 PUSH1 0x0 REVERT JUMPDEST PUSH2 0x9AA DUP3 PUSH2 0x961 JUMP JUMPDEST DUP2 ADD DUP2 DUP2 LT PUSH8 0xFFFFFFFFFFFFFFFF DUP3 GT OR ISZERO PUSH2 0x9C9 JUMPI PUSH2 0x9C8 PUSH2 0x972 JUMP JUMPDEST JUMPDEST DUP1 PUSH1 0x40 MSTORE POP POP POP JUMP JUMPDEST PUSH1 0x0 PUSH2 0x9DC PUSH2 0x91C JUMP JUMPDEST SWAP1 POP PUSH2 0x9E8 DUP3 DUP3 PUSH2 0x9A1 JUMP JUMPDEST SWAP2 SWAP1 POP JUMP JUMPDEST PUSH1 0x0 PUSH8 0xFFFFFFFFFFFFFFFF DUP3 GT ISZERO PUSH2 0xA08 JUMPI PUSH2 0xA07 PUSH2 0x972 JUMP JUMPDEST JUMPDEST PUSH1 0x20 DUP3 MUL SWAP1 POP PUSH1 0x20 DUP2 ADD SWAP1 POP SWAP2 SWAP1 POP JUMP JUMPDEST PUSH1 0x0 DUP1 REVERT JUMPDEST PUSH1 0x0 PUSH2 0xA31 PUSH2 0xA2C DUP5 PUSH2 0x9ED JUMP JUMPDEST PUSH2 0x9D2 JUMP JUMPDEST SWAP1 POP DUP1 DUP4 DUP3 MSTORE PUSH1 0x20 DUP3 ADD SWAP1 POP PUSH1 0x20 DUP5 MUL DUP4 ADD DUP6 DUP2 GT ISZERO PUSH2 0xA54 JUMPI PUSH2 0xA53 PUSH2 0xA19 JUMP JUMPDEST JUMPDEST DUP4 JUMPDEST DUP2 DUP2 LT ISZERO PUSH2 0xA7D JUMPI DUP1 PUSH2 0xA69 DUP9 DUP3 PUSH2 0x947 JUMP JUMPDEST DUP5 MSTORE PUSH1 0x20 DUP5 ADD SWAP4 POP POP PUSH1 0x20 DUP2 ADD SWAP1 POP PUSH2 0xA56 JUMP JUMPDEST POP POP POP SWAP4 SWAP3 POP POP POP JUMP JUMPDEST PUSH1 0x0 DUP3 PUSH1 0x1F DUP4 ADD SLT PUSH2 0xA9C JUMPI PUSH2 0xA9B PUSH2 0x95C JUMP JUMPDEST JUMPDEST DUP2 CALLDATALOAD PUSH2 0xAAC DUP5 DUP3 PUSH1 0x20 DUP7 ADD PUSH2 0xA1E JUMP JUMPDEST SWAP2 POP POP SWAP3 SWAP2 POP POP JUMP JUMPDEST PUSH1 0x0 DUP1 PUSH1 0x40 DUP4 DUP6 SUB SLT ISZERO PUSH2 0xACC JUMPI PUSH2 0xACB PUSH2 0x926 JUMP JUMPDEST JUMPDEST PUSH1 0x0 PUSH2 0xADA DUP6 DUP3 DUP7 ADD PUSH2 0x947 JUMP JUMPDEST SWAP3 POP POP PUSH1 0x20 DUP4 ADD CALLDATALOAD PUSH8 0xFFFFFFFFFFFFFFFF DUP2 GT ISZERO PUSH2 0xAFB JUMPI PUSH2 0xAFA PUSH2 0x92B JUMP JUMPDEST JUMPDEST PUSH2 0xB07 DUP6 DUP3 DUP7 ADD PUSH2 0xA87 JUMP JUMPDEST SWAP2 POP POP SWAP3 POP SWAP3 SWAP1 POP JUMP JUMPDEST PUSH1 0x0 PUSH1 0x20 DUP3 DUP5 SUB SLT ISZERO PUSH2 0xB27 JUMPI PUSH2 0xB26 PUSH2 0x926 JUMP JUMPDEST JUMPDEST PUSH1 0x0 PUSH2 0xB35 DUP5 DUP3 DUP6 ADD PUSH2 0x947 JUMP JUMPDEST SWAP2 POP POP SWAP3 SWAP2 POP POP JUMP JUMPDEST PUSH1 0x0 PUSH20 0xFFFFFFFFFFFFFFFFFFFFFFFFFFFFFFFFFFFFFFFF DUP3 AND SWAP1 POP SWAP2 SWAP1 POP JUMP JUMPDEST PUSH1 0x0 PUSH2 0xB69 DUP3 PUSH2 0xB3E JUMP JUMPDEST SWAP1 POP SWAP2 SWAP1 POP JUMP JUMPDEST PUSH2 0xB79 DUP2 PUSH2 0xB5E JUMP JUMPDEST DUP3 MSTORE POP POP JUMP JUMPDEST PUSH1 0x0 PUSH1 0x20 DUP3 ADD SWAP1 POP PUSH2 0xB94 PUSH1 0x0 DUP4 ADD DUP5 PUSH2 0xB70 JUMP JUMPDEST SWAP3 SWAP2 POP POP JUMP JUMPDEST PUSH1 0x0 PUSH1 0x40 DUP3 ADD SWAP1 POP PUSH2 0xBAF PUSH1 0x0 DUP4 ADD DUP6 PUSH2 0xB70 JUMP JUMPDEST PUSH2 0xBBC PUSH1 0x20 DUP4 ADD DUP5 PUSH2 0x8F2 JUMP JUMPDEST SWAP4 SWAP3 POP POP POP JUMP JUMPDEST PUSH1 0x0 PUSH2 0xBCE DUP3 PUSH2 0xB3E JUMP JUMPDEST SWAP1 POP SWAP2 SWAP1 POP JUMP JUMPDEST PUSH2 0xBDE DUP2 PUSH2 0xBC3 JUMP JUMPDEST DUP3 MSTORE POP POP JUMP JUMPDEST PUSH1 0x0 PUSH1 0x20 DUP3 ADD SWAP1 POP PUSH2 0xBF9 PUSH1 0x0 DUP4 ADD DUP5 PUSH2 0xBD5 JUMP JUMPDEST SWAP3 SWAP2 POP POP JUMP JUMPDEST PUSH1 0x0 PUSH1 0x40 DUP3 ADD SWAP1 POP PUSH2 0xC14 PUSH1 0x0 DUP4 ADD DUP6 PUSH2 0xBD5 JUMP JUMPDEST PUSH2 0xC21 PUSH1 0x20 DUP4 ADD DUP5 PUSH2 0xBD5 JUMP JUMPDEST SWAP4 SWAP3 POP POP POP JUMP JUMPDEST PUSH32 0x4E487B7100000000000000000000000000000000000000000000000000000000 PUSH1 0x0 MSTORE PUSH1 0x12 PUSH1 0x4 MSTORE PUSH1 0x24 PUSH1 0x0 REVERT JUMPDEST PUSH32 0x4E487B7100000000000000000000000000000000000000000000000000000000 PUSH1 0x0 MSTORE PUSH1 0x11 PUSH1 0x4 MSTORE PUSH1 0x24 PUSH1 0x0 REVERT JUMPDEST PUSH1 0x0 PUSH2 0xC91 DUP3 PUSH2 0x8E8 JUMP JUMPDEST SWAP2 POP PUSH2 0xC9C DUP4 PUSH2 0x8E8 JUMP JUMPDEST SWAP3 POP DUP3 PUSH2 0xCAC JUMPI PUSH2 0xCAB PUSH2 0xC28 JUMP JUMPDEST JUMPDEST DUP3 DUP3 DIV SWAP1 POP SWAP3 SWAP2 POP POP JUMP JUMPDEST PUSH1 0x0 DUP3 DUP3 MSTORE PUSH1 0x20 DUP3 ADD SWAP1 POP SWAP3 SWAP2 POP POP JUMP JUMPDEST PUSH32 0x4E6F7420656E6F75676820746F6B656E00000000000000000000000000000000 PUSH1 0x0 DUP3 ADD MSTORE POP JUMP JUMPDEST PUSH1 0x0 PUSH2 0xCFE PUSH1 0x10 DUP4 PUSH2 0xCB7 JUMP JUMPDEST SWAP2 POP PUSH2 0xD09 DUP3 PUSH2 0xCC8 JUMP JUMPDEST PUSH1 0x20 DUP3 ADD SWAP1 POP SWAP2 SWAP1 POP JUMP JUMPDEST PUSH1 0x0 PUSH1 0x20 DUP3 ADD SWAP1 POP DUP2 DUP2 SUB PUSH1 0x0 DUP4 ADD MSTORE PUSH2 0xD2D DUP2 PUSH2 0xCF1 JUMP JUMPDEST SWAP1 POP SWAP2 SWAP1 POP JUMP JUMPDEST PUSH1 0x0 PUSH2 0xD3F DUP3 PUSH2 0x8E8 JUMP JUMPDEST SWAP2 POP PUSH2 0xD4A DUP4 PUSH2 0x8E8 JUMP JUMPDEST SWAP3 POP DUP3 PUSH32 0xFFFFFFFFFFFFFFFFFFFFFFFFFFFFFFFFFFFFFFFFFFFFFFFFFFFFFFFFFFFFFFFF SUB DUP3 GT ISZERO PUSH2 0xD7F JUMPI PUSH2 0xD7E PUSH2 0xC57 JUMP JUMPDEST JUMPDEST DUP3 DUP3 ADD SWAP1 POP SWAP3 SWAP2 POP POP JUMP JUMPDEST PUSH32 0x4E756D626572207469636B6574206F7574206F662072616E6765000000000000 PUSH1 0x0 DUP3 ADD MSTORE POP JUMP JUMPDEST PUSH1 0x0 PUSH2 0xDC0 PUSH1 0x1A DUP4 PUSH2 0xCB7 JUMP JUMPDEST SWAP2 POP PUSH2 0xDCB DUP3 PUSH2 0xD8A JUMP JUMPDEST PUSH1 0x20 DUP3 ADD SWAP1 POP SWAP2 SWAP1 POP JUMP JUMPDEST PUSH1 0x0 PUSH1 0x20 DUP3 ADD SWAP1 POP DUP2 DUP2 SUB PUSH1 0x0 DUP4 ADD MSTORE PUSH2 0xDEF DUP2 PUSH2 0xDB3 JUMP JUMPDEST SWAP1 POP SWAP2 SWAP1 POP JUMP JUMPDEST PUSH1 0x0 DUP2 SWAP1 POP SWAP2 SWAP1 POP JUMP JUMPDEST PUSH2 0xE09 DUP2 PUSH2 0xDF6 JUMP JUMPDEST DUP3 MSTORE POP POP JUMP JUMPDEST PUSH1 0x0 PUSH8 0xFFFFFFFFFFFFFFFF DUP3 AND SWAP1 POP SWAP2 SWAP1 POP JUMP JUMPDEST PUSH2 0xE2C DUP2 PUSH2 0xE0F JUMP JUMPDEST DUP3 MSTORE POP POP JUMP JUMPDEST PUSH1 0x0 PUSH2 0xFFFF DUP3 AND SWAP1 POP SWAP2 SWAP1 POP JUMP JUMPDEST PUSH2 0xE49 DUP2 PUSH2 0xE32 JUMP JUMPDEST DUP3 MSTORE POP POP JUMP JUMPDEST PUSH1 0x0 PUSH4 0xFFFFFFFF DUP3 AND SWAP1 POP SWAP2 SWAP1 POP JUMP JUMPDEST PUSH2 0xE68 DUP2 PUSH2 0xE4F JUMP JUMPDEST DUP3 MSTORE POP POP JUMP JUMPDEST PUSH1 0x0 PUSH1 0xA0 DUP3 ADD SWAP1 POP PUSH2 0xE83 PUSH1 0x0 DUP4 ADD DUP9 PUSH2 0xE00 JUMP JUMPDEST PUSH2 0xE90 PUSH1 0x20 DUP4 ADD DUP8 PUSH2 0xE23 JUMP JUMPDEST PUSH2 0xE9D PUSH1 0x40 DUP4 ADD DUP7 PUSH2 0xE40 JUMP JUMPDEST PUSH2 0xEAA PUSH1 0x60 DUP4 ADD DUP6 PUSH2 0xE5F JUMP JUMPDEST PUSH2 0xEB7 PUSH1 0x80 DUP4 ADD DUP5 PUSH2 0xE5F JUMP JUMPDEST SWAP7 SWAP6 POP POP POP POP POP POP JUMP JUMPDEST PUSH1 0x0 DUP2 MLOAD SWAP1 POP PUSH2 0xED0 DUP2 PUSH2 0x930 JUMP JUMPDEST SWAP3 SWAP2 POP POP JUMP JUMPDEST PUSH1 0x0 PUSH1 0x20 DUP3 DUP5 SUB SLT ISZERO PUSH2 0xEEC JUMPI PUSH2 0xEEB PUSH2 0x926 JUMP JUMPDEST JUMPDEST PUSH1 0x0 PUSH2 0xEFA DUP5 DUP3 DUP6 ADD PUSH2 0xEC1 JUMP JUMPDEST SWAP2 POP POP SWAP3 SWAP2 POP POP JUMP JUMPDEST PUSH1 0x0 PUSH2 0xF0E DUP3 PUSH2 0x8E8 JUMP JUMPDEST SWAP2 POP PUSH2 0xF19 DUP4 PUSH2 0x8E8 JUMP JUMPDEST SWAP3 POP DUP3 PUSH2 0xF29 JUMPI PUSH2 0xF28 PUSH2 0xC28 JUMP JUMPDEST JUMPDEST DUP3 DUP3 MOD SWAP1 POP SWAP3 SWAP2 POP POP JUMP JUMPDEST PUSH1 0x0 PUSH2 0xF3F DUP3 PUSH2 0x8E8 JUMP JUMPDEST SWAP2 POP PUSH32 0xFFFFFFFFFFFFFFFFFFFFFFFFFFFFFFFFFFFFFFFFFFFFFFFFFFFFFFFFFFFFFFFF DUP3 SUB PUSH2 0xF71 JUMPI PUSH2 0xF70 PUSH2 0xC57 JUMP JUMPDEST JUMPDEST PUSH1 0x1 DUP3 ADD SWAP1 POP SWAP2 SWAP1 POP JUMP INVALID LOG2 PUSH5 0x6970667358 0x22 SLT KECCAK256 0xBE DUP7 0xE7 0x2F EXP STOP PUSH3 0x7BF17 0xB4 PUSH32 0x9116E37C2A5D2B4F5E77E370C78BB0F79420515A64736F6C634300080F003300 "
				},
				"gasEstimates": {
					"creation": {
						"codeDepositCost": "803600",
						"executionCost": "infinite",
						"totalCost": "infinite"
					},
					"external": {
						"closeLottery()": "infinite",
						"enter(uint256)": "infinite",
						"getAmountPlayer()": "2504",
						"getBalance()": "2438",
						"getListWinner()": "400",
						"getPlayers(uint256)": "infinite",
						"getWinnerByLottery(uint256)": "2910",
						"lotteryHistory(uint256)": "2950",
						"lotteryId()": "2495",
						"rawFulfillRandomWords(uint256,uint256[])": "infinite",
						"s_randomWords(uint256)": "infinite",
						"s_requestId()": "2517"
					},
					"internal": {
						"fulfillRandomWords(uint256,uint256[] memory)": "infinite",
						"increasePlayerCount()": "24366",
						"requestRandomWords()": "infinite"
					}
				},
				"methodIdentifiers": {
					"closeLottery()": "6fd09816",
					"enter(uint256)": "a59f3e0c",
					"getAmountPlayer()": "32eb85a4",
					"getBalance()": "12065fe0",
					"getListWinner()": "94957985",
					"getPlayers(uint256)": "460e2049",
					"getWinnerByLottery(uint256)": "281d098d",
					"lotteryHistory(uint256)": "6d6fe230",
					"lotteryId()": "e580f47b",
					"rawFulfillRandomWords(uint256,uint256[])": "1fe543e3",
					"s_randomWords(uint256)": "f6eaffc8",
					"s_requestId()": "e89e106a"
				}
			},
			"storageLayout": {
				"storage": [
					{
						"astId": 721,
						"contract": "contracts/Lottery.sol:Lottery",
						"label": "callbackGasLimit",
						"offset": 0,
						"slot": "0",
						"type": "t_uint32"
					},
					{
						"astId": 724,
						"contract": "contracts/Lottery.sol:Lottery",
						"label": "requestConfirmations",
						"offset": 4,
						"slot": "0",
						"type": "t_uint16"
					},
					{
						"astId": 727,
						"contract": "contracts/Lottery.sol:Lottery",
						"label": "numWords",
						"offset": 6,
						"slot": "0",
						"type": "t_uint32"
					},
					{
						"astId": 730,
						"contract": "contracts/Lottery.sol:Lottery",
						"label": "s_randomWords",
						"offset": 0,
						"slot": "1",
						"type": "t_array(t_uint256)dyn_storage"
					},
					{
						"astId": 732,
						"contract": "contracts/Lottery.sol:Lottery",
						"label": "s_requestId",
						"offset": 0,
						"slot": "2",
						"type": "t_uint256"
					},
					{
						"astId": 736,
						"contract": "contracts/Lottery.sol:Lottery",
						"label": "s_owner",
						"offset": 0,
						"slot": "3",
						"type": "t_address"
					},
					{
						"astId": 738,
						"contract": "contracts/Lottery.sol:Lottery",
						"label": "lotteryId",
						"offset": 0,
						"slot": "4",
						"type": "t_uint256"
					},
					{
						"astId": 742,
						"contract": "contracts/Lottery.sol:Lottery",
						"label": "lotteryHistory",
						"offset": 0,
						"slot": "5",
						"type": "t_mapping(t_uint256,t_address_payable)"
					},
					{
						"astId": 751,
						"contract": "contracts/Lottery.sol:Lottery",
						"label": "groupTicket",
						"offset": 0,
						"slot": "6",
						"type": "t_mapping(t_uint256,t_struct(ListNumberTicket)746_storage)"
					},
					{
						"astId": 761,
						"contract": "contracts/Lottery.sol:Lottery",
						"label": "allLottery",
						"offset": 0,
						"slot": "7",
						"type": "t_mapping(t_uint256,t_struct(Participants)756_storage)"
					},
					{
						"astId": 764,
						"contract": "contracts/Lottery.sol:Lottery",
						"label": "playerCount",
						"offset": 0,
						"slot": "8",
						"type": "t_uint256"
					},
					{
						"astId": 766,
						"contract": "contracts/Lottery.sol:Lottery",
						"label": "prizePool",
						"offset": 0,
						"slot": "9",
						"type": "t_uint256"
					},
					{
						"astId": 768,
						"contract": "contracts/Lottery.sol:Lottery",
						"label": "luckyNumber",
						"offset": 0,
						"slot": "10",
						"type": "t_uint256"
					}
				],
				"types": {
					"t_address": {
						"encoding": "inplace",
						"label": "address",
						"numberOfBytes": "20"
					},
					"t_address_payable": {
						"encoding": "inplace",
						"label": "address payable",
						"numberOfBytes": "20"
					},
					"t_array(t_address_payable)dyn_storage": {
						"base": "t_address_payable",
						"encoding": "dynamic_array",
						"label": "address payable[]",
						"numberOfBytes": "32"
					},
					"t_array(t_uint256)dyn_storage": {
						"base": "t_uint256",
						"encoding": "dynamic_array",
						"label": "uint256[]",
						"numberOfBytes": "32"
					},
					"t_mapping(t_uint256,t_address_payable)": {
						"encoding": "mapping",
						"key": "t_uint256",
						"label": "mapping(uint256 => address payable)",
						"numberOfBytes": "32",
						"value": "t_address_payable"
					},
					"t_mapping(t_uint256,t_struct(ListNumberTicket)746_storage)": {
						"encoding": "mapping",
						"key": "t_uint256",
						"label": "mapping(uint256 => struct Lottery.ListNumberTicket)",
						"numberOfBytes": "32",
						"value": "t_struct(ListNumberTicket)746_storage"
					},
					"t_mapping(t_uint256,t_struct(Participants)756_storage)": {
						"encoding": "mapping",
						"key": "t_uint256",
						"label": "mapping(uint256 => struct Lottery.Participants)",
						"numberOfBytes": "32",
						"value": "t_struct(Participants)756_storage"
					},
					"t_struct(ListNumberTicket)746_storage": {
						"encoding": "inplace",
						"label": "struct Lottery.ListNumberTicket",
						"members": [
							{
								"astId": 745,
								"contract": "contracts/Lottery.sol:Lottery",
								"label": "groupPlayer",
								"offset": 0,
								"slot": "0",
								"type": "t_array(t_address_payable)dyn_storage"
							}
						],
						"numberOfBytes": "32"
					},
					"t_struct(Participants)756_storage": {
						"encoding": "inplace",
						"label": "struct Lottery.Participants",
						"members": [
							{
								"astId": 753,
								"contract": "contracts/Lottery.sol:Lottery",
								"label": "player",
								"offset": 0,
								"slot": "0",
								"type": "t_address_payable"
							},
							{
								"astId": 755,
								"contract": "contracts/Lottery.sol:Lottery",
								"label": "numTicket",
								"offset": 0,
								"slot": "1",
								"type": "t_uint256"
							}
						],
						"numberOfBytes": "64"
					},
					"t_uint16": {
						"encoding": "inplace",
						"label": "uint16",
						"numberOfBytes": "2"
					},
					"t_uint256": {
						"encoding": "inplace",
						"label": "uint256",
						"numberOfBytes": "32"
					},
					"t_uint32": {
						"encoding": "inplace",
						"label": "uint32",
						"numberOfBytes": "4"
					}
				}
			},
			"userdoc": {
				"kind": "user",
				"methods": {},
				"version": 1
			}
		}
	}
}