{
	"contracts/Lottery.sol": {
		"Lottery": {
			"abi": [
				{
					"inputs": [
						{
							"internalType": "address",
							"name": "have",
							"type": "address"
						},
						{
							"internalType": "address",
							"name": "want",
							"type": "address"
						}
					],
					"name": "OnlyCoordinatorCanFulfill",
					"type": "error"
				},
				{
					"inputs": [],
					"name": "_requestRandomWords",
					"outputs": [],
					"stateMutability": "nonpayable",
					"type": "function"
				},
				{
					"inputs": [],
					"name": "closeLottery",
					"outputs": [],
					"stateMutability": "nonpayable",
					"type": "function"
				},
				{
					"inputs": [
						{
							"internalType": "uint256",
							"name": "_numTicket",
							"type": "uint256"
						}
					],
					"name": "enter",
					"outputs": [],
					"stateMutability": "payable",
					"type": "function"
				},
				{
					"inputs": [],
					"name": "getAmountPlayer",
					"outputs": [
						{
							"internalType": "uint256",
							"name": "",
							"type": "uint256"
						}
					],
					"stateMutability": "view",
					"type": "function"
				},
				{
					"inputs": [],
					"name": "getAmountWinner",
					"outputs": [
						{
							"internalType": "uint256",
							"name": "",
							"type": "uint256"
						}
					],
					"stateMutability": "view",
					"type": "function"
				},
				{
					"inputs": [],
					"name": "getBalance",
					"outputs": [
						{
							"internalType": "uint256",
							"name": "",
							"type": "uint256"
						}
					],
					"stateMutability": "view",
					"type": "function"
				},
				{
					"inputs": [
						{
							"internalType": "uint256",
							"name": "index",
							"type": "uint256"
						}
					],
					"name": "getListWinner",
					"outputs": [
						{
							"internalType": "address",
							"name": "",
							"type": "address"
						}
					],
					"stateMutability": "view",
					"type": "function"
				},
				{
					"inputs": [
						{
							"internalType": "uint256",
							"name": "_index",
							"type": "uint256"
						}
					],
					"name": "getPlayers",
					"outputs": [
						{
							"internalType": "address payable",
							"name": "",
							"type": "address"
						},
						{
							"internalType": "uint256",
							"name": "",
							"type": "uint256"
						}
					],
					"stateMutability": "view",
					"type": "function"
				},
				{
					"inputs": [
						{
							"internalType": "uint256",
							"name": "lottery",
							"type": "uint256"
						}
					],
					"name": "getWinnerByLottery",
					"outputs": [
						{
							"internalType": "address payable",
							"name": "",
							"type": "address"
						}
					],
					"stateMutability": "view",
					"type": "function"
				},
				{
					"inputs": [
						{
							"internalType": "uint256",
							"name": "",
							"type": "uint256"
						}
					],
					"name": "lotteryHistory",
					"outputs": [
						{
							"internalType": "address payable",
							"name": "",
							"type": "address"
						}
					],
					"stateMutability": "view",
					"type": "function"
				},
				{
					"inputs": [],
					"name": "lotteryId",
					"outputs": [
						{
							"internalType": "uint256",
							"name": "",
							"type": "uint256"
						}
					],
					"stateMutability": "view",
					"type": "function"
				},
				{
					"inputs": [
						{
							"internalType": "uint256",
							"name": "requestId",
							"type": "uint256"
						},
						{
							"internalType": "uint256[]",
							"name": "randomWords",
							"type": "uint256[]"
						}
					],
					"name": "rawFulfillRandomWords",
					"outputs": [],
					"stateMutability": "nonpayable",
					"type": "function"
				},
				{
					"inputs": [
						{
							"internalType": "uint256",
							"name": "",
							"type": "uint256"
						}
					],
					"name": "s_randomWords",
					"outputs": [
						{
							"internalType": "uint256",
							"name": "",
							"type": "uint256"
						}
					],
					"stateMutability": "view",
					"type": "function"
				},
				{
					"inputs": [],
					"name": "s_requestId",
					"outputs": [
						{
							"internalType": "uint256",
							"name": "",
							"type": "uint256"
						}
					],
					"stateMutability": "view",
					"type": "function"
				}
			],
			"devdoc": {
				"kind": "dev",
				"methods": {},
				"version": 1
			},
			"evm": {
				"assembly": "    /* \"contracts/Lottery.sol\":426:5066  contract Lottery is VRFConsumerBaseV2(0x6168499c0cFfCaCD319c818142124B7A15E857ab) {... */\n  mstore(0x40, 0xa0)\n    /* \"contracts/Lottery.sol\":1021:1027  100000 */\n  0x0186a0\n    /* \"contracts/Lottery.sol\":995:1027  uint32 callbackGasLimit = 100000 */\n  0x00\n  dup1\n  0x0100\n  exp\n  dup2\n  sload\n  dup2\n  0xffffffff\n  mul\n  not\n  and\n  swap1\n  dup4\n  0xffffffff\n  and\n  mul\n  or\n  swap1\n  sstore\n  pop\n    /* \"contracts/Lottery.sol\":1118:1119  3 */\n  0x03\n    /* \"contracts/Lottery.sol\":1088:1119  uint16 requestConfirmations = 3 */\n  0x00\n  exp(0x0100, 0x04)\n  dup2\n  sload\n  dup2\n  0xffff\n  mul\n  not\n  and\n  swap1\n  dup4\n  0xffff\n  and\n  mul\n  or\n  swap1\n  sstore\n  pop\n    /* \"contracts/Lottery.sol\":1264:1265  2 */\n  0x02\n    /* \"contracts/Lottery.sol\":1245:1265  uint32 numWords =  2 */\n  0x00\n  exp(0x0100, 0x06)\n  dup2\n  sload\n  dup2\n  0xffffffff\n  mul\n  not\n  and\n  swap1\n  dup4\n  0xffffffff\n  and\n  mul\n  or\n  swap1\n  sstore\n  pop\n    /* \"contracts/Lottery.sol\":1358:1368  msg.sender */\n  caller\n    /* \"contracts/Lottery.sol\":1340:1368  address s_owner = msg.sender */\n  0x03\n  exp(0x0100, 0x00)\n  dup2\n  sload\n  dup2\n  0xffffffffffffffffffffffffffffffffffffffff\n  mul\n  not\n  and\n  swap1\n  dup4\n  0xffffffffffffffffffffffffffffffffffffffff\n  and\n  mul\n  or\n  swap1\n  sstore\n  pop\n    /* \"contracts/Lottery.sol\":1779:1780  0 */\n  0x00\n    /* \"contracts/Lottery.sol\":1751:1780  uint internal playerCount = 0 */\n  0x08\n  sstore\n    /* \"contracts/Lottery.sol\":426:5066  contract Lottery is VRFConsumerBaseV2(0x6168499c0cFfCaCD319c818142124B7A15E857ab) {... */\n  callvalue\n  dup1\n  iszero\n  tag_1\n  jumpi\n  0x00\n  dup1\n  revert\ntag_1:\n  pop\n    /* \"contracts/Lottery.sol\":464:506  0x6168499c0cFfCaCD319c818142124B7A15E857ab */\n  0x6168499c0cffcacd319c818142124b7a15e857ab\n    /* \"@chainlink/contracts/src/v0.8/VRFConsumerBaseV2.sol\":5616:5631  _vrfCoordinator */\n  dup1\n    /* \"@chainlink/contracts/src/v0.8/VRFConsumerBaseV2.sol\":5599:5631  vrfCoordinator = _vrfCoordinator */\n  0xffffffffffffffffffffffffffffffffffffffff\n  and\n  0x80\n  dup2\n  0xffffffffffffffffffffffffffffffffffffffff\n  and\n  dup2\n  mstore\n  pop\n  pop\n    /* \"@chainlink/contracts/src/v0.8/VRFConsumerBaseV2.sol\":5556:5636  constructor(address _vrfCoordinator) {... */\n  pop\n    /* \"contracts/Lottery.sol\":426:5066  contract Lottery is VRFConsumerBaseV2(0x6168499c0cFfCaCD319c818142124B7A15E857ab) {... */\n  mload(0x80)\n  codecopy(0x00, dataOffset(sub_0), dataSize(sub_0))\n  0x00\n  assignImmutable(\"0x1a192fabce13988b84994d4296e6cdc418d55e2f1d7f942188d4040b94fc57ac\")\n  return(0x00, dataSize(sub_0))\nstop\n\nsub_0: assembly {\n        /* \"contracts/Lottery.sol\":426:5066  contract Lottery is VRFConsumerBaseV2(0x6168499c0cFfCaCD319c818142124B7A15E857ab) {... */\n      mstore(0x40, 0x80)\n      jumpi(tag_1, lt(calldatasize, 0x04))\n      shr(0xe0, calldataload(0x00))\n      dup1\n      0x693521d5\n      gt\n      tag_16\n      jumpi\n      dup1\n      0xa59f3e0c\n      gt\n      tag_17\n      jumpi\n      dup1\n      0xa59f3e0c\n      eq\n      tag_12\n      jumpi\n      dup1\n      0xe580f47b\n      eq\n      tag_13\n      jumpi\n      dup1\n      0xe89e106a\n      eq\n      tag_14\n      jumpi\n      dup1\n      0xf6eaffc8\n      eq\n      tag_15\n      jumpi\n      jump(tag_1)\n    tag_17:\n      dup1\n      0x693521d5\n      eq\n      tag_9\n      jumpi\n      dup1\n      0x6d6fe230\n      eq\n      tag_10\n      jumpi\n      dup1\n      0x6fd09816\n      eq\n      tag_11\n      jumpi\n      jump(tag_1)\n    tag_16:\n      dup1\n      0x281d098d\n      gt\n      tag_18\n      jumpi\n      dup1\n      0x281d098d\n      eq\n      tag_5\n      jumpi\n      dup1\n      0x32eb85a4\n      eq\n      tag_6\n      jumpi\n      dup1\n      0x391ea700\n      eq\n      tag_7\n      jumpi\n      dup1\n      0x460e2049\n      eq\n      tag_8\n      jumpi\n      jump(tag_1)\n    tag_18:\n      dup1\n      0x12065fe0\n      eq\n      tag_2\n      jumpi\n      dup1\n      0x18b425ff\n      eq\n      tag_3\n      jumpi\n      dup1\n      0x1fe543e3\n      eq\n      tag_4\n      jumpi\n    tag_1:\n      0x00\n      dup1\n      revert\n        /* \"contracts/Lottery.sol\":2062:2144  function getBalance() public view returns (uint) {... */\n    tag_2:\n      callvalue\n      dup1\n      iszero\n      tag_19\n      jumpi\n      0x00\n      dup1\n      revert\n    tag_19:\n      pop\n      tag_20\n      tag_21\n      jump\t// in\n    tag_20:\n      mload(0x40)\n      tag_22\n      swap2\n      swap1\n      tag_23\n      jump\t// in\n    tag_22:\n      mload(0x40)\n      dup1\n      swap2\n      sub\n      swap1\n      return\n        /* \"contracts/Lottery.sol\":4752:4885  function getListWinner(uint256 index) public view returns(address){... */\n    tag_3:\n      callvalue\n      dup1\n      iszero\n      tag_24\n      jumpi\n      0x00\n      dup1\n      revert\n    tag_24:\n      pop\n      tag_25\n      0x04\n      dup1\n      calldatasize\n      sub\n      dup2\n      add\n      swap1\n      tag_26\n      swap2\n      swap1\n      tag_27\n      jump\t// in\n    tag_26:\n      tag_28\n      jump\t// in\n    tag_25:\n      mload(0x40)\n      tag_29\n      swap2\n      swap1\n      tag_30\n      jump\t// in\n    tag_29:\n      mload(0x40)\n      dup1\n      swap2\n      sub\n      swap1\n      return\n        /* \"@chainlink/contracts/src/v0.8/VRFConsumerBaseV2.sol\":6618:6874  function rawFulfillRandomWords(uint256 requestId, uint256[] memory randomWords) external {... */\n    tag_4:\n      callvalue\n      dup1\n      iszero\n      tag_31\n      jumpi\n      0x00\n      dup1\n      revert\n    tag_31:\n      pop\n      tag_32\n      0x04\n      dup1\n      calldatasize\n      sub\n      dup2\n      add\n      swap1\n      tag_33\n      swap2\n      swap1\n      tag_34\n      jump\t// in\n    tag_33:\n      tag_35\n      jump\t// in\n    tag_32:\n      stop\n        /* \"contracts/Lottery.sol\":1929:2056  function getWinnerByLottery(uint lottery) public view returns (address payable) {... */\n    tag_5:\n      callvalue\n      dup1\n      iszero\n      tag_36\n      jumpi\n      0x00\n      dup1\n      revert\n    tag_36:\n      pop\n      tag_37\n      0x04\n      dup1\n      calldatasize\n      sub\n      dup2\n      add\n      swap1\n      tag_38\n      swap2\n      swap1\n      tag_27\n      jump\t// in\n    tag_38:\n      tag_39\n      jump\t// in\n    tag_37:\n      mload(0x40)\n      tag_40\n      swap2\n      swap1\n      tag_41\n      jump\t// in\n    tag_40:\n      mload(0x40)\n      dup1\n      swap2\n      sub\n      swap1\n      return\n        /* \"contracts/Lottery.sol\":2400:2488  function getAmountPlayer() public view returns (uint){... */\n    tag_6:\n      callvalue\n      dup1\n      iszero\n      tag_42\n      jumpi\n      0x00\n      dup1\n      revert\n    tag_42:\n      pop\n      tag_43\n      tag_44\n      jump\t// in\n    tag_43:\n      mload(0x40)\n      tag_45\n      swap2\n      swap1\n      tag_23\n      jump\t// in\n    tag_45:\n      mload(0x40)\n      dup1\n      swap2\n      sub\n      swap1\n      return\n        /* \"contracts/Lottery.sol\":3284:3665  function _requestRandomWords() external onlyOwner {... */\n    tag_7:\n      callvalue\n      dup1\n      iszero\n      tag_46\n      jumpi\n      0x00\n      dup1\n      revert\n    tag_46:\n      pop\n      tag_47\n      tag_48\n      jump\t// in\n    tag_47:\n      stop\n        /* \"contracts/Lottery.sol\":2150:2390  function getPlayers(uint _index) public view returns (address payable, uint) {... */\n    tag_8:\n      callvalue\n      dup1\n      iszero\n      tag_49\n      jumpi\n      0x00\n      dup1\n      revert\n    tag_49:\n      pop\n      tag_50\n      0x04\n      dup1\n      calldatasize\n      sub\n      dup2\n      add\n      swap1\n      tag_51\n      swap2\n      swap1\n      tag_27\n      jump\t// in\n    tag_51:\n      tag_52\n      jump\t// in\n    tag_50:\n      mload(0x40)\n      tag_53\n      swap3\n      swap2\n      swap1\n      tag_54\n      jump\t// in\n    tag_53:\n      mload(0x40)\n      dup1\n      swap2\n      sub\n      swap1\n      return\n        /* \"contracts/Lottery.sol\":4624:4746  function getAmountWinner() public view returns(uint256){... */\n    tag_9:\n      callvalue\n      dup1\n      iszero\n      tag_55\n      jumpi\n      0x00\n      dup1\n      revert\n    tag_55:\n      pop\n      tag_56\n      tag_57\n      jump\t// in\n    tag_56:\n      mload(0x40)\n      tag_58\n      swap2\n      swap1\n      tag_23\n      jump\t// in\n    tag_58:\n      mload(0x40)\n      dup1\n      swap2\n      sub\n      swap1\n      return\n        /* \"contracts/Lottery.sol\":1406:1461  mapping (uint => address payable) public lotteryHistory */\n    tag_10:\n      callvalue\n      dup1\n      iszero\n      tag_59\n      jumpi\n      0x00\n      dup1\n      revert\n    tag_59:\n      pop\n      tag_60\n      0x04\n      dup1\n      calldatasize\n      sub\n      dup2\n      add\n      swap1\n      tag_61\n      swap2\n      swap1\n      tag_27\n      jump\t// in\n    tag_61:\n      tag_62\n      jump\t// in\n    tag_60:\n      mload(0x40)\n      tag_63\n      swap2\n      swap1\n      tag_41\n      jump\t// in\n    tag_63:\n      mload(0x40)\n      dup1\n      swap2\n      sub\n      swap1\n      return\n        /* \"contracts/Lottery.sol\":4049:4401  function closeLottery() external onlyOwner{... */\n    tag_11:\n      callvalue\n      dup1\n      iszero\n      tag_64\n      jumpi\n      0x00\n      dup1\n      revert\n    tag_64:\n      pop\n      tag_65\n      tag_66\n      jump\t// in\n    tag_65:\n      stop\n        /* \"contracts/Lottery.sol\":2493:3042  function enter(uint _numTicket) public payable {... */\n    tag_12:\n      tag_67\n      0x04\n      dup1\n      calldatasize\n      sub\n      dup2\n      add\n      swap1\n      tag_68\n      swap2\n      swap1\n      tag_27\n      jump\t// in\n    tag_68:\n      tag_69\n      jump\t// in\n    tag_67:\n      stop\n        /* \"contracts/Lottery.sol\":1379:1400  uint public lotteryId */\n    tag_13:\n      callvalue\n      dup1\n      iszero\n      tag_70\n      jumpi\n      0x00\n      dup1\n      revert\n    tag_70:\n      pop\n      tag_71\n      tag_72\n      jump\t// in\n    tag_71:\n      mload(0x40)\n      tag_73\n      swap2\n      swap1\n      tag_23\n      jump\t// in\n    tag_73:\n      mload(0x40)\n      dup1\n      swap2\n      sub\n      swap1\n      return\n        /* \"contracts/Lottery.sol\":1308:1334  uint256 public s_requestId */\n    tag_14:\n      callvalue\n      dup1\n      iszero\n      tag_74\n      jumpi\n      0x00\n      dup1\n      revert\n    tag_74:\n      pop\n      tag_75\n      tag_76\n      jump\t// in\n    tag_75:\n      mload(0x40)\n      tag_77\n      swap2\n      swap1\n      tag_23\n      jump\t// in\n    tag_77:\n      mload(0x40)\n      dup1\n      swap2\n      sub\n      swap1\n      return\n        /* \"contracts/Lottery.sol\":1272:1302  uint256[] public s_randomWords */\n    tag_15:\n      callvalue\n      dup1\n      iszero\n      tag_78\n      jumpi\n      0x00\n      dup1\n      revert\n    tag_78:\n      pop\n      tag_79\n      0x04\n      dup1\n      calldatasize\n      sub\n      dup2\n      add\n      swap1\n      tag_80\n      swap2\n      swap1\n      tag_27\n      jump\t// in\n    tag_80:\n      tag_81\n      jump\t// in\n    tag_79:\n      mload(0x40)\n      tag_82\n      swap2\n      swap1\n      tag_23\n      jump\t// in\n    tag_82:\n      mload(0x40)\n      dup1\n      swap2\n      sub\n      swap1\n      return\n        /* \"contracts/Lottery.sol\":2062:2144  function getBalance() public view returns (uint) {... */\n    tag_21:\n        /* \"contracts/Lottery.sol\":2105:2109  uint */\n      0x00\n        /* \"contracts/Lottery.sol\":2128:2137  prizePool */\n      sload(0x09)\n        /* \"contracts/Lottery.sol\":2121:2137  return prizePool */\n      swap1\n      pop\n        /* \"contracts/Lottery.sol\":2062:2144  function getBalance() public view returns (uint) {... */\n      swap1\n      jump\t// out\n        /* \"contracts/Lottery.sol\":4752:4885  function getListWinner(uint256 index) public view returns(address){... */\n    tag_28:\n        /* \"contracts/Lottery.sol\":4810:4817  address */\n      0x00\n        /* \"contracts/Lottery.sol\":4835:4846  groupTicket */\n      0x06\n        /* \"contracts/Lottery.sol\":4835:4859  groupTicket[luckyNumber] */\n      0x00\n        /* \"contracts/Lottery.sol\":4847:4858  luckyNumber */\n      sload(0x0a)\n        /* \"contracts/Lottery.sol\":4835:4859  groupTicket[luckyNumber] */\n      dup2\n      mstore\n      0x20\n      add\n      swap1\n      dup2\n      mstore\n      0x20\n      add\n      0x00\n      keccak256\n        /* \"contracts/Lottery.sol\":4835:4871  groupTicket[luckyNumber].groupPlayer */\n      0x00\n      add\n        /* \"contracts/Lottery.sol\":4872:4877  index */\n      dup3\n        /* \"contracts/Lottery.sol\":4835:4878  groupTicket[luckyNumber].groupPlayer[index] */\n      dup2\n      sload\n      dup2\n      lt\n      tag_85\n      jumpi\n      tag_86\n      tag_87\n      jump\t// in\n    tag_86:\n    tag_85:\n      swap1\n      0x00\n      mstore\n      keccak256(0x00, 0x20)\n      add\n      0x00\n      swap1\n      sload\n      swap1\n      0x0100\n      exp\n      swap1\n      div\n      0xffffffffffffffffffffffffffffffffffffffff\n      and\n        /* \"contracts/Lottery.sol\":4828:4878  return groupTicket[luckyNumber].groupPlayer[index] */\n      swap1\n      pop\n        /* \"contracts/Lottery.sol\":4752:4885  function getListWinner(uint256 index) public view returns(address){... */\n      swap2\n      swap1\n      pop\n      jump\t// out\n        /* \"@chainlink/contracts/src/v0.8/VRFConsumerBaseV2.sol\":6618:6874  function rawFulfillRandomWords(uint256 requestId, uint256[] memory randomWords) external {... */\n    tag_35:\n        /* \"@chainlink/contracts/src/v0.8/VRFConsumerBaseV2.sol\":6731:6745  vrfCoordinator */\n      immutable(\"0x1a192fabce13988b84994d4296e6cdc418d55e2f1d7f942188d4040b94fc57ac\")\n        /* \"@chainlink/contracts/src/v0.8/VRFConsumerBaseV2.sol\":6717:6745  msg.sender != vrfCoordinator */\n      0xffffffffffffffffffffffffffffffffffffffff\n      and\n        /* \"@chainlink/contracts/src/v0.8/VRFConsumerBaseV2.sol\":6717:6727  msg.sender */\n      caller\n        /* \"@chainlink/contracts/src/v0.8/VRFConsumerBaseV2.sol\":6717:6745  msg.sender != vrfCoordinator */\n      0xffffffffffffffffffffffffffffffffffffffff\n      and\n      eq\n        /* \"@chainlink/contracts/src/v0.8/VRFConsumerBaseV2.sol\":6713:6822  if (msg.sender != vrfCoordinator) {... */\n      tag_90\n      jumpi\n        /* \"@chainlink/contracts/src/v0.8/VRFConsumerBaseV2.sol\":6788:6798  msg.sender */\n      caller\n        /* \"@chainlink/contracts/src/v0.8/VRFConsumerBaseV2.sol\":6800:6814  vrfCoordinator */\n      immutable(\"0x1a192fabce13988b84994d4296e6cdc418d55e2f1d7f942188d4040b94fc57ac\")\n        /* \"@chainlink/contracts/src/v0.8/VRFConsumerBaseV2.sol\":6762:6815  OnlyCoordinatorCanFulfill(msg.sender, vrfCoordinator) */\n      mload(0x40)\n      0x1cf993f400000000000000000000000000000000000000000000000000000000\n      dup2\n      mstore\n      0x04\n      add\n      tag_91\n      swap3\n      swap2\n      swap1\n      tag_92\n      jump\t// in\n    tag_91:\n      mload(0x40)\n      dup1\n      swap2\n      sub\n      swap1\n      revert\n        /* \"@chainlink/contracts/src/v0.8/VRFConsumerBaseV2.sol\":6713:6822  if (msg.sender != vrfCoordinator) {... */\n    tag_90:\n        /* \"@chainlink/contracts/src/v0.8/VRFConsumerBaseV2.sol\":6827:6869  fulfillRandomWords(requestId, randomWords) */\n      tag_93\n        /* \"@chainlink/contracts/src/v0.8/VRFConsumerBaseV2.sol\":6846:6855  requestId */\n      dup3\n        /* \"@chainlink/contracts/src/v0.8/VRFConsumerBaseV2.sol\":6857:6868  randomWords */\n      dup3\n        /* \"@chainlink/contracts/src/v0.8/VRFConsumerBaseV2.sol\":6827:6845  fulfillRandomWords */\n      tag_94\n        /* \"@chainlink/contracts/src/v0.8/VRFConsumerBaseV2.sol\":6827:6869  fulfillRandomWords(requestId, randomWords) */\n      jump\t// in\n    tag_93:\n        /* \"@chainlink/contracts/src/v0.8/VRFConsumerBaseV2.sol\":6618:6874  function rawFulfillRandomWords(uint256 requestId, uint256[] memory randomWords) external {... */\n      pop\n      pop\n      jump\t// out\n        /* \"contracts/Lottery.sol\":1929:2056  function getWinnerByLottery(uint lottery) public view returns (address payable) {... */\n    tag_39:\n        /* \"contracts/Lottery.sol\":1992:2007  address payable */\n      0x00\n        /* \"contracts/Lottery.sol\":2026:2040  lotteryHistory */\n      0x05\n        /* \"contracts/Lottery.sol\":2026:2049  lotteryHistory[lottery] */\n      0x00\n        /* \"contracts/Lottery.sol\":2041:2048  lottery */\n      dup4\n        /* \"contracts/Lottery.sol\":2026:2049  lotteryHistory[lottery] */\n      dup2\n      mstore\n      0x20\n      add\n      swap1\n      dup2\n      mstore\n      0x20\n      add\n      0x00\n      keccak256\n      0x00\n      swap1\n      sload\n      swap1\n      0x0100\n      exp\n      swap1\n      div\n      0xffffffffffffffffffffffffffffffffffffffff\n      and\n        /* \"contracts/Lottery.sol\":2019:2049  return lotteryHistory[lottery] */\n      swap1\n      pop\n        /* \"contracts/Lottery.sol\":1929:2056  function getWinnerByLottery(uint lottery) public view returns (address payable) {... */\n      swap2\n      swap1\n      pop\n      jump\t// out\n        /* \"contracts/Lottery.sol\":2400:2488  function getAmountPlayer() public view returns (uint){... */\n    tag_44:\n        /* \"contracts/Lottery.sol\":2448:2452  uint */\n      0x00\n        /* \"contracts/Lottery.sol\":2470:2481  playerCount */\n      sload(0x08)\n        /* \"contracts/Lottery.sol\":2463:2481  return playerCount */\n      swap1\n      pop\n        /* \"contracts/Lottery.sol\":2400:2488  function getAmountPlayer() public view returns (uint){... */\n      swap1\n      jump\t// out\n        /* \"contracts/Lottery.sol\":3284:3665  function _requestRandomWords() external onlyOwner {... */\n    tag_48:\n        /* \"contracts/Lottery.sol\":5040:5047  s_owner */\n      0x03\n      0x00\n      swap1\n      sload\n      swap1\n      0x0100\n      exp\n      swap1\n      div\n      0xffffffffffffffffffffffffffffffffffffffff\n      and\n        /* \"contracts/Lottery.sol\":5026:5047  msg.sender == s_owner */\n      0xffffffffffffffffffffffffffffffffffffffff\n      and\n        /* \"contracts/Lottery.sol\":5026:5036  msg.sender */\n      caller\n        /* \"contracts/Lottery.sol\":5026:5047  msg.sender == s_owner */\n      0xffffffffffffffffffffffffffffffffffffffff\n      and\n      eq\n        /* \"contracts/Lottery.sol\":5018:5048  require(msg.sender == s_owner) */\n      tag_98\n      jumpi\n      0x00\n      dup1\n      revert\n    tag_98:\n        /* \"contracts/Lottery.sol\":3580:3591  playerCount */\n      sload(0x08)\n        /* \"contracts/Lottery.sol\":594:636  0x6168499c0cFfCaCD319c818142124B7A15E857ab */\n      0x6168499c0cffcacd319c818142124b7a15e857ab\n        /* \"contracts/Lottery.sol\":3420:3450  COORDINATOR.requestRandomWords */\n      0xffffffffffffffffffffffffffffffffffffffff\n      and\n      0x5d3b1d30\n        /* \"contracts/Lottery.sol\":918:984  0xd89b2bf150e3b9e13446986e571fb9cab24b13cea0a43ea20a6049a85cc807cc */\n      0xd89b2bf150e3b9e13446986e571fb9cab24b13cea0a43ea20a6049a85cc807cc\n        /* \"contracts/Lottery.sol\":3460:3467  keyHash */\n      0x00\n      shl\n        /* \"contracts/Lottery.sol\":802:806  7370 */\n      0x1cca\n        /* \"contracts/Lottery.sol\":3503:3523  requestConfirmations */\n      0x00\n      0x04\n      swap1\n      sload\n      swap1\n      0x0100\n      exp\n      swap1\n      div\n      0xffff\n      and\n        /* \"contracts/Lottery.sol\":3533:3549  callbackGasLimit */\n      0x00\n      dup1\n      sload\n      swap1\n      0x0100\n      exp\n      swap1\n      div\n      0xffffffff\n      and\n        /* \"contracts/Lottery.sol\":3559:3567  numWords */\n      0x00\n      0x06\n      swap1\n      sload\n      swap1\n      0x0100\n      exp\n      swap1\n      div\n      0xffffffff\n      and\n        /* \"contracts/Lottery.sol\":3420:3577  COORDINATOR.requestRandomWords(... */\n      mload(0x40)\n      dup7\n      0xffffffff\n      and\n      0xe0\n      shl\n      dup2\n      mstore\n      0x04\n      add\n      tag_100\n      swap6\n      swap5\n      swap4\n      swap3\n      swap2\n      swap1\n      tag_101\n      jump\t// in\n    tag_100:\n      0x20\n      mload(0x40)\n      dup1\n      dup4\n      sub\n      dup2\n      0x00\n      dup8\n      gas\n      call\n      iszero\n      dup1\n      iszero\n      tag_103\n      jumpi\n      returndatasize\n      0x00\n      dup1\n      returndatacopy\n      revert(0x00, returndatasize)\n    tag_103:\n      pop\n      pop\n      pop\n      pop\n      mload(0x40)\n      returndatasize\n      not(0x1f)\n      0x1f\n      dup3\n      add\n      and\n      dup3\n      add\n      dup1\n      0x40\n      mstore\n      pop\n      dup2\n      add\n      swap1\n      tag_104\n      swap2\n      swap1\n      tag_105\n      jump\t// in\n    tag_104:\n        /* \"contracts/Lottery.sol\":3420:3591  COORDINATOR.requestRandomWords(... */\n      tag_106\n      swap2\n      swap1\n      tag_107\n      jump\t// in\n    tag_106:\n        /* \"contracts/Lottery.sol\":3406:3417  s_requestId */\n      0x02\n        /* \"contracts/Lottery.sol\":3406:3591  s_requestId = COORDINATOR.requestRandomWords(... */\n      dup2\n      swap1\n      sstore\n      pop\n        /* \"contracts/Lottery.sol\":3616:3626  allLottery */\n      0x07\n        /* \"contracts/Lottery.sol\":3616:3639  allLottery[s_requestId] */\n      0x00\n        /* \"contracts/Lottery.sol\":3627:3638  s_requestId */\n      sload(0x02)\n        /* \"contracts/Lottery.sol\":3616:3639  allLottery[s_requestId] */\n      dup2\n      mstore\n      0x20\n      add\n      swap1\n      dup2\n      mstore\n      0x20\n      add\n      0x00\n      keccak256\n        /* \"contracts/Lottery.sol\":3616:3649  allLottery[s_requestId].numTicket */\n      0x01\n      add\n      sload\n        /* \"contracts/Lottery.sol\":3602:3613  luckyNumber */\n      0x0a\n        /* \"contracts/Lottery.sol\":3602:3649  luckyNumber = allLottery[s_requestId].numTicket */\n      dup2\n      swap1\n      sstore\n      pop\n        /* \"contracts/Lottery.sol\":3284:3665  function _requestRandomWords() external onlyOwner {... */\n      jump\t// out\n        /* \"contracts/Lottery.sol\":2150:2390  function getPlayers(uint _index) public view returns (address payable, uint) {... */\n    tag_52:\n        /* \"contracts/Lottery.sol\":2204:2219  address payable */\n      0x00\n        /* \"contracts/Lottery.sol\":2221:2225  uint */\n      dup1\n        /* \"contracts/Lottery.sol\":2237:2269  Participants storage participant */\n      0x00\n        /* \"contracts/Lottery.sol\":2272:2282  allLottery */\n      0x07\n        /* \"contracts/Lottery.sol\":2272:2290  allLottery[_index] */\n      0x00\n        /* \"contracts/Lottery.sol\":2283:2289  _index */\n      dup6\n        /* \"contracts/Lottery.sol\":2272:2290  allLottery[_index] */\n      dup2\n      mstore\n      0x20\n      add\n      swap1\n      dup2\n      mstore\n      0x20\n      add\n      0x00\n      keccak256\n        /* \"contracts/Lottery.sol\":2237:2290  Participants storage participant = allLottery[_index] */\n      swap1\n      pop\n        /* \"contracts/Lottery.sol\":2320:2331  participant */\n      dup1\n        /* \"contracts/Lottery.sol\":2320:2338  participant.player */\n      0x00\n      add\n      0x00\n      swap1\n      sload\n      swap1\n      0x0100\n      exp\n      swap1\n      div\n      0xffffffffffffffffffffffffffffffffffffffff\n      and\n        /* \"contracts/Lottery.sol\":2352:2363  participant */\n      dup2\n        /* \"contracts/Lottery.sol\":2352:2373  participant.numTicket */\n      0x01\n      add\n      sload\n        /* \"contracts/Lottery.sol\":2300:2383  return(... */\n      swap3\n      pop\n      swap3\n      pop\n      pop\n        /* \"contracts/Lottery.sol\":2150:2390  function getPlayers(uint _index) public view returns (address payable, uint) {... */\n      swap2\n      pop\n      swap2\n      jump\t// out\n        /* \"contracts/Lottery.sol\":4624:4746  function getAmountWinner() public view returns(uint256){... */\n    tag_57:\n        /* \"contracts/Lottery.sol\":4671:4678  uint256 */\n      0x00\n        /* \"contracts/Lottery.sol\":4696:4707  groupTicket */\n      0x06\n        /* \"contracts/Lottery.sol\":4696:4720  groupTicket[luckyNumber] */\n      0x00\n        /* \"contracts/Lottery.sol\":4708:4719  luckyNumber */\n      sload(0x0a)\n        /* \"contracts/Lottery.sol\":4696:4720  groupTicket[luckyNumber] */\n      dup2\n      mstore\n      0x20\n      add\n      swap1\n      dup2\n      mstore\n      0x20\n      add\n      0x00\n      keccak256\n        /* \"contracts/Lottery.sol\":4696:4732  groupTicket[luckyNumber].groupPlayer */\n      0x00\n      add\n        /* \"contracts/Lottery.sol\":4696:4739  groupTicket[luckyNumber].groupPlayer.length */\n      dup1\n      sload\n      swap1\n      pop\n        /* \"contracts/Lottery.sol\":4689:4739  return groupTicket[luckyNumber].groupPlayer.length */\n      swap1\n      pop\n        /* \"contracts/Lottery.sol\":4624:4746  function getAmountWinner() public view returns(uint256){... */\n      swap1\n      jump\t// out\n        /* \"contracts/Lottery.sol\":1406:1461  mapping (uint => address payable) public lotteryHistory */\n    tag_62:\n      mstore(0x20, 0x05)\n      dup1\n      0x00\n      mstore\n      keccak256(0x00, 0x40)\n      0x00\n      swap2\n      pop\n      sload\n      swap1\n      0x0100\n      exp\n      swap1\n      div\n      0xffffffffffffffffffffffffffffffffffffffff\n      and\n      dup2\n      jump\t// out\n        /* \"contracts/Lottery.sol\":4049:4401  function closeLottery() external onlyOwner{... */\n    tag_66:\n        /* \"contracts/Lottery.sol\":5040:5047  s_owner */\n      0x03\n      0x00\n      swap1\n      sload\n      swap1\n      0x0100\n      exp\n      swap1\n      div\n      0xffffffffffffffffffffffffffffffffffffffff\n      and\n        /* \"contracts/Lottery.sol\":5026:5047  msg.sender == s_owner */\n      0xffffffffffffffffffffffffffffffffffffffff\n      and\n        /* \"contracts/Lottery.sol\":5026:5036  msg.sender */\n      caller\n        /* \"contracts/Lottery.sol\":5026:5047  msg.sender == s_owner */\n      0xffffffffffffffffffffffffffffffffffffffff\n      and\n      eq\n        /* \"contracts/Lottery.sol\":5018:5048  require(msg.sender == s_owner) */\n      tag_111\n      jumpi\n      0x00\n      dup1\n      revert\n    tag_111:\n        /* \"contracts/Lottery.sol\":4101:4118  uint256 lenWinner */\n      0x00\n        /* \"contracts/Lottery.sol\":4121:4132  groupTicket */\n      0x06\n        /* \"contracts/Lottery.sol\":4121:4145  groupTicket[luckyNumber] */\n      0x00\n        /* \"contracts/Lottery.sol\":4133:4144  luckyNumber */\n      sload(0x0a)\n        /* \"contracts/Lottery.sol\":4121:4145  groupTicket[luckyNumber] */\n      dup2\n      mstore\n      0x20\n      add\n      swap1\n      dup2\n      mstore\n      0x20\n      add\n      0x00\n      keccak256\n        /* \"contracts/Lottery.sol\":4121:4157  groupTicket[luckyNumber].groupPlayer */\n      0x00\n      add\n        /* \"contracts/Lottery.sol\":4121:4164  groupTicket[luckyNumber].groupPlayer.length */\n      dup1\n      sload\n      swap1\n      pop\n        /* \"contracts/Lottery.sol\":4101:4164  uint256 lenWinner = groupTicket[luckyNumber].groupPlayer.length */\n      swap1\n      pop\n        /* \"contracts/Lottery.sol\":4208:4227  uint256 winnerPrize */\n      0x00\n        /* \"contracts/Lottery.sol\":4242:4251  lenWinner */\n      dup2\n        /* \"contracts/Lottery.sol\":4230:4239  prizePool */\n      sload(0x09)\n        /* \"contracts/Lottery.sol\":4230:4251  prizePool / lenWinner */\n      tag_113\n      swap2\n      swap1\n      tag_114\n      jump\t// in\n    tag_113:\n        /* \"contracts/Lottery.sol\":4208:4251  uint256 winnerPrize = prizePool / lenWinner */\n      swap1\n      pop\n        /* \"contracts/Lottery.sol\":4265:4274  uint256 i */\n      0x00\n        /* \"contracts/Lottery.sol\":4261:4395  for(uint256 i = 0; i < lenWinner; i++){... */\n    tag_115:\n        /* \"contracts/Lottery.sol\":4284:4293  lenWinner */\n      dup3\n        /* \"contracts/Lottery.sol\":4280:4281  i */\n      dup2\n        /* \"contracts/Lottery.sol\":4280:4293  i < lenWinner */\n      lt\n        /* \"contracts/Lottery.sol\":4261:4395  for(uint256 i = 0; i < lenWinner; i++){... */\n      iszero\n      tag_116\n      jumpi\n        /* \"contracts/Lottery.sol\":4295:4298  i++ */\n      dup1\n      dup1\n      tag_118\n      swap1\n      tag_119\n      jump\t// in\n    tag_118:\n      swap2\n      pop\n      pop\n        /* \"contracts/Lottery.sol\":4261:4395  for(uint256 i = 0; i < lenWinner; i++){... */\n      jump(tag_115)\n    tag_116:\n      pop\n        /* \"contracts/Lottery.sol\":4091:4401  {... */\n      pop\n      pop\n        /* \"contracts/Lottery.sol\":4049:4401  function closeLottery() external onlyOwner{... */\n      jump\t// out\n        /* \"contracts/Lottery.sol\":2493:3042  function enter(uint _numTicket) public payable {... */\n    tag_69:\n        /* \"contracts/Lottery.sol\":2570:2575  2 wei */\n      0x02\n        /* \"contracts/Lottery.sol\":2558:2567  msg.value */\n      callvalue\n        /* \"contracts/Lottery.sol\":2558:2575  msg.value > 2 wei */\n      gt\n        /* \"contracts/Lottery.sol\":2550:2596  require(msg.value > 2 wei, \"Not enough token\") */\n      tag_121\n      jumpi\n      mload(0x40)\n      0x08c379a000000000000000000000000000000000000000000000000000000000\n      dup2\n      mstore\n      0x04\n      add\n      tag_122\n      swap1\n      tag_123\n      jump\t// in\n    tag_122:\n      mload(0x40)\n      dup1\n      swap2\n      sub\n      swap1\n      revert\n    tag_121:\n        /* \"contracts/Lottery.sol\":2619:2628  msg.value */\n      callvalue\n        /* \"contracts/Lottery.sol\":2606:2615  prizePool */\n      0x09\n      0x00\n        /* \"contracts/Lottery.sol\":2606:2628  prizePool += msg.value */\n      dup3\n      dup3\n      sload\n      tag_124\n      swap2\n      swap1\n      tag_125\n      jump\t// in\n    tag_124:\n      swap3\n      pop\n      pop\n      dup2\n      swap1\n      sstore\n      pop\n        /* \"contracts/Lottery.sol\":2660:2661  1 */\n      0x01\n        /* \"contracts/Lottery.sol\":2646:2656  _numTicket */\n      dup2\n        /* \"contracts/Lottery.sol\":2646:2661  _numTicket >= 1 */\n      lt\n      iszero\n        /* \"contracts/Lottery.sol\":2646:2681  _numTicket >= 1 && _numTicket <= 10 */\n      dup1\n      iszero\n      tag_126\n      jumpi\n      pop\n        /* \"contracts/Lottery.sol\":2679:2681  10 */\n      0x0a\n        /* \"contracts/Lottery.sol\":2665:2675  _numTicket */\n      dup2\n        /* \"contracts/Lottery.sol\":2665:2681  _numTicket <= 10 */\n      gt\n      iszero\n        /* \"contracts/Lottery.sol\":2646:2681  _numTicket >= 1 && _numTicket <= 10 */\n    tag_126:\n        /* \"contracts/Lottery.sol\":2638:2712  require(_numTicket >= 1 && _numTicket <= 10, \"Number ticket out of range\") */\n      tag_127\n      jumpi\n      mload(0x40)\n      0x08c379a000000000000000000000000000000000000000000000000000000000\n      dup2\n      mstore\n      0x04\n      add\n      tag_128\n      swap1\n      tag_129\n      jump\t// in\n    tag_128:\n      mload(0x40)\n      dup1\n      swap2\n      sub\n      swap1\n      revert\n    tag_127:\n        /* \"contracts/Lottery.sol\":2722:2752  Participants storage newPlayer */\n      0x00\n        /* \"contracts/Lottery.sol\":2755:2765  allLottery */\n      0x07\n        /* \"contracts/Lottery.sol\":2755:2778  allLottery[playerCount] */\n      0x00\n        /* \"contracts/Lottery.sol\":2766:2777  playerCount */\n      sload(0x08)\n        /* \"contracts/Lottery.sol\":2755:2778  allLottery[playerCount] */\n      dup2\n      mstore\n      0x20\n      add\n      swap1\n      dup2\n      mstore\n      0x20\n      add\n      0x00\n      keccak256\n        /* \"contracts/Lottery.sol\":2722:2778  Participants storage newPlayer = allLottery[playerCount] */\n      swap1\n      pop\n        /* \"contracts/Lottery.sol\":2815:2825  msg.sender */\n      caller\n        /* \"contracts/Lottery.sol\":2788:2797  newPlayer */\n      dup2\n        /* \"contracts/Lottery.sol\":2788:2804  newPlayer.player */\n      0x00\n      add\n      0x00\n        /* \"contracts/Lottery.sol\":2788:2826  newPlayer.player = payable(msg.sender) */\n      0x0100\n      exp\n      dup2\n      sload\n      dup2\n      0xffffffffffffffffffffffffffffffffffffffff\n      mul\n      not\n      and\n      swap1\n      dup4\n      0xffffffffffffffffffffffffffffffffffffffff\n      and\n      mul\n      or\n      swap1\n      sstore\n      pop\n        /* \"contracts/Lottery.sol\":2858:2868  _numTicket */\n      dup2\n        /* \"contracts/Lottery.sol\":2836:2845  newPlayer */\n      dup2\n        /* \"contracts/Lottery.sol\":2836:2855  newPlayer.numTicket */\n      0x01\n      add\n        /* \"contracts/Lottery.sol\":2836:2868  newPlayer.numTicket = _numTicket */\n      dup2\n      swap1\n      sstore\n      pop\n        /* \"contracts/Lottery.sol\":2878:2912  ListNumberTicket storage addTicket */\n      0x00\n        /* \"contracts/Lottery.sol\":2915:2926  groupTicket */\n      0x06\n        /* \"contracts/Lottery.sol\":2915:2947  groupTicket[newPlayer.numTicket] */\n      0x00\n        /* \"contracts/Lottery.sol\":2927:2936  newPlayer */\n      dup4\n        /* \"contracts/Lottery.sol\":2927:2946  newPlayer.numTicket */\n      0x01\n      add\n      sload\n        /* \"contracts/Lottery.sol\":2915:2947  groupTicket[newPlayer.numTicket] */\n      dup2\n      mstore\n      0x20\n      add\n      swap1\n      dup2\n      mstore\n      0x20\n      add\n      0x00\n      keccak256\n        /* \"contracts/Lottery.sol\":2878:2947  ListNumberTicket storage addTicket = groupTicket[newPlayer.numTicket] */\n      swap1\n      pop\n        /* \"contracts/Lottery.sol\":2957:2966  addTicket */\n      dup1\n        /* \"contracts/Lottery.sol\":2957:2978  addTicket.groupPlayer */\n      0x00\n      add\n        /* \"contracts/Lottery.sol\":2992:3002  msg.sender */\n      caller\n        /* \"contracts/Lottery.sol\":2957:3004  addTicket.groupPlayer.push(payable(msg.sender)) */\n      swap1\n      dup1\n      0x01\n      dup2\n      sload\n      add\n      dup1\n      dup3\n      sstore\n      dup1\n      swap2\n      pop\n      pop\n      0x01\n      swap1\n      sub\n      swap1\n      0x00\n      mstore\n      keccak256(0x00, 0x20)\n      add\n      0x00\n      swap1\n      swap2\n      swap1\n      swap2\n      swap1\n      swap2\n      0x0100\n      exp\n      dup2\n      sload\n      dup2\n      0xffffffffffffffffffffffffffffffffffffffff\n      mul\n      not\n      and\n      swap1\n      dup4\n      0xffffffffffffffffffffffffffffffffffffffff\n      and\n      mul\n      or\n      swap1\n      sstore\n      pop\n        /* \"contracts/Lottery.sol\":3014:3035  increasePlayerCount() */\n      tag_131\n        /* \"contracts/Lottery.sol\":3014:3033  increasePlayerCount */\n      tag_132\n        /* \"contracts/Lottery.sol\":3014:3035  increasePlayerCount() */\n      jump\t// in\n    tag_131:\n        /* \"contracts/Lottery.sol\":2540:3042  {... */\n      pop\n      pop\n        /* \"contracts/Lottery.sol\":2493:3042  function enter(uint _numTicket) public payable {... */\n      pop\n      jump\t// out\n        /* \"contracts/Lottery.sol\":1379:1400  uint public lotteryId */\n    tag_72:\n      sload(0x04)\n      dup2\n      jump\t// out\n        /* \"contracts/Lottery.sol\":1308:1334  uint256 public s_requestId */\n    tag_76:\n      sload(0x02)\n      dup2\n      jump\t// out\n        /* \"contracts/Lottery.sol\":1272:1302  uint256[] public s_randomWords */\n    tag_81:\n      0x01\n      dup2\n      dup2\n      sload\n      dup2\n      lt\n      tag_133\n      jumpi\n      0x00\n      dup1\n      revert\n    tag_133:\n      swap1\n      0x00\n      mstore\n      keccak256(0x00, 0x20)\n      add\n      0x00\n      swap2\n      pop\n      swap1\n      pop\n      sload\n      dup2\n      jump\t// out\n        /* \"contracts/Lottery.sol\":3671:3838  function fulfillRandomWords(... */\n    tag_94:\n        /* \"contracts/Lottery.sol\":3820:3831  randomWords */\n      dup1\n        /* \"contracts/Lottery.sol\":3804:3817  s_randomWords */\n      0x01\n        /* \"contracts/Lottery.sol\":3804:3831  s_randomWords = randomWords */\n      swap1\n      dup1\n      mload\n      swap1\n      0x20\n      add\n      swap1\n      tag_136\n      swap3\n      swap2\n      swap1\n      tag_137\n      jump\t// in\n    tag_136:\n      pop\n        /* \"contracts/Lottery.sol\":3671:3838  function fulfillRandomWords(... */\n      pop\n      pop\n      jump\t// out\n        /* \"contracts/Lottery.sol\":3053:3123  function increasePlayerCount() internal {... */\n    tag_132:\n        /* \"contracts/Lottery.sol\":3103:3114  playerCount */\n      0x08\n      0x00\n        /* \"contracts/Lottery.sol\":3103:3116  playerCount++ */\n      dup2\n      sload\n      dup1\n      swap3\n      swap2\n      swap1\n      tag_139\n      swap1\n      tag_119\n      jump\t// in\n    tag_139:\n      swap2\n      swap1\n      pop\n      sstore\n      pop\n        /* \"contracts/Lottery.sol\":3053:3123  function increasePlayerCount() internal {... */\n      jump\t// out\n    tag_137:\n      dup3\n      dup1\n      sload\n      dup3\n      dup3\n      sstore\n      swap1\n      0x00\n      mstore\n      keccak256(0x00, 0x20)\n      swap1\n      dup2\n      add\n      swap3\n      dup3\n      iszero\n      tag_140\n      jumpi\n      swap2\n      0x20\n      mul\n      dup3\n      add\n    tag_141:\n      dup3\n      dup2\n      gt\n      iszero\n      tag_142\n      jumpi\n      dup3\n      mload\n      dup3\n      sstore\n      swap2\n      0x20\n      add\n      swap2\n      swap1\n      0x01\n      add\n      swap1\n      jump(tag_141)\n    tag_142:\n    tag_140:\n      pop\n      swap1\n      pop\n      tag_143\n      swap2\n      swap1\n      tag_144\n      jump\t// in\n    tag_143:\n      pop\n      swap1\n      jump\t// out\n    tag_144:\n    tag_145:\n      dup1\n      dup3\n      gt\n      iszero\n      tag_146\n      jumpi\n      0x00\n      dup2\n      0x00\n      swap1\n      sstore\n      pop\n      0x01\n      add\n      jump(tag_145)\n    tag_146:\n      pop\n      swap1\n      jump\t// out\n        /* \"#utility.yul\":7:84   */\n    tag_147:\n        /* \"#utility.yul\":44:51   */\n      0x00\n        /* \"#utility.yul\":73:78   */\n      dup2\n        /* \"#utility.yul\":62:78   */\n      swap1\n      pop\n        /* \"#utility.yul\":7:84   */\n      swap2\n      swap1\n      pop\n      jump\t// out\n        /* \"#utility.yul\":90:208   */\n    tag_148:\n        /* \"#utility.yul\":177:201   */\n      tag_187\n        /* \"#utility.yul\":195:200   */\n      dup2\n        /* \"#utility.yul\":177:201   */\n      tag_147\n      jump\t// in\n    tag_187:\n        /* \"#utility.yul\":172:175   */\n      dup3\n        /* \"#utility.yul\":165:202   */\n      mstore\n        /* \"#utility.yul\":90:208   */\n      pop\n      pop\n      jump\t// out\n        /* \"#utility.yul\":214:436   */\n    tag_23:\n        /* \"#utility.yul\":307:311   */\n      0x00\n        /* \"#utility.yul\":345:347   */\n      0x20\n        /* \"#utility.yul\":334:343   */\n      dup3\n        /* \"#utility.yul\":330:348   */\n      add\n        /* \"#utility.yul\":322:348   */\n      swap1\n      pop\n        /* \"#utility.yul\":358:429   */\n      tag_189\n        /* \"#utility.yul\":426:427   */\n      0x00\n        /* \"#utility.yul\":415:424   */\n      dup4\n        /* \"#utility.yul\":411:428   */\n      add\n        /* \"#utility.yul\":402:408   */\n      dup5\n        /* \"#utility.yul\":358:429   */\n      tag_148\n      jump\t// in\n    tag_189:\n        /* \"#utility.yul\":214:436   */\n      swap3\n      swap2\n      pop\n      pop\n      jump\t// out\n        /* \"#utility.yul\":442:517   */\n    tag_149:\n        /* \"#utility.yul\":475:481   */\n      0x00\n        /* \"#utility.yul\":508:510   */\n      0x40\n        /* \"#utility.yul\":502:511   */\n      mload\n        /* \"#utility.yul\":492:511   */\n      swap1\n      pop\n        /* \"#utility.yul\":442:517   */\n      swap1\n      jump\t// out\n        /* \"#utility.yul\":523:640   */\n    tag_150:\n        /* \"#utility.yul\":632:633   */\n      0x00\n        /* \"#utility.yul\":629:630   */\n      dup1\n        /* \"#utility.yul\":622:634   */\n      revert\n        /* \"#utility.yul\":646:763   */\n    tag_151:\n        /* \"#utility.yul\":755:756   */\n      0x00\n        /* \"#utility.yul\":752:753   */\n      dup1\n        /* \"#utility.yul\":745:757   */\n      revert\n        /* \"#utility.yul\":769:891   */\n    tag_152:\n        /* \"#utility.yul\":842:866   */\n      tag_194\n        /* \"#utility.yul\":860:865   */\n      dup2\n        /* \"#utility.yul\":842:866   */\n      tag_147\n      jump\t// in\n    tag_194:\n        /* \"#utility.yul\":835:840   */\n      dup2\n        /* \"#utility.yul\":832:867   */\n      eq\n        /* \"#utility.yul\":822:885   */\n      tag_195\n      jumpi\n        /* \"#utility.yul\":881:882   */\n      0x00\n        /* \"#utility.yul\":878:879   */\n      dup1\n        /* \"#utility.yul\":871:883   */\n      revert\n        /* \"#utility.yul\":822:885   */\n    tag_195:\n        /* \"#utility.yul\":769:891   */\n      pop\n      jump\t// out\n        /* \"#utility.yul\":897:1036   */\n    tag_153:\n        /* \"#utility.yul\":943:948   */\n      0x00\n        /* \"#utility.yul\":981:987   */\n      dup2\n        /* \"#utility.yul\":968:988   */\n      calldataload\n        /* \"#utility.yul\":959:988   */\n      swap1\n      pop\n        /* \"#utility.yul\":997:1030   */\n      tag_197\n        /* \"#utility.yul\":1024:1029   */\n      dup2\n        /* \"#utility.yul\":997:1030   */\n      tag_152\n      jump\t// in\n    tag_197:\n        /* \"#utility.yul\":897:1036   */\n      swap3\n      swap2\n      pop\n      pop\n      jump\t// out\n        /* \"#utility.yul\":1042:1371   */\n    tag_27:\n        /* \"#utility.yul\":1101:1107   */\n      0x00\n        /* \"#utility.yul\":1150:1152   */\n      0x20\n        /* \"#utility.yul\":1138:1147   */\n      dup3\n        /* \"#utility.yul\":1129:1136   */\n      dup5\n        /* \"#utility.yul\":1125:1148   */\n      sub\n        /* \"#utility.yul\":1121:1153   */\n      slt\n        /* \"#utility.yul\":1118:1237   */\n      iszero\n      tag_199\n      jumpi\n        /* \"#utility.yul\":1156:1235   */\n      tag_200\n      tag_150\n      jump\t// in\n    tag_200:\n        /* \"#utility.yul\":1118:1237   */\n    tag_199:\n        /* \"#utility.yul\":1276:1277   */\n      0x00\n        /* \"#utility.yul\":1301:1354   */\n      tag_201\n        /* \"#utility.yul\":1346:1353   */\n      dup5\n        /* \"#utility.yul\":1337:1343   */\n      dup3\n        /* \"#utility.yul\":1326:1335   */\n      dup6\n        /* \"#utility.yul\":1322:1344   */\n      add\n        /* \"#utility.yul\":1301:1354   */\n      tag_153\n      jump\t// in\n    tag_201:\n        /* \"#utility.yul\":1291:1354   */\n      swap2\n      pop\n        /* \"#utility.yul\":1247:1364   */\n      pop\n        /* \"#utility.yul\":1042:1371   */\n      swap3\n      swap2\n      pop\n      pop\n      jump\t// out\n        /* \"#utility.yul\":1377:1503   */\n    tag_154:\n        /* \"#utility.yul\":1414:1421   */\n      0x00\n        /* \"#utility.yul\":1454:1496   */\n      0xffffffffffffffffffffffffffffffffffffffff\n        /* \"#utility.yul\":1447:1452   */\n      dup3\n        /* \"#utility.yul\":1443:1497   */\n      and\n        /* \"#utility.yul\":1432:1497   */\n      swap1\n      pop\n        /* \"#utility.yul\":1377:1503   */\n      swap2\n      swap1\n      pop\n      jump\t// out\n        /* \"#utility.yul\":1509:1605   */\n    tag_155:\n        /* \"#utility.yul\":1546:1553   */\n      0x00\n        /* \"#utility.yul\":1575:1599   */\n      tag_204\n        /* \"#utility.yul\":1593:1598   */\n      dup3\n        /* \"#utility.yul\":1575:1599   */\n      tag_154\n      jump\t// in\n    tag_204:\n        /* \"#utility.yul\":1564:1599   */\n      swap1\n      pop\n        /* \"#utility.yul\":1509:1605   */\n      swap2\n      swap1\n      pop\n      jump\t// out\n        /* \"#utility.yul\":1611:1729   */\n    tag_156:\n        /* \"#utility.yul\":1698:1722   */\n      tag_206\n        /* \"#utility.yul\":1716:1721   */\n      dup2\n        /* \"#utility.yul\":1698:1722   */\n      tag_155\n      jump\t// in\n    tag_206:\n        /* \"#utility.yul\":1693:1696   */\n      dup3\n        /* \"#utility.yul\":1686:1723   */\n      mstore\n        /* \"#utility.yul\":1611:1729   */\n      pop\n      pop\n      jump\t// out\n        /* \"#utility.yul\":1735:1957   */\n    tag_30:\n        /* \"#utility.yul\":1828:1832   */\n      0x00\n        /* \"#utility.yul\":1866:1868   */\n      0x20\n        /* \"#utility.yul\":1855:1864   */\n      dup3\n        /* \"#utility.yul\":1851:1869   */\n      add\n        /* \"#utility.yul\":1843:1869   */\n      swap1\n      pop\n        /* \"#utility.yul\":1879:1950   */\n      tag_208\n        /* \"#utility.yul\":1947:1948   */\n      0x00\n        /* \"#utility.yul\":1936:1945   */\n      dup4\n        /* \"#utility.yul\":1932:1949   */\n      add\n        /* \"#utility.yul\":1923:1929   */\n      dup5\n        /* \"#utility.yul\":1879:1950   */\n      tag_156\n      jump\t// in\n    tag_208:\n        /* \"#utility.yul\":1735:1957   */\n      swap3\n      swap2\n      pop\n      pop\n      jump\t// out\n        /* \"#utility.yul\":1963:2080   */\n    tag_157:\n        /* \"#utility.yul\":2072:2073   */\n      0x00\n        /* \"#utility.yul\":2069:2070   */\n      dup1\n        /* \"#utility.yul\":2062:2074   */\n      revert\n        /* \"#utility.yul\":2086:2188   */\n    tag_158:\n        /* \"#utility.yul\":2127:2133   */\n      0x00\n        /* \"#utility.yul\":2178:2180   */\n      0x1f\n        /* \"#utility.yul\":2174:2181   */\n      not\n        /* \"#utility.yul\":2169:2171   */\n      0x1f\n        /* \"#utility.yul\":2162:2167   */\n      dup4\n        /* \"#utility.yul\":2158:2172   */\n      add\n        /* \"#utility.yul\":2154:2182   */\n      and\n        /* \"#utility.yul\":2144:2182   */\n      swap1\n      pop\n        /* \"#utility.yul\":2086:2188   */\n      swap2\n      swap1\n      pop\n      jump\t// out\n        /* \"#utility.yul\":2194:2374   */\n    tag_159:\n        /* \"#utility.yul\":2242:2319   */\n      0x4e487b7100000000000000000000000000000000000000000000000000000000\n        /* \"#utility.yul\":2239:2240   */\n      0x00\n        /* \"#utility.yul\":2232:2320   */\n      mstore\n        /* \"#utility.yul\":2339:2343   */\n      0x41\n        /* \"#utility.yul\":2336:2337   */\n      0x04\n        /* \"#utility.yul\":2329:2344   */\n      mstore\n        /* \"#utility.yul\":2363:2367   */\n      0x24\n        /* \"#utility.yul\":2360:2361   */\n      0x00\n        /* \"#utility.yul\":2353:2368   */\n      revert\n        /* \"#utility.yul\":2380:2661   */\n    tag_160:\n        /* \"#utility.yul\":2463:2490   */\n      tag_213\n        /* \"#utility.yul\":2485:2489   */\n      dup3\n        /* \"#utility.yul\":2463:2490   */\n      tag_158\n      jump\t// in\n    tag_213:\n        /* \"#utility.yul\":2455:2461   */\n      dup2\n        /* \"#utility.yul\":2451:2491   */\n      add\n        /* \"#utility.yul\":2593:2599   */\n      dup2\n        /* \"#utility.yul\":2581:2591   */\n      dup2\n        /* \"#utility.yul\":2578:2600   */\n      lt\n        /* \"#utility.yul\":2557:2575   */\n      0xffffffffffffffff\n        /* \"#utility.yul\":2545:2555   */\n      dup3\n        /* \"#utility.yul\":2542:2576   */\n      gt\n        /* \"#utility.yul\":2539:2601   */\n      or\n        /* \"#utility.yul\":2536:2624   */\n      iszero\n      tag_214\n      jumpi\n        /* \"#utility.yul\":2604:2622   */\n      tag_215\n      tag_159\n      jump\t// in\n    tag_215:\n        /* \"#utility.yul\":2536:2624   */\n    tag_214:\n        /* \"#utility.yul\":2644:2654   */\n      dup1\n        /* \"#utility.yul\":2640:2642   */\n      0x40\n        /* \"#utility.yul\":2633:2655   */\n      mstore\n        /* \"#utility.yul\":2423:2661   */\n      pop\n        /* \"#utility.yul\":2380:2661   */\n      pop\n      pop\n      jump\t// out\n        /* \"#utility.yul\":2667:2796   */\n    tag_161:\n        /* \"#utility.yul\":2701:2707   */\n      0x00\n        /* \"#utility.yul\":2728:2748   */\n      tag_217\n      tag_149\n      jump\t// in\n    tag_217:\n        /* \"#utility.yul\":2718:2748   */\n      swap1\n      pop\n        /* \"#utility.yul\":2757:2790   */\n      tag_218\n        /* \"#utility.yul\":2785:2789   */\n      dup3\n        /* \"#utility.yul\":2777:2783   */\n      dup3\n        /* \"#utility.yul\":2757:2790   */\n      tag_160\n      jump\t// in\n    tag_218:\n        /* \"#utility.yul\":2667:2796   */\n      swap2\n      swap1\n      pop\n      jump\t// out\n        /* \"#utility.yul\":2802:3113   */\n    tag_162:\n        /* \"#utility.yul\":2879:2883   */\n      0x00\n        /* \"#utility.yul\":2969:2987   */\n      0xffffffffffffffff\n        /* \"#utility.yul\":2961:2967   */\n      dup3\n        /* \"#utility.yul\":2958:2988   */\n      gt\n        /* \"#utility.yul\":2955:3011   */\n      iszero\n      tag_220\n      jumpi\n        /* \"#utility.yul\":2991:3009   */\n      tag_221\n      tag_159\n      jump\t// in\n    tag_221:\n        /* \"#utility.yul\":2955:3011   */\n    tag_220:\n        /* \"#utility.yul\":3041:3045   */\n      0x20\n        /* \"#utility.yul\":3033:3039   */\n      dup3\n        /* \"#utility.yul\":3029:3046   */\n      mul\n        /* \"#utility.yul\":3021:3046   */\n      swap1\n      pop\n        /* \"#utility.yul\":3101:3105   */\n      0x20\n        /* \"#utility.yul\":3095:3099   */\n      dup2\n        /* \"#utility.yul\":3091:3106   */\n      add\n        /* \"#utility.yul\":3083:3106   */\n      swap1\n      pop\n        /* \"#utility.yul\":2802:3113   */\n      swap2\n      swap1\n      pop\n      jump\t// out\n        /* \"#utility.yul\":3119:3236   */\n    tag_163:\n        /* \"#utility.yul\":3228:3229   */\n      0x00\n        /* \"#utility.yul\":3225:3226   */\n      dup1\n        /* \"#utility.yul\":3218:3230   */\n      revert\n        /* \"#utility.yul\":3259:3969   */\n    tag_164:\n        /* \"#utility.yul\":3355:3360   */\n      0x00\n        /* \"#utility.yul\":3380:3461   */\n      tag_224\n        /* \"#utility.yul\":3396:3460   */\n      tag_225\n        /* \"#utility.yul\":3453:3459   */\n      dup5\n        /* \"#utility.yul\":3396:3460   */\n      tag_162\n      jump\t// in\n    tag_225:\n        /* \"#utility.yul\":3380:3461   */\n      tag_161\n      jump\t// in\n    tag_224:\n        /* \"#utility.yul\":3371:3461   */\n      swap1\n      pop\n        /* \"#utility.yul\":3481:3486   */\n      dup1\n        /* \"#utility.yul\":3510:3516   */\n      dup4\n        /* \"#utility.yul\":3503:3508   */\n      dup3\n        /* \"#utility.yul\":3496:3517   */\n      mstore\n        /* \"#utility.yul\":3544:3548   */\n      0x20\n        /* \"#utility.yul\":3537:3542   */\n      dup3\n        /* \"#utility.yul\":3533:3549   */\n      add\n        /* \"#utility.yul\":3526:3549   */\n      swap1\n      pop\n        /* \"#utility.yul\":3597:3601   */\n      0x20\n        /* \"#utility.yul\":3589:3595   */\n      dup5\n        /* \"#utility.yul\":3585:3602   */\n      mul\n        /* \"#utility.yul\":3577:3583   */\n      dup4\n        /* \"#utility.yul\":3573:3603   */\n      add\n        /* \"#utility.yul\":3626:3629   */\n      dup6\n        /* \"#utility.yul\":3618:3624   */\n      dup2\n        /* \"#utility.yul\":3615:3630   */\n      gt\n        /* \"#utility.yul\":3612:3734   */\n      iszero\n      tag_226\n      jumpi\n        /* \"#utility.yul\":3645:3724   */\n      tag_227\n      tag_163\n      jump\t// in\n    tag_227:\n        /* \"#utility.yul\":3612:3734   */\n    tag_226:\n        /* \"#utility.yul\":3760:3766   */\n      dup4\n        /* \"#utility.yul\":3743:3963   */\n    tag_228:\n        /* \"#utility.yul\":3777:3783   */\n      dup2\n        /* \"#utility.yul\":3772:3775   */\n      dup2\n        /* \"#utility.yul\":3769:3784   */\n      lt\n        /* \"#utility.yul\":3743:3963   */\n      iszero\n      tag_230\n      jumpi\n        /* \"#utility.yul\":3852:3855   */\n      dup1\n        /* \"#utility.yul\":3881:3918   */\n      tag_231\n        /* \"#utility.yul\":3914:3917   */\n      dup9\n        /* \"#utility.yul\":3902:3912   */\n      dup3\n        /* \"#utility.yul\":3881:3918   */\n      tag_153\n      jump\t// in\n    tag_231:\n        /* \"#utility.yul\":3876:3879   */\n      dup5\n        /* \"#utility.yul\":3869:3919   */\n      mstore\n        /* \"#utility.yul\":3948:3952   */\n      0x20\n        /* \"#utility.yul\":3943:3946   */\n      dup5\n        /* \"#utility.yul\":3939:3953   */\n      add\n        /* \"#utility.yul\":3932:3953   */\n      swap4\n      pop\n        /* \"#utility.yul\":3819:3963   */\n      pop\n        /* \"#utility.yul\":3803:3807   */\n      0x20\n        /* \"#utility.yul\":3798:3801   */\n      dup2\n        /* \"#utility.yul\":3794:3808   */\n      add\n        /* \"#utility.yul\":3787:3808   */\n      swap1\n      pop\n        /* \"#utility.yul\":3743:3963   */\n      jump(tag_228)\n    tag_230:\n        /* \"#utility.yul\":3747:3768   */\n      pop\n        /* \"#utility.yul\":3361:3969   */\n      pop\n      pop\n        /* \"#utility.yul\":3259:3969   */\n      swap4\n      swap3\n      pop\n      pop\n      pop\n      jump\t// out\n        /* \"#utility.yul\":3992:4362   */\n    tag_165:\n        /* \"#utility.yul\":4063:4068   */\n      0x00\n        /* \"#utility.yul\":4112:4115   */\n      dup3\n        /* \"#utility.yul\":4105:4109   */\n      0x1f\n        /* \"#utility.yul\":4097:4103   */\n      dup4\n        /* \"#utility.yul\":4093:4110   */\n      add\n        /* \"#utility.yul\":4089:4116   */\n      slt\n        /* \"#utility.yul\":4079:4201   */\n      tag_233\n      jumpi\n        /* \"#utility.yul\":4120:4199   */\n      tag_234\n      tag_157\n      jump\t// in\n    tag_234:\n        /* \"#utility.yul\":4079:4201   */\n    tag_233:\n        /* \"#utility.yul\":4237:4243   */\n      dup2\n        /* \"#utility.yul\":4224:4244   */\n      calldataload\n        /* \"#utility.yul\":4262:4356   */\n      tag_235\n        /* \"#utility.yul\":4352:4355   */\n      dup5\n        /* \"#utility.yul\":4344:4350   */\n      dup3\n        /* \"#utility.yul\":4337:4341   */\n      0x20\n        /* \"#utility.yul\":4329:4335   */\n      dup7\n        /* \"#utility.yul\":4325:4342   */\n      add\n        /* \"#utility.yul\":4262:4356   */\n      tag_164\n      jump\t// in\n    tag_235:\n        /* \"#utility.yul\":4253:4356   */\n      swap2\n      pop\n        /* \"#utility.yul\":4069:4362   */\n      pop\n        /* \"#utility.yul\":3992:4362   */\n      swap3\n      swap2\n      pop\n      pop\n      jump\t// out\n        /* \"#utility.yul\":4368:5052   */\n    tag_34:\n        /* \"#utility.yul\":4461:4467   */\n      0x00\n        /* \"#utility.yul\":4469:4475   */\n      dup1\n        /* \"#utility.yul\":4518:4520   */\n      0x40\n        /* \"#utility.yul\":4506:4515   */\n      dup4\n        /* \"#utility.yul\":4497:4504   */\n      dup6\n        /* \"#utility.yul\":4493:4516   */\n      sub\n        /* \"#utility.yul\":4489:4521   */\n      slt\n        /* \"#utility.yul\":4486:4605   */\n      iszero\n      tag_237\n      jumpi\n        /* \"#utility.yul\":4524:4603   */\n      tag_238\n      tag_150\n      jump\t// in\n    tag_238:\n        /* \"#utility.yul\":4486:4605   */\n    tag_237:\n        /* \"#utility.yul\":4644:4645   */\n      0x00\n        /* \"#utility.yul\":4669:4722   */\n      tag_239\n        /* \"#utility.yul\":4714:4721   */\n      dup6\n        /* \"#utility.yul\":4705:4711   */\n      dup3\n        /* \"#utility.yul\":4694:4703   */\n      dup7\n        /* \"#utility.yul\":4690:4712   */\n      add\n        /* \"#utility.yul\":4669:4722   */\n      tag_153\n      jump\t// in\n    tag_239:\n        /* \"#utility.yul\":4659:4722   */\n      swap3\n      pop\n        /* \"#utility.yul\":4615:4732   */\n      pop\n        /* \"#utility.yul\":4799:4801   */\n      0x20\n        /* \"#utility.yul\":4788:4797   */\n      dup4\n        /* \"#utility.yul\":4784:4802   */\n      add\n        /* \"#utility.yul\":4771:4803   */\n      calldataload\n        /* \"#utility.yul\":4830:4848   */\n      0xffffffffffffffff\n        /* \"#utility.yul\":4822:4828   */\n      dup2\n        /* \"#utility.yul\":4819:4849   */\n      gt\n        /* \"#utility.yul\":4816:4933   */\n      iszero\n      tag_240\n      jumpi\n        /* \"#utility.yul\":4852:4931   */\n      tag_241\n      tag_151\n      jump\t// in\n    tag_241:\n        /* \"#utility.yul\":4816:4933   */\n    tag_240:\n        /* \"#utility.yul\":4957:5035   */\n      tag_242\n        /* \"#utility.yul\":5027:5034   */\n      dup6\n        /* \"#utility.yul\":5018:5024   */\n      dup3\n        /* \"#utility.yul\":5007:5016   */\n      dup7\n        /* \"#utility.yul\":5003:5025   */\n      add\n        /* \"#utility.yul\":4957:5035   */\n      tag_165\n      jump\t// in\n    tag_242:\n        /* \"#utility.yul\":4947:5035   */\n      swap2\n      pop\n        /* \"#utility.yul\":4742:5045   */\n      pop\n        /* \"#utility.yul\":4368:5052   */\n      swap3\n      pop\n      swap3\n      swap1\n      pop\n      jump\t// out\n        /* \"#utility.yul\":5058:5162   */\n    tag_166:\n        /* \"#utility.yul\":5103:5110   */\n      0x00\n        /* \"#utility.yul\":5132:5156   */\n      tag_244\n        /* \"#utility.yul\":5150:5155   */\n      dup3\n        /* \"#utility.yul\":5132:5156   */\n      tag_154\n      jump\t// in\n    tag_244:\n        /* \"#utility.yul\":5121:5156   */\n      swap1\n      pop\n        /* \"#utility.yul\":5058:5162   */\n      swap2\n      swap1\n      pop\n      jump\t// out\n        /* \"#utility.yul\":5168:5310   */\n    tag_167:\n        /* \"#utility.yul\":5271:5303   */\n      tag_246\n        /* \"#utility.yul\":5297:5302   */\n      dup2\n        /* \"#utility.yul\":5271:5303   */\n      tag_166\n      jump\t// in\n    tag_246:\n        /* \"#utility.yul\":5266:5269   */\n      dup3\n        /* \"#utility.yul\":5259:5304   */\n      mstore\n        /* \"#utility.yul\":5168:5310   */\n      pop\n      pop\n      jump\t// out\n        /* \"#utility.yul\":5316:5570   */\n    tag_41:\n        /* \"#utility.yul\":5425:5429   */\n      0x00\n        /* \"#utility.yul\":5463:5465   */\n      0x20\n        /* \"#utility.yul\":5452:5461   */\n      dup3\n        /* \"#utility.yul\":5448:5466   */\n      add\n        /* \"#utility.yul\":5440:5466   */\n      swap1\n      pop\n        /* \"#utility.yul\":5476:5563   */\n      tag_248\n        /* \"#utility.yul\":5560:5561   */\n      0x00\n        /* \"#utility.yul\":5549:5558   */\n      dup4\n        /* \"#utility.yul\":5545:5562   */\n      add\n        /* \"#utility.yul\":5536:5542   */\n      dup5\n        /* \"#utility.yul\":5476:5563   */\n      tag_167\n      jump\t// in\n    tag_248:\n        /* \"#utility.yul\":5316:5570   */\n      swap3\n      swap2\n      pop\n      pop\n      jump\t// out\n        /* \"#utility.yul\":5576:5940   */\n    tag_54:\n        /* \"#utility.yul\":5713:5717   */\n      0x00\n        /* \"#utility.yul\":5751:5753   */\n      0x40\n        /* \"#utility.yul\":5740:5749   */\n      dup3\n        /* \"#utility.yul\":5736:5754   */\n      add\n        /* \"#utility.yul\":5728:5754   */\n      swap1\n      pop\n        /* \"#utility.yul\":5764:5851   */\n      tag_250\n        /* \"#utility.yul\":5848:5849   */\n      0x00\n        /* \"#utility.yul\":5837:5846   */\n      dup4\n        /* \"#utility.yul\":5833:5850   */\n      add\n        /* \"#utility.yul\":5824:5830   */\n      dup6\n        /* \"#utility.yul\":5764:5851   */\n      tag_167\n      jump\t// in\n    tag_250:\n        /* \"#utility.yul\":5861:5933   */\n      tag_251\n        /* \"#utility.yul\":5929:5931   */\n      0x20\n        /* \"#utility.yul\":5918:5927   */\n      dup4\n        /* \"#utility.yul\":5914:5932   */\n      add\n        /* \"#utility.yul\":5905:5911   */\n      dup5\n        /* \"#utility.yul\":5861:5933   */\n      tag_148\n      jump\t// in\n    tag_251:\n        /* \"#utility.yul\":5576:5940   */\n      swap4\n      swap3\n      pop\n      pop\n      pop\n      jump\t// out\n        /* \"#utility.yul\":5946:6126   */\n    tag_87:\n        /* \"#utility.yul\":5994:6071   */\n      0x4e487b7100000000000000000000000000000000000000000000000000000000\n        /* \"#utility.yul\":5991:5992   */\n      0x00\n        /* \"#utility.yul\":5984:6072   */\n      mstore\n        /* \"#utility.yul\":6091:6095   */\n      0x32\n        /* \"#utility.yul\":6088:6089   */\n      0x04\n        /* \"#utility.yul\":6081:6096   */\n      mstore\n        /* \"#utility.yul\":6115:6119   */\n      0x24\n        /* \"#utility.yul\":6112:6113   */\n      0x00\n        /* \"#utility.yul\":6105:6120   */\n      revert\n        /* \"#utility.yul\":6132:6464   */\n    tag_92:\n        /* \"#utility.yul\":6253:6257   */\n      0x00\n        /* \"#utility.yul\":6291:6293   */\n      0x40\n        /* \"#utility.yul\":6280:6289   */\n      dup3\n        /* \"#utility.yul\":6276:6294   */\n      add\n        /* \"#utility.yul\":6268:6294   */\n      swap1\n      pop\n        /* \"#utility.yul\":6304:6375   */\n      tag_254\n        /* \"#utility.yul\":6372:6373   */\n      0x00\n        /* \"#utility.yul\":6361:6370   */\n      dup4\n        /* \"#utility.yul\":6357:6374   */\n      add\n        /* \"#utility.yul\":6348:6354   */\n      dup6\n        /* \"#utility.yul\":6304:6375   */\n      tag_156\n      jump\t// in\n    tag_254:\n        /* \"#utility.yul\":6385:6457   */\n      tag_255\n        /* \"#utility.yul\":6453:6455   */\n      0x20\n        /* \"#utility.yul\":6442:6451   */\n      dup4\n        /* \"#utility.yul\":6438:6456   */\n      add\n        /* \"#utility.yul\":6429:6435   */\n      dup5\n        /* \"#utility.yul\":6385:6457   */\n      tag_156\n      jump\t// in\n    tag_255:\n        /* \"#utility.yul\":6132:6464   */\n      swap4\n      swap3\n      pop\n      pop\n      pop\n      jump\t// out\n        /* \"#utility.yul\":6470:6547   */\n    tag_168:\n        /* \"#utility.yul\":6507:6514   */\n      0x00\n        /* \"#utility.yul\":6536:6541   */\n      dup2\n        /* \"#utility.yul\":6525:6541   */\n      swap1\n      pop\n        /* \"#utility.yul\":6470:6547   */\n      swap2\n      swap1\n      pop\n      jump\t// out\n        /* \"#utility.yul\":6553:6671   */\n    tag_169:\n        /* \"#utility.yul\":6640:6664   */\n      tag_258\n        /* \"#utility.yul\":6658:6663   */\n      dup2\n        /* \"#utility.yul\":6640:6664   */\n      tag_168\n      jump\t// in\n    tag_258:\n        /* \"#utility.yul\":6635:6638   */\n      dup3\n        /* \"#utility.yul\":6628:6665   */\n      mstore\n        /* \"#utility.yul\":6553:6671   */\n      pop\n      pop\n      jump\t// out\n        /* \"#utility.yul\":6677:6778   */\n    tag_170:\n        /* \"#utility.yul\":6713:6720   */\n      0x00\n        /* \"#utility.yul\":6753:6771   */\n      0xffffffffffffffff\n        /* \"#utility.yul\":6746:6751   */\n      dup3\n        /* \"#utility.yul\":6742:6772   */\n      and\n        /* \"#utility.yul\":6731:6772   */\n      swap1\n      pop\n        /* \"#utility.yul\":6677:6778   */\n      swap2\n      swap1\n      pop\n      jump\t// out\n        /* \"#utility.yul\":6784:6899   */\n    tag_171:\n        /* \"#utility.yul\":6869:6892   */\n      tag_261\n        /* \"#utility.yul\":6886:6891   */\n      dup2\n        /* \"#utility.yul\":6869:6892   */\n      tag_170\n      jump\t// in\n    tag_261:\n        /* \"#utility.yul\":6864:6867   */\n      dup3\n        /* \"#utility.yul\":6857:6893   */\n      mstore\n        /* \"#utility.yul\":6784:6899   */\n      pop\n      pop\n      jump\t// out\n        /* \"#utility.yul\":6905:6994   */\n    tag_172:\n        /* \"#utility.yul\":6941:6948   */\n      0x00\n        /* \"#utility.yul\":6981:6987   */\n      0xffff\n        /* \"#utility.yul\":6974:6979   */\n      dup3\n        /* \"#utility.yul\":6970:6988   */\n      and\n        /* \"#utility.yul\":6959:6988   */\n      swap1\n      pop\n        /* \"#utility.yul\":6905:6994   */\n      swap2\n      swap1\n      pop\n      jump\t// out\n        /* \"#utility.yul\":7000:7115   */\n    tag_173:\n        /* \"#utility.yul\":7085:7108   */\n      tag_264\n        /* \"#utility.yul\":7102:7107   */\n      dup2\n        /* \"#utility.yul\":7085:7108   */\n      tag_172\n      jump\t// in\n    tag_264:\n        /* \"#utility.yul\":7080:7083   */\n      dup3\n        /* \"#utility.yul\":7073:7109   */\n      mstore\n        /* \"#utility.yul\":7000:7115   */\n      pop\n      pop\n      jump\t// out\n        /* \"#utility.yul\":7121:7214   */\n    tag_174:\n        /* \"#utility.yul\":7157:7164   */\n      0x00\n        /* \"#utility.yul\":7197:7207   */\n      0xffffffff\n        /* \"#utility.yul\":7190:7195   */\n      dup3\n        /* \"#utility.yul\":7186:7208   */\n      and\n        /* \"#utility.yul\":7175:7208   */\n      swap1\n      pop\n        /* \"#utility.yul\":7121:7214   */\n      swap2\n      swap1\n      pop\n      jump\t// out\n        /* \"#utility.yul\":7220:7335   */\n    tag_175:\n        /* \"#utility.yul\":7305:7328   */\n      tag_267\n        /* \"#utility.yul\":7322:7327   */\n      dup2\n        /* \"#utility.yul\":7305:7328   */\n      tag_174\n      jump\t// in\n    tag_267:\n        /* \"#utility.yul\":7300:7303   */\n      dup3\n        /* \"#utility.yul\":7293:7329   */\n      mstore\n        /* \"#utility.yul\":7220:7335   */\n      pop\n      pop\n      jump\t// out\n        /* \"#utility.yul\":7341:7989   */\n    tag_101:\n        /* \"#utility.yul\":7538:7542   */\n      0x00\n        /* \"#utility.yul\":7576:7579   */\n      0xa0\n        /* \"#utility.yul\":7565:7574   */\n      dup3\n        /* \"#utility.yul\":7561:7580   */\n      add\n        /* \"#utility.yul\":7553:7580   */\n      swap1\n      pop\n        /* \"#utility.yul\":7590:7661   */\n      tag_269\n        /* \"#utility.yul\":7658:7659   */\n      0x00\n        /* \"#utility.yul\":7647:7656   */\n      dup4\n        /* \"#utility.yul\":7643:7660   */\n      add\n        /* \"#utility.yul\":7634:7640   */\n      dup9\n        /* \"#utility.yul\":7590:7661   */\n      tag_169\n      jump\t// in\n    tag_269:\n        /* \"#utility.yul\":7671:7741   */\n      tag_270\n        /* \"#utility.yul\":7737:7739   */\n      0x20\n        /* \"#utility.yul\":7726:7735   */\n      dup4\n        /* \"#utility.yul\":7722:7740   */\n      add\n        /* \"#utility.yul\":7713:7719   */\n      dup8\n        /* \"#utility.yul\":7671:7741   */\n      tag_171\n      jump\t// in\n    tag_270:\n        /* \"#utility.yul\":7751:7821   */\n      tag_271\n        /* \"#utility.yul\":7817:7819   */\n      0x40\n        /* \"#utility.yul\":7806:7815   */\n      dup4\n        /* \"#utility.yul\":7802:7820   */\n      add\n        /* \"#utility.yul\":7793:7799   */\n      dup7\n        /* \"#utility.yul\":7751:7821   */\n      tag_173\n      jump\t// in\n    tag_271:\n        /* \"#utility.yul\":7831:7901   */\n      tag_272\n        /* \"#utility.yul\":7897:7899   */\n      0x60\n        /* \"#utility.yul\":7886:7895   */\n      dup4\n        /* \"#utility.yul\":7882:7900   */\n      add\n        /* \"#utility.yul\":7873:7879   */\n      dup6\n        /* \"#utility.yul\":7831:7901   */\n      tag_175\n      jump\t// in\n    tag_272:\n        /* \"#utility.yul\":7911:7982   */\n      tag_273\n        /* \"#utility.yul\":7977:7980   */\n      0x80\n        /* \"#utility.yul\":7966:7975   */\n      dup4\n        /* \"#utility.yul\":7962:7981   */\n      add\n        /* \"#utility.yul\":7953:7959   */\n      dup5\n        /* \"#utility.yul\":7911:7982   */\n      tag_175\n      jump\t// in\n    tag_273:\n        /* \"#utility.yul\":7341:7989   */\n      swap7\n      swap6\n      pop\n      pop\n      pop\n      pop\n      pop\n      pop\n      jump\t// out\n        /* \"#utility.yul\":7995:8138   */\n    tag_176:\n        /* \"#utility.yul\":8052:8057   */\n      0x00\n        /* \"#utility.yul\":8083:8089   */\n      dup2\n        /* \"#utility.yul\":8077:8090   */\n      mload\n        /* \"#utility.yul\":8068:8090   */\n      swap1\n      pop\n        /* \"#utility.yul\":8099:8132   */\n      tag_275\n        /* \"#utility.yul\":8126:8131   */\n      dup2\n        /* \"#utility.yul\":8099:8132   */\n      tag_152\n      jump\t// in\n    tag_275:\n        /* \"#utility.yul\":7995:8138   */\n      swap3\n      swap2\n      pop\n      pop\n      jump\t// out\n        /* \"#utility.yul\":8144:8495   */\n    tag_105:\n        /* \"#utility.yul\":8214:8220   */\n      0x00\n        /* \"#utility.yul\":8263:8265   */\n      0x20\n        /* \"#utility.yul\":8251:8260   */\n      dup3\n        /* \"#utility.yul\":8242:8249   */\n      dup5\n        /* \"#utility.yul\":8238:8261   */\n      sub\n        /* \"#utility.yul\":8234:8266   */\n      slt\n        /* \"#utility.yul\":8231:8350   */\n      iszero\n      tag_277\n      jumpi\n        /* \"#utility.yul\":8269:8348   */\n      tag_278\n      tag_150\n      jump\t// in\n    tag_278:\n        /* \"#utility.yul\":8231:8350   */\n    tag_277:\n        /* \"#utility.yul\":8389:8390   */\n      0x00\n        /* \"#utility.yul\":8414:8478   */\n      tag_279\n        /* \"#utility.yul\":8470:8477   */\n      dup5\n        /* \"#utility.yul\":8461:8467   */\n      dup3\n        /* \"#utility.yul\":8450:8459   */\n      dup6\n        /* \"#utility.yul\":8446:8468   */\n      add\n        /* \"#utility.yul\":8414:8478   */\n      tag_176\n      jump\t// in\n    tag_279:\n        /* \"#utility.yul\":8404:8478   */\n      swap2\n      pop\n        /* \"#utility.yul\":8360:8488   */\n      pop\n        /* \"#utility.yul\":8144:8495   */\n      swap3\n      swap2\n      pop\n      pop\n      jump\t// out\n        /* \"#utility.yul\":8501:8681   */\n    tag_177:\n        /* \"#utility.yul\":8549:8626   */\n      0x4e487b7100000000000000000000000000000000000000000000000000000000\n        /* \"#utility.yul\":8546:8547   */\n      0x00\n        /* \"#utility.yul\":8539:8627   */\n      mstore\n        /* \"#utility.yul\":8646:8650   */\n      0x12\n        /* \"#utility.yul\":8643:8644   */\n      0x04\n        /* \"#utility.yul\":8636:8651   */\n      mstore\n        /* \"#utility.yul\":8670:8674   */\n      0x24\n        /* \"#utility.yul\":8667:8668   */\n      0x00\n        /* \"#utility.yul\":8660:8675   */\n      revert\n        /* \"#utility.yul\":8687:8863   */\n    tag_107:\n        /* \"#utility.yul\":8719:8720   */\n      0x00\n        /* \"#utility.yul\":8736:8756   */\n      tag_282\n        /* \"#utility.yul\":8754:8755   */\n      dup3\n        /* \"#utility.yul\":8736:8756   */\n      tag_147\n      jump\t// in\n    tag_282:\n        /* \"#utility.yul\":8731:8756   */\n      swap2\n      pop\n        /* \"#utility.yul\":8770:8790   */\n      tag_283\n        /* \"#utility.yul\":8788:8789   */\n      dup4\n        /* \"#utility.yul\":8770:8790   */\n      tag_147\n      jump\t// in\n    tag_283:\n        /* \"#utility.yul\":8765:8790   */\n      swap3\n      pop\n        /* \"#utility.yul\":8809:8810   */\n      dup3\n        /* \"#utility.yul\":8799:8834   */\n      tag_284\n      jumpi\n        /* \"#utility.yul\":8814:8832   */\n      tag_285\n      tag_177\n      jump\t// in\n    tag_285:\n        /* \"#utility.yul\":8799:8834   */\n    tag_284:\n        /* \"#utility.yul\":8855:8856   */\n      dup3\n        /* \"#utility.yul\":8852:8853   */\n      dup3\n        /* \"#utility.yul\":8848:8857   */\n      mod\n        /* \"#utility.yul\":8843:8857   */\n      swap1\n      pop\n        /* \"#utility.yul\":8687:8863   */\n      swap3\n      swap2\n      pop\n      pop\n      jump\t// out\n        /* \"#utility.yul\":8869:9049   */\n    tag_178:\n        /* \"#utility.yul\":8917:8994   */\n      0x4e487b7100000000000000000000000000000000000000000000000000000000\n        /* \"#utility.yul\":8914:8915   */\n      0x00\n        /* \"#utility.yul\":8907:8995   */\n      mstore\n        /* \"#utility.yul\":9014:9018   */\n      0x11\n        /* \"#utility.yul\":9011:9012   */\n      0x04\n        /* \"#utility.yul\":9004:9019   */\n      mstore\n        /* \"#utility.yul\":9038:9042   */\n      0x24\n        /* \"#utility.yul\":9035:9036   */\n      0x00\n        /* \"#utility.yul\":9028:9043   */\n      revert\n        /* \"#utility.yul\":9055:9240   */\n    tag_114:\n        /* \"#utility.yul\":9095:9096   */\n      0x00\n        /* \"#utility.yul\":9112:9132   */\n      tag_288\n        /* \"#utility.yul\":9130:9131   */\n      dup3\n        /* \"#utility.yul\":9112:9132   */\n      tag_147\n      jump\t// in\n    tag_288:\n        /* \"#utility.yul\":9107:9132   */\n      swap2\n      pop\n        /* \"#utility.yul\":9146:9166   */\n      tag_289\n        /* \"#utility.yul\":9164:9165   */\n      dup4\n        /* \"#utility.yul\":9146:9166   */\n      tag_147\n      jump\t// in\n    tag_289:\n        /* \"#utility.yul\":9141:9166   */\n      swap3\n      pop\n        /* \"#utility.yul\":9185:9186   */\n      dup3\n        /* \"#utility.yul\":9175:9210   */\n      tag_290\n      jumpi\n        /* \"#utility.yul\":9190:9208   */\n      tag_291\n      tag_177\n      jump\t// in\n    tag_291:\n        /* \"#utility.yul\":9175:9210   */\n    tag_290:\n        /* \"#utility.yul\":9232:9233   */\n      dup3\n        /* \"#utility.yul\":9229:9230   */\n      dup3\n        /* \"#utility.yul\":9225:9234   */\n      div\n        /* \"#utility.yul\":9220:9234   */\n      swap1\n      pop\n        /* \"#utility.yul\":9055:9240   */\n      swap3\n      swap2\n      pop\n      pop\n      jump\t// out\n        /* \"#utility.yul\":9246:9479   */\n    tag_119:\n        /* \"#utility.yul\":9285:9288   */\n      0x00\n        /* \"#utility.yul\":9308:9332   */\n      tag_293\n        /* \"#utility.yul\":9326:9331   */\n      dup3\n        /* \"#utility.yul\":9308:9332   */\n      tag_147\n      jump\t// in\n    tag_293:\n        /* \"#utility.yul\":9299:9332   */\n      swap2\n      pop\n        /* \"#utility.yul\":9354:9420   */\n      0xffffffffffffffffffffffffffffffffffffffffffffffffffffffffffffffff\n        /* \"#utility.yul\":9347:9352   */\n      dup3\n        /* \"#utility.yul\":9344:9421   */\n      sub\n        /* \"#utility.yul\":9341:9444   */\n      tag_294\n      jumpi\n        /* \"#utility.yul\":9424:9442   */\n      tag_295\n      tag_178\n      jump\t// in\n    tag_295:\n        /* \"#utility.yul\":9341:9444   */\n    tag_294:\n        /* \"#utility.yul\":9471:9472   */\n      0x01\n        /* \"#utility.yul\":9464:9469   */\n      dup3\n        /* \"#utility.yul\":9460:9473   */\n      add\n        /* \"#utility.yul\":9453:9473   */\n      swap1\n      pop\n        /* \"#utility.yul\":9246:9479   */\n      swap2\n      swap1\n      pop\n      jump\t// out\n        /* \"#utility.yul\":9485:9654   */\n    tag_179:\n        /* \"#utility.yul\":9569:9580   */\n      0x00\n        /* \"#utility.yul\":9603:9609   */\n      dup3\n        /* \"#utility.yul\":9598:9601   */\n      dup3\n        /* \"#utility.yul\":9591:9610   */\n      mstore\n        /* \"#utility.yul\":9643:9647   */\n      0x20\n        /* \"#utility.yul\":9638:9641   */\n      dup3\n        /* \"#utility.yul\":9634:9648   */\n      add\n        /* \"#utility.yul\":9619:9648   */\n      swap1\n      pop\n        /* \"#utility.yul\":9485:9654   */\n      swap3\n      swap2\n      pop\n      pop\n      jump\t// out\n        /* \"#utility.yul\":9660:9826   */\n    tag_180:\n        /* \"#utility.yul\":9800:9818   */\n      0x4e6f7420656e6f75676820746f6b656e00000000000000000000000000000000\n        /* \"#utility.yul\":9796:9797   */\n      0x00\n        /* \"#utility.yul\":9788:9794   */\n      dup3\n        /* \"#utility.yul\":9784:9798   */\n      add\n        /* \"#utility.yul\":9777:9819   */\n      mstore\n        /* \"#utility.yul\":9660:9826   */\n      pop\n      jump\t// out\n        /* \"#utility.yul\":9832:10198   */\n    tag_181:\n        /* \"#utility.yul\":9974:9977   */\n      0x00\n        /* \"#utility.yul\":9995:10062   */\n      tag_299\n        /* \"#utility.yul\":10059:10061   */\n      0x10\n        /* \"#utility.yul\":10054:10057   */\n      dup4\n        /* \"#utility.yul\":9995:10062   */\n      tag_179\n      jump\t// in\n    tag_299:\n        /* \"#utility.yul\":9988:10062   */\n      swap2\n      pop\n        /* \"#utility.yul\":10071:10164   */\n      tag_300\n        /* \"#utility.yul\":10160:10163   */\n      dup3\n        /* \"#utility.yul\":10071:10164   */\n      tag_180\n      jump\t// in\n    tag_300:\n        /* \"#utility.yul\":10189:10191   */\n      0x20\n        /* \"#utility.yul\":10184:10187   */\n      dup3\n        /* \"#utility.yul\":10180:10192   */\n      add\n        /* \"#utility.yul\":10173:10192   */\n      swap1\n      pop\n        /* \"#utility.yul\":9832:10198   */\n      swap2\n      swap1\n      pop\n      jump\t// out\n        /* \"#utility.yul\":10204:10623   */\n    tag_123:\n        /* \"#utility.yul\":10370:10374   */\n      0x00\n        /* \"#utility.yul\":10408:10410   */\n      0x20\n        /* \"#utility.yul\":10397:10406   */\n      dup3\n        /* \"#utility.yul\":10393:10411   */\n      add\n        /* \"#utility.yul\":10385:10411   */\n      swap1\n      pop\n        /* \"#utility.yul\":10457:10466   */\n      dup2\n        /* \"#utility.yul\":10451:10455   */\n      dup2\n        /* \"#utility.yul\":10447:10467   */\n      sub\n        /* \"#utility.yul\":10443:10444   */\n      0x00\n        /* \"#utility.yul\":10432:10441   */\n      dup4\n        /* \"#utility.yul\":10428:10445   */\n      add\n        /* \"#utility.yul\":10421:10468   */\n      mstore\n        /* \"#utility.yul\":10485:10616   */\n      tag_302\n        /* \"#utility.yul\":10611:10615   */\n      dup2\n        /* \"#utility.yul\":10485:10616   */\n      tag_181\n      jump\t// in\n    tag_302:\n        /* \"#utility.yul\":10477:10616   */\n      swap1\n      pop\n        /* \"#utility.yul\":10204:10623   */\n      swap2\n      swap1\n      pop\n      jump\t// out\n        /* \"#utility.yul\":10629:10934   */\n    tag_125:\n        /* \"#utility.yul\":10669:10672   */\n      0x00\n        /* \"#utility.yul\":10688:10708   */\n      tag_304\n        /* \"#utility.yul\":10706:10707   */\n      dup3\n        /* \"#utility.yul\":10688:10708   */\n      tag_147\n      jump\t// in\n    tag_304:\n        /* \"#utility.yul\":10683:10708   */\n      swap2\n      pop\n        /* \"#utility.yul\":10722:10742   */\n      tag_305\n        /* \"#utility.yul\":10740:10741   */\n      dup4\n        /* \"#utility.yul\":10722:10742   */\n      tag_147\n      jump\t// in\n    tag_305:\n        /* \"#utility.yul\":10717:10742   */\n      swap3\n      pop\n        /* \"#utility.yul\":10876:10877   */\n      dup3\n        /* \"#utility.yul\":10808:10874   */\n      0xffffffffffffffffffffffffffffffffffffffffffffffffffffffffffffffff\n        /* \"#utility.yul\":10804:10878   */\n      sub\n        /* \"#utility.yul\":10801:10802   */\n      dup3\n        /* \"#utility.yul\":10798:10879   */\n      gt\n        /* \"#utility.yul\":10795:10902   */\n      iszero\n      tag_306\n      jumpi\n        /* \"#utility.yul\":10882:10900   */\n      tag_307\n      tag_178\n      jump\t// in\n    tag_307:\n        /* \"#utility.yul\":10795:10902   */\n    tag_306:\n        /* \"#utility.yul\":10926:10927   */\n      dup3\n        /* \"#utility.yul\":10923:10924   */\n      dup3\n        /* \"#utility.yul\":10919:10928   */\n      add\n        /* \"#utility.yul\":10912:10928   */\n      swap1\n      pop\n        /* \"#utility.yul\":10629:10934   */\n      swap3\n      swap2\n      pop\n      pop\n      jump\t// out\n        /* \"#utility.yul\":10940:11116   */\n    tag_182:\n        /* \"#utility.yul\":11080:11108   */\n      0x4e756d626572207469636b6574206f7574206f662072616e6765000000000000\n        /* \"#utility.yul\":11076:11077   */\n      0x00\n        /* \"#utility.yul\":11068:11074   */\n      dup3\n        /* \"#utility.yul\":11064:11078   */\n      add\n        /* \"#utility.yul\":11057:11109   */\n      mstore\n        /* \"#utility.yul\":10940:11116   */\n      pop\n      jump\t// out\n        /* \"#utility.yul\":11122:11488   */\n    tag_183:\n        /* \"#utility.yul\":11264:11267   */\n      0x00\n        /* \"#utility.yul\":11285:11352   */\n      tag_310\n        /* \"#utility.yul\":11349:11351   */\n      0x1a\n        /* \"#utility.yul\":11344:11347   */\n      dup4\n        /* \"#utility.yul\":11285:11352   */\n      tag_179\n      jump\t// in\n    tag_310:\n        /* \"#utility.yul\":11278:11352   */\n      swap2\n      pop\n        /* \"#utility.yul\":11361:11454   */\n      tag_311\n        /* \"#utility.yul\":11450:11453   */\n      dup3\n        /* \"#utility.yul\":11361:11454   */\n      tag_182\n      jump\t// in\n    tag_311:\n        /* \"#utility.yul\":11479:11481   */\n      0x20\n        /* \"#utility.yul\":11474:11477   */\n      dup3\n        /* \"#utility.yul\":11470:11482   */\n      add\n        /* \"#utility.yul\":11463:11482   */\n      swap1\n      pop\n        /* \"#utility.yul\":11122:11488   */\n      swap2\n      swap1\n      pop\n      jump\t// out\n        /* \"#utility.yul\":11494:11913   */\n    tag_129:\n        /* \"#utility.yul\":11660:11664   */\n      0x00\n        /* \"#utility.yul\":11698:11700   */\n      0x20\n        /* \"#utility.yul\":11687:11696   */\n      dup3\n        /* \"#utility.yul\":11683:11701   */\n      add\n        /* \"#utility.yul\":11675:11701   */\n      swap1\n      pop\n        /* \"#utility.yul\":11747:11756   */\n      dup2\n        /* \"#utility.yul\":11741:11745   */\n      dup2\n        /* \"#utility.yul\":11737:11757   */\n      sub\n        /* \"#utility.yul\":11733:11734   */\n      0x00\n        /* \"#utility.yul\":11722:11731   */\n      dup4\n        /* \"#utility.yul\":11718:11735   */\n      add\n        /* \"#utility.yul\":11711:11758   */\n      mstore\n        /* \"#utility.yul\":11775:11906   */\n      tag_313\n        /* \"#utility.yul\":11901:11905   */\n      dup2\n        /* \"#utility.yul\":11775:11906   */\n      tag_183\n      jump\t// in\n    tag_313:\n        /* \"#utility.yul\":11767:11906   */\n      swap1\n      pop\n        /* \"#utility.yul\":11494:11913   */\n      swap2\n      swap1\n      pop\n      jump\t// out\n\n    auxdata: 0xa264697066735822122028087472ae329f4a77d8a186c6046ed1a084f2851e672d4e9df933f03a21dd5464736f6c634300080f0033\n}\n",
				"bytecode": {
					"linkReferences": {},
					"object": "60a0604052620186a06000806101000a81548163ffffffff021916908363ffffffff1602179055506003600060046101000a81548161ffff021916908361ffff1602179055506002600060066101000a81548163ffffffff021916908363ffffffff16021790555033600360006101000a81548173ffffffffffffffffffffffffffffffffffffffff021916908373ffffffffffffffffffffffffffffffffffffffff16021790555060006008553480156100b957600080fd5b50736168499c0cffcacd319c818142124b7a15e857ab8073ffffffffffffffffffffffffffffffffffffffff1660808173ffffffffffffffffffffffffffffffffffffffff168152505050608051611104610126600039600081816103c8015261041c01526111046000f3fe6080604052600436106100dd5760003560e01c8063693521d51161007f578063a59f3e0c11610059578063a59f3e0c146102af578063e580f47b146102cb578063e89e106a146102f6578063f6eaffc814610321576100dd565b8063693521d5146102305780636d6fe2301461025b5780636fd0981614610298576100dd565b8063281d098d116100bb578063281d098d1461017357806332eb85a4146101b0578063391ea700146101db578063460e2049146101f2576100dd565b806312065fe0146100e257806318b425ff1461010d5780631fe543e31461014a575b600080fd5b3480156100ee57600080fd5b506100f761035e565b6040516101049190610a24565b60405180910390f35b34801561011957600080fd5b50610134600480360381019061012f9190610a7f565b610368565b6040516101419190610aed565b60405180910390f35b34801561015657600080fd5b50610171600480360381019061016c9190610c61565b6103c6565b005b34801561017f57600080fd5b5061019a60048036038101906101959190610a7f565b610486565b6040516101a79190610cde565b60405180910390f35b3480156101bc57600080fd5b506101c56104c3565b6040516101d29190610a24565b60405180910390f35b3480156101e757600080fd5b506101f06104cd565b005b3480156101fe57600080fd5b5061021960048036038101906102149190610a7f565b61064a565b604051610227929190610cf9565b60405180910390f35b34801561023c57600080fd5b50610245610698565b6040516102529190610a24565b60405180910390f35b34801561026757600080fd5b50610282600480360381019061027d9190610a7f565b6106bb565b60405161028f9190610cde565b60405180910390f35b3480156102a457600080fd5b506102ad6106ee565b005b6102c960048036038101906102c49190610a7f565b61079d565b005b3480156102d757600080fd5b506102e061093c565b6040516102ed9190610a24565b60405180910390f35b34801561030257600080fd5b5061030b610942565b6040516103189190610a24565b60405180910390f35b34801561032d57600080fd5b5061034860048036038101906103439190610a7f565b610948565b6040516103559190610a24565b60405180910390f35b6000600954905090565b600060066000600a548152602001908152602001600020600001828154811061039457610393610d22565b5b9060005260206000200160009054906101000a900473ffffffffffffffffffffffffffffffffffffffff169050919050565b7f000000000000000000000000000000000000000000000000000000000000000073ffffffffffffffffffffffffffffffffffffffff163373ffffffffffffffffffffffffffffffffffffffff161461047857337f00000000000000000000000000000000000000000000000000000000000000006040517f1cf993f400000000000000000000000000000000000000000000000000000000815260040161046f929190610d51565b60405180910390fd5b610482828261096c565b5050565b60006005600083815260200190815260200160002060009054906101000a900473ffffffffffffffffffffffffffffffffffffffff169050919050565b6000600854905090565b600360009054906101000a900473ffffffffffffffffffffffffffffffffffffffff1673ffffffffffffffffffffffffffffffffffffffff163373ffffffffffffffffffffffffffffffffffffffff161461052757600080fd5b600854736168499c0cffcacd319c818142124b7a15e857ab73ffffffffffffffffffffffffffffffffffffffff16635d3b1d307fd89b2bf150e3b9e13446986e571fb9cab24b13cea0a43ea20a6049a85cc807cc60001b611cca600060049054906101000a900461ffff1660008054906101000a900463ffffffff16600060069054906101000a900463ffffffff166040518663ffffffff1660e01b81526004016105d6959493929190610df2565b6020604051808303816000875af11580156105f5573d6000803e3d6000fd5b505050506040513d601f19601f820116820180604052508101906106199190610e5a565b6106239190610eb6565b60028190555060076000600254815260200190815260200160002060010154600a81905550565b60008060006007600085815260200190815260200160002090508060000160009054906101000a900473ffffffffffffffffffffffffffffffffffffffff1681600101549250925050915091565b600060066000600a54815260200190815260200160002060000180549050905090565b60056020528060005260406000206000915054906101000a900473ffffffffffffffffffffffffffffffffffffffff1681565b600360009054906101000a900473ffffffffffffffffffffffffffffffffffffffff1673ffffffffffffffffffffffffffffffffffffffff163373ffffffffffffffffffffffffffffffffffffffff161461074857600080fd5b600060066000600a5481526020019081526020016000206000018054905090506000816009546107789190610f16565b905060005b8281101561079857808061079090610f47565b91505061077d565b505050565b600234116107e0576040517f08c379a00000000000000000000000000000000000000000000000000000000081526004016107d790610fec565b60405180910390fd5b34600960008282546107f2919061100c565b925050819055506001811015801561080b5750600a8111155b61084a576040517f08c379a0000000000000000000000000000000000000000000000000000000008152600401610841906110ae565b60405180910390fd5b60006007600060085481526020019081526020016000209050338160000160006101000a81548173ffffffffffffffffffffffffffffffffffffffff021916908373ffffffffffffffffffffffffffffffffffffffff16021790555081816001018190555060006006600083600101548152602001908152602001600020905080600001339080600181540180825580915050600190039060005260206000200160009091909190916101000a81548173ffffffffffffffffffffffffffffffffffffffff021916908373ffffffffffffffffffffffffffffffffffffffff160217905550610937610987565b505050565b60045481565b60025481565b6001818154811061095857600080fd5b906000526020600020016000915090505481565b80600190805190602001906109829291906109a1565b505050565b6008600081548092919061099a90610f47565b9190505550565b8280548282559060005260206000209081019282156109dd579160200282015b828111156109dc5782518255916020019190600101906109c1565b5b5090506109ea91906109ee565b5090565b5b80821115610a075760008160009055506001016109ef565b5090565b6000819050919050565b610a1e81610a0b565b82525050565b6000602082019050610a396000830184610a15565b92915050565b6000604051905090565b600080fd5b600080fd5b610a5c81610a0b565b8114610a6757600080fd5b50565b600081359050610a7981610a53565b92915050565b600060208284031215610a9557610a94610a49565b5b6000610aa384828501610a6a565b91505092915050565b600073ffffffffffffffffffffffffffffffffffffffff82169050919050565b6000610ad782610aac565b9050919050565b610ae781610acc565b82525050565b6000602082019050610b026000830184610ade565b92915050565b600080fd5b6000601f19601f8301169050919050565b7f4e487b7100000000000000000000000000000000000000000000000000000000600052604160045260246000fd5b610b5682610b0d565b810181811067ffffffffffffffff82111715610b7557610b74610b1e565b5b80604052505050565b6000610b88610a3f565b9050610b948282610b4d565b919050565b600067ffffffffffffffff821115610bb457610bb3610b1e565b5b602082029050602081019050919050565b600080fd5b6000610bdd610bd884610b99565b610b7e565b90508083825260208201905060208402830185811115610c0057610bff610bc5565b5b835b81811015610c295780610c158882610a6a565b845260208401935050602081019050610c02565b5050509392505050565b600082601f830112610c4857610c47610b08565b5b8135610c58848260208601610bca565b91505092915050565b60008060408385031215610c7857610c77610a49565b5b6000610c8685828601610a6a565b925050602083013567ffffffffffffffff811115610ca757610ca6610a4e565b5b610cb385828601610c33565b9150509250929050565b6000610cc882610aac565b9050919050565b610cd881610cbd565b82525050565b6000602082019050610cf36000830184610ccf565b92915050565b6000604082019050610d0e6000830185610ccf565b610d1b6020830184610a15565b9392505050565b7f4e487b7100000000000000000000000000000000000000000000000000000000600052603260045260246000fd5b6000604082019050610d666000830185610ade565b610d736020830184610ade565b9392505050565b6000819050919050565b610d8d81610d7a565b82525050565b600067ffffffffffffffff82169050919050565b610db081610d93565b82525050565b600061ffff82169050919050565b610dcd81610db6565b82525050565b600063ffffffff82169050919050565b610dec81610dd3565b82525050565b600060a082019050610e076000830188610d84565b610e146020830187610da7565b610e216040830186610dc4565b610e2e6060830185610de3565b610e3b6080830184610de3565b9695505050505050565b600081519050610e5481610a53565b92915050565b600060208284031215610e7057610e6f610a49565b5b6000610e7e84828501610e45565b91505092915050565b7f4e487b7100000000000000000000000000000000000000000000000000000000600052601260045260246000fd5b6000610ec182610a0b565b9150610ecc83610a0b565b925082610edc57610edb610e87565b5b828206905092915050565b7f4e487b7100000000000000000000000000000000000000000000000000000000600052601160045260246000fd5b6000610f2182610a0b565b9150610f2c83610a0b565b925082610f3c57610f3b610e87565b5b828204905092915050565b6000610f5282610a0b565b91507fffffffffffffffffffffffffffffffffffffffffffffffffffffffffffffffff8203610f8457610f83610ee7565b5b600182019050919050565b600082825260208201905092915050565b7f4e6f7420656e6f75676820746f6b656e00000000000000000000000000000000600082015250565b6000610fd6601083610f8f565b9150610fe182610fa0565b602082019050919050565b6000602082019050818103600083015261100581610fc9565b9050919050565b600061101782610a0b565b915061102283610a0b565b9250827fffffffffffffffffffffffffffffffffffffffffffffffffffffffffffffffff0382111561105757611056610ee7565b5b828201905092915050565b7f4e756d626572207469636b6574206f7574206f662072616e6765000000000000600082015250565b6000611098601a83610f8f565b91506110a382611062565b602082019050919050565b600060208201905081810360008301526110c78161108b565b905091905056fea264697066735822122028087472ae329f4a77d8a186c6046ed1a084f2851e672d4e9df933f03a21dd5464736f6c634300080f0033",
					"opcodes": "PUSH1 0xA0 PUSH1 0x40 MSTORE PUSH3 0x186A0 PUSH1 0x0 DUP1 PUSH2 0x100 EXP DUP2 SLOAD DUP2 PUSH4 0xFFFFFFFF MUL NOT AND SWAP1 DUP4 PUSH4 0xFFFFFFFF AND MUL OR SWAP1 SSTORE POP PUSH1 0x3 PUSH1 0x0 PUSH1 0x4 PUSH2 0x100 EXP DUP2 SLOAD DUP2 PUSH2 0xFFFF MUL NOT AND SWAP1 DUP4 PUSH2 0xFFFF AND MUL OR SWAP1 SSTORE POP PUSH1 0x2 PUSH1 0x0 PUSH1 0x6 PUSH2 0x100 EXP DUP2 SLOAD DUP2 PUSH4 0xFFFFFFFF MUL NOT AND SWAP1 DUP4 PUSH4 0xFFFFFFFF AND MUL OR SWAP1 SSTORE POP CALLER PUSH1 0x3 PUSH1 0x0 PUSH2 0x100 EXP DUP2 SLOAD DUP2 PUSH20 0xFFFFFFFFFFFFFFFFFFFFFFFFFFFFFFFFFFFFFFFF MUL NOT AND SWAP1 DUP4 PUSH20 0xFFFFFFFFFFFFFFFFFFFFFFFFFFFFFFFFFFFFFFFF AND MUL OR SWAP1 SSTORE POP PUSH1 0x0 PUSH1 0x8 SSTORE CALLVALUE DUP1 ISZERO PUSH2 0xB9 JUMPI PUSH1 0x0 DUP1 REVERT JUMPDEST POP PUSH20 0x6168499C0CFFCACD319C818142124B7A15E857AB DUP1 PUSH20 0xFFFFFFFFFFFFFFFFFFFFFFFFFFFFFFFFFFFFFFFF AND PUSH1 0x80 DUP2 PUSH20 0xFFFFFFFFFFFFFFFFFFFFFFFFFFFFFFFFFFFFFFFF AND DUP2 MSTORE POP POP POP PUSH1 0x80 MLOAD PUSH2 0x1104 PUSH2 0x126 PUSH1 0x0 CODECOPY PUSH1 0x0 DUP2 DUP2 PUSH2 0x3C8 ADD MSTORE PUSH2 0x41C ADD MSTORE PUSH2 0x1104 PUSH1 0x0 RETURN INVALID PUSH1 0x80 PUSH1 0x40 MSTORE PUSH1 0x4 CALLDATASIZE LT PUSH2 0xDD JUMPI PUSH1 0x0 CALLDATALOAD PUSH1 0xE0 SHR DUP1 PUSH4 0x693521D5 GT PUSH2 0x7F JUMPI DUP1 PUSH4 0xA59F3E0C GT PUSH2 0x59 JUMPI DUP1 PUSH4 0xA59F3E0C EQ PUSH2 0x2AF JUMPI DUP1 PUSH4 0xE580F47B EQ PUSH2 0x2CB JUMPI DUP1 PUSH4 0xE89E106A EQ PUSH2 0x2F6 JUMPI DUP1 PUSH4 0xF6EAFFC8 EQ PUSH2 0x321 JUMPI PUSH2 0xDD JUMP JUMPDEST DUP1 PUSH4 0x693521D5 EQ PUSH2 0x230 JUMPI DUP1 PUSH4 0x6D6FE230 EQ PUSH2 0x25B JUMPI DUP1 PUSH4 0x6FD09816 EQ PUSH2 0x298 JUMPI PUSH2 0xDD JUMP JUMPDEST DUP1 PUSH4 0x281D098D GT PUSH2 0xBB JUMPI DUP1 PUSH4 0x281D098D EQ PUSH2 0x173 JUMPI DUP1 PUSH4 0x32EB85A4 EQ PUSH2 0x1B0 JUMPI DUP1 PUSH4 0x391EA700 EQ PUSH2 0x1DB JUMPI DUP1 PUSH4 0x460E2049 EQ PUSH2 0x1F2 JUMPI PUSH2 0xDD JUMP JUMPDEST DUP1 PUSH4 0x12065FE0 EQ PUSH2 0xE2 JUMPI DUP1 PUSH4 0x18B425FF EQ PUSH2 0x10D JUMPI DUP1 PUSH4 0x1FE543E3 EQ PUSH2 0x14A JUMPI JUMPDEST PUSH1 0x0 DUP1 REVERT JUMPDEST CALLVALUE DUP1 ISZERO PUSH2 0xEE JUMPI PUSH1 0x0 DUP1 REVERT JUMPDEST POP PUSH2 0xF7 PUSH2 0x35E JUMP JUMPDEST PUSH1 0x40 MLOAD PUSH2 0x104 SWAP2 SWAP1 PUSH2 0xA24 JUMP JUMPDEST PUSH1 0x40 MLOAD DUP1 SWAP2 SUB SWAP1 RETURN JUMPDEST CALLVALUE DUP1 ISZERO PUSH2 0x119 JUMPI PUSH1 0x0 DUP1 REVERT JUMPDEST POP PUSH2 0x134 PUSH1 0x4 DUP1 CALLDATASIZE SUB DUP2 ADD SWAP1 PUSH2 0x12F SWAP2 SWAP1 PUSH2 0xA7F JUMP JUMPDEST PUSH2 0x368 JUMP JUMPDEST PUSH1 0x40 MLOAD PUSH2 0x141 SWAP2 SWAP1 PUSH2 0xAED JUMP JUMPDEST PUSH1 0x40 MLOAD DUP1 SWAP2 SUB SWAP1 RETURN JUMPDEST CALLVALUE DUP1 ISZERO PUSH2 0x156 JUMPI PUSH1 0x0 DUP1 REVERT JUMPDEST POP PUSH2 0x171 PUSH1 0x4 DUP1 CALLDATASIZE SUB DUP2 ADD SWAP1 PUSH2 0x16C SWAP2 SWAP1 PUSH2 0xC61 JUMP JUMPDEST PUSH2 0x3C6 JUMP JUMPDEST STOP JUMPDEST CALLVALUE DUP1 ISZERO PUSH2 0x17F JUMPI PUSH1 0x0 DUP1 REVERT JUMPDEST POP PUSH2 0x19A PUSH1 0x4 DUP1 CALLDATASIZE SUB DUP2 ADD SWAP1 PUSH2 0x195 SWAP2 SWAP1 PUSH2 0xA7F JUMP JUMPDEST PUSH2 0x486 JUMP JUMPDEST PUSH1 0x40 MLOAD PUSH2 0x1A7 SWAP2 SWAP1 PUSH2 0xCDE JUMP JUMPDEST PUSH1 0x40 MLOAD DUP1 SWAP2 SUB SWAP1 RETURN JUMPDEST CALLVALUE DUP1 ISZERO PUSH2 0x1BC JUMPI PUSH1 0x0 DUP1 REVERT JUMPDEST POP PUSH2 0x1C5 PUSH2 0x4C3 JUMP JUMPDEST PUSH1 0x40 MLOAD PUSH2 0x1D2 SWAP2 SWAP1 PUSH2 0xA24 JUMP JUMPDEST PUSH1 0x40 MLOAD DUP1 SWAP2 SUB SWAP1 RETURN JUMPDEST CALLVALUE DUP1 ISZERO PUSH2 0x1E7 JUMPI PUSH1 0x0 DUP1 REVERT JUMPDEST POP PUSH2 0x1F0 PUSH2 0x4CD JUMP JUMPDEST STOP JUMPDEST CALLVALUE DUP1 ISZERO PUSH2 0x1FE JUMPI PUSH1 0x0 DUP1 REVERT JUMPDEST POP PUSH2 0x219 PUSH1 0x4 DUP1 CALLDATASIZE SUB DUP2 ADD SWAP1 PUSH2 0x214 SWAP2 SWAP1 PUSH2 0xA7F JUMP JUMPDEST PUSH2 0x64A JUMP JUMPDEST PUSH1 0x40 MLOAD PUSH2 0x227 SWAP3 SWAP2 SWAP1 PUSH2 0xCF9 JUMP JUMPDEST PUSH1 0x40 MLOAD DUP1 SWAP2 SUB SWAP1 RETURN JUMPDEST CALLVALUE DUP1 ISZERO PUSH2 0x23C JUMPI PUSH1 0x0 DUP1 REVERT JUMPDEST POP PUSH2 0x245 PUSH2 0x698 JUMP JUMPDEST PUSH1 0x40 MLOAD PUSH2 0x252 SWAP2 SWAP1 PUSH2 0xA24 JUMP JUMPDEST PUSH1 0x40 MLOAD DUP1 SWAP2 SUB SWAP1 RETURN JUMPDEST CALLVALUE DUP1 ISZERO PUSH2 0x267 JUMPI PUSH1 0x0 DUP1 REVERT JUMPDEST POP PUSH2 0x282 PUSH1 0x4 DUP1 CALLDATASIZE SUB DUP2 ADD SWAP1 PUSH2 0x27D SWAP2 SWAP1 PUSH2 0xA7F JUMP JUMPDEST PUSH2 0x6BB JUMP JUMPDEST PUSH1 0x40 MLOAD PUSH2 0x28F SWAP2 SWAP1 PUSH2 0xCDE JUMP JUMPDEST PUSH1 0x40 MLOAD DUP1 SWAP2 SUB SWAP1 RETURN JUMPDEST CALLVALUE DUP1 ISZERO PUSH2 0x2A4 JUMPI PUSH1 0x0 DUP1 REVERT JUMPDEST POP PUSH2 0x2AD PUSH2 0x6EE JUMP JUMPDEST STOP JUMPDEST PUSH2 0x2C9 PUSH1 0x4 DUP1 CALLDATASIZE SUB DUP2 ADD SWAP1 PUSH2 0x2C4 SWAP2 SWAP1 PUSH2 0xA7F JUMP JUMPDEST PUSH2 0x79D JUMP JUMPDEST STOP JUMPDEST CALLVALUE DUP1 ISZERO PUSH2 0x2D7 JUMPI PUSH1 0x0 DUP1 REVERT JUMPDEST POP PUSH2 0x2E0 PUSH2 0x93C JUMP JUMPDEST PUSH1 0x40 MLOAD PUSH2 0x2ED SWAP2 SWAP1 PUSH2 0xA24 JUMP JUMPDEST PUSH1 0x40 MLOAD DUP1 SWAP2 SUB SWAP1 RETURN JUMPDEST CALLVALUE DUP1 ISZERO PUSH2 0x302 JUMPI PUSH1 0x0 DUP1 REVERT JUMPDEST POP PUSH2 0x30B PUSH2 0x942 JUMP JUMPDEST PUSH1 0x40 MLOAD PUSH2 0x318 SWAP2 SWAP1 PUSH2 0xA24 JUMP JUMPDEST PUSH1 0x40 MLOAD DUP1 SWAP2 SUB SWAP1 RETURN JUMPDEST CALLVALUE DUP1 ISZERO PUSH2 0x32D JUMPI PUSH1 0x0 DUP1 REVERT JUMPDEST POP PUSH2 0x348 PUSH1 0x4 DUP1 CALLDATASIZE SUB DUP2 ADD SWAP1 PUSH2 0x343 SWAP2 SWAP1 PUSH2 0xA7F JUMP JUMPDEST PUSH2 0x948 JUMP JUMPDEST PUSH1 0x40 MLOAD PUSH2 0x355 SWAP2 SWAP1 PUSH2 0xA24 JUMP JUMPDEST PUSH1 0x40 MLOAD DUP1 SWAP2 SUB SWAP1 RETURN JUMPDEST PUSH1 0x0 PUSH1 0x9 SLOAD SWAP1 POP SWAP1 JUMP JUMPDEST PUSH1 0x0 PUSH1 0x6 PUSH1 0x0 PUSH1 0xA SLOAD DUP2 MSTORE PUSH1 0x20 ADD SWAP1 DUP2 MSTORE PUSH1 0x20 ADD PUSH1 0x0 KECCAK256 PUSH1 0x0 ADD DUP3 DUP2 SLOAD DUP2 LT PUSH2 0x394 JUMPI PUSH2 0x393 PUSH2 0xD22 JUMP JUMPDEST JUMPDEST SWAP1 PUSH1 0x0 MSTORE PUSH1 0x20 PUSH1 0x0 KECCAK256 ADD PUSH1 0x0 SWAP1 SLOAD SWAP1 PUSH2 0x100 EXP SWAP1 DIV PUSH20 0xFFFFFFFFFFFFFFFFFFFFFFFFFFFFFFFFFFFFFFFF AND SWAP1 POP SWAP2 SWAP1 POP JUMP JUMPDEST PUSH32 0x0 PUSH20 0xFFFFFFFFFFFFFFFFFFFFFFFFFFFFFFFFFFFFFFFF AND CALLER PUSH20 0xFFFFFFFFFFFFFFFFFFFFFFFFFFFFFFFFFFFFFFFF AND EQ PUSH2 0x478 JUMPI CALLER PUSH32 0x0 PUSH1 0x40 MLOAD PUSH32 0x1CF993F400000000000000000000000000000000000000000000000000000000 DUP2 MSTORE PUSH1 0x4 ADD PUSH2 0x46F SWAP3 SWAP2 SWAP1 PUSH2 0xD51 JUMP JUMPDEST PUSH1 0x40 MLOAD DUP1 SWAP2 SUB SWAP1 REVERT JUMPDEST PUSH2 0x482 DUP3 DUP3 PUSH2 0x96C JUMP JUMPDEST POP POP JUMP JUMPDEST PUSH1 0x0 PUSH1 0x5 PUSH1 0x0 DUP4 DUP2 MSTORE PUSH1 0x20 ADD SWAP1 DUP2 MSTORE PUSH1 0x20 ADD PUSH1 0x0 KECCAK256 PUSH1 0x0 SWAP1 SLOAD SWAP1 PUSH2 0x100 EXP SWAP1 DIV PUSH20 0xFFFFFFFFFFFFFFFFFFFFFFFFFFFFFFFFFFFFFFFF AND SWAP1 POP SWAP2 SWAP1 POP JUMP JUMPDEST PUSH1 0x0 PUSH1 0x8 SLOAD SWAP1 POP SWAP1 JUMP JUMPDEST PUSH1 0x3 PUSH1 0x0 SWAP1 SLOAD SWAP1 PUSH2 0x100 EXP SWAP1 DIV PUSH20 0xFFFFFFFFFFFFFFFFFFFFFFFFFFFFFFFFFFFFFFFF AND PUSH20 0xFFFFFFFFFFFFFFFFFFFFFFFFFFFFFFFFFFFFFFFF AND CALLER PUSH20 0xFFFFFFFFFFFFFFFFFFFFFFFFFFFFFFFFFFFFFFFF AND EQ PUSH2 0x527 JUMPI PUSH1 0x0 DUP1 REVERT JUMPDEST PUSH1 0x8 SLOAD PUSH20 0x6168499C0CFFCACD319C818142124B7A15E857AB PUSH20 0xFFFFFFFFFFFFFFFFFFFFFFFFFFFFFFFFFFFFFFFF AND PUSH4 0x5D3B1D30 PUSH32 0xD89B2BF150E3B9E13446986E571FB9CAB24B13CEA0A43EA20A6049A85CC807CC PUSH1 0x0 SHL PUSH2 0x1CCA PUSH1 0x0 PUSH1 0x4 SWAP1 SLOAD SWAP1 PUSH2 0x100 EXP SWAP1 DIV PUSH2 0xFFFF AND PUSH1 0x0 DUP1 SLOAD SWAP1 PUSH2 0x100 EXP SWAP1 DIV PUSH4 0xFFFFFFFF AND PUSH1 0x0 PUSH1 0x6 SWAP1 SLOAD SWAP1 PUSH2 0x100 EXP SWAP1 DIV PUSH4 0xFFFFFFFF AND PUSH1 0x40 MLOAD DUP7 PUSH4 0xFFFFFFFF AND PUSH1 0xE0 SHL DUP2 MSTORE PUSH1 0x4 ADD PUSH2 0x5D6 SWAP6 SWAP5 SWAP4 SWAP3 SWAP2 SWAP1 PUSH2 0xDF2 JUMP JUMPDEST PUSH1 0x20 PUSH1 0x40 MLOAD DUP1 DUP4 SUB DUP2 PUSH1 0x0 DUP8 GAS CALL ISZERO DUP1 ISZERO PUSH2 0x5F5 JUMPI RETURNDATASIZE PUSH1 0x0 DUP1 RETURNDATACOPY RETURNDATASIZE PUSH1 0x0 REVERT JUMPDEST POP POP POP POP PUSH1 0x40 MLOAD RETURNDATASIZE PUSH1 0x1F NOT PUSH1 0x1F DUP3 ADD AND DUP3 ADD DUP1 PUSH1 0x40 MSTORE POP DUP2 ADD SWAP1 PUSH2 0x619 SWAP2 SWAP1 PUSH2 0xE5A JUMP JUMPDEST PUSH2 0x623 SWAP2 SWAP1 PUSH2 0xEB6 JUMP JUMPDEST PUSH1 0x2 DUP2 SWAP1 SSTORE POP PUSH1 0x7 PUSH1 0x0 PUSH1 0x2 SLOAD DUP2 MSTORE PUSH1 0x20 ADD SWAP1 DUP2 MSTORE PUSH1 0x20 ADD PUSH1 0x0 KECCAK256 PUSH1 0x1 ADD SLOAD PUSH1 0xA DUP2 SWAP1 SSTORE POP JUMP JUMPDEST PUSH1 0x0 DUP1 PUSH1 0x0 PUSH1 0x7 PUSH1 0x0 DUP6 DUP2 MSTORE PUSH1 0x20 ADD SWAP1 DUP2 MSTORE PUSH1 0x20 ADD PUSH1 0x0 KECCAK256 SWAP1 POP DUP1 PUSH1 0x0 ADD PUSH1 0x0 SWAP1 SLOAD SWAP1 PUSH2 0x100 EXP SWAP1 DIV PUSH20 0xFFFFFFFFFFFFFFFFFFFFFFFFFFFFFFFFFFFFFFFF AND DUP2 PUSH1 0x1 ADD SLOAD SWAP3 POP SWAP3 POP POP SWAP2 POP SWAP2 JUMP JUMPDEST PUSH1 0x0 PUSH1 0x6 PUSH1 0x0 PUSH1 0xA SLOAD DUP2 MSTORE PUSH1 0x20 ADD SWAP1 DUP2 MSTORE PUSH1 0x20 ADD PUSH1 0x0 KECCAK256 PUSH1 0x0 ADD DUP1 SLOAD SWAP1 POP SWAP1 POP SWAP1 JUMP JUMPDEST PUSH1 0x5 PUSH1 0x20 MSTORE DUP1 PUSH1 0x0 MSTORE PUSH1 0x40 PUSH1 0x0 KECCAK256 PUSH1 0x0 SWAP2 POP SLOAD SWAP1 PUSH2 0x100 EXP SWAP1 DIV PUSH20 0xFFFFFFFFFFFFFFFFFFFFFFFFFFFFFFFFFFFFFFFF AND DUP2 JUMP JUMPDEST PUSH1 0x3 PUSH1 0x0 SWAP1 SLOAD SWAP1 PUSH2 0x100 EXP SWAP1 DIV PUSH20 0xFFFFFFFFFFFFFFFFFFFFFFFFFFFFFFFFFFFFFFFF AND PUSH20 0xFFFFFFFFFFFFFFFFFFFFFFFFFFFFFFFFFFFFFFFF AND CALLER PUSH20 0xFFFFFFFFFFFFFFFFFFFFFFFFFFFFFFFFFFFFFFFF AND EQ PUSH2 0x748 JUMPI PUSH1 0x0 DUP1 REVERT JUMPDEST PUSH1 0x0 PUSH1 0x6 PUSH1 0x0 PUSH1 0xA SLOAD DUP2 MSTORE PUSH1 0x20 ADD SWAP1 DUP2 MSTORE PUSH1 0x20 ADD PUSH1 0x0 KECCAK256 PUSH1 0x0 ADD DUP1 SLOAD SWAP1 POP SWAP1 POP PUSH1 0x0 DUP2 PUSH1 0x9 SLOAD PUSH2 0x778 SWAP2 SWAP1 PUSH2 0xF16 JUMP JUMPDEST SWAP1 POP PUSH1 0x0 JUMPDEST DUP3 DUP2 LT ISZERO PUSH2 0x798 JUMPI DUP1 DUP1 PUSH2 0x790 SWAP1 PUSH2 0xF47 JUMP JUMPDEST SWAP2 POP POP PUSH2 0x77D JUMP JUMPDEST POP POP POP JUMP JUMPDEST PUSH1 0x2 CALLVALUE GT PUSH2 0x7E0 JUMPI PUSH1 0x40 MLOAD PUSH32 0x8C379A000000000000000000000000000000000000000000000000000000000 DUP2 MSTORE PUSH1 0x4 ADD PUSH2 0x7D7 SWAP1 PUSH2 0xFEC JUMP JUMPDEST PUSH1 0x40 MLOAD DUP1 SWAP2 SUB SWAP1 REVERT JUMPDEST CALLVALUE PUSH1 0x9 PUSH1 0x0 DUP3 DUP3 SLOAD PUSH2 0x7F2 SWAP2 SWAP1 PUSH2 0x100C JUMP JUMPDEST SWAP3 POP POP DUP2 SWAP1 SSTORE POP PUSH1 0x1 DUP2 LT ISZERO DUP1 ISZERO PUSH2 0x80B JUMPI POP PUSH1 0xA DUP2 GT ISZERO JUMPDEST PUSH2 0x84A JUMPI PUSH1 0x40 MLOAD PUSH32 0x8C379A000000000000000000000000000000000000000000000000000000000 DUP2 MSTORE PUSH1 0x4 ADD PUSH2 0x841 SWAP1 PUSH2 0x10AE JUMP JUMPDEST PUSH1 0x40 MLOAD DUP1 SWAP2 SUB SWAP1 REVERT JUMPDEST PUSH1 0x0 PUSH1 0x7 PUSH1 0x0 PUSH1 0x8 SLOAD DUP2 MSTORE PUSH1 0x20 ADD SWAP1 DUP2 MSTORE PUSH1 0x20 ADD PUSH1 0x0 KECCAK256 SWAP1 POP CALLER DUP2 PUSH1 0x0 ADD PUSH1 0x0 PUSH2 0x100 EXP DUP2 SLOAD DUP2 PUSH20 0xFFFFFFFFFFFFFFFFFFFFFFFFFFFFFFFFFFFFFFFF MUL NOT AND SWAP1 DUP4 PUSH20 0xFFFFFFFFFFFFFFFFFFFFFFFFFFFFFFFFFFFFFFFF AND MUL OR SWAP1 SSTORE POP DUP2 DUP2 PUSH1 0x1 ADD DUP2 SWAP1 SSTORE POP PUSH1 0x0 PUSH1 0x6 PUSH1 0x0 DUP4 PUSH1 0x1 ADD SLOAD DUP2 MSTORE PUSH1 0x20 ADD SWAP1 DUP2 MSTORE PUSH1 0x20 ADD PUSH1 0x0 KECCAK256 SWAP1 POP DUP1 PUSH1 0x0 ADD CALLER SWAP1 DUP1 PUSH1 0x1 DUP2 SLOAD ADD DUP1 DUP3 SSTORE DUP1 SWAP2 POP POP PUSH1 0x1 SWAP1 SUB SWAP1 PUSH1 0x0 MSTORE PUSH1 0x20 PUSH1 0x0 KECCAK256 ADD PUSH1 0x0 SWAP1 SWAP2 SWAP1 SWAP2 SWAP1 SWAP2 PUSH2 0x100 EXP DUP2 SLOAD DUP2 PUSH20 0xFFFFFFFFFFFFFFFFFFFFFFFFFFFFFFFFFFFFFFFF MUL NOT AND SWAP1 DUP4 PUSH20 0xFFFFFFFFFFFFFFFFFFFFFFFFFFFFFFFFFFFFFFFF AND MUL OR SWAP1 SSTORE POP PUSH2 0x937 PUSH2 0x987 JUMP JUMPDEST POP POP POP JUMP JUMPDEST PUSH1 0x4 SLOAD DUP2 JUMP JUMPDEST PUSH1 0x2 SLOAD DUP2 JUMP JUMPDEST PUSH1 0x1 DUP2 DUP2 SLOAD DUP2 LT PUSH2 0x958 JUMPI PUSH1 0x0 DUP1 REVERT JUMPDEST SWAP1 PUSH1 0x0 MSTORE PUSH1 0x20 PUSH1 0x0 KECCAK256 ADD PUSH1 0x0 SWAP2 POP SWAP1 POP SLOAD DUP2 JUMP JUMPDEST DUP1 PUSH1 0x1 SWAP1 DUP1 MLOAD SWAP1 PUSH1 0x20 ADD SWAP1 PUSH2 0x982 SWAP3 SWAP2 SWAP1 PUSH2 0x9A1 JUMP JUMPDEST POP POP POP JUMP JUMPDEST PUSH1 0x8 PUSH1 0x0 DUP2 SLOAD DUP1 SWAP3 SWAP2 SWAP1 PUSH2 0x99A SWAP1 PUSH2 0xF47 JUMP JUMPDEST SWAP2 SWAP1 POP SSTORE POP JUMP JUMPDEST DUP3 DUP1 SLOAD DUP3 DUP3 SSTORE SWAP1 PUSH1 0x0 MSTORE PUSH1 0x20 PUSH1 0x0 KECCAK256 SWAP1 DUP2 ADD SWAP3 DUP3 ISZERO PUSH2 0x9DD JUMPI SWAP2 PUSH1 0x20 MUL DUP3 ADD JUMPDEST DUP3 DUP2 GT ISZERO PUSH2 0x9DC JUMPI DUP3 MLOAD DUP3 SSTORE SWAP2 PUSH1 0x20 ADD SWAP2 SWAP1 PUSH1 0x1 ADD SWAP1 PUSH2 0x9C1 JUMP JUMPDEST JUMPDEST POP SWAP1 POP PUSH2 0x9EA SWAP2 SWAP1 PUSH2 0x9EE JUMP JUMPDEST POP SWAP1 JUMP JUMPDEST JUMPDEST DUP1 DUP3 GT ISZERO PUSH2 0xA07 JUMPI PUSH1 0x0 DUP2 PUSH1 0x0 SWAP1 SSTORE POP PUSH1 0x1 ADD PUSH2 0x9EF JUMP JUMPDEST POP SWAP1 JUMP JUMPDEST PUSH1 0x0 DUP2 SWAP1 POP SWAP2 SWAP1 POP JUMP JUMPDEST PUSH2 0xA1E DUP2 PUSH2 0xA0B JUMP JUMPDEST DUP3 MSTORE POP POP JUMP JUMPDEST PUSH1 0x0 PUSH1 0x20 DUP3 ADD SWAP1 POP PUSH2 0xA39 PUSH1 0x0 DUP4 ADD DUP5 PUSH2 0xA15 JUMP JUMPDEST SWAP3 SWAP2 POP POP JUMP JUMPDEST PUSH1 0x0 PUSH1 0x40 MLOAD SWAP1 POP SWAP1 JUMP JUMPDEST PUSH1 0x0 DUP1 REVERT JUMPDEST PUSH1 0x0 DUP1 REVERT JUMPDEST PUSH2 0xA5C DUP2 PUSH2 0xA0B JUMP JUMPDEST DUP2 EQ PUSH2 0xA67 JUMPI PUSH1 0x0 DUP1 REVERT JUMPDEST POP JUMP JUMPDEST PUSH1 0x0 DUP2 CALLDATALOAD SWAP1 POP PUSH2 0xA79 DUP2 PUSH2 0xA53 JUMP JUMPDEST SWAP3 SWAP2 POP POP JUMP JUMPDEST PUSH1 0x0 PUSH1 0x20 DUP3 DUP5 SUB SLT ISZERO PUSH2 0xA95 JUMPI PUSH2 0xA94 PUSH2 0xA49 JUMP JUMPDEST JUMPDEST PUSH1 0x0 PUSH2 0xAA3 DUP5 DUP3 DUP6 ADD PUSH2 0xA6A JUMP JUMPDEST SWAP2 POP POP SWAP3 SWAP2 POP POP JUMP JUMPDEST PUSH1 0x0 PUSH20 0xFFFFFFFFFFFFFFFFFFFFFFFFFFFFFFFFFFFFFFFF DUP3 AND SWAP1 POP SWAP2 SWAP1 POP JUMP JUMPDEST PUSH1 0x0 PUSH2 0xAD7 DUP3 PUSH2 0xAAC JUMP JUMPDEST SWAP1 POP SWAP2 SWAP1 POP JUMP JUMPDEST PUSH2 0xAE7 DUP2 PUSH2 0xACC JUMP JUMPDEST DUP3 MSTORE POP POP JUMP JUMPDEST PUSH1 0x0 PUSH1 0x20 DUP3 ADD SWAP1 POP PUSH2 0xB02 PUSH1 0x0 DUP4 ADD DUP5 PUSH2 0xADE JUMP JUMPDEST SWAP3 SWAP2 POP POP JUMP JUMPDEST PUSH1 0x0 DUP1 REVERT JUMPDEST PUSH1 0x0 PUSH1 0x1F NOT PUSH1 0x1F DUP4 ADD AND SWAP1 POP SWAP2 SWAP1 POP JUMP JUMPDEST PUSH32 0x4E487B7100000000000000000000000000000000000000000000000000000000 PUSH1 0x0 MSTORE PUSH1 0x41 PUSH1 0x4 MSTORE PUSH1 0x24 PUSH1 0x0 REVERT JUMPDEST PUSH2 0xB56 DUP3 PUSH2 0xB0D JUMP JUMPDEST DUP2 ADD DUP2 DUP2 LT PUSH8 0xFFFFFFFFFFFFFFFF DUP3 GT OR ISZERO PUSH2 0xB75 JUMPI PUSH2 0xB74 PUSH2 0xB1E JUMP JUMPDEST JUMPDEST DUP1 PUSH1 0x40 MSTORE POP POP POP JUMP JUMPDEST PUSH1 0x0 PUSH2 0xB88 PUSH2 0xA3F JUMP JUMPDEST SWAP1 POP PUSH2 0xB94 DUP3 DUP3 PUSH2 0xB4D JUMP JUMPDEST SWAP2 SWAP1 POP JUMP JUMPDEST PUSH1 0x0 PUSH8 0xFFFFFFFFFFFFFFFF DUP3 GT ISZERO PUSH2 0xBB4 JUMPI PUSH2 0xBB3 PUSH2 0xB1E JUMP JUMPDEST JUMPDEST PUSH1 0x20 DUP3 MUL SWAP1 POP PUSH1 0x20 DUP2 ADD SWAP1 POP SWAP2 SWAP1 POP JUMP JUMPDEST PUSH1 0x0 DUP1 REVERT JUMPDEST PUSH1 0x0 PUSH2 0xBDD PUSH2 0xBD8 DUP5 PUSH2 0xB99 JUMP JUMPDEST PUSH2 0xB7E JUMP JUMPDEST SWAP1 POP DUP1 DUP4 DUP3 MSTORE PUSH1 0x20 DUP3 ADD SWAP1 POP PUSH1 0x20 DUP5 MUL DUP4 ADD DUP6 DUP2 GT ISZERO PUSH2 0xC00 JUMPI PUSH2 0xBFF PUSH2 0xBC5 JUMP JUMPDEST JUMPDEST DUP4 JUMPDEST DUP2 DUP2 LT ISZERO PUSH2 0xC29 JUMPI DUP1 PUSH2 0xC15 DUP9 DUP3 PUSH2 0xA6A JUMP JUMPDEST DUP5 MSTORE PUSH1 0x20 DUP5 ADD SWAP4 POP POP PUSH1 0x20 DUP2 ADD SWAP1 POP PUSH2 0xC02 JUMP JUMPDEST POP POP POP SWAP4 SWAP3 POP POP POP JUMP JUMPDEST PUSH1 0x0 DUP3 PUSH1 0x1F DUP4 ADD SLT PUSH2 0xC48 JUMPI PUSH2 0xC47 PUSH2 0xB08 JUMP JUMPDEST JUMPDEST DUP2 CALLDATALOAD PUSH2 0xC58 DUP5 DUP3 PUSH1 0x20 DUP7 ADD PUSH2 0xBCA JUMP JUMPDEST SWAP2 POP POP SWAP3 SWAP2 POP POP JUMP JUMPDEST PUSH1 0x0 DUP1 PUSH1 0x40 DUP4 DUP6 SUB SLT ISZERO PUSH2 0xC78 JUMPI PUSH2 0xC77 PUSH2 0xA49 JUMP JUMPDEST JUMPDEST PUSH1 0x0 PUSH2 0xC86 DUP6 DUP3 DUP7 ADD PUSH2 0xA6A JUMP JUMPDEST SWAP3 POP POP PUSH1 0x20 DUP4 ADD CALLDATALOAD PUSH8 0xFFFFFFFFFFFFFFFF DUP2 GT ISZERO PUSH2 0xCA7 JUMPI PUSH2 0xCA6 PUSH2 0xA4E JUMP JUMPDEST JUMPDEST PUSH2 0xCB3 DUP6 DUP3 DUP7 ADD PUSH2 0xC33 JUMP JUMPDEST SWAP2 POP POP SWAP3 POP SWAP3 SWAP1 POP JUMP JUMPDEST PUSH1 0x0 PUSH2 0xCC8 DUP3 PUSH2 0xAAC JUMP JUMPDEST SWAP1 POP SWAP2 SWAP1 POP JUMP JUMPDEST PUSH2 0xCD8 DUP2 PUSH2 0xCBD JUMP JUMPDEST DUP3 MSTORE POP POP JUMP JUMPDEST PUSH1 0x0 PUSH1 0x20 DUP3 ADD SWAP1 POP PUSH2 0xCF3 PUSH1 0x0 DUP4 ADD DUP5 PUSH2 0xCCF JUMP JUMPDEST SWAP3 SWAP2 POP POP JUMP JUMPDEST PUSH1 0x0 PUSH1 0x40 DUP3 ADD SWAP1 POP PUSH2 0xD0E PUSH1 0x0 DUP4 ADD DUP6 PUSH2 0xCCF JUMP JUMPDEST PUSH2 0xD1B PUSH1 0x20 DUP4 ADD DUP5 PUSH2 0xA15 JUMP JUMPDEST SWAP4 SWAP3 POP POP POP JUMP JUMPDEST PUSH32 0x4E487B7100000000000000000000000000000000000000000000000000000000 PUSH1 0x0 MSTORE PUSH1 0x32 PUSH1 0x4 MSTORE PUSH1 0x24 PUSH1 0x0 REVERT JUMPDEST PUSH1 0x0 PUSH1 0x40 DUP3 ADD SWAP1 POP PUSH2 0xD66 PUSH1 0x0 DUP4 ADD DUP6 PUSH2 0xADE JUMP JUMPDEST PUSH2 0xD73 PUSH1 0x20 DUP4 ADD DUP5 PUSH2 0xADE JUMP JUMPDEST SWAP4 SWAP3 POP POP POP JUMP JUMPDEST PUSH1 0x0 DUP2 SWAP1 POP SWAP2 SWAP1 POP JUMP JUMPDEST PUSH2 0xD8D DUP2 PUSH2 0xD7A JUMP JUMPDEST DUP3 MSTORE POP POP JUMP JUMPDEST PUSH1 0x0 PUSH8 0xFFFFFFFFFFFFFFFF DUP3 AND SWAP1 POP SWAP2 SWAP1 POP JUMP JUMPDEST PUSH2 0xDB0 DUP2 PUSH2 0xD93 JUMP JUMPDEST DUP3 MSTORE POP POP JUMP JUMPDEST PUSH1 0x0 PUSH2 0xFFFF DUP3 AND SWAP1 POP SWAP2 SWAP1 POP JUMP JUMPDEST PUSH2 0xDCD DUP2 PUSH2 0xDB6 JUMP JUMPDEST DUP3 MSTORE POP POP JUMP JUMPDEST PUSH1 0x0 PUSH4 0xFFFFFFFF DUP3 AND SWAP1 POP SWAP2 SWAP1 POP JUMP JUMPDEST PUSH2 0xDEC DUP2 PUSH2 0xDD3 JUMP JUMPDEST DUP3 MSTORE POP POP JUMP JUMPDEST PUSH1 0x0 PUSH1 0xA0 DUP3 ADD SWAP1 POP PUSH2 0xE07 PUSH1 0x0 DUP4 ADD DUP9 PUSH2 0xD84 JUMP JUMPDEST PUSH2 0xE14 PUSH1 0x20 DUP4 ADD DUP8 PUSH2 0xDA7 JUMP JUMPDEST PUSH2 0xE21 PUSH1 0x40 DUP4 ADD DUP7 PUSH2 0xDC4 JUMP JUMPDEST PUSH2 0xE2E PUSH1 0x60 DUP4 ADD DUP6 PUSH2 0xDE3 JUMP JUMPDEST PUSH2 0xE3B PUSH1 0x80 DUP4 ADD DUP5 PUSH2 0xDE3 JUMP JUMPDEST SWAP7 SWAP6 POP POP POP POP POP POP JUMP JUMPDEST PUSH1 0x0 DUP2 MLOAD SWAP1 POP PUSH2 0xE54 DUP2 PUSH2 0xA53 JUMP JUMPDEST SWAP3 SWAP2 POP POP JUMP JUMPDEST PUSH1 0x0 PUSH1 0x20 DUP3 DUP5 SUB SLT ISZERO PUSH2 0xE70 JUMPI PUSH2 0xE6F PUSH2 0xA49 JUMP JUMPDEST JUMPDEST PUSH1 0x0 PUSH2 0xE7E DUP5 DUP3 DUP6 ADD PUSH2 0xE45 JUMP JUMPDEST SWAP2 POP POP SWAP3 SWAP2 POP POP JUMP JUMPDEST PUSH32 0x4E487B7100000000000000000000000000000000000000000000000000000000 PUSH1 0x0 MSTORE PUSH1 0x12 PUSH1 0x4 MSTORE PUSH1 0x24 PUSH1 0x0 REVERT JUMPDEST PUSH1 0x0 PUSH2 0xEC1 DUP3 PUSH2 0xA0B JUMP JUMPDEST SWAP2 POP PUSH2 0xECC DUP4 PUSH2 0xA0B JUMP JUMPDEST SWAP3 POP DUP3 PUSH2 0xEDC JUMPI PUSH2 0xEDB PUSH2 0xE87 JUMP JUMPDEST JUMPDEST DUP3 DUP3 MOD SWAP1 POP SWAP3 SWAP2 POP POP JUMP JUMPDEST PUSH32 0x4E487B7100000000000000000000000000000000000000000000000000000000 PUSH1 0x0 MSTORE PUSH1 0x11 PUSH1 0x4 MSTORE PUSH1 0x24 PUSH1 0x0 REVERT JUMPDEST PUSH1 0x0 PUSH2 0xF21 DUP3 PUSH2 0xA0B JUMP JUMPDEST SWAP2 POP PUSH2 0xF2C DUP4 PUSH2 0xA0B JUMP JUMPDEST SWAP3 POP DUP3 PUSH2 0xF3C JUMPI PUSH2 0xF3B PUSH2 0xE87 JUMP JUMPDEST JUMPDEST DUP3 DUP3 DIV SWAP1 POP SWAP3 SWAP2 POP POP JUMP JUMPDEST PUSH1 0x0 PUSH2 0xF52 DUP3 PUSH2 0xA0B JUMP JUMPDEST SWAP2 POP PUSH32 0xFFFFFFFFFFFFFFFFFFFFFFFFFFFFFFFFFFFFFFFFFFFFFFFFFFFFFFFFFFFFFFFF DUP3 SUB PUSH2 0xF84 JUMPI PUSH2 0xF83 PUSH2 0xEE7 JUMP JUMPDEST JUMPDEST PUSH1 0x1 DUP3 ADD SWAP1 POP SWAP2 SWAP1 POP JUMP JUMPDEST PUSH1 0x0 DUP3 DUP3 MSTORE PUSH1 0x20 DUP3 ADD SWAP1 POP SWAP3 SWAP2 POP POP JUMP JUMPDEST PUSH32 0x4E6F7420656E6F75676820746F6B656E00000000000000000000000000000000 PUSH1 0x0 DUP3 ADD MSTORE POP JUMP JUMPDEST PUSH1 0x0 PUSH2 0xFD6 PUSH1 0x10 DUP4 PUSH2 0xF8F JUMP JUMPDEST SWAP2 POP PUSH2 0xFE1 DUP3 PUSH2 0xFA0 JUMP JUMPDEST PUSH1 0x20 DUP3 ADD SWAP1 POP SWAP2 SWAP1 POP JUMP JUMPDEST PUSH1 0x0 PUSH1 0x20 DUP3 ADD SWAP1 POP DUP2 DUP2 SUB PUSH1 0x0 DUP4 ADD MSTORE PUSH2 0x1005 DUP2 PUSH2 0xFC9 JUMP JUMPDEST SWAP1 POP SWAP2 SWAP1 POP JUMP JUMPDEST PUSH1 0x0 PUSH2 0x1017 DUP3 PUSH2 0xA0B JUMP JUMPDEST SWAP2 POP PUSH2 0x1022 DUP4 PUSH2 0xA0B JUMP JUMPDEST SWAP3 POP DUP3 PUSH32 0xFFFFFFFFFFFFFFFFFFFFFFFFFFFFFFFFFFFFFFFFFFFFFFFFFFFFFFFFFFFFFFFF SUB DUP3 GT ISZERO PUSH2 0x1057 JUMPI PUSH2 0x1056 PUSH2 0xEE7 JUMP JUMPDEST JUMPDEST DUP3 DUP3 ADD SWAP1 POP SWAP3 SWAP2 POP POP JUMP JUMPDEST PUSH32 0x4E756D626572207469636B6574206F7574206F662072616E6765000000000000 PUSH1 0x0 DUP3 ADD MSTORE POP JUMP JUMPDEST PUSH1 0x0 PUSH2 0x1098 PUSH1 0x1A DUP4 PUSH2 0xF8F JUMP JUMPDEST SWAP2 POP PUSH2 0x10A3 DUP3 PUSH2 0x1062 JUMP JUMPDEST PUSH1 0x20 DUP3 ADD SWAP1 POP SWAP2 SWAP1 POP JUMP JUMPDEST PUSH1 0x0 PUSH1 0x20 DUP3 ADD SWAP1 POP DUP2 DUP2 SUB PUSH1 0x0 DUP4 ADD MSTORE PUSH2 0x10C7 DUP2 PUSH2 0x108B JUMP JUMPDEST SWAP1 POP SWAP2 SWAP1 POP JUMP INVALID LOG2 PUSH5 0x6970667358 0x22 SLT KECCAK256 0x28 ADDMOD PUSH21 0x72AE329F4A77D8A186C6046ED1A084F2851E672D4E SWAP14 0xF9 CALLER CREATE GASPRICE 0x21 0xDD SLOAD PUSH5 0x736F6C6343 STOP ADDMOD 0xF STOP CALLER "
				},
				"gasEstimates": {
					"creation": {
						"codeDepositCost": "871200",
						"executionCost": "infinite",
						"totalCost": "infinite"
					},
					"external": {
						"_requestRandomWords()": "infinite",
						"closeLottery()": "infinite",
						"enter(uint256)": "infinite",
						"getAmountPlayer()": "2482",
						"getAmountWinner()": "4652",
						"getBalance()": "2461",
						"getListWinner(uint256)": "7197",
						"getPlayers(uint256)": "infinite",
						"getWinnerByLottery(uint256)": "2888",
						"lotteryHistory(uint256)": "2884",
						"lotteryId()": "2473",
						"rawFulfillRandomWords(uint256,uint256[])": "infinite",
						"s_randomWords(uint256)": "infinite",
						"s_requestId()": "2495"
					},
					"internal": {
						"_transferPrize(uint256,address payable)": "infinite",
						"fulfillRandomWords(uint256,uint256[] memory)": "infinite",
						"increasePlayerCount()": "24366"
					}
				},
				"methodIdentifiers": {
					"_requestRandomWords()": "391ea700",
					"closeLottery()": "6fd09816",
					"enter(uint256)": "a59f3e0c",
					"getAmountPlayer()": "32eb85a4",
					"getAmountWinner()": "693521d5",
					"getBalance()": "12065fe0",
					"getListWinner(uint256)": "18b425ff",
					"getPlayers(uint256)": "460e2049",
					"getWinnerByLottery(uint256)": "281d098d",
					"lotteryHistory(uint256)": "6d6fe230",
					"lotteryId()": "e580f47b",
					"rawFulfillRandomWords(uint256,uint256[])": "1fe543e3",
					"s_randomWords(uint256)": "f6eaffc8",
					"s_requestId()": "e89e106a"
				}
			},
			"storageLayout": {
				"storage": [
					{
						"astId": 721,
						"contract": "contracts/Lottery.sol:Lottery",
						"label": "callbackGasLimit",
						"offset": 0,
						"slot": "0",
						"type": "t_uint32"
					},
					{
						"astId": 724,
						"contract": "contracts/Lottery.sol:Lottery",
						"label": "requestConfirmations",
						"offset": 4,
						"slot": "0",
						"type": "t_uint16"
					},
					{
						"astId": 727,
						"contract": "contracts/Lottery.sol:Lottery",
						"label": "numWords",
						"offset": 6,
						"slot": "0",
						"type": "t_uint32"
					},
					{
						"astId": 730,
						"contract": "contracts/Lottery.sol:Lottery",
						"label": "s_randomWords",
						"offset": 0,
						"slot": "1",
						"type": "t_array(t_uint256)dyn_storage"
					},
					{
						"astId": 732,
						"contract": "contracts/Lottery.sol:Lottery",
						"label": "s_requestId",
						"offset": 0,
						"slot": "2",
						"type": "t_uint256"
					},
					{
						"astId": 736,
						"contract": "contracts/Lottery.sol:Lottery",
						"label": "s_owner",
						"offset": 0,
						"slot": "3",
						"type": "t_address"
					},
					{
						"astId": 738,
						"contract": "contracts/Lottery.sol:Lottery",
						"label": "lotteryId",
						"offset": 0,
						"slot": "4",
						"type": "t_uint256"
					},
					{
						"astId": 742,
						"contract": "contracts/Lottery.sol:Lottery",
						"label": "lotteryHistory",
						"offset": 0,
						"slot": "5",
						"type": "t_mapping(t_uint256,t_address_payable)"
					},
					{
						"astId": 751,
						"contract": "contracts/Lottery.sol:Lottery",
						"label": "groupTicket",
						"offset": 0,
						"slot": "6",
						"type": "t_mapping(t_uint256,t_struct(ListNumberTicket)746_storage)"
					},
					{
						"astId": 761,
						"contract": "contracts/Lottery.sol:Lottery",
						"label": "allLottery",
						"offset": 0,
						"slot": "7",
						"type": "t_mapping(t_uint256,t_struct(Participants)756_storage)"
					},
					{
						"astId": 764,
						"contract": "contracts/Lottery.sol:Lottery",
						"label": "playerCount",
						"offset": 0,
						"slot": "8",
						"type": "t_uint256"
					},
					{
						"astId": 766,
						"contract": "contracts/Lottery.sol:Lottery",
						"label": "prizePool",
						"offset": 0,
						"slot": "9",
						"type": "t_uint256"
					},
					{
						"astId": 768,
						"contract": "contracts/Lottery.sol:Lottery",
						"label": "luckyNumber",
						"offset": 0,
						"slot": "10",
						"type": "t_uint256"
					}
				],
				"types": {
					"t_address": {
						"encoding": "inplace",
						"label": "address",
						"numberOfBytes": "20"
					},
					"t_address_payable": {
						"encoding": "inplace",
						"label": "address payable",
						"numberOfBytes": "20"
					},
					"t_array(t_address_payable)dyn_storage": {
						"base": "t_address_payable",
						"encoding": "dynamic_array",
						"label": "address payable[]",
						"numberOfBytes": "32"
					},
					"t_array(t_uint256)dyn_storage": {
						"base": "t_uint256",
						"encoding": "dynamic_array",
						"label": "uint256[]",
						"numberOfBytes": "32"
					},
					"t_mapping(t_uint256,t_address_payable)": {
						"encoding": "mapping",
						"key": "t_uint256",
						"label": "mapping(uint256 => address payable)",
						"numberOfBytes": "32",
						"value": "t_address_payable"
					},
					"t_mapping(t_uint256,t_struct(ListNumberTicket)746_storage)": {
						"encoding": "mapping",
						"key": "t_uint256",
						"label": "mapping(uint256 => struct Lottery.ListNumberTicket)",
						"numberOfBytes": "32",
						"value": "t_struct(ListNumberTicket)746_storage"
					},
					"t_mapping(t_uint256,t_struct(Participants)756_storage)": {
						"encoding": "mapping",
						"key": "t_uint256",
						"label": "mapping(uint256 => struct Lottery.Participants)",
						"numberOfBytes": "32",
						"value": "t_struct(Participants)756_storage"
					},
					"t_struct(ListNumberTicket)746_storage": {
						"encoding": "inplace",
						"label": "struct Lottery.ListNumberTicket",
						"members": [
							{
								"astId": 745,
								"contract": "contracts/Lottery.sol:Lottery",
								"label": "groupPlayer",
								"offset": 0,
								"slot": "0",
								"type": "t_array(t_address_payable)dyn_storage"
							}
						],
						"numberOfBytes": "32"
					},
					"t_struct(Participants)756_storage": {
						"encoding": "inplace",
						"label": "struct Lottery.Participants",
						"members": [
							{
								"astId": 753,
								"contract": "contracts/Lottery.sol:Lottery",
								"label": "player",
								"offset": 0,
								"slot": "0",
								"type": "t_address_payable"
							},
							{
								"astId": 755,
								"contract": "contracts/Lottery.sol:Lottery",
								"label": "numTicket",
								"offset": 0,
								"slot": "1",
								"type": "t_uint256"
							}
						],
						"numberOfBytes": "64"
					},
					"t_uint16": {
						"encoding": "inplace",
						"label": "uint16",
						"numberOfBytes": "2"
					},
					"t_uint256": {
						"encoding": "inplace",
						"label": "uint256",
						"numberOfBytes": "32"
					},
					"t_uint32": {
						"encoding": "inplace",
						"label": "uint32",
						"numberOfBytes": "4"
					}
				}
			},
			"userdoc": {
				"kind": "user",
				"methods": {},
				"version": 1
			}
		}
	}
}