{
	"contracts/Lottery.sol": {
		"Lottery": {
			"abi": [
				{
					"inputs": [
						{
							"internalType": "address",
							"name": "have",
							"type": "address"
						},
						{
							"internalType": "address",
							"name": "want",
							"type": "address"
						}
					],
					"name": "OnlyCoordinatorCanFulfill",
					"type": "error"
				},
				{
					"inputs": [],
					"name": "_requestRandomWords",
					"outputs": [],
					"stateMutability": "nonpayable",
					"type": "function"
				},
				{
					"inputs": [],
					"name": "closeLottery",
					"outputs": [],
					"stateMutability": "nonpayable",
					"type": "function"
				},
				{
					"inputs": [
						{
							"internalType": "uint256",
							"name": "_numTicket",
							"type": "uint256"
						}
					],
					"name": "enter",
					"outputs": [],
					"stateMutability": "payable",
					"type": "function"
				},
				{
					"inputs": [],
					"name": "getAmountPlayer",
					"outputs": [
						{
							"internalType": "uint256",
							"name": "",
							"type": "uint256"
						}
					],
					"stateMutability": "view",
					"type": "function"
				},
				{
					"inputs": [],
					"name": "getAmountWinner",
					"outputs": [
						{
							"internalType": "uint256",
							"name": "",
							"type": "uint256"
						}
					],
					"stateMutability": "view",
					"type": "function"
				},
				{
					"inputs": [],
					"name": "getBalance",
					"outputs": [
						{
							"internalType": "uint256",
							"name": "",
							"type": "uint256"
						}
					],
					"stateMutability": "view",
					"type": "function"
				},
				{
					"inputs": [
						{
							"internalType": "uint256",
							"name": "index",
							"type": "uint256"
						}
					],
					"name": "getListWinner",
					"outputs": [
						{
							"internalType": "address",
							"name": "",
							"type": "address"
						}
					],
					"stateMutability": "view",
					"type": "function"
				},
				{
					"inputs": [
						{
							"internalType": "uint256",
							"name": "_index",
							"type": "uint256"
						}
					],
					"name": "getPlayers",
					"outputs": [
						{
							"internalType": "address payable",
							"name": "",
							"type": "address"
						},
						{
							"internalType": "uint256",
							"name": "",
							"type": "uint256"
						}
					],
					"stateMutability": "view",
					"type": "function"
				},
				{
					"inputs": [
						{
							"internalType": "uint256",
							"name": "",
							"type": "uint256"
						}
					],
					"name": "lotteryHistory",
					"outputs": [
						{
							"internalType": "address payable",
							"name": "",
							"type": "address"
						}
					],
					"stateMutability": "view",
					"type": "function"
				},
				{
					"inputs": [],
					"name": "lotteryId",
					"outputs": [
						{
							"internalType": "uint256",
							"name": "",
							"type": "uint256"
						}
					],
					"stateMutability": "view",
					"type": "function"
				},
				{
					"inputs": [
						{
							"internalType": "uint256",
							"name": "requestId",
							"type": "uint256"
						},
						{
							"internalType": "uint256[]",
							"name": "randomWords",
							"type": "uint256[]"
						}
					],
					"name": "rawFulfillRandomWords",
					"outputs": [],
					"stateMutability": "nonpayable",
					"type": "function"
				},
				{
					"inputs": [
						{
							"internalType": "uint256",
							"name": "",
							"type": "uint256"
						}
					],
					"name": "s_randomWords",
					"outputs": [
						{
							"internalType": "uint256",
							"name": "",
							"type": "uint256"
						}
					],
					"stateMutability": "view",
					"type": "function"
				},
				{
					"inputs": [],
					"name": "s_requestId",
					"outputs": [
						{
							"internalType": "uint256",
							"name": "",
							"type": "uint256"
						}
					],
					"stateMutability": "view",
					"type": "function"
				}
			],
			"devdoc": {
				"kind": "dev",
				"methods": {},
				"version": 1
			},
			"evm": {
				"assembly": "    /* \"contracts/Lottery.sol\":426:5163  contract Lottery is VRFConsumerBaseV2(0x6168499c0cFfCaCD319c818142124B7A15E857ab) {... */\n  mstore(0x40, 0xa0)\n    /* \"contracts/Lottery.sol\":1021:1027  100000 */\n  0x0186a0\n    /* \"contracts/Lottery.sol\":995:1027  uint32 callbackGasLimit = 100000 */\n  0x00\n  dup1\n  0x0100\n  exp\n  dup2\n  sload\n  dup2\n  0xffffffff\n  mul\n  not\n  and\n  swap1\n  dup4\n  0xffffffff\n  and\n  mul\n  or\n  swap1\n  sstore\n  pop\n    /* \"contracts/Lottery.sol\":1118:1119  3 */\n  0x03\n    /* \"contracts/Lottery.sol\":1088:1119  uint16 requestConfirmations = 3 */\n  0x00\n  exp(0x0100, 0x04)\n  dup2\n  sload\n  dup2\n  0xffff\n  mul\n  not\n  and\n  swap1\n  dup4\n  0xffff\n  and\n  mul\n  or\n  swap1\n  sstore\n  pop\n    /* \"contracts/Lottery.sol\":1264:1265  2 */\n  0x02\n    /* \"contracts/Lottery.sol\":1245:1265  uint32 numWords =  2 */\n  0x00\n  exp(0x0100, 0x06)\n  dup2\n  sload\n  dup2\n  0xffffffff\n  mul\n  not\n  and\n  swap1\n  dup4\n  0xffffffff\n  and\n  mul\n  or\n  swap1\n  sstore\n  pop\n    /* \"contracts/Lottery.sol\":1358:1368  msg.sender */\n  caller\n    /* \"contracts/Lottery.sol\":1340:1368  address s_owner = msg.sender */\n  0x03\n  exp(0x0100, 0x00)\n  dup2\n  sload\n  dup2\n  0xffffffffffffffffffffffffffffffffffffffff\n  mul\n  not\n  and\n  swap1\n  dup4\n  0xffffffffffffffffffffffffffffffffffffffff\n  and\n  mul\n  or\n  swap1\n  sstore\n  pop\n    /* \"contracts/Lottery.sol\":1779:1780  0 */\n  0x00\n    /* \"contracts/Lottery.sol\":1751:1780  uint internal playerCount = 0 */\n  0x08\n  sstore\n    /* \"contracts/Lottery.sol\":426:5163  contract Lottery is VRFConsumerBaseV2(0x6168499c0cFfCaCD319c818142124B7A15E857ab) {... */\n  callvalue\n  dup1\n  iszero\n  tag_1\n  jumpi\n  0x00\n  dup1\n  revert\ntag_1:\n  pop\n    /* \"contracts/Lottery.sol\":464:506  0x6168499c0cFfCaCD319c818142124B7A15E857ab */\n  0x6168499c0cffcacd319c818142124b7a15e857ab\n    /* \"@chainlink/contracts/src/v0.8/VRFConsumerBaseV2.sol\":5616:5631  _vrfCoordinator */\n  dup1\n    /* \"@chainlink/contracts/src/v0.8/VRFConsumerBaseV2.sol\":5599:5631  vrfCoordinator = _vrfCoordinator */\n  0xffffffffffffffffffffffffffffffffffffffff\n  and\n  0x80\n  dup2\n  0xffffffffffffffffffffffffffffffffffffffff\n  and\n  dup2\n  mstore\n  pop\n  pop\n    /* \"@chainlink/contracts/src/v0.8/VRFConsumerBaseV2.sol\":5556:5636  constructor(address _vrfCoordinator) {... */\n  pop\n    /* \"contracts/Lottery.sol\":426:5163  contract Lottery is VRFConsumerBaseV2(0x6168499c0cFfCaCD319c818142124B7A15E857ab) {... */\n  mload(0x80)\n  codecopy(0x00, dataOffset(sub_0), dataSize(sub_0))\n  0x00\n  assignImmutable(\"0x1a192fabce13988b84994d4296e6cdc418d55e2f1d7f942188d4040b94fc57ac\")\n  return(0x00, dataSize(sub_0))\nstop\n\nsub_0: assembly {\n        /* \"contracts/Lottery.sol\":426:5163  contract Lottery is VRFConsumerBaseV2(0x6168499c0cFfCaCD319c818142124B7A15E857ab) {... */\n      mstore(0x40, 0x80)\n      jumpi(tag_1, lt(calldatasize, 0x04))\n      shr(0xe0, calldataload(0x00))\n      dup1\n      0x693521d5\n      gt\n      tag_15\n      jumpi\n      dup1\n      0xa59f3e0c\n      gt\n      tag_16\n      jumpi\n      dup1\n      0xa59f3e0c\n      eq\n      tag_11\n      jumpi\n      dup1\n      0xe580f47b\n      eq\n      tag_12\n      jumpi\n      dup1\n      0xe89e106a\n      eq\n      tag_13\n      jumpi\n      dup1\n      0xf6eaffc8\n      eq\n      tag_14\n      jumpi\n      jump(tag_1)\n    tag_16:\n      dup1\n      0x693521d5\n      eq\n      tag_8\n      jumpi\n      dup1\n      0x6d6fe230\n      eq\n      tag_9\n      jumpi\n      dup1\n      0x6fd09816\n      eq\n      tag_10\n      jumpi\n      jump(tag_1)\n    tag_15:\n      dup1\n      0x12065fe0\n      eq\n      tag_2\n      jumpi\n      dup1\n      0x18b425ff\n      eq\n      tag_3\n      jumpi\n      dup1\n      0x1fe543e3\n      eq\n      tag_4\n      jumpi\n      dup1\n      0x32eb85a4\n      eq\n      tag_5\n      jumpi\n      dup1\n      0x391ea700\n      eq\n      tag_6\n      jumpi\n      dup1\n      0x460e2049\n      eq\n      tag_7\n      jumpi\n    tag_1:\n      0x00\n      dup1\n      revert\n        /* \"contracts/Lottery.sol\":1930:2012  function getBalance() public view returns (uint) {... */\n    tag_2:\n      callvalue\n      dup1\n      iszero\n      tag_17\n      jumpi\n      0x00\n      dup1\n      revert\n    tag_17:\n      pop\n      tag_18\n      tag_19\n      jump\t// in\n    tag_18:\n      mload(0x40)\n      tag_20\n      swap2\n      swap1\n      tag_21\n      jump\t// in\n    tag_20:\n      mload(0x40)\n      dup1\n      swap2\n      sub\n      swap1\n      return\n        /* \"contracts/Lottery.sol\":4849:4982  function getListWinner(uint256 index) public view returns(address){... */\n    tag_3:\n      callvalue\n      dup1\n      iszero\n      tag_22\n      jumpi\n      0x00\n      dup1\n      revert\n    tag_22:\n      pop\n      tag_23\n      0x04\n      dup1\n      calldatasize\n      sub\n      dup2\n      add\n      swap1\n      tag_24\n      swap2\n      swap1\n      tag_25\n      jump\t// in\n    tag_24:\n      tag_26\n      jump\t// in\n    tag_23:\n      mload(0x40)\n      tag_27\n      swap2\n      swap1\n      tag_28\n      jump\t// in\n    tag_27:\n      mload(0x40)\n      dup1\n      swap2\n      sub\n      swap1\n      return\n        /* \"@chainlink/contracts/src/v0.8/VRFConsumerBaseV2.sol\":6618:6874  function rawFulfillRandomWords(uint256 requestId, uint256[] memory randomWords) external {... */\n    tag_4:\n      callvalue\n      dup1\n      iszero\n      tag_29\n      jumpi\n      0x00\n      dup1\n      revert\n    tag_29:\n      pop\n      tag_30\n      0x04\n      dup1\n      calldatasize\n      sub\n      dup2\n      add\n      swap1\n      tag_31\n      swap2\n      swap1\n      tag_32\n      jump\t// in\n    tag_31:\n      tag_33\n      jump\t// in\n    tag_30:\n      stop\n        /* \"contracts/Lottery.sol\":2268:2356  function getAmountPlayer() public view returns (uint){... */\n    tag_5:\n      callvalue\n      dup1\n      iszero\n      tag_34\n      jumpi\n      0x00\n      dup1\n      revert\n    tag_34:\n      pop\n      tag_35\n      tag_36\n      jump\t// in\n    tag_35:\n      mload(0x40)\n      tag_37\n      swap2\n      swap1\n      tag_21\n      jump\t// in\n    tag_37:\n      mload(0x40)\n      dup1\n      swap2\n      sub\n      swap1\n      return\n        /* \"contracts/Lottery.sol\":3153:3534  function _requestRandomWords() external onlyOwner {... */\n    tag_6:\n      callvalue\n      dup1\n      iszero\n      tag_38\n      jumpi\n      0x00\n      dup1\n      revert\n    tag_38:\n      pop\n      tag_39\n      tag_40\n      jump\t// in\n    tag_39:\n      stop\n        /* \"contracts/Lottery.sol\":2018:2258  function getPlayers(uint _index) public view returns (address payable, uint) {... */\n    tag_7:\n      callvalue\n      dup1\n      iszero\n      tag_41\n      jumpi\n      0x00\n      dup1\n      revert\n    tag_41:\n      pop\n      tag_42\n      0x04\n      dup1\n      calldatasize\n      sub\n      dup2\n      add\n      swap1\n      tag_43\n      swap2\n      swap1\n      tag_25\n      jump\t// in\n    tag_43:\n      tag_44\n      jump\t// in\n    tag_42:\n      mload(0x40)\n      tag_45\n      swap3\n      swap2\n      swap1\n      tag_46\n      jump\t// in\n    tag_45:\n      mload(0x40)\n      dup1\n      swap2\n      sub\n      swap1\n      return\n        /* \"contracts/Lottery.sol\":4721:4843  function getAmountWinner() public view returns(uint256){... */\n    tag_8:\n      callvalue\n      dup1\n      iszero\n      tag_47\n      jumpi\n      0x00\n      dup1\n      revert\n    tag_47:\n      pop\n      tag_48\n      tag_49\n      jump\t// in\n    tag_48:\n      mload(0x40)\n      tag_50\n      swap2\n      swap1\n      tag_21\n      jump\t// in\n    tag_50:\n      mload(0x40)\n      dup1\n      swap2\n      sub\n      swap1\n      return\n        /* \"contracts/Lottery.sol\":1406:1461  mapping (uint => address payable) public lotteryHistory */\n    tag_9:\n      callvalue\n      dup1\n      iszero\n      tag_51\n      jumpi\n      0x00\n      dup1\n      revert\n    tag_51:\n      pop\n      tag_52\n      0x04\n      dup1\n      calldatasize\n      sub\n      dup2\n      add\n      swap1\n      tag_53\n      swap2\n      swap1\n      tag_25\n      jump\t// in\n    tag_53:\n      tag_54\n      jump\t// in\n    tag_52:\n      mload(0x40)\n      tag_55\n      swap2\n      swap1\n      tag_56\n      jump\t// in\n    tag_55:\n      mload(0x40)\n      dup1\n      swap2\n      sub\n      swap1\n      return\n        /* \"contracts/Lottery.sol\":3918:4498  function closeLottery() external onlyOwner{... */\n    tag_10:\n      callvalue\n      dup1\n      iszero\n      tag_57\n      jumpi\n      0x00\n      dup1\n      revert\n    tag_57:\n      pop\n      tag_58\n      tag_59\n      jump\t// in\n    tag_58:\n      stop\n        /* \"contracts/Lottery.sol\":2361:2911  function enter(uint _numTicket) public payable {... */\n    tag_11:\n      tag_60\n      0x04\n      dup1\n      calldatasize\n      sub\n      dup2\n      add\n      swap1\n      tag_61\n      swap2\n      swap1\n      tag_25\n      jump\t// in\n    tag_61:\n      tag_62\n      jump\t// in\n    tag_60:\n      stop\n        /* \"contracts/Lottery.sol\":1379:1400  uint public lotteryId */\n    tag_12:\n      callvalue\n      dup1\n      iszero\n      tag_63\n      jumpi\n      0x00\n      dup1\n      revert\n    tag_63:\n      pop\n      tag_64\n      tag_65\n      jump\t// in\n    tag_64:\n      mload(0x40)\n      tag_66\n      swap2\n      swap1\n      tag_21\n      jump\t// in\n    tag_66:\n      mload(0x40)\n      dup1\n      swap2\n      sub\n      swap1\n      return\n        /* \"contracts/Lottery.sol\":1308:1334  uint256 public s_requestId */\n    tag_13:\n      callvalue\n      dup1\n      iszero\n      tag_67\n      jumpi\n      0x00\n      dup1\n      revert\n    tag_67:\n      pop\n      tag_68\n      tag_69\n      jump\t// in\n    tag_68:\n      mload(0x40)\n      tag_70\n      swap2\n      swap1\n      tag_21\n      jump\t// in\n    tag_70:\n      mload(0x40)\n      dup1\n      swap2\n      sub\n      swap1\n      return\n        /* \"contracts/Lottery.sol\":1272:1302  uint256[] public s_randomWords */\n    tag_14:\n      callvalue\n      dup1\n      iszero\n      tag_71\n      jumpi\n      0x00\n      dup1\n      revert\n    tag_71:\n      pop\n      tag_72\n      0x04\n      dup1\n      calldatasize\n      sub\n      dup2\n      add\n      swap1\n      tag_73\n      swap2\n      swap1\n      tag_25\n      jump\t// in\n    tag_73:\n      tag_74\n      jump\t// in\n    tag_72:\n      mload(0x40)\n      tag_75\n      swap2\n      swap1\n      tag_21\n      jump\t// in\n    tag_75:\n      mload(0x40)\n      dup1\n      swap2\n      sub\n      swap1\n      return\n        /* \"contracts/Lottery.sol\":1930:2012  function getBalance() public view returns (uint) {... */\n    tag_19:\n        /* \"contracts/Lottery.sol\":1973:1977  uint */\n      0x00\n        /* \"contracts/Lottery.sol\":1996:2005  prizePool */\n      sload(0x09)\n        /* \"contracts/Lottery.sol\":1989:2005  return prizePool */\n      swap1\n      pop\n        /* \"contracts/Lottery.sol\":1930:2012  function getBalance() public view returns (uint) {... */\n      swap1\n      jump\t// out\n        /* \"contracts/Lottery.sol\":4849:4982  function getListWinner(uint256 index) public view returns(address){... */\n    tag_26:\n        /* \"contracts/Lottery.sol\":4907:4914  address */\n      0x00\n        /* \"contracts/Lottery.sol\":4932:4943  groupTicket */\n      0x06\n        /* \"contracts/Lottery.sol\":4932:4956  groupTicket[luckyNumber] */\n      0x00\n        /* \"contracts/Lottery.sol\":4944:4955  luckyNumber */\n      sload(0x0a)\n        /* \"contracts/Lottery.sol\":4932:4956  groupTicket[luckyNumber] */\n      dup2\n      mstore\n      0x20\n      add\n      swap1\n      dup2\n      mstore\n      0x20\n      add\n      0x00\n      keccak256\n        /* \"contracts/Lottery.sol\":4932:4968  groupTicket[luckyNumber].groupPlayer */\n      0x00\n      add\n        /* \"contracts/Lottery.sol\":4969:4974  index */\n      dup3\n        /* \"contracts/Lottery.sol\":4932:4975  groupTicket[luckyNumber].groupPlayer[index] */\n      dup2\n      sload\n      dup2\n      lt\n      tag_78\n      jumpi\n      tag_79\n      tag_80\n      jump\t// in\n    tag_79:\n    tag_78:\n      swap1\n      0x00\n      mstore\n      keccak256(0x00, 0x20)\n      add\n      0x00\n      swap1\n      sload\n      swap1\n      0x0100\n      exp\n      swap1\n      div\n      0xffffffffffffffffffffffffffffffffffffffff\n      and\n        /* \"contracts/Lottery.sol\":4925:4975  return groupTicket[luckyNumber].groupPlayer[index] */\n      swap1\n      pop\n        /* \"contracts/Lottery.sol\":4849:4982  function getListWinner(uint256 index) public view returns(address){... */\n      swap2\n      swap1\n      pop\n      jump\t// out\n        /* \"@chainlink/contracts/src/v0.8/VRFConsumerBaseV2.sol\":6618:6874  function rawFulfillRandomWords(uint256 requestId, uint256[] memory randomWords) external {... */\n    tag_33:\n        /* \"@chainlink/contracts/src/v0.8/VRFConsumerBaseV2.sol\":6731:6745  vrfCoordinator */\n      immutable(\"0x1a192fabce13988b84994d4296e6cdc418d55e2f1d7f942188d4040b94fc57ac\")\n        /* \"@chainlink/contracts/src/v0.8/VRFConsumerBaseV2.sol\":6717:6745  msg.sender != vrfCoordinator */\n      0xffffffffffffffffffffffffffffffffffffffff\n      and\n        /* \"@chainlink/contracts/src/v0.8/VRFConsumerBaseV2.sol\":6717:6727  msg.sender */\n      caller\n        /* \"@chainlink/contracts/src/v0.8/VRFConsumerBaseV2.sol\":6717:6745  msg.sender != vrfCoordinator */\n      0xffffffffffffffffffffffffffffffffffffffff\n      and\n      eq\n        /* \"@chainlink/contracts/src/v0.8/VRFConsumerBaseV2.sol\":6713:6822  if (msg.sender != vrfCoordinator) {... */\n      tag_83\n      jumpi\n        /* \"@chainlink/contracts/src/v0.8/VRFConsumerBaseV2.sol\":6788:6798  msg.sender */\n      caller\n        /* \"@chainlink/contracts/src/v0.8/VRFConsumerBaseV2.sol\":6800:6814  vrfCoordinator */\n      immutable(\"0x1a192fabce13988b84994d4296e6cdc418d55e2f1d7f942188d4040b94fc57ac\")\n        /* \"@chainlink/contracts/src/v0.8/VRFConsumerBaseV2.sol\":6762:6815  OnlyCoordinatorCanFulfill(msg.sender, vrfCoordinator) */\n      mload(0x40)\n      0x1cf993f400000000000000000000000000000000000000000000000000000000\n      dup2\n      mstore\n      0x04\n      add\n      tag_84\n      swap3\n      swap2\n      swap1\n      tag_85\n      jump\t// in\n    tag_84:\n      mload(0x40)\n      dup1\n      swap2\n      sub\n      swap1\n      revert\n        /* \"@chainlink/contracts/src/v0.8/VRFConsumerBaseV2.sol\":6713:6822  if (msg.sender != vrfCoordinator) {... */\n    tag_83:\n        /* \"@chainlink/contracts/src/v0.8/VRFConsumerBaseV2.sol\":6827:6869  fulfillRandomWords(requestId, randomWords) */\n      tag_86\n        /* \"@chainlink/contracts/src/v0.8/VRFConsumerBaseV2.sol\":6846:6855  requestId */\n      dup3\n        /* \"@chainlink/contracts/src/v0.8/VRFConsumerBaseV2.sol\":6857:6868  randomWords */\n      dup3\n        /* \"@chainlink/contracts/src/v0.8/VRFConsumerBaseV2.sol\":6827:6845  fulfillRandomWords */\n      tag_87\n        /* \"@chainlink/contracts/src/v0.8/VRFConsumerBaseV2.sol\":6827:6869  fulfillRandomWords(requestId, randomWords) */\n      jump\t// in\n    tag_86:\n        /* \"@chainlink/contracts/src/v0.8/VRFConsumerBaseV2.sol\":6618:6874  function rawFulfillRandomWords(uint256 requestId, uint256[] memory randomWords) external {... */\n      pop\n      pop\n      jump\t// out\n        /* \"contracts/Lottery.sol\":2268:2356  function getAmountPlayer() public view returns (uint){... */\n    tag_36:\n        /* \"contracts/Lottery.sol\":2316:2320  uint */\n      0x00\n        /* \"contracts/Lottery.sol\":2338:2349  playerCount */\n      sload(0x08)\n        /* \"contracts/Lottery.sol\":2331:2349  return playerCount */\n      swap1\n      pop\n        /* \"contracts/Lottery.sol\":2268:2356  function getAmountPlayer() public view returns (uint){... */\n      swap1\n      jump\t// out\n        /* \"contracts/Lottery.sol\":3153:3534  function _requestRandomWords() external onlyOwner {... */\n    tag_40:\n        /* \"contracts/Lottery.sol\":5137:5144  s_owner */\n      0x03\n      0x00\n      swap1\n      sload\n      swap1\n      0x0100\n      exp\n      swap1\n      div\n      0xffffffffffffffffffffffffffffffffffffffff\n      and\n        /* \"contracts/Lottery.sol\":5123:5144  msg.sender == s_owner */\n      0xffffffffffffffffffffffffffffffffffffffff\n      and\n        /* \"contracts/Lottery.sol\":5123:5133  msg.sender */\n      caller\n        /* \"contracts/Lottery.sol\":5123:5144  msg.sender == s_owner */\n      0xffffffffffffffffffffffffffffffffffffffff\n      and\n      eq\n        /* \"contracts/Lottery.sol\":5115:5145  require(msg.sender == s_owner) */\n      tag_90\n      jumpi\n      0x00\n      dup1\n      revert\n    tag_90:\n        /* \"contracts/Lottery.sol\":3449:3460  playerCount */\n      sload(0x08)\n        /* \"contracts/Lottery.sol\":594:636  0x6168499c0cFfCaCD319c818142124B7A15E857ab */\n      0x6168499c0cffcacd319c818142124b7a15e857ab\n        /* \"contracts/Lottery.sol\":3289:3319  COORDINATOR.requestRandomWords */\n      0xffffffffffffffffffffffffffffffffffffffff\n      and\n      0x5d3b1d30\n        /* \"contracts/Lottery.sol\":918:984  0xd89b2bf150e3b9e13446986e571fb9cab24b13cea0a43ea20a6049a85cc807cc */\n      0xd89b2bf150e3b9e13446986e571fb9cab24b13cea0a43ea20a6049a85cc807cc\n        /* \"contracts/Lottery.sol\":3329:3336  keyHash */\n      0x00\n      shl\n        /* \"contracts/Lottery.sol\":802:806  7370 */\n      0x1cca\n        /* \"contracts/Lottery.sol\":3372:3392  requestConfirmations */\n      0x00\n      0x04\n      swap1\n      sload\n      swap1\n      0x0100\n      exp\n      swap1\n      div\n      0xffff\n      and\n        /* \"contracts/Lottery.sol\":3402:3418  callbackGasLimit */\n      0x00\n      dup1\n      sload\n      swap1\n      0x0100\n      exp\n      swap1\n      div\n      0xffffffff\n      and\n        /* \"contracts/Lottery.sol\":3428:3436  numWords */\n      0x00\n      0x06\n      swap1\n      sload\n      swap1\n      0x0100\n      exp\n      swap1\n      div\n      0xffffffff\n      and\n        /* \"contracts/Lottery.sol\":3289:3446  COORDINATOR.requestRandomWords(... */\n      mload(0x40)\n      dup7\n      0xffffffff\n      and\n      0xe0\n      shl\n      dup2\n      mstore\n      0x04\n      add\n      tag_92\n      swap6\n      swap5\n      swap4\n      swap3\n      swap2\n      swap1\n      tag_93\n      jump\t// in\n    tag_92:\n      0x20\n      mload(0x40)\n      dup1\n      dup4\n      sub\n      dup2\n      0x00\n      dup8\n      gas\n      call\n      iszero\n      dup1\n      iszero\n      tag_95\n      jumpi\n      returndatasize\n      0x00\n      dup1\n      returndatacopy\n      revert(0x00, returndatasize)\n    tag_95:\n      pop\n      pop\n      pop\n      pop\n      mload(0x40)\n      returndatasize\n      not(0x1f)\n      0x1f\n      dup3\n      add\n      and\n      dup3\n      add\n      dup1\n      0x40\n      mstore\n      pop\n      dup2\n      add\n      swap1\n      tag_96\n      swap2\n      swap1\n      tag_97\n      jump\t// in\n    tag_96:\n        /* \"contracts/Lottery.sol\":3289:3460  COORDINATOR.requestRandomWords(... */\n      tag_98\n      swap2\n      swap1\n      tag_99\n      jump\t// in\n    tag_98:\n        /* \"contracts/Lottery.sol\":3275:3286  s_requestId */\n      0x02\n        /* \"contracts/Lottery.sol\":3275:3460  s_requestId = COORDINATOR.requestRandomWords(... */\n      dup2\n      swap1\n      sstore\n      pop\n        /* \"contracts/Lottery.sol\":3485:3495  allLottery */\n      0x07\n        /* \"contracts/Lottery.sol\":3485:3508  allLottery[s_requestId] */\n      0x00\n        /* \"contracts/Lottery.sol\":3496:3507  s_requestId */\n      sload(0x02)\n        /* \"contracts/Lottery.sol\":3485:3508  allLottery[s_requestId] */\n      dup2\n      mstore\n      0x20\n      add\n      swap1\n      dup2\n      mstore\n      0x20\n      add\n      0x00\n      keccak256\n        /* \"contracts/Lottery.sol\":3485:3518  allLottery[s_requestId].numTicket */\n      0x01\n      add\n      sload\n        /* \"contracts/Lottery.sol\":3471:3482  luckyNumber */\n      0x0a\n        /* \"contracts/Lottery.sol\":3471:3518  luckyNumber = allLottery[s_requestId].numTicket */\n      dup2\n      swap1\n      sstore\n      pop\n        /* \"contracts/Lottery.sol\":3153:3534  function _requestRandomWords() external onlyOwner {... */\n      jump\t// out\n        /* \"contracts/Lottery.sol\":2018:2258  function getPlayers(uint _index) public view returns (address payable, uint) {... */\n    tag_44:\n        /* \"contracts/Lottery.sol\":2072:2087  address payable */\n      0x00\n        /* \"contracts/Lottery.sol\":2089:2093  uint */\n      dup1\n        /* \"contracts/Lottery.sol\":2105:2137  Participants storage participant */\n      0x00\n        /* \"contracts/Lottery.sol\":2140:2150  allLottery */\n      0x07\n        /* \"contracts/Lottery.sol\":2140:2158  allLottery[_index] */\n      0x00\n        /* \"contracts/Lottery.sol\":2151:2157  _index */\n      dup6\n        /* \"contracts/Lottery.sol\":2140:2158  allLottery[_index] */\n      dup2\n      mstore\n      0x20\n      add\n      swap1\n      dup2\n      mstore\n      0x20\n      add\n      0x00\n      keccak256\n        /* \"contracts/Lottery.sol\":2105:2158  Participants storage participant = allLottery[_index] */\n      swap1\n      pop\n        /* \"contracts/Lottery.sol\":2188:2199  participant */\n      dup1\n        /* \"contracts/Lottery.sol\":2188:2206  participant.player */\n      0x00\n      add\n      0x00\n      swap1\n      sload\n      swap1\n      0x0100\n      exp\n      swap1\n      div\n      0xffffffffffffffffffffffffffffffffffffffff\n      and\n        /* \"contracts/Lottery.sol\":2220:2231  participant */\n      dup2\n        /* \"contracts/Lottery.sol\":2220:2241  participant.numTicket */\n      0x01\n      add\n      sload\n        /* \"contracts/Lottery.sol\":2168:2251  return(... */\n      swap3\n      pop\n      swap3\n      pop\n      pop\n        /* \"contracts/Lottery.sol\":2018:2258  function getPlayers(uint _index) public view returns (address payable, uint) {... */\n      swap2\n      pop\n      swap2\n      jump\t// out\n        /* \"contracts/Lottery.sol\":4721:4843  function getAmountWinner() public view returns(uint256){... */\n    tag_49:\n        /* \"contracts/Lottery.sol\":4768:4775  uint256 */\n      0x00\n        /* \"contracts/Lottery.sol\":4793:4804  groupTicket */\n      0x06\n        /* \"contracts/Lottery.sol\":4793:4817  groupTicket[luckyNumber] */\n      0x00\n        /* \"contracts/Lottery.sol\":4805:4816  luckyNumber */\n      sload(0x0a)\n        /* \"contracts/Lottery.sol\":4793:4817  groupTicket[luckyNumber] */\n      dup2\n      mstore\n      0x20\n      add\n      swap1\n      dup2\n      mstore\n      0x20\n      add\n      0x00\n      keccak256\n        /* \"contracts/Lottery.sol\":4793:4829  groupTicket[luckyNumber].groupPlayer */\n      0x00\n      add\n        /* \"contracts/Lottery.sol\":4793:4836  groupTicket[luckyNumber].groupPlayer.length */\n      dup1\n      sload\n      swap1\n      pop\n        /* \"contracts/Lottery.sol\":4786:4836  return groupTicket[luckyNumber].groupPlayer.length */\n      swap1\n      pop\n        /* \"contracts/Lottery.sol\":4721:4843  function getAmountWinner() public view returns(uint256){... */\n      swap1\n      jump\t// out\n        /* \"contracts/Lottery.sol\":1406:1461  mapping (uint => address payable) public lotteryHistory */\n    tag_54:\n      mstore(0x20, 0x05)\n      dup1\n      0x00\n      mstore\n      keccak256(0x00, 0x40)\n      0x00\n      swap2\n      pop\n      sload\n      swap1\n      0x0100\n      exp\n      swap1\n      div\n      0xffffffffffffffffffffffffffffffffffffffff\n      and\n      dup2\n      jump\t// out\n        /* \"contracts/Lottery.sol\":3918:4498  function closeLottery() external onlyOwner{... */\n    tag_59:\n        /* \"contracts/Lottery.sol\":5137:5144  s_owner */\n      0x03\n      0x00\n      swap1\n      sload\n      swap1\n      0x0100\n      exp\n      swap1\n      div\n      0xffffffffffffffffffffffffffffffffffffffff\n      and\n        /* \"contracts/Lottery.sol\":5123:5144  msg.sender == s_owner */\n      0xffffffffffffffffffffffffffffffffffffffff\n      and\n        /* \"contracts/Lottery.sol\":5123:5133  msg.sender */\n      caller\n        /* \"contracts/Lottery.sol\":5123:5144  msg.sender == s_owner */\n      0xffffffffffffffffffffffffffffffffffffffff\n      and\n      eq\n        /* \"contracts/Lottery.sol\":5115:5145  require(msg.sender == s_owner) */\n      tag_103\n      jumpi\n      0x00\n      dup1\n      revert\n    tag_103:\n        /* \"contracts/Lottery.sol\":3970:3987  uint256 lenWinner */\n      0x00\n        /* \"contracts/Lottery.sol\":3990:4001  groupTicket */\n      0x06\n        /* \"contracts/Lottery.sol\":3990:4014  groupTicket[luckyNumber] */\n      0x00\n        /* \"contracts/Lottery.sol\":4002:4013  luckyNumber */\n      sload(0x0a)\n        /* \"contracts/Lottery.sol\":3990:4014  groupTicket[luckyNumber] */\n      dup2\n      mstore\n      0x20\n      add\n      swap1\n      dup2\n      mstore\n      0x20\n      add\n      0x00\n      keccak256\n        /* \"contracts/Lottery.sol\":3990:4026  groupTicket[luckyNumber].groupPlayer */\n      0x00\n      add\n        /* \"contracts/Lottery.sol\":3990:4033  groupTicket[luckyNumber].groupPlayer.length */\n      dup1\n      sload\n      swap1\n      pop\n        /* \"contracts/Lottery.sol\":3970:4033  uint256 lenWinner = groupTicket[luckyNumber].groupPlayer.length */\n      swap1\n      pop\n        /* \"contracts/Lottery.sol\":4077:4096  uint256 winnerPrize */\n      0x00\n        /* \"contracts/Lottery.sol\":4111:4120  lenWinner */\n      dup2\n        /* \"contracts/Lottery.sol\":4099:4108  prizePool */\n      sload(0x09)\n        /* \"contracts/Lottery.sol\":4099:4120  prizePool / lenWinner */\n      tag_105\n      swap2\n      swap1\n      tag_106\n      jump\t// in\n    tag_105:\n        /* \"contracts/Lottery.sol\":4077:4120  uint256 winnerPrize = prizePool / lenWinner */\n      swap1\n      pop\n        /* \"contracts/Lottery.sol\":4162:4163  0 */\n      0x00\n        /* \"contracts/Lottery.sol\":4138:4159  address(this).balance */\n      selfbalance\n        /* \"contracts/Lottery.sol\":4138:4163  address(this).balance !=0 */\n      sub\n        /* \"contracts/Lottery.sol\":4130:4186  require(address(this).balance !=0, \"prizePool is empty\") */\n      tag_107\n      jumpi\n      mload(0x40)\n      0x08c379a000000000000000000000000000000000000000000000000000000000\n      dup2\n      mstore\n      0x04\n      add\n      tag_108\n      swap1\n      tag_109\n      jump\t// in\n    tag_108:\n      mload(0x40)\n      dup1\n      swap2\n      sub\n      swap1\n      revert\n    tag_107:\n        /* \"contracts/Lottery.sol\":4217:4218  0 */\n      0x00\n        /* \"contracts/Lottery.sol\":4204:4213  lenWinner */\n      dup3\n        /* \"contracts/Lottery.sol\":4204:4218  lenWinner != 0 */\n      sub\n        /* \"contracts/Lottery.sol\":4196:4232  require(lenWinner != 0, \"No winner\") */\n      tag_110\n      jumpi\n      mload(0x40)\n      0x08c379a000000000000000000000000000000000000000000000000000000000\n      dup2\n      mstore\n      0x04\n      add\n      tag_111\n      swap1\n      tag_112\n      jump\t// in\n    tag_111:\n      mload(0x40)\n      dup1\n      swap2\n      sub\n      swap1\n      revert\n    tag_110:\n        /* \"contracts/Lottery.sol\":4246:4255  uint256 i */\n      0x00\n        /* \"contracts/Lottery.sol\":4242:4492  for(uint256 i = 0; i < lenWinner; i++){... */\n    tag_113:\n        /* \"contracts/Lottery.sol\":4265:4274  lenWinner */\n      dup3\n        /* \"contracts/Lottery.sol\":4261:4262  i */\n      dup2\n        /* \"contracts/Lottery.sol\":4261:4274  i < lenWinner */\n      lt\n        /* \"contracts/Lottery.sol\":4242:4492  for(uint256 i = 0; i < lenWinner; i++){... */\n      iszero\n      tag_114\n      jumpi\n        /* \"contracts/Lottery.sol\":4294:4362  _transferPrize(winnerPrize, groupTicket[luckyNumber].groupPlayer[i]) */\n      tag_116\n        /* \"contracts/Lottery.sol\":4309:4320  winnerPrize */\n      dup3\n        /* \"contracts/Lottery.sol\":4322:4333  groupTicket */\n      0x06\n        /* \"contracts/Lottery.sol\":4322:4346  groupTicket[luckyNumber] */\n      0x00\n        /* \"contracts/Lottery.sol\":4334:4345  luckyNumber */\n      sload(0x0a)\n        /* \"contracts/Lottery.sol\":4322:4346  groupTicket[luckyNumber] */\n      dup2\n      mstore\n      0x20\n      add\n      swap1\n      dup2\n      mstore\n      0x20\n      add\n      0x00\n      keccak256\n        /* \"contracts/Lottery.sol\":4322:4358  groupTicket[luckyNumber].groupPlayer */\n      0x00\n      add\n        /* \"contracts/Lottery.sol\":4359:4360  i */\n      dup4\n        /* \"contracts/Lottery.sol\":4322:4361  groupTicket[luckyNumber].groupPlayer[i] */\n      dup2\n      sload\n      dup2\n      lt\n      tag_117\n      jumpi\n      tag_118\n      tag_80\n      jump\t// in\n    tag_118:\n    tag_117:\n      swap1\n      0x00\n      mstore\n      keccak256(0x00, 0x20)\n      add\n      0x00\n      swap1\n      sload\n      swap1\n      0x0100\n      exp\n      swap1\n      div\n      0xffffffffffffffffffffffffffffffffffffffff\n      and\n        /* \"contracts/Lottery.sol\":4294:4308  _transferPrize */\n      tag_120\n        /* \"contracts/Lottery.sol\":4294:4362  _transferPrize(winnerPrize, groupTicket[luckyNumber].groupPlayer[i]) */\n      jump\t// in\n    tag_116:\n        /* \"contracts/Lottery.sol\":4276:4279  i++ */\n      dup1\n      dup1\n      tag_121\n      swap1\n      tag_122\n      jump\t// in\n    tag_121:\n      swap2\n      pop\n      pop\n        /* \"contracts/Lottery.sol\":4242:4492  for(uint256 i = 0; i < lenWinner; i++){... */\n      jump(tag_113)\n    tag_114:\n      pop\n        /* \"contracts/Lottery.sol\":3960:4498  {... */\n      pop\n      pop\n        /* \"contracts/Lottery.sol\":3918:4498  function closeLottery() external onlyOwner{... */\n      jump\t// out\n        /* \"contracts/Lottery.sol\":2361:2911  function enter(uint _numTicket) public payable {... */\n    tag_62:\n        /* \"contracts/Lottery.sol\":2439:2444  2 wei */\n      0x02\n        /* \"contracts/Lottery.sol\":2426:2435  msg.value */\n      callvalue\n        /* \"contracts/Lottery.sol\":2426:2444  msg.value >= 2 wei */\n      lt\n      iszero\n        /* \"contracts/Lottery.sol\":2418:2465  require(msg.value >= 2 wei, \"Not enough token\") */\n      tag_124\n      jumpi\n      mload(0x40)\n      0x08c379a000000000000000000000000000000000000000000000000000000000\n      dup2\n      mstore\n      0x04\n      add\n      tag_125\n      swap1\n      tag_126\n      jump\t// in\n    tag_125:\n      mload(0x40)\n      dup1\n      swap2\n      sub\n      swap1\n      revert\n    tag_124:\n        /* \"contracts/Lottery.sol\":2488:2497  msg.value */\n      callvalue\n        /* \"contracts/Lottery.sol\":2475:2484  prizePool */\n      0x09\n      0x00\n        /* \"contracts/Lottery.sol\":2475:2497  prizePool += msg.value */\n      dup3\n      dup3\n      sload\n      tag_127\n      swap2\n      swap1\n      tag_128\n      jump\t// in\n    tag_127:\n      swap3\n      pop\n      pop\n      dup2\n      swap1\n      sstore\n      pop\n        /* \"contracts/Lottery.sol\":2529:2530  1 */\n      0x01\n        /* \"contracts/Lottery.sol\":2515:2525  _numTicket */\n      dup2\n        /* \"contracts/Lottery.sol\":2515:2530  _numTicket >= 1 */\n      lt\n      iszero\n        /* \"contracts/Lottery.sol\":2515:2550  _numTicket >= 1 && _numTicket <= 10 */\n      dup1\n      iszero\n      tag_129\n      jumpi\n      pop\n        /* \"contracts/Lottery.sol\":2548:2550  10 */\n      0x0a\n        /* \"contracts/Lottery.sol\":2534:2544  _numTicket */\n      dup2\n        /* \"contracts/Lottery.sol\":2534:2550  _numTicket <= 10 */\n      gt\n      iszero\n        /* \"contracts/Lottery.sol\":2515:2550  _numTicket >= 1 && _numTicket <= 10 */\n    tag_129:\n        /* \"contracts/Lottery.sol\":2507:2581  require(_numTicket >= 1 && _numTicket <= 10, \"Number ticket out of range\") */\n      tag_130\n      jumpi\n      mload(0x40)\n      0x08c379a000000000000000000000000000000000000000000000000000000000\n      dup2\n      mstore\n      0x04\n      add\n      tag_131\n      swap1\n      tag_132\n      jump\t// in\n    tag_131:\n      mload(0x40)\n      dup1\n      swap2\n      sub\n      swap1\n      revert\n    tag_130:\n        /* \"contracts/Lottery.sol\":2591:2621  Participants storage newPlayer */\n      0x00\n        /* \"contracts/Lottery.sol\":2624:2634  allLottery */\n      0x07\n        /* \"contracts/Lottery.sol\":2624:2647  allLottery[playerCount] */\n      0x00\n        /* \"contracts/Lottery.sol\":2635:2646  playerCount */\n      sload(0x08)\n        /* \"contracts/Lottery.sol\":2624:2647  allLottery[playerCount] */\n      dup2\n      mstore\n      0x20\n      add\n      swap1\n      dup2\n      mstore\n      0x20\n      add\n      0x00\n      keccak256\n        /* \"contracts/Lottery.sol\":2591:2647  Participants storage newPlayer = allLottery[playerCount] */\n      swap1\n      pop\n        /* \"contracts/Lottery.sol\":2684:2694  msg.sender */\n      caller\n        /* \"contracts/Lottery.sol\":2657:2666  newPlayer */\n      dup2\n        /* \"contracts/Lottery.sol\":2657:2673  newPlayer.player */\n      0x00\n      add\n      0x00\n        /* \"contracts/Lottery.sol\":2657:2695  newPlayer.player = payable(msg.sender) */\n      0x0100\n      exp\n      dup2\n      sload\n      dup2\n      0xffffffffffffffffffffffffffffffffffffffff\n      mul\n      not\n      and\n      swap1\n      dup4\n      0xffffffffffffffffffffffffffffffffffffffff\n      and\n      mul\n      or\n      swap1\n      sstore\n      pop\n        /* \"contracts/Lottery.sol\":2727:2737  _numTicket */\n      dup2\n        /* \"contracts/Lottery.sol\":2705:2714  newPlayer */\n      dup2\n        /* \"contracts/Lottery.sol\":2705:2724  newPlayer.numTicket */\n      0x01\n      add\n        /* \"contracts/Lottery.sol\":2705:2737  newPlayer.numTicket = _numTicket */\n      dup2\n      swap1\n      sstore\n      pop\n        /* \"contracts/Lottery.sol\":2747:2781  ListNumberTicket storage addTicket */\n      0x00\n        /* \"contracts/Lottery.sol\":2784:2795  groupTicket */\n      0x06\n        /* \"contracts/Lottery.sol\":2784:2816  groupTicket[newPlayer.numTicket] */\n      0x00\n        /* \"contracts/Lottery.sol\":2796:2805  newPlayer */\n      dup4\n        /* \"contracts/Lottery.sol\":2796:2815  newPlayer.numTicket */\n      0x01\n      add\n      sload\n        /* \"contracts/Lottery.sol\":2784:2816  groupTicket[newPlayer.numTicket] */\n      dup2\n      mstore\n      0x20\n      add\n      swap1\n      dup2\n      mstore\n      0x20\n      add\n      0x00\n      keccak256\n        /* \"contracts/Lottery.sol\":2747:2816  ListNumberTicket storage addTicket = groupTicket[newPlayer.numTicket] */\n      swap1\n      pop\n        /* \"contracts/Lottery.sol\":2826:2835  addTicket */\n      dup1\n        /* \"contracts/Lottery.sol\":2826:2847  addTicket.groupPlayer */\n      0x00\n      add\n        /* \"contracts/Lottery.sol\":2861:2871  msg.sender */\n      caller\n        /* \"contracts/Lottery.sol\":2826:2873  addTicket.groupPlayer.push(payable(msg.sender)) */\n      swap1\n      dup1\n      0x01\n      dup2\n      sload\n      add\n      dup1\n      dup3\n      sstore\n      dup1\n      swap2\n      pop\n      pop\n      0x01\n      swap1\n      sub\n      swap1\n      0x00\n      mstore\n      keccak256(0x00, 0x20)\n      add\n      0x00\n      swap1\n      swap2\n      swap1\n      swap2\n      swap1\n      swap2\n      0x0100\n      exp\n      dup2\n      sload\n      dup2\n      0xffffffffffffffffffffffffffffffffffffffff\n      mul\n      not\n      and\n      swap1\n      dup4\n      0xffffffffffffffffffffffffffffffffffffffff\n      and\n      mul\n      or\n      swap1\n      sstore\n      pop\n        /* \"contracts/Lottery.sol\":2883:2904  increasePlayerCount() */\n      tag_134\n        /* \"contracts/Lottery.sol\":2883:2902  increasePlayerCount */\n      tag_135\n        /* \"contracts/Lottery.sol\":2883:2904  increasePlayerCount() */\n      jump\t// in\n    tag_134:\n        /* \"contracts/Lottery.sol\":2408:2911  {... */\n      pop\n      pop\n        /* \"contracts/Lottery.sol\":2361:2911  function enter(uint _numTicket) public payable {... */\n      pop\n      jump\t// out\n        /* \"contracts/Lottery.sol\":1379:1400  uint public lotteryId */\n    tag_65:\n      sload(0x04)\n      dup2\n      jump\t// out\n        /* \"contracts/Lottery.sol\":1308:1334  uint256 public s_requestId */\n    tag_69:\n      sload(0x02)\n      dup2\n      jump\t// out\n        /* \"contracts/Lottery.sol\":1272:1302  uint256[] public s_randomWords */\n    tag_74:\n      0x01\n      dup2\n      dup2\n      sload\n      dup2\n      lt\n      tag_136\n      jumpi\n      0x00\n      dup1\n      revert\n    tag_136:\n      swap1\n      0x00\n      mstore\n      keccak256(0x00, 0x20)\n      add\n      0x00\n      swap2\n      pop\n      swap1\n      pop\n      sload\n      dup2\n      jump\t// out\n        /* \"contracts/Lottery.sol\":3540:3707  function fulfillRandomWords(... */\n    tag_87:\n        /* \"contracts/Lottery.sol\":3689:3700  randomWords */\n      dup1\n        /* \"contracts/Lottery.sol\":3673:3686  s_randomWords */\n      0x01\n        /* \"contracts/Lottery.sol\":3673:3700  s_randomWords = randomWords */\n      swap1\n      dup1\n      mload\n      swap1\n      0x20\n      add\n      swap1\n      tag_139\n      swap3\n      swap2\n      swap1\n      tag_140\n      jump\t// in\n    tag_139:\n      pop\n        /* \"contracts/Lottery.sol\":3540:3707  function fulfillRandomWords(... */\n      pop\n      pop\n      jump\t// out\n        /* \"contracts/Lottery.sol\":4508:4715  function _transferPrize(uint256 _winnerPrize, address payable winner) private{... */\n    tag_120:\n        /* \"contracts/Lottery.sol\":4608:4620  _winnerPrize */\n      dup2\n        /* \"contracts/Lottery.sol\":4595:4604  prizePool */\n      0x09\n      0x00\n        /* \"contracts/Lottery.sol\":4595:4620  prizePool -= _winnerPrize */\n      dup3\n      dup3\n      sload\n      tag_142\n      swap2\n      swap1\n      tag_143\n      jump\t// in\n    tag_142:\n      swap3\n      pop\n      pop\n      dup2\n      swap1\n      sstore\n      pop\n        /* \"contracts/Lottery.sol\":4630:4636  winner */\n      dup1\n        /* \"contracts/Lottery.sol\":4630:4645  winner.transfer */\n      0xffffffffffffffffffffffffffffffffffffffff\n      and\n        /* \"contracts/Lottery.sol\":4630:4659  winner.transfer(_winnerPrize) */\n      0x08fc\n        /* \"contracts/Lottery.sol\":4646:4658  _winnerPrize */\n      dup4\n        /* \"contracts/Lottery.sol\":4630:4659  winner.transfer(_winnerPrize) */\n      swap1\n      dup2\n      iszero\n      mul\n      swap1\n      mload(0x40)\n      0x00\n      mload(0x40)\n      dup1\n      dup4\n      sub\n      dup2\n      dup6\n      dup9\n      dup9\n      call\n      swap4\n      pop\n      pop\n      pop\n      pop\n      iszero\n      dup1\n      iszero\n      tag_145\n      jumpi\n      returndatasize\n      0x00\n      dup1\n      returndatacopy\n      revert(0x00, returndatasize)\n    tag_145:\n      pop\n        /* \"contracts/Lottery.sol\":4508:4715  function _transferPrize(uint256 _winnerPrize, address payable winner) private{... */\n      pop\n      pop\n      jump\t// out\n        /* \"contracts/Lottery.sol\":2922:2992  function increasePlayerCount() internal {... */\n    tag_135:\n        /* \"contracts/Lottery.sol\":2972:2983  playerCount */\n      0x08\n      0x00\n        /* \"contracts/Lottery.sol\":2972:2985  playerCount++ */\n      dup2\n      sload\n      dup1\n      swap3\n      swap2\n      swap1\n      tag_147\n      swap1\n      tag_122\n      jump\t// in\n    tag_147:\n      swap2\n      swap1\n      pop\n      sstore\n      pop\n        /* \"contracts/Lottery.sol\":2922:2992  function increasePlayerCount() internal {... */\n      jump\t// out\n    tag_140:\n      dup3\n      dup1\n      sload\n      dup3\n      dup3\n      sstore\n      swap1\n      0x00\n      mstore\n      keccak256(0x00, 0x20)\n      swap1\n      dup2\n      add\n      swap3\n      dup3\n      iszero\n      tag_148\n      jumpi\n      swap2\n      0x20\n      mul\n      dup3\n      add\n    tag_149:\n      dup3\n      dup2\n      gt\n      iszero\n      tag_150\n      jumpi\n      dup3\n      mload\n      dup3\n      sstore\n      swap2\n      0x20\n      add\n      swap2\n      swap1\n      0x01\n      add\n      swap1\n      jump(tag_149)\n    tag_150:\n    tag_148:\n      pop\n      swap1\n      pop\n      tag_151\n      swap2\n      swap1\n      tag_152\n      jump\t// in\n    tag_151:\n      pop\n      swap1\n      jump\t// out\n    tag_152:\n    tag_153:\n      dup1\n      dup3\n      gt\n      iszero\n      tag_154\n      jumpi\n      0x00\n      dup2\n      0x00\n      swap1\n      sstore\n      pop\n      0x01\n      add\n      jump(tag_153)\n    tag_154:\n      pop\n      swap1\n      jump\t// out\n        /* \"#utility.yul\":7:84   */\n    tag_155:\n        /* \"#utility.yul\":44:51   */\n      0x00\n        /* \"#utility.yul\":73:78   */\n      dup2\n        /* \"#utility.yul\":62:78   */\n      swap1\n      pop\n        /* \"#utility.yul\":7:84   */\n      swap2\n      swap1\n      pop\n      jump\t// out\n        /* \"#utility.yul\":90:208   */\n    tag_156:\n        /* \"#utility.yul\":177:201   */\n      tag_199\n        /* \"#utility.yul\":195:200   */\n      dup2\n        /* \"#utility.yul\":177:201   */\n      tag_155\n      jump\t// in\n    tag_199:\n        /* \"#utility.yul\":172:175   */\n      dup3\n        /* \"#utility.yul\":165:202   */\n      mstore\n        /* \"#utility.yul\":90:208   */\n      pop\n      pop\n      jump\t// out\n        /* \"#utility.yul\":214:436   */\n    tag_21:\n        /* \"#utility.yul\":307:311   */\n      0x00\n        /* \"#utility.yul\":345:347   */\n      0x20\n        /* \"#utility.yul\":334:343   */\n      dup3\n        /* \"#utility.yul\":330:348   */\n      add\n        /* \"#utility.yul\":322:348   */\n      swap1\n      pop\n        /* \"#utility.yul\":358:429   */\n      tag_201\n        /* \"#utility.yul\":426:427   */\n      0x00\n        /* \"#utility.yul\":415:424   */\n      dup4\n        /* \"#utility.yul\":411:428   */\n      add\n        /* \"#utility.yul\":402:408   */\n      dup5\n        /* \"#utility.yul\":358:429   */\n      tag_156\n      jump\t// in\n    tag_201:\n        /* \"#utility.yul\":214:436   */\n      swap3\n      swap2\n      pop\n      pop\n      jump\t// out\n        /* \"#utility.yul\":442:517   */\n    tag_157:\n        /* \"#utility.yul\":475:481   */\n      0x00\n        /* \"#utility.yul\":508:510   */\n      0x40\n        /* \"#utility.yul\":502:511   */\n      mload\n        /* \"#utility.yul\":492:511   */\n      swap1\n      pop\n        /* \"#utility.yul\":442:517   */\n      swap1\n      jump\t// out\n        /* \"#utility.yul\":523:640   */\n    tag_158:\n        /* \"#utility.yul\":632:633   */\n      0x00\n        /* \"#utility.yul\":629:630   */\n      dup1\n        /* \"#utility.yul\":622:634   */\n      revert\n        /* \"#utility.yul\":646:763   */\n    tag_159:\n        /* \"#utility.yul\":755:756   */\n      0x00\n        /* \"#utility.yul\":752:753   */\n      dup1\n        /* \"#utility.yul\":745:757   */\n      revert\n        /* \"#utility.yul\":769:891   */\n    tag_160:\n        /* \"#utility.yul\":842:866   */\n      tag_206\n        /* \"#utility.yul\":860:865   */\n      dup2\n        /* \"#utility.yul\":842:866   */\n      tag_155\n      jump\t// in\n    tag_206:\n        /* \"#utility.yul\":835:840   */\n      dup2\n        /* \"#utility.yul\":832:867   */\n      eq\n        /* \"#utility.yul\":822:885   */\n      tag_207\n      jumpi\n        /* \"#utility.yul\":881:882   */\n      0x00\n        /* \"#utility.yul\":878:879   */\n      dup1\n        /* \"#utility.yul\":871:883   */\n      revert\n        /* \"#utility.yul\":822:885   */\n    tag_207:\n        /* \"#utility.yul\":769:891   */\n      pop\n      jump\t// out\n        /* \"#utility.yul\":897:1036   */\n    tag_161:\n        /* \"#utility.yul\":943:948   */\n      0x00\n        /* \"#utility.yul\":981:987   */\n      dup2\n        /* \"#utility.yul\":968:988   */\n      calldataload\n        /* \"#utility.yul\":959:988   */\n      swap1\n      pop\n        /* \"#utility.yul\":997:1030   */\n      tag_209\n        /* \"#utility.yul\":1024:1029   */\n      dup2\n        /* \"#utility.yul\":997:1030   */\n      tag_160\n      jump\t// in\n    tag_209:\n        /* \"#utility.yul\":897:1036   */\n      swap3\n      swap2\n      pop\n      pop\n      jump\t// out\n        /* \"#utility.yul\":1042:1371   */\n    tag_25:\n        /* \"#utility.yul\":1101:1107   */\n      0x00\n        /* \"#utility.yul\":1150:1152   */\n      0x20\n        /* \"#utility.yul\":1138:1147   */\n      dup3\n        /* \"#utility.yul\":1129:1136   */\n      dup5\n        /* \"#utility.yul\":1125:1148   */\n      sub\n        /* \"#utility.yul\":1121:1153   */\n      slt\n        /* \"#utility.yul\":1118:1237   */\n      iszero\n      tag_211\n      jumpi\n        /* \"#utility.yul\":1156:1235   */\n      tag_212\n      tag_158\n      jump\t// in\n    tag_212:\n        /* \"#utility.yul\":1118:1237   */\n    tag_211:\n        /* \"#utility.yul\":1276:1277   */\n      0x00\n        /* \"#utility.yul\":1301:1354   */\n      tag_213\n        /* \"#utility.yul\":1346:1353   */\n      dup5\n        /* \"#utility.yul\":1337:1343   */\n      dup3\n        /* \"#utility.yul\":1326:1335   */\n      dup6\n        /* \"#utility.yul\":1322:1344   */\n      add\n        /* \"#utility.yul\":1301:1354   */\n      tag_161\n      jump\t// in\n    tag_213:\n        /* \"#utility.yul\":1291:1354   */\n      swap2\n      pop\n        /* \"#utility.yul\":1247:1364   */\n      pop\n        /* \"#utility.yul\":1042:1371   */\n      swap3\n      swap2\n      pop\n      pop\n      jump\t// out\n        /* \"#utility.yul\":1377:1503   */\n    tag_162:\n        /* \"#utility.yul\":1414:1421   */\n      0x00\n        /* \"#utility.yul\":1454:1496   */\n      0xffffffffffffffffffffffffffffffffffffffff\n        /* \"#utility.yul\":1447:1452   */\n      dup3\n        /* \"#utility.yul\":1443:1497   */\n      and\n        /* \"#utility.yul\":1432:1497   */\n      swap1\n      pop\n        /* \"#utility.yul\":1377:1503   */\n      swap2\n      swap1\n      pop\n      jump\t// out\n        /* \"#utility.yul\":1509:1605   */\n    tag_163:\n        /* \"#utility.yul\":1546:1553   */\n      0x00\n        /* \"#utility.yul\":1575:1599   */\n      tag_216\n        /* \"#utility.yul\":1593:1598   */\n      dup3\n        /* \"#utility.yul\":1575:1599   */\n      tag_162\n      jump\t// in\n    tag_216:\n        /* \"#utility.yul\":1564:1599   */\n      swap1\n      pop\n        /* \"#utility.yul\":1509:1605   */\n      swap2\n      swap1\n      pop\n      jump\t// out\n        /* \"#utility.yul\":1611:1729   */\n    tag_164:\n        /* \"#utility.yul\":1698:1722   */\n      tag_218\n        /* \"#utility.yul\":1716:1721   */\n      dup2\n        /* \"#utility.yul\":1698:1722   */\n      tag_163\n      jump\t// in\n    tag_218:\n        /* \"#utility.yul\":1693:1696   */\n      dup3\n        /* \"#utility.yul\":1686:1723   */\n      mstore\n        /* \"#utility.yul\":1611:1729   */\n      pop\n      pop\n      jump\t// out\n        /* \"#utility.yul\":1735:1957   */\n    tag_28:\n        /* \"#utility.yul\":1828:1832   */\n      0x00\n        /* \"#utility.yul\":1866:1868   */\n      0x20\n        /* \"#utility.yul\":1855:1864   */\n      dup3\n        /* \"#utility.yul\":1851:1869   */\n      add\n        /* \"#utility.yul\":1843:1869   */\n      swap1\n      pop\n        /* \"#utility.yul\":1879:1950   */\n      tag_220\n        /* \"#utility.yul\":1947:1948   */\n      0x00\n        /* \"#utility.yul\":1936:1945   */\n      dup4\n        /* \"#utility.yul\":1932:1949   */\n      add\n        /* \"#utility.yul\":1923:1929   */\n      dup5\n        /* \"#utility.yul\":1879:1950   */\n      tag_164\n      jump\t// in\n    tag_220:\n        /* \"#utility.yul\":1735:1957   */\n      swap3\n      swap2\n      pop\n      pop\n      jump\t// out\n        /* \"#utility.yul\":1963:2080   */\n    tag_165:\n        /* \"#utility.yul\":2072:2073   */\n      0x00\n        /* \"#utility.yul\":2069:2070   */\n      dup1\n        /* \"#utility.yul\":2062:2074   */\n      revert\n        /* \"#utility.yul\":2086:2188   */\n    tag_166:\n        /* \"#utility.yul\":2127:2133   */\n      0x00\n        /* \"#utility.yul\":2178:2180   */\n      0x1f\n        /* \"#utility.yul\":2174:2181   */\n      not\n        /* \"#utility.yul\":2169:2171   */\n      0x1f\n        /* \"#utility.yul\":2162:2167   */\n      dup4\n        /* \"#utility.yul\":2158:2172   */\n      add\n        /* \"#utility.yul\":2154:2182   */\n      and\n        /* \"#utility.yul\":2144:2182   */\n      swap1\n      pop\n        /* \"#utility.yul\":2086:2188   */\n      swap2\n      swap1\n      pop\n      jump\t// out\n        /* \"#utility.yul\":2194:2374   */\n    tag_167:\n        /* \"#utility.yul\":2242:2319   */\n      0x4e487b7100000000000000000000000000000000000000000000000000000000\n        /* \"#utility.yul\":2239:2240   */\n      0x00\n        /* \"#utility.yul\":2232:2320   */\n      mstore\n        /* \"#utility.yul\":2339:2343   */\n      0x41\n        /* \"#utility.yul\":2336:2337   */\n      0x04\n        /* \"#utility.yul\":2329:2344   */\n      mstore\n        /* \"#utility.yul\":2363:2367   */\n      0x24\n        /* \"#utility.yul\":2360:2361   */\n      0x00\n        /* \"#utility.yul\":2353:2368   */\n      revert\n        /* \"#utility.yul\":2380:2661   */\n    tag_168:\n        /* \"#utility.yul\":2463:2490   */\n      tag_225\n        /* \"#utility.yul\":2485:2489   */\n      dup3\n        /* \"#utility.yul\":2463:2490   */\n      tag_166\n      jump\t// in\n    tag_225:\n        /* \"#utility.yul\":2455:2461   */\n      dup2\n        /* \"#utility.yul\":2451:2491   */\n      add\n        /* \"#utility.yul\":2593:2599   */\n      dup2\n        /* \"#utility.yul\":2581:2591   */\n      dup2\n        /* \"#utility.yul\":2578:2600   */\n      lt\n        /* \"#utility.yul\":2557:2575   */\n      0xffffffffffffffff\n        /* \"#utility.yul\":2545:2555   */\n      dup3\n        /* \"#utility.yul\":2542:2576   */\n      gt\n        /* \"#utility.yul\":2539:2601   */\n      or\n        /* \"#utility.yul\":2536:2624   */\n      iszero\n      tag_226\n      jumpi\n        /* \"#utility.yul\":2604:2622   */\n      tag_227\n      tag_167\n      jump\t// in\n    tag_227:\n        /* \"#utility.yul\":2536:2624   */\n    tag_226:\n        /* \"#utility.yul\":2644:2654   */\n      dup1\n        /* \"#utility.yul\":2640:2642   */\n      0x40\n        /* \"#utility.yul\":2633:2655   */\n      mstore\n        /* \"#utility.yul\":2423:2661   */\n      pop\n        /* \"#utility.yul\":2380:2661   */\n      pop\n      pop\n      jump\t// out\n        /* \"#utility.yul\":2667:2796   */\n    tag_169:\n        /* \"#utility.yul\":2701:2707   */\n      0x00\n        /* \"#utility.yul\":2728:2748   */\n      tag_229\n      tag_157\n      jump\t// in\n    tag_229:\n        /* \"#utility.yul\":2718:2748   */\n      swap1\n      pop\n        /* \"#utility.yul\":2757:2790   */\n      tag_230\n        /* \"#utility.yul\":2785:2789   */\n      dup3\n        /* \"#utility.yul\":2777:2783   */\n      dup3\n        /* \"#utility.yul\":2757:2790   */\n      tag_168\n      jump\t// in\n    tag_230:\n        /* \"#utility.yul\":2667:2796   */\n      swap2\n      swap1\n      pop\n      jump\t// out\n        /* \"#utility.yul\":2802:3113   */\n    tag_170:\n        /* \"#utility.yul\":2879:2883   */\n      0x00\n        /* \"#utility.yul\":2969:2987   */\n      0xffffffffffffffff\n        /* \"#utility.yul\":2961:2967   */\n      dup3\n        /* \"#utility.yul\":2958:2988   */\n      gt\n        /* \"#utility.yul\":2955:3011   */\n      iszero\n      tag_232\n      jumpi\n        /* \"#utility.yul\":2991:3009   */\n      tag_233\n      tag_167\n      jump\t// in\n    tag_233:\n        /* \"#utility.yul\":2955:3011   */\n    tag_232:\n        /* \"#utility.yul\":3041:3045   */\n      0x20\n        /* \"#utility.yul\":3033:3039   */\n      dup3\n        /* \"#utility.yul\":3029:3046   */\n      mul\n        /* \"#utility.yul\":3021:3046   */\n      swap1\n      pop\n        /* \"#utility.yul\":3101:3105   */\n      0x20\n        /* \"#utility.yul\":3095:3099   */\n      dup2\n        /* \"#utility.yul\":3091:3106   */\n      add\n        /* \"#utility.yul\":3083:3106   */\n      swap1\n      pop\n        /* \"#utility.yul\":2802:3113   */\n      swap2\n      swap1\n      pop\n      jump\t// out\n        /* \"#utility.yul\":3119:3236   */\n    tag_171:\n        /* \"#utility.yul\":3228:3229   */\n      0x00\n        /* \"#utility.yul\":3225:3226   */\n      dup1\n        /* \"#utility.yul\":3218:3230   */\n      revert\n        /* \"#utility.yul\":3259:3969   */\n    tag_172:\n        /* \"#utility.yul\":3355:3360   */\n      0x00\n        /* \"#utility.yul\":3380:3461   */\n      tag_236\n        /* \"#utility.yul\":3396:3460   */\n      tag_237\n        /* \"#utility.yul\":3453:3459   */\n      dup5\n        /* \"#utility.yul\":3396:3460   */\n      tag_170\n      jump\t// in\n    tag_237:\n        /* \"#utility.yul\":3380:3461   */\n      tag_169\n      jump\t// in\n    tag_236:\n        /* \"#utility.yul\":3371:3461   */\n      swap1\n      pop\n        /* \"#utility.yul\":3481:3486   */\n      dup1\n        /* \"#utility.yul\":3510:3516   */\n      dup4\n        /* \"#utility.yul\":3503:3508   */\n      dup3\n        /* \"#utility.yul\":3496:3517   */\n      mstore\n        /* \"#utility.yul\":3544:3548   */\n      0x20\n        /* \"#utility.yul\":3537:3542   */\n      dup3\n        /* \"#utility.yul\":3533:3549   */\n      add\n        /* \"#utility.yul\":3526:3549   */\n      swap1\n      pop\n        /* \"#utility.yul\":3597:3601   */\n      0x20\n        /* \"#utility.yul\":3589:3595   */\n      dup5\n        /* \"#utility.yul\":3585:3602   */\n      mul\n        /* \"#utility.yul\":3577:3583   */\n      dup4\n        /* \"#utility.yul\":3573:3603   */\n      add\n        /* \"#utility.yul\":3626:3629   */\n      dup6\n        /* \"#utility.yul\":3618:3624   */\n      dup2\n        /* \"#utility.yul\":3615:3630   */\n      gt\n        /* \"#utility.yul\":3612:3734   */\n      iszero\n      tag_238\n      jumpi\n        /* \"#utility.yul\":3645:3724   */\n      tag_239\n      tag_171\n      jump\t// in\n    tag_239:\n        /* \"#utility.yul\":3612:3734   */\n    tag_238:\n        /* \"#utility.yul\":3760:3766   */\n      dup4\n        /* \"#utility.yul\":3743:3963   */\n    tag_240:\n        /* \"#utility.yul\":3777:3783   */\n      dup2\n        /* \"#utility.yul\":3772:3775   */\n      dup2\n        /* \"#utility.yul\":3769:3784   */\n      lt\n        /* \"#utility.yul\":3743:3963   */\n      iszero\n      tag_242\n      jumpi\n        /* \"#utility.yul\":3852:3855   */\n      dup1\n        /* \"#utility.yul\":3881:3918   */\n      tag_243\n        /* \"#utility.yul\":3914:3917   */\n      dup9\n        /* \"#utility.yul\":3902:3912   */\n      dup3\n        /* \"#utility.yul\":3881:3918   */\n      tag_161\n      jump\t// in\n    tag_243:\n        /* \"#utility.yul\":3876:3879   */\n      dup5\n        /* \"#utility.yul\":3869:3919   */\n      mstore\n        /* \"#utility.yul\":3948:3952   */\n      0x20\n        /* \"#utility.yul\":3943:3946   */\n      dup5\n        /* \"#utility.yul\":3939:3953   */\n      add\n        /* \"#utility.yul\":3932:3953   */\n      swap4\n      pop\n        /* \"#utility.yul\":3819:3963   */\n      pop\n        /* \"#utility.yul\":3803:3807   */\n      0x20\n        /* \"#utility.yul\":3798:3801   */\n      dup2\n        /* \"#utility.yul\":3794:3808   */\n      add\n        /* \"#utility.yul\":3787:3808   */\n      swap1\n      pop\n        /* \"#utility.yul\":3743:3963   */\n      jump(tag_240)\n    tag_242:\n        /* \"#utility.yul\":3747:3768   */\n      pop\n        /* \"#utility.yul\":3361:3969   */\n      pop\n      pop\n        /* \"#utility.yul\":3259:3969   */\n      swap4\n      swap3\n      pop\n      pop\n      pop\n      jump\t// out\n        /* \"#utility.yul\":3992:4362   */\n    tag_173:\n        /* \"#utility.yul\":4063:4068   */\n      0x00\n        /* \"#utility.yul\":4112:4115   */\n      dup3\n        /* \"#utility.yul\":4105:4109   */\n      0x1f\n        /* \"#utility.yul\":4097:4103   */\n      dup4\n        /* \"#utility.yul\":4093:4110   */\n      add\n        /* \"#utility.yul\":4089:4116   */\n      slt\n        /* \"#utility.yul\":4079:4201   */\n      tag_245\n      jumpi\n        /* \"#utility.yul\":4120:4199   */\n      tag_246\n      tag_165\n      jump\t// in\n    tag_246:\n        /* \"#utility.yul\":4079:4201   */\n    tag_245:\n        /* \"#utility.yul\":4237:4243   */\n      dup2\n        /* \"#utility.yul\":4224:4244   */\n      calldataload\n        /* \"#utility.yul\":4262:4356   */\n      tag_247\n        /* \"#utility.yul\":4352:4355   */\n      dup5\n        /* \"#utility.yul\":4344:4350   */\n      dup3\n        /* \"#utility.yul\":4337:4341   */\n      0x20\n        /* \"#utility.yul\":4329:4335   */\n      dup7\n        /* \"#utility.yul\":4325:4342   */\n      add\n        /* \"#utility.yul\":4262:4356   */\n      tag_172\n      jump\t// in\n    tag_247:\n        /* \"#utility.yul\":4253:4356   */\n      swap2\n      pop\n        /* \"#utility.yul\":4069:4362   */\n      pop\n        /* \"#utility.yul\":3992:4362   */\n      swap3\n      swap2\n      pop\n      pop\n      jump\t// out\n        /* \"#utility.yul\":4368:5052   */\n    tag_32:\n        /* \"#utility.yul\":4461:4467   */\n      0x00\n        /* \"#utility.yul\":4469:4475   */\n      dup1\n        /* \"#utility.yul\":4518:4520   */\n      0x40\n        /* \"#utility.yul\":4506:4515   */\n      dup4\n        /* \"#utility.yul\":4497:4504   */\n      dup6\n        /* \"#utility.yul\":4493:4516   */\n      sub\n        /* \"#utility.yul\":4489:4521   */\n      slt\n        /* \"#utility.yul\":4486:4605   */\n      iszero\n      tag_249\n      jumpi\n        /* \"#utility.yul\":4524:4603   */\n      tag_250\n      tag_158\n      jump\t// in\n    tag_250:\n        /* \"#utility.yul\":4486:4605   */\n    tag_249:\n        /* \"#utility.yul\":4644:4645   */\n      0x00\n        /* \"#utility.yul\":4669:4722   */\n      tag_251\n        /* \"#utility.yul\":4714:4721   */\n      dup6\n        /* \"#utility.yul\":4705:4711   */\n      dup3\n        /* \"#utility.yul\":4694:4703   */\n      dup7\n        /* \"#utility.yul\":4690:4712   */\n      add\n        /* \"#utility.yul\":4669:4722   */\n      tag_161\n      jump\t// in\n    tag_251:\n        /* \"#utility.yul\":4659:4722   */\n      swap3\n      pop\n        /* \"#utility.yul\":4615:4732   */\n      pop\n        /* \"#utility.yul\":4799:4801   */\n      0x20\n        /* \"#utility.yul\":4788:4797   */\n      dup4\n        /* \"#utility.yul\":4784:4802   */\n      add\n        /* \"#utility.yul\":4771:4803   */\n      calldataload\n        /* \"#utility.yul\":4830:4848   */\n      0xffffffffffffffff\n        /* \"#utility.yul\":4822:4828   */\n      dup2\n        /* \"#utility.yul\":4819:4849   */\n      gt\n        /* \"#utility.yul\":4816:4933   */\n      iszero\n      tag_252\n      jumpi\n        /* \"#utility.yul\":4852:4931   */\n      tag_253\n      tag_159\n      jump\t// in\n    tag_253:\n        /* \"#utility.yul\":4816:4933   */\n    tag_252:\n        /* \"#utility.yul\":4957:5035   */\n      tag_254\n        /* \"#utility.yul\":5027:5034   */\n      dup6\n        /* \"#utility.yul\":5018:5024   */\n      dup3\n        /* \"#utility.yul\":5007:5016   */\n      dup7\n        /* \"#utility.yul\":5003:5025   */\n      add\n        /* \"#utility.yul\":4957:5035   */\n      tag_173\n      jump\t// in\n    tag_254:\n        /* \"#utility.yul\":4947:5035   */\n      swap2\n      pop\n        /* \"#utility.yul\":4742:5045   */\n      pop\n        /* \"#utility.yul\":4368:5052   */\n      swap3\n      pop\n      swap3\n      swap1\n      pop\n      jump\t// out\n        /* \"#utility.yul\":5058:5162   */\n    tag_174:\n        /* \"#utility.yul\":5103:5110   */\n      0x00\n        /* \"#utility.yul\":5132:5156   */\n      tag_256\n        /* \"#utility.yul\":5150:5155   */\n      dup3\n        /* \"#utility.yul\":5132:5156   */\n      tag_162\n      jump\t// in\n    tag_256:\n        /* \"#utility.yul\":5121:5156   */\n      swap1\n      pop\n        /* \"#utility.yul\":5058:5162   */\n      swap2\n      swap1\n      pop\n      jump\t// out\n        /* \"#utility.yul\":5168:5310   */\n    tag_175:\n        /* \"#utility.yul\":5271:5303   */\n      tag_258\n        /* \"#utility.yul\":5297:5302   */\n      dup2\n        /* \"#utility.yul\":5271:5303   */\n      tag_174\n      jump\t// in\n    tag_258:\n        /* \"#utility.yul\":5266:5269   */\n      dup3\n        /* \"#utility.yul\":5259:5304   */\n      mstore\n        /* \"#utility.yul\":5168:5310   */\n      pop\n      pop\n      jump\t// out\n        /* \"#utility.yul\":5316:5680   */\n    tag_46:\n        /* \"#utility.yul\":5453:5457   */\n      0x00\n        /* \"#utility.yul\":5491:5493   */\n      0x40\n        /* \"#utility.yul\":5480:5489   */\n      dup3\n        /* \"#utility.yul\":5476:5494   */\n      add\n        /* \"#utility.yul\":5468:5494   */\n      swap1\n      pop\n        /* \"#utility.yul\":5504:5591   */\n      tag_260\n        /* \"#utility.yul\":5588:5589   */\n      0x00\n        /* \"#utility.yul\":5577:5586   */\n      dup4\n        /* \"#utility.yul\":5573:5590   */\n      add\n        /* \"#utility.yul\":5564:5570   */\n      dup6\n        /* \"#utility.yul\":5504:5591   */\n      tag_175\n      jump\t// in\n    tag_260:\n        /* \"#utility.yul\":5601:5673   */\n      tag_261\n        /* \"#utility.yul\":5669:5671   */\n      0x20\n        /* \"#utility.yul\":5658:5667   */\n      dup4\n        /* \"#utility.yul\":5654:5672   */\n      add\n        /* \"#utility.yul\":5645:5651   */\n      dup5\n        /* \"#utility.yul\":5601:5673   */\n      tag_156\n      jump\t// in\n    tag_261:\n        /* \"#utility.yul\":5316:5680   */\n      swap4\n      swap3\n      pop\n      pop\n      pop\n      jump\t// out\n        /* \"#utility.yul\":5686:5940   */\n    tag_56:\n        /* \"#utility.yul\":5795:5799   */\n      0x00\n        /* \"#utility.yul\":5833:5835   */\n      0x20\n        /* \"#utility.yul\":5822:5831   */\n      dup3\n        /* \"#utility.yul\":5818:5836   */\n      add\n        /* \"#utility.yul\":5810:5836   */\n      swap1\n      pop\n        /* \"#utility.yul\":5846:5933   */\n      tag_263\n        /* \"#utility.yul\":5930:5931   */\n      0x00\n        /* \"#utility.yul\":5919:5928   */\n      dup4\n        /* \"#utility.yul\":5915:5932   */\n      add\n        /* \"#utility.yul\":5906:5912   */\n      dup5\n        /* \"#utility.yul\":5846:5933   */\n      tag_175\n      jump\t// in\n    tag_263:\n        /* \"#utility.yul\":5686:5940   */\n      swap3\n      swap2\n      pop\n      pop\n      jump\t// out\n        /* \"#utility.yul\":5946:6126   */\n    tag_80:\n        /* \"#utility.yul\":5994:6071   */\n      0x4e487b7100000000000000000000000000000000000000000000000000000000\n        /* \"#utility.yul\":5991:5992   */\n      0x00\n        /* \"#utility.yul\":5984:6072   */\n      mstore\n        /* \"#utility.yul\":6091:6095   */\n      0x32\n        /* \"#utility.yul\":6088:6089   */\n      0x04\n        /* \"#utility.yul\":6081:6096   */\n      mstore\n        /* \"#utility.yul\":6115:6119   */\n      0x24\n        /* \"#utility.yul\":6112:6113   */\n      0x00\n        /* \"#utility.yul\":6105:6120   */\n      revert\n        /* \"#utility.yul\":6132:6464   */\n    tag_85:\n        /* \"#utility.yul\":6253:6257   */\n      0x00\n        /* \"#utility.yul\":6291:6293   */\n      0x40\n        /* \"#utility.yul\":6280:6289   */\n      dup3\n        /* \"#utility.yul\":6276:6294   */\n      add\n        /* \"#utility.yul\":6268:6294   */\n      swap1\n      pop\n        /* \"#utility.yul\":6304:6375   */\n      tag_266\n        /* \"#utility.yul\":6372:6373   */\n      0x00\n        /* \"#utility.yul\":6361:6370   */\n      dup4\n        /* \"#utility.yul\":6357:6374   */\n      add\n        /* \"#utility.yul\":6348:6354   */\n      dup6\n        /* \"#utility.yul\":6304:6375   */\n      tag_164\n      jump\t// in\n    tag_266:\n        /* \"#utility.yul\":6385:6457   */\n      tag_267\n        /* \"#utility.yul\":6453:6455   */\n      0x20\n        /* \"#utility.yul\":6442:6451   */\n      dup4\n        /* \"#utility.yul\":6438:6456   */\n      add\n        /* \"#utility.yul\":6429:6435   */\n      dup5\n        /* \"#utility.yul\":6385:6457   */\n      tag_164\n      jump\t// in\n    tag_267:\n        /* \"#utility.yul\":6132:6464   */\n      swap4\n      swap3\n      pop\n      pop\n      pop\n      jump\t// out\n        /* \"#utility.yul\":6470:6547   */\n    tag_176:\n        /* \"#utility.yul\":6507:6514   */\n      0x00\n        /* \"#utility.yul\":6536:6541   */\n      dup2\n        /* \"#utility.yul\":6525:6541   */\n      swap1\n      pop\n        /* \"#utility.yul\":6470:6547   */\n      swap2\n      swap1\n      pop\n      jump\t// out\n        /* \"#utility.yul\":6553:6671   */\n    tag_177:\n        /* \"#utility.yul\":6640:6664   */\n      tag_270\n        /* \"#utility.yul\":6658:6663   */\n      dup2\n        /* \"#utility.yul\":6640:6664   */\n      tag_176\n      jump\t// in\n    tag_270:\n        /* \"#utility.yul\":6635:6638   */\n      dup3\n        /* \"#utility.yul\":6628:6665   */\n      mstore\n        /* \"#utility.yul\":6553:6671   */\n      pop\n      pop\n      jump\t// out\n        /* \"#utility.yul\":6677:6778   */\n    tag_178:\n        /* \"#utility.yul\":6713:6720   */\n      0x00\n        /* \"#utility.yul\":6753:6771   */\n      0xffffffffffffffff\n        /* \"#utility.yul\":6746:6751   */\n      dup3\n        /* \"#utility.yul\":6742:6772   */\n      and\n        /* \"#utility.yul\":6731:6772   */\n      swap1\n      pop\n        /* \"#utility.yul\":6677:6778   */\n      swap2\n      swap1\n      pop\n      jump\t// out\n        /* \"#utility.yul\":6784:6899   */\n    tag_179:\n        /* \"#utility.yul\":6869:6892   */\n      tag_273\n        /* \"#utility.yul\":6886:6891   */\n      dup2\n        /* \"#utility.yul\":6869:6892   */\n      tag_178\n      jump\t// in\n    tag_273:\n        /* \"#utility.yul\":6864:6867   */\n      dup3\n        /* \"#utility.yul\":6857:6893   */\n      mstore\n        /* \"#utility.yul\":6784:6899   */\n      pop\n      pop\n      jump\t// out\n        /* \"#utility.yul\":6905:6994   */\n    tag_180:\n        /* \"#utility.yul\":6941:6948   */\n      0x00\n        /* \"#utility.yul\":6981:6987   */\n      0xffff\n        /* \"#utility.yul\":6974:6979   */\n      dup3\n        /* \"#utility.yul\":6970:6988   */\n      and\n        /* \"#utility.yul\":6959:6988   */\n      swap1\n      pop\n        /* \"#utility.yul\":6905:6994   */\n      swap2\n      swap1\n      pop\n      jump\t// out\n        /* \"#utility.yul\":7000:7115   */\n    tag_181:\n        /* \"#utility.yul\":7085:7108   */\n      tag_276\n        /* \"#utility.yul\":7102:7107   */\n      dup2\n        /* \"#utility.yul\":7085:7108   */\n      tag_180\n      jump\t// in\n    tag_276:\n        /* \"#utility.yul\":7080:7083   */\n      dup3\n        /* \"#utility.yul\":7073:7109   */\n      mstore\n        /* \"#utility.yul\":7000:7115   */\n      pop\n      pop\n      jump\t// out\n        /* \"#utility.yul\":7121:7214   */\n    tag_182:\n        /* \"#utility.yul\":7157:7164   */\n      0x00\n        /* \"#utility.yul\":7197:7207   */\n      0xffffffff\n        /* \"#utility.yul\":7190:7195   */\n      dup3\n        /* \"#utility.yul\":7186:7208   */\n      and\n        /* \"#utility.yul\":7175:7208   */\n      swap1\n      pop\n        /* \"#utility.yul\":7121:7214   */\n      swap2\n      swap1\n      pop\n      jump\t// out\n        /* \"#utility.yul\":7220:7335   */\n    tag_183:\n        /* \"#utility.yul\":7305:7328   */\n      tag_279\n        /* \"#utility.yul\":7322:7327   */\n      dup2\n        /* \"#utility.yul\":7305:7328   */\n      tag_182\n      jump\t// in\n    tag_279:\n        /* \"#utility.yul\":7300:7303   */\n      dup3\n        /* \"#utility.yul\":7293:7329   */\n      mstore\n        /* \"#utility.yul\":7220:7335   */\n      pop\n      pop\n      jump\t// out\n        /* \"#utility.yul\":7341:7989   */\n    tag_93:\n        /* \"#utility.yul\":7538:7542   */\n      0x00\n        /* \"#utility.yul\":7576:7579   */\n      0xa0\n        /* \"#utility.yul\":7565:7574   */\n      dup3\n        /* \"#utility.yul\":7561:7580   */\n      add\n        /* \"#utility.yul\":7553:7580   */\n      swap1\n      pop\n        /* \"#utility.yul\":7590:7661   */\n      tag_281\n        /* \"#utility.yul\":7658:7659   */\n      0x00\n        /* \"#utility.yul\":7647:7656   */\n      dup4\n        /* \"#utility.yul\":7643:7660   */\n      add\n        /* \"#utility.yul\":7634:7640   */\n      dup9\n        /* \"#utility.yul\":7590:7661   */\n      tag_177\n      jump\t// in\n    tag_281:\n        /* \"#utility.yul\":7671:7741   */\n      tag_282\n        /* \"#utility.yul\":7737:7739   */\n      0x20\n        /* \"#utility.yul\":7726:7735   */\n      dup4\n        /* \"#utility.yul\":7722:7740   */\n      add\n        /* \"#utility.yul\":7713:7719   */\n      dup8\n        /* \"#utility.yul\":7671:7741   */\n      tag_179\n      jump\t// in\n    tag_282:\n        /* \"#utility.yul\":7751:7821   */\n      tag_283\n        /* \"#utility.yul\":7817:7819   */\n      0x40\n        /* \"#utility.yul\":7806:7815   */\n      dup4\n        /* \"#utility.yul\":7802:7820   */\n      add\n        /* \"#utility.yul\":7793:7799   */\n      dup7\n        /* \"#utility.yul\":7751:7821   */\n      tag_181\n      jump\t// in\n    tag_283:\n        /* \"#utility.yul\":7831:7901   */\n      tag_284\n        /* \"#utility.yul\":7897:7899   */\n      0x60\n        /* \"#utility.yul\":7886:7895   */\n      dup4\n        /* \"#utility.yul\":7882:7900   */\n      add\n        /* \"#utility.yul\":7873:7879   */\n      dup6\n        /* \"#utility.yul\":7831:7901   */\n      tag_183\n      jump\t// in\n    tag_284:\n        /* \"#utility.yul\":7911:7982   */\n      tag_285\n        /* \"#utility.yul\":7977:7980   */\n      0x80\n        /* \"#utility.yul\":7966:7975   */\n      dup4\n        /* \"#utility.yul\":7962:7981   */\n      add\n        /* \"#utility.yul\":7953:7959   */\n      dup5\n        /* \"#utility.yul\":7911:7982   */\n      tag_183\n      jump\t// in\n    tag_285:\n        /* \"#utility.yul\":7341:7989   */\n      swap7\n      swap6\n      pop\n      pop\n      pop\n      pop\n      pop\n      pop\n      jump\t// out\n        /* \"#utility.yul\":7995:8138   */\n    tag_184:\n        /* \"#utility.yul\":8052:8057   */\n      0x00\n        /* \"#utility.yul\":8083:8089   */\n      dup2\n        /* \"#utility.yul\":8077:8090   */\n      mload\n        /* \"#utility.yul\":8068:8090   */\n      swap1\n      pop\n        /* \"#utility.yul\":8099:8132   */\n      tag_287\n        /* \"#utility.yul\":8126:8131   */\n      dup2\n        /* \"#utility.yul\":8099:8132   */\n      tag_160\n      jump\t// in\n    tag_287:\n        /* \"#utility.yul\":7995:8138   */\n      swap3\n      swap2\n      pop\n      pop\n      jump\t// out\n        /* \"#utility.yul\":8144:8495   */\n    tag_97:\n        /* \"#utility.yul\":8214:8220   */\n      0x00\n        /* \"#utility.yul\":8263:8265   */\n      0x20\n        /* \"#utility.yul\":8251:8260   */\n      dup3\n        /* \"#utility.yul\":8242:8249   */\n      dup5\n        /* \"#utility.yul\":8238:8261   */\n      sub\n        /* \"#utility.yul\":8234:8266   */\n      slt\n        /* \"#utility.yul\":8231:8350   */\n      iszero\n      tag_289\n      jumpi\n        /* \"#utility.yul\":8269:8348   */\n      tag_290\n      tag_158\n      jump\t// in\n    tag_290:\n        /* \"#utility.yul\":8231:8350   */\n    tag_289:\n        /* \"#utility.yul\":8389:8390   */\n      0x00\n        /* \"#utility.yul\":8414:8478   */\n      tag_291\n        /* \"#utility.yul\":8470:8477   */\n      dup5\n        /* \"#utility.yul\":8461:8467   */\n      dup3\n        /* \"#utility.yul\":8450:8459   */\n      dup6\n        /* \"#utility.yul\":8446:8468   */\n      add\n        /* \"#utility.yul\":8414:8478   */\n      tag_184\n      jump\t// in\n    tag_291:\n        /* \"#utility.yul\":8404:8478   */\n      swap2\n      pop\n        /* \"#utility.yul\":8360:8488   */\n      pop\n        /* \"#utility.yul\":8144:8495   */\n      swap3\n      swap2\n      pop\n      pop\n      jump\t// out\n        /* \"#utility.yul\":8501:8681   */\n    tag_185:\n        /* \"#utility.yul\":8549:8626   */\n      0x4e487b7100000000000000000000000000000000000000000000000000000000\n        /* \"#utility.yul\":8546:8547   */\n      0x00\n        /* \"#utility.yul\":8539:8627   */\n      mstore\n        /* \"#utility.yul\":8646:8650   */\n      0x12\n        /* \"#utility.yul\":8643:8644   */\n      0x04\n        /* \"#utility.yul\":8636:8651   */\n      mstore\n        /* \"#utility.yul\":8670:8674   */\n      0x24\n        /* \"#utility.yul\":8667:8668   */\n      0x00\n        /* \"#utility.yul\":8660:8675   */\n      revert\n        /* \"#utility.yul\":8687:8863   */\n    tag_99:\n        /* \"#utility.yul\":8719:8720   */\n      0x00\n        /* \"#utility.yul\":8736:8756   */\n      tag_294\n        /* \"#utility.yul\":8754:8755   */\n      dup3\n        /* \"#utility.yul\":8736:8756   */\n      tag_155\n      jump\t// in\n    tag_294:\n        /* \"#utility.yul\":8731:8756   */\n      swap2\n      pop\n        /* \"#utility.yul\":8770:8790   */\n      tag_295\n        /* \"#utility.yul\":8788:8789   */\n      dup4\n        /* \"#utility.yul\":8770:8790   */\n      tag_155\n      jump\t// in\n    tag_295:\n        /* \"#utility.yul\":8765:8790   */\n      swap3\n      pop\n        /* \"#utility.yul\":8809:8810   */\n      dup3\n        /* \"#utility.yul\":8799:8834   */\n      tag_296\n      jumpi\n        /* \"#utility.yul\":8814:8832   */\n      tag_297\n      tag_185\n      jump\t// in\n    tag_297:\n        /* \"#utility.yul\":8799:8834   */\n    tag_296:\n        /* \"#utility.yul\":8855:8856   */\n      dup3\n        /* \"#utility.yul\":8852:8853   */\n      dup3\n        /* \"#utility.yul\":8848:8857   */\n      mod\n        /* \"#utility.yul\":8843:8857   */\n      swap1\n      pop\n        /* \"#utility.yul\":8687:8863   */\n      swap3\n      swap2\n      pop\n      pop\n      jump\t// out\n        /* \"#utility.yul\":8869:9049   */\n    tag_186:\n        /* \"#utility.yul\":8917:8994   */\n      0x4e487b7100000000000000000000000000000000000000000000000000000000\n        /* \"#utility.yul\":8914:8915   */\n      0x00\n        /* \"#utility.yul\":8907:8995   */\n      mstore\n        /* \"#utility.yul\":9014:9018   */\n      0x11\n        /* \"#utility.yul\":9011:9012   */\n      0x04\n        /* \"#utility.yul\":9004:9019   */\n      mstore\n        /* \"#utility.yul\":9038:9042   */\n      0x24\n        /* \"#utility.yul\":9035:9036   */\n      0x00\n        /* \"#utility.yul\":9028:9043   */\n      revert\n        /* \"#utility.yul\":9055:9240   */\n    tag_106:\n        /* \"#utility.yul\":9095:9096   */\n      0x00\n        /* \"#utility.yul\":9112:9132   */\n      tag_300\n        /* \"#utility.yul\":9130:9131   */\n      dup3\n        /* \"#utility.yul\":9112:9132   */\n      tag_155\n      jump\t// in\n    tag_300:\n        /* \"#utility.yul\":9107:9132   */\n      swap2\n      pop\n        /* \"#utility.yul\":9146:9166   */\n      tag_301\n        /* \"#utility.yul\":9164:9165   */\n      dup4\n        /* \"#utility.yul\":9146:9166   */\n      tag_155\n      jump\t// in\n    tag_301:\n        /* \"#utility.yul\":9141:9166   */\n      swap3\n      pop\n        /* \"#utility.yul\":9185:9186   */\n      dup3\n        /* \"#utility.yul\":9175:9210   */\n      tag_302\n      jumpi\n        /* \"#utility.yul\":9190:9208   */\n      tag_303\n      tag_185\n      jump\t// in\n    tag_303:\n        /* \"#utility.yul\":9175:9210   */\n    tag_302:\n        /* \"#utility.yul\":9232:9233   */\n      dup3\n        /* \"#utility.yul\":9229:9230   */\n      dup3\n        /* \"#utility.yul\":9225:9234   */\n      div\n        /* \"#utility.yul\":9220:9234   */\n      swap1\n      pop\n        /* \"#utility.yul\":9055:9240   */\n      swap3\n      swap2\n      pop\n      pop\n      jump\t// out\n        /* \"#utility.yul\":9246:9415   */\n    tag_187:\n        /* \"#utility.yul\":9330:9341   */\n      0x00\n        /* \"#utility.yul\":9364:9370   */\n      dup3\n        /* \"#utility.yul\":9359:9362   */\n      dup3\n        /* \"#utility.yul\":9352:9371   */\n      mstore\n        /* \"#utility.yul\":9404:9408   */\n      0x20\n        /* \"#utility.yul\":9399:9402   */\n      dup3\n        /* \"#utility.yul\":9395:9409   */\n      add\n        /* \"#utility.yul\":9380:9409   */\n      swap1\n      pop\n        /* \"#utility.yul\":9246:9415   */\n      swap3\n      swap2\n      pop\n      pop\n      jump\t// out\n        /* \"#utility.yul\":9421:9589   */\n    tag_188:\n        /* \"#utility.yul\":9561:9581   */\n      0x7072697a65506f6f6c20697320656d7074790000000000000000000000000000\n        /* \"#utility.yul\":9557:9558   */\n      0x00\n        /* \"#utility.yul\":9549:9555   */\n      dup3\n        /* \"#utility.yul\":9545:9559   */\n      add\n        /* \"#utility.yul\":9538:9582   */\n      mstore\n        /* \"#utility.yul\":9421:9589   */\n      pop\n      jump\t// out\n        /* \"#utility.yul\":9595:9961   */\n    tag_189:\n        /* \"#utility.yul\":9737:9740   */\n      0x00\n        /* \"#utility.yul\":9758:9825   */\n      tag_307\n        /* \"#utility.yul\":9822:9824   */\n      0x12\n        /* \"#utility.yul\":9817:9820   */\n      dup4\n        /* \"#utility.yul\":9758:9825   */\n      tag_187\n      jump\t// in\n    tag_307:\n        /* \"#utility.yul\":9751:9825   */\n      swap2\n      pop\n        /* \"#utility.yul\":9834:9927   */\n      tag_308\n        /* \"#utility.yul\":9923:9926   */\n      dup3\n        /* \"#utility.yul\":9834:9927   */\n      tag_188\n      jump\t// in\n    tag_308:\n        /* \"#utility.yul\":9952:9954   */\n      0x20\n        /* \"#utility.yul\":9947:9950   */\n      dup3\n        /* \"#utility.yul\":9943:9955   */\n      add\n        /* \"#utility.yul\":9936:9955   */\n      swap1\n      pop\n        /* \"#utility.yul\":9595:9961   */\n      swap2\n      swap1\n      pop\n      jump\t// out\n        /* \"#utility.yul\":9967:10386   */\n    tag_109:\n        /* \"#utility.yul\":10133:10137   */\n      0x00\n        /* \"#utility.yul\":10171:10173   */\n      0x20\n        /* \"#utility.yul\":10160:10169   */\n      dup3\n        /* \"#utility.yul\":10156:10174   */\n      add\n        /* \"#utility.yul\":10148:10174   */\n      swap1\n      pop\n        /* \"#utility.yul\":10220:10229   */\n      dup2\n        /* \"#utility.yul\":10214:10218   */\n      dup2\n        /* \"#utility.yul\":10210:10230   */\n      sub\n        /* \"#utility.yul\":10206:10207   */\n      0x00\n        /* \"#utility.yul\":10195:10204   */\n      dup4\n        /* \"#utility.yul\":10191:10208   */\n      add\n        /* \"#utility.yul\":10184:10231   */\n      mstore\n        /* \"#utility.yul\":10248:10379   */\n      tag_310\n        /* \"#utility.yul\":10374:10378   */\n      dup2\n        /* \"#utility.yul\":10248:10379   */\n      tag_189\n      jump\t// in\n    tag_310:\n        /* \"#utility.yul\":10240:10379   */\n      swap1\n      pop\n        /* \"#utility.yul\":9967:10386   */\n      swap2\n      swap1\n      pop\n      jump\t// out\n        /* \"#utility.yul\":10392:10551   */\n    tag_190:\n        /* \"#utility.yul\":10532:10543   */\n      0x4e6f2077696e6e65720000000000000000000000000000000000000000000000\n        /* \"#utility.yul\":10528:10529   */\n      0x00\n        /* \"#utility.yul\":10520:10526   */\n      dup3\n        /* \"#utility.yul\":10516:10530   */\n      add\n        /* \"#utility.yul\":10509:10544   */\n      mstore\n        /* \"#utility.yul\":10392:10551   */\n      pop\n      jump\t// out\n        /* \"#utility.yul\":10557:10922   */\n    tag_191:\n        /* \"#utility.yul\":10699:10702   */\n      0x00\n        /* \"#utility.yul\":10720:10786   */\n      tag_313\n        /* \"#utility.yul\":10784:10785   */\n      0x09\n        /* \"#utility.yul\":10779:10782   */\n      dup4\n        /* \"#utility.yul\":10720:10786   */\n      tag_187\n      jump\t// in\n    tag_313:\n        /* \"#utility.yul\":10713:10786   */\n      swap2\n      pop\n        /* \"#utility.yul\":10795:10888   */\n      tag_314\n        /* \"#utility.yul\":10884:10887   */\n      dup3\n        /* \"#utility.yul\":10795:10888   */\n      tag_190\n      jump\t// in\n    tag_314:\n        /* \"#utility.yul\":10913:10915   */\n      0x20\n        /* \"#utility.yul\":10908:10911   */\n      dup3\n        /* \"#utility.yul\":10904:10916   */\n      add\n        /* \"#utility.yul\":10897:10916   */\n      swap1\n      pop\n        /* \"#utility.yul\":10557:10922   */\n      swap2\n      swap1\n      pop\n      jump\t// out\n        /* \"#utility.yul\":10928:11347   */\n    tag_112:\n        /* \"#utility.yul\":11094:11098   */\n      0x00\n        /* \"#utility.yul\":11132:11134   */\n      0x20\n        /* \"#utility.yul\":11121:11130   */\n      dup3\n        /* \"#utility.yul\":11117:11135   */\n      add\n        /* \"#utility.yul\":11109:11135   */\n      swap1\n      pop\n        /* \"#utility.yul\":11181:11190   */\n      dup2\n        /* \"#utility.yul\":11175:11179   */\n      dup2\n        /* \"#utility.yul\":11171:11191   */\n      sub\n        /* \"#utility.yul\":11167:11168   */\n      0x00\n        /* \"#utility.yul\":11156:11165   */\n      dup4\n        /* \"#utility.yul\":11152:11169   */\n      add\n        /* \"#utility.yul\":11145:11192   */\n      mstore\n        /* \"#utility.yul\":11209:11340   */\n      tag_316\n        /* \"#utility.yul\":11335:11339   */\n      dup2\n        /* \"#utility.yul\":11209:11340   */\n      tag_191\n      jump\t// in\n    tag_316:\n        /* \"#utility.yul\":11201:11340   */\n      swap1\n      pop\n        /* \"#utility.yul\":10928:11347   */\n      swap2\n      swap1\n      pop\n      jump\t// out\n        /* \"#utility.yul\":11353:11586   */\n    tag_122:\n        /* \"#utility.yul\":11392:11395   */\n      0x00\n        /* \"#utility.yul\":11415:11439   */\n      tag_318\n        /* \"#utility.yul\":11433:11438   */\n      dup3\n        /* \"#utility.yul\":11415:11439   */\n      tag_155\n      jump\t// in\n    tag_318:\n        /* \"#utility.yul\":11406:11439   */\n      swap2\n      pop\n        /* \"#utility.yul\":11461:11527   */\n      0xffffffffffffffffffffffffffffffffffffffffffffffffffffffffffffffff\n        /* \"#utility.yul\":11454:11459   */\n      dup3\n        /* \"#utility.yul\":11451:11528   */\n      sub\n        /* \"#utility.yul\":11448:11551   */\n      tag_319\n      jumpi\n        /* \"#utility.yul\":11531:11549   */\n      tag_320\n      tag_186\n      jump\t// in\n    tag_320:\n        /* \"#utility.yul\":11448:11551   */\n    tag_319:\n        /* \"#utility.yul\":11578:11579   */\n      0x01\n        /* \"#utility.yul\":11571:11576   */\n      dup3\n        /* \"#utility.yul\":11567:11580   */\n      add\n        /* \"#utility.yul\":11560:11580   */\n      swap1\n      pop\n        /* \"#utility.yul\":11353:11586   */\n      swap2\n      swap1\n      pop\n      jump\t// out\n        /* \"#utility.yul\":11592:11758   */\n    tag_192:\n        /* \"#utility.yul\":11732:11750   */\n      0x4e6f7420656e6f75676820746f6b656e00000000000000000000000000000000\n        /* \"#utility.yul\":11728:11729   */\n      0x00\n        /* \"#utility.yul\":11720:11726   */\n      dup3\n        /* \"#utility.yul\":11716:11730   */\n      add\n        /* \"#utility.yul\":11709:11751   */\n      mstore\n        /* \"#utility.yul\":11592:11758   */\n      pop\n      jump\t// out\n        /* \"#utility.yul\":11764:12130   */\n    tag_193:\n        /* \"#utility.yul\":11906:11909   */\n      0x00\n        /* \"#utility.yul\":11927:11994   */\n      tag_323\n        /* \"#utility.yul\":11991:11993   */\n      0x10\n        /* \"#utility.yul\":11986:11989   */\n      dup4\n        /* \"#utility.yul\":11927:11994   */\n      tag_187\n      jump\t// in\n    tag_323:\n        /* \"#utility.yul\":11920:11994   */\n      swap2\n      pop\n        /* \"#utility.yul\":12003:12096   */\n      tag_324\n        /* \"#utility.yul\":12092:12095   */\n      dup3\n        /* \"#utility.yul\":12003:12096   */\n      tag_192\n      jump\t// in\n    tag_324:\n        /* \"#utility.yul\":12121:12123   */\n      0x20\n        /* \"#utility.yul\":12116:12119   */\n      dup3\n        /* \"#utility.yul\":12112:12124   */\n      add\n        /* \"#utility.yul\":12105:12124   */\n      swap1\n      pop\n        /* \"#utility.yul\":11764:12130   */\n      swap2\n      swap1\n      pop\n      jump\t// out\n        /* \"#utility.yul\":12136:12555   */\n    tag_126:\n        /* \"#utility.yul\":12302:12306   */\n      0x00\n        /* \"#utility.yul\":12340:12342   */\n      0x20\n        /* \"#utility.yul\":12329:12338   */\n      dup3\n        /* \"#utility.yul\":12325:12343   */\n      add\n        /* \"#utility.yul\":12317:12343   */\n      swap1\n      pop\n        /* \"#utility.yul\":12389:12398   */\n      dup2\n        /* \"#utility.yul\":12383:12387   */\n      dup2\n        /* \"#utility.yul\":12379:12399   */\n      sub\n        /* \"#utility.yul\":12375:12376   */\n      0x00\n        /* \"#utility.yul\":12364:12373   */\n      dup4\n        /* \"#utility.yul\":12360:12377   */\n      add\n        /* \"#utility.yul\":12353:12400   */\n      mstore\n        /* \"#utility.yul\":12417:12548   */\n      tag_326\n        /* \"#utility.yul\":12543:12547   */\n      dup2\n        /* \"#utility.yul\":12417:12548   */\n      tag_193\n      jump\t// in\n    tag_326:\n        /* \"#utility.yul\":12409:12548   */\n      swap1\n      pop\n        /* \"#utility.yul\":12136:12555   */\n      swap2\n      swap1\n      pop\n      jump\t// out\n        /* \"#utility.yul\":12561:12866   */\n    tag_128:\n        /* \"#utility.yul\":12601:12604   */\n      0x00\n        /* \"#utility.yul\":12620:12640   */\n      tag_328\n        /* \"#utility.yul\":12638:12639   */\n      dup3\n        /* \"#utility.yul\":12620:12640   */\n      tag_155\n      jump\t// in\n    tag_328:\n        /* \"#utility.yul\":12615:12640   */\n      swap2\n      pop\n        /* \"#utility.yul\":12654:12674   */\n      tag_329\n        /* \"#utility.yul\":12672:12673   */\n      dup4\n        /* \"#utility.yul\":12654:12674   */\n      tag_155\n      jump\t// in\n    tag_329:\n        /* \"#utility.yul\":12649:12674   */\n      swap3\n      pop\n        /* \"#utility.yul\":12808:12809   */\n      dup3\n        /* \"#utility.yul\":12740:12806   */\n      0xffffffffffffffffffffffffffffffffffffffffffffffffffffffffffffffff\n        /* \"#utility.yul\":12736:12810   */\n      sub\n        /* \"#utility.yul\":12733:12734   */\n      dup3\n        /* \"#utility.yul\":12730:12811   */\n      gt\n        /* \"#utility.yul\":12727:12834   */\n      iszero\n      tag_330\n      jumpi\n        /* \"#utility.yul\":12814:12832   */\n      tag_331\n      tag_186\n      jump\t// in\n    tag_331:\n        /* \"#utility.yul\":12727:12834   */\n    tag_330:\n        /* \"#utility.yul\":12858:12859   */\n      dup3\n        /* \"#utility.yul\":12855:12856   */\n      dup3\n        /* \"#utility.yul\":12851:12860   */\n      add\n        /* \"#utility.yul\":12844:12860   */\n      swap1\n      pop\n        /* \"#utility.yul\":12561:12866   */\n      swap3\n      swap2\n      pop\n      pop\n      jump\t// out\n        /* \"#utility.yul\":12872:13048   */\n    tag_194:\n        /* \"#utility.yul\":13012:13040   */\n      0x4e756d626572207469636b6574206f7574206f662072616e6765000000000000\n        /* \"#utility.yul\":13008:13009   */\n      0x00\n        /* \"#utility.yul\":13000:13006   */\n      dup3\n        /* \"#utility.yul\":12996:13010   */\n      add\n        /* \"#utility.yul\":12989:13041   */\n      mstore\n        /* \"#utility.yul\":12872:13048   */\n      pop\n      jump\t// out\n        /* \"#utility.yul\":13054:13420   */\n    tag_195:\n        /* \"#utility.yul\":13196:13199   */\n      0x00\n        /* \"#utility.yul\":13217:13284   */\n      tag_334\n        /* \"#utility.yul\":13281:13283   */\n      0x1a\n        /* \"#utility.yul\":13276:13279   */\n      dup4\n        /* \"#utility.yul\":13217:13284   */\n      tag_187\n      jump\t// in\n    tag_334:\n        /* \"#utility.yul\":13210:13284   */\n      swap2\n      pop\n        /* \"#utility.yul\":13293:13386   */\n      tag_335\n        /* \"#utility.yul\":13382:13385   */\n      dup3\n        /* \"#utility.yul\":13293:13386   */\n      tag_194\n      jump\t// in\n    tag_335:\n        /* \"#utility.yul\":13411:13413   */\n      0x20\n        /* \"#utility.yul\":13406:13409   */\n      dup3\n        /* \"#utility.yul\":13402:13414   */\n      add\n        /* \"#utility.yul\":13395:13414   */\n      swap1\n      pop\n        /* \"#utility.yul\":13054:13420   */\n      swap2\n      swap1\n      pop\n      jump\t// out\n        /* \"#utility.yul\":13426:13845   */\n    tag_132:\n        /* \"#utility.yul\":13592:13596   */\n      0x00\n        /* \"#utility.yul\":13630:13632   */\n      0x20\n        /* \"#utility.yul\":13619:13628   */\n      dup3\n        /* \"#utility.yul\":13615:13633   */\n      add\n        /* \"#utility.yul\":13607:13633   */\n      swap1\n      pop\n        /* \"#utility.yul\":13679:13688   */\n      dup2\n        /* \"#utility.yul\":13673:13677   */\n      dup2\n        /* \"#utility.yul\":13669:13689   */\n      sub\n        /* \"#utility.yul\":13665:13666   */\n      0x00\n        /* \"#utility.yul\":13654:13663   */\n      dup4\n        /* \"#utility.yul\":13650:13667   */\n      add\n        /* \"#utility.yul\":13643:13690   */\n      mstore\n        /* \"#utility.yul\":13707:13838   */\n      tag_337\n        /* \"#utility.yul\":13833:13837   */\n      dup2\n        /* \"#utility.yul\":13707:13838   */\n      tag_195\n      jump\t// in\n    tag_337:\n        /* \"#utility.yul\":13699:13838   */\n      swap1\n      pop\n        /* \"#utility.yul\":13426:13845   */\n      swap2\n      swap1\n      pop\n      jump\t// out\n        /* \"#utility.yul\":13851:14042   */\n    tag_143:\n        /* \"#utility.yul\":13891:13895   */\n      0x00\n        /* \"#utility.yul\":13911:13931   */\n      tag_339\n        /* \"#utility.yul\":13929:13930   */\n      dup3\n        /* \"#utility.yul\":13911:13931   */\n      tag_155\n      jump\t// in\n    tag_339:\n        /* \"#utility.yul\":13906:13931   */\n      swap2\n      pop\n        /* \"#utility.yul\":13945:13965   */\n      tag_340\n        /* \"#utility.yul\":13963:13964   */\n      dup4\n        /* \"#utility.yul\":13945:13965   */\n      tag_155\n      jump\t// in\n    tag_340:\n        /* \"#utility.yul\":13940:13965   */\n      swap3\n      pop\n        /* \"#utility.yul\":13984:13985   */\n      dup3\n        /* \"#utility.yul\":13981:13982   */\n      dup3\n        /* \"#utility.yul\":13978:13986   */\n      lt\n        /* \"#utility.yul\":13975:14009   */\n      iszero\n      tag_341\n      jumpi\n        /* \"#utility.yul\":13989:14007   */\n      tag_342\n      tag_186\n      jump\t// in\n    tag_342:\n        /* \"#utility.yul\":13975:14009   */\n    tag_341:\n        /* \"#utility.yul\":14034:14035   */\n      dup3\n        /* \"#utility.yul\":14031:14032   */\n      dup3\n        /* \"#utility.yul\":14027:14036   */\n      sub\n        /* \"#utility.yul\":14019:14036   */\n      swap1\n      pop\n        /* \"#utility.yul\":13851:14042   */\n      swap3\n      swap2\n      pop\n      pop\n      jump\t// out\n\n    auxdata: 0xa264697066735822122060f7bd88751cd5b5fdd847e34457d67e865cc71a7e301c2c29b47b60d9fa032564736f6c634300080f0033\n}\n",
				"bytecode": {
					"linkReferences": {},
					"object": "60a0604052620186a06000806101000a81548163ffffffff021916908363ffffffff1602179055506003600060046101000a81548161ffff021916908361ffff1602179055506002600060066101000a81548163ffffffff021916908363ffffffff16021790555033600360006101000a81548173ffffffffffffffffffffffffffffffffffffffff021916908373ffffffffffffffffffffffffffffffffffffffff16021790555060006008553480156100b957600080fd5b50736168499c0cffcacd319c818142124b7a15e857ab8073ffffffffffffffffffffffffffffffffffffffff1660808173ffffffffffffffffffffffffffffffffffffffff1681525050506080516112c46101266000396000818161037001526103c401526112c46000f3fe6080604052600436106100c25760003560e01c8063693521d51161007f578063a59f3e0c11610059578063a59f3e0c14610257578063e580f47b14610273578063e89e106a1461029e578063f6eaffc8146102c9576100c2565b8063693521d5146101d85780636d6fe230146102035780636fd0981614610240576100c2565b806312065fe0146100c757806318b425ff146100f25780631fe543e31461012f57806332eb85a414610158578063391ea70014610183578063460e20491461019a575b600080fd5b3480156100d357600080fd5b506100dc610306565b6040516100e99190610ad8565b60405180910390f35b3480156100fe57600080fd5b5061011960048036038101906101149190610b33565b610310565b6040516101269190610ba1565b60405180910390f35b34801561013b57600080fd5b5061015660048036038101906101519190610d15565b61036e565b005b34801561016457600080fd5b5061016d61042e565b60405161017a9190610ad8565b60405180910390f35b34801561018f57600080fd5b50610198610438565b005b3480156101a657600080fd5b506101c160048036038101906101bc9190610b33565b6105b5565b6040516101cf929190610d92565b60405180910390f35b3480156101e457600080fd5b506101ed610603565b6040516101fa9190610ad8565b60405180910390f35b34801561020f57600080fd5b5061022a60048036038101906102259190610b33565b610626565b6040516102379190610dbb565b60405180910390f35b34801561024c57600080fd5b50610255610659565b005b610271600480360381019061026c9190610b33565b6107ec565b005b34801561027f57600080fd5b5061028861098c565b6040516102959190610ad8565b60405180910390f35b3480156102aa57600080fd5b506102b3610992565b6040516102c09190610ad8565b60405180910390f35b3480156102d557600080fd5b506102f060048036038101906102eb9190610b33565b610998565b6040516102fd9190610ad8565b60405180910390f35b6000600954905090565b600060066000600a548152602001908152602001600020600001828154811061033c5761033b610dd6565b5b9060005260206000200160009054906101000a900473ffffffffffffffffffffffffffffffffffffffff169050919050565b7f000000000000000000000000000000000000000000000000000000000000000073ffffffffffffffffffffffffffffffffffffffff163373ffffffffffffffffffffffffffffffffffffffff161461042057337f00000000000000000000000000000000000000000000000000000000000000006040517f1cf993f4000000000000000000000000000000000000000000000000000000008152600401610417929190610e05565b60405180910390fd5b61042a82826109bc565b5050565b6000600854905090565b600360009054906101000a900473ffffffffffffffffffffffffffffffffffffffff1673ffffffffffffffffffffffffffffffffffffffff163373ffffffffffffffffffffffffffffffffffffffff161461049257600080fd5b600854736168499c0cffcacd319c818142124b7a15e857ab73ffffffffffffffffffffffffffffffffffffffff16635d3b1d307fd89b2bf150e3b9e13446986e571fb9cab24b13cea0a43ea20a6049a85cc807cc60001b611cca600060049054906101000a900461ffff1660008054906101000a900463ffffffff16600060069054906101000a900463ffffffff166040518663ffffffff1660e01b8152600401610541959493929190610ea6565b6020604051808303816000875af1158015610560573d6000803e3d6000fd5b505050506040513d601f19601f820116820180604052508101906105849190610f0e565b61058e9190610f6a565b60028190555060076000600254815260200190815260200160002060010154600a81905550565b60008060006007600085815260200190815260200160002090508060000160009054906101000a900473ffffffffffffffffffffffffffffffffffffffff1681600101549250925050915091565b600060066000600a54815260200190815260200160002060000180549050905090565b60056020528060005260406000206000915054906101000a900473ffffffffffffffffffffffffffffffffffffffff1681565b600360009054906101000a900473ffffffffffffffffffffffffffffffffffffffff1673ffffffffffffffffffffffffffffffffffffffff163373ffffffffffffffffffffffffffffffffffffffff16146106b357600080fd5b600060066000600a5481526020019081526020016000206000018054905090506000816009546106e39190610fca565b905060004703610728576040517f08c379a000000000000000000000000000000000000000000000000000000000815260040161071f90611058565b60405180910390fd5b6000820361076b576040517f08c379a0000000000000000000000000000000000000000000000000000000008152600401610762906110c4565b60405180910390fd5b60005b828110156107e7576107d48260066000600a54815260200190815260200160002060000183815481106107a4576107a3610dd6565b5b9060005260206000200160009054906101000a900473ffffffffffffffffffffffffffffffffffffffff166109d7565b80806107df906110e4565b91505061076e565b505050565b6002341015610830576040517f08c379a000000000000000000000000000000000000000000000000000000000815260040161082790611178565b60405180910390fd5b34600960008282546108429190611198565b925050819055506001811015801561085b5750600a8111155b61089a576040517f08c379a00000000000000000000000000000000000000000000000000000000081526004016108919061123a565b60405180910390fd5b60006007600060085481526020019081526020016000209050338160000160006101000a81548173ffffffffffffffffffffffffffffffffffffffff021916908373ffffffffffffffffffffffffffffffffffffffff16021790555081816001018190555060006006600083600101548152602001908152602001600020905080600001339080600181540180825580915050600190039060005260206000200160009091909190916101000a81548173ffffffffffffffffffffffffffffffffffffffff021916908373ffffffffffffffffffffffffffffffffffffffff160217905550610987610a3b565b505050565b60045481565b60025481565b600181815481106109a857600080fd5b906000526020600020016000915090505481565b80600190805190602001906109d2929190610a55565b505050565b81600960008282546109e9919061125a565b925050819055508073ffffffffffffffffffffffffffffffffffffffff166108fc839081150290604051600060405180830381858888f19350505050158015610a36573d6000803e3d6000fd5b505050565b60086000815480929190610a4e906110e4565b9190505550565b828054828255906000526020600020908101928215610a91579160200282015b82811115610a90578251825591602001919060010190610a75565b5b509050610a9e9190610aa2565b5090565b5b80821115610abb576000816000905550600101610aa3565b5090565b6000819050919050565b610ad281610abf565b82525050565b6000602082019050610aed6000830184610ac9565b92915050565b6000604051905090565b600080fd5b600080fd5b610b1081610abf565b8114610b1b57600080fd5b50565b600081359050610b2d81610b07565b92915050565b600060208284031215610b4957610b48610afd565b5b6000610b5784828501610b1e565b91505092915050565b600073ffffffffffffffffffffffffffffffffffffffff82169050919050565b6000610b8b82610b60565b9050919050565b610b9b81610b80565b82525050565b6000602082019050610bb66000830184610b92565b92915050565b600080fd5b6000601f19601f8301169050919050565b7f4e487b7100000000000000000000000000000000000000000000000000000000600052604160045260246000fd5b610c0a82610bc1565b810181811067ffffffffffffffff82111715610c2957610c28610bd2565b5b80604052505050565b6000610c3c610af3565b9050610c488282610c01565b919050565b600067ffffffffffffffff821115610c6857610c67610bd2565b5b602082029050602081019050919050565b600080fd5b6000610c91610c8c84610c4d565b610c32565b90508083825260208201905060208402830185811115610cb457610cb3610c79565b5b835b81811015610cdd5780610cc98882610b1e565b845260208401935050602081019050610cb6565b5050509392505050565b600082601f830112610cfc57610cfb610bbc565b5b8135610d0c848260208601610c7e565b91505092915050565b60008060408385031215610d2c57610d2b610afd565b5b6000610d3a85828601610b1e565b925050602083013567ffffffffffffffff811115610d5b57610d5a610b02565b5b610d6785828601610ce7565b9150509250929050565b6000610d7c82610b60565b9050919050565b610d8c81610d71565b82525050565b6000604082019050610da76000830185610d83565b610db46020830184610ac9565b9392505050565b6000602082019050610dd06000830184610d83565b92915050565b7f4e487b7100000000000000000000000000000000000000000000000000000000600052603260045260246000fd5b6000604082019050610e1a6000830185610b92565b610e276020830184610b92565b9392505050565b6000819050919050565b610e4181610e2e565b82525050565b600067ffffffffffffffff82169050919050565b610e6481610e47565b82525050565b600061ffff82169050919050565b610e8181610e6a565b82525050565b600063ffffffff82169050919050565b610ea081610e87565b82525050565b600060a082019050610ebb6000830188610e38565b610ec86020830187610e5b565b610ed56040830186610e78565b610ee26060830185610e97565b610eef6080830184610e97565b9695505050505050565b600081519050610f0881610b07565b92915050565b600060208284031215610f2457610f23610afd565b5b6000610f3284828501610ef9565b91505092915050565b7f4e487b7100000000000000000000000000000000000000000000000000000000600052601260045260246000fd5b6000610f7582610abf565b9150610f8083610abf565b925082610f9057610f8f610f3b565b5b828206905092915050565b7f4e487b7100000000000000000000000000000000000000000000000000000000600052601160045260246000fd5b6000610fd582610abf565b9150610fe083610abf565b925082610ff057610fef610f3b565b5b828204905092915050565b600082825260208201905092915050565b7f7072697a65506f6f6c20697320656d7074790000000000000000000000000000600082015250565b6000611042601283610ffb565b915061104d8261100c565b602082019050919050565b6000602082019050818103600083015261107181611035565b9050919050565b7f4e6f2077696e6e65720000000000000000000000000000000000000000000000600082015250565b60006110ae600983610ffb565b91506110b982611078565b602082019050919050565b600060208201905081810360008301526110dd816110a1565b9050919050565b60006110ef82610abf565b91507fffffffffffffffffffffffffffffffffffffffffffffffffffffffffffffffff820361112157611120610f9b565b5b600182019050919050565b7f4e6f7420656e6f75676820746f6b656e00000000000000000000000000000000600082015250565b6000611162601083610ffb565b915061116d8261112c565b602082019050919050565b6000602082019050818103600083015261119181611155565b9050919050565b60006111a382610abf565b91506111ae83610abf565b9250827fffffffffffffffffffffffffffffffffffffffffffffffffffffffffffffffff038211156111e3576111e2610f9b565b5b828201905092915050565b7f4e756d626572207469636b6574206f7574206f662072616e6765000000000000600082015250565b6000611224601a83610ffb565b915061122f826111ee565b602082019050919050565b6000602082019050818103600083015261125381611217565b9050919050565b600061126582610abf565b915061127083610abf565b92508282101561128357611282610f9b565b5b82820390509291505056fea264697066735822122060f7bd88751cd5b5fdd847e34457d67e865cc71a7e301c2c29b47b60d9fa032564736f6c634300080f0033",
					"opcodes": "PUSH1 0xA0 PUSH1 0x40 MSTORE PUSH3 0x186A0 PUSH1 0x0 DUP1 PUSH2 0x100 EXP DUP2 SLOAD DUP2 PUSH4 0xFFFFFFFF MUL NOT AND SWAP1 DUP4 PUSH4 0xFFFFFFFF AND MUL OR SWAP1 SSTORE POP PUSH1 0x3 PUSH1 0x0 PUSH1 0x4 PUSH2 0x100 EXP DUP2 SLOAD DUP2 PUSH2 0xFFFF MUL NOT AND SWAP1 DUP4 PUSH2 0xFFFF AND MUL OR SWAP1 SSTORE POP PUSH1 0x2 PUSH1 0x0 PUSH1 0x6 PUSH2 0x100 EXP DUP2 SLOAD DUP2 PUSH4 0xFFFFFFFF MUL NOT AND SWAP1 DUP4 PUSH4 0xFFFFFFFF AND MUL OR SWAP1 SSTORE POP CALLER PUSH1 0x3 PUSH1 0x0 PUSH2 0x100 EXP DUP2 SLOAD DUP2 PUSH20 0xFFFFFFFFFFFFFFFFFFFFFFFFFFFFFFFFFFFFFFFF MUL NOT AND SWAP1 DUP4 PUSH20 0xFFFFFFFFFFFFFFFFFFFFFFFFFFFFFFFFFFFFFFFF AND MUL OR SWAP1 SSTORE POP PUSH1 0x0 PUSH1 0x8 SSTORE CALLVALUE DUP1 ISZERO PUSH2 0xB9 JUMPI PUSH1 0x0 DUP1 REVERT JUMPDEST POP PUSH20 0x6168499C0CFFCACD319C818142124B7A15E857AB DUP1 PUSH20 0xFFFFFFFFFFFFFFFFFFFFFFFFFFFFFFFFFFFFFFFF AND PUSH1 0x80 DUP2 PUSH20 0xFFFFFFFFFFFFFFFFFFFFFFFFFFFFFFFFFFFFFFFF AND DUP2 MSTORE POP POP POP PUSH1 0x80 MLOAD PUSH2 0x12C4 PUSH2 0x126 PUSH1 0x0 CODECOPY PUSH1 0x0 DUP2 DUP2 PUSH2 0x370 ADD MSTORE PUSH2 0x3C4 ADD MSTORE PUSH2 0x12C4 PUSH1 0x0 RETURN INVALID PUSH1 0x80 PUSH1 0x40 MSTORE PUSH1 0x4 CALLDATASIZE LT PUSH2 0xC2 JUMPI PUSH1 0x0 CALLDATALOAD PUSH1 0xE0 SHR DUP1 PUSH4 0x693521D5 GT PUSH2 0x7F JUMPI DUP1 PUSH4 0xA59F3E0C GT PUSH2 0x59 JUMPI DUP1 PUSH4 0xA59F3E0C EQ PUSH2 0x257 JUMPI DUP1 PUSH4 0xE580F47B EQ PUSH2 0x273 JUMPI DUP1 PUSH4 0xE89E106A EQ PUSH2 0x29E JUMPI DUP1 PUSH4 0xF6EAFFC8 EQ PUSH2 0x2C9 JUMPI PUSH2 0xC2 JUMP JUMPDEST DUP1 PUSH4 0x693521D5 EQ PUSH2 0x1D8 JUMPI DUP1 PUSH4 0x6D6FE230 EQ PUSH2 0x203 JUMPI DUP1 PUSH4 0x6FD09816 EQ PUSH2 0x240 JUMPI PUSH2 0xC2 JUMP JUMPDEST DUP1 PUSH4 0x12065FE0 EQ PUSH2 0xC7 JUMPI DUP1 PUSH4 0x18B425FF EQ PUSH2 0xF2 JUMPI DUP1 PUSH4 0x1FE543E3 EQ PUSH2 0x12F JUMPI DUP1 PUSH4 0x32EB85A4 EQ PUSH2 0x158 JUMPI DUP1 PUSH4 0x391EA700 EQ PUSH2 0x183 JUMPI DUP1 PUSH4 0x460E2049 EQ PUSH2 0x19A JUMPI JUMPDEST PUSH1 0x0 DUP1 REVERT JUMPDEST CALLVALUE DUP1 ISZERO PUSH2 0xD3 JUMPI PUSH1 0x0 DUP1 REVERT JUMPDEST POP PUSH2 0xDC PUSH2 0x306 JUMP JUMPDEST PUSH1 0x40 MLOAD PUSH2 0xE9 SWAP2 SWAP1 PUSH2 0xAD8 JUMP JUMPDEST PUSH1 0x40 MLOAD DUP1 SWAP2 SUB SWAP1 RETURN JUMPDEST CALLVALUE DUP1 ISZERO PUSH2 0xFE JUMPI PUSH1 0x0 DUP1 REVERT JUMPDEST POP PUSH2 0x119 PUSH1 0x4 DUP1 CALLDATASIZE SUB DUP2 ADD SWAP1 PUSH2 0x114 SWAP2 SWAP1 PUSH2 0xB33 JUMP JUMPDEST PUSH2 0x310 JUMP JUMPDEST PUSH1 0x40 MLOAD PUSH2 0x126 SWAP2 SWAP1 PUSH2 0xBA1 JUMP JUMPDEST PUSH1 0x40 MLOAD DUP1 SWAP2 SUB SWAP1 RETURN JUMPDEST CALLVALUE DUP1 ISZERO PUSH2 0x13B JUMPI PUSH1 0x0 DUP1 REVERT JUMPDEST POP PUSH2 0x156 PUSH1 0x4 DUP1 CALLDATASIZE SUB DUP2 ADD SWAP1 PUSH2 0x151 SWAP2 SWAP1 PUSH2 0xD15 JUMP JUMPDEST PUSH2 0x36E JUMP JUMPDEST STOP JUMPDEST CALLVALUE DUP1 ISZERO PUSH2 0x164 JUMPI PUSH1 0x0 DUP1 REVERT JUMPDEST POP PUSH2 0x16D PUSH2 0x42E JUMP JUMPDEST PUSH1 0x40 MLOAD PUSH2 0x17A SWAP2 SWAP1 PUSH2 0xAD8 JUMP JUMPDEST PUSH1 0x40 MLOAD DUP1 SWAP2 SUB SWAP1 RETURN JUMPDEST CALLVALUE DUP1 ISZERO PUSH2 0x18F JUMPI PUSH1 0x0 DUP1 REVERT JUMPDEST POP PUSH2 0x198 PUSH2 0x438 JUMP JUMPDEST STOP JUMPDEST CALLVALUE DUP1 ISZERO PUSH2 0x1A6 JUMPI PUSH1 0x0 DUP1 REVERT JUMPDEST POP PUSH2 0x1C1 PUSH1 0x4 DUP1 CALLDATASIZE SUB DUP2 ADD SWAP1 PUSH2 0x1BC SWAP2 SWAP1 PUSH2 0xB33 JUMP JUMPDEST PUSH2 0x5B5 JUMP JUMPDEST PUSH1 0x40 MLOAD PUSH2 0x1CF SWAP3 SWAP2 SWAP1 PUSH2 0xD92 JUMP JUMPDEST PUSH1 0x40 MLOAD DUP1 SWAP2 SUB SWAP1 RETURN JUMPDEST CALLVALUE DUP1 ISZERO PUSH2 0x1E4 JUMPI PUSH1 0x0 DUP1 REVERT JUMPDEST POP PUSH2 0x1ED PUSH2 0x603 JUMP JUMPDEST PUSH1 0x40 MLOAD PUSH2 0x1FA SWAP2 SWAP1 PUSH2 0xAD8 JUMP JUMPDEST PUSH1 0x40 MLOAD DUP1 SWAP2 SUB SWAP1 RETURN JUMPDEST CALLVALUE DUP1 ISZERO PUSH2 0x20F JUMPI PUSH1 0x0 DUP1 REVERT JUMPDEST POP PUSH2 0x22A PUSH1 0x4 DUP1 CALLDATASIZE SUB DUP2 ADD SWAP1 PUSH2 0x225 SWAP2 SWAP1 PUSH2 0xB33 JUMP JUMPDEST PUSH2 0x626 JUMP JUMPDEST PUSH1 0x40 MLOAD PUSH2 0x237 SWAP2 SWAP1 PUSH2 0xDBB JUMP JUMPDEST PUSH1 0x40 MLOAD DUP1 SWAP2 SUB SWAP1 RETURN JUMPDEST CALLVALUE DUP1 ISZERO PUSH2 0x24C JUMPI PUSH1 0x0 DUP1 REVERT JUMPDEST POP PUSH2 0x255 PUSH2 0x659 JUMP JUMPDEST STOP JUMPDEST PUSH2 0x271 PUSH1 0x4 DUP1 CALLDATASIZE SUB DUP2 ADD SWAP1 PUSH2 0x26C SWAP2 SWAP1 PUSH2 0xB33 JUMP JUMPDEST PUSH2 0x7EC JUMP JUMPDEST STOP JUMPDEST CALLVALUE DUP1 ISZERO PUSH2 0x27F JUMPI PUSH1 0x0 DUP1 REVERT JUMPDEST POP PUSH2 0x288 PUSH2 0x98C JUMP JUMPDEST PUSH1 0x40 MLOAD PUSH2 0x295 SWAP2 SWAP1 PUSH2 0xAD8 JUMP JUMPDEST PUSH1 0x40 MLOAD DUP1 SWAP2 SUB SWAP1 RETURN JUMPDEST CALLVALUE DUP1 ISZERO PUSH2 0x2AA JUMPI PUSH1 0x0 DUP1 REVERT JUMPDEST POP PUSH2 0x2B3 PUSH2 0x992 JUMP JUMPDEST PUSH1 0x40 MLOAD PUSH2 0x2C0 SWAP2 SWAP1 PUSH2 0xAD8 JUMP JUMPDEST PUSH1 0x40 MLOAD DUP1 SWAP2 SUB SWAP1 RETURN JUMPDEST CALLVALUE DUP1 ISZERO PUSH2 0x2D5 JUMPI PUSH1 0x0 DUP1 REVERT JUMPDEST POP PUSH2 0x2F0 PUSH1 0x4 DUP1 CALLDATASIZE SUB DUP2 ADD SWAP1 PUSH2 0x2EB SWAP2 SWAP1 PUSH2 0xB33 JUMP JUMPDEST PUSH2 0x998 JUMP JUMPDEST PUSH1 0x40 MLOAD PUSH2 0x2FD SWAP2 SWAP1 PUSH2 0xAD8 JUMP JUMPDEST PUSH1 0x40 MLOAD DUP1 SWAP2 SUB SWAP1 RETURN JUMPDEST PUSH1 0x0 PUSH1 0x9 SLOAD SWAP1 POP SWAP1 JUMP JUMPDEST PUSH1 0x0 PUSH1 0x6 PUSH1 0x0 PUSH1 0xA SLOAD DUP2 MSTORE PUSH1 0x20 ADD SWAP1 DUP2 MSTORE PUSH1 0x20 ADD PUSH1 0x0 KECCAK256 PUSH1 0x0 ADD DUP3 DUP2 SLOAD DUP2 LT PUSH2 0x33C JUMPI PUSH2 0x33B PUSH2 0xDD6 JUMP JUMPDEST JUMPDEST SWAP1 PUSH1 0x0 MSTORE PUSH1 0x20 PUSH1 0x0 KECCAK256 ADD PUSH1 0x0 SWAP1 SLOAD SWAP1 PUSH2 0x100 EXP SWAP1 DIV PUSH20 0xFFFFFFFFFFFFFFFFFFFFFFFFFFFFFFFFFFFFFFFF AND SWAP1 POP SWAP2 SWAP1 POP JUMP JUMPDEST PUSH32 0x0 PUSH20 0xFFFFFFFFFFFFFFFFFFFFFFFFFFFFFFFFFFFFFFFF AND CALLER PUSH20 0xFFFFFFFFFFFFFFFFFFFFFFFFFFFFFFFFFFFFFFFF AND EQ PUSH2 0x420 JUMPI CALLER PUSH32 0x0 PUSH1 0x40 MLOAD PUSH32 0x1CF993F400000000000000000000000000000000000000000000000000000000 DUP2 MSTORE PUSH1 0x4 ADD PUSH2 0x417 SWAP3 SWAP2 SWAP1 PUSH2 0xE05 JUMP JUMPDEST PUSH1 0x40 MLOAD DUP1 SWAP2 SUB SWAP1 REVERT JUMPDEST PUSH2 0x42A DUP3 DUP3 PUSH2 0x9BC JUMP JUMPDEST POP POP JUMP JUMPDEST PUSH1 0x0 PUSH1 0x8 SLOAD SWAP1 POP SWAP1 JUMP JUMPDEST PUSH1 0x3 PUSH1 0x0 SWAP1 SLOAD SWAP1 PUSH2 0x100 EXP SWAP1 DIV PUSH20 0xFFFFFFFFFFFFFFFFFFFFFFFFFFFFFFFFFFFFFFFF AND PUSH20 0xFFFFFFFFFFFFFFFFFFFFFFFFFFFFFFFFFFFFFFFF AND CALLER PUSH20 0xFFFFFFFFFFFFFFFFFFFFFFFFFFFFFFFFFFFFFFFF AND EQ PUSH2 0x492 JUMPI PUSH1 0x0 DUP1 REVERT JUMPDEST PUSH1 0x8 SLOAD PUSH20 0x6168499C0CFFCACD319C818142124B7A15E857AB PUSH20 0xFFFFFFFFFFFFFFFFFFFFFFFFFFFFFFFFFFFFFFFF AND PUSH4 0x5D3B1D30 PUSH32 0xD89B2BF150E3B9E13446986E571FB9CAB24B13CEA0A43EA20A6049A85CC807CC PUSH1 0x0 SHL PUSH2 0x1CCA PUSH1 0x0 PUSH1 0x4 SWAP1 SLOAD SWAP1 PUSH2 0x100 EXP SWAP1 DIV PUSH2 0xFFFF AND PUSH1 0x0 DUP1 SLOAD SWAP1 PUSH2 0x100 EXP SWAP1 DIV PUSH4 0xFFFFFFFF AND PUSH1 0x0 PUSH1 0x6 SWAP1 SLOAD SWAP1 PUSH2 0x100 EXP SWAP1 DIV PUSH4 0xFFFFFFFF AND PUSH1 0x40 MLOAD DUP7 PUSH4 0xFFFFFFFF AND PUSH1 0xE0 SHL DUP2 MSTORE PUSH1 0x4 ADD PUSH2 0x541 SWAP6 SWAP5 SWAP4 SWAP3 SWAP2 SWAP1 PUSH2 0xEA6 JUMP JUMPDEST PUSH1 0x20 PUSH1 0x40 MLOAD DUP1 DUP4 SUB DUP2 PUSH1 0x0 DUP8 GAS CALL ISZERO DUP1 ISZERO PUSH2 0x560 JUMPI RETURNDATASIZE PUSH1 0x0 DUP1 RETURNDATACOPY RETURNDATASIZE PUSH1 0x0 REVERT JUMPDEST POP POP POP POP PUSH1 0x40 MLOAD RETURNDATASIZE PUSH1 0x1F NOT PUSH1 0x1F DUP3 ADD AND DUP3 ADD DUP1 PUSH1 0x40 MSTORE POP DUP2 ADD SWAP1 PUSH2 0x584 SWAP2 SWAP1 PUSH2 0xF0E JUMP JUMPDEST PUSH2 0x58E SWAP2 SWAP1 PUSH2 0xF6A JUMP JUMPDEST PUSH1 0x2 DUP2 SWAP1 SSTORE POP PUSH1 0x7 PUSH1 0x0 PUSH1 0x2 SLOAD DUP2 MSTORE PUSH1 0x20 ADD SWAP1 DUP2 MSTORE PUSH1 0x20 ADD PUSH1 0x0 KECCAK256 PUSH1 0x1 ADD SLOAD PUSH1 0xA DUP2 SWAP1 SSTORE POP JUMP JUMPDEST PUSH1 0x0 DUP1 PUSH1 0x0 PUSH1 0x7 PUSH1 0x0 DUP6 DUP2 MSTORE PUSH1 0x20 ADD SWAP1 DUP2 MSTORE PUSH1 0x20 ADD PUSH1 0x0 KECCAK256 SWAP1 POP DUP1 PUSH1 0x0 ADD PUSH1 0x0 SWAP1 SLOAD SWAP1 PUSH2 0x100 EXP SWAP1 DIV PUSH20 0xFFFFFFFFFFFFFFFFFFFFFFFFFFFFFFFFFFFFFFFF AND DUP2 PUSH1 0x1 ADD SLOAD SWAP3 POP SWAP3 POP POP SWAP2 POP SWAP2 JUMP JUMPDEST PUSH1 0x0 PUSH1 0x6 PUSH1 0x0 PUSH1 0xA SLOAD DUP2 MSTORE PUSH1 0x20 ADD SWAP1 DUP2 MSTORE PUSH1 0x20 ADD PUSH1 0x0 KECCAK256 PUSH1 0x0 ADD DUP1 SLOAD SWAP1 POP SWAP1 POP SWAP1 JUMP JUMPDEST PUSH1 0x5 PUSH1 0x20 MSTORE DUP1 PUSH1 0x0 MSTORE PUSH1 0x40 PUSH1 0x0 KECCAK256 PUSH1 0x0 SWAP2 POP SLOAD SWAP1 PUSH2 0x100 EXP SWAP1 DIV PUSH20 0xFFFFFFFFFFFFFFFFFFFFFFFFFFFFFFFFFFFFFFFF AND DUP2 JUMP JUMPDEST PUSH1 0x3 PUSH1 0x0 SWAP1 SLOAD SWAP1 PUSH2 0x100 EXP SWAP1 DIV PUSH20 0xFFFFFFFFFFFFFFFFFFFFFFFFFFFFFFFFFFFFFFFF AND PUSH20 0xFFFFFFFFFFFFFFFFFFFFFFFFFFFFFFFFFFFFFFFF AND CALLER PUSH20 0xFFFFFFFFFFFFFFFFFFFFFFFFFFFFFFFFFFFFFFFF AND EQ PUSH2 0x6B3 JUMPI PUSH1 0x0 DUP1 REVERT JUMPDEST PUSH1 0x0 PUSH1 0x6 PUSH1 0x0 PUSH1 0xA SLOAD DUP2 MSTORE PUSH1 0x20 ADD SWAP1 DUP2 MSTORE PUSH1 0x20 ADD PUSH1 0x0 KECCAK256 PUSH1 0x0 ADD DUP1 SLOAD SWAP1 POP SWAP1 POP PUSH1 0x0 DUP2 PUSH1 0x9 SLOAD PUSH2 0x6E3 SWAP2 SWAP1 PUSH2 0xFCA JUMP JUMPDEST SWAP1 POP PUSH1 0x0 SELFBALANCE SUB PUSH2 0x728 JUMPI PUSH1 0x40 MLOAD PUSH32 0x8C379A000000000000000000000000000000000000000000000000000000000 DUP2 MSTORE PUSH1 0x4 ADD PUSH2 0x71F SWAP1 PUSH2 0x1058 JUMP JUMPDEST PUSH1 0x40 MLOAD DUP1 SWAP2 SUB SWAP1 REVERT JUMPDEST PUSH1 0x0 DUP3 SUB PUSH2 0x76B JUMPI PUSH1 0x40 MLOAD PUSH32 0x8C379A000000000000000000000000000000000000000000000000000000000 DUP2 MSTORE PUSH1 0x4 ADD PUSH2 0x762 SWAP1 PUSH2 0x10C4 JUMP JUMPDEST PUSH1 0x40 MLOAD DUP1 SWAP2 SUB SWAP1 REVERT JUMPDEST PUSH1 0x0 JUMPDEST DUP3 DUP2 LT ISZERO PUSH2 0x7E7 JUMPI PUSH2 0x7D4 DUP3 PUSH1 0x6 PUSH1 0x0 PUSH1 0xA SLOAD DUP2 MSTORE PUSH1 0x20 ADD SWAP1 DUP2 MSTORE PUSH1 0x20 ADD PUSH1 0x0 KECCAK256 PUSH1 0x0 ADD DUP4 DUP2 SLOAD DUP2 LT PUSH2 0x7A4 JUMPI PUSH2 0x7A3 PUSH2 0xDD6 JUMP JUMPDEST JUMPDEST SWAP1 PUSH1 0x0 MSTORE PUSH1 0x20 PUSH1 0x0 KECCAK256 ADD PUSH1 0x0 SWAP1 SLOAD SWAP1 PUSH2 0x100 EXP SWAP1 DIV PUSH20 0xFFFFFFFFFFFFFFFFFFFFFFFFFFFFFFFFFFFFFFFF AND PUSH2 0x9D7 JUMP JUMPDEST DUP1 DUP1 PUSH2 0x7DF SWAP1 PUSH2 0x10E4 JUMP JUMPDEST SWAP2 POP POP PUSH2 0x76E JUMP JUMPDEST POP POP POP JUMP JUMPDEST PUSH1 0x2 CALLVALUE LT ISZERO PUSH2 0x830 JUMPI PUSH1 0x40 MLOAD PUSH32 0x8C379A000000000000000000000000000000000000000000000000000000000 DUP2 MSTORE PUSH1 0x4 ADD PUSH2 0x827 SWAP1 PUSH2 0x1178 JUMP JUMPDEST PUSH1 0x40 MLOAD DUP1 SWAP2 SUB SWAP1 REVERT JUMPDEST CALLVALUE PUSH1 0x9 PUSH1 0x0 DUP3 DUP3 SLOAD PUSH2 0x842 SWAP2 SWAP1 PUSH2 0x1198 JUMP JUMPDEST SWAP3 POP POP DUP2 SWAP1 SSTORE POP PUSH1 0x1 DUP2 LT ISZERO DUP1 ISZERO PUSH2 0x85B JUMPI POP PUSH1 0xA DUP2 GT ISZERO JUMPDEST PUSH2 0x89A JUMPI PUSH1 0x40 MLOAD PUSH32 0x8C379A000000000000000000000000000000000000000000000000000000000 DUP2 MSTORE PUSH1 0x4 ADD PUSH2 0x891 SWAP1 PUSH2 0x123A JUMP JUMPDEST PUSH1 0x40 MLOAD DUP1 SWAP2 SUB SWAP1 REVERT JUMPDEST PUSH1 0x0 PUSH1 0x7 PUSH1 0x0 PUSH1 0x8 SLOAD DUP2 MSTORE PUSH1 0x20 ADD SWAP1 DUP2 MSTORE PUSH1 0x20 ADD PUSH1 0x0 KECCAK256 SWAP1 POP CALLER DUP2 PUSH1 0x0 ADD PUSH1 0x0 PUSH2 0x100 EXP DUP2 SLOAD DUP2 PUSH20 0xFFFFFFFFFFFFFFFFFFFFFFFFFFFFFFFFFFFFFFFF MUL NOT AND SWAP1 DUP4 PUSH20 0xFFFFFFFFFFFFFFFFFFFFFFFFFFFFFFFFFFFFFFFF AND MUL OR SWAP1 SSTORE POP DUP2 DUP2 PUSH1 0x1 ADD DUP2 SWAP1 SSTORE POP PUSH1 0x0 PUSH1 0x6 PUSH1 0x0 DUP4 PUSH1 0x1 ADD SLOAD DUP2 MSTORE PUSH1 0x20 ADD SWAP1 DUP2 MSTORE PUSH1 0x20 ADD PUSH1 0x0 KECCAK256 SWAP1 POP DUP1 PUSH1 0x0 ADD CALLER SWAP1 DUP1 PUSH1 0x1 DUP2 SLOAD ADD DUP1 DUP3 SSTORE DUP1 SWAP2 POP POP PUSH1 0x1 SWAP1 SUB SWAP1 PUSH1 0x0 MSTORE PUSH1 0x20 PUSH1 0x0 KECCAK256 ADD PUSH1 0x0 SWAP1 SWAP2 SWAP1 SWAP2 SWAP1 SWAP2 PUSH2 0x100 EXP DUP2 SLOAD DUP2 PUSH20 0xFFFFFFFFFFFFFFFFFFFFFFFFFFFFFFFFFFFFFFFF MUL NOT AND SWAP1 DUP4 PUSH20 0xFFFFFFFFFFFFFFFFFFFFFFFFFFFFFFFFFFFFFFFF AND MUL OR SWAP1 SSTORE POP PUSH2 0x987 PUSH2 0xA3B JUMP JUMPDEST POP POP POP JUMP JUMPDEST PUSH1 0x4 SLOAD DUP2 JUMP JUMPDEST PUSH1 0x2 SLOAD DUP2 JUMP JUMPDEST PUSH1 0x1 DUP2 DUP2 SLOAD DUP2 LT PUSH2 0x9A8 JUMPI PUSH1 0x0 DUP1 REVERT JUMPDEST SWAP1 PUSH1 0x0 MSTORE PUSH1 0x20 PUSH1 0x0 KECCAK256 ADD PUSH1 0x0 SWAP2 POP SWAP1 POP SLOAD DUP2 JUMP JUMPDEST DUP1 PUSH1 0x1 SWAP1 DUP1 MLOAD SWAP1 PUSH1 0x20 ADD SWAP1 PUSH2 0x9D2 SWAP3 SWAP2 SWAP1 PUSH2 0xA55 JUMP JUMPDEST POP POP POP JUMP JUMPDEST DUP2 PUSH1 0x9 PUSH1 0x0 DUP3 DUP3 SLOAD PUSH2 0x9E9 SWAP2 SWAP1 PUSH2 0x125A JUMP JUMPDEST SWAP3 POP POP DUP2 SWAP1 SSTORE POP DUP1 PUSH20 0xFFFFFFFFFFFFFFFFFFFFFFFFFFFFFFFFFFFFFFFF AND PUSH2 0x8FC DUP4 SWAP1 DUP2 ISZERO MUL SWAP1 PUSH1 0x40 MLOAD PUSH1 0x0 PUSH1 0x40 MLOAD DUP1 DUP4 SUB DUP2 DUP6 DUP9 DUP9 CALL SWAP4 POP POP POP POP ISZERO DUP1 ISZERO PUSH2 0xA36 JUMPI RETURNDATASIZE PUSH1 0x0 DUP1 RETURNDATACOPY RETURNDATASIZE PUSH1 0x0 REVERT JUMPDEST POP POP POP JUMP JUMPDEST PUSH1 0x8 PUSH1 0x0 DUP2 SLOAD DUP1 SWAP3 SWAP2 SWAP1 PUSH2 0xA4E SWAP1 PUSH2 0x10E4 JUMP JUMPDEST SWAP2 SWAP1 POP SSTORE POP JUMP JUMPDEST DUP3 DUP1 SLOAD DUP3 DUP3 SSTORE SWAP1 PUSH1 0x0 MSTORE PUSH1 0x20 PUSH1 0x0 KECCAK256 SWAP1 DUP2 ADD SWAP3 DUP3 ISZERO PUSH2 0xA91 JUMPI SWAP2 PUSH1 0x20 MUL DUP3 ADD JUMPDEST DUP3 DUP2 GT ISZERO PUSH2 0xA90 JUMPI DUP3 MLOAD DUP3 SSTORE SWAP2 PUSH1 0x20 ADD SWAP2 SWAP1 PUSH1 0x1 ADD SWAP1 PUSH2 0xA75 JUMP JUMPDEST JUMPDEST POP SWAP1 POP PUSH2 0xA9E SWAP2 SWAP1 PUSH2 0xAA2 JUMP JUMPDEST POP SWAP1 JUMP JUMPDEST JUMPDEST DUP1 DUP3 GT ISZERO PUSH2 0xABB JUMPI PUSH1 0x0 DUP2 PUSH1 0x0 SWAP1 SSTORE POP PUSH1 0x1 ADD PUSH2 0xAA3 JUMP JUMPDEST POP SWAP1 JUMP JUMPDEST PUSH1 0x0 DUP2 SWAP1 POP SWAP2 SWAP1 POP JUMP JUMPDEST PUSH2 0xAD2 DUP2 PUSH2 0xABF JUMP JUMPDEST DUP3 MSTORE POP POP JUMP JUMPDEST PUSH1 0x0 PUSH1 0x20 DUP3 ADD SWAP1 POP PUSH2 0xAED PUSH1 0x0 DUP4 ADD DUP5 PUSH2 0xAC9 JUMP JUMPDEST SWAP3 SWAP2 POP POP JUMP JUMPDEST PUSH1 0x0 PUSH1 0x40 MLOAD SWAP1 POP SWAP1 JUMP JUMPDEST PUSH1 0x0 DUP1 REVERT JUMPDEST PUSH1 0x0 DUP1 REVERT JUMPDEST PUSH2 0xB10 DUP2 PUSH2 0xABF JUMP JUMPDEST DUP2 EQ PUSH2 0xB1B JUMPI PUSH1 0x0 DUP1 REVERT JUMPDEST POP JUMP JUMPDEST PUSH1 0x0 DUP2 CALLDATALOAD SWAP1 POP PUSH2 0xB2D DUP2 PUSH2 0xB07 JUMP JUMPDEST SWAP3 SWAP2 POP POP JUMP JUMPDEST PUSH1 0x0 PUSH1 0x20 DUP3 DUP5 SUB SLT ISZERO PUSH2 0xB49 JUMPI PUSH2 0xB48 PUSH2 0xAFD JUMP JUMPDEST JUMPDEST PUSH1 0x0 PUSH2 0xB57 DUP5 DUP3 DUP6 ADD PUSH2 0xB1E JUMP JUMPDEST SWAP2 POP POP SWAP3 SWAP2 POP POP JUMP JUMPDEST PUSH1 0x0 PUSH20 0xFFFFFFFFFFFFFFFFFFFFFFFFFFFFFFFFFFFFFFFF DUP3 AND SWAP1 POP SWAP2 SWAP1 POP JUMP JUMPDEST PUSH1 0x0 PUSH2 0xB8B DUP3 PUSH2 0xB60 JUMP JUMPDEST SWAP1 POP SWAP2 SWAP1 POP JUMP JUMPDEST PUSH2 0xB9B DUP2 PUSH2 0xB80 JUMP JUMPDEST DUP3 MSTORE POP POP JUMP JUMPDEST PUSH1 0x0 PUSH1 0x20 DUP3 ADD SWAP1 POP PUSH2 0xBB6 PUSH1 0x0 DUP4 ADD DUP5 PUSH2 0xB92 JUMP JUMPDEST SWAP3 SWAP2 POP POP JUMP JUMPDEST PUSH1 0x0 DUP1 REVERT JUMPDEST PUSH1 0x0 PUSH1 0x1F NOT PUSH1 0x1F DUP4 ADD AND SWAP1 POP SWAP2 SWAP1 POP JUMP JUMPDEST PUSH32 0x4E487B7100000000000000000000000000000000000000000000000000000000 PUSH1 0x0 MSTORE PUSH1 0x41 PUSH1 0x4 MSTORE PUSH1 0x24 PUSH1 0x0 REVERT JUMPDEST PUSH2 0xC0A DUP3 PUSH2 0xBC1 JUMP JUMPDEST DUP2 ADD DUP2 DUP2 LT PUSH8 0xFFFFFFFFFFFFFFFF DUP3 GT OR ISZERO PUSH2 0xC29 JUMPI PUSH2 0xC28 PUSH2 0xBD2 JUMP JUMPDEST JUMPDEST DUP1 PUSH1 0x40 MSTORE POP POP POP JUMP JUMPDEST PUSH1 0x0 PUSH2 0xC3C PUSH2 0xAF3 JUMP JUMPDEST SWAP1 POP PUSH2 0xC48 DUP3 DUP3 PUSH2 0xC01 JUMP JUMPDEST SWAP2 SWAP1 POP JUMP JUMPDEST PUSH1 0x0 PUSH8 0xFFFFFFFFFFFFFFFF DUP3 GT ISZERO PUSH2 0xC68 JUMPI PUSH2 0xC67 PUSH2 0xBD2 JUMP JUMPDEST JUMPDEST PUSH1 0x20 DUP3 MUL SWAP1 POP PUSH1 0x20 DUP2 ADD SWAP1 POP SWAP2 SWAP1 POP JUMP JUMPDEST PUSH1 0x0 DUP1 REVERT JUMPDEST PUSH1 0x0 PUSH2 0xC91 PUSH2 0xC8C DUP5 PUSH2 0xC4D JUMP JUMPDEST PUSH2 0xC32 JUMP JUMPDEST SWAP1 POP DUP1 DUP4 DUP3 MSTORE PUSH1 0x20 DUP3 ADD SWAP1 POP PUSH1 0x20 DUP5 MUL DUP4 ADD DUP6 DUP2 GT ISZERO PUSH2 0xCB4 JUMPI PUSH2 0xCB3 PUSH2 0xC79 JUMP JUMPDEST JUMPDEST DUP4 JUMPDEST DUP2 DUP2 LT ISZERO PUSH2 0xCDD JUMPI DUP1 PUSH2 0xCC9 DUP9 DUP3 PUSH2 0xB1E JUMP JUMPDEST DUP5 MSTORE PUSH1 0x20 DUP5 ADD SWAP4 POP POP PUSH1 0x20 DUP2 ADD SWAP1 POP PUSH2 0xCB6 JUMP JUMPDEST POP POP POP SWAP4 SWAP3 POP POP POP JUMP JUMPDEST PUSH1 0x0 DUP3 PUSH1 0x1F DUP4 ADD SLT PUSH2 0xCFC JUMPI PUSH2 0xCFB PUSH2 0xBBC JUMP JUMPDEST JUMPDEST DUP2 CALLDATALOAD PUSH2 0xD0C DUP5 DUP3 PUSH1 0x20 DUP7 ADD PUSH2 0xC7E JUMP JUMPDEST SWAP2 POP POP SWAP3 SWAP2 POP POP JUMP JUMPDEST PUSH1 0x0 DUP1 PUSH1 0x40 DUP4 DUP6 SUB SLT ISZERO PUSH2 0xD2C JUMPI PUSH2 0xD2B PUSH2 0xAFD JUMP JUMPDEST JUMPDEST PUSH1 0x0 PUSH2 0xD3A DUP6 DUP3 DUP7 ADD PUSH2 0xB1E JUMP JUMPDEST SWAP3 POP POP PUSH1 0x20 DUP4 ADD CALLDATALOAD PUSH8 0xFFFFFFFFFFFFFFFF DUP2 GT ISZERO PUSH2 0xD5B JUMPI PUSH2 0xD5A PUSH2 0xB02 JUMP JUMPDEST JUMPDEST PUSH2 0xD67 DUP6 DUP3 DUP7 ADD PUSH2 0xCE7 JUMP JUMPDEST SWAP2 POP POP SWAP3 POP SWAP3 SWAP1 POP JUMP JUMPDEST PUSH1 0x0 PUSH2 0xD7C DUP3 PUSH2 0xB60 JUMP JUMPDEST SWAP1 POP SWAP2 SWAP1 POP JUMP JUMPDEST PUSH2 0xD8C DUP2 PUSH2 0xD71 JUMP JUMPDEST DUP3 MSTORE POP POP JUMP JUMPDEST PUSH1 0x0 PUSH1 0x40 DUP3 ADD SWAP1 POP PUSH2 0xDA7 PUSH1 0x0 DUP4 ADD DUP6 PUSH2 0xD83 JUMP JUMPDEST PUSH2 0xDB4 PUSH1 0x20 DUP4 ADD DUP5 PUSH2 0xAC9 JUMP JUMPDEST SWAP4 SWAP3 POP POP POP JUMP JUMPDEST PUSH1 0x0 PUSH1 0x20 DUP3 ADD SWAP1 POP PUSH2 0xDD0 PUSH1 0x0 DUP4 ADD DUP5 PUSH2 0xD83 JUMP JUMPDEST SWAP3 SWAP2 POP POP JUMP JUMPDEST PUSH32 0x4E487B7100000000000000000000000000000000000000000000000000000000 PUSH1 0x0 MSTORE PUSH1 0x32 PUSH1 0x4 MSTORE PUSH1 0x24 PUSH1 0x0 REVERT JUMPDEST PUSH1 0x0 PUSH1 0x40 DUP3 ADD SWAP1 POP PUSH2 0xE1A PUSH1 0x0 DUP4 ADD DUP6 PUSH2 0xB92 JUMP JUMPDEST PUSH2 0xE27 PUSH1 0x20 DUP4 ADD DUP5 PUSH2 0xB92 JUMP JUMPDEST SWAP4 SWAP3 POP POP POP JUMP JUMPDEST PUSH1 0x0 DUP2 SWAP1 POP SWAP2 SWAP1 POP JUMP JUMPDEST PUSH2 0xE41 DUP2 PUSH2 0xE2E JUMP JUMPDEST DUP3 MSTORE POP POP JUMP JUMPDEST PUSH1 0x0 PUSH8 0xFFFFFFFFFFFFFFFF DUP3 AND SWAP1 POP SWAP2 SWAP1 POP JUMP JUMPDEST PUSH2 0xE64 DUP2 PUSH2 0xE47 JUMP JUMPDEST DUP3 MSTORE POP POP JUMP JUMPDEST PUSH1 0x0 PUSH2 0xFFFF DUP3 AND SWAP1 POP SWAP2 SWAP1 POP JUMP JUMPDEST PUSH2 0xE81 DUP2 PUSH2 0xE6A JUMP JUMPDEST DUP3 MSTORE POP POP JUMP JUMPDEST PUSH1 0x0 PUSH4 0xFFFFFFFF DUP3 AND SWAP1 POP SWAP2 SWAP1 POP JUMP JUMPDEST PUSH2 0xEA0 DUP2 PUSH2 0xE87 JUMP JUMPDEST DUP3 MSTORE POP POP JUMP JUMPDEST PUSH1 0x0 PUSH1 0xA0 DUP3 ADD SWAP1 POP PUSH2 0xEBB PUSH1 0x0 DUP4 ADD DUP9 PUSH2 0xE38 JUMP JUMPDEST PUSH2 0xEC8 PUSH1 0x20 DUP4 ADD DUP8 PUSH2 0xE5B JUMP JUMPDEST PUSH2 0xED5 PUSH1 0x40 DUP4 ADD DUP7 PUSH2 0xE78 JUMP JUMPDEST PUSH2 0xEE2 PUSH1 0x60 DUP4 ADD DUP6 PUSH2 0xE97 JUMP JUMPDEST PUSH2 0xEEF PUSH1 0x80 DUP4 ADD DUP5 PUSH2 0xE97 JUMP JUMPDEST SWAP7 SWAP6 POP POP POP POP POP POP JUMP JUMPDEST PUSH1 0x0 DUP2 MLOAD SWAP1 POP PUSH2 0xF08 DUP2 PUSH2 0xB07 JUMP JUMPDEST SWAP3 SWAP2 POP POP JUMP JUMPDEST PUSH1 0x0 PUSH1 0x20 DUP3 DUP5 SUB SLT ISZERO PUSH2 0xF24 JUMPI PUSH2 0xF23 PUSH2 0xAFD JUMP JUMPDEST JUMPDEST PUSH1 0x0 PUSH2 0xF32 DUP5 DUP3 DUP6 ADD PUSH2 0xEF9 JUMP JUMPDEST SWAP2 POP POP SWAP3 SWAP2 POP POP JUMP JUMPDEST PUSH32 0x4E487B7100000000000000000000000000000000000000000000000000000000 PUSH1 0x0 MSTORE PUSH1 0x12 PUSH1 0x4 MSTORE PUSH1 0x24 PUSH1 0x0 REVERT JUMPDEST PUSH1 0x0 PUSH2 0xF75 DUP3 PUSH2 0xABF JUMP JUMPDEST SWAP2 POP PUSH2 0xF80 DUP4 PUSH2 0xABF JUMP JUMPDEST SWAP3 POP DUP3 PUSH2 0xF90 JUMPI PUSH2 0xF8F PUSH2 0xF3B JUMP JUMPDEST JUMPDEST DUP3 DUP3 MOD SWAP1 POP SWAP3 SWAP2 POP POP JUMP JUMPDEST PUSH32 0x4E487B7100000000000000000000000000000000000000000000000000000000 PUSH1 0x0 MSTORE PUSH1 0x11 PUSH1 0x4 MSTORE PUSH1 0x24 PUSH1 0x0 REVERT JUMPDEST PUSH1 0x0 PUSH2 0xFD5 DUP3 PUSH2 0xABF JUMP JUMPDEST SWAP2 POP PUSH2 0xFE0 DUP4 PUSH2 0xABF JUMP JUMPDEST SWAP3 POP DUP3 PUSH2 0xFF0 JUMPI PUSH2 0xFEF PUSH2 0xF3B JUMP JUMPDEST JUMPDEST DUP3 DUP3 DIV SWAP1 POP SWAP3 SWAP2 POP POP JUMP JUMPDEST PUSH1 0x0 DUP3 DUP3 MSTORE PUSH1 0x20 DUP3 ADD SWAP1 POP SWAP3 SWAP2 POP POP JUMP JUMPDEST PUSH32 0x7072697A65506F6F6C20697320656D7074790000000000000000000000000000 PUSH1 0x0 DUP3 ADD MSTORE POP JUMP JUMPDEST PUSH1 0x0 PUSH2 0x1042 PUSH1 0x12 DUP4 PUSH2 0xFFB JUMP JUMPDEST SWAP2 POP PUSH2 0x104D DUP3 PUSH2 0x100C JUMP JUMPDEST PUSH1 0x20 DUP3 ADD SWAP1 POP SWAP2 SWAP1 POP JUMP JUMPDEST PUSH1 0x0 PUSH1 0x20 DUP3 ADD SWAP1 POP DUP2 DUP2 SUB PUSH1 0x0 DUP4 ADD MSTORE PUSH2 0x1071 DUP2 PUSH2 0x1035 JUMP JUMPDEST SWAP1 POP SWAP2 SWAP1 POP JUMP JUMPDEST PUSH32 0x4E6F2077696E6E65720000000000000000000000000000000000000000000000 PUSH1 0x0 DUP3 ADD MSTORE POP JUMP JUMPDEST PUSH1 0x0 PUSH2 0x10AE PUSH1 0x9 DUP4 PUSH2 0xFFB JUMP JUMPDEST SWAP2 POP PUSH2 0x10B9 DUP3 PUSH2 0x1078 JUMP JUMPDEST PUSH1 0x20 DUP3 ADD SWAP1 POP SWAP2 SWAP1 POP JUMP JUMPDEST PUSH1 0x0 PUSH1 0x20 DUP3 ADD SWAP1 POP DUP2 DUP2 SUB PUSH1 0x0 DUP4 ADD MSTORE PUSH2 0x10DD DUP2 PUSH2 0x10A1 JUMP JUMPDEST SWAP1 POP SWAP2 SWAP1 POP JUMP JUMPDEST PUSH1 0x0 PUSH2 0x10EF DUP3 PUSH2 0xABF JUMP JUMPDEST SWAP2 POP PUSH32 0xFFFFFFFFFFFFFFFFFFFFFFFFFFFFFFFFFFFFFFFFFFFFFFFFFFFFFFFFFFFFFFFF DUP3 SUB PUSH2 0x1121 JUMPI PUSH2 0x1120 PUSH2 0xF9B JUMP JUMPDEST JUMPDEST PUSH1 0x1 DUP3 ADD SWAP1 POP SWAP2 SWAP1 POP JUMP JUMPDEST PUSH32 0x4E6F7420656E6F75676820746F6B656E00000000000000000000000000000000 PUSH1 0x0 DUP3 ADD MSTORE POP JUMP JUMPDEST PUSH1 0x0 PUSH2 0x1162 PUSH1 0x10 DUP4 PUSH2 0xFFB JUMP JUMPDEST SWAP2 POP PUSH2 0x116D DUP3 PUSH2 0x112C JUMP JUMPDEST PUSH1 0x20 DUP3 ADD SWAP1 POP SWAP2 SWAP1 POP JUMP JUMPDEST PUSH1 0x0 PUSH1 0x20 DUP3 ADD SWAP1 POP DUP2 DUP2 SUB PUSH1 0x0 DUP4 ADD MSTORE PUSH2 0x1191 DUP2 PUSH2 0x1155 JUMP JUMPDEST SWAP1 POP SWAP2 SWAP1 POP JUMP JUMPDEST PUSH1 0x0 PUSH2 0x11A3 DUP3 PUSH2 0xABF JUMP JUMPDEST SWAP2 POP PUSH2 0x11AE DUP4 PUSH2 0xABF JUMP JUMPDEST SWAP3 POP DUP3 PUSH32 0xFFFFFFFFFFFFFFFFFFFFFFFFFFFFFFFFFFFFFFFFFFFFFFFFFFFFFFFFFFFFFFFF SUB DUP3 GT ISZERO PUSH2 0x11E3 JUMPI PUSH2 0x11E2 PUSH2 0xF9B JUMP JUMPDEST JUMPDEST DUP3 DUP3 ADD SWAP1 POP SWAP3 SWAP2 POP POP JUMP JUMPDEST PUSH32 0x4E756D626572207469636B6574206F7574206F662072616E6765000000000000 PUSH1 0x0 DUP3 ADD MSTORE POP JUMP JUMPDEST PUSH1 0x0 PUSH2 0x1224 PUSH1 0x1A DUP4 PUSH2 0xFFB JUMP JUMPDEST SWAP2 POP PUSH2 0x122F DUP3 PUSH2 0x11EE JUMP JUMPDEST PUSH1 0x20 DUP3 ADD SWAP1 POP SWAP2 SWAP1 POP JUMP JUMPDEST PUSH1 0x0 PUSH1 0x20 DUP3 ADD SWAP1 POP DUP2 DUP2 SUB PUSH1 0x0 DUP4 ADD MSTORE PUSH2 0x1253 DUP2 PUSH2 0x1217 JUMP JUMPDEST SWAP1 POP SWAP2 SWAP1 POP JUMP JUMPDEST PUSH1 0x0 PUSH2 0x1265 DUP3 PUSH2 0xABF JUMP JUMPDEST SWAP2 POP PUSH2 0x1270 DUP4 PUSH2 0xABF JUMP JUMPDEST SWAP3 POP DUP3 DUP3 LT ISZERO PUSH2 0x1283 JUMPI PUSH2 0x1282 PUSH2 0xF9B JUMP JUMPDEST JUMPDEST DUP3 DUP3 SUB SWAP1 POP SWAP3 SWAP2 POP POP JUMP INVALID LOG2 PUSH5 0x6970667358 0x22 SLT KECCAK256 PUSH1 0xF7 0xBD DUP9 PUSH22 0x1CD5B5FDD847E34457D67E865CC71A7E301C2C29B47B PUSH1 0xD9 STATICCALL SUB 0x25 PUSH5 0x736F6C6343 STOP ADDMOD 0xF STOP CALLER "
				},
				"gasEstimates": {
					"creation": {
						"codeDepositCost": "960800",
						"executionCost": "infinite",
						"totalCost": "infinite"
					},
					"external": {
						"_requestRandomWords()": "infinite",
						"closeLottery()": "infinite",
						"enter(uint256)": "infinite",
						"getAmountPlayer()": "2504",
						"getAmountWinner()": "4652",
						"getBalance()": "2438",
						"getListWinner(uint256)": "7174",
						"getPlayers(uint256)": "infinite",
						"lotteryHistory(uint256)": "2884",
						"lotteryId()": "2473",
						"rawFulfillRandomWords(uint256,uint256[])": "infinite",
						"s_randomWords(uint256)": "infinite",
						"s_requestId()": "2495"
					},
					"internal": {
						"_transferPrize(uint256,address payable)": "infinite",
						"fulfillRandomWords(uint256,uint256[] memory)": "infinite",
						"increasePlayerCount()": "24366"
					}
				},
				"methodIdentifiers": {
					"_requestRandomWords()": "391ea700",
					"closeLottery()": "6fd09816",
					"enter(uint256)": "a59f3e0c",
					"getAmountPlayer()": "32eb85a4",
					"getAmountWinner()": "693521d5",
					"getBalance()": "12065fe0",
					"getListWinner(uint256)": "18b425ff",
					"getPlayers(uint256)": "460e2049",
					"lotteryHistory(uint256)": "6d6fe230",
					"lotteryId()": "e580f47b",
					"rawFulfillRandomWords(uint256,uint256[])": "1fe543e3",
					"s_randomWords(uint256)": "f6eaffc8",
					"s_requestId()": "e89e106a"
				}
			},
			"storageLayout": {
				"storage": [
					{
						"astId": 721,
						"contract": "contracts/Lottery.sol:Lottery",
						"label": "callbackGasLimit",
						"offset": 0,
						"slot": "0",
						"type": "t_uint32"
					},
					{
						"astId": 724,
						"contract": "contracts/Lottery.sol:Lottery",
						"label": "requestConfirmations",
						"offset": 4,
						"slot": "0",
						"type": "t_uint16"
					},
					{
						"astId": 727,
						"contract": "contracts/Lottery.sol:Lottery",
						"label": "numWords",
						"offset": 6,
						"slot": "0",
						"type": "t_uint32"
					},
					{
						"astId": 730,
						"contract": "contracts/Lottery.sol:Lottery",
						"label": "s_randomWords",
						"offset": 0,
						"slot": "1",
						"type": "t_array(t_uint256)dyn_storage"
					},
					{
						"astId": 732,
						"contract": "contracts/Lottery.sol:Lottery",
						"label": "s_requestId",
						"offset": 0,
						"slot": "2",
						"type": "t_uint256"
					},
					{
						"astId": 736,
						"contract": "contracts/Lottery.sol:Lottery",
						"label": "s_owner",
						"offset": 0,
						"slot": "3",
						"type": "t_address"
					},
					{
						"astId": 738,
						"contract": "contracts/Lottery.sol:Lottery",
						"label": "lotteryId",
						"offset": 0,
						"slot": "4",
						"type": "t_uint256"
					},
					{
						"astId": 742,
						"contract": "contracts/Lottery.sol:Lottery",
						"label": "lotteryHistory",
						"offset": 0,
						"slot": "5",
						"type": "t_mapping(t_uint256,t_address_payable)"
					},
					{
						"astId": 751,
						"contract": "contracts/Lottery.sol:Lottery",
						"label": "groupTicket",
						"offset": 0,
						"slot": "6",
						"type": "t_mapping(t_uint256,t_struct(ListNumberTicket)746_storage)"
					},
					{
						"astId": 761,
						"contract": "contracts/Lottery.sol:Lottery",
						"label": "allLottery",
						"offset": 0,
						"slot": "7",
						"type": "t_mapping(t_uint256,t_struct(Participants)756_storage)"
					},
					{
						"astId": 764,
						"contract": "contracts/Lottery.sol:Lottery",
						"label": "playerCount",
						"offset": 0,
						"slot": "8",
						"type": "t_uint256"
					},
					{
						"astId": 766,
						"contract": "contracts/Lottery.sol:Lottery",
						"label": "prizePool",
						"offset": 0,
						"slot": "9",
						"type": "t_uint256"
					},
					{
						"astId": 768,
						"contract": "contracts/Lottery.sol:Lottery",
						"label": "luckyNumber",
						"offset": 0,
						"slot": "10",
						"type": "t_uint256"
					}
				],
				"types": {
					"t_address": {
						"encoding": "inplace",
						"label": "address",
						"numberOfBytes": "20"
					},
					"t_address_payable": {
						"encoding": "inplace",
						"label": "address payable",
						"numberOfBytes": "20"
					},
					"t_array(t_address_payable)dyn_storage": {
						"base": "t_address_payable",
						"encoding": "dynamic_array",
						"label": "address payable[]",
						"numberOfBytes": "32"
					},
					"t_array(t_uint256)dyn_storage": {
						"base": "t_uint256",
						"encoding": "dynamic_array",
						"label": "uint256[]",
						"numberOfBytes": "32"
					},
					"t_mapping(t_uint256,t_address_payable)": {
						"encoding": "mapping",
						"key": "t_uint256",
						"label": "mapping(uint256 => address payable)",
						"numberOfBytes": "32",
						"value": "t_address_payable"
					},
					"t_mapping(t_uint256,t_struct(ListNumberTicket)746_storage)": {
						"encoding": "mapping",
						"key": "t_uint256",
						"label": "mapping(uint256 => struct Lottery.ListNumberTicket)",
						"numberOfBytes": "32",
						"value": "t_struct(ListNumberTicket)746_storage"
					},
					"t_mapping(t_uint256,t_struct(Participants)756_storage)": {
						"encoding": "mapping",
						"key": "t_uint256",
						"label": "mapping(uint256 => struct Lottery.Participants)",
						"numberOfBytes": "32",
						"value": "t_struct(Participants)756_storage"
					},
					"t_struct(ListNumberTicket)746_storage": {
						"encoding": "inplace",
						"label": "struct Lottery.ListNumberTicket",
						"members": [
							{
								"astId": 745,
								"contract": "contracts/Lottery.sol:Lottery",
								"label": "groupPlayer",
								"offset": 0,
								"slot": "0",
								"type": "t_array(t_address_payable)dyn_storage"
							}
						],
						"numberOfBytes": "32"
					},
					"t_struct(Participants)756_storage": {
						"encoding": "inplace",
						"label": "struct Lottery.Participants",
						"members": [
							{
								"astId": 753,
								"contract": "contracts/Lottery.sol:Lottery",
								"label": "player",
								"offset": 0,
								"slot": "0",
								"type": "t_address_payable"
							},
							{
								"astId": 755,
								"contract": "contracts/Lottery.sol:Lottery",
								"label": "numTicket",
								"offset": 0,
								"slot": "1",
								"type": "t_uint256"
							}
						],
						"numberOfBytes": "64"
					},
					"t_uint16": {
						"encoding": "inplace",
						"label": "uint16",
						"numberOfBytes": "2"
					},
					"t_uint256": {
						"encoding": "inplace",
						"label": "uint256",
						"numberOfBytes": "32"
					},
					"t_uint32": {
						"encoding": "inplace",
						"label": "uint32",
						"numberOfBytes": "4"
					}
				}
			},
			"userdoc": {
				"kind": "user",
				"methods": {},
				"version": 1
			}
		}
	}
}