{
	"contracts/Lottery.sol": {
		"Lottery": {
			"abi": [
				{
					"inputs": [
						{
							"internalType": "uint256",
							"name": "_numTicket",
							"type": "uint256"
						}
					],
					"name": "enter",
					"outputs": [],
					"stateMutability": "payable",
					"type": "function"
				},
				{
					"inputs": [],
					"name": "getBalance",
					"outputs": [
						{
							"internalType": "uint256",
							"name": "",
							"type": "uint256"
						}
					],
					"stateMutability": "view",
					"type": "function"
				},
				{
					"inputs": [],
					"name": "getNumberPlayer",
					"outputs": [
						{
							"internalType": "uint256",
							"name": "",
							"type": "uint256"
						}
					],
					"stateMutability": "view",
					"type": "function"
				},
				{
					"inputs": [
						{
							"internalType": "uint256",
							"name": "_index",
							"type": "uint256"
						}
					],
					"name": "getPlayers",
					"outputs": [
						{
							"internalType": "address payable",
							"name": "",
							"type": "address"
						},
						{
							"internalType": "uint256",
							"name": "",
							"type": "uint256"
						}
					],
					"stateMutability": "view",
					"type": "function"
				},
				{
					"inputs": [
						{
							"internalType": "uint256",
							"name": "lottery",
							"type": "uint256"
						}
					],
					"name": "getWinnerByLottery",
					"outputs": [
						{
							"internalType": "address payable",
							"name": "",
							"type": "address"
						}
					],
					"stateMutability": "view",
					"type": "function"
				},
				{
					"inputs": [
						{
							"internalType": "uint256",
							"name": "",
							"type": "uint256"
						}
					],
					"name": "lotteryHistory",
					"outputs": [
						{
							"internalType": "address payable",
							"name": "",
							"type": "address"
						}
					],
					"stateMutability": "view",
					"type": "function"
				},
				{
					"inputs": [],
					"name": "lotteryId",
					"outputs": [
						{
							"internalType": "uint256",
							"name": "",
							"type": "uint256"
						}
					],
					"stateMutability": "view",
					"type": "function"
				},
				{
					"inputs": [],
					"name": "owner",
					"outputs": [
						{
							"internalType": "address",
							"name": "",
							"type": "address"
						}
					],
					"stateMutability": "view",
					"type": "function"
				}
			],
			"devdoc": {
				"kind": "dev",
				"methods": {},
				"version": 1
			},
			"evm": {
				"assembly": "    /* \"contracts/Lottery.sol\":369:2966  contract Lottery {... */\n  mstore(0x40, 0x80)\n    /* \"contracts/Lottery.sol\":820:821  0 */\n  0x00\n    /* \"contracts/Lottery.sol\":792:821  uint internal playerCount = 0 */\n  0x05\n  sstore\n    /* \"contracts/Lottery.sol\":369:2966  contract Lottery {... */\n  callvalue\n  dup1\n  iszero\n  tag_1\n  jumpi\n  0x00\n  dup1\n  revert\ntag_1:\n  pop\n  dataSize(sub_0)\n  dup1\n  dataOffset(sub_0)\n  0x00\n  codecopy\n  0x00\n  return\nstop\n\nsub_0: assembly {\n        /* \"contracts/Lottery.sol\":369:2966  contract Lottery {... */\n      mstore(0x40, 0x80)\n      jumpi(tag_1, lt(calldatasize, 0x04))\n      shr(0xe0, calldataload(0x00))\n      dup1\n      0x7128501f\n      gt\n      tag_10\n      jumpi\n      dup1\n      0x7128501f\n      eq\n      tag_6\n      jumpi\n      dup1\n      0x8da5cb5b\n      eq\n      tag_7\n      jumpi\n      dup1\n      0xa59f3e0c\n      eq\n      tag_8\n      jumpi\n      dup1\n      0xe580f47b\n      eq\n      tag_9\n      jumpi\n      jump(tag_1)\n    tag_10:\n      dup1\n      0x12065fe0\n      eq\n      tag_2\n      jumpi\n      dup1\n      0x281d098d\n      eq\n      tag_3\n      jumpi\n      dup1\n      0x460e2049\n      eq\n      tag_4\n      jumpi\n      dup1\n      0x6d6fe230\n      eq\n      tag_5\n      jumpi\n    tag_1:\n      0x00\n      dup1\n      revert\n        /* \"contracts/Lottery.sol\":961:1055  function getBalance() public view returns (uint) {... */\n    tag_2:\n      callvalue\n      dup1\n      iszero\n      tag_11\n      jumpi\n      0x00\n      dup1\n      revert\n    tag_11:\n      pop\n      tag_12\n      tag_13\n      jump\t// in\n    tag_12:\n      mload(0x40)\n      tag_14\n      swap2\n      swap1\n      tag_15\n      jump\t// in\n    tag_14:\n      mload(0x40)\n      dup1\n      swap2\n      sub\n      swap1\n      return\n        /* \"contracts/Lottery.sol\":828:955  function getWinnerByLottery(uint lottery) public view returns (address payable) {... */\n    tag_3:\n      callvalue\n      dup1\n      iszero\n      tag_16\n      jumpi\n      0x00\n      dup1\n      revert\n    tag_16:\n      pop\n      tag_17\n      0x04\n      dup1\n      calldatasize\n      sub\n      dup2\n      add\n      swap1\n      tag_18\n      swap2\n      swap1\n      tag_19\n      jump\t// in\n    tag_18:\n      tag_20\n      jump\t// in\n    tag_17:\n      mload(0x40)\n      tag_21\n      swap2\n      swap1\n      tag_22\n      jump\t// in\n    tag_21:\n      mload(0x40)\n      dup1\n      swap2\n      sub\n      swap1\n      return\n        /* \"contracts/Lottery.sol\":1061:1301  function getPlayers(uint _index) public view returns (address payable, uint) {... */\n    tag_4:\n      callvalue\n      dup1\n      iszero\n      tag_23\n      jumpi\n      0x00\n      dup1\n      revert\n    tag_23:\n      pop\n      tag_24\n      0x04\n      dup1\n      calldatasize\n      sub\n      dup2\n      add\n      swap1\n      tag_25\n      swap2\n      swap1\n      tag_19\n      jump\t// in\n    tag_25:\n      tag_26\n      jump\t// in\n    tag_24:\n      mload(0x40)\n      tag_27\n      swap3\n      swap2\n      swap1\n      tag_28\n      jump\t// in\n    tag_27:\n      mload(0x40)\n      dup1\n      swap2\n      sub\n      swap1\n      return\n        /* \"contracts/Lottery.sol\":447:502  mapping (uint => address payable) public lotteryHistory */\n    tag_5:\n      callvalue\n      dup1\n      iszero\n      tag_29\n      jumpi\n      0x00\n      dup1\n      revert\n    tag_29:\n      pop\n      tag_30\n      0x04\n      dup1\n      calldatasize\n      sub\n      dup2\n      add\n      swap1\n      tag_31\n      swap2\n      swap1\n      tag_19\n      jump\t// in\n    tag_31:\n      tag_32\n      jump\t// in\n    tag_30:\n      mload(0x40)\n      tag_33\n      swap2\n      swap1\n      tag_22\n      jump\t// in\n    tag_33:\n      mload(0x40)\n      dup1\n      swap2\n      sub\n      swap1\n      return\n        /* \"contracts/Lottery.sol\":1311:1399  function getNumberPlayer() public view returns (uint){... */\n    tag_6:\n      callvalue\n      dup1\n      iszero\n      tag_34\n      jumpi\n      0x00\n      dup1\n      revert\n    tag_34:\n      pop\n      tag_35\n      tag_36\n      jump\t// in\n    tag_35:\n      mload(0x40)\n      tag_37\n      swap2\n      swap1\n      tag_15\n      jump\t// in\n    tag_37:\n      mload(0x40)\n      dup1\n      swap2\n      sub\n      swap1\n      return\n        /* \"contracts/Lottery.sol\":394:414  address public owner */\n    tag_7:\n      callvalue\n      dup1\n      iszero\n      tag_38\n      jumpi\n      0x00\n      dup1\n      revert\n    tag_38:\n      pop\n      tag_39\n      tag_40\n      jump\t// in\n    tag_39:\n      mload(0x40)\n      tag_41\n      swap2\n      swap1\n      tag_42\n      jump\t// in\n    tag_41:\n      mload(0x40)\n      dup1\n      swap2\n      sub\n      swap1\n      return\n        /* \"contracts/Lottery.sol\":1404:1921  function enter(uint _numTicket) public payable {... */\n    tag_8:\n      tag_43\n      0x04\n      dup1\n      calldatasize\n      sub\n      dup2\n      add\n      swap1\n      tag_44\n      swap2\n      swap1\n      tag_19\n      jump\t// in\n    tag_44:\n      tag_45\n      jump\t// in\n    tag_43:\n      stop\n        /* \"contracts/Lottery.sol\":420:441  uint public lotteryId */\n    tag_9:\n      callvalue\n      dup1\n      iszero\n      tag_46\n      jumpi\n      0x00\n      dup1\n      revert\n    tag_46:\n      pop\n      tag_47\n      tag_48\n      jump\t// in\n    tag_47:\n      mload(0x40)\n      tag_49\n      swap2\n      swap1\n      tag_15\n      jump\t// in\n    tag_49:\n      mload(0x40)\n      dup1\n      swap2\n      sub\n      swap1\n      return\n        /* \"contracts/Lottery.sol\":961:1055  function getBalance() public view returns (uint) {... */\n    tag_13:\n        /* \"contracts/Lottery.sol\":1004:1008  uint */\n      0x00\n        /* \"contracts/Lottery.sol\":1027:1048  address(this).balance */\n      selfbalance\n        /* \"contracts/Lottery.sol\":1020:1048  return address(this).balance */\n      swap1\n      pop\n        /* \"contracts/Lottery.sol\":961:1055  function getBalance() public view returns (uint) {... */\n      swap1\n      jump\t// out\n        /* \"contracts/Lottery.sol\":828:955  function getWinnerByLottery(uint lottery) public view returns (address payable) {... */\n    tag_20:\n        /* \"contracts/Lottery.sol\":891:906  address payable */\n      0x00\n        /* \"contracts/Lottery.sol\":925:939  lotteryHistory */\n      0x02\n        /* \"contracts/Lottery.sol\":925:948  lotteryHistory[lottery] */\n      0x00\n        /* \"contracts/Lottery.sol\":940:947  lottery */\n      dup4\n        /* \"contracts/Lottery.sol\":925:948  lotteryHistory[lottery] */\n      dup2\n      mstore\n      0x20\n      add\n      swap1\n      dup2\n      mstore\n      0x20\n      add\n      0x00\n      keccak256\n      0x00\n      swap1\n      sload\n      swap1\n      0x0100\n      exp\n      swap1\n      div\n      0xffffffffffffffffffffffffffffffffffffffff\n      and\n        /* \"contracts/Lottery.sol\":918:948  return lotteryHistory[lottery] */\n      swap1\n      pop\n        /* \"contracts/Lottery.sol\":828:955  function getWinnerByLottery(uint lottery) public view returns (address payable) {... */\n      swap2\n      swap1\n      pop\n      jump\t// out\n        /* \"contracts/Lottery.sol\":1061:1301  function getPlayers(uint _index) public view returns (address payable, uint) {... */\n    tag_26:\n        /* \"contracts/Lottery.sol\":1115:1130  address payable */\n      0x00\n        /* \"contracts/Lottery.sol\":1132:1136  uint */\n      dup1\n        /* \"contracts/Lottery.sol\":1148:1180  Participants storage participant */\n      0x00\n        /* \"contracts/Lottery.sol\":1183:1193  allLottery */\n      0x04\n        /* \"contracts/Lottery.sol\":1183:1201  allLottery[_index] */\n      0x00\n        /* \"contracts/Lottery.sol\":1194:1200  _index */\n      dup6\n        /* \"contracts/Lottery.sol\":1183:1201  allLottery[_index] */\n      dup2\n      mstore\n      0x20\n      add\n      swap1\n      dup2\n      mstore\n      0x20\n      add\n      0x00\n      keccak256\n        /* \"contracts/Lottery.sol\":1148:1201  Participants storage participant = allLottery[_index] */\n      swap1\n      pop\n        /* \"contracts/Lottery.sol\":1231:1242  participant */\n      dup1\n        /* \"contracts/Lottery.sol\":1231:1249  participant.player */\n      0x00\n      add\n      0x00\n      swap1\n      sload\n      swap1\n      0x0100\n      exp\n      swap1\n      div\n      0xffffffffffffffffffffffffffffffffffffffff\n      and\n        /* \"contracts/Lottery.sol\":1263:1274  participant */\n      dup2\n        /* \"contracts/Lottery.sol\":1263:1284  participant.numTicket */\n      0x01\n      add\n      sload\n        /* \"contracts/Lottery.sol\":1211:1294  return(... */\n      swap3\n      pop\n      swap3\n      pop\n      pop\n        /* \"contracts/Lottery.sol\":1061:1301  function getPlayers(uint _index) public view returns (address payable, uint) {... */\n      swap2\n      pop\n      swap2\n      jump\t// out\n        /* \"contracts/Lottery.sol\":447:502  mapping (uint => address payable) public lotteryHistory */\n    tag_32:\n      mstore(0x20, 0x02)\n      dup1\n      0x00\n      mstore\n      keccak256(0x00, 0x40)\n      0x00\n      swap2\n      pop\n      sload\n      swap1\n      0x0100\n      exp\n      swap1\n      div\n      0xffffffffffffffffffffffffffffffffffffffff\n      and\n      dup2\n      jump\t// out\n        /* \"contracts/Lottery.sol\":1311:1399  function getNumberPlayer() public view returns (uint){... */\n    tag_36:\n        /* \"contracts/Lottery.sol\":1359:1363  uint */\n      0x00\n        /* \"contracts/Lottery.sol\":1381:1392  playerCount */\n      sload(0x05)\n        /* \"contracts/Lottery.sol\":1374:1392  return playerCount */\n      swap1\n      pop\n        /* \"contracts/Lottery.sol\":1311:1399  function getNumberPlayer() public view returns (uint){... */\n      swap1\n      jump\t// out\n        /* \"contracts/Lottery.sol\":394:414  address public owner */\n    tag_40:\n      0x00\n      dup1\n      sload\n      swap1\n      0x0100\n      exp\n      swap1\n      div\n      0xffffffffffffffffffffffffffffffffffffffff\n      and\n      dup2\n      jump\t// out\n        /* \"contracts/Lottery.sol\":1404:1921  function enter(uint _numTicket) public payable {... */\n    tag_45:\n        /* \"contracts/Lottery.sol\":1481:1486  2 wei */\n      0x02\n        /* \"contracts/Lottery.sol\":1469:1478  msg.value */\n      callvalue\n        /* \"contracts/Lottery.sol\":1469:1486  msg.value > 2 wei */\n      gt\n        /* \"contracts/Lottery.sol\":1461:1507  require(msg.value > 2 wei, \"Not enough token\") */\n      tag_55\n      jumpi\n      mload(0x40)\n      0x08c379a000000000000000000000000000000000000000000000000000000000\n      dup2\n      mstore\n      0x04\n      add\n      tag_56\n      swap1\n      tag_57\n      jump\t// in\n    tag_56:\n      mload(0x40)\n      dup1\n      swap2\n      sub\n      swap1\n      revert\n    tag_55:\n        /* \"contracts/Lottery.sol\":1539:1540  1 */\n      0x01\n        /* \"contracts/Lottery.sol\":1525:1535  _numTicket */\n      dup2\n        /* \"contracts/Lottery.sol\":1525:1540  _numTicket >= 1 */\n      lt\n      iszero\n        /* \"contracts/Lottery.sol\":1525:1560  _numTicket >= 1 && _numTicket <= 10 */\n      dup1\n      iszero\n      tag_58\n      jumpi\n      pop\n        /* \"contracts/Lottery.sol\":1558:1560  10 */\n      0x0a\n        /* \"contracts/Lottery.sol\":1544:1554  _numTicket */\n      dup2\n        /* \"contracts/Lottery.sol\":1544:1560  _numTicket <= 10 */\n      gt\n      iszero\n        /* \"contracts/Lottery.sol\":1525:1560  _numTicket >= 1 && _numTicket <= 10 */\n    tag_58:\n        /* \"contracts/Lottery.sol\":1517:1591  require(_numTicket >= 1 && _numTicket <= 10, \"Number ticket out of range\") */\n      tag_59\n      jumpi\n      mload(0x40)\n      0x08c379a000000000000000000000000000000000000000000000000000000000\n      dup2\n      mstore\n      0x04\n      add\n      tag_60\n      swap1\n      tag_61\n      jump\t// in\n    tag_60:\n      mload(0x40)\n      dup1\n      swap2\n      sub\n      swap1\n      revert\n    tag_59:\n        /* \"contracts/Lottery.sol\":1601:1631  Participants storage newPlayer */\n      0x00\n        /* \"contracts/Lottery.sol\":1634:1644  allLottery */\n      0x04\n        /* \"contracts/Lottery.sol\":1634:1657  allLottery[playerCount] */\n      0x00\n        /* \"contracts/Lottery.sol\":1645:1656  playerCount */\n      sload(0x05)\n        /* \"contracts/Lottery.sol\":1634:1657  allLottery[playerCount] */\n      dup2\n      mstore\n      0x20\n      add\n      swap1\n      dup2\n      mstore\n      0x20\n      add\n      0x00\n      keccak256\n        /* \"contracts/Lottery.sol\":1601:1657  Participants storage newPlayer = allLottery[playerCount] */\n      swap1\n      pop\n        /* \"contracts/Lottery.sol\":1694:1704  msg.sender */\n      caller\n        /* \"contracts/Lottery.sol\":1667:1676  newPlayer */\n      dup2\n        /* \"contracts/Lottery.sol\":1667:1683  newPlayer.player */\n      0x00\n      add\n      0x00\n        /* \"contracts/Lottery.sol\":1667:1705  newPlayer.player = payable(msg.sender) */\n      0x0100\n      exp\n      dup2\n      sload\n      dup2\n      0xffffffffffffffffffffffffffffffffffffffff\n      mul\n      not\n      and\n      swap1\n      dup4\n      0xffffffffffffffffffffffffffffffffffffffff\n      and\n      mul\n      or\n      swap1\n      sstore\n      pop\n        /* \"contracts/Lottery.sol\":1737:1747  _numTicket */\n      dup2\n        /* \"contracts/Lottery.sol\":1715:1724  newPlayer */\n      dup2\n        /* \"contracts/Lottery.sol\":1715:1734  newPlayer.numTicket */\n      0x01\n      add\n        /* \"contracts/Lottery.sol\":1715:1747  newPlayer.numTicket = _numTicket */\n      dup2\n      swap1\n      sstore\n      pop\n        /* \"contracts/Lottery.sol\":1757:1791  ListNumberTicket storage addTicket */\n      0x00\n        /* \"contracts/Lottery.sol\":1794:1805  groupTicket */\n      0x03\n        /* \"contracts/Lottery.sol\":1794:1826  groupTicket[newPlayer.numTicket] */\n      0x00\n        /* \"contracts/Lottery.sol\":1806:1815  newPlayer */\n      dup4\n        /* \"contracts/Lottery.sol\":1806:1825  newPlayer.numTicket */\n      0x01\n      add\n      sload\n        /* \"contracts/Lottery.sol\":1794:1826  groupTicket[newPlayer.numTicket] */\n      dup2\n      mstore\n      0x20\n      add\n      swap1\n      dup2\n      mstore\n      0x20\n      add\n      0x00\n      keccak256\n        /* \"contracts/Lottery.sol\":1757:1826  ListNumberTicket storage addTicket = groupTicket[newPlayer.numTicket] */\n      swap1\n      pop\n        /* \"contracts/Lottery.sol\":1836:1845  addTicket */\n      dup1\n        /* \"contracts/Lottery.sol\":1836:1857  addTicket.groupPlayer */\n      0x00\n      add\n        /* \"contracts/Lottery.sol\":1871:1881  msg.sender */\n      caller\n        /* \"contracts/Lottery.sol\":1836:1883  addTicket.groupPlayer.push(payable(msg.sender)) */\n      swap1\n      dup1\n      0x01\n      dup2\n      sload\n      add\n      dup1\n      dup3\n      sstore\n      dup1\n      swap2\n      pop\n      pop\n      0x01\n      swap1\n      sub\n      swap1\n      0x00\n      mstore\n      keccak256(0x00, 0x20)\n      add\n      0x00\n      swap1\n      swap2\n      swap1\n      swap2\n      swap1\n      swap2\n      0x0100\n      exp\n      dup2\n      sload\n      dup2\n      0xffffffffffffffffffffffffffffffffffffffff\n      mul\n      not\n      and\n      swap1\n      dup4\n      0xffffffffffffffffffffffffffffffffffffffff\n      and\n      mul\n      or\n      swap1\n      sstore\n      pop\n        /* \"contracts/Lottery.sol\":1893:1914  increasePlayerCount() */\n      tag_63\n        /* \"contracts/Lottery.sol\":1893:1912  increasePlayerCount */\n      tag_64\n        /* \"contracts/Lottery.sol\":1893:1914  increasePlayerCount() */\n      jump\t// in\n    tag_63:\n        /* \"contracts/Lottery.sol\":1451:1921  {... */\n      pop\n      pop\n        /* \"contracts/Lottery.sol\":1404:1921  function enter(uint _numTicket) public payable {... */\n      pop\n      jump\t// out\n        /* \"contracts/Lottery.sol\":420:441  uint public lotteryId */\n    tag_48:\n      sload(0x01)\n      dup2\n      jump\t// out\n        /* \"contracts/Lottery.sol\":2821:2885  function increasePlayerCount() internal {... */\n    tag_64:\n        /* \"contracts/Lottery.sol\":2867:2878  playerCount */\n      0x05\n      0x00\n        /* \"contracts/Lottery.sol\":2867:2880  playerCount++ */\n      dup2\n      sload\n      dup1\n      swap3\n      swap2\n      swap1\n      tag_66\n      swap1\n      tag_67\n      jump\t// in\n    tag_66:\n      swap2\n      swap1\n      pop\n      sstore\n      pop\n        /* \"contracts/Lottery.sol\":2821:2885  function increasePlayerCount() internal {... */\n      jump\t// out\n        /* \"#utility.yul\":7:84   */\n    tag_68:\n        /* \"#utility.yul\":44:51   */\n      0x00\n        /* \"#utility.yul\":73:78   */\n      dup2\n        /* \"#utility.yul\":62:78   */\n      swap1\n      pop\n        /* \"#utility.yul\":7:84   */\n      swap2\n      swap1\n      pop\n      jump\t// out\n        /* \"#utility.yul\":90:208   */\n    tag_69:\n        /* \"#utility.yul\":177:201   */\n      tag_89\n        /* \"#utility.yul\":195:200   */\n      dup2\n        /* \"#utility.yul\":177:201   */\n      tag_68\n      jump\t// in\n    tag_89:\n        /* \"#utility.yul\":172:175   */\n      dup3\n        /* \"#utility.yul\":165:202   */\n      mstore\n        /* \"#utility.yul\":90:208   */\n      pop\n      pop\n      jump\t// out\n        /* \"#utility.yul\":214:436   */\n    tag_15:\n        /* \"#utility.yul\":307:311   */\n      0x00\n        /* \"#utility.yul\":345:347   */\n      0x20\n        /* \"#utility.yul\":334:343   */\n      dup3\n        /* \"#utility.yul\":330:348   */\n      add\n        /* \"#utility.yul\":322:348   */\n      swap1\n      pop\n        /* \"#utility.yul\":358:429   */\n      tag_91\n        /* \"#utility.yul\":426:427   */\n      0x00\n        /* \"#utility.yul\":415:424   */\n      dup4\n        /* \"#utility.yul\":411:428   */\n      add\n        /* \"#utility.yul\":402:408   */\n      dup5\n        /* \"#utility.yul\":358:429   */\n      tag_69\n      jump\t// in\n    tag_91:\n        /* \"#utility.yul\":214:436   */\n      swap3\n      swap2\n      pop\n      pop\n      jump\t// out\n        /* \"#utility.yul\":523:640   */\n    tag_71:\n        /* \"#utility.yul\":632:633   */\n      0x00\n        /* \"#utility.yul\":629:630   */\n      dup1\n        /* \"#utility.yul\":622:634   */\n      revert\n        /* \"#utility.yul\":769:891   */\n    tag_73:\n        /* \"#utility.yul\":842:866   */\n      tag_96\n        /* \"#utility.yul\":860:865   */\n      dup2\n        /* \"#utility.yul\":842:866   */\n      tag_68\n      jump\t// in\n    tag_96:\n        /* \"#utility.yul\":835:840   */\n      dup2\n        /* \"#utility.yul\":832:867   */\n      eq\n        /* \"#utility.yul\":822:885   */\n      tag_97\n      jumpi\n        /* \"#utility.yul\":881:882   */\n      0x00\n        /* \"#utility.yul\":878:879   */\n      dup1\n        /* \"#utility.yul\":871:883   */\n      revert\n        /* \"#utility.yul\":822:885   */\n    tag_97:\n        /* \"#utility.yul\":769:891   */\n      pop\n      jump\t// out\n        /* \"#utility.yul\":897:1036   */\n    tag_74:\n        /* \"#utility.yul\":943:948   */\n      0x00\n        /* \"#utility.yul\":981:987   */\n      dup2\n        /* \"#utility.yul\":968:988   */\n      calldataload\n        /* \"#utility.yul\":959:988   */\n      swap1\n      pop\n        /* \"#utility.yul\":997:1030   */\n      tag_99\n        /* \"#utility.yul\":1024:1029   */\n      dup2\n        /* \"#utility.yul\":997:1030   */\n      tag_73\n      jump\t// in\n    tag_99:\n        /* \"#utility.yul\":897:1036   */\n      swap3\n      swap2\n      pop\n      pop\n      jump\t// out\n        /* \"#utility.yul\":1042:1371   */\n    tag_19:\n        /* \"#utility.yul\":1101:1107   */\n      0x00\n        /* \"#utility.yul\":1150:1152   */\n      0x20\n        /* \"#utility.yul\":1138:1147   */\n      dup3\n        /* \"#utility.yul\":1129:1136   */\n      dup5\n        /* \"#utility.yul\":1125:1148   */\n      sub\n        /* \"#utility.yul\":1121:1153   */\n      slt\n        /* \"#utility.yul\":1118:1237   */\n      iszero\n      tag_101\n      jumpi\n        /* \"#utility.yul\":1156:1235   */\n      tag_102\n      tag_71\n      jump\t// in\n    tag_102:\n        /* \"#utility.yul\":1118:1237   */\n    tag_101:\n        /* \"#utility.yul\":1276:1277   */\n      0x00\n        /* \"#utility.yul\":1301:1354   */\n      tag_103\n        /* \"#utility.yul\":1346:1353   */\n      dup5\n        /* \"#utility.yul\":1337:1343   */\n      dup3\n        /* \"#utility.yul\":1326:1335   */\n      dup6\n        /* \"#utility.yul\":1322:1344   */\n      add\n        /* \"#utility.yul\":1301:1354   */\n      tag_74\n      jump\t// in\n    tag_103:\n        /* \"#utility.yul\":1291:1354   */\n      swap2\n      pop\n        /* \"#utility.yul\":1247:1364   */\n      pop\n        /* \"#utility.yul\":1042:1371   */\n      swap3\n      swap2\n      pop\n      pop\n      jump\t// out\n        /* \"#utility.yul\":1377:1503   */\n    tag_75:\n        /* \"#utility.yul\":1414:1421   */\n      0x00\n        /* \"#utility.yul\":1454:1496   */\n      0xffffffffffffffffffffffffffffffffffffffff\n        /* \"#utility.yul\":1447:1452   */\n      dup3\n        /* \"#utility.yul\":1443:1497   */\n      and\n        /* \"#utility.yul\":1432:1497   */\n      swap1\n      pop\n        /* \"#utility.yul\":1377:1503   */\n      swap2\n      swap1\n      pop\n      jump\t// out\n        /* \"#utility.yul\":1509:1613   */\n    tag_76:\n        /* \"#utility.yul\":1554:1561   */\n      0x00\n        /* \"#utility.yul\":1583:1607   */\n      tag_106\n        /* \"#utility.yul\":1601:1606   */\n      dup3\n        /* \"#utility.yul\":1583:1607   */\n      tag_75\n      jump\t// in\n    tag_106:\n        /* \"#utility.yul\":1572:1607   */\n      swap1\n      pop\n        /* \"#utility.yul\":1509:1613   */\n      swap2\n      swap1\n      pop\n      jump\t// out\n        /* \"#utility.yul\":1619:1761   */\n    tag_77:\n        /* \"#utility.yul\":1722:1754   */\n      tag_108\n        /* \"#utility.yul\":1748:1753   */\n      dup2\n        /* \"#utility.yul\":1722:1754   */\n      tag_76\n      jump\t// in\n    tag_108:\n        /* \"#utility.yul\":1717:1720   */\n      dup3\n        /* \"#utility.yul\":1710:1755   */\n      mstore\n        /* \"#utility.yul\":1619:1761   */\n      pop\n      pop\n      jump\t// out\n        /* \"#utility.yul\":1767:2021   */\n    tag_22:\n        /* \"#utility.yul\":1876:1880   */\n      0x00\n        /* \"#utility.yul\":1914:1916   */\n      0x20\n        /* \"#utility.yul\":1903:1912   */\n      dup3\n        /* \"#utility.yul\":1899:1917   */\n      add\n        /* \"#utility.yul\":1891:1917   */\n      swap1\n      pop\n        /* \"#utility.yul\":1927:2014   */\n      tag_110\n        /* \"#utility.yul\":2011:2012   */\n      0x00\n        /* \"#utility.yul\":2000:2009   */\n      dup4\n        /* \"#utility.yul\":1996:2013   */\n      add\n        /* \"#utility.yul\":1987:1993   */\n      dup5\n        /* \"#utility.yul\":1927:2014   */\n      tag_77\n      jump\t// in\n    tag_110:\n        /* \"#utility.yul\":1767:2021   */\n      swap3\n      swap2\n      pop\n      pop\n      jump\t// out\n        /* \"#utility.yul\":2027:2391   */\n    tag_28:\n        /* \"#utility.yul\":2164:2168   */\n      0x00\n        /* \"#utility.yul\":2202:2204   */\n      0x40\n        /* \"#utility.yul\":2191:2200   */\n      dup3\n        /* \"#utility.yul\":2187:2205   */\n      add\n        /* \"#utility.yul\":2179:2205   */\n      swap1\n      pop\n        /* \"#utility.yul\":2215:2302   */\n      tag_112\n        /* \"#utility.yul\":2299:2300   */\n      0x00\n        /* \"#utility.yul\":2288:2297   */\n      dup4\n        /* \"#utility.yul\":2284:2301   */\n      add\n        /* \"#utility.yul\":2275:2281   */\n      dup6\n        /* \"#utility.yul\":2215:2302   */\n      tag_77\n      jump\t// in\n    tag_112:\n        /* \"#utility.yul\":2312:2384   */\n      tag_113\n        /* \"#utility.yul\":2380:2382   */\n      0x20\n        /* \"#utility.yul\":2369:2378   */\n      dup4\n        /* \"#utility.yul\":2365:2383   */\n      add\n        /* \"#utility.yul\":2356:2362   */\n      dup5\n        /* \"#utility.yul\":2312:2384   */\n      tag_69\n      jump\t// in\n    tag_113:\n        /* \"#utility.yul\":2027:2391   */\n      swap4\n      swap3\n      pop\n      pop\n      pop\n      jump\t// out\n        /* \"#utility.yul\":2397:2493   */\n    tag_78:\n        /* \"#utility.yul\":2434:2441   */\n      0x00\n        /* \"#utility.yul\":2463:2487   */\n      tag_115\n        /* \"#utility.yul\":2481:2486   */\n      dup3\n        /* \"#utility.yul\":2463:2487   */\n      tag_75\n      jump\t// in\n    tag_115:\n        /* \"#utility.yul\":2452:2487   */\n      swap1\n      pop\n        /* \"#utility.yul\":2397:2493   */\n      swap2\n      swap1\n      pop\n      jump\t// out\n        /* \"#utility.yul\":2499:2617   */\n    tag_79:\n        /* \"#utility.yul\":2586:2610   */\n      tag_117\n        /* \"#utility.yul\":2604:2609   */\n      dup2\n        /* \"#utility.yul\":2586:2610   */\n      tag_78\n      jump\t// in\n    tag_117:\n        /* \"#utility.yul\":2581:2584   */\n      dup3\n        /* \"#utility.yul\":2574:2611   */\n      mstore\n        /* \"#utility.yul\":2499:2617   */\n      pop\n      pop\n      jump\t// out\n        /* \"#utility.yul\":2623:2845   */\n    tag_42:\n        /* \"#utility.yul\":2716:2720   */\n      0x00\n        /* \"#utility.yul\":2754:2756   */\n      0x20\n        /* \"#utility.yul\":2743:2752   */\n      dup3\n        /* \"#utility.yul\":2739:2757   */\n      add\n        /* \"#utility.yul\":2731:2757   */\n      swap1\n      pop\n        /* \"#utility.yul\":2767:2838   */\n      tag_119\n        /* \"#utility.yul\":2835:2836   */\n      0x00\n        /* \"#utility.yul\":2824:2833   */\n      dup4\n        /* \"#utility.yul\":2820:2837   */\n      add\n        /* \"#utility.yul\":2811:2817   */\n      dup5\n        /* \"#utility.yul\":2767:2838   */\n      tag_79\n      jump\t// in\n    tag_119:\n        /* \"#utility.yul\":2623:2845   */\n      swap3\n      swap2\n      pop\n      pop\n      jump\t// out\n        /* \"#utility.yul\":2851:3020   */\n    tag_80:\n        /* \"#utility.yul\":2935:2946   */\n      0x00\n        /* \"#utility.yul\":2969:2975   */\n      dup3\n        /* \"#utility.yul\":2964:2967   */\n      dup3\n        /* \"#utility.yul\":2957:2976   */\n      mstore\n        /* \"#utility.yul\":3009:3013   */\n      0x20\n        /* \"#utility.yul\":3004:3007   */\n      dup3\n        /* \"#utility.yul\":3000:3014   */\n      add\n        /* \"#utility.yul\":2985:3014   */\n      swap1\n      pop\n        /* \"#utility.yul\":2851:3020   */\n      swap3\n      swap2\n      pop\n      pop\n      jump\t// out\n        /* \"#utility.yul\":3026:3192   */\n    tag_81:\n        /* \"#utility.yul\":3166:3184   */\n      0x4e6f7420656e6f75676820746f6b656e00000000000000000000000000000000\n        /* \"#utility.yul\":3162:3163   */\n      0x00\n        /* \"#utility.yul\":3154:3160   */\n      dup3\n        /* \"#utility.yul\":3150:3164   */\n      add\n        /* \"#utility.yul\":3143:3185   */\n      mstore\n        /* \"#utility.yul\":3026:3192   */\n      pop\n      jump\t// out\n        /* \"#utility.yul\":3198:3564   */\n    tag_82:\n        /* \"#utility.yul\":3340:3343   */\n      0x00\n        /* \"#utility.yul\":3361:3428   */\n      tag_123\n        /* \"#utility.yul\":3425:3427   */\n      0x10\n        /* \"#utility.yul\":3420:3423   */\n      dup4\n        /* \"#utility.yul\":3361:3428   */\n      tag_80\n      jump\t// in\n    tag_123:\n        /* \"#utility.yul\":3354:3428   */\n      swap2\n      pop\n        /* \"#utility.yul\":3437:3530   */\n      tag_124\n        /* \"#utility.yul\":3526:3529   */\n      dup3\n        /* \"#utility.yul\":3437:3530   */\n      tag_81\n      jump\t// in\n    tag_124:\n        /* \"#utility.yul\":3555:3557   */\n      0x20\n        /* \"#utility.yul\":3550:3553   */\n      dup3\n        /* \"#utility.yul\":3546:3558   */\n      add\n        /* \"#utility.yul\":3539:3558   */\n      swap1\n      pop\n        /* \"#utility.yul\":3198:3564   */\n      swap2\n      swap1\n      pop\n      jump\t// out\n        /* \"#utility.yul\":3570:3989   */\n    tag_57:\n        /* \"#utility.yul\":3736:3740   */\n      0x00\n        /* \"#utility.yul\":3774:3776   */\n      0x20\n        /* \"#utility.yul\":3763:3772   */\n      dup3\n        /* \"#utility.yul\":3759:3777   */\n      add\n        /* \"#utility.yul\":3751:3777   */\n      swap1\n      pop\n        /* \"#utility.yul\":3823:3832   */\n      dup2\n        /* \"#utility.yul\":3817:3821   */\n      dup2\n        /* \"#utility.yul\":3813:3833   */\n      sub\n        /* \"#utility.yul\":3809:3810   */\n      0x00\n        /* \"#utility.yul\":3798:3807   */\n      dup4\n        /* \"#utility.yul\":3794:3811   */\n      add\n        /* \"#utility.yul\":3787:3834   */\n      mstore\n        /* \"#utility.yul\":3851:3982   */\n      tag_126\n        /* \"#utility.yul\":3977:3981   */\n      dup2\n        /* \"#utility.yul\":3851:3982   */\n      tag_82\n      jump\t// in\n    tag_126:\n        /* \"#utility.yul\":3843:3982   */\n      swap1\n      pop\n        /* \"#utility.yul\":3570:3989   */\n      swap2\n      swap1\n      pop\n      jump\t// out\n        /* \"#utility.yul\":3995:4171   */\n    tag_83:\n        /* \"#utility.yul\":4135:4163   */\n      0x4e756d626572207469636b6574206f7574206f662072616e6765000000000000\n        /* \"#utility.yul\":4131:4132   */\n      0x00\n        /* \"#utility.yul\":4123:4129   */\n      dup3\n        /* \"#utility.yul\":4119:4133   */\n      add\n        /* \"#utility.yul\":4112:4164   */\n      mstore\n        /* \"#utility.yul\":3995:4171   */\n      pop\n      jump\t// out\n        /* \"#utility.yul\":4177:4543   */\n    tag_84:\n        /* \"#utility.yul\":4319:4322   */\n      0x00\n        /* \"#utility.yul\":4340:4407   */\n      tag_129\n        /* \"#utility.yul\":4404:4406   */\n      0x1a\n        /* \"#utility.yul\":4399:4402   */\n      dup4\n        /* \"#utility.yul\":4340:4407   */\n      tag_80\n      jump\t// in\n    tag_129:\n        /* \"#utility.yul\":4333:4407   */\n      swap2\n      pop\n        /* \"#utility.yul\":4416:4509   */\n      tag_130\n        /* \"#utility.yul\":4505:4508   */\n      dup3\n        /* \"#utility.yul\":4416:4509   */\n      tag_83\n      jump\t// in\n    tag_130:\n        /* \"#utility.yul\":4534:4536   */\n      0x20\n        /* \"#utility.yul\":4529:4532   */\n      dup3\n        /* \"#utility.yul\":4525:4537   */\n      add\n        /* \"#utility.yul\":4518:4537   */\n      swap1\n      pop\n        /* \"#utility.yul\":4177:4543   */\n      swap2\n      swap1\n      pop\n      jump\t// out\n        /* \"#utility.yul\":4549:4968   */\n    tag_61:\n        /* \"#utility.yul\":4715:4719   */\n      0x00\n        /* \"#utility.yul\":4753:4755   */\n      0x20\n        /* \"#utility.yul\":4742:4751   */\n      dup3\n        /* \"#utility.yul\":4738:4756   */\n      add\n        /* \"#utility.yul\":4730:4756   */\n      swap1\n      pop\n        /* \"#utility.yul\":4802:4811   */\n      dup2\n        /* \"#utility.yul\":4796:4800   */\n      dup2\n        /* \"#utility.yul\":4792:4812   */\n      sub\n        /* \"#utility.yul\":4788:4789   */\n      0x00\n        /* \"#utility.yul\":4777:4786   */\n      dup4\n        /* \"#utility.yul\":4773:4790   */\n      add\n        /* \"#utility.yul\":4766:4813   */\n      mstore\n        /* \"#utility.yul\":4830:4961   */\n      tag_132\n        /* \"#utility.yul\":4956:4960   */\n      dup2\n        /* \"#utility.yul\":4830:4961   */\n      tag_84\n      jump\t// in\n    tag_132:\n        /* \"#utility.yul\":4822:4961   */\n      swap1\n      pop\n        /* \"#utility.yul\":4549:4968   */\n      swap2\n      swap1\n      pop\n      jump\t// out\n        /* \"#utility.yul\":4974:5154   */\n    tag_85:\n        /* \"#utility.yul\":5022:5099   */\n      0x4e487b7100000000000000000000000000000000000000000000000000000000\n        /* \"#utility.yul\":5019:5020   */\n      0x00\n        /* \"#utility.yul\":5012:5100   */\n      mstore\n        /* \"#utility.yul\":5119:5123   */\n      0x11\n        /* \"#utility.yul\":5116:5117   */\n      0x04\n        /* \"#utility.yul\":5109:5124   */\n      mstore\n        /* \"#utility.yul\":5143:5147   */\n      0x24\n        /* \"#utility.yul\":5140:5141   */\n      0x00\n        /* \"#utility.yul\":5133:5148   */\n      revert\n        /* \"#utility.yul\":5160:5393   */\n    tag_67:\n        /* \"#utility.yul\":5199:5202   */\n      0x00\n        /* \"#utility.yul\":5222:5246   */\n      tag_135\n        /* \"#utility.yul\":5240:5245   */\n      dup3\n        /* \"#utility.yul\":5222:5246   */\n      tag_68\n      jump\t// in\n    tag_135:\n        /* \"#utility.yul\":5213:5246   */\n      swap2\n      pop\n        /* \"#utility.yul\":5268:5334   */\n      0xffffffffffffffffffffffffffffffffffffffffffffffffffffffffffffffff\n        /* \"#utility.yul\":5261:5266   */\n      dup3\n        /* \"#utility.yul\":5258:5335   */\n      sub\n        /* \"#utility.yul\":5255:5358   */\n      tag_136\n      jumpi\n        /* \"#utility.yul\":5338:5356   */\n      tag_137\n      tag_85\n      jump\t// in\n    tag_137:\n        /* \"#utility.yul\":5255:5358   */\n    tag_136:\n        /* \"#utility.yul\":5385:5386   */\n      0x01\n        /* \"#utility.yul\":5378:5383   */\n      dup3\n        /* \"#utility.yul\":5374:5387   */\n      add\n        /* \"#utility.yul\":5367:5387   */\n      swap1\n      pop\n        /* \"#utility.yul\":5160:5393   */\n      swap2\n      swap1\n      pop\n      jump\t// out\n\n    auxdata: 0xa2646970667358221220f893935c9374c66feb93bb5594c8bea833b8f99153565bf3716f0c7bc35bfd8f64736f6c634300080f0033\n}\n",
				"bytecode": {
					"linkReferences": {},
					"object": "6080604052600060055534801561001557600080fd5b50610783806100256000396000f3fe60806040526004361061007b5760003560e01c80637128501f1161004e5780637128501f146101635780638da5cb5b1461018e578063a59f3e0c146101b9578063e580f47b146101d55761007b565b806312065fe014610080578063281d098d146100ab578063460e2049146100e85780636d6fe23014610126575b600080fd5b34801561008c57600080fd5b50610095610200565b6040516100a291906104b3565b60405180910390f35b3480156100b757600080fd5b506100d260048036038101906100cd91906104ff565b610208565b6040516100df919061056d565b60405180910390f35b3480156100f457600080fd5b5061010f600480360381019061010a91906104ff565b610245565b60405161011d929190610588565b60405180910390f35b34801561013257600080fd5b5061014d600480360381019061014891906104ff565b610293565b60405161015a919061056d565b60405180910390f35b34801561016f57600080fd5b506101786102c6565b60405161018591906104b3565b60405180910390f35b34801561019a57600080fd5b506101a36102d0565b6040516101b091906105d2565b60405180910390f35b6101d360048036038101906101ce91906104ff565b6102f4565b005b3480156101e157600080fd5b506101ea61047a565b6040516101f791906104b3565b60405180910390f35b600047905090565b60006002600083815260200190815260200160002060009054906101000a900473ffffffffffffffffffffffffffffffffffffffff169050919050565b60008060006004600085815260200190815260200160002090508060000160009054906101000a900473ffffffffffffffffffffffffffffffffffffffff1681600101549250925050915091565b60026020528060005260406000206000915054906101000a900473ffffffffffffffffffffffffffffffffffffffff1681565b6000600554905090565b60008054906101000a900473ffffffffffffffffffffffffffffffffffffffff1681565b60023411610337576040517f08c379a000000000000000000000000000000000000000000000000000000000815260040161032e9061064a565b60405180910390fd5b600181101580156103495750600a8111155b610388576040517f08c379a000000000000000000000000000000000000000000000000000000000815260040161037f906106b6565b60405180910390fd5b60006004600060055481526020019081526020016000209050338160000160006101000a81548173ffffffffffffffffffffffffffffffffffffffff021916908373ffffffffffffffffffffffffffffffffffffffff16021790555081816001018190555060006003600083600101548152602001908152602001600020905080600001339080600181540180825580915050600190039060005260206000200160009091909190916101000a81548173ffffffffffffffffffffffffffffffffffffffff021916908373ffffffffffffffffffffffffffffffffffffffff160217905550610475610480565b505050565b60015481565b6005600081548092919061049390610705565b9190505550565b6000819050919050565b6104ad8161049a565b82525050565b60006020820190506104c860008301846104a4565b92915050565b600080fd5b6104dc8161049a565b81146104e757600080fd5b50565b6000813590506104f9816104d3565b92915050565b600060208284031215610515576105146104ce565b5b6000610523848285016104ea565b91505092915050565b600073ffffffffffffffffffffffffffffffffffffffff82169050919050565b60006105578261052c565b9050919050565b6105678161054c565b82525050565b6000602082019050610582600083018461055e565b92915050565b600060408201905061059d600083018561055e565b6105aa60208301846104a4565b9392505050565b60006105bc8261052c565b9050919050565b6105cc816105b1565b82525050565b60006020820190506105e760008301846105c3565b92915050565b600082825260208201905092915050565b7f4e6f7420656e6f75676820746f6b656e00000000000000000000000000000000600082015250565b60006106346010836105ed565b915061063f826105fe565b602082019050919050565b6000602082019050818103600083015261066381610627565b9050919050565b7f4e756d626572207469636b6574206f7574206f662072616e6765000000000000600082015250565b60006106a0601a836105ed565b91506106ab8261066a565b602082019050919050565b600060208201905081810360008301526106cf81610693565b9050919050565b7f4e487b7100000000000000000000000000000000000000000000000000000000600052601160045260246000fd5b60006107108261049a565b91507fffffffffffffffffffffffffffffffffffffffffffffffffffffffffffffffff8203610742576107416106d6565b5b60018201905091905056fea2646970667358221220f893935c9374c66feb93bb5594c8bea833b8f99153565bf3716f0c7bc35bfd8f64736f6c634300080f0033",
					"opcodes": "PUSH1 0x80 PUSH1 0x40 MSTORE PUSH1 0x0 PUSH1 0x5 SSTORE CALLVALUE DUP1 ISZERO PUSH2 0x15 JUMPI PUSH1 0x0 DUP1 REVERT JUMPDEST POP PUSH2 0x783 DUP1 PUSH2 0x25 PUSH1 0x0 CODECOPY PUSH1 0x0 RETURN INVALID PUSH1 0x80 PUSH1 0x40 MSTORE PUSH1 0x4 CALLDATASIZE LT PUSH2 0x7B JUMPI PUSH1 0x0 CALLDATALOAD PUSH1 0xE0 SHR DUP1 PUSH4 0x7128501F GT PUSH2 0x4E JUMPI DUP1 PUSH4 0x7128501F EQ PUSH2 0x163 JUMPI DUP1 PUSH4 0x8DA5CB5B EQ PUSH2 0x18E JUMPI DUP1 PUSH4 0xA59F3E0C EQ PUSH2 0x1B9 JUMPI DUP1 PUSH4 0xE580F47B EQ PUSH2 0x1D5 JUMPI PUSH2 0x7B JUMP JUMPDEST DUP1 PUSH4 0x12065FE0 EQ PUSH2 0x80 JUMPI DUP1 PUSH4 0x281D098D EQ PUSH2 0xAB JUMPI DUP1 PUSH4 0x460E2049 EQ PUSH2 0xE8 JUMPI DUP1 PUSH4 0x6D6FE230 EQ PUSH2 0x126 JUMPI JUMPDEST PUSH1 0x0 DUP1 REVERT JUMPDEST CALLVALUE DUP1 ISZERO PUSH2 0x8C JUMPI PUSH1 0x0 DUP1 REVERT JUMPDEST POP PUSH2 0x95 PUSH2 0x200 JUMP JUMPDEST PUSH1 0x40 MLOAD PUSH2 0xA2 SWAP2 SWAP1 PUSH2 0x4B3 JUMP JUMPDEST PUSH1 0x40 MLOAD DUP1 SWAP2 SUB SWAP1 RETURN JUMPDEST CALLVALUE DUP1 ISZERO PUSH2 0xB7 JUMPI PUSH1 0x0 DUP1 REVERT JUMPDEST POP PUSH2 0xD2 PUSH1 0x4 DUP1 CALLDATASIZE SUB DUP2 ADD SWAP1 PUSH2 0xCD SWAP2 SWAP1 PUSH2 0x4FF JUMP JUMPDEST PUSH2 0x208 JUMP JUMPDEST PUSH1 0x40 MLOAD PUSH2 0xDF SWAP2 SWAP1 PUSH2 0x56D JUMP JUMPDEST PUSH1 0x40 MLOAD DUP1 SWAP2 SUB SWAP1 RETURN JUMPDEST CALLVALUE DUP1 ISZERO PUSH2 0xF4 JUMPI PUSH1 0x0 DUP1 REVERT JUMPDEST POP PUSH2 0x10F PUSH1 0x4 DUP1 CALLDATASIZE SUB DUP2 ADD SWAP1 PUSH2 0x10A SWAP2 SWAP1 PUSH2 0x4FF JUMP JUMPDEST PUSH2 0x245 JUMP JUMPDEST PUSH1 0x40 MLOAD PUSH2 0x11D SWAP3 SWAP2 SWAP1 PUSH2 0x588 JUMP JUMPDEST PUSH1 0x40 MLOAD DUP1 SWAP2 SUB SWAP1 RETURN JUMPDEST CALLVALUE DUP1 ISZERO PUSH2 0x132 JUMPI PUSH1 0x0 DUP1 REVERT JUMPDEST POP PUSH2 0x14D PUSH1 0x4 DUP1 CALLDATASIZE SUB DUP2 ADD SWAP1 PUSH2 0x148 SWAP2 SWAP1 PUSH2 0x4FF JUMP JUMPDEST PUSH2 0x293 JUMP JUMPDEST PUSH1 0x40 MLOAD PUSH2 0x15A SWAP2 SWAP1 PUSH2 0x56D JUMP JUMPDEST PUSH1 0x40 MLOAD DUP1 SWAP2 SUB SWAP1 RETURN JUMPDEST CALLVALUE DUP1 ISZERO PUSH2 0x16F JUMPI PUSH1 0x0 DUP1 REVERT JUMPDEST POP PUSH2 0x178 PUSH2 0x2C6 JUMP JUMPDEST PUSH1 0x40 MLOAD PUSH2 0x185 SWAP2 SWAP1 PUSH2 0x4B3 JUMP JUMPDEST PUSH1 0x40 MLOAD DUP1 SWAP2 SUB SWAP1 RETURN JUMPDEST CALLVALUE DUP1 ISZERO PUSH2 0x19A JUMPI PUSH1 0x0 DUP1 REVERT JUMPDEST POP PUSH2 0x1A3 PUSH2 0x2D0 JUMP JUMPDEST PUSH1 0x40 MLOAD PUSH2 0x1B0 SWAP2 SWAP1 PUSH2 0x5D2 JUMP JUMPDEST PUSH1 0x40 MLOAD DUP1 SWAP2 SUB SWAP1 RETURN JUMPDEST PUSH2 0x1D3 PUSH1 0x4 DUP1 CALLDATASIZE SUB DUP2 ADD SWAP1 PUSH2 0x1CE SWAP2 SWAP1 PUSH2 0x4FF JUMP JUMPDEST PUSH2 0x2F4 JUMP JUMPDEST STOP JUMPDEST CALLVALUE DUP1 ISZERO PUSH2 0x1E1 JUMPI PUSH1 0x0 DUP1 REVERT JUMPDEST POP PUSH2 0x1EA PUSH2 0x47A JUMP JUMPDEST PUSH1 0x40 MLOAD PUSH2 0x1F7 SWAP2 SWAP1 PUSH2 0x4B3 JUMP JUMPDEST PUSH1 0x40 MLOAD DUP1 SWAP2 SUB SWAP1 RETURN JUMPDEST PUSH1 0x0 SELFBALANCE SWAP1 POP SWAP1 JUMP JUMPDEST PUSH1 0x0 PUSH1 0x2 PUSH1 0x0 DUP4 DUP2 MSTORE PUSH1 0x20 ADD SWAP1 DUP2 MSTORE PUSH1 0x20 ADD PUSH1 0x0 KECCAK256 PUSH1 0x0 SWAP1 SLOAD SWAP1 PUSH2 0x100 EXP SWAP1 DIV PUSH20 0xFFFFFFFFFFFFFFFFFFFFFFFFFFFFFFFFFFFFFFFF AND SWAP1 POP SWAP2 SWAP1 POP JUMP JUMPDEST PUSH1 0x0 DUP1 PUSH1 0x0 PUSH1 0x4 PUSH1 0x0 DUP6 DUP2 MSTORE PUSH1 0x20 ADD SWAP1 DUP2 MSTORE PUSH1 0x20 ADD PUSH1 0x0 KECCAK256 SWAP1 POP DUP1 PUSH1 0x0 ADD PUSH1 0x0 SWAP1 SLOAD SWAP1 PUSH2 0x100 EXP SWAP1 DIV PUSH20 0xFFFFFFFFFFFFFFFFFFFFFFFFFFFFFFFFFFFFFFFF AND DUP2 PUSH1 0x1 ADD SLOAD SWAP3 POP SWAP3 POP POP SWAP2 POP SWAP2 JUMP JUMPDEST PUSH1 0x2 PUSH1 0x20 MSTORE DUP1 PUSH1 0x0 MSTORE PUSH1 0x40 PUSH1 0x0 KECCAK256 PUSH1 0x0 SWAP2 POP SLOAD SWAP1 PUSH2 0x100 EXP SWAP1 DIV PUSH20 0xFFFFFFFFFFFFFFFFFFFFFFFFFFFFFFFFFFFFFFFF AND DUP2 JUMP JUMPDEST PUSH1 0x0 PUSH1 0x5 SLOAD SWAP1 POP SWAP1 JUMP JUMPDEST PUSH1 0x0 DUP1 SLOAD SWAP1 PUSH2 0x100 EXP SWAP1 DIV PUSH20 0xFFFFFFFFFFFFFFFFFFFFFFFFFFFFFFFFFFFFFFFF AND DUP2 JUMP JUMPDEST PUSH1 0x2 CALLVALUE GT PUSH2 0x337 JUMPI PUSH1 0x40 MLOAD PUSH32 0x8C379A000000000000000000000000000000000000000000000000000000000 DUP2 MSTORE PUSH1 0x4 ADD PUSH2 0x32E SWAP1 PUSH2 0x64A JUMP JUMPDEST PUSH1 0x40 MLOAD DUP1 SWAP2 SUB SWAP1 REVERT JUMPDEST PUSH1 0x1 DUP2 LT ISZERO DUP1 ISZERO PUSH2 0x349 JUMPI POP PUSH1 0xA DUP2 GT ISZERO JUMPDEST PUSH2 0x388 JUMPI PUSH1 0x40 MLOAD PUSH32 0x8C379A000000000000000000000000000000000000000000000000000000000 DUP2 MSTORE PUSH1 0x4 ADD PUSH2 0x37F SWAP1 PUSH2 0x6B6 JUMP JUMPDEST PUSH1 0x40 MLOAD DUP1 SWAP2 SUB SWAP1 REVERT JUMPDEST PUSH1 0x0 PUSH1 0x4 PUSH1 0x0 PUSH1 0x5 SLOAD DUP2 MSTORE PUSH1 0x20 ADD SWAP1 DUP2 MSTORE PUSH1 0x20 ADD PUSH1 0x0 KECCAK256 SWAP1 POP CALLER DUP2 PUSH1 0x0 ADD PUSH1 0x0 PUSH2 0x100 EXP DUP2 SLOAD DUP2 PUSH20 0xFFFFFFFFFFFFFFFFFFFFFFFFFFFFFFFFFFFFFFFF MUL NOT AND SWAP1 DUP4 PUSH20 0xFFFFFFFFFFFFFFFFFFFFFFFFFFFFFFFFFFFFFFFF AND MUL OR SWAP1 SSTORE POP DUP2 DUP2 PUSH1 0x1 ADD DUP2 SWAP1 SSTORE POP PUSH1 0x0 PUSH1 0x3 PUSH1 0x0 DUP4 PUSH1 0x1 ADD SLOAD DUP2 MSTORE PUSH1 0x20 ADD SWAP1 DUP2 MSTORE PUSH1 0x20 ADD PUSH1 0x0 KECCAK256 SWAP1 POP DUP1 PUSH1 0x0 ADD CALLER SWAP1 DUP1 PUSH1 0x1 DUP2 SLOAD ADD DUP1 DUP3 SSTORE DUP1 SWAP2 POP POP PUSH1 0x1 SWAP1 SUB SWAP1 PUSH1 0x0 MSTORE PUSH1 0x20 PUSH1 0x0 KECCAK256 ADD PUSH1 0x0 SWAP1 SWAP2 SWAP1 SWAP2 SWAP1 SWAP2 PUSH2 0x100 EXP DUP2 SLOAD DUP2 PUSH20 0xFFFFFFFFFFFFFFFFFFFFFFFFFFFFFFFFFFFFFFFF MUL NOT AND SWAP1 DUP4 PUSH20 0xFFFFFFFFFFFFFFFFFFFFFFFFFFFFFFFFFFFFFFFF AND MUL OR SWAP1 SSTORE POP PUSH2 0x475 PUSH2 0x480 JUMP JUMPDEST POP POP POP JUMP JUMPDEST PUSH1 0x1 SLOAD DUP2 JUMP JUMPDEST PUSH1 0x5 PUSH1 0x0 DUP2 SLOAD DUP1 SWAP3 SWAP2 SWAP1 PUSH2 0x493 SWAP1 PUSH2 0x705 JUMP JUMPDEST SWAP2 SWAP1 POP SSTORE POP JUMP JUMPDEST PUSH1 0x0 DUP2 SWAP1 POP SWAP2 SWAP1 POP JUMP JUMPDEST PUSH2 0x4AD DUP2 PUSH2 0x49A JUMP JUMPDEST DUP3 MSTORE POP POP JUMP JUMPDEST PUSH1 0x0 PUSH1 0x20 DUP3 ADD SWAP1 POP PUSH2 0x4C8 PUSH1 0x0 DUP4 ADD DUP5 PUSH2 0x4A4 JUMP JUMPDEST SWAP3 SWAP2 POP POP JUMP JUMPDEST PUSH1 0x0 DUP1 REVERT JUMPDEST PUSH2 0x4DC DUP2 PUSH2 0x49A JUMP JUMPDEST DUP2 EQ PUSH2 0x4E7 JUMPI PUSH1 0x0 DUP1 REVERT JUMPDEST POP JUMP JUMPDEST PUSH1 0x0 DUP2 CALLDATALOAD SWAP1 POP PUSH2 0x4F9 DUP2 PUSH2 0x4D3 JUMP JUMPDEST SWAP3 SWAP2 POP POP JUMP JUMPDEST PUSH1 0x0 PUSH1 0x20 DUP3 DUP5 SUB SLT ISZERO PUSH2 0x515 JUMPI PUSH2 0x514 PUSH2 0x4CE JUMP JUMPDEST JUMPDEST PUSH1 0x0 PUSH2 0x523 DUP5 DUP3 DUP6 ADD PUSH2 0x4EA JUMP JUMPDEST SWAP2 POP POP SWAP3 SWAP2 POP POP JUMP JUMPDEST PUSH1 0x0 PUSH20 0xFFFFFFFFFFFFFFFFFFFFFFFFFFFFFFFFFFFFFFFF DUP3 AND SWAP1 POP SWAP2 SWAP1 POP JUMP JUMPDEST PUSH1 0x0 PUSH2 0x557 DUP3 PUSH2 0x52C JUMP JUMPDEST SWAP1 POP SWAP2 SWAP1 POP JUMP JUMPDEST PUSH2 0x567 DUP2 PUSH2 0x54C JUMP JUMPDEST DUP3 MSTORE POP POP JUMP JUMPDEST PUSH1 0x0 PUSH1 0x20 DUP3 ADD SWAP1 POP PUSH2 0x582 PUSH1 0x0 DUP4 ADD DUP5 PUSH2 0x55E JUMP JUMPDEST SWAP3 SWAP2 POP POP JUMP JUMPDEST PUSH1 0x0 PUSH1 0x40 DUP3 ADD SWAP1 POP PUSH2 0x59D PUSH1 0x0 DUP4 ADD DUP6 PUSH2 0x55E JUMP JUMPDEST PUSH2 0x5AA PUSH1 0x20 DUP4 ADD DUP5 PUSH2 0x4A4 JUMP JUMPDEST SWAP4 SWAP3 POP POP POP JUMP JUMPDEST PUSH1 0x0 PUSH2 0x5BC DUP3 PUSH2 0x52C JUMP JUMPDEST SWAP1 POP SWAP2 SWAP1 POP JUMP JUMPDEST PUSH2 0x5CC DUP2 PUSH2 0x5B1 JUMP JUMPDEST DUP3 MSTORE POP POP JUMP JUMPDEST PUSH1 0x0 PUSH1 0x20 DUP3 ADD SWAP1 POP PUSH2 0x5E7 PUSH1 0x0 DUP4 ADD DUP5 PUSH2 0x5C3 JUMP JUMPDEST SWAP3 SWAP2 POP POP JUMP JUMPDEST PUSH1 0x0 DUP3 DUP3 MSTORE PUSH1 0x20 DUP3 ADD SWAP1 POP SWAP3 SWAP2 POP POP JUMP JUMPDEST PUSH32 0x4E6F7420656E6F75676820746F6B656E00000000000000000000000000000000 PUSH1 0x0 DUP3 ADD MSTORE POP JUMP JUMPDEST PUSH1 0x0 PUSH2 0x634 PUSH1 0x10 DUP4 PUSH2 0x5ED JUMP JUMPDEST SWAP2 POP PUSH2 0x63F DUP3 PUSH2 0x5FE JUMP JUMPDEST PUSH1 0x20 DUP3 ADD SWAP1 POP SWAP2 SWAP1 POP JUMP JUMPDEST PUSH1 0x0 PUSH1 0x20 DUP3 ADD SWAP1 POP DUP2 DUP2 SUB PUSH1 0x0 DUP4 ADD MSTORE PUSH2 0x663 DUP2 PUSH2 0x627 JUMP JUMPDEST SWAP1 POP SWAP2 SWAP1 POP JUMP JUMPDEST PUSH32 0x4E756D626572207469636B6574206F7574206F662072616E6765000000000000 PUSH1 0x0 DUP3 ADD MSTORE POP JUMP JUMPDEST PUSH1 0x0 PUSH2 0x6A0 PUSH1 0x1A DUP4 PUSH2 0x5ED JUMP JUMPDEST SWAP2 POP PUSH2 0x6AB DUP3 PUSH2 0x66A JUMP JUMPDEST PUSH1 0x20 DUP3 ADD SWAP1 POP SWAP2 SWAP1 POP JUMP JUMPDEST PUSH1 0x0 PUSH1 0x20 DUP3 ADD SWAP1 POP DUP2 DUP2 SUB PUSH1 0x0 DUP4 ADD MSTORE PUSH2 0x6CF DUP2 PUSH2 0x693 JUMP JUMPDEST SWAP1 POP SWAP2 SWAP1 POP JUMP JUMPDEST PUSH32 0x4E487B7100000000000000000000000000000000000000000000000000000000 PUSH1 0x0 MSTORE PUSH1 0x11 PUSH1 0x4 MSTORE PUSH1 0x24 PUSH1 0x0 REVERT JUMPDEST PUSH1 0x0 PUSH2 0x710 DUP3 PUSH2 0x49A JUMP JUMPDEST SWAP2 POP PUSH32 0xFFFFFFFFFFFFFFFFFFFFFFFFFFFFFFFFFFFFFFFFFFFFFFFFFFFFFFFFFFFFFFFF DUP3 SUB PUSH2 0x742 JUMPI PUSH2 0x741 PUSH2 0x6D6 JUMP JUMPDEST JUMPDEST PUSH1 0x1 DUP3 ADD SWAP1 POP SWAP2 SWAP1 POP JUMP INVALID LOG2 PUSH5 0x6970667358 0x22 SLT KECCAK256 0xF8 SWAP4 SWAP4 0x5C SWAP4 PUSH21 0xC66FEB93BB5594C8BEA833B8F99153565BF3716F0C PUSH28 0xC35BFD8F64736F6C634300080F003300000000000000000000000000 "
				},
				"gasEstimates": {
					"creation": {
						"codeDepositCost": "384600",
						"executionCost": "5430",
						"totalCost": "390030"
					},
					"external": {
						"enter(uint256)": "infinite",
						"getBalance()": "340",
						"getNumberPlayer()": "2437",
						"getPlayers(uint256)": "infinite",
						"getWinnerByLottery(uint256)": "2888",
						"lotteryHistory(uint256)": "2906",
						"lotteryId()": "2495",
						"owner()": "2533"
					},
					"internal": {
						"increasePlayerCount()": "24366"
					}
				},
				"methodIdentifiers": {
					"enter(uint256)": "a59f3e0c",
					"getBalance()": "12065fe0",
					"getNumberPlayer()": "7128501f",
					"getPlayers(uint256)": "460e2049",
					"getWinnerByLottery(uint256)": "281d098d",
					"lotteryHistory(uint256)": "6d6fe230",
					"lotteryId()": "e580f47b",
					"owner()": "8da5cb5b"
				}
			},
			"storageLayout": {
				"storage": [
					{
						"astId": 3,
						"contract": "contracts/Lottery.sol:Lottery",
						"label": "owner",
						"offset": 0,
						"slot": "0",
						"type": "t_address"
					},
					{
						"astId": 5,
						"contract": "contracts/Lottery.sol:Lottery",
						"label": "lotteryId",
						"offset": 0,
						"slot": "1",
						"type": "t_uint256"
					},
					{
						"astId": 9,
						"contract": "contracts/Lottery.sol:Lottery",
						"label": "lotteryHistory",
						"offset": 0,
						"slot": "2",
						"type": "t_mapping(t_uint256,t_address_payable)"
					},
					{
						"astId": 18,
						"contract": "contracts/Lottery.sol:Lottery",
						"label": "groupTicket",
						"offset": 0,
						"slot": "3",
						"type": "t_mapping(t_uint256,t_struct(ListNumberTicket)13_storage)"
					},
					{
						"astId": 28,
						"contract": "contracts/Lottery.sol:Lottery",
						"label": "allLottery",
						"offset": 0,
						"slot": "4",
						"type": "t_mapping(t_uint256,t_struct(Participants)23_storage)"
					},
					{
						"astId": 31,
						"contract": "contracts/Lottery.sol:Lottery",
						"label": "playerCount",
						"offset": 0,
						"slot": "5",
						"type": "t_uint256"
					}
				],
				"types": {
					"t_address": {
						"encoding": "inplace",
						"label": "address",
						"numberOfBytes": "20"
					},
					"t_address_payable": {
						"encoding": "inplace",
						"label": "address payable",
						"numberOfBytes": "20"
					},
					"t_array(t_address_payable)dyn_storage": {
						"base": "t_address_payable",
						"encoding": "dynamic_array",
						"label": "address payable[]",
						"numberOfBytes": "32"
					},
					"t_mapping(t_uint256,t_address_payable)": {
						"encoding": "mapping",
						"key": "t_uint256",
						"label": "mapping(uint256 => address payable)",
						"numberOfBytes": "32",
						"value": "t_address_payable"
					},
					"t_mapping(t_uint256,t_struct(ListNumberTicket)13_storage)": {
						"encoding": "mapping",
						"key": "t_uint256",
						"label": "mapping(uint256 => struct Lottery.ListNumberTicket)",
						"numberOfBytes": "32",
						"value": "t_struct(ListNumberTicket)13_storage"
					},
					"t_mapping(t_uint256,t_struct(Participants)23_storage)": {
						"encoding": "mapping",
						"key": "t_uint256",
						"label": "mapping(uint256 => struct Lottery.Participants)",
						"numberOfBytes": "32",
						"value": "t_struct(Participants)23_storage"
					},
					"t_struct(ListNumberTicket)13_storage": {
						"encoding": "inplace",
						"label": "struct Lottery.ListNumberTicket",
						"members": [
							{
								"astId": 12,
								"contract": "contracts/Lottery.sol:Lottery",
								"label": "groupPlayer",
								"offset": 0,
								"slot": "0",
								"type": "t_array(t_address_payable)dyn_storage"
							}
						],
						"numberOfBytes": "32"
					},
					"t_struct(Participants)23_storage": {
						"encoding": "inplace",
						"label": "struct Lottery.Participants",
						"members": [
							{
								"astId": 20,
								"contract": "contracts/Lottery.sol:Lottery",
								"label": "player",
								"offset": 0,
								"slot": "0",
								"type": "t_address_payable"
							},
							{
								"astId": 22,
								"contract": "contracts/Lottery.sol:Lottery",
								"label": "numTicket",
								"offset": 0,
								"slot": "1",
								"type": "t_uint256"
							}
						],
						"numberOfBytes": "64"
					},
					"t_uint256": {
						"encoding": "inplace",
						"label": "uint256",
						"numberOfBytes": "32"
					}
				}
			},
			"userdoc": {
				"kind": "user",
				"methods": {},
				"version": 1
			}
		}
	}
}