{
	"contracts/Lottery.sol": {
		"Lottery": {
			"abi": [
				{
					"inputs": [
						{
							"internalType": "address",
							"name": "have",
							"type": "address"
						},
						{
							"internalType": "address",
							"name": "want",
							"type": "address"
						}
					],
					"name": "OnlyCoordinatorCanFulfill",
					"type": "error"
				},
				{
					"inputs": [],
					"name": "closeLottery",
					"outputs": [],
					"stateMutability": "nonpayable",
					"type": "function"
				},
				{
					"inputs": [
						{
							"internalType": "uint256",
							"name": "_numTicket",
							"type": "uint256"
						}
					],
					"name": "enter",
					"outputs": [],
					"stateMutability": "payable",
					"type": "function"
				},
				{
					"inputs": [],
					"name": "getAmountPlayer",
					"outputs": [
						{
							"internalType": "uint256",
							"name": "",
							"type": "uint256"
						}
					],
					"stateMutability": "view",
					"type": "function"
				},
				{
					"inputs": [],
					"name": "getBalance",
					"outputs": [
						{
							"internalType": "uint256",
							"name": "",
							"type": "uint256"
						}
					],
					"stateMutability": "view",
					"type": "function"
				},
				{
					"inputs": [
						{
							"internalType": "uint256",
							"name": "_index",
							"type": "uint256"
						}
					],
					"name": "getPlayers",
					"outputs": [
						{
							"internalType": "address payable",
							"name": "",
							"type": "address"
						},
						{
							"internalType": "uint256",
							"name": "",
							"type": "uint256"
						}
					],
					"stateMutability": "view",
					"type": "function"
				},
				{
					"inputs": [
						{
							"internalType": "uint256",
							"name": "lottery",
							"type": "uint256"
						}
					],
					"name": "getWinnerByLottery",
					"outputs": [
						{
							"internalType": "address payable",
							"name": "",
							"type": "address"
						}
					],
					"stateMutability": "view",
					"type": "function"
				},
				{
					"inputs": [
						{
							"internalType": "uint256",
							"name": "",
							"type": "uint256"
						}
					],
					"name": "lotteryHistory",
					"outputs": [
						{
							"internalType": "address payable",
							"name": "",
							"type": "address"
						}
					],
					"stateMutability": "view",
					"type": "function"
				},
				{
					"inputs": [],
					"name": "lotteryId",
					"outputs": [
						{
							"internalType": "uint256",
							"name": "",
							"type": "uint256"
						}
					],
					"stateMutability": "view",
					"type": "function"
				},
				{
					"inputs": [
						{
							"internalType": "uint256",
							"name": "requestId",
							"type": "uint256"
						},
						{
							"internalType": "uint256[]",
							"name": "randomWords",
							"type": "uint256[]"
						}
					],
					"name": "rawFulfillRandomWords",
					"outputs": [],
					"stateMutability": "nonpayable",
					"type": "function"
				},
				{
					"inputs": [
						{
							"internalType": "uint256",
							"name": "",
							"type": "uint256"
						}
					],
					"name": "s_randomWords",
					"outputs": [
						{
							"internalType": "uint256",
							"name": "",
							"type": "uint256"
						}
					],
					"stateMutability": "view",
					"type": "function"
				},
				{
					"inputs": [],
					"name": "s_requestId",
					"outputs": [
						{
							"internalType": "uint256",
							"name": "",
							"type": "uint256"
						}
					],
					"stateMutability": "view",
					"type": "function"
				}
			],
			"devdoc": {
				"kind": "dev",
				"methods": {},
				"version": 1
			},
			"evm": {
				"assembly": "    /* \"contracts/Lottery.sol\":426:4268  contract Lottery is VRFConsumerBaseV2(0x6168499c0cFfCaCD319c818142124B7A15E857ab) {... */\n  mstore(0x40, 0xa0)\n    /* \"contracts/Lottery.sol\":1015:1021  100000 */\n  0x0186a0\n    /* \"contracts/Lottery.sol\":989:1021  uint32 callbackGasLimit = 100000 */\n  0x00\n  dup1\n  0x0100\n  exp\n  dup2\n  sload\n  dup2\n  0xffffffff\n  mul\n  not\n  and\n  swap1\n  dup4\n  0xffffffff\n  and\n  mul\n  or\n  swap1\n  sstore\n  pop\n    /* \"contracts/Lottery.sol\":1112:1113  3 */\n  0x03\n    /* \"contracts/Lottery.sol\":1082:1113  uint16 requestConfirmations = 3 */\n  0x00\n  exp(0x0100, 0x04)\n  dup2\n  sload\n  dup2\n  0xffff\n  mul\n  not\n  and\n  swap1\n  dup4\n  0xffff\n  and\n  mul\n  or\n  swap1\n  sstore\n  pop\n    /* \"contracts/Lottery.sol\":1258:1259  2 */\n  0x02\n    /* \"contracts/Lottery.sol\":1239:1259  uint32 numWords =  2 */\n  0x00\n  exp(0x0100, 0x06)\n  dup2\n  sload\n  dup2\n  0xffffffff\n  mul\n  not\n  and\n  swap1\n  dup4\n  0xffffffff\n  and\n  mul\n  or\n  swap1\n  sstore\n  pop\n    /* \"contracts/Lottery.sol\":1352:1362  msg.sender */\n  caller\n    /* \"contracts/Lottery.sol\":1334:1362  address s_owner = msg.sender */\n  0x03\n  exp(0x0100, 0x00)\n  dup2\n  sload\n  dup2\n  0xffffffffffffffffffffffffffffffffffffffff\n  mul\n  not\n  and\n  swap1\n  dup4\n  0xffffffffffffffffffffffffffffffffffffffff\n  and\n  mul\n  or\n  swap1\n  sstore\n  pop\n    /* \"contracts/Lottery.sol\":1773:1774  0 */\n  0x00\n    /* \"contracts/Lottery.sol\":1745:1774  uint internal playerCount = 0 */\n  0x08\n  sstore\n    /* \"contracts/Lottery.sol\":426:4268  contract Lottery is VRFConsumerBaseV2(0x6168499c0cFfCaCD319c818142124B7A15E857ab) {... */\n  callvalue\n  dup1\n  iszero\n  tag_1\n  jumpi\n  0x00\n  dup1\n  revert\ntag_1:\n  pop\n    /* \"contracts/Lottery.sol\":464:506  0x6168499c0cFfCaCD319c818142124B7A15E857ab */\n  0x6168499c0cffcacd319c818142124b7a15e857ab\n    /* \"@chainlink/contracts/src/v0.8/VRFConsumerBaseV2.sol\":5616:5631  _vrfCoordinator */\n  dup1\n    /* \"@chainlink/contracts/src/v0.8/VRFConsumerBaseV2.sol\":5599:5631  vrfCoordinator = _vrfCoordinator */\n  0xffffffffffffffffffffffffffffffffffffffff\n  and\n  0x80\n  dup2\n  0xffffffffffffffffffffffffffffffffffffffff\n  and\n  dup2\n  mstore\n  pop\n  pop\n    /* \"@chainlink/contracts/src/v0.8/VRFConsumerBaseV2.sol\":5556:5636  constructor(address _vrfCoordinator) {... */\n  pop\n    /* \"contracts/Lottery.sol\":426:4268  contract Lottery is VRFConsumerBaseV2(0x6168499c0cFfCaCD319c818142124B7A15E857ab) {... */\n  mload(0x80)\n  codecopy(0x00, dataOffset(sub_0), dataSize(sub_0))\n  0x00\n  assignImmutable(\"0x1a192fabce13988b84994d4296e6cdc418d55e2f1d7f942188d4040b94fc57ac\")\n  return(0x00, dataSize(sub_0))\nstop\n\nsub_0: assembly {\n        /* \"contracts/Lottery.sol\":426:4268  contract Lottery is VRFConsumerBaseV2(0x6168499c0cFfCaCD319c818142124B7A15E857ab) {... */\n      mstore(0x40, 0x80)\n      jumpi(tag_1, lt(calldatasize, 0x04))\n      shr(0xe0, calldataload(0x00))\n      dup1\n      0x6d6fe230\n      gt\n      tag_13\n      jumpi\n      dup1\n      0x6d6fe230\n      eq\n      tag_7\n      jumpi\n      dup1\n      0x6fd09816\n      eq\n      tag_8\n      jumpi\n      dup1\n      0xa59f3e0c\n      eq\n      tag_9\n      jumpi\n      dup1\n      0xe580f47b\n      eq\n      tag_10\n      jumpi\n      dup1\n      0xe89e106a\n      eq\n      tag_11\n      jumpi\n      dup1\n      0xf6eaffc8\n      eq\n      tag_12\n      jumpi\n      jump(tag_1)\n    tag_13:\n      dup1\n      0x12065fe0\n      eq\n      tag_2\n      jumpi\n      dup1\n      0x1fe543e3\n      eq\n      tag_3\n      jumpi\n      dup1\n      0x281d098d\n      eq\n      tag_4\n      jumpi\n      dup1\n      0x32eb85a4\n      eq\n      tag_5\n      jumpi\n      dup1\n      0x460e2049\n      eq\n      tag_6\n      jumpi\n    tag_1:\n      0x00\n      dup1\n      revert\n        /* \"contracts/Lottery.sol\":2049:2131  function getBalance() public view returns (uint) {... */\n    tag_2:\n      callvalue\n      dup1\n      iszero\n      tag_14\n      jumpi\n      0x00\n      dup1\n      revert\n    tag_14:\n      pop\n      tag_15\n      tag_16\n      jump\t// in\n    tag_15:\n      mload(0x40)\n      tag_17\n      swap2\n      swap1\n      tag_18\n      jump\t// in\n    tag_17:\n      mload(0x40)\n      dup1\n      swap2\n      sub\n      swap1\n      return\n        /* \"@chainlink/contracts/src/v0.8/VRFConsumerBaseV2.sol\":6618:6874  function rawFulfillRandomWords(uint256 requestId, uint256[] memory randomWords) external {... */\n    tag_3:\n      callvalue\n      dup1\n      iszero\n      tag_19\n      jumpi\n      0x00\n      dup1\n      revert\n    tag_19:\n      pop\n      tag_20\n      0x04\n      dup1\n      calldatasize\n      sub\n      dup2\n      add\n      swap1\n      tag_21\n      swap2\n      swap1\n      tag_22\n      jump\t// in\n    tag_21:\n      tag_23\n      jump\t// in\n    tag_20:\n      stop\n        /* \"contracts/Lottery.sol\":1916:2043  function getWinnerByLottery(uint lottery) public view returns (address payable) {... */\n    tag_4:\n      callvalue\n      dup1\n      iszero\n      tag_24\n      jumpi\n      0x00\n      dup1\n      revert\n    tag_24:\n      pop\n      tag_25\n      0x04\n      dup1\n      calldatasize\n      sub\n      dup2\n      add\n      swap1\n      tag_26\n      swap2\n      swap1\n      tag_27\n      jump\t// in\n    tag_26:\n      tag_28\n      jump\t// in\n    tag_25:\n      mload(0x40)\n      tag_29\n      swap2\n      swap1\n      tag_30\n      jump\t// in\n    tag_29:\n      mload(0x40)\n      dup1\n      swap2\n      sub\n      swap1\n      return\n        /* \"contracts/Lottery.sol\":2387:2475  function getAmountPlayer() public view returns (uint){... */\n    tag_5:\n      callvalue\n      dup1\n      iszero\n      tag_31\n      jumpi\n      0x00\n      dup1\n      revert\n    tag_31:\n      pop\n      tag_32\n      tag_33\n      jump\t// in\n    tag_32:\n      mload(0x40)\n      tag_34\n      swap2\n      swap1\n      tag_18\n      jump\t// in\n    tag_34:\n      mload(0x40)\n      dup1\n      swap2\n      sub\n      swap1\n      return\n        /* \"contracts/Lottery.sol\":2137:2377  function getPlayers(uint _index) public view returns (address payable, uint) {... */\n    tag_6:\n      callvalue\n      dup1\n      iszero\n      tag_35\n      jumpi\n      0x00\n      dup1\n      revert\n    tag_35:\n      pop\n      tag_36\n      0x04\n      dup1\n      calldatasize\n      sub\n      dup2\n      add\n      swap1\n      tag_37\n      swap2\n      swap1\n      tag_27\n      jump\t// in\n    tag_37:\n      tag_38\n      jump\t// in\n    tag_36:\n      mload(0x40)\n      tag_39\n      swap3\n      swap2\n      swap1\n      tag_40\n      jump\t// in\n    tag_39:\n      mload(0x40)\n      dup1\n      swap2\n      sub\n      swap1\n      return\n        /* \"contracts/Lottery.sol\":1400:1455  mapping (uint => address payable) public lotteryHistory */\n    tag_7:\n      callvalue\n      dup1\n      iszero\n      tag_41\n      jumpi\n      0x00\n      dup1\n      revert\n    tag_41:\n      pop\n      tag_42\n      0x04\n      dup1\n      calldatasize\n      sub\n      dup2\n      add\n      swap1\n      tag_43\n      swap2\n      swap1\n      tag_27\n      jump\t// in\n    tag_43:\n      tag_44\n      jump\t// in\n    tag_42:\n      mload(0x40)\n      tag_45\n      swap2\n      swap1\n      tag_30\n      jump\t// in\n    tag_45:\n      mload(0x40)\n      dup1\n      swap2\n      sub\n      swap1\n      return\n        /* \"contracts/Lottery.sol\":3923:4092  function closeLottery() external onlyOwner{... */\n    tag_8:\n      callvalue\n      dup1\n      iszero\n      tag_46\n      jumpi\n      0x00\n      dup1\n      revert\n    tag_46:\n      pop\n      tag_47\n      tag_48\n      jump\t// in\n    tag_47:\n      stop\n        /* \"contracts/Lottery.sol\":2480:3029  function enter(uint _numTicket) public payable {... */\n    tag_9:\n      tag_49\n      0x04\n      dup1\n      calldatasize\n      sub\n      dup2\n      add\n      swap1\n      tag_50\n      swap2\n      swap1\n      tag_27\n      jump\t// in\n    tag_50:\n      tag_51\n      jump\t// in\n    tag_49:\n      stop\n        /* \"contracts/Lottery.sol\":1373:1394  uint public lotteryId */\n    tag_10:\n      callvalue\n      dup1\n      iszero\n      tag_52\n      jumpi\n      0x00\n      dup1\n      revert\n    tag_52:\n      pop\n      tag_53\n      tag_54\n      jump\t// in\n    tag_53:\n      mload(0x40)\n      tag_55\n      swap2\n      swap1\n      tag_18\n      jump\t// in\n    tag_55:\n      mload(0x40)\n      dup1\n      swap2\n      sub\n      swap1\n      return\n        /* \"contracts/Lottery.sol\":1302:1328  uint256 public s_requestId */\n    tag_11:\n      callvalue\n      dup1\n      iszero\n      tag_56\n      jumpi\n      0x00\n      dup1\n      revert\n    tag_56:\n      pop\n      tag_57\n      tag_58\n      jump\t// in\n    tag_57:\n      mload(0x40)\n      tag_59\n      swap2\n      swap1\n      tag_18\n      jump\t// in\n    tag_59:\n      mload(0x40)\n      dup1\n      swap2\n      sub\n      swap1\n      return\n        /* \"contracts/Lottery.sol\":1266:1296  uint256[] public s_randomWords */\n    tag_12:\n      callvalue\n      dup1\n      iszero\n      tag_60\n      jumpi\n      0x00\n      dup1\n      revert\n    tag_60:\n      pop\n      tag_61\n      0x04\n      dup1\n      calldatasize\n      sub\n      dup2\n      add\n      swap1\n      tag_62\n      swap2\n      swap1\n      tag_27\n      jump\t// in\n    tag_62:\n      tag_63\n      jump\t// in\n    tag_61:\n      mload(0x40)\n      tag_64\n      swap2\n      swap1\n      tag_18\n      jump\t// in\n    tag_64:\n      mload(0x40)\n      dup1\n      swap2\n      sub\n      swap1\n      return\n        /* \"contracts/Lottery.sol\":2049:2131  function getBalance() public view returns (uint) {... */\n    tag_16:\n        /* \"contracts/Lottery.sol\":2092:2096  uint */\n      0x00\n        /* \"contracts/Lottery.sol\":2115:2124  prizePool */\n      sload(0x09)\n        /* \"contracts/Lottery.sol\":2108:2124  return prizePool */\n      swap1\n      pop\n        /* \"contracts/Lottery.sol\":2049:2131  function getBalance() public view returns (uint) {... */\n      swap1\n      jump\t// out\n        /* \"@chainlink/contracts/src/v0.8/VRFConsumerBaseV2.sol\":6618:6874  function rawFulfillRandomWords(uint256 requestId, uint256[] memory randomWords) external {... */\n    tag_23:\n        /* \"@chainlink/contracts/src/v0.8/VRFConsumerBaseV2.sol\":6731:6745  vrfCoordinator */\n      immutable(\"0x1a192fabce13988b84994d4296e6cdc418d55e2f1d7f942188d4040b94fc57ac\")\n        /* \"@chainlink/contracts/src/v0.8/VRFConsumerBaseV2.sol\":6717:6745  msg.sender != vrfCoordinator */\n      0xffffffffffffffffffffffffffffffffffffffff\n      and\n        /* \"@chainlink/contracts/src/v0.8/VRFConsumerBaseV2.sol\":6717:6727  msg.sender */\n      caller\n        /* \"@chainlink/contracts/src/v0.8/VRFConsumerBaseV2.sol\":6717:6745  msg.sender != vrfCoordinator */\n      0xffffffffffffffffffffffffffffffffffffffff\n      and\n      eq\n        /* \"@chainlink/contracts/src/v0.8/VRFConsumerBaseV2.sol\":6713:6822  if (msg.sender != vrfCoordinator) {... */\n      tag_67\n      jumpi\n        /* \"@chainlink/contracts/src/v0.8/VRFConsumerBaseV2.sol\":6788:6798  msg.sender */\n      caller\n        /* \"@chainlink/contracts/src/v0.8/VRFConsumerBaseV2.sol\":6800:6814  vrfCoordinator */\n      immutable(\"0x1a192fabce13988b84994d4296e6cdc418d55e2f1d7f942188d4040b94fc57ac\")\n        /* \"@chainlink/contracts/src/v0.8/VRFConsumerBaseV2.sol\":6762:6815  OnlyCoordinatorCanFulfill(msg.sender, vrfCoordinator) */\n      mload(0x40)\n      0x1cf993f400000000000000000000000000000000000000000000000000000000\n      dup2\n      mstore\n      0x04\n      add\n      tag_68\n      swap3\n      swap2\n      swap1\n      tag_69\n      jump\t// in\n    tag_68:\n      mload(0x40)\n      dup1\n      swap2\n      sub\n      swap1\n      revert\n        /* \"@chainlink/contracts/src/v0.8/VRFConsumerBaseV2.sol\":6713:6822  if (msg.sender != vrfCoordinator) {... */\n    tag_67:\n        /* \"@chainlink/contracts/src/v0.8/VRFConsumerBaseV2.sol\":6827:6869  fulfillRandomWords(requestId, randomWords) */\n      tag_70\n        /* \"@chainlink/contracts/src/v0.8/VRFConsumerBaseV2.sol\":6846:6855  requestId */\n      dup3\n        /* \"@chainlink/contracts/src/v0.8/VRFConsumerBaseV2.sol\":6857:6868  randomWords */\n      dup3\n        /* \"@chainlink/contracts/src/v0.8/VRFConsumerBaseV2.sol\":6827:6845  fulfillRandomWords */\n      tag_71\n        /* \"@chainlink/contracts/src/v0.8/VRFConsumerBaseV2.sol\":6827:6869  fulfillRandomWords(requestId, randomWords) */\n      jump\t// in\n    tag_70:\n        /* \"@chainlink/contracts/src/v0.8/VRFConsumerBaseV2.sol\":6618:6874  function rawFulfillRandomWords(uint256 requestId, uint256[] memory randomWords) external {... */\n      pop\n      pop\n      jump\t// out\n        /* \"contracts/Lottery.sol\":1916:2043  function getWinnerByLottery(uint lottery) public view returns (address payable) {... */\n    tag_28:\n        /* \"contracts/Lottery.sol\":1979:1994  address payable */\n      0x00\n        /* \"contracts/Lottery.sol\":2013:2027  lotteryHistory */\n      0x05\n        /* \"contracts/Lottery.sol\":2013:2036  lotteryHistory[lottery] */\n      0x00\n        /* \"contracts/Lottery.sol\":2028:2035  lottery */\n      dup4\n        /* \"contracts/Lottery.sol\":2013:2036  lotteryHistory[lottery] */\n      dup2\n      mstore\n      0x20\n      add\n      swap1\n      dup2\n      mstore\n      0x20\n      add\n      0x00\n      keccak256\n      0x00\n      swap1\n      sload\n      swap1\n      0x0100\n      exp\n      swap1\n      div\n      0xffffffffffffffffffffffffffffffffffffffff\n      and\n        /* \"contracts/Lottery.sol\":2006:2036  return lotteryHistory[lottery] */\n      swap1\n      pop\n        /* \"contracts/Lottery.sol\":1916:2043  function getWinnerByLottery(uint lottery) public view returns (address payable) {... */\n      swap2\n      swap1\n      pop\n      jump\t// out\n        /* \"contracts/Lottery.sol\":2387:2475  function getAmountPlayer() public view returns (uint){... */\n    tag_33:\n        /* \"contracts/Lottery.sol\":2435:2439  uint */\n      0x00\n        /* \"contracts/Lottery.sol\":2457:2468  playerCount */\n      sload(0x08)\n        /* \"contracts/Lottery.sol\":2450:2468  return playerCount */\n      swap1\n      pop\n        /* \"contracts/Lottery.sol\":2387:2475  function getAmountPlayer() public view returns (uint){... */\n      swap1\n      jump\t// out\n        /* \"contracts/Lottery.sol\":2137:2377  function getPlayers(uint _index) public view returns (address payable, uint) {... */\n    tag_38:\n        /* \"contracts/Lottery.sol\":2191:2206  address payable */\n      0x00\n        /* \"contracts/Lottery.sol\":2208:2212  uint */\n      dup1\n        /* \"contracts/Lottery.sol\":2224:2256  Participants storage participant */\n      0x00\n        /* \"contracts/Lottery.sol\":2259:2269  allLottery */\n      0x07\n        /* \"contracts/Lottery.sol\":2259:2277  allLottery[_index] */\n      0x00\n        /* \"contracts/Lottery.sol\":2270:2276  _index */\n      dup6\n        /* \"contracts/Lottery.sol\":2259:2277  allLottery[_index] */\n      dup2\n      mstore\n      0x20\n      add\n      swap1\n      dup2\n      mstore\n      0x20\n      add\n      0x00\n      keccak256\n        /* \"contracts/Lottery.sol\":2224:2277  Participants storage participant = allLottery[_index] */\n      swap1\n      pop\n        /* \"contracts/Lottery.sol\":2307:2318  participant */\n      dup1\n        /* \"contracts/Lottery.sol\":2307:2325  participant.player */\n      0x00\n      add\n      0x00\n      swap1\n      sload\n      swap1\n      0x0100\n      exp\n      swap1\n      div\n      0xffffffffffffffffffffffffffffffffffffffff\n      and\n        /* \"contracts/Lottery.sol\":2339:2350  participant */\n      dup2\n        /* \"contracts/Lottery.sol\":2339:2360  participant.numTicket */\n      0x01\n      add\n      sload\n        /* \"contracts/Lottery.sol\":2287:2370  return(... */\n      swap3\n      pop\n      swap3\n      pop\n      pop\n        /* \"contracts/Lottery.sol\":2137:2377  function getPlayers(uint _index) public view returns (address payable, uint) {... */\n      swap2\n      pop\n      swap2\n      jump\t// out\n        /* \"contracts/Lottery.sol\":1400:1455  mapping (uint => address payable) public lotteryHistory */\n    tag_44:\n      mstore(0x20, 0x05)\n      dup1\n      0x00\n      mstore\n      keccak256(0x00, 0x40)\n      0x00\n      swap2\n      pop\n      sload\n      swap1\n      0x0100\n      exp\n      swap1\n      div\n      0xffffffffffffffffffffffffffffffffffffffff\n      and\n      dup2\n      jump\t// out\n        /* \"contracts/Lottery.sol\":3923:4092  function closeLottery() external onlyOwner{... */\n    tag_48:\n        /* \"contracts/Lottery.sol\":4242:4249  s_owner */\n      0x03\n      0x00\n      swap1\n      sload\n      swap1\n      0x0100\n      exp\n      swap1\n      div\n      0xffffffffffffffffffffffffffffffffffffffff\n      and\n        /* \"contracts/Lottery.sol\":4228:4249  msg.sender == s_owner */\n      0xffffffffffffffffffffffffffffffffffffffff\n      and\n        /* \"contracts/Lottery.sol\":4228:4238  msg.sender */\n      caller\n        /* \"contracts/Lottery.sol\":4228:4249  msg.sender == s_owner */\n      0xffffffffffffffffffffffffffffffffffffffff\n      and\n      eq\n        /* \"contracts/Lottery.sol\":4220:4250  require(msg.sender == s_owner) */\n      tag_76\n      jumpi\n      0x00\n      dup1\n      revert\n    tag_76:\n        /* \"contracts/Lottery.sol\":3975:3995  requestRandomWords() */\n      tag_78\n        /* \"contracts/Lottery.sol\":3975:3993  requestRandomWords */\n      tag_79\n        /* \"contracts/Lottery.sol\":3975:3995  requestRandomWords() */\n      jump\t// in\n    tag_78:\n        /* \"contracts/Lottery.sol\":4005:4024  uint256 winnerPrize */\n      0x00\n        /* \"contracts/Lottery.sol\":4040:4051  groupTicket */\n      0x06\n        /* \"contracts/Lottery.sol\":4040:4064  groupTicket[luckyNumber] */\n      0x00\n        /* \"contracts/Lottery.sol\":4052:4063  luckyNumber */\n      sload(0x0a)\n        /* \"contracts/Lottery.sol\":4040:4064  groupTicket[luckyNumber] */\n      dup2\n      mstore\n      0x20\n      add\n      swap1\n      dup2\n      mstore\n      0x20\n      add\n      0x00\n      keccak256\n        /* \"contracts/Lottery.sol\":4040:4076  groupTicket[luckyNumber].groupPlayer */\n      0x00\n      add\n        /* \"contracts/Lottery.sol\":4040:4083  groupTicket[luckyNumber].groupPlayer.length */\n      dup1\n      sload\n      swap1\n      pop\n        /* \"contracts/Lottery.sol\":4027:4036  prizePool */\n      sload(0x09)\n        /* \"contracts/Lottery.sol\":4027:4084  prizePool / (groupTicket[luckyNumber].groupPlayer.length) */\n      tag_80\n      swap2\n      swap1\n      tag_81\n      jump\t// in\n    tag_80:\n        /* \"contracts/Lottery.sol\":4005:4084  uint256 winnerPrize = prizePool / (groupTicket[luckyNumber].groupPlayer.length) */\n      swap1\n      pop\n        /* \"contracts/Lottery.sol\":3965:4092  {... */\n      pop\n        /* \"contracts/Lottery.sol\":3923:4092  function closeLottery() external onlyOwner{... */\n      jump\t// out\n        /* \"contracts/Lottery.sol\":2480:3029  function enter(uint _numTicket) public payable {... */\n    tag_51:\n        /* \"contracts/Lottery.sol\":2557:2562  2 wei */\n      0x02\n        /* \"contracts/Lottery.sol\":2545:2554  msg.value */\n      callvalue\n        /* \"contracts/Lottery.sol\":2545:2562  msg.value > 2 wei */\n      gt\n        /* \"contracts/Lottery.sol\":2537:2583  require(msg.value > 2 wei, \"Not enough token\") */\n      tag_83\n      jumpi\n      mload(0x40)\n      0x08c379a000000000000000000000000000000000000000000000000000000000\n      dup2\n      mstore\n      0x04\n      add\n      tag_84\n      swap1\n      tag_85\n      jump\t// in\n    tag_84:\n      mload(0x40)\n      dup1\n      swap2\n      sub\n      swap1\n      revert\n    tag_83:\n        /* \"contracts/Lottery.sol\":2606:2615  msg.value */\n      callvalue\n        /* \"contracts/Lottery.sol\":2593:2602  prizePool */\n      0x09\n      0x00\n        /* \"contracts/Lottery.sol\":2593:2615  prizePool += msg.value */\n      dup3\n      dup3\n      sload\n      tag_86\n      swap2\n      swap1\n      tag_87\n      jump\t// in\n    tag_86:\n      swap3\n      pop\n      pop\n      dup2\n      swap1\n      sstore\n      pop\n        /* \"contracts/Lottery.sol\":2647:2648  1 */\n      0x01\n        /* \"contracts/Lottery.sol\":2633:2643  _numTicket */\n      dup2\n        /* \"contracts/Lottery.sol\":2633:2648  _numTicket >= 1 */\n      lt\n      iszero\n        /* \"contracts/Lottery.sol\":2633:2668  _numTicket >= 1 && _numTicket <= 10 */\n      dup1\n      iszero\n      tag_88\n      jumpi\n      pop\n        /* \"contracts/Lottery.sol\":2666:2668  10 */\n      0x0a\n        /* \"contracts/Lottery.sol\":2652:2662  _numTicket */\n      dup2\n        /* \"contracts/Lottery.sol\":2652:2668  _numTicket <= 10 */\n      gt\n      iszero\n        /* \"contracts/Lottery.sol\":2633:2668  _numTicket >= 1 && _numTicket <= 10 */\n    tag_88:\n        /* \"contracts/Lottery.sol\":2625:2699  require(_numTicket >= 1 && _numTicket <= 10, \"Number ticket out of range\") */\n      tag_89\n      jumpi\n      mload(0x40)\n      0x08c379a000000000000000000000000000000000000000000000000000000000\n      dup2\n      mstore\n      0x04\n      add\n      tag_90\n      swap1\n      tag_91\n      jump\t// in\n    tag_90:\n      mload(0x40)\n      dup1\n      swap2\n      sub\n      swap1\n      revert\n    tag_89:\n        /* \"contracts/Lottery.sol\":2709:2739  Participants storage newPlayer */\n      0x00\n        /* \"contracts/Lottery.sol\":2742:2752  allLottery */\n      0x07\n        /* \"contracts/Lottery.sol\":2742:2765  allLottery[playerCount] */\n      0x00\n        /* \"contracts/Lottery.sol\":2753:2764  playerCount */\n      sload(0x08)\n        /* \"contracts/Lottery.sol\":2742:2765  allLottery[playerCount] */\n      dup2\n      mstore\n      0x20\n      add\n      swap1\n      dup2\n      mstore\n      0x20\n      add\n      0x00\n      keccak256\n        /* \"contracts/Lottery.sol\":2709:2765  Participants storage newPlayer = allLottery[playerCount] */\n      swap1\n      pop\n        /* \"contracts/Lottery.sol\":2802:2812  msg.sender */\n      caller\n        /* \"contracts/Lottery.sol\":2775:2784  newPlayer */\n      dup2\n        /* \"contracts/Lottery.sol\":2775:2791  newPlayer.player */\n      0x00\n      add\n      0x00\n        /* \"contracts/Lottery.sol\":2775:2813  newPlayer.player = payable(msg.sender) */\n      0x0100\n      exp\n      dup2\n      sload\n      dup2\n      0xffffffffffffffffffffffffffffffffffffffff\n      mul\n      not\n      and\n      swap1\n      dup4\n      0xffffffffffffffffffffffffffffffffffffffff\n      and\n      mul\n      or\n      swap1\n      sstore\n      pop\n        /* \"contracts/Lottery.sol\":2845:2855  _numTicket */\n      dup2\n        /* \"contracts/Lottery.sol\":2823:2832  newPlayer */\n      dup2\n        /* \"contracts/Lottery.sol\":2823:2842  newPlayer.numTicket */\n      0x01\n      add\n        /* \"contracts/Lottery.sol\":2823:2855  newPlayer.numTicket = _numTicket */\n      dup2\n      swap1\n      sstore\n      pop\n        /* \"contracts/Lottery.sol\":2865:2899  ListNumberTicket storage addTicket */\n      0x00\n        /* \"contracts/Lottery.sol\":2902:2913  groupTicket */\n      0x06\n        /* \"contracts/Lottery.sol\":2902:2934  groupTicket[newPlayer.numTicket] */\n      0x00\n        /* \"contracts/Lottery.sol\":2914:2923  newPlayer */\n      dup4\n        /* \"contracts/Lottery.sol\":2914:2933  newPlayer.numTicket */\n      0x01\n      add\n      sload\n        /* \"contracts/Lottery.sol\":2902:2934  groupTicket[newPlayer.numTicket] */\n      dup2\n      mstore\n      0x20\n      add\n      swap1\n      dup2\n      mstore\n      0x20\n      add\n      0x00\n      keccak256\n        /* \"contracts/Lottery.sol\":2865:2934  ListNumberTicket storage addTicket = groupTicket[newPlayer.numTicket] */\n      swap1\n      pop\n        /* \"contracts/Lottery.sol\":2944:2953  addTicket */\n      dup1\n        /* \"contracts/Lottery.sol\":2944:2965  addTicket.groupPlayer */\n      0x00\n      add\n        /* \"contracts/Lottery.sol\":2979:2989  msg.sender */\n      caller\n        /* \"contracts/Lottery.sol\":2944:2991  addTicket.groupPlayer.push(payable(msg.sender)) */\n      swap1\n      dup1\n      0x01\n      dup2\n      sload\n      add\n      dup1\n      dup3\n      sstore\n      dup1\n      swap2\n      pop\n      pop\n      0x01\n      swap1\n      sub\n      swap1\n      0x00\n      mstore\n      keccak256(0x00, 0x20)\n      add\n      0x00\n      swap1\n      swap2\n      swap1\n      swap2\n      swap1\n      swap2\n      0x0100\n      exp\n      dup2\n      sload\n      dup2\n      0xffffffffffffffffffffffffffffffffffffffff\n      mul\n      not\n      and\n      swap1\n      dup4\n      0xffffffffffffffffffffffffffffffffffffffff\n      and\n      mul\n      or\n      swap1\n      sstore\n      pop\n        /* \"contracts/Lottery.sol\":3001:3022  increasePlayerCount() */\n      tag_93\n        /* \"contracts/Lottery.sol\":3001:3020  increasePlayerCount */\n      tag_94\n        /* \"contracts/Lottery.sol\":3001:3022  increasePlayerCount() */\n      jump\t// in\n    tag_93:\n        /* \"contracts/Lottery.sol\":2527:3029  {... */\n      pop\n      pop\n        /* \"contracts/Lottery.sol\":2480:3029  function enter(uint _numTicket) public payable {... */\n      pop\n      jump\t// out\n        /* \"contracts/Lottery.sol\":1373:1394  uint public lotteryId */\n    tag_54:\n      sload(0x04)\n      dup2\n      jump\t// out\n        /* \"contracts/Lottery.sol\":1302:1328  uint256 public s_requestId */\n    tag_58:\n      sload(0x02)\n      dup2\n      jump\t// out\n        /* \"contracts/Lottery.sol\":1266:1296  uint256[] public s_randomWords */\n    tag_63:\n      0x01\n      dup2\n      dup2\n      sload\n      dup2\n      lt\n      tag_95\n      jumpi\n      0x00\n      dup1\n      revert\n    tag_95:\n      swap1\n      0x00\n      mstore\n      keccak256(0x00, 0x20)\n      add\n      0x00\n      swap2\n      pop\n      swap1\n      pop\n      sload\n      dup2\n      jump\t// out\n        /* \"contracts/Lottery.sol\":3644:3811  function fulfillRandomWords(... */\n    tag_71:\n        /* \"contracts/Lottery.sol\":3793:3804  randomWords */\n      dup1\n        /* \"contracts/Lottery.sol\":3777:3790  s_randomWords */\n      0x01\n        /* \"contracts/Lottery.sol\":3777:3804  s_randomWords = randomWords */\n      swap1\n      dup1\n      mload\n      swap1\n      0x20\n      add\n      swap1\n      tag_98\n      swap3\n      swap2\n      swap1\n      tag_99\n      jump\t// in\n    tag_98:\n      pop\n        /* \"contracts/Lottery.sol\":3644:3811  function fulfillRandomWords(... */\n      pop\n      pop\n      jump\t// out\n        /* \"contracts/Lottery.sol\":3269:3638  function requestRandomWords() private onlyOwner {... */\n    tag_79:\n        /* \"contracts/Lottery.sol\":4242:4249  s_owner */\n      0x03\n      0x00\n      swap1\n      sload\n      swap1\n      0x0100\n      exp\n      swap1\n      div\n      0xffffffffffffffffffffffffffffffffffffffff\n      and\n        /* \"contracts/Lottery.sol\":4228:4249  msg.sender == s_owner */\n      0xffffffffffffffffffffffffffffffffffffffff\n      and\n        /* \"contracts/Lottery.sol\":4228:4238  msg.sender */\n      caller\n        /* \"contracts/Lottery.sol\":4228:4249  msg.sender == s_owner */\n      0xffffffffffffffffffffffffffffffffffffffff\n      and\n      eq\n        /* \"contracts/Lottery.sol\":4220:4250  require(msg.sender == s_owner) */\n      tag_101\n      jumpi\n      0x00\n      dup1\n      revert\n    tag_101:\n        /* \"contracts/Lottery.sol\":3563:3574  playerCount */\n      sload(0x08)\n        /* \"contracts/Lottery.sol\":594:636  0x6168499c0cFfCaCD319c818142124B7A15E857ab */\n      0x6168499c0cffcacd319c818142124b7a15e857ab\n        /* \"contracts/Lottery.sol\":3403:3433  COORDINATOR.requestRandomWords */\n      0xffffffffffffffffffffffffffffffffffffffff\n      and\n      0x5d3b1d30\n        /* \"contracts/Lottery.sol\":912:978  0xd89b2bf150e3b9e13446986e571fb9cab24b13cea0a43ea20a6049a85cc807cc */\n      0xd89b2bf150e3b9e13446986e571fb9cab24b13cea0a43ea20a6049a85cc807cc\n        /* \"contracts/Lottery.sol\":3443:3450  keyHash */\n      0x00\n      shl\n        /* \"contracts/Lottery.sol\":796:800  7370 */\n      0x1cca\n        /* \"contracts/Lottery.sol\":3486:3506  requestConfirmations */\n      0x00\n      0x04\n      swap1\n      sload\n      swap1\n      0x0100\n      exp\n      swap1\n      div\n      0xffff\n      and\n        /* \"contracts/Lottery.sol\":3516:3532  callbackGasLimit */\n      0x00\n      dup1\n      sload\n      swap1\n      0x0100\n      exp\n      swap1\n      div\n      0xffffffff\n      and\n        /* \"contracts/Lottery.sol\":3542:3550  numWords */\n      0x00\n      0x06\n      swap1\n      sload\n      swap1\n      0x0100\n      exp\n      swap1\n      div\n      0xffffffff\n      and\n        /* \"contracts/Lottery.sol\":3403:3560  COORDINATOR.requestRandomWords(... */\n      mload(0x40)\n      dup7\n      0xffffffff\n      and\n      0xe0\n      shl\n      dup2\n      mstore\n      0x04\n      add\n      tag_103\n      swap6\n      swap5\n      swap4\n      swap3\n      swap2\n      swap1\n      tag_104\n      jump\t// in\n    tag_103:\n      0x20\n      mload(0x40)\n      dup1\n      dup4\n      sub\n      dup2\n      0x00\n      dup8\n      gas\n      call\n      iszero\n      dup1\n      iszero\n      tag_106\n      jumpi\n      returndatasize\n      0x00\n      dup1\n      returndatacopy\n      revert(0x00, returndatasize)\n    tag_106:\n      pop\n      pop\n      pop\n      pop\n      mload(0x40)\n      returndatasize\n      not(0x1f)\n      0x1f\n      dup3\n      add\n      and\n      dup3\n      add\n      dup1\n      0x40\n      mstore\n      pop\n      dup2\n      add\n      swap1\n      tag_107\n      swap2\n      swap1\n      tag_108\n      jump\t// in\n    tag_107:\n        /* \"contracts/Lottery.sol\":3403:3574  COORDINATOR.requestRandomWords(... */\n      tag_109\n      swap2\n      swap1\n      tag_110\n      jump\t// in\n    tag_109:\n        /* \"contracts/Lottery.sol\":3389:3400  s_requestId */\n      0x02\n        /* \"contracts/Lottery.sol\":3389:3574  s_requestId = COORDINATOR.requestRandomWords(... */\n      dup2\n      swap1\n      sstore\n      pop\n        /* \"contracts/Lottery.sol\":3598:3608  allLottery */\n      0x07\n        /* \"contracts/Lottery.sol\":3598:3621  allLottery[s_requestId] */\n      0x00\n        /* \"contracts/Lottery.sol\":3609:3620  s_requestId */\n      sload(0x02)\n        /* \"contracts/Lottery.sol\":3598:3621  allLottery[s_requestId] */\n      dup2\n      mstore\n      0x20\n      add\n      swap1\n      dup2\n      mstore\n      0x20\n      add\n      0x00\n      keccak256\n        /* \"contracts/Lottery.sol\":3598:3631  allLottery[s_requestId].numTicket */\n      0x01\n      add\n      sload\n        /* \"contracts/Lottery.sol\":3584:3595  luckyNumber */\n      0x0a\n        /* \"contracts/Lottery.sol\":3584:3631  luckyNumber = allLottery[s_requestId].numTicket */\n      dup2\n      swap1\n      sstore\n      pop\n        /* \"contracts/Lottery.sol\":3269:3638  function requestRandomWords() private onlyOwner {... */\n      jump\t// out\n        /* \"contracts/Lottery.sol\":3040:3110  function increasePlayerCount() internal {... */\n    tag_94:\n        /* \"contracts/Lottery.sol\":3090:3101  playerCount */\n      0x08\n      0x00\n        /* \"contracts/Lottery.sol\":3090:3103  playerCount++ */\n      dup2\n      sload\n      dup1\n      swap3\n      swap2\n      swap1\n      tag_112\n      swap1\n      tag_113\n      jump\t// in\n    tag_112:\n      swap2\n      swap1\n      pop\n      sstore\n      pop\n        /* \"contracts/Lottery.sol\":3040:3110  function increasePlayerCount() internal {... */\n      jump\t// out\n    tag_99:\n      dup3\n      dup1\n      sload\n      dup3\n      dup3\n      sstore\n      swap1\n      0x00\n      mstore\n      keccak256(0x00, 0x20)\n      swap1\n      dup2\n      add\n      swap3\n      dup3\n      iszero\n      tag_114\n      jumpi\n      swap2\n      0x20\n      mul\n      dup3\n      add\n    tag_115:\n      dup3\n      dup2\n      gt\n      iszero\n      tag_116\n      jumpi\n      dup3\n      mload\n      dup3\n      sstore\n      swap2\n      0x20\n      add\n      swap2\n      swap1\n      0x01\n      add\n      swap1\n      jump(tag_115)\n    tag_116:\n    tag_114:\n      pop\n      swap1\n      pop\n      tag_117\n      swap2\n      swap1\n      tag_118\n      jump\t// in\n    tag_117:\n      pop\n      swap1\n      jump\t// out\n    tag_118:\n    tag_119:\n      dup1\n      dup3\n      gt\n      iszero\n      tag_120\n      jumpi\n      0x00\n      dup2\n      0x00\n      swap1\n      sstore\n      pop\n      0x01\n      add\n      jump(tag_119)\n    tag_120:\n      pop\n      swap1\n      jump\t// out\n        /* \"#utility.yul\":7:84   */\n    tag_121:\n        /* \"#utility.yul\":44:51   */\n      0x00\n        /* \"#utility.yul\":73:78   */\n      dup2\n        /* \"#utility.yul\":62:78   */\n      swap1\n      pop\n        /* \"#utility.yul\":7:84   */\n      swap2\n      swap1\n      pop\n      jump\t// out\n        /* \"#utility.yul\":90:208   */\n    tag_122:\n        /* \"#utility.yul\":177:201   */\n      tag_161\n        /* \"#utility.yul\":195:200   */\n      dup2\n        /* \"#utility.yul\":177:201   */\n      tag_121\n      jump\t// in\n    tag_161:\n        /* \"#utility.yul\":172:175   */\n      dup3\n        /* \"#utility.yul\":165:202   */\n      mstore\n        /* \"#utility.yul\":90:208   */\n      pop\n      pop\n      jump\t// out\n        /* \"#utility.yul\":214:436   */\n    tag_18:\n        /* \"#utility.yul\":307:311   */\n      0x00\n        /* \"#utility.yul\":345:347   */\n      0x20\n        /* \"#utility.yul\":334:343   */\n      dup3\n        /* \"#utility.yul\":330:348   */\n      add\n        /* \"#utility.yul\":322:348   */\n      swap1\n      pop\n        /* \"#utility.yul\":358:429   */\n      tag_163\n        /* \"#utility.yul\":426:427   */\n      0x00\n        /* \"#utility.yul\":415:424   */\n      dup4\n        /* \"#utility.yul\":411:428   */\n      add\n        /* \"#utility.yul\":402:408   */\n      dup5\n        /* \"#utility.yul\":358:429   */\n      tag_122\n      jump\t// in\n    tag_163:\n        /* \"#utility.yul\":214:436   */\n      swap3\n      swap2\n      pop\n      pop\n      jump\t// out\n        /* \"#utility.yul\":442:517   */\n    tag_123:\n        /* \"#utility.yul\":475:481   */\n      0x00\n        /* \"#utility.yul\":508:510   */\n      0x40\n        /* \"#utility.yul\":502:511   */\n      mload\n        /* \"#utility.yul\":492:511   */\n      swap1\n      pop\n        /* \"#utility.yul\":442:517   */\n      swap1\n      jump\t// out\n        /* \"#utility.yul\":523:640   */\n    tag_124:\n        /* \"#utility.yul\":632:633   */\n      0x00\n        /* \"#utility.yul\":629:630   */\n      dup1\n        /* \"#utility.yul\":622:634   */\n      revert\n        /* \"#utility.yul\":646:763   */\n    tag_125:\n        /* \"#utility.yul\":755:756   */\n      0x00\n        /* \"#utility.yul\":752:753   */\n      dup1\n        /* \"#utility.yul\":745:757   */\n      revert\n        /* \"#utility.yul\":769:891   */\n    tag_126:\n        /* \"#utility.yul\":842:866   */\n      tag_168\n        /* \"#utility.yul\":860:865   */\n      dup2\n        /* \"#utility.yul\":842:866   */\n      tag_121\n      jump\t// in\n    tag_168:\n        /* \"#utility.yul\":835:840   */\n      dup2\n        /* \"#utility.yul\":832:867   */\n      eq\n        /* \"#utility.yul\":822:885   */\n      tag_169\n      jumpi\n        /* \"#utility.yul\":881:882   */\n      0x00\n        /* \"#utility.yul\":878:879   */\n      dup1\n        /* \"#utility.yul\":871:883   */\n      revert\n        /* \"#utility.yul\":822:885   */\n    tag_169:\n        /* \"#utility.yul\":769:891   */\n      pop\n      jump\t// out\n        /* \"#utility.yul\":897:1036   */\n    tag_127:\n        /* \"#utility.yul\":943:948   */\n      0x00\n        /* \"#utility.yul\":981:987   */\n      dup2\n        /* \"#utility.yul\":968:988   */\n      calldataload\n        /* \"#utility.yul\":959:988   */\n      swap1\n      pop\n        /* \"#utility.yul\":997:1030   */\n      tag_171\n        /* \"#utility.yul\":1024:1029   */\n      dup2\n        /* \"#utility.yul\":997:1030   */\n      tag_126\n      jump\t// in\n    tag_171:\n        /* \"#utility.yul\":897:1036   */\n      swap3\n      swap2\n      pop\n      pop\n      jump\t// out\n        /* \"#utility.yul\":1042:1159   */\n    tag_128:\n        /* \"#utility.yul\":1151:1152   */\n      0x00\n        /* \"#utility.yul\":1148:1149   */\n      dup1\n        /* \"#utility.yul\":1141:1153   */\n      revert\n        /* \"#utility.yul\":1165:1267   */\n    tag_129:\n        /* \"#utility.yul\":1206:1212   */\n      0x00\n        /* \"#utility.yul\":1257:1259   */\n      0x1f\n        /* \"#utility.yul\":1253:1260   */\n      not\n        /* \"#utility.yul\":1248:1250   */\n      0x1f\n        /* \"#utility.yul\":1241:1246   */\n      dup4\n        /* \"#utility.yul\":1237:1251   */\n      add\n        /* \"#utility.yul\":1233:1261   */\n      and\n        /* \"#utility.yul\":1223:1261   */\n      swap1\n      pop\n        /* \"#utility.yul\":1165:1267   */\n      swap2\n      swap1\n      pop\n      jump\t// out\n        /* \"#utility.yul\":1273:1453   */\n    tag_130:\n        /* \"#utility.yul\":1321:1398   */\n      0x4e487b7100000000000000000000000000000000000000000000000000000000\n        /* \"#utility.yul\":1318:1319   */\n      0x00\n        /* \"#utility.yul\":1311:1399   */\n      mstore\n        /* \"#utility.yul\":1418:1422   */\n      0x41\n        /* \"#utility.yul\":1415:1416   */\n      0x04\n        /* \"#utility.yul\":1408:1423   */\n      mstore\n        /* \"#utility.yul\":1442:1446   */\n      0x24\n        /* \"#utility.yul\":1439:1440   */\n      0x00\n        /* \"#utility.yul\":1432:1447   */\n      revert\n        /* \"#utility.yul\":1459:1740   */\n    tag_131:\n        /* \"#utility.yul\":1542:1569   */\n      tag_176\n        /* \"#utility.yul\":1564:1568   */\n      dup3\n        /* \"#utility.yul\":1542:1569   */\n      tag_129\n      jump\t// in\n    tag_176:\n        /* \"#utility.yul\":1534:1540   */\n      dup2\n        /* \"#utility.yul\":1530:1570   */\n      add\n        /* \"#utility.yul\":1672:1678   */\n      dup2\n        /* \"#utility.yul\":1660:1670   */\n      dup2\n        /* \"#utility.yul\":1657:1679   */\n      lt\n        /* \"#utility.yul\":1636:1654   */\n      0xffffffffffffffff\n        /* \"#utility.yul\":1624:1634   */\n      dup3\n        /* \"#utility.yul\":1621:1655   */\n      gt\n        /* \"#utility.yul\":1618:1680   */\n      or\n        /* \"#utility.yul\":1615:1703   */\n      iszero\n      tag_177\n      jumpi\n        /* \"#utility.yul\":1683:1701   */\n      tag_178\n      tag_130\n      jump\t// in\n    tag_178:\n        /* \"#utility.yul\":1615:1703   */\n    tag_177:\n        /* \"#utility.yul\":1723:1733   */\n      dup1\n        /* \"#utility.yul\":1719:1721   */\n      0x40\n        /* \"#utility.yul\":1712:1734   */\n      mstore\n        /* \"#utility.yul\":1502:1740   */\n      pop\n        /* \"#utility.yul\":1459:1740   */\n      pop\n      pop\n      jump\t// out\n        /* \"#utility.yul\":1746:1875   */\n    tag_132:\n        /* \"#utility.yul\":1780:1786   */\n      0x00\n        /* \"#utility.yul\":1807:1827   */\n      tag_180\n      tag_123\n      jump\t// in\n    tag_180:\n        /* \"#utility.yul\":1797:1827   */\n      swap1\n      pop\n        /* \"#utility.yul\":1836:1869   */\n      tag_181\n        /* \"#utility.yul\":1864:1868   */\n      dup3\n        /* \"#utility.yul\":1856:1862   */\n      dup3\n        /* \"#utility.yul\":1836:1869   */\n      tag_131\n      jump\t// in\n    tag_181:\n        /* \"#utility.yul\":1746:1875   */\n      swap2\n      swap1\n      pop\n      jump\t// out\n        /* \"#utility.yul\":1881:2192   */\n    tag_133:\n        /* \"#utility.yul\":1958:1962   */\n      0x00\n        /* \"#utility.yul\":2048:2066   */\n      0xffffffffffffffff\n        /* \"#utility.yul\":2040:2046   */\n      dup3\n        /* \"#utility.yul\":2037:2067   */\n      gt\n        /* \"#utility.yul\":2034:2090   */\n      iszero\n      tag_183\n      jumpi\n        /* \"#utility.yul\":2070:2088   */\n      tag_184\n      tag_130\n      jump\t// in\n    tag_184:\n        /* \"#utility.yul\":2034:2090   */\n    tag_183:\n        /* \"#utility.yul\":2120:2124   */\n      0x20\n        /* \"#utility.yul\":2112:2118   */\n      dup3\n        /* \"#utility.yul\":2108:2125   */\n      mul\n        /* \"#utility.yul\":2100:2125   */\n      swap1\n      pop\n        /* \"#utility.yul\":2180:2184   */\n      0x20\n        /* \"#utility.yul\":2174:2178   */\n      dup2\n        /* \"#utility.yul\":2170:2185   */\n      add\n        /* \"#utility.yul\":2162:2185   */\n      swap1\n      pop\n        /* \"#utility.yul\":1881:2192   */\n      swap2\n      swap1\n      pop\n      jump\t// out\n        /* \"#utility.yul\":2198:2315   */\n    tag_134:\n        /* \"#utility.yul\":2307:2308   */\n      0x00\n        /* \"#utility.yul\":2304:2305   */\n      dup1\n        /* \"#utility.yul\":2297:2309   */\n      revert\n        /* \"#utility.yul\":2338:3048   */\n    tag_135:\n        /* \"#utility.yul\":2434:2439   */\n      0x00\n        /* \"#utility.yul\":2459:2540   */\n      tag_187\n        /* \"#utility.yul\":2475:2539   */\n      tag_188\n        /* \"#utility.yul\":2532:2538   */\n      dup5\n        /* \"#utility.yul\":2475:2539   */\n      tag_133\n      jump\t// in\n    tag_188:\n        /* \"#utility.yul\":2459:2540   */\n      tag_132\n      jump\t// in\n    tag_187:\n        /* \"#utility.yul\":2450:2540   */\n      swap1\n      pop\n        /* \"#utility.yul\":2560:2565   */\n      dup1\n        /* \"#utility.yul\":2589:2595   */\n      dup4\n        /* \"#utility.yul\":2582:2587   */\n      dup3\n        /* \"#utility.yul\":2575:2596   */\n      mstore\n        /* \"#utility.yul\":2623:2627   */\n      0x20\n        /* \"#utility.yul\":2616:2621   */\n      dup3\n        /* \"#utility.yul\":2612:2628   */\n      add\n        /* \"#utility.yul\":2605:2628   */\n      swap1\n      pop\n        /* \"#utility.yul\":2676:2680   */\n      0x20\n        /* \"#utility.yul\":2668:2674   */\n      dup5\n        /* \"#utility.yul\":2664:2681   */\n      mul\n        /* \"#utility.yul\":2656:2662   */\n      dup4\n        /* \"#utility.yul\":2652:2682   */\n      add\n        /* \"#utility.yul\":2705:2708   */\n      dup6\n        /* \"#utility.yul\":2697:2703   */\n      dup2\n        /* \"#utility.yul\":2694:2709   */\n      gt\n        /* \"#utility.yul\":2691:2813   */\n      iszero\n      tag_189\n      jumpi\n        /* \"#utility.yul\":2724:2803   */\n      tag_190\n      tag_134\n      jump\t// in\n    tag_190:\n        /* \"#utility.yul\":2691:2813   */\n    tag_189:\n        /* \"#utility.yul\":2839:2845   */\n      dup4\n        /* \"#utility.yul\":2822:3042   */\n    tag_191:\n        /* \"#utility.yul\":2856:2862   */\n      dup2\n        /* \"#utility.yul\":2851:2854   */\n      dup2\n        /* \"#utility.yul\":2848:2863   */\n      lt\n        /* \"#utility.yul\":2822:3042   */\n      iszero\n      tag_193\n      jumpi\n        /* \"#utility.yul\":2931:2934   */\n      dup1\n        /* \"#utility.yul\":2960:2997   */\n      tag_194\n        /* \"#utility.yul\":2993:2996   */\n      dup9\n        /* \"#utility.yul\":2981:2991   */\n      dup3\n        /* \"#utility.yul\":2960:2997   */\n      tag_127\n      jump\t// in\n    tag_194:\n        /* \"#utility.yul\":2955:2958   */\n      dup5\n        /* \"#utility.yul\":2948:2998   */\n      mstore\n        /* \"#utility.yul\":3027:3031   */\n      0x20\n        /* \"#utility.yul\":3022:3025   */\n      dup5\n        /* \"#utility.yul\":3018:3032   */\n      add\n        /* \"#utility.yul\":3011:3032   */\n      swap4\n      pop\n        /* \"#utility.yul\":2898:3042   */\n      pop\n        /* \"#utility.yul\":2882:2886   */\n      0x20\n        /* \"#utility.yul\":2877:2880   */\n      dup2\n        /* \"#utility.yul\":2873:2887   */\n      add\n        /* \"#utility.yul\":2866:2887   */\n      swap1\n      pop\n        /* \"#utility.yul\":2822:3042   */\n      jump(tag_191)\n    tag_193:\n        /* \"#utility.yul\":2826:2847   */\n      pop\n        /* \"#utility.yul\":2440:3048   */\n      pop\n      pop\n        /* \"#utility.yul\":2338:3048   */\n      swap4\n      swap3\n      pop\n      pop\n      pop\n      jump\t// out\n        /* \"#utility.yul\":3071:3441   */\n    tag_136:\n        /* \"#utility.yul\":3142:3147   */\n      0x00\n        /* \"#utility.yul\":3191:3194   */\n      dup3\n        /* \"#utility.yul\":3184:3188   */\n      0x1f\n        /* \"#utility.yul\":3176:3182   */\n      dup4\n        /* \"#utility.yul\":3172:3189   */\n      add\n        /* \"#utility.yul\":3168:3195   */\n      slt\n        /* \"#utility.yul\":3158:3280   */\n      tag_196\n      jumpi\n        /* \"#utility.yul\":3199:3278   */\n      tag_197\n      tag_128\n      jump\t// in\n    tag_197:\n        /* \"#utility.yul\":3158:3280   */\n    tag_196:\n        /* \"#utility.yul\":3316:3322   */\n      dup2\n        /* \"#utility.yul\":3303:3323   */\n      calldataload\n        /* \"#utility.yul\":3341:3435   */\n      tag_198\n        /* \"#utility.yul\":3431:3434   */\n      dup5\n        /* \"#utility.yul\":3423:3429   */\n      dup3\n        /* \"#utility.yul\":3416:3420   */\n      0x20\n        /* \"#utility.yul\":3408:3414   */\n      dup7\n        /* \"#utility.yul\":3404:3421   */\n      add\n        /* \"#utility.yul\":3341:3435   */\n      tag_135\n      jump\t// in\n    tag_198:\n        /* \"#utility.yul\":3332:3435   */\n      swap2\n      pop\n        /* \"#utility.yul\":3148:3441   */\n      pop\n        /* \"#utility.yul\":3071:3441   */\n      swap3\n      swap2\n      pop\n      pop\n      jump\t// out\n        /* \"#utility.yul\":3447:4131   */\n    tag_22:\n        /* \"#utility.yul\":3540:3546   */\n      0x00\n        /* \"#utility.yul\":3548:3554   */\n      dup1\n        /* \"#utility.yul\":3597:3599   */\n      0x40\n        /* \"#utility.yul\":3585:3594   */\n      dup4\n        /* \"#utility.yul\":3576:3583   */\n      dup6\n        /* \"#utility.yul\":3572:3595   */\n      sub\n        /* \"#utility.yul\":3568:3600   */\n      slt\n        /* \"#utility.yul\":3565:3684   */\n      iszero\n      tag_200\n      jumpi\n        /* \"#utility.yul\":3603:3682   */\n      tag_201\n      tag_124\n      jump\t// in\n    tag_201:\n        /* \"#utility.yul\":3565:3684   */\n    tag_200:\n        /* \"#utility.yul\":3723:3724   */\n      0x00\n        /* \"#utility.yul\":3748:3801   */\n      tag_202\n        /* \"#utility.yul\":3793:3800   */\n      dup6\n        /* \"#utility.yul\":3784:3790   */\n      dup3\n        /* \"#utility.yul\":3773:3782   */\n      dup7\n        /* \"#utility.yul\":3769:3791   */\n      add\n        /* \"#utility.yul\":3748:3801   */\n      tag_127\n      jump\t// in\n    tag_202:\n        /* \"#utility.yul\":3738:3801   */\n      swap3\n      pop\n        /* \"#utility.yul\":3694:3811   */\n      pop\n        /* \"#utility.yul\":3878:3880   */\n      0x20\n        /* \"#utility.yul\":3867:3876   */\n      dup4\n        /* \"#utility.yul\":3863:3881   */\n      add\n        /* \"#utility.yul\":3850:3882   */\n      calldataload\n        /* \"#utility.yul\":3909:3927   */\n      0xffffffffffffffff\n        /* \"#utility.yul\":3901:3907   */\n      dup2\n        /* \"#utility.yul\":3898:3928   */\n      gt\n        /* \"#utility.yul\":3895:4012   */\n      iszero\n      tag_203\n      jumpi\n        /* \"#utility.yul\":3931:4010   */\n      tag_204\n      tag_125\n      jump\t// in\n    tag_204:\n        /* \"#utility.yul\":3895:4012   */\n    tag_203:\n        /* \"#utility.yul\":4036:4114   */\n      tag_205\n        /* \"#utility.yul\":4106:4113   */\n      dup6\n        /* \"#utility.yul\":4097:4103   */\n      dup3\n        /* \"#utility.yul\":4086:4095   */\n      dup7\n        /* \"#utility.yul\":4082:4104   */\n      add\n        /* \"#utility.yul\":4036:4114   */\n      tag_136\n      jump\t// in\n    tag_205:\n        /* \"#utility.yul\":4026:4114   */\n      swap2\n      pop\n        /* \"#utility.yul\":3821:4124   */\n      pop\n        /* \"#utility.yul\":3447:4131   */\n      swap3\n      pop\n      swap3\n      swap1\n      pop\n      jump\t// out\n        /* \"#utility.yul\":4137:4466   */\n    tag_27:\n        /* \"#utility.yul\":4196:4202   */\n      0x00\n        /* \"#utility.yul\":4245:4247   */\n      0x20\n        /* \"#utility.yul\":4233:4242   */\n      dup3\n        /* \"#utility.yul\":4224:4231   */\n      dup5\n        /* \"#utility.yul\":4220:4243   */\n      sub\n        /* \"#utility.yul\":4216:4248   */\n      slt\n        /* \"#utility.yul\":4213:4332   */\n      iszero\n      tag_207\n      jumpi\n        /* \"#utility.yul\":4251:4330   */\n      tag_208\n      tag_124\n      jump\t// in\n    tag_208:\n        /* \"#utility.yul\":4213:4332   */\n    tag_207:\n        /* \"#utility.yul\":4371:4372   */\n      0x00\n        /* \"#utility.yul\":4396:4449   */\n      tag_209\n        /* \"#utility.yul\":4441:4448   */\n      dup5\n        /* \"#utility.yul\":4432:4438   */\n      dup3\n        /* \"#utility.yul\":4421:4430   */\n      dup6\n        /* \"#utility.yul\":4417:4439   */\n      add\n        /* \"#utility.yul\":4396:4449   */\n      tag_127\n      jump\t// in\n    tag_209:\n        /* \"#utility.yul\":4386:4449   */\n      swap2\n      pop\n        /* \"#utility.yul\":4342:4459   */\n      pop\n        /* \"#utility.yul\":4137:4466   */\n      swap3\n      swap2\n      pop\n      pop\n      jump\t// out\n        /* \"#utility.yul\":4472:4598   */\n    tag_137:\n        /* \"#utility.yul\":4509:4516   */\n      0x00\n        /* \"#utility.yul\":4549:4591   */\n      0xffffffffffffffffffffffffffffffffffffffff\n        /* \"#utility.yul\":4542:4547   */\n      dup3\n        /* \"#utility.yul\":4538:4592   */\n      and\n        /* \"#utility.yul\":4527:4592   */\n      swap1\n      pop\n        /* \"#utility.yul\":4472:4598   */\n      swap2\n      swap1\n      pop\n      jump\t// out\n        /* \"#utility.yul\":4604:4708   */\n    tag_138:\n        /* \"#utility.yul\":4649:4656   */\n      0x00\n        /* \"#utility.yul\":4678:4702   */\n      tag_212\n        /* \"#utility.yul\":4696:4701   */\n      dup3\n        /* \"#utility.yul\":4678:4702   */\n      tag_137\n      jump\t// in\n    tag_212:\n        /* \"#utility.yul\":4667:4702   */\n      swap1\n      pop\n        /* \"#utility.yul\":4604:4708   */\n      swap2\n      swap1\n      pop\n      jump\t// out\n        /* \"#utility.yul\":4714:4856   */\n    tag_139:\n        /* \"#utility.yul\":4817:4849   */\n      tag_214\n        /* \"#utility.yul\":4843:4848   */\n      dup2\n        /* \"#utility.yul\":4817:4849   */\n      tag_138\n      jump\t// in\n    tag_214:\n        /* \"#utility.yul\":4812:4815   */\n      dup3\n        /* \"#utility.yul\":4805:4850   */\n      mstore\n        /* \"#utility.yul\":4714:4856   */\n      pop\n      pop\n      jump\t// out\n        /* \"#utility.yul\":4862:5116   */\n    tag_30:\n        /* \"#utility.yul\":4971:4975   */\n      0x00\n        /* \"#utility.yul\":5009:5011   */\n      0x20\n        /* \"#utility.yul\":4998:5007   */\n      dup3\n        /* \"#utility.yul\":4994:5012   */\n      add\n        /* \"#utility.yul\":4986:5012   */\n      swap1\n      pop\n        /* \"#utility.yul\":5022:5109   */\n      tag_216\n        /* \"#utility.yul\":5106:5107   */\n      0x00\n        /* \"#utility.yul\":5095:5104   */\n      dup4\n        /* \"#utility.yul\":5091:5108   */\n      add\n        /* \"#utility.yul\":5082:5088   */\n      dup5\n        /* \"#utility.yul\":5022:5109   */\n      tag_139\n      jump\t// in\n    tag_216:\n        /* \"#utility.yul\":4862:5116   */\n      swap3\n      swap2\n      pop\n      pop\n      jump\t// out\n        /* \"#utility.yul\":5122:5486   */\n    tag_40:\n        /* \"#utility.yul\":5259:5263   */\n      0x00\n        /* \"#utility.yul\":5297:5299   */\n      0x40\n        /* \"#utility.yul\":5286:5295   */\n      dup3\n        /* \"#utility.yul\":5282:5300   */\n      add\n        /* \"#utility.yul\":5274:5300   */\n      swap1\n      pop\n        /* \"#utility.yul\":5310:5397   */\n      tag_218\n        /* \"#utility.yul\":5394:5395   */\n      0x00\n        /* \"#utility.yul\":5383:5392   */\n      dup4\n        /* \"#utility.yul\":5379:5396   */\n      add\n        /* \"#utility.yul\":5370:5376   */\n      dup6\n        /* \"#utility.yul\":5310:5397   */\n      tag_139\n      jump\t// in\n    tag_218:\n        /* \"#utility.yul\":5407:5479   */\n      tag_219\n        /* \"#utility.yul\":5475:5477   */\n      0x20\n        /* \"#utility.yul\":5464:5473   */\n      dup4\n        /* \"#utility.yul\":5460:5478   */\n      add\n        /* \"#utility.yul\":5451:5457   */\n      dup5\n        /* \"#utility.yul\":5407:5479   */\n      tag_122\n      jump\t// in\n    tag_219:\n        /* \"#utility.yul\":5122:5486   */\n      swap4\n      swap3\n      pop\n      pop\n      pop\n      jump\t// out\n        /* \"#utility.yul\":5492:5588   */\n    tag_140:\n        /* \"#utility.yul\":5529:5536   */\n      0x00\n        /* \"#utility.yul\":5558:5582   */\n      tag_221\n        /* \"#utility.yul\":5576:5581   */\n      dup3\n        /* \"#utility.yul\":5558:5582   */\n      tag_137\n      jump\t// in\n    tag_221:\n        /* \"#utility.yul\":5547:5582   */\n      swap1\n      pop\n        /* \"#utility.yul\":5492:5588   */\n      swap2\n      swap1\n      pop\n      jump\t// out\n        /* \"#utility.yul\":5594:5712   */\n    tag_141:\n        /* \"#utility.yul\":5681:5705   */\n      tag_223\n        /* \"#utility.yul\":5699:5704   */\n      dup2\n        /* \"#utility.yul\":5681:5705   */\n      tag_140\n      jump\t// in\n    tag_223:\n        /* \"#utility.yul\":5676:5679   */\n      dup3\n        /* \"#utility.yul\":5669:5706   */\n      mstore\n        /* \"#utility.yul\":5594:5712   */\n      pop\n      pop\n      jump\t// out\n        /* \"#utility.yul\":5718:6050   */\n    tag_69:\n        /* \"#utility.yul\":5839:5843   */\n      0x00\n        /* \"#utility.yul\":5877:5879   */\n      0x40\n        /* \"#utility.yul\":5866:5875   */\n      dup3\n        /* \"#utility.yul\":5862:5880   */\n      add\n        /* \"#utility.yul\":5854:5880   */\n      swap1\n      pop\n        /* \"#utility.yul\":5890:5961   */\n      tag_225\n        /* \"#utility.yul\":5958:5959   */\n      0x00\n        /* \"#utility.yul\":5947:5956   */\n      dup4\n        /* \"#utility.yul\":5943:5960   */\n      add\n        /* \"#utility.yul\":5934:5940   */\n      dup6\n        /* \"#utility.yul\":5890:5961   */\n      tag_141\n      jump\t// in\n    tag_225:\n        /* \"#utility.yul\":5971:6043   */\n      tag_226\n        /* \"#utility.yul\":6039:6041   */\n      0x20\n        /* \"#utility.yul\":6028:6037   */\n      dup4\n        /* \"#utility.yul\":6024:6042   */\n      add\n        /* \"#utility.yul\":6015:6021   */\n      dup5\n        /* \"#utility.yul\":5971:6043   */\n      tag_141\n      jump\t// in\n    tag_226:\n        /* \"#utility.yul\":5718:6050   */\n      swap4\n      swap3\n      pop\n      pop\n      pop\n      jump\t// out\n        /* \"#utility.yul\":6056:6236   */\n    tag_142:\n        /* \"#utility.yul\":6104:6181   */\n      0x4e487b7100000000000000000000000000000000000000000000000000000000\n        /* \"#utility.yul\":6101:6102   */\n      0x00\n        /* \"#utility.yul\":6094:6182   */\n      mstore\n        /* \"#utility.yul\":6201:6205   */\n      0x12\n        /* \"#utility.yul\":6198:6199   */\n      0x04\n        /* \"#utility.yul\":6191:6206   */\n      mstore\n        /* \"#utility.yul\":6225:6229   */\n      0x24\n        /* \"#utility.yul\":6222:6223   */\n      0x00\n        /* \"#utility.yul\":6215:6230   */\n      revert\n        /* \"#utility.yul\":6242:6422   */\n    tag_143:\n        /* \"#utility.yul\":6290:6367   */\n      0x4e487b7100000000000000000000000000000000000000000000000000000000\n        /* \"#utility.yul\":6287:6288   */\n      0x00\n        /* \"#utility.yul\":6280:6368   */\n      mstore\n        /* \"#utility.yul\":6387:6391   */\n      0x11\n        /* \"#utility.yul\":6384:6385   */\n      0x04\n        /* \"#utility.yul\":6377:6392   */\n      mstore\n        /* \"#utility.yul\":6411:6415   */\n      0x24\n        /* \"#utility.yul\":6408:6409   */\n      0x00\n        /* \"#utility.yul\":6401:6416   */\n      revert\n        /* \"#utility.yul\":6428:6613   */\n    tag_81:\n        /* \"#utility.yul\":6468:6469   */\n      0x00\n        /* \"#utility.yul\":6485:6505   */\n      tag_230\n        /* \"#utility.yul\":6503:6504   */\n      dup3\n        /* \"#utility.yul\":6485:6505   */\n      tag_121\n      jump\t// in\n    tag_230:\n        /* \"#utility.yul\":6480:6505   */\n      swap2\n      pop\n        /* \"#utility.yul\":6519:6539   */\n      tag_231\n        /* \"#utility.yul\":6537:6538   */\n      dup4\n        /* \"#utility.yul\":6519:6539   */\n      tag_121\n      jump\t// in\n    tag_231:\n        /* \"#utility.yul\":6514:6539   */\n      swap3\n      pop\n        /* \"#utility.yul\":6558:6559   */\n      dup3\n        /* \"#utility.yul\":6548:6583   */\n      tag_232\n      jumpi\n        /* \"#utility.yul\":6563:6581   */\n      tag_233\n      tag_142\n      jump\t// in\n    tag_233:\n        /* \"#utility.yul\":6548:6583   */\n    tag_232:\n        /* \"#utility.yul\":6605:6606   */\n      dup3\n        /* \"#utility.yul\":6602:6603   */\n      dup3\n        /* \"#utility.yul\":6598:6607   */\n      div\n        /* \"#utility.yul\":6593:6607   */\n      swap1\n      pop\n        /* \"#utility.yul\":6428:6613   */\n      swap3\n      swap2\n      pop\n      pop\n      jump\t// out\n        /* \"#utility.yul\":6619:6788   */\n    tag_144:\n        /* \"#utility.yul\":6703:6714   */\n      0x00\n        /* \"#utility.yul\":6737:6743   */\n      dup3\n        /* \"#utility.yul\":6732:6735   */\n      dup3\n        /* \"#utility.yul\":6725:6744   */\n      mstore\n        /* \"#utility.yul\":6777:6781   */\n      0x20\n        /* \"#utility.yul\":6772:6775   */\n      dup3\n        /* \"#utility.yul\":6768:6782   */\n      add\n        /* \"#utility.yul\":6753:6782   */\n      swap1\n      pop\n        /* \"#utility.yul\":6619:6788   */\n      swap3\n      swap2\n      pop\n      pop\n      jump\t// out\n        /* \"#utility.yul\":6794:6960   */\n    tag_145:\n        /* \"#utility.yul\":6934:6952   */\n      0x4e6f7420656e6f75676820746f6b656e00000000000000000000000000000000\n        /* \"#utility.yul\":6930:6931   */\n      0x00\n        /* \"#utility.yul\":6922:6928   */\n      dup3\n        /* \"#utility.yul\":6918:6932   */\n      add\n        /* \"#utility.yul\":6911:6953   */\n      mstore\n        /* \"#utility.yul\":6794:6960   */\n      pop\n      jump\t// out\n        /* \"#utility.yul\":6966:7332   */\n    tag_146:\n        /* \"#utility.yul\":7108:7111   */\n      0x00\n        /* \"#utility.yul\":7129:7196   */\n      tag_237\n        /* \"#utility.yul\":7193:7195   */\n      0x10\n        /* \"#utility.yul\":7188:7191   */\n      dup4\n        /* \"#utility.yul\":7129:7196   */\n      tag_144\n      jump\t// in\n    tag_237:\n        /* \"#utility.yul\":7122:7196   */\n      swap2\n      pop\n        /* \"#utility.yul\":7205:7298   */\n      tag_238\n        /* \"#utility.yul\":7294:7297   */\n      dup3\n        /* \"#utility.yul\":7205:7298   */\n      tag_145\n      jump\t// in\n    tag_238:\n        /* \"#utility.yul\":7323:7325   */\n      0x20\n        /* \"#utility.yul\":7318:7321   */\n      dup3\n        /* \"#utility.yul\":7314:7326   */\n      add\n        /* \"#utility.yul\":7307:7326   */\n      swap1\n      pop\n        /* \"#utility.yul\":6966:7332   */\n      swap2\n      swap1\n      pop\n      jump\t// out\n        /* \"#utility.yul\":7338:7757   */\n    tag_85:\n        /* \"#utility.yul\":7504:7508   */\n      0x00\n        /* \"#utility.yul\":7542:7544   */\n      0x20\n        /* \"#utility.yul\":7531:7540   */\n      dup3\n        /* \"#utility.yul\":7527:7545   */\n      add\n        /* \"#utility.yul\":7519:7545   */\n      swap1\n      pop\n        /* \"#utility.yul\":7591:7600   */\n      dup2\n        /* \"#utility.yul\":7585:7589   */\n      dup2\n        /* \"#utility.yul\":7581:7601   */\n      sub\n        /* \"#utility.yul\":7577:7578   */\n      0x00\n        /* \"#utility.yul\":7566:7575   */\n      dup4\n        /* \"#utility.yul\":7562:7579   */\n      add\n        /* \"#utility.yul\":7555:7602   */\n      mstore\n        /* \"#utility.yul\":7619:7750   */\n      tag_240\n        /* \"#utility.yul\":7745:7749   */\n      dup2\n        /* \"#utility.yul\":7619:7750   */\n      tag_146\n      jump\t// in\n    tag_240:\n        /* \"#utility.yul\":7611:7750   */\n      swap1\n      pop\n        /* \"#utility.yul\":7338:7757   */\n      swap2\n      swap1\n      pop\n      jump\t// out\n        /* \"#utility.yul\":7763:8068   */\n    tag_87:\n        /* \"#utility.yul\":7803:7806   */\n      0x00\n        /* \"#utility.yul\":7822:7842   */\n      tag_242\n        /* \"#utility.yul\":7840:7841   */\n      dup3\n        /* \"#utility.yul\":7822:7842   */\n      tag_121\n      jump\t// in\n    tag_242:\n        /* \"#utility.yul\":7817:7842   */\n      swap2\n      pop\n        /* \"#utility.yul\":7856:7876   */\n      tag_243\n        /* \"#utility.yul\":7874:7875   */\n      dup4\n        /* \"#utility.yul\":7856:7876   */\n      tag_121\n      jump\t// in\n    tag_243:\n        /* \"#utility.yul\":7851:7876   */\n      swap3\n      pop\n        /* \"#utility.yul\":8010:8011   */\n      dup3\n        /* \"#utility.yul\":7942:8008   */\n      0xffffffffffffffffffffffffffffffffffffffffffffffffffffffffffffffff\n        /* \"#utility.yul\":7938:8012   */\n      sub\n        /* \"#utility.yul\":7935:7936   */\n      dup3\n        /* \"#utility.yul\":7932:8013   */\n      gt\n        /* \"#utility.yul\":7929:8036   */\n      iszero\n      tag_244\n      jumpi\n        /* \"#utility.yul\":8016:8034   */\n      tag_245\n      tag_143\n      jump\t// in\n    tag_245:\n        /* \"#utility.yul\":7929:8036   */\n    tag_244:\n        /* \"#utility.yul\":8060:8061   */\n      dup3\n        /* \"#utility.yul\":8057:8058   */\n      dup3\n        /* \"#utility.yul\":8053:8062   */\n      add\n        /* \"#utility.yul\":8046:8062   */\n      swap1\n      pop\n        /* \"#utility.yul\":7763:8068   */\n      swap3\n      swap2\n      pop\n      pop\n      jump\t// out\n        /* \"#utility.yul\":8074:8250   */\n    tag_147:\n        /* \"#utility.yul\":8214:8242   */\n      0x4e756d626572207469636b6574206f7574206f662072616e6765000000000000\n        /* \"#utility.yul\":8210:8211   */\n      0x00\n        /* \"#utility.yul\":8202:8208   */\n      dup3\n        /* \"#utility.yul\":8198:8212   */\n      add\n        /* \"#utility.yul\":8191:8243   */\n      mstore\n        /* \"#utility.yul\":8074:8250   */\n      pop\n      jump\t// out\n        /* \"#utility.yul\":8256:8622   */\n    tag_148:\n        /* \"#utility.yul\":8398:8401   */\n      0x00\n        /* \"#utility.yul\":8419:8486   */\n      tag_248\n        /* \"#utility.yul\":8483:8485   */\n      0x1a\n        /* \"#utility.yul\":8478:8481   */\n      dup4\n        /* \"#utility.yul\":8419:8486   */\n      tag_144\n      jump\t// in\n    tag_248:\n        /* \"#utility.yul\":8412:8486   */\n      swap2\n      pop\n        /* \"#utility.yul\":8495:8588   */\n      tag_249\n        /* \"#utility.yul\":8584:8587   */\n      dup3\n        /* \"#utility.yul\":8495:8588   */\n      tag_147\n      jump\t// in\n    tag_249:\n        /* \"#utility.yul\":8613:8615   */\n      0x20\n        /* \"#utility.yul\":8608:8611   */\n      dup3\n        /* \"#utility.yul\":8604:8616   */\n      add\n        /* \"#utility.yul\":8597:8616   */\n      swap1\n      pop\n        /* \"#utility.yul\":8256:8622   */\n      swap2\n      swap1\n      pop\n      jump\t// out\n        /* \"#utility.yul\":8628:9047   */\n    tag_91:\n        /* \"#utility.yul\":8794:8798   */\n      0x00\n        /* \"#utility.yul\":8832:8834   */\n      0x20\n        /* \"#utility.yul\":8821:8830   */\n      dup3\n        /* \"#utility.yul\":8817:8835   */\n      add\n        /* \"#utility.yul\":8809:8835   */\n      swap1\n      pop\n        /* \"#utility.yul\":8881:8890   */\n      dup2\n        /* \"#utility.yul\":8875:8879   */\n      dup2\n        /* \"#utility.yul\":8871:8891   */\n      sub\n        /* \"#utility.yul\":8867:8868   */\n      0x00\n        /* \"#utility.yul\":8856:8865   */\n      dup4\n        /* \"#utility.yul\":8852:8869   */\n      add\n        /* \"#utility.yul\":8845:8892   */\n      mstore\n        /* \"#utility.yul\":8909:9040   */\n      tag_251\n        /* \"#utility.yul\":9035:9039   */\n      dup2\n        /* \"#utility.yul\":8909:9040   */\n      tag_148\n      jump\t// in\n    tag_251:\n        /* \"#utility.yul\":8901:9040   */\n      swap1\n      pop\n        /* \"#utility.yul\":8628:9047   */\n      swap2\n      swap1\n      pop\n      jump\t// out\n        /* \"#utility.yul\":9053:9130   */\n    tag_149:\n        /* \"#utility.yul\":9090:9097   */\n      0x00\n        /* \"#utility.yul\":9119:9124   */\n      dup2\n        /* \"#utility.yul\":9108:9124   */\n      swap1\n      pop\n        /* \"#utility.yul\":9053:9130   */\n      swap2\n      swap1\n      pop\n      jump\t// out\n        /* \"#utility.yul\":9136:9254   */\n    tag_150:\n        /* \"#utility.yul\":9223:9247   */\n      tag_254\n        /* \"#utility.yul\":9241:9246   */\n      dup2\n        /* \"#utility.yul\":9223:9247   */\n      tag_149\n      jump\t// in\n    tag_254:\n        /* \"#utility.yul\":9218:9221   */\n      dup3\n        /* \"#utility.yul\":9211:9248   */\n      mstore\n        /* \"#utility.yul\":9136:9254   */\n      pop\n      pop\n      jump\t// out\n        /* \"#utility.yul\":9260:9361   */\n    tag_151:\n        /* \"#utility.yul\":9296:9303   */\n      0x00\n        /* \"#utility.yul\":9336:9354   */\n      0xffffffffffffffff\n        /* \"#utility.yul\":9329:9334   */\n      dup3\n        /* \"#utility.yul\":9325:9355   */\n      and\n        /* \"#utility.yul\":9314:9355   */\n      swap1\n      pop\n        /* \"#utility.yul\":9260:9361   */\n      swap2\n      swap1\n      pop\n      jump\t// out\n        /* \"#utility.yul\":9367:9482   */\n    tag_152:\n        /* \"#utility.yul\":9452:9475   */\n      tag_257\n        /* \"#utility.yul\":9469:9474   */\n      dup2\n        /* \"#utility.yul\":9452:9475   */\n      tag_151\n      jump\t// in\n    tag_257:\n        /* \"#utility.yul\":9447:9450   */\n      dup3\n        /* \"#utility.yul\":9440:9476   */\n      mstore\n        /* \"#utility.yul\":9367:9482   */\n      pop\n      pop\n      jump\t// out\n        /* \"#utility.yul\":9488:9577   */\n    tag_153:\n        /* \"#utility.yul\":9524:9531   */\n      0x00\n        /* \"#utility.yul\":9564:9570   */\n      0xffff\n        /* \"#utility.yul\":9557:9562   */\n      dup3\n        /* \"#utility.yul\":9553:9571   */\n      and\n        /* \"#utility.yul\":9542:9571   */\n      swap1\n      pop\n        /* \"#utility.yul\":9488:9577   */\n      swap2\n      swap1\n      pop\n      jump\t// out\n        /* \"#utility.yul\":9583:9698   */\n    tag_154:\n        /* \"#utility.yul\":9668:9691   */\n      tag_260\n        /* \"#utility.yul\":9685:9690   */\n      dup2\n        /* \"#utility.yul\":9668:9691   */\n      tag_153\n      jump\t// in\n    tag_260:\n        /* \"#utility.yul\":9663:9666   */\n      dup3\n        /* \"#utility.yul\":9656:9692   */\n      mstore\n        /* \"#utility.yul\":9583:9698   */\n      pop\n      pop\n      jump\t// out\n        /* \"#utility.yul\":9704:9797   */\n    tag_155:\n        /* \"#utility.yul\":9740:9747   */\n      0x00\n        /* \"#utility.yul\":9780:9790   */\n      0xffffffff\n        /* \"#utility.yul\":9773:9778   */\n      dup3\n        /* \"#utility.yul\":9769:9791   */\n      and\n        /* \"#utility.yul\":9758:9791   */\n      swap1\n      pop\n        /* \"#utility.yul\":9704:9797   */\n      swap2\n      swap1\n      pop\n      jump\t// out\n        /* \"#utility.yul\":9803:9918   */\n    tag_156:\n        /* \"#utility.yul\":9888:9911   */\n      tag_263\n        /* \"#utility.yul\":9905:9910   */\n      dup2\n        /* \"#utility.yul\":9888:9911   */\n      tag_155\n      jump\t// in\n    tag_263:\n        /* \"#utility.yul\":9883:9886   */\n      dup3\n        /* \"#utility.yul\":9876:9912   */\n      mstore\n        /* \"#utility.yul\":9803:9918   */\n      pop\n      pop\n      jump\t// out\n        /* \"#utility.yul\":9924:10572   */\n    tag_104:\n        /* \"#utility.yul\":10121:10125   */\n      0x00\n        /* \"#utility.yul\":10159:10162   */\n      0xa0\n        /* \"#utility.yul\":10148:10157   */\n      dup3\n        /* \"#utility.yul\":10144:10163   */\n      add\n        /* \"#utility.yul\":10136:10163   */\n      swap1\n      pop\n        /* \"#utility.yul\":10173:10244   */\n      tag_265\n        /* \"#utility.yul\":10241:10242   */\n      0x00\n        /* \"#utility.yul\":10230:10239   */\n      dup4\n        /* \"#utility.yul\":10226:10243   */\n      add\n        /* \"#utility.yul\":10217:10223   */\n      dup9\n        /* \"#utility.yul\":10173:10244   */\n      tag_150\n      jump\t// in\n    tag_265:\n        /* \"#utility.yul\":10254:10324   */\n      tag_266\n        /* \"#utility.yul\":10320:10322   */\n      0x20\n        /* \"#utility.yul\":10309:10318   */\n      dup4\n        /* \"#utility.yul\":10305:10323   */\n      add\n        /* \"#utility.yul\":10296:10302   */\n      dup8\n        /* \"#utility.yul\":10254:10324   */\n      tag_152\n      jump\t// in\n    tag_266:\n        /* \"#utility.yul\":10334:10404   */\n      tag_267\n        /* \"#utility.yul\":10400:10402   */\n      0x40\n        /* \"#utility.yul\":10389:10398   */\n      dup4\n        /* \"#utility.yul\":10385:10403   */\n      add\n        /* \"#utility.yul\":10376:10382   */\n      dup7\n        /* \"#utility.yul\":10334:10404   */\n      tag_154\n      jump\t// in\n    tag_267:\n        /* \"#utility.yul\":10414:10484   */\n      tag_268\n        /* \"#utility.yul\":10480:10482   */\n      0x60\n        /* \"#utility.yul\":10469:10478   */\n      dup4\n        /* \"#utility.yul\":10465:10483   */\n      add\n        /* \"#utility.yul\":10456:10462   */\n      dup6\n        /* \"#utility.yul\":10414:10484   */\n      tag_156\n      jump\t// in\n    tag_268:\n        /* \"#utility.yul\":10494:10565   */\n      tag_269\n        /* \"#utility.yul\":10560:10563   */\n      0x80\n        /* \"#utility.yul\":10549:10558   */\n      dup4\n        /* \"#utility.yul\":10545:10564   */\n      add\n        /* \"#utility.yul\":10536:10542   */\n      dup5\n        /* \"#utility.yul\":10494:10565   */\n      tag_156\n      jump\t// in\n    tag_269:\n        /* \"#utility.yul\":9924:10572   */\n      swap7\n      swap6\n      pop\n      pop\n      pop\n      pop\n      pop\n      pop\n      jump\t// out\n        /* \"#utility.yul\":10578:10721   */\n    tag_157:\n        /* \"#utility.yul\":10635:10640   */\n      0x00\n        /* \"#utility.yul\":10666:10672   */\n      dup2\n        /* \"#utility.yul\":10660:10673   */\n      mload\n        /* \"#utility.yul\":10651:10673   */\n      swap1\n      pop\n        /* \"#utility.yul\":10682:10715   */\n      tag_271\n        /* \"#utility.yul\":10709:10714   */\n      dup2\n        /* \"#utility.yul\":10682:10715   */\n      tag_126\n      jump\t// in\n    tag_271:\n        /* \"#utility.yul\":10578:10721   */\n      swap3\n      swap2\n      pop\n      pop\n      jump\t// out\n        /* \"#utility.yul\":10727:11078   */\n    tag_108:\n        /* \"#utility.yul\":10797:10803   */\n      0x00\n        /* \"#utility.yul\":10846:10848   */\n      0x20\n        /* \"#utility.yul\":10834:10843   */\n      dup3\n        /* \"#utility.yul\":10825:10832   */\n      dup5\n        /* \"#utility.yul\":10821:10844   */\n      sub\n        /* \"#utility.yul\":10817:10849   */\n      slt\n        /* \"#utility.yul\":10814:10933   */\n      iszero\n      tag_273\n      jumpi\n        /* \"#utility.yul\":10852:10931   */\n      tag_274\n      tag_124\n      jump\t// in\n    tag_274:\n        /* \"#utility.yul\":10814:10933   */\n    tag_273:\n        /* \"#utility.yul\":10972:10973   */\n      0x00\n        /* \"#utility.yul\":10997:11061   */\n      tag_275\n        /* \"#utility.yul\":11053:11060   */\n      dup5\n        /* \"#utility.yul\":11044:11050   */\n      dup3\n        /* \"#utility.yul\":11033:11042   */\n      dup6\n        /* \"#utility.yul\":11029:11051   */\n      add\n        /* \"#utility.yul\":10997:11061   */\n      tag_157\n      jump\t// in\n    tag_275:\n        /* \"#utility.yul\":10987:11061   */\n      swap2\n      pop\n        /* \"#utility.yul\":10943:11071   */\n      pop\n        /* \"#utility.yul\":10727:11078   */\n      swap3\n      swap2\n      pop\n      pop\n      jump\t// out\n        /* \"#utility.yul\":11084:11260   */\n    tag_110:\n        /* \"#utility.yul\":11116:11117   */\n      0x00\n        /* \"#utility.yul\":11133:11153   */\n      tag_277\n        /* \"#utility.yul\":11151:11152   */\n      dup3\n        /* \"#utility.yul\":11133:11153   */\n      tag_121\n      jump\t// in\n    tag_277:\n        /* \"#utility.yul\":11128:11153   */\n      swap2\n      pop\n        /* \"#utility.yul\":11167:11187   */\n      tag_278\n        /* \"#utility.yul\":11185:11186   */\n      dup4\n        /* \"#utility.yul\":11167:11187   */\n      tag_121\n      jump\t// in\n    tag_278:\n        /* \"#utility.yul\":11162:11187   */\n      swap3\n      pop\n        /* \"#utility.yul\":11206:11207   */\n      dup3\n        /* \"#utility.yul\":11196:11231   */\n      tag_279\n      jumpi\n        /* \"#utility.yul\":11211:11229   */\n      tag_280\n      tag_142\n      jump\t// in\n    tag_280:\n        /* \"#utility.yul\":11196:11231   */\n    tag_279:\n        /* \"#utility.yul\":11252:11253   */\n      dup3\n        /* \"#utility.yul\":11249:11250   */\n      dup3\n        /* \"#utility.yul\":11245:11254   */\n      mod\n        /* \"#utility.yul\":11240:11254   */\n      swap1\n      pop\n        /* \"#utility.yul\":11084:11260   */\n      swap3\n      swap2\n      pop\n      pop\n      jump\t// out\n        /* \"#utility.yul\":11266:11499   */\n    tag_113:\n        /* \"#utility.yul\":11305:11308   */\n      0x00\n        /* \"#utility.yul\":11328:11352   */\n      tag_282\n        /* \"#utility.yul\":11346:11351   */\n      dup3\n        /* \"#utility.yul\":11328:11352   */\n      tag_121\n      jump\t// in\n    tag_282:\n        /* \"#utility.yul\":11319:11352   */\n      swap2\n      pop\n        /* \"#utility.yul\":11374:11440   */\n      0xffffffffffffffffffffffffffffffffffffffffffffffffffffffffffffffff\n        /* \"#utility.yul\":11367:11372   */\n      dup3\n        /* \"#utility.yul\":11364:11441   */\n      sub\n        /* \"#utility.yul\":11361:11464   */\n      tag_283\n      jumpi\n        /* \"#utility.yul\":11444:11462   */\n      tag_284\n      tag_143\n      jump\t// in\n    tag_284:\n        /* \"#utility.yul\":11361:11464   */\n    tag_283:\n        /* \"#utility.yul\":11491:11492   */\n      0x01\n        /* \"#utility.yul\":11484:11489   */\n      dup3\n        /* \"#utility.yul\":11480:11493   */\n      add\n        /* \"#utility.yul\":11473:11493   */\n      swap1\n      pop\n        /* \"#utility.yul\":11266:11499   */\n      swap2\n      swap1\n      pop\n      jump\t// out\n\n    auxdata: 0xa26469706673582212207f1044f44b3768a9984a4cba8f1ff896e88921db0fa228f41dd5c96da3acf21364736f6c634300080f0033\n}\n",
				"bytecode": {
					"linkReferences": {},
					"object": "60a0604052620186a06000806101000a81548163ffffffff021916908363ffffffff1602179055506003600060046101000a81548161ffff021916908361ffff1602179055506002600060066101000a81548163ffffffff021916908363ffffffff16021790555033600360006101000a81548173ffffffffffffffffffffffffffffffffffffffff021916908373ffffffffffffffffffffffffffffffffffffffff16021790555060006008553480156100b957600080fd5b50736168499c0cffcacd319c818142124b7a15e857ab8073ffffffffffffffffffffffffffffffffffffffff1660808173ffffffffffffffffffffffffffffffffffffffff168152505050608051610f5c610126600039600081816102aa01526102fe0152610f5c6000f3fe60806040526004361061009c5760003560e01c80636d6fe230116100645780636d6fe2301461019b5780636fd09816146101d8578063a59f3e0c146101ef578063e580f47b1461020b578063e89e106a14610236578063f6eaffc8146102615761009c565b806312065fe0146100a15780631fe543e3146100cc578063281d098d146100f557806332eb85a414610132578063460e20491461015d575b600080fd5b3480156100ad57600080fd5b506100b661029e565b6040516100c391906108c6565b60405180910390f35b3480156100d857600080fd5b506100f360048036038101906100ee9190610a7a565b6102a8565b005b34801561010157600080fd5b5061011c60048036038101906101179190610ad6565b610368565b6040516101299190610b44565b60405180910390f35b34801561013e57600080fd5b506101476103a5565b60405161015491906108c6565b60405180910390f35b34801561016957600080fd5b50610184600480360381019061017f9190610ad6565b6103af565b604051610192929190610b5f565b60405180910390f35b3480156101a757600080fd5b506101c260048036038101906101bd9190610ad6565b6103fd565b6040516101cf9190610b44565b60405180910390f35b3480156101e457600080fd5b506101ed610430565b005b61020960048036038101906102049190610ad6565b6104c2565b005b34801561021757600080fd5b50610220610661565b60405161022d91906108c6565b60405180910390f35b34801561024257600080fd5b5061024b610667565b60405161025891906108c6565b60405180910390f35b34801561026d57600080fd5b5061028860048036038101906102839190610ad6565b61066d565b60405161029591906108c6565b60405180910390f35b6000600954905090565b7f000000000000000000000000000000000000000000000000000000000000000073ffffffffffffffffffffffffffffffffffffffff163373ffffffffffffffffffffffffffffffffffffffff161461035a57337f00000000000000000000000000000000000000000000000000000000000000006040517f1cf993f4000000000000000000000000000000000000000000000000000000008152600401610351929190610ba9565b60405180910390fd5b6103648282610691565b5050565b60006005600083815260200190815260200160002060009054906101000a900473ffffffffffffffffffffffffffffffffffffffff169050919050565b6000600854905090565b60008060006007600085815260200190815260200160002090508060000160009054906101000a900473ffffffffffffffffffffffffffffffffffffffff1681600101549250925050915091565b60056020528060005260406000206000915054906101000a900473ffffffffffffffffffffffffffffffffffffffff1681565b600360009054906101000a900473ffffffffffffffffffffffffffffffffffffffff1673ffffffffffffffffffffffffffffffffffffffff163373ffffffffffffffffffffffffffffffffffffffff161461048a57600080fd5b6104926106ac565b600060066000600a548152602001908152602001600020600001805490506009546104bd9190610c30565b905050565b60023411610505576040517f08c379a00000000000000000000000000000000000000000000000000000000081526004016104fc90610cbe565b60405180910390fd5b34600960008282546105179190610cde565b92505081905550600181101580156105305750600a8111155b61056f576040517f08c379a000000000000000000000000000000000000000000000000000000000815260040161056690610d80565b60405180910390fd5b60006007600060085481526020019081526020016000209050338160000160006101000a81548173ffffffffffffffffffffffffffffffffffffffff021916908373ffffffffffffffffffffffffffffffffffffffff16021790555081816001018190555060006006600083600101548152602001908152602001600020905080600001339080600181540180825580915050600190039060005260206000200160009091909190916101000a81548173ffffffffffffffffffffffffffffffffffffffff021916908373ffffffffffffffffffffffffffffffffffffffff16021790555061065c610829565b505050565b60045481565b60025481565b6001818154811061067d57600080fd5b906000526020600020016000915090505481565b80600190805190602001906106a7929190610843565b505050565b600360009054906101000a900473ffffffffffffffffffffffffffffffffffffffff1673ffffffffffffffffffffffffffffffffffffffff163373ffffffffffffffffffffffffffffffffffffffff161461070657600080fd5b600854736168499c0cffcacd319c818142124b7a15e857ab73ffffffffffffffffffffffffffffffffffffffff16635d3b1d307fd89b2bf150e3b9e13446986e571fb9cab24b13cea0a43ea20a6049a85cc807cc60001b611cca600060049054906101000a900461ffff1660008054906101000a900463ffffffff16600060069054906101000a900463ffffffff166040518663ffffffff1660e01b81526004016107b5959493929190610e18565b6020604051808303816000875af11580156107d4573d6000803e3d6000fd5b505050506040513d601f19601f820116820180604052508101906107f89190610e80565b6108029190610ead565b60028190555060076000600254815260200190815260200160002060010154600a81905550565b6008600081548092919061083c90610ede565b9190505550565b82805482825590600052602060002090810192821561087f579160200282015b8281111561087e578251825591602001919060010190610863565b5b50905061088c9190610890565b5090565b5b808211156108a9576000816000905550600101610891565b5090565b6000819050919050565b6108c0816108ad565b82525050565b60006020820190506108db60008301846108b7565b92915050565b6000604051905090565b600080fd5b600080fd5b6108fe816108ad565b811461090957600080fd5b50565b60008135905061091b816108f5565b92915050565b600080fd5b6000601f19601f8301169050919050565b7f4e487b7100000000000000000000000000000000000000000000000000000000600052604160045260246000fd5b61096f82610926565b810181811067ffffffffffffffff8211171561098e5761098d610937565b5b80604052505050565b60006109a16108e1565b90506109ad8282610966565b919050565b600067ffffffffffffffff8211156109cd576109cc610937565b5b602082029050602081019050919050565b600080fd5b60006109f66109f1846109b2565b610997565b90508083825260208201905060208402830185811115610a1957610a186109de565b5b835b81811015610a425780610a2e888261090c565b845260208401935050602081019050610a1b565b5050509392505050565b600082601f830112610a6157610a60610921565b5b8135610a718482602086016109e3565b91505092915050565b60008060408385031215610a9157610a906108eb565b5b6000610a9f8582860161090c565b925050602083013567ffffffffffffffff811115610ac057610abf6108f0565b5b610acc85828601610a4c565b9150509250929050565b600060208284031215610aec57610aeb6108eb565b5b6000610afa8482850161090c565b91505092915050565b600073ffffffffffffffffffffffffffffffffffffffff82169050919050565b6000610b2e82610b03565b9050919050565b610b3e81610b23565b82525050565b6000602082019050610b596000830184610b35565b92915050565b6000604082019050610b746000830185610b35565b610b8160208301846108b7565b9392505050565b6000610b9382610b03565b9050919050565b610ba381610b88565b82525050565b6000604082019050610bbe6000830185610b9a565b610bcb6020830184610b9a565b9392505050565b7f4e487b7100000000000000000000000000000000000000000000000000000000600052601260045260246000fd5b7f4e487b7100000000000000000000000000000000000000000000000000000000600052601160045260246000fd5b6000610c3b826108ad565b9150610c46836108ad565b925082610c5657610c55610bd2565b5b828204905092915050565b600082825260208201905092915050565b7f4e6f7420656e6f75676820746f6b656e00000000000000000000000000000000600082015250565b6000610ca8601083610c61565b9150610cb382610c72565b602082019050919050565b60006020820190508181036000830152610cd781610c9b565b9050919050565b6000610ce9826108ad565b9150610cf4836108ad565b9250827fffffffffffffffffffffffffffffffffffffffffffffffffffffffffffffffff03821115610d2957610d28610c01565b5b828201905092915050565b7f4e756d626572207469636b6574206f7574206f662072616e6765000000000000600082015250565b6000610d6a601a83610c61565b9150610d7582610d34565b602082019050919050565b60006020820190508181036000830152610d9981610d5d565b9050919050565b6000819050919050565b610db381610da0565b82525050565b600067ffffffffffffffff82169050919050565b610dd681610db9565b82525050565b600061ffff82169050919050565b610df381610ddc565b82525050565b600063ffffffff82169050919050565b610e1281610df9565b82525050565b600060a082019050610e2d6000830188610daa565b610e3a6020830187610dcd565b610e476040830186610dea565b610e546060830185610e09565b610e616080830184610e09565b9695505050505050565b600081519050610e7a816108f5565b92915050565b600060208284031215610e9657610e956108eb565b5b6000610ea484828501610e6b565b91505092915050565b6000610eb8826108ad565b9150610ec3836108ad565b925082610ed357610ed2610bd2565b5b828206905092915050565b6000610ee9826108ad565b91507fffffffffffffffffffffffffffffffffffffffffffffffffffffffffffffffff8203610f1b57610f1a610c01565b5b60018201905091905056fea26469706673582212207f1044f44b3768a9984a4cba8f1ff896e88921db0fa228f41dd5c96da3acf21364736f6c634300080f0033",
					"opcodes": "PUSH1 0xA0 PUSH1 0x40 MSTORE PUSH3 0x186A0 PUSH1 0x0 DUP1 PUSH2 0x100 EXP DUP2 SLOAD DUP2 PUSH4 0xFFFFFFFF MUL NOT AND SWAP1 DUP4 PUSH4 0xFFFFFFFF AND MUL OR SWAP1 SSTORE POP PUSH1 0x3 PUSH1 0x0 PUSH1 0x4 PUSH2 0x100 EXP DUP2 SLOAD DUP2 PUSH2 0xFFFF MUL NOT AND SWAP1 DUP4 PUSH2 0xFFFF AND MUL OR SWAP1 SSTORE POP PUSH1 0x2 PUSH1 0x0 PUSH1 0x6 PUSH2 0x100 EXP DUP2 SLOAD DUP2 PUSH4 0xFFFFFFFF MUL NOT AND SWAP1 DUP4 PUSH4 0xFFFFFFFF AND MUL OR SWAP1 SSTORE POP CALLER PUSH1 0x3 PUSH1 0x0 PUSH2 0x100 EXP DUP2 SLOAD DUP2 PUSH20 0xFFFFFFFFFFFFFFFFFFFFFFFFFFFFFFFFFFFFFFFF MUL NOT AND SWAP1 DUP4 PUSH20 0xFFFFFFFFFFFFFFFFFFFFFFFFFFFFFFFFFFFFFFFF AND MUL OR SWAP1 SSTORE POP PUSH1 0x0 PUSH1 0x8 SSTORE CALLVALUE DUP1 ISZERO PUSH2 0xB9 JUMPI PUSH1 0x0 DUP1 REVERT JUMPDEST POP PUSH20 0x6168499C0CFFCACD319C818142124B7A15E857AB DUP1 PUSH20 0xFFFFFFFFFFFFFFFFFFFFFFFFFFFFFFFFFFFFFFFF AND PUSH1 0x80 DUP2 PUSH20 0xFFFFFFFFFFFFFFFFFFFFFFFFFFFFFFFFFFFFFFFF AND DUP2 MSTORE POP POP POP PUSH1 0x80 MLOAD PUSH2 0xF5C PUSH2 0x126 PUSH1 0x0 CODECOPY PUSH1 0x0 DUP2 DUP2 PUSH2 0x2AA ADD MSTORE PUSH2 0x2FE ADD MSTORE PUSH2 0xF5C PUSH1 0x0 RETURN INVALID PUSH1 0x80 PUSH1 0x40 MSTORE PUSH1 0x4 CALLDATASIZE LT PUSH2 0x9C JUMPI PUSH1 0x0 CALLDATALOAD PUSH1 0xE0 SHR DUP1 PUSH4 0x6D6FE230 GT PUSH2 0x64 JUMPI DUP1 PUSH4 0x6D6FE230 EQ PUSH2 0x19B JUMPI DUP1 PUSH4 0x6FD09816 EQ PUSH2 0x1D8 JUMPI DUP1 PUSH4 0xA59F3E0C EQ PUSH2 0x1EF JUMPI DUP1 PUSH4 0xE580F47B EQ PUSH2 0x20B JUMPI DUP1 PUSH4 0xE89E106A EQ PUSH2 0x236 JUMPI DUP1 PUSH4 0xF6EAFFC8 EQ PUSH2 0x261 JUMPI PUSH2 0x9C JUMP JUMPDEST DUP1 PUSH4 0x12065FE0 EQ PUSH2 0xA1 JUMPI DUP1 PUSH4 0x1FE543E3 EQ PUSH2 0xCC JUMPI DUP1 PUSH4 0x281D098D EQ PUSH2 0xF5 JUMPI DUP1 PUSH4 0x32EB85A4 EQ PUSH2 0x132 JUMPI DUP1 PUSH4 0x460E2049 EQ PUSH2 0x15D JUMPI JUMPDEST PUSH1 0x0 DUP1 REVERT JUMPDEST CALLVALUE DUP1 ISZERO PUSH2 0xAD JUMPI PUSH1 0x0 DUP1 REVERT JUMPDEST POP PUSH2 0xB6 PUSH2 0x29E JUMP JUMPDEST PUSH1 0x40 MLOAD PUSH2 0xC3 SWAP2 SWAP1 PUSH2 0x8C6 JUMP JUMPDEST PUSH1 0x40 MLOAD DUP1 SWAP2 SUB SWAP1 RETURN JUMPDEST CALLVALUE DUP1 ISZERO PUSH2 0xD8 JUMPI PUSH1 0x0 DUP1 REVERT JUMPDEST POP PUSH2 0xF3 PUSH1 0x4 DUP1 CALLDATASIZE SUB DUP2 ADD SWAP1 PUSH2 0xEE SWAP2 SWAP1 PUSH2 0xA7A JUMP JUMPDEST PUSH2 0x2A8 JUMP JUMPDEST STOP JUMPDEST CALLVALUE DUP1 ISZERO PUSH2 0x101 JUMPI PUSH1 0x0 DUP1 REVERT JUMPDEST POP PUSH2 0x11C PUSH1 0x4 DUP1 CALLDATASIZE SUB DUP2 ADD SWAP1 PUSH2 0x117 SWAP2 SWAP1 PUSH2 0xAD6 JUMP JUMPDEST PUSH2 0x368 JUMP JUMPDEST PUSH1 0x40 MLOAD PUSH2 0x129 SWAP2 SWAP1 PUSH2 0xB44 JUMP JUMPDEST PUSH1 0x40 MLOAD DUP1 SWAP2 SUB SWAP1 RETURN JUMPDEST CALLVALUE DUP1 ISZERO PUSH2 0x13E JUMPI PUSH1 0x0 DUP1 REVERT JUMPDEST POP PUSH2 0x147 PUSH2 0x3A5 JUMP JUMPDEST PUSH1 0x40 MLOAD PUSH2 0x154 SWAP2 SWAP1 PUSH2 0x8C6 JUMP JUMPDEST PUSH1 0x40 MLOAD DUP1 SWAP2 SUB SWAP1 RETURN JUMPDEST CALLVALUE DUP1 ISZERO PUSH2 0x169 JUMPI PUSH1 0x0 DUP1 REVERT JUMPDEST POP PUSH2 0x184 PUSH1 0x4 DUP1 CALLDATASIZE SUB DUP2 ADD SWAP1 PUSH2 0x17F SWAP2 SWAP1 PUSH2 0xAD6 JUMP JUMPDEST PUSH2 0x3AF JUMP JUMPDEST PUSH1 0x40 MLOAD PUSH2 0x192 SWAP3 SWAP2 SWAP1 PUSH2 0xB5F JUMP JUMPDEST PUSH1 0x40 MLOAD DUP1 SWAP2 SUB SWAP1 RETURN JUMPDEST CALLVALUE DUP1 ISZERO PUSH2 0x1A7 JUMPI PUSH1 0x0 DUP1 REVERT JUMPDEST POP PUSH2 0x1C2 PUSH1 0x4 DUP1 CALLDATASIZE SUB DUP2 ADD SWAP1 PUSH2 0x1BD SWAP2 SWAP1 PUSH2 0xAD6 JUMP JUMPDEST PUSH2 0x3FD JUMP JUMPDEST PUSH1 0x40 MLOAD PUSH2 0x1CF SWAP2 SWAP1 PUSH2 0xB44 JUMP JUMPDEST PUSH1 0x40 MLOAD DUP1 SWAP2 SUB SWAP1 RETURN JUMPDEST CALLVALUE DUP1 ISZERO PUSH2 0x1E4 JUMPI PUSH1 0x0 DUP1 REVERT JUMPDEST POP PUSH2 0x1ED PUSH2 0x430 JUMP JUMPDEST STOP JUMPDEST PUSH2 0x209 PUSH1 0x4 DUP1 CALLDATASIZE SUB DUP2 ADD SWAP1 PUSH2 0x204 SWAP2 SWAP1 PUSH2 0xAD6 JUMP JUMPDEST PUSH2 0x4C2 JUMP JUMPDEST STOP JUMPDEST CALLVALUE DUP1 ISZERO PUSH2 0x217 JUMPI PUSH1 0x0 DUP1 REVERT JUMPDEST POP PUSH2 0x220 PUSH2 0x661 JUMP JUMPDEST PUSH1 0x40 MLOAD PUSH2 0x22D SWAP2 SWAP1 PUSH2 0x8C6 JUMP JUMPDEST PUSH1 0x40 MLOAD DUP1 SWAP2 SUB SWAP1 RETURN JUMPDEST CALLVALUE DUP1 ISZERO PUSH2 0x242 JUMPI PUSH1 0x0 DUP1 REVERT JUMPDEST POP PUSH2 0x24B PUSH2 0x667 JUMP JUMPDEST PUSH1 0x40 MLOAD PUSH2 0x258 SWAP2 SWAP1 PUSH2 0x8C6 JUMP JUMPDEST PUSH1 0x40 MLOAD DUP1 SWAP2 SUB SWAP1 RETURN JUMPDEST CALLVALUE DUP1 ISZERO PUSH2 0x26D JUMPI PUSH1 0x0 DUP1 REVERT JUMPDEST POP PUSH2 0x288 PUSH1 0x4 DUP1 CALLDATASIZE SUB DUP2 ADD SWAP1 PUSH2 0x283 SWAP2 SWAP1 PUSH2 0xAD6 JUMP JUMPDEST PUSH2 0x66D JUMP JUMPDEST PUSH1 0x40 MLOAD PUSH2 0x295 SWAP2 SWAP1 PUSH2 0x8C6 JUMP JUMPDEST PUSH1 0x40 MLOAD DUP1 SWAP2 SUB SWAP1 RETURN JUMPDEST PUSH1 0x0 PUSH1 0x9 SLOAD SWAP1 POP SWAP1 JUMP JUMPDEST PUSH32 0x0 PUSH20 0xFFFFFFFFFFFFFFFFFFFFFFFFFFFFFFFFFFFFFFFF AND CALLER PUSH20 0xFFFFFFFFFFFFFFFFFFFFFFFFFFFFFFFFFFFFFFFF AND EQ PUSH2 0x35A JUMPI CALLER PUSH32 0x0 PUSH1 0x40 MLOAD PUSH32 0x1CF993F400000000000000000000000000000000000000000000000000000000 DUP2 MSTORE PUSH1 0x4 ADD PUSH2 0x351 SWAP3 SWAP2 SWAP1 PUSH2 0xBA9 JUMP JUMPDEST PUSH1 0x40 MLOAD DUP1 SWAP2 SUB SWAP1 REVERT JUMPDEST PUSH2 0x364 DUP3 DUP3 PUSH2 0x691 JUMP JUMPDEST POP POP JUMP JUMPDEST PUSH1 0x0 PUSH1 0x5 PUSH1 0x0 DUP4 DUP2 MSTORE PUSH1 0x20 ADD SWAP1 DUP2 MSTORE PUSH1 0x20 ADD PUSH1 0x0 KECCAK256 PUSH1 0x0 SWAP1 SLOAD SWAP1 PUSH2 0x100 EXP SWAP1 DIV PUSH20 0xFFFFFFFFFFFFFFFFFFFFFFFFFFFFFFFFFFFFFFFF AND SWAP1 POP SWAP2 SWAP1 POP JUMP JUMPDEST PUSH1 0x0 PUSH1 0x8 SLOAD SWAP1 POP SWAP1 JUMP JUMPDEST PUSH1 0x0 DUP1 PUSH1 0x0 PUSH1 0x7 PUSH1 0x0 DUP6 DUP2 MSTORE PUSH1 0x20 ADD SWAP1 DUP2 MSTORE PUSH1 0x20 ADD PUSH1 0x0 KECCAK256 SWAP1 POP DUP1 PUSH1 0x0 ADD PUSH1 0x0 SWAP1 SLOAD SWAP1 PUSH2 0x100 EXP SWAP1 DIV PUSH20 0xFFFFFFFFFFFFFFFFFFFFFFFFFFFFFFFFFFFFFFFF AND DUP2 PUSH1 0x1 ADD SLOAD SWAP3 POP SWAP3 POP POP SWAP2 POP SWAP2 JUMP JUMPDEST PUSH1 0x5 PUSH1 0x20 MSTORE DUP1 PUSH1 0x0 MSTORE PUSH1 0x40 PUSH1 0x0 KECCAK256 PUSH1 0x0 SWAP2 POP SLOAD SWAP1 PUSH2 0x100 EXP SWAP1 DIV PUSH20 0xFFFFFFFFFFFFFFFFFFFFFFFFFFFFFFFFFFFFFFFF AND DUP2 JUMP JUMPDEST PUSH1 0x3 PUSH1 0x0 SWAP1 SLOAD SWAP1 PUSH2 0x100 EXP SWAP1 DIV PUSH20 0xFFFFFFFFFFFFFFFFFFFFFFFFFFFFFFFFFFFFFFFF AND PUSH20 0xFFFFFFFFFFFFFFFFFFFFFFFFFFFFFFFFFFFFFFFF AND CALLER PUSH20 0xFFFFFFFFFFFFFFFFFFFFFFFFFFFFFFFFFFFFFFFF AND EQ PUSH2 0x48A JUMPI PUSH1 0x0 DUP1 REVERT JUMPDEST PUSH2 0x492 PUSH2 0x6AC JUMP JUMPDEST PUSH1 0x0 PUSH1 0x6 PUSH1 0x0 PUSH1 0xA SLOAD DUP2 MSTORE PUSH1 0x20 ADD SWAP1 DUP2 MSTORE PUSH1 0x20 ADD PUSH1 0x0 KECCAK256 PUSH1 0x0 ADD DUP1 SLOAD SWAP1 POP PUSH1 0x9 SLOAD PUSH2 0x4BD SWAP2 SWAP1 PUSH2 0xC30 JUMP JUMPDEST SWAP1 POP POP JUMP JUMPDEST PUSH1 0x2 CALLVALUE GT PUSH2 0x505 JUMPI PUSH1 0x40 MLOAD PUSH32 0x8C379A000000000000000000000000000000000000000000000000000000000 DUP2 MSTORE PUSH1 0x4 ADD PUSH2 0x4FC SWAP1 PUSH2 0xCBE JUMP JUMPDEST PUSH1 0x40 MLOAD DUP1 SWAP2 SUB SWAP1 REVERT JUMPDEST CALLVALUE PUSH1 0x9 PUSH1 0x0 DUP3 DUP3 SLOAD PUSH2 0x517 SWAP2 SWAP1 PUSH2 0xCDE JUMP JUMPDEST SWAP3 POP POP DUP2 SWAP1 SSTORE POP PUSH1 0x1 DUP2 LT ISZERO DUP1 ISZERO PUSH2 0x530 JUMPI POP PUSH1 0xA DUP2 GT ISZERO JUMPDEST PUSH2 0x56F JUMPI PUSH1 0x40 MLOAD PUSH32 0x8C379A000000000000000000000000000000000000000000000000000000000 DUP2 MSTORE PUSH1 0x4 ADD PUSH2 0x566 SWAP1 PUSH2 0xD80 JUMP JUMPDEST PUSH1 0x40 MLOAD DUP1 SWAP2 SUB SWAP1 REVERT JUMPDEST PUSH1 0x0 PUSH1 0x7 PUSH1 0x0 PUSH1 0x8 SLOAD DUP2 MSTORE PUSH1 0x20 ADD SWAP1 DUP2 MSTORE PUSH1 0x20 ADD PUSH1 0x0 KECCAK256 SWAP1 POP CALLER DUP2 PUSH1 0x0 ADD PUSH1 0x0 PUSH2 0x100 EXP DUP2 SLOAD DUP2 PUSH20 0xFFFFFFFFFFFFFFFFFFFFFFFFFFFFFFFFFFFFFFFF MUL NOT AND SWAP1 DUP4 PUSH20 0xFFFFFFFFFFFFFFFFFFFFFFFFFFFFFFFFFFFFFFFF AND MUL OR SWAP1 SSTORE POP DUP2 DUP2 PUSH1 0x1 ADD DUP2 SWAP1 SSTORE POP PUSH1 0x0 PUSH1 0x6 PUSH1 0x0 DUP4 PUSH1 0x1 ADD SLOAD DUP2 MSTORE PUSH1 0x20 ADD SWAP1 DUP2 MSTORE PUSH1 0x20 ADD PUSH1 0x0 KECCAK256 SWAP1 POP DUP1 PUSH1 0x0 ADD CALLER SWAP1 DUP1 PUSH1 0x1 DUP2 SLOAD ADD DUP1 DUP3 SSTORE DUP1 SWAP2 POP POP PUSH1 0x1 SWAP1 SUB SWAP1 PUSH1 0x0 MSTORE PUSH1 0x20 PUSH1 0x0 KECCAK256 ADD PUSH1 0x0 SWAP1 SWAP2 SWAP1 SWAP2 SWAP1 SWAP2 PUSH2 0x100 EXP DUP2 SLOAD DUP2 PUSH20 0xFFFFFFFFFFFFFFFFFFFFFFFFFFFFFFFFFFFFFFFF MUL NOT AND SWAP1 DUP4 PUSH20 0xFFFFFFFFFFFFFFFFFFFFFFFFFFFFFFFFFFFFFFFF AND MUL OR SWAP1 SSTORE POP PUSH2 0x65C PUSH2 0x829 JUMP JUMPDEST POP POP POP JUMP JUMPDEST PUSH1 0x4 SLOAD DUP2 JUMP JUMPDEST PUSH1 0x2 SLOAD DUP2 JUMP JUMPDEST PUSH1 0x1 DUP2 DUP2 SLOAD DUP2 LT PUSH2 0x67D JUMPI PUSH1 0x0 DUP1 REVERT JUMPDEST SWAP1 PUSH1 0x0 MSTORE PUSH1 0x20 PUSH1 0x0 KECCAK256 ADD PUSH1 0x0 SWAP2 POP SWAP1 POP SLOAD DUP2 JUMP JUMPDEST DUP1 PUSH1 0x1 SWAP1 DUP1 MLOAD SWAP1 PUSH1 0x20 ADD SWAP1 PUSH2 0x6A7 SWAP3 SWAP2 SWAP1 PUSH2 0x843 JUMP JUMPDEST POP POP POP JUMP JUMPDEST PUSH1 0x3 PUSH1 0x0 SWAP1 SLOAD SWAP1 PUSH2 0x100 EXP SWAP1 DIV PUSH20 0xFFFFFFFFFFFFFFFFFFFFFFFFFFFFFFFFFFFFFFFF AND PUSH20 0xFFFFFFFFFFFFFFFFFFFFFFFFFFFFFFFFFFFFFFFF AND CALLER PUSH20 0xFFFFFFFFFFFFFFFFFFFFFFFFFFFFFFFFFFFFFFFF AND EQ PUSH2 0x706 JUMPI PUSH1 0x0 DUP1 REVERT JUMPDEST PUSH1 0x8 SLOAD PUSH20 0x6168499C0CFFCACD319C818142124B7A15E857AB PUSH20 0xFFFFFFFFFFFFFFFFFFFFFFFFFFFFFFFFFFFFFFFF AND PUSH4 0x5D3B1D30 PUSH32 0xD89B2BF150E3B9E13446986E571FB9CAB24B13CEA0A43EA20A6049A85CC807CC PUSH1 0x0 SHL PUSH2 0x1CCA PUSH1 0x0 PUSH1 0x4 SWAP1 SLOAD SWAP1 PUSH2 0x100 EXP SWAP1 DIV PUSH2 0xFFFF AND PUSH1 0x0 DUP1 SLOAD SWAP1 PUSH2 0x100 EXP SWAP1 DIV PUSH4 0xFFFFFFFF AND PUSH1 0x0 PUSH1 0x6 SWAP1 SLOAD SWAP1 PUSH2 0x100 EXP SWAP1 DIV PUSH4 0xFFFFFFFF AND PUSH1 0x40 MLOAD DUP7 PUSH4 0xFFFFFFFF AND PUSH1 0xE0 SHL DUP2 MSTORE PUSH1 0x4 ADD PUSH2 0x7B5 SWAP6 SWAP5 SWAP4 SWAP3 SWAP2 SWAP1 PUSH2 0xE18 JUMP JUMPDEST PUSH1 0x20 PUSH1 0x40 MLOAD DUP1 DUP4 SUB DUP2 PUSH1 0x0 DUP8 GAS CALL ISZERO DUP1 ISZERO PUSH2 0x7D4 JUMPI RETURNDATASIZE PUSH1 0x0 DUP1 RETURNDATACOPY RETURNDATASIZE PUSH1 0x0 REVERT JUMPDEST POP POP POP POP PUSH1 0x40 MLOAD RETURNDATASIZE PUSH1 0x1F NOT PUSH1 0x1F DUP3 ADD AND DUP3 ADD DUP1 PUSH1 0x40 MSTORE POP DUP2 ADD SWAP1 PUSH2 0x7F8 SWAP2 SWAP1 PUSH2 0xE80 JUMP JUMPDEST PUSH2 0x802 SWAP2 SWAP1 PUSH2 0xEAD JUMP JUMPDEST PUSH1 0x2 DUP2 SWAP1 SSTORE POP PUSH1 0x7 PUSH1 0x0 PUSH1 0x2 SLOAD DUP2 MSTORE PUSH1 0x20 ADD SWAP1 DUP2 MSTORE PUSH1 0x20 ADD PUSH1 0x0 KECCAK256 PUSH1 0x1 ADD SLOAD PUSH1 0xA DUP2 SWAP1 SSTORE POP JUMP JUMPDEST PUSH1 0x8 PUSH1 0x0 DUP2 SLOAD DUP1 SWAP3 SWAP2 SWAP1 PUSH2 0x83C SWAP1 PUSH2 0xEDE JUMP JUMPDEST SWAP2 SWAP1 POP SSTORE POP JUMP JUMPDEST DUP3 DUP1 SLOAD DUP3 DUP3 SSTORE SWAP1 PUSH1 0x0 MSTORE PUSH1 0x20 PUSH1 0x0 KECCAK256 SWAP1 DUP2 ADD SWAP3 DUP3 ISZERO PUSH2 0x87F JUMPI SWAP2 PUSH1 0x20 MUL DUP3 ADD JUMPDEST DUP3 DUP2 GT ISZERO PUSH2 0x87E JUMPI DUP3 MLOAD DUP3 SSTORE SWAP2 PUSH1 0x20 ADD SWAP2 SWAP1 PUSH1 0x1 ADD SWAP1 PUSH2 0x863 JUMP JUMPDEST JUMPDEST POP SWAP1 POP PUSH2 0x88C SWAP2 SWAP1 PUSH2 0x890 JUMP JUMPDEST POP SWAP1 JUMP JUMPDEST JUMPDEST DUP1 DUP3 GT ISZERO PUSH2 0x8A9 JUMPI PUSH1 0x0 DUP2 PUSH1 0x0 SWAP1 SSTORE POP PUSH1 0x1 ADD PUSH2 0x891 JUMP JUMPDEST POP SWAP1 JUMP JUMPDEST PUSH1 0x0 DUP2 SWAP1 POP SWAP2 SWAP1 POP JUMP JUMPDEST PUSH2 0x8C0 DUP2 PUSH2 0x8AD JUMP JUMPDEST DUP3 MSTORE POP POP JUMP JUMPDEST PUSH1 0x0 PUSH1 0x20 DUP3 ADD SWAP1 POP PUSH2 0x8DB PUSH1 0x0 DUP4 ADD DUP5 PUSH2 0x8B7 JUMP JUMPDEST SWAP3 SWAP2 POP POP JUMP JUMPDEST PUSH1 0x0 PUSH1 0x40 MLOAD SWAP1 POP SWAP1 JUMP JUMPDEST PUSH1 0x0 DUP1 REVERT JUMPDEST PUSH1 0x0 DUP1 REVERT JUMPDEST PUSH2 0x8FE DUP2 PUSH2 0x8AD JUMP JUMPDEST DUP2 EQ PUSH2 0x909 JUMPI PUSH1 0x0 DUP1 REVERT JUMPDEST POP JUMP JUMPDEST PUSH1 0x0 DUP2 CALLDATALOAD SWAP1 POP PUSH2 0x91B DUP2 PUSH2 0x8F5 JUMP JUMPDEST SWAP3 SWAP2 POP POP JUMP JUMPDEST PUSH1 0x0 DUP1 REVERT JUMPDEST PUSH1 0x0 PUSH1 0x1F NOT PUSH1 0x1F DUP4 ADD AND SWAP1 POP SWAP2 SWAP1 POP JUMP JUMPDEST PUSH32 0x4E487B7100000000000000000000000000000000000000000000000000000000 PUSH1 0x0 MSTORE PUSH1 0x41 PUSH1 0x4 MSTORE PUSH1 0x24 PUSH1 0x0 REVERT JUMPDEST PUSH2 0x96F DUP3 PUSH2 0x926 JUMP JUMPDEST DUP2 ADD DUP2 DUP2 LT PUSH8 0xFFFFFFFFFFFFFFFF DUP3 GT OR ISZERO PUSH2 0x98E JUMPI PUSH2 0x98D PUSH2 0x937 JUMP JUMPDEST JUMPDEST DUP1 PUSH1 0x40 MSTORE POP POP POP JUMP JUMPDEST PUSH1 0x0 PUSH2 0x9A1 PUSH2 0x8E1 JUMP JUMPDEST SWAP1 POP PUSH2 0x9AD DUP3 DUP3 PUSH2 0x966 JUMP JUMPDEST SWAP2 SWAP1 POP JUMP JUMPDEST PUSH1 0x0 PUSH8 0xFFFFFFFFFFFFFFFF DUP3 GT ISZERO PUSH2 0x9CD JUMPI PUSH2 0x9CC PUSH2 0x937 JUMP JUMPDEST JUMPDEST PUSH1 0x20 DUP3 MUL SWAP1 POP PUSH1 0x20 DUP2 ADD SWAP1 POP SWAP2 SWAP1 POP JUMP JUMPDEST PUSH1 0x0 DUP1 REVERT JUMPDEST PUSH1 0x0 PUSH2 0x9F6 PUSH2 0x9F1 DUP5 PUSH2 0x9B2 JUMP JUMPDEST PUSH2 0x997 JUMP JUMPDEST SWAP1 POP DUP1 DUP4 DUP3 MSTORE PUSH1 0x20 DUP3 ADD SWAP1 POP PUSH1 0x20 DUP5 MUL DUP4 ADD DUP6 DUP2 GT ISZERO PUSH2 0xA19 JUMPI PUSH2 0xA18 PUSH2 0x9DE JUMP JUMPDEST JUMPDEST DUP4 JUMPDEST DUP2 DUP2 LT ISZERO PUSH2 0xA42 JUMPI DUP1 PUSH2 0xA2E DUP9 DUP3 PUSH2 0x90C JUMP JUMPDEST DUP5 MSTORE PUSH1 0x20 DUP5 ADD SWAP4 POP POP PUSH1 0x20 DUP2 ADD SWAP1 POP PUSH2 0xA1B JUMP JUMPDEST POP POP POP SWAP4 SWAP3 POP POP POP JUMP JUMPDEST PUSH1 0x0 DUP3 PUSH1 0x1F DUP4 ADD SLT PUSH2 0xA61 JUMPI PUSH2 0xA60 PUSH2 0x921 JUMP JUMPDEST JUMPDEST DUP2 CALLDATALOAD PUSH2 0xA71 DUP5 DUP3 PUSH1 0x20 DUP7 ADD PUSH2 0x9E3 JUMP JUMPDEST SWAP2 POP POP SWAP3 SWAP2 POP POP JUMP JUMPDEST PUSH1 0x0 DUP1 PUSH1 0x40 DUP4 DUP6 SUB SLT ISZERO PUSH2 0xA91 JUMPI PUSH2 0xA90 PUSH2 0x8EB JUMP JUMPDEST JUMPDEST PUSH1 0x0 PUSH2 0xA9F DUP6 DUP3 DUP7 ADD PUSH2 0x90C JUMP JUMPDEST SWAP3 POP POP PUSH1 0x20 DUP4 ADD CALLDATALOAD PUSH8 0xFFFFFFFFFFFFFFFF DUP2 GT ISZERO PUSH2 0xAC0 JUMPI PUSH2 0xABF PUSH2 0x8F0 JUMP JUMPDEST JUMPDEST PUSH2 0xACC DUP6 DUP3 DUP7 ADD PUSH2 0xA4C JUMP JUMPDEST SWAP2 POP POP SWAP3 POP SWAP3 SWAP1 POP JUMP JUMPDEST PUSH1 0x0 PUSH1 0x20 DUP3 DUP5 SUB SLT ISZERO PUSH2 0xAEC JUMPI PUSH2 0xAEB PUSH2 0x8EB JUMP JUMPDEST JUMPDEST PUSH1 0x0 PUSH2 0xAFA DUP5 DUP3 DUP6 ADD PUSH2 0x90C JUMP JUMPDEST SWAP2 POP POP SWAP3 SWAP2 POP POP JUMP JUMPDEST PUSH1 0x0 PUSH20 0xFFFFFFFFFFFFFFFFFFFFFFFFFFFFFFFFFFFFFFFF DUP3 AND SWAP1 POP SWAP2 SWAP1 POP JUMP JUMPDEST PUSH1 0x0 PUSH2 0xB2E DUP3 PUSH2 0xB03 JUMP JUMPDEST SWAP1 POP SWAP2 SWAP1 POP JUMP JUMPDEST PUSH2 0xB3E DUP2 PUSH2 0xB23 JUMP JUMPDEST DUP3 MSTORE POP POP JUMP JUMPDEST PUSH1 0x0 PUSH1 0x20 DUP3 ADD SWAP1 POP PUSH2 0xB59 PUSH1 0x0 DUP4 ADD DUP5 PUSH2 0xB35 JUMP JUMPDEST SWAP3 SWAP2 POP POP JUMP JUMPDEST PUSH1 0x0 PUSH1 0x40 DUP3 ADD SWAP1 POP PUSH2 0xB74 PUSH1 0x0 DUP4 ADD DUP6 PUSH2 0xB35 JUMP JUMPDEST PUSH2 0xB81 PUSH1 0x20 DUP4 ADD DUP5 PUSH2 0x8B7 JUMP JUMPDEST SWAP4 SWAP3 POP POP POP JUMP JUMPDEST PUSH1 0x0 PUSH2 0xB93 DUP3 PUSH2 0xB03 JUMP JUMPDEST SWAP1 POP SWAP2 SWAP1 POP JUMP JUMPDEST PUSH2 0xBA3 DUP2 PUSH2 0xB88 JUMP JUMPDEST DUP3 MSTORE POP POP JUMP JUMPDEST PUSH1 0x0 PUSH1 0x40 DUP3 ADD SWAP1 POP PUSH2 0xBBE PUSH1 0x0 DUP4 ADD DUP6 PUSH2 0xB9A JUMP JUMPDEST PUSH2 0xBCB PUSH1 0x20 DUP4 ADD DUP5 PUSH2 0xB9A JUMP JUMPDEST SWAP4 SWAP3 POP POP POP JUMP JUMPDEST PUSH32 0x4E487B7100000000000000000000000000000000000000000000000000000000 PUSH1 0x0 MSTORE PUSH1 0x12 PUSH1 0x4 MSTORE PUSH1 0x24 PUSH1 0x0 REVERT JUMPDEST PUSH32 0x4E487B7100000000000000000000000000000000000000000000000000000000 PUSH1 0x0 MSTORE PUSH1 0x11 PUSH1 0x4 MSTORE PUSH1 0x24 PUSH1 0x0 REVERT JUMPDEST PUSH1 0x0 PUSH2 0xC3B DUP3 PUSH2 0x8AD JUMP JUMPDEST SWAP2 POP PUSH2 0xC46 DUP4 PUSH2 0x8AD JUMP JUMPDEST SWAP3 POP DUP3 PUSH2 0xC56 JUMPI PUSH2 0xC55 PUSH2 0xBD2 JUMP JUMPDEST JUMPDEST DUP3 DUP3 DIV SWAP1 POP SWAP3 SWAP2 POP POP JUMP JUMPDEST PUSH1 0x0 DUP3 DUP3 MSTORE PUSH1 0x20 DUP3 ADD SWAP1 POP SWAP3 SWAP2 POP POP JUMP JUMPDEST PUSH32 0x4E6F7420656E6F75676820746F6B656E00000000000000000000000000000000 PUSH1 0x0 DUP3 ADD MSTORE POP JUMP JUMPDEST PUSH1 0x0 PUSH2 0xCA8 PUSH1 0x10 DUP4 PUSH2 0xC61 JUMP JUMPDEST SWAP2 POP PUSH2 0xCB3 DUP3 PUSH2 0xC72 JUMP JUMPDEST PUSH1 0x20 DUP3 ADD SWAP1 POP SWAP2 SWAP1 POP JUMP JUMPDEST PUSH1 0x0 PUSH1 0x20 DUP3 ADD SWAP1 POP DUP2 DUP2 SUB PUSH1 0x0 DUP4 ADD MSTORE PUSH2 0xCD7 DUP2 PUSH2 0xC9B JUMP JUMPDEST SWAP1 POP SWAP2 SWAP1 POP JUMP JUMPDEST PUSH1 0x0 PUSH2 0xCE9 DUP3 PUSH2 0x8AD JUMP JUMPDEST SWAP2 POP PUSH2 0xCF4 DUP4 PUSH2 0x8AD JUMP JUMPDEST SWAP3 POP DUP3 PUSH32 0xFFFFFFFFFFFFFFFFFFFFFFFFFFFFFFFFFFFFFFFFFFFFFFFFFFFFFFFFFFFFFFFF SUB DUP3 GT ISZERO PUSH2 0xD29 JUMPI PUSH2 0xD28 PUSH2 0xC01 JUMP JUMPDEST JUMPDEST DUP3 DUP3 ADD SWAP1 POP SWAP3 SWAP2 POP POP JUMP JUMPDEST PUSH32 0x4E756D626572207469636B6574206F7574206F662072616E6765000000000000 PUSH1 0x0 DUP3 ADD MSTORE POP JUMP JUMPDEST PUSH1 0x0 PUSH2 0xD6A PUSH1 0x1A DUP4 PUSH2 0xC61 JUMP JUMPDEST SWAP2 POP PUSH2 0xD75 DUP3 PUSH2 0xD34 JUMP JUMPDEST PUSH1 0x20 DUP3 ADD SWAP1 POP SWAP2 SWAP1 POP JUMP JUMPDEST PUSH1 0x0 PUSH1 0x20 DUP3 ADD SWAP1 POP DUP2 DUP2 SUB PUSH1 0x0 DUP4 ADD MSTORE PUSH2 0xD99 DUP2 PUSH2 0xD5D JUMP JUMPDEST SWAP1 POP SWAP2 SWAP1 POP JUMP JUMPDEST PUSH1 0x0 DUP2 SWAP1 POP SWAP2 SWAP1 POP JUMP JUMPDEST PUSH2 0xDB3 DUP2 PUSH2 0xDA0 JUMP JUMPDEST DUP3 MSTORE POP POP JUMP JUMPDEST PUSH1 0x0 PUSH8 0xFFFFFFFFFFFFFFFF DUP3 AND SWAP1 POP SWAP2 SWAP1 POP JUMP JUMPDEST PUSH2 0xDD6 DUP2 PUSH2 0xDB9 JUMP JUMPDEST DUP3 MSTORE POP POP JUMP JUMPDEST PUSH1 0x0 PUSH2 0xFFFF DUP3 AND SWAP1 POP SWAP2 SWAP1 POP JUMP JUMPDEST PUSH2 0xDF3 DUP2 PUSH2 0xDDC JUMP JUMPDEST DUP3 MSTORE POP POP JUMP JUMPDEST PUSH1 0x0 PUSH4 0xFFFFFFFF DUP3 AND SWAP1 POP SWAP2 SWAP1 POP JUMP JUMPDEST PUSH2 0xE12 DUP2 PUSH2 0xDF9 JUMP JUMPDEST DUP3 MSTORE POP POP JUMP JUMPDEST PUSH1 0x0 PUSH1 0xA0 DUP3 ADD SWAP1 POP PUSH2 0xE2D PUSH1 0x0 DUP4 ADD DUP9 PUSH2 0xDAA JUMP JUMPDEST PUSH2 0xE3A PUSH1 0x20 DUP4 ADD DUP8 PUSH2 0xDCD JUMP JUMPDEST PUSH2 0xE47 PUSH1 0x40 DUP4 ADD DUP7 PUSH2 0xDEA JUMP JUMPDEST PUSH2 0xE54 PUSH1 0x60 DUP4 ADD DUP6 PUSH2 0xE09 JUMP JUMPDEST PUSH2 0xE61 PUSH1 0x80 DUP4 ADD DUP5 PUSH2 0xE09 JUMP JUMPDEST SWAP7 SWAP6 POP POP POP POP POP POP JUMP JUMPDEST PUSH1 0x0 DUP2 MLOAD SWAP1 POP PUSH2 0xE7A DUP2 PUSH2 0x8F5 JUMP JUMPDEST SWAP3 SWAP2 POP POP JUMP JUMPDEST PUSH1 0x0 PUSH1 0x20 DUP3 DUP5 SUB SLT ISZERO PUSH2 0xE96 JUMPI PUSH2 0xE95 PUSH2 0x8EB JUMP JUMPDEST JUMPDEST PUSH1 0x0 PUSH2 0xEA4 DUP5 DUP3 DUP6 ADD PUSH2 0xE6B JUMP JUMPDEST SWAP2 POP POP SWAP3 SWAP2 POP POP JUMP JUMPDEST PUSH1 0x0 PUSH2 0xEB8 DUP3 PUSH2 0x8AD JUMP JUMPDEST SWAP2 POP PUSH2 0xEC3 DUP4 PUSH2 0x8AD JUMP JUMPDEST SWAP3 POP DUP3 PUSH2 0xED3 JUMPI PUSH2 0xED2 PUSH2 0xBD2 JUMP JUMPDEST JUMPDEST DUP3 DUP3 MOD SWAP1 POP SWAP3 SWAP2 POP POP JUMP JUMPDEST PUSH1 0x0 PUSH2 0xEE9 DUP3 PUSH2 0x8AD JUMP JUMPDEST SWAP2 POP PUSH32 0xFFFFFFFFFFFFFFFFFFFFFFFFFFFFFFFFFFFFFFFFFFFFFFFFFFFFFFFFFFFFFFFF DUP3 SUB PUSH2 0xF1B JUMPI PUSH2 0xF1A PUSH2 0xC01 JUMP JUMPDEST JUMPDEST PUSH1 0x1 DUP3 ADD SWAP1 POP SWAP2 SWAP1 POP JUMP INVALID LOG2 PUSH5 0x6970667358 0x22 SLT KECCAK256 PUSH32 0x1044F44B3768A9984A4CBA8F1FF896E88921DB0FA228F41DD5C96DA3ACF21364 PUSH20 0x6F6C634300080F00330000000000000000000000 "
				},
				"gasEstimates": {
					"creation": {
						"codeDepositCost": "786400",
						"executionCost": "infinite",
						"totalCost": "infinite"
					},
					"external": {
						"closeLottery()": "infinite",
						"enter(uint256)": "infinite",
						"getAmountPlayer()": "2504",
						"getBalance()": "2438",
						"getPlayers(uint256)": "infinite",
						"getWinnerByLottery(uint256)": "2910",
						"lotteryHistory(uint256)": "2839",
						"lotteryId()": "2495",
						"rawFulfillRandomWords(uint256,uint256[])": "infinite",
						"s_randomWords(uint256)": "infinite",
						"s_requestId()": "2517"
					},
					"internal": {
						"fulfillRandomWords(uint256,uint256[] memory)": "infinite",
						"increasePlayerCount()": "24366",
						"requestRandomWords()": "infinite"
					}
				},
				"methodIdentifiers": {
					"closeLottery()": "6fd09816",
					"enter(uint256)": "a59f3e0c",
					"getAmountPlayer()": "32eb85a4",
					"getBalance()": "12065fe0",
					"getPlayers(uint256)": "460e2049",
					"getWinnerByLottery(uint256)": "281d098d",
					"lotteryHistory(uint256)": "6d6fe230",
					"lotteryId()": "e580f47b",
					"rawFulfillRandomWords(uint256,uint256[])": "1fe543e3",
					"s_randomWords(uint256)": "f6eaffc8",
					"s_requestId()": "e89e106a"
				}
			},
			"storageLayout": {
				"storage": [
					{
						"astId": 721,
						"contract": "contracts/Lottery.sol:Lottery",
						"label": "callbackGasLimit",
						"offset": 0,
						"slot": "0",
						"type": "t_uint32"
					},
					{
						"astId": 724,
						"contract": "contracts/Lottery.sol:Lottery",
						"label": "requestConfirmations",
						"offset": 4,
						"slot": "0",
						"type": "t_uint16"
					},
					{
						"astId": 727,
						"contract": "contracts/Lottery.sol:Lottery",
						"label": "numWords",
						"offset": 6,
						"slot": "0",
						"type": "t_uint32"
					},
					{
						"astId": 730,
						"contract": "contracts/Lottery.sol:Lottery",
						"label": "s_randomWords",
						"offset": 0,
						"slot": "1",
						"type": "t_array(t_uint256)dyn_storage"
					},
					{
						"astId": 732,
						"contract": "contracts/Lottery.sol:Lottery",
						"label": "s_requestId",
						"offset": 0,
						"slot": "2",
						"type": "t_uint256"
					},
					{
						"astId": 736,
						"contract": "contracts/Lottery.sol:Lottery",
						"label": "s_owner",
						"offset": 0,
						"slot": "3",
						"type": "t_address"
					},
					{
						"astId": 738,
						"contract": "contracts/Lottery.sol:Lottery",
						"label": "lotteryId",
						"offset": 0,
						"slot": "4",
						"type": "t_uint256"
					},
					{
						"astId": 742,
						"contract": "contracts/Lottery.sol:Lottery",
						"label": "lotteryHistory",
						"offset": 0,
						"slot": "5",
						"type": "t_mapping(t_uint256,t_address_payable)"
					},
					{
						"astId": 751,
						"contract": "contracts/Lottery.sol:Lottery",
						"label": "groupTicket",
						"offset": 0,
						"slot": "6",
						"type": "t_mapping(t_uint256,t_struct(ListNumberTicket)746_storage)"
					},
					{
						"astId": 761,
						"contract": "contracts/Lottery.sol:Lottery",
						"label": "allLottery",
						"offset": 0,
						"slot": "7",
						"type": "t_mapping(t_uint256,t_struct(Participants)756_storage)"
					},
					{
						"astId": 764,
						"contract": "contracts/Lottery.sol:Lottery",
						"label": "playerCount",
						"offset": 0,
						"slot": "8",
						"type": "t_uint256"
					},
					{
						"astId": 766,
						"contract": "contracts/Lottery.sol:Lottery",
						"label": "prizePool",
						"offset": 0,
						"slot": "9",
						"type": "t_uint256"
					},
					{
						"astId": 768,
						"contract": "contracts/Lottery.sol:Lottery",
						"label": "luckyNumber",
						"offset": 0,
						"slot": "10",
						"type": "t_uint256"
					}
				],
				"types": {
					"t_address": {
						"encoding": "inplace",
						"label": "address",
						"numberOfBytes": "20"
					},
					"t_address_payable": {
						"encoding": "inplace",
						"label": "address payable",
						"numberOfBytes": "20"
					},
					"t_array(t_address_payable)dyn_storage": {
						"base": "t_address_payable",
						"encoding": "dynamic_array",
						"label": "address payable[]",
						"numberOfBytes": "32"
					},
					"t_array(t_uint256)dyn_storage": {
						"base": "t_uint256",
						"encoding": "dynamic_array",
						"label": "uint256[]",
						"numberOfBytes": "32"
					},
					"t_mapping(t_uint256,t_address_payable)": {
						"encoding": "mapping",
						"key": "t_uint256",
						"label": "mapping(uint256 => address payable)",
						"numberOfBytes": "32",
						"value": "t_address_payable"
					},
					"t_mapping(t_uint256,t_struct(ListNumberTicket)746_storage)": {
						"encoding": "mapping",
						"key": "t_uint256",
						"label": "mapping(uint256 => struct Lottery.ListNumberTicket)",
						"numberOfBytes": "32",
						"value": "t_struct(ListNumberTicket)746_storage"
					},
					"t_mapping(t_uint256,t_struct(Participants)756_storage)": {
						"encoding": "mapping",
						"key": "t_uint256",
						"label": "mapping(uint256 => struct Lottery.Participants)",
						"numberOfBytes": "32",
						"value": "t_struct(Participants)756_storage"
					},
					"t_struct(ListNumberTicket)746_storage": {
						"encoding": "inplace",
						"label": "struct Lottery.ListNumberTicket",
						"members": [
							{
								"astId": 745,
								"contract": "contracts/Lottery.sol:Lottery",
								"label": "groupPlayer",
								"offset": 0,
								"slot": "0",
								"type": "t_array(t_address_payable)dyn_storage"
							}
						],
						"numberOfBytes": "32"
					},
					"t_struct(Participants)756_storage": {
						"encoding": "inplace",
						"label": "struct Lottery.Participants",
						"members": [
							{
								"astId": 753,
								"contract": "contracts/Lottery.sol:Lottery",
								"label": "player",
								"offset": 0,
								"slot": "0",
								"type": "t_address_payable"
							},
							{
								"astId": 755,
								"contract": "contracts/Lottery.sol:Lottery",
								"label": "numTicket",
								"offset": 0,
								"slot": "1",
								"type": "t_uint256"
							}
						],
						"numberOfBytes": "64"
					},
					"t_uint16": {
						"encoding": "inplace",
						"label": "uint16",
						"numberOfBytes": "2"
					},
					"t_uint256": {
						"encoding": "inplace",
						"label": "uint256",
						"numberOfBytes": "32"
					},
					"t_uint32": {
						"encoding": "inplace",
						"label": "uint32",
						"numberOfBytes": "4"
					}
				}
			},
			"userdoc": {
				"kind": "user",
				"methods": {},
				"version": 1
			}
		}
	}
}