{
	"contracts/Lottery.sol": {
		"Lottery": {
			"abi": [
				{
					"inputs": [
						{
							"internalType": "address",
							"name": "have",
							"type": "address"
						},
						{
							"internalType": "address",
							"name": "want",
							"type": "address"
						}
					],
					"name": "OnlyCoordinatorCanFulfill",
					"type": "error"
				},
				{
					"inputs": [],
					"name": "closeLottery",
					"outputs": [],
					"stateMutability": "nonpayable",
					"type": "function"
				},
				{
					"inputs": [
						{
							"internalType": "uint256",
							"name": "_numTicket",
							"type": "uint256"
						}
					],
					"name": "enter",
					"outputs": [],
					"stateMutability": "payable",
					"type": "function"
				},
				{
					"inputs": [],
					"name": "getAmountPlayer",
					"outputs": [
						{
							"internalType": "uint256",
							"name": "",
							"type": "uint256"
						}
					],
					"stateMutability": "view",
					"type": "function"
				},
				{
					"inputs": [],
					"name": "getBalance",
					"outputs": [
						{
							"internalType": "uint256",
							"name": "",
							"type": "uint256"
						}
					],
					"stateMutability": "view",
					"type": "function"
				},
				{
					"inputs": [],
					"name": "getLuckyNumber",
					"outputs": [
						{
							"internalType": "uint256",
							"name": "",
							"type": "uint256"
						}
					],
					"stateMutability": "view",
					"type": "function"
				},
				{
					"inputs": [
						{
							"internalType": "uint256",
							"name": "_index",
							"type": "uint256"
						}
					],
					"name": "getPlayers",
					"outputs": [
						{
							"internalType": "address payable",
							"name": "",
							"type": "address"
						},
						{
							"internalType": "uint256",
							"name": "",
							"type": "uint256"
						}
					],
					"stateMutability": "view",
					"type": "function"
				},
				{
					"inputs": [
						{
							"internalType": "uint256",
							"name": "lottery",
							"type": "uint256"
						}
					],
					"name": "getWinnerByLottery",
					"outputs": [
						{
							"internalType": "address payable",
							"name": "",
							"type": "address"
						}
					],
					"stateMutability": "view",
					"type": "function"
				},
				{
					"inputs": [
						{
							"internalType": "uint256",
							"name": "",
							"type": "uint256"
						}
					],
					"name": "lotteryHistory",
					"outputs": [
						{
							"internalType": "address payable",
							"name": "",
							"type": "address"
						}
					],
					"stateMutability": "view",
					"type": "function"
				},
				{
					"inputs": [],
					"name": "lotteryId",
					"outputs": [
						{
							"internalType": "uint256",
							"name": "",
							"type": "uint256"
						}
					],
					"stateMutability": "view",
					"type": "function"
				},
				{
					"inputs": [
						{
							"internalType": "uint256",
							"name": "requestId",
							"type": "uint256"
						},
						{
							"internalType": "uint256[]",
							"name": "randomWords",
							"type": "uint256[]"
						}
					],
					"name": "rawFulfillRandomWords",
					"outputs": [],
					"stateMutability": "nonpayable",
					"type": "function"
				},
				{
					"inputs": [],
					"name": "requestRandomWords",
					"outputs": [],
					"stateMutability": "nonpayable",
					"type": "function"
				},
				{
					"inputs": [
						{
							"internalType": "uint256",
							"name": "",
							"type": "uint256"
						}
					],
					"name": "s_randomWords",
					"outputs": [
						{
							"internalType": "uint256",
							"name": "",
							"type": "uint256"
						}
					],
					"stateMutability": "view",
					"type": "function"
				},
				{
					"inputs": [],
					"name": "s_requestId",
					"outputs": [
						{
							"internalType": "uint256",
							"name": "",
							"type": "uint256"
						}
					],
					"stateMutability": "view",
					"type": "function"
				}
			],
			"devdoc": {
				"kind": "dev",
				"methods": {},
				"version": 1
			},
			"evm": {
				"assembly": "    /* \"contracts/Lottery.sol\":426:4163  contract Lottery is VRFConsumerBaseV2(0x6168499c0cFfCaCD319c818142124B7A15E857ab) {... */\n  mstore(0x40, 0xa0)\n    /* \"contracts/Lottery.sol\":1015:1021  100000 */\n  0x0186a0\n    /* \"contracts/Lottery.sol\":989:1021  uint32 callbackGasLimit = 100000 */\n  0x00\n  dup1\n  0x0100\n  exp\n  dup2\n  sload\n  dup2\n  0xffffffff\n  mul\n  not\n  and\n  swap1\n  dup4\n  0xffffffff\n  and\n  mul\n  or\n  swap1\n  sstore\n  pop\n    /* \"contracts/Lottery.sol\":1112:1113  3 */\n  0x03\n    /* \"contracts/Lottery.sol\":1082:1113  uint16 requestConfirmations = 3 */\n  0x00\n  exp(0x0100, 0x04)\n  dup2\n  sload\n  dup2\n  0xffff\n  mul\n  not\n  and\n  swap1\n  dup4\n  0xffff\n  and\n  mul\n  or\n  swap1\n  sstore\n  pop\n    /* \"contracts/Lottery.sol\":1258:1259  2 */\n  0x02\n    /* \"contracts/Lottery.sol\":1239:1259  uint32 numWords =  2 */\n  0x00\n  exp(0x0100, 0x06)\n  dup2\n  sload\n  dup2\n  0xffffffff\n  mul\n  not\n  and\n  swap1\n  dup4\n  0xffffffff\n  and\n  mul\n  or\n  swap1\n  sstore\n  pop\n    /* \"contracts/Lottery.sol\":1352:1362  msg.sender */\n  caller\n    /* \"contracts/Lottery.sol\":1334:1362  address s_owner = msg.sender */\n  0x03\n  exp(0x0100, 0x00)\n  dup2\n  sload\n  dup2\n  0xffffffffffffffffffffffffffffffffffffffff\n  mul\n  not\n  and\n  swap1\n  dup4\n  0xffffffffffffffffffffffffffffffffffffffff\n  and\n  mul\n  or\n  swap1\n  sstore\n  pop\n    /* \"contracts/Lottery.sol\":1773:1774  0 */\n  0x00\n    /* \"contracts/Lottery.sol\":1745:1774  uint internal playerCount = 0 */\n  0x08\n  sstore\n    /* \"contracts/Lottery.sol\":426:4163  contract Lottery is VRFConsumerBaseV2(0x6168499c0cFfCaCD319c818142124B7A15E857ab) {... */\n  callvalue\n  dup1\n  iszero\n  tag_1\n  jumpi\n  0x00\n  dup1\n  revert\ntag_1:\n  pop\n    /* \"contracts/Lottery.sol\":464:506  0x6168499c0cFfCaCD319c818142124B7A15E857ab */\n  0x6168499c0cffcacd319c818142124b7a15e857ab\n    /* \"@chainlink/contracts/src/v0.8/VRFConsumerBaseV2.sol\":5616:5631  _vrfCoordinator */\n  dup1\n    /* \"@chainlink/contracts/src/v0.8/VRFConsumerBaseV2.sol\":5599:5631  vrfCoordinator = _vrfCoordinator */\n  0xffffffffffffffffffffffffffffffffffffffff\n  and\n  0x80\n  dup2\n  0xffffffffffffffffffffffffffffffffffffffff\n  and\n  dup2\n  mstore\n  pop\n  pop\n    /* \"@chainlink/contracts/src/v0.8/VRFConsumerBaseV2.sol\":5556:5636  constructor(address _vrfCoordinator) {... */\n  pop\n    /* \"contracts/Lottery.sol\":426:4163  contract Lottery is VRFConsumerBaseV2(0x6168499c0cFfCaCD319c818142124B7A15E857ab) {... */\n  mload(0x80)\n  codecopy(0x00, dataOffset(sub_0), dataSize(sub_0))\n  0x00\n  assignImmutable(\"0x1a192fabce13988b84994d4296e6cdc418d55e2f1d7f942188d4040b94fc57ac\")\n  return(0x00, dataSize(sub_0))\nstop\n\nsub_0: assembly {\n        /* \"contracts/Lottery.sol\":426:4163  contract Lottery is VRFConsumerBaseV2(0x6168499c0cFfCaCD319c818142124B7A15E857ab) {... */\n      mstore(0x40, 0x80)\n      jumpi(tag_1, lt(calldatasize, 0x04))\n      shr(0xe0, calldataload(0x00))\n      dup1\n      0x6fd09816\n      gt\n      tag_15\n      jumpi\n      dup1\n      0xe580f47b\n      gt\n      tag_16\n      jumpi\n      dup1\n      0xe580f47b\n      eq\n      tag_11\n      jumpi\n      dup1\n      0xe69f19cd\n      eq\n      tag_12\n      jumpi\n      dup1\n      0xe89e106a\n      eq\n      tag_13\n      jumpi\n      dup1\n      0xf6eaffc8\n      eq\n      tag_14\n      jumpi\n      jump(tag_1)\n    tag_16:\n      dup1\n      0x6fd09816\n      eq\n      tag_8\n      jumpi\n      dup1\n      0xa59f3e0c\n      eq\n      tag_9\n      jumpi\n      dup1\n      0xe0c86289\n      eq\n      tag_10\n      jumpi\n      jump(tag_1)\n    tag_15:\n      dup1\n      0x12065fe0\n      eq\n      tag_2\n      jumpi\n      dup1\n      0x1fe543e3\n      eq\n      tag_3\n      jumpi\n      dup1\n      0x281d098d\n      eq\n      tag_4\n      jumpi\n      dup1\n      0x32eb85a4\n      eq\n      tag_5\n      jumpi\n      dup1\n      0x460e2049\n      eq\n      tag_6\n      jumpi\n      dup1\n      0x6d6fe230\n      eq\n      tag_7\n      jumpi\n    tag_1:\n      0x00\n      dup1\n      revert\n        /* \"contracts/Lottery.sol\":2025:2107  function getBalance() public view returns (uint) {... */\n    tag_2:\n      callvalue\n      dup1\n      iszero\n      tag_17\n      jumpi\n      0x00\n      dup1\n      revert\n    tag_17:\n      pop\n      tag_18\n      tag_19\n      jump\t// in\n    tag_18:\n      mload(0x40)\n      tag_20\n      swap2\n      swap1\n      tag_21\n      jump\t// in\n    tag_20:\n      mload(0x40)\n      dup1\n      swap2\n      sub\n      swap1\n      return\n        /* \"@chainlink/contracts/src/v0.8/VRFConsumerBaseV2.sol\":6618:6874  function rawFulfillRandomWords(uint256 requestId, uint256[] memory randomWords) external {... */\n    tag_3:\n      callvalue\n      dup1\n      iszero\n      tag_22\n      jumpi\n      0x00\n      dup1\n      revert\n    tag_22:\n      pop\n      tag_23\n      0x04\n      dup1\n      calldatasize\n      sub\n      dup2\n      add\n      swap1\n      tag_24\n      swap2\n      swap1\n      tag_25\n      jump\t// in\n    tag_24:\n      tag_26\n      jump\t// in\n    tag_23:\n      stop\n        /* \"contracts/Lottery.sol\":1892:2019  function getWinnerByLottery(uint lottery) public view returns (address payable) {... */\n    tag_4:\n      callvalue\n      dup1\n      iszero\n      tag_27\n      jumpi\n      0x00\n      dup1\n      revert\n    tag_27:\n      pop\n      tag_28\n      0x04\n      dup1\n      calldatasize\n      sub\n      dup2\n      add\n      swap1\n      tag_29\n      swap2\n      swap1\n      tag_30\n      jump\t// in\n    tag_29:\n      tag_31\n      jump\t// in\n    tag_28:\n      mload(0x40)\n      tag_32\n      swap2\n      swap1\n      tag_33\n      jump\t// in\n    tag_32:\n      mload(0x40)\n      dup1\n      swap2\n      sub\n      swap1\n      return\n        /* \"contracts/Lottery.sol\":2363:2451  function getAmountPlayer() public view returns (uint){... */\n    tag_5:\n      callvalue\n      dup1\n      iszero\n      tag_34\n      jumpi\n      0x00\n      dup1\n      revert\n    tag_34:\n      pop\n      tag_35\n      tag_36\n      jump\t// in\n    tag_35:\n      mload(0x40)\n      tag_37\n      swap2\n      swap1\n      tag_21\n      jump\t// in\n    tag_37:\n      mload(0x40)\n      dup1\n      swap2\n      sub\n      swap1\n      return\n        /* \"contracts/Lottery.sol\":2113:2353  function getPlayers(uint _index) public view returns (address payable, uint) {... */\n    tag_6:\n      callvalue\n      dup1\n      iszero\n      tag_38\n      jumpi\n      0x00\n      dup1\n      revert\n    tag_38:\n      pop\n      tag_39\n      0x04\n      dup1\n      calldatasize\n      sub\n      dup2\n      add\n      swap1\n      tag_40\n      swap2\n      swap1\n      tag_30\n      jump\t// in\n    tag_40:\n      tag_41\n      jump\t// in\n    tag_39:\n      mload(0x40)\n      tag_42\n      swap3\n      swap2\n      swap1\n      tag_43\n      jump\t// in\n    tag_42:\n      mload(0x40)\n      dup1\n      swap2\n      sub\n      swap1\n      return\n        /* \"contracts/Lottery.sol\":1400:1455  mapping (uint => address payable) public lotteryHistory */\n    tag_7:\n      callvalue\n      dup1\n      iszero\n      tag_44\n      jumpi\n      0x00\n      dup1\n      revert\n    tag_44:\n      pop\n      tag_45\n      0x04\n      dup1\n      calldatasize\n      sub\n      dup2\n      add\n      swap1\n      tag_46\n      swap2\n      swap1\n      tag_30\n      jump\t// in\n    tag_46:\n      tag_47\n      jump\t// in\n    tag_45:\n      mload(0x40)\n      tag_48\n      swap2\n      swap1\n      tag_33\n      jump\t// in\n    tag_48:\n      mload(0x40)\n      dup1\n      swap2\n      sub\n      swap1\n      return\n        /* \"contracts/Lottery.sol\":3843:3884  function closeLottery() external {... */\n    tag_8:\n      callvalue\n      dup1\n      iszero\n      tag_49\n      jumpi\n      0x00\n      dup1\n      revert\n    tag_49:\n      pop\n      tag_50\n      tag_51\n      jump\t// in\n    tag_50:\n      stop\n        /* \"contracts/Lottery.sol\":2456:3005  function enter(uint _numTicket) public payable {... */\n    tag_9:\n      tag_52\n      0x04\n      dup1\n      calldatasize\n      sub\n      dup2\n      add\n      swap1\n      tag_53\n      swap2\n      swap1\n      tag_30\n      jump\t// in\n    tag_53:\n      tag_54\n      jump\t// in\n    tag_52:\n      stop\n        /* \"contracts/Lottery.sol\":3245:3558  function requestRandomWords() external onlyOwner {... */\n    tag_10:\n      callvalue\n      dup1\n      iszero\n      tag_55\n      jumpi\n      0x00\n      dup1\n      revert\n    tag_55:\n      pop\n      tag_56\n      tag_57\n      jump\t// in\n    tag_56:\n      stop\n        /* \"contracts/Lottery.sol\":1373:1394  uint public lotteryId */\n    tag_11:\n      callvalue\n      dup1\n      iszero\n      tag_58\n      jumpi\n      0x00\n      dup1\n      revert\n    tag_58:\n      pop\n      tag_59\n      tag_60\n      jump\t// in\n    tag_59:\n      mload(0x40)\n      tag_61\n      swap2\n      swap1\n      tag_21\n      jump\t// in\n    tag_61:\n      mload(0x40)\n      dup1\n      swap2\n      sub\n      swap1\n      return\n        /* \"contracts/Lottery.sol\":3889:3997  function getLuckyNumber() public view returns(uint){... */\n    tag_12:\n      callvalue\n      dup1\n      iszero\n      tag_62\n      jumpi\n      0x00\n      dup1\n      revert\n    tag_62:\n      pop\n      tag_63\n      tag_64\n      jump\t// in\n    tag_63:\n      mload(0x40)\n      tag_65\n      swap2\n      swap1\n      tag_21\n      jump\t// in\n    tag_65:\n      mload(0x40)\n      dup1\n      swap2\n      sub\n      swap1\n      return\n        /* \"contracts/Lottery.sol\":1302:1328  uint256 public s_requestId */\n    tag_13:\n      callvalue\n      dup1\n      iszero\n      tag_66\n      jumpi\n      0x00\n      dup1\n      revert\n    tag_66:\n      pop\n      tag_67\n      tag_68\n      jump\t// in\n    tag_67:\n      mload(0x40)\n      tag_69\n      swap2\n      swap1\n      tag_21\n      jump\t// in\n    tag_69:\n      mload(0x40)\n      dup1\n      swap2\n      sub\n      swap1\n      return\n        /* \"contracts/Lottery.sol\":1266:1296  uint256[] public s_randomWords */\n    tag_14:\n      callvalue\n      dup1\n      iszero\n      tag_70\n      jumpi\n      0x00\n      dup1\n      revert\n    tag_70:\n      pop\n      tag_71\n      0x04\n      dup1\n      calldatasize\n      sub\n      dup2\n      add\n      swap1\n      tag_72\n      swap2\n      swap1\n      tag_30\n      jump\t// in\n    tag_72:\n      tag_73\n      jump\t// in\n    tag_71:\n      mload(0x40)\n      tag_74\n      swap2\n      swap1\n      tag_21\n      jump\t// in\n    tag_74:\n      mload(0x40)\n      dup1\n      swap2\n      sub\n      swap1\n      return\n        /* \"contracts/Lottery.sol\":2025:2107  function getBalance() public view returns (uint) {... */\n    tag_19:\n        /* \"contracts/Lottery.sol\":2068:2072  uint */\n      0x00\n        /* \"contracts/Lottery.sol\":2091:2100  prizePool */\n      sload(0x09)\n        /* \"contracts/Lottery.sol\":2084:2100  return prizePool */\n      swap1\n      pop\n        /* \"contracts/Lottery.sol\":2025:2107  function getBalance() public view returns (uint) {... */\n      swap1\n      jump\t// out\n        /* \"@chainlink/contracts/src/v0.8/VRFConsumerBaseV2.sol\":6618:6874  function rawFulfillRandomWords(uint256 requestId, uint256[] memory randomWords) external {... */\n    tag_26:\n        /* \"@chainlink/contracts/src/v0.8/VRFConsumerBaseV2.sol\":6731:6745  vrfCoordinator */\n      immutable(\"0x1a192fabce13988b84994d4296e6cdc418d55e2f1d7f942188d4040b94fc57ac\")\n        /* \"@chainlink/contracts/src/v0.8/VRFConsumerBaseV2.sol\":6717:6745  msg.sender != vrfCoordinator */\n      0xffffffffffffffffffffffffffffffffffffffff\n      and\n        /* \"@chainlink/contracts/src/v0.8/VRFConsumerBaseV2.sol\":6717:6727  msg.sender */\n      caller\n        /* \"@chainlink/contracts/src/v0.8/VRFConsumerBaseV2.sol\":6717:6745  msg.sender != vrfCoordinator */\n      0xffffffffffffffffffffffffffffffffffffffff\n      and\n      eq\n        /* \"@chainlink/contracts/src/v0.8/VRFConsumerBaseV2.sol\":6713:6822  if (msg.sender != vrfCoordinator) {... */\n      tag_77\n      jumpi\n        /* \"@chainlink/contracts/src/v0.8/VRFConsumerBaseV2.sol\":6788:6798  msg.sender */\n      caller\n        /* \"@chainlink/contracts/src/v0.8/VRFConsumerBaseV2.sol\":6800:6814  vrfCoordinator */\n      immutable(\"0x1a192fabce13988b84994d4296e6cdc418d55e2f1d7f942188d4040b94fc57ac\")\n        /* \"@chainlink/contracts/src/v0.8/VRFConsumerBaseV2.sol\":6762:6815  OnlyCoordinatorCanFulfill(msg.sender, vrfCoordinator) */\n      mload(0x40)\n      0x1cf993f400000000000000000000000000000000000000000000000000000000\n      dup2\n      mstore\n      0x04\n      add\n      tag_78\n      swap3\n      swap2\n      swap1\n      tag_79\n      jump\t// in\n    tag_78:\n      mload(0x40)\n      dup1\n      swap2\n      sub\n      swap1\n      revert\n        /* \"@chainlink/contracts/src/v0.8/VRFConsumerBaseV2.sol\":6713:6822  if (msg.sender != vrfCoordinator) {... */\n    tag_77:\n        /* \"@chainlink/contracts/src/v0.8/VRFConsumerBaseV2.sol\":6827:6869  fulfillRandomWords(requestId, randomWords) */\n      tag_80\n        /* \"@chainlink/contracts/src/v0.8/VRFConsumerBaseV2.sol\":6846:6855  requestId */\n      dup3\n        /* \"@chainlink/contracts/src/v0.8/VRFConsumerBaseV2.sol\":6857:6868  randomWords */\n      dup3\n        /* \"@chainlink/contracts/src/v0.8/VRFConsumerBaseV2.sol\":6827:6845  fulfillRandomWords */\n      tag_81\n        /* \"@chainlink/contracts/src/v0.8/VRFConsumerBaseV2.sol\":6827:6869  fulfillRandomWords(requestId, randomWords) */\n      jump\t// in\n    tag_80:\n        /* \"@chainlink/contracts/src/v0.8/VRFConsumerBaseV2.sol\":6618:6874  function rawFulfillRandomWords(uint256 requestId, uint256[] memory randomWords) external {... */\n      pop\n      pop\n      jump\t// out\n        /* \"contracts/Lottery.sol\":1892:2019  function getWinnerByLottery(uint lottery) public view returns (address payable) {... */\n    tag_31:\n        /* \"contracts/Lottery.sol\":1955:1970  address payable */\n      0x00\n        /* \"contracts/Lottery.sol\":1989:2003  lotteryHistory */\n      0x05\n        /* \"contracts/Lottery.sol\":1989:2012  lotteryHistory[lottery] */\n      0x00\n        /* \"contracts/Lottery.sol\":2004:2011  lottery */\n      dup4\n        /* \"contracts/Lottery.sol\":1989:2012  lotteryHistory[lottery] */\n      dup2\n      mstore\n      0x20\n      add\n      swap1\n      dup2\n      mstore\n      0x20\n      add\n      0x00\n      keccak256\n      0x00\n      swap1\n      sload\n      swap1\n      0x0100\n      exp\n      swap1\n      div\n      0xffffffffffffffffffffffffffffffffffffffff\n      and\n        /* \"contracts/Lottery.sol\":1982:2012  return lotteryHistory[lottery] */\n      swap1\n      pop\n        /* \"contracts/Lottery.sol\":1892:2019  function getWinnerByLottery(uint lottery) public view returns (address payable) {... */\n      swap2\n      swap1\n      pop\n      jump\t// out\n        /* \"contracts/Lottery.sol\":2363:2451  function getAmountPlayer() public view returns (uint){... */\n    tag_36:\n        /* \"contracts/Lottery.sol\":2411:2415  uint */\n      0x00\n        /* \"contracts/Lottery.sol\":2433:2444  playerCount */\n      sload(0x08)\n        /* \"contracts/Lottery.sol\":2426:2444  return playerCount */\n      swap1\n      pop\n        /* \"contracts/Lottery.sol\":2363:2451  function getAmountPlayer() public view returns (uint){... */\n      swap1\n      jump\t// out\n        /* \"contracts/Lottery.sol\":2113:2353  function getPlayers(uint _index) public view returns (address payable, uint) {... */\n    tag_41:\n        /* \"contracts/Lottery.sol\":2167:2182  address payable */\n      0x00\n        /* \"contracts/Lottery.sol\":2184:2188  uint */\n      dup1\n        /* \"contracts/Lottery.sol\":2200:2232  Participants storage participant */\n      0x00\n        /* \"contracts/Lottery.sol\":2235:2245  allLottery */\n      0x07\n        /* \"contracts/Lottery.sol\":2235:2253  allLottery[_index] */\n      0x00\n        /* \"contracts/Lottery.sol\":2246:2252  _index */\n      dup6\n        /* \"contracts/Lottery.sol\":2235:2253  allLottery[_index] */\n      dup2\n      mstore\n      0x20\n      add\n      swap1\n      dup2\n      mstore\n      0x20\n      add\n      0x00\n      keccak256\n        /* \"contracts/Lottery.sol\":2200:2253  Participants storage participant = allLottery[_index] */\n      swap1\n      pop\n        /* \"contracts/Lottery.sol\":2283:2294  participant */\n      dup1\n        /* \"contracts/Lottery.sol\":2283:2301  participant.player */\n      0x00\n      add\n      0x00\n      swap1\n      sload\n      swap1\n      0x0100\n      exp\n      swap1\n      div\n      0xffffffffffffffffffffffffffffffffffffffff\n      and\n        /* \"contracts/Lottery.sol\":2315:2326  participant */\n      dup2\n        /* \"contracts/Lottery.sol\":2315:2336  participant.numTicket */\n      0x01\n      add\n      sload\n        /* \"contracts/Lottery.sol\":2263:2346  return(... */\n      swap3\n      pop\n      swap3\n      pop\n      pop\n        /* \"contracts/Lottery.sol\":2113:2353  function getPlayers(uint _index) public view returns (address payable, uint) {... */\n      swap2\n      pop\n      swap2\n      jump\t// out\n        /* \"contracts/Lottery.sol\":1400:1455  mapping (uint => address payable) public lotteryHistory */\n    tag_47:\n      mstore(0x20, 0x05)\n      dup1\n      0x00\n      mstore\n      keccak256(0x00, 0x40)\n      0x00\n      swap2\n      pop\n      sload\n      swap1\n      0x0100\n      exp\n      swap1\n      div\n      0xffffffffffffffffffffffffffffffffffffffff\n      and\n      dup2\n      jump\t// out\n        /* \"contracts/Lottery.sol\":3843:3884  function closeLottery() external {... */\n    tag_51:\n      jump\t// out\n        /* \"contracts/Lottery.sol\":2456:3005  function enter(uint _numTicket) public payable {... */\n    tag_54:\n        /* \"contracts/Lottery.sol\":2533:2538  2 wei */\n      0x02\n        /* \"contracts/Lottery.sol\":2521:2530  msg.value */\n      callvalue\n        /* \"contracts/Lottery.sol\":2521:2538  msg.value > 2 wei */\n      gt\n        /* \"contracts/Lottery.sol\":2513:2559  require(msg.value > 2 wei, \"Not enough token\") */\n      tag_87\n      jumpi\n      mload(0x40)\n      0x08c379a000000000000000000000000000000000000000000000000000000000\n      dup2\n      mstore\n      0x04\n      add\n      tag_88\n      swap1\n      tag_89\n      jump\t// in\n    tag_88:\n      mload(0x40)\n      dup1\n      swap2\n      sub\n      swap1\n      revert\n    tag_87:\n        /* \"contracts/Lottery.sol\":2582:2591  msg.value */\n      callvalue\n        /* \"contracts/Lottery.sol\":2569:2578  prizePool */\n      0x09\n      0x00\n        /* \"contracts/Lottery.sol\":2569:2591  prizePool += msg.value */\n      dup3\n      dup3\n      sload\n      tag_90\n      swap2\n      swap1\n      tag_91\n      jump\t// in\n    tag_90:\n      swap3\n      pop\n      pop\n      dup2\n      swap1\n      sstore\n      pop\n        /* \"contracts/Lottery.sol\":2623:2624  1 */\n      0x01\n        /* \"contracts/Lottery.sol\":2609:2619  _numTicket */\n      dup2\n        /* \"contracts/Lottery.sol\":2609:2624  _numTicket >= 1 */\n      lt\n      iszero\n        /* \"contracts/Lottery.sol\":2609:2644  _numTicket >= 1 && _numTicket <= 10 */\n      dup1\n      iszero\n      tag_92\n      jumpi\n      pop\n        /* \"contracts/Lottery.sol\":2642:2644  10 */\n      0x0a\n        /* \"contracts/Lottery.sol\":2628:2638  _numTicket */\n      dup2\n        /* \"contracts/Lottery.sol\":2628:2644  _numTicket <= 10 */\n      gt\n      iszero\n        /* \"contracts/Lottery.sol\":2609:2644  _numTicket >= 1 && _numTicket <= 10 */\n    tag_92:\n        /* \"contracts/Lottery.sol\":2601:2675  require(_numTicket >= 1 && _numTicket <= 10, \"Number ticket out of range\") */\n      tag_93\n      jumpi\n      mload(0x40)\n      0x08c379a000000000000000000000000000000000000000000000000000000000\n      dup2\n      mstore\n      0x04\n      add\n      tag_94\n      swap1\n      tag_95\n      jump\t// in\n    tag_94:\n      mload(0x40)\n      dup1\n      swap2\n      sub\n      swap1\n      revert\n    tag_93:\n        /* \"contracts/Lottery.sol\":2685:2715  Participants storage newPlayer */\n      0x00\n        /* \"contracts/Lottery.sol\":2718:2728  allLottery */\n      0x07\n        /* \"contracts/Lottery.sol\":2718:2741  allLottery[playerCount] */\n      0x00\n        /* \"contracts/Lottery.sol\":2729:2740  playerCount */\n      sload(0x08)\n        /* \"contracts/Lottery.sol\":2718:2741  allLottery[playerCount] */\n      dup2\n      mstore\n      0x20\n      add\n      swap1\n      dup2\n      mstore\n      0x20\n      add\n      0x00\n      keccak256\n        /* \"contracts/Lottery.sol\":2685:2741  Participants storage newPlayer = allLottery[playerCount] */\n      swap1\n      pop\n        /* \"contracts/Lottery.sol\":2778:2788  msg.sender */\n      caller\n        /* \"contracts/Lottery.sol\":2751:2760  newPlayer */\n      dup2\n        /* \"contracts/Lottery.sol\":2751:2767  newPlayer.player */\n      0x00\n      add\n      0x00\n        /* \"contracts/Lottery.sol\":2751:2789  newPlayer.player = payable(msg.sender) */\n      0x0100\n      exp\n      dup2\n      sload\n      dup2\n      0xffffffffffffffffffffffffffffffffffffffff\n      mul\n      not\n      and\n      swap1\n      dup4\n      0xffffffffffffffffffffffffffffffffffffffff\n      and\n      mul\n      or\n      swap1\n      sstore\n      pop\n        /* \"contracts/Lottery.sol\":2821:2831  _numTicket */\n      dup2\n        /* \"contracts/Lottery.sol\":2799:2808  newPlayer */\n      dup2\n        /* \"contracts/Lottery.sol\":2799:2818  newPlayer.numTicket */\n      0x01\n      add\n        /* \"contracts/Lottery.sol\":2799:2831  newPlayer.numTicket = _numTicket */\n      dup2\n      swap1\n      sstore\n      pop\n        /* \"contracts/Lottery.sol\":2841:2875  ListNumberTicket storage addTicket */\n      0x00\n        /* \"contracts/Lottery.sol\":2878:2889  groupTicket */\n      0x06\n        /* \"contracts/Lottery.sol\":2878:2910  groupTicket[newPlayer.numTicket] */\n      0x00\n        /* \"contracts/Lottery.sol\":2890:2899  newPlayer */\n      dup4\n        /* \"contracts/Lottery.sol\":2890:2909  newPlayer.numTicket */\n      0x01\n      add\n      sload\n        /* \"contracts/Lottery.sol\":2878:2910  groupTicket[newPlayer.numTicket] */\n      dup2\n      mstore\n      0x20\n      add\n      swap1\n      dup2\n      mstore\n      0x20\n      add\n      0x00\n      keccak256\n        /* \"contracts/Lottery.sol\":2841:2910  ListNumberTicket storage addTicket = groupTicket[newPlayer.numTicket] */\n      swap1\n      pop\n        /* \"contracts/Lottery.sol\":2920:2929  addTicket */\n      dup1\n        /* \"contracts/Lottery.sol\":2920:2941  addTicket.groupPlayer */\n      0x00\n      add\n        /* \"contracts/Lottery.sol\":2955:2965  msg.sender */\n      caller\n        /* \"contracts/Lottery.sol\":2920:2967  addTicket.groupPlayer.push(payable(msg.sender)) */\n      swap1\n      dup1\n      0x01\n      dup2\n      sload\n      add\n      dup1\n      dup3\n      sstore\n      dup1\n      swap2\n      pop\n      pop\n      0x01\n      swap1\n      sub\n      swap1\n      0x00\n      mstore\n      keccak256(0x00, 0x20)\n      add\n      0x00\n      swap1\n      swap2\n      swap1\n      swap2\n      swap1\n      swap2\n      0x0100\n      exp\n      dup2\n      sload\n      dup2\n      0xffffffffffffffffffffffffffffffffffffffff\n      mul\n      not\n      and\n      swap1\n      dup4\n      0xffffffffffffffffffffffffffffffffffffffff\n      and\n      mul\n      or\n      swap1\n      sstore\n      pop\n        /* \"contracts/Lottery.sol\":2977:2998  increasePlayerCount() */\n      tag_97\n        /* \"contracts/Lottery.sol\":2977:2996  increasePlayerCount */\n      tag_98\n        /* \"contracts/Lottery.sol\":2977:2998  increasePlayerCount() */\n      jump\t// in\n    tag_97:\n        /* \"contracts/Lottery.sol\":2503:3005  {... */\n      pop\n      pop\n        /* \"contracts/Lottery.sol\":2456:3005  function enter(uint _numTicket) public payable {... */\n      pop\n      jump\t// out\n        /* \"contracts/Lottery.sol\":3245:3558  function requestRandomWords() external onlyOwner {... */\n    tag_57:\n        /* \"contracts/Lottery.sol\":4137:4144  s_owner */\n      0x03\n      0x00\n      swap1\n      sload\n      swap1\n      0x0100\n      exp\n      swap1\n      div\n      0xffffffffffffffffffffffffffffffffffffffff\n      and\n        /* \"contracts/Lottery.sol\":4123:4144  msg.sender == s_owner */\n      0xffffffffffffffffffffffffffffffffffffffff\n      and\n        /* \"contracts/Lottery.sol\":4123:4133  msg.sender */\n      caller\n        /* \"contracts/Lottery.sol\":4123:4144  msg.sender == s_owner */\n      0xffffffffffffffffffffffffffffffffffffffff\n      and\n      eq\n        /* \"contracts/Lottery.sol\":4115:4145  require(msg.sender == s_owner) */\n      tag_100\n      jumpi\n      0x00\n      dup1\n      revert\n    tag_100:\n        /* \"contracts/Lottery.sol\":3540:3551  playerCount */\n      sload(0x08)\n        /* \"contracts/Lottery.sol\":594:636  0x6168499c0cFfCaCD319c818142124B7A15E857ab */\n      0x6168499c0cffcacd319c818142124b7a15e857ab\n        /* \"contracts/Lottery.sol\":3380:3410  COORDINATOR.requestRandomWords */\n      0xffffffffffffffffffffffffffffffffffffffff\n      and\n      0x5d3b1d30\n        /* \"contracts/Lottery.sol\":912:978  0xd89b2bf150e3b9e13446986e571fb9cab24b13cea0a43ea20a6049a85cc807cc */\n      0xd89b2bf150e3b9e13446986e571fb9cab24b13cea0a43ea20a6049a85cc807cc\n        /* \"contracts/Lottery.sol\":3420:3427  keyHash */\n      0x00\n      shl\n        /* \"contracts/Lottery.sol\":796:800  7130 */\n      0x1bda\n        /* \"contracts/Lottery.sol\":3463:3483  requestConfirmations */\n      0x00\n      0x04\n      swap1\n      sload\n      swap1\n      0x0100\n      exp\n      swap1\n      div\n      0xffff\n      and\n        /* \"contracts/Lottery.sol\":3493:3509  callbackGasLimit */\n      0x00\n      dup1\n      sload\n      swap1\n      0x0100\n      exp\n      swap1\n      div\n      0xffffffff\n      and\n        /* \"contracts/Lottery.sol\":3519:3527  numWords */\n      0x00\n      0x06\n      swap1\n      sload\n      swap1\n      0x0100\n      exp\n      swap1\n      div\n      0xffffffff\n      and\n        /* \"contracts/Lottery.sol\":3380:3537  COORDINATOR.requestRandomWords(... */\n      mload(0x40)\n      dup7\n      0xffffffff\n      and\n      0xe0\n      shl\n      dup2\n      mstore\n      0x04\n      add\n      tag_102\n      swap6\n      swap5\n      swap4\n      swap3\n      swap2\n      swap1\n      tag_103\n      jump\t// in\n    tag_102:\n      0x20\n      mload(0x40)\n      dup1\n      dup4\n      sub\n      dup2\n      0x00\n      dup8\n      gas\n      call\n      iszero\n      dup1\n      iszero\n      tag_105\n      jumpi\n      returndatasize\n      0x00\n      dup1\n      returndatacopy\n      revert(0x00, returndatasize)\n    tag_105:\n      pop\n      pop\n      pop\n      pop\n      mload(0x40)\n      returndatasize\n      not(0x1f)\n      0x1f\n      dup3\n      add\n      and\n      dup3\n      add\n      dup1\n      0x40\n      mstore\n      pop\n      dup2\n      add\n      swap1\n      tag_106\n      swap2\n      swap1\n      tag_107\n      jump\t// in\n    tag_106:\n        /* \"contracts/Lottery.sol\":3380:3551  COORDINATOR.requestRandomWords(... */\n      tag_108\n      swap2\n      swap1\n      tag_109\n      jump\t// in\n    tag_108:\n        /* \"contracts/Lottery.sol\":3366:3377  s_requestId */\n      0x02\n        /* \"contracts/Lottery.sol\":3366:3551  s_requestId = COORDINATOR.requestRandomWords(... */\n      dup2\n      swap1\n      sstore\n      pop\n        /* \"contracts/Lottery.sol\":3245:3558  function requestRandomWords() external onlyOwner {... */\n      jump\t// out\n        /* \"contracts/Lottery.sol\":1373:1394  uint public lotteryId */\n    tag_60:\n      sload(0x04)\n      dup2\n      jump\t// out\n        /* \"contracts/Lottery.sol\":3889:3997  function getLuckyNumber() public view returns(uint){... */\n    tag_64:\n        /* \"contracts/Lottery.sol\":3935:3939  uint */\n      0x00\n        /* \"contracts/Lottery.sol\":3957:3967  allLottery */\n      0x07\n        /* \"contracts/Lottery.sol\":3957:3980  allLottery[s_requestId] */\n      0x00\n        /* \"contracts/Lottery.sol\":3968:3979  s_requestId */\n      sload(0x02)\n        /* \"contracts/Lottery.sol\":3957:3980  allLottery[s_requestId] */\n      dup2\n      mstore\n      0x20\n      add\n      swap1\n      dup2\n      mstore\n      0x20\n      add\n      0x00\n      keccak256\n        /* \"contracts/Lottery.sol\":3957:3990  allLottery[s_requestId].numTicket */\n      0x01\n      add\n      sload\n        /* \"contracts/Lottery.sol\":3950:3990  return allLottery[s_requestId].numTicket */\n      swap1\n      pop\n        /* \"contracts/Lottery.sol\":3889:3997  function getLuckyNumber() public view returns(uint){... */\n      swap1\n      jump\t// out\n        /* \"contracts/Lottery.sol\":1302:1328  uint256 public s_requestId */\n    tag_68:\n      sload(0x02)\n      dup2\n      jump\t// out\n        /* \"contracts/Lottery.sol\":1266:1296  uint256[] public s_randomWords */\n    tag_73:\n      0x01\n      dup2\n      dup2\n      sload\n      dup2\n      lt\n      tag_111\n      jumpi\n      0x00\n      dup1\n      revert\n    tag_111:\n      swap1\n      0x00\n      mstore\n      keccak256(0x00, 0x20)\n      add\n      0x00\n      swap2\n      pop\n      swap1\n      pop\n      sload\n      dup2\n      jump\t// out\n        /* \"contracts/Lottery.sol\":3564:3731  function fulfillRandomWords(... */\n    tag_81:\n        /* \"contracts/Lottery.sol\":3713:3724  randomWords */\n      dup1\n        /* \"contracts/Lottery.sol\":3697:3710  s_randomWords */\n      0x01\n        /* \"contracts/Lottery.sol\":3697:3724  s_randomWords = randomWords */\n      swap1\n      dup1\n      mload\n      swap1\n      0x20\n      add\n      swap1\n      tag_114\n      swap3\n      swap2\n      swap1\n      tag_115\n      jump\t// in\n    tag_114:\n      pop\n        /* \"contracts/Lottery.sol\":3564:3731  function fulfillRandomWords(... */\n      pop\n      pop\n      jump\t// out\n        /* \"contracts/Lottery.sol\":3016:3086  function increasePlayerCount() internal {... */\n    tag_98:\n        /* \"contracts/Lottery.sol\":3066:3077  playerCount */\n      0x08\n      0x00\n        /* \"contracts/Lottery.sol\":3066:3079  playerCount++ */\n      dup2\n      sload\n      dup1\n      swap3\n      swap2\n      swap1\n      tag_117\n      swap1\n      tag_118\n      jump\t// in\n    tag_117:\n      swap2\n      swap1\n      pop\n      sstore\n      pop\n        /* \"contracts/Lottery.sol\":3016:3086  function increasePlayerCount() internal {... */\n      jump\t// out\n    tag_115:\n      dup3\n      dup1\n      sload\n      dup3\n      dup3\n      sstore\n      swap1\n      0x00\n      mstore\n      keccak256(0x00, 0x20)\n      swap1\n      dup2\n      add\n      swap3\n      dup3\n      iszero\n      tag_119\n      jumpi\n      swap2\n      0x20\n      mul\n      dup3\n      add\n    tag_120:\n      dup3\n      dup2\n      gt\n      iszero\n      tag_121\n      jumpi\n      dup3\n      mload\n      dup3\n      sstore\n      swap2\n      0x20\n      add\n      swap2\n      swap1\n      0x01\n      add\n      swap1\n      jump(tag_120)\n    tag_121:\n    tag_119:\n      pop\n      swap1\n      pop\n      tag_122\n      swap2\n      swap1\n      tag_123\n      jump\t// in\n    tag_122:\n      pop\n      swap1\n      jump\t// out\n    tag_123:\n    tag_124:\n      dup1\n      dup3\n      gt\n      iszero\n      tag_125\n      jumpi\n      0x00\n      dup2\n      0x00\n      swap1\n      sstore\n      pop\n      0x01\n      add\n      jump(tag_124)\n    tag_125:\n      pop\n      swap1\n      jump\t// out\n        /* \"#utility.yul\":7:84   */\n    tag_126:\n        /* \"#utility.yul\":44:51   */\n      0x00\n        /* \"#utility.yul\":73:78   */\n      dup2\n        /* \"#utility.yul\":62:78   */\n      swap1\n      pop\n        /* \"#utility.yul\":7:84   */\n      swap2\n      swap1\n      pop\n      jump\t// out\n        /* \"#utility.yul\":90:208   */\n    tag_127:\n        /* \"#utility.yul\":177:201   */\n      tag_166\n        /* \"#utility.yul\":195:200   */\n      dup2\n        /* \"#utility.yul\":177:201   */\n      tag_126\n      jump\t// in\n    tag_166:\n        /* \"#utility.yul\":172:175   */\n      dup3\n        /* \"#utility.yul\":165:202   */\n      mstore\n        /* \"#utility.yul\":90:208   */\n      pop\n      pop\n      jump\t// out\n        /* \"#utility.yul\":214:436   */\n    tag_21:\n        /* \"#utility.yul\":307:311   */\n      0x00\n        /* \"#utility.yul\":345:347   */\n      0x20\n        /* \"#utility.yul\":334:343   */\n      dup3\n        /* \"#utility.yul\":330:348   */\n      add\n        /* \"#utility.yul\":322:348   */\n      swap1\n      pop\n        /* \"#utility.yul\":358:429   */\n      tag_168\n        /* \"#utility.yul\":426:427   */\n      0x00\n        /* \"#utility.yul\":415:424   */\n      dup4\n        /* \"#utility.yul\":411:428   */\n      add\n        /* \"#utility.yul\":402:408   */\n      dup5\n        /* \"#utility.yul\":358:429   */\n      tag_127\n      jump\t// in\n    tag_168:\n        /* \"#utility.yul\":214:436   */\n      swap3\n      swap2\n      pop\n      pop\n      jump\t// out\n        /* \"#utility.yul\":442:517   */\n    tag_128:\n        /* \"#utility.yul\":475:481   */\n      0x00\n        /* \"#utility.yul\":508:510   */\n      0x40\n        /* \"#utility.yul\":502:511   */\n      mload\n        /* \"#utility.yul\":492:511   */\n      swap1\n      pop\n        /* \"#utility.yul\":442:517   */\n      swap1\n      jump\t// out\n        /* \"#utility.yul\":523:640   */\n    tag_129:\n        /* \"#utility.yul\":632:633   */\n      0x00\n        /* \"#utility.yul\":629:630   */\n      dup1\n        /* \"#utility.yul\":622:634   */\n      revert\n        /* \"#utility.yul\":646:763   */\n    tag_130:\n        /* \"#utility.yul\":755:756   */\n      0x00\n        /* \"#utility.yul\":752:753   */\n      dup1\n        /* \"#utility.yul\":745:757   */\n      revert\n        /* \"#utility.yul\":769:891   */\n    tag_131:\n        /* \"#utility.yul\":842:866   */\n      tag_173\n        /* \"#utility.yul\":860:865   */\n      dup2\n        /* \"#utility.yul\":842:866   */\n      tag_126\n      jump\t// in\n    tag_173:\n        /* \"#utility.yul\":835:840   */\n      dup2\n        /* \"#utility.yul\":832:867   */\n      eq\n        /* \"#utility.yul\":822:885   */\n      tag_174\n      jumpi\n        /* \"#utility.yul\":881:882   */\n      0x00\n        /* \"#utility.yul\":878:879   */\n      dup1\n        /* \"#utility.yul\":871:883   */\n      revert\n        /* \"#utility.yul\":822:885   */\n    tag_174:\n        /* \"#utility.yul\":769:891   */\n      pop\n      jump\t// out\n        /* \"#utility.yul\":897:1036   */\n    tag_132:\n        /* \"#utility.yul\":943:948   */\n      0x00\n        /* \"#utility.yul\":981:987   */\n      dup2\n        /* \"#utility.yul\":968:988   */\n      calldataload\n        /* \"#utility.yul\":959:988   */\n      swap1\n      pop\n        /* \"#utility.yul\":997:1030   */\n      tag_176\n        /* \"#utility.yul\":1024:1029   */\n      dup2\n        /* \"#utility.yul\":997:1030   */\n      tag_131\n      jump\t// in\n    tag_176:\n        /* \"#utility.yul\":897:1036   */\n      swap3\n      swap2\n      pop\n      pop\n      jump\t// out\n        /* \"#utility.yul\":1042:1159   */\n    tag_133:\n        /* \"#utility.yul\":1151:1152   */\n      0x00\n        /* \"#utility.yul\":1148:1149   */\n      dup1\n        /* \"#utility.yul\":1141:1153   */\n      revert\n        /* \"#utility.yul\":1165:1267   */\n    tag_134:\n        /* \"#utility.yul\":1206:1212   */\n      0x00\n        /* \"#utility.yul\":1257:1259   */\n      0x1f\n        /* \"#utility.yul\":1253:1260   */\n      not\n        /* \"#utility.yul\":1248:1250   */\n      0x1f\n        /* \"#utility.yul\":1241:1246   */\n      dup4\n        /* \"#utility.yul\":1237:1251   */\n      add\n        /* \"#utility.yul\":1233:1261   */\n      and\n        /* \"#utility.yul\":1223:1261   */\n      swap1\n      pop\n        /* \"#utility.yul\":1165:1267   */\n      swap2\n      swap1\n      pop\n      jump\t// out\n        /* \"#utility.yul\":1273:1453   */\n    tag_135:\n        /* \"#utility.yul\":1321:1398   */\n      0x4e487b7100000000000000000000000000000000000000000000000000000000\n        /* \"#utility.yul\":1318:1319   */\n      0x00\n        /* \"#utility.yul\":1311:1399   */\n      mstore\n        /* \"#utility.yul\":1418:1422   */\n      0x41\n        /* \"#utility.yul\":1415:1416   */\n      0x04\n        /* \"#utility.yul\":1408:1423   */\n      mstore\n        /* \"#utility.yul\":1442:1446   */\n      0x24\n        /* \"#utility.yul\":1439:1440   */\n      0x00\n        /* \"#utility.yul\":1432:1447   */\n      revert\n        /* \"#utility.yul\":1459:1740   */\n    tag_136:\n        /* \"#utility.yul\":1542:1569   */\n      tag_181\n        /* \"#utility.yul\":1564:1568   */\n      dup3\n        /* \"#utility.yul\":1542:1569   */\n      tag_134\n      jump\t// in\n    tag_181:\n        /* \"#utility.yul\":1534:1540   */\n      dup2\n        /* \"#utility.yul\":1530:1570   */\n      add\n        /* \"#utility.yul\":1672:1678   */\n      dup2\n        /* \"#utility.yul\":1660:1670   */\n      dup2\n        /* \"#utility.yul\":1657:1679   */\n      lt\n        /* \"#utility.yul\":1636:1654   */\n      0xffffffffffffffff\n        /* \"#utility.yul\":1624:1634   */\n      dup3\n        /* \"#utility.yul\":1621:1655   */\n      gt\n        /* \"#utility.yul\":1618:1680   */\n      or\n        /* \"#utility.yul\":1615:1703   */\n      iszero\n      tag_182\n      jumpi\n        /* \"#utility.yul\":1683:1701   */\n      tag_183\n      tag_135\n      jump\t// in\n    tag_183:\n        /* \"#utility.yul\":1615:1703   */\n    tag_182:\n        /* \"#utility.yul\":1723:1733   */\n      dup1\n        /* \"#utility.yul\":1719:1721   */\n      0x40\n        /* \"#utility.yul\":1712:1734   */\n      mstore\n        /* \"#utility.yul\":1502:1740   */\n      pop\n        /* \"#utility.yul\":1459:1740   */\n      pop\n      pop\n      jump\t// out\n        /* \"#utility.yul\":1746:1875   */\n    tag_137:\n        /* \"#utility.yul\":1780:1786   */\n      0x00\n        /* \"#utility.yul\":1807:1827   */\n      tag_185\n      tag_128\n      jump\t// in\n    tag_185:\n        /* \"#utility.yul\":1797:1827   */\n      swap1\n      pop\n        /* \"#utility.yul\":1836:1869   */\n      tag_186\n        /* \"#utility.yul\":1864:1868   */\n      dup3\n        /* \"#utility.yul\":1856:1862   */\n      dup3\n        /* \"#utility.yul\":1836:1869   */\n      tag_136\n      jump\t// in\n    tag_186:\n        /* \"#utility.yul\":1746:1875   */\n      swap2\n      swap1\n      pop\n      jump\t// out\n        /* \"#utility.yul\":1881:2192   */\n    tag_138:\n        /* \"#utility.yul\":1958:1962   */\n      0x00\n        /* \"#utility.yul\":2048:2066   */\n      0xffffffffffffffff\n        /* \"#utility.yul\":2040:2046   */\n      dup3\n        /* \"#utility.yul\":2037:2067   */\n      gt\n        /* \"#utility.yul\":2034:2090   */\n      iszero\n      tag_188\n      jumpi\n        /* \"#utility.yul\":2070:2088   */\n      tag_189\n      tag_135\n      jump\t// in\n    tag_189:\n        /* \"#utility.yul\":2034:2090   */\n    tag_188:\n        /* \"#utility.yul\":2120:2124   */\n      0x20\n        /* \"#utility.yul\":2112:2118   */\n      dup3\n        /* \"#utility.yul\":2108:2125   */\n      mul\n        /* \"#utility.yul\":2100:2125   */\n      swap1\n      pop\n        /* \"#utility.yul\":2180:2184   */\n      0x20\n        /* \"#utility.yul\":2174:2178   */\n      dup2\n        /* \"#utility.yul\":2170:2185   */\n      add\n        /* \"#utility.yul\":2162:2185   */\n      swap1\n      pop\n        /* \"#utility.yul\":1881:2192   */\n      swap2\n      swap1\n      pop\n      jump\t// out\n        /* \"#utility.yul\":2198:2315   */\n    tag_139:\n        /* \"#utility.yul\":2307:2308   */\n      0x00\n        /* \"#utility.yul\":2304:2305   */\n      dup1\n        /* \"#utility.yul\":2297:2309   */\n      revert\n        /* \"#utility.yul\":2338:3048   */\n    tag_140:\n        /* \"#utility.yul\":2434:2439   */\n      0x00\n        /* \"#utility.yul\":2459:2540   */\n      tag_192\n        /* \"#utility.yul\":2475:2539   */\n      tag_193\n        /* \"#utility.yul\":2532:2538   */\n      dup5\n        /* \"#utility.yul\":2475:2539   */\n      tag_138\n      jump\t// in\n    tag_193:\n        /* \"#utility.yul\":2459:2540   */\n      tag_137\n      jump\t// in\n    tag_192:\n        /* \"#utility.yul\":2450:2540   */\n      swap1\n      pop\n        /* \"#utility.yul\":2560:2565   */\n      dup1\n        /* \"#utility.yul\":2589:2595   */\n      dup4\n        /* \"#utility.yul\":2582:2587   */\n      dup3\n        /* \"#utility.yul\":2575:2596   */\n      mstore\n        /* \"#utility.yul\":2623:2627   */\n      0x20\n        /* \"#utility.yul\":2616:2621   */\n      dup3\n        /* \"#utility.yul\":2612:2628   */\n      add\n        /* \"#utility.yul\":2605:2628   */\n      swap1\n      pop\n        /* \"#utility.yul\":2676:2680   */\n      0x20\n        /* \"#utility.yul\":2668:2674   */\n      dup5\n        /* \"#utility.yul\":2664:2681   */\n      mul\n        /* \"#utility.yul\":2656:2662   */\n      dup4\n        /* \"#utility.yul\":2652:2682   */\n      add\n        /* \"#utility.yul\":2705:2708   */\n      dup6\n        /* \"#utility.yul\":2697:2703   */\n      dup2\n        /* \"#utility.yul\":2694:2709   */\n      gt\n        /* \"#utility.yul\":2691:2813   */\n      iszero\n      tag_194\n      jumpi\n        /* \"#utility.yul\":2724:2803   */\n      tag_195\n      tag_139\n      jump\t// in\n    tag_195:\n        /* \"#utility.yul\":2691:2813   */\n    tag_194:\n        /* \"#utility.yul\":2839:2845   */\n      dup4\n        /* \"#utility.yul\":2822:3042   */\n    tag_196:\n        /* \"#utility.yul\":2856:2862   */\n      dup2\n        /* \"#utility.yul\":2851:2854   */\n      dup2\n        /* \"#utility.yul\":2848:2863   */\n      lt\n        /* \"#utility.yul\":2822:3042   */\n      iszero\n      tag_198\n      jumpi\n        /* \"#utility.yul\":2931:2934   */\n      dup1\n        /* \"#utility.yul\":2960:2997   */\n      tag_199\n        /* \"#utility.yul\":2993:2996   */\n      dup9\n        /* \"#utility.yul\":2981:2991   */\n      dup3\n        /* \"#utility.yul\":2960:2997   */\n      tag_132\n      jump\t// in\n    tag_199:\n        /* \"#utility.yul\":2955:2958   */\n      dup5\n        /* \"#utility.yul\":2948:2998   */\n      mstore\n        /* \"#utility.yul\":3027:3031   */\n      0x20\n        /* \"#utility.yul\":3022:3025   */\n      dup5\n        /* \"#utility.yul\":3018:3032   */\n      add\n        /* \"#utility.yul\":3011:3032   */\n      swap4\n      pop\n        /* \"#utility.yul\":2898:3042   */\n      pop\n        /* \"#utility.yul\":2882:2886   */\n      0x20\n        /* \"#utility.yul\":2877:2880   */\n      dup2\n        /* \"#utility.yul\":2873:2887   */\n      add\n        /* \"#utility.yul\":2866:2887   */\n      swap1\n      pop\n        /* \"#utility.yul\":2822:3042   */\n      jump(tag_196)\n    tag_198:\n        /* \"#utility.yul\":2826:2847   */\n      pop\n        /* \"#utility.yul\":2440:3048   */\n      pop\n      pop\n        /* \"#utility.yul\":2338:3048   */\n      swap4\n      swap3\n      pop\n      pop\n      pop\n      jump\t// out\n        /* \"#utility.yul\":3071:3441   */\n    tag_141:\n        /* \"#utility.yul\":3142:3147   */\n      0x00\n        /* \"#utility.yul\":3191:3194   */\n      dup3\n        /* \"#utility.yul\":3184:3188   */\n      0x1f\n        /* \"#utility.yul\":3176:3182   */\n      dup4\n        /* \"#utility.yul\":3172:3189   */\n      add\n        /* \"#utility.yul\":3168:3195   */\n      slt\n        /* \"#utility.yul\":3158:3280   */\n      tag_201\n      jumpi\n        /* \"#utility.yul\":3199:3278   */\n      tag_202\n      tag_133\n      jump\t// in\n    tag_202:\n        /* \"#utility.yul\":3158:3280   */\n    tag_201:\n        /* \"#utility.yul\":3316:3322   */\n      dup2\n        /* \"#utility.yul\":3303:3323   */\n      calldataload\n        /* \"#utility.yul\":3341:3435   */\n      tag_203\n        /* \"#utility.yul\":3431:3434   */\n      dup5\n        /* \"#utility.yul\":3423:3429   */\n      dup3\n        /* \"#utility.yul\":3416:3420   */\n      0x20\n        /* \"#utility.yul\":3408:3414   */\n      dup7\n        /* \"#utility.yul\":3404:3421   */\n      add\n        /* \"#utility.yul\":3341:3435   */\n      tag_140\n      jump\t// in\n    tag_203:\n        /* \"#utility.yul\":3332:3435   */\n      swap2\n      pop\n        /* \"#utility.yul\":3148:3441   */\n      pop\n        /* \"#utility.yul\":3071:3441   */\n      swap3\n      swap2\n      pop\n      pop\n      jump\t// out\n        /* \"#utility.yul\":3447:4131   */\n    tag_25:\n        /* \"#utility.yul\":3540:3546   */\n      0x00\n        /* \"#utility.yul\":3548:3554   */\n      dup1\n        /* \"#utility.yul\":3597:3599   */\n      0x40\n        /* \"#utility.yul\":3585:3594   */\n      dup4\n        /* \"#utility.yul\":3576:3583   */\n      dup6\n        /* \"#utility.yul\":3572:3595   */\n      sub\n        /* \"#utility.yul\":3568:3600   */\n      slt\n        /* \"#utility.yul\":3565:3684   */\n      iszero\n      tag_205\n      jumpi\n        /* \"#utility.yul\":3603:3682   */\n      tag_206\n      tag_129\n      jump\t// in\n    tag_206:\n        /* \"#utility.yul\":3565:3684   */\n    tag_205:\n        /* \"#utility.yul\":3723:3724   */\n      0x00\n        /* \"#utility.yul\":3748:3801   */\n      tag_207\n        /* \"#utility.yul\":3793:3800   */\n      dup6\n        /* \"#utility.yul\":3784:3790   */\n      dup3\n        /* \"#utility.yul\":3773:3782   */\n      dup7\n        /* \"#utility.yul\":3769:3791   */\n      add\n        /* \"#utility.yul\":3748:3801   */\n      tag_132\n      jump\t// in\n    tag_207:\n        /* \"#utility.yul\":3738:3801   */\n      swap3\n      pop\n        /* \"#utility.yul\":3694:3811   */\n      pop\n        /* \"#utility.yul\":3878:3880   */\n      0x20\n        /* \"#utility.yul\":3867:3876   */\n      dup4\n        /* \"#utility.yul\":3863:3881   */\n      add\n        /* \"#utility.yul\":3850:3882   */\n      calldataload\n        /* \"#utility.yul\":3909:3927   */\n      0xffffffffffffffff\n        /* \"#utility.yul\":3901:3907   */\n      dup2\n        /* \"#utility.yul\":3898:3928   */\n      gt\n        /* \"#utility.yul\":3895:4012   */\n      iszero\n      tag_208\n      jumpi\n        /* \"#utility.yul\":3931:4010   */\n      tag_209\n      tag_130\n      jump\t// in\n    tag_209:\n        /* \"#utility.yul\":3895:4012   */\n    tag_208:\n        /* \"#utility.yul\":4036:4114   */\n      tag_210\n        /* \"#utility.yul\":4106:4113   */\n      dup6\n        /* \"#utility.yul\":4097:4103   */\n      dup3\n        /* \"#utility.yul\":4086:4095   */\n      dup7\n        /* \"#utility.yul\":4082:4104   */\n      add\n        /* \"#utility.yul\":4036:4114   */\n      tag_141\n      jump\t// in\n    tag_210:\n        /* \"#utility.yul\":4026:4114   */\n      swap2\n      pop\n        /* \"#utility.yul\":3821:4124   */\n      pop\n        /* \"#utility.yul\":3447:4131   */\n      swap3\n      pop\n      swap3\n      swap1\n      pop\n      jump\t// out\n        /* \"#utility.yul\":4137:4466   */\n    tag_30:\n        /* \"#utility.yul\":4196:4202   */\n      0x00\n        /* \"#utility.yul\":4245:4247   */\n      0x20\n        /* \"#utility.yul\":4233:4242   */\n      dup3\n        /* \"#utility.yul\":4224:4231   */\n      dup5\n        /* \"#utility.yul\":4220:4243   */\n      sub\n        /* \"#utility.yul\":4216:4248   */\n      slt\n        /* \"#utility.yul\":4213:4332   */\n      iszero\n      tag_212\n      jumpi\n        /* \"#utility.yul\":4251:4330   */\n      tag_213\n      tag_129\n      jump\t// in\n    tag_213:\n        /* \"#utility.yul\":4213:4332   */\n    tag_212:\n        /* \"#utility.yul\":4371:4372   */\n      0x00\n        /* \"#utility.yul\":4396:4449   */\n      tag_214\n        /* \"#utility.yul\":4441:4448   */\n      dup5\n        /* \"#utility.yul\":4432:4438   */\n      dup3\n        /* \"#utility.yul\":4421:4430   */\n      dup6\n        /* \"#utility.yul\":4417:4439   */\n      add\n        /* \"#utility.yul\":4396:4449   */\n      tag_132\n      jump\t// in\n    tag_214:\n        /* \"#utility.yul\":4386:4449   */\n      swap2\n      pop\n        /* \"#utility.yul\":4342:4459   */\n      pop\n        /* \"#utility.yul\":4137:4466   */\n      swap3\n      swap2\n      pop\n      pop\n      jump\t// out\n        /* \"#utility.yul\":4472:4598   */\n    tag_142:\n        /* \"#utility.yul\":4509:4516   */\n      0x00\n        /* \"#utility.yul\":4549:4591   */\n      0xffffffffffffffffffffffffffffffffffffffff\n        /* \"#utility.yul\":4542:4547   */\n      dup3\n        /* \"#utility.yul\":4538:4592   */\n      and\n        /* \"#utility.yul\":4527:4592   */\n      swap1\n      pop\n        /* \"#utility.yul\":4472:4598   */\n      swap2\n      swap1\n      pop\n      jump\t// out\n        /* \"#utility.yul\":4604:4708   */\n    tag_143:\n        /* \"#utility.yul\":4649:4656   */\n      0x00\n        /* \"#utility.yul\":4678:4702   */\n      tag_217\n        /* \"#utility.yul\":4696:4701   */\n      dup3\n        /* \"#utility.yul\":4678:4702   */\n      tag_142\n      jump\t// in\n    tag_217:\n        /* \"#utility.yul\":4667:4702   */\n      swap1\n      pop\n        /* \"#utility.yul\":4604:4708   */\n      swap2\n      swap1\n      pop\n      jump\t// out\n        /* \"#utility.yul\":4714:4856   */\n    tag_144:\n        /* \"#utility.yul\":4817:4849   */\n      tag_219\n        /* \"#utility.yul\":4843:4848   */\n      dup2\n        /* \"#utility.yul\":4817:4849   */\n      tag_143\n      jump\t// in\n    tag_219:\n        /* \"#utility.yul\":4812:4815   */\n      dup3\n        /* \"#utility.yul\":4805:4850   */\n      mstore\n        /* \"#utility.yul\":4714:4856   */\n      pop\n      pop\n      jump\t// out\n        /* \"#utility.yul\":4862:5116   */\n    tag_33:\n        /* \"#utility.yul\":4971:4975   */\n      0x00\n        /* \"#utility.yul\":5009:5011   */\n      0x20\n        /* \"#utility.yul\":4998:5007   */\n      dup3\n        /* \"#utility.yul\":4994:5012   */\n      add\n        /* \"#utility.yul\":4986:5012   */\n      swap1\n      pop\n        /* \"#utility.yul\":5022:5109   */\n      tag_221\n        /* \"#utility.yul\":5106:5107   */\n      0x00\n        /* \"#utility.yul\":5095:5104   */\n      dup4\n        /* \"#utility.yul\":5091:5108   */\n      add\n        /* \"#utility.yul\":5082:5088   */\n      dup5\n        /* \"#utility.yul\":5022:5109   */\n      tag_144\n      jump\t// in\n    tag_221:\n        /* \"#utility.yul\":4862:5116   */\n      swap3\n      swap2\n      pop\n      pop\n      jump\t// out\n        /* \"#utility.yul\":5122:5486   */\n    tag_43:\n        /* \"#utility.yul\":5259:5263   */\n      0x00\n        /* \"#utility.yul\":5297:5299   */\n      0x40\n        /* \"#utility.yul\":5286:5295   */\n      dup3\n        /* \"#utility.yul\":5282:5300   */\n      add\n        /* \"#utility.yul\":5274:5300   */\n      swap1\n      pop\n        /* \"#utility.yul\":5310:5397   */\n      tag_223\n        /* \"#utility.yul\":5394:5395   */\n      0x00\n        /* \"#utility.yul\":5383:5392   */\n      dup4\n        /* \"#utility.yul\":5379:5396   */\n      add\n        /* \"#utility.yul\":5370:5376   */\n      dup6\n        /* \"#utility.yul\":5310:5397   */\n      tag_144\n      jump\t// in\n    tag_223:\n        /* \"#utility.yul\":5407:5479   */\n      tag_224\n        /* \"#utility.yul\":5475:5477   */\n      0x20\n        /* \"#utility.yul\":5464:5473   */\n      dup4\n        /* \"#utility.yul\":5460:5478   */\n      add\n        /* \"#utility.yul\":5451:5457   */\n      dup5\n        /* \"#utility.yul\":5407:5479   */\n      tag_127\n      jump\t// in\n    tag_224:\n        /* \"#utility.yul\":5122:5486   */\n      swap4\n      swap3\n      pop\n      pop\n      pop\n      jump\t// out\n        /* \"#utility.yul\":5492:5588   */\n    tag_145:\n        /* \"#utility.yul\":5529:5536   */\n      0x00\n        /* \"#utility.yul\":5558:5582   */\n      tag_226\n        /* \"#utility.yul\":5576:5581   */\n      dup3\n        /* \"#utility.yul\":5558:5582   */\n      tag_142\n      jump\t// in\n    tag_226:\n        /* \"#utility.yul\":5547:5582   */\n      swap1\n      pop\n        /* \"#utility.yul\":5492:5588   */\n      swap2\n      swap1\n      pop\n      jump\t// out\n        /* \"#utility.yul\":5594:5712   */\n    tag_146:\n        /* \"#utility.yul\":5681:5705   */\n      tag_228\n        /* \"#utility.yul\":5699:5704   */\n      dup2\n        /* \"#utility.yul\":5681:5705   */\n      tag_145\n      jump\t// in\n    tag_228:\n        /* \"#utility.yul\":5676:5679   */\n      dup3\n        /* \"#utility.yul\":5669:5706   */\n      mstore\n        /* \"#utility.yul\":5594:5712   */\n      pop\n      pop\n      jump\t// out\n        /* \"#utility.yul\":5718:6050   */\n    tag_79:\n        /* \"#utility.yul\":5839:5843   */\n      0x00\n        /* \"#utility.yul\":5877:5879   */\n      0x40\n        /* \"#utility.yul\":5866:5875   */\n      dup3\n        /* \"#utility.yul\":5862:5880   */\n      add\n        /* \"#utility.yul\":5854:5880   */\n      swap1\n      pop\n        /* \"#utility.yul\":5890:5961   */\n      tag_230\n        /* \"#utility.yul\":5958:5959   */\n      0x00\n        /* \"#utility.yul\":5947:5956   */\n      dup4\n        /* \"#utility.yul\":5943:5960   */\n      add\n        /* \"#utility.yul\":5934:5940   */\n      dup6\n        /* \"#utility.yul\":5890:5961   */\n      tag_146\n      jump\t// in\n    tag_230:\n        /* \"#utility.yul\":5971:6043   */\n      tag_231\n        /* \"#utility.yul\":6039:6041   */\n      0x20\n        /* \"#utility.yul\":6028:6037   */\n      dup4\n        /* \"#utility.yul\":6024:6042   */\n      add\n        /* \"#utility.yul\":6015:6021   */\n      dup5\n        /* \"#utility.yul\":5971:6043   */\n      tag_146\n      jump\t// in\n    tag_231:\n        /* \"#utility.yul\":5718:6050   */\n      swap4\n      swap3\n      pop\n      pop\n      pop\n      jump\t// out\n        /* \"#utility.yul\":6056:6225   */\n    tag_147:\n        /* \"#utility.yul\":6140:6151   */\n      0x00\n        /* \"#utility.yul\":6174:6180   */\n      dup3\n        /* \"#utility.yul\":6169:6172   */\n      dup3\n        /* \"#utility.yul\":6162:6181   */\n      mstore\n        /* \"#utility.yul\":6214:6218   */\n      0x20\n        /* \"#utility.yul\":6209:6212   */\n      dup3\n        /* \"#utility.yul\":6205:6219   */\n      add\n        /* \"#utility.yul\":6190:6219   */\n      swap1\n      pop\n        /* \"#utility.yul\":6056:6225   */\n      swap3\n      swap2\n      pop\n      pop\n      jump\t// out\n        /* \"#utility.yul\":6231:6397   */\n    tag_148:\n        /* \"#utility.yul\":6371:6389   */\n      0x4e6f7420656e6f75676820746f6b656e00000000000000000000000000000000\n        /* \"#utility.yul\":6367:6368   */\n      0x00\n        /* \"#utility.yul\":6359:6365   */\n      dup3\n        /* \"#utility.yul\":6355:6369   */\n      add\n        /* \"#utility.yul\":6348:6390   */\n      mstore\n        /* \"#utility.yul\":6231:6397   */\n      pop\n      jump\t// out\n        /* \"#utility.yul\":6403:6769   */\n    tag_149:\n        /* \"#utility.yul\":6545:6548   */\n      0x00\n        /* \"#utility.yul\":6566:6633   */\n      tag_235\n        /* \"#utility.yul\":6630:6632   */\n      0x10\n        /* \"#utility.yul\":6625:6628   */\n      dup4\n        /* \"#utility.yul\":6566:6633   */\n      tag_147\n      jump\t// in\n    tag_235:\n        /* \"#utility.yul\":6559:6633   */\n      swap2\n      pop\n        /* \"#utility.yul\":6642:6735   */\n      tag_236\n        /* \"#utility.yul\":6731:6734   */\n      dup3\n        /* \"#utility.yul\":6642:6735   */\n      tag_148\n      jump\t// in\n    tag_236:\n        /* \"#utility.yul\":6760:6762   */\n      0x20\n        /* \"#utility.yul\":6755:6758   */\n      dup3\n        /* \"#utility.yul\":6751:6763   */\n      add\n        /* \"#utility.yul\":6744:6763   */\n      swap1\n      pop\n        /* \"#utility.yul\":6403:6769   */\n      swap2\n      swap1\n      pop\n      jump\t// out\n        /* \"#utility.yul\":6775:7194   */\n    tag_89:\n        /* \"#utility.yul\":6941:6945   */\n      0x00\n        /* \"#utility.yul\":6979:6981   */\n      0x20\n        /* \"#utility.yul\":6968:6977   */\n      dup3\n        /* \"#utility.yul\":6964:6982   */\n      add\n        /* \"#utility.yul\":6956:6982   */\n      swap1\n      pop\n        /* \"#utility.yul\":7028:7037   */\n      dup2\n        /* \"#utility.yul\":7022:7026   */\n      dup2\n        /* \"#utility.yul\":7018:7038   */\n      sub\n        /* \"#utility.yul\":7014:7015   */\n      0x00\n        /* \"#utility.yul\":7003:7012   */\n      dup4\n        /* \"#utility.yul\":6999:7016   */\n      add\n        /* \"#utility.yul\":6992:7039   */\n      mstore\n        /* \"#utility.yul\":7056:7187   */\n      tag_238\n        /* \"#utility.yul\":7182:7186   */\n      dup2\n        /* \"#utility.yul\":7056:7187   */\n      tag_149\n      jump\t// in\n    tag_238:\n        /* \"#utility.yul\":7048:7187   */\n      swap1\n      pop\n        /* \"#utility.yul\":6775:7194   */\n      swap2\n      swap1\n      pop\n      jump\t// out\n        /* \"#utility.yul\":7200:7380   */\n    tag_150:\n        /* \"#utility.yul\":7248:7325   */\n      0x4e487b7100000000000000000000000000000000000000000000000000000000\n        /* \"#utility.yul\":7245:7246   */\n      0x00\n        /* \"#utility.yul\":7238:7326   */\n      mstore\n        /* \"#utility.yul\":7345:7349   */\n      0x11\n        /* \"#utility.yul\":7342:7343   */\n      0x04\n        /* \"#utility.yul\":7335:7350   */\n      mstore\n        /* \"#utility.yul\":7369:7373   */\n      0x24\n        /* \"#utility.yul\":7366:7367   */\n      0x00\n        /* \"#utility.yul\":7359:7374   */\n      revert\n        /* \"#utility.yul\":7386:7691   */\n    tag_91:\n        /* \"#utility.yul\":7426:7429   */\n      0x00\n        /* \"#utility.yul\":7445:7465   */\n      tag_241\n        /* \"#utility.yul\":7463:7464   */\n      dup3\n        /* \"#utility.yul\":7445:7465   */\n      tag_126\n      jump\t// in\n    tag_241:\n        /* \"#utility.yul\":7440:7465   */\n      swap2\n      pop\n        /* \"#utility.yul\":7479:7499   */\n      tag_242\n        /* \"#utility.yul\":7497:7498   */\n      dup4\n        /* \"#utility.yul\":7479:7499   */\n      tag_126\n      jump\t// in\n    tag_242:\n        /* \"#utility.yul\":7474:7499   */\n      swap3\n      pop\n        /* \"#utility.yul\":7633:7634   */\n      dup3\n        /* \"#utility.yul\":7565:7631   */\n      0xffffffffffffffffffffffffffffffffffffffffffffffffffffffffffffffff\n        /* \"#utility.yul\":7561:7635   */\n      sub\n        /* \"#utility.yul\":7558:7559   */\n      dup3\n        /* \"#utility.yul\":7555:7636   */\n      gt\n        /* \"#utility.yul\":7552:7659   */\n      iszero\n      tag_243\n      jumpi\n        /* \"#utility.yul\":7639:7657   */\n      tag_244\n      tag_150\n      jump\t// in\n    tag_244:\n        /* \"#utility.yul\":7552:7659   */\n    tag_243:\n        /* \"#utility.yul\":7683:7684   */\n      dup3\n        /* \"#utility.yul\":7680:7681   */\n      dup3\n        /* \"#utility.yul\":7676:7685   */\n      add\n        /* \"#utility.yul\":7669:7685   */\n      swap1\n      pop\n        /* \"#utility.yul\":7386:7691   */\n      swap3\n      swap2\n      pop\n      pop\n      jump\t// out\n        /* \"#utility.yul\":7697:7873   */\n    tag_151:\n        /* \"#utility.yul\":7837:7865   */\n      0x4e756d626572207469636b6574206f7574206f662072616e6765000000000000\n        /* \"#utility.yul\":7833:7834   */\n      0x00\n        /* \"#utility.yul\":7825:7831   */\n      dup3\n        /* \"#utility.yul\":7821:7835   */\n      add\n        /* \"#utility.yul\":7814:7866   */\n      mstore\n        /* \"#utility.yul\":7697:7873   */\n      pop\n      jump\t// out\n        /* \"#utility.yul\":7879:8245   */\n    tag_152:\n        /* \"#utility.yul\":8021:8024   */\n      0x00\n        /* \"#utility.yul\":8042:8109   */\n      tag_247\n        /* \"#utility.yul\":8106:8108   */\n      0x1a\n        /* \"#utility.yul\":8101:8104   */\n      dup4\n        /* \"#utility.yul\":8042:8109   */\n      tag_147\n      jump\t// in\n    tag_247:\n        /* \"#utility.yul\":8035:8109   */\n      swap2\n      pop\n        /* \"#utility.yul\":8118:8211   */\n      tag_248\n        /* \"#utility.yul\":8207:8210   */\n      dup3\n        /* \"#utility.yul\":8118:8211   */\n      tag_151\n      jump\t// in\n    tag_248:\n        /* \"#utility.yul\":8236:8238   */\n      0x20\n        /* \"#utility.yul\":8231:8234   */\n      dup3\n        /* \"#utility.yul\":8227:8239   */\n      add\n        /* \"#utility.yul\":8220:8239   */\n      swap1\n      pop\n        /* \"#utility.yul\":7879:8245   */\n      swap2\n      swap1\n      pop\n      jump\t// out\n        /* \"#utility.yul\":8251:8670   */\n    tag_95:\n        /* \"#utility.yul\":8417:8421   */\n      0x00\n        /* \"#utility.yul\":8455:8457   */\n      0x20\n        /* \"#utility.yul\":8444:8453   */\n      dup3\n        /* \"#utility.yul\":8440:8458   */\n      add\n        /* \"#utility.yul\":8432:8458   */\n      swap1\n      pop\n        /* \"#utility.yul\":8504:8513   */\n      dup2\n        /* \"#utility.yul\":8498:8502   */\n      dup2\n        /* \"#utility.yul\":8494:8514   */\n      sub\n        /* \"#utility.yul\":8490:8491   */\n      0x00\n        /* \"#utility.yul\":8479:8488   */\n      dup4\n        /* \"#utility.yul\":8475:8492   */\n      add\n        /* \"#utility.yul\":8468:8515   */\n      mstore\n        /* \"#utility.yul\":8532:8663   */\n      tag_250\n        /* \"#utility.yul\":8658:8662   */\n      dup2\n        /* \"#utility.yul\":8532:8663   */\n      tag_152\n      jump\t// in\n    tag_250:\n        /* \"#utility.yul\":8524:8663   */\n      swap1\n      pop\n        /* \"#utility.yul\":8251:8670   */\n      swap2\n      swap1\n      pop\n      jump\t// out\n        /* \"#utility.yul\":8676:8753   */\n    tag_153:\n        /* \"#utility.yul\":8713:8720   */\n      0x00\n        /* \"#utility.yul\":8742:8747   */\n      dup2\n        /* \"#utility.yul\":8731:8747   */\n      swap1\n      pop\n        /* \"#utility.yul\":8676:8753   */\n      swap2\n      swap1\n      pop\n      jump\t// out\n        /* \"#utility.yul\":8759:8877   */\n    tag_154:\n        /* \"#utility.yul\":8846:8870   */\n      tag_253\n        /* \"#utility.yul\":8864:8869   */\n      dup2\n        /* \"#utility.yul\":8846:8870   */\n      tag_153\n      jump\t// in\n    tag_253:\n        /* \"#utility.yul\":8841:8844   */\n      dup3\n        /* \"#utility.yul\":8834:8871   */\n      mstore\n        /* \"#utility.yul\":8759:8877   */\n      pop\n      pop\n      jump\t// out\n        /* \"#utility.yul\":8883:8984   */\n    tag_155:\n        /* \"#utility.yul\":8919:8926   */\n      0x00\n        /* \"#utility.yul\":8959:8977   */\n      0xffffffffffffffff\n        /* \"#utility.yul\":8952:8957   */\n      dup3\n        /* \"#utility.yul\":8948:8978   */\n      and\n        /* \"#utility.yul\":8937:8978   */\n      swap1\n      pop\n        /* \"#utility.yul\":8883:8984   */\n      swap2\n      swap1\n      pop\n      jump\t// out\n        /* \"#utility.yul\":8990:9105   */\n    tag_156:\n        /* \"#utility.yul\":9075:9098   */\n      tag_256\n        /* \"#utility.yul\":9092:9097   */\n      dup2\n        /* \"#utility.yul\":9075:9098   */\n      tag_155\n      jump\t// in\n    tag_256:\n        /* \"#utility.yul\":9070:9073   */\n      dup3\n        /* \"#utility.yul\":9063:9099   */\n      mstore\n        /* \"#utility.yul\":8990:9105   */\n      pop\n      pop\n      jump\t// out\n        /* \"#utility.yul\":9111:9200   */\n    tag_157:\n        /* \"#utility.yul\":9147:9154   */\n      0x00\n        /* \"#utility.yul\":9187:9193   */\n      0xffff\n        /* \"#utility.yul\":9180:9185   */\n      dup3\n        /* \"#utility.yul\":9176:9194   */\n      and\n        /* \"#utility.yul\":9165:9194   */\n      swap1\n      pop\n        /* \"#utility.yul\":9111:9200   */\n      swap2\n      swap1\n      pop\n      jump\t// out\n        /* \"#utility.yul\":9206:9321   */\n    tag_158:\n        /* \"#utility.yul\":9291:9314   */\n      tag_259\n        /* \"#utility.yul\":9308:9313   */\n      dup2\n        /* \"#utility.yul\":9291:9314   */\n      tag_157\n      jump\t// in\n    tag_259:\n        /* \"#utility.yul\":9286:9289   */\n      dup3\n        /* \"#utility.yul\":9279:9315   */\n      mstore\n        /* \"#utility.yul\":9206:9321   */\n      pop\n      pop\n      jump\t// out\n        /* \"#utility.yul\":9327:9420   */\n    tag_159:\n        /* \"#utility.yul\":9363:9370   */\n      0x00\n        /* \"#utility.yul\":9403:9413   */\n      0xffffffff\n        /* \"#utility.yul\":9396:9401   */\n      dup3\n        /* \"#utility.yul\":9392:9414   */\n      and\n        /* \"#utility.yul\":9381:9414   */\n      swap1\n      pop\n        /* \"#utility.yul\":9327:9420   */\n      swap2\n      swap1\n      pop\n      jump\t// out\n        /* \"#utility.yul\":9426:9541   */\n    tag_160:\n        /* \"#utility.yul\":9511:9534   */\n      tag_262\n        /* \"#utility.yul\":9528:9533   */\n      dup2\n        /* \"#utility.yul\":9511:9534   */\n      tag_159\n      jump\t// in\n    tag_262:\n        /* \"#utility.yul\":9506:9509   */\n      dup3\n        /* \"#utility.yul\":9499:9535   */\n      mstore\n        /* \"#utility.yul\":9426:9541   */\n      pop\n      pop\n      jump\t// out\n        /* \"#utility.yul\":9547:10195   */\n    tag_103:\n        /* \"#utility.yul\":9744:9748   */\n      0x00\n        /* \"#utility.yul\":9782:9785   */\n      0xa0\n        /* \"#utility.yul\":9771:9780   */\n      dup3\n        /* \"#utility.yul\":9767:9786   */\n      add\n        /* \"#utility.yul\":9759:9786   */\n      swap1\n      pop\n        /* \"#utility.yul\":9796:9867   */\n      tag_264\n        /* \"#utility.yul\":9864:9865   */\n      0x00\n        /* \"#utility.yul\":9853:9862   */\n      dup4\n        /* \"#utility.yul\":9849:9866   */\n      add\n        /* \"#utility.yul\":9840:9846   */\n      dup9\n        /* \"#utility.yul\":9796:9867   */\n      tag_154\n      jump\t// in\n    tag_264:\n        /* \"#utility.yul\":9877:9947   */\n      tag_265\n        /* \"#utility.yul\":9943:9945   */\n      0x20\n        /* \"#utility.yul\":9932:9941   */\n      dup4\n        /* \"#utility.yul\":9928:9946   */\n      add\n        /* \"#utility.yul\":9919:9925   */\n      dup8\n        /* \"#utility.yul\":9877:9947   */\n      tag_156\n      jump\t// in\n    tag_265:\n        /* \"#utility.yul\":9957:10027   */\n      tag_266\n        /* \"#utility.yul\":10023:10025   */\n      0x40\n        /* \"#utility.yul\":10012:10021   */\n      dup4\n        /* \"#utility.yul\":10008:10026   */\n      add\n        /* \"#utility.yul\":9999:10005   */\n      dup7\n        /* \"#utility.yul\":9957:10027   */\n      tag_158\n      jump\t// in\n    tag_266:\n        /* \"#utility.yul\":10037:10107   */\n      tag_267\n        /* \"#utility.yul\":10103:10105   */\n      0x60\n        /* \"#utility.yul\":10092:10101   */\n      dup4\n        /* \"#utility.yul\":10088:10106   */\n      add\n        /* \"#utility.yul\":10079:10085   */\n      dup6\n        /* \"#utility.yul\":10037:10107   */\n      tag_160\n      jump\t// in\n    tag_267:\n        /* \"#utility.yul\":10117:10188   */\n      tag_268\n        /* \"#utility.yul\":10183:10186   */\n      0x80\n        /* \"#utility.yul\":10172:10181   */\n      dup4\n        /* \"#utility.yul\":10168:10187   */\n      add\n        /* \"#utility.yul\":10159:10165   */\n      dup5\n        /* \"#utility.yul\":10117:10188   */\n      tag_160\n      jump\t// in\n    tag_268:\n        /* \"#utility.yul\":9547:10195   */\n      swap7\n      swap6\n      pop\n      pop\n      pop\n      pop\n      pop\n      pop\n      jump\t// out\n        /* \"#utility.yul\":10201:10344   */\n    tag_161:\n        /* \"#utility.yul\":10258:10263   */\n      0x00\n        /* \"#utility.yul\":10289:10295   */\n      dup2\n        /* \"#utility.yul\":10283:10296   */\n      mload\n        /* \"#utility.yul\":10274:10296   */\n      swap1\n      pop\n        /* \"#utility.yul\":10305:10338   */\n      tag_270\n        /* \"#utility.yul\":10332:10337   */\n      dup2\n        /* \"#utility.yul\":10305:10338   */\n      tag_131\n      jump\t// in\n    tag_270:\n        /* \"#utility.yul\":10201:10344   */\n      swap3\n      swap2\n      pop\n      pop\n      jump\t// out\n        /* \"#utility.yul\":10350:10701   */\n    tag_107:\n        /* \"#utility.yul\":10420:10426   */\n      0x00\n        /* \"#utility.yul\":10469:10471   */\n      0x20\n        /* \"#utility.yul\":10457:10466   */\n      dup3\n        /* \"#utility.yul\":10448:10455   */\n      dup5\n        /* \"#utility.yul\":10444:10467   */\n      sub\n        /* \"#utility.yul\":10440:10472   */\n      slt\n        /* \"#utility.yul\":10437:10556   */\n      iszero\n      tag_272\n      jumpi\n        /* \"#utility.yul\":10475:10554   */\n      tag_273\n      tag_129\n      jump\t// in\n    tag_273:\n        /* \"#utility.yul\":10437:10556   */\n    tag_272:\n        /* \"#utility.yul\":10595:10596   */\n      0x00\n        /* \"#utility.yul\":10620:10684   */\n      tag_274\n        /* \"#utility.yul\":10676:10683   */\n      dup5\n        /* \"#utility.yul\":10667:10673   */\n      dup3\n        /* \"#utility.yul\":10656:10665   */\n      dup6\n        /* \"#utility.yul\":10652:10674   */\n      add\n        /* \"#utility.yul\":10620:10684   */\n      tag_161\n      jump\t// in\n    tag_274:\n        /* \"#utility.yul\":10610:10684   */\n      swap2\n      pop\n        /* \"#utility.yul\":10566:10694   */\n      pop\n        /* \"#utility.yul\":10350:10701   */\n      swap3\n      swap2\n      pop\n      pop\n      jump\t// out\n        /* \"#utility.yul\":10707:10887   */\n    tag_162:\n        /* \"#utility.yul\":10755:10832   */\n      0x4e487b7100000000000000000000000000000000000000000000000000000000\n        /* \"#utility.yul\":10752:10753   */\n      0x00\n        /* \"#utility.yul\":10745:10833   */\n      mstore\n        /* \"#utility.yul\":10852:10856   */\n      0x12\n        /* \"#utility.yul\":10849:10850   */\n      0x04\n        /* \"#utility.yul\":10842:10857   */\n      mstore\n        /* \"#utility.yul\":10876:10880   */\n      0x24\n        /* \"#utility.yul\":10873:10874   */\n      0x00\n        /* \"#utility.yul\":10866:10881   */\n      revert\n        /* \"#utility.yul\":10893:11069   */\n    tag_109:\n        /* \"#utility.yul\":10925:10926   */\n      0x00\n        /* \"#utility.yul\":10942:10962   */\n      tag_277\n        /* \"#utility.yul\":10960:10961   */\n      dup3\n        /* \"#utility.yul\":10942:10962   */\n      tag_126\n      jump\t// in\n    tag_277:\n        /* \"#utility.yul\":10937:10962   */\n      swap2\n      pop\n        /* \"#utility.yul\":10976:10996   */\n      tag_278\n        /* \"#utility.yul\":10994:10995   */\n      dup4\n        /* \"#utility.yul\":10976:10996   */\n      tag_126\n      jump\t// in\n    tag_278:\n        /* \"#utility.yul\":10971:10996   */\n      swap3\n      pop\n        /* \"#utility.yul\":11015:11016   */\n      dup3\n        /* \"#utility.yul\":11005:11040   */\n      tag_279\n      jumpi\n        /* \"#utility.yul\":11020:11038   */\n      tag_280\n      tag_162\n      jump\t// in\n    tag_280:\n        /* \"#utility.yul\":11005:11040   */\n    tag_279:\n        /* \"#utility.yul\":11061:11062   */\n      dup3\n        /* \"#utility.yul\":11058:11059   */\n      dup3\n        /* \"#utility.yul\":11054:11063   */\n      mod\n        /* \"#utility.yul\":11049:11063   */\n      swap1\n      pop\n        /* \"#utility.yul\":10893:11069   */\n      swap3\n      swap2\n      pop\n      pop\n      jump\t// out\n        /* \"#utility.yul\":11075:11308   */\n    tag_118:\n        /* \"#utility.yul\":11114:11117   */\n      0x00\n        /* \"#utility.yul\":11137:11161   */\n      tag_282\n        /* \"#utility.yul\":11155:11160   */\n      dup3\n        /* \"#utility.yul\":11137:11161   */\n      tag_126\n      jump\t// in\n    tag_282:\n        /* \"#utility.yul\":11128:11161   */\n      swap2\n      pop\n        /* \"#utility.yul\":11183:11249   */\n      0xffffffffffffffffffffffffffffffffffffffffffffffffffffffffffffffff\n        /* \"#utility.yul\":11176:11181   */\n      dup3\n        /* \"#utility.yul\":11173:11250   */\n      eq\n        /* \"#utility.yul\":11170:11273   */\n      iszero\n      tag_283\n      jumpi\n        /* \"#utility.yul\":11253:11271   */\n      tag_284\n      tag_150\n      jump\t// in\n    tag_284:\n        /* \"#utility.yul\":11170:11273   */\n    tag_283:\n        /* \"#utility.yul\":11300:11301   */\n      0x01\n        /* \"#utility.yul\":11293:11298   */\n      dup3\n        /* \"#utility.yul\":11289:11302   */\n      add\n        /* \"#utility.yul\":11282:11302   */\n      swap1\n      pop\n        /* \"#utility.yul\":11075:11308   */\n      swap2\n      swap1\n      pop\n      jump\t// out\n\n    auxdata: 0xa264697066735822122080772f5487f8990f84984a82ad6f598d916e67dc57da13dd8e2da508aab7892b64736f6c634300080c0033\n}\n",
				"bytecode": {
					"linkReferences": {},
					"object": "60a0604052620186a06000806101000a81548163ffffffff021916908363ffffffff1602179055506003600060046101000a81548161ffff021916908361ffff1602179055506002600060066101000a81548163ffffffff021916908363ffffffff16021790555033600360006101000a81548173ffffffffffffffffffffffffffffffffffffffff021916908373ffffffffffffffffffffffffffffffffffffffff16021790555060006008553480156100b957600080fd5b50736168499c0cffcacd319c818142124b7a15e857ab8073ffffffffffffffffffffffffffffffffffffffff1660808173ffffffffffffffffffffffffffffffffffffffff168152505050608051610f056101266000396000818161031201526103660152610f056000f3fe6080604052600436106100c25760003560e01c80636fd098161161007f578063e580f47b11610059578063e580f47b14610248578063e69f19cd14610273578063e89e106a1461029e578063f6eaffc8146102c9576100c2565b80636fd09816146101fe578063a59f3e0c14610215578063e0c8628914610231576100c2565b806312065fe0146100c75780631fe543e3146100f2578063281d098d1461011b57806332eb85a414610158578063460e2049146101835780636d6fe230146101c1575b600080fd5b3480156100d357600080fd5b506100dc610306565b6040516100e9919061089f565b60405180910390f35b3480156100fe57600080fd5b5061011960048036038101906101149190610a53565b610310565b005b34801561012757600080fd5b50610142600480360381019061013d9190610aaf565b6103d0565b60405161014f9190610b1d565b60405180910390f35b34801561016457600080fd5b5061016d61040d565b60405161017a919061089f565b60405180910390f35b34801561018f57600080fd5b506101aa60048036038101906101a59190610aaf565b610417565b6040516101b8929190610b38565b60405180910390f35b3480156101cd57600080fd5b506101e860048036038101906101e39190610aaf565b610465565b6040516101f59190610b1d565b60405180910390f35b34801561020a57600080fd5b50610213610498565b005b61022f600480360381019061022a9190610aaf565b61049a565b005b34801561023d57600080fd5b50610246610639565b005b34801561025457600080fd5b5061025d610797565b60405161026a919061089f565b60405180910390f35b34801561027f57600080fd5b5061028861079d565b604051610295919061089f565b60405180910390f35b3480156102aa57600080fd5b506102b36107bd565b6040516102c0919061089f565b60405180910390f35b3480156102d557600080fd5b506102f060048036038101906102eb9190610aaf565b6107c3565b6040516102fd919061089f565b60405180910390f35b6000600954905090565b7f000000000000000000000000000000000000000000000000000000000000000073ffffffffffffffffffffffffffffffffffffffff163373ffffffffffffffffffffffffffffffffffffffff16146103c257337f00000000000000000000000000000000000000000000000000000000000000006040517f1cf993f40000000000000000000000000000000000000000000000000000000081526004016103b9929190610b82565b60405180910390fd5b6103cc82826107e7565b5050565b60006005600083815260200190815260200160002060009054906101000a900473ffffffffffffffffffffffffffffffffffffffff169050919050565b6000600854905090565b60008060006007600085815260200190815260200160002090508060000160009054906101000a900473ffffffffffffffffffffffffffffffffffffffff1681600101549250925050915091565b60056020528060005260406000206000915054906101000a900473ffffffffffffffffffffffffffffffffffffffff1681565b565b600234116104dd576040517f08c379a00000000000000000000000000000000000000000000000000000000081526004016104d490610c08565b60405180910390fd5b34600960008282546104ef9190610c57565b92505081905550600181101580156105085750600a8111155b610547576040517f08c379a000000000000000000000000000000000000000000000000000000000815260040161053e90610cf9565b60405180910390fd5b60006007600060085481526020019081526020016000209050338160000160006101000a81548173ffffffffffffffffffffffffffffffffffffffff021916908373ffffffffffffffffffffffffffffffffffffffff16021790555081816001018190555060006006600083600101548152602001908152602001600020905080600001339080600181540180825580915050600190039060005260206000200160009091909190916101000a81548173ffffffffffffffffffffffffffffffffffffffff021916908373ffffffffffffffffffffffffffffffffffffffff160217905550610634610802565b505050565b600360009054906101000a900473ffffffffffffffffffffffffffffffffffffffff1673ffffffffffffffffffffffffffffffffffffffff163373ffffffffffffffffffffffffffffffffffffffff161461069357600080fd5b600854736168499c0cffcacd319c818142124b7a15e857ab73ffffffffffffffffffffffffffffffffffffffff16635d3b1d307fd89b2bf150e3b9e13446986e571fb9cab24b13cea0a43ea20a6049a85cc807cc60001b611bda600060049054906101000a900461ffff1660008054906101000a900463ffffffff16600060069054906101000a900463ffffffff166040518663ffffffff1660e01b8152600401610742959493929190610d91565b6020604051808303816000875af1158015610761573d6000803e3d6000fd5b505050506040513d601f19601f820116820180604052508101906107859190610df9565b61078f9190610e55565b600281905550565b60045481565b600060076000600254815260200190815260200160002060010154905090565b60025481565b600181815481106107d357600080fd5b906000526020600020016000915090505481565b80600190805190602001906107fd92919061081c565b505050565b6008600081548092919061081590610e86565b9190505550565b828054828255906000526020600020908101928215610858579160200282015b8281111561085757825182559160200191906001019061083c565b5b5090506108659190610869565b5090565b5b8082111561088257600081600090555060010161086a565b5090565b6000819050919050565b61089981610886565b82525050565b60006020820190506108b46000830184610890565b92915050565b6000604051905090565b600080fd5b600080fd5b6108d781610886565b81146108e257600080fd5b50565b6000813590506108f4816108ce565b92915050565b600080fd5b6000601f19601f8301169050919050565b7f4e487b7100000000000000000000000000000000000000000000000000000000600052604160045260246000fd5b610948826108ff565b810181811067ffffffffffffffff8211171561096757610966610910565b5b80604052505050565b600061097a6108ba565b9050610986828261093f565b919050565b600067ffffffffffffffff8211156109a6576109a5610910565b5b602082029050602081019050919050565b600080fd5b60006109cf6109ca8461098b565b610970565b905080838252602082019050602084028301858111156109f2576109f16109b7565b5b835b81811015610a1b5780610a0788826108e5565b8452602084019350506020810190506109f4565b5050509392505050565b600082601f830112610a3a57610a396108fa565b5b8135610a4a8482602086016109bc565b91505092915050565b60008060408385031215610a6a57610a696108c4565b5b6000610a78858286016108e5565b925050602083013567ffffffffffffffff811115610a9957610a986108c9565b5b610aa585828601610a25565b9150509250929050565b600060208284031215610ac557610ac46108c4565b5b6000610ad3848285016108e5565b91505092915050565b600073ffffffffffffffffffffffffffffffffffffffff82169050919050565b6000610b0782610adc565b9050919050565b610b1781610afc565b82525050565b6000602082019050610b326000830184610b0e565b92915050565b6000604082019050610b4d6000830185610b0e565b610b5a6020830184610890565b9392505050565b6000610b6c82610adc565b9050919050565b610b7c81610b61565b82525050565b6000604082019050610b976000830185610b73565b610ba46020830184610b73565b9392505050565b600082825260208201905092915050565b7f4e6f7420656e6f75676820746f6b656e00000000000000000000000000000000600082015250565b6000610bf2601083610bab565b9150610bfd82610bbc565b602082019050919050565b60006020820190508181036000830152610c2181610be5565b9050919050565b7f4e487b7100000000000000000000000000000000000000000000000000000000600052601160045260246000fd5b6000610c6282610886565b9150610c6d83610886565b9250827fffffffffffffffffffffffffffffffffffffffffffffffffffffffffffffffff03821115610ca257610ca1610c28565b5b828201905092915050565b7f4e756d626572207469636b6574206f7574206f662072616e6765000000000000600082015250565b6000610ce3601a83610bab565b9150610cee82610cad565b602082019050919050565b60006020820190508181036000830152610d1281610cd6565b9050919050565b6000819050919050565b610d2c81610d19565b82525050565b600067ffffffffffffffff82169050919050565b610d4f81610d32565b82525050565b600061ffff82169050919050565b610d6c81610d55565b82525050565b600063ffffffff82169050919050565b610d8b81610d72565b82525050565b600060a082019050610da66000830188610d23565b610db36020830187610d46565b610dc06040830186610d63565b610dcd6060830185610d82565b610dda6080830184610d82565b9695505050505050565b600081519050610df3816108ce565b92915050565b600060208284031215610e0f57610e0e6108c4565b5b6000610e1d84828501610de4565b91505092915050565b7f4e487b7100000000000000000000000000000000000000000000000000000000600052601260045260246000fd5b6000610e6082610886565b9150610e6b83610886565b925082610e7b57610e7a610e26565b5b828206905092915050565b6000610e9182610886565b91507fffffffffffffffffffffffffffffffffffffffffffffffffffffffffffffffff821415610ec457610ec3610c28565b5b60018201905091905056fea264697066735822122080772f5487f8990f84984a82ad6f598d916e67dc57da13dd8e2da508aab7892b64736f6c634300080c0033",
					"opcodes": "PUSH1 0xA0 PUSH1 0x40 MSTORE PUSH3 0x186A0 PUSH1 0x0 DUP1 PUSH2 0x100 EXP DUP2 SLOAD DUP2 PUSH4 0xFFFFFFFF MUL NOT AND SWAP1 DUP4 PUSH4 0xFFFFFFFF AND MUL OR SWAP1 SSTORE POP PUSH1 0x3 PUSH1 0x0 PUSH1 0x4 PUSH2 0x100 EXP DUP2 SLOAD DUP2 PUSH2 0xFFFF MUL NOT AND SWAP1 DUP4 PUSH2 0xFFFF AND MUL OR SWAP1 SSTORE POP PUSH1 0x2 PUSH1 0x0 PUSH1 0x6 PUSH2 0x100 EXP DUP2 SLOAD DUP2 PUSH4 0xFFFFFFFF MUL NOT AND SWAP1 DUP4 PUSH4 0xFFFFFFFF AND MUL OR SWAP1 SSTORE POP CALLER PUSH1 0x3 PUSH1 0x0 PUSH2 0x100 EXP DUP2 SLOAD DUP2 PUSH20 0xFFFFFFFFFFFFFFFFFFFFFFFFFFFFFFFFFFFFFFFF MUL NOT AND SWAP1 DUP4 PUSH20 0xFFFFFFFFFFFFFFFFFFFFFFFFFFFFFFFFFFFFFFFF AND MUL OR SWAP1 SSTORE POP PUSH1 0x0 PUSH1 0x8 SSTORE CALLVALUE DUP1 ISZERO PUSH2 0xB9 JUMPI PUSH1 0x0 DUP1 REVERT JUMPDEST POP PUSH20 0x6168499C0CFFCACD319C818142124B7A15E857AB DUP1 PUSH20 0xFFFFFFFFFFFFFFFFFFFFFFFFFFFFFFFFFFFFFFFF AND PUSH1 0x80 DUP2 PUSH20 0xFFFFFFFFFFFFFFFFFFFFFFFFFFFFFFFFFFFFFFFF AND DUP2 MSTORE POP POP POP PUSH1 0x80 MLOAD PUSH2 0xF05 PUSH2 0x126 PUSH1 0x0 CODECOPY PUSH1 0x0 DUP2 DUP2 PUSH2 0x312 ADD MSTORE PUSH2 0x366 ADD MSTORE PUSH2 0xF05 PUSH1 0x0 RETURN INVALID PUSH1 0x80 PUSH1 0x40 MSTORE PUSH1 0x4 CALLDATASIZE LT PUSH2 0xC2 JUMPI PUSH1 0x0 CALLDATALOAD PUSH1 0xE0 SHR DUP1 PUSH4 0x6FD09816 GT PUSH2 0x7F JUMPI DUP1 PUSH4 0xE580F47B GT PUSH2 0x59 JUMPI DUP1 PUSH4 0xE580F47B EQ PUSH2 0x248 JUMPI DUP1 PUSH4 0xE69F19CD EQ PUSH2 0x273 JUMPI DUP1 PUSH4 0xE89E106A EQ PUSH2 0x29E JUMPI DUP1 PUSH4 0xF6EAFFC8 EQ PUSH2 0x2C9 JUMPI PUSH2 0xC2 JUMP JUMPDEST DUP1 PUSH4 0x6FD09816 EQ PUSH2 0x1FE JUMPI DUP1 PUSH4 0xA59F3E0C EQ PUSH2 0x215 JUMPI DUP1 PUSH4 0xE0C86289 EQ PUSH2 0x231 JUMPI PUSH2 0xC2 JUMP JUMPDEST DUP1 PUSH4 0x12065FE0 EQ PUSH2 0xC7 JUMPI DUP1 PUSH4 0x1FE543E3 EQ PUSH2 0xF2 JUMPI DUP1 PUSH4 0x281D098D EQ PUSH2 0x11B JUMPI DUP1 PUSH4 0x32EB85A4 EQ PUSH2 0x158 JUMPI DUP1 PUSH4 0x460E2049 EQ PUSH2 0x183 JUMPI DUP1 PUSH4 0x6D6FE230 EQ PUSH2 0x1C1 JUMPI JUMPDEST PUSH1 0x0 DUP1 REVERT JUMPDEST CALLVALUE DUP1 ISZERO PUSH2 0xD3 JUMPI PUSH1 0x0 DUP1 REVERT JUMPDEST POP PUSH2 0xDC PUSH2 0x306 JUMP JUMPDEST PUSH1 0x40 MLOAD PUSH2 0xE9 SWAP2 SWAP1 PUSH2 0x89F JUMP JUMPDEST PUSH1 0x40 MLOAD DUP1 SWAP2 SUB SWAP1 RETURN JUMPDEST CALLVALUE DUP1 ISZERO PUSH2 0xFE JUMPI PUSH1 0x0 DUP1 REVERT JUMPDEST POP PUSH2 0x119 PUSH1 0x4 DUP1 CALLDATASIZE SUB DUP2 ADD SWAP1 PUSH2 0x114 SWAP2 SWAP1 PUSH2 0xA53 JUMP JUMPDEST PUSH2 0x310 JUMP JUMPDEST STOP JUMPDEST CALLVALUE DUP1 ISZERO PUSH2 0x127 JUMPI PUSH1 0x0 DUP1 REVERT JUMPDEST POP PUSH2 0x142 PUSH1 0x4 DUP1 CALLDATASIZE SUB DUP2 ADD SWAP1 PUSH2 0x13D SWAP2 SWAP1 PUSH2 0xAAF JUMP JUMPDEST PUSH2 0x3D0 JUMP JUMPDEST PUSH1 0x40 MLOAD PUSH2 0x14F SWAP2 SWAP1 PUSH2 0xB1D JUMP JUMPDEST PUSH1 0x40 MLOAD DUP1 SWAP2 SUB SWAP1 RETURN JUMPDEST CALLVALUE DUP1 ISZERO PUSH2 0x164 JUMPI PUSH1 0x0 DUP1 REVERT JUMPDEST POP PUSH2 0x16D PUSH2 0x40D JUMP JUMPDEST PUSH1 0x40 MLOAD PUSH2 0x17A SWAP2 SWAP1 PUSH2 0x89F JUMP JUMPDEST PUSH1 0x40 MLOAD DUP1 SWAP2 SUB SWAP1 RETURN JUMPDEST CALLVALUE DUP1 ISZERO PUSH2 0x18F JUMPI PUSH1 0x0 DUP1 REVERT JUMPDEST POP PUSH2 0x1AA PUSH1 0x4 DUP1 CALLDATASIZE SUB DUP2 ADD SWAP1 PUSH2 0x1A5 SWAP2 SWAP1 PUSH2 0xAAF JUMP JUMPDEST PUSH2 0x417 JUMP JUMPDEST PUSH1 0x40 MLOAD PUSH2 0x1B8 SWAP3 SWAP2 SWAP1 PUSH2 0xB38 JUMP JUMPDEST PUSH1 0x40 MLOAD DUP1 SWAP2 SUB SWAP1 RETURN JUMPDEST CALLVALUE DUP1 ISZERO PUSH2 0x1CD JUMPI PUSH1 0x0 DUP1 REVERT JUMPDEST POP PUSH2 0x1E8 PUSH1 0x4 DUP1 CALLDATASIZE SUB DUP2 ADD SWAP1 PUSH2 0x1E3 SWAP2 SWAP1 PUSH2 0xAAF JUMP JUMPDEST PUSH2 0x465 JUMP JUMPDEST PUSH1 0x40 MLOAD PUSH2 0x1F5 SWAP2 SWAP1 PUSH2 0xB1D JUMP JUMPDEST PUSH1 0x40 MLOAD DUP1 SWAP2 SUB SWAP1 RETURN JUMPDEST CALLVALUE DUP1 ISZERO PUSH2 0x20A JUMPI PUSH1 0x0 DUP1 REVERT JUMPDEST POP PUSH2 0x213 PUSH2 0x498 JUMP JUMPDEST STOP JUMPDEST PUSH2 0x22F PUSH1 0x4 DUP1 CALLDATASIZE SUB DUP2 ADD SWAP1 PUSH2 0x22A SWAP2 SWAP1 PUSH2 0xAAF JUMP JUMPDEST PUSH2 0x49A JUMP JUMPDEST STOP JUMPDEST CALLVALUE DUP1 ISZERO PUSH2 0x23D JUMPI PUSH1 0x0 DUP1 REVERT JUMPDEST POP PUSH2 0x246 PUSH2 0x639 JUMP JUMPDEST STOP JUMPDEST CALLVALUE DUP1 ISZERO PUSH2 0x254 JUMPI PUSH1 0x0 DUP1 REVERT JUMPDEST POP PUSH2 0x25D PUSH2 0x797 JUMP JUMPDEST PUSH1 0x40 MLOAD PUSH2 0x26A SWAP2 SWAP1 PUSH2 0x89F JUMP JUMPDEST PUSH1 0x40 MLOAD DUP1 SWAP2 SUB SWAP1 RETURN JUMPDEST CALLVALUE DUP1 ISZERO PUSH2 0x27F JUMPI PUSH1 0x0 DUP1 REVERT JUMPDEST POP PUSH2 0x288 PUSH2 0x79D JUMP JUMPDEST PUSH1 0x40 MLOAD PUSH2 0x295 SWAP2 SWAP1 PUSH2 0x89F JUMP JUMPDEST PUSH1 0x40 MLOAD DUP1 SWAP2 SUB SWAP1 RETURN JUMPDEST CALLVALUE DUP1 ISZERO PUSH2 0x2AA JUMPI PUSH1 0x0 DUP1 REVERT JUMPDEST POP PUSH2 0x2B3 PUSH2 0x7BD JUMP JUMPDEST PUSH1 0x40 MLOAD PUSH2 0x2C0 SWAP2 SWAP1 PUSH2 0x89F JUMP JUMPDEST PUSH1 0x40 MLOAD DUP1 SWAP2 SUB SWAP1 RETURN JUMPDEST CALLVALUE DUP1 ISZERO PUSH2 0x2D5 JUMPI PUSH1 0x0 DUP1 REVERT JUMPDEST POP PUSH2 0x2F0 PUSH1 0x4 DUP1 CALLDATASIZE SUB DUP2 ADD SWAP1 PUSH2 0x2EB SWAP2 SWAP1 PUSH2 0xAAF JUMP JUMPDEST PUSH2 0x7C3 JUMP JUMPDEST PUSH1 0x40 MLOAD PUSH2 0x2FD SWAP2 SWAP1 PUSH2 0x89F JUMP JUMPDEST PUSH1 0x40 MLOAD DUP1 SWAP2 SUB SWAP1 RETURN JUMPDEST PUSH1 0x0 PUSH1 0x9 SLOAD SWAP1 POP SWAP1 JUMP JUMPDEST PUSH32 0x0 PUSH20 0xFFFFFFFFFFFFFFFFFFFFFFFFFFFFFFFFFFFFFFFF AND CALLER PUSH20 0xFFFFFFFFFFFFFFFFFFFFFFFFFFFFFFFFFFFFFFFF AND EQ PUSH2 0x3C2 JUMPI CALLER PUSH32 0x0 PUSH1 0x40 MLOAD PUSH32 0x1CF993F400000000000000000000000000000000000000000000000000000000 DUP2 MSTORE PUSH1 0x4 ADD PUSH2 0x3B9 SWAP3 SWAP2 SWAP1 PUSH2 0xB82 JUMP JUMPDEST PUSH1 0x40 MLOAD DUP1 SWAP2 SUB SWAP1 REVERT JUMPDEST PUSH2 0x3CC DUP3 DUP3 PUSH2 0x7E7 JUMP JUMPDEST POP POP JUMP JUMPDEST PUSH1 0x0 PUSH1 0x5 PUSH1 0x0 DUP4 DUP2 MSTORE PUSH1 0x20 ADD SWAP1 DUP2 MSTORE PUSH1 0x20 ADD PUSH1 0x0 KECCAK256 PUSH1 0x0 SWAP1 SLOAD SWAP1 PUSH2 0x100 EXP SWAP1 DIV PUSH20 0xFFFFFFFFFFFFFFFFFFFFFFFFFFFFFFFFFFFFFFFF AND SWAP1 POP SWAP2 SWAP1 POP JUMP JUMPDEST PUSH1 0x0 PUSH1 0x8 SLOAD SWAP1 POP SWAP1 JUMP JUMPDEST PUSH1 0x0 DUP1 PUSH1 0x0 PUSH1 0x7 PUSH1 0x0 DUP6 DUP2 MSTORE PUSH1 0x20 ADD SWAP1 DUP2 MSTORE PUSH1 0x20 ADD PUSH1 0x0 KECCAK256 SWAP1 POP DUP1 PUSH1 0x0 ADD PUSH1 0x0 SWAP1 SLOAD SWAP1 PUSH2 0x100 EXP SWAP1 DIV PUSH20 0xFFFFFFFFFFFFFFFFFFFFFFFFFFFFFFFFFFFFFFFF AND DUP2 PUSH1 0x1 ADD SLOAD SWAP3 POP SWAP3 POP POP SWAP2 POP SWAP2 JUMP JUMPDEST PUSH1 0x5 PUSH1 0x20 MSTORE DUP1 PUSH1 0x0 MSTORE PUSH1 0x40 PUSH1 0x0 KECCAK256 PUSH1 0x0 SWAP2 POP SLOAD SWAP1 PUSH2 0x100 EXP SWAP1 DIV PUSH20 0xFFFFFFFFFFFFFFFFFFFFFFFFFFFFFFFFFFFFFFFF AND DUP2 JUMP JUMPDEST JUMP JUMPDEST PUSH1 0x2 CALLVALUE GT PUSH2 0x4DD JUMPI PUSH1 0x40 MLOAD PUSH32 0x8C379A000000000000000000000000000000000000000000000000000000000 DUP2 MSTORE PUSH1 0x4 ADD PUSH2 0x4D4 SWAP1 PUSH2 0xC08 JUMP JUMPDEST PUSH1 0x40 MLOAD DUP1 SWAP2 SUB SWAP1 REVERT JUMPDEST CALLVALUE PUSH1 0x9 PUSH1 0x0 DUP3 DUP3 SLOAD PUSH2 0x4EF SWAP2 SWAP1 PUSH2 0xC57 JUMP JUMPDEST SWAP3 POP POP DUP2 SWAP1 SSTORE POP PUSH1 0x1 DUP2 LT ISZERO DUP1 ISZERO PUSH2 0x508 JUMPI POP PUSH1 0xA DUP2 GT ISZERO JUMPDEST PUSH2 0x547 JUMPI PUSH1 0x40 MLOAD PUSH32 0x8C379A000000000000000000000000000000000000000000000000000000000 DUP2 MSTORE PUSH1 0x4 ADD PUSH2 0x53E SWAP1 PUSH2 0xCF9 JUMP JUMPDEST PUSH1 0x40 MLOAD DUP1 SWAP2 SUB SWAP1 REVERT JUMPDEST PUSH1 0x0 PUSH1 0x7 PUSH1 0x0 PUSH1 0x8 SLOAD DUP2 MSTORE PUSH1 0x20 ADD SWAP1 DUP2 MSTORE PUSH1 0x20 ADD PUSH1 0x0 KECCAK256 SWAP1 POP CALLER DUP2 PUSH1 0x0 ADD PUSH1 0x0 PUSH2 0x100 EXP DUP2 SLOAD DUP2 PUSH20 0xFFFFFFFFFFFFFFFFFFFFFFFFFFFFFFFFFFFFFFFF MUL NOT AND SWAP1 DUP4 PUSH20 0xFFFFFFFFFFFFFFFFFFFFFFFFFFFFFFFFFFFFFFFF AND MUL OR SWAP1 SSTORE POP DUP2 DUP2 PUSH1 0x1 ADD DUP2 SWAP1 SSTORE POP PUSH1 0x0 PUSH1 0x6 PUSH1 0x0 DUP4 PUSH1 0x1 ADD SLOAD DUP2 MSTORE PUSH1 0x20 ADD SWAP1 DUP2 MSTORE PUSH1 0x20 ADD PUSH1 0x0 KECCAK256 SWAP1 POP DUP1 PUSH1 0x0 ADD CALLER SWAP1 DUP1 PUSH1 0x1 DUP2 SLOAD ADD DUP1 DUP3 SSTORE DUP1 SWAP2 POP POP PUSH1 0x1 SWAP1 SUB SWAP1 PUSH1 0x0 MSTORE PUSH1 0x20 PUSH1 0x0 KECCAK256 ADD PUSH1 0x0 SWAP1 SWAP2 SWAP1 SWAP2 SWAP1 SWAP2 PUSH2 0x100 EXP DUP2 SLOAD DUP2 PUSH20 0xFFFFFFFFFFFFFFFFFFFFFFFFFFFFFFFFFFFFFFFF MUL NOT AND SWAP1 DUP4 PUSH20 0xFFFFFFFFFFFFFFFFFFFFFFFFFFFFFFFFFFFFFFFF AND MUL OR SWAP1 SSTORE POP PUSH2 0x634 PUSH2 0x802 JUMP JUMPDEST POP POP POP JUMP JUMPDEST PUSH1 0x3 PUSH1 0x0 SWAP1 SLOAD SWAP1 PUSH2 0x100 EXP SWAP1 DIV PUSH20 0xFFFFFFFFFFFFFFFFFFFFFFFFFFFFFFFFFFFFFFFF AND PUSH20 0xFFFFFFFFFFFFFFFFFFFFFFFFFFFFFFFFFFFFFFFF AND CALLER PUSH20 0xFFFFFFFFFFFFFFFFFFFFFFFFFFFFFFFFFFFFFFFF AND EQ PUSH2 0x693 JUMPI PUSH1 0x0 DUP1 REVERT JUMPDEST PUSH1 0x8 SLOAD PUSH20 0x6168499C0CFFCACD319C818142124B7A15E857AB PUSH20 0xFFFFFFFFFFFFFFFFFFFFFFFFFFFFFFFFFFFFFFFF AND PUSH4 0x5D3B1D30 PUSH32 0xD89B2BF150E3B9E13446986E571FB9CAB24B13CEA0A43EA20A6049A85CC807CC PUSH1 0x0 SHL PUSH2 0x1BDA PUSH1 0x0 PUSH1 0x4 SWAP1 SLOAD SWAP1 PUSH2 0x100 EXP SWAP1 DIV PUSH2 0xFFFF AND PUSH1 0x0 DUP1 SLOAD SWAP1 PUSH2 0x100 EXP SWAP1 DIV PUSH4 0xFFFFFFFF AND PUSH1 0x0 PUSH1 0x6 SWAP1 SLOAD SWAP1 PUSH2 0x100 EXP SWAP1 DIV PUSH4 0xFFFFFFFF AND PUSH1 0x40 MLOAD DUP7 PUSH4 0xFFFFFFFF AND PUSH1 0xE0 SHL DUP2 MSTORE PUSH1 0x4 ADD PUSH2 0x742 SWAP6 SWAP5 SWAP4 SWAP3 SWAP2 SWAP1 PUSH2 0xD91 JUMP JUMPDEST PUSH1 0x20 PUSH1 0x40 MLOAD DUP1 DUP4 SUB DUP2 PUSH1 0x0 DUP8 GAS CALL ISZERO DUP1 ISZERO PUSH2 0x761 JUMPI RETURNDATASIZE PUSH1 0x0 DUP1 RETURNDATACOPY RETURNDATASIZE PUSH1 0x0 REVERT JUMPDEST POP POP POP POP PUSH1 0x40 MLOAD RETURNDATASIZE PUSH1 0x1F NOT PUSH1 0x1F DUP3 ADD AND DUP3 ADD DUP1 PUSH1 0x40 MSTORE POP DUP2 ADD SWAP1 PUSH2 0x785 SWAP2 SWAP1 PUSH2 0xDF9 JUMP JUMPDEST PUSH2 0x78F SWAP2 SWAP1 PUSH2 0xE55 JUMP JUMPDEST PUSH1 0x2 DUP2 SWAP1 SSTORE POP JUMP JUMPDEST PUSH1 0x4 SLOAD DUP2 JUMP JUMPDEST PUSH1 0x0 PUSH1 0x7 PUSH1 0x0 PUSH1 0x2 SLOAD DUP2 MSTORE PUSH1 0x20 ADD SWAP1 DUP2 MSTORE PUSH1 0x20 ADD PUSH1 0x0 KECCAK256 PUSH1 0x1 ADD SLOAD SWAP1 POP SWAP1 JUMP JUMPDEST PUSH1 0x2 SLOAD DUP2 JUMP JUMPDEST PUSH1 0x1 DUP2 DUP2 SLOAD DUP2 LT PUSH2 0x7D3 JUMPI PUSH1 0x0 DUP1 REVERT JUMPDEST SWAP1 PUSH1 0x0 MSTORE PUSH1 0x20 PUSH1 0x0 KECCAK256 ADD PUSH1 0x0 SWAP2 POP SWAP1 POP SLOAD DUP2 JUMP JUMPDEST DUP1 PUSH1 0x1 SWAP1 DUP1 MLOAD SWAP1 PUSH1 0x20 ADD SWAP1 PUSH2 0x7FD SWAP3 SWAP2 SWAP1 PUSH2 0x81C JUMP JUMPDEST POP POP POP JUMP JUMPDEST PUSH1 0x8 PUSH1 0x0 DUP2 SLOAD DUP1 SWAP3 SWAP2 SWAP1 PUSH2 0x815 SWAP1 PUSH2 0xE86 JUMP JUMPDEST SWAP2 SWAP1 POP SSTORE POP JUMP JUMPDEST DUP3 DUP1 SLOAD DUP3 DUP3 SSTORE SWAP1 PUSH1 0x0 MSTORE PUSH1 0x20 PUSH1 0x0 KECCAK256 SWAP1 DUP2 ADD SWAP3 DUP3 ISZERO PUSH2 0x858 JUMPI SWAP2 PUSH1 0x20 MUL DUP3 ADD JUMPDEST DUP3 DUP2 GT ISZERO PUSH2 0x857 JUMPI DUP3 MLOAD DUP3 SSTORE SWAP2 PUSH1 0x20 ADD SWAP2 SWAP1 PUSH1 0x1 ADD SWAP1 PUSH2 0x83C JUMP JUMPDEST JUMPDEST POP SWAP1 POP PUSH2 0x865 SWAP2 SWAP1 PUSH2 0x869 JUMP JUMPDEST POP SWAP1 JUMP JUMPDEST JUMPDEST DUP1 DUP3 GT ISZERO PUSH2 0x882 JUMPI PUSH1 0x0 DUP2 PUSH1 0x0 SWAP1 SSTORE POP PUSH1 0x1 ADD PUSH2 0x86A JUMP JUMPDEST POP SWAP1 JUMP JUMPDEST PUSH1 0x0 DUP2 SWAP1 POP SWAP2 SWAP1 POP JUMP JUMPDEST PUSH2 0x899 DUP2 PUSH2 0x886 JUMP JUMPDEST DUP3 MSTORE POP POP JUMP JUMPDEST PUSH1 0x0 PUSH1 0x20 DUP3 ADD SWAP1 POP PUSH2 0x8B4 PUSH1 0x0 DUP4 ADD DUP5 PUSH2 0x890 JUMP JUMPDEST SWAP3 SWAP2 POP POP JUMP JUMPDEST PUSH1 0x0 PUSH1 0x40 MLOAD SWAP1 POP SWAP1 JUMP JUMPDEST PUSH1 0x0 DUP1 REVERT JUMPDEST PUSH1 0x0 DUP1 REVERT JUMPDEST PUSH2 0x8D7 DUP2 PUSH2 0x886 JUMP JUMPDEST DUP2 EQ PUSH2 0x8E2 JUMPI PUSH1 0x0 DUP1 REVERT JUMPDEST POP JUMP JUMPDEST PUSH1 0x0 DUP2 CALLDATALOAD SWAP1 POP PUSH2 0x8F4 DUP2 PUSH2 0x8CE JUMP JUMPDEST SWAP3 SWAP2 POP POP JUMP JUMPDEST PUSH1 0x0 DUP1 REVERT JUMPDEST PUSH1 0x0 PUSH1 0x1F NOT PUSH1 0x1F DUP4 ADD AND SWAP1 POP SWAP2 SWAP1 POP JUMP JUMPDEST PUSH32 0x4E487B7100000000000000000000000000000000000000000000000000000000 PUSH1 0x0 MSTORE PUSH1 0x41 PUSH1 0x4 MSTORE PUSH1 0x24 PUSH1 0x0 REVERT JUMPDEST PUSH2 0x948 DUP3 PUSH2 0x8FF JUMP JUMPDEST DUP2 ADD DUP2 DUP2 LT PUSH8 0xFFFFFFFFFFFFFFFF DUP3 GT OR ISZERO PUSH2 0x967 JUMPI PUSH2 0x966 PUSH2 0x910 JUMP JUMPDEST JUMPDEST DUP1 PUSH1 0x40 MSTORE POP POP POP JUMP JUMPDEST PUSH1 0x0 PUSH2 0x97A PUSH2 0x8BA JUMP JUMPDEST SWAP1 POP PUSH2 0x986 DUP3 DUP3 PUSH2 0x93F JUMP JUMPDEST SWAP2 SWAP1 POP JUMP JUMPDEST PUSH1 0x0 PUSH8 0xFFFFFFFFFFFFFFFF DUP3 GT ISZERO PUSH2 0x9A6 JUMPI PUSH2 0x9A5 PUSH2 0x910 JUMP JUMPDEST JUMPDEST PUSH1 0x20 DUP3 MUL SWAP1 POP PUSH1 0x20 DUP2 ADD SWAP1 POP SWAP2 SWAP1 POP JUMP JUMPDEST PUSH1 0x0 DUP1 REVERT JUMPDEST PUSH1 0x0 PUSH2 0x9CF PUSH2 0x9CA DUP5 PUSH2 0x98B JUMP JUMPDEST PUSH2 0x970 JUMP JUMPDEST SWAP1 POP DUP1 DUP4 DUP3 MSTORE PUSH1 0x20 DUP3 ADD SWAP1 POP PUSH1 0x20 DUP5 MUL DUP4 ADD DUP6 DUP2 GT ISZERO PUSH2 0x9F2 JUMPI PUSH2 0x9F1 PUSH2 0x9B7 JUMP JUMPDEST JUMPDEST DUP4 JUMPDEST DUP2 DUP2 LT ISZERO PUSH2 0xA1B JUMPI DUP1 PUSH2 0xA07 DUP9 DUP3 PUSH2 0x8E5 JUMP JUMPDEST DUP5 MSTORE PUSH1 0x20 DUP5 ADD SWAP4 POP POP PUSH1 0x20 DUP2 ADD SWAP1 POP PUSH2 0x9F4 JUMP JUMPDEST POP POP POP SWAP4 SWAP3 POP POP POP JUMP JUMPDEST PUSH1 0x0 DUP3 PUSH1 0x1F DUP4 ADD SLT PUSH2 0xA3A JUMPI PUSH2 0xA39 PUSH2 0x8FA JUMP JUMPDEST JUMPDEST DUP2 CALLDATALOAD PUSH2 0xA4A DUP5 DUP3 PUSH1 0x20 DUP7 ADD PUSH2 0x9BC JUMP JUMPDEST SWAP2 POP POP SWAP3 SWAP2 POP POP JUMP JUMPDEST PUSH1 0x0 DUP1 PUSH1 0x40 DUP4 DUP6 SUB SLT ISZERO PUSH2 0xA6A JUMPI PUSH2 0xA69 PUSH2 0x8C4 JUMP JUMPDEST JUMPDEST PUSH1 0x0 PUSH2 0xA78 DUP6 DUP3 DUP7 ADD PUSH2 0x8E5 JUMP JUMPDEST SWAP3 POP POP PUSH1 0x20 DUP4 ADD CALLDATALOAD PUSH8 0xFFFFFFFFFFFFFFFF DUP2 GT ISZERO PUSH2 0xA99 JUMPI PUSH2 0xA98 PUSH2 0x8C9 JUMP JUMPDEST JUMPDEST PUSH2 0xAA5 DUP6 DUP3 DUP7 ADD PUSH2 0xA25 JUMP JUMPDEST SWAP2 POP POP SWAP3 POP SWAP3 SWAP1 POP JUMP JUMPDEST PUSH1 0x0 PUSH1 0x20 DUP3 DUP5 SUB SLT ISZERO PUSH2 0xAC5 JUMPI PUSH2 0xAC4 PUSH2 0x8C4 JUMP JUMPDEST JUMPDEST PUSH1 0x0 PUSH2 0xAD3 DUP5 DUP3 DUP6 ADD PUSH2 0x8E5 JUMP JUMPDEST SWAP2 POP POP SWAP3 SWAP2 POP POP JUMP JUMPDEST PUSH1 0x0 PUSH20 0xFFFFFFFFFFFFFFFFFFFFFFFFFFFFFFFFFFFFFFFF DUP3 AND SWAP1 POP SWAP2 SWAP1 POP JUMP JUMPDEST PUSH1 0x0 PUSH2 0xB07 DUP3 PUSH2 0xADC JUMP JUMPDEST SWAP1 POP SWAP2 SWAP1 POP JUMP JUMPDEST PUSH2 0xB17 DUP2 PUSH2 0xAFC JUMP JUMPDEST DUP3 MSTORE POP POP JUMP JUMPDEST PUSH1 0x0 PUSH1 0x20 DUP3 ADD SWAP1 POP PUSH2 0xB32 PUSH1 0x0 DUP4 ADD DUP5 PUSH2 0xB0E JUMP JUMPDEST SWAP3 SWAP2 POP POP JUMP JUMPDEST PUSH1 0x0 PUSH1 0x40 DUP3 ADD SWAP1 POP PUSH2 0xB4D PUSH1 0x0 DUP4 ADD DUP6 PUSH2 0xB0E JUMP JUMPDEST PUSH2 0xB5A PUSH1 0x20 DUP4 ADD DUP5 PUSH2 0x890 JUMP JUMPDEST SWAP4 SWAP3 POP POP POP JUMP JUMPDEST PUSH1 0x0 PUSH2 0xB6C DUP3 PUSH2 0xADC JUMP JUMPDEST SWAP1 POP SWAP2 SWAP1 POP JUMP JUMPDEST PUSH2 0xB7C DUP2 PUSH2 0xB61 JUMP JUMPDEST DUP3 MSTORE POP POP JUMP JUMPDEST PUSH1 0x0 PUSH1 0x40 DUP3 ADD SWAP1 POP PUSH2 0xB97 PUSH1 0x0 DUP4 ADD DUP6 PUSH2 0xB73 JUMP JUMPDEST PUSH2 0xBA4 PUSH1 0x20 DUP4 ADD DUP5 PUSH2 0xB73 JUMP JUMPDEST SWAP4 SWAP3 POP POP POP JUMP JUMPDEST PUSH1 0x0 DUP3 DUP3 MSTORE PUSH1 0x20 DUP3 ADD SWAP1 POP SWAP3 SWAP2 POP POP JUMP JUMPDEST PUSH32 0x4E6F7420656E6F75676820746F6B656E00000000000000000000000000000000 PUSH1 0x0 DUP3 ADD MSTORE POP JUMP JUMPDEST PUSH1 0x0 PUSH2 0xBF2 PUSH1 0x10 DUP4 PUSH2 0xBAB JUMP JUMPDEST SWAP2 POP PUSH2 0xBFD DUP3 PUSH2 0xBBC JUMP JUMPDEST PUSH1 0x20 DUP3 ADD SWAP1 POP SWAP2 SWAP1 POP JUMP JUMPDEST PUSH1 0x0 PUSH1 0x20 DUP3 ADD SWAP1 POP DUP2 DUP2 SUB PUSH1 0x0 DUP4 ADD MSTORE PUSH2 0xC21 DUP2 PUSH2 0xBE5 JUMP JUMPDEST SWAP1 POP SWAP2 SWAP1 POP JUMP JUMPDEST PUSH32 0x4E487B7100000000000000000000000000000000000000000000000000000000 PUSH1 0x0 MSTORE PUSH1 0x11 PUSH1 0x4 MSTORE PUSH1 0x24 PUSH1 0x0 REVERT JUMPDEST PUSH1 0x0 PUSH2 0xC62 DUP3 PUSH2 0x886 JUMP JUMPDEST SWAP2 POP PUSH2 0xC6D DUP4 PUSH2 0x886 JUMP JUMPDEST SWAP3 POP DUP3 PUSH32 0xFFFFFFFFFFFFFFFFFFFFFFFFFFFFFFFFFFFFFFFFFFFFFFFFFFFFFFFFFFFFFFFF SUB DUP3 GT ISZERO PUSH2 0xCA2 JUMPI PUSH2 0xCA1 PUSH2 0xC28 JUMP JUMPDEST JUMPDEST DUP3 DUP3 ADD SWAP1 POP SWAP3 SWAP2 POP POP JUMP JUMPDEST PUSH32 0x4E756D626572207469636B6574206F7574206F662072616E6765000000000000 PUSH1 0x0 DUP3 ADD MSTORE POP JUMP JUMPDEST PUSH1 0x0 PUSH2 0xCE3 PUSH1 0x1A DUP4 PUSH2 0xBAB JUMP JUMPDEST SWAP2 POP PUSH2 0xCEE DUP3 PUSH2 0xCAD JUMP JUMPDEST PUSH1 0x20 DUP3 ADD SWAP1 POP SWAP2 SWAP1 POP JUMP JUMPDEST PUSH1 0x0 PUSH1 0x20 DUP3 ADD SWAP1 POP DUP2 DUP2 SUB PUSH1 0x0 DUP4 ADD MSTORE PUSH2 0xD12 DUP2 PUSH2 0xCD6 JUMP JUMPDEST SWAP1 POP SWAP2 SWAP1 POP JUMP JUMPDEST PUSH1 0x0 DUP2 SWAP1 POP SWAP2 SWAP1 POP JUMP JUMPDEST PUSH2 0xD2C DUP2 PUSH2 0xD19 JUMP JUMPDEST DUP3 MSTORE POP POP JUMP JUMPDEST PUSH1 0x0 PUSH8 0xFFFFFFFFFFFFFFFF DUP3 AND SWAP1 POP SWAP2 SWAP1 POP JUMP JUMPDEST PUSH2 0xD4F DUP2 PUSH2 0xD32 JUMP JUMPDEST DUP3 MSTORE POP POP JUMP JUMPDEST PUSH1 0x0 PUSH2 0xFFFF DUP3 AND SWAP1 POP SWAP2 SWAP1 POP JUMP JUMPDEST PUSH2 0xD6C DUP2 PUSH2 0xD55 JUMP JUMPDEST DUP3 MSTORE POP POP JUMP JUMPDEST PUSH1 0x0 PUSH4 0xFFFFFFFF DUP3 AND SWAP1 POP SWAP2 SWAP1 POP JUMP JUMPDEST PUSH2 0xD8B DUP2 PUSH2 0xD72 JUMP JUMPDEST DUP3 MSTORE POP POP JUMP JUMPDEST PUSH1 0x0 PUSH1 0xA0 DUP3 ADD SWAP1 POP PUSH2 0xDA6 PUSH1 0x0 DUP4 ADD DUP9 PUSH2 0xD23 JUMP JUMPDEST PUSH2 0xDB3 PUSH1 0x20 DUP4 ADD DUP8 PUSH2 0xD46 JUMP JUMPDEST PUSH2 0xDC0 PUSH1 0x40 DUP4 ADD DUP7 PUSH2 0xD63 JUMP JUMPDEST PUSH2 0xDCD PUSH1 0x60 DUP4 ADD DUP6 PUSH2 0xD82 JUMP JUMPDEST PUSH2 0xDDA PUSH1 0x80 DUP4 ADD DUP5 PUSH2 0xD82 JUMP JUMPDEST SWAP7 SWAP6 POP POP POP POP POP POP JUMP JUMPDEST PUSH1 0x0 DUP2 MLOAD SWAP1 POP PUSH2 0xDF3 DUP2 PUSH2 0x8CE JUMP JUMPDEST SWAP3 SWAP2 POP POP JUMP JUMPDEST PUSH1 0x0 PUSH1 0x20 DUP3 DUP5 SUB SLT ISZERO PUSH2 0xE0F JUMPI PUSH2 0xE0E PUSH2 0x8C4 JUMP JUMPDEST JUMPDEST PUSH1 0x0 PUSH2 0xE1D DUP5 DUP3 DUP6 ADD PUSH2 0xDE4 JUMP JUMPDEST SWAP2 POP POP SWAP3 SWAP2 POP POP JUMP JUMPDEST PUSH32 0x4E487B7100000000000000000000000000000000000000000000000000000000 PUSH1 0x0 MSTORE PUSH1 0x12 PUSH1 0x4 MSTORE PUSH1 0x24 PUSH1 0x0 REVERT JUMPDEST PUSH1 0x0 PUSH2 0xE60 DUP3 PUSH2 0x886 JUMP JUMPDEST SWAP2 POP PUSH2 0xE6B DUP4 PUSH2 0x886 JUMP JUMPDEST SWAP3 POP DUP3 PUSH2 0xE7B JUMPI PUSH2 0xE7A PUSH2 0xE26 JUMP JUMPDEST JUMPDEST DUP3 DUP3 MOD SWAP1 POP SWAP3 SWAP2 POP POP JUMP JUMPDEST PUSH1 0x0 PUSH2 0xE91 DUP3 PUSH2 0x886 JUMP JUMPDEST SWAP2 POP PUSH32 0xFFFFFFFFFFFFFFFFFFFFFFFFFFFFFFFFFFFFFFFFFFFFFFFFFFFFFFFFFFFFFFFF DUP3 EQ ISZERO PUSH2 0xEC4 JUMPI PUSH2 0xEC3 PUSH2 0xC28 JUMP JUMPDEST JUMPDEST PUSH1 0x1 DUP3 ADD SWAP1 POP SWAP2 SWAP1 POP JUMP INVALID LOG2 PUSH5 0x6970667358 0x22 SLT KECCAK256 DUP1 PUSH24 0x2F5487F8990F84984A82AD6F598D916E67DC57DA13DD8E2D 0xA5 ADDMOD 0xAA 0xB7 DUP10 0x2B PUSH5 0x736F6C6343 STOP ADDMOD 0xC STOP CALLER "
				},
				"gasEstimates": {
					"creation": {
						"codeDepositCost": "769000",
						"executionCost": "infinite",
						"totalCost": "infinite"
					},
					"external": {
						"closeLottery()": "167",
						"enter(uint256)": "infinite",
						"getAmountPlayer()": "2504",
						"getBalance()": "2438",
						"getLuckyNumber()": "4665",
						"getPlayers(uint256)": "infinite",
						"getWinnerByLottery(uint256)": "2910",
						"lotteryHistory(uint256)": "2950",
						"lotteryId()": "2451",
						"rawFulfillRandomWords(uint256,uint256[])": "infinite",
						"requestRandomWords()": "infinite",
						"s_randomWords(uint256)": "infinite",
						"s_requestId()": "2495"
					},
					"internal": {
						"fulfillRandomWords(uint256,uint256[] memory)": "infinite",
						"increasePlayerCount()": "24369"
					}
				},
				"methodIdentifiers": {
					"closeLottery()": "6fd09816",
					"enter(uint256)": "a59f3e0c",
					"getAmountPlayer()": "32eb85a4",
					"getBalance()": "12065fe0",
					"getLuckyNumber()": "e69f19cd",
					"getPlayers(uint256)": "460e2049",
					"getWinnerByLottery(uint256)": "281d098d",
					"lotteryHistory(uint256)": "6d6fe230",
					"lotteryId()": "e580f47b",
					"rawFulfillRandomWords(uint256,uint256[])": "1fe543e3",
					"requestRandomWords()": "e0c86289",
					"s_randomWords(uint256)": "f6eaffc8",
					"s_requestId()": "e89e106a"
				}
			},
			"storageLayout": {
				"storage": [
					{
						"astId": 721,
						"contract": "contracts/Lottery.sol:Lottery",
						"label": "callbackGasLimit",
						"offset": 0,
						"slot": "0",
						"type": "t_uint32"
					},
					{
						"astId": 724,
						"contract": "contracts/Lottery.sol:Lottery",
						"label": "requestConfirmations",
						"offset": 4,
						"slot": "0",
						"type": "t_uint16"
					},
					{
						"astId": 727,
						"contract": "contracts/Lottery.sol:Lottery",
						"label": "numWords",
						"offset": 6,
						"slot": "0",
						"type": "t_uint32"
					},
					{
						"astId": 730,
						"contract": "contracts/Lottery.sol:Lottery",
						"label": "s_randomWords",
						"offset": 0,
						"slot": "1",
						"type": "t_array(t_uint256)dyn_storage"
					},
					{
						"astId": 732,
						"contract": "contracts/Lottery.sol:Lottery",
						"label": "s_requestId",
						"offset": 0,
						"slot": "2",
						"type": "t_uint256"
					},
					{
						"astId": 736,
						"contract": "contracts/Lottery.sol:Lottery",
						"label": "s_owner",
						"offset": 0,
						"slot": "3",
						"type": "t_address"
					},
					{
						"astId": 738,
						"contract": "contracts/Lottery.sol:Lottery",
						"label": "lotteryId",
						"offset": 0,
						"slot": "4",
						"type": "t_uint256"
					},
					{
						"astId": 742,
						"contract": "contracts/Lottery.sol:Lottery",
						"label": "lotteryHistory",
						"offset": 0,
						"slot": "5",
						"type": "t_mapping(t_uint256,t_address_payable)"
					},
					{
						"astId": 751,
						"contract": "contracts/Lottery.sol:Lottery",
						"label": "groupTicket",
						"offset": 0,
						"slot": "6",
						"type": "t_mapping(t_uint256,t_struct(ListNumberTicket)746_storage)"
					},
					{
						"astId": 761,
						"contract": "contracts/Lottery.sol:Lottery",
						"label": "allLottery",
						"offset": 0,
						"slot": "7",
						"type": "t_mapping(t_uint256,t_struct(Participants)756_storage)"
					},
					{
						"astId": 764,
						"contract": "contracts/Lottery.sol:Lottery",
						"label": "playerCount",
						"offset": 0,
						"slot": "8",
						"type": "t_uint256"
					},
					{
						"astId": 766,
						"contract": "contracts/Lottery.sol:Lottery",
						"label": "prizePool",
						"offset": 0,
						"slot": "9",
						"type": "t_uint256"
					}
				],
				"types": {
					"t_address": {
						"encoding": "inplace",
						"label": "address",
						"numberOfBytes": "20"
					},
					"t_address_payable": {
						"encoding": "inplace",
						"label": "address payable",
						"numberOfBytes": "20"
					},
					"t_array(t_address_payable)dyn_storage": {
						"base": "t_address_payable",
						"encoding": "dynamic_array",
						"label": "address payable[]",
						"numberOfBytes": "32"
					},
					"t_array(t_uint256)dyn_storage": {
						"base": "t_uint256",
						"encoding": "dynamic_array",
						"label": "uint256[]",
						"numberOfBytes": "32"
					},
					"t_mapping(t_uint256,t_address_payable)": {
						"encoding": "mapping",
						"key": "t_uint256",
						"label": "mapping(uint256 => address payable)",
						"numberOfBytes": "32",
						"value": "t_address_payable"
					},
					"t_mapping(t_uint256,t_struct(ListNumberTicket)746_storage)": {
						"encoding": "mapping",
						"key": "t_uint256",
						"label": "mapping(uint256 => struct Lottery.ListNumberTicket)",
						"numberOfBytes": "32",
						"value": "t_struct(ListNumberTicket)746_storage"
					},
					"t_mapping(t_uint256,t_struct(Participants)756_storage)": {
						"encoding": "mapping",
						"key": "t_uint256",
						"label": "mapping(uint256 => struct Lottery.Participants)",
						"numberOfBytes": "32",
						"value": "t_struct(Participants)756_storage"
					},
					"t_struct(ListNumberTicket)746_storage": {
						"encoding": "inplace",
						"label": "struct Lottery.ListNumberTicket",
						"members": [
							{
								"astId": 745,
								"contract": "contracts/Lottery.sol:Lottery",
								"label": "groupPlayer",
								"offset": 0,
								"slot": "0",
								"type": "t_array(t_address_payable)dyn_storage"
							}
						],
						"numberOfBytes": "32"
					},
					"t_struct(Participants)756_storage": {
						"encoding": "inplace",
						"label": "struct Lottery.Participants",
						"members": [
							{
								"astId": 753,
								"contract": "contracts/Lottery.sol:Lottery",
								"label": "player",
								"offset": 0,
								"slot": "0",
								"type": "t_address_payable"
							},
							{
								"astId": 755,
								"contract": "contracts/Lottery.sol:Lottery",
								"label": "numTicket",
								"offset": 0,
								"slot": "1",
								"type": "t_uint256"
							}
						],
						"numberOfBytes": "64"
					},
					"t_uint16": {
						"encoding": "inplace",
						"label": "uint16",
						"numberOfBytes": "2"
					},
					"t_uint256": {
						"encoding": "inplace",
						"label": "uint256",
						"numberOfBytes": "32"
					},
					"t_uint32": {
						"encoding": "inplace",
						"label": "uint32",
						"numberOfBytes": "4"
					}
				}
			},
			"userdoc": {
				"kind": "user",
				"methods": {},
				"version": 1
			}
		}
	}
}