{
	"contracts/Lottery.sol": {
		"Lottery": {
			"abi": [
				{
					"inputs": [
						{
							"internalType": "address",
							"name": "have",
							"type": "address"
						},
						{
							"internalType": "address",
							"name": "want",
							"type": "address"
						}
					],
					"name": "OnlyCoordinatorCanFulfill",
					"type": "error"
				},
				{
					"inputs": [],
					"name": "closeLottery",
					"outputs": [],
					"stateMutability": "nonpayable",
					"type": "function"
				},
				{
					"inputs": [
						{
							"internalType": "uint256",
							"name": "_numTicket",
							"type": "uint256"
						}
					],
					"name": "enter",
					"outputs": [],
					"stateMutability": "payable",
					"type": "function"
				},
				{
					"inputs": [],
					"name": "getAmountPlayer",
					"outputs": [
						{
							"internalType": "uint256",
							"name": "",
							"type": "uint256"
						}
					],
					"stateMutability": "view",
					"type": "function"
				},
				{
					"inputs": [],
					"name": "getAmountWinner",
					"outputs": [
						{
							"internalType": "uint256",
							"name": "",
							"type": "uint256"
						}
					],
					"stateMutability": "view",
					"type": "function"
				},
				{
					"inputs": [],
					"name": "getBalance",
					"outputs": [
						{
							"internalType": "uint256",
							"name": "",
							"type": "uint256"
						}
					],
					"stateMutability": "view",
					"type": "function"
				},
				{
					"inputs": [
						{
							"internalType": "uint256",
							"name": "index",
							"type": "uint256"
						}
					],
					"name": "getListWinner",
					"outputs": [
						{
							"internalType": "address",
							"name": "",
							"type": "address"
						}
					],
					"stateMutability": "view",
					"type": "function"
				},
				{
					"inputs": [
						{
							"internalType": "uint256",
							"name": "_index",
							"type": "uint256"
						}
					],
					"name": "getPlayers",
					"outputs": [
						{
							"internalType": "address payable",
							"name": "",
							"type": "address"
						},
						{
							"internalType": "uint256",
							"name": "",
							"type": "uint256"
						}
					],
					"stateMutability": "view",
					"type": "function"
				},
				{
					"inputs": [
						{
							"internalType": "uint256",
							"name": "lottery",
							"type": "uint256"
						}
					],
					"name": "getWinnerByLottery",
					"outputs": [
						{
							"internalType": "address payable",
							"name": "",
							"type": "address"
						}
					],
					"stateMutability": "view",
					"type": "function"
				},
				{
					"inputs": [
						{
							"internalType": "uint256",
							"name": "",
							"type": "uint256"
						}
					],
					"name": "lotteryHistory",
					"outputs": [
						{
							"internalType": "address payable",
							"name": "",
							"type": "address"
						}
					],
					"stateMutability": "view",
					"type": "function"
				},
				{
					"inputs": [],
					"name": "lotteryId",
					"outputs": [
						{
							"internalType": "uint256",
							"name": "",
							"type": "uint256"
						}
					],
					"stateMutability": "view",
					"type": "function"
				},
				{
					"inputs": [
						{
							"internalType": "uint256",
							"name": "requestId",
							"type": "uint256"
						},
						{
							"internalType": "uint256[]",
							"name": "randomWords",
							"type": "uint256[]"
						}
					],
					"name": "rawFulfillRandomWords",
					"outputs": [],
					"stateMutability": "nonpayable",
					"type": "function"
				},
				{
					"inputs": [
						{
							"internalType": "uint256",
							"name": "",
							"type": "uint256"
						}
					],
					"name": "s_randomWords",
					"outputs": [
						{
							"internalType": "uint256",
							"name": "",
							"type": "uint256"
						}
					],
					"stateMutability": "view",
					"type": "function"
				},
				{
					"inputs": [],
					"name": "s_requestId",
					"outputs": [
						{
							"internalType": "uint256",
							"name": "",
							"type": "uint256"
						}
					],
					"stateMutability": "view",
					"type": "function"
				}
			],
			"devdoc": {
				"kind": "dev",
				"methods": {},
				"version": 1
			},
			"evm": {
				"assembly": "    /* \"contracts/Lottery.sol\":426:5118  contract Lottery is VRFConsumerBaseV2(0x6168499c0cFfCaCD319c818142124B7A15E857ab) {... */\n  mstore(0x40, 0xa0)\n    /* \"contracts/Lottery.sol\":1021:1027  100000 */\n  0x0186a0\n    /* \"contracts/Lottery.sol\":995:1027  uint32 callbackGasLimit = 100000 */\n  0x00\n  dup1\n  0x0100\n  exp\n  dup2\n  sload\n  dup2\n  0xffffffff\n  mul\n  not\n  and\n  swap1\n  dup4\n  0xffffffff\n  and\n  mul\n  or\n  swap1\n  sstore\n  pop\n    /* \"contracts/Lottery.sol\":1118:1119  3 */\n  0x03\n    /* \"contracts/Lottery.sol\":1088:1119  uint16 requestConfirmations = 3 */\n  0x00\n  exp(0x0100, 0x04)\n  dup2\n  sload\n  dup2\n  0xffff\n  mul\n  not\n  and\n  swap1\n  dup4\n  0xffff\n  and\n  mul\n  or\n  swap1\n  sstore\n  pop\n    /* \"contracts/Lottery.sol\":1264:1265  2 */\n  0x02\n    /* \"contracts/Lottery.sol\":1245:1265  uint32 numWords =  2 */\n  0x00\n  exp(0x0100, 0x06)\n  dup2\n  sload\n  dup2\n  0xffffffff\n  mul\n  not\n  and\n  swap1\n  dup4\n  0xffffffff\n  and\n  mul\n  or\n  swap1\n  sstore\n  pop\n    /* \"contracts/Lottery.sol\":1358:1368  msg.sender */\n  caller\n    /* \"contracts/Lottery.sol\":1340:1368  address s_owner = msg.sender */\n  0x03\n  exp(0x0100, 0x00)\n  dup2\n  sload\n  dup2\n  0xffffffffffffffffffffffffffffffffffffffff\n  mul\n  not\n  and\n  swap1\n  dup4\n  0xffffffffffffffffffffffffffffffffffffffff\n  and\n  mul\n  or\n  swap1\n  sstore\n  pop\n    /* \"contracts/Lottery.sol\":1779:1780  0 */\n  0x00\n    /* \"contracts/Lottery.sol\":1751:1780  uint internal playerCount = 0 */\n  0x08\n  sstore\n    /* \"contracts/Lottery.sol\":426:5118  contract Lottery is VRFConsumerBaseV2(0x6168499c0cFfCaCD319c818142124B7A15E857ab) {... */\n  callvalue\n  dup1\n  iszero\n  tag_1\n  jumpi\n  0x00\n  dup1\n  revert\ntag_1:\n  pop\n    /* \"contracts/Lottery.sol\":464:506  0x6168499c0cFfCaCD319c818142124B7A15E857ab */\n  0x6168499c0cffcacd319c818142124b7a15e857ab\n    /* \"@chainlink/contracts/src/v0.8/VRFConsumerBaseV2.sol\":5616:5631  _vrfCoordinator */\n  dup1\n    /* \"@chainlink/contracts/src/v0.8/VRFConsumerBaseV2.sol\":5599:5631  vrfCoordinator = _vrfCoordinator */\n  0xffffffffffffffffffffffffffffffffffffffff\n  and\n  0x80\n  dup2\n  0xffffffffffffffffffffffffffffffffffffffff\n  and\n  dup2\n  mstore\n  pop\n  pop\n    /* \"@chainlink/contracts/src/v0.8/VRFConsumerBaseV2.sol\":5556:5636  constructor(address _vrfCoordinator) {... */\n  pop\n    /* \"contracts/Lottery.sol\":426:5118  contract Lottery is VRFConsumerBaseV2(0x6168499c0cFfCaCD319c818142124B7A15E857ab) {... */\n  mload(0x80)\n  codecopy(0x00, dataOffset(sub_0), dataSize(sub_0))\n  0x00\n  assignImmutable(\"0x1a192fabce13988b84994d4296e6cdc418d55e2f1d7f942188d4040b94fc57ac\")\n  return(0x00, dataSize(sub_0))\nstop\n\nsub_0: assembly {\n        /* \"contracts/Lottery.sol\":426:5118  contract Lottery is VRFConsumerBaseV2(0x6168499c0cFfCaCD319c818142124B7A15E857ab) {... */\n      mstore(0x40, 0x80)\n      jumpi(tag_1, lt(calldatasize, 0x04))\n      shr(0xe0, calldataload(0x00))\n      dup1\n      0x693521d5\n      gt\n      tag_15\n      jumpi\n      dup1\n      0xa59f3e0c\n      gt\n      tag_16\n      jumpi\n      dup1\n      0xa59f3e0c\n      eq\n      tag_11\n      jumpi\n      dup1\n      0xe580f47b\n      eq\n      tag_12\n      jumpi\n      dup1\n      0xe89e106a\n      eq\n      tag_13\n      jumpi\n      dup1\n      0xf6eaffc8\n      eq\n      tag_14\n      jumpi\n      jump(tag_1)\n    tag_16:\n      dup1\n      0x693521d5\n      eq\n      tag_8\n      jumpi\n      dup1\n      0x6d6fe230\n      eq\n      tag_9\n      jumpi\n      dup1\n      0x6fd09816\n      eq\n      tag_10\n      jumpi\n      jump(tag_1)\n    tag_15:\n      dup1\n      0x12065fe0\n      eq\n      tag_2\n      jumpi\n      dup1\n      0x18b425ff\n      eq\n      tag_3\n      jumpi\n      dup1\n      0x1fe543e3\n      eq\n      tag_4\n      jumpi\n      dup1\n      0x281d098d\n      eq\n      tag_5\n      jumpi\n      dup1\n      0x32eb85a4\n      eq\n      tag_6\n      jumpi\n      dup1\n      0x460e2049\n      eq\n      tag_7\n      jumpi\n    tag_1:\n      0x00\n      dup1\n      revert\n        /* \"contracts/Lottery.sol\":2062:2144  function getBalance() public view returns (uint) {... */\n    tag_2:\n      callvalue\n      dup1\n      iszero\n      tag_17\n      jumpi\n      0x00\n      dup1\n      revert\n    tag_17:\n      pop\n      tag_18\n      tag_19\n      jump\t// in\n    tag_18:\n      mload(0x40)\n      tag_20\n      swap2\n      swap1\n      tag_21\n      jump\t// in\n    tag_20:\n      mload(0x40)\n      dup1\n      swap2\n      sub\n      swap1\n      return\n        /* \"contracts/Lottery.sol\":4804:4937  function getListWinner(uint256 index) public view returns(address){... */\n    tag_3:\n      callvalue\n      dup1\n      iszero\n      tag_22\n      jumpi\n      0x00\n      dup1\n      revert\n    tag_22:\n      pop\n      tag_23\n      0x04\n      dup1\n      calldatasize\n      sub\n      dup2\n      add\n      swap1\n      tag_24\n      swap2\n      swap1\n      tag_25\n      jump\t// in\n    tag_24:\n      tag_26\n      jump\t// in\n    tag_23:\n      mload(0x40)\n      tag_27\n      swap2\n      swap1\n      tag_28\n      jump\t// in\n    tag_27:\n      mload(0x40)\n      dup1\n      swap2\n      sub\n      swap1\n      return\n        /* \"@chainlink/contracts/src/v0.8/VRFConsumerBaseV2.sol\":6618:6874  function rawFulfillRandomWords(uint256 requestId, uint256[] memory randomWords) external {... */\n    tag_4:\n      callvalue\n      dup1\n      iszero\n      tag_29\n      jumpi\n      0x00\n      dup1\n      revert\n    tag_29:\n      pop\n      tag_30\n      0x04\n      dup1\n      calldatasize\n      sub\n      dup2\n      add\n      swap1\n      tag_31\n      swap2\n      swap1\n      tag_32\n      jump\t// in\n    tag_31:\n      tag_33\n      jump\t// in\n    tag_30:\n      stop\n        /* \"contracts/Lottery.sol\":1929:2056  function getWinnerByLottery(uint lottery) public view returns (address payable) {... */\n    tag_5:\n      callvalue\n      dup1\n      iszero\n      tag_34\n      jumpi\n      0x00\n      dup1\n      revert\n    tag_34:\n      pop\n      tag_35\n      0x04\n      dup1\n      calldatasize\n      sub\n      dup2\n      add\n      swap1\n      tag_36\n      swap2\n      swap1\n      tag_25\n      jump\t// in\n    tag_36:\n      tag_37\n      jump\t// in\n    tag_35:\n      mload(0x40)\n      tag_38\n      swap2\n      swap1\n      tag_39\n      jump\t// in\n    tag_38:\n      mload(0x40)\n      dup1\n      swap2\n      sub\n      swap1\n      return\n        /* \"contracts/Lottery.sol\":2400:2488  function getAmountPlayer() public view returns (uint){... */\n    tag_6:\n      callvalue\n      dup1\n      iszero\n      tag_40\n      jumpi\n      0x00\n      dup1\n      revert\n    tag_40:\n      pop\n      tag_41\n      tag_42\n      jump\t// in\n    tag_41:\n      mload(0x40)\n      tag_43\n      swap2\n      swap1\n      tag_21\n      jump\t// in\n    tag_43:\n      mload(0x40)\n      dup1\n      swap2\n      sub\n      swap1\n      return\n        /* \"contracts/Lottery.sol\":2150:2390  function getPlayers(uint _index) public view returns (address payable, uint) {... */\n    tag_7:\n      callvalue\n      dup1\n      iszero\n      tag_44\n      jumpi\n      0x00\n      dup1\n      revert\n    tag_44:\n      pop\n      tag_45\n      0x04\n      dup1\n      calldatasize\n      sub\n      dup2\n      add\n      swap1\n      tag_46\n      swap2\n      swap1\n      tag_25\n      jump\t// in\n    tag_46:\n      tag_47\n      jump\t// in\n    tag_45:\n      mload(0x40)\n      tag_48\n      swap3\n      swap2\n      swap1\n      tag_49\n      jump\t// in\n    tag_48:\n      mload(0x40)\n      dup1\n      swap2\n      sub\n      swap1\n      return\n        /* \"contracts/Lottery.sol\":4676:4798  function getAmountWinner() public view returns(uint256){... */\n    tag_8:\n      callvalue\n      dup1\n      iszero\n      tag_50\n      jumpi\n      0x00\n      dup1\n      revert\n    tag_50:\n      pop\n      tag_51\n      tag_52\n      jump\t// in\n    tag_51:\n      mload(0x40)\n      tag_53\n      swap2\n      swap1\n      tag_21\n      jump\t// in\n    tag_53:\n      mload(0x40)\n      dup1\n      swap2\n      sub\n      swap1\n      return\n        /* \"contracts/Lottery.sol\":1406:1461  mapping (uint => address payable) public lotteryHistory */\n    tag_9:\n      callvalue\n      dup1\n      iszero\n      tag_54\n      jumpi\n      0x00\n      dup1\n      revert\n    tag_54:\n      pop\n      tag_55\n      0x04\n      dup1\n      calldatasize\n      sub\n      dup2\n      add\n      swap1\n      tag_56\n      swap2\n      swap1\n      tag_25\n      jump\t// in\n    tag_56:\n      tag_57\n      jump\t// in\n    tag_55:\n      mload(0x40)\n      tag_58\n      swap2\n      swap1\n      tag_39\n      jump\t// in\n    tag_58:\n      mload(0x40)\n      dup1\n      swap2\n      sub\n      swap1\n      return\n        /* \"contracts/Lottery.sol\":4048:4456  function closeLottery() external onlyOwner{... */\n    tag_10:\n      callvalue\n      dup1\n      iszero\n      tag_59\n      jumpi\n      0x00\n      dup1\n      revert\n    tag_59:\n      pop\n      tag_60\n      tag_61\n      jump\t// in\n    tag_60:\n      stop\n        /* \"contracts/Lottery.sol\":2493:3042  function enter(uint _numTicket) public payable {... */\n    tag_11:\n      tag_62\n      0x04\n      dup1\n      calldatasize\n      sub\n      dup2\n      add\n      swap1\n      tag_63\n      swap2\n      swap1\n      tag_25\n      jump\t// in\n    tag_63:\n      tag_64\n      jump\t// in\n    tag_62:\n      stop\n        /* \"contracts/Lottery.sol\":1379:1400  uint public lotteryId */\n    tag_12:\n      callvalue\n      dup1\n      iszero\n      tag_65\n      jumpi\n      0x00\n      dup1\n      revert\n    tag_65:\n      pop\n      tag_66\n      tag_67\n      jump\t// in\n    tag_66:\n      mload(0x40)\n      tag_68\n      swap2\n      swap1\n      tag_21\n      jump\t// in\n    tag_68:\n      mload(0x40)\n      dup1\n      swap2\n      sub\n      swap1\n      return\n        /* \"contracts/Lottery.sol\":1308:1334  uint256 public s_requestId */\n    tag_13:\n      callvalue\n      dup1\n      iszero\n      tag_69\n      jumpi\n      0x00\n      dup1\n      revert\n    tag_69:\n      pop\n      tag_70\n      tag_71\n      jump\t// in\n    tag_70:\n      mload(0x40)\n      tag_72\n      swap2\n      swap1\n      tag_21\n      jump\t// in\n    tag_72:\n      mload(0x40)\n      dup1\n      swap2\n      sub\n      swap1\n      return\n        /* \"contracts/Lottery.sol\":1272:1302  uint256[] public s_randomWords */\n    tag_14:\n      callvalue\n      dup1\n      iszero\n      tag_73\n      jumpi\n      0x00\n      dup1\n      revert\n    tag_73:\n      pop\n      tag_74\n      0x04\n      dup1\n      calldatasize\n      sub\n      dup2\n      add\n      swap1\n      tag_75\n      swap2\n      swap1\n      tag_25\n      jump\t// in\n    tag_75:\n      tag_76\n      jump\t// in\n    tag_74:\n      mload(0x40)\n      tag_77\n      swap2\n      swap1\n      tag_21\n      jump\t// in\n    tag_77:\n      mload(0x40)\n      dup1\n      swap2\n      sub\n      swap1\n      return\n        /* \"contracts/Lottery.sol\":2062:2144  function getBalance() public view returns (uint) {... */\n    tag_19:\n        /* \"contracts/Lottery.sol\":2105:2109  uint */\n      0x00\n        /* \"contracts/Lottery.sol\":2128:2137  prizePool */\n      sload(0x09)\n        /* \"contracts/Lottery.sol\":2121:2137  return prizePool */\n      swap1\n      pop\n        /* \"contracts/Lottery.sol\":2062:2144  function getBalance() public view returns (uint) {... */\n      swap1\n      jump\t// out\n        /* \"contracts/Lottery.sol\":4804:4937  function getListWinner(uint256 index) public view returns(address){... */\n    tag_26:\n        /* \"contracts/Lottery.sol\":4862:4869  address */\n      0x00\n        /* \"contracts/Lottery.sol\":4887:4898  groupTicket */\n      0x06\n        /* \"contracts/Lottery.sol\":4887:4911  groupTicket[luckyNumber] */\n      0x00\n        /* \"contracts/Lottery.sol\":4899:4910  luckyNumber */\n      sload(0x0a)\n        /* \"contracts/Lottery.sol\":4887:4911  groupTicket[luckyNumber] */\n      dup2\n      mstore\n      0x20\n      add\n      swap1\n      dup2\n      mstore\n      0x20\n      add\n      0x00\n      keccak256\n        /* \"contracts/Lottery.sol\":4887:4923  groupTicket[luckyNumber].groupPlayer */\n      0x00\n      add\n        /* \"contracts/Lottery.sol\":4924:4929  index */\n      dup3\n        /* \"contracts/Lottery.sol\":4887:4930  groupTicket[luckyNumber].groupPlayer[index] */\n      dup2\n      sload\n      dup2\n      lt\n      tag_80\n      jumpi\n      tag_81\n      tag_82\n      jump\t// in\n    tag_81:\n    tag_80:\n      swap1\n      0x00\n      mstore\n      keccak256(0x00, 0x20)\n      add\n      0x00\n      swap1\n      sload\n      swap1\n      0x0100\n      exp\n      swap1\n      div\n      0xffffffffffffffffffffffffffffffffffffffff\n      and\n        /* \"contracts/Lottery.sol\":4880:4930  return groupTicket[luckyNumber].groupPlayer[index] */\n      swap1\n      pop\n        /* \"contracts/Lottery.sol\":4804:4937  function getListWinner(uint256 index) public view returns(address){... */\n      swap2\n      swap1\n      pop\n      jump\t// out\n        /* \"@chainlink/contracts/src/v0.8/VRFConsumerBaseV2.sol\":6618:6874  function rawFulfillRandomWords(uint256 requestId, uint256[] memory randomWords) external {... */\n    tag_33:\n        /* \"@chainlink/contracts/src/v0.8/VRFConsumerBaseV2.sol\":6731:6745  vrfCoordinator */\n      immutable(\"0x1a192fabce13988b84994d4296e6cdc418d55e2f1d7f942188d4040b94fc57ac\")\n        /* \"@chainlink/contracts/src/v0.8/VRFConsumerBaseV2.sol\":6717:6745  msg.sender != vrfCoordinator */\n      0xffffffffffffffffffffffffffffffffffffffff\n      and\n        /* \"@chainlink/contracts/src/v0.8/VRFConsumerBaseV2.sol\":6717:6727  msg.sender */\n      caller\n        /* \"@chainlink/contracts/src/v0.8/VRFConsumerBaseV2.sol\":6717:6745  msg.sender != vrfCoordinator */\n      0xffffffffffffffffffffffffffffffffffffffff\n      and\n      eq\n        /* \"@chainlink/contracts/src/v0.8/VRFConsumerBaseV2.sol\":6713:6822  if (msg.sender != vrfCoordinator) {... */\n      tag_85\n      jumpi\n        /* \"@chainlink/contracts/src/v0.8/VRFConsumerBaseV2.sol\":6788:6798  msg.sender */\n      caller\n        /* \"@chainlink/contracts/src/v0.8/VRFConsumerBaseV2.sol\":6800:6814  vrfCoordinator */\n      immutable(\"0x1a192fabce13988b84994d4296e6cdc418d55e2f1d7f942188d4040b94fc57ac\")\n        /* \"@chainlink/contracts/src/v0.8/VRFConsumerBaseV2.sol\":6762:6815  OnlyCoordinatorCanFulfill(msg.sender, vrfCoordinator) */\n      mload(0x40)\n      0x1cf993f400000000000000000000000000000000000000000000000000000000\n      dup2\n      mstore\n      0x04\n      add\n      tag_86\n      swap3\n      swap2\n      swap1\n      tag_87\n      jump\t// in\n    tag_86:\n      mload(0x40)\n      dup1\n      swap2\n      sub\n      swap1\n      revert\n        /* \"@chainlink/contracts/src/v0.8/VRFConsumerBaseV2.sol\":6713:6822  if (msg.sender != vrfCoordinator) {... */\n    tag_85:\n        /* \"@chainlink/contracts/src/v0.8/VRFConsumerBaseV2.sol\":6827:6869  fulfillRandomWords(requestId, randomWords) */\n      tag_88\n        /* \"@chainlink/contracts/src/v0.8/VRFConsumerBaseV2.sol\":6846:6855  requestId */\n      dup3\n        /* \"@chainlink/contracts/src/v0.8/VRFConsumerBaseV2.sol\":6857:6868  randomWords */\n      dup3\n        /* \"@chainlink/contracts/src/v0.8/VRFConsumerBaseV2.sol\":6827:6845  fulfillRandomWords */\n      tag_89\n        /* \"@chainlink/contracts/src/v0.8/VRFConsumerBaseV2.sol\":6827:6869  fulfillRandomWords(requestId, randomWords) */\n      jump\t// in\n    tag_88:\n        /* \"@chainlink/contracts/src/v0.8/VRFConsumerBaseV2.sol\":6618:6874  function rawFulfillRandomWords(uint256 requestId, uint256[] memory randomWords) external {... */\n      pop\n      pop\n      jump\t// out\n        /* \"contracts/Lottery.sol\":1929:2056  function getWinnerByLottery(uint lottery) public view returns (address payable) {... */\n    tag_37:\n        /* \"contracts/Lottery.sol\":1992:2007  address payable */\n      0x00\n        /* \"contracts/Lottery.sol\":2026:2040  lotteryHistory */\n      0x05\n        /* \"contracts/Lottery.sol\":2026:2049  lotteryHistory[lottery] */\n      0x00\n        /* \"contracts/Lottery.sol\":2041:2048  lottery */\n      dup4\n        /* \"contracts/Lottery.sol\":2026:2049  lotteryHistory[lottery] */\n      dup2\n      mstore\n      0x20\n      add\n      swap1\n      dup2\n      mstore\n      0x20\n      add\n      0x00\n      keccak256\n      0x00\n      swap1\n      sload\n      swap1\n      0x0100\n      exp\n      swap1\n      div\n      0xffffffffffffffffffffffffffffffffffffffff\n      and\n        /* \"contracts/Lottery.sol\":2019:2049  return lotteryHistory[lottery] */\n      swap1\n      pop\n        /* \"contracts/Lottery.sol\":1929:2056  function getWinnerByLottery(uint lottery) public view returns (address payable) {... */\n      swap2\n      swap1\n      pop\n      jump\t// out\n        /* \"contracts/Lottery.sol\":2400:2488  function getAmountPlayer() public view returns (uint){... */\n    tag_42:\n        /* \"contracts/Lottery.sol\":2448:2452  uint */\n      0x00\n        /* \"contracts/Lottery.sol\":2470:2481  playerCount */\n      sload(0x08)\n        /* \"contracts/Lottery.sol\":2463:2481  return playerCount */\n      swap1\n      pop\n        /* \"contracts/Lottery.sol\":2400:2488  function getAmountPlayer() public view returns (uint){... */\n      swap1\n      jump\t// out\n        /* \"contracts/Lottery.sol\":2150:2390  function getPlayers(uint _index) public view returns (address payable, uint) {... */\n    tag_47:\n        /* \"contracts/Lottery.sol\":2204:2219  address payable */\n      0x00\n        /* \"contracts/Lottery.sol\":2221:2225  uint */\n      dup1\n        /* \"contracts/Lottery.sol\":2237:2269  Participants storage participant */\n      0x00\n        /* \"contracts/Lottery.sol\":2272:2282  allLottery */\n      0x07\n        /* \"contracts/Lottery.sol\":2272:2290  allLottery[_index] */\n      0x00\n        /* \"contracts/Lottery.sol\":2283:2289  _index */\n      dup6\n        /* \"contracts/Lottery.sol\":2272:2290  allLottery[_index] */\n      dup2\n      mstore\n      0x20\n      add\n      swap1\n      dup2\n      mstore\n      0x20\n      add\n      0x00\n      keccak256\n        /* \"contracts/Lottery.sol\":2237:2290  Participants storage participant = allLottery[_index] */\n      swap1\n      pop\n        /* \"contracts/Lottery.sol\":2320:2331  participant */\n      dup1\n        /* \"contracts/Lottery.sol\":2320:2338  participant.player */\n      0x00\n      add\n      0x00\n      swap1\n      sload\n      swap1\n      0x0100\n      exp\n      swap1\n      div\n      0xffffffffffffffffffffffffffffffffffffffff\n      and\n        /* \"contracts/Lottery.sol\":2352:2363  participant */\n      dup2\n        /* \"contracts/Lottery.sol\":2352:2373  participant.numTicket */\n      0x01\n      add\n      sload\n        /* \"contracts/Lottery.sol\":2300:2383  return(... */\n      swap3\n      pop\n      swap3\n      pop\n      pop\n        /* \"contracts/Lottery.sol\":2150:2390  function getPlayers(uint _index) public view returns (address payable, uint) {... */\n      swap2\n      pop\n      swap2\n      jump\t// out\n        /* \"contracts/Lottery.sol\":4676:4798  function getAmountWinner() public view returns(uint256){... */\n    tag_52:\n        /* \"contracts/Lottery.sol\":4723:4730  uint256 */\n      0x00\n        /* \"contracts/Lottery.sol\":4748:4759  groupTicket */\n      0x06\n        /* \"contracts/Lottery.sol\":4748:4772  groupTicket[luckyNumber] */\n      0x00\n        /* \"contracts/Lottery.sol\":4760:4771  luckyNumber */\n      sload(0x0a)\n        /* \"contracts/Lottery.sol\":4748:4772  groupTicket[luckyNumber] */\n      dup2\n      mstore\n      0x20\n      add\n      swap1\n      dup2\n      mstore\n      0x20\n      add\n      0x00\n      keccak256\n        /* \"contracts/Lottery.sol\":4748:4784  groupTicket[luckyNumber].groupPlayer */\n      0x00\n      add\n        /* \"contracts/Lottery.sol\":4748:4791  groupTicket[luckyNumber].groupPlayer.length */\n      dup1\n      sload\n      swap1\n      pop\n        /* \"contracts/Lottery.sol\":4741:4791  return groupTicket[luckyNumber].groupPlayer.length */\n      swap1\n      pop\n        /* \"contracts/Lottery.sol\":4676:4798  function getAmountWinner() public view returns(uint256){... */\n      swap1\n      jump\t// out\n        /* \"contracts/Lottery.sol\":1406:1461  mapping (uint => address payable) public lotteryHistory */\n    tag_57:\n      mstore(0x20, 0x05)\n      dup1\n      0x00\n      mstore\n      keccak256(0x00, 0x40)\n      0x00\n      swap2\n      pop\n      sload\n      swap1\n      0x0100\n      exp\n      swap1\n      div\n      0xffffffffffffffffffffffffffffffffffffffff\n      and\n      dup2\n      jump\t// out\n        /* \"contracts/Lottery.sol\":4048:4456  function closeLottery() external onlyOwner{... */\n    tag_61:\n        /* \"contracts/Lottery.sol\":5092:5099  s_owner */\n      0x03\n      0x00\n      swap1\n      sload\n      swap1\n      0x0100\n      exp\n      swap1\n      div\n      0xffffffffffffffffffffffffffffffffffffffff\n      and\n        /* \"contracts/Lottery.sol\":5078:5099  msg.sender == s_owner */\n      0xffffffffffffffffffffffffffffffffffffffff\n      and\n        /* \"contracts/Lottery.sol\":5078:5088  msg.sender */\n      caller\n        /* \"contracts/Lottery.sol\":5078:5099  msg.sender == s_owner */\n      0xffffffffffffffffffffffffffffffffffffffff\n      and\n      eq\n        /* \"contracts/Lottery.sol\":5070:5100  require(msg.sender == s_owner) */\n      tag_95\n      jumpi\n      0x00\n      dup1\n      revert\n    tag_95:\n        /* \"contracts/Lottery.sol\":4122:4123  0 */\n      0x00\n        /* \"contracts/Lottery.sol\":4108:4119  luckyNumber */\n      sload(0x0a)\n        /* \"contracts/Lottery.sol\":4108:4123  luckyNumber > 0 */\n      gt\n        /* \"contracts/Lottery.sol\":4100:4152  require(luckyNumber > 0, \"get random number failed\") */\n      tag_97\n      jumpi\n      mload(0x40)\n      0x08c379a000000000000000000000000000000000000000000000000000000000\n      dup2\n      mstore\n      0x04\n      add\n      tag_98\n      swap1\n      tag_99\n      jump\t// in\n    tag_98:\n      mload(0x40)\n      dup1\n      swap2\n      sub\n      swap1\n      revert\n    tag_97:\n        /* \"contracts/Lottery.sol\":4162:4179  uint256 lenWinner */\n      0x00\n        /* \"contracts/Lottery.sol\":4182:4193  groupTicket */\n      0x06\n        /* \"contracts/Lottery.sol\":4182:4206  groupTicket[luckyNumber] */\n      0x00\n        /* \"contracts/Lottery.sol\":4194:4205  luckyNumber */\n      sload(0x0a)\n        /* \"contracts/Lottery.sol\":4182:4206  groupTicket[luckyNumber] */\n      dup2\n      mstore\n      0x20\n      add\n      swap1\n      dup2\n      mstore\n      0x20\n      add\n      0x00\n      keccak256\n        /* \"contracts/Lottery.sol\":4182:4218  groupTicket[luckyNumber].groupPlayer */\n      0x00\n      add\n        /* \"contracts/Lottery.sol\":4182:4225  groupTicket[luckyNumber].groupPlayer.length */\n      dup1\n      sload\n      swap1\n      pop\n        /* \"contracts/Lottery.sol\":4162:4225  uint256 lenWinner = groupTicket[luckyNumber].groupPlayer.length */\n      swap1\n      pop\n        /* \"contracts/Lottery.sol\":4235:4256  _requestRandomWords() */\n      tag_100\n        /* \"contracts/Lottery.sol\":4235:4254  _requestRandomWords */\n      tag_101\n        /* \"contracts/Lottery.sol\":4235:4256  _requestRandomWords() */\n      jump\t// in\n    tag_100:\n        /* \"contracts/Lottery.sol\":4266:4285  uint256 winnerPrize */\n      0x00\n        /* \"contracts/Lottery.sol\":4300:4309  lenWinner */\n      dup2\n        /* \"contracts/Lottery.sol\":4288:4297  prizePool */\n      sload(0x09)\n        /* \"contracts/Lottery.sol\":4288:4309  prizePool / lenWinner */\n      tag_102\n      swap2\n      swap1\n      tag_103\n      jump\t// in\n    tag_102:\n        /* \"contracts/Lottery.sol\":4266:4309  uint256 winnerPrize = prizePool / lenWinner */\n      swap1\n      pop\n        /* \"contracts/Lottery.sol\":4323:4332  uint256 i */\n      0x00\n        /* \"contracts/Lottery.sol\":4319:4450  for(uint256 i = 0; i < lenWinner; i++){... */\n    tag_104:\n        /* \"contracts/Lottery.sol\":4342:4351  lenWinner */\n      dup3\n        /* \"contracts/Lottery.sol\":4338:4339  i */\n      dup2\n        /* \"contracts/Lottery.sol\":4338:4351  i < lenWinner */\n      lt\n        /* \"contracts/Lottery.sol\":4319:4450  for(uint256 i = 0; i < lenWinner; i++){... */\n      iszero\n      tag_105\n      jumpi\n        /* \"contracts/Lottery.sol\":4371:4439  _transferPrize(winnerPrize, groupTicket[luckyNumber].groupPlayer[i]) */\n      tag_107\n        /* \"contracts/Lottery.sol\":4386:4397  winnerPrize */\n      dup3\n        /* \"contracts/Lottery.sol\":4399:4410  groupTicket */\n      0x06\n        /* \"contracts/Lottery.sol\":4399:4423  groupTicket[luckyNumber] */\n      0x00\n        /* \"contracts/Lottery.sol\":4411:4422  luckyNumber */\n      sload(0x0a)\n        /* \"contracts/Lottery.sol\":4399:4423  groupTicket[luckyNumber] */\n      dup2\n      mstore\n      0x20\n      add\n      swap1\n      dup2\n      mstore\n      0x20\n      add\n      0x00\n      keccak256\n        /* \"contracts/Lottery.sol\":4399:4435  groupTicket[luckyNumber].groupPlayer */\n      0x00\n      add\n        /* \"contracts/Lottery.sol\":4436:4437  i */\n      dup4\n        /* \"contracts/Lottery.sol\":4399:4438  groupTicket[luckyNumber].groupPlayer[i] */\n      dup2\n      sload\n      dup2\n      lt\n      tag_108\n      jumpi\n      tag_109\n      tag_82\n      jump\t// in\n    tag_109:\n    tag_108:\n      swap1\n      0x00\n      mstore\n      keccak256(0x00, 0x20)\n      add\n      0x00\n      swap1\n      sload\n      swap1\n      0x0100\n      exp\n      swap1\n      div\n      0xffffffffffffffffffffffffffffffffffffffff\n      and\n        /* \"contracts/Lottery.sol\":4371:4385  _transferPrize */\n      tag_111\n        /* \"contracts/Lottery.sol\":4371:4439  _transferPrize(winnerPrize, groupTicket[luckyNumber].groupPlayer[i]) */\n      jump\t// in\n    tag_107:\n        /* \"contracts/Lottery.sol\":4353:4356  i++ */\n      dup1\n      dup1\n      tag_112\n      swap1\n      tag_113\n      jump\t// in\n    tag_112:\n      swap2\n      pop\n      pop\n        /* \"contracts/Lottery.sol\":4319:4450  for(uint256 i = 0; i < lenWinner; i++){... */\n      jump(tag_104)\n    tag_105:\n      pop\n        /* \"contracts/Lottery.sol\":4090:4456  {... */\n      pop\n      pop\n        /* \"contracts/Lottery.sol\":4048:4456  function closeLottery() external onlyOwner{... */\n      jump\t// out\n        /* \"contracts/Lottery.sol\":2493:3042  function enter(uint _numTicket) public payable {... */\n    tag_64:\n        /* \"contracts/Lottery.sol\":2570:2575  2 wei */\n      0x02\n        /* \"contracts/Lottery.sol\":2558:2567  msg.value */\n      callvalue\n        /* \"contracts/Lottery.sol\":2558:2575  msg.value > 2 wei */\n      gt\n        /* \"contracts/Lottery.sol\":2550:2596  require(msg.value > 2 wei, \"Not enough token\") */\n      tag_115\n      jumpi\n      mload(0x40)\n      0x08c379a000000000000000000000000000000000000000000000000000000000\n      dup2\n      mstore\n      0x04\n      add\n      tag_116\n      swap1\n      tag_117\n      jump\t// in\n    tag_116:\n      mload(0x40)\n      dup1\n      swap2\n      sub\n      swap1\n      revert\n    tag_115:\n        /* \"contracts/Lottery.sol\":2619:2628  msg.value */\n      callvalue\n        /* \"contracts/Lottery.sol\":2606:2615  prizePool */\n      0x09\n      0x00\n        /* \"contracts/Lottery.sol\":2606:2628  prizePool += msg.value */\n      dup3\n      dup3\n      sload\n      tag_118\n      swap2\n      swap1\n      tag_119\n      jump\t// in\n    tag_118:\n      swap3\n      pop\n      pop\n      dup2\n      swap1\n      sstore\n      pop\n        /* \"contracts/Lottery.sol\":2660:2661  1 */\n      0x01\n        /* \"contracts/Lottery.sol\":2646:2656  _numTicket */\n      dup2\n        /* \"contracts/Lottery.sol\":2646:2661  _numTicket >= 1 */\n      lt\n      iszero\n        /* \"contracts/Lottery.sol\":2646:2681  _numTicket >= 1 && _numTicket <= 10 */\n      dup1\n      iszero\n      tag_120\n      jumpi\n      pop\n        /* \"contracts/Lottery.sol\":2679:2681  10 */\n      0x0a\n        /* \"contracts/Lottery.sol\":2665:2675  _numTicket */\n      dup2\n        /* \"contracts/Lottery.sol\":2665:2681  _numTicket <= 10 */\n      gt\n      iszero\n        /* \"contracts/Lottery.sol\":2646:2681  _numTicket >= 1 && _numTicket <= 10 */\n    tag_120:\n        /* \"contracts/Lottery.sol\":2638:2712  require(_numTicket >= 1 && _numTicket <= 10, \"Number ticket out of range\") */\n      tag_121\n      jumpi\n      mload(0x40)\n      0x08c379a000000000000000000000000000000000000000000000000000000000\n      dup2\n      mstore\n      0x04\n      add\n      tag_122\n      swap1\n      tag_123\n      jump\t// in\n    tag_122:\n      mload(0x40)\n      dup1\n      swap2\n      sub\n      swap1\n      revert\n    tag_121:\n        /* \"contracts/Lottery.sol\":2722:2752  Participants storage newPlayer */\n      0x00\n        /* \"contracts/Lottery.sol\":2755:2765  allLottery */\n      0x07\n        /* \"contracts/Lottery.sol\":2755:2778  allLottery[playerCount] */\n      0x00\n        /* \"contracts/Lottery.sol\":2766:2777  playerCount */\n      sload(0x08)\n        /* \"contracts/Lottery.sol\":2755:2778  allLottery[playerCount] */\n      dup2\n      mstore\n      0x20\n      add\n      swap1\n      dup2\n      mstore\n      0x20\n      add\n      0x00\n      keccak256\n        /* \"contracts/Lottery.sol\":2722:2778  Participants storage newPlayer = allLottery[playerCount] */\n      swap1\n      pop\n        /* \"contracts/Lottery.sol\":2815:2825  msg.sender */\n      caller\n        /* \"contracts/Lottery.sol\":2788:2797  newPlayer */\n      dup2\n        /* \"contracts/Lottery.sol\":2788:2804  newPlayer.player */\n      0x00\n      add\n      0x00\n        /* \"contracts/Lottery.sol\":2788:2826  newPlayer.player = payable(msg.sender) */\n      0x0100\n      exp\n      dup2\n      sload\n      dup2\n      0xffffffffffffffffffffffffffffffffffffffff\n      mul\n      not\n      and\n      swap1\n      dup4\n      0xffffffffffffffffffffffffffffffffffffffff\n      and\n      mul\n      or\n      swap1\n      sstore\n      pop\n        /* \"contracts/Lottery.sol\":2858:2868  _numTicket */\n      dup2\n        /* \"contracts/Lottery.sol\":2836:2845  newPlayer */\n      dup2\n        /* \"contracts/Lottery.sol\":2836:2855  newPlayer.numTicket */\n      0x01\n      add\n        /* \"contracts/Lottery.sol\":2836:2868  newPlayer.numTicket = _numTicket */\n      dup2\n      swap1\n      sstore\n      pop\n        /* \"contracts/Lottery.sol\":2878:2912  ListNumberTicket storage addTicket */\n      0x00\n        /* \"contracts/Lottery.sol\":2915:2926  groupTicket */\n      0x06\n        /* \"contracts/Lottery.sol\":2915:2947  groupTicket[newPlayer.numTicket] */\n      0x00\n        /* \"contracts/Lottery.sol\":2927:2936  newPlayer */\n      dup4\n        /* \"contracts/Lottery.sol\":2927:2946  newPlayer.numTicket */\n      0x01\n      add\n      sload\n        /* \"contracts/Lottery.sol\":2915:2947  groupTicket[newPlayer.numTicket] */\n      dup2\n      mstore\n      0x20\n      add\n      swap1\n      dup2\n      mstore\n      0x20\n      add\n      0x00\n      keccak256\n        /* \"contracts/Lottery.sol\":2878:2947  ListNumberTicket storage addTicket = groupTicket[newPlayer.numTicket] */\n      swap1\n      pop\n        /* \"contracts/Lottery.sol\":2957:2966  addTicket */\n      dup1\n        /* \"contracts/Lottery.sol\":2957:2978  addTicket.groupPlayer */\n      0x00\n      add\n        /* \"contracts/Lottery.sol\":2992:3002  msg.sender */\n      caller\n        /* \"contracts/Lottery.sol\":2957:3004  addTicket.groupPlayer.push(payable(msg.sender)) */\n      swap1\n      dup1\n      0x01\n      dup2\n      sload\n      add\n      dup1\n      dup3\n      sstore\n      dup1\n      swap2\n      pop\n      pop\n      0x01\n      swap1\n      sub\n      swap1\n      0x00\n      mstore\n      keccak256(0x00, 0x20)\n      add\n      0x00\n      swap1\n      swap2\n      swap1\n      swap2\n      swap1\n      swap2\n      0x0100\n      exp\n      dup2\n      sload\n      dup2\n      0xffffffffffffffffffffffffffffffffffffffff\n      mul\n      not\n      and\n      swap1\n      dup4\n      0xffffffffffffffffffffffffffffffffffffffff\n      and\n      mul\n      or\n      swap1\n      sstore\n      pop\n        /* \"contracts/Lottery.sol\":3014:3035  increasePlayerCount() */\n      tag_125\n        /* \"contracts/Lottery.sol\":3014:3033  increasePlayerCount */\n      tag_126\n        /* \"contracts/Lottery.sol\":3014:3035  increasePlayerCount() */\n      jump\t// in\n    tag_125:\n        /* \"contracts/Lottery.sol\":2540:3042  {... */\n      pop\n      pop\n        /* \"contracts/Lottery.sol\":2493:3042  function enter(uint _numTicket) public payable {... */\n      pop\n      jump\t// out\n        /* \"contracts/Lottery.sol\":1379:1400  uint public lotteryId */\n    tag_67:\n      sload(0x04)\n      dup2\n      jump\t// out\n        /* \"contracts/Lottery.sol\":1308:1334  uint256 public s_requestId */\n    tag_71:\n      sload(0x02)\n      dup2\n      jump\t// out\n        /* \"contracts/Lottery.sol\":1272:1302  uint256[] public s_randomWords */\n    tag_76:\n      0x01\n      dup2\n      dup2\n      sload\n      dup2\n      lt\n      tag_127\n      jumpi\n      0x00\n      dup1\n      revert\n    tag_127:\n      swap1\n      0x00\n      mstore\n      keccak256(0x00, 0x20)\n      add\n      0x00\n      swap2\n      pop\n      swap1\n      pop\n      sload\n      dup2\n      jump\t// out\n        /* \"contracts/Lottery.sol\":3670:3837  function fulfillRandomWords(... */\n    tag_89:\n        /* \"contracts/Lottery.sol\":3819:3830  randomWords */\n      dup1\n        /* \"contracts/Lottery.sol\":3803:3816  s_randomWords */\n      0x01\n        /* \"contracts/Lottery.sol\":3803:3830  s_randomWords = randomWords */\n      swap1\n      dup1\n      mload\n      swap1\n      0x20\n      add\n      swap1\n      tag_130\n      swap3\n      swap2\n      swap1\n      tag_131\n      jump\t// in\n    tag_130:\n      pop\n        /* \"contracts/Lottery.sol\":3670:3837  function fulfillRandomWords(... */\n      pop\n      pop\n      jump\t// out\n        /* \"contracts/Lottery.sol\":3284:3664  function _requestRandomWords() private onlyOwner {... */\n    tag_101:\n        /* \"contracts/Lottery.sol\":5092:5099  s_owner */\n      0x03\n      0x00\n      swap1\n      sload\n      swap1\n      0x0100\n      exp\n      swap1\n      div\n      0xffffffffffffffffffffffffffffffffffffffff\n      and\n        /* \"contracts/Lottery.sol\":5078:5099  msg.sender == s_owner */\n      0xffffffffffffffffffffffffffffffffffffffff\n      and\n        /* \"contracts/Lottery.sol\":5078:5088  msg.sender */\n      caller\n        /* \"contracts/Lottery.sol\":5078:5099  msg.sender == s_owner */\n      0xffffffffffffffffffffffffffffffffffffffff\n      and\n      eq\n        /* \"contracts/Lottery.sol\":5070:5100  require(msg.sender == s_owner) */\n      tag_133\n      jumpi\n      0x00\n      dup1\n      revert\n    tag_133:\n        /* \"contracts/Lottery.sol\":3579:3590  playerCount */\n      sload(0x08)\n        /* \"contracts/Lottery.sol\":594:636  0x6168499c0cFfCaCD319c818142124B7A15E857ab */\n      0x6168499c0cffcacd319c818142124b7a15e857ab\n        /* \"contracts/Lottery.sol\":3419:3449  COORDINATOR.requestRandomWords */\n      0xffffffffffffffffffffffffffffffffffffffff\n      and\n      0x5d3b1d30\n        /* \"contracts/Lottery.sol\":918:984  0xd89b2bf150e3b9e13446986e571fb9cab24b13cea0a43ea20a6049a85cc807cc */\n      0xd89b2bf150e3b9e13446986e571fb9cab24b13cea0a43ea20a6049a85cc807cc\n        /* \"contracts/Lottery.sol\":3459:3466  keyHash */\n      0x00\n      shl\n        /* \"contracts/Lottery.sol\":802:806  7370 */\n      0x1cca\n        /* \"contracts/Lottery.sol\":3502:3522  requestConfirmations */\n      0x00\n      0x04\n      swap1\n      sload\n      swap1\n      0x0100\n      exp\n      swap1\n      div\n      0xffff\n      and\n        /* \"contracts/Lottery.sol\":3532:3548  callbackGasLimit */\n      0x00\n      dup1\n      sload\n      swap1\n      0x0100\n      exp\n      swap1\n      div\n      0xffffffff\n      and\n        /* \"contracts/Lottery.sol\":3558:3566  numWords */\n      0x00\n      0x06\n      swap1\n      sload\n      swap1\n      0x0100\n      exp\n      swap1\n      div\n      0xffffffff\n      and\n        /* \"contracts/Lottery.sol\":3419:3576  COORDINATOR.requestRandomWords(... */\n      mload(0x40)\n      dup7\n      0xffffffff\n      and\n      0xe0\n      shl\n      dup2\n      mstore\n      0x04\n      add\n      tag_135\n      swap6\n      swap5\n      swap4\n      swap3\n      swap2\n      swap1\n      tag_136\n      jump\t// in\n    tag_135:\n      0x20\n      mload(0x40)\n      dup1\n      dup4\n      sub\n      dup2\n      0x00\n      dup8\n      gas\n      call\n      iszero\n      dup1\n      iszero\n      tag_138\n      jumpi\n      returndatasize\n      0x00\n      dup1\n      returndatacopy\n      revert(0x00, returndatasize)\n    tag_138:\n      pop\n      pop\n      pop\n      pop\n      mload(0x40)\n      returndatasize\n      not(0x1f)\n      0x1f\n      dup3\n      add\n      and\n      dup3\n      add\n      dup1\n      0x40\n      mstore\n      pop\n      dup2\n      add\n      swap1\n      tag_139\n      swap2\n      swap1\n      tag_140\n      jump\t// in\n    tag_139:\n        /* \"contracts/Lottery.sol\":3419:3590  COORDINATOR.requestRandomWords(... */\n      tag_141\n      swap2\n      swap1\n      tag_142\n      jump\t// in\n    tag_141:\n        /* \"contracts/Lottery.sol\":3405:3416  s_requestId */\n      0x02\n        /* \"contracts/Lottery.sol\":3405:3590  s_requestId = COORDINATOR.requestRandomWords(... */\n      dup2\n      swap1\n      sstore\n      pop\n        /* \"contracts/Lottery.sol\":3615:3625  allLottery */\n      0x07\n        /* \"contracts/Lottery.sol\":3615:3638  allLottery[s_requestId] */\n      0x00\n        /* \"contracts/Lottery.sol\":3626:3637  s_requestId */\n      sload(0x02)\n        /* \"contracts/Lottery.sol\":3615:3638  allLottery[s_requestId] */\n      dup2\n      mstore\n      0x20\n      add\n      swap1\n      dup2\n      mstore\n      0x20\n      add\n      0x00\n      keccak256\n        /* \"contracts/Lottery.sol\":3615:3648  allLottery[s_requestId].numTicket */\n      0x01\n      add\n      sload\n        /* \"contracts/Lottery.sol\":3601:3612  luckyNumber */\n      0x0a\n        /* \"contracts/Lottery.sol\":3601:3648  luckyNumber = allLottery[s_requestId].numTicket */\n      dup2\n      swap1\n      sstore\n      pop\n        /* \"contracts/Lottery.sol\":3284:3664  function _requestRandomWords() private onlyOwner {... */\n      jump\t// out\n        /* \"contracts/Lottery.sol\":4466:4670  function _transferPrize(uint256 _winnerPrize, address payable winner) private{... */\n    tag_111:\n        /* \"contracts/Lottery.sol\":4566:4578  _winnerPrize */\n      dup2\n        /* \"contracts/Lottery.sol\":4553:4562  prizePool */\n      0x09\n      0x00\n        /* \"contracts/Lottery.sol\":4553:4578  prizePool -= _winnerPrize */\n      dup3\n      dup3\n      sload\n      tag_144\n      swap2\n      swap1\n      tag_145\n      jump\t// in\n    tag_144:\n      swap3\n      pop\n      pop\n      dup2\n      swap1\n      sstore\n      pop\n        /* \"contracts/Lottery.sol\":4588:4594  winner */\n      dup1\n        /* \"contracts/Lottery.sol\":4588:4603  winner.transfer */\n      0xffffffffffffffffffffffffffffffffffffffff\n      and\n        /* \"contracts/Lottery.sol\":4588:4617  winner.transfer(_winnerPrize) */\n      0x08fc\n        /* \"contracts/Lottery.sol\":4604:4616  _winnerPrize */\n      dup4\n        /* \"contracts/Lottery.sol\":4588:4617  winner.transfer(_winnerPrize) */\n      swap1\n      dup2\n      iszero\n      mul\n      swap1\n      mload(0x40)\n      0x00\n      mload(0x40)\n      dup1\n      dup4\n      sub\n      dup2\n      dup6\n      dup9\n      dup9\n      call\n      swap4\n      pop\n      pop\n      pop\n      pop\n      iszero\n      dup1\n      iszero\n      tag_147\n      jumpi\n      returndatasize\n      0x00\n      dup1\n      returndatacopy\n      revert(0x00, returndatasize)\n    tag_147:\n      pop\n        /* \"contracts/Lottery.sol\":4635:4642  s_owner */\n      0x03\n      0x00\n      swap1\n      sload\n      swap1\n      0x0100\n      exp\n      swap1\n      div\n      0xffffffffffffffffffffffffffffffffffffffff\n      and\n        /* \"contracts/Lottery.sol\":4627:4652  payable(s_owner).transfer */\n      0xffffffffffffffffffffffffffffffffffffffff\n      and\n        /* \"contracts/Lottery.sol\":4627:4663  payable(s_owner).transfer(prizePool) */\n      0x08fc\n        /* \"contracts/Lottery.sol\":4653:4662  prizePool */\n      sload(0x09)\n        /* \"contracts/Lottery.sol\":4627:4663  payable(s_owner).transfer(prizePool) */\n      swap1\n      dup2\n      iszero\n      mul\n      swap1\n      mload(0x40)\n      0x00\n      mload(0x40)\n      dup1\n      dup4\n      sub\n      dup2\n      dup6\n      dup9\n      dup9\n      call\n      swap4\n      pop\n      pop\n      pop\n      pop\n      iszero\n      dup1\n      iszero\n      tag_149\n      jumpi\n      returndatasize\n      0x00\n      dup1\n      returndatacopy\n      revert(0x00, returndatasize)\n    tag_149:\n      pop\n        /* \"contracts/Lottery.sol\":4466:4670  function _transferPrize(uint256 _winnerPrize, address payable winner) private{... */\n      pop\n      pop\n      jump\t// out\n        /* \"contracts/Lottery.sol\":3053:3123  function increasePlayerCount() internal {... */\n    tag_126:\n        /* \"contracts/Lottery.sol\":3103:3114  playerCount */\n      0x08\n      0x00\n        /* \"contracts/Lottery.sol\":3103:3116  playerCount++ */\n      dup2\n      sload\n      dup1\n      swap3\n      swap2\n      swap1\n      tag_151\n      swap1\n      tag_113\n      jump\t// in\n    tag_151:\n      swap2\n      swap1\n      pop\n      sstore\n      pop\n        /* \"contracts/Lottery.sol\":3053:3123  function increasePlayerCount() internal {... */\n      jump\t// out\n    tag_131:\n      dup3\n      dup1\n      sload\n      dup3\n      dup3\n      sstore\n      swap1\n      0x00\n      mstore\n      keccak256(0x00, 0x20)\n      swap1\n      dup2\n      add\n      swap3\n      dup3\n      iszero\n      tag_152\n      jumpi\n      swap2\n      0x20\n      mul\n      dup3\n      add\n    tag_153:\n      dup3\n      dup2\n      gt\n      iszero\n      tag_154\n      jumpi\n      dup3\n      mload\n      dup3\n      sstore\n      swap2\n      0x20\n      add\n      swap2\n      swap1\n      0x01\n      add\n      swap1\n      jump(tag_153)\n    tag_154:\n    tag_152:\n      pop\n      swap1\n      pop\n      tag_155\n      swap2\n      swap1\n      tag_156\n      jump\t// in\n    tag_155:\n      pop\n      swap1\n      jump\t// out\n    tag_156:\n    tag_157:\n      dup1\n      dup3\n      gt\n      iszero\n      tag_158\n      jumpi\n      0x00\n      dup2\n      0x00\n      swap1\n      sstore\n      pop\n      0x01\n      add\n      jump(tag_157)\n    tag_158:\n      pop\n      swap1\n      jump\t// out\n        /* \"#utility.yul\":7:84   */\n    tag_159:\n        /* \"#utility.yul\":44:51   */\n      0x00\n        /* \"#utility.yul\":73:78   */\n      dup2\n        /* \"#utility.yul\":62:78   */\n      swap1\n      pop\n        /* \"#utility.yul\":7:84   */\n      swap2\n      swap1\n      pop\n      jump\t// out\n        /* \"#utility.yul\":90:208   */\n    tag_160:\n        /* \"#utility.yul\":177:201   */\n      tag_201\n        /* \"#utility.yul\":195:200   */\n      dup2\n        /* \"#utility.yul\":177:201   */\n      tag_159\n      jump\t// in\n    tag_201:\n        /* \"#utility.yul\":172:175   */\n      dup3\n        /* \"#utility.yul\":165:202   */\n      mstore\n        /* \"#utility.yul\":90:208   */\n      pop\n      pop\n      jump\t// out\n        /* \"#utility.yul\":214:436   */\n    tag_21:\n        /* \"#utility.yul\":307:311   */\n      0x00\n        /* \"#utility.yul\":345:347   */\n      0x20\n        /* \"#utility.yul\":334:343   */\n      dup3\n        /* \"#utility.yul\":330:348   */\n      add\n        /* \"#utility.yul\":322:348   */\n      swap1\n      pop\n        /* \"#utility.yul\":358:429   */\n      tag_203\n        /* \"#utility.yul\":426:427   */\n      0x00\n        /* \"#utility.yul\":415:424   */\n      dup4\n        /* \"#utility.yul\":411:428   */\n      add\n        /* \"#utility.yul\":402:408   */\n      dup5\n        /* \"#utility.yul\":358:429   */\n      tag_160\n      jump\t// in\n    tag_203:\n        /* \"#utility.yul\":214:436   */\n      swap3\n      swap2\n      pop\n      pop\n      jump\t// out\n        /* \"#utility.yul\":442:517   */\n    tag_161:\n        /* \"#utility.yul\":475:481   */\n      0x00\n        /* \"#utility.yul\":508:510   */\n      0x40\n        /* \"#utility.yul\":502:511   */\n      mload\n        /* \"#utility.yul\":492:511   */\n      swap1\n      pop\n        /* \"#utility.yul\":442:517   */\n      swap1\n      jump\t// out\n        /* \"#utility.yul\":523:640   */\n    tag_162:\n        /* \"#utility.yul\":632:633   */\n      0x00\n        /* \"#utility.yul\":629:630   */\n      dup1\n        /* \"#utility.yul\":622:634   */\n      revert\n        /* \"#utility.yul\":646:763   */\n    tag_163:\n        /* \"#utility.yul\":755:756   */\n      0x00\n        /* \"#utility.yul\":752:753   */\n      dup1\n        /* \"#utility.yul\":745:757   */\n      revert\n        /* \"#utility.yul\":769:891   */\n    tag_164:\n        /* \"#utility.yul\":842:866   */\n      tag_208\n        /* \"#utility.yul\":860:865   */\n      dup2\n        /* \"#utility.yul\":842:866   */\n      tag_159\n      jump\t// in\n    tag_208:\n        /* \"#utility.yul\":835:840   */\n      dup2\n        /* \"#utility.yul\":832:867   */\n      eq\n        /* \"#utility.yul\":822:885   */\n      tag_209\n      jumpi\n        /* \"#utility.yul\":881:882   */\n      0x00\n        /* \"#utility.yul\":878:879   */\n      dup1\n        /* \"#utility.yul\":871:883   */\n      revert\n        /* \"#utility.yul\":822:885   */\n    tag_209:\n        /* \"#utility.yul\":769:891   */\n      pop\n      jump\t// out\n        /* \"#utility.yul\":897:1036   */\n    tag_165:\n        /* \"#utility.yul\":943:948   */\n      0x00\n        /* \"#utility.yul\":981:987   */\n      dup2\n        /* \"#utility.yul\":968:988   */\n      calldataload\n        /* \"#utility.yul\":959:988   */\n      swap1\n      pop\n        /* \"#utility.yul\":997:1030   */\n      tag_211\n        /* \"#utility.yul\":1024:1029   */\n      dup2\n        /* \"#utility.yul\":997:1030   */\n      tag_164\n      jump\t// in\n    tag_211:\n        /* \"#utility.yul\":897:1036   */\n      swap3\n      swap2\n      pop\n      pop\n      jump\t// out\n        /* \"#utility.yul\":1042:1371   */\n    tag_25:\n        /* \"#utility.yul\":1101:1107   */\n      0x00\n        /* \"#utility.yul\":1150:1152   */\n      0x20\n        /* \"#utility.yul\":1138:1147   */\n      dup3\n        /* \"#utility.yul\":1129:1136   */\n      dup5\n        /* \"#utility.yul\":1125:1148   */\n      sub\n        /* \"#utility.yul\":1121:1153   */\n      slt\n        /* \"#utility.yul\":1118:1237   */\n      iszero\n      tag_213\n      jumpi\n        /* \"#utility.yul\":1156:1235   */\n      tag_214\n      tag_162\n      jump\t// in\n    tag_214:\n        /* \"#utility.yul\":1118:1237   */\n    tag_213:\n        /* \"#utility.yul\":1276:1277   */\n      0x00\n        /* \"#utility.yul\":1301:1354   */\n      tag_215\n        /* \"#utility.yul\":1346:1353   */\n      dup5\n        /* \"#utility.yul\":1337:1343   */\n      dup3\n        /* \"#utility.yul\":1326:1335   */\n      dup6\n        /* \"#utility.yul\":1322:1344   */\n      add\n        /* \"#utility.yul\":1301:1354   */\n      tag_165\n      jump\t// in\n    tag_215:\n        /* \"#utility.yul\":1291:1354   */\n      swap2\n      pop\n        /* \"#utility.yul\":1247:1364   */\n      pop\n        /* \"#utility.yul\":1042:1371   */\n      swap3\n      swap2\n      pop\n      pop\n      jump\t// out\n        /* \"#utility.yul\":1377:1503   */\n    tag_166:\n        /* \"#utility.yul\":1414:1421   */\n      0x00\n        /* \"#utility.yul\":1454:1496   */\n      0xffffffffffffffffffffffffffffffffffffffff\n        /* \"#utility.yul\":1447:1452   */\n      dup3\n        /* \"#utility.yul\":1443:1497   */\n      and\n        /* \"#utility.yul\":1432:1497   */\n      swap1\n      pop\n        /* \"#utility.yul\":1377:1503   */\n      swap2\n      swap1\n      pop\n      jump\t// out\n        /* \"#utility.yul\":1509:1605   */\n    tag_167:\n        /* \"#utility.yul\":1546:1553   */\n      0x00\n        /* \"#utility.yul\":1575:1599   */\n      tag_218\n        /* \"#utility.yul\":1593:1598   */\n      dup3\n        /* \"#utility.yul\":1575:1599   */\n      tag_166\n      jump\t// in\n    tag_218:\n        /* \"#utility.yul\":1564:1599   */\n      swap1\n      pop\n        /* \"#utility.yul\":1509:1605   */\n      swap2\n      swap1\n      pop\n      jump\t// out\n        /* \"#utility.yul\":1611:1729   */\n    tag_168:\n        /* \"#utility.yul\":1698:1722   */\n      tag_220\n        /* \"#utility.yul\":1716:1721   */\n      dup2\n        /* \"#utility.yul\":1698:1722   */\n      tag_167\n      jump\t// in\n    tag_220:\n        /* \"#utility.yul\":1693:1696   */\n      dup3\n        /* \"#utility.yul\":1686:1723   */\n      mstore\n        /* \"#utility.yul\":1611:1729   */\n      pop\n      pop\n      jump\t// out\n        /* \"#utility.yul\":1735:1957   */\n    tag_28:\n        /* \"#utility.yul\":1828:1832   */\n      0x00\n        /* \"#utility.yul\":1866:1868   */\n      0x20\n        /* \"#utility.yul\":1855:1864   */\n      dup3\n        /* \"#utility.yul\":1851:1869   */\n      add\n        /* \"#utility.yul\":1843:1869   */\n      swap1\n      pop\n        /* \"#utility.yul\":1879:1950   */\n      tag_222\n        /* \"#utility.yul\":1947:1948   */\n      0x00\n        /* \"#utility.yul\":1936:1945   */\n      dup4\n        /* \"#utility.yul\":1932:1949   */\n      add\n        /* \"#utility.yul\":1923:1929   */\n      dup5\n        /* \"#utility.yul\":1879:1950   */\n      tag_168\n      jump\t// in\n    tag_222:\n        /* \"#utility.yul\":1735:1957   */\n      swap3\n      swap2\n      pop\n      pop\n      jump\t// out\n        /* \"#utility.yul\":1963:2080   */\n    tag_169:\n        /* \"#utility.yul\":2072:2073   */\n      0x00\n        /* \"#utility.yul\":2069:2070   */\n      dup1\n        /* \"#utility.yul\":2062:2074   */\n      revert\n        /* \"#utility.yul\":2086:2188   */\n    tag_170:\n        /* \"#utility.yul\":2127:2133   */\n      0x00\n        /* \"#utility.yul\":2178:2180   */\n      0x1f\n        /* \"#utility.yul\":2174:2181   */\n      not\n        /* \"#utility.yul\":2169:2171   */\n      0x1f\n        /* \"#utility.yul\":2162:2167   */\n      dup4\n        /* \"#utility.yul\":2158:2172   */\n      add\n        /* \"#utility.yul\":2154:2182   */\n      and\n        /* \"#utility.yul\":2144:2182   */\n      swap1\n      pop\n        /* \"#utility.yul\":2086:2188   */\n      swap2\n      swap1\n      pop\n      jump\t// out\n        /* \"#utility.yul\":2194:2374   */\n    tag_171:\n        /* \"#utility.yul\":2242:2319   */\n      0x4e487b7100000000000000000000000000000000000000000000000000000000\n        /* \"#utility.yul\":2239:2240   */\n      0x00\n        /* \"#utility.yul\":2232:2320   */\n      mstore\n        /* \"#utility.yul\":2339:2343   */\n      0x41\n        /* \"#utility.yul\":2336:2337   */\n      0x04\n        /* \"#utility.yul\":2329:2344   */\n      mstore\n        /* \"#utility.yul\":2363:2367   */\n      0x24\n        /* \"#utility.yul\":2360:2361   */\n      0x00\n        /* \"#utility.yul\":2353:2368   */\n      revert\n        /* \"#utility.yul\":2380:2661   */\n    tag_172:\n        /* \"#utility.yul\":2463:2490   */\n      tag_227\n        /* \"#utility.yul\":2485:2489   */\n      dup3\n        /* \"#utility.yul\":2463:2490   */\n      tag_170\n      jump\t// in\n    tag_227:\n        /* \"#utility.yul\":2455:2461   */\n      dup2\n        /* \"#utility.yul\":2451:2491   */\n      add\n        /* \"#utility.yul\":2593:2599   */\n      dup2\n        /* \"#utility.yul\":2581:2591   */\n      dup2\n        /* \"#utility.yul\":2578:2600   */\n      lt\n        /* \"#utility.yul\":2557:2575   */\n      0xffffffffffffffff\n        /* \"#utility.yul\":2545:2555   */\n      dup3\n        /* \"#utility.yul\":2542:2576   */\n      gt\n        /* \"#utility.yul\":2539:2601   */\n      or\n        /* \"#utility.yul\":2536:2624   */\n      iszero\n      tag_228\n      jumpi\n        /* \"#utility.yul\":2604:2622   */\n      tag_229\n      tag_171\n      jump\t// in\n    tag_229:\n        /* \"#utility.yul\":2536:2624   */\n    tag_228:\n        /* \"#utility.yul\":2644:2654   */\n      dup1\n        /* \"#utility.yul\":2640:2642   */\n      0x40\n        /* \"#utility.yul\":2633:2655   */\n      mstore\n        /* \"#utility.yul\":2423:2661   */\n      pop\n        /* \"#utility.yul\":2380:2661   */\n      pop\n      pop\n      jump\t// out\n        /* \"#utility.yul\":2667:2796   */\n    tag_173:\n        /* \"#utility.yul\":2701:2707   */\n      0x00\n        /* \"#utility.yul\":2728:2748   */\n      tag_231\n      tag_161\n      jump\t// in\n    tag_231:\n        /* \"#utility.yul\":2718:2748   */\n      swap1\n      pop\n        /* \"#utility.yul\":2757:2790   */\n      tag_232\n        /* \"#utility.yul\":2785:2789   */\n      dup3\n        /* \"#utility.yul\":2777:2783   */\n      dup3\n        /* \"#utility.yul\":2757:2790   */\n      tag_172\n      jump\t// in\n    tag_232:\n        /* \"#utility.yul\":2667:2796   */\n      swap2\n      swap1\n      pop\n      jump\t// out\n        /* \"#utility.yul\":2802:3113   */\n    tag_174:\n        /* \"#utility.yul\":2879:2883   */\n      0x00\n        /* \"#utility.yul\":2969:2987   */\n      0xffffffffffffffff\n        /* \"#utility.yul\":2961:2967   */\n      dup3\n        /* \"#utility.yul\":2958:2988   */\n      gt\n        /* \"#utility.yul\":2955:3011   */\n      iszero\n      tag_234\n      jumpi\n        /* \"#utility.yul\":2991:3009   */\n      tag_235\n      tag_171\n      jump\t// in\n    tag_235:\n        /* \"#utility.yul\":2955:3011   */\n    tag_234:\n        /* \"#utility.yul\":3041:3045   */\n      0x20\n        /* \"#utility.yul\":3033:3039   */\n      dup3\n        /* \"#utility.yul\":3029:3046   */\n      mul\n        /* \"#utility.yul\":3021:3046   */\n      swap1\n      pop\n        /* \"#utility.yul\":3101:3105   */\n      0x20\n        /* \"#utility.yul\":3095:3099   */\n      dup2\n        /* \"#utility.yul\":3091:3106   */\n      add\n        /* \"#utility.yul\":3083:3106   */\n      swap1\n      pop\n        /* \"#utility.yul\":2802:3113   */\n      swap2\n      swap1\n      pop\n      jump\t// out\n        /* \"#utility.yul\":3119:3236   */\n    tag_175:\n        /* \"#utility.yul\":3228:3229   */\n      0x00\n        /* \"#utility.yul\":3225:3226   */\n      dup1\n        /* \"#utility.yul\":3218:3230   */\n      revert\n        /* \"#utility.yul\":3259:3969   */\n    tag_176:\n        /* \"#utility.yul\":3355:3360   */\n      0x00\n        /* \"#utility.yul\":3380:3461   */\n      tag_238\n        /* \"#utility.yul\":3396:3460   */\n      tag_239\n        /* \"#utility.yul\":3453:3459   */\n      dup5\n        /* \"#utility.yul\":3396:3460   */\n      tag_174\n      jump\t// in\n    tag_239:\n        /* \"#utility.yul\":3380:3461   */\n      tag_173\n      jump\t// in\n    tag_238:\n        /* \"#utility.yul\":3371:3461   */\n      swap1\n      pop\n        /* \"#utility.yul\":3481:3486   */\n      dup1\n        /* \"#utility.yul\":3510:3516   */\n      dup4\n        /* \"#utility.yul\":3503:3508   */\n      dup3\n        /* \"#utility.yul\":3496:3517   */\n      mstore\n        /* \"#utility.yul\":3544:3548   */\n      0x20\n        /* \"#utility.yul\":3537:3542   */\n      dup3\n        /* \"#utility.yul\":3533:3549   */\n      add\n        /* \"#utility.yul\":3526:3549   */\n      swap1\n      pop\n        /* \"#utility.yul\":3597:3601   */\n      0x20\n        /* \"#utility.yul\":3589:3595   */\n      dup5\n        /* \"#utility.yul\":3585:3602   */\n      mul\n        /* \"#utility.yul\":3577:3583   */\n      dup4\n        /* \"#utility.yul\":3573:3603   */\n      add\n        /* \"#utility.yul\":3626:3629   */\n      dup6\n        /* \"#utility.yul\":3618:3624   */\n      dup2\n        /* \"#utility.yul\":3615:3630   */\n      gt\n        /* \"#utility.yul\":3612:3734   */\n      iszero\n      tag_240\n      jumpi\n        /* \"#utility.yul\":3645:3724   */\n      tag_241\n      tag_175\n      jump\t// in\n    tag_241:\n        /* \"#utility.yul\":3612:3734   */\n    tag_240:\n        /* \"#utility.yul\":3760:3766   */\n      dup4\n        /* \"#utility.yul\":3743:3963   */\n    tag_242:\n        /* \"#utility.yul\":3777:3783   */\n      dup2\n        /* \"#utility.yul\":3772:3775   */\n      dup2\n        /* \"#utility.yul\":3769:3784   */\n      lt\n        /* \"#utility.yul\":3743:3963   */\n      iszero\n      tag_244\n      jumpi\n        /* \"#utility.yul\":3852:3855   */\n      dup1\n        /* \"#utility.yul\":3881:3918   */\n      tag_245\n        /* \"#utility.yul\":3914:3917   */\n      dup9\n        /* \"#utility.yul\":3902:3912   */\n      dup3\n        /* \"#utility.yul\":3881:3918   */\n      tag_165\n      jump\t// in\n    tag_245:\n        /* \"#utility.yul\":3876:3879   */\n      dup5\n        /* \"#utility.yul\":3869:3919   */\n      mstore\n        /* \"#utility.yul\":3948:3952   */\n      0x20\n        /* \"#utility.yul\":3943:3946   */\n      dup5\n        /* \"#utility.yul\":3939:3953   */\n      add\n        /* \"#utility.yul\":3932:3953   */\n      swap4\n      pop\n        /* \"#utility.yul\":3819:3963   */\n      pop\n        /* \"#utility.yul\":3803:3807   */\n      0x20\n        /* \"#utility.yul\":3798:3801   */\n      dup2\n        /* \"#utility.yul\":3794:3808   */\n      add\n        /* \"#utility.yul\":3787:3808   */\n      swap1\n      pop\n        /* \"#utility.yul\":3743:3963   */\n      jump(tag_242)\n    tag_244:\n        /* \"#utility.yul\":3747:3768   */\n      pop\n        /* \"#utility.yul\":3361:3969   */\n      pop\n      pop\n        /* \"#utility.yul\":3259:3969   */\n      swap4\n      swap3\n      pop\n      pop\n      pop\n      jump\t// out\n        /* \"#utility.yul\":3992:4362   */\n    tag_177:\n        /* \"#utility.yul\":4063:4068   */\n      0x00\n        /* \"#utility.yul\":4112:4115   */\n      dup3\n        /* \"#utility.yul\":4105:4109   */\n      0x1f\n        /* \"#utility.yul\":4097:4103   */\n      dup4\n        /* \"#utility.yul\":4093:4110   */\n      add\n        /* \"#utility.yul\":4089:4116   */\n      slt\n        /* \"#utility.yul\":4079:4201   */\n      tag_247\n      jumpi\n        /* \"#utility.yul\":4120:4199   */\n      tag_248\n      tag_169\n      jump\t// in\n    tag_248:\n        /* \"#utility.yul\":4079:4201   */\n    tag_247:\n        /* \"#utility.yul\":4237:4243   */\n      dup2\n        /* \"#utility.yul\":4224:4244   */\n      calldataload\n        /* \"#utility.yul\":4262:4356   */\n      tag_249\n        /* \"#utility.yul\":4352:4355   */\n      dup5\n        /* \"#utility.yul\":4344:4350   */\n      dup3\n        /* \"#utility.yul\":4337:4341   */\n      0x20\n        /* \"#utility.yul\":4329:4335   */\n      dup7\n        /* \"#utility.yul\":4325:4342   */\n      add\n        /* \"#utility.yul\":4262:4356   */\n      tag_176\n      jump\t// in\n    tag_249:\n        /* \"#utility.yul\":4253:4356   */\n      swap2\n      pop\n        /* \"#utility.yul\":4069:4362   */\n      pop\n        /* \"#utility.yul\":3992:4362   */\n      swap3\n      swap2\n      pop\n      pop\n      jump\t// out\n        /* \"#utility.yul\":4368:5052   */\n    tag_32:\n        /* \"#utility.yul\":4461:4467   */\n      0x00\n        /* \"#utility.yul\":4469:4475   */\n      dup1\n        /* \"#utility.yul\":4518:4520   */\n      0x40\n        /* \"#utility.yul\":4506:4515   */\n      dup4\n        /* \"#utility.yul\":4497:4504   */\n      dup6\n        /* \"#utility.yul\":4493:4516   */\n      sub\n        /* \"#utility.yul\":4489:4521   */\n      slt\n        /* \"#utility.yul\":4486:4605   */\n      iszero\n      tag_251\n      jumpi\n        /* \"#utility.yul\":4524:4603   */\n      tag_252\n      tag_162\n      jump\t// in\n    tag_252:\n        /* \"#utility.yul\":4486:4605   */\n    tag_251:\n        /* \"#utility.yul\":4644:4645   */\n      0x00\n        /* \"#utility.yul\":4669:4722   */\n      tag_253\n        /* \"#utility.yul\":4714:4721   */\n      dup6\n        /* \"#utility.yul\":4705:4711   */\n      dup3\n        /* \"#utility.yul\":4694:4703   */\n      dup7\n        /* \"#utility.yul\":4690:4712   */\n      add\n        /* \"#utility.yul\":4669:4722   */\n      tag_165\n      jump\t// in\n    tag_253:\n        /* \"#utility.yul\":4659:4722   */\n      swap3\n      pop\n        /* \"#utility.yul\":4615:4732   */\n      pop\n        /* \"#utility.yul\":4799:4801   */\n      0x20\n        /* \"#utility.yul\":4788:4797   */\n      dup4\n        /* \"#utility.yul\":4784:4802   */\n      add\n        /* \"#utility.yul\":4771:4803   */\n      calldataload\n        /* \"#utility.yul\":4830:4848   */\n      0xffffffffffffffff\n        /* \"#utility.yul\":4822:4828   */\n      dup2\n        /* \"#utility.yul\":4819:4849   */\n      gt\n        /* \"#utility.yul\":4816:4933   */\n      iszero\n      tag_254\n      jumpi\n        /* \"#utility.yul\":4852:4931   */\n      tag_255\n      tag_163\n      jump\t// in\n    tag_255:\n        /* \"#utility.yul\":4816:4933   */\n    tag_254:\n        /* \"#utility.yul\":4957:5035   */\n      tag_256\n        /* \"#utility.yul\":5027:5034   */\n      dup6\n        /* \"#utility.yul\":5018:5024   */\n      dup3\n        /* \"#utility.yul\":5007:5016   */\n      dup7\n        /* \"#utility.yul\":5003:5025   */\n      add\n        /* \"#utility.yul\":4957:5035   */\n      tag_177\n      jump\t// in\n    tag_256:\n        /* \"#utility.yul\":4947:5035   */\n      swap2\n      pop\n        /* \"#utility.yul\":4742:5045   */\n      pop\n        /* \"#utility.yul\":4368:5052   */\n      swap3\n      pop\n      swap3\n      swap1\n      pop\n      jump\t// out\n        /* \"#utility.yul\":5058:5162   */\n    tag_178:\n        /* \"#utility.yul\":5103:5110   */\n      0x00\n        /* \"#utility.yul\":5132:5156   */\n      tag_258\n        /* \"#utility.yul\":5150:5155   */\n      dup3\n        /* \"#utility.yul\":5132:5156   */\n      tag_166\n      jump\t// in\n    tag_258:\n        /* \"#utility.yul\":5121:5156   */\n      swap1\n      pop\n        /* \"#utility.yul\":5058:5162   */\n      swap2\n      swap1\n      pop\n      jump\t// out\n        /* \"#utility.yul\":5168:5310   */\n    tag_179:\n        /* \"#utility.yul\":5271:5303   */\n      tag_260\n        /* \"#utility.yul\":5297:5302   */\n      dup2\n        /* \"#utility.yul\":5271:5303   */\n      tag_178\n      jump\t// in\n    tag_260:\n        /* \"#utility.yul\":5266:5269   */\n      dup3\n        /* \"#utility.yul\":5259:5304   */\n      mstore\n        /* \"#utility.yul\":5168:5310   */\n      pop\n      pop\n      jump\t// out\n        /* \"#utility.yul\":5316:5570   */\n    tag_39:\n        /* \"#utility.yul\":5425:5429   */\n      0x00\n        /* \"#utility.yul\":5463:5465   */\n      0x20\n        /* \"#utility.yul\":5452:5461   */\n      dup3\n        /* \"#utility.yul\":5448:5466   */\n      add\n        /* \"#utility.yul\":5440:5466   */\n      swap1\n      pop\n        /* \"#utility.yul\":5476:5563   */\n      tag_262\n        /* \"#utility.yul\":5560:5561   */\n      0x00\n        /* \"#utility.yul\":5549:5558   */\n      dup4\n        /* \"#utility.yul\":5545:5562   */\n      add\n        /* \"#utility.yul\":5536:5542   */\n      dup5\n        /* \"#utility.yul\":5476:5563   */\n      tag_179\n      jump\t// in\n    tag_262:\n        /* \"#utility.yul\":5316:5570   */\n      swap3\n      swap2\n      pop\n      pop\n      jump\t// out\n        /* \"#utility.yul\":5576:5940   */\n    tag_49:\n        /* \"#utility.yul\":5713:5717   */\n      0x00\n        /* \"#utility.yul\":5751:5753   */\n      0x40\n        /* \"#utility.yul\":5740:5749   */\n      dup3\n        /* \"#utility.yul\":5736:5754   */\n      add\n        /* \"#utility.yul\":5728:5754   */\n      swap1\n      pop\n        /* \"#utility.yul\":5764:5851   */\n      tag_264\n        /* \"#utility.yul\":5848:5849   */\n      0x00\n        /* \"#utility.yul\":5837:5846   */\n      dup4\n        /* \"#utility.yul\":5833:5850   */\n      add\n        /* \"#utility.yul\":5824:5830   */\n      dup6\n        /* \"#utility.yul\":5764:5851   */\n      tag_179\n      jump\t// in\n    tag_264:\n        /* \"#utility.yul\":5861:5933   */\n      tag_265\n        /* \"#utility.yul\":5929:5931   */\n      0x20\n        /* \"#utility.yul\":5918:5927   */\n      dup4\n        /* \"#utility.yul\":5914:5932   */\n      add\n        /* \"#utility.yul\":5905:5911   */\n      dup5\n        /* \"#utility.yul\":5861:5933   */\n      tag_160\n      jump\t// in\n    tag_265:\n        /* \"#utility.yul\":5576:5940   */\n      swap4\n      swap3\n      pop\n      pop\n      pop\n      jump\t// out\n        /* \"#utility.yul\":5946:6126   */\n    tag_82:\n        /* \"#utility.yul\":5994:6071   */\n      0x4e487b7100000000000000000000000000000000000000000000000000000000\n        /* \"#utility.yul\":5991:5992   */\n      0x00\n        /* \"#utility.yul\":5984:6072   */\n      mstore\n        /* \"#utility.yul\":6091:6095   */\n      0x32\n        /* \"#utility.yul\":6088:6089   */\n      0x04\n        /* \"#utility.yul\":6081:6096   */\n      mstore\n        /* \"#utility.yul\":6115:6119   */\n      0x24\n        /* \"#utility.yul\":6112:6113   */\n      0x00\n        /* \"#utility.yul\":6105:6120   */\n      revert\n        /* \"#utility.yul\":6132:6464   */\n    tag_87:\n        /* \"#utility.yul\":6253:6257   */\n      0x00\n        /* \"#utility.yul\":6291:6293   */\n      0x40\n        /* \"#utility.yul\":6280:6289   */\n      dup3\n        /* \"#utility.yul\":6276:6294   */\n      add\n        /* \"#utility.yul\":6268:6294   */\n      swap1\n      pop\n        /* \"#utility.yul\":6304:6375   */\n      tag_268\n        /* \"#utility.yul\":6372:6373   */\n      0x00\n        /* \"#utility.yul\":6361:6370   */\n      dup4\n        /* \"#utility.yul\":6357:6374   */\n      add\n        /* \"#utility.yul\":6348:6354   */\n      dup6\n        /* \"#utility.yul\":6304:6375   */\n      tag_168\n      jump\t// in\n    tag_268:\n        /* \"#utility.yul\":6385:6457   */\n      tag_269\n        /* \"#utility.yul\":6453:6455   */\n      0x20\n        /* \"#utility.yul\":6442:6451   */\n      dup4\n        /* \"#utility.yul\":6438:6456   */\n      add\n        /* \"#utility.yul\":6429:6435   */\n      dup5\n        /* \"#utility.yul\":6385:6457   */\n      tag_168\n      jump\t// in\n    tag_269:\n        /* \"#utility.yul\":6132:6464   */\n      swap4\n      swap3\n      pop\n      pop\n      pop\n      jump\t// out\n        /* \"#utility.yul\":6470:6639   */\n    tag_180:\n        /* \"#utility.yul\":6554:6565   */\n      0x00\n        /* \"#utility.yul\":6588:6594   */\n      dup3\n        /* \"#utility.yul\":6583:6586   */\n      dup3\n        /* \"#utility.yul\":6576:6595   */\n      mstore\n        /* \"#utility.yul\":6628:6632   */\n      0x20\n        /* \"#utility.yul\":6623:6626   */\n      dup3\n        /* \"#utility.yul\":6619:6633   */\n      add\n        /* \"#utility.yul\":6604:6633   */\n      swap1\n      pop\n        /* \"#utility.yul\":6470:6639   */\n      swap3\n      swap2\n      pop\n      pop\n      jump\t// out\n        /* \"#utility.yul\":6645:6819   */\n    tag_181:\n        /* \"#utility.yul\":6785:6811   */\n      0x6765742072616e646f6d206e756d626572206661696c65640000000000000000\n        /* \"#utility.yul\":6781:6782   */\n      0x00\n        /* \"#utility.yul\":6773:6779   */\n      dup3\n        /* \"#utility.yul\":6769:6783   */\n      add\n        /* \"#utility.yul\":6762:6812   */\n      mstore\n        /* \"#utility.yul\":6645:6819   */\n      pop\n      jump\t// out\n        /* \"#utility.yul\":6825:7191   */\n    tag_182:\n        /* \"#utility.yul\":6967:6970   */\n      0x00\n        /* \"#utility.yul\":6988:7055   */\n      tag_273\n        /* \"#utility.yul\":7052:7054   */\n      0x18\n        /* \"#utility.yul\":7047:7050   */\n      dup4\n        /* \"#utility.yul\":6988:7055   */\n      tag_180\n      jump\t// in\n    tag_273:\n        /* \"#utility.yul\":6981:7055   */\n      swap2\n      pop\n        /* \"#utility.yul\":7064:7157   */\n      tag_274\n        /* \"#utility.yul\":7153:7156   */\n      dup3\n        /* \"#utility.yul\":7064:7157   */\n      tag_181\n      jump\t// in\n    tag_274:\n        /* \"#utility.yul\":7182:7184   */\n      0x20\n        /* \"#utility.yul\":7177:7180   */\n      dup3\n        /* \"#utility.yul\":7173:7185   */\n      add\n        /* \"#utility.yul\":7166:7185   */\n      swap1\n      pop\n        /* \"#utility.yul\":6825:7191   */\n      swap2\n      swap1\n      pop\n      jump\t// out\n        /* \"#utility.yul\":7197:7616   */\n    tag_99:\n        /* \"#utility.yul\":7363:7367   */\n      0x00\n        /* \"#utility.yul\":7401:7403   */\n      0x20\n        /* \"#utility.yul\":7390:7399   */\n      dup3\n        /* \"#utility.yul\":7386:7404   */\n      add\n        /* \"#utility.yul\":7378:7404   */\n      swap1\n      pop\n        /* \"#utility.yul\":7450:7459   */\n      dup2\n        /* \"#utility.yul\":7444:7448   */\n      dup2\n        /* \"#utility.yul\":7440:7460   */\n      sub\n        /* \"#utility.yul\":7436:7437   */\n      0x00\n        /* \"#utility.yul\":7425:7434   */\n      dup4\n        /* \"#utility.yul\":7421:7438   */\n      add\n        /* \"#utility.yul\":7414:7461   */\n      mstore\n        /* \"#utility.yul\":7478:7609   */\n      tag_276\n        /* \"#utility.yul\":7604:7608   */\n      dup2\n        /* \"#utility.yul\":7478:7609   */\n      tag_182\n      jump\t// in\n    tag_276:\n        /* \"#utility.yul\":7470:7609   */\n      swap1\n      pop\n        /* \"#utility.yul\":7197:7616   */\n      swap2\n      swap1\n      pop\n      jump\t// out\n        /* \"#utility.yul\":7622:7802   */\n    tag_183:\n        /* \"#utility.yul\":7670:7747   */\n      0x4e487b7100000000000000000000000000000000000000000000000000000000\n        /* \"#utility.yul\":7667:7668   */\n      0x00\n        /* \"#utility.yul\":7660:7748   */\n      mstore\n        /* \"#utility.yul\":7767:7771   */\n      0x12\n        /* \"#utility.yul\":7764:7765   */\n      0x04\n        /* \"#utility.yul\":7757:7772   */\n      mstore\n        /* \"#utility.yul\":7791:7795   */\n      0x24\n        /* \"#utility.yul\":7788:7789   */\n      0x00\n        /* \"#utility.yul\":7781:7796   */\n      revert\n        /* \"#utility.yul\":7808:7988   */\n    tag_184:\n        /* \"#utility.yul\":7856:7933   */\n      0x4e487b7100000000000000000000000000000000000000000000000000000000\n        /* \"#utility.yul\":7853:7854   */\n      0x00\n        /* \"#utility.yul\":7846:7934   */\n      mstore\n        /* \"#utility.yul\":7953:7957   */\n      0x11\n        /* \"#utility.yul\":7950:7951   */\n      0x04\n        /* \"#utility.yul\":7943:7958   */\n      mstore\n        /* \"#utility.yul\":7977:7981   */\n      0x24\n        /* \"#utility.yul\":7974:7975   */\n      0x00\n        /* \"#utility.yul\":7967:7982   */\n      revert\n        /* \"#utility.yul\":7994:8179   */\n    tag_103:\n        /* \"#utility.yul\":8034:8035   */\n      0x00\n        /* \"#utility.yul\":8051:8071   */\n      tag_280\n        /* \"#utility.yul\":8069:8070   */\n      dup3\n        /* \"#utility.yul\":8051:8071   */\n      tag_159\n      jump\t// in\n    tag_280:\n        /* \"#utility.yul\":8046:8071   */\n      swap2\n      pop\n        /* \"#utility.yul\":8085:8105   */\n      tag_281\n        /* \"#utility.yul\":8103:8104   */\n      dup4\n        /* \"#utility.yul\":8085:8105   */\n      tag_159\n      jump\t// in\n    tag_281:\n        /* \"#utility.yul\":8080:8105   */\n      swap3\n      pop\n        /* \"#utility.yul\":8124:8125   */\n      dup3\n        /* \"#utility.yul\":8114:8149   */\n      tag_282\n      jumpi\n        /* \"#utility.yul\":8129:8147   */\n      tag_283\n      tag_183\n      jump\t// in\n    tag_283:\n        /* \"#utility.yul\":8114:8149   */\n    tag_282:\n        /* \"#utility.yul\":8171:8172   */\n      dup3\n        /* \"#utility.yul\":8168:8169   */\n      dup3\n        /* \"#utility.yul\":8164:8173   */\n      div\n        /* \"#utility.yul\":8159:8173   */\n      swap1\n      pop\n        /* \"#utility.yul\":7994:8179   */\n      swap3\n      swap2\n      pop\n      pop\n      jump\t// out\n        /* \"#utility.yul\":8185:8418   */\n    tag_113:\n        /* \"#utility.yul\":8224:8227   */\n      0x00\n        /* \"#utility.yul\":8247:8271   */\n      tag_285\n        /* \"#utility.yul\":8265:8270   */\n      dup3\n        /* \"#utility.yul\":8247:8271   */\n      tag_159\n      jump\t// in\n    tag_285:\n        /* \"#utility.yul\":8238:8271   */\n      swap2\n      pop\n        /* \"#utility.yul\":8293:8359   */\n      0xffffffffffffffffffffffffffffffffffffffffffffffffffffffffffffffff\n        /* \"#utility.yul\":8286:8291   */\n      dup3\n        /* \"#utility.yul\":8283:8360   */\n      sub\n        /* \"#utility.yul\":8280:8383   */\n      tag_286\n      jumpi\n        /* \"#utility.yul\":8363:8381   */\n      tag_287\n      tag_184\n      jump\t// in\n    tag_287:\n        /* \"#utility.yul\":8280:8383   */\n    tag_286:\n        /* \"#utility.yul\":8410:8411   */\n      0x01\n        /* \"#utility.yul\":8403:8408   */\n      dup3\n        /* \"#utility.yul\":8399:8412   */\n      add\n        /* \"#utility.yul\":8392:8412   */\n      swap1\n      pop\n        /* \"#utility.yul\":8185:8418   */\n      swap2\n      swap1\n      pop\n      jump\t// out\n        /* \"#utility.yul\":8424:8590   */\n    tag_185:\n        /* \"#utility.yul\":8564:8582   */\n      0x4e6f7420656e6f75676820746f6b656e00000000000000000000000000000000\n        /* \"#utility.yul\":8560:8561   */\n      0x00\n        /* \"#utility.yul\":8552:8558   */\n      dup3\n        /* \"#utility.yul\":8548:8562   */\n      add\n        /* \"#utility.yul\":8541:8583   */\n      mstore\n        /* \"#utility.yul\":8424:8590   */\n      pop\n      jump\t// out\n        /* \"#utility.yul\":8596:8962   */\n    tag_186:\n        /* \"#utility.yul\":8738:8741   */\n      0x00\n        /* \"#utility.yul\":8759:8826   */\n      tag_290\n        /* \"#utility.yul\":8823:8825   */\n      0x10\n        /* \"#utility.yul\":8818:8821   */\n      dup4\n        /* \"#utility.yul\":8759:8826   */\n      tag_180\n      jump\t// in\n    tag_290:\n        /* \"#utility.yul\":8752:8826   */\n      swap2\n      pop\n        /* \"#utility.yul\":8835:8928   */\n      tag_291\n        /* \"#utility.yul\":8924:8927   */\n      dup3\n        /* \"#utility.yul\":8835:8928   */\n      tag_185\n      jump\t// in\n    tag_291:\n        /* \"#utility.yul\":8953:8955   */\n      0x20\n        /* \"#utility.yul\":8948:8951   */\n      dup3\n        /* \"#utility.yul\":8944:8956   */\n      add\n        /* \"#utility.yul\":8937:8956   */\n      swap1\n      pop\n        /* \"#utility.yul\":8596:8962   */\n      swap2\n      swap1\n      pop\n      jump\t// out\n        /* \"#utility.yul\":8968:9387   */\n    tag_117:\n        /* \"#utility.yul\":9134:9138   */\n      0x00\n        /* \"#utility.yul\":9172:9174   */\n      0x20\n        /* \"#utility.yul\":9161:9170   */\n      dup3\n        /* \"#utility.yul\":9157:9175   */\n      add\n        /* \"#utility.yul\":9149:9175   */\n      swap1\n      pop\n        /* \"#utility.yul\":9221:9230   */\n      dup2\n        /* \"#utility.yul\":9215:9219   */\n      dup2\n        /* \"#utility.yul\":9211:9231   */\n      sub\n        /* \"#utility.yul\":9207:9208   */\n      0x00\n        /* \"#utility.yul\":9196:9205   */\n      dup4\n        /* \"#utility.yul\":9192:9209   */\n      add\n        /* \"#utility.yul\":9185:9232   */\n      mstore\n        /* \"#utility.yul\":9249:9380   */\n      tag_293\n        /* \"#utility.yul\":9375:9379   */\n      dup2\n        /* \"#utility.yul\":9249:9380   */\n      tag_186\n      jump\t// in\n    tag_293:\n        /* \"#utility.yul\":9241:9380   */\n      swap1\n      pop\n        /* \"#utility.yul\":8968:9387   */\n      swap2\n      swap1\n      pop\n      jump\t// out\n        /* \"#utility.yul\":9393:9698   */\n    tag_119:\n        /* \"#utility.yul\":9433:9436   */\n      0x00\n        /* \"#utility.yul\":9452:9472   */\n      tag_295\n        /* \"#utility.yul\":9470:9471   */\n      dup3\n        /* \"#utility.yul\":9452:9472   */\n      tag_159\n      jump\t// in\n    tag_295:\n        /* \"#utility.yul\":9447:9472   */\n      swap2\n      pop\n        /* \"#utility.yul\":9486:9506   */\n      tag_296\n        /* \"#utility.yul\":9504:9505   */\n      dup4\n        /* \"#utility.yul\":9486:9506   */\n      tag_159\n      jump\t// in\n    tag_296:\n        /* \"#utility.yul\":9481:9506   */\n      swap3\n      pop\n        /* \"#utility.yul\":9640:9641   */\n      dup3\n        /* \"#utility.yul\":9572:9638   */\n      0xffffffffffffffffffffffffffffffffffffffffffffffffffffffffffffffff\n        /* \"#utility.yul\":9568:9642   */\n      sub\n        /* \"#utility.yul\":9565:9566   */\n      dup3\n        /* \"#utility.yul\":9562:9643   */\n      gt\n        /* \"#utility.yul\":9559:9666   */\n      iszero\n      tag_297\n      jumpi\n        /* \"#utility.yul\":9646:9664   */\n      tag_298\n      tag_184\n      jump\t// in\n    tag_298:\n        /* \"#utility.yul\":9559:9666   */\n    tag_297:\n        /* \"#utility.yul\":9690:9691   */\n      dup3\n        /* \"#utility.yul\":9687:9688   */\n      dup3\n        /* \"#utility.yul\":9683:9692   */\n      add\n        /* \"#utility.yul\":9676:9692   */\n      swap1\n      pop\n        /* \"#utility.yul\":9393:9698   */\n      swap3\n      swap2\n      pop\n      pop\n      jump\t// out\n        /* \"#utility.yul\":9704:9880   */\n    tag_187:\n        /* \"#utility.yul\":9844:9872   */\n      0x4e756d626572207469636b6574206f7574206f662072616e6765000000000000\n        /* \"#utility.yul\":9840:9841   */\n      0x00\n        /* \"#utility.yul\":9832:9838   */\n      dup3\n        /* \"#utility.yul\":9828:9842   */\n      add\n        /* \"#utility.yul\":9821:9873   */\n      mstore\n        /* \"#utility.yul\":9704:9880   */\n      pop\n      jump\t// out\n        /* \"#utility.yul\":9886:10252   */\n    tag_188:\n        /* \"#utility.yul\":10028:10031   */\n      0x00\n        /* \"#utility.yul\":10049:10116   */\n      tag_301\n        /* \"#utility.yul\":10113:10115   */\n      0x1a\n        /* \"#utility.yul\":10108:10111   */\n      dup4\n        /* \"#utility.yul\":10049:10116   */\n      tag_180\n      jump\t// in\n    tag_301:\n        /* \"#utility.yul\":10042:10116   */\n      swap2\n      pop\n        /* \"#utility.yul\":10125:10218   */\n      tag_302\n        /* \"#utility.yul\":10214:10217   */\n      dup3\n        /* \"#utility.yul\":10125:10218   */\n      tag_187\n      jump\t// in\n    tag_302:\n        /* \"#utility.yul\":10243:10245   */\n      0x20\n        /* \"#utility.yul\":10238:10241   */\n      dup3\n        /* \"#utility.yul\":10234:10246   */\n      add\n        /* \"#utility.yul\":10227:10246   */\n      swap1\n      pop\n        /* \"#utility.yul\":9886:10252   */\n      swap2\n      swap1\n      pop\n      jump\t// out\n        /* \"#utility.yul\":10258:10677   */\n    tag_123:\n        /* \"#utility.yul\":10424:10428   */\n      0x00\n        /* \"#utility.yul\":10462:10464   */\n      0x20\n        /* \"#utility.yul\":10451:10460   */\n      dup3\n        /* \"#utility.yul\":10447:10465   */\n      add\n        /* \"#utility.yul\":10439:10465   */\n      swap1\n      pop\n        /* \"#utility.yul\":10511:10520   */\n      dup2\n        /* \"#utility.yul\":10505:10509   */\n      dup2\n        /* \"#utility.yul\":10501:10521   */\n      sub\n        /* \"#utility.yul\":10497:10498   */\n      0x00\n        /* \"#utility.yul\":10486:10495   */\n      dup4\n        /* \"#utility.yul\":10482:10499   */\n      add\n        /* \"#utility.yul\":10475:10522   */\n      mstore\n        /* \"#utility.yul\":10539:10670   */\n      tag_304\n        /* \"#utility.yul\":10665:10669   */\n      dup2\n        /* \"#utility.yul\":10539:10670   */\n      tag_188\n      jump\t// in\n    tag_304:\n        /* \"#utility.yul\":10531:10670   */\n      swap1\n      pop\n        /* \"#utility.yul\":10258:10677   */\n      swap2\n      swap1\n      pop\n      jump\t// out\n        /* \"#utility.yul\":10683:10760   */\n    tag_189:\n        /* \"#utility.yul\":10720:10727   */\n      0x00\n        /* \"#utility.yul\":10749:10754   */\n      dup2\n        /* \"#utility.yul\":10738:10754   */\n      swap1\n      pop\n        /* \"#utility.yul\":10683:10760   */\n      swap2\n      swap1\n      pop\n      jump\t// out\n        /* \"#utility.yul\":10766:10884   */\n    tag_190:\n        /* \"#utility.yul\":10853:10877   */\n      tag_307\n        /* \"#utility.yul\":10871:10876   */\n      dup2\n        /* \"#utility.yul\":10853:10877   */\n      tag_189\n      jump\t// in\n    tag_307:\n        /* \"#utility.yul\":10848:10851   */\n      dup3\n        /* \"#utility.yul\":10841:10878   */\n      mstore\n        /* \"#utility.yul\":10766:10884   */\n      pop\n      pop\n      jump\t// out\n        /* \"#utility.yul\":10890:10991   */\n    tag_191:\n        /* \"#utility.yul\":10926:10933   */\n      0x00\n        /* \"#utility.yul\":10966:10984   */\n      0xffffffffffffffff\n        /* \"#utility.yul\":10959:10964   */\n      dup3\n        /* \"#utility.yul\":10955:10985   */\n      and\n        /* \"#utility.yul\":10944:10985   */\n      swap1\n      pop\n        /* \"#utility.yul\":10890:10991   */\n      swap2\n      swap1\n      pop\n      jump\t// out\n        /* \"#utility.yul\":10997:11112   */\n    tag_192:\n        /* \"#utility.yul\":11082:11105   */\n      tag_310\n        /* \"#utility.yul\":11099:11104   */\n      dup2\n        /* \"#utility.yul\":11082:11105   */\n      tag_191\n      jump\t// in\n    tag_310:\n        /* \"#utility.yul\":11077:11080   */\n      dup3\n        /* \"#utility.yul\":11070:11106   */\n      mstore\n        /* \"#utility.yul\":10997:11112   */\n      pop\n      pop\n      jump\t// out\n        /* \"#utility.yul\":11118:11207   */\n    tag_193:\n        /* \"#utility.yul\":11154:11161   */\n      0x00\n        /* \"#utility.yul\":11194:11200   */\n      0xffff\n        /* \"#utility.yul\":11187:11192   */\n      dup3\n        /* \"#utility.yul\":11183:11201   */\n      and\n        /* \"#utility.yul\":11172:11201   */\n      swap1\n      pop\n        /* \"#utility.yul\":11118:11207   */\n      swap2\n      swap1\n      pop\n      jump\t// out\n        /* \"#utility.yul\":11213:11328   */\n    tag_194:\n        /* \"#utility.yul\":11298:11321   */\n      tag_313\n        /* \"#utility.yul\":11315:11320   */\n      dup2\n        /* \"#utility.yul\":11298:11321   */\n      tag_193\n      jump\t// in\n    tag_313:\n        /* \"#utility.yul\":11293:11296   */\n      dup3\n        /* \"#utility.yul\":11286:11322   */\n      mstore\n        /* \"#utility.yul\":11213:11328   */\n      pop\n      pop\n      jump\t// out\n        /* \"#utility.yul\":11334:11427   */\n    tag_195:\n        /* \"#utility.yul\":11370:11377   */\n      0x00\n        /* \"#utility.yul\":11410:11420   */\n      0xffffffff\n        /* \"#utility.yul\":11403:11408   */\n      dup3\n        /* \"#utility.yul\":11399:11421   */\n      and\n        /* \"#utility.yul\":11388:11421   */\n      swap1\n      pop\n        /* \"#utility.yul\":11334:11427   */\n      swap2\n      swap1\n      pop\n      jump\t// out\n        /* \"#utility.yul\":11433:11548   */\n    tag_196:\n        /* \"#utility.yul\":11518:11541   */\n      tag_316\n        /* \"#utility.yul\":11535:11540   */\n      dup2\n        /* \"#utility.yul\":11518:11541   */\n      tag_195\n      jump\t// in\n    tag_316:\n        /* \"#utility.yul\":11513:11516   */\n      dup3\n        /* \"#utility.yul\":11506:11542   */\n      mstore\n        /* \"#utility.yul\":11433:11548   */\n      pop\n      pop\n      jump\t// out\n        /* \"#utility.yul\":11554:12202   */\n    tag_136:\n        /* \"#utility.yul\":11751:11755   */\n      0x00\n        /* \"#utility.yul\":11789:11792   */\n      0xa0\n        /* \"#utility.yul\":11778:11787   */\n      dup3\n        /* \"#utility.yul\":11774:11793   */\n      add\n        /* \"#utility.yul\":11766:11793   */\n      swap1\n      pop\n        /* \"#utility.yul\":11803:11874   */\n      tag_318\n        /* \"#utility.yul\":11871:11872   */\n      0x00\n        /* \"#utility.yul\":11860:11869   */\n      dup4\n        /* \"#utility.yul\":11856:11873   */\n      add\n        /* \"#utility.yul\":11847:11853   */\n      dup9\n        /* \"#utility.yul\":11803:11874   */\n      tag_190\n      jump\t// in\n    tag_318:\n        /* \"#utility.yul\":11884:11954   */\n      tag_319\n        /* \"#utility.yul\":11950:11952   */\n      0x20\n        /* \"#utility.yul\":11939:11948   */\n      dup4\n        /* \"#utility.yul\":11935:11953   */\n      add\n        /* \"#utility.yul\":11926:11932   */\n      dup8\n        /* \"#utility.yul\":11884:11954   */\n      tag_192\n      jump\t// in\n    tag_319:\n        /* \"#utility.yul\":11964:12034   */\n      tag_320\n        /* \"#utility.yul\":12030:12032   */\n      0x40\n        /* \"#utility.yul\":12019:12028   */\n      dup4\n        /* \"#utility.yul\":12015:12033   */\n      add\n        /* \"#utility.yul\":12006:12012   */\n      dup7\n        /* \"#utility.yul\":11964:12034   */\n      tag_194\n      jump\t// in\n    tag_320:\n        /* \"#utility.yul\":12044:12114   */\n      tag_321\n        /* \"#utility.yul\":12110:12112   */\n      0x60\n        /* \"#utility.yul\":12099:12108   */\n      dup4\n        /* \"#utility.yul\":12095:12113   */\n      add\n        /* \"#utility.yul\":12086:12092   */\n      dup6\n        /* \"#utility.yul\":12044:12114   */\n      tag_196\n      jump\t// in\n    tag_321:\n        /* \"#utility.yul\":12124:12195   */\n      tag_322\n        /* \"#utility.yul\":12190:12193   */\n      0x80\n        /* \"#utility.yul\":12179:12188   */\n      dup4\n        /* \"#utility.yul\":12175:12194   */\n      add\n        /* \"#utility.yul\":12166:12172   */\n      dup5\n        /* \"#utility.yul\":12124:12195   */\n      tag_196\n      jump\t// in\n    tag_322:\n        /* \"#utility.yul\":11554:12202   */\n      swap7\n      swap6\n      pop\n      pop\n      pop\n      pop\n      pop\n      pop\n      jump\t// out\n        /* \"#utility.yul\":12208:12351   */\n    tag_197:\n        /* \"#utility.yul\":12265:12270   */\n      0x00\n        /* \"#utility.yul\":12296:12302   */\n      dup2\n        /* \"#utility.yul\":12290:12303   */\n      mload\n        /* \"#utility.yul\":12281:12303   */\n      swap1\n      pop\n        /* \"#utility.yul\":12312:12345   */\n      tag_324\n        /* \"#utility.yul\":12339:12344   */\n      dup2\n        /* \"#utility.yul\":12312:12345   */\n      tag_164\n      jump\t// in\n    tag_324:\n        /* \"#utility.yul\":12208:12351   */\n      swap3\n      swap2\n      pop\n      pop\n      jump\t// out\n        /* \"#utility.yul\":12357:12708   */\n    tag_140:\n        /* \"#utility.yul\":12427:12433   */\n      0x00\n        /* \"#utility.yul\":12476:12478   */\n      0x20\n        /* \"#utility.yul\":12464:12473   */\n      dup3\n        /* \"#utility.yul\":12455:12462   */\n      dup5\n        /* \"#utility.yul\":12451:12474   */\n      sub\n        /* \"#utility.yul\":12447:12479   */\n      slt\n        /* \"#utility.yul\":12444:12563   */\n      iszero\n      tag_326\n      jumpi\n        /* \"#utility.yul\":12482:12561   */\n      tag_327\n      tag_162\n      jump\t// in\n    tag_327:\n        /* \"#utility.yul\":12444:12563   */\n    tag_326:\n        /* \"#utility.yul\":12602:12603   */\n      0x00\n        /* \"#utility.yul\":12627:12691   */\n      tag_328\n        /* \"#utility.yul\":12683:12690   */\n      dup5\n        /* \"#utility.yul\":12674:12680   */\n      dup3\n        /* \"#utility.yul\":12663:12672   */\n      dup6\n        /* \"#utility.yul\":12659:12681   */\n      add\n        /* \"#utility.yul\":12627:12691   */\n      tag_197\n      jump\t// in\n    tag_328:\n        /* \"#utility.yul\":12617:12691   */\n      swap2\n      pop\n        /* \"#utility.yul\":12573:12701   */\n      pop\n        /* \"#utility.yul\":12357:12708   */\n      swap3\n      swap2\n      pop\n      pop\n      jump\t// out\n        /* \"#utility.yul\":12714:12890   */\n    tag_142:\n        /* \"#utility.yul\":12746:12747   */\n      0x00\n        /* \"#utility.yul\":12763:12783   */\n      tag_330\n        /* \"#utility.yul\":12781:12782   */\n      dup3\n        /* \"#utility.yul\":12763:12783   */\n      tag_159\n      jump\t// in\n    tag_330:\n        /* \"#utility.yul\":12758:12783   */\n      swap2\n      pop\n        /* \"#utility.yul\":12797:12817   */\n      tag_331\n        /* \"#utility.yul\":12815:12816   */\n      dup4\n        /* \"#utility.yul\":12797:12817   */\n      tag_159\n      jump\t// in\n    tag_331:\n        /* \"#utility.yul\":12792:12817   */\n      swap3\n      pop\n        /* \"#utility.yul\":12836:12837   */\n      dup3\n        /* \"#utility.yul\":12826:12861   */\n      tag_332\n      jumpi\n        /* \"#utility.yul\":12841:12859   */\n      tag_333\n      tag_183\n      jump\t// in\n    tag_333:\n        /* \"#utility.yul\":12826:12861   */\n    tag_332:\n        /* \"#utility.yul\":12882:12883   */\n      dup3\n        /* \"#utility.yul\":12879:12880   */\n      dup3\n        /* \"#utility.yul\":12875:12884   */\n      mod\n        /* \"#utility.yul\":12870:12884   */\n      swap1\n      pop\n        /* \"#utility.yul\":12714:12890   */\n      swap3\n      swap2\n      pop\n      pop\n      jump\t// out\n        /* \"#utility.yul\":12896:13087   */\n    tag_145:\n        /* \"#utility.yul\":12936:12940   */\n      0x00\n        /* \"#utility.yul\":12956:12976   */\n      tag_335\n        /* \"#utility.yul\":12974:12975   */\n      dup3\n        /* \"#utility.yul\":12956:12976   */\n      tag_159\n      jump\t// in\n    tag_335:\n        /* \"#utility.yul\":12951:12976   */\n      swap2\n      pop\n        /* \"#utility.yul\":12990:13010   */\n      tag_336\n        /* \"#utility.yul\":13008:13009   */\n      dup4\n        /* \"#utility.yul\":12990:13010   */\n      tag_159\n      jump\t// in\n    tag_336:\n        /* \"#utility.yul\":12985:13010   */\n      swap3\n      pop\n        /* \"#utility.yul\":13029:13030   */\n      dup3\n        /* \"#utility.yul\":13026:13027   */\n      dup3\n        /* \"#utility.yul\":13023:13031   */\n      lt\n        /* \"#utility.yul\":13020:13054   */\n      iszero\n      tag_337\n      jumpi\n        /* \"#utility.yul\":13034:13052   */\n      tag_338\n      tag_184\n      jump\t// in\n    tag_338:\n        /* \"#utility.yul\":13020:13054   */\n    tag_337:\n        /* \"#utility.yul\":13079:13080   */\n      dup3\n        /* \"#utility.yul\":13076:13077   */\n      dup3\n        /* \"#utility.yul\":13072:13081   */\n      sub\n        /* \"#utility.yul\":13064:13081   */\n      swap1\n      pop\n        /* \"#utility.yul\":12896:13087   */\n      swap3\n      swap2\n      pop\n      pop\n      jump\t// out\n\n    auxdata: 0xa2646970667358221220b841ad353a0b177f65e29038286f17a45c37b444f9d21e1027f096f834feeaa664736f6c634300080f0033\n}\n",
				"bytecode": {
					"linkReferences": {},
					"object": "60a0604052620186a06000806101000a81548163ffffffff021916908363ffffffff1602179055506003600060046101000a81548161ffff021916908361ffff1602179055506002600060066101000a81548163ffffffff021916908363ffffffff16021790555033600360006101000a81548173ffffffffffffffffffffffffffffffffffffffff021916908373ffffffffffffffffffffffffffffffffffffffff16021790555060006008553480156100b957600080fd5b50736168499c0cffcacd319c818142124b7a15e857ab8073ffffffffffffffffffffffffffffffffffffffff1660808173ffffffffffffffffffffffffffffffffffffffff1681525050506080516112ec6101266000396000818161039601526103ea01526112ec6000f3fe6080604052600436106100c25760003560e01c8063693521d51161007f578063a59f3e0c11610059578063a59f3e0c1461027d578063e580f47b14610299578063e89e106a146102c4578063f6eaffc8146102ef576100c2565b8063693521d5146101fe5780636d6fe230146102295780636fd0981614610266576100c2565b806312065fe0146100c757806318b425ff146100f25780631fe543e31461012f578063281d098d1461015857806332eb85a414610195578063460e2049146101c0575b600080fd5b3480156100d357600080fd5b506100dc61032c565b6040516100e99190610b6c565b60405180910390f35b3480156100fe57600080fd5b5061011960048036038101906101149190610bc7565b610336565b6040516101269190610c35565b60405180910390f35b34801561013b57600080fd5b5061015660048036038101906101519190610da9565b610394565b005b34801561016457600080fd5b5061017f600480360381019061017a9190610bc7565b610454565b60405161018c9190610e26565b60405180910390f35b3480156101a157600080fd5b506101aa610491565b6040516101b79190610b6c565b60405180910390f35b3480156101cc57600080fd5b506101e760048036038101906101e29190610bc7565b61049b565b6040516101f5929190610e41565b60405180910390f35b34801561020a57600080fd5b506102136104e9565b6040516102209190610b6c565b60405180910390f35b34801561023557600080fd5b50610250600480360381019061024b9190610bc7565b61050c565b60405161025d9190610e26565b60405180910390f35b34801561027257600080fd5b5061027b61053f565b005b61029760048036038101906102929190610bc7565b610699565b005b3480156102a557600080fd5b506102ae610838565b6040516102bb9190610b6c565b60405180910390f35b3480156102d057600080fd5b506102d961083e565b6040516102e69190610b6c565b60405180910390f35b3480156102fb57600080fd5b5061031660048036038101906103119190610bc7565b610844565b6040516103239190610b6c565b60405180910390f35b6000600954905090565b600060066000600a548152602001908152602001600020600001828154811061036257610361610e6a565b5b9060005260206000200160009054906101000a900473ffffffffffffffffffffffffffffffffffffffff169050919050565b7f000000000000000000000000000000000000000000000000000000000000000073ffffffffffffffffffffffffffffffffffffffff163373ffffffffffffffffffffffffffffffffffffffff161461044657337f00000000000000000000000000000000000000000000000000000000000000006040517f1cf993f400000000000000000000000000000000000000000000000000000000815260040161043d929190610e99565b60405180910390fd5b6104508282610868565b5050565b60006005600083815260200190815260200160002060009054906101000a900473ffffffffffffffffffffffffffffffffffffffff169050919050565b6000600854905090565b60008060006007600085815260200190815260200160002090508060000160009054906101000a900473ffffffffffffffffffffffffffffffffffffffff1681600101549250925050915091565b600060066000600a54815260200190815260200160002060000180549050905090565b60056020528060005260406000206000915054906101000a900473ffffffffffffffffffffffffffffffffffffffff1681565b600360009054906101000a900473ffffffffffffffffffffffffffffffffffffffff1673ffffffffffffffffffffffffffffffffffffffff163373ffffffffffffffffffffffffffffffffffffffff161461059957600080fd5b6000600a54116105de576040517f08c379a00000000000000000000000000000000000000000000000000000000081526004016105d590610f1f565b60405180910390fd5b600060066000600a548152602001908152602001600020600001805490509050610606610883565b6000816009546106169190610f9d565b905060005b82811015610694576106818260066000600a548152602001908152602001600020600001838154811061065157610650610e6a565b5b9060005260206000200160009054906101000a900473ffffffffffffffffffffffffffffffffffffffff16610a00565b808061068c90610fce565b91505061061b565b505050565b600234116106dc576040517f08c379a00000000000000000000000000000000000000000000000000000000081526004016106d390611062565b60405180910390fd5b34600960008282546106ee9190611082565b92505081905550600181101580156107075750600a8111155b610746576040517f08c379a000000000000000000000000000000000000000000000000000000000815260040161073d90611124565b60405180910390fd5b60006007600060085481526020019081526020016000209050338160000160006101000a81548173ffffffffffffffffffffffffffffffffffffffff021916908373ffffffffffffffffffffffffffffffffffffffff16021790555081816001018190555060006006600083600101548152602001908152602001600020905080600001339080600181540180825580915050600190039060005260206000200160009091909190916101000a81548173ffffffffffffffffffffffffffffffffffffffff021916908373ffffffffffffffffffffffffffffffffffffffff160217905550610833610acf565b505050565b60045481565b60025481565b6001818154811061085457600080fd5b906000526020600020016000915090505481565b806001908051906020019061087e929190610ae9565b505050565b600360009054906101000a900473ffffffffffffffffffffffffffffffffffffffff1673ffffffffffffffffffffffffffffffffffffffff163373ffffffffffffffffffffffffffffffffffffffff16146108dd57600080fd5b600854736168499c0cffcacd319c818142124b7a15e857ab73ffffffffffffffffffffffffffffffffffffffff16635d3b1d307fd89b2bf150e3b9e13446986e571fb9cab24b13cea0a43ea20a6049a85cc807cc60001b611cca600060049054906101000a900461ffff1660008054906101000a900463ffffffff16600060069054906101000a900463ffffffff166040518663ffffffff1660e01b815260040161098c9594939291906111bc565b6020604051808303816000875af11580156109ab573d6000803e3d6000fd5b505050506040513d601f19601f820116820180604052508101906109cf9190611224565b6109d99190611251565b60028190555060076000600254815260200190815260200160002060010154600a81905550565b8160096000828254610a129190611282565b925050819055508073ffffffffffffffffffffffffffffffffffffffff166108fc839081150290604051600060405180830381858888f19350505050158015610a5f573d6000803e3d6000fd5b50600360009054906101000a900473ffffffffffffffffffffffffffffffffffffffff1673ffffffffffffffffffffffffffffffffffffffff166108fc6009549081150290604051600060405180830381858888f19350505050158015610aca573d6000803e3d6000fd5b505050565b60086000815480929190610ae290610fce565b9190505550565b828054828255906000526020600020908101928215610b25579160200282015b82811115610b24578251825591602001919060010190610b09565b5b509050610b329190610b36565b5090565b5b80821115610b4f576000816000905550600101610b37565b5090565b6000819050919050565b610b6681610b53565b82525050565b6000602082019050610b816000830184610b5d565b92915050565b6000604051905090565b600080fd5b600080fd5b610ba481610b53565b8114610baf57600080fd5b50565b600081359050610bc181610b9b565b92915050565b600060208284031215610bdd57610bdc610b91565b5b6000610beb84828501610bb2565b91505092915050565b600073ffffffffffffffffffffffffffffffffffffffff82169050919050565b6000610c1f82610bf4565b9050919050565b610c2f81610c14565b82525050565b6000602082019050610c4a6000830184610c26565b92915050565b600080fd5b6000601f19601f8301169050919050565b7f4e487b7100000000000000000000000000000000000000000000000000000000600052604160045260246000fd5b610c9e82610c55565b810181811067ffffffffffffffff82111715610cbd57610cbc610c66565b5b80604052505050565b6000610cd0610b87565b9050610cdc8282610c95565b919050565b600067ffffffffffffffff821115610cfc57610cfb610c66565b5b602082029050602081019050919050565b600080fd5b6000610d25610d2084610ce1565b610cc6565b90508083825260208201905060208402830185811115610d4857610d47610d0d565b5b835b81811015610d715780610d5d8882610bb2565b845260208401935050602081019050610d4a565b5050509392505050565b600082601f830112610d9057610d8f610c50565b5b8135610da0848260208601610d12565b91505092915050565b60008060408385031215610dc057610dbf610b91565b5b6000610dce85828601610bb2565b925050602083013567ffffffffffffffff811115610def57610dee610b96565b5b610dfb85828601610d7b565b9150509250929050565b6000610e1082610bf4565b9050919050565b610e2081610e05565b82525050565b6000602082019050610e3b6000830184610e17565b92915050565b6000604082019050610e566000830185610e17565b610e636020830184610b5d565b9392505050565b7f4e487b7100000000000000000000000000000000000000000000000000000000600052603260045260246000fd5b6000604082019050610eae6000830185610c26565b610ebb6020830184610c26565b9392505050565b600082825260208201905092915050565b7f6765742072616e646f6d206e756d626572206661696c65640000000000000000600082015250565b6000610f09601883610ec2565b9150610f1482610ed3565b602082019050919050565b60006020820190508181036000830152610f3881610efc565b9050919050565b7f4e487b7100000000000000000000000000000000000000000000000000000000600052601260045260246000fd5b7f4e487b7100000000000000000000000000000000000000000000000000000000600052601160045260246000fd5b6000610fa882610b53565b9150610fb383610b53565b925082610fc357610fc2610f3f565b5b828204905092915050565b6000610fd982610b53565b91507fffffffffffffffffffffffffffffffffffffffffffffffffffffffffffffffff820361100b5761100a610f6e565b5b600182019050919050565b7f4e6f7420656e6f75676820746f6b656e00000000000000000000000000000000600082015250565b600061104c601083610ec2565b915061105782611016565b602082019050919050565b6000602082019050818103600083015261107b8161103f565b9050919050565b600061108d82610b53565b915061109883610b53565b9250827fffffffffffffffffffffffffffffffffffffffffffffffffffffffffffffffff038211156110cd576110cc610f6e565b5b828201905092915050565b7f4e756d626572207469636b6574206f7574206f662072616e6765000000000000600082015250565b600061110e601a83610ec2565b9150611119826110d8565b602082019050919050565b6000602082019050818103600083015261113d81611101565b9050919050565b6000819050919050565b61115781611144565b82525050565b600067ffffffffffffffff82169050919050565b61117a8161115d565b82525050565b600061ffff82169050919050565b61119781611180565b82525050565b600063ffffffff82169050919050565b6111b68161119d565b82525050565b600060a0820190506111d1600083018861114e565b6111de6020830187611171565b6111eb604083018661118e565b6111f860608301856111ad565b61120560808301846111ad565b9695505050505050565b60008151905061121e81610b9b565b92915050565b60006020828403121561123a57611239610b91565b5b60006112488482850161120f565b91505092915050565b600061125c82610b53565b915061126783610b53565b92508261127757611276610f3f565b5b828206905092915050565b600061128d82610b53565b915061129883610b53565b9250828210156112ab576112aa610f6e565b5b82820390509291505056fea2646970667358221220b841ad353a0b177f65e29038286f17a45c37b444f9d21e1027f096f834feeaa664736f6c634300080f0033",
					"opcodes": "PUSH1 0xA0 PUSH1 0x40 MSTORE PUSH3 0x186A0 PUSH1 0x0 DUP1 PUSH2 0x100 EXP DUP2 SLOAD DUP2 PUSH4 0xFFFFFFFF MUL NOT AND SWAP1 DUP4 PUSH4 0xFFFFFFFF AND MUL OR SWAP1 SSTORE POP PUSH1 0x3 PUSH1 0x0 PUSH1 0x4 PUSH2 0x100 EXP DUP2 SLOAD DUP2 PUSH2 0xFFFF MUL NOT AND SWAP1 DUP4 PUSH2 0xFFFF AND MUL OR SWAP1 SSTORE POP PUSH1 0x2 PUSH1 0x0 PUSH1 0x6 PUSH2 0x100 EXP DUP2 SLOAD DUP2 PUSH4 0xFFFFFFFF MUL NOT AND SWAP1 DUP4 PUSH4 0xFFFFFFFF AND MUL OR SWAP1 SSTORE POP CALLER PUSH1 0x3 PUSH1 0x0 PUSH2 0x100 EXP DUP2 SLOAD DUP2 PUSH20 0xFFFFFFFFFFFFFFFFFFFFFFFFFFFFFFFFFFFFFFFF MUL NOT AND SWAP1 DUP4 PUSH20 0xFFFFFFFFFFFFFFFFFFFFFFFFFFFFFFFFFFFFFFFF AND MUL OR SWAP1 SSTORE POP PUSH1 0x0 PUSH1 0x8 SSTORE CALLVALUE DUP1 ISZERO PUSH2 0xB9 JUMPI PUSH1 0x0 DUP1 REVERT JUMPDEST POP PUSH20 0x6168499C0CFFCACD319C818142124B7A15E857AB DUP1 PUSH20 0xFFFFFFFFFFFFFFFFFFFFFFFFFFFFFFFFFFFFFFFF AND PUSH1 0x80 DUP2 PUSH20 0xFFFFFFFFFFFFFFFFFFFFFFFFFFFFFFFFFFFFFFFF AND DUP2 MSTORE POP POP POP PUSH1 0x80 MLOAD PUSH2 0x12EC PUSH2 0x126 PUSH1 0x0 CODECOPY PUSH1 0x0 DUP2 DUP2 PUSH2 0x396 ADD MSTORE PUSH2 0x3EA ADD MSTORE PUSH2 0x12EC PUSH1 0x0 RETURN INVALID PUSH1 0x80 PUSH1 0x40 MSTORE PUSH1 0x4 CALLDATASIZE LT PUSH2 0xC2 JUMPI PUSH1 0x0 CALLDATALOAD PUSH1 0xE0 SHR DUP1 PUSH4 0x693521D5 GT PUSH2 0x7F JUMPI DUP1 PUSH4 0xA59F3E0C GT PUSH2 0x59 JUMPI DUP1 PUSH4 0xA59F3E0C EQ PUSH2 0x27D JUMPI DUP1 PUSH4 0xE580F47B EQ PUSH2 0x299 JUMPI DUP1 PUSH4 0xE89E106A EQ PUSH2 0x2C4 JUMPI DUP1 PUSH4 0xF6EAFFC8 EQ PUSH2 0x2EF JUMPI PUSH2 0xC2 JUMP JUMPDEST DUP1 PUSH4 0x693521D5 EQ PUSH2 0x1FE JUMPI DUP1 PUSH4 0x6D6FE230 EQ PUSH2 0x229 JUMPI DUP1 PUSH4 0x6FD09816 EQ PUSH2 0x266 JUMPI PUSH2 0xC2 JUMP JUMPDEST DUP1 PUSH4 0x12065FE0 EQ PUSH2 0xC7 JUMPI DUP1 PUSH4 0x18B425FF EQ PUSH2 0xF2 JUMPI DUP1 PUSH4 0x1FE543E3 EQ PUSH2 0x12F JUMPI DUP1 PUSH4 0x281D098D EQ PUSH2 0x158 JUMPI DUP1 PUSH4 0x32EB85A4 EQ PUSH2 0x195 JUMPI DUP1 PUSH4 0x460E2049 EQ PUSH2 0x1C0 JUMPI JUMPDEST PUSH1 0x0 DUP1 REVERT JUMPDEST CALLVALUE DUP1 ISZERO PUSH2 0xD3 JUMPI PUSH1 0x0 DUP1 REVERT JUMPDEST POP PUSH2 0xDC PUSH2 0x32C JUMP JUMPDEST PUSH1 0x40 MLOAD PUSH2 0xE9 SWAP2 SWAP1 PUSH2 0xB6C JUMP JUMPDEST PUSH1 0x40 MLOAD DUP1 SWAP2 SUB SWAP1 RETURN JUMPDEST CALLVALUE DUP1 ISZERO PUSH2 0xFE JUMPI PUSH1 0x0 DUP1 REVERT JUMPDEST POP PUSH2 0x119 PUSH1 0x4 DUP1 CALLDATASIZE SUB DUP2 ADD SWAP1 PUSH2 0x114 SWAP2 SWAP1 PUSH2 0xBC7 JUMP JUMPDEST PUSH2 0x336 JUMP JUMPDEST PUSH1 0x40 MLOAD PUSH2 0x126 SWAP2 SWAP1 PUSH2 0xC35 JUMP JUMPDEST PUSH1 0x40 MLOAD DUP1 SWAP2 SUB SWAP1 RETURN JUMPDEST CALLVALUE DUP1 ISZERO PUSH2 0x13B JUMPI PUSH1 0x0 DUP1 REVERT JUMPDEST POP PUSH2 0x156 PUSH1 0x4 DUP1 CALLDATASIZE SUB DUP2 ADD SWAP1 PUSH2 0x151 SWAP2 SWAP1 PUSH2 0xDA9 JUMP JUMPDEST PUSH2 0x394 JUMP JUMPDEST STOP JUMPDEST CALLVALUE DUP1 ISZERO PUSH2 0x164 JUMPI PUSH1 0x0 DUP1 REVERT JUMPDEST POP PUSH2 0x17F PUSH1 0x4 DUP1 CALLDATASIZE SUB DUP2 ADD SWAP1 PUSH2 0x17A SWAP2 SWAP1 PUSH2 0xBC7 JUMP JUMPDEST PUSH2 0x454 JUMP JUMPDEST PUSH1 0x40 MLOAD PUSH2 0x18C SWAP2 SWAP1 PUSH2 0xE26 JUMP JUMPDEST PUSH1 0x40 MLOAD DUP1 SWAP2 SUB SWAP1 RETURN JUMPDEST CALLVALUE DUP1 ISZERO PUSH2 0x1A1 JUMPI PUSH1 0x0 DUP1 REVERT JUMPDEST POP PUSH2 0x1AA PUSH2 0x491 JUMP JUMPDEST PUSH1 0x40 MLOAD PUSH2 0x1B7 SWAP2 SWAP1 PUSH2 0xB6C JUMP JUMPDEST PUSH1 0x40 MLOAD DUP1 SWAP2 SUB SWAP1 RETURN JUMPDEST CALLVALUE DUP1 ISZERO PUSH2 0x1CC JUMPI PUSH1 0x0 DUP1 REVERT JUMPDEST POP PUSH2 0x1E7 PUSH1 0x4 DUP1 CALLDATASIZE SUB DUP2 ADD SWAP1 PUSH2 0x1E2 SWAP2 SWAP1 PUSH2 0xBC7 JUMP JUMPDEST PUSH2 0x49B JUMP JUMPDEST PUSH1 0x40 MLOAD PUSH2 0x1F5 SWAP3 SWAP2 SWAP1 PUSH2 0xE41 JUMP JUMPDEST PUSH1 0x40 MLOAD DUP1 SWAP2 SUB SWAP1 RETURN JUMPDEST CALLVALUE DUP1 ISZERO PUSH2 0x20A JUMPI PUSH1 0x0 DUP1 REVERT JUMPDEST POP PUSH2 0x213 PUSH2 0x4E9 JUMP JUMPDEST PUSH1 0x40 MLOAD PUSH2 0x220 SWAP2 SWAP1 PUSH2 0xB6C JUMP JUMPDEST PUSH1 0x40 MLOAD DUP1 SWAP2 SUB SWAP1 RETURN JUMPDEST CALLVALUE DUP1 ISZERO PUSH2 0x235 JUMPI PUSH1 0x0 DUP1 REVERT JUMPDEST POP PUSH2 0x250 PUSH1 0x4 DUP1 CALLDATASIZE SUB DUP2 ADD SWAP1 PUSH2 0x24B SWAP2 SWAP1 PUSH2 0xBC7 JUMP JUMPDEST PUSH2 0x50C JUMP JUMPDEST PUSH1 0x40 MLOAD PUSH2 0x25D SWAP2 SWAP1 PUSH2 0xE26 JUMP JUMPDEST PUSH1 0x40 MLOAD DUP1 SWAP2 SUB SWAP1 RETURN JUMPDEST CALLVALUE DUP1 ISZERO PUSH2 0x272 JUMPI PUSH1 0x0 DUP1 REVERT JUMPDEST POP PUSH2 0x27B PUSH2 0x53F JUMP JUMPDEST STOP JUMPDEST PUSH2 0x297 PUSH1 0x4 DUP1 CALLDATASIZE SUB DUP2 ADD SWAP1 PUSH2 0x292 SWAP2 SWAP1 PUSH2 0xBC7 JUMP JUMPDEST PUSH2 0x699 JUMP JUMPDEST STOP JUMPDEST CALLVALUE DUP1 ISZERO PUSH2 0x2A5 JUMPI PUSH1 0x0 DUP1 REVERT JUMPDEST POP PUSH2 0x2AE PUSH2 0x838 JUMP JUMPDEST PUSH1 0x40 MLOAD PUSH2 0x2BB SWAP2 SWAP1 PUSH2 0xB6C JUMP JUMPDEST PUSH1 0x40 MLOAD DUP1 SWAP2 SUB SWAP1 RETURN JUMPDEST CALLVALUE DUP1 ISZERO PUSH2 0x2D0 JUMPI PUSH1 0x0 DUP1 REVERT JUMPDEST POP PUSH2 0x2D9 PUSH2 0x83E JUMP JUMPDEST PUSH1 0x40 MLOAD PUSH2 0x2E6 SWAP2 SWAP1 PUSH2 0xB6C JUMP JUMPDEST PUSH1 0x40 MLOAD DUP1 SWAP2 SUB SWAP1 RETURN JUMPDEST CALLVALUE DUP1 ISZERO PUSH2 0x2FB JUMPI PUSH1 0x0 DUP1 REVERT JUMPDEST POP PUSH2 0x316 PUSH1 0x4 DUP1 CALLDATASIZE SUB DUP2 ADD SWAP1 PUSH2 0x311 SWAP2 SWAP1 PUSH2 0xBC7 JUMP JUMPDEST PUSH2 0x844 JUMP JUMPDEST PUSH1 0x40 MLOAD PUSH2 0x323 SWAP2 SWAP1 PUSH2 0xB6C JUMP JUMPDEST PUSH1 0x40 MLOAD DUP1 SWAP2 SUB SWAP1 RETURN JUMPDEST PUSH1 0x0 PUSH1 0x9 SLOAD SWAP1 POP SWAP1 JUMP JUMPDEST PUSH1 0x0 PUSH1 0x6 PUSH1 0x0 PUSH1 0xA SLOAD DUP2 MSTORE PUSH1 0x20 ADD SWAP1 DUP2 MSTORE PUSH1 0x20 ADD PUSH1 0x0 KECCAK256 PUSH1 0x0 ADD DUP3 DUP2 SLOAD DUP2 LT PUSH2 0x362 JUMPI PUSH2 0x361 PUSH2 0xE6A JUMP JUMPDEST JUMPDEST SWAP1 PUSH1 0x0 MSTORE PUSH1 0x20 PUSH1 0x0 KECCAK256 ADD PUSH1 0x0 SWAP1 SLOAD SWAP1 PUSH2 0x100 EXP SWAP1 DIV PUSH20 0xFFFFFFFFFFFFFFFFFFFFFFFFFFFFFFFFFFFFFFFF AND SWAP1 POP SWAP2 SWAP1 POP JUMP JUMPDEST PUSH32 0x0 PUSH20 0xFFFFFFFFFFFFFFFFFFFFFFFFFFFFFFFFFFFFFFFF AND CALLER PUSH20 0xFFFFFFFFFFFFFFFFFFFFFFFFFFFFFFFFFFFFFFFF AND EQ PUSH2 0x446 JUMPI CALLER PUSH32 0x0 PUSH1 0x40 MLOAD PUSH32 0x1CF993F400000000000000000000000000000000000000000000000000000000 DUP2 MSTORE PUSH1 0x4 ADD PUSH2 0x43D SWAP3 SWAP2 SWAP1 PUSH2 0xE99 JUMP JUMPDEST PUSH1 0x40 MLOAD DUP1 SWAP2 SUB SWAP1 REVERT JUMPDEST PUSH2 0x450 DUP3 DUP3 PUSH2 0x868 JUMP JUMPDEST POP POP JUMP JUMPDEST PUSH1 0x0 PUSH1 0x5 PUSH1 0x0 DUP4 DUP2 MSTORE PUSH1 0x20 ADD SWAP1 DUP2 MSTORE PUSH1 0x20 ADD PUSH1 0x0 KECCAK256 PUSH1 0x0 SWAP1 SLOAD SWAP1 PUSH2 0x100 EXP SWAP1 DIV PUSH20 0xFFFFFFFFFFFFFFFFFFFFFFFFFFFFFFFFFFFFFFFF AND SWAP1 POP SWAP2 SWAP1 POP JUMP JUMPDEST PUSH1 0x0 PUSH1 0x8 SLOAD SWAP1 POP SWAP1 JUMP JUMPDEST PUSH1 0x0 DUP1 PUSH1 0x0 PUSH1 0x7 PUSH1 0x0 DUP6 DUP2 MSTORE PUSH1 0x20 ADD SWAP1 DUP2 MSTORE PUSH1 0x20 ADD PUSH1 0x0 KECCAK256 SWAP1 POP DUP1 PUSH1 0x0 ADD PUSH1 0x0 SWAP1 SLOAD SWAP1 PUSH2 0x100 EXP SWAP1 DIV PUSH20 0xFFFFFFFFFFFFFFFFFFFFFFFFFFFFFFFFFFFFFFFF AND DUP2 PUSH1 0x1 ADD SLOAD SWAP3 POP SWAP3 POP POP SWAP2 POP SWAP2 JUMP JUMPDEST PUSH1 0x0 PUSH1 0x6 PUSH1 0x0 PUSH1 0xA SLOAD DUP2 MSTORE PUSH1 0x20 ADD SWAP1 DUP2 MSTORE PUSH1 0x20 ADD PUSH1 0x0 KECCAK256 PUSH1 0x0 ADD DUP1 SLOAD SWAP1 POP SWAP1 POP SWAP1 JUMP JUMPDEST PUSH1 0x5 PUSH1 0x20 MSTORE DUP1 PUSH1 0x0 MSTORE PUSH1 0x40 PUSH1 0x0 KECCAK256 PUSH1 0x0 SWAP2 POP SLOAD SWAP1 PUSH2 0x100 EXP SWAP1 DIV PUSH20 0xFFFFFFFFFFFFFFFFFFFFFFFFFFFFFFFFFFFFFFFF AND DUP2 JUMP JUMPDEST PUSH1 0x3 PUSH1 0x0 SWAP1 SLOAD SWAP1 PUSH2 0x100 EXP SWAP1 DIV PUSH20 0xFFFFFFFFFFFFFFFFFFFFFFFFFFFFFFFFFFFFFFFF AND PUSH20 0xFFFFFFFFFFFFFFFFFFFFFFFFFFFFFFFFFFFFFFFF AND CALLER PUSH20 0xFFFFFFFFFFFFFFFFFFFFFFFFFFFFFFFFFFFFFFFF AND EQ PUSH2 0x599 JUMPI PUSH1 0x0 DUP1 REVERT JUMPDEST PUSH1 0x0 PUSH1 0xA SLOAD GT PUSH2 0x5DE JUMPI PUSH1 0x40 MLOAD PUSH32 0x8C379A000000000000000000000000000000000000000000000000000000000 DUP2 MSTORE PUSH1 0x4 ADD PUSH2 0x5D5 SWAP1 PUSH2 0xF1F JUMP JUMPDEST PUSH1 0x40 MLOAD DUP1 SWAP2 SUB SWAP1 REVERT JUMPDEST PUSH1 0x0 PUSH1 0x6 PUSH1 0x0 PUSH1 0xA SLOAD DUP2 MSTORE PUSH1 0x20 ADD SWAP1 DUP2 MSTORE PUSH1 0x20 ADD PUSH1 0x0 KECCAK256 PUSH1 0x0 ADD DUP1 SLOAD SWAP1 POP SWAP1 POP PUSH2 0x606 PUSH2 0x883 JUMP JUMPDEST PUSH1 0x0 DUP2 PUSH1 0x9 SLOAD PUSH2 0x616 SWAP2 SWAP1 PUSH2 0xF9D JUMP JUMPDEST SWAP1 POP PUSH1 0x0 JUMPDEST DUP3 DUP2 LT ISZERO PUSH2 0x694 JUMPI PUSH2 0x681 DUP3 PUSH1 0x6 PUSH1 0x0 PUSH1 0xA SLOAD DUP2 MSTORE PUSH1 0x20 ADD SWAP1 DUP2 MSTORE PUSH1 0x20 ADD PUSH1 0x0 KECCAK256 PUSH1 0x0 ADD DUP4 DUP2 SLOAD DUP2 LT PUSH2 0x651 JUMPI PUSH2 0x650 PUSH2 0xE6A JUMP JUMPDEST JUMPDEST SWAP1 PUSH1 0x0 MSTORE PUSH1 0x20 PUSH1 0x0 KECCAK256 ADD PUSH1 0x0 SWAP1 SLOAD SWAP1 PUSH2 0x100 EXP SWAP1 DIV PUSH20 0xFFFFFFFFFFFFFFFFFFFFFFFFFFFFFFFFFFFFFFFF AND PUSH2 0xA00 JUMP JUMPDEST DUP1 DUP1 PUSH2 0x68C SWAP1 PUSH2 0xFCE JUMP JUMPDEST SWAP2 POP POP PUSH2 0x61B JUMP JUMPDEST POP POP POP JUMP JUMPDEST PUSH1 0x2 CALLVALUE GT PUSH2 0x6DC JUMPI PUSH1 0x40 MLOAD PUSH32 0x8C379A000000000000000000000000000000000000000000000000000000000 DUP2 MSTORE PUSH1 0x4 ADD PUSH2 0x6D3 SWAP1 PUSH2 0x1062 JUMP JUMPDEST PUSH1 0x40 MLOAD DUP1 SWAP2 SUB SWAP1 REVERT JUMPDEST CALLVALUE PUSH1 0x9 PUSH1 0x0 DUP3 DUP3 SLOAD PUSH2 0x6EE SWAP2 SWAP1 PUSH2 0x1082 JUMP JUMPDEST SWAP3 POP POP DUP2 SWAP1 SSTORE POP PUSH1 0x1 DUP2 LT ISZERO DUP1 ISZERO PUSH2 0x707 JUMPI POP PUSH1 0xA DUP2 GT ISZERO JUMPDEST PUSH2 0x746 JUMPI PUSH1 0x40 MLOAD PUSH32 0x8C379A000000000000000000000000000000000000000000000000000000000 DUP2 MSTORE PUSH1 0x4 ADD PUSH2 0x73D SWAP1 PUSH2 0x1124 JUMP JUMPDEST PUSH1 0x40 MLOAD DUP1 SWAP2 SUB SWAP1 REVERT JUMPDEST PUSH1 0x0 PUSH1 0x7 PUSH1 0x0 PUSH1 0x8 SLOAD DUP2 MSTORE PUSH1 0x20 ADD SWAP1 DUP2 MSTORE PUSH1 0x20 ADD PUSH1 0x0 KECCAK256 SWAP1 POP CALLER DUP2 PUSH1 0x0 ADD PUSH1 0x0 PUSH2 0x100 EXP DUP2 SLOAD DUP2 PUSH20 0xFFFFFFFFFFFFFFFFFFFFFFFFFFFFFFFFFFFFFFFF MUL NOT AND SWAP1 DUP4 PUSH20 0xFFFFFFFFFFFFFFFFFFFFFFFFFFFFFFFFFFFFFFFF AND MUL OR SWAP1 SSTORE POP DUP2 DUP2 PUSH1 0x1 ADD DUP2 SWAP1 SSTORE POP PUSH1 0x0 PUSH1 0x6 PUSH1 0x0 DUP4 PUSH1 0x1 ADD SLOAD DUP2 MSTORE PUSH1 0x20 ADD SWAP1 DUP2 MSTORE PUSH1 0x20 ADD PUSH1 0x0 KECCAK256 SWAP1 POP DUP1 PUSH1 0x0 ADD CALLER SWAP1 DUP1 PUSH1 0x1 DUP2 SLOAD ADD DUP1 DUP3 SSTORE DUP1 SWAP2 POP POP PUSH1 0x1 SWAP1 SUB SWAP1 PUSH1 0x0 MSTORE PUSH1 0x20 PUSH1 0x0 KECCAK256 ADD PUSH1 0x0 SWAP1 SWAP2 SWAP1 SWAP2 SWAP1 SWAP2 PUSH2 0x100 EXP DUP2 SLOAD DUP2 PUSH20 0xFFFFFFFFFFFFFFFFFFFFFFFFFFFFFFFFFFFFFFFF MUL NOT AND SWAP1 DUP4 PUSH20 0xFFFFFFFFFFFFFFFFFFFFFFFFFFFFFFFFFFFFFFFF AND MUL OR SWAP1 SSTORE POP PUSH2 0x833 PUSH2 0xACF JUMP JUMPDEST POP POP POP JUMP JUMPDEST PUSH1 0x4 SLOAD DUP2 JUMP JUMPDEST PUSH1 0x2 SLOAD DUP2 JUMP JUMPDEST PUSH1 0x1 DUP2 DUP2 SLOAD DUP2 LT PUSH2 0x854 JUMPI PUSH1 0x0 DUP1 REVERT JUMPDEST SWAP1 PUSH1 0x0 MSTORE PUSH1 0x20 PUSH1 0x0 KECCAK256 ADD PUSH1 0x0 SWAP2 POP SWAP1 POP SLOAD DUP2 JUMP JUMPDEST DUP1 PUSH1 0x1 SWAP1 DUP1 MLOAD SWAP1 PUSH1 0x20 ADD SWAP1 PUSH2 0x87E SWAP3 SWAP2 SWAP1 PUSH2 0xAE9 JUMP JUMPDEST POP POP POP JUMP JUMPDEST PUSH1 0x3 PUSH1 0x0 SWAP1 SLOAD SWAP1 PUSH2 0x100 EXP SWAP1 DIV PUSH20 0xFFFFFFFFFFFFFFFFFFFFFFFFFFFFFFFFFFFFFFFF AND PUSH20 0xFFFFFFFFFFFFFFFFFFFFFFFFFFFFFFFFFFFFFFFF AND CALLER PUSH20 0xFFFFFFFFFFFFFFFFFFFFFFFFFFFFFFFFFFFFFFFF AND EQ PUSH2 0x8DD JUMPI PUSH1 0x0 DUP1 REVERT JUMPDEST PUSH1 0x8 SLOAD PUSH20 0x6168499C0CFFCACD319C818142124B7A15E857AB PUSH20 0xFFFFFFFFFFFFFFFFFFFFFFFFFFFFFFFFFFFFFFFF AND PUSH4 0x5D3B1D30 PUSH32 0xD89B2BF150E3B9E13446986E571FB9CAB24B13CEA0A43EA20A6049A85CC807CC PUSH1 0x0 SHL PUSH2 0x1CCA PUSH1 0x0 PUSH1 0x4 SWAP1 SLOAD SWAP1 PUSH2 0x100 EXP SWAP1 DIV PUSH2 0xFFFF AND PUSH1 0x0 DUP1 SLOAD SWAP1 PUSH2 0x100 EXP SWAP1 DIV PUSH4 0xFFFFFFFF AND PUSH1 0x0 PUSH1 0x6 SWAP1 SLOAD SWAP1 PUSH2 0x100 EXP SWAP1 DIV PUSH4 0xFFFFFFFF AND PUSH1 0x40 MLOAD DUP7 PUSH4 0xFFFFFFFF AND PUSH1 0xE0 SHL DUP2 MSTORE PUSH1 0x4 ADD PUSH2 0x98C SWAP6 SWAP5 SWAP4 SWAP3 SWAP2 SWAP1 PUSH2 0x11BC JUMP JUMPDEST PUSH1 0x20 PUSH1 0x40 MLOAD DUP1 DUP4 SUB DUP2 PUSH1 0x0 DUP8 GAS CALL ISZERO DUP1 ISZERO PUSH2 0x9AB JUMPI RETURNDATASIZE PUSH1 0x0 DUP1 RETURNDATACOPY RETURNDATASIZE PUSH1 0x0 REVERT JUMPDEST POP POP POP POP PUSH1 0x40 MLOAD RETURNDATASIZE PUSH1 0x1F NOT PUSH1 0x1F DUP3 ADD AND DUP3 ADD DUP1 PUSH1 0x40 MSTORE POP DUP2 ADD SWAP1 PUSH2 0x9CF SWAP2 SWAP1 PUSH2 0x1224 JUMP JUMPDEST PUSH2 0x9D9 SWAP2 SWAP1 PUSH2 0x1251 JUMP JUMPDEST PUSH1 0x2 DUP2 SWAP1 SSTORE POP PUSH1 0x7 PUSH1 0x0 PUSH1 0x2 SLOAD DUP2 MSTORE PUSH1 0x20 ADD SWAP1 DUP2 MSTORE PUSH1 0x20 ADD PUSH1 0x0 KECCAK256 PUSH1 0x1 ADD SLOAD PUSH1 0xA DUP2 SWAP1 SSTORE POP JUMP JUMPDEST DUP2 PUSH1 0x9 PUSH1 0x0 DUP3 DUP3 SLOAD PUSH2 0xA12 SWAP2 SWAP1 PUSH2 0x1282 JUMP JUMPDEST SWAP3 POP POP DUP2 SWAP1 SSTORE POP DUP1 PUSH20 0xFFFFFFFFFFFFFFFFFFFFFFFFFFFFFFFFFFFFFFFF AND PUSH2 0x8FC DUP4 SWAP1 DUP2 ISZERO MUL SWAP1 PUSH1 0x40 MLOAD PUSH1 0x0 PUSH1 0x40 MLOAD DUP1 DUP4 SUB DUP2 DUP6 DUP9 DUP9 CALL SWAP4 POP POP POP POP ISZERO DUP1 ISZERO PUSH2 0xA5F JUMPI RETURNDATASIZE PUSH1 0x0 DUP1 RETURNDATACOPY RETURNDATASIZE PUSH1 0x0 REVERT JUMPDEST POP PUSH1 0x3 PUSH1 0x0 SWAP1 SLOAD SWAP1 PUSH2 0x100 EXP SWAP1 DIV PUSH20 0xFFFFFFFFFFFFFFFFFFFFFFFFFFFFFFFFFFFFFFFF AND PUSH20 0xFFFFFFFFFFFFFFFFFFFFFFFFFFFFFFFFFFFFFFFF AND PUSH2 0x8FC PUSH1 0x9 SLOAD SWAP1 DUP2 ISZERO MUL SWAP1 PUSH1 0x40 MLOAD PUSH1 0x0 PUSH1 0x40 MLOAD DUP1 DUP4 SUB DUP2 DUP6 DUP9 DUP9 CALL SWAP4 POP POP POP POP ISZERO DUP1 ISZERO PUSH2 0xACA JUMPI RETURNDATASIZE PUSH1 0x0 DUP1 RETURNDATACOPY RETURNDATASIZE PUSH1 0x0 REVERT JUMPDEST POP POP POP JUMP JUMPDEST PUSH1 0x8 PUSH1 0x0 DUP2 SLOAD DUP1 SWAP3 SWAP2 SWAP1 PUSH2 0xAE2 SWAP1 PUSH2 0xFCE JUMP JUMPDEST SWAP2 SWAP1 POP SSTORE POP JUMP JUMPDEST DUP3 DUP1 SLOAD DUP3 DUP3 SSTORE SWAP1 PUSH1 0x0 MSTORE PUSH1 0x20 PUSH1 0x0 KECCAK256 SWAP1 DUP2 ADD SWAP3 DUP3 ISZERO PUSH2 0xB25 JUMPI SWAP2 PUSH1 0x20 MUL DUP3 ADD JUMPDEST DUP3 DUP2 GT ISZERO PUSH2 0xB24 JUMPI DUP3 MLOAD DUP3 SSTORE SWAP2 PUSH1 0x20 ADD SWAP2 SWAP1 PUSH1 0x1 ADD SWAP1 PUSH2 0xB09 JUMP JUMPDEST JUMPDEST POP SWAP1 POP PUSH2 0xB32 SWAP2 SWAP1 PUSH2 0xB36 JUMP JUMPDEST POP SWAP1 JUMP JUMPDEST JUMPDEST DUP1 DUP3 GT ISZERO PUSH2 0xB4F JUMPI PUSH1 0x0 DUP2 PUSH1 0x0 SWAP1 SSTORE POP PUSH1 0x1 ADD PUSH2 0xB37 JUMP JUMPDEST POP SWAP1 JUMP JUMPDEST PUSH1 0x0 DUP2 SWAP1 POP SWAP2 SWAP1 POP JUMP JUMPDEST PUSH2 0xB66 DUP2 PUSH2 0xB53 JUMP JUMPDEST DUP3 MSTORE POP POP JUMP JUMPDEST PUSH1 0x0 PUSH1 0x20 DUP3 ADD SWAP1 POP PUSH2 0xB81 PUSH1 0x0 DUP4 ADD DUP5 PUSH2 0xB5D JUMP JUMPDEST SWAP3 SWAP2 POP POP JUMP JUMPDEST PUSH1 0x0 PUSH1 0x40 MLOAD SWAP1 POP SWAP1 JUMP JUMPDEST PUSH1 0x0 DUP1 REVERT JUMPDEST PUSH1 0x0 DUP1 REVERT JUMPDEST PUSH2 0xBA4 DUP2 PUSH2 0xB53 JUMP JUMPDEST DUP2 EQ PUSH2 0xBAF JUMPI PUSH1 0x0 DUP1 REVERT JUMPDEST POP JUMP JUMPDEST PUSH1 0x0 DUP2 CALLDATALOAD SWAP1 POP PUSH2 0xBC1 DUP2 PUSH2 0xB9B JUMP JUMPDEST SWAP3 SWAP2 POP POP JUMP JUMPDEST PUSH1 0x0 PUSH1 0x20 DUP3 DUP5 SUB SLT ISZERO PUSH2 0xBDD JUMPI PUSH2 0xBDC PUSH2 0xB91 JUMP JUMPDEST JUMPDEST PUSH1 0x0 PUSH2 0xBEB DUP5 DUP3 DUP6 ADD PUSH2 0xBB2 JUMP JUMPDEST SWAP2 POP POP SWAP3 SWAP2 POP POP JUMP JUMPDEST PUSH1 0x0 PUSH20 0xFFFFFFFFFFFFFFFFFFFFFFFFFFFFFFFFFFFFFFFF DUP3 AND SWAP1 POP SWAP2 SWAP1 POP JUMP JUMPDEST PUSH1 0x0 PUSH2 0xC1F DUP3 PUSH2 0xBF4 JUMP JUMPDEST SWAP1 POP SWAP2 SWAP1 POP JUMP JUMPDEST PUSH2 0xC2F DUP2 PUSH2 0xC14 JUMP JUMPDEST DUP3 MSTORE POP POP JUMP JUMPDEST PUSH1 0x0 PUSH1 0x20 DUP3 ADD SWAP1 POP PUSH2 0xC4A PUSH1 0x0 DUP4 ADD DUP5 PUSH2 0xC26 JUMP JUMPDEST SWAP3 SWAP2 POP POP JUMP JUMPDEST PUSH1 0x0 DUP1 REVERT JUMPDEST PUSH1 0x0 PUSH1 0x1F NOT PUSH1 0x1F DUP4 ADD AND SWAP1 POP SWAP2 SWAP1 POP JUMP JUMPDEST PUSH32 0x4E487B7100000000000000000000000000000000000000000000000000000000 PUSH1 0x0 MSTORE PUSH1 0x41 PUSH1 0x4 MSTORE PUSH1 0x24 PUSH1 0x0 REVERT JUMPDEST PUSH2 0xC9E DUP3 PUSH2 0xC55 JUMP JUMPDEST DUP2 ADD DUP2 DUP2 LT PUSH8 0xFFFFFFFFFFFFFFFF DUP3 GT OR ISZERO PUSH2 0xCBD JUMPI PUSH2 0xCBC PUSH2 0xC66 JUMP JUMPDEST JUMPDEST DUP1 PUSH1 0x40 MSTORE POP POP POP JUMP JUMPDEST PUSH1 0x0 PUSH2 0xCD0 PUSH2 0xB87 JUMP JUMPDEST SWAP1 POP PUSH2 0xCDC DUP3 DUP3 PUSH2 0xC95 JUMP JUMPDEST SWAP2 SWAP1 POP JUMP JUMPDEST PUSH1 0x0 PUSH8 0xFFFFFFFFFFFFFFFF DUP3 GT ISZERO PUSH2 0xCFC JUMPI PUSH2 0xCFB PUSH2 0xC66 JUMP JUMPDEST JUMPDEST PUSH1 0x20 DUP3 MUL SWAP1 POP PUSH1 0x20 DUP2 ADD SWAP1 POP SWAP2 SWAP1 POP JUMP JUMPDEST PUSH1 0x0 DUP1 REVERT JUMPDEST PUSH1 0x0 PUSH2 0xD25 PUSH2 0xD20 DUP5 PUSH2 0xCE1 JUMP JUMPDEST PUSH2 0xCC6 JUMP JUMPDEST SWAP1 POP DUP1 DUP4 DUP3 MSTORE PUSH1 0x20 DUP3 ADD SWAP1 POP PUSH1 0x20 DUP5 MUL DUP4 ADD DUP6 DUP2 GT ISZERO PUSH2 0xD48 JUMPI PUSH2 0xD47 PUSH2 0xD0D JUMP JUMPDEST JUMPDEST DUP4 JUMPDEST DUP2 DUP2 LT ISZERO PUSH2 0xD71 JUMPI DUP1 PUSH2 0xD5D DUP9 DUP3 PUSH2 0xBB2 JUMP JUMPDEST DUP5 MSTORE PUSH1 0x20 DUP5 ADD SWAP4 POP POP PUSH1 0x20 DUP2 ADD SWAP1 POP PUSH2 0xD4A JUMP JUMPDEST POP POP POP SWAP4 SWAP3 POP POP POP JUMP JUMPDEST PUSH1 0x0 DUP3 PUSH1 0x1F DUP4 ADD SLT PUSH2 0xD90 JUMPI PUSH2 0xD8F PUSH2 0xC50 JUMP JUMPDEST JUMPDEST DUP2 CALLDATALOAD PUSH2 0xDA0 DUP5 DUP3 PUSH1 0x20 DUP7 ADD PUSH2 0xD12 JUMP JUMPDEST SWAP2 POP POP SWAP3 SWAP2 POP POP JUMP JUMPDEST PUSH1 0x0 DUP1 PUSH1 0x40 DUP4 DUP6 SUB SLT ISZERO PUSH2 0xDC0 JUMPI PUSH2 0xDBF PUSH2 0xB91 JUMP JUMPDEST JUMPDEST PUSH1 0x0 PUSH2 0xDCE DUP6 DUP3 DUP7 ADD PUSH2 0xBB2 JUMP JUMPDEST SWAP3 POP POP PUSH1 0x20 DUP4 ADD CALLDATALOAD PUSH8 0xFFFFFFFFFFFFFFFF DUP2 GT ISZERO PUSH2 0xDEF JUMPI PUSH2 0xDEE PUSH2 0xB96 JUMP JUMPDEST JUMPDEST PUSH2 0xDFB DUP6 DUP3 DUP7 ADD PUSH2 0xD7B JUMP JUMPDEST SWAP2 POP POP SWAP3 POP SWAP3 SWAP1 POP JUMP JUMPDEST PUSH1 0x0 PUSH2 0xE10 DUP3 PUSH2 0xBF4 JUMP JUMPDEST SWAP1 POP SWAP2 SWAP1 POP JUMP JUMPDEST PUSH2 0xE20 DUP2 PUSH2 0xE05 JUMP JUMPDEST DUP3 MSTORE POP POP JUMP JUMPDEST PUSH1 0x0 PUSH1 0x20 DUP3 ADD SWAP1 POP PUSH2 0xE3B PUSH1 0x0 DUP4 ADD DUP5 PUSH2 0xE17 JUMP JUMPDEST SWAP3 SWAP2 POP POP JUMP JUMPDEST PUSH1 0x0 PUSH1 0x40 DUP3 ADD SWAP1 POP PUSH2 0xE56 PUSH1 0x0 DUP4 ADD DUP6 PUSH2 0xE17 JUMP JUMPDEST PUSH2 0xE63 PUSH1 0x20 DUP4 ADD DUP5 PUSH2 0xB5D JUMP JUMPDEST SWAP4 SWAP3 POP POP POP JUMP JUMPDEST PUSH32 0x4E487B7100000000000000000000000000000000000000000000000000000000 PUSH1 0x0 MSTORE PUSH1 0x32 PUSH1 0x4 MSTORE PUSH1 0x24 PUSH1 0x0 REVERT JUMPDEST PUSH1 0x0 PUSH1 0x40 DUP3 ADD SWAP1 POP PUSH2 0xEAE PUSH1 0x0 DUP4 ADD DUP6 PUSH2 0xC26 JUMP JUMPDEST PUSH2 0xEBB PUSH1 0x20 DUP4 ADD DUP5 PUSH2 0xC26 JUMP JUMPDEST SWAP4 SWAP3 POP POP POP JUMP JUMPDEST PUSH1 0x0 DUP3 DUP3 MSTORE PUSH1 0x20 DUP3 ADD SWAP1 POP SWAP3 SWAP2 POP POP JUMP JUMPDEST PUSH32 0x6765742072616E646F6D206E756D626572206661696C65640000000000000000 PUSH1 0x0 DUP3 ADD MSTORE POP JUMP JUMPDEST PUSH1 0x0 PUSH2 0xF09 PUSH1 0x18 DUP4 PUSH2 0xEC2 JUMP JUMPDEST SWAP2 POP PUSH2 0xF14 DUP3 PUSH2 0xED3 JUMP JUMPDEST PUSH1 0x20 DUP3 ADD SWAP1 POP SWAP2 SWAP1 POP JUMP JUMPDEST PUSH1 0x0 PUSH1 0x20 DUP3 ADD SWAP1 POP DUP2 DUP2 SUB PUSH1 0x0 DUP4 ADD MSTORE PUSH2 0xF38 DUP2 PUSH2 0xEFC JUMP JUMPDEST SWAP1 POP SWAP2 SWAP1 POP JUMP JUMPDEST PUSH32 0x4E487B7100000000000000000000000000000000000000000000000000000000 PUSH1 0x0 MSTORE PUSH1 0x12 PUSH1 0x4 MSTORE PUSH1 0x24 PUSH1 0x0 REVERT JUMPDEST PUSH32 0x4E487B7100000000000000000000000000000000000000000000000000000000 PUSH1 0x0 MSTORE PUSH1 0x11 PUSH1 0x4 MSTORE PUSH1 0x24 PUSH1 0x0 REVERT JUMPDEST PUSH1 0x0 PUSH2 0xFA8 DUP3 PUSH2 0xB53 JUMP JUMPDEST SWAP2 POP PUSH2 0xFB3 DUP4 PUSH2 0xB53 JUMP JUMPDEST SWAP3 POP DUP3 PUSH2 0xFC3 JUMPI PUSH2 0xFC2 PUSH2 0xF3F JUMP JUMPDEST JUMPDEST DUP3 DUP3 DIV SWAP1 POP SWAP3 SWAP2 POP POP JUMP JUMPDEST PUSH1 0x0 PUSH2 0xFD9 DUP3 PUSH2 0xB53 JUMP JUMPDEST SWAP2 POP PUSH32 0xFFFFFFFFFFFFFFFFFFFFFFFFFFFFFFFFFFFFFFFFFFFFFFFFFFFFFFFFFFFFFFFF DUP3 SUB PUSH2 0x100B JUMPI PUSH2 0x100A PUSH2 0xF6E JUMP JUMPDEST JUMPDEST PUSH1 0x1 DUP3 ADD SWAP1 POP SWAP2 SWAP1 POP JUMP JUMPDEST PUSH32 0x4E6F7420656E6F75676820746F6B656E00000000000000000000000000000000 PUSH1 0x0 DUP3 ADD MSTORE POP JUMP JUMPDEST PUSH1 0x0 PUSH2 0x104C PUSH1 0x10 DUP4 PUSH2 0xEC2 JUMP JUMPDEST SWAP2 POP PUSH2 0x1057 DUP3 PUSH2 0x1016 JUMP JUMPDEST PUSH1 0x20 DUP3 ADD SWAP1 POP SWAP2 SWAP1 POP JUMP JUMPDEST PUSH1 0x0 PUSH1 0x20 DUP3 ADD SWAP1 POP DUP2 DUP2 SUB PUSH1 0x0 DUP4 ADD MSTORE PUSH2 0x107B DUP2 PUSH2 0x103F JUMP JUMPDEST SWAP1 POP SWAP2 SWAP1 POP JUMP JUMPDEST PUSH1 0x0 PUSH2 0x108D DUP3 PUSH2 0xB53 JUMP JUMPDEST SWAP2 POP PUSH2 0x1098 DUP4 PUSH2 0xB53 JUMP JUMPDEST SWAP3 POP DUP3 PUSH32 0xFFFFFFFFFFFFFFFFFFFFFFFFFFFFFFFFFFFFFFFFFFFFFFFFFFFFFFFFFFFFFFFF SUB DUP3 GT ISZERO PUSH2 0x10CD JUMPI PUSH2 0x10CC PUSH2 0xF6E JUMP JUMPDEST JUMPDEST DUP3 DUP3 ADD SWAP1 POP SWAP3 SWAP2 POP POP JUMP JUMPDEST PUSH32 0x4E756D626572207469636B6574206F7574206F662072616E6765000000000000 PUSH1 0x0 DUP3 ADD MSTORE POP JUMP JUMPDEST PUSH1 0x0 PUSH2 0x110E PUSH1 0x1A DUP4 PUSH2 0xEC2 JUMP JUMPDEST SWAP2 POP PUSH2 0x1119 DUP3 PUSH2 0x10D8 JUMP JUMPDEST PUSH1 0x20 DUP3 ADD SWAP1 POP SWAP2 SWAP1 POP JUMP JUMPDEST PUSH1 0x0 PUSH1 0x20 DUP3 ADD SWAP1 POP DUP2 DUP2 SUB PUSH1 0x0 DUP4 ADD MSTORE PUSH2 0x113D DUP2 PUSH2 0x1101 JUMP JUMPDEST SWAP1 POP SWAP2 SWAP1 POP JUMP JUMPDEST PUSH1 0x0 DUP2 SWAP1 POP SWAP2 SWAP1 POP JUMP JUMPDEST PUSH2 0x1157 DUP2 PUSH2 0x1144 JUMP JUMPDEST DUP3 MSTORE POP POP JUMP JUMPDEST PUSH1 0x0 PUSH8 0xFFFFFFFFFFFFFFFF DUP3 AND SWAP1 POP SWAP2 SWAP1 POP JUMP JUMPDEST PUSH2 0x117A DUP2 PUSH2 0x115D JUMP JUMPDEST DUP3 MSTORE POP POP JUMP JUMPDEST PUSH1 0x0 PUSH2 0xFFFF DUP3 AND SWAP1 POP SWAP2 SWAP1 POP JUMP JUMPDEST PUSH2 0x1197 DUP2 PUSH2 0x1180 JUMP JUMPDEST DUP3 MSTORE POP POP JUMP JUMPDEST PUSH1 0x0 PUSH4 0xFFFFFFFF DUP3 AND SWAP1 POP SWAP2 SWAP1 POP JUMP JUMPDEST PUSH2 0x11B6 DUP2 PUSH2 0x119D JUMP JUMPDEST DUP3 MSTORE POP POP JUMP JUMPDEST PUSH1 0x0 PUSH1 0xA0 DUP3 ADD SWAP1 POP PUSH2 0x11D1 PUSH1 0x0 DUP4 ADD DUP9 PUSH2 0x114E JUMP JUMPDEST PUSH2 0x11DE PUSH1 0x20 DUP4 ADD DUP8 PUSH2 0x1171 JUMP JUMPDEST PUSH2 0x11EB PUSH1 0x40 DUP4 ADD DUP7 PUSH2 0x118E JUMP JUMPDEST PUSH2 0x11F8 PUSH1 0x60 DUP4 ADD DUP6 PUSH2 0x11AD JUMP JUMPDEST PUSH2 0x1205 PUSH1 0x80 DUP4 ADD DUP5 PUSH2 0x11AD JUMP JUMPDEST SWAP7 SWAP6 POP POP POP POP POP POP JUMP JUMPDEST PUSH1 0x0 DUP2 MLOAD SWAP1 POP PUSH2 0x121E DUP2 PUSH2 0xB9B JUMP JUMPDEST SWAP3 SWAP2 POP POP JUMP JUMPDEST PUSH1 0x0 PUSH1 0x20 DUP3 DUP5 SUB SLT ISZERO PUSH2 0x123A JUMPI PUSH2 0x1239 PUSH2 0xB91 JUMP JUMPDEST JUMPDEST PUSH1 0x0 PUSH2 0x1248 DUP5 DUP3 DUP6 ADD PUSH2 0x120F JUMP JUMPDEST SWAP2 POP POP SWAP3 SWAP2 POP POP JUMP JUMPDEST PUSH1 0x0 PUSH2 0x125C DUP3 PUSH2 0xB53 JUMP JUMPDEST SWAP2 POP PUSH2 0x1267 DUP4 PUSH2 0xB53 JUMP JUMPDEST SWAP3 POP DUP3 PUSH2 0x1277 JUMPI PUSH2 0x1276 PUSH2 0xF3F JUMP JUMPDEST JUMPDEST DUP3 DUP3 MOD SWAP1 POP SWAP3 SWAP2 POP POP JUMP JUMPDEST PUSH1 0x0 PUSH2 0x128D DUP3 PUSH2 0xB53 JUMP JUMPDEST SWAP2 POP PUSH2 0x1298 DUP4 PUSH2 0xB53 JUMP JUMPDEST SWAP3 POP DUP3 DUP3 LT ISZERO PUSH2 0x12AB JUMPI PUSH2 0x12AA PUSH2 0xF6E JUMP JUMPDEST JUMPDEST DUP3 DUP3 SUB SWAP1 POP SWAP3 SWAP2 POP POP JUMP INVALID LOG2 PUSH5 0x6970667358 0x22 SLT KECCAK256 0xB8 COINBASE 0xAD CALLDATALOAD GASPRICE SIGNEXTEND OR PUSH32 0x65E29038286F17A45C37B444F9D21E1027F096F834FEEAA664736F6C63430008 0xF STOP CALLER "
				},
				"gasEstimates": {
					"creation": {
						"codeDepositCost": "968800",
						"executionCost": "infinite",
						"totalCost": "infinite"
					},
					"external": {
						"closeLottery()": "infinite",
						"enter(uint256)": "infinite",
						"getAmountPlayer()": "2526",
						"getAmountWinner()": "4652",
						"getBalance()": "2438",
						"getListWinner(uint256)": "7174",
						"getPlayers(uint256)": "infinite",
						"getWinnerByLottery(uint256)": "2932",
						"lotteryHistory(uint256)": "2884",
						"lotteryId()": "2473",
						"rawFulfillRandomWords(uint256,uint256[])": "infinite",
						"s_randomWords(uint256)": "infinite",
						"s_requestId()": "2495"
					},
					"internal": {
						"_requestRandomWords()": "infinite",
						"_transferPrize(uint256,address payable)": "infinite",
						"fulfillRandomWords(uint256,uint256[] memory)": "infinite",
						"increasePlayerCount()": "24366"
					}
				},
				"methodIdentifiers": {
					"closeLottery()": "6fd09816",
					"enter(uint256)": "a59f3e0c",
					"getAmountPlayer()": "32eb85a4",
					"getAmountWinner()": "693521d5",
					"getBalance()": "12065fe0",
					"getListWinner(uint256)": "18b425ff",
					"getPlayers(uint256)": "460e2049",
					"getWinnerByLottery(uint256)": "281d098d",
					"lotteryHistory(uint256)": "6d6fe230",
					"lotteryId()": "e580f47b",
					"rawFulfillRandomWords(uint256,uint256[])": "1fe543e3",
					"s_randomWords(uint256)": "f6eaffc8",
					"s_requestId()": "e89e106a"
				}
			},
			"storageLayout": {
				"storage": [
					{
						"astId": 721,
						"contract": "contracts/Lottery.sol:Lottery",
						"label": "callbackGasLimit",
						"offset": 0,
						"slot": "0",
						"type": "t_uint32"
					},
					{
						"astId": 724,
						"contract": "contracts/Lottery.sol:Lottery",
						"label": "requestConfirmations",
						"offset": 4,
						"slot": "0",
						"type": "t_uint16"
					},
					{
						"astId": 727,
						"contract": "contracts/Lottery.sol:Lottery",
						"label": "numWords",
						"offset": 6,
						"slot": "0",
						"type": "t_uint32"
					},
					{
						"astId": 730,
						"contract": "contracts/Lottery.sol:Lottery",
						"label": "s_randomWords",
						"offset": 0,
						"slot": "1",
						"type": "t_array(t_uint256)dyn_storage"
					},
					{
						"astId": 732,
						"contract": "contracts/Lottery.sol:Lottery",
						"label": "s_requestId",
						"offset": 0,
						"slot": "2",
						"type": "t_uint256"
					},
					{
						"astId": 736,
						"contract": "contracts/Lottery.sol:Lottery",
						"label": "s_owner",
						"offset": 0,
						"slot": "3",
						"type": "t_address"
					},
					{
						"astId": 738,
						"contract": "contracts/Lottery.sol:Lottery",
						"label": "lotteryId",
						"offset": 0,
						"slot": "4",
						"type": "t_uint256"
					},
					{
						"astId": 742,
						"contract": "contracts/Lottery.sol:Lottery",
						"label": "lotteryHistory",
						"offset": 0,
						"slot": "5",
						"type": "t_mapping(t_uint256,t_address_payable)"
					},
					{
						"astId": 751,
						"contract": "contracts/Lottery.sol:Lottery",
						"label": "groupTicket",
						"offset": 0,
						"slot": "6",
						"type": "t_mapping(t_uint256,t_struct(ListNumberTicket)746_storage)"
					},
					{
						"astId": 761,
						"contract": "contracts/Lottery.sol:Lottery",
						"label": "allLottery",
						"offset": 0,
						"slot": "7",
						"type": "t_mapping(t_uint256,t_struct(Participants)756_storage)"
					},
					{
						"astId": 764,
						"contract": "contracts/Lottery.sol:Lottery",
						"label": "playerCount",
						"offset": 0,
						"slot": "8",
						"type": "t_uint256"
					},
					{
						"astId": 766,
						"contract": "contracts/Lottery.sol:Lottery",
						"label": "prizePool",
						"offset": 0,
						"slot": "9",
						"type": "t_uint256"
					},
					{
						"astId": 768,
						"contract": "contracts/Lottery.sol:Lottery",
						"label": "luckyNumber",
						"offset": 0,
						"slot": "10",
						"type": "t_uint256"
					}
				],
				"types": {
					"t_address": {
						"encoding": "inplace",
						"label": "address",
						"numberOfBytes": "20"
					},
					"t_address_payable": {
						"encoding": "inplace",
						"label": "address payable",
						"numberOfBytes": "20"
					},
					"t_array(t_address_payable)dyn_storage": {
						"base": "t_address_payable",
						"encoding": "dynamic_array",
						"label": "address payable[]",
						"numberOfBytes": "32"
					},
					"t_array(t_uint256)dyn_storage": {
						"base": "t_uint256",
						"encoding": "dynamic_array",
						"label": "uint256[]",
						"numberOfBytes": "32"
					},
					"t_mapping(t_uint256,t_address_payable)": {
						"encoding": "mapping",
						"key": "t_uint256",
						"label": "mapping(uint256 => address payable)",
						"numberOfBytes": "32",
						"value": "t_address_payable"
					},
					"t_mapping(t_uint256,t_struct(ListNumberTicket)746_storage)": {
						"encoding": "mapping",
						"key": "t_uint256",
						"label": "mapping(uint256 => struct Lottery.ListNumberTicket)",
						"numberOfBytes": "32",
						"value": "t_struct(ListNumberTicket)746_storage"
					},
					"t_mapping(t_uint256,t_struct(Participants)756_storage)": {
						"encoding": "mapping",
						"key": "t_uint256",
						"label": "mapping(uint256 => struct Lottery.Participants)",
						"numberOfBytes": "32",
						"value": "t_struct(Participants)756_storage"
					},
					"t_struct(ListNumberTicket)746_storage": {
						"encoding": "inplace",
						"label": "struct Lottery.ListNumberTicket",
						"members": [
							{
								"astId": 745,
								"contract": "contracts/Lottery.sol:Lottery",
								"label": "groupPlayer",
								"offset": 0,
								"slot": "0",
								"type": "t_array(t_address_payable)dyn_storage"
							}
						],
						"numberOfBytes": "32"
					},
					"t_struct(Participants)756_storage": {
						"encoding": "inplace",
						"label": "struct Lottery.Participants",
						"members": [
							{
								"astId": 753,
								"contract": "contracts/Lottery.sol:Lottery",
								"label": "player",
								"offset": 0,
								"slot": "0",
								"type": "t_address_payable"
							},
							{
								"astId": 755,
								"contract": "contracts/Lottery.sol:Lottery",
								"label": "numTicket",
								"offset": 0,
								"slot": "1",
								"type": "t_uint256"
							}
						],
						"numberOfBytes": "64"
					},
					"t_uint16": {
						"encoding": "inplace",
						"label": "uint16",
						"numberOfBytes": "2"
					},
					"t_uint256": {
						"encoding": "inplace",
						"label": "uint256",
						"numberOfBytes": "32"
					},
					"t_uint32": {
						"encoding": "inplace",
						"label": "uint32",
						"numberOfBytes": "4"
					}
				}
			},
			"userdoc": {
				"kind": "user",
				"methods": {},
				"version": 1
			}
		}
	}
}