{
	"contracts/Lottery_backup.sol": {
		"Lottery": {
			"abi": [
				{
					"inputs": [
						{
							"internalType": "address",
							"name": "have",
							"type": "address"
						},
						{
							"internalType": "address",
							"name": "want",
							"type": "address"
						}
					],
					"name": "OnlyCoordinatorCanFulfill",
					"type": "error"
				},
				{
					"anonymous": false,
					"inputs": [
						{
							"indexed": false,
							"internalType": "uint256",
							"name": "lotteryId",
							"type": "uint256"
						}
					],
					"name": "ClaimedReward",
					"type": "event"
				},
				{
					"anonymous": false,
					"inputs": [
						{
							"indexed": false,
							"internalType": "uint256",
							"name": "lotteryId",
							"type": "uint256"
						}
					],
					"name": "ClosedLottery",
					"type": "event"
				},
				{
					"anonymous": false,
					"inputs": [
						{
							"indexed": false,
							"internalType": "uint256",
							"name": "lotteryId",
							"type": "uint256"
						}
					],
					"name": "CompletedLottery",
					"type": "event"
				},
				{
					"anonymous": false,
					"inputs": [
						{
							"indexed": false,
							"internalType": "uint8",
							"name": "version",
							"type": "uint8"
						}
					],
					"name": "Initialized",
					"type": "event"
				},
				{
					"anonymous": false,
					"inputs": [
						{
							"indexed": false,
							"internalType": "uint256",
							"name": "lotteryId",
							"type": "uint256"
						}
					],
					"name": "OpenedLottery",
					"type": "event"
				},
				{
					"anonymous": false,
					"inputs": [
						{
							"indexed": true,
							"internalType": "address",
							"name": "previousOwner",
							"type": "address"
						},
						{
							"indexed": true,
							"internalType": "address",
							"name": "newOwner",
							"type": "address"
						}
					],
					"name": "OwnershipTransferred",
					"type": "event"
				},
				{
					"anonymous": false,
					"inputs": [
						{
							"indexed": false,
							"internalType": "uint256",
							"name": "requestId",
							"type": "uint256"
						}
					],
					"name": "RequestedRandomWords",
					"type": "event"
				},
				{
					"inputs": [
						{
							"internalType": "uint256",
							"name": "",
							"type": "uint256"
						}
					],
					"name": "allLotteries",
					"outputs": [
						{
							"internalType": "uint256",
							"name": "lotteryID",
							"type": "uint256"
						},
						{
							"internalType": "uint256",
							"name": "prizePool",
							"type": "uint256"
						},
						{
							"internalType": "uint256",
							"name": "costPerTicket",
							"type": "uint256"
						},
						{
							"internalType": "uint256",
							"name": "startingTimestamp",
							"type": "uint256"
						},
						{
							"internalType": "uint256",
							"name": "closingTimestamp",
							"type": "uint256"
						},
						{
							"internalType": "address",
							"name": "winner",
							"type": "address"
						},
						{
							"internalType": "uint256",
							"name": "randomNumber",
							"type": "uint256"
						}
					],
					"stateMutability": "view",
					"type": "function"
				},
				{
					"inputs": [],
					"name": "buyTicket",
					"outputs": [],
					"stateMutability": "payable",
					"type": "function"
				},
				{
					"inputs": [],
					"name": "claimReward",
					"outputs": [],
					"stateMutability": "nonpayable",
					"type": "function"
				},
				{
					"inputs": [],
					"name": "closeLottery",
					"outputs": [],
					"stateMutability": "nonpayable",
					"type": "function"
				},
				{
					"inputs": [],
					"name": "costPerTicket",
					"outputs": [
						{
							"internalType": "uint256",
							"name": "",
							"type": "uint256"
						}
					],
					"stateMutability": "view",
					"type": "function"
				},
				{
					"inputs": [],
					"name": "initialize",
					"outputs": [],
					"stateMutability": "nonpayable",
					"type": "function"
				},
				{
					"inputs": [],
					"name": "lotteryDuration",
					"outputs": [
						{
							"internalType": "uint256",
							"name": "",
							"type": "uint256"
						}
					],
					"stateMutability": "view",
					"type": "function"
				},
				{
					"inputs": [],
					"name": "lotteryID",
					"outputs": [
						{
							"internalType": "uint256",
							"name": "",
							"type": "uint256"
						}
					],
					"stateMutability": "view",
					"type": "function"
				},
				{
					"inputs": [],
					"name": "lotteryStatus",
					"outputs": [
						{
							"internalType": "enum Lottery.Status",
							"name": "",
							"type": "uint8"
						}
					],
					"stateMutability": "view",
					"type": "function"
				},
				{
					"inputs": [],
					"name": "owner",
					"outputs": [
						{
							"internalType": "address",
							"name": "",
							"type": "address"
						}
					],
					"stateMutability": "view",
					"type": "function"
				},
				{
					"inputs": [
						{
							"internalType": "uint256",
							"name": "",
							"type": "uint256"
						}
					],
					"name": "participants",
					"outputs": [
						{
							"internalType": "address payable",
							"name": "",
							"type": "address"
						}
					],
					"stateMutability": "view",
					"type": "function"
				},
				{
					"inputs": [],
					"name": "prizePool",
					"outputs": [
						{
							"internalType": "uint256",
							"name": "",
							"type": "uint256"
						}
					],
					"stateMutability": "view",
					"type": "function"
				},
				{
					"inputs": [],
					"name": "randomResult",
					"outputs": [
						{
							"internalType": "uint256",
							"name": "",
							"type": "uint256"
						}
					],
					"stateMutability": "view",
					"type": "function"
				},
				{
					"inputs": [
						{
							"internalType": "uint256",
							"name": "requestId",
							"type": "uint256"
						},
						{
							"internalType": "uint256[]",
							"name": "randomWords",
							"type": "uint256[]"
						}
					],
					"name": "rawFulfillRandomWords",
					"outputs": [],
					"stateMutability": "nonpayable",
					"type": "function"
				},
				{
					"inputs": [],
					"name": "renounceOwnership",
					"outputs": [],
					"stateMutability": "nonpayable",
					"type": "function"
				},
				{
					"inputs": [
						{
							"internalType": "uint256",
							"name": "_ticketPrice",
							"type": "uint256"
						},
						{
							"internalType": "uint8",
							"name": "_winnerPercentage",
							"type": "uint8"
						},
						{
							"internalType": "uint256",
							"name": "_lotteryDuration",
							"type": "uint256"
						}
					],
					"name": "startLottery",
					"outputs": [],
					"stateMutability": "nonpayable",
					"type": "function"
				},
				{
					"inputs": [],
					"name": "startingTimestamp",
					"outputs": [
						{
							"internalType": "uint256",
							"name": "",
							"type": "uint256"
						}
					],
					"stateMutability": "view",
					"type": "function"
				},
				{
					"inputs": [
						{
							"internalType": "address",
							"name": "newOwner",
							"type": "address"
						}
					],
					"name": "transferOwnership",
					"outputs": [],
					"stateMutability": "nonpayable",
					"type": "function"
				},
				{
					"inputs": [],
					"name": "winner",
					"outputs": [
						{
							"internalType": "address payable",
							"name": "",
							"type": "address"
						}
					],
					"stateMutability": "view",
					"type": "function"
				},
				{
					"inputs": [],
					"name": "winnerPercentage",
					"outputs": [
						{
							"internalType": "uint8",
							"name": "",
							"type": "uint8"
						}
					],
					"stateMutability": "view",
					"type": "function"
				},
				{
					"inputs": [],
					"name": "withdrawEth",
					"outputs": [],
					"stateMutability": "nonpayable",
					"type": "function"
				}
			],
			"devdoc": {
				"kind": "dev",
				"methods": {
					"owner()": {
						"details": "Returns the address of the current owner."
					},
					"renounceOwnership()": {
						"details": "Leaves the contract without owner. It will not be possible to call `onlyOwner` functions anymore. Can only be called by the current owner. NOTE: Renouncing ownership will leave the contract without an owner, thereby removing any functionality that is only available to the owner."
					},
					"transferOwnership(address)": {
						"details": "Transfers ownership of the contract to a new account (`newOwner`). Can only be called by the current owner."
					}
				},
				"version": 1
			},
			"evm": {
				"assembly": "    /* \"contracts/Lottery_backup.sol\":353:6527  contract Lottery is... */\n  mstore(0x40, 0xa0)\n    /* \"contracts/Lottery_backup.sol\":1084:1085  1 */\n  0x01\n    /* \"contracts/Lottery_backup.sol\":1053:1085  uint256 public costPerTicket = 1 */\n  0x69\n  sstore\n    /* \"contracts/Lottery_backup.sol\":1298:1301  600 */\n  0x0258\n    /* \"contracts/Lottery_backup.sol\":1265:1301  uint256 public lotteryDuration = 600 */\n  0x6f\n  sstore\n    /* \"contracts/Lottery_backup.sol\":1339:1341  10 */\n  0x0a\n    /* \"contracts/Lottery_backup.sol\":1307:1341  uint8 public winnerPercentage = 10 */\n  0x70\n  exp(0x0100, 0x00)\n  dup2\n  sload\n  dup2\n  0xff\n  mul\n  not\n  and\n  swap1\n  dup4\n  0xff\n  and\n  mul\n  or\n  swap1\n  sstore\n  pop\n    /* \"contracts/Lottery_backup.sol\":1723:1741  Status.NOT_STARTED */\n  0x00\n    /* \"contracts/Lottery_backup.sol\":1693:1741  Status public lotteryStatus = Status.NOT_STARTED */\n  0x70\n  exp(0x0100, 0x01)\n  dup2\n  sload\n  dup2\n  0xff\n  mul\n  not\n  and\n  swap1\n  dup4\n  0x03\n  dup2\n  gt\n  iszero\n  tag_1\n  jumpi\n  tag_2\n  tag_3\n  jump\t// in\ntag_2:\ntag_1:\n  mul\n  or\n  swap1\n  sstore\n  pop\n    /* \"contracts/Lottery_backup.sol\":353:6527  contract Lottery is... */\n  callvalue\n  dup1\n  iszero\n  tag_4\n  jumpi\n  0x00\n  dup1\n  revert\ntag_4:\n  pop\n    /* \"contracts/Lottery_backup.sol\":438:480  0x6168499c0cFfCaCD319c818142124B7A15E857ab */\n  0x6168499c0cffcacd319c818142124b7a15e857ab\n    /* \"@chainlink/contracts/src/v0.8/VRFConsumerBaseV2.sol\":5616:5631  _vrfCoordinator */\n  dup1\n    /* \"@chainlink/contracts/src/v0.8/VRFConsumerBaseV2.sol\":5599:5631  vrfCoordinator = _vrfCoordinator */\n  0xffffffffffffffffffffffffffffffffffffffff\n  and\n  0x80\n  dup2\n  0xffffffffffffffffffffffffffffffffffffffff\n  and\n  dup2\n  mstore\n  pop\n  pop\n    /* \"@chainlink/contracts/src/v0.8/VRFConsumerBaseV2.sol\":5556:5636  constructor(address _vrfCoordinator) {... */\n  pop\n    /* \"contracts/Lottery_backup.sol\":353:6527  contract Lottery is... */\n  jump(tag_7)\n    /* \"#utility.yul\":7:187   */\ntag_3:\n    /* \"#utility.yul\":55:132   */\n  0x4e487b7100000000000000000000000000000000000000000000000000000000\n    /* \"#utility.yul\":52:53   */\n  0x00\n    /* \"#utility.yul\":45:133   */\n  mstore\n    /* \"#utility.yul\":152:156   */\n  0x21\n    /* \"#utility.yul\":149:150   */\n  0x04\n    /* \"#utility.yul\":142:157   */\n  mstore\n    /* \"#utility.yul\":176:180   */\n  0x24\n    /* \"#utility.yul\":173:174   */\n  0x00\n    /* \"#utility.yul\":166:181   */\n  revert\n    /* \"contracts/Lottery_backup.sol\":353:6527  contract Lottery is... */\ntag_7:\n  mload(0x80)\n  codecopy(0x00, dataOffset(sub_0), dataSize(sub_0))\n  0x00\n  assignImmutable(\"0x1a192fabce13988b84994d4296e6cdc418d55e2f1d7f942188d4040b94fc57ac\")\n  return(0x00, dataSize(sub_0))\nstop\n\nsub_0: assembly {\n        /* \"contracts/Lottery_backup.sol\":353:6527  contract Lottery is... */\n      mstore(0x40, 0x80)\n      jumpi(tag_1, lt(calldatasize, 0x04))\n      shr(0xe0, calldataload(0x00))\n      dup1\n      0x8129fc1c\n      gt\n      tag_23\n      jumpi\n      dup1\n      0x9be064c1\n      gt\n      tag_24\n      jumpi\n      dup1\n      0x9be064c1\n      eq\n      tag_17\n      jumpi\n      dup1\n      0xa0ef91df\n      eq\n      tag_18\n      jumpi\n      dup1\n      0xb88a802f\n      eq\n      tag_19\n      jumpi\n      dup1\n      0xdfbf53ae\n      eq\n      tag_20\n      jumpi\n      dup1\n      0xedca914c\n      eq\n      tag_21\n      jumpi\n      dup1\n      0xf2fde38b\n      eq\n      tag_22\n      jumpi\n      jump(tag_1)\n    tag_24:\n      dup1\n      0x8129fc1c\n      eq\n      tag_12\n      jumpi\n      dup1\n      0x82628fbe\n      eq\n      tag_13\n      jumpi\n      dup1\n      0x82b98f9d\n      eq\n      tag_14\n      jumpi\n      dup1\n      0x88786272\n      eq\n      tag_15\n      jumpi\n      dup1\n      0x8da5cb5b\n      eq\n      tag_16\n      jumpi\n      jump(tag_1)\n    tag_23:\n      dup1\n      0x43531c61\n      gt\n      tag_25\n      jumpi\n      dup1\n      0x43531c61\n      eq\n      tag_7\n      jumpi\n      dup1\n      0x46f9bedf\n      eq\n      tag_8\n      jumpi\n      dup1\n      0x6fd09816\n      eq\n      tag_9\n      jumpi\n      dup1\n      0x715018a6\n      eq\n      tag_10\n      jumpi\n      dup1\n      0x719ce73e\n      eq\n      tag_11\n      jumpi\n      jump(tag_1)\n    tag_25:\n      dup1\n      0x0d683dd9\n      eq\n      tag_2\n      jumpi\n      dup1\n      0x1fe543e3\n      eq\n      tag_3\n      jumpi\n      dup1\n      0x2d97902f\n      eq\n      tag_4\n      jumpi\n      dup1\n      0x35c1d349\n      eq\n      tag_5\n      jumpi\n      dup1\n      0x42619f66\n      eq\n      tag_6\n      jumpi\n    tag_1:\n      0x00\n      dup1\n      revert\n        /* \"contracts/Lottery_backup.sol\":1693:1741  Status public lotteryStatus = Status.NOT_STARTED */\n    tag_2:\n      callvalue\n      dup1\n      iszero\n      tag_26\n      jumpi\n      0x00\n      dup1\n      revert\n    tag_26:\n      pop\n      tag_27\n      tag_28\n      jump\t// in\n    tag_27:\n      mload(0x40)\n      tag_29\n      swap2\n      swap1\n      tag_30\n      jump\t// in\n    tag_29:\n      mload(0x40)\n      dup1\n      swap2\n      sub\n      swap1\n      return\n        /* \"@chainlink/contracts/src/v0.8/VRFConsumerBaseV2.sol\":6618:6874  function rawFulfillRandomWords(uint256 requestId, uint256[] memory randomWords) external {... */\n    tag_3:\n      callvalue\n      dup1\n      iszero\n      tag_31\n      jumpi\n      0x00\n      dup1\n      revert\n    tag_31:\n      pop\n      tag_32\n      0x04\n      dup1\n      calldatasize\n      sub\n      dup2\n      add\n      swap1\n      tag_33\n      swap2\n      swap1\n      tag_34\n      jump\t// in\n    tag_33:\n      tag_35\n      jump\t// in\n    tag_32:\n      stop\n        /* \"contracts/Lottery_backup.sol\":1265:1301  uint256 public lotteryDuration = 600 */\n    tag_4:\n      callvalue\n      dup1\n      iszero\n      tag_36\n      jumpi\n      0x00\n      dup1\n      revert\n    tag_36:\n      pop\n      tag_37\n      tag_38\n      jump\t// in\n    tag_37:\n      mload(0x40)\n      tag_39\n      swap2\n      swap1\n      tag_40\n      jump\t// in\n    tag_39:\n      mload(0x40)\n      dup1\n      swap2\n      sub\n      swap1\n      return\n        /* \"contracts/Lottery_backup.sol\":1010:1047  address payable[] public participants */\n    tag_5:\n      callvalue\n      dup1\n      iszero\n      tag_41\n      jumpi\n      0x00\n      dup1\n      revert\n    tag_41:\n      pop\n      tag_42\n      0x04\n      dup1\n      calldatasize\n      sub\n      dup2\n      add\n      swap1\n      tag_43\n      swap2\n      swap1\n      tag_44\n      jump\t// in\n    tag_43:\n      tag_45\n      jump\t// in\n    tag_42:\n      mload(0x40)\n      tag_46\n      swap2\n      swap1\n      tag_47\n      jump\t// in\n    tag_46:\n      mload(0x40)\n      dup1\n      swap2\n      sub\n      swap1\n      return\n        /* \"contracts/Lottery_backup.sol\":1232:1259  uint256 public randomResult */\n    tag_6:\n      callvalue\n      dup1\n      iszero\n      tag_48\n      jumpi\n      0x00\n      dup1\n      revert\n    tag_48:\n      pop\n      tag_49\n      tag_50\n      jump\t// in\n    tag_49:\n      mload(0x40)\n      tag_51\n      swap2\n      swap1\n      tag_40\n      jump\t// in\n    tag_51:\n      mload(0x40)\n      dup1\n      swap2\n      sub\n      swap1\n      return\n        /* \"contracts/Lottery_backup.sol\":1987:2038  mapping(uint256 => LotteryInfo) public allLotteries */\n    tag_7:\n      callvalue\n      dup1\n      iszero\n      tag_52\n      jumpi\n      0x00\n      dup1\n      revert\n    tag_52:\n      pop\n      tag_53\n      0x04\n      dup1\n      calldatasize\n      sub\n      dup2\n      add\n      swap1\n      tag_54\n      swap2\n      swap1\n      tag_44\n      jump\t// in\n    tag_54:\n      tag_55\n      jump\t// in\n    tag_53:\n      mload(0x40)\n      tag_56\n      swap8\n      swap7\n      swap6\n      swap5\n      swap4\n      swap3\n      swap2\n      swap1\n      tag_57\n      jump\t// in\n    tag_56:\n      mload(0x40)\n      dup1\n      swap2\n      sub\n      swap1\n      return\n        /* \"contracts/Lottery_backup.sol\":1053:1085  uint256 public costPerTicket = 1 */\n    tag_8:\n      callvalue\n      dup1\n      iszero\n      tag_58\n      jumpi\n      0x00\n      dup1\n      revert\n    tag_58:\n      pop\n      tag_59\n      tag_60\n      jump\t// in\n    tag_59:\n      mload(0x40)\n      tag_61\n      swap2\n      swap1\n      tag_40\n      jump\t// in\n    tag_61:\n      mload(0x40)\n      dup1\n      swap2\n      sub\n      swap1\n      return\n        /* \"contracts/Lottery_backup.sol\":4264:4522  function closeLottery() external canClose onlyOwner {... */\n    tag_9:\n      callvalue\n      dup1\n      iszero\n      tag_62\n      jumpi\n      0x00\n      dup1\n      revert\n    tag_62:\n      pop\n      tag_63\n      tag_64\n      jump\t// in\n    tag_63:\n      stop\n        /* \"@openzeppelin/contracts-upgradeable/access/OwnableUpgradeable.sol\":1908:2009  function renounceOwnership() public virtual onlyOwner {... */\n    tag_10:\n      callvalue\n      dup1\n      iszero\n      tag_65\n      jumpi\n      0x00\n      dup1\n      revert\n    tag_65:\n      pop\n      tag_66\n      tag_67\n      jump\t// in\n    tag_66:\n      stop\n        /* \"contracts/Lottery_backup.sol\":1091:1115  uint256 public prizePool */\n    tag_11:\n      callvalue\n      dup1\n      iszero\n      tag_68\n      jumpi\n      0x00\n      dup1\n      revert\n    tag_68:\n      pop\n      tag_69\n      tag_70\n      jump\t// in\n    tag_69:\n      mload(0x40)\n      tag_71\n      swap2\n      swap1\n      tag_40\n      jump\t// in\n    tag_71:\n      mload(0x40)\n      dup1\n      swap2\n      sub\n      swap1\n      return\n        /* \"contracts/Lottery_backup.sol\":3545:3621  function initialize() external initializer {... */\n    tag_12:\n      callvalue\n      dup1\n      iszero\n      tag_72\n      jumpi\n      0x00\n      dup1\n      revert\n    tag_72:\n      pop\n      tag_73\n      tag_74\n      jump\t// in\n    tag_73:\n      stop\n        /* \"contracts/Lottery_backup.sol\":3627:4040  function startLottery(... */\n    tag_13:\n      callvalue\n      dup1\n      iszero\n      tag_75\n      jumpi\n      0x00\n      dup1\n      revert\n    tag_75:\n      pop\n      tag_76\n      0x04\n      dup1\n      calldatasize\n      sub\n      dup2\n      add\n      swap1\n      tag_77\n      swap2\n      swap1\n      tag_78\n      jump\t// in\n    tag_77:\n      tag_79\n      jump\t// in\n    tag_76:\n      stop\n        /* \"contracts/Lottery_backup.sol\":1307:1341  uint8 public winnerPercentage = 10 */\n    tag_14:\n      callvalue\n      dup1\n      iszero\n      tag_80\n      jumpi\n      0x00\n      dup1\n      revert\n    tag_80:\n      pop\n      tag_81\n      tag_82\n      jump\t// in\n    tag_81:\n      mload(0x40)\n      tag_83\n      swap2\n      swap1\n      tag_84\n      jump\t// in\n    tag_83:\n      mload(0x40)\n      dup1\n      swap2\n      sub\n      swap1\n      return\n        /* \"contracts/Lottery_backup.sol\":1121:1153  uint256 public startingTimestamp */\n    tag_15:\n      callvalue\n      dup1\n      iszero\n      tag_85\n      jumpi\n      0x00\n      dup1\n      revert\n    tag_85:\n      pop\n      tag_86\n      tag_87\n      jump\t// in\n    tag_86:\n      mload(0x40)\n      tag_88\n      swap2\n      swap1\n      tag_40\n      jump\t// in\n    tag_88:\n      mload(0x40)\n      dup1\n      swap2\n      sub\n      swap1\n      return\n        /* \"@openzeppelin/contracts-upgradeable/access/OwnableUpgradeable.sol\":1276:1361  function owner() public view virtual returns (address) {... */\n    tag_16:\n      callvalue\n      dup1\n      iszero\n      tag_89\n      jumpi\n      0x00\n      dup1\n      revert\n    tag_89:\n      pop\n      tag_90\n      tag_91\n      jump\t// in\n    tag_90:\n      mload(0x40)\n      tag_92\n      swap2\n      swap1\n      tag_93\n      jump\t// in\n    tag_92:\n      mload(0x40)\n      dup1\n      swap2\n      sub\n      swap1\n      return\n        /* \"contracts/Lottery_backup.sol\":980:1004  uint256 public lotteryID */\n    tag_17:\n      callvalue\n      dup1\n      iszero\n      tag_94\n      jumpi\n      0x00\n      dup1\n      revert\n    tag_94:\n      pop\n      tag_95\n      tag_96\n      jump\t// in\n    tag_95:\n      mload(0x40)\n      tag_97\n      swap2\n      swap1\n      tag_40\n      jump\t// in\n    tag_97:\n      mload(0x40)\n      dup1\n      swap2\n      sub\n      swap1\n      return\n        /* \"contracts/Lottery_backup.sol\":4846:5016  function withdrawEth() external onlyOwner {... */\n    tag_18:\n      callvalue\n      dup1\n      iszero\n      tag_98\n      jumpi\n      0x00\n      dup1\n      revert\n    tag_98:\n      pop\n      tag_99\n      tag_100\n      jump\t// in\n    tag_99:\n      stop\n        /* \"contracts/Lottery_backup.sol\":4528:4840  function claimReward()... */\n    tag_19:\n      callvalue\n      dup1\n      iszero\n      tag_101\n      jumpi\n      0x00\n      dup1\n      revert\n    tag_101:\n      pop\n      tag_102\n      tag_103\n      jump\t// in\n    tag_102:\n      stop\n        /* \"contracts/Lottery_backup.sol\":1197:1226  address payable public winner */\n    tag_20:\n      callvalue\n      dup1\n      iszero\n      tag_104\n      jumpi\n      0x00\n      dup1\n      revert\n    tag_104:\n      pop\n      tag_105\n      tag_106\n      jump\t// in\n    tag_105:\n      mload(0x40)\n      tag_107\n      swap2\n      swap1\n      tag_47\n      jump\t// in\n    tag_107:\n      mload(0x40)\n      dup1\n      swap2\n      sub\n      swap1\n      return\n        /* \"contracts/Lottery_backup.sol\":4046:4258  function buyTicket() external payable ifOpen {... */\n    tag_21:\n      tag_108\n      tag_109\n      jump\t// in\n    tag_108:\n      stop\n        /* \"@openzeppelin/contracts-upgradeable/access/OwnableUpgradeable.sol\":2158:2356  function transferOwnership(address newOwner) public virtual onlyOwner {... */\n    tag_22:\n      callvalue\n      dup1\n      iszero\n      tag_110\n      jumpi\n      0x00\n      dup1\n      revert\n    tag_110:\n      pop\n      tag_111\n      0x04\n      dup1\n      calldatasize\n      sub\n      dup2\n      add\n      swap1\n      tag_112\n      swap2\n      swap1\n      tag_113\n      jump\t// in\n    tag_112:\n      tag_114\n      jump\t// in\n    tag_111:\n      stop\n        /* \"contracts/Lottery_backup.sol\":1693:1741  Status public lotteryStatus = Status.NOT_STARTED */\n    tag_28:\n      0x70\n      0x01\n      swap1\n      sload\n      swap1\n      0x0100\n      exp\n      swap1\n      div\n      0xff\n      and\n      dup2\n      jump\t// out\n        /* \"@chainlink/contracts/src/v0.8/VRFConsumerBaseV2.sol\":6618:6874  function rawFulfillRandomWords(uint256 requestId, uint256[] memory randomWords) external {... */\n    tag_35:\n        /* \"@chainlink/contracts/src/v0.8/VRFConsumerBaseV2.sol\":6731:6745  vrfCoordinator */\n      immutable(\"0x1a192fabce13988b84994d4296e6cdc418d55e2f1d7f942188d4040b94fc57ac\")\n        /* \"@chainlink/contracts/src/v0.8/VRFConsumerBaseV2.sol\":6717:6745  msg.sender != vrfCoordinator */\n      0xffffffffffffffffffffffffffffffffffffffff\n      and\n        /* \"@chainlink/contracts/src/v0.8/VRFConsumerBaseV2.sol\":6717:6727  msg.sender */\n      caller\n        /* \"@chainlink/contracts/src/v0.8/VRFConsumerBaseV2.sol\":6717:6745  msg.sender != vrfCoordinator */\n      0xffffffffffffffffffffffffffffffffffffffff\n      and\n      eq\n        /* \"@chainlink/contracts/src/v0.8/VRFConsumerBaseV2.sol\":6713:6822  if (msg.sender != vrfCoordinator) {... */\n      tag_116\n      jumpi\n        /* \"@chainlink/contracts/src/v0.8/VRFConsumerBaseV2.sol\":6788:6798  msg.sender */\n      caller\n        /* \"@chainlink/contracts/src/v0.8/VRFConsumerBaseV2.sol\":6800:6814  vrfCoordinator */\n      immutable(\"0x1a192fabce13988b84994d4296e6cdc418d55e2f1d7f942188d4040b94fc57ac\")\n        /* \"@chainlink/contracts/src/v0.8/VRFConsumerBaseV2.sol\":6762:6815  OnlyCoordinatorCanFulfill(msg.sender, vrfCoordinator) */\n      mload(0x40)\n      0x1cf993f400000000000000000000000000000000000000000000000000000000\n      dup2\n      mstore\n      0x04\n      add\n      tag_117\n      swap3\n      swap2\n      swap1\n      tag_118\n      jump\t// in\n    tag_117:\n      mload(0x40)\n      dup1\n      swap2\n      sub\n      swap1\n      revert\n        /* \"@chainlink/contracts/src/v0.8/VRFConsumerBaseV2.sol\":6713:6822  if (msg.sender != vrfCoordinator) {... */\n    tag_116:\n        /* \"@chainlink/contracts/src/v0.8/VRFConsumerBaseV2.sol\":6827:6869  fulfillRandomWords(requestId, randomWords) */\n      tag_119\n        /* \"@chainlink/contracts/src/v0.8/VRFConsumerBaseV2.sol\":6846:6855  requestId */\n      dup3\n        /* \"@chainlink/contracts/src/v0.8/VRFConsumerBaseV2.sol\":6857:6868  randomWords */\n      dup3\n        /* \"@chainlink/contracts/src/v0.8/VRFConsumerBaseV2.sol\":6827:6845  fulfillRandomWords */\n      tag_120\n        /* \"@chainlink/contracts/src/v0.8/VRFConsumerBaseV2.sol\":6827:6869  fulfillRandomWords(requestId, randomWords) */\n      jump\t// in\n    tag_119:\n        /* \"@chainlink/contracts/src/v0.8/VRFConsumerBaseV2.sol\":6618:6874  function rawFulfillRandomWords(uint256 requestId, uint256[] memory randomWords) external {... */\n      pop\n      pop\n      jump\t// out\n        /* \"contracts/Lottery_backup.sol\":1265:1301  uint256 public lotteryDuration = 600 */\n    tag_38:\n      sload(0x6f)\n      dup2\n      jump\t// out\n        /* \"contracts/Lottery_backup.sol\":1010:1047  address payable[] public participants */\n    tag_45:\n      0x68\n      dup2\n      dup2\n      sload\n      dup2\n      lt\n      tag_121\n      jumpi\n      0x00\n      dup1\n      revert\n    tag_121:\n      swap1\n      0x00\n      mstore\n      keccak256(0x00, 0x20)\n      add\n      0x00\n      swap2\n      pop\n      sload\n      swap1\n      0x0100\n      exp\n      swap1\n      div\n      0xffffffffffffffffffffffffffffffffffffffff\n      and\n      dup2\n      jump\t// out\n        /* \"contracts/Lottery_backup.sol\":1232:1259  uint256 public randomResult */\n    tag_50:\n      sload(0x6e)\n      dup2\n      jump\t// out\n        /* \"contracts/Lottery_backup.sol\":1987:2038  mapping(uint256 => LotteryInfo) public allLotteries */\n    tag_55:\n      mstore(0x20, 0x71)\n      dup1\n      0x00\n      mstore\n      keccak256(0x00, 0x40)\n      0x00\n      swap2\n      pop\n      swap1\n      pop\n      dup1\n      0x00\n      add\n      sload\n      swap1\n      dup1\n      0x01\n      add\n      sload\n      swap1\n      dup1\n      0x02\n      add\n      sload\n      swap1\n      dup1\n      0x03\n      add\n      sload\n      swap1\n      dup1\n      0x04\n      add\n      sload\n      swap1\n      dup1\n      0x05\n      add\n      0x00\n      swap1\n      sload\n      swap1\n      0x0100\n      exp\n      swap1\n      div\n      0xffffffffffffffffffffffffffffffffffffffff\n      and\n      swap1\n      dup1\n      0x06\n      add\n      sload\n      swap1\n      pop\n      dup8\n      jump\t// out\n        /* \"contracts/Lottery_backup.sol\":1053:1085  uint256 public costPerTicket = 1 */\n    tag_60:\n      sload(0x69)\n      dup2\n      jump\t// out\n        /* \"contracts/Lottery_backup.sol\":4264:4522  function closeLottery() external canClose onlyOwner {... */\n    tag_64:\n        /* \"contracts/Lottery_backup.sol\":2344:2355  Status.OPEN */\n      0x01\n        /* \"contracts/Lottery_backup.sol\":2327:2355  lotteryStatus == Status.OPEN */\n      0x03\n      dup2\n      gt\n      iszero\n      tag_124\n      jumpi\n      tag_125\n      tag_126\n      jump\t// in\n    tag_125:\n    tag_124:\n        /* \"contracts/Lottery_backup.sol\":2327:2340  lotteryStatus */\n      0x70\n      0x01\n      swap1\n      sload\n      swap1\n      0x0100\n      exp\n      swap1\n      div\n      0xff\n      and\n        /* \"contracts/Lottery_backup.sol\":2327:2355  lotteryStatus == Status.OPEN */\n      0x03\n      dup2\n      gt\n      iszero\n      tag_127\n      jumpi\n      tag_128\n      tag_126\n      jump\t// in\n    tag_128:\n    tag_127:\n      eq\n        /* \"contracts/Lottery_backup.sol\":2306:2421  require(... */\n      tag_129\n      jumpi\n      mload(0x40)\n      0x08c379a000000000000000000000000000000000000000000000000000000000\n      dup2\n      mstore\n      0x04\n      add\n      tag_130\n      swap1\n      tag_131\n      jump\t// in\n    tag_130:\n      mload(0x40)\n      dup1\n      swap2\n      sub\n      swap1\n      revert\n    tag_129:\n        /* \"contracts/Lottery_backup.sol\":2491:2506  lotteryDuration */\n      sload(0x6f)\n        /* \"contracts/Lottery_backup.sol\":2471:2488  startingTimestamp */\n      sload(0x6b)\n        /* \"contracts/Lottery_backup.sol\":2471:2506  startingTimestamp + lotteryDuration */\n      tag_132\n      swap2\n      swap1\n      tag_133\n      jump\t// in\n    tag_132:\n        /* \"contracts/Lottery_backup.sol\":2452:2467  block.timestamp */\n      timestamp\n        /* \"contracts/Lottery_backup.sol\":2452:2506  block.timestamp >= startingTimestamp + lotteryDuration */\n      lt\n      iszero\n        /* \"contracts/Lottery_backup.sol\":2431:2549  require(... */\n      tag_134\n      jumpi\n      mload(0x40)\n      0x08c379a000000000000000000000000000000000000000000000000000000000\n      dup2\n      mstore\n      0x04\n      add\n      tag_135\n      swap1\n      tag_136\n      jump\t// in\n    tag_135:\n      mload(0x40)\n      dup1\n      swap2\n      sub\n      swap1\n      revert\n    tag_134:\n        /* \"contracts/Lottery_backup.sol\":2583:2584  0 */\n      0x00\n        /* \"contracts/Lottery_backup.sol\":2567:2579  randomResult */\n      sload(0x6e)\n        /* \"contracts/Lottery_backup.sol\":2567:2584  randomResult == 0 */\n      eq\n        /* \"contracts/Lottery_backup.sol\":2559:2604  require(randomResult == 0, \"Already closed!\") */\n      tag_137\n      jumpi\n      mload(0x40)\n      0x08c379a000000000000000000000000000000000000000000000000000000000\n      dup2\n      mstore\n      0x04\n      add\n      tag_138\n      swap1\n      tag_139\n      jump\t// in\n    tag_138:\n      mload(0x40)\n      dup1\n      swap2\n      sub\n      swap1\n      revert\n    tag_137:\n        /* \"@openzeppelin/contracts-upgradeable/access/OwnableUpgradeable.sol\":1499:1511  _msgSender() */\n      tag_141\n        /* \"@openzeppelin/contracts-upgradeable/access/OwnableUpgradeable.sol\":1499:1509  _msgSender */\n      tag_142\n        /* \"@openzeppelin/contracts-upgradeable/access/OwnableUpgradeable.sol\":1499:1511  _msgSender() */\n      jump\t// in\n    tag_141:\n        /* \"@openzeppelin/contracts-upgradeable/access/OwnableUpgradeable.sol\":1488:1511  owner() == _msgSender() */\n      0xffffffffffffffffffffffffffffffffffffffff\n      and\n        /* \"@openzeppelin/contracts-upgradeable/access/OwnableUpgradeable.sol\":1488:1495  owner() */\n      tag_143\n        /* \"@openzeppelin/contracts-upgradeable/access/OwnableUpgradeable.sol\":1488:1493  owner */\n      tag_91\n        /* \"@openzeppelin/contracts-upgradeable/access/OwnableUpgradeable.sol\":1488:1495  owner() */\n      jump\t// in\n    tag_143:\n        /* \"@openzeppelin/contracts-upgradeable/access/OwnableUpgradeable.sol\":1488:1511  owner() == _msgSender() */\n      0xffffffffffffffffffffffffffffffffffffffff\n      and\n      eq\n        /* \"@openzeppelin/contracts-upgradeable/access/OwnableUpgradeable.sol\":1480:1548  require(owner() == _msgSender(), \"Ownable: caller is not the owner\") */\n      tag_144\n      jumpi\n      mload(0x40)\n      0x08c379a000000000000000000000000000000000000000000000000000000000\n      dup2\n      mstore\n      0x04\n      add\n      tag_145\n      swap1\n      tag_146\n      jump\t// in\n    tag_145:\n      mload(0x40)\n      dup1\n      swap2\n      sub\n      swap1\n      revert\n    tag_144:\n        /* \"contracts/Lottery_backup.sol\":4326:4347  _requestRandomWords() */\n      tag_148\n        /* \"contracts/Lottery_backup.sol\":4326:4345  _requestRandomWords */\n      tag_149\n        /* \"contracts/Lottery_backup.sol\":4326:4347  _requestRandomWords() */\n      jump\t// in\n    tag_148:\n        /* \"contracts/Lottery_backup.sol\":4373:4386  Status.CLOSED */\n      0x02\n        /* \"contracts/Lottery_backup.sol\":4357:4370  lotteryStatus */\n      0x70\n      0x01\n        /* \"contracts/Lottery_backup.sol\":4357:4386  lotteryStatus = Status.CLOSED */\n      0x0100\n      exp\n      dup2\n      sload\n      dup2\n      0xff\n      mul\n      not\n      and\n      swap1\n      dup4\n      0x03\n      dup2\n      gt\n      iszero\n      tag_150\n      jumpi\n      tag_151\n      tag_126\n      jump\t// in\n    tag_151:\n    tag_150:\n      mul\n      or\n      swap1\n      sstore\n      pop\n        /* \"contracts/Lottery_backup.sol\":4415:4430  block.timestamp */\n      timestamp\n        /* \"contracts/Lottery_backup.sol\":4396:4412  closingTimestamp */\n      0x6c\n        /* \"contracts/Lottery_backup.sol\":4396:4430  closingTimestamp = block.timestamp */\n      dup2\n      swap1\n      sstore\n      pop\n        /* \"contracts/Lottery_backup.sol\":4445:4476  RequestedRandomWords(requestId) */\n      0xc3d0c9fbc1987665462eec0262eb7fc743a27d411fd3a0b9c20c1c64d99347d3\n        /* \"contracts/Lottery_backup.sol\":4466:4475  requestId */\n      sload(0x66)\n        /* \"contracts/Lottery_backup.sol\":4445:4476  RequestedRandomWords(requestId) */\n      mload(0x40)\n      tag_152\n      swap2\n      swap1\n      tag_40\n      jump\t// in\n    tag_152:\n      mload(0x40)\n      dup1\n      swap2\n      sub\n      swap1\n      log1\n        /* \"contracts/Lottery_backup.sol\":4491:4515  ClosedLottery(lotteryID) */\n      0x9edcbcb9d92149759cf24c59c34fd339e97107442f9c009fa07ec27c726c3af6\n        /* \"contracts/Lottery_backup.sol\":4505:4514  lotteryID */\n      sload(0x67)\n        /* \"contracts/Lottery_backup.sol\":4491:4515  ClosedLottery(lotteryID) */\n      mload(0x40)\n      tag_153\n      swap2\n      swap1\n      tag_40\n      jump\t// in\n    tag_153:\n      mload(0x40)\n      dup1\n      swap2\n      sub\n      swap1\n      log1\n        /* \"contracts/Lottery_backup.sol\":4264:4522  function closeLottery() external canClose onlyOwner {... */\n      jump\t// out\n        /* \"@openzeppelin/contracts-upgradeable/access/OwnableUpgradeable.sol\":1908:2009  function renounceOwnership() public virtual onlyOwner {... */\n    tag_67:\n        /* \"@openzeppelin/contracts-upgradeable/access/OwnableUpgradeable.sol\":1499:1511  _msgSender() */\n      tag_155\n        /* \"@openzeppelin/contracts-upgradeable/access/OwnableUpgradeable.sol\":1499:1509  _msgSender */\n      tag_142\n        /* \"@openzeppelin/contracts-upgradeable/access/OwnableUpgradeable.sol\":1499:1511  _msgSender() */\n      jump\t// in\n    tag_155:\n        /* \"@openzeppelin/contracts-upgradeable/access/OwnableUpgradeable.sol\":1488:1511  owner() == _msgSender() */\n      0xffffffffffffffffffffffffffffffffffffffff\n      and\n        /* \"@openzeppelin/contracts-upgradeable/access/OwnableUpgradeable.sol\":1488:1495  owner() */\n      tag_156\n        /* \"@openzeppelin/contracts-upgradeable/access/OwnableUpgradeable.sol\":1488:1493  owner */\n      tag_91\n        /* \"@openzeppelin/contracts-upgradeable/access/OwnableUpgradeable.sol\":1488:1495  owner() */\n      jump\t// in\n    tag_156:\n        /* \"@openzeppelin/contracts-upgradeable/access/OwnableUpgradeable.sol\":1488:1511  owner() == _msgSender() */\n      0xffffffffffffffffffffffffffffffffffffffff\n      and\n      eq\n        /* \"@openzeppelin/contracts-upgradeable/access/OwnableUpgradeable.sol\":1480:1548  require(owner() == _msgSender(), \"Ownable: caller is not the owner\") */\n      tag_157\n      jumpi\n      mload(0x40)\n      0x08c379a000000000000000000000000000000000000000000000000000000000\n      dup2\n      mstore\n      0x04\n      add\n      tag_158\n      swap1\n      tag_146\n      jump\t// in\n    tag_158:\n      mload(0x40)\n      dup1\n      swap2\n      sub\n      swap1\n      revert\n    tag_157:\n        /* \"@openzeppelin/contracts-upgradeable/access/OwnableUpgradeable.sol\":1972:2002  _transferOwnership(address(0)) */\n      tag_160\n        /* \"@openzeppelin/contracts-upgradeable/access/OwnableUpgradeable.sol\":1999:2000  0 */\n      0x00\n        /* \"@openzeppelin/contracts-upgradeable/access/OwnableUpgradeable.sol\":1972:1990  _transferOwnership */\n      tag_161\n        /* \"@openzeppelin/contracts-upgradeable/access/OwnableUpgradeable.sol\":1972:2002  _transferOwnership(address(0)) */\n      jump\t// in\n    tag_160:\n        /* \"@openzeppelin/contracts-upgradeable/access/OwnableUpgradeable.sol\":1908:2009  function renounceOwnership() public virtual onlyOwner {... */\n      jump\t// out\n        /* \"contracts/Lottery_backup.sol\":1091:1115  uint256 public prizePool */\n    tag_70:\n      sload(0x6a)\n      dup2\n      jump\t// out\n        /* \"contracts/Lottery_backup.sol\":3545:3621  function initialize() external initializer {... */\n    tag_74:\n        /* \"@openzeppelin/contracts-upgradeable/proxy/utils/Initializable.sol\":3111:3130  bool isTopLevelCall */\n      0x00\n        /* \"@openzeppelin/contracts-upgradeable/proxy/utils/Initializable.sol\":3133:3158  _setInitializedVersion(1) */\n      tag_163\n        /* \"@openzeppelin/contracts-upgradeable/proxy/utils/Initializable.sol\":3156:3157  1 */\n      0x01\n        /* \"@openzeppelin/contracts-upgradeable/proxy/utils/Initializable.sol\":3133:3155  _setInitializedVersion */\n      tag_164\n        /* \"@openzeppelin/contracts-upgradeable/proxy/utils/Initializable.sol\":3133:3158  _setInitializedVersion(1) */\n      jump\t// in\n    tag_163:\n        /* \"@openzeppelin/contracts-upgradeable/proxy/utils/Initializable.sol\":3111:3158  bool isTopLevelCall = _setInitializedVersion(1) */\n      swap1\n      pop\n        /* \"@openzeppelin/contracts-upgradeable/proxy/utils/Initializable.sol\":3172:3186  isTopLevelCall */\n      dup1\n        /* \"@openzeppelin/contracts-upgradeable/proxy/utils/Initializable.sol\":3168:3233  if (isTopLevelCall) {... */\n      iszero\n      tag_165\n      jumpi\n        /* \"@openzeppelin/contracts-upgradeable/proxy/utils/Initializable.sol\":3218:3222  true */\n      0x01\n        /* \"@openzeppelin/contracts-upgradeable/proxy/utils/Initializable.sol\":3202:3215  _initializing */\n      0x00\n      0x01\n        /* \"@openzeppelin/contracts-upgradeable/proxy/utils/Initializable.sol\":3202:3222  _initializing = true */\n      0x0100\n      exp\n      dup2\n      sload\n      dup2\n      0xff\n      mul\n      not\n      and\n      swap1\n      dup4\n      iszero\n      iszero\n      mul\n      or\n      swap1\n      sstore\n      pop\n        /* \"@openzeppelin/contracts-upgradeable/proxy/utils/Initializable.sol\":3168:3233  if (isTopLevelCall) {... */\n    tag_165:\n        /* \"contracts/Lottery_backup.sol\":3598:3614  __Ownable_init() */\n      tag_167\n        /* \"contracts/Lottery_backup.sol\":3598:3612  __Ownable_init */\n      tag_168\n        /* \"contracts/Lottery_backup.sol\":3598:3614  __Ownable_init() */\n      jump\t// in\n    tag_167:\n        /* \"@openzeppelin/contracts-upgradeable/proxy/utils/Initializable.sol\":3257:3271  isTopLevelCall */\n      dup1\n        /* \"@openzeppelin/contracts-upgradeable/proxy/utils/Initializable.sol\":3253:3352  if (isTopLevelCall) {... */\n      iszero\n      tag_169\n      jumpi\n        /* \"@openzeppelin/contracts-upgradeable/proxy/utils/Initializable.sol\":3303:3308  false */\n      0x00\n        /* \"@openzeppelin/contracts-upgradeable/proxy/utils/Initializable.sol\":3287:3300  _initializing */\n      dup1\n      0x01\n        /* \"@openzeppelin/contracts-upgradeable/proxy/utils/Initializable.sol\":3287:3308  _initializing = false */\n      0x0100\n      exp\n      dup2\n      sload\n      dup2\n      0xff\n      mul\n      not\n      and\n      swap1\n      dup4\n      iszero\n      iszero\n      mul\n      or\n      swap1\n      sstore\n      pop\n        /* \"@openzeppelin/contracts-upgradeable/proxy/utils/Initializable.sol\":3327:3341  Initialized(1) */\n      0x7f26b83ff96e1f2b6a682f133852f6798a09c465da95921460cefb3847402498\n        /* \"@openzeppelin/contracts-upgradeable/proxy/utils/Initializable.sol\":3339:3340  1 */\n      0x01\n        /* \"@openzeppelin/contracts-upgradeable/proxy/utils/Initializable.sol\":3327:3341  Initialized(1) */\n      mload(0x40)\n      tag_170\n      swap2\n      swap1\n      tag_171\n      jump\t// in\n    tag_170:\n      mload(0x40)\n      dup1\n      swap2\n      sub\n      swap1\n      log1\n        /* \"@openzeppelin/contracts-upgradeable/proxy/utils/Initializable.sol\":3253:3352  if (isTopLevelCall) {... */\n    tag_169:\n        /* \"@openzeppelin/contracts-upgradeable/proxy/utils/Initializable.sol\":3101:3358  {... */\n      pop\n        /* \"contracts/Lottery_backup.sol\":3545:3621  function initialize() external initializer {... */\n      jump\t// out\n        /* \"contracts/Lottery_backup.sol\":3627:4040  function startLottery(... */\n    tag_79:\n        /* \"contracts/Lottery_backup.sol\":2712:2730  Status.NOT_STARTED */\n      0x00\n        /* \"contracts/Lottery_backup.sol\":2695:2730  lotteryStatus == Status.NOT_STARTED */\n      0x03\n      dup2\n      gt\n      iszero\n      tag_173\n      jumpi\n      tag_174\n      tag_126\n      jump\t// in\n    tag_174:\n    tag_173:\n        /* \"contracts/Lottery_backup.sol\":2695:2708  lotteryStatus */\n      0x70\n      0x01\n      swap1\n      sload\n      swap1\n      0x0100\n      exp\n      swap1\n      div\n      0xff\n      and\n        /* \"contracts/Lottery_backup.sol\":2695:2730  lotteryStatus == Status.NOT_STARTED */\n      0x03\n      dup2\n      gt\n      iszero\n      tag_175\n      jumpi\n      tag_176\n      tag_126\n      jump\t// in\n    tag_176:\n    tag_175:\n      eq\n        /* \"contracts/Lottery_backup.sol\":2687:2731  require(lotteryStatus == Status.NOT_STARTED) */\n      tag_177\n      jumpi\n      0x00\n      dup1\n      revert\n    tag_177:\n        /* \"@openzeppelin/contracts-upgradeable/access/OwnableUpgradeable.sol\":1499:1511  _msgSender() */\n      tag_179\n        /* \"@openzeppelin/contracts-upgradeable/access/OwnableUpgradeable.sol\":1499:1509  _msgSender */\n      tag_142\n        /* \"@openzeppelin/contracts-upgradeable/access/OwnableUpgradeable.sol\":1499:1511  _msgSender() */\n      jump\t// in\n    tag_179:\n        /* \"@openzeppelin/contracts-upgradeable/access/OwnableUpgradeable.sol\":1488:1511  owner() == _msgSender() */\n      0xffffffffffffffffffffffffffffffffffffffff\n      and\n        /* \"@openzeppelin/contracts-upgradeable/access/OwnableUpgradeable.sol\":1488:1495  owner() */\n      tag_180\n        /* \"@openzeppelin/contracts-upgradeable/access/OwnableUpgradeable.sol\":1488:1493  owner */\n      tag_91\n        /* \"@openzeppelin/contracts-upgradeable/access/OwnableUpgradeable.sol\":1488:1495  owner() */\n      jump\t// in\n    tag_180:\n        /* \"@openzeppelin/contracts-upgradeable/access/OwnableUpgradeable.sol\":1488:1511  owner() == _msgSender() */\n      0xffffffffffffffffffffffffffffffffffffffff\n      and\n      eq\n        /* \"@openzeppelin/contracts-upgradeable/access/OwnableUpgradeable.sol\":1480:1548  require(owner() == _msgSender(), \"Ownable: caller is not the owner\") */\n      tag_181\n      jumpi\n      mload(0x40)\n      0x08c379a000000000000000000000000000000000000000000000000000000000\n      dup2\n      mstore\n      0x04\n      add\n      tag_182\n      swap1\n      tag_146\n      jump\t// in\n    tag_182:\n      mload(0x40)\n      dup1\n      swap2\n      sub\n      swap1\n      revert\n    tag_181:\n        /* \"contracts/Lottery_backup.sol\":3810:3822  _ticketPrice */\n      dup3\n        /* \"contracts/Lottery_backup.sol\":3794:3807  costPerTicket */\n      0x69\n        /* \"contracts/Lottery_backup.sol\":3794:3822  costPerTicket = _ticketPrice */\n      dup2\n      swap1\n      sstore\n      pop\n        /* \"contracts/Lottery_backup.sol\":3851:3868  _winnerPercentage */\n      dup2\n        /* \"contracts/Lottery_backup.sol\":3832:3848  winnerPercentage */\n      0x70\n      0x00\n        /* \"contracts/Lottery_backup.sol\":3832:3868  winnerPercentage = _winnerPercentage */\n      0x0100\n      exp\n      dup2\n      sload\n      dup2\n      0xff\n      mul\n      not\n      and\n      swap1\n      dup4\n      0xff\n      and\n      mul\n      or\n      swap1\n      sstore\n      pop\n        /* \"contracts/Lottery_backup.sol\":3896:3912  _lotteryDuration */\n      dup1\n        /* \"contracts/Lottery_backup.sol\":3878:3893  lotteryDuration */\n      0x6f\n        /* \"contracts/Lottery_backup.sol\":3878:3912  lotteryDuration = _lotteryDuration */\n      dup2\n      swap1\n      sstore\n      pop\n        /* \"contracts/Lottery_backup.sol\":3938:3949  Status.OPEN */\n      0x01\n        /* \"contracts/Lottery_backup.sol\":3922:3935  lotteryStatus */\n      0x70\n      0x01\n        /* \"contracts/Lottery_backup.sol\":3922:3949  lotteryStatus = Status.OPEN */\n      0x0100\n      exp\n      dup2\n      sload\n      dup2\n      0xff\n      mul\n      not\n      and\n      swap1\n      dup4\n      0x03\n      dup2\n      gt\n      iszero\n      tag_184\n      jumpi\n      tag_185\n      tag_126\n      jump\t// in\n    tag_185:\n    tag_184:\n      mul\n      or\n      swap1\n      sstore\n      pop\n        /* \"contracts/Lottery_backup.sol\":3979:3994  block.timestamp */\n      timestamp\n        /* \"contracts/Lottery_backup.sol\":3959:3976  startingTimestamp */\n      0x6b\n        /* \"contracts/Lottery_backup.sol\":3959:3994  startingTimestamp = block.timestamp */\n      dup2\n      swap1\n      sstore\n      pop\n        /* \"contracts/Lottery_backup.sol\":4009:4033  OpenedLottery(lotteryID) */\n      0xce62b71aa24a7ffb1343c139b78d655d7b33bd66b2be4e83d9f6425b02eb197a\n        /* \"contracts/Lottery_backup.sol\":4023:4032  lotteryID */\n      sload(0x67)\n        /* \"contracts/Lottery_backup.sol\":4009:4033  OpenedLottery(lotteryID) */\n      mload(0x40)\n      tag_186\n      swap2\n      swap1\n      tag_40\n      jump\t// in\n    tag_186:\n      mload(0x40)\n      dup1\n      swap2\n      sub\n      swap1\n      log1\n        /* \"contracts/Lottery_backup.sol\":3627:4040  function startLottery(... */\n      pop\n      pop\n      pop\n      jump\t// out\n        /* \"contracts/Lottery_backup.sol\":1307:1341  uint8 public winnerPercentage = 10 */\n    tag_82:\n      0x70\n      0x00\n      swap1\n      sload\n      swap1\n      0x0100\n      exp\n      swap1\n      div\n      0xff\n      and\n      dup2\n      jump\t// out\n        /* \"contracts/Lottery_backup.sol\":1121:1153  uint256 public startingTimestamp */\n    tag_87:\n      sload(0x6b)\n      dup2\n      jump\t// out\n        /* \"@openzeppelin/contracts-upgradeable/access/OwnableUpgradeable.sol\":1276:1361  function owner() public view virtual returns (address) {... */\n    tag_91:\n        /* \"@openzeppelin/contracts-upgradeable/access/OwnableUpgradeable.sol\":1322:1329  address */\n      0x00\n        /* \"@openzeppelin/contracts-upgradeable/access/OwnableUpgradeable.sol\":1348:1354  _owner */\n      0x33\n      0x00\n      swap1\n      sload\n      swap1\n      0x0100\n      exp\n      swap1\n      div\n      0xffffffffffffffffffffffffffffffffffffffff\n      and\n        /* \"@openzeppelin/contracts-upgradeable/access/OwnableUpgradeable.sol\":1341:1354  return _owner */\n      swap1\n      pop\n        /* \"@openzeppelin/contracts-upgradeable/access/OwnableUpgradeable.sol\":1276:1361  function owner() public view virtual returns (address) {... */\n      swap1\n      jump\t// out\n        /* \"contracts/Lottery_backup.sol\":980:1004  uint256 public lotteryID */\n    tag_96:\n      sload(0x67)\n      dup2\n      jump\t// out\n        /* \"contracts/Lottery_backup.sol\":4846:5016  function withdrawEth() external onlyOwner {... */\n    tag_100:\n        /* \"@openzeppelin/contracts-upgradeable/access/OwnableUpgradeable.sol\":1499:1511  _msgSender() */\n      tag_189\n        /* \"@openzeppelin/contracts-upgradeable/access/OwnableUpgradeable.sol\":1499:1509  _msgSender */\n      tag_142\n        /* \"@openzeppelin/contracts-upgradeable/access/OwnableUpgradeable.sol\":1499:1511  _msgSender() */\n      jump\t// in\n    tag_189:\n        /* \"@openzeppelin/contracts-upgradeable/access/OwnableUpgradeable.sol\":1488:1511  owner() == _msgSender() */\n      0xffffffffffffffffffffffffffffffffffffffff\n      and\n        /* \"@openzeppelin/contracts-upgradeable/access/OwnableUpgradeable.sol\":1488:1495  owner() */\n      tag_190\n        /* \"@openzeppelin/contracts-upgradeable/access/OwnableUpgradeable.sol\":1488:1493  owner */\n      tag_91\n        /* \"@openzeppelin/contracts-upgradeable/access/OwnableUpgradeable.sol\":1488:1495  owner() */\n      jump\t// in\n    tag_190:\n        /* \"@openzeppelin/contracts-upgradeable/access/OwnableUpgradeable.sol\":1488:1511  owner() == _msgSender() */\n      0xffffffffffffffffffffffffffffffffffffffff\n      and\n      eq\n        /* \"@openzeppelin/contracts-upgradeable/access/OwnableUpgradeable.sol\":1480:1548  require(owner() == _msgSender(), \"Ownable: caller is not the owner\") */\n      tag_191\n      jumpi\n      mload(0x40)\n      0x08c379a000000000000000000000000000000000000000000000000000000000\n      dup2\n      mstore\n      0x04\n      add\n      tag_192\n      swap1\n      tag_146\n      jump\t// in\n    tag_192:\n      mload(0x40)\n      dup1\n      swap2\n      sub\n      swap1\n      revert\n    tag_191:\n        /* \"contracts/Lottery_backup.sol\":4919:4920  0 */\n      0x00\n        /* \"contracts/Lottery_backup.sol\":4906:4915  prizePool */\n      sload(0x6a)\n        /* \"contracts/Lottery_backup.sol\":4906:4920  prizePool == 0 */\n      eq\n        /* \"contracts/Lottery_backup.sol\":4898:4948  require(prizePool == 0, \"prizePool is not empty!\") */\n      tag_194\n      jumpi\n      mload(0x40)\n      0x08c379a000000000000000000000000000000000000000000000000000000000\n      dup2\n      mstore\n      0x04\n      add\n      tag_195\n      swap1\n      tag_196\n      jump\t// in\n    tag_195:\n      mload(0x40)\n      dup1\n      swap2\n      sub\n      swap1\n      revert\n    tag_194:\n        /* \"contracts/Lottery_backup.sol\":4966:4976  msg.sender */\n      caller\n        /* \"contracts/Lottery_backup.sol\":4958:4986  payable(msg.sender).transfer */\n      0xffffffffffffffffffffffffffffffffffffffff\n      and\n        /* \"contracts/Lottery_backup.sol\":4958:5009  payable(msg.sender).transfer(address(this).balance) */\n      0x08fc\n        /* \"contracts/Lottery_backup.sol\":4987:5008  address(this).balance */\n      selfbalance\n        /* \"contracts/Lottery_backup.sol\":4958:5009  payable(msg.sender).transfer(address(this).balance) */\n      swap1\n      dup2\n      iszero\n      mul\n      swap1\n      mload(0x40)\n      0x00\n      mload(0x40)\n      dup1\n      dup4\n      sub\n      dup2\n      dup6\n      dup9\n      dup9\n      call\n      swap4\n      pop\n      pop\n      pop\n      pop\n      iszero\n      dup1\n      iszero\n      tag_198\n      jumpi\n      returndatasize\n      0x00\n      dup1\n      returndatacopy\n      revert(0x00, returndatasize)\n    tag_198:\n      pop\n        /* \"contracts/Lottery_backup.sol\":4846:5016  function withdrawEth() external onlyOwner {... */\n      jump\t// out\n        /* \"contracts/Lottery_backup.sol\":4528:4840  function claimReward()... */\n    tag_103:\n        /* \"contracts/Lottery_backup.sol\":3109:3125  Status.COMPLETED */\n      0x03\n        /* \"contracts/Lottery_backup.sol\":3092:3125  lotteryStatus == Status.COMPLETED */\n      dup1\n      dup2\n      gt\n      iszero\n      tag_200\n      jumpi\n      tag_201\n      tag_126\n      jump\t// in\n    tag_201:\n    tag_200:\n        /* \"contracts/Lottery_backup.sol\":3092:3105  lotteryStatus */\n      0x70\n      0x01\n      swap1\n      sload\n      swap1\n      0x0100\n      exp\n      swap1\n      div\n      0xff\n      and\n        /* \"contracts/Lottery_backup.sol\":3092:3125  lotteryStatus == Status.COMPLETED */\n      0x03\n      dup2\n      gt\n      iszero\n      tag_202\n      jumpi\n      tag_203\n      tag_126\n      jump\t// in\n    tag_203:\n    tag_202:\n      eq\n        /* \"contracts/Lottery_backup.sol\":3071:3185  require(... */\n      tag_204\n      jumpi\n      mload(0x40)\n      0x08c379a000000000000000000000000000000000000000000000000000000000\n      dup2\n      mstore\n      0x04\n      add\n      tag_205\n      swap1\n      tag_206\n      jump\t// in\n    tag_205:\n      mload(0x40)\n      dup1\n      swap2\n      sub\n      swap1\n      revert\n    tag_204:\n        /* \"contracts/Lottery_backup.sol\":3462:3463  0 */\n      0x00\n        /* \"contracts/Lottery_backup.sol\":3444:3464  winner != address(0) */\n      0xffffffffffffffffffffffffffffffffffffffff\n      and\n        /* \"contracts/Lottery_backup.sol\":3444:3450  winner */\n      0x6d\n      0x00\n      swap1\n      sload\n      swap1\n      0x0100\n      exp\n      swap1\n      div\n      0xffffffffffffffffffffffffffffffffffffffff\n      and\n        /* \"contracts/Lottery_backup.sol\":3444:3464  winner != address(0) */\n      0xffffffffffffffffffffffffffffffffffffffff\n      and\n      sub\n        /* \"contracts/Lottery_backup.sol\":3436:3502  require(winner != address(0), \"The winner has not been selected!\") */\n      tag_208\n      jumpi\n      mload(0x40)\n      0x08c379a000000000000000000000000000000000000000000000000000000000\n      dup2\n      mstore\n      0x04\n      add\n      tag_209\n      swap1\n      tag_210\n      jump\t// in\n    tag_209:\n      mload(0x40)\n      dup1\n      swap2\n      sub\n      swap1\n      revert\n    tag_208:\n        /* \"contracts/Lottery_backup.sol\":3283:3289  winner */\n      0x6d\n      0x00\n      swap1\n      sload\n      swap1\n      0x0100\n      exp\n      swap1\n      div\n      0xffffffffffffffffffffffffffffffffffffffff\n      and\n        /* \"contracts/Lottery_backup.sol\":3269:3289  msg.sender == winner */\n      0xffffffffffffffffffffffffffffffffffffffff\n      and\n        /* \"contracts/Lottery_backup.sol\":3269:3279  msg.sender */\n      caller\n        /* \"contracts/Lottery_backup.sol\":3269:3289  msg.sender == winner */\n      0xffffffffffffffffffffffffffffffffffffffff\n      and\n      eq\n        /* \"contracts/Lottery_backup.sol\":3269:3314  msg.sender == winner || msg.sender == owner() */\n      dup1\n      tag_212\n      jumpi\n      pop\n        /* \"contracts/Lottery_backup.sol\":3307:3314  owner() */\n      tag_213\n        /* \"contracts/Lottery_backup.sol\":3307:3312  owner */\n      tag_91\n        /* \"contracts/Lottery_backup.sol\":3307:3314  owner() */\n      jump\t// in\n    tag_213:\n        /* \"contracts/Lottery_backup.sol\":3293:3314  msg.sender == owner() */\n      0xffffffffffffffffffffffffffffffffffffffff\n      and\n        /* \"contracts/Lottery_backup.sol\":3293:3303  msg.sender */\n      caller\n        /* \"contracts/Lottery_backup.sol\":3293:3314  msg.sender == owner() */\n      0xffffffffffffffffffffffffffffffffffffffff\n      and\n      eq\n        /* \"contracts/Lottery_backup.sol\":3269:3314  msg.sender == winner || msg.sender == owner() */\n    tag_212:\n        /* \"contracts/Lottery_backup.sol\":3248:3369  require(... */\n      tag_214\n      jumpi\n      mload(0x40)\n      0x08c379a000000000000000000000000000000000000000000000000000000000\n      dup2\n      mstore\n      0x04\n      add\n      tag_215\n      swap1\n      tag_216\n      jump\t// in\n    tag_215:\n      mload(0x40)\n      dup1\n      swap2\n      sub\n      swap1\n      revert\n    tag_214:\n        /* \"contracts/Lottery_backup.sol\":4658:4671  _addLottery() */\n      tag_218\n        /* \"contracts/Lottery_backup.sol\":4658:4669  _addLottery */\n      tag_219\n        /* \"contracts/Lottery_backup.sol\":4658:4671  _addLottery() */\n      jump\t// in\n    tag_218:\n        /* \"contracts/Lottery_backup.sol\":4681:4700  uint256 winnerPrize */\n      0x00\n        /* \"contracts/Lottery_backup.sol\":4735:4738  100 */\n      0x64\n        /* \"contracts/Lottery_backup.sol\":4716:4732  winnerPercentage */\n      0x70\n      0x00\n      swap1\n      sload\n      swap1\n      0x0100\n      exp\n      swap1\n      div\n      0xff\n      and\n        /* \"contracts/Lottery_backup.sol\":4716:4738  winnerPercentage / 100 */\n      tag_220\n      swap2\n      swap1\n      tag_221\n      jump\t// in\n    tag_220:\n        /* \"contracts/Lottery_backup.sol\":4703:4739  prizePool * (winnerPercentage / 100) */\n      0xff\n      and\n        /* \"contracts/Lottery_backup.sol\":4703:4712  prizePool */\n      sload(0x6a)\n        /* \"contracts/Lottery_backup.sol\":4703:4739  prizePool * (winnerPercentage / 100) */\n      tag_222\n      swap2\n      swap1\n      tag_223\n      jump\t// in\n    tag_222:\n        /* \"contracts/Lottery_backup.sol\":4681:4739  uint256 winnerPrize = prizePool * (winnerPercentage / 100) */\n      swap1\n      pop\n        /* \"contracts/Lottery_backup.sol\":4749:4776  _transferPrize(winnerPrize) */\n      tag_224\n        /* \"contracts/Lottery_backup.sol\":4764:4775  winnerPrize */\n      dup2\n        /* \"contracts/Lottery_backup.sol\":4749:4763  _transferPrize */\n      tag_225\n        /* \"contracts/Lottery_backup.sol\":4749:4776  _transferPrize(winnerPrize) */\n      jump\t// in\n    tag_224:\n        /* \"contracts/Lottery_backup.sol\":4786:4794  _reset() */\n      tag_226\n        /* \"contracts/Lottery_backup.sol\":4786:4792  _reset */\n      tag_227\n        /* \"contracts/Lottery_backup.sol\":4786:4794  _reset() */\n      jump\t// in\n    tag_226:\n        /* \"contracts/Lottery_backup.sol\":4809:4833  ClaimedReward(lotteryID) */\n      0x1c1f258cbfdae81beabe79c7a44ff65a9c9f4c17cb035f72b14d998c76345deb\n        /* \"contracts/Lottery_backup.sol\":4823:4832  lotteryID */\n      sload(0x67)\n        /* \"contracts/Lottery_backup.sol\":4809:4833  ClaimedReward(lotteryID) */\n      mload(0x40)\n      tag_228\n      swap2\n      swap1\n      tag_40\n      jump\t// in\n    tag_228:\n      mload(0x40)\n      dup1\n      swap2\n      sub\n      swap1\n      log1\n        /* \"contracts/Lottery_backup.sol\":4648:4840  {... */\n      pop\n        /* \"contracts/Lottery_backup.sol\":4528:4840  function claimReward()... */\n      jump\t// out\n        /* \"contracts/Lottery_backup.sol\":1197:1226  address payable public winner */\n    tag_106:\n      0x6d\n      0x00\n      swap1\n      sload\n      swap1\n      0x0100\n      exp\n      swap1\n      div\n      0xffffffffffffffffffffffffffffffffffffffff\n      and\n      dup2\n      jump\t// out\n        /* \"contracts/Lottery_backup.sol\":4046:4258  function buyTicket() external payable ifOpen {... */\n    tag_109:\n        /* \"contracts/Lottery_backup.sol\":2821:2832  Status.OPEN */\n      0x01\n        /* \"contracts/Lottery_backup.sol\":2804:2832  lotteryStatus == Status.OPEN */\n      0x03\n      dup2\n      gt\n      iszero\n      tag_230\n      jumpi\n      tag_231\n      tag_126\n      jump\t// in\n    tag_231:\n    tag_230:\n        /* \"contracts/Lottery_backup.sol\":2804:2817  lotteryStatus */\n      0x70\n      0x01\n      swap1\n      sload\n      swap1\n      0x0100\n      exp\n      swap1\n      div\n      0xff\n      and\n        /* \"contracts/Lottery_backup.sol\":2804:2832  lotteryStatus == Status.OPEN */\n      0x03\n      dup2\n      gt\n      iszero\n      tag_232\n      jumpi\n      tag_233\n      tag_126\n      jump\t// in\n    tag_233:\n    tag_232:\n      eq\n        /* \"contracts/Lottery_backup.sol\":2783:2890  require(... */\n      tag_234\n      jumpi\n      mload(0x40)\n      0x08c379a000000000000000000000000000000000000000000000000000000000\n      dup2\n      mstore\n      0x04\n      add\n      tag_235\n      swap1\n      tag_236\n      jump\t// in\n    tag_235:\n      mload(0x40)\n      dup1\n      swap2\n      sub\n      swap1\n      revert\n    tag_234:\n        /* \"contracts/Lottery_backup.sol\":2960:2975  lotteryDuration */\n      sload(0x6f)\n        /* \"contracts/Lottery_backup.sol\":2940:2957  startingTimestamp */\n      sload(0x6b)\n        /* \"contracts/Lottery_backup.sol\":2940:2975  startingTimestamp + lotteryDuration */\n      tag_237\n      swap2\n      swap1\n      tag_133\n      jump\t// in\n    tag_237:\n        /* \"contracts/Lottery_backup.sol\":2921:2936  block.timestamp */\n      timestamp\n        /* \"contracts/Lottery_backup.sol\":2921:2975  block.timestamp <= startingTimestamp + lotteryDuration */\n      gt\n      iszero\n        /* \"contracts/Lottery_backup.sol\":2900:3014  require(... */\n      tag_238\n      jumpi\n      mload(0x40)\n      0x08c379a000000000000000000000000000000000000000000000000000000000\n      dup2\n      mstore\n      0x04\n      add\n      tag_239\n      swap1\n      tag_240\n      jump\t// in\n    tag_239:\n      mload(0x40)\n      dup1\n      swap2\n      sub\n      swap1\n      revert\n    tag_238:\n        /* \"contracts/Lottery_backup.sol\":4122:4135  costPerTicket */\n      sload(0x69)\n        /* \"contracts/Lottery_backup.sol\":4109:4118  msg.value */\n      callvalue\n        /* \"contracts/Lottery_backup.sol\":4109:4135  msg.value >= costPerTicket */\n      lt\n      iszero\n        /* \"contracts/Lottery_backup.sol\":4101:4167  require(msg.value >= costPerTicket, \"Please enter a valid value!\") */\n      tag_242\n      jumpi\n      mload(0x40)\n      0x08c379a000000000000000000000000000000000000000000000000000000000\n      dup2\n      mstore\n      0x04\n      add\n      tag_243\n      swap1\n      tag_244\n      jump\t// in\n    tag_243:\n      mload(0x40)\n      dup1\n      swap2\n      sub\n      swap1\n      revert\n    tag_242:\n        /* \"contracts/Lottery_backup.sol\":4190:4203  costPerTicket */\n      sload(0x69)\n        /* \"contracts/Lottery_backup.sol\":4177:4186  prizePool */\n      0x6a\n      0x00\n        /* \"contracts/Lottery_backup.sol\":4177:4203  prizePool += costPerTicket */\n      dup3\n      dup3\n      sload\n      tag_245\n      swap2\n      swap1\n      tag_133\n      jump\t// in\n    tag_245:\n      swap3\n      pop\n      pop\n      dup2\n      swap1\n      sstore\n      pop\n        /* \"contracts/Lottery_backup.sol\":4213:4225  participants */\n      0x68\n        /* \"contracts/Lottery_backup.sol\":4239:4249  msg.sender */\n      caller\n        /* \"contracts/Lottery_backup.sol\":4213:4251  participants.push(payable(msg.sender)) */\n      swap1\n      dup1\n      0x01\n      dup2\n      sload\n      add\n      dup1\n      dup3\n      sstore\n      dup1\n      swap2\n      pop\n      pop\n      0x01\n      swap1\n      sub\n      swap1\n      0x00\n      mstore\n      keccak256(0x00, 0x20)\n      add\n      0x00\n      swap1\n      swap2\n      swap1\n      swap2\n      swap1\n      swap2\n      0x0100\n      exp\n      dup2\n      sload\n      dup2\n      0xffffffffffffffffffffffffffffffffffffffff\n      mul\n      not\n      and\n      swap1\n      dup4\n      0xffffffffffffffffffffffffffffffffffffffff\n      and\n      mul\n      or\n      swap1\n      sstore\n      pop\n        /* \"contracts/Lottery_backup.sol\":4046:4258  function buyTicket() external payable ifOpen {... */\n      jump\t// out\n        /* \"@openzeppelin/contracts-upgradeable/access/OwnableUpgradeable.sol\":2158:2356  function transferOwnership(address newOwner) public virtual onlyOwner {... */\n    tag_114:\n        /* \"@openzeppelin/contracts-upgradeable/access/OwnableUpgradeable.sol\":1499:1511  _msgSender() */\n      tag_248\n        /* \"@openzeppelin/contracts-upgradeable/access/OwnableUpgradeable.sol\":1499:1509  _msgSender */\n      tag_142\n        /* \"@openzeppelin/contracts-upgradeable/access/OwnableUpgradeable.sol\":1499:1511  _msgSender() */\n      jump\t// in\n    tag_248:\n        /* \"@openzeppelin/contracts-upgradeable/access/OwnableUpgradeable.sol\":1488:1511  owner() == _msgSender() */\n      0xffffffffffffffffffffffffffffffffffffffff\n      and\n        /* \"@openzeppelin/contracts-upgradeable/access/OwnableUpgradeable.sol\":1488:1495  owner() */\n      tag_249\n        /* \"@openzeppelin/contracts-upgradeable/access/OwnableUpgradeable.sol\":1488:1493  owner */\n      tag_91\n        /* \"@openzeppelin/contracts-upgradeable/access/OwnableUpgradeable.sol\":1488:1495  owner() */\n      jump\t// in\n    tag_249:\n        /* \"@openzeppelin/contracts-upgradeable/access/OwnableUpgradeable.sol\":1488:1511  owner() == _msgSender() */\n      0xffffffffffffffffffffffffffffffffffffffff\n      and\n      eq\n        /* \"@openzeppelin/contracts-upgradeable/access/OwnableUpgradeable.sol\":1480:1548  require(owner() == _msgSender(), \"Ownable: caller is not the owner\") */\n      tag_250\n      jumpi\n      mload(0x40)\n      0x08c379a000000000000000000000000000000000000000000000000000000000\n      dup2\n      mstore\n      0x04\n      add\n      tag_251\n      swap1\n      tag_146\n      jump\t// in\n    tag_251:\n      mload(0x40)\n      dup1\n      swap2\n      sub\n      swap1\n      revert\n    tag_250:\n        /* \"@openzeppelin/contracts-upgradeable/access/OwnableUpgradeable.sol\":2266:2267  0 */\n      0x00\n        /* \"@openzeppelin/contracts-upgradeable/access/OwnableUpgradeable.sol\":2246:2268  newOwner != address(0) */\n      0xffffffffffffffffffffffffffffffffffffffff\n      and\n        /* \"@openzeppelin/contracts-upgradeable/access/OwnableUpgradeable.sol\":2246:2254  newOwner */\n      dup2\n        /* \"@openzeppelin/contracts-upgradeable/access/OwnableUpgradeable.sol\":2246:2268  newOwner != address(0) */\n      0xffffffffffffffffffffffffffffffffffffffff\n      and\n      sub\n        /* \"@openzeppelin/contracts-upgradeable/access/OwnableUpgradeable.sol\":2238:2311  require(newOwner != address(0), \"Ownable: new owner is the zero address\") */\n      tag_253\n      jumpi\n      mload(0x40)\n      0x08c379a000000000000000000000000000000000000000000000000000000000\n      dup2\n      mstore\n      0x04\n      add\n      tag_254\n      swap1\n      tag_255\n      jump\t// in\n    tag_254:\n      mload(0x40)\n      dup1\n      swap2\n      sub\n      swap1\n      revert\n    tag_253:\n        /* \"@openzeppelin/contracts-upgradeable/access/OwnableUpgradeable.sol\":2321:2349  _transferOwnership(newOwner) */\n      tag_256\n        /* \"@openzeppelin/contracts-upgradeable/access/OwnableUpgradeable.sol\":2340:2348  newOwner */\n      dup2\n        /* \"@openzeppelin/contracts-upgradeable/access/OwnableUpgradeable.sol\":2321:2339  _transferOwnership */\n      tag_161\n        /* \"@openzeppelin/contracts-upgradeable/access/OwnableUpgradeable.sol\":2321:2349  _transferOwnership(newOwner) */\n      jump\t// in\n    tag_256:\n        /* \"@openzeppelin/contracts-upgradeable/access/OwnableUpgradeable.sol\":2158:2356  function transferOwnership(address newOwner) public virtual onlyOwner {... */\n      pop\n      jump\t// out\n        /* \"contracts/Lottery_backup.sol\":5022:5361  function fulfillRandomWords(uint256, uint256[] memory _randomWords)... */\n    tag_120:\n        /* \"contracts/Lottery_backup.sol\":5152:5164  _randomWords */\n      dup1\n        /* \"contracts/Lottery_backup.sol\":5138:5149  randomWords */\n      0x65\n        /* \"contracts/Lottery_backup.sol\":5138:5164  randomWords = _randomWords */\n      swap1\n      dup1\n      mload\n      swap1\n      0x20\n      add\n      swap1\n      tag_258\n      swap3\n      swap2\n      swap1\n      tag_259\n      jump\t// in\n    tag_258:\n      pop\n        /* \"contracts/Lottery_backup.sol\":5189:5200  randomWords */\n      0x65\n        /* \"contracts/Lottery_backup.sol\":5201:5202  0 */\n      0x00\n        /* \"contracts/Lottery_backup.sol\":5189:5203  randomWords[0] */\n      dup2\n      sload\n      dup2\n      lt\n      tag_260\n      jumpi\n      tag_261\n      tag_262\n      jump\t// in\n    tag_261:\n    tag_260:\n      swap1\n      0x00\n      mstore\n      keccak256(0x00, 0x20)\n      add\n      sload\n        /* \"contracts/Lottery_backup.sol\":5174:5186  randomResult */\n      0x6e\n        /* \"contracts/Lottery_backup.sol\":5174:5203  randomResult = randomWords[0] */\n      dup2\n      swap1\n      sstore\n      pop\n        /* \"contracts/Lottery_backup.sol\":5222:5234  participants */\n      0x68\n        /* \"contracts/Lottery_backup.sol\":5250:5262  participants */\n      dup1\n        /* \"contracts/Lottery_backup.sol\":5250:5269  participants.length */\n      dup1\n      sload\n      swap1\n      pop\n        /* \"contracts/Lottery_backup.sol\":5235:5247  randomResult */\n      sload(0x6e)\n        /* \"contracts/Lottery_backup.sol\":5235:5269  randomResult % participants.length */\n      tag_264\n      swap2\n      swap1\n      tag_265\n      jump\t// in\n    tag_264:\n        /* \"contracts/Lottery_backup.sol\":5222:5270  participants[randomResult % participants.length] */\n      dup2\n      sload\n      dup2\n      lt\n      tag_266\n      jumpi\n      tag_267\n      tag_262\n      jump\t// in\n    tag_267:\n    tag_266:\n      swap1\n      0x00\n      mstore\n      keccak256(0x00, 0x20)\n      add\n      0x00\n      swap1\n      sload\n      swap1\n      0x0100\n      exp\n      swap1\n      div\n      0xffffffffffffffffffffffffffffffffffffffff\n      and\n        /* \"contracts/Lottery_backup.sol\":5213:5219  winner */\n      0x6d\n      0x00\n        /* \"contracts/Lottery_backup.sol\":5213:5270  winner = participants[randomResult % participants.length] */\n      0x0100\n      exp\n      dup2\n      sload\n      dup2\n      0xffffffffffffffffffffffffffffffffffffffff\n      mul\n      not\n      and\n      swap1\n      dup4\n      0xffffffffffffffffffffffffffffffffffffffff\n      and\n      mul\n      or\n      swap1\n      sstore\n      pop\n        /* \"contracts/Lottery_backup.sol\":5296:5312  Status.COMPLETED */\n      0x03\n        /* \"contracts/Lottery_backup.sol\":5280:5293  lotteryStatus */\n      0x70\n      0x01\n        /* \"contracts/Lottery_backup.sol\":5280:5312  lotteryStatus = Status.COMPLETED */\n      0x0100\n      exp\n      dup2\n      sload\n      dup2\n      0xff\n      mul\n      not\n      and\n      swap1\n      dup4\n      0x03\n      dup2\n      gt\n      iszero\n      tag_269\n      jumpi\n      tag_270\n      tag_126\n      jump\t// in\n    tag_270:\n    tag_269:\n      mul\n      or\n      swap1\n      sstore\n      pop\n        /* \"contracts/Lottery_backup.sol\":5327:5354  CompletedLottery(lotteryID) */\n      0xec5fbb90ad904e090f21495aa3914ca1b34c5b7ea3c8c6fb7f0ecb7cf2a9f543\n        /* \"contracts/Lottery_backup.sol\":5344:5353  lotteryID */\n      sload(0x67)\n        /* \"contracts/Lottery_backup.sol\":5327:5354  CompletedLottery(lotteryID) */\n      mload(0x40)\n      tag_271\n      swap2\n      swap1\n      tag_40\n      jump\t// in\n    tag_271:\n      mload(0x40)\n      dup1\n      swap2\n      sub\n      swap1\n      log1\n        /* \"contracts/Lottery_backup.sol\":5022:5361  function fulfillRandomWords(uint256, uint256[] memory _randomWords)... */\n      pop\n      pop\n      jump\t// out\n        /* \"@openzeppelin/contracts-upgradeable/utils/ContextUpgradeable.sol\":850:946  function _msgSender() internal view virtual returns (address) {... */\n    tag_142:\n        /* \"@openzeppelin/contracts-upgradeable/utils/ContextUpgradeable.sol\":903:910  address */\n      0x00\n        /* \"@openzeppelin/contracts-upgradeable/utils/ContextUpgradeable.sol\":929:939  msg.sender */\n      caller\n        /* \"@openzeppelin/contracts-upgradeable/utils/ContextUpgradeable.sol\":922:939  return msg.sender */\n      swap1\n      pop\n        /* \"@openzeppelin/contracts-upgradeable/utils/ContextUpgradeable.sol\":850:946  function _msgSender() internal view virtual returns (address) {... */\n      swap1\n      jump\t// out\n        /* \"contracts/Lottery_backup.sol\":5367:5626  function _requestRandomWords() private onlyOwner {... */\n    tag_149:\n        /* \"@openzeppelin/contracts-upgradeable/access/OwnableUpgradeable.sol\":1499:1511  _msgSender() */\n      tag_274\n        /* \"@openzeppelin/contracts-upgradeable/access/OwnableUpgradeable.sol\":1499:1509  _msgSender */\n      tag_142\n        /* \"@openzeppelin/contracts-upgradeable/access/OwnableUpgradeable.sol\":1499:1511  _msgSender() */\n      jump\t// in\n    tag_274:\n        /* \"@openzeppelin/contracts-upgradeable/access/OwnableUpgradeable.sol\":1488:1511  owner() == _msgSender() */\n      0xffffffffffffffffffffffffffffffffffffffff\n      and\n        /* \"@openzeppelin/contracts-upgradeable/access/OwnableUpgradeable.sol\":1488:1495  owner() */\n      tag_275\n        /* \"@openzeppelin/contracts-upgradeable/access/OwnableUpgradeable.sol\":1488:1493  owner */\n      tag_91\n        /* \"@openzeppelin/contracts-upgradeable/access/OwnableUpgradeable.sol\":1488:1495  owner() */\n      jump\t// in\n    tag_275:\n        /* \"@openzeppelin/contracts-upgradeable/access/OwnableUpgradeable.sol\":1488:1511  owner() == _msgSender() */\n      0xffffffffffffffffffffffffffffffffffffffff\n      and\n      eq\n        /* \"@openzeppelin/contracts-upgradeable/access/OwnableUpgradeable.sol\":1480:1548  require(owner() == _msgSender(), \"Ownable: caller is not the owner\") */\n      tag_276\n      jumpi\n      mload(0x40)\n      0x08c379a000000000000000000000000000000000000000000000000000000000\n      dup2\n      mstore\n      0x04\n      add\n      tag_277\n      swap1\n      tag_146\n      jump\t// in\n    tag_277:\n      mload(0x40)\n      dup1\n      swap2\n      sub\n      swap1\n      revert\n    tag_276:\n        /* \"contracts/Lottery_backup.sol\":571:613  0x6168499c0cFfCaCD319c818142124B7A15E857ab */\n      0x6168499c0cffcacd319c818142124b7a15e857ab\n        /* \"contracts/Lottery_backup.sol\":5438:5468  COORDINATOR.requestRandomWords */\n      0xffffffffffffffffffffffffffffffffffffffff\n      and\n      0x5d3b1d30\n        /* \"contracts/Lottery_backup.sol\":656:722  0xd89b2bf150e3b9e13446986e571fb9cab24b13cea0a43ea20a6049a85cc807cc */\n      0xd89b2bf150e3b9e13446986e571fb9cab24b13cea0a43ea20a6049a85cc807cc\n        /* \"contracts/Lottery_backup.sol\":5482:5490  KEY_HASH */\n      0x00\n      shl\n        /* \"contracts/Lottery_backup.sol\":762:765  247 */\n      0xf7\n        /* \"contracts/Lottery_backup.sol\":922:923  3 */\n      0x03\n        /* \"contracts/Lottery_backup.sol\":834:841  1000000 */\n      0x0f4240\n        /* \"contracts/Lottery_backup.sol\":875:876  1 */\n      0x01\n        /* \"contracts/Lottery_backup.sol\":5438:5619  COORDINATOR.requestRandomWords(... */\n      mload(0x40)\n      dup7\n      0xffffffff\n      and\n      0xe0\n      shl\n      dup2\n      mstore\n      0x04\n      add\n      tag_279\n      swap6\n      swap5\n      swap4\n      swap3\n      swap2\n      swap1\n      tag_280\n      jump\t// in\n    tag_279:\n      0x20\n      mload(0x40)\n      dup1\n      dup4\n      sub\n      dup2\n      0x00\n      dup8\n      gas\n      call\n      iszero\n      dup1\n      iszero\n      tag_282\n      jumpi\n      returndatasize\n      0x00\n      dup1\n      returndatacopy\n      revert(0x00, returndatasize)\n    tag_282:\n      pop\n      pop\n      pop\n      pop\n      mload(0x40)\n      returndatasize\n      not(0x1f)\n      0x1f\n      dup3\n      add\n      and\n      dup3\n      add\n      dup1\n      0x40\n      mstore\n      pop\n      dup2\n      add\n      swap1\n      tag_283\n      swap2\n      swap1\n      tag_284\n      jump\t// in\n    tag_283:\n        /* \"contracts/Lottery_backup.sol\":5426:5435  requestId */\n      0x66\n        /* \"contracts/Lottery_backup.sol\":5426:5619  requestId = COORDINATOR.requestRandomWords(... */\n      dup2\n      swap1\n      sstore\n      pop\n        /* \"contracts/Lottery_backup.sol\":5367:5626  function _requestRandomWords() private onlyOwner {... */\n      jump\t// out\n        /* \"@openzeppelin/contracts-upgradeable/access/OwnableUpgradeable.sol\":2510:2697  function _transferOwnership(address newOwner) internal virtual {... */\n    tag_161:\n        /* \"@openzeppelin/contracts-upgradeable/access/OwnableUpgradeable.sol\":2583:2599  address oldOwner */\n      0x00\n        /* \"@openzeppelin/contracts-upgradeable/access/OwnableUpgradeable.sol\":2602:2608  _owner */\n      0x33\n      0x00\n      swap1\n      sload\n      swap1\n      0x0100\n      exp\n      swap1\n      div\n      0xffffffffffffffffffffffffffffffffffffffff\n      and\n        /* \"@openzeppelin/contracts-upgradeable/access/OwnableUpgradeable.sol\":2583:2608  address oldOwner = _owner */\n      swap1\n      pop\n        /* \"@openzeppelin/contracts-upgradeable/access/OwnableUpgradeable.sol\":2627:2635  newOwner */\n      dup2\n        /* \"@openzeppelin/contracts-upgradeable/access/OwnableUpgradeable.sol\":2618:2624  _owner */\n      0x33\n      0x00\n        /* \"@openzeppelin/contracts-upgradeable/access/OwnableUpgradeable.sol\":2618:2635  _owner = newOwner */\n      0x0100\n      exp\n      dup2\n      sload\n      dup2\n      0xffffffffffffffffffffffffffffffffffffffff\n      mul\n      not\n      and\n      swap1\n      dup4\n      0xffffffffffffffffffffffffffffffffffffffff\n      and\n      mul\n      or\n      swap1\n      sstore\n      pop\n        /* \"@openzeppelin/contracts-upgradeable/access/OwnableUpgradeable.sol\":2681:2689  newOwner */\n      dup2\n        /* \"@openzeppelin/contracts-upgradeable/access/OwnableUpgradeable.sol\":2650:2690  OwnershipTransferred(oldOwner, newOwner) */\n      0xffffffffffffffffffffffffffffffffffffffff\n      and\n        /* \"@openzeppelin/contracts-upgradeable/access/OwnableUpgradeable.sol\":2671:2679  oldOwner */\n      dup2\n        /* \"@openzeppelin/contracts-upgradeable/access/OwnableUpgradeable.sol\":2650:2690  OwnershipTransferred(oldOwner, newOwner) */\n      0xffffffffffffffffffffffffffffffffffffffff\n      and\n      0x8be0079c531659141344cd1fd0a4f28419497f9722a3daafe3b4186f6b6457e0\n      mload(0x40)\n      mload(0x40)\n      dup1\n      swap2\n      sub\n      swap1\n      log3\n        /* \"@openzeppelin/contracts-upgradeable/access/OwnableUpgradeable.sol\":2573:2697  {... */\n      pop\n        /* \"@openzeppelin/contracts-upgradeable/access/OwnableUpgradeable.sol\":2510:2697  function _transferOwnership(address newOwner) internal virtual {... */\n      pop\n      jump\t// out\n        /* \"@openzeppelin/contracts-upgradeable/proxy/utils/Initializable.sol\":5287:6095  function _setInitializedVersion(uint8 version) private returns (bool) {... */\n    tag_164:\n        /* \"@openzeppelin/contracts-upgradeable/proxy/utils/Initializable.sol\":5351:5355  bool */\n      0x00\n        /* \"@openzeppelin/contracts-upgradeable/proxy/utils/Initializable.sol\":5684:5697  _initializing */\n      dup1\n      0x01\n      swap1\n      sload\n      swap1\n      0x0100\n      exp\n      swap1\n      div\n      0xff\n      and\n        /* \"@openzeppelin/contracts-upgradeable/proxy/utils/Initializable.sol\":5680:6089  if (_initializing) {... */\n      iszero\n      tag_287\n      jumpi\n        /* \"@openzeppelin/contracts-upgradeable/proxy/utils/Initializable.sol\":5749:5750  1 */\n      0x01\n        /* \"@openzeppelin/contracts-upgradeable/proxy/utils/Initializable.sol\":5738:5745  version */\n      dup3\n        /* \"@openzeppelin/contracts-upgradeable/proxy/utils/Initializable.sol\":5738:5750  version == 1 */\n      0xff\n      and\n      eq\n        /* \"@openzeppelin/contracts-upgradeable/proxy/utils/Initializable.sol\":5738:5799  version == 1 && !AddressUpgradeable.isContract(address(this)) */\n      dup1\n      iszero\n      tag_288\n      jumpi\n      pop\n        /* \"@openzeppelin/contracts-upgradeable/proxy/utils/Initializable.sol\":5755:5799  AddressUpgradeable.isContract(address(this)) */\n      tag_289\n        /* \"@openzeppelin/contracts-upgradeable/proxy/utils/Initializable.sol\":5793:5797  this */\n      address\n        /* \"@openzeppelin/contracts-upgradeable/proxy/utils/Initializable.sol\":5755:5784  AddressUpgradeable.isContract */\n      tag_290\n        /* \"@openzeppelin/contracts-upgradeable/proxy/utils/Initializable.sol\":5755:5799  AddressUpgradeable.isContract(address(this)) */\n      jump\t// in\n    tag_289:\n        /* \"@openzeppelin/contracts-upgradeable/proxy/utils/Initializable.sol\":5754:5799  !AddressUpgradeable.isContract(address(this)) */\n      iszero\n        /* \"@openzeppelin/contracts-upgradeable/proxy/utils/Initializable.sol\":5738:5799  version == 1 && !AddressUpgradeable.isContract(address(this)) */\n    tag_288:\n        /* \"@openzeppelin/contracts-upgradeable/proxy/utils/Initializable.sol\":5713:5879  require(... */\n      tag_291\n      jumpi\n      mload(0x40)\n      0x08c379a000000000000000000000000000000000000000000000000000000000\n      dup2\n      mstore\n      0x04\n      add\n      tag_292\n      swap1\n      tag_293\n      jump\t// in\n    tag_292:\n      mload(0x40)\n      dup1\n      swap2\n      sub\n      swap1\n      revert\n    tag_291:\n        /* \"@openzeppelin/contracts-upgradeable/proxy/utils/Initializable.sol\":5900:5905  false */\n      0x00\n        /* \"@openzeppelin/contracts-upgradeable/proxy/utils/Initializable.sol\":5893:5905  return false */\n      swap1\n      pop\n      jump(tag_286)\n        /* \"@openzeppelin/contracts-upgradeable/proxy/utils/Initializable.sol\":5680:6089  if (_initializing) {... */\n    tag_287:\n        /* \"@openzeppelin/contracts-upgradeable/proxy/utils/Initializable.sol\":5959:5966  version */\n      dup2\n        /* \"@openzeppelin/contracts-upgradeable/proxy/utils/Initializable.sol\":5944:5966  _initialized < version */\n      0xff\n      and\n        /* \"@openzeppelin/contracts-upgradeable/proxy/utils/Initializable.sol\":5944:5956  _initialized */\n      0x00\n      dup1\n      sload\n      swap1\n      0x0100\n      exp\n      swap1\n      div\n      0xff\n      and\n        /* \"@openzeppelin/contracts-upgradeable/proxy/utils/Initializable.sol\":5944:5966  _initialized < version */\n      0xff\n      and\n      lt\n        /* \"@openzeppelin/contracts-upgradeable/proxy/utils/Initializable.sol\":5936:6017  require(_initialized < version, \"Initializable: contract is already initialized\") */\n      tag_295\n      jumpi\n      mload(0x40)\n      0x08c379a000000000000000000000000000000000000000000000000000000000\n      dup2\n      mstore\n      0x04\n      add\n      tag_296\n      swap1\n      tag_293\n      jump\t// in\n    tag_296:\n      mload(0x40)\n      dup1\n      swap2\n      sub\n      swap1\n      revert\n    tag_295:\n        /* \"@openzeppelin/contracts-upgradeable/proxy/utils/Initializable.sol\":6046:6053  version */\n      dup2\n        /* \"@openzeppelin/contracts-upgradeable/proxy/utils/Initializable.sol\":6031:6043  _initialized */\n      0x00\n      dup1\n        /* \"@openzeppelin/contracts-upgradeable/proxy/utils/Initializable.sol\":6031:6053  _initialized = version */\n      0x0100\n      exp\n      dup2\n      sload\n      dup2\n      0xff\n      mul\n      not\n      and\n      swap1\n      dup4\n      0xff\n      and\n      mul\n      or\n      swap1\n      sstore\n      pop\n        /* \"@openzeppelin/contracts-upgradeable/proxy/utils/Initializable.sol\":6074:6078  true */\n      0x01\n        /* \"@openzeppelin/contracts-upgradeable/proxy/utils/Initializable.sol\":6067:6078  return true */\n      swap1\n      pop\n        /* \"@openzeppelin/contracts-upgradeable/proxy/utils/Initializable.sol\":5287:6095  function _setInitializedVersion(uint8 version) private returns (bool) {... */\n    tag_286:\n      swap2\n      swap1\n      pop\n      jump\t// out\n        /* \"@openzeppelin/contracts-upgradeable/access/OwnableUpgradeable.sol\":988:1083  function __Ownable_init() internal onlyInitializing {... */\n    tag_168:\n        /* \"@openzeppelin/contracts-upgradeable/proxy/utils/Initializable.sol\":4698:4711  _initializing */\n      0x00\n      0x01\n      swap1\n      sload\n      swap1\n      0x0100\n      exp\n      swap1\n      div\n      0xff\n      and\n        /* \"@openzeppelin/contracts-upgradeable/proxy/utils/Initializable.sol\":4690:4759  require(_initializing, \"Initializable: contract is not initializing\") */\n      tag_298\n      jumpi\n      mload(0x40)\n      0x08c379a000000000000000000000000000000000000000000000000000000000\n      dup2\n      mstore\n      0x04\n      add\n      tag_299\n      swap1\n      tag_300\n      jump\t// in\n    tag_299:\n      mload(0x40)\n      dup1\n      swap2\n      sub\n      swap1\n      revert\n    tag_298:\n        /* \"@openzeppelin/contracts-upgradeable/access/OwnableUpgradeable.sol\":1050:1076  __Ownable_init_unchained() */\n      tag_302\n        /* \"@openzeppelin/contracts-upgradeable/access/OwnableUpgradeable.sol\":1050:1074  __Ownable_init_unchained */\n      tag_303\n        /* \"@openzeppelin/contracts-upgradeable/access/OwnableUpgradeable.sol\":1050:1076  __Ownable_init_unchained() */\n      jump\t// in\n    tag_302:\n        /* \"@openzeppelin/contracts-upgradeable/access/OwnableUpgradeable.sol\":988:1083  function __Ownable_init() internal onlyInitializing {... */\n      jump\t// out\n        /* \"contracts/Lottery_backup.sol\":5912:6189  function _addLottery() private {... */\n    tag_219:\n        /* \"contracts/Lottery_backup.sol\":5981:6182  LotteryInfo(... */\n      mload(0x40)\n      dup1\n      0xe0\n      add\n      0x40\n      mstore\n      dup1\n        /* \"contracts/Lottery_backup.sol\":6006:6015  lotteryID */\n      sload(0x67)\n        /* \"contracts/Lottery_backup.sol\":5981:6182  LotteryInfo(... */\n      dup2\n      mstore\n      0x20\n      add\n        /* \"contracts/Lottery_backup.sol\":6029:6038  prizePool */\n      sload(0x6a)\n        /* \"contracts/Lottery_backup.sol\":5981:6182  LotteryInfo(... */\n      dup2\n      mstore\n      0x20\n      add\n        /* \"contracts/Lottery_backup.sol\":6052:6065  costPerTicket */\n      sload(0x69)\n        /* \"contracts/Lottery_backup.sol\":5981:6182  LotteryInfo(... */\n      dup2\n      mstore\n      0x20\n      add\n        /* \"contracts/Lottery_backup.sol\":6079:6096  startingTimestamp */\n      sload(0x6b)\n        /* \"contracts/Lottery_backup.sol\":5981:6182  LotteryInfo(... */\n      dup2\n      mstore\n      0x20\n      add\n        /* \"contracts/Lottery_backup.sol\":6110:6126  closingTimestamp */\n      sload(0x6c)\n        /* \"contracts/Lottery_backup.sol\":5981:6182  LotteryInfo(... */\n      dup2\n      mstore\n      0x20\n      add\n        /* \"contracts/Lottery_backup.sol\":6140:6146  winner */\n      0x6d\n      0x00\n      swap1\n      sload\n      swap1\n      0x0100\n      exp\n      swap1\n      div\n      0xffffffffffffffffffffffffffffffffffffffff\n      and\n        /* \"contracts/Lottery_backup.sol\":5981:6182  LotteryInfo(... */\n      0xffffffffffffffffffffffffffffffffffffffff\n      and\n      dup2\n      mstore\n      0x20\n      add\n        /* \"contracts/Lottery_backup.sol\":6160:6172  randomResult */\n      sload(0x6e)\n        /* \"contracts/Lottery_backup.sol\":5981:6182  LotteryInfo(... */\n      dup2\n      mstore\n      pop\n        /* \"contracts/Lottery_backup.sol\":5953:5965  allLotteries */\n      0x71\n        /* \"contracts/Lottery_backup.sol\":5953:5978  allLotteries[lotteryID++] */\n      0x00\n        /* \"contracts/Lottery_backup.sol\":5966:5975  lotteryID */\n      0x67\n      0x00\n        /* \"contracts/Lottery_backup.sol\":5966:5977  lotteryID++ */\n      dup2\n      sload\n      dup1\n      swap3\n      swap2\n      swap1\n      tag_305\n      swap1\n      tag_306\n      jump\t// in\n    tag_305:\n      swap2\n      swap1\n      pop\n      sstore\n        /* \"contracts/Lottery_backup.sol\":5953:5978  allLotteries[lotteryID++] */\n      dup2\n      mstore\n      0x20\n      add\n      swap1\n      dup2\n      mstore\n      0x20\n      add\n      0x00\n      keccak256\n        /* \"contracts/Lottery_backup.sol\":5953:6182  allLotteries[lotteryID++] = LotteryInfo(... */\n      0x00\n      dup3\n      add\n      mload\n      dup2\n      0x00\n      add\n      sstore\n      0x20\n      dup3\n      add\n      mload\n      dup2\n      0x01\n      add\n      sstore\n      0x40\n      dup3\n      add\n      mload\n      dup2\n      0x02\n      add\n      sstore\n      0x60\n      dup3\n      add\n      mload\n      dup2\n      0x03\n      add\n      sstore\n      0x80\n      dup3\n      add\n      mload\n      dup2\n      0x04\n      add\n      sstore\n      0xa0\n      dup3\n      add\n      mload\n      dup2\n      0x05\n      add\n      exp(0x0100, 0x00)\n      dup2\n      sload\n      dup2\n      0xffffffffffffffffffffffffffffffffffffffff\n      mul\n      not\n      and\n      swap1\n      dup4\n      0xffffffffffffffffffffffffffffffffffffffff\n      and\n      mul\n      or\n      swap1\n      sstore\n      pop\n      0xc0\n      dup3\n      add\n      mload\n      dup2\n      0x06\n      add\n      sstore\n      swap1\n      pop\n      pop\n        /* \"contracts/Lottery_backup.sol\":5912:6189  function _addLottery() private {... */\n      jump\t// out\n        /* \"contracts/Lottery_backup.sol\":5632:5906  function _transferPrize(uint256 _winnerPrize) private {... */\n    tag_225:\n        /* \"contracts/Lottery_backup.sol\":5709:5721  _winnerPrize */\n      dup1\n        /* \"contracts/Lottery_backup.sol\":5696:5705  prizePool */\n      0x6a\n      0x00\n        /* \"contracts/Lottery_backup.sol\":5696:5721  prizePool -= _winnerPrize */\n      dup3\n      dup3\n      sload\n      tag_308\n      swap2\n      swap1\n      tag_309\n      jump\t// in\n    tag_308:\n      swap3\n      pop\n      pop\n      dup2\n      swap1\n      sstore\n      pop\n        /* \"contracts/Lottery_backup.sol\":5731:5737  winner */\n      0x6d\n      0x00\n      swap1\n      sload\n      swap1\n      0x0100\n      exp\n      swap1\n      div\n      0xffffffffffffffffffffffffffffffffffffffff\n      and\n        /* \"contracts/Lottery_backup.sol\":5731:5746  winner.transfer */\n      0xffffffffffffffffffffffffffffffffffffffff\n      and\n        /* \"contracts/Lottery_backup.sol\":5731:5760  winner.transfer(_winnerPrize) */\n      0x08fc\n        /* \"contracts/Lottery_backup.sol\":5747:5759  _winnerPrize */\n      dup3\n        /* \"contracts/Lottery_backup.sol\":5731:5760  winner.transfer(_winnerPrize) */\n      swap1\n      dup2\n      iszero\n      mul\n      swap1\n      mload(0x40)\n      0x00\n      mload(0x40)\n      dup1\n      dup4\n      sub\n      dup2\n      dup6\n      dup9\n      dup9\n      call\n      swap4\n      pop\n      pop\n      pop\n      pop\n      iszero\n      dup1\n      iszero\n      tag_311\n      jumpi\n      returndatasize\n      0x00\n      dup1\n      returndatacopy\n      revert(0x00, returndatasize)\n    tag_311:\n      pop\n        /* \"contracts/Lottery_backup.sol\":5820:5827  owner() */\n      tag_312\n        /* \"contracts/Lottery_backup.sol\":5820:5825  owner */\n      tag_91\n        /* \"contracts/Lottery_backup.sol\":5820:5827  owner() */\n      jump\t// in\n    tag_312:\n        /* \"contracts/Lottery_backup.sol\":5812:5837  payable(owner()).transfer */\n      0xffffffffffffffffffffffffffffffffffffffff\n      and\n        /* \"contracts/Lottery_backup.sol\":5812:5848  payable(owner()).transfer(prizePool) */\n      0x08fc\n        /* \"contracts/Lottery_backup.sol\":5838:5847  prizePool */\n      sload(0x6a)\n        /* \"contracts/Lottery_backup.sol\":5812:5848  payable(owner()).transfer(prizePool) */\n      swap1\n      dup2\n      iszero\n      mul\n      swap1\n      mload(0x40)\n      0x00\n      mload(0x40)\n      dup1\n      dup4\n      sub\n      dup2\n      dup6\n      dup9\n      dup9\n      call\n      swap4\n      pop\n      pop\n      pop\n      pop\n      iszero\n      dup1\n      iszero\n      tag_314\n      jumpi\n      returndatasize\n      0x00\n      dup1\n      returndatacopy\n      revert(0x00, returndatasize)\n    tag_314:\n      pop\n        /* \"contracts/Lottery_backup.sol\":5632:5906  function _transferPrize(uint256 _winnerPrize) private {... */\n      pop\n      jump\t// out\n        /* \"contracts/Lottery_backup.sol\":6195:6525  function _reset() private {... */\n    tag_227:\n        /* \"contracts/Lottery_backup.sol\":6250:6251  0 */\n      0x00\n        /* \"contracts/Lottery_backup.sol\":6231:6247  closingTimestamp */\n      0x6c\n        /* \"contracts/Lottery_backup.sol\":6231:6251  closingTimestamp = 0 */\n      dup2\n      swap1\n      sstore\n      pop\n        /* \"contracts/Lottery_backup.sol\":6277:6278  0 */\n      0x00\n        /* \"contracts/Lottery_backup.sol\":6261:6274  costPerTicket */\n      0x69\n        /* \"contracts/Lottery_backup.sol\":6261:6278  costPerTicket = 0 */\n      dup2\n      swap1\n      sstore\n      pop\n        /* \"contracts/Lottery_backup.sol\":6306:6307  0 */\n      0x00\n        /* \"contracts/Lottery_backup.sol\":6288:6303  lotteryDuration */\n      0x6f\n        /* \"contracts/Lottery_backup.sol\":6288:6307  lotteryDuration = 0 */\n      dup2\n      swap1\n      sstore\n      pop\n        /* \"contracts/Lottery_backup.sol\":6333:6351  Status.NOT_STARTED */\n      0x00\n        /* \"contracts/Lottery_backup.sol\":6317:6330  lotteryStatus */\n      0x70\n      0x01\n        /* \"contracts/Lottery_backup.sol\":6317:6351  lotteryStatus = Status.NOT_STARTED */\n      0x0100\n      exp\n      dup2\n      sload\n      dup2\n      0xff\n      mul\n      not\n      and\n      swap1\n      dup4\n      0x03\n      dup2\n      gt\n      iszero\n      tag_316\n      jumpi\n      tag_317\n      tag_126\n      jump\t// in\n    tag_317:\n    tag_316:\n      mul\n      or\n      swap1\n      sstore\n      pop\n        /* \"contracts/Lottery_backup.sol\":6398:6399  0 */\n      0x00\n        /* \"contracts/Lottery_backup.sol\":6376:6400  new address payable[](0) */\n      0xffffffffffffffff\n      dup2\n      gt\n      iszero\n      tag_318\n      jumpi\n      tag_319\n      tag_320\n      jump\t// in\n    tag_319:\n    tag_318:\n      mload(0x40)\n      swap1\n      dup1\n      dup3\n      mstore\n      dup1\n      0x20\n      mul\n      0x20\n      add\n      dup3\n      add\n      0x40\n      mstore\n      dup1\n      iszero\n      tag_321\n      jumpi\n      dup2\n      0x20\n      add\n      0x20\n      dup3\n      mul\n      dup1\n      calldatasize\n      dup4\n      calldatacopy\n      dup1\n      dup3\n      add\n      swap2\n      pop\n      pop\n      swap1\n      pop\n    tag_321:\n      pop\n        /* \"contracts/Lottery_backup.sol\":6361:6373  participants */\n      0x68\n        /* \"contracts/Lottery_backup.sol\":6361:6400  participants = new address payable[](0) */\n      swap1\n      dup1\n      mload\n      swap1\n      0x20\n      add\n      swap1\n      tag_322\n      swap3\n      swap2\n      swap1\n      tag_323\n      jump\t// in\n    tag_322:\n      pop\n        /* \"contracts/Lottery_backup.sol\":6422:6423  0 */\n      0x00\n        /* \"contracts/Lottery_backup.sol\":6410:6419  prizePool */\n      0x6a\n        /* \"contracts/Lottery_backup.sol\":6410:6423  prizePool = 0 */\n      dup2\n      swap1\n      sstore\n      pop\n        /* \"contracts/Lottery_backup.sol\":6448:6449  0 */\n      0x00\n        /* \"contracts/Lottery_backup.sol\":6433:6445  randomResult */\n      0x6e\n        /* \"contracts/Lottery_backup.sol\":6433:6449  randomResult = 0 */\n      dup2\n      swap1\n      sstore\n      pop\n        /* \"contracts/Lottery_backup.sol\":6479:6480  0 */\n      0x00\n        /* \"contracts/Lottery_backup.sol\":6459:6476  startingTimestamp */\n      0x6b\n        /* \"contracts/Lottery_backup.sol\":6459:6480  startingTimestamp = 0 */\n      dup2\n      swap1\n      sstore\n      pop\n        /* \"contracts/Lottery_backup.sol\":6515:6516  0 */\n      0x00\n        /* \"contracts/Lottery_backup.sol\":6490:6496  winner */\n      0x6d\n      0x00\n        /* \"contracts/Lottery_backup.sol\":6490:6518  winner = payable(address(0)) */\n      0x0100\n      exp\n      dup2\n      sload\n      dup2\n      0xffffffffffffffffffffffffffffffffffffffff\n      mul\n      not\n      and\n      swap1\n      dup4\n      0xffffffffffffffffffffffffffffffffffffffff\n      and\n      mul\n      or\n      swap1\n      sstore\n      pop\n        /* \"contracts/Lottery_backup.sol\":6195:6525  function _reset() private {... */\n      jump\t// out\n        /* \"@openzeppelin/contracts-upgradeable/utils/AddressUpgradeable.sol\":1186:1506  function isContract(address account) internal view returns (bool) {... */\n    tag_290:\n        /* \"@openzeppelin/contracts-upgradeable/utils/AddressUpgradeable.sol\":1246:1250  bool */\n      0x00\n        /* \"@openzeppelin/contracts-upgradeable/utils/AddressUpgradeable.sol\":1498:1499  0 */\n      dup1\n        /* \"@openzeppelin/contracts-upgradeable/utils/AddressUpgradeable.sol\":1476:1483  account */\n      dup3\n        /* \"@openzeppelin/contracts-upgradeable/utils/AddressUpgradeable.sol\":1476:1495  account.code.length */\n      0xffffffffffffffffffffffffffffffffffffffff\n      and\n      extcodesize\n        /* \"@openzeppelin/contracts-upgradeable/utils/AddressUpgradeable.sol\":1476:1499  account.code.length > 0 */\n      gt\n        /* \"@openzeppelin/contracts-upgradeable/utils/AddressUpgradeable.sol\":1469:1499  return account.code.length > 0 */\n      swap1\n      pop\n        /* \"@openzeppelin/contracts-upgradeable/utils/AddressUpgradeable.sol\":1186:1506  function isContract(address account) internal view returns (bool) {... */\n      swap2\n      swap1\n      pop\n      jump\t// out\n        /* \"@openzeppelin/contracts-upgradeable/access/OwnableUpgradeable.sol\":1089:1200  function __Ownable_init_unchained() internal onlyInitializing {... */\n    tag_303:\n        /* \"@openzeppelin/contracts-upgradeable/proxy/utils/Initializable.sol\":4698:4711  _initializing */\n      0x00\n      0x01\n      swap1\n      sload\n      swap1\n      0x0100\n      exp\n      swap1\n      div\n      0xff\n      and\n        /* \"@openzeppelin/contracts-upgradeable/proxy/utils/Initializable.sol\":4690:4759  require(_initializing, \"Initializable: contract is not initializing\") */\n      tag_326\n      jumpi\n      mload(0x40)\n      0x08c379a000000000000000000000000000000000000000000000000000000000\n      dup2\n      mstore\n      0x04\n      add\n      tag_327\n      swap1\n      tag_300\n      jump\t// in\n    tag_327:\n      mload(0x40)\n      dup1\n      swap2\n      sub\n      swap1\n      revert\n    tag_326:\n        /* \"@openzeppelin/contracts-upgradeable/access/OwnableUpgradeable.sol\":1161:1193  _transferOwnership(_msgSender()) */\n      tag_329\n        /* \"@openzeppelin/contracts-upgradeable/access/OwnableUpgradeable.sol\":1180:1192  _msgSender() */\n      tag_330\n        /* \"@openzeppelin/contracts-upgradeable/access/OwnableUpgradeable.sol\":1180:1190  _msgSender */\n      tag_142\n        /* \"@openzeppelin/contracts-upgradeable/access/OwnableUpgradeable.sol\":1180:1192  _msgSender() */\n      jump\t// in\n    tag_330:\n        /* \"@openzeppelin/contracts-upgradeable/access/OwnableUpgradeable.sol\":1161:1179  _transferOwnership */\n      tag_161\n        /* \"@openzeppelin/contracts-upgradeable/access/OwnableUpgradeable.sol\":1161:1193  _transferOwnership(_msgSender()) */\n      jump\t// in\n    tag_329:\n        /* \"@openzeppelin/contracts-upgradeable/access/OwnableUpgradeable.sol\":1089:1200  function __Ownable_init_unchained() internal onlyInitializing {... */\n      jump\t// out\n    tag_259:\n      dup3\n      dup1\n      sload\n      dup3\n      dup3\n      sstore\n      swap1\n      0x00\n      mstore\n      keccak256(0x00, 0x20)\n      swap1\n      dup2\n      add\n      swap3\n      dup3\n      iszero\n      tag_331\n      jumpi\n      swap2\n      0x20\n      mul\n      dup3\n      add\n    tag_332:\n      dup3\n      dup2\n      gt\n      iszero\n      tag_333\n      jumpi\n      dup3\n      mload\n      dup3\n      sstore\n      swap2\n      0x20\n      add\n      swap2\n      swap1\n      0x01\n      add\n      swap1\n      jump(tag_332)\n    tag_333:\n    tag_331:\n      pop\n      swap1\n      pop\n      tag_334\n      swap2\n      swap1\n      tag_335\n      jump\t// in\n    tag_334:\n      pop\n      swap1\n      jump\t// out\n    tag_323:\n      dup3\n      dup1\n      sload\n      dup3\n      dup3\n      sstore\n      swap1\n      0x00\n      mstore\n      keccak256(0x00, 0x20)\n      swap1\n      dup2\n      add\n      swap3\n      dup3\n      iszero\n      tag_336\n      jumpi\n      swap2\n      0x20\n      mul\n      dup3\n      add\n    tag_337:\n      dup3\n      dup2\n      gt\n      iszero\n      tag_338\n      jumpi\n      dup3\n      mload\n      dup3\n      exp(0x0100, 0x00)\n      dup2\n      sload\n      dup2\n      0xffffffffffffffffffffffffffffffffffffffff\n      mul\n      not\n      and\n      swap1\n      dup4\n      0xffffffffffffffffffffffffffffffffffffffff\n      and\n      mul\n      or\n      swap1\n      sstore\n      pop\n      swap2\n      0x20\n      add\n      swap2\n      swap1\n      0x01\n      add\n      swap1\n      jump(tag_337)\n    tag_338:\n    tag_336:\n      pop\n      swap1\n      pop\n      tag_339\n      swap2\n      swap1\n      tag_335\n      jump\t// in\n    tag_339:\n      pop\n      swap1\n      jump\t// out\n    tag_335:\n    tag_340:\n      dup1\n      dup3\n      gt\n      iszero\n      tag_341\n      jumpi\n      0x00\n      dup2\n      0x00\n      swap1\n      sstore\n      pop\n      0x01\n      add\n      jump(tag_340)\n    tag_341:\n      pop\n      swap1\n      jump\t// out\n        /* \"#utility.yul\":7:187   */\n    tag_126:\n        /* \"#utility.yul\":55:132   */\n      0x4e487b7100000000000000000000000000000000000000000000000000000000\n        /* \"#utility.yul\":52:53   */\n      0x00\n        /* \"#utility.yul\":45:133   */\n      mstore\n        /* \"#utility.yul\":152:156   */\n      0x21\n        /* \"#utility.yul\":149:150   */\n      0x04\n        /* \"#utility.yul\":142:157   */\n      mstore\n        /* \"#utility.yul\":176:180   */\n      0x24\n        /* \"#utility.yul\":173:174   */\n      0x00\n        /* \"#utility.yul\":166:181   */\n      revert\n        /* \"#utility.yul\":193:308   */\n    tag_342:\n        /* \"#utility.yul\":276:277   */\n      0x04\n        /* \"#utility.yul\":269:274   */\n      dup2\n        /* \"#utility.yul\":266:278   */\n      lt\n        /* \"#utility.yul\":256:302   */\n      tag_419\n      jumpi\n        /* \"#utility.yul\":282:300   */\n      tag_420\n      tag_126\n      jump\t// in\n    tag_420:\n        /* \"#utility.yul\":256:302   */\n    tag_419:\n        /* \"#utility.yul\":193:308   */\n      pop\n      jump\t// out\n        /* \"#utility.yul\":314:445   */\n    tag_343:\n        /* \"#utility.yul\":361:368   */\n      0x00\n        /* \"#utility.yul\":390:395   */\n      dup2\n        /* \"#utility.yul\":379:395   */\n      swap1\n      pop\n        /* \"#utility.yul\":396:439   */\n      tag_422\n        /* \"#utility.yul\":433:438   */\n      dup3\n        /* \"#utility.yul\":396:439   */\n      tag_342\n      jump\t// in\n    tag_422:\n        /* \"#utility.yul\":314:445   */\n      swap2\n      swap1\n      pop\n      jump\t// out\n        /* \"#utility.yul\":451:582   */\n    tag_344:\n        /* \"#utility.yul\":509:518   */\n      0x00\n        /* \"#utility.yul\":542:576   */\n      tag_424\n        /* \"#utility.yul\":570:575   */\n      dup3\n        /* \"#utility.yul\":542:576   */\n      tag_343\n      jump\t// in\n    tag_424:\n        /* \"#utility.yul\":529:576   */\n      swap1\n      pop\n        /* \"#utility.yul\":451:582   */\n      swap2\n      swap1\n      pop\n      jump\t// out\n        /* \"#utility.yul\":588:735   */\n    tag_345:\n        /* \"#utility.yul\":683:728   */\n      tag_426\n        /* \"#utility.yul\":722:727   */\n      dup2\n        /* \"#utility.yul\":683:728   */\n      tag_344\n      jump\t// in\n    tag_426:\n        /* \"#utility.yul\":678:681   */\n      dup3\n        /* \"#utility.yul\":671:729   */\n      mstore\n        /* \"#utility.yul\":588:735   */\n      pop\n      pop\n      jump\t// out\n        /* \"#utility.yul\":741:979   */\n    tag_30:\n        /* \"#utility.yul\":842:846   */\n      0x00\n        /* \"#utility.yul\":880:882   */\n      0x20\n        /* \"#utility.yul\":869:878   */\n      dup3\n        /* \"#utility.yul\":865:883   */\n      add\n        /* \"#utility.yul\":857:883   */\n      swap1\n      pop\n        /* \"#utility.yul\":893:972   */\n      tag_428\n        /* \"#utility.yul\":969:970   */\n      0x00\n        /* \"#utility.yul\":958:967   */\n      dup4\n        /* \"#utility.yul\":954:971   */\n      add\n        /* \"#utility.yul\":945:951   */\n      dup5\n        /* \"#utility.yul\":893:972   */\n      tag_345\n      jump\t// in\n    tag_428:\n        /* \"#utility.yul\":741:979   */\n      swap3\n      swap2\n      pop\n      pop\n      jump\t// out\n        /* \"#utility.yul\":985:1060   */\n    tag_346:\n        /* \"#utility.yul\":1018:1024   */\n      0x00\n        /* \"#utility.yul\":1051:1053   */\n      0x40\n        /* \"#utility.yul\":1045:1054   */\n      mload\n        /* \"#utility.yul\":1035:1054   */\n      swap1\n      pop\n        /* \"#utility.yul\":985:1060   */\n      swap1\n      jump\t// out\n        /* \"#utility.yul\":1066:1183   */\n    tag_347:\n        /* \"#utility.yul\":1175:1176   */\n      0x00\n        /* \"#utility.yul\":1172:1173   */\n      dup1\n        /* \"#utility.yul\":1165:1177   */\n      revert\n        /* \"#utility.yul\":1189:1306   */\n    tag_348:\n        /* \"#utility.yul\":1298:1299   */\n      0x00\n        /* \"#utility.yul\":1295:1296   */\n      dup1\n        /* \"#utility.yul\":1288:1300   */\n      revert\n        /* \"#utility.yul\":1312:1389   */\n    tag_349:\n        /* \"#utility.yul\":1349:1356   */\n      0x00\n        /* \"#utility.yul\":1378:1383   */\n      dup2\n        /* \"#utility.yul\":1367:1383   */\n      swap1\n      pop\n        /* \"#utility.yul\":1312:1389   */\n      swap2\n      swap1\n      pop\n      jump\t// out\n        /* \"#utility.yul\":1395:1517   */\n    tag_350:\n        /* \"#utility.yul\":1468:1492   */\n      tag_434\n        /* \"#utility.yul\":1486:1491   */\n      dup2\n        /* \"#utility.yul\":1468:1492   */\n      tag_349\n      jump\t// in\n    tag_434:\n        /* \"#utility.yul\":1461:1466   */\n      dup2\n        /* \"#utility.yul\":1458:1493   */\n      eq\n        /* \"#utility.yul\":1448:1511   */\n      tag_435\n      jumpi\n        /* \"#utility.yul\":1507:1508   */\n      0x00\n        /* \"#utility.yul\":1504:1505   */\n      dup1\n        /* \"#utility.yul\":1497:1509   */\n      revert\n        /* \"#utility.yul\":1448:1511   */\n    tag_435:\n        /* \"#utility.yul\":1395:1517   */\n      pop\n      jump\t// out\n        /* \"#utility.yul\":1523:1662   */\n    tag_351:\n        /* \"#utility.yul\":1569:1574   */\n      0x00\n        /* \"#utility.yul\":1607:1613   */\n      dup2\n        /* \"#utility.yul\":1594:1614   */\n      calldataload\n        /* \"#utility.yul\":1585:1614   */\n      swap1\n      pop\n        /* \"#utility.yul\":1623:1656   */\n      tag_437\n        /* \"#utility.yul\":1650:1655   */\n      dup2\n        /* \"#utility.yul\":1623:1656   */\n      tag_350\n      jump\t// in\n    tag_437:\n        /* \"#utility.yul\":1523:1662   */\n      swap3\n      swap2\n      pop\n      pop\n      jump\t// out\n        /* \"#utility.yul\":1668:1785   */\n    tag_352:\n        /* \"#utility.yul\":1777:1778   */\n      0x00\n        /* \"#utility.yul\":1774:1775   */\n      dup1\n        /* \"#utility.yul\":1767:1779   */\n      revert\n        /* \"#utility.yul\":1791:1893   */\n    tag_353:\n        /* \"#utility.yul\":1832:1838   */\n      0x00\n        /* \"#utility.yul\":1883:1885   */\n      0x1f\n        /* \"#utility.yul\":1879:1886   */\n      not\n        /* \"#utility.yul\":1874:1876   */\n      0x1f\n        /* \"#utility.yul\":1867:1872   */\n      dup4\n        /* \"#utility.yul\":1863:1877   */\n      add\n        /* \"#utility.yul\":1859:1887   */\n      and\n        /* \"#utility.yul\":1849:1887   */\n      swap1\n      pop\n        /* \"#utility.yul\":1791:1893   */\n      swap2\n      swap1\n      pop\n      jump\t// out\n        /* \"#utility.yul\":1899:2079   */\n    tag_320:\n        /* \"#utility.yul\":1947:2024   */\n      0x4e487b7100000000000000000000000000000000000000000000000000000000\n        /* \"#utility.yul\":1944:1945   */\n      0x00\n        /* \"#utility.yul\":1937:2025   */\n      mstore\n        /* \"#utility.yul\":2044:2048   */\n      0x41\n        /* \"#utility.yul\":2041:2042   */\n      0x04\n        /* \"#utility.yul\":2034:2049   */\n      mstore\n        /* \"#utility.yul\":2068:2072   */\n      0x24\n        /* \"#utility.yul\":2065:2066   */\n      0x00\n        /* \"#utility.yul\":2058:2073   */\n      revert\n        /* \"#utility.yul\":2085:2366   */\n    tag_354:\n        /* \"#utility.yul\":2168:2195   */\n      tag_442\n        /* \"#utility.yul\":2190:2194   */\n      dup3\n        /* \"#utility.yul\":2168:2195   */\n      tag_353\n      jump\t// in\n    tag_442:\n        /* \"#utility.yul\":2160:2166   */\n      dup2\n        /* \"#utility.yul\":2156:2196   */\n      add\n        /* \"#utility.yul\":2298:2304   */\n      dup2\n        /* \"#utility.yul\":2286:2296   */\n      dup2\n        /* \"#utility.yul\":2283:2305   */\n      lt\n        /* \"#utility.yul\":2262:2280   */\n      0xffffffffffffffff\n        /* \"#utility.yul\":2250:2260   */\n      dup3\n        /* \"#utility.yul\":2247:2281   */\n      gt\n        /* \"#utility.yul\":2244:2306   */\n      or\n        /* \"#utility.yul\":2241:2329   */\n      iszero\n      tag_443\n      jumpi\n        /* \"#utility.yul\":2309:2327   */\n      tag_444\n      tag_320\n      jump\t// in\n    tag_444:\n        /* \"#utility.yul\":2241:2329   */\n    tag_443:\n        /* \"#utility.yul\":2349:2359   */\n      dup1\n        /* \"#utility.yul\":2345:2347   */\n      0x40\n        /* \"#utility.yul\":2338:2360   */\n      mstore\n        /* \"#utility.yul\":2128:2366   */\n      pop\n        /* \"#utility.yul\":2085:2366   */\n      pop\n      pop\n      jump\t// out\n        /* \"#utility.yul\":2372:2501   */\n    tag_355:\n        /* \"#utility.yul\":2406:2412   */\n      0x00\n        /* \"#utility.yul\":2433:2453   */\n      tag_446\n      tag_346\n      jump\t// in\n    tag_446:\n        /* \"#utility.yul\":2423:2453   */\n      swap1\n      pop\n        /* \"#utility.yul\":2462:2495   */\n      tag_447\n        /* \"#utility.yul\":2490:2494   */\n      dup3\n        /* \"#utility.yul\":2482:2488   */\n      dup3\n        /* \"#utility.yul\":2462:2495   */\n      tag_354\n      jump\t// in\n    tag_447:\n        /* \"#utility.yul\":2372:2501   */\n      swap2\n      swap1\n      pop\n      jump\t// out\n        /* \"#utility.yul\":2507:2818   */\n    tag_356:\n        /* \"#utility.yul\":2584:2588   */\n      0x00\n        /* \"#utility.yul\":2674:2692   */\n      0xffffffffffffffff\n        /* \"#utility.yul\":2666:2672   */\n      dup3\n        /* \"#utility.yul\":2663:2693   */\n      gt\n        /* \"#utility.yul\":2660:2716   */\n      iszero\n      tag_449\n      jumpi\n        /* \"#utility.yul\":2696:2714   */\n      tag_450\n      tag_320\n      jump\t// in\n    tag_450:\n        /* \"#utility.yul\":2660:2716   */\n    tag_449:\n        /* \"#utility.yul\":2746:2750   */\n      0x20\n        /* \"#utility.yul\":2738:2744   */\n      dup3\n        /* \"#utility.yul\":2734:2751   */\n      mul\n        /* \"#utility.yul\":2726:2751   */\n      swap1\n      pop\n        /* \"#utility.yul\":2806:2810   */\n      0x20\n        /* \"#utility.yul\":2800:2804   */\n      dup2\n        /* \"#utility.yul\":2796:2811   */\n      add\n        /* \"#utility.yul\":2788:2811   */\n      swap1\n      pop\n        /* \"#utility.yul\":2507:2818   */\n      swap2\n      swap1\n      pop\n      jump\t// out\n        /* \"#utility.yul\":2824:2941   */\n    tag_357:\n        /* \"#utility.yul\":2933:2934   */\n      0x00\n        /* \"#utility.yul\":2930:2931   */\n      dup1\n        /* \"#utility.yul\":2923:2935   */\n      revert\n        /* \"#utility.yul\":2964:3674   */\n    tag_358:\n        /* \"#utility.yul\":3060:3065   */\n      0x00\n        /* \"#utility.yul\":3085:3166   */\n      tag_453\n        /* \"#utility.yul\":3101:3165   */\n      tag_454\n        /* \"#utility.yul\":3158:3164   */\n      dup5\n        /* \"#utility.yul\":3101:3165   */\n      tag_356\n      jump\t// in\n    tag_454:\n        /* \"#utility.yul\":3085:3166   */\n      tag_355\n      jump\t// in\n    tag_453:\n        /* \"#utility.yul\":3076:3166   */\n      swap1\n      pop\n        /* \"#utility.yul\":3186:3191   */\n      dup1\n        /* \"#utility.yul\":3215:3221   */\n      dup4\n        /* \"#utility.yul\":3208:3213   */\n      dup3\n        /* \"#utility.yul\":3201:3222   */\n      mstore\n        /* \"#utility.yul\":3249:3253   */\n      0x20\n        /* \"#utility.yul\":3242:3247   */\n      dup3\n        /* \"#utility.yul\":3238:3254   */\n      add\n        /* \"#utility.yul\":3231:3254   */\n      swap1\n      pop\n        /* \"#utility.yul\":3302:3306   */\n      0x20\n        /* \"#utility.yul\":3294:3300   */\n      dup5\n        /* \"#utility.yul\":3290:3307   */\n      mul\n        /* \"#utility.yul\":3282:3288   */\n      dup4\n        /* \"#utility.yul\":3278:3308   */\n      add\n        /* \"#utility.yul\":3331:3334   */\n      dup6\n        /* \"#utility.yul\":3323:3329   */\n      dup2\n        /* \"#utility.yul\":3320:3335   */\n      gt\n        /* \"#utility.yul\":3317:3439   */\n      iszero\n      tag_455\n      jumpi\n        /* \"#utility.yul\":3350:3429   */\n      tag_456\n      tag_357\n      jump\t// in\n    tag_456:\n        /* \"#utility.yul\":3317:3439   */\n    tag_455:\n        /* \"#utility.yul\":3465:3471   */\n      dup4\n        /* \"#utility.yul\":3448:3668   */\n    tag_457:\n        /* \"#utility.yul\":3482:3488   */\n      dup2\n        /* \"#utility.yul\":3477:3480   */\n      dup2\n        /* \"#utility.yul\":3474:3489   */\n      lt\n        /* \"#utility.yul\":3448:3668   */\n      iszero\n      tag_459\n      jumpi\n        /* \"#utility.yul\":3557:3560   */\n      dup1\n        /* \"#utility.yul\":3586:3623   */\n      tag_460\n        /* \"#utility.yul\":3619:3622   */\n      dup9\n        /* \"#utility.yul\":3607:3617   */\n      dup3\n        /* \"#utility.yul\":3586:3623   */\n      tag_351\n      jump\t// in\n    tag_460:\n        /* \"#utility.yul\":3581:3584   */\n      dup5\n        /* \"#utility.yul\":3574:3624   */\n      mstore\n        /* \"#utility.yul\":3653:3657   */\n      0x20\n        /* \"#utility.yul\":3648:3651   */\n      dup5\n        /* \"#utility.yul\":3644:3658   */\n      add\n        /* \"#utility.yul\":3637:3658   */\n      swap4\n      pop\n        /* \"#utility.yul\":3524:3668   */\n      pop\n        /* \"#utility.yul\":3508:3512   */\n      0x20\n        /* \"#utility.yul\":3503:3506   */\n      dup2\n        /* \"#utility.yul\":3499:3513   */\n      add\n        /* \"#utility.yul\":3492:3513   */\n      swap1\n      pop\n        /* \"#utility.yul\":3448:3668   */\n      jump(tag_457)\n    tag_459:\n        /* \"#utility.yul\":3452:3473   */\n      pop\n        /* \"#utility.yul\":3066:3674   */\n      pop\n      pop\n        /* \"#utility.yul\":2964:3674   */\n      swap4\n      swap3\n      pop\n      pop\n      pop\n      jump\t// out\n        /* \"#utility.yul\":3697:4067   */\n    tag_359:\n        /* \"#utility.yul\":3768:3773   */\n      0x00\n        /* \"#utility.yul\":3817:3820   */\n      dup3\n        /* \"#utility.yul\":3810:3814   */\n      0x1f\n        /* \"#utility.yul\":3802:3808   */\n      dup4\n        /* \"#utility.yul\":3798:3815   */\n      add\n        /* \"#utility.yul\":3794:3821   */\n      slt\n        /* \"#utility.yul\":3784:3906   */\n      tag_462\n      jumpi\n        /* \"#utility.yul\":3825:3904   */\n      tag_463\n      tag_352\n      jump\t// in\n    tag_463:\n        /* \"#utility.yul\":3784:3906   */\n    tag_462:\n        /* \"#utility.yul\":3942:3948   */\n      dup2\n        /* \"#utility.yul\":3929:3949   */\n      calldataload\n        /* \"#utility.yul\":3967:4061   */\n      tag_464\n        /* \"#utility.yul\":4057:4060   */\n      dup5\n        /* \"#utility.yul\":4049:4055   */\n      dup3\n        /* \"#utility.yul\":4042:4046   */\n      0x20\n        /* \"#utility.yul\":4034:4040   */\n      dup7\n        /* \"#utility.yul\":4030:4047   */\n      add\n        /* \"#utility.yul\":3967:4061   */\n      tag_358\n      jump\t// in\n    tag_464:\n        /* \"#utility.yul\":3958:4061   */\n      swap2\n      pop\n        /* \"#utility.yul\":3774:4067   */\n      pop\n        /* \"#utility.yul\":3697:4067   */\n      swap3\n      swap2\n      pop\n      pop\n      jump\t// out\n        /* \"#utility.yul\":4073:4757   */\n    tag_34:\n        /* \"#utility.yul\":4166:4172   */\n      0x00\n        /* \"#utility.yul\":4174:4180   */\n      dup1\n        /* \"#utility.yul\":4223:4225   */\n      0x40\n        /* \"#utility.yul\":4211:4220   */\n      dup4\n        /* \"#utility.yul\":4202:4209   */\n      dup6\n        /* \"#utility.yul\":4198:4221   */\n      sub\n        /* \"#utility.yul\":4194:4226   */\n      slt\n        /* \"#utility.yul\":4191:4310   */\n      iszero\n      tag_466\n      jumpi\n        /* \"#utility.yul\":4229:4308   */\n      tag_467\n      tag_347\n      jump\t// in\n    tag_467:\n        /* \"#utility.yul\":4191:4310   */\n    tag_466:\n        /* \"#utility.yul\":4349:4350   */\n      0x00\n        /* \"#utility.yul\":4374:4427   */\n      tag_468\n        /* \"#utility.yul\":4419:4426   */\n      dup6\n        /* \"#utility.yul\":4410:4416   */\n      dup3\n        /* \"#utility.yul\":4399:4408   */\n      dup7\n        /* \"#utility.yul\":4395:4417   */\n      add\n        /* \"#utility.yul\":4374:4427   */\n      tag_351\n      jump\t// in\n    tag_468:\n        /* \"#utility.yul\":4364:4427   */\n      swap3\n      pop\n        /* \"#utility.yul\":4320:4437   */\n      pop\n        /* \"#utility.yul\":4504:4506   */\n      0x20\n        /* \"#utility.yul\":4493:4502   */\n      dup4\n        /* \"#utility.yul\":4489:4507   */\n      add\n        /* \"#utility.yul\":4476:4508   */\n      calldataload\n        /* \"#utility.yul\":4535:4553   */\n      0xffffffffffffffff\n        /* \"#utility.yul\":4527:4533   */\n      dup2\n        /* \"#utility.yul\":4524:4554   */\n      gt\n        /* \"#utility.yul\":4521:4638   */\n      iszero\n      tag_469\n      jumpi\n        /* \"#utility.yul\":4557:4636   */\n      tag_470\n      tag_348\n      jump\t// in\n    tag_470:\n        /* \"#utility.yul\":4521:4638   */\n    tag_469:\n        /* \"#utility.yul\":4662:4740   */\n      tag_471\n        /* \"#utility.yul\":4732:4739   */\n      dup6\n        /* \"#utility.yul\":4723:4729   */\n      dup3\n        /* \"#utility.yul\":4712:4721   */\n      dup7\n        /* \"#utility.yul\":4708:4730   */\n      add\n        /* \"#utility.yul\":4662:4740   */\n      tag_359\n      jump\t// in\n    tag_471:\n        /* \"#utility.yul\":4652:4740   */\n      swap2\n      pop\n        /* \"#utility.yul\":4447:4750   */\n      pop\n        /* \"#utility.yul\":4073:4757   */\n      swap3\n      pop\n      swap3\n      swap1\n      pop\n      jump\t// out\n        /* \"#utility.yul\":4763:4881   */\n    tag_360:\n        /* \"#utility.yul\":4850:4874   */\n      tag_473\n        /* \"#utility.yul\":4868:4873   */\n      dup2\n        /* \"#utility.yul\":4850:4874   */\n      tag_349\n      jump\t// in\n    tag_473:\n        /* \"#utility.yul\":4845:4848   */\n      dup3\n        /* \"#utility.yul\":4838:4875   */\n      mstore\n        /* \"#utility.yul\":4763:4881   */\n      pop\n      pop\n      jump\t// out\n        /* \"#utility.yul\":4887:5109   */\n    tag_40:\n        /* \"#utility.yul\":4980:4984   */\n      0x00\n        /* \"#utility.yul\":5018:5020   */\n      0x20\n        /* \"#utility.yul\":5007:5016   */\n      dup3\n        /* \"#utility.yul\":5003:5021   */\n      add\n        /* \"#utility.yul\":4995:5021   */\n      swap1\n      pop\n        /* \"#utility.yul\":5031:5102   */\n      tag_475\n        /* \"#utility.yul\":5099:5100   */\n      0x00\n        /* \"#utility.yul\":5088:5097   */\n      dup4\n        /* \"#utility.yul\":5084:5101   */\n      add\n        /* \"#utility.yul\":5075:5081   */\n      dup5\n        /* \"#utility.yul\":5031:5102   */\n      tag_360\n      jump\t// in\n    tag_475:\n        /* \"#utility.yul\":4887:5109   */\n      swap3\n      swap2\n      pop\n      pop\n      jump\t// out\n        /* \"#utility.yul\":5115:5444   */\n    tag_44:\n        /* \"#utility.yul\":5174:5180   */\n      0x00\n        /* \"#utility.yul\":5223:5225   */\n      0x20\n        /* \"#utility.yul\":5211:5220   */\n      dup3\n        /* \"#utility.yul\":5202:5209   */\n      dup5\n        /* \"#utility.yul\":5198:5221   */\n      sub\n        /* \"#utility.yul\":5194:5226   */\n      slt\n        /* \"#utility.yul\":5191:5310   */\n      iszero\n      tag_477\n      jumpi\n        /* \"#utility.yul\":5229:5308   */\n      tag_478\n      tag_347\n      jump\t// in\n    tag_478:\n        /* \"#utility.yul\":5191:5310   */\n    tag_477:\n        /* \"#utility.yul\":5349:5350   */\n      0x00\n        /* \"#utility.yul\":5374:5427   */\n      tag_479\n        /* \"#utility.yul\":5419:5426   */\n      dup5\n        /* \"#utility.yul\":5410:5416   */\n      dup3\n        /* \"#utility.yul\":5399:5408   */\n      dup6\n        /* \"#utility.yul\":5395:5417   */\n      add\n        /* \"#utility.yul\":5374:5427   */\n      tag_351\n      jump\t// in\n    tag_479:\n        /* \"#utility.yul\":5364:5427   */\n      swap2\n      pop\n        /* \"#utility.yul\":5320:5437   */\n      pop\n        /* \"#utility.yul\":5115:5444   */\n      swap3\n      swap2\n      pop\n      pop\n      jump\t// out\n        /* \"#utility.yul\":5450:5576   */\n    tag_361:\n        /* \"#utility.yul\":5487:5494   */\n      0x00\n        /* \"#utility.yul\":5527:5569   */\n      0xffffffffffffffffffffffffffffffffffffffff\n        /* \"#utility.yul\":5520:5525   */\n      dup3\n        /* \"#utility.yul\":5516:5570   */\n      and\n        /* \"#utility.yul\":5505:5570   */\n      swap1\n      pop\n        /* \"#utility.yul\":5450:5576   */\n      swap2\n      swap1\n      pop\n      jump\t// out\n        /* \"#utility.yul\":5582:5686   */\n    tag_362:\n        /* \"#utility.yul\":5627:5634   */\n      0x00\n        /* \"#utility.yul\":5656:5680   */\n      tag_482\n        /* \"#utility.yul\":5674:5679   */\n      dup3\n        /* \"#utility.yul\":5656:5680   */\n      tag_361\n      jump\t// in\n    tag_482:\n        /* \"#utility.yul\":5645:5680   */\n      swap1\n      pop\n        /* \"#utility.yul\":5582:5686   */\n      swap2\n      swap1\n      pop\n      jump\t// out\n        /* \"#utility.yul\":5692:5834   */\n    tag_363:\n        /* \"#utility.yul\":5795:5827   */\n      tag_484\n        /* \"#utility.yul\":5821:5826   */\n      dup2\n        /* \"#utility.yul\":5795:5827   */\n      tag_362\n      jump\t// in\n    tag_484:\n        /* \"#utility.yul\":5790:5793   */\n      dup3\n        /* \"#utility.yul\":5783:5828   */\n      mstore\n        /* \"#utility.yul\":5692:5834   */\n      pop\n      pop\n      jump\t// out\n        /* \"#utility.yul\":5840:6094   */\n    tag_47:\n        /* \"#utility.yul\":5949:5953   */\n      0x00\n        /* \"#utility.yul\":5987:5989   */\n      0x20\n        /* \"#utility.yul\":5976:5985   */\n      dup3\n        /* \"#utility.yul\":5972:5990   */\n      add\n        /* \"#utility.yul\":5964:5990   */\n      swap1\n      pop\n        /* \"#utility.yul\":6000:6087   */\n      tag_486\n        /* \"#utility.yul\":6084:6085   */\n      0x00\n        /* \"#utility.yul\":6073:6082   */\n      dup4\n        /* \"#utility.yul\":6069:6086   */\n      add\n        /* \"#utility.yul\":6060:6066   */\n      dup5\n        /* \"#utility.yul\":6000:6087   */\n      tag_363\n      jump\t// in\n    tag_486:\n        /* \"#utility.yul\":5840:6094   */\n      swap3\n      swap2\n      pop\n      pop\n      jump\t// out\n        /* \"#utility.yul\":6100:6196   */\n    tag_364:\n        /* \"#utility.yul\":6137:6144   */\n      0x00\n        /* \"#utility.yul\":6166:6190   */\n      tag_488\n        /* \"#utility.yul\":6184:6189   */\n      dup3\n        /* \"#utility.yul\":6166:6190   */\n      tag_361\n      jump\t// in\n    tag_488:\n        /* \"#utility.yul\":6155:6190   */\n      swap1\n      pop\n        /* \"#utility.yul\":6100:6196   */\n      swap2\n      swap1\n      pop\n      jump\t// out\n        /* \"#utility.yul\":6202:6320   */\n    tag_365:\n        /* \"#utility.yul\":6289:6313   */\n      tag_490\n        /* \"#utility.yul\":6307:6312   */\n      dup2\n        /* \"#utility.yul\":6289:6313   */\n      tag_364\n      jump\t// in\n    tag_490:\n        /* \"#utility.yul\":6284:6287   */\n      dup3\n        /* \"#utility.yul\":6277:6314   */\n      mstore\n        /* \"#utility.yul\":6202:6320   */\n      pop\n      pop\n      jump\t// out\n        /* \"#utility.yul\":6326:7212   */\n    tag_57:\n        /* \"#utility.yul\":6587:6591   */\n      0x00\n        /* \"#utility.yul\":6625:6628   */\n      0xe0\n        /* \"#utility.yul\":6614:6623   */\n      dup3\n        /* \"#utility.yul\":6610:6629   */\n      add\n        /* \"#utility.yul\":6602:6629   */\n      swap1\n      pop\n        /* \"#utility.yul\":6639:6710   */\n      tag_492\n        /* \"#utility.yul\":6707:6708   */\n      0x00\n        /* \"#utility.yul\":6696:6705   */\n      dup4\n        /* \"#utility.yul\":6692:6709   */\n      add\n        /* \"#utility.yul\":6683:6689   */\n      dup11\n        /* \"#utility.yul\":6639:6710   */\n      tag_360\n      jump\t// in\n    tag_492:\n        /* \"#utility.yul\":6720:6792   */\n      tag_493\n        /* \"#utility.yul\":6788:6790   */\n      0x20\n        /* \"#utility.yul\":6777:6786   */\n      dup4\n        /* \"#utility.yul\":6773:6791   */\n      add\n        /* \"#utility.yul\":6764:6770   */\n      dup10\n        /* \"#utility.yul\":6720:6792   */\n      tag_360\n      jump\t// in\n    tag_493:\n        /* \"#utility.yul\":6802:6874   */\n      tag_494\n        /* \"#utility.yul\":6870:6872   */\n      0x40\n        /* \"#utility.yul\":6859:6868   */\n      dup4\n        /* \"#utility.yul\":6855:6873   */\n      add\n        /* \"#utility.yul\":6846:6852   */\n      dup9\n        /* \"#utility.yul\":6802:6874   */\n      tag_360\n      jump\t// in\n    tag_494:\n        /* \"#utility.yul\":6884:6956   */\n      tag_495\n        /* \"#utility.yul\":6952:6954   */\n      0x60\n        /* \"#utility.yul\":6941:6950   */\n      dup4\n        /* \"#utility.yul\":6937:6955   */\n      add\n        /* \"#utility.yul\":6928:6934   */\n      dup8\n        /* \"#utility.yul\":6884:6956   */\n      tag_360\n      jump\t// in\n    tag_495:\n        /* \"#utility.yul\":6966:7039   */\n      tag_496\n        /* \"#utility.yul\":7034:7037   */\n      0x80\n        /* \"#utility.yul\":7023:7032   */\n      dup4\n        /* \"#utility.yul\":7019:7038   */\n      add\n        /* \"#utility.yul\":7010:7016   */\n      dup7\n        /* \"#utility.yul\":6966:7039   */\n      tag_360\n      jump\t// in\n    tag_496:\n        /* \"#utility.yul\":7049:7122   */\n      tag_497\n        /* \"#utility.yul\":7117:7120   */\n      0xa0\n        /* \"#utility.yul\":7106:7115   */\n      dup4\n        /* \"#utility.yul\":7102:7121   */\n      add\n        /* \"#utility.yul\":7093:7099   */\n      dup6\n        /* \"#utility.yul\":7049:7122   */\n      tag_365\n      jump\t// in\n    tag_497:\n        /* \"#utility.yul\":7132:7205   */\n      tag_498\n        /* \"#utility.yul\":7200:7203   */\n      0xc0\n        /* \"#utility.yul\":7189:7198   */\n      dup4\n        /* \"#utility.yul\":7185:7204   */\n      add\n        /* \"#utility.yul\":7176:7182   */\n      dup5\n        /* \"#utility.yul\":7132:7205   */\n      tag_360\n      jump\t// in\n    tag_498:\n        /* \"#utility.yul\":6326:7212   */\n      swap9\n      swap8\n      pop\n      pop\n      pop\n      pop\n      pop\n      pop\n      pop\n      pop\n      jump\t// out\n        /* \"#utility.yul\":7218:7304   */\n    tag_366:\n        /* \"#utility.yul\":7253:7260   */\n      0x00\n        /* \"#utility.yul\":7293:7297   */\n      0xff\n        /* \"#utility.yul\":7286:7291   */\n      dup3\n        /* \"#utility.yul\":7282:7298   */\n      and\n        /* \"#utility.yul\":7271:7298   */\n      swap1\n      pop\n        /* \"#utility.yul\":7218:7304   */\n      swap2\n      swap1\n      pop\n      jump\t// out\n        /* \"#utility.yul\":7310:7428   */\n    tag_367:\n        /* \"#utility.yul\":7381:7403   */\n      tag_501\n        /* \"#utility.yul\":7397:7402   */\n      dup2\n        /* \"#utility.yul\":7381:7403   */\n      tag_366\n      jump\t// in\n    tag_501:\n        /* \"#utility.yul\":7374:7379   */\n      dup2\n        /* \"#utility.yul\":7371:7404   */\n      eq\n        /* \"#utility.yul\":7361:7422   */\n      tag_502\n      jumpi\n        /* \"#utility.yul\":7418:7419   */\n      0x00\n        /* \"#utility.yul\":7415:7416   */\n      dup1\n        /* \"#utility.yul\":7408:7420   */\n      revert\n        /* \"#utility.yul\":7361:7422   */\n    tag_502:\n        /* \"#utility.yul\":7310:7428   */\n      pop\n      jump\t// out\n        /* \"#utility.yul\":7434:7569   */\n    tag_368:\n        /* \"#utility.yul\":7478:7483   */\n      0x00\n        /* \"#utility.yul\":7516:7522   */\n      dup2\n        /* \"#utility.yul\":7503:7523   */\n      calldataload\n        /* \"#utility.yul\":7494:7523   */\n      swap1\n      pop\n        /* \"#utility.yul\":7532:7563   */\n      tag_504\n        /* \"#utility.yul\":7557:7562   */\n      dup2\n        /* \"#utility.yul\":7532:7563   */\n      tag_367\n      jump\t// in\n    tag_504:\n        /* \"#utility.yul\":7434:7569   */\n      swap3\n      swap2\n      pop\n      pop\n      jump\t// out\n        /* \"#utility.yul\":7575:8190   */\n    tag_78:\n        /* \"#utility.yul\":7650:7656   */\n      0x00\n        /* \"#utility.yul\":7658:7664   */\n      dup1\n        /* \"#utility.yul\":7666:7672   */\n      0x00\n        /* \"#utility.yul\":7715:7717   */\n      0x60\n        /* \"#utility.yul\":7703:7712   */\n      dup5\n        /* \"#utility.yul\":7694:7701   */\n      dup7\n        /* \"#utility.yul\":7690:7713   */\n      sub\n        /* \"#utility.yul\":7686:7718   */\n      slt\n        /* \"#utility.yul\":7683:7802   */\n      iszero\n      tag_506\n      jumpi\n        /* \"#utility.yul\":7721:7800   */\n      tag_507\n      tag_347\n      jump\t// in\n    tag_507:\n        /* \"#utility.yul\":7683:7802   */\n    tag_506:\n        /* \"#utility.yul\":7841:7842   */\n      0x00\n        /* \"#utility.yul\":7866:7919   */\n      tag_508\n        /* \"#utility.yul\":7911:7918   */\n      dup7\n        /* \"#utility.yul\":7902:7908   */\n      dup3\n        /* \"#utility.yul\":7891:7900   */\n      dup8\n        /* \"#utility.yul\":7887:7909   */\n      add\n        /* \"#utility.yul\":7866:7919   */\n      tag_351\n      jump\t// in\n    tag_508:\n        /* \"#utility.yul\":7856:7919   */\n      swap4\n      pop\n        /* \"#utility.yul\":7812:7929   */\n      pop\n        /* \"#utility.yul\":7968:7970   */\n      0x20\n        /* \"#utility.yul\":7994:8045   */\n      tag_509\n        /* \"#utility.yul\":8037:8044   */\n      dup7\n        /* \"#utility.yul\":8028:8034   */\n      dup3\n        /* \"#utility.yul\":8017:8026   */\n      dup8\n        /* \"#utility.yul\":8013:8035   */\n      add\n        /* \"#utility.yul\":7994:8045   */\n      tag_368\n      jump\t// in\n    tag_509:\n        /* \"#utility.yul\":7984:8045   */\n      swap3\n      pop\n        /* \"#utility.yul\":7939:8055   */\n      pop\n        /* \"#utility.yul\":8094:8096   */\n      0x40\n        /* \"#utility.yul\":8120:8173   */\n      tag_510\n        /* \"#utility.yul\":8165:8172   */\n      dup7\n        /* \"#utility.yul\":8156:8162   */\n      dup3\n        /* \"#utility.yul\":8145:8154   */\n      dup8\n        /* \"#utility.yul\":8141:8163   */\n      add\n        /* \"#utility.yul\":8120:8173   */\n      tag_351\n      jump\t// in\n    tag_510:\n        /* \"#utility.yul\":8110:8173   */\n      swap2\n      pop\n        /* \"#utility.yul\":8065:8183   */\n      pop\n        /* \"#utility.yul\":7575:8190   */\n      swap3\n      pop\n      swap3\n      pop\n      swap3\n      jump\t// out\n        /* \"#utility.yul\":8196:8308   */\n    tag_369:\n        /* \"#utility.yul\":8279:8301   */\n      tag_512\n        /* \"#utility.yul\":8295:8300   */\n      dup2\n        /* \"#utility.yul\":8279:8301   */\n      tag_366\n      jump\t// in\n    tag_512:\n        /* \"#utility.yul\":8274:8277   */\n      dup3\n        /* \"#utility.yul\":8267:8302   */\n      mstore\n        /* \"#utility.yul\":8196:8308   */\n      pop\n      pop\n      jump\t// out\n        /* \"#utility.yul\":8314:8528   */\n    tag_84:\n        /* \"#utility.yul\":8403:8407   */\n      0x00\n        /* \"#utility.yul\":8441:8443   */\n      0x20\n        /* \"#utility.yul\":8430:8439   */\n      dup3\n        /* \"#utility.yul\":8426:8444   */\n      add\n        /* \"#utility.yul\":8418:8444   */\n      swap1\n      pop\n        /* \"#utility.yul\":8454:8521   */\n      tag_514\n        /* \"#utility.yul\":8518:8519   */\n      0x00\n        /* \"#utility.yul\":8507:8516   */\n      dup4\n        /* \"#utility.yul\":8503:8520   */\n      add\n        /* \"#utility.yul\":8494:8500   */\n      dup5\n        /* \"#utility.yul\":8454:8521   */\n      tag_369\n      jump\t// in\n    tag_514:\n        /* \"#utility.yul\":8314:8528   */\n      swap3\n      swap2\n      pop\n      pop\n      jump\t// out\n        /* \"#utility.yul\":8534:8756   */\n    tag_93:\n        /* \"#utility.yul\":8627:8631   */\n      0x00\n        /* \"#utility.yul\":8665:8667   */\n      0x20\n        /* \"#utility.yul\":8654:8663   */\n      dup3\n        /* \"#utility.yul\":8650:8668   */\n      add\n        /* \"#utility.yul\":8642:8668   */\n      swap1\n      pop\n        /* \"#utility.yul\":8678:8749   */\n      tag_516\n        /* \"#utility.yul\":8746:8747   */\n      0x00\n        /* \"#utility.yul\":8735:8744   */\n      dup4\n        /* \"#utility.yul\":8731:8748   */\n      add\n        /* \"#utility.yul\":8722:8728   */\n      dup5\n        /* \"#utility.yul\":8678:8749   */\n      tag_365\n      jump\t// in\n    tag_516:\n        /* \"#utility.yul\":8534:8756   */\n      swap3\n      swap2\n      pop\n      pop\n      jump\t// out\n        /* \"#utility.yul\":8762:8884   */\n    tag_370:\n        /* \"#utility.yul\":8835:8859   */\n      tag_518\n        /* \"#utility.yul\":8853:8858   */\n      dup2\n        /* \"#utility.yul\":8835:8859   */\n      tag_364\n      jump\t// in\n    tag_518:\n        /* \"#utility.yul\":8828:8833   */\n      dup2\n        /* \"#utility.yul\":8825:8860   */\n      eq\n        /* \"#utility.yul\":8815:8878   */\n      tag_519\n      jumpi\n        /* \"#utility.yul\":8874:8875   */\n      0x00\n        /* \"#utility.yul\":8871:8872   */\n      dup1\n        /* \"#utility.yul\":8864:8876   */\n      revert\n        /* \"#utility.yul\":8815:8878   */\n    tag_519:\n        /* \"#utility.yul\":8762:8884   */\n      pop\n      jump\t// out\n        /* \"#utility.yul\":8890:9029   */\n    tag_371:\n        /* \"#utility.yul\":8936:8941   */\n      0x00\n        /* \"#utility.yul\":8974:8980   */\n      dup2\n        /* \"#utility.yul\":8961:8981   */\n      calldataload\n        /* \"#utility.yul\":8952:8981   */\n      swap1\n      pop\n        /* \"#utility.yul\":8990:9023   */\n      tag_521\n        /* \"#utility.yul\":9017:9022   */\n      dup2\n        /* \"#utility.yul\":8990:9023   */\n      tag_370\n      jump\t// in\n    tag_521:\n        /* \"#utility.yul\":8890:9029   */\n      swap3\n      swap2\n      pop\n      pop\n      jump\t// out\n        /* \"#utility.yul\":9035:9364   */\n    tag_113:\n        /* \"#utility.yul\":9094:9100   */\n      0x00\n        /* \"#utility.yul\":9143:9145   */\n      0x20\n        /* \"#utility.yul\":9131:9140   */\n      dup3\n        /* \"#utility.yul\":9122:9129   */\n      dup5\n        /* \"#utility.yul\":9118:9141   */\n      sub\n        /* \"#utility.yul\":9114:9146   */\n      slt\n        /* \"#utility.yul\":9111:9230   */\n      iszero\n      tag_523\n      jumpi\n        /* \"#utility.yul\":9149:9228   */\n      tag_524\n      tag_347\n      jump\t// in\n    tag_524:\n        /* \"#utility.yul\":9111:9230   */\n    tag_523:\n        /* \"#utility.yul\":9269:9270   */\n      0x00\n        /* \"#utility.yul\":9294:9347   */\n      tag_525\n        /* \"#utility.yul\":9339:9346   */\n      dup5\n        /* \"#utility.yul\":9330:9336   */\n      dup3\n        /* \"#utility.yul\":9319:9328   */\n      dup6\n        /* \"#utility.yul\":9315:9337   */\n      add\n        /* \"#utility.yul\":9294:9347   */\n      tag_371\n      jump\t// in\n    tag_525:\n        /* \"#utility.yul\":9284:9347   */\n      swap2\n      pop\n        /* \"#utility.yul\":9240:9357   */\n      pop\n        /* \"#utility.yul\":9035:9364   */\n      swap3\n      swap2\n      pop\n      pop\n      jump\t// out\n        /* \"#utility.yul\":9370:9702   */\n    tag_118:\n        /* \"#utility.yul\":9491:9495   */\n      0x00\n        /* \"#utility.yul\":9529:9531   */\n      0x40\n        /* \"#utility.yul\":9518:9527   */\n      dup3\n        /* \"#utility.yul\":9514:9532   */\n      add\n        /* \"#utility.yul\":9506:9532   */\n      swap1\n      pop\n        /* \"#utility.yul\":9542:9613   */\n      tag_527\n        /* \"#utility.yul\":9610:9611   */\n      0x00\n        /* \"#utility.yul\":9599:9608   */\n      dup4\n        /* \"#utility.yul\":9595:9612   */\n      add\n        /* \"#utility.yul\":9586:9592   */\n      dup6\n        /* \"#utility.yul\":9542:9613   */\n      tag_365\n      jump\t// in\n    tag_527:\n        /* \"#utility.yul\":9623:9695   */\n      tag_528\n        /* \"#utility.yul\":9691:9693   */\n      0x20\n        /* \"#utility.yul\":9680:9689   */\n      dup4\n        /* \"#utility.yul\":9676:9694   */\n      add\n        /* \"#utility.yul\":9667:9673   */\n      dup5\n        /* \"#utility.yul\":9623:9695   */\n      tag_365\n      jump\t// in\n    tag_528:\n        /* \"#utility.yul\":9370:9702   */\n      swap4\n      swap3\n      pop\n      pop\n      pop\n      jump\t// out\n        /* \"#utility.yul\":9708:9877   */\n    tag_372:\n        /* \"#utility.yul\":9792:9803   */\n      0x00\n        /* \"#utility.yul\":9826:9832   */\n      dup3\n        /* \"#utility.yul\":9821:9824   */\n      dup3\n        /* \"#utility.yul\":9814:9833   */\n      mstore\n        /* \"#utility.yul\":9866:9870   */\n      0x20\n        /* \"#utility.yul\":9861:9864   */\n      dup3\n        /* \"#utility.yul\":9857:9871   */\n      add\n        /* \"#utility.yul\":9842:9871   */\n      swap1\n      pop\n        /* \"#utility.yul\":9708:9877   */\n      swap3\n      swap2\n      pop\n      pop\n      jump\t// out\n        /* \"#utility.yul\":9883:10110   */\n    tag_373:\n        /* \"#utility.yul\":10023:10057   */\n      0x596f752063616e206e6f7420636c6f73652074686520756e7374617274656420\n        /* \"#utility.yul\":10019:10020   */\n      0x00\n        /* \"#utility.yul\":10011:10017   */\n      dup3\n        /* \"#utility.yul\":10007:10021   */\n      add\n        /* \"#utility.yul\":10000:10058   */\n      mstore\n        /* \"#utility.yul\":10092:10102   */\n      0x6c6f747465727921000000000000000000000000000000000000000000000000\n        /* \"#utility.yul\":10087:10089   */\n      0x20\n        /* \"#utility.yul\":10079:10085   */\n      dup3\n        /* \"#utility.yul\":10075:10090   */\n      add\n        /* \"#utility.yul\":10068:10103   */\n      mstore\n        /* \"#utility.yul\":9883:10110   */\n      pop\n      jump\t// out\n        /* \"#utility.yul\":10116:10482   */\n    tag_374:\n        /* \"#utility.yul\":10258:10261   */\n      0x00\n        /* \"#utility.yul\":10279:10346   */\n      tag_532\n        /* \"#utility.yul\":10343:10345   */\n      0x28\n        /* \"#utility.yul\":10338:10341   */\n      dup4\n        /* \"#utility.yul\":10279:10346   */\n      tag_372\n      jump\t// in\n    tag_532:\n        /* \"#utility.yul\":10272:10346   */\n      swap2\n      pop\n        /* \"#utility.yul\":10355:10448   */\n      tag_533\n        /* \"#utility.yul\":10444:10447   */\n      dup3\n        /* \"#utility.yul\":10355:10448   */\n      tag_373\n      jump\t// in\n    tag_533:\n        /* \"#utility.yul\":10473:10475   */\n      0x40\n        /* \"#utility.yul\":10468:10471   */\n      dup3\n        /* \"#utility.yul\":10464:10476   */\n      add\n        /* \"#utility.yul\":10457:10476   */\n      swap1\n      pop\n        /* \"#utility.yul\":10116:10482   */\n      swap2\n      swap1\n      pop\n      jump\t// out\n        /* \"#utility.yul\":10488:10907   */\n    tag_131:\n        /* \"#utility.yul\":10654:10658   */\n      0x00\n        /* \"#utility.yul\":10692:10694   */\n      0x20\n        /* \"#utility.yul\":10681:10690   */\n      dup3\n        /* \"#utility.yul\":10677:10695   */\n      add\n        /* \"#utility.yul\":10669:10695   */\n      swap1\n      pop\n        /* \"#utility.yul\":10741:10750   */\n      dup2\n        /* \"#utility.yul\":10735:10739   */\n      dup2\n        /* \"#utility.yul\":10731:10751   */\n      sub\n        /* \"#utility.yul\":10727:10728   */\n      0x00\n        /* \"#utility.yul\":10716:10725   */\n      dup4\n        /* \"#utility.yul\":10712:10729   */\n      add\n        /* \"#utility.yul\":10705:10752   */\n      mstore\n        /* \"#utility.yul\":10769:10900   */\n      tag_535\n        /* \"#utility.yul\":10895:10899   */\n      dup2\n        /* \"#utility.yul\":10769:10900   */\n      tag_374\n      jump\t// in\n    tag_535:\n        /* \"#utility.yul\":10761:10900   */\n      swap1\n      pop\n        /* \"#utility.yul\":10488:10907   */\n      swap2\n      swap1\n      pop\n      jump\t// out\n        /* \"#utility.yul\":10913:11093   */\n    tag_375:\n        /* \"#utility.yul\":10961:11038   */\n      0x4e487b7100000000000000000000000000000000000000000000000000000000\n        /* \"#utility.yul\":10958:10959   */\n      0x00\n        /* \"#utility.yul\":10951:11039   */\n      mstore\n        /* \"#utility.yul\":11058:11062   */\n      0x11\n        /* \"#utility.yul\":11055:11056   */\n      0x04\n        /* \"#utility.yul\":11048:11063   */\n      mstore\n        /* \"#utility.yul\":11082:11086   */\n      0x24\n        /* \"#utility.yul\":11079:11080   */\n      0x00\n        /* \"#utility.yul\":11072:11087   */\n      revert\n        /* \"#utility.yul\":11099:11404   */\n    tag_133:\n        /* \"#utility.yul\":11139:11142   */\n      0x00\n        /* \"#utility.yul\":11158:11178   */\n      tag_538\n        /* \"#utility.yul\":11176:11177   */\n      dup3\n        /* \"#utility.yul\":11158:11178   */\n      tag_349\n      jump\t// in\n    tag_538:\n        /* \"#utility.yul\":11153:11178   */\n      swap2\n      pop\n        /* \"#utility.yul\":11192:11212   */\n      tag_539\n        /* \"#utility.yul\":11210:11211   */\n      dup4\n        /* \"#utility.yul\":11192:11212   */\n      tag_349\n      jump\t// in\n    tag_539:\n        /* \"#utility.yul\":11187:11212   */\n      swap3\n      pop\n        /* \"#utility.yul\":11346:11347   */\n      dup3\n        /* \"#utility.yul\":11278:11344   */\n      0xffffffffffffffffffffffffffffffffffffffffffffffffffffffffffffffff\n        /* \"#utility.yul\":11274:11348   */\n      sub\n        /* \"#utility.yul\":11271:11272   */\n      dup3\n        /* \"#utility.yul\":11268:11349   */\n      gt\n        /* \"#utility.yul\":11265:11372   */\n      iszero\n      tag_540\n      jumpi\n        /* \"#utility.yul\":11352:11370   */\n      tag_541\n      tag_375\n      jump\t// in\n    tag_541:\n        /* \"#utility.yul\":11265:11372   */\n    tag_540:\n        /* \"#utility.yul\":11396:11397   */\n      dup3\n        /* \"#utility.yul\":11393:11394   */\n      dup3\n        /* \"#utility.yul\":11389:11398   */\n      add\n        /* \"#utility.yul\":11382:11398   */\n      swap1\n      pop\n        /* \"#utility.yul\":11099:11404   */\n      swap3\n      swap2\n      pop\n      pop\n      jump\t// out\n        /* \"#utility.yul\":11410:11577   */\n    tag_376:\n        /* \"#utility.yul\":11550:11569   */\n      0x54696d65206973206e6f74206f76657221000000000000000000000000000000\n        /* \"#utility.yul\":11546:11547   */\n      0x00\n        /* \"#utility.yul\":11538:11544   */\n      dup3\n        /* \"#utility.yul\":11534:11548   */\n      add\n        /* \"#utility.yul\":11527:11570   */\n      mstore\n        /* \"#utility.yul\":11410:11577   */\n      pop\n      jump\t// out\n        /* \"#utility.yul\":11583:11949   */\n    tag_377:\n        /* \"#utility.yul\":11725:11728   */\n      0x00\n        /* \"#utility.yul\":11746:11813   */\n      tag_544\n        /* \"#utility.yul\":11810:11812   */\n      0x11\n        /* \"#utility.yul\":11805:11808   */\n      dup4\n        /* \"#utility.yul\":11746:11813   */\n      tag_372\n      jump\t// in\n    tag_544:\n        /* \"#utility.yul\":11739:11813   */\n      swap2\n      pop\n        /* \"#utility.yul\":11822:11915   */\n      tag_545\n        /* \"#utility.yul\":11911:11914   */\n      dup3\n        /* \"#utility.yul\":11822:11915   */\n      tag_376\n      jump\t// in\n    tag_545:\n        /* \"#utility.yul\":11940:11942   */\n      0x20\n        /* \"#utility.yul\":11935:11938   */\n      dup3\n        /* \"#utility.yul\":11931:11943   */\n      add\n        /* \"#utility.yul\":11924:11943   */\n      swap1\n      pop\n        /* \"#utility.yul\":11583:11949   */\n      swap2\n      swap1\n      pop\n      jump\t// out\n        /* \"#utility.yul\":11955:12374   */\n    tag_136:\n        /* \"#utility.yul\":12121:12125   */\n      0x00\n        /* \"#utility.yul\":12159:12161   */\n      0x20\n        /* \"#utility.yul\":12148:12157   */\n      dup3\n        /* \"#utility.yul\":12144:12162   */\n      add\n        /* \"#utility.yul\":12136:12162   */\n      swap1\n      pop\n        /* \"#utility.yul\":12208:12217   */\n      dup2\n        /* \"#utility.yul\":12202:12206   */\n      dup2\n        /* \"#utility.yul\":12198:12218   */\n      sub\n        /* \"#utility.yul\":12194:12195   */\n      0x00\n        /* \"#utility.yul\":12183:12192   */\n      dup4\n        /* \"#utility.yul\":12179:12196   */\n      add\n        /* \"#utility.yul\":12172:12219   */\n      mstore\n        /* \"#utility.yul\":12236:12367   */\n      tag_547\n        /* \"#utility.yul\":12362:12366   */\n      dup2\n        /* \"#utility.yul\":12236:12367   */\n      tag_377\n      jump\t// in\n    tag_547:\n        /* \"#utility.yul\":12228:12367   */\n      swap1\n      pop\n        /* \"#utility.yul\":11955:12374   */\n      swap2\n      swap1\n      pop\n      jump\t// out\n        /* \"#utility.yul\":12380:12545   */\n    tag_378:\n        /* \"#utility.yul\":12520:12537   */\n      0x416c726561647920636c6f736564210000000000000000000000000000000000\n        /* \"#utility.yul\":12516:12517   */\n      0x00\n        /* \"#utility.yul\":12508:12514   */\n      dup3\n        /* \"#utility.yul\":12504:12518   */\n      add\n        /* \"#utility.yul\":12497:12538   */\n      mstore\n        /* \"#utility.yul\":12380:12545   */\n      pop\n      jump\t// out\n        /* \"#utility.yul\":12551:12917   */\n    tag_379:\n        /* \"#utility.yul\":12693:12696   */\n      0x00\n        /* \"#utility.yul\":12714:12781   */\n      tag_550\n        /* \"#utility.yul\":12778:12780   */\n      0x0f\n        /* \"#utility.yul\":12773:12776   */\n      dup4\n        /* \"#utility.yul\":12714:12781   */\n      tag_372\n      jump\t// in\n    tag_550:\n        /* \"#utility.yul\":12707:12781   */\n      swap2\n      pop\n        /* \"#utility.yul\":12790:12883   */\n      tag_551\n        /* \"#utility.yul\":12879:12882   */\n      dup3\n        /* \"#utility.yul\":12790:12883   */\n      tag_378\n      jump\t// in\n    tag_551:\n        /* \"#utility.yul\":12908:12910   */\n      0x20\n        /* \"#utility.yul\":12903:12906   */\n      dup3\n        /* \"#utility.yul\":12899:12911   */\n      add\n        /* \"#utility.yul\":12892:12911   */\n      swap1\n      pop\n        /* \"#utility.yul\":12551:12917   */\n      swap2\n      swap1\n      pop\n      jump\t// out\n        /* \"#utility.yul\":12923:13342   */\n    tag_139:\n        /* \"#utility.yul\":13089:13093   */\n      0x00\n        /* \"#utility.yul\":13127:13129   */\n      0x20\n        /* \"#utility.yul\":13116:13125   */\n      dup3\n        /* \"#utility.yul\":13112:13130   */\n      add\n        /* \"#utility.yul\":13104:13130   */\n      swap1\n      pop\n        /* \"#utility.yul\":13176:13185   */\n      dup2\n        /* \"#utility.yul\":13170:13174   */\n      dup2\n        /* \"#utility.yul\":13166:13186   */\n      sub\n        /* \"#utility.yul\":13162:13163   */\n      0x00\n        /* \"#utility.yul\":13151:13160   */\n      dup4\n        /* \"#utility.yul\":13147:13164   */\n      add\n        /* \"#utility.yul\":13140:13187   */\n      mstore\n        /* \"#utility.yul\":13204:13335   */\n      tag_553\n        /* \"#utility.yul\":13330:13334   */\n      dup2\n        /* \"#utility.yul\":13204:13335   */\n      tag_379\n      jump\t// in\n    tag_553:\n        /* \"#utility.yul\":13196:13335   */\n      swap1\n      pop\n        /* \"#utility.yul\":12923:13342   */\n      swap2\n      swap1\n      pop\n      jump\t// out\n        /* \"#utility.yul\":13348:13530   */\n    tag_380:\n        /* \"#utility.yul\":13488:13522   */\n      0x4f776e61626c653a2063616c6c6572206973206e6f7420746865206f776e6572\n        /* \"#utility.yul\":13484:13485   */\n      0x00\n        /* \"#utility.yul\":13476:13482   */\n      dup3\n        /* \"#utility.yul\":13472:13486   */\n      add\n        /* \"#utility.yul\":13465:13523   */\n      mstore\n        /* \"#utility.yul\":13348:13530   */\n      pop\n      jump\t// out\n        /* \"#utility.yul\":13536:13902   */\n    tag_381:\n        /* \"#utility.yul\":13678:13681   */\n      0x00\n        /* \"#utility.yul\":13699:13766   */\n      tag_556\n        /* \"#utility.yul\":13763:13765   */\n      0x20\n        /* \"#utility.yul\":13758:13761   */\n      dup4\n        /* \"#utility.yul\":13699:13766   */\n      tag_372\n      jump\t// in\n    tag_556:\n        /* \"#utility.yul\":13692:13766   */\n      swap2\n      pop\n        /* \"#utility.yul\":13775:13868   */\n      tag_557\n        /* \"#utility.yul\":13864:13867   */\n      dup3\n        /* \"#utility.yul\":13775:13868   */\n      tag_380\n      jump\t// in\n    tag_557:\n        /* \"#utility.yul\":13893:13895   */\n      0x20\n        /* \"#utility.yul\":13888:13891   */\n      dup3\n        /* \"#utility.yul\":13884:13896   */\n      add\n        /* \"#utility.yul\":13877:13896   */\n      swap1\n      pop\n        /* \"#utility.yul\":13536:13902   */\n      swap2\n      swap1\n      pop\n      jump\t// out\n        /* \"#utility.yul\":13908:14327   */\n    tag_146:\n        /* \"#utility.yul\":14074:14078   */\n      0x00\n        /* \"#utility.yul\":14112:14114   */\n      0x20\n        /* \"#utility.yul\":14101:14110   */\n      dup3\n        /* \"#utility.yul\":14097:14115   */\n      add\n        /* \"#utility.yul\":14089:14115   */\n      swap1\n      pop\n        /* \"#utility.yul\":14161:14170   */\n      dup2\n        /* \"#utility.yul\":14155:14159   */\n      dup2\n        /* \"#utility.yul\":14151:14171   */\n      sub\n        /* \"#utility.yul\":14147:14148   */\n      0x00\n        /* \"#utility.yul\":14136:14145   */\n      dup4\n        /* \"#utility.yul\":14132:14149   */\n      add\n        /* \"#utility.yul\":14125:14172   */\n      mstore\n        /* \"#utility.yul\":14189:14320   */\n      tag_559\n        /* \"#utility.yul\":14315:14319   */\n      dup2\n        /* \"#utility.yul\":14189:14320   */\n      tag_381\n      jump\t// in\n    tag_559:\n        /* \"#utility.yul\":14181:14320   */\n      swap1\n      pop\n        /* \"#utility.yul\":13908:14327   */\n      swap2\n      swap1\n      pop\n      jump\t// out\n        /* \"#utility.yul\":14333:14418   */\n    tag_382:\n        /* \"#utility.yul\":14378:14385   */\n      0x00\n        /* \"#utility.yul\":14407:14412   */\n      dup2\n        /* \"#utility.yul\":14396:14412   */\n      swap1\n      pop\n        /* \"#utility.yul\":14333:14418   */\n      swap2\n      swap1\n      pop\n      jump\t// out\n        /* \"#utility.yul\":14424:14484   */\n    tag_383:\n        /* \"#utility.yul\":14452:14455   */\n      0x00\n        /* \"#utility.yul\":14473:14478   */\n      dup2\n        /* \"#utility.yul\":14466:14478   */\n      swap1\n      pop\n        /* \"#utility.yul\":14424:14484   */\n      swap2\n      swap1\n      pop\n      jump\t// out\n        /* \"#utility.yul\":14490:14644   */\n    tag_384:\n        /* \"#utility.yul\":14546:14555   */\n      0x00\n        /* \"#utility.yul\":14579:14638   */\n      tag_563\n        /* \"#utility.yul\":14595:14637   */\n      tag_564\n        /* \"#utility.yul\":14604:14636   */\n      tag_565\n        /* \"#utility.yul\":14630:14635   */\n      dup5\n        /* \"#utility.yul\":14604:14636   */\n      tag_382\n      jump\t// in\n    tag_565:\n        /* \"#utility.yul\":14595:14637   */\n      tag_383\n      jump\t// in\n    tag_564:\n        /* \"#utility.yul\":14579:14638   */\n      tag_366\n      jump\t// in\n    tag_563:\n        /* \"#utility.yul\":14566:14638   */\n      swap1\n      pop\n        /* \"#utility.yul\":14490:14644   */\n      swap2\n      swap1\n      pop\n      jump\t// out\n        /* \"#utility.yul\":14650:14793   */\n    tag_385:\n        /* \"#utility.yul\":14743:14786   */\n      tag_567\n        /* \"#utility.yul\":14780:14785   */\n      dup2\n        /* \"#utility.yul\":14743:14786   */\n      tag_384\n      jump\t// in\n    tag_567:\n        /* \"#utility.yul\":14738:14741   */\n      dup3\n        /* \"#utility.yul\":14731:14787   */\n      mstore\n        /* \"#utility.yul\":14650:14793   */\n      pop\n      pop\n      jump\t// out\n        /* \"#utility.yul\":14799:15033   */\n    tag_171:\n        /* \"#utility.yul\":14898:14902   */\n      0x00\n        /* \"#utility.yul\":14936:14938   */\n      0x20\n        /* \"#utility.yul\":14925:14934   */\n      dup3\n        /* \"#utility.yul\":14921:14939   */\n      add\n        /* \"#utility.yul\":14913:14939   */\n      swap1\n      pop\n        /* \"#utility.yul\":14949:15026   */\n      tag_569\n        /* \"#utility.yul\":15023:15024   */\n      0x00\n        /* \"#utility.yul\":15012:15021   */\n      dup4\n        /* \"#utility.yul\":15008:15025   */\n      add\n        /* \"#utility.yul\":14999:15005   */\n      dup5\n        /* \"#utility.yul\":14949:15026   */\n      tag_385\n      jump\t// in\n    tag_569:\n        /* \"#utility.yul\":14799:15033   */\n      swap3\n      swap2\n      pop\n      pop\n      jump\t// out\n        /* \"#utility.yul\":15039:15212   */\n    tag_386:\n        /* \"#utility.yul\":15179:15204   */\n      0x7072697a65506f6f6c206973206e6f7420656d70747921000000000000000000\n        /* \"#utility.yul\":15175:15176   */\n      0x00\n        /* \"#utility.yul\":15167:15173   */\n      dup3\n        /* \"#utility.yul\":15163:15177   */\n      add\n        /* \"#utility.yul\":15156:15205   */\n      mstore\n        /* \"#utility.yul\":15039:15212   */\n      pop\n      jump\t// out\n        /* \"#utility.yul\":15218:15584   */\n    tag_387:\n        /* \"#utility.yul\":15360:15363   */\n      0x00\n        /* \"#utility.yul\":15381:15448   */\n      tag_572\n        /* \"#utility.yul\":15445:15447   */\n      0x17\n        /* \"#utility.yul\":15440:15443   */\n      dup4\n        /* \"#utility.yul\":15381:15448   */\n      tag_372\n      jump\t// in\n    tag_572:\n        /* \"#utility.yul\":15374:15448   */\n      swap2\n      pop\n        /* \"#utility.yul\":15457:15550   */\n      tag_573\n        /* \"#utility.yul\":15546:15549   */\n      dup3\n        /* \"#utility.yul\":15457:15550   */\n      tag_386\n      jump\t// in\n    tag_573:\n        /* \"#utility.yul\":15575:15577   */\n      0x20\n        /* \"#utility.yul\":15570:15573   */\n      dup3\n        /* \"#utility.yul\":15566:15578   */\n      add\n        /* \"#utility.yul\":15559:15578   */\n      swap1\n      pop\n        /* \"#utility.yul\":15218:15584   */\n      swap2\n      swap1\n      pop\n      jump\t// out\n        /* \"#utility.yul\":15590:16009   */\n    tag_196:\n        /* \"#utility.yul\":15756:15760   */\n      0x00\n        /* \"#utility.yul\":15794:15796   */\n      0x20\n        /* \"#utility.yul\":15783:15792   */\n      dup3\n        /* \"#utility.yul\":15779:15797   */\n      add\n        /* \"#utility.yul\":15771:15797   */\n      swap1\n      pop\n        /* \"#utility.yul\":15843:15852   */\n      dup2\n        /* \"#utility.yul\":15837:15841   */\n      dup2\n        /* \"#utility.yul\":15833:15853   */\n      sub\n        /* \"#utility.yul\":15829:15830   */\n      0x00\n        /* \"#utility.yul\":15818:15827   */\n      dup4\n        /* \"#utility.yul\":15814:15831   */\n      add\n        /* \"#utility.yul\":15807:15854   */\n      mstore\n        /* \"#utility.yul\":15871:16002   */\n      tag_575\n        /* \"#utility.yul\":15997:16001   */\n      dup2\n        /* \"#utility.yul\":15871:16002   */\n      tag_387\n      jump\t// in\n    tag_575:\n        /* \"#utility.yul\":15863:16002   */\n      swap1\n      pop\n        /* \"#utility.yul\":15590:16009   */\n      swap2\n      swap1\n      pop\n      jump\t// out\n        /* \"#utility.yul\":16015:16236   */\n    tag_388:\n        /* \"#utility.yul\":16155:16189   */\n      0x546865206c6f747465727920686173206e6f7420636f6d706c65746564207965\n        /* \"#utility.yul\":16151:16152   */\n      0x00\n        /* \"#utility.yul\":16143:16149   */\n      dup3\n        /* \"#utility.yul\":16139:16153   */\n      add\n        /* \"#utility.yul\":16132:16190   */\n      mstore\n        /* \"#utility.yul\":16224:16228   */\n      0x7421000000000000000000000000000000000000000000000000000000000000\n        /* \"#utility.yul\":16219:16221   */\n      0x20\n        /* \"#utility.yul\":16211:16217   */\n      dup3\n        /* \"#utility.yul\":16207:16222   */\n      add\n        /* \"#utility.yul\":16200:16229   */\n      mstore\n        /* \"#utility.yul\":16015:16236   */\n      pop\n      jump\t// out\n        /* \"#utility.yul\":16242:16608   */\n    tag_389:\n        /* \"#utility.yul\":16384:16387   */\n      0x00\n        /* \"#utility.yul\":16405:16472   */\n      tag_578\n        /* \"#utility.yul\":16469:16471   */\n      0x22\n        /* \"#utility.yul\":16464:16467   */\n      dup4\n        /* \"#utility.yul\":16405:16472   */\n      tag_372\n      jump\t// in\n    tag_578:\n        /* \"#utility.yul\":16398:16472   */\n      swap2\n      pop\n        /* \"#utility.yul\":16481:16574   */\n      tag_579\n        /* \"#utility.yul\":16570:16573   */\n      dup3\n        /* \"#utility.yul\":16481:16574   */\n      tag_388\n      jump\t// in\n    tag_579:\n        /* \"#utility.yul\":16599:16601   */\n      0x40\n        /* \"#utility.yul\":16594:16597   */\n      dup3\n        /* \"#utility.yul\":16590:16602   */\n      add\n        /* \"#utility.yul\":16583:16602   */\n      swap1\n      pop\n        /* \"#utility.yul\":16242:16608   */\n      swap2\n      swap1\n      pop\n      jump\t// out\n        /* \"#utility.yul\":16614:17033   */\n    tag_206:\n        /* \"#utility.yul\":16780:16784   */\n      0x00\n        /* \"#utility.yul\":16818:16820   */\n      0x20\n        /* \"#utility.yul\":16807:16816   */\n      dup3\n        /* \"#utility.yul\":16803:16821   */\n      add\n        /* \"#utility.yul\":16795:16821   */\n      swap1\n      pop\n        /* \"#utility.yul\":16867:16876   */\n      dup2\n        /* \"#utility.yul\":16861:16865   */\n      dup2\n        /* \"#utility.yul\":16857:16877   */\n      sub\n        /* \"#utility.yul\":16853:16854   */\n      0x00\n        /* \"#utility.yul\":16842:16851   */\n      dup4\n        /* \"#utility.yul\":16838:16855   */\n      add\n        /* \"#utility.yul\":16831:16878   */\n      mstore\n        /* \"#utility.yul\":16895:17026   */\n      tag_581\n        /* \"#utility.yul\":17021:17025   */\n      dup2\n        /* \"#utility.yul\":16895:17026   */\n      tag_389\n      jump\t// in\n    tag_581:\n        /* \"#utility.yul\":16887:17026   */\n      swap1\n      pop\n        /* \"#utility.yul\":16614:17033   */\n      swap2\n      swap1\n      pop\n      jump\t// out\n        /* \"#utility.yul\":17039:17259   */\n    tag_390:\n        /* \"#utility.yul\":17179:17213   */\n      0x5468652077696e6e657220686173206e6f74206265656e2073656c6563746564\n        /* \"#utility.yul\":17175:17176   */\n      0x00\n        /* \"#utility.yul\":17167:17173   */\n      dup3\n        /* \"#utility.yul\":17163:17177   */\n      add\n        /* \"#utility.yul\":17156:17214   */\n      mstore\n        /* \"#utility.yul\":17248:17251   */\n      0x2100000000000000000000000000000000000000000000000000000000000000\n        /* \"#utility.yul\":17243:17245   */\n      0x20\n        /* \"#utility.yul\":17235:17241   */\n      dup3\n        /* \"#utility.yul\":17231:17246   */\n      add\n        /* \"#utility.yul\":17224:17252   */\n      mstore\n        /* \"#utility.yul\":17039:17259   */\n      pop\n      jump\t// out\n        /* \"#utility.yul\":17265:17631   */\n    tag_391:\n        /* \"#utility.yul\":17407:17410   */\n      0x00\n        /* \"#utility.yul\":17428:17495   */\n      tag_584\n        /* \"#utility.yul\":17492:17494   */\n      0x21\n        /* \"#utility.yul\":17487:17490   */\n      dup4\n        /* \"#utility.yul\":17428:17495   */\n      tag_372\n      jump\t// in\n    tag_584:\n        /* \"#utility.yul\":17421:17495   */\n      swap2\n      pop\n        /* \"#utility.yul\":17504:17597   */\n      tag_585\n        /* \"#utility.yul\":17593:17596   */\n      dup3\n        /* \"#utility.yul\":17504:17597   */\n      tag_390\n      jump\t// in\n    tag_585:\n        /* \"#utility.yul\":17622:17624   */\n      0x40\n        /* \"#utility.yul\":17617:17620   */\n      dup3\n        /* \"#utility.yul\":17613:17625   */\n      add\n        /* \"#utility.yul\":17606:17625   */\n      swap1\n      pop\n        /* \"#utility.yul\":17265:17631   */\n      swap2\n      swap1\n      pop\n      jump\t// out\n        /* \"#utility.yul\":17637:18056   */\n    tag_210:\n        /* \"#utility.yul\":17803:17807   */\n      0x00\n        /* \"#utility.yul\":17841:17843   */\n      0x20\n        /* \"#utility.yul\":17830:17839   */\n      dup3\n        /* \"#utility.yul\":17826:17844   */\n      add\n        /* \"#utility.yul\":17818:17844   */\n      swap1\n      pop\n        /* \"#utility.yul\":17890:17899   */\n      dup2\n        /* \"#utility.yul\":17884:17888   */\n      dup2\n        /* \"#utility.yul\":17880:17900   */\n      sub\n        /* \"#utility.yul\":17876:17877   */\n      0x00\n        /* \"#utility.yul\":17865:17874   */\n      dup4\n        /* \"#utility.yul\":17861:17878   */\n      add\n        /* \"#utility.yul\":17854:17901   */\n      mstore\n        /* \"#utility.yul\":17918:18049   */\n      tag_587\n        /* \"#utility.yul\":18044:18048   */\n      dup2\n        /* \"#utility.yul\":17918:18049   */\n      tag_391\n      jump\t// in\n    tag_587:\n        /* \"#utility.yul\":17910:18049   */\n      swap1\n      pop\n        /* \"#utility.yul\":17637:18056   */\n      swap2\n      swap1\n      pop\n      jump\t// out\n        /* \"#utility.yul\":18062:18241   */\n    tag_392:\n        /* \"#utility.yul\":18202:18233   */\n      0x4f6e6c792077696e6e65722063616e20636c61696d2072657761726421000000\n        /* \"#utility.yul\":18198:18199   */\n      0x00\n        /* \"#utility.yul\":18190:18196   */\n      dup3\n        /* \"#utility.yul\":18186:18200   */\n      add\n        /* \"#utility.yul\":18179:18234   */\n      mstore\n        /* \"#utility.yul\":18062:18241   */\n      pop\n      jump\t// out\n        /* \"#utility.yul\":18247:18613   */\n    tag_393:\n        /* \"#utility.yul\":18389:18392   */\n      0x00\n        /* \"#utility.yul\":18410:18477   */\n      tag_590\n        /* \"#utility.yul\":18474:18476   */\n      0x1d\n        /* \"#utility.yul\":18469:18472   */\n      dup4\n        /* \"#utility.yul\":18410:18477   */\n      tag_372\n      jump\t// in\n    tag_590:\n        /* \"#utility.yul\":18403:18477   */\n      swap2\n      pop\n        /* \"#utility.yul\":18486:18579   */\n      tag_591\n        /* \"#utility.yul\":18575:18578   */\n      dup3\n        /* \"#utility.yul\":18486:18579   */\n      tag_392\n      jump\t// in\n    tag_591:\n        /* \"#utility.yul\":18604:18606   */\n      0x20\n        /* \"#utility.yul\":18599:18602   */\n      dup3\n        /* \"#utility.yul\":18595:18607   */\n      add\n        /* \"#utility.yul\":18588:18607   */\n      swap1\n      pop\n        /* \"#utility.yul\":18247:18613   */\n      swap2\n      swap1\n      pop\n      jump\t// out\n        /* \"#utility.yul\":18619:19038   */\n    tag_216:\n        /* \"#utility.yul\":18785:18789   */\n      0x00\n        /* \"#utility.yul\":18823:18825   */\n      0x20\n        /* \"#utility.yul\":18812:18821   */\n      dup3\n        /* \"#utility.yul\":18808:18826   */\n      add\n        /* \"#utility.yul\":18800:18826   */\n      swap1\n      pop\n        /* \"#utility.yul\":18872:18881   */\n      dup2\n        /* \"#utility.yul\":18866:18870   */\n      dup2\n        /* \"#utility.yul\":18862:18882   */\n      sub\n        /* \"#utility.yul\":18858:18859   */\n      0x00\n        /* \"#utility.yul\":18847:18856   */\n      dup4\n        /* \"#utility.yul\":18843:18860   */\n      add\n        /* \"#utility.yul\":18836:18883   */\n      mstore\n        /* \"#utility.yul\":18900:19031   */\n      tag_593\n        /* \"#utility.yul\":19026:19030   */\n      dup2\n        /* \"#utility.yul\":18900:19031   */\n      tag_393\n      jump\t// in\n    tag_593:\n        /* \"#utility.yul\":18892:19031   */\n      swap1\n      pop\n        /* \"#utility.yul\":18619:19038   */\n      swap2\n      swap1\n      pop\n      jump\t// out\n        /* \"#utility.yul\":19044:19224   */\n    tag_394:\n        /* \"#utility.yul\":19092:19169   */\n      0x4e487b7100000000000000000000000000000000000000000000000000000000\n        /* \"#utility.yul\":19089:19090   */\n      0x00\n        /* \"#utility.yul\":19082:19170   */\n      mstore\n        /* \"#utility.yul\":19189:19193   */\n      0x12\n        /* \"#utility.yul\":19186:19187   */\n      0x04\n        /* \"#utility.yul\":19179:19194   */\n      mstore\n        /* \"#utility.yul\":19213:19217   */\n      0x24\n        /* \"#utility.yul\":19210:19211   */\n      0x00\n        /* \"#utility.yul\":19203:19218   */\n      revert\n        /* \"#utility.yul\":19230:19409   */\n    tag_221:\n        /* \"#utility.yul\":19268:19269   */\n      0x00\n        /* \"#utility.yul\":19285:19303   */\n      tag_596\n        /* \"#utility.yul\":19301:19302   */\n      dup3\n        /* \"#utility.yul\":19285:19303   */\n      tag_366\n      jump\t// in\n    tag_596:\n        /* \"#utility.yul\":19280:19303   */\n      swap2\n      pop\n        /* \"#utility.yul\":19317:19335   */\n      tag_597\n        /* \"#utility.yul\":19333:19334   */\n      dup4\n        /* \"#utility.yul\":19317:19335   */\n      tag_366\n      jump\t// in\n    tag_597:\n        /* \"#utility.yul\":19312:19335   */\n      swap3\n      pop\n        /* \"#utility.yul\":19354:19355   */\n      dup3\n        /* \"#utility.yul\":19344:19379   */\n      tag_598\n      jumpi\n        /* \"#utility.yul\":19359:19377   */\n      tag_599\n      tag_394\n      jump\t// in\n    tag_599:\n        /* \"#utility.yul\":19344:19379   */\n    tag_598:\n        /* \"#utility.yul\":19401:19402   */\n      dup3\n        /* \"#utility.yul\":19398:19399   */\n      dup3\n        /* \"#utility.yul\":19394:19403   */\n      div\n        /* \"#utility.yul\":19389:19403   */\n      swap1\n      pop\n        /* \"#utility.yul\":19230:19409   */\n      swap3\n      swap2\n      pop\n      pop\n      jump\t// out\n        /* \"#utility.yul\":19415:19763   */\n    tag_223:\n        /* \"#utility.yul\":19455:19462   */\n      0x00\n        /* \"#utility.yul\":19478:19498   */\n      tag_601\n        /* \"#utility.yul\":19496:19497   */\n      dup3\n        /* \"#utility.yul\":19478:19498   */\n      tag_349\n      jump\t// in\n    tag_601:\n        /* \"#utility.yul\":19473:19498   */\n      swap2\n      pop\n        /* \"#utility.yul\":19512:19532   */\n      tag_602\n        /* \"#utility.yul\":19530:19531   */\n      dup4\n        /* \"#utility.yul\":19512:19532   */\n      tag_349\n      jump\t// in\n    tag_602:\n        /* \"#utility.yul\":19507:19532   */\n      swap3\n      pop\n        /* \"#utility.yul\":19700:19701   */\n      dup2\n        /* \"#utility.yul\":19632:19698   */\n      0xffffffffffffffffffffffffffffffffffffffffffffffffffffffffffffffff\n        /* \"#utility.yul\":19628:19702   */\n      div\n        /* \"#utility.yul\":19625:19626   */\n      dup4\n        /* \"#utility.yul\":19622:19703   */\n      gt\n        /* \"#utility.yul\":19617:19618   */\n      dup3\n        /* \"#utility.yul\":19610:19619   */\n      iszero\n        /* \"#utility.yul\":19603:19620   */\n      iszero\n        /* \"#utility.yul\":19599:19704   */\n      and\n        /* \"#utility.yul\":19596:19727   */\n      iszero\n      tag_603\n      jumpi\n        /* \"#utility.yul\":19707:19725   */\n      tag_604\n      tag_375\n      jump\t// in\n    tag_604:\n        /* \"#utility.yul\":19596:19727   */\n    tag_603:\n        /* \"#utility.yul\":19755:19756   */\n      dup3\n        /* \"#utility.yul\":19752:19753   */\n      dup3\n        /* \"#utility.yul\":19748:19757   */\n      mul\n        /* \"#utility.yul\":19737:19757   */\n      swap1\n      pop\n        /* \"#utility.yul\":19415:19763   */\n      swap3\n      swap2\n      pop\n      pop\n      jump\t// out\n        /* \"#utility.yul\":19769:19951   */\n    tag_395:\n        /* \"#utility.yul\":19909:19943   */\n      0x546865206c6f747465727920686173206e6f7420737461727465642079657421\n        /* \"#utility.yul\":19905:19906   */\n      0x00\n        /* \"#utility.yul\":19897:19903   */\n      dup3\n        /* \"#utility.yul\":19893:19907   */\n      add\n        /* \"#utility.yul\":19886:19944   */\n      mstore\n        /* \"#utility.yul\":19769:19951   */\n      pop\n      jump\t// out\n        /* \"#utility.yul\":19957:20323   */\n    tag_396:\n        /* \"#utility.yul\":20099:20102   */\n      0x00\n        /* \"#utility.yul\":20120:20187   */\n      tag_607\n        /* \"#utility.yul\":20184:20186   */\n      0x20\n        /* \"#utility.yul\":20179:20182   */\n      dup4\n        /* \"#utility.yul\":20120:20187   */\n      tag_372\n      jump\t// in\n    tag_607:\n        /* \"#utility.yul\":20113:20187   */\n      swap2\n      pop\n        /* \"#utility.yul\":20196:20289   */\n      tag_608\n        /* \"#utility.yul\":20285:20288   */\n      dup3\n        /* \"#utility.yul\":20196:20289   */\n      tag_395\n      jump\t// in\n    tag_608:\n        /* \"#utility.yul\":20314:20316   */\n      0x20\n        /* \"#utility.yul\":20309:20312   */\n      dup3\n        /* \"#utility.yul\":20305:20317   */\n      add\n        /* \"#utility.yul\":20298:20317   */\n      swap1\n      pop\n        /* \"#utility.yul\":19957:20323   */\n      swap2\n      swap1\n      pop\n      jump\t// out\n        /* \"#utility.yul\":20329:20748   */\n    tag_236:\n        /* \"#utility.yul\":20495:20499   */\n      0x00\n        /* \"#utility.yul\":20533:20535   */\n      0x20\n        /* \"#utility.yul\":20522:20531   */\n      dup3\n        /* \"#utility.yul\":20518:20536   */\n      add\n        /* \"#utility.yul\":20510:20536   */\n      swap1\n      pop\n        /* \"#utility.yul\":20582:20591   */\n      dup2\n        /* \"#utility.yul\":20576:20580   */\n      dup2\n        /* \"#utility.yul\":20572:20592   */\n      sub\n        /* \"#utility.yul\":20568:20569   */\n      0x00\n        /* \"#utility.yul\":20557:20566   */\n      dup4\n        /* \"#utility.yul\":20553:20570   */\n      add\n        /* \"#utility.yul\":20546:20593   */\n      mstore\n        /* \"#utility.yul\":20610:20741   */\n      tag_610\n        /* \"#utility.yul\":20736:20740   */\n      dup2\n        /* \"#utility.yul\":20610:20741   */\n      tag_396\n      jump\t// in\n    tag_610:\n        /* \"#utility.yul\":20602:20741   */\n      swap1\n      pop\n        /* \"#utility.yul\":20329:20748   */\n      swap2\n      swap1\n      pop\n      jump\t// out\n        /* \"#utility.yul\":20754:20917   */\n    tag_397:\n        /* \"#utility.yul\":20894:20909   */\n      0x54696d65206973206f7665722100000000000000000000000000000000000000\n        /* \"#utility.yul\":20890:20891   */\n      0x00\n        /* \"#utility.yul\":20882:20888   */\n      dup3\n        /* \"#utility.yul\":20878:20892   */\n      add\n        /* \"#utility.yul\":20871:20910   */\n      mstore\n        /* \"#utility.yul\":20754:20917   */\n      pop\n      jump\t// out\n        /* \"#utility.yul\":20923:21289   */\n    tag_398:\n        /* \"#utility.yul\":21065:21068   */\n      0x00\n        /* \"#utility.yul\":21086:21153   */\n      tag_613\n        /* \"#utility.yul\":21150:21152   */\n      0x0d\n        /* \"#utility.yul\":21145:21148   */\n      dup4\n        /* \"#utility.yul\":21086:21153   */\n      tag_372\n      jump\t// in\n    tag_613:\n        /* \"#utility.yul\":21079:21153   */\n      swap2\n      pop\n        /* \"#utility.yul\":21162:21255   */\n      tag_614\n        /* \"#utility.yul\":21251:21254   */\n      dup3\n        /* \"#utility.yul\":21162:21255   */\n      tag_397\n      jump\t// in\n    tag_614:\n        /* \"#utility.yul\":21280:21282   */\n      0x20\n        /* \"#utility.yul\":21275:21278   */\n      dup3\n        /* \"#utility.yul\":21271:21283   */\n      add\n        /* \"#utility.yul\":21264:21283   */\n      swap1\n      pop\n        /* \"#utility.yul\":20923:21289   */\n      swap2\n      swap1\n      pop\n      jump\t// out\n        /* \"#utility.yul\":21295:21714   */\n    tag_240:\n        /* \"#utility.yul\":21461:21465   */\n      0x00\n        /* \"#utility.yul\":21499:21501   */\n      0x20\n        /* \"#utility.yul\":21488:21497   */\n      dup3\n        /* \"#utility.yul\":21484:21502   */\n      add\n        /* \"#utility.yul\":21476:21502   */\n      swap1\n      pop\n        /* \"#utility.yul\":21548:21557   */\n      dup2\n        /* \"#utility.yul\":21542:21546   */\n      dup2\n        /* \"#utility.yul\":21538:21558   */\n      sub\n        /* \"#utility.yul\":21534:21535   */\n      0x00\n        /* \"#utility.yul\":21523:21532   */\n      dup4\n        /* \"#utility.yul\":21519:21536   */\n      add\n        /* \"#utility.yul\":21512:21559   */\n      mstore\n        /* \"#utility.yul\":21576:21707   */\n      tag_616\n        /* \"#utility.yul\":21702:21706   */\n      dup2\n        /* \"#utility.yul\":21576:21707   */\n      tag_398\n      jump\t// in\n    tag_616:\n        /* \"#utility.yul\":21568:21707   */\n      swap1\n      pop\n        /* \"#utility.yul\":21295:21714   */\n      swap2\n      swap1\n      pop\n      jump\t// out\n        /* \"#utility.yul\":21720:21897   */\n    tag_399:\n        /* \"#utility.yul\":21860:21889   */\n      0x506c6561736520656e74657220612076616c69642076616c7565210000000000\n        /* \"#utility.yul\":21856:21857   */\n      0x00\n        /* \"#utility.yul\":21848:21854   */\n      dup3\n        /* \"#utility.yul\":21844:21858   */\n      add\n        /* \"#utility.yul\":21837:21890   */\n      mstore\n        /* \"#utility.yul\":21720:21897   */\n      pop\n      jump\t// out\n        /* \"#utility.yul\":21903:22269   */\n    tag_400:\n        /* \"#utility.yul\":22045:22048   */\n      0x00\n        /* \"#utility.yul\":22066:22133   */\n      tag_619\n        /* \"#utility.yul\":22130:22132   */\n      0x1b\n        /* \"#utility.yul\":22125:22128   */\n      dup4\n        /* \"#utility.yul\":22066:22133   */\n      tag_372\n      jump\t// in\n    tag_619:\n        /* \"#utility.yul\":22059:22133   */\n      swap2\n      pop\n        /* \"#utility.yul\":22142:22235   */\n      tag_620\n        /* \"#utility.yul\":22231:22234   */\n      dup3\n        /* \"#utility.yul\":22142:22235   */\n      tag_399\n      jump\t// in\n    tag_620:\n        /* \"#utility.yul\":22260:22262   */\n      0x20\n        /* \"#utility.yul\":22255:22258   */\n      dup3\n        /* \"#utility.yul\":22251:22263   */\n      add\n        /* \"#utility.yul\":22244:22263   */\n      swap1\n      pop\n        /* \"#utility.yul\":21903:22269   */\n      swap2\n      swap1\n      pop\n      jump\t// out\n        /* \"#utility.yul\":22275:22694   */\n    tag_244:\n        /* \"#utility.yul\":22441:22445   */\n      0x00\n        /* \"#utility.yul\":22479:22481   */\n      0x20\n        /* \"#utility.yul\":22468:22477   */\n      dup3\n        /* \"#utility.yul\":22464:22482   */\n      add\n        /* \"#utility.yul\":22456:22482   */\n      swap1\n      pop\n        /* \"#utility.yul\":22528:22537   */\n      dup2\n        /* \"#utility.yul\":22522:22526   */\n      dup2\n        /* \"#utility.yul\":22518:22538   */\n      sub\n        /* \"#utility.yul\":22514:22515   */\n      0x00\n        /* \"#utility.yul\":22503:22512   */\n      dup4\n        /* \"#utility.yul\":22499:22516   */\n      add\n        /* \"#utility.yul\":22492:22539   */\n      mstore\n        /* \"#utility.yul\":22556:22687   */\n      tag_622\n        /* \"#utility.yul\":22682:22686   */\n      dup2\n        /* \"#utility.yul\":22556:22687   */\n      tag_400\n      jump\t// in\n    tag_622:\n        /* \"#utility.yul\":22548:22687   */\n      swap1\n      pop\n        /* \"#utility.yul\":22275:22694   */\n      swap2\n      swap1\n      pop\n      jump\t// out\n        /* \"#utility.yul\":22700:22925   */\n    tag_401:\n        /* \"#utility.yul\":22840:22874   */\n      0x4f776e61626c653a206e6577206f776e657220697320746865207a65726f2061\n        /* \"#utility.yul\":22836:22837   */\n      0x00\n        /* \"#utility.yul\":22828:22834   */\n      dup3\n        /* \"#utility.yul\":22824:22838   */\n      add\n        /* \"#utility.yul\":22817:22875   */\n      mstore\n        /* \"#utility.yul\":22909:22917   */\n      0x6464726573730000000000000000000000000000000000000000000000000000\n        /* \"#utility.yul\":22904:22906   */\n      0x20\n        /* \"#utility.yul\":22896:22902   */\n      dup3\n        /* \"#utility.yul\":22892:22907   */\n      add\n        /* \"#utility.yul\":22885:22918   */\n      mstore\n        /* \"#utility.yul\":22700:22925   */\n      pop\n      jump\t// out\n        /* \"#utility.yul\":22931:23297   */\n    tag_402:\n        /* \"#utility.yul\":23073:23076   */\n      0x00\n        /* \"#utility.yul\":23094:23161   */\n      tag_625\n        /* \"#utility.yul\":23158:23160   */\n      0x26\n        /* \"#utility.yul\":23153:23156   */\n      dup4\n        /* \"#utility.yul\":23094:23161   */\n      tag_372\n      jump\t// in\n    tag_625:\n        /* \"#utility.yul\":23087:23161   */\n      swap2\n      pop\n        /* \"#utility.yul\":23170:23263   */\n      tag_626\n        /* \"#utility.yul\":23259:23262   */\n      dup3\n        /* \"#utility.yul\":23170:23263   */\n      tag_401\n      jump\t// in\n    tag_626:\n        /* \"#utility.yul\":23288:23290   */\n      0x40\n        /* \"#utility.yul\":23283:23286   */\n      dup3\n        /* \"#utility.yul\":23279:23291   */\n      add\n        /* \"#utility.yul\":23272:23291   */\n      swap1\n      pop\n        /* \"#utility.yul\":22931:23297   */\n      swap2\n      swap1\n      pop\n      jump\t// out\n        /* \"#utility.yul\":23303:23722   */\n    tag_255:\n        /* \"#utility.yul\":23469:23473   */\n      0x00\n        /* \"#utility.yul\":23507:23509   */\n      0x20\n        /* \"#utility.yul\":23496:23505   */\n      dup3\n        /* \"#utility.yul\":23492:23510   */\n      add\n        /* \"#utility.yul\":23484:23510   */\n      swap1\n      pop\n        /* \"#utility.yul\":23556:23565   */\n      dup2\n        /* \"#utility.yul\":23550:23554   */\n      dup2\n        /* \"#utility.yul\":23546:23566   */\n      sub\n        /* \"#utility.yul\":23542:23543   */\n      0x00\n        /* \"#utility.yul\":23531:23540   */\n      dup4\n        /* \"#utility.yul\":23527:23544   */\n      add\n        /* \"#utility.yul\":23520:23567   */\n      mstore\n        /* \"#utility.yul\":23584:23715   */\n      tag_628\n        /* \"#utility.yul\":23710:23714   */\n      dup2\n        /* \"#utility.yul\":23584:23715   */\n      tag_402\n      jump\t// in\n    tag_628:\n        /* \"#utility.yul\":23576:23715   */\n      swap1\n      pop\n        /* \"#utility.yul\":23303:23722   */\n      swap2\n      swap1\n      pop\n      jump\t// out\n        /* \"#utility.yul\":23728:23908   */\n    tag_262:\n        /* \"#utility.yul\":23776:23853   */\n      0x4e487b7100000000000000000000000000000000000000000000000000000000\n        /* \"#utility.yul\":23773:23774   */\n      0x00\n        /* \"#utility.yul\":23766:23854   */\n      mstore\n        /* \"#utility.yul\":23873:23877   */\n      0x32\n        /* \"#utility.yul\":23870:23871   */\n      0x04\n        /* \"#utility.yul\":23863:23878   */\n      mstore\n        /* \"#utility.yul\":23897:23901   */\n      0x24\n        /* \"#utility.yul\":23894:23895   */\n      0x00\n        /* \"#utility.yul\":23887:23902   */\n      revert\n        /* \"#utility.yul\":23914:24090   */\n    tag_265:\n        /* \"#utility.yul\":23946:23947   */\n      0x00\n        /* \"#utility.yul\":23963:23983   */\n      tag_631\n        /* \"#utility.yul\":23981:23982   */\n      dup3\n        /* \"#utility.yul\":23963:23983   */\n      tag_349\n      jump\t// in\n    tag_631:\n        /* \"#utility.yul\":23958:23983   */\n      swap2\n      pop\n        /* \"#utility.yul\":23997:24017   */\n      tag_632\n        /* \"#utility.yul\":24015:24016   */\n      dup4\n        /* \"#utility.yul\":23997:24017   */\n      tag_349\n      jump\t// in\n    tag_632:\n        /* \"#utility.yul\":23992:24017   */\n      swap3\n      pop\n        /* \"#utility.yul\":24036:24037   */\n      dup3\n        /* \"#utility.yul\":24026:24061   */\n      tag_633\n      jumpi\n        /* \"#utility.yul\":24041:24059   */\n      tag_634\n      tag_394\n      jump\t// in\n    tag_634:\n        /* \"#utility.yul\":24026:24061   */\n    tag_633:\n        /* \"#utility.yul\":24082:24083   */\n      dup3\n        /* \"#utility.yul\":24079:24080   */\n      dup3\n        /* \"#utility.yul\":24075:24084   */\n      mod\n        /* \"#utility.yul\":24070:24084   */\n      swap1\n      pop\n        /* \"#utility.yul\":23914:24090   */\n      swap3\n      swap2\n      pop\n      pop\n      jump\t// out\n        /* \"#utility.yul\":24096:24173   */\n    tag_403:\n        /* \"#utility.yul\":24133:24140   */\n      0x00\n        /* \"#utility.yul\":24162:24167   */\n      dup2\n        /* \"#utility.yul\":24151:24167   */\n      swap1\n      pop\n        /* \"#utility.yul\":24096:24173   */\n      swap2\n      swap1\n      pop\n      jump\t// out\n        /* \"#utility.yul\":24179:24297   */\n    tag_404:\n        /* \"#utility.yul\":24266:24290   */\n      tag_637\n        /* \"#utility.yul\":24284:24289   */\n      dup2\n        /* \"#utility.yul\":24266:24290   */\n      tag_403\n      jump\t// in\n    tag_637:\n        /* \"#utility.yul\":24261:24264   */\n      dup3\n        /* \"#utility.yul\":24254:24291   */\n      mstore\n        /* \"#utility.yul\":24179:24297   */\n      pop\n      pop\n      jump\t// out\n        /* \"#utility.yul\":24303:24404   */\n    tag_405:\n        /* \"#utility.yul\":24339:24346   */\n      0x00\n        /* \"#utility.yul\":24379:24397   */\n      0xffffffffffffffff\n        /* \"#utility.yul\":24372:24377   */\n      dup3\n        /* \"#utility.yul\":24368:24398   */\n      and\n        /* \"#utility.yul\":24357:24398   */\n      swap1\n      pop\n        /* \"#utility.yul\":24303:24404   */\n      swap2\n      swap1\n      pop\n      jump\t// out\n        /* \"#utility.yul\":24410:24525   */\n    tag_406:\n        /* \"#utility.yul\":24495:24518   */\n      tag_640\n        /* \"#utility.yul\":24512:24517   */\n      dup2\n        /* \"#utility.yul\":24495:24518   */\n      tag_405\n      jump\t// in\n    tag_640:\n        /* \"#utility.yul\":24490:24493   */\n      dup3\n        /* \"#utility.yul\":24483:24519   */\n      mstore\n        /* \"#utility.yul\":24410:24525   */\n      pop\n      pop\n      jump\t// out\n        /* \"#utility.yul\":24531:24620   */\n    tag_407:\n        /* \"#utility.yul\":24567:24574   */\n      0x00\n        /* \"#utility.yul\":24607:24613   */\n      0xffff\n        /* \"#utility.yul\":24600:24605   */\n      dup3\n        /* \"#utility.yul\":24596:24614   */\n      and\n        /* \"#utility.yul\":24585:24614   */\n      swap1\n      pop\n        /* \"#utility.yul\":24531:24620   */\n      swap2\n      swap1\n      pop\n      jump\t// out\n        /* \"#utility.yul\":24626:24741   */\n    tag_408:\n        /* \"#utility.yul\":24711:24734   */\n      tag_643\n        /* \"#utility.yul\":24728:24733   */\n      dup2\n        /* \"#utility.yul\":24711:24734   */\n      tag_407\n      jump\t// in\n    tag_643:\n        /* \"#utility.yul\":24706:24709   */\n      dup3\n        /* \"#utility.yul\":24699:24735   */\n      mstore\n        /* \"#utility.yul\":24626:24741   */\n      pop\n      pop\n      jump\t// out\n        /* \"#utility.yul\":24747:24840   */\n    tag_409:\n        /* \"#utility.yul\":24783:24790   */\n      0x00\n        /* \"#utility.yul\":24823:24833   */\n      0xffffffff\n        /* \"#utility.yul\":24816:24821   */\n      dup3\n        /* \"#utility.yul\":24812:24834   */\n      and\n        /* \"#utility.yul\":24801:24834   */\n      swap1\n      pop\n        /* \"#utility.yul\":24747:24840   */\n      swap2\n      swap1\n      pop\n      jump\t// out\n        /* \"#utility.yul\":24846:24961   */\n    tag_410:\n        /* \"#utility.yul\":24931:24954   */\n      tag_646\n        /* \"#utility.yul\":24948:24953   */\n      dup2\n        /* \"#utility.yul\":24931:24954   */\n      tag_409\n      jump\t// in\n    tag_646:\n        /* \"#utility.yul\":24926:24929   */\n      dup3\n        /* \"#utility.yul\":24919:24955   */\n      mstore\n        /* \"#utility.yul\":24846:24961   */\n      pop\n      pop\n      jump\t// out\n        /* \"#utility.yul\":24967:25615   */\n    tag_280:\n        /* \"#utility.yul\":25164:25168   */\n      0x00\n        /* \"#utility.yul\":25202:25205   */\n      0xa0\n        /* \"#utility.yul\":25191:25200   */\n      dup3\n        /* \"#utility.yul\":25187:25206   */\n      add\n        /* \"#utility.yul\":25179:25206   */\n      swap1\n      pop\n        /* \"#utility.yul\":25216:25287   */\n      tag_648\n        /* \"#utility.yul\":25284:25285   */\n      0x00\n        /* \"#utility.yul\":25273:25282   */\n      dup4\n        /* \"#utility.yul\":25269:25286   */\n      add\n        /* \"#utility.yul\":25260:25266   */\n      dup9\n        /* \"#utility.yul\":25216:25287   */\n      tag_404\n      jump\t// in\n    tag_648:\n        /* \"#utility.yul\":25297:25367   */\n      tag_649\n        /* \"#utility.yul\":25363:25365   */\n      0x20\n        /* \"#utility.yul\":25352:25361   */\n      dup4\n        /* \"#utility.yul\":25348:25366   */\n      add\n        /* \"#utility.yul\":25339:25345   */\n      dup8\n        /* \"#utility.yul\":25297:25367   */\n      tag_406\n      jump\t// in\n    tag_649:\n        /* \"#utility.yul\":25377:25447   */\n      tag_650\n        /* \"#utility.yul\":25443:25445   */\n      0x40\n        /* \"#utility.yul\":25432:25441   */\n      dup4\n        /* \"#utility.yul\":25428:25446   */\n      add\n        /* \"#utility.yul\":25419:25425   */\n      dup7\n        /* \"#utility.yul\":25377:25447   */\n      tag_408\n      jump\t// in\n    tag_650:\n        /* \"#utility.yul\":25457:25527   */\n      tag_651\n        /* \"#utility.yul\":25523:25525   */\n      0x60\n        /* \"#utility.yul\":25512:25521   */\n      dup4\n        /* \"#utility.yul\":25508:25526   */\n      add\n        /* \"#utility.yul\":25499:25505   */\n      dup6\n        /* \"#utility.yul\":25457:25527   */\n      tag_410\n      jump\t// in\n    tag_651:\n        /* \"#utility.yul\":25537:25608   */\n      tag_652\n        /* \"#utility.yul\":25603:25606   */\n      0x80\n        /* \"#utility.yul\":25592:25601   */\n      dup4\n        /* \"#utility.yul\":25588:25607   */\n      add\n        /* \"#utility.yul\":25579:25585   */\n      dup5\n        /* \"#utility.yul\":25537:25608   */\n      tag_410\n      jump\t// in\n    tag_652:\n        /* \"#utility.yul\":24967:25615   */\n      swap7\n      swap6\n      pop\n      pop\n      pop\n      pop\n      pop\n      pop\n      jump\t// out\n        /* \"#utility.yul\":25621:25764   */\n    tag_411:\n        /* \"#utility.yul\":25678:25683   */\n      0x00\n        /* \"#utility.yul\":25709:25715   */\n      dup2\n        /* \"#utility.yul\":25703:25716   */\n      mload\n        /* \"#utility.yul\":25694:25716   */\n      swap1\n      pop\n        /* \"#utility.yul\":25725:25758   */\n      tag_654\n        /* \"#utility.yul\":25752:25757   */\n      dup2\n        /* \"#utility.yul\":25725:25758   */\n      tag_350\n      jump\t// in\n    tag_654:\n        /* \"#utility.yul\":25621:25764   */\n      swap3\n      swap2\n      pop\n      pop\n      jump\t// out\n        /* \"#utility.yul\":25770:26121   */\n    tag_284:\n        /* \"#utility.yul\":25840:25846   */\n      0x00\n        /* \"#utility.yul\":25889:25891   */\n      0x20\n        /* \"#utility.yul\":25877:25886   */\n      dup3\n        /* \"#utility.yul\":25868:25875   */\n      dup5\n        /* \"#utility.yul\":25864:25887   */\n      sub\n        /* \"#utility.yul\":25860:25892   */\n      slt\n        /* \"#utility.yul\":25857:25976   */\n      iszero\n      tag_656\n      jumpi\n        /* \"#utility.yul\":25895:25974   */\n      tag_657\n      tag_347\n      jump\t// in\n    tag_657:\n        /* \"#utility.yul\":25857:25976   */\n    tag_656:\n        /* \"#utility.yul\":26015:26016   */\n      0x00\n        /* \"#utility.yul\":26040:26104   */\n      tag_658\n        /* \"#utility.yul\":26096:26103   */\n      dup5\n        /* \"#utility.yul\":26087:26093   */\n      dup3\n        /* \"#utility.yul\":26076:26085   */\n      dup6\n        /* \"#utility.yul\":26072:26094   */\n      add\n        /* \"#utility.yul\":26040:26104   */\n      tag_411\n      jump\t// in\n    tag_658:\n        /* \"#utility.yul\":26030:26104   */\n      swap2\n      pop\n        /* \"#utility.yul\":25986:26114   */\n      pop\n        /* \"#utility.yul\":25770:26121   */\n      swap3\n      swap2\n      pop\n      pop\n      jump\t// out\n        /* \"#utility.yul\":26127:26360   */\n    tag_412:\n        /* \"#utility.yul\":26267:26301   */\n      0x496e697469616c697a61626c653a20636f6e747261637420697320616c726561\n        /* \"#utility.yul\":26263:26264   */\n      0x00\n        /* \"#utility.yul\":26255:26261   */\n      dup3\n        /* \"#utility.yul\":26251:26265   */\n      add\n        /* \"#utility.yul\":26244:26302   */\n      mstore\n        /* \"#utility.yul\":26336:26352   */\n      0x647920696e697469616c697a6564000000000000000000000000000000000000\n        /* \"#utility.yul\":26331:26333   */\n      0x20\n        /* \"#utility.yul\":26323:26329   */\n      dup3\n        /* \"#utility.yul\":26319:26334   */\n      add\n        /* \"#utility.yul\":26312:26353   */\n      mstore\n        /* \"#utility.yul\":26127:26360   */\n      pop\n      jump\t// out\n        /* \"#utility.yul\":26366:26732   */\n    tag_413:\n        /* \"#utility.yul\":26508:26511   */\n      0x00\n        /* \"#utility.yul\":26529:26596   */\n      tag_661\n        /* \"#utility.yul\":26593:26595   */\n      0x2e\n        /* \"#utility.yul\":26588:26591   */\n      dup4\n        /* \"#utility.yul\":26529:26596   */\n      tag_372\n      jump\t// in\n    tag_661:\n        /* \"#utility.yul\":26522:26596   */\n      swap2\n      pop\n        /* \"#utility.yul\":26605:26698   */\n      tag_662\n        /* \"#utility.yul\":26694:26697   */\n      dup3\n        /* \"#utility.yul\":26605:26698   */\n      tag_412\n      jump\t// in\n    tag_662:\n        /* \"#utility.yul\":26723:26725   */\n      0x40\n        /* \"#utility.yul\":26718:26721   */\n      dup3\n        /* \"#utility.yul\":26714:26726   */\n      add\n        /* \"#utility.yul\":26707:26726   */\n      swap1\n      pop\n        /* \"#utility.yul\":26366:26732   */\n      swap2\n      swap1\n      pop\n      jump\t// out\n        /* \"#utility.yul\":26738:27157   */\n    tag_293:\n        /* \"#utility.yul\":26904:26908   */\n      0x00\n        /* \"#utility.yul\":26942:26944   */\n      0x20\n        /* \"#utility.yul\":26931:26940   */\n      dup3\n        /* \"#utility.yul\":26927:26945   */\n      add\n        /* \"#utility.yul\":26919:26945   */\n      swap1\n      pop\n        /* \"#utility.yul\":26991:27000   */\n      dup2\n        /* \"#utility.yul\":26985:26989   */\n      dup2\n        /* \"#utility.yul\":26981:27001   */\n      sub\n        /* \"#utility.yul\":26977:26978   */\n      0x00\n        /* \"#utility.yul\":26966:26975   */\n      dup4\n        /* \"#utility.yul\":26962:26979   */\n      add\n        /* \"#utility.yul\":26955:27002   */\n      mstore\n        /* \"#utility.yul\":27019:27150   */\n      tag_664\n        /* \"#utility.yul\":27145:27149   */\n      dup2\n        /* \"#utility.yul\":27019:27150   */\n      tag_413\n      jump\t// in\n    tag_664:\n        /* \"#utility.yul\":27011:27150   */\n      swap1\n      pop\n        /* \"#utility.yul\":26738:27157   */\n      swap2\n      swap1\n      pop\n      jump\t// out\n        /* \"#utility.yul\":27163:27393   */\n    tag_414:\n        /* \"#utility.yul\":27303:27337   */\n      0x496e697469616c697a61626c653a20636f6e7472616374206973206e6f742069\n        /* \"#utility.yul\":27299:27300   */\n      0x00\n        /* \"#utility.yul\":27291:27297   */\n      dup3\n        /* \"#utility.yul\":27287:27301   */\n      add\n        /* \"#utility.yul\":27280:27338   */\n      mstore\n        /* \"#utility.yul\":27372:27385   */\n      0x6e697469616c697a696e67000000000000000000000000000000000000000000\n        /* \"#utility.yul\":27367:27369   */\n      0x20\n        /* \"#utility.yul\":27359:27365   */\n      dup3\n        /* \"#utility.yul\":27355:27370   */\n      add\n        /* \"#utility.yul\":27348:27386   */\n      mstore\n        /* \"#utility.yul\":27163:27393   */\n      pop\n      jump\t// out\n        /* \"#utility.yul\":27399:27765   */\n    tag_415:\n        /* \"#utility.yul\":27541:27544   */\n      0x00\n        /* \"#utility.yul\":27562:27629   */\n      tag_667\n        /* \"#utility.yul\":27626:27628   */\n      0x2b\n        /* \"#utility.yul\":27621:27624   */\n      dup4\n        /* \"#utility.yul\":27562:27629   */\n      tag_372\n      jump\t// in\n    tag_667:\n        /* \"#utility.yul\":27555:27629   */\n      swap2\n      pop\n        /* \"#utility.yul\":27638:27731   */\n      tag_668\n        /* \"#utility.yul\":27727:27730   */\n      dup3\n        /* \"#utility.yul\":27638:27731   */\n      tag_414\n      jump\t// in\n    tag_668:\n        /* \"#utility.yul\":27756:27758   */\n      0x40\n        /* \"#utility.yul\":27751:27754   */\n      dup3\n        /* \"#utility.yul\":27747:27759   */\n      add\n        /* \"#utility.yul\":27740:27759   */\n      swap1\n      pop\n        /* \"#utility.yul\":27399:27765   */\n      swap2\n      swap1\n      pop\n      jump\t// out\n        /* \"#utility.yul\":27771:28190   */\n    tag_300:\n        /* \"#utility.yul\":27937:27941   */\n      0x00\n        /* \"#utility.yul\":27975:27977   */\n      0x20\n        /* \"#utility.yul\":27964:27973   */\n      dup3\n        /* \"#utility.yul\":27960:27978   */\n      add\n        /* \"#utility.yul\":27952:27978   */\n      swap1\n      pop\n        /* \"#utility.yul\":28024:28033   */\n      dup2\n        /* \"#utility.yul\":28018:28022   */\n      dup2\n        /* \"#utility.yul\":28014:28034   */\n      sub\n        /* \"#utility.yul\":28010:28011   */\n      0x00\n        /* \"#utility.yul\":27999:28008   */\n      dup4\n        /* \"#utility.yul\":27995:28012   */\n      add\n        /* \"#utility.yul\":27988:28035   */\n      mstore\n        /* \"#utility.yul\":28052:28183   */\n      tag_670\n        /* \"#utility.yul\":28178:28182   */\n      dup2\n        /* \"#utility.yul\":28052:28183   */\n      tag_415\n      jump\t// in\n    tag_670:\n        /* \"#utility.yul\":28044:28183   */\n      swap1\n      pop\n        /* \"#utility.yul\":27771:28190   */\n      swap2\n      swap1\n      pop\n      jump\t// out\n        /* \"#utility.yul\":28196:28429   */\n    tag_306:\n        /* \"#utility.yul\":28235:28238   */\n      0x00\n        /* \"#utility.yul\":28258:28282   */\n      tag_672\n        /* \"#utility.yul\":28276:28281   */\n      dup3\n        /* \"#utility.yul\":28258:28282   */\n      tag_349\n      jump\t// in\n    tag_672:\n        /* \"#utility.yul\":28249:28282   */\n      swap2\n      pop\n        /* \"#utility.yul\":28304:28370   */\n      0xffffffffffffffffffffffffffffffffffffffffffffffffffffffffffffffff\n        /* \"#utility.yul\":28297:28302   */\n      dup3\n        /* \"#utility.yul\":28294:28371   */\n      sub\n        /* \"#utility.yul\":28291:28394   */\n      tag_673\n      jumpi\n        /* \"#utility.yul\":28374:28392   */\n      tag_674\n      tag_375\n      jump\t// in\n    tag_674:\n        /* \"#utility.yul\":28291:28394   */\n    tag_673:\n        /* \"#utility.yul\":28421:28422   */\n      0x01\n        /* \"#utility.yul\":28414:28419   */\n      dup3\n        /* \"#utility.yul\":28410:28423   */\n      add\n        /* \"#utility.yul\":28403:28423   */\n      swap1\n      pop\n        /* \"#utility.yul\":28196:28429   */\n      swap2\n      swap1\n      pop\n      jump\t// out\n        /* \"#utility.yul\":28435:28626   */\n    tag_309:\n        /* \"#utility.yul\":28475:28479   */\n      0x00\n        /* \"#utility.yul\":28495:28515   */\n      tag_676\n        /* \"#utility.yul\":28513:28514   */\n      dup3\n        /* \"#utility.yul\":28495:28515   */\n      tag_349\n      jump\t// in\n    tag_676:\n        /* \"#utility.yul\":28490:28515   */\n      swap2\n      pop\n        /* \"#utility.yul\":28529:28549   */\n      tag_677\n        /* \"#utility.yul\":28547:28548   */\n      dup4\n        /* \"#utility.yul\":28529:28549   */\n      tag_349\n      jump\t// in\n    tag_677:\n        /* \"#utility.yul\":28524:28549   */\n      swap3\n      pop\n        /* \"#utility.yul\":28568:28569   */\n      dup3\n        /* \"#utility.yul\":28565:28566   */\n      dup3\n        /* \"#utility.yul\":28562:28570   */\n      lt\n        /* \"#utility.yul\":28559:28593   */\n      iszero\n      tag_678\n      jumpi\n        /* \"#utility.yul\":28573:28591   */\n      tag_679\n      tag_375\n      jump\t// in\n    tag_679:\n        /* \"#utility.yul\":28559:28593   */\n    tag_678:\n        /* \"#utility.yul\":28618:28619   */\n      dup3\n        /* \"#utility.yul\":28615:28616   */\n      dup3\n        /* \"#utility.yul\":28611:28620   */\n      sub\n        /* \"#utility.yul\":28603:28620   */\n      swap1\n      pop\n        /* \"#utility.yul\":28435:28626   */\n      swap3\n      swap2\n      pop\n      pop\n      jump\t// out\n\n    auxdata: 0xa2646970667358221220a62ec8968372ee4455244d289b503faabc8d3e3c04b5822ab1375951954e9f3e64736f6c634300080f0033\n}\n",
				"bytecode": {
					"linkReferences": {},
					"object": "60a06040526001606955610258606f55600a607060006101000a81548160ff021916908360ff1602179055506000607060016101000a81548160ff02191690836003811115610051576100506100b2565b5b021790555034801561006257600080fd5b50736168499c0cffcacd319c818142124b7a15e857ab8073ffffffffffffffffffffffffffffffffffffffff1660808173ffffffffffffffffffffffffffffffffffffffff1681525050506100e1565b7f4e487b7100000000000000000000000000000000000000000000000000000000600052602160045260246000fd5b6080516129a5620001046000396000818161046a01526104be01526129a56000f3fe60806040526004361061012a5760003560e01c80638129fc1c116100ab5780639be064c11161006f5780639be064c11461039e578063a0ef91df146103c9578063b88a802f146103e0578063dfbf53ae146103f7578063edca914c14610422578063f2fde38b1461042c5761012a565b80638129fc1c146102dd57806382628fbe146102f457806382b98f9d1461031d57806388786272146103485780638da5cb5b146103735761012a565b806343531c61116100f257806343531c611461021657806346f9bedf146102595780636fd0981614610284578063715018a61461029b578063719ce73e146102b25761012a565b80630d683dd91461012f5780631fe543e31461015a5780632d97902f1461018357806335c1d349146101ae57806342619f66146101eb575b600080fd5b34801561013b57600080fd5b50610144610455565b6040516101519190611a5a565b60405180910390f35b34801561016657600080fd5b50610181600480360381019061017c9190611c18565b610468565b005b34801561018f57600080fd5b50610198610528565b6040516101a59190611c83565b60405180910390f35b3480156101ba57600080fd5b506101d560048036038101906101d09190611c9e565b61052e565b6040516101e29190611d0c565b60405180910390f35b3480156101f757600080fd5b5061020061056d565b60405161020d9190611c83565b60405180910390f35b34801561022257600080fd5b5061023d60048036038101906102389190611c9e565b610573565b6040516102509796959493929190611d48565b60405180910390f35b34801561026557600080fd5b5061026e6105d5565b60405161027b9190611c83565b60405180910390f35b34801561029057600080fd5b506102996105db565b005b3480156102a757600080fd5b506102b0610812565b005b3480156102be57600080fd5b506102c761089a565b6040516102d49190611c83565b60405180910390f35b3480156102e957600080fd5b506102f26108a0565b005b34801561030057600080fd5b5061031b60048036038101906103169190611df0565b610934565b005b34801561032957600080fd5b50610332610a89565b60405161033f9190611e52565b60405180910390f35b34801561035457600080fd5b5061035d610a9c565b60405161036a9190611c83565b60405180910390f35b34801561037f57600080fd5b50610388610aa2565b6040516103959190611e6d565b60405180910390f35b3480156103aa57600080fd5b506103b3610acc565b6040516103c09190611c83565b60405180910390f35b3480156103d557600080fd5b506103de610ad2565b005b3480156103ec57600080fd5b506103f5610bdc565b005b34801561040357600080fd5b5061040c610e34565b6040516104199190611d0c565b60405180910390f35b61042a610e5a565b005b34801561043857600080fd5b50610453600480360381019061044e9190611eb4565b610fe7565b005b607060019054906101000a900460ff1681565b7f000000000000000000000000000000000000000000000000000000000000000073ffffffffffffffffffffffffffffffffffffffff163373ffffffffffffffffffffffffffffffffffffffff161461051a57337f00000000000000000000000000000000000000000000000000000000000000006040517f1cf993f4000000000000000000000000000000000000000000000000000000008152600401610511929190611ee1565b60405180910390fd5b61052482826110de565b5050565b606f5481565b6068818154811061053e57600080fd5b906000526020600020016000915054906101000a900473ffffffffffffffffffffffffffffffffffffffff1681565b606e5481565b60716020528060005260406000206000915090508060000154908060010154908060020154908060030154908060040154908060050160009054906101000a900473ffffffffffffffffffffffffffffffffffffffff16908060060154905087565b60695481565b600160038111156105ef576105ee6119e3565b5b607060019054906101000a900460ff166003811115610611576106106119e3565b5b14610651576040517f08c379a000000000000000000000000000000000000000000000000000000000815260040161064890611f8d565b60405180910390fd5b606f54606b546106619190611fdc565b4210156106a3576040517f08c379a000000000000000000000000000000000000000000000000000000000815260040161069a9061207e565b60405180910390fd5b6000606e54146106e8576040517f08c379a00000000000000000000000000000000000000000000000000000000081526004016106df906120ea565b60405180910390fd5b6106f0611213565b73ffffffffffffffffffffffffffffffffffffffff1661070e610aa2565b73ffffffffffffffffffffffffffffffffffffffff1614610764576040517f08c379a000000000000000000000000000000000000000000000000000000000815260040161075b90612156565b60405180910390fd5b61076c61121b565b6002607060016101000a81548160ff02191690836003811115610792576107916119e3565b5b021790555042606c819055507fc3d0c9fbc1987665462eec0262eb7fc743a27d411fd3a0b9c20c1c64d99347d36066546040516107cf9190611c83565b60405180910390a17f9edcbcb9d92149759cf24c59c34fd339e97107442f9c009fa07ec27c726c3af66067546040516108089190611c83565b60405180910390a1565b61081a611213565b73ffffffffffffffffffffffffffffffffffffffff16610838610aa2565b73ffffffffffffffffffffffffffffffffffffffff161461088e576040517f08c379a000000000000000000000000000000000000000000000000000000000815260040161088590612156565b60405180910390fd5b6108986000611360565b565b606a5481565b60006108ac6001611426565b905080156108d0576001600060016101000a81548160ff0219169083151502179055505b6108d8611516565b80156109315760008060016101000a81548160ff0219169083151502179055507f7f26b83ff96e1f2b6a682f133852f6798a09c465da95921460cefb3847402498600160405161092891906121bb565b60405180910390a15b50565b60006003811115610948576109476119e3565b5b607060019054906101000a900460ff16600381111561096a576109696119e3565b5b1461097457600080fd5b61097c611213565b73ffffffffffffffffffffffffffffffffffffffff1661099a610aa2565b73ffffffffffffffffffffffffffffffffffffffff16146109f0576040517f08c379a00000000000000000000000000000000000000000000000000000000081526004016109e790612156565b60405180910390fd5b8260698190555081607060006101000a81548160ff021916908360ff16021790555080606f819055506001607060016101000a81548160ff02191690836003811115610a3f57610a3e6119e3565b5b021790555042606b819055507fce62b71aa24a7ffb1343c139b78d655d7b33bd66b2be4e83d9f6425b02eb197a606754604051610a7c9190611c83565b60405180910390a1505050565b607060009054906101000a900460ff1681565b606b5481565b6000603360009054906101000a900473ffffffffffffffffffffffffffffffffffffffff16905090565b60675481565b610ada611213565b73ffffffffffffffffffffffffffffffffffffffff16610af8610aa2565b73ffffffffffffffffffffffffffffffffffffffff1614610b4e576040517f08c379a0000000000000000000000000000000000000000000000000000000008152600401610b4590612156565b60405180910390fd5b6000606a5414610b93576040517f08c379a0000000000000000000000000000000000000000000000000000000008152600401610b8a90612222565b60405180910390fd5b3373ffffffffffffffffffffffffffffffffffffffff166108fc479081150290604051600060405180830381858888f19350505050158015610bd9573d6000803e3d6000fd5b50565b600380811115610bef57610bee6119e3565b5b607060019054906101000a900460ff166003811115610c1157610c106119e3565b5b14610c51576040517f08c379a0000000000000000000000000000000000000000000000000000000008152600401610c48906122b4565b60405180910390fd5b600073ffffffffffffffffffffffffffffffffffffffff16606d60009054906101000a900473ffffffffffffffffffffffffffffffffffffffff1673ffffffffffffffffffffffffffffffffffffffff1603610ce2576040517f08c379a0000000000000000000000000000000000000000000000000000000008152600401610cd990612346565b60405180910390fd5b606d60009054906101000a900473ffffffffffffffffffffffffffffffffffffffff1673ffffffffffffffffffffffffffffffffffffffff163373ffffffffffffffffffffffffffffffffffffffff161480610d705750610d41610aa2565b73ffffffffffffffffffffffffffffffffffffffff163373ffffffffffffffffffffffffffffffffffffffff16145b610daf576040517f08c379a0000000000000000000000000000000000000000000000000000000008152600401610da6906123b2565b60405180910390fd5b610db761156f565b60006064607060009054906101000a900460ff16610dd59190612401565b60ff16606a54610de59190612432565b9050610df081611697565b610df861176c565b7f1c1f258cbfdae81beabe79c7a44ff65a9c9f4c17cb035f72b14d998c76345deb606754604051610e299190611c83565b60405180910390a150565b606d60009054906101000a900473ffffffffffffffffffffffffffffffffffffffff1681565b60016003811115610e6e57610e6d6119e3565b5b607060019054906101000a900460ff166003811115610e9057610e8f6119e3565b5b14610ed0576040517f08c379a0000000000000000000000000000000000000000000000000000000008152600401610ec7906124d8565b60405180910390fd5b606f54606b54610ee09190611fdc565b421115610f22576040517f08c379a0000000000000000000000000000000000000000000000000000000008152600401610f1990612544565b60405180910390fd5b606954341015610f67576040517f08c379a0000000000000000000000000000000000000000000000000000000008152600401610f5e906125b0565b60405180910390fd5b606954606a6000828254610f7b9190611fdc565b925050819055506068339080600181540180825580915050600190039060005260206000200160009091909190916101000a81548173ffffffffffffffffffffffffffffffffffffffff021916908373ffffffffffffffffffffffffffffffffffffffff160217905550565b610fef611213565b73ffffffffffffffffffffffffffffffffffffffff1661100d610aa2565b73ffffffffffffffffffffffffffffffffffffffff1614611063576040517f08c379a000000000000000000000000000000000000000000000000000000000815260040161105a90612156565b60405180910390fd5b600073ffffffffffffffffffffffffffffffffffffffff168173ffffffffffffffffffffffffffffffffffffffff16036110d2576040517f08c379a00000000000000000000000000000000000000000000000000000000081526004016110c990612642565b60405180910390fd5b6110db81611360565b50565b80606590805190602001906110f49291906118ef565b50606560008154811061110a57611109612662565b5b9060005260206000200154606e8190555060688080549050606e5461112f9190612691565b815481106111405761113f612662565b5b9060005260206000200160009054906101000a900473ffffffffffffffffffffffffffffffffffffffff16606d60006101000a81548173ffffffffffffffffffffffffffffffffffffffff021916908373ffffffffffffffffffffffffffffffffffffffff1602179055506003607060016101000a81548160ff021916908360038111156111d1576111d06119e3565b5b02179055507fec5fbb90ad904e090f21495aa3914ca1b34c5b7ea3c8c6fb7f0ecb7cf2a9f5436067546040516112079190611c83565b60405180910390a15050565b600033905090565b611223611213565b73ffffffffffffffffffffffffffffffffffffffff16611241610aa2565b73ffffffffffffffffffffffffffffffffffffffff1614611297576040517f08c379a000000000000000000000000000000000000000000000000000000000815260040161128e90612156565b60405180910390fd5b736168499c0cffcacd319c818142124b7a15e857ab73ffffffffffffffffffffffffffffffffffffffff16635d3b1d307fd89b2bf150e3b9e13446986e571fb9cab24b13cea0a43ea20a6049a85cc807cc60001b60f76003620f424060016040518663ffffffff1660e01b815260040161131595949392919061273a565b6020604051808303816000875af1158015611334573d6000803e3d6000fd5b505050506040513d601f19601f8201168201806040525081019061135891906127a2565b606681905550565b6000603360009054906101000a900473ffffffffffffffffffffffffffffffffffffffff16905081603360006101000a81548173ffffffffffffffffffffffffffffffffffffffff021916908373ffffffffffffffffffffffffffffffffffffffff1602179055508173ffffffffffffffffffffffffffffffffffffffff168173ffffffffffffffffffffffffffffffffffffffff167f8be0079c531659141344cd1fd0a4f28419497f9722a3daafe3b4186f6b6457e060405160405180910390a35050565b60008060019054906101000a900460ff161561149d5760018260ff1614801561145557506114533061186b565b155b611494576040517f08c379a000000000000000000000000000000000000000000000000000000000815260040161148b90612841565b60405180910390fd5b60009050611511565b8160ff1660008054906101000a900460ff1660ff16106114f2576040517f08c379a00000000000000000000000000000000000000000000000000000000081526004016114e990612841565b60405180910390fd5b816000806101000a81548160ff021916908360ff160217905550600190505b919050565b600060019054906101000a900460ff16611565576040517f08c379a000000000000000000000000000000000000000000000000000000000815260040161155c906128d3565b60405180910390fd5b61156d61188e565b565b6040518060e001604052806067548152602001606a5481526020016069548152602001606b548152602001606c548152602001606d60009054906101000a900473ffffffffffffffffffffffffffffffffffffffff1673ffffffffffffffffffffffffffffffffffffffff168152602001606e5481525060716000606760008154809291906115fd906128f3565b919050558152602001908152602001600020600082015181600001556020820151816001015560408201518160020155606082015181600301556080820151816004015560a08201518160050160006101000a81548173ffffffffffffffffffffffffffffffffffffffff021916908373ffffffffffffffffffffffffffffffffffffffff16021790555060c08201518160060155905050565b80606a60008282546116a9919061293b565b92505081905550606d60009054906101000a900473ffffffffffffffffffffffffffffffffffffffff1673ffffffffffffffffffffffffffffffffffffffff166108fc829081150290604051600060405180830381858888f19350505050158015611718573d6000803e3d6000fd5b50611721610aa2565b73ffffffffffffffffffffffffffffffffffffffff166108fc606a549081150290604051600060405180830381858888f19350505050158015611768573d6000803e3d6000fd5b5050565b6000606c8190555060006069819055506000606f819055506000607060016101000a81548160ff021916908360038111156117aa576117a96119e3565b5b0217905550600067ffffffffffffffff8111156117ca576117c9611ad5565b5b6040519080825280602002602001820160405280156117f85781602001602082028036833780820191505090505b506068908051906020019061180e92919061193c565b506000606a819055506000606e819055506000606b819055506000606d60006101000a81548173ffffffffffffffffffffffffffffffffffffffff021916908373ffffffffffffffffffffffffffffffffffffffff160217905550565b6000808273ffffffffffffffffffffffffffffffffffffffff163b119050919050565b600060019054906101000a900460ff166118dd576040517f08c379a00000000000000000000000000000000000000000000000000000000081526004016118d4906128d3565b60405180910390fd5b6118ed6118e8611213565b611360565b565b82805482825590600052602060002090810192821561192b579160200282015b8281111561192a57825182559160200191906001019061190f565b5b50905061193891906119c6565b5090565b8280548282559060005260206000209081019282156119b5579160200282015b828111156119b45782518260006101000a81548173ffffffffffffffffffffffffffffffffffffffff021916908373ffffffffffffffffffffffffffffffffffffffff1602179055509160200191906001019061195c565b5b5090506119c291906119c6565b5090565b5b808211156119df5760008160009055506001016119c7565b5090565b7f4e487b7100000000000000000000000000000000000000000000000000000000600052602160045260246000fd5b60048110611a2357611a226119e3565b5b50565b6000819050611a3482611a12565b919050565b6000611a4482611a26565b9050919050565b611a5481611a39565b82525050565b6000602082019050611a6f6000830184611a4b565b92915050565b6000604051905090565b600080fd5b600080fd5b6000819050919050565b611a9c81611a89565b8114611aa757600080fd5b50565b600081359050611ab981611a93565b92915050565b600080fd5b6000601f19601f8301169050919050565b7f4e487b7100000000000000000000000000000000000000000000000000000000600052604160045260246000fd5b611b0d82611ac4565b810181811067ffffffffffffffff82111715611b2c57611b2b611ad5565b5b80604052505050565b6000611b3f611a75565b9050611b4b8282611b04565b919050565b600067ffffffffffffffff821115611b6b57611b6a611ad5565b5b602082029050602081019050919050565b600080fd5b6000611b94611b8f84611b50565b611b35565b90508083825260208201905060208402830185811115611bb757611bb6611b7c565b5b835b81811015611be05780611bcc8882611aaa565b845260208401935050602081019050611bb9565b5050509392505050565b600082601f830112611bff57611bfe611abf565b5b8135611c0f848260208601611b81565b91505092915050565b60008060408385031215611c2f57611c2e611a7f565b5b6000611c3d85828601611aaa565b925050602083013567ffffffffffffffff811115611c5e57611c5d611a84565b5b611c6a85828601611bea565b9150509250929050565b611c7d81611a89565b82525050565b6000602082019050611c986000830184611c74565b92915050565b600060208284031215611cb457611cb3611a7f565b5b6000611cc284828501611aaa565b91505092915050565b600073ffffffffffffffffffffffffffffffffffffffff82169050919050565b6000611cf682611ccb565b9050919050565b611d0681611ceb565b82525050565b6000602082019050611d216000830184611cfd565b92915050565b6000611d3282611ccb565b9050919050565b611d4281611d27565b82525050565b600060e082019050611d5d600083018a611c74565b611d6a6020830189611c74565b611d776040830188611c74565b611d846060830187611c74565b611d916080830186611c74565b611d9e60a0830185611d39565b611dab60c0830184611c74565b98975050505050505050565b600060ff82169050919050565b611dcd81611db7565b8114611dd857600080fd5b50565b600081359050611dea81611dc4565b92915050565b600080600060608486031215611e0957611e08611a7f565b5b6000611e1786828701611aaa565b9350506020611e2886828701611ddb565b9250506040611e3986828701611aaa565b9150509250925092565b611e4c81611db7565b82525050565b6000602082019050611e676000830184611e43565b92915050565b6000602082019050611e826000830184611d39565b92915050565b611e9181611d27565b8114611e9c57600080fd5b50565b600081359050611eae81611e88565b92915050565b600060208284031215611eca57611ec9611a7f565b5b6000611ed884828501611e9f565b91505092915050565b6000604082019050611ef66000830185611d39565b611f036020830184611d39565b9392505050565b600082825260208201905092915050565b7f596f752063616e206e6f7420636c6f73652074686520756e737461727465642060008201527f6c6f747465727921000000000000000000000000000000000000000000000000602082015250565b6000611f77602883611f0a565b9150611f8282611f1b565b604082019050919050565b60006020820190508181036000830152611fa681611f6a565b9050919050565b7f4e487b7100000000000000000000000000000000000000000000000000000000600052601160045260246000fd5b6000611fe782611a89565b9150611ff283611a89565b9250827fffffffffffffffffffffffffffffffffffffffffffffffffffffffffffffffff0382111561202757612026611fad565b5b828201905092915050565b7f54696d65206973206e6f74206f76657221000000000000000000000000000000600082015250565b6000612068601183611f0a565b915061207382612032565b602082019050919050565b600060208201905081810360008301526120978161205b565b9050919050565b7f416c726561647920636c6f736564210000000000000000000000000000000000600082015250565b60006120d4600f83611f0a565b91506120df8261209e565b602082019050919050565b60006020820190508181036000830152612103816120c7565b9050919050565b7f4f776e61626c653a2063616c6c6572206973206e6f7420746865206f776e6572600082015250565b6000612140602083611f0a565b915061214b8261210a565b602082019050919050565b6000602082019050818103600083015261216f81612133565b9050919050565b6000819050919050565b6000819050919050565b60006121a56121a061219b84612176565b612180565b611db7565b9050919050565b6121b58161218a565b82525050565b60006020820190506121d060008301846121ac565b92915050565b7f7072697a65506f6f6c206973206e6f7420656d70747921000000000000000000600082015250565b600061220c601783611f0a565b9150612217826121d6565b602082019050919050565b6000602082019050818103600083015261223b816121ff565b9050919050565b7f546865206c6f747465727920686173206e6f7420636f6d706c6574656420796560008201527f7421000000000000000000000000000000000000000000000000000000000000602082015250565b600061229e602283611f0a565b91506122a982612242565b604082019050919050565b600060208201905081810360008301526122cd81612291565b9050919050565b7f5468652077696e6e657220686173206e6f74206265656e2073656c656374656460008201527f2100000000000000000000000000000000000000000000000000000000000000602082015250565b6000612330602183611f0a565b915061233b826122d4565b604082019050919050565b6000602082019050818103600083015261235f81612323565b9050919050565b7f4f6e6c792077696e6e65722063616e20636c61696d2072657761726421000000600082015250565b600061239c601d83611f0a565b91506123a782612366565b602082019050919050565b600060208201905081810360008301526123cb8161238f565b9050919050565b7f4e487b7100000000000000000000000000000000000000000000000000000000600052601260045260246000fd5b600061240c82611db7565b915061241783611db7565b925082612427576124266123d2565b5b828204905092915050565b600061243d82611a89565b915061244883611a89565b9250817fffffffffffffffffffffffffffffffffffffffffffffffffffffffffffffffff048311821515161561248157612480611fad565b5b828202905092915050565b7f546865206c6f747465727920686173206e6f7420737461727465642079657421600082015250565b60006124c2602083611f0a565b91506124cd8261248c565b602082019050919050565b600060208201905081810360008301526124f1816124b5565b9050919050565b7f54696d65206973206f7665722100000000000000000000000000000000000000600082015250565b600061252e600d83611f0a565b9150612539826124f8565b602082019050919050565b6000602082019050818103600083015261255d81612521565b9050919050565b7f506c6561736520656e74657220612076616c69642076616c7565210000000000600082015250565b600061259a601b83611f0a565b91506125a582612564565b602082019050919050565b600060208201905081810360008301526125c98161258d565b9050919050565b7f4f776e61626c653a206e6577206f776e657220697320746865207a65726f206160008201527f6464726573730000000000000000000000000000000000000000000000000000602082015250565b600061262c602683611f0a565b9150612637826125d0565b604082019050919050565b6000602082019050818103600083015261265b8161261f565b9050919050565b7f4e487b7100000000000000000000000000000000000000000000000000000000600052603260045260246000fd5b600061269c82611a89565b91506126a783611a89565b9250826126b7576126b66123d2565b5b828206905092915050565b6000819050919050565b6126d5816126c2565b82525050565b600067ffffffffffffffff82169050919050565b6126f8816126db565b82525050565b600061ffff82169050919050565b612715816126fe565b82525050565b600063ffffffff82169050919050565b6127348161271b565b82525050565b600060a08201905061274f60008301886126cc565b61275c60208301876126ef565b612769604083018661270c565b612776606083018561272b565b612783608083018461272b565b9695505050505050565b60008151905061279c81611a93565b92915050565b6000602082840312156127b8576127b7611a7f565b5b60006127c68482850161278d565b91505092915050565b7f496e697469616c697a61626c653a20636f6e747261637420697320616c72656160008201527f647920696e697469616c697a6564000000000000000000000000000000000000602082015250565b600061282b602e83611f0a565b9150612836826127cf565b604082019050919050565b6000602082019050818103600083015261285a8161281e565b9050919050565b7f496e697469616c697a61626c653a20636f6e7472616374206973206e6f74206960008201527f6e697469616c697a696e67000000000000000000000000000000000000000000602082015250565b60006128bd602b83611f0a565b91506128c882612861565b604082019050919050565b600060208201905081810360008301526128ec816128b0565b9050919050565b60006128fe82611a89565b91507fffffffffffffffffffffffffffffffffffffffffffffffffffffffffffffffff82036129305761292f611fad565b5b600182019050919050565b600061294682611a89565b915061295183611a89565b92508282101561296457612963611fad565b5b82820390509291505056fea2646970667358221220a62ec8968372ee4455244d289b503faabc8d3e3c04b5822ab1375951954e9f3e64736f6c634300080f0033",
					"opcodes": "PUSH1 0xA0 PUSH1 0x40 MSTORE PUSH1 0x1 PUSH1 0x69 SSTORE PUSH2 0x258 PUSH1 0x6F SSTORE PUSH1 0xA PUSH1 0x70 PUSH1 0x0 PUSH2 0x100 EXP DUP2 SLOAD DUP2 PUSH1 0xFF MUL NOT AND SWAP1 DUP4 PUSH1 0xFF AND MUL OR SWAP1 SSTORE POP PUSH1 0x0 PUSH1 0x70 PUSH1 0x1 PUSH2 0x100 EXP DUP2 SLOAD DUP2 PUSH1 0xFF MUL NOT AND SWAP1 DUP4 PUSH1 0x3 DUP2 GT ISZERO PUSH2 0x51 JUMPI PUSH2 0x50 PUSH2 0xB2 JUMP JUMPDEST JUMPDEST MUL OR SWAP1 SSTORE POP CALLVALUE DUP1 ISZERO PUSH2 0x62 JUMPI PUSH1 0x0 DUP1 REVERT JUMPDEST POP PUSH20 0x6168499C0CFFCACD319C818142124B7A15E857AB DUP1 PUSH20 0xFFFFFFFFFFFFFFFFFFFFFFFFFFFFFFFFFFFFFFFF AND PUSH1 0x80 DUP2 PUSH20 0xFFFFFFFFFFFFFFFFFFFFFFFFFFFFFFFFFFFFFFFF AND DUP2 MSTORE POP POP POP PUSH2 0xE1 JUMP JUMPDEST PUSH32 0x4E487B7100000000000000000000000000000000000000000000000000000000 PUSH1 0x0 MSTORE PUSH1 0x21 PUSH1 0x4 MSTORE PUSH1 0x24 PUSH1 0x0 REVERT JUMPDEST PUSH1 0x80 MLOAD PUSH2 0x29A5 PUSH3 0x104 PUSH1 0x0 CODECOPY PUSH1 0x0 DUP2 DUP2 PUSH2 0x46A ADD MSTORE PUSH2 0x4BE ADD MSTORE PUSH2 0x29A5 PUSH1 0x0 RETURN INVALID PUSH1 0x80 PUSH1 0x40 MSTORE PUSH1 0x4 CALLDATASIZE LT PUSH2 0x12A JUMPI PUSH1 0x0 CALLDATALOAD PUSH1 0xE0 SHR DUP1 PUSH4 0x8129FC1C GT PUSH2 0xAB JUMPI DUP1 PUSH4 0x9BE064C1 GT PUSH2 0x6F JUMPI DUP1 PUSH4 0x9BE064C1 EQ PUSH2 0x39E JUMPI DUP1 PUSH4 0xA0EF91DF EQ PUSH2 0x3C9 JUMPI DUP1 PUSH4 0xB88A802F EQ PUSH2 0x3E0 JUMPI DUP1 PUSH4 0xDFBF53AE EQ PUSH2 0x3F7 JUMPI DUP1 PUSH4 0xEDCA914C EQ PUSH2 0x422 JUMPI DUP1 PUSH4 0xF2FDE38B EQ PUSH2 0x42C JUMPI PUSH2 0x12A JUMP JUMPDEST DUP1 PUSH4 0x8129FC1C EQ PUSH2 0x2DD JUMPI DUP1 PUSH4 0x82628FBE EQ PUSH2 0x2F4 JUMPI DUP1 PUSH4 0x82B98F9D EQ PUSH2 0x31D JUMPI DUP1 PUSH4 0x88786272 EQ PUSH2 0x348 JUMPI DUP1 PUSH4 0x8DA5CB5B EQ PUSH2 0x373 JUMPI PUSH2 0x12A JUMP JUMPDEST DUP1 PUSH4 0x43531C61 GT PUSH2 0xF2 JUMPI DUP1 PUSH4 0x43531C61 EQ PUSH2 0x216 JUMPI DUP1 PUSH4 0x46F9BEDF EQ PUSH2 0x259 JUMPI DUP1 PUSH4 0x6FD09816 EQ PUSH2 0x284 JUMPI DUP1 PUSH4 0x715018A6 EQ PUSH2 0x29B JUMPI DUP1 PUSH4 0x719CE73E EQ PUSH2 0x2B2 JUMPI PUSH2 0x12A JUMP JUMPDEST DUP1 PUSH4 0xD683DD9 EQ PUSH2 0x12F JUMPI DUP1 PUSH4 0x1FE543E3 EQ PUSH2 0x15A JUMPI DUP1 PUSH4 0x2D97902F EQ PUSH2 0x183 JUMPI DUP1 PUSH4 0x35C1D349 EQ PUSH2 0x1AE JUMPI DUP1 PUSH4 0x42619F66 EQ PUSH2 0x1EB JUMPI JUMPDEST PUSH1 0x0 DUP1 REVERT JUMPDEST CALLVALUE DUP1 ISZERO PUSH2 0x13B JUMPI PUSH1 0x0 DUP1 REVERT JUMPDEST POP PUSH2 0x144 PUSH2 0x455 JUMP JUMPDEST PUSH1 0x40 MLOAD PUSH2 0x151 SWAP2 SWAP1 PUSH2 0x1A5A JUMP JUMPDEST PUSH1 0x40 MLOAD DUP1 SWAP2 SUB SWAP1 RETURN JUMPDEST CALLVALUE DUP1 ISZERO PUSH2 0x166 JUMPI PUSH1 0x0 DUP1 REVERT JUMPDEST POP PUSH2 0x181 PUSH1 0x4 DUP1 CALLDATASIZE SUB DUP2 ADD SWAP1 PUSH2 0x17C SWAP2 SWAP1 PUSH2 0x1C18 JUMP JUMPDEST PUSH2 0x468 JUMP JUMPDEST STOP JUMPDEST CALLVALUE DUP1 ISZERO PUSH2 0x18F JUMPI PUSH1 0x0 DUP1 REVERT JUMPDEST POP PUSH2 0x198 PUSH2 0x528 JUMP JUMPDEST PUSH1 0x40 MLOAD PUSH2 0x1A5 SWAP2 SWAP1 PUSH2 0x1C83 JUMP JUMPDEST PUSH1 0x40 MLOAD DUP1 SWAP2 SUB SWAP1 RETURN JUMPDEST CALLVALUE DUP1 ISZERO PUSH2 0x1BA JUMPI PUSH1 0x0 DUP1 REVERT JUMPDEST POP PUSH2 0x1D5 PUSH1 0x4 DUP1 CALLDATASIZE SUB DUP2 ADD SWAP1 PUSH2 0x1D0 SWAP2 SWAP1 PUSH2 0x1C9E JUMP JUMPDEST PUSH2 0x52E JUMP JUMPDEST PUSH1 0x40 MLOAD PUSH2 0x1E2 SWAP2 SWAP1 PUSH2 0x1D0C JUMP JUMPDEST PUSH1 0x40 MLOAD DUP1 SWAP2 SUB SWAP1 RETURN JUMPDEST CALLVALUE DUP1 ISZERO PUSH2 0x1F7 JUMPI PUSH1 0x0 DUP1 REVERT JUMPDEST POP PUSH2 0x200 PUSH2 0x56D JUMP JUMPDEST PUSH1 0x40 MLOAD PUSH2 0x20D SWAP2 SWAP1 PUSH2 0x1C83 JUMP JUMPDEST PUSH1 0x40 MLOAD DUP1 SWAP2 SUB SWAP1 RETURN JUMPDEST CALLVALUE DUP1 ISZERO PUSH2 0x222 JUMPI PUSH1 0x0 DUP1 REVERT JUMPDEST POP PUSH2 0x23D PUSH1 0x4 DUP1 CALLDATASIZE SUB DUP2 ADD SWAP1 PUSH2 0x238 SWAP2 SWAP1 PUSH2 0x1C9E JUMP JUMPDEST PUSH2 0x573 JUMP JUMPDEST PUSH1 0x40 MLOAD PUSH2 0x250 SWAP8 SWAP7 SWAP6 SWAP5 SWAP4 SWAP3 SWAP2 SWAP1 PUSH2 0x1D48 JUMP JUMPDEST PUSH1 0x40 MLOAD DUP1 SWAP2 SUB SWAP1 RETURN JUMPDEST CALLVALUE DUP1 ISZERO PUSH2 0x265 JUMPI PUSH1 0x0 DUP1 REVERT JUMPDEST POP PUSH2 0x26E PUSH2 0x5D5 JUMP JUMPDEST PUSH1 0x40 MLOAD PUSH2 0x27B SWAP2 SWAP1 PUSH2 0x1C83 JUMP JUMPDEST PUSH1 0x40 MLOAD DUP1 SWAP2 SUB SWAP1 RETURN JUMPDEST CALLVALUE DUP1 ISZERO PUSH2 0x290 JUMPI PUSH1 0x0 DUP1 REVERT JUMPDEST POP PUSH2 0x299 PUSH2 0x5DB JUMP JUMPDEST STOP JUMPDEST CALLVALUE DUP1 ISZERO PUSH2 0x2A7 JUMPI PUSH1 0x0 DUP1 REVERT JUMPDEST POP PUSH2 0x2B0 PUSH2 0x812 JUMP JUMPDEST STOP JUMPDEST CALLVALUE DUP1 ISZERO PUSH2 0x2BE JUMPI PUSH1 0x0 DUP1 REVERT JUMPDEST POP PUSH2 0x2C7 PUSH2 0x89A JUMP JUMPDEST PUSH1 0x40 MLOAD PUSH2 0x2D4 SWAP2 SWAP1 PUSH2 0x1C83 JUMP JUMPDEST PUSH1 0x40 MLOAD DUP1 SWAP2 SUB SWAP1 RETURN JUMPDEST CALLVALUE DUP1 ISZERO PUSH2 0x2E9 JUMPI PUSH1 0x0 DUP1 REVERT JUMPDEST POP PUSH2 0x2F2 PUSH2 0x8A0 JUMP JUMPDEST STOP JUMPDEST CALLVALUE DUP1 ISZERO PUSH2 0x300 JUMPI PUSH1 0x0 DUP1 REVERT JUMPDEST POP PUSH2 0x31B PUSH1 0x4 DUP1 CALLDATASIZE SUB DUP2 ADD SWAP1 PUSH2 0x316 SWAP2 SWAP1 PUSH2 0x1DF0 JUMP JUMPDEST PUSH2 0x934 JUMP JUMPDEST STOP JUMPDEST CALLVALUE DUP1 ISZERO PUSH2 0x329 JUMPI PUSH1 0x0 DUP1 REVERT JUMPDEST POP PUSH2 0x332 PUSH2 0xA89 JUMP JUMPDEST PUSH1 0x40 MLOAD PUSH2 0x33F SWAP2 SWAP1 PUSH2 0x1E52 JUMP JUMPDEST PUSH1 0x40 MLOAD DUP1 SWAP2 SUB SWAP1 RETURN JUMPDEST CALLVALUE DUP1 ISZERO PUSH2 0x354 JUMPI PUSH1 0x0 DUP1 REVERT JUMPDEST POP PUSH2 0x35D PUSH2 0xA9C JUMP JUMPDEST PUSH1 0x40 MLOAD PUSH2 0x36A SWAP2 SWAP1 PUSH2 0x1C83 JUMP JUMPDEST PUSH1 0x40 MLOAD DUP1 SWAP2 SUB SWAP1 RETURN JUMPDEST CALLVALUE DUP1 ISZERO PUSH2 0x37F JUMPI PUSH1 0x0 DUP1 REVERT JUMPDEST POP PUSH2 0x388 PUSH2 0xAA2 JUMP JUMPDEST PUSH1 0x40 MLOAD PUSH2 0x395 SWAP2 SWAP1 PUSH2 0x1E6D JUMP JUMPDEST PUSH1 0x40 MLOAD DUP1 SWAP2 SUB SWAP1 RETURN JUMPDEST CALLVALUE DUP1 ISZERO PUSH2 0x3AA JUMPI PUSH1 0x0 DUP1 REVERT JUMPDEST POP PUSH2 0x3B3 PUSH2 0xACC JUMP JUMPDEST PUSH1 0x40 MLOAD PUSH2 0x3C0 SWAP2 SWAP1 PUSH2 0x1C83 JUMP JUMPDEST PUSH1 0x40 MLOAD DUP1 SWAP2 SUB SWAP1 RETURN JUMPDEST CALLVALUE DUP1 ISZERO PUSH2 0x3D5 JUMPI PUSH1 0x0 DUP1 REVERT JUMPDEST POP PUSH2 0x3DE PUSH2 0xAD2 JUMP JUMPDEST STOP JUMPDEST CALLVALUE DUP1 ISZERO PUSH2 0x3EC JUMPI PUSH1 0x0 DUP1 REVERT JUMPDEST POP PUSH2 0x3F5 PUSH2 0xBDC JUMP JUMPDEST STOP JUMPDEST CALLVALUE DUP1 ISZERO PUSH2 0x403 JUMPI PUSH1 0x0 DUP1 REVERT JUMPDEST POP PUSH2 0x40C PUSH2 0xE34 JUMP JUMPDEST PUSH1 0x40 MLOAD PUSH2 0x419 SWAP2 SWAP1 PUSH2 0x1D0C JUMP JUMPDEST PUSH1 0x40 MLOAD DUP1 SWAP2 SUB SWAP1 RETURN JUMPDEST PUSH2 0x42A PUSH2 0xE5A JUMP JUMPDEST STOP JUMPDEST CALLVALUE DUP1 ISZERO PUSH2 0x438 JUMPI PUSH1 0x0 DUP1 REVERT JUMPDEST POP PUSH2 0x453 PUSH1 0x4 DUP1 CALLDATASIZE SUB DUP2 ADD SWAP1 PUSH2 0x44E SWAP2 SWAP1 PUSH2 0x1EB4 JUMP JUMPDEST PUSH2 0xFE7 JUMP JUMPDEST STOP JUMPDEST PUSH1 0x70 PUSH1 0x1 SWAP1 SLOAD SWAP1 PUSH2 0x100 EXP SWAP1 DIV PUSH1 0xFF AND DUP2 JUMP JUMPDEST PUSH32 0x0 PUSH20 0xFFFFFFFFFFFFFFFFFFFFFFFFFFFFFFFFFFFFFFFF AND CALLER PUSH20 0xFFFFFFFFFFFFFFFFFFFFFFFFFFFFFFFFFFFFFFFF AND EQ PUSH2 0x51A JUMPI CALLER PUSH32 0x0 PUSH1 0x40 MLOAD PUSH32 0x1CF993F400000000000000000000000000000000000000000000000000000000 DUP2 MSTORE PUSH1 0x4 ADD PUSH2 0x511 SWAP3 SWAP2 SWAP1 PUSH2 0x1EE1 JUMP JUMPDEST PUSH1 0x40 MLOAD DUP1 SWAP2 SUB SWAP1 REVERT JUMPDEST PUSH2 0x524 DUP3 DUP3 PUSH2 0x10DE JUMP JUMPDEST POP POP JUMP JUMPDEST PUSH1 0x6F SLOAD DUP2 JUMP JUMPDEST PUSH1 0x68 DUP2 DUP2 SLOAD DUP2 LT PUSH2 0x53E JUMPI PUSH1 0x0 DUP1 REVERT JUMPDEST SWAP1 PUSH1 0x0 MSTORE PUSH1 0x20 PUSH1 0x0 KECCAK256 ADD PUSH1 0x0 SWAP2 POP SLOAD SWAP1 PUSH2 0x100 EXP SWAP1 DIV PUSH20 0xFFFFFFFFFFFFFFFFFFFFFFFFFFFFFFFFFFFFFFFF AND DUP2 JUMP JUMPDEST PUSH1 0x6E SLOAD DUP2 JUMP JUMPDEST PUSH1 0x71 PUSH1 0x20 MSTORE DUP1 PUSH1 0x0 MSTORE PUSH1 0x40 PUSH1 0x0 KECCAK256 PUSH1 0x0 SWAP2 POP SWAP1 POP DUP1 PUSH1 0x0 ADD SLOAD SWAP1 DUP1 PUSH1 0x1 ADD SLOAD SWAP1 DUP1 PUSH1 0x2 ADD SLOAD SWAP1 DUP1 PUSH1 0x3 ADD SLOAD SWAP1 DUP1 PUSH1 0x4 ADD SLOAD SWAP1 DUP1 PUSH1 0x5 ADD PUSH1 0x0 SWAP1 SLOAD SWAP1 PUSH2 0x100 EXP SWAP1 DIV PUSH20 0xFFFFFFFFFFFFFFFFFFFFFFFFFFFFFFFFFFFFFFFF AND SWAP1 DUP1 PUSH1 0x6 ADD SLOAD SWAP1 POP DUP8 JUMP JUMPDEST PUSH1 0x69 SLOAD DUP2 JUMP JUMPDEST PUSH1 0x1 PUSH1 0x3 DUP2 GT ISZERO PUSH2 0x5EF JUMPI PUSH2 0x5EE PUSH2 0x19E3 JUMP JUMPDEST JUMPDEST PUSH1 0x70 PUSH1 0x1 SWAP1 SLOAD SWAP1 PUSH2 0x100 EXP SWAP1 DIV PUSH1 0xFF AND PUSH1 0x3 DUP2 GT ISZERO PUSH2 0x611 JUMPI PUSH2 0x610 PUSH2 0x19E3 JUMP JUMPDEST JUMPDEST EQ PUSH2 0x651 JUMPI PUSH1 0x40 MLOAD PUSH32 0x8C379A000000000000000000000000000000000000000000000000000000000 DUP2 MSTORE PUSH1 0x4 ADD PUSH2 0x648 SWAP1 PUSH2 0x1F8D JUMP JUMPDEST PUSH1 0x40 MLOAD DUP1 SWAP2 SUB SWAP1 REVERT JUMPDEST PUSH1 0x6F SLOAD PUSH1 0x6B SLOAD PUSH2 0x661 SWAP2 SWAP1 PUSH2 0x1FDC JUMP JUMPDEST TIMESTAMP LT ISZERO PUSH2 0x6A3 JUMPI PUSH1 0x40 MLOAD PUSH32 0x8C379A000000000000000000000000000000000000000000000000000000000 DUP2 MSTORE PUSH1 0x4 ADD PUSH2 0x69A SWAP1 PUSH2 0x207E JUMP JUMPDEST PUSH1 0x40 MLOAD DUP1 SWAP2 SUB SWAP1 REVERT JUMPDEST PUSH1 0x0 PUSH1 0x6E SLOAD EQ PUSH2 0x6E8 JUMPI PUSH1 0x40 MLOAD PUSH32 0x8C379A000000000000000000000000000000000000000000000000000000000 DUP2 MSTORE PUSH1 0x4 ADD PUSH2 0x6DF SWAP1 PUSH2 0x20EA JUMP JUMPDEST PUSH1 0x40 MLOAD DUP1 SWAP2 SUB SWAP1 REVERT JUMPDEST PUSH2 0x6F0 PUSH2 0x1213 JUMP JUMPDEST PUSH20 0xFFFFFFFFFFFFFFFFFFFFFFFFFFFFFFFFFFFFFFFF AND PUSH2 0x70E PUSH2 0xAA2 JUMP JUMPDEST PUSH20 0xFFFFFFFFFFFFFFFFFFFFFFFFFFFFFFFFFFFFFFFF AND EQ PUSH2 0x764 JUMPI PUSH1 0x40 MLOAD PUSH32 0x8C379A000000000000000000000000000000000000000000000000000000000 DUP2 MSTORE PUSH1 0x4 ADD PUSH2 0x75B SWAP1 PUSH2 0x2156 JUMP JUMPDEST PUSH1 0x40 MLOAD DUP1 SWAP2 SUB SWAP1 REVERT JUMPDEST PUSH2 0x76C PUSH2 0x121B JUMP JUMPDEST PUSH1 0x2 PUSH1 0x70 PUSH1 0x1 PUSH2 0x100 EXP DUP2 SLOAD DUP2 PUSH1 0xFF MUL NOT AND SWAP1 DUP4 PUSH1 0x3 DUP2 GT ISZERO PUSH2 0x792 JUMPI PUSH2 0x791 PUSH2 0x19E3 JUMP JUMPDEST JUMPDEST MUL OR SWAP1 SSTORE POP TIMESTAMP PUSH1 0x6C DUP2 SWAP1 SSTORE POP PUSH32 0xC3D0C9FBC1987665462EEC0262EB7FC743A27D411FD3A0B9C20C1C64D99347D3 PUSH1 0x66 SLOAD PUSH1 0x40 MLOAD PUSH2 0x7CF SWAP2 SWAP1 PUSH2 0x1C83 JUMP JUMPDEST PUSH1 0x40 MLOAD DUP1 SWAP2 SUB SWAP1 LOG1 PUSH32 0x9EDCBCB9D92149759CF24C59C34FD339E97107442F9C009FA07EC27C726C3AF6 PUSH1 0x67 SLOAD PUSH1 0x40 MLOAD PUSH2 0x808 SWAP2 SWAP1 PUSH2 0x1C83 JUMP JUMPDEST PUSH1 0x40 MLOAD DUP1 SWAP2 SUB SWAP1 LOG1 JUMP JUMPDEST PUSH2 0x81A PUSH2 0x1213 JUMP JUMPDEST PUSH20 0xFFFFFFFFFFFFFFFFFFFFFFFFFFFFFFFFFFFFFFFF AND PUSH2 0x838 PUSH2 0xAA2 JUMP JUMPDEST PUSH20 0xFFFFFFFFFFFFFFFFFFFFFFFFFFFFFFFFFFFFFFFF AND EQ PUSH2 0x88E JUMPI PUSH1 0x40 MLOAD PUSH32 0x8C379A000000000000000000000000000000000000000000000000000000000 DUP2 MSTORE PUSH1 0x4 ADD PUSH2 0x885 SWAP1 PUSH2 0x2156 JUMP JUMPDEST PUSH1 0x40 MLOAD DUP1 SWAP2 SUB SWAP1 REVERT JUMPDEST PUSH2 0x898 PUSH1 0x0 PUSH2 0x1360 JUMP JUMPDEST JUMP JUMPDEST PUSH1 0x6A SLOAD DUP2 JUMP JUMPDEST PUSH1 0x0 PUSH2 0x8AC PUSH1 0x1 PUSH2 0x1426 JUMP JUMPDEST SWAP1 POP DUP1 ISZERO PUSH2 0x8D0 JUMPI PUSH1 0x1 PUSH1 0x0 PUSH1 0x1 PUSH2 0x100 EXP DUP2 SLOAD DUP2 PUSH1 0xFF MUL NOT AND SWAP1 DUP4 ISZERO ISZERO MUL OR SWAP1 SSTORE POP JUMPDEST PUSH2 0x8D8 PUSH2 0x1516 JUMP JUMPDEST DUP1 ISZERO PUSH2 0x931 JUMPI PUSH1 0x0 DUP1 PUSH1 0x1 PUSH2 0x100 EXP DUP2 SLOAD DUP2 PUSH1 0xFF MUL NOT AND SWAP1 DUP4 ISZERO ISZERO MUL OR SWAP1 SSTORE POP PUSH32 0x7F26B83FF96E1F2B6A682F133852F6798A09C465DA95921460CEFB3847402498 PUSH1 0x1 PUSH1 0x40 MLOAD PUSH2 0x928 SWAP2 SWAP1 PUSH2 0x21BB JUMP JUMPDEST PUSH1 0x40 MLOAD DUP1 SWAP2 SUB SWAP1 LOG1 JUMPDEST POP JUMP JUMPDEST PUSH1 0x0 PUSH1 0x3 DUP2 GT ISZERO PUSH2 0x948 JUMPI PUSH2 0x947 PUSH2 0x19E3 JUMP JUMPDEST JUMPDEST PUSH1 0x70 PUSH1 0x1 SWAP1 SLOAD SWAP1 PUSH2 0x100 EXP SWAP1 DIV PUSH1 0xFF AND PUSH1 0x3 DUP2 GT ISZERO PUSH2 0x96A JUMPI PUSH2 0x969 PUSH2 0x19E3 JUMP JUMPDEST JUMPDEST EQ PUSH2 0x974 JUMPI PUSH1 0x0 DUP1 REVERT JUMPDEST PUSH2 0x97C PUSH2 0x1213 JUMP JUMPDEST PUSH20 0xFFFFFFFFFFFFFFFFFFFFFFFFFFFFFFFFFFFFFFFF AND PUSH2 0x99A PUSH2 0xAA2 JUMP JUMPDEST PUSH20 0xFFFFFFFFFFFFFFFFFFFFFFFFFFFFFFFFFFFFFFFF AND EQ PUSH2 0x9F0 JUMPI PUSH1 0x40 MLOAD PUSH32 0x8C379A000000000000000000000000000000000000000000000000000000000 DUP2 MSTORE PUSH1 0x4 ADD PUSH2 0x9E7 SWAP1 PUSH2 0x2156 JUMP JUMPDEST PUSH1 0x40 MLOAD DUP1 SWAP2 SUB SWAP1 REVERT JUMPDEST DUP3 PUSH1 0x69 DUP2 SWAP1 SSTORE POP DUP2 PUSH1 0x70 PUSH1 0x0 PUSH2 0x100 EXP DUP2 SLOAD DUP2 PUSH1 0xFF MUL NOT AND SWAP1 DUP4 PUSH1 0xFF AND MUL OR SWAP1 SSTORE POP DUP1 PUSH1 0x6F DUP2 SWAP1 SSTORE POP PUSH1 0x1 PUSH1 0x70 PUSH1 0x1 PUSH2 0x100 EXP DUP2 SLOAD DUP2 PUSH1 0xFF MUL NOT AND SWAP1 DUP4 PUSH1 0x3 DUP2 GT ISZERO PUSH2 0xA3F JUMPI PUSH2 0xA3E PUSH2 0x19E3 JUMP JUMPDEST JUMPDEST MUL OR SWAP1 SSTORE POP TIMESTAMP PUSH1 0x6B DUP2 SWAP1 SSTORE POP PUSH32 0xCE62B71AA24A7FFB1343C139B78D655D7B33BD66B2BE4E83D9F6425B02EB197A PUSH1 0x67 SLOAD PUSH1 0x40 MLOAD PUSH2 0xA7C SWAP2 SWAP1 PUSH2 0x1C83 JUMP JUMPDEST PUSH1 0x40 MLOAD DUP1 SWAP2 SUB SWAP1 LOG1 POP POP POP JUMP JUMPDEST PUSH1 0x70 PUSH1 0x0 SWAP1 SLOAD SWAP1 PUSH2 0x100 EXP SWAP1 DIV PUSH1 0xFF AND DUP2 JUMP JUMPDEST PUSH1 0x6B SLOAD DUP2 JUMP JUMPDEST PUSH1 0x0 PUSH1 0x33 PUSH1 0x0 SWAP1 SLOAD SWAP1 PUSH2 0x100 EXP SWAP1 DIV PUSH20 0xFFFFFFFFFFFFFFFFFFFFFFFFFFFFFFFFFFFFFFFF AND SWAP1 POP SWAP1 JUMP JUMPDEST PUSH1 0x67 SLOAD DUP2 JUMP JUMPDEST PUSH2 0xADA PUSH2 0x1213 JUMP JUMPDEST PUSH20 0xFFFFFFFFFFFFFFFFFFFFFFFFFFFFFFFFFFFFFFFF AND PUSH2 0xAF8 PUSH2 0xAA2 JUMP JUMPDEST PUSH20 0xFFFFFFFFFFFFFFFFFFFFFFFFFFFFFFFFFFFFFFFF AND EQ PUSH2 0xB4E JUMPI PUSH1 0x40 MLOAD PUSH32 0x8C379A000000000000000000000000000000000000000000000000000000000 DUP2 MSTORE PUSH1 0x4 ADD PUSH2 0xB45 SWAP1 PUSH2 0x2156 JUMP JUMPDEST PUSH1 0x40 MLOAD DUP1 SWAP2 SUB SWAP1 REVERT JUMPDEST PUSH1 0x0 PUSH1 0x6A SLOAD EQ PUSH2 0xB93 JUMPI PUSH1 0x40 MLOAD PUSH32 0x8C379A000000000000000000000000000000000000000000000000000000000 DUP2 MSTORE PUSH1 0x4 ADD PUSH2 0xB8A SWAP1 PUSH2 0x2222 JUMP JUMPDEST PUSH1 0x40 MLOAD DUP1 SWAP2 SUB SWAP1 REVERT JUMPDEST CALLER PUSH20 0xFFFFFFFFFFFFFFFFFFFFFFFFFFFFFFFFFFFFFFFF AND PUSH2 0x8FC SELFBALANCE SWAP1 DUP2 ISZERO MUL SWAP1 PUSH1 0x40 MLOAD PUSH1 0x0 PUSH1 0x40 MLOAD DUP1 DUP4 SUB DUP2 DUP6 DUP9 DUP9 CALL SWAP4 POP POP POP POP ISZERO DUP1 ISZERO PUSH2 0xBD9 JUMPI RETURNDATASIZE PUSH1 0x0 DUP1 RETURNDATACOPY RETURNDATASIZE PUSH1 0x0 REVERT JUMPDEST POP JUMP JUMPDEST PUSH1 0x3 DUP1 DUP2 GT ISZERO PUSH2 0xBEF JUMPI PUSH2 0xBEE PUSH2 0x19E3 JUMP JUMPDEST JUMPDEST PUSH1 0x70 PUSH1 0x1 SWAP1 SLOAD SWAP1 PUSH2 0x100 EXP SWAP1 DIV PUSH1 0xFF AND PUSH1 0x3 DUP2 GT ISZERO PUSH2 0xC11 JUMPI PUSH2 0xC10 PUSH2 0x19E3 JUMP JUMPDEST JUMPDEST EQ PUSH2 0xC51 JUMPI PUSH1 0x40 MLOAD PUSH32 0x8C379A000000000000000000000000000000000000000000000000000000000 DUP2 MSTORE PUSH1 0x4 ADD PUSH2 0xC48 SWAP1 PUSH2 0x22B4 JUMP JUMPDEST PUSH1 0x40 MLOAD DUP1 SWAP2 SUB SWAP1 REVERT JUMPDEST PUSH1 0x0 PUSH20 0xFFFFFFFFFFFFFFFFFFFFFFFFFFFFFFFFFFFFFFFF AND PUSH1 0x6D PUSH1 0x0 SWAP1 SLOAD SWAP1 PUSH2 0x100 EXP SWAP1 DIV PUSH20 0xFFFFFFFFFFFFFFFFFFFFFFFFFFFFFFFFFFFFFFFF AND PUSH20 0xFFFFFFFFFFFFFFFFFFFFFFFFFFFFFFFFFFFFFFFF AND SUB PUSH2 0xCE2 JUMPI PUSH1 0x40 MLOAD PUSH32 0x8C379A000000000000000000000000000000000000000000000000000000000 DUP2 MSTORE PUSH1 0x4 ADD PUSH2 0xCD9 SWAP1 PUSH2 0x2346 JUMP JUMPDEST PUSH1 0x40 MLOAD DUP1 SWAP2 SUB SWAP1 REVERT JUMPDEST PUSH1 0x6D PUSH1 0x0 SWAP1 SLOAD SWAP1 PUSH2 0x100 EXP SWAP1 DIV PUSH20 0xFFFFFFFFFFFFFFFFFFFFFFFFFFFFFFFFFFFFFFFF AND PUSH20 0xFFFFFFFFFFFFFFFFFFFFFFFFFFFFFFFFFFFFFFFF AND CALLER PUSH20 0xFFFFFFFFFFFFFFFFFFFFFFFFFFFFFFFFFFFFFFFF AND EQ DUP1 PUSH2 0xD70 JUMPI POP PUSH2 0xD41 PUSH2 0xAA2 JUMP JUMPDEST PUSH20 0xFFFFFFFFFFFFFFFFFFFFFFFFFFFFFFFFFFFFFFFF AND CALLER PUSH20 0xFFFFFFFFFFFFFFFFFFFFFFFFFFFFFFFFFFFFFFFF AND EQ JUMPDEST PUSH2 0xDAF JUMPI PUSH1 0x40 MLOAD PUSH32 0x8C379A000000000000000000000000000000000000000000000000000000000 DUP2 MSTORE PUSH1 0x4 ADD PUSH2 0xDA6 SWAP1 PUSH2 0x23B2 JUMP JUMPDEST PUSH1 0x40 MLOAD DUP1 SWAP2 SUB SWAP1 REVERT JUMPDEST PUSH2 0xDB7 PUSH2 0x156F JUMP JUMPDEST PUSH1 0x0 PUSH1 0x64 PUSH1 0x70 PUSH1 0x0 SWAP1 SLOAD SWAP1 PUSH2 0x100 EXP SWAP1 DIV PUSH1 0xFF AND PUSH2 0xDD5 SWAP2 SWAP1 PUSH2 0x2401 JUMP JUMPDEST PUSH1 0xFF AND PUSH1 0x6A SLOAD PUSH2 0xDE5 SWAP2 SWAP1 PUSH2 0x2432 JUMP JUMPDEST SWAP1 POP PUSH2 0xDF0 DUP2 PUSH2 0x1697 JUMP JUMPDEST PUSH2 0xDF8 PUSH2 0x176C JUMP JUMPDEST PUSH32 0x1C1F258CBFDAE81BEABE79C7A44FF65A9C9F4C17CB035F72B14D998C76345DEB PUSH1 0x67 SLOAD PUSH1 0x40 MLOAD PUSH2 0xE29 SWAP2 SWAP1 PUSH2 0x1C83 JUMP JUMPDEST PUSH1 0x40 MLOAD DUP1 SWAP2 SUB SWAP1 LOG1 POP JUMP JUMPDEST PUSH1 0x6D PUSH1 0x0 SWAP1 SLOAD SWAP1 PUSH2 0x100 EXP SWAP1 DIV PUSH20 0xFFFFFFFFFFFFFFFFFFFFFFFFFFFFFFFFFFFFFFFF AND DUP2 JUMP JUMPDEST PUSH1 0x1 PUSH1 0x3 DUP2 GT ISZERO PUSH2 0xE6E JUMPI PUSH2 0xE6D PUSH2 0x19E3 JUMP JUMPDEST JUMPDEST PUSH1 0x70 PUSH1 0x1 SWAP1 SLOAD SWAP1 PUSH2 0x100 EXP SWAP1 DIV PUSH1 0xFF AND PUSH1 0x3 DUP2 GT ISZERO PUSH2 0xE90 JUMPI PUSH2 0xE8F PUSH2 0x19E3 JUMP JUMPDEST JUMPDEST EQ PUSH2 0xED0 JUMPI PUSH1 0x40 MLOAD PUSH32 0x8C379A000000000000000000000000000000000000000000000000000000000 DUP2 MSTORE PUSH1 0x4 ADD PUSH2 0xEC7 SWAP1 PUSH2 0x24D8 JUMP JUMPDEST PUSH1 0x40 MLOAD DUP1 SWAP2 SUB SWAP1 REVERT JUMPDEST PUSH1 0x6F SLOAD PUSH1 0x6B SLOAD PUSH2 0xEE0 SWAP2 SWAP1 PUSH2 0x1FDC JUMP JUMPDEST TIMESTAMP GT ISZERO PUSH2 0xF22 JUMPI PUSH1 0x40 MLOAD PUSH32 0x8C379A000000000000000000000000000000000000000000000000000000000 DUP2 MSTORE PUSH1 0x4 ADD PUSH2 0xF19 SWAP1 PUSH2 0x2544 JUMP JUMPDEST PUSH1 0x40 MLOAD DUP1 SWAP2 SUB SWAP1 REVERT JUMPDEST PUSH1 0x69 SLOAD CALLVALUE LT ISZERO PUSH2 0xF67 JUMPI PUSH1 0x40 MLOAD PUSH32 0x8C379A000000000000000000000000000000000000000000000000000000000 DUP2 MSTORE PUSH1 0x4 ADD PUSH2 0xF5E SWAP1 PUSH2 0x25B0 JUMP JUMPDEST PUSH1 0x40 MLOAD DUP1 SWAP2 SUB SWAP1 REVERT JUMPDEST PUSH1 0x69 SLOAD PUSH1 0x6A PUSH1 0x0 DUP3 DUP3 SLOAD PUSH2 0xF7B SWAP2 SWAP1 PUSH2 0x1FDC JUMP JUMPDEST SWAP3 POP POP DUP2 SWAP1 SSTORE POP PUSH1 0x68 CALLER SWAP1 DUP1 PUSH1 0x1 DUP2 SLOAD ADD DUP1 DUP3 SSTORE DUP1 SWAP2 POP POP PUSH1 0x1 SWAP1 SUB SWAP1 PUSH1 0x0 MSTORE PUSH1 0x20 PUSH1 0x0 KECCAK256 ADD PUSH1 0x0 SWAP1 SWAP2 SWAP1 SWAP2 SWAP1 SWAP2 PUSH2 0x100 EXP DUP2 SLOAD DUP2 PUSH20 0xFFFFFFFFFFFFFFFFFFFFFFFFFFFFFFFFFFFFFFFF MUL NOT AND SWAP1 DUP4 PUSH20 0xFFFFFFFFFFFFFFFFFFFFFFFFFFFFFFFFFFFFFFFF AND MUL OR SWAP1 SSTORE POP JUMP JUMPDEST PUSH2 0xFEF PUSH2 0x1213 JUMP JUMPDEST PUSH20 0xFFFFFFFFFFFFFFFFFFFFFFFFFFFFFFFFFFFFFFFF AND PUSH2 0x100D PUSH2 0xAA2 JUMP JUMPDEST PUSH20 0xFFFFFFFFFFFFFFFFFFFFFFFFFFFFFFFFFFFFFFFF AND EQ PUSH2 0x1063 JUMPI PUSH1 0x40 MLOAD PUSH32 0x8C379A000000000000000000000000000000000000000000000000000000000 DUP2 MSTORE PUSH1 0x4 ADD PUSH2 0x105A SWAP1 PUSH2 0x2156 JUMP JUMPDEST PUSH1 0x40 MLOAD DUP1 SWAP2 SUB SWAP1 REVERT JUMPDEST PUSH1 0x0 PUSH20 0xFFFFFFFFFFFFFFFFFFFFFFFFFFFFFFFFFFFFFFFF AND DUP2 PUSH20 0xFFFFFFFFFFFFFFFFFFFFFFFFFFFFFFFFFFFFFFFF AND SUB PUSH2 0x10D2 JUMPI PUSH1 0x40 MLOAD PUSH32 0x8C379A000000000000000000000000000000000000000000000000000000000 DUP2 MSTORE PUSH1 0x4 ADD PUSH2 0x10C9 SWAP1 PUSH2 0x2642 JUMP JUMPDEST PUSH1 0x40 MLOAD DUP1 SWAP2 SUB SWAP1 REVERT JUMPDEST PUSH2 0x10DB DUP2 PUSH2 0x1360 JUMP JUMPDEST POP JUMP JUMPDEST DUP1 PUSH1 0x65 SWAP1 DUP1 MLOAD SWAP1 PUSH1 0x20 ADD SWAP1 PUSH2 0x10F4 SWAP3 SWAP2 SWAP1 PUSH2 0x18EF JUMP JUMPDEST POP PUSH1 0x65 PUSH1 0x0 DUP2 SLOAD DUP2 LT PUSH2 0x110A JUMPI PUSH2 0x1109 PUSH2 0x2662 JUMP JUMPDEST JUMPDEST SWAP1 PUSH1 0x0 MSTORE PUSH1 0x20 PUSH1 0x0 KECCAK256 ADD SLOAD PUSH1 0x6E DUP2 SWAP1 SSTORE POP PUSH1 0x68 DUP1 DUP1 SLOAD SWAP1 POP PUSH1 0x6E SLOAD PUSH2 0x112F SWAP2 SWAP1 PUSH2 0x2691 JUMP JUMPDEST DUP2 SLOAD DUP2 LT PUSH2 0x1140 JUMPI PUSH2 0x113F PUSH2 0x2662 JUMP JUMPDEST JUMPDEST SWAP1 PUSH1 0x0 MSTORE PUSH1 0x20 PUSH1 0x0 KECCAK256 ADD PUSH1 0x0 SWAP1 SLOAD SWAP1 PUSH2 0x100 EXP SWAP1 DIV PUSH20 0xFFFFFFFFFFFFFFFFFFFFFFFFFFFFFFFFFFFFFFFF AND PUSH1 0x6D PUSH1 0x0 PUSH2 0x100 EXP DUP2 SLOAD DUP2 PUSH20 0xFFFFFFFFFFFFFFFFFFFFFFFFFFFFFFFFFFFFFFFF MUL NOT AND SWAP1 DUP4 PUSH20 0xFFFFFFFFFFFFFFFFFFFFFFFFFFFFFFFFFFFFFFFF AND MUL OR SWAP1 SSTORE POP PUSH1 0x3 PUSH1 0x70 PUSH1 0x1 PUSH2 0x100 EXP DUP2 SLOAD DUP2 PUSH1 0xFF MUL NOT AND SWAP1 DUP4 PUSH1 0x3 DUP2 GT ISZERO PUSH2 0x11D1 JUMPI PUSH2 0x11D0 PUSH2 0x19E3 JUMP JUMPDEST JUMPDEST MUL OR SWAP1 SSTORE POP PUSH32 0xEC5FBB90AD904E090F21495AA3914CA1B34C5B7EA3C8C6FB7F0ECB7CF2A9F543 PUSH1 0x67 SLOAD PUSH1 0x40 MLOAD PUSH2 0x1207 SWAP2 SWAP1 PUSH2 0x1C83 JUMP JUMPDEST PUSH1 0x40 MLOAD DUP1 SWAP2 SUB SWAP1 LOG1 POP POP JUMP JUMPDEST PUSH1 0x0 CALLER SWAP1 POP SWAP1 JUMP JUMPDEST PUSH2 0x1223 PUSH2 0x1213 JUMP JUMPDEST PUSH20 0xFFFFFFFFFFFFFFFFFFFFFFFFFFFFFFFFFFFFFFFF AND PUSH2 0x1241 PUSH2 0xAA2 JUMP JUMPDEST PUSH20 0xFFFFFFFFFFFFFFFFFFFFFFFFFFFFFFFFFFFFFFFF AND EQ PUSH2 0x1297 JUMPI PUSH1 0x40 MLOAD PUSH32 0x8C379A000000000000000000000000000000000000000000000000000000000 DUP2 MSTORE PUSH1 0x4 ADD PUSH2 0x128E SWAP1 PUSH2 0x2156 JUMP JUMPDEST PUSH1 0x40 MLOAD DUP1 SWAP2 SUB SWAP1 REVERT JUMPDEST PUSH20 0x6168499C0CFFCACD319C818142124B7A15E857AB PUSH20 0xFFFFFFFFFFFFFFFFFFFFFFFFFFFFFFFFFFFFFFFF AND PUSH4 0x5D3B1D30 PUSH32 0xD89B2BF150E3B9E13446986E571FB9CAB24B13CEA0A43EA20A6049A85CC807CC PUSH1 0x0 SHL PUSH1 0xF7 PUSH1 0x3 PUSH3 0xF4240 PUSH1 0x1 PUSH1 0x40 MLOAD DUP7 PUSH4 0xFFFFFFFF AND PUSH1 0xE0 SHL DUP2 MSTORE PUSH1 0x4 ADD PUSH2 0x1315 SWAP6 SWAP5 SWAP4 SWAP3 SWAP2 SWAP1 PUSH2 0x273A JUMP JUMPDEST PUSH1 0x20 PUSH1 0x40 MLOAD DUP1 DUP4 SUB DUP2 PUSH1 0x0 DUP8 GAS CALL ISZERO DUP1 ISZERO PUSH2 0x1334 JUMPI RETURNDATASIZE PUSH1 0x0 DUP1 RETURNDATACOPY RETURNDATASIZE PUSH1 0x0 REVERT JUMPDEST POP POP POP POP PUSH1 0x40 MLOAD RETURNDATASIZE PUSH1 0x1F NOT PUSH1 0x1F DUP3 ADD AND DUP3 ADD DUP1 PUSH1 0x40 MSTORE POP DUP2 ADD SWAP1 PUSH2 0x1358 SWAP2 SWAP1 PUSH2 0x27A2 JUMP JUMPDEST PUSH1 0x66 DUP2 SWAP1 SSTORE POP JUMP JUMPDEST PUSH1 0x0 PUSH1 0x33 PUSH1 0x0 SWAP1 SLOAD SWAP1 PUSH2 0x100 EXP SWAP1 DIV PUSH20 0xFFFFFFFFFFFFFFFFFFFFFFFFFFFFFFFFFFFFFFFF AND SWAP1 POP DUP2 PUSH1 0x33 PUSH1 0x0 PUSH2 0x100 EXP DUP2 SLOAD DUP2 PUSH20 0xFFFFFFFFFFFFFFFFFFFFFFFFFFFFFFFFFFFFFFFF MUL NOT AND SWAP1 DUP4 PUSH20 0xFFFFFFFFFFFFFFFFFFFFFFFFFFFFFFFFFFFFFFFF AND MUL OR SWAP1 SSTORE POP DUP2 PUSH20 0xFFFFFFFFFFFFFFFFFFFFFFFFFFFFFFFFFFFFFFFF AND DUP2 PUSH20 0xFFFFFFFFFFFFFFFFFFFFFFFFFFFFFFFFFFFFFFFF AND PUSH32 0x8BE0079C531659141344CD1FD0A4F28419497F9722A3DAAFE3B4186F6B6457E0 PUSH1 0x40 MLOAD PUSH1 0x40 MLOAD DUP1 SWAP2 SUB SWAP1 LOG3 POP POP JUMP JUMPDEST PUSH1 0x0 DUP1 PUSH1 0x1 SWAP1 SLOAD SWAP1 PUSH2 0x100 EXP SWAP1 DIV PUSH1 0xFF AND ISZERO PUSH2 0x149D JUMPI PUSH1 0x1 DUP3 PUSH1 0xFF AND EQ DUP1 ISZERO PUSH2 0x1455 JUMPI POP PUSH2 0x1453 ADDRESS PUSH2 0x186B JUMP JUMPDEST ISZERO JUMPDEST PUSH2 0x1494 JUMPI PUSH1 0x40 MLOAD PUSH32 0x8C379A000000000000000000000000000000000000000000000000000000000 DUP2 MSTORE PUSH1 0x4 ADD PUSH2 0x148B SWAP1 PUSH2 0x2841 JUMP JUMPDEST PUSH1 0x40 MLOAD DUP1 SWAP2 SUB SWAP1 REVERT JUMPDEST PUSH1 0x0 SWAP1 POP PUSH2 0x1511 JUMP JUMPDEST DUP2 PUSH1 0xFF AND PUSH1 0x0 DUP1 SLOAD SWAP1 PUSH2 0x100 EXP SWAP1 DIV PUSH1 0xFF AND PUSH1 0xFF AND LT PUSH2 0x14F2 JUMPI PUSH1 0x40 MLOAD PUSH32 0x8C379A000000000000000000000000000000000000000000000000000000000 DUP2 MSTORE PUSH1 0x4 ADD PUSH2 0x14E9 SWAP1 PUSH2 0x2841 JUMP JUMPDEST PUSH1 0x40 MLOAD DUP1 SWAP2 SUB SWAP1 REVERT JUMPDEST DUP2 PUSH1 0x0 DUP1 PUSH2 0x100 EXP DUP2 SLOAD DUP2 PUSH1 0xFF MUL NOT AND SWAP1 DUP4 PUSH1 0xFF AND MUL OR SWAP1 SSTORE POP PUSH1 0x1 SWAP1 POP JUMPDEST SWAP2 SWAP1 POP JUMP JUMPDEST PUSH1 0x0 PUSH1 0x1 SWAP1 SLOAD SWAP1 PUSH2 0x100 EXP SWAP1 DIV PUSH1 0xFF AND PUSH2 0x1565 JUMPI PUSH1 0x40 MLOAD PUSH32 0x8C379A000000000000000000000000000000000000000000000000000000000 DUP2 MSTORE PUSH1 0x4 ADD PUSH2 0x155C SWAP1 PUSH2 0x28D3 JUMP JUMPDEST PUSH1 0x40 MLOAD DUP1 SWAP2 SUB SWAP1 REVERT JUMPDEST PUSH2 0x156D PUSH2 0x188E JUMP JUMPDEST JUMP JUMPDEST PUSH1 0x40 MLOAD DUP1 PUSH1 0xE0 ADD PUSH1 0x40 MSTORE DUP1 PUSH1 0x67 SLOAD DUP2 MSTORE PUSH1 0x20 ADD PUSH1 0x6A SLOAD DUP2 MSTORE PUSH1 0x20 ADD PUSH1 0x69 SLOAD DUP2 MSTORE PUSH1 0x20 ADD PUSH1 0x6B SLOAD DUP2 MSTORE PUSH1 0x20 ADD PUSH1 0x6C SLOAD DUP2 MSTORE PUSH1 0x20 ADD PUSH1 0x6D PUSH1 0x0 SWAP1 SLOAD SWAP1 PUSH2 0x100 EXP SWAP1 DIV PUSH20 0xFFFFFFFFFFFFFFFFFFFFFFFFFFFFFFFFFFFFFFFF AND PUSH20 0xFFFFFFFFFFFFFFFFFFFFFFFFFFFFFFFFFFFFFFFF AND DUP2 MSTORE PUSH1 0x20 ADD PUSH1 0x6E SLOAD DUP2 MSTORE POP PUSH1 0x71 PUSH1 0x0 PUSH1 0x67 PUSH1 0x0 DUP2 SLOAD DUP1 SWAP3 SWAP2 SWAP1 PUSH2 0x15FD SWAP1 PUSH2 0x28F3 JUMP JUMPDEST SWAP2 SWAP1 POP SSTORE DUP2 MSTORE PUSH1 0x20 ADD SWAP1 DUP2 MSTORE PUSH1 0x20 ADD PUSH1 0x0 KECCAK256 PUSH1 0x0 DUP3 ADD MLOAD DUP2 PUSH1 0x0 ADD SSTORE PUSH1 0x20 DUP3 ADD MLOAD DUP2 PUSH1 0x1 ADD SSTORE PUSH1 0x40 DUP3 ADD MLOAD DUP2 PUSH1 0x2 ADD SSTORE PUSH1 0x60 DUP3 ADD MLOAD DUP2 PUSH1 0x3 ADD SSTORE PUSH1 0x80 DUP3 ADD MLOAD DUP2 PUSH1 0x4 ADD SSTORE PUSH1 0xA0 DUP3 ADD MLOAD DUP2 PUSH1 0x5 ADD PUSH1 0x0 PUSH2 0x100 EXP DUP2 SLOAD DUP2 PUSH20 0xFFFFFFFFFFFFFFFFFFFFFFFFFFFFFFFFFFFFFFFF MUL NOT AND SWAP1 DUP4 PUSH20 0xFFFFFFFFFFFFFFFFFFFFFFFFFFFFFFFFFFFFFFFF AND MUL OR SWAP1 SSTORE POP PUSH1 0xC0 DUP3 ADD MLOAD DUP2 PUSH1 0x6 ADD SSTORE SWAP1 POP POP JUMP JUMPDEST DUP1 PUSH1 0x6A PUSH1 0x0 DUP3 DUP3 SLOAD PUSH2 0x16A9 SWAP2 SWAP1 PUSH2 0x293B JUMP JUMPDEST SWAP3 POP POP DUP2 SWAP1 SSTORE POP PUSH1 0x6D PUSH1 0x0 SWAP1 SLOAD SWAP1 PUSH2 0x100 EXP SWAP1 DIV PUSH20 0xFFFFFFFFFFFFFFFFFFFFFFFFFFFFFFFFFFFFFFFF AND PUSH20 0xFFFFFFFFFFFFFFFFFFFFFFFFFFFFFFFFFFFFFFFF AND PUSH2 0x8FC DUP3 SWAP1 DUP2 ISZERO MUL SWAP1 PUSH1 0x40 MLOAD PUSH1 0x0 PUSH1 0x40 MLOAD DUP1 DUP4 SUB DUP2 DUP6 DUP9 DUP9 CALL SWAP4 POP POP POP POP ISZERO DUP1 ISZERO PUSH2 0x1718 JUMPI RETURNDATASIZE PUSH1 0x0 DUP1 RETURNDATACOPY RETURNDATASIZE PUSH1 0x0 REVERT JUMPDEST POP PUSH2 0x1721 PUSH2 0xAA2 JUMP JUMPDEST PUSH20 0xFFFFFFFFFFFFFFFFFFFFFFFFFFFFFFFFFFFFFFFF AND PUSH2 0x8FC PUSH1 0x6A SLOAD SWAP1 DUP2 ISZERO MUL SWAP1 PUSH1 0x40 MLOAD PUSH1 0x0 PUSH1 0x40 MLOAD DUP1 DUP4 SUB DUP2 DUP6 DUP9 DUP9 CALL SWAP4 POP POP POP POP ISZERO DUP1 ISZERO PUSH2 0x1768 JUMPI RETURNDATASIZE PUSH1 0x0 DUP1 RETURNDATACOPY RETURNDATASIZE PUSH1 0x0 REVERT JUMPDEST POP POP JUMP JUMPDEST PUSH1 0x0 PUSH1 0x6C DUP2 SWAP1 SSTORE POP PUSH1 0x0 PUSH1 0x69 DUP2 SWAP1 SSTORE POP PUSH1 0x0 PUSH1 0x6F DUP2 SWAP1 SSTORE POP PUSH1 0x0 PUSH1 0x70 PUSH1 0x1 PUSH2 0x100 EXP DUP2 SLOAD DUP2 PUSH1 0xFF MUL NOT AND SWAP1 DUP4 PUSH1 0x3 DUP2 GT ISZERO PUSH2 0x17AA JUMPI PUSH2 0x17A9 PUSH2 0x19E3 JUMP JUMPDEST JUMPDEST MUL OR SWAP1 SSTORE POP PUSH1 0x0 PUSH8 0xFFFFFFFFFFFFFFFF DUP2 GT ISZERO PUSH2 0x17CA JUMPI PUSH2 0x17C9 PUSH2 0x1AD5 JUMP JUMPDEST JUMPDEST PUSH1 0x40 MLOAD SWAP1 DUP1 DUP3 MSTORE DUP1 PUSH1 0x20 MUL PUSH1 0x20 ADD DUP3 ADD PUSH1 0x40 MSTORE DUP1 ISZERO PUSH2 0x17F8 JUMPI DUP2 PUSH1 0x20 ADD PUSH1 0x20 DUP3 MUL DUP1 CALLDATASIZE DUP4 CALLDATACOPY DUP1 DUP3 ADD SWAP2 POP POP SWAP1 POP JUMPDEST POP PUSH1 0x68 SWAP1 DUP1 MLOAD SWAP1 PUSH1 0x20 ADD SWAP1 PUSH2 0x180E SWAP3 SWAP2 SWAP1 PUSH2 0x193C JUMP JUMPDEST POP PUSH1 0x0 PUSH1 0x6A DUP2 SWAP1 SSTORE POP PUSH1 0x0 PUSH1 0x6E DUP2 SWAP1 SSTORE POP PUSH1 0x0 PUSH1 0x6B DUP2 SWAP1 SSTORE POP PUSH1 0x0 PUSH1 0x6D PUSH1 0x0 PUSH2 0x100 EXP DUP2 SLOAD DUP2 PUSH20 0xFFFFFFFFFFFFFFFFFFFFFFFFFFFFFFFFFFFFFFFF MUL NOT AND SWAP1 DUP4 PUSH20 0xFFFFFFFFFFFFFFFFFFFFFFFFFFFFFFFFFFFFFFFF AND MUL OR SWAP1 SSTORE POP JUMP JUMPDEST PUSH1 0x0 DUP1 DUP3 PUSH20 0xFFFFFFFFFFFFFFFFFFFFFFFFFFFFFFFFFFFFFFFF AND EXTCODESIZE GT SWAP1 POP SWAP2 SWAP1 POP JUMP JUMPDEST PUSH1 0x0 PUSH1 0x1 SWAP1 SLOAD SWAP1 PUSH2 0x100 EXP SWAP1 DIV PUSH1 0xFF AND PUSH2 0x18DD JUMPI PUSH1 0x40 MLOAD PUSH32 0x8C379A000000000000000000000000000000000000000000000000000000000 DUP2 MSTORE PUSH1 0x4 ADD PUSH2 0x18D4 SWAP1 PUSH2 0x28D3 JUMP JUMPDEST PUSH1 0x40 MLOAD DUP1 SWAP2 SUB SWAP1 REVERT JUMPDEST PUSH2 0x18ED PUSH2 0x18E8 PUSH2 0x1213 JUMP JUMPDEST PUSH2 0x1360 JUMP JUMPDEST JUMP JUMPDEST DUP3 DUP1 SLOAD DUP3 DUP3 SSTORE SWAP1 PUSH1 0x0 MSTORE PUSH1 0x20 PUSH1 0x0 KECCAK256 SWAP1 DUP2 ADD SWAP3 DUP3 ISZERO PUSH2 0x192B JUMPI SWAP2 PUSH1 0x20 MUL DUP3 ADD JUMPDEST DUP3 DUP2 GT ISZERO PUSH2 0x192A JUMPI DUP3 MLOAD DUP3 SSTORE SWAP2 PUSH1 0x20 ADD SWAP2 SWAP1 PUSH1 0x1 ADD SWAP1 PUSH2 0x190F JUMP JUMPDEST JUMPDEST POP SWAP1 POP PUSH2 0x1938 SWAP2 SWAP1 PUSH2 0x19C6 JUMP JUMPDEST POP SWAP1 JUMP JUMPDEST DUP3 DUP1 SLOAD DUP3 DUP3 SSTORE SWAP1 PUSH1 0x0 MSTORE PUSH1 0x20 PUSH1 0x0 KECCAK256 SWAP1 DUP2 ADD SWAP3 DUP3 ISZERO PUSH2 0x19B5 JUMPI SWAP2 PUSH1 0x20 MUL DUP3 ADD JUMPDEST DUP3 DUP2 GT ISZERO PUSH2 0x19B4 JUMPI DUP3 MLOAD DUP3 PUSH1 0x0 PUSH2 0x100 EXP DUP2 SLOAD DUP2 PUSH20 0xFFFFFFFFFFFFFFFFFFFFFFFFFFFFFFFFFFFFFFFF MUL NOT AND SWAP1 DUP4 PUSH20 0xFFFFFFFFFFFFFFFFFFFFFFFFFFFFFFFFFFFFFFFF AND MUL OR SWAP1 SSTORE POP SWAP2 PUSH1 0x20 ADD SWAP2 SWAP1 PUSH1 0x1 ADD SWAP1 PUSH2 0x195C JUMP JUMPDEST JUMPDEST POP SWAP1 POP PUSH2 0x19C2 SWAP2 SWAP1 PUSH2 0x19C6 JUMP JUMPDEST POP SWAP1 JUMP JUMPDEST JUMPDEST DUP1 DUP3 GT ISZERO PUSH2 0x19DF JUMPI PUSH1 0x0 DUP2 PUSH1 0x0 SWAP1 SSTORE POP PUSH1 0x1 ADD PUSH2 0x19C7 JUMP JUMPDEST POP SWAP1 JUMP JUMPDEST PUSH32 0x4E487B7100000000000000000000000000000000000000000000000000000000 PUSH1 0x0 MSTORE PUSH1 0x21 PUSH1 0x4 MSTORE PUSH1 0x24 PUSH1 0x0 REVERT JUMPDEST PUSH1 0x4 DUP2 LT PUSH2 0x1A23 JUMPI PUSH2 0x1A22 PUSH2 0x19E3 JUMP JUMPDEST JUMPDEST POP JUMP JUMPDEST PUSH1 0x0 DUP2 SWAP1 POP PUSH2 0x1A34 DUP3 PUSH2 0x1A12 JUMP JUMPDEST SWAP2 SWAP1 POP JUMP JUMPDEST PUSH1 0x0 PUSH2 0x1A44 DUP3 PUSH2 0x1A26 JUMP JUMPDEST SWAP1 POP SWAP2 SWAP1 POP JUMP JUMPDEST PUSH2 0x1A54 DUP2 PUSH2 0x1A39 JUMP JUMPDEST DUP3 MSTORE POP POP JUMP JUMPDEST PUSH1 0x0 PUSH1 0x20 DUP3 ADD SWAP1 POP PUSH2 0x1A6F PUSH1 0x0 DUP4 ADD DUP5 PUSH2 0x1A4B JUMP JUMPDEST SWAP3 SWAP2 POP POP JUMP JUMPDEST PUSH1 0x0 PUSH1 0x40 MLOAD SWAP1 POP SWAP1 JUMP JUMPDEST PUSH1 0x0 DUP1 REVERT JUMPDEST PUSH1 0x0 DUP1 REVERT JUMPDEST PUSH1 0x0 DUP2 SWAP1 POP SWAP2 SWAP1 POP JUMP JUMPDEST PUSH2 0x1A9C DUP2 PUSH2 0x1A89 JUMP JUMPDEST DUP2 EQ PUSH2 0x1AA7 JUMPI PUSH1 0x0 DUP1 REVERT JUMPDEST POP JUMP JUMPDEST PUSH1 0x0 DUP2 CALLDATALOAD SWAP1 POP PUSH2 0x1AB9 DUP2 PUSH2 0x1A93 JUMP JUMPDEST SWAP3 SWAP2 POP POP JUMP JUMPDEST PUSH1 0x0 DUP1 REVERT JUMPDEST PUSH1 0x0 PUSH1 0x1F NOT PUSH1 0x1F DUP4 ADD AND SWAP1 POP SWAP2 SWAP1 POP JUMP JUMPDEST PUSH32 0x4E487B7100000000000000000000000000000000000000000000000000000000 PUSH1 0x0 MSTORE PUSH1 0x41 PUSH1 0x4 MSTORE PUSH1 0x24 PUSH1 0x0 REVERT JUMPDEST PUSH2 0x1B0D DUP3 PUSH2 0x1AC4 JUMP JUMPDEST DUP2 ADD DUP2 DUP2 LT PUSH8 0xFFFFFFFFFFFFFFFF DUP3 GT OR ISZERO PUSH2 0x1B2C JUMPI PUSH2 0x1B2B PUSH2 0x1AD5 JUMP JUMPDEST JUMPDEST DUP1 PUSH1 0x40 MSTORE POP POP POP JUMP JUMPDEST PUSH1 0x0 PUSH2 0x1B3F PUSH2 0x1A75 JUMP JUMPDEST SWAP1 POP PUSH2 0x1B4B DUP3 DUP3 PUSH2 0x1B04 JUMP JUMPDEST SWAP2 SWAP1 POP JUMP JUMPDEST PUSH1 0x0 PUSH8 0xFFFFFFFFFFFFFFFF DUP3 GT ISZERO PUSH2 0x1B6B JUMPI PUSH2 0x1B6A PUSH2 0x1AD5 JUMP JUMPDEST JUMPDEST PUSH1 0x20 DUP3 MUL SWAP1 POP PUSH1 0x20 DUP2 ADD SWAP1 POP SWAP2 SWAP1 POP JUMP JUMPDEST PUSH1 0x0 DUP1 REVERT JUMPDEST PUSH1 0x0 PUSH2 0x1B94 PUSH2 0x1B8F DUP5 PUSH2 0x1B50 JUMP JUMPDEST PUSH2 0x1B35 JUMP JUMPDEST SWAP1 POP DUP1 DUP4 DUP3 MSTORE PUSH1 0x20 DUP3 ADD SWAP1 POP PUSH1 0x20 DUP5 MUL DUP4 ADD DUP6 DUP2 GT ISZERO PUSH2 0x1BB7 JUMPI PUSH2 0x1BB6 PUSH2 0x1B7C JUMP JUMPDEST JUMPDEST DUP4 JUMPDEST DUP2 DUP2 LT ISZERO PUSH2 0x1BE0 JUMPI DUP1 PUSH2 0x1BCC DUP9 DUP3 PUSH2 0x1AAA JUMP JUMPDEST DUP5 MSTORE PUSH1 0x20 DUP5 ADD SWAP4 POP POP PUSH1 0x20 DUP2 ADD SWAP1 POP PUSH2 0x1BB9 JUMP JUMPDEST POP POP POP SWAP4 SWAP3 POP POP POP JUMP JUMPDEST PUSH1 0x0 DUP3 PUSH1 0x1F DUP4 ADD SLT PUSH2 0x1BFF JUMPI PUSH2 0x1BFE PUSH2 0x1ABF JUMP JUMPDEST JUMPDEST DUP2 CALLDATALOAD PUSH2 0x1C0F DUP5 DUP3 PUSH1 0x20 DUP7 ADD PUSH2 0x1B81 JUMP JUMPDEST SWAP2 POP POP SWAP3 SWAP2 POP POP JUMP JUMPDEST PUSH1 0x0 DUP1 PUSH1 0x40 DUP4 DUP6 SUB SLT ISZERO PUSH2 0x1C2F JUMPI PUSH2 0x1C2E PUSH2 0x1A7F JUMP JUMPDEST JUMPDEST PUSH1 0x0 PUSH2 0x1C3D DUP6 DUP3 DUP7 ADD PUSH2 0x1AAA JUMP JUMPDEST SWAP3 POP POP PUSH1 0x20 DUP4 ADD CALLDATALOAD PUSH8 0xFFFFFFFFFFFFFFFF DUP2 GT ISZERO PUSH2 0x1C5E JUMPI PUSH2 0x1C5D PUSH2 0x1A84 JUMP JUMPDEST JUMPDEST PUSH2 0x1C6A DUP6 DUP3 DUP7 ADD PUSH2 0x1BEA JUMP JUMPDEST SWAP2 POP POP SWAP3 POP SWAP3 SWAP1 POP JUMP JUMPDEST PUSH2 0x1C7D DUP2 PUSH2 0x1A89 JUMP JUMPDEST DUP3 MSTORE POP POP JUMP JUMPDEST PUSH1 0x0 PUSH1 0x20 DUP3 ADD SWAP1 POP PUSH2 0x1C98 PUSH1 0x0 DUP4 ADD DUP5 PUSH2 0x1C74 JUMP JUMPDEST SWAP3 SWAP2 POP POP JUMP JUMPDEST PUSH1 0x0 PUSH1 0x20 DUP3 DUP5 SUB SLT ISZERO PUSH2 0x1CB4 JUMPI PUSH2 0x1CB3 PUSH2 0x1A7F JUMP JUMPDEST JUMPDEST PUSH1 0x0 PUSH2 0x1CC2 DUP5 DUP3 DUP6 ADD PUSH2 0x1AAA JUMP JUMPDEST SWAP2 POP POP SWAP3 SWAP2 POP POP JUMP JUMPDEST PUSH1 0x0 PUSH20 0xFFFFFFFFFFFFFFFFFFFFFFFFFFFFFFFFFFFFFFFF DUP3 AND SWAP1 POP SWAP2 SWAP1 POP JUMP JUMPDEST PUSH1 0x0 PUSH2 0x1CF6 DUP3 PUSH2 0x1CCB JUMP JUMPDEST SWAP1 POP SWAP2 SWAP1 POP JUMP JUMPDEST PUSH2 0x1D06 DUP2 PUSH2 0x1CEB JUMP JUMPDEST DUP3 MSTORE POP POP JUMP JUMPDEST PUSH1 0x0 PUSH1 0x20 DUP3 ADD SWAP1 POP PUSH2 0x1D21 PUSH1 0x0 DUP4 ADD DUP5 PUSH2 0x1CFD JUMP JUMPDEST SWAP3 SWAP2 POP POP JUMP JUMPDEST PUSH1 0x0 PUSH2 0x1D32 DUP3 PUSH2 0x1CCB JUMP JUMPDEST SWAP1 POP SWAP2 SWAP1 POP JUMP JUMPDEST PUSH2 0x1D42 DUP2 PUSH2 0x1D27 JUMP JUMPDEST DUP3 MSTORE POP POP JUMP JUMPDEST PUSH1 0x0 PUSH1 0xE0 DUP3 ADD SWAP1 POP PUSH2 0x1D5D PUSH1 0x0 DUP4 ADD DUP11 PUSH2 0x1C74 JUMP JUMPDEST PUSH2 0x1D6A PUSH1 0x20 DUP4 ADD DUP10 PUSH2 0x1C74 JUMP JUMPDEST PUSH2 0x1D77 PUSH1 0x40 DUP4 ADD DUP9 PUSH2 0x1C74 JUMP JUMPDEST PUSH2 0x1D84 PUSH1 0x60 DUP4 ADD DUP8 PUSH2 0x1C74 JUMP JUMPDEST PUSH2 0x1D91 PUSH1 0x80 DUP4 ADD DUP7 PUSH2 0x1C74 JUMP JUMPDEST PUSH2 0x1D9E PUSH1 0xA0 DUP4 ADD DUP6 PUSH2 0x1D39 JUMP JUMPDEST PUSH2 0x1DAB PUSH1 0xC0 DUP4 ADD DUP5 PUSH2 0x1C74 JUMP JUMPDEST SWAP9 SWAP8 POP POP POP POP POP POP POP POP JUMP JUMPDEST PUSH1 0x0 PUSH1 0xFF DUP3 AND SWAP1 POP SWAP2 SWAP1 POP JUMP JUMPDEST PUSH2 0x1DCD DUP2 PUSH2 0x1DB7 JUMP JUMPDEST DUP2 EQ PUSH2 0x1DD8 JUMPI PUSH1 0x0 DUP1 REVERT JUMPDEST POP JUMP JUMPDEST PUSH1 0x0 DUP2 CALLDATALOAD SWAP1 POP PUSH2 0x1DEA DUP2 PUSH2 0x1DC4 JUMP JUMPDEST SWAP3 SWAP2 POP POP JUMP JUMPDEST PUSH1 0x0 DUP1 PUSH1 0x0 PUSH1 0x60 DUP5 DUP7 SUB SLT ISZERO PUSH2 0x1E09 JUMPI PUSH2 0x1E08 PUSH2 0x1A7F JUMP JUMPDEST JUMPDEST PUSH1 0x0 PUSH2 0x1E17 DUP7 DUP3 DUP8 ADD PUSH2 0x1AAA JUMP JUMPDEST SWAP4 POP POP PUSH1 0x20 PUSH2 0x1E28 DUP7 DUP3 DUP8 ADD PUSH2 0x1DDB JUMP JUMPDEST SWAP3 POP POP PUSH1 0x40 PUSH2 0x1E39 DUP7 DUP3 DUP8 ADD PUSH2 0x1AAA JUMP JUMPDEST SWAP2 POP POP SWAP3 POP SWAP3 POP SWAP3 JUMP JUMPDEST PUSH2 0x1E4C DUP2 PUSH2 0x1DB7 JUMP JUMPDEST DUP3 MSTORE POP POP JUMP JUMPDEST PUSH1 0x0 PUSH1 0x20 DUP3 ADD SWAP1 POP PUSH2 0x1E67 PUSH1 0x0 DUP4 ADD DUP5 PUSH2 0x1E43 JUMP JUMPDEST SWAP3 SWAP2 POP POP JUMP JUMPDEST PUSH1 0x0 PUSH1 0x20 DUP3 ADD SWAP1 POP PUSH2 0x1E82 PUSH1 0x0 DUP4 ADD DUP5 PUSH2 0x1D39 JUMP JUMPDEST SWAP3 SWAP2 POP POP JUMP JUMPDEST PUSH2 0x1E91 DUP2 PUSH2 0x1D27 JUMP JUMPDEST DUP2 EQ PUSH2 0x1E9C JUMPI PUSH1 0x0 DUP1 REVERT JUMPDEST POP JUMP JUMPDEST PUSH1 0x0 DUP2 CALLDATALOAD SWAP1 POP PUSH2 0x1EAE DUP2 PUSH2 0x1E88 JUMP JUMPDEST SWAP3 SWAP2 POP POP JUMP JUMPDEST PUSH1 0x0 PUSH1 0x20 DUP3 DUP5 SUB SLT ISZERO PUSH2 0x1ECA JUMPI PUSH2 0x1EC9 PUSH2 0x1A7F JUMP JUMPDEST JUMPDEST PUSH1 0x0 PUSH2 0x1ED8 DUP5 DUP3 DUP6 ADD PUSH2 0x1E9F JUMP JUMPDEST SWAP2 POP POP SWAP3 SWAP2 POP POP JUMP JUMPDEST PUSH1 0x0 PUSH1 0x40 DUP3 ADD SWAP1 POP PUSH2 0x1EF6 PUSH1 0x0 DUP4 ADD DUP6 PUSH2 0x1D39 JUMP JUMPDEST PUSH2 0x1F03 PUSH1 0x20 DUP4 ADD DUP5 PUSH2 0x1D39 JUMP JUMPDEST SWAP4 SWAP3 POP POP POP JUMP JUMPDEST PUSH1 0x0 DUP3 DUP3 MSTORE PUSH1 0x20 DUP3 ADD SWAP1 POP SWAP3 SWAP2 POP POP JUMP JUMPDEST PUSH32 0x596F752063616E206E6F7420636C6F73652074686520756E7374617274656420 PUSH1 0x0 DUP3 ADD MSTORE PUSH32 0x6C6F747465727921000000000000000000000000000000000000000000000000 PUSH1 0x20 DUP3 ADD MSTORE POP JUMP JUMPDEST PUSH1 0x0 PUSH2 0x1F77 PUSH1 0x28 DUP4 PUSH2 0x1F0A JUMP JUMPDEST SWAP2 POP PUSH2 0x1F82 DUP3 PUSH2 0x1F1B JUMP JUMPDEST PUSH1 0x40 DUP3 ADD SWAP1 POP SWAP2 SWAP1 POP JUMP JUMPDEST PUSH1 0x0 PUSH1 0x20 DUP3 ADD SWAP1 POP DUP2 DUP2 SUB PUSH1 0x0 DUP4 ADD MSTORE PUSH2 0x1FA6 DUP2 PUSH2 0x1F6A JUMP JUMPDEST SWAP1 POP SWAP2 SWAP1 POP JUMP JUMPDEST PUSH32 0x4E487B7100000000000000000000000000000000000000000000000000000000 PUSH1 0x0 MSTORE PUSH1 0x11 PUSH1 0x4 MSTORE PUSH1 0x24 PUSH1 0x0 REVERT JUMPDEST PUSH1 0x0 PUSH2 0x1FE7 DUP3 PUSH2 0x1A89 JUMP JUMPDEST SWAP2 POP PUSH2 0x1FF2 DUP4 PUSH2 0x1A89 JUMP JUMPDEST SWAP3 POP DUP3 PUSH32 0xFFFFFFFFFFFFFFFFFFFFFFFFFFFFFFFFFFFFFFFFFFFFFFFFFFFFFFFFFFFFFFFF SUB DUP3 GT ISZERO PUSH2 0x2027 JUMPI PUSH2 0x2026 PUSH2 0x1FAD JUMP JUMPDEST JUMPDEST DUP3 DUP3 ADD SWAP1 POP SWAP3 SWAP2 POP POP JUMP JUMPDEST PUSH32 0x54696D65206973206E6F74206F76657221000000000000000000000000000000 PUSH1 0x0 DUP3 ADD MSTORE POP JUMP JUMPDEST PUSH1 0x0 PUSH2 0x2068 PUSH1 0x11 DUP4 PUSH2 0x1F0A JUMP JUMPDEST SWAP2 POP PUSH2 0x2073 DUP3 PUSH2 0x2032 JUMP JUMPDEST PUSH1 0x20 DUP3 ADD SWAP1 POP SWAP2 SWAP1 POP JUMP JUMPDEST PUSH1 0x0 PUSH1 0x20 DUP3 ADD SWAP1 POP DUP2 DUP2 SUB PUSH1 0x0 DUP4 ADD MSTORE PUSH2 0x2097 DUP2 PUSH2 0x205B JUMP JUMPDEST SWAP1 POP SWAP2 SWAP1 POP JUMP JUMPDEST PUSH32 0x416C726561647920636C6F736564210000000000000000000000000000000000 PUSH1 0x0 DUP3 ADD MSTORE POP JUMP JUMPDEST PUSH1 0x0 PUSH2 0x20D4 PUSH1 0xF DUP4 PUSH2 0x1F0A JUMP JUMPDEST SWAP2 POP PUSH2 0x20DF DUP3 PUSH2 0x209E JUMP JUMPDEST PUSH1 0x20 DUP3 ADD SWAP1 POP SWAP2 SWAP1 POP JUMP JUMPDEST PUSH1 0x0 PUSH1 0x20 DUP3 ADD SWAP1 POP DUP2 DUP2 SUB PUSH1 0x0 DUP4 ADD MSTORE PUSH2 0x2103 DUP2 PUSH2 0x20C7 JUMP JUMPDEST SWAP1 POP SWAP2 SWAP1 POP JUMP JUMPDEST PUSH32 0x4F776E61626C653A2063616C6C6572206973206E6F7420746865206F776E6572 PUSH1 0x0 DUP3 ADD MSTORE POP JUMP JUMPDEST PUSH1 0x0 PUSH2 0x2140 PUSH1 0x20 DUP4 PUSH2 0x1F0A JUMP JUMPDEST SWAP2 POP PUSH2 0x214B DUP3 PUSH2 0x210A JUMP JUMPDEST PUSH1 0x20 DUP3 ADD SWAP1 POP SWAP2 SWAP1 POP JUMP JUMPDEST PUSH1 0x0 PUSH1 0x20 DUP3 ADD SWAP1 POP DUP2 DUP2 SUB PUSH1 0x0 DUP4 ADD MSTORE PUSH2 0x216F DUP2 PUSH2 0x2133 JUMP JUMPDEST SWAP1 POP SWAP2 SWAP1 POP JUMP JUMPDEST PUSH1 0x0 DUP2 SWAP1 POP SWAP2 SWAP1 POP JUMP JUMPDEST PUSH1 0x0 DUP2 SWAP1 POP SWAP2 SWAP1 POP JUMP JUMPDEST PUSH1 0x0 PUSH2 0x21A5 PUSH2 0x21A0 PUSH2 0x219B DUP5 PUSH2 0x2176 JUMP JUMPDEST PUSH2 0x2180 JUMP JUMPDEST PUSH2 0x1DB7 JUMP JUMPDEST SWAP1 POP SWAP2 SWAP1 POP JUMP JUMPDEST PUSH2 0x21B5 DUP2 PUSH2 0x218A JUMP JUMPDEST DUP3 MSTORE POP POP JUMP JUMPDEST PUSH1 0x0 PUSH1 0x20 DUP3 ADD SWAP1 POP PUSH2 0x21D0 PUSH1 0x0 DUP4 ADD DUP5 PUSH2 0x21AC JUMP JUMPDEST SWAP3 SWAP2 POP POP JUMP JUMPDEST PUSH32 0x7072697A65506F6F6C206973206E6F7420656D70747921000000000000000000 PUSH1 0x0 DUP3 ADD MSTORE POP JUMP JUMPDEST PUSH1 0x0 PUSH2 0x220C PUSH1 0x17 DUP4 PUSH2 0x1F0A JUMP JUMPDEST SWAP2 POP PUSH2 0x2217 DUP3 PUSH2 0x21D6 JUMP JUMPDEST PUSH1 0x20 DUP3 ADD SWAP1 POP SWAP2 SWAP1 POP JUMP JUMPDEST PUSH1 0x0 PUSH1 0x20 DUP3 ADD SWAP1 POP DUP2 DUP2 SUB PUSH1 0x0 DUP4 ADD MSTORE PUSH2 0x223B DUP2 PUSH2 0x21FF JUMP JUMPDEST SWAP1 POP SWAP2 SWAP1 POP JUMP JUMPDEST PUSH32 0x546865206C6F747465727920686173206E6F7420636F6D706C65746564207965 PUSH1 0x0 DUP3 ADD MSTORE PUSH32 0x7421000000000000000000000000000000000000000000000000000000000000 PUSH1 0x20 DUP3 ADD MSTORE POP JUMP JUMPDEST PUSH1 0x0 PUSH2 0x229E PUSH1 0x22 DUP4 PUSH2 0x1F0A JUMP JUMPDEST SWAP2 POP PUSH2 0x22A9 DUP3 PUSH2 0x2242 JUMP JUMPDEST PUSH1 0x40 DUP3 ADD SWAP1 POP SWAP2 SWAP1 POP JUMP JUMPDEST PUSH1 0x0 PUSH1 0x20 DUP3 ADD SWAP1 POP DUP2 DUP2 SUB PUSH1 0x0 DUP4 ADD MSTORE PUSH2 0x22CD DUP2 PUSH2 0x2291 JUMP JUMPDEST SWAP1 POP SWAP2 SWAP1 POP JUMP JUMPDEST PUSH32 0x5468652077696E6E657220686173206E6F74206265656E2073656C6563746564 PUSH1 0x0 DUP3 ADD MSTORE PUSH32 0x2100000000000000000000000000000000000000000000000000000000000000 PUSH1 0x20 DUP3 ADD MSTORE POP JUMP JUMPDEST PUSH1 0x0 PUSH2 0x2330 PUSH1 0x21 DUP4 PUSH2 0x1F0A JUMP JUMPDEST SWAP2 POP PUSH2 0x233B DUP3 PUSH2 0x22D4 JUMP JUMPDEST PUSH1 0x40 DUP3 ADD SWAP1 POP SWAP2 SWAP1 POP JUMP JUMPDEST PUSH1 0x0 PUSH1 0x20 DUP3 ADD SWAP1 POP DUP2 DUP2 SUB PUSH1 0x0 DUP4 ADD MSTORE PUSH2 0x235F DUP2 PUSH2 0x2323 JUMP JUMPDEST SWAP1 POP SWAP2 SWAP1 POP JUMP JUMPDEST PUSH32 0x4F6E6C792077696E6E65722063616E20636C61696D2072657761726421000000 PUSH1 0x0 DUP3 ADD MSTORE POP JUMP JUMPDEST PUSH1 0x0 PUSH2 0x239C PUSH1 0x1D DUP4 PUSH2 0x1F0A JUMP JUMPDEST SWAP2 POP PUSH2 0x23A7 DUP3 PUSH2 0x2366 JUMP JUMPDEST PUSH1 0x20 DUP3 ADD SWAP1 POP SWAP2 SWAP1 POP JUMP JUMPDEST PUSH1 0x0 PUSH1 0x20 DUP3 ADD SWAP1 POP DUP2 DUP2 SUB PUSH1 0x0 DUP4 ADD MSTORE PUSH2 0x23CB DUP2 PUSH2 0x238F JUMP JUMPDEST SWAP1 POP SWAP2 SWAP1 POP JUMP JUMPDEST PUSH32 0x4E487B7100000000000000000000000000000000000000000000000000000000 PUSH1 0x0 MSTORE PUSH1 0x12 PUSH1 0x4 MSTORE PUSH1 0x24 PUSH1 0x0 REVERT JUMPDEST PUSH1 0x0 PUSH2 0x240C DUP3 PUSH2 0x1DB7 JUMP JUMPDEST SWAP2 POP PUSH2 0x2417 DUP4 PUSH2 0x1DB7 JUMP JUMPDEST SWAP3 POP DUP3 PUSH2 0x2427 JUMPI PUSH2 0x2426 PUSH2 0x23D2 JUMP JUMPDEST JUMPDEST DUP3 DUP3 DIV SWAP1 POP SWAP3 SWAP2 POP POP JUMP JUMPDEST PUSH1 0x0 PUSH2 0x243D DUP3 PUSH2 0x1A89 JUMP JUMPDEST SWAP2 POP PUSH2 0x2448 DUP4 PUSH2 0x1A89 JUMP JUMPDEST SWAP3 POP DUP2 PUSH32 0xFFFFFFFFFFFFFFFFFFFFFFFFFFFFFFFFFFFFFFFFFFFFFFFFFFFFFFFFFFFFFFFF DIV DUP4 GT DUP3 ISZERO ISZERO AND ISZERO PUSH2 0x2481 JUMPI PUSH2 0x2480 PUSH2 0x1FAD JUMP JUMPDEST JUMPDEST DUP3 DUP3 MUL SWAP1 POP SWAP3 SWAP2 POP POP JUMP JUMPDEST PUSH32 0x546865206C6F747465727920686173206E6F7420737461727465642079657421 PUSH1 0x0 DUP3 ADD MSTORE POP JUMP JUMPDEST PUSH1 0x0 PUSH2 0x24C2 PUSH1 0x20 DUP4 PUSH2 0x1F0A JUMP JUMPDEST SWAP2 POP PUSH2 0x24CD DUP3 PUSH2 0x248C JUMP JUMPDEST PUSH1 0x20 DUP3 ADD SWAP1 POP SWAP2 SWAP1 POP JUMP JUMPDEST PUSH1 0x0 PUSH1 0x20 DUP3 ADD SWAP1 POP DUP2 DUP2 SUB PUSH1 0x0 DUP4 ADD MSTORE PUSH2 0x24F1 DUP2 PUSH2 0x24B5 JUMP JUMPDEST SWAP1 POP SWAP2 SWAP1 POP JUMP JUMPDEST PUSH32 0x54696D65206973206F7665722100000000000000000000000000000000000000 PUSH1 0x0 DUP3 ADD MSTORE POP JUMP JUMPDEST PUSH1 0x0 PUSH2 0x252E PUSH1 0xD DUP4 PUSH2 0x1F0A JUMP JUMPDEST SWAP2 POP PUSH2 0x2539 DUP3 PUSH2 0x24F8 JUMP JUMPDEST PUSH1 0x20 DUP3 ADD SWAP1 POP SWAP2 SWAP1 POP JUMP JUMPDEST PUSH1 0x0 PUSH1 0x20 DUP3 ADD SWAP1 POP DUP2 DUP2 SUB PUSH1 0x0 DUP4 ADD MSTORE PUSH2 0x255D DUP2 PUSH2 0x2521 JUMP JUMPDEST SWAP1 POP SWAP2 SWAP1 POP JUMP JUMPDEST PUSH32 0x506C6561736520656E74657220612076616C69642076616C7565210000000000 PUSH1 0x0 DUP3 ADD MSTORE POP JUMP JUMPDEST PUSH1 0x0 PUSH2 0x259A PUSH1 0x1B DUP4 PUSH2 0x1F0A JUMP JUMPDEST SWAP2 POP PUSH2 0x25A5 DUP3 PUSH2 0x2564 JUMP JUMPDEST PUSH1 0x20 DUP3 ADD SWAP1 POP SWAP2 SWAP1 POP JUMP JUMPDEST PUSH1 0x0 PUSH1 0x20 DUP3 ADD SWAP1 POP DUP2 DUP2 SUB PUSH1 0x0 DUP4 ADD MSTORE PUSH2 0x25C9 DUP2 PUSH2 0x258D JUMP JUMPDEST SWAP1 POP SWAP2 SWAP1 POP JUMP JUMPDEST PUSH32 0x4F776E61626C653A206E6577206F776E657220697320746865207A65726F2061 PUSH1 0x0 DUP3 ADD MSTORE PUSH32 0x6464726573730000000000000000000000000000000000000000000000000000 PUSH1 0x20 DUP3 ADD MSTORE POP JUMP JUMPDEST PUSH1 0x0 PUSH2 0x262C PUSH1 0x26 DUP4 PUSH2 0x1F0A JUMP JUMPDEST SWAP2 POP PUSH2 0x2637 DUP3 PUSH2 0x25D0 JUMP JUMPDEST PUSH1 0x40 DUP3 ADD SWAP1 POP SWAP2 SWAP1 POP JUMP JUMPDEST PUSH1 0x0 PUSH1 0x20 DUP3 ADD SWAP1 POP DUP2 DUP2 SUB PUSH1 0x0 DUP4 ADD MSTORE PUSH2 0x265B DUP2 PUSH2 0x261F JUMP JUMPDEST SWAP1 POP SWAP2 SWAP1 POP JUMP JUMPDEST PUSH32 0x4E487B7100000000000000000000000000000000000000000000000000000000 PUSH1 0x0 MSTORE PUSH1 0x32 PUSH1 0x4 MSTORE PUSH1 0x24 PUSH1 0x0 REVERT JUMPDEST PUSH1 0x0 PUSH2 0x269C DUP3 PUSH2 0x1A89 JUMP JUMPDEST SWAP2 POP PUSH2 0x26A7 DUP4 PUSH2 0x1A89 JUMP JUMPDEST SWAP3 POP DUP3 PUSH2 0x26B7 JUMPI PUSH2 0x26B6 PUSH2 0x23D2 JUMP JUMPDEST JUMPDEST DUP3 DUP3 MOD SWAP1 POP SWAP3 SWAP2 POP POP JUMP JUMPDEST PUSH1 0x0 DUP2 SWAP1 POP SWAP2 SWAP1 POP JUMP JUMPDEST PUSH2 0x26D5 DUP2 PUSH2 0x26C2 JUMP JUMPDEST DUP3 MSTORE POP POP JUMP JUMPDEST PUSH1 0x0 PUSH8 0xFFFFFFFFFFFFFFFF DUP3 AND SWAP1 POP SWAP2 SWAP1 POP JUMP JUMPDEST PUSH2 0x26F8 DUP2 PUSH2 0x26DB JUMP JUMPDEST DUP3 MSTORE POP POP JUMP JUMPDEST PUSH1 0x0 PUSH2 0xFFFF DUP3 AND SWAP1 POP SWAP2 SWAP1 POP JUMP JUMPDEST PUSH2 0x2715 DUP2 PUSH2 0x26FE JUMP JUMPDEST DUP3 MSTORE POP POP JUMP JUMPDEST PUSH1 0x0 PUSH4 0xFFFFFFFF DUP3 AND SWAP1 POP SWAP2 SWAP1 POP JUMP JUMPDEST PUSH2 0x2734 DUP2 PUSH2 0x271B JUMP JUMPDEST DUP3 MSTORE POP POP JUMP JUMPDEST PUSH1 0x0 PUSH1 0xA0 DUP3 ADD SWAP1 POP PUSH2 0x274F PUSH1 0x0 DUP4 ADD DUP9 PUSH2 0x26CC JUMP JUMPDEST PUSH2 0x275C PUSH1 0x20 DUP4 ADD DUP8 PUSH2 0x26EF JUMP JUMPDEST PUSH2 0x2769 PUSH1 0x40 DUP4 ADD DUP7 PUSH2 0x270C JUMP JUMPDEST PUSH2 0x2776 PUSH1 0x60 DUP4 ADD DUP6 PUSH2 0x272B JUMP JUMPDEST PUSH2 0x2783 PUSH1 0x80 DUP4 ADD DUP5 PUSH2 0x272B JUMP JUMPDEST SWAP7 SWAP6 POP POP POP POP POP POP JUMP JUMPDEST PUSH1 0x0 DUP2 MLOAD SWAP1 POP PUSH2 0x279C DUP2 PUSH2 0x1A93 JUMP JUMPDEST SWAP3 SWAP2 POP POP JUMP JUMPDEST PUSH1 0x0 PUSH1 0x20 DUP3 DUP5 SUB SLT ISZERO PUSH2 0x27B8 JUMPI PUSH2 0x27B7 PUSH2 0x1A7F JUMP JUMPDEST JUMPDEST PUSH1 0x0 PUSH2 0x27C6 DUP5 DUP3 DUP6 ADD PUSH2 0x278D JUMP JUMPDEST SWAP2 POP POP SWAP3 SWAP2 POP POP JUMP JUMPDEST PUSH32 0x496E697469616C697A61626C653A20636F6E747261637420697320616C726561 PUSH1 0x0 DUP3 ADD MSTORE PUSH32 0x647920696E697469616C697A6564000000000000000000000000000000000000 PUSH1 0x20 DUP3 ADD MSTORE POP JUMP JUMPDEST PUSH1 0x0 PUSH2 0x282B PUSH1 0x2E DUP4 PUSH2 0x1F0A JUMP JUMPDEST SWAP2 POP PUSH2 0x2836 DUP3 PUSH2 0x27CF JUMP JUMPDEST PUSH1 0x40 DUP3 ADD SWAP1 POP SWAP2 SWAP1 POP JUMP JUMPDEST PUSH1 0x0 PUSH1 0x20 DUP3 ADD SWAP1 POP DUP2 DUP2 SUB PUSH1 0x0 DUP4 ADD MSTORE PUSH2 0x285A DUP2 PUSH2 0x281E JUMP JUMPDEST SWAP1 POP SWAP2 SWAP1 POP JUMP JUMPDEST PUSH32 0x496E697469616C697A61626C653A20636F6E7472616374206973206E6F742069 PUSH1 0x0 DUP3 ADD MSTORE PUSH32 0x6E697469616C697A696E67000000000000000000000000000000000000000000 PUSH1 0x20 DUP3 ADD MSTORE POP JUMP JUMPDEST PUSH1 0x0 PUSH2 0x28BD PUSH1 0x2B DUP4 PUSH2 0x1F0A JUMP JUMPDEST SWAP2 POP PUSH2 0x28C8 DUP3 PUSH2 0x2861 JUMP JUMPDEST PUSH1 0x40 DUP3 ADD SWAP1 POP SWAP2 SWAP1 POP JUMP JUMPDEST PUSH1 0x0 PUSH1 0x20 DUP3 ADD SWAP1 POP DUP2 DUP2 SUB PUSH1 0x0 DUP4 ADD MSTORE PUSH2 0x28EC DUP2 PUSH2 0x28B0 JUMP JUMPDEST SWAP1 POP SWAP2 SWAP1 POP JUMP JUMPDEST PUSH1 0x0 PUSH2 0x28FE DUP3 PUSH2 0x1A89 JUMP JUMPDEST SWAP2 POP PUSH32 0xFFFFFFFFFFFFFFFFFFFFFFFFFFFFFFFFFFFFFFFFFFFFFFFFFFFFFFFFFFFFFFFF DUP3 SUB PUSH2 0x2930 JUMPI PUSH2 0x292F PUSH2 0x1FAD JUMP JUMPDEST JUMPDEST PUSH1 0x1 DUP3 ADD SWAP1 POP SWAP2 SWAP1 POP JUMP JUMPDEST PUSH1 0x0 PUSH2 0x2946 DUP3 PUSH2 0x1A89 JUMP JUMPDEST SWAP2 POP PUSH2 0x2951 DUP4 PUSH2 0x1A89 JUMP JUMPDEST SWAP3 POP DUP3 DUP3 LT ISZERO PUSH2 0x2964 JUMPI PUSH2 0x2963 PUSH2 0x1FAD JUMP JUMPDEST JUMPDEST DUP3 DUP3 SUB SWAP1 POP SWAP3 SWAP2 POP POP JUMP INVALID LOG2 PUSH5 0x6970667358 0x22 SLT KECCAK256 0xA6 0x2E 0xC8 SWAP7 DUP4 PUSH19 0xEE4455244D289B503FAABC8D3E3C04B5822AB1 CALLDATACOPY MSIZE MLOAD SWAP6 0x4E SWAP16 RETURNDATACOPY PUSH5 0x736F6C6343 STOP ADDMOD 0xF STOP CALLER "
				},
				"gasEstimates": {
					"creation": {
						"codeDepositCost": "2132200",
						"executionCost": "infinite",
						"totalCost": "infinite"
					},
					"external": {
						"allLotteries(uint256)": "infinite",
						"buyTicket()": "infinite",
						"claimReward()": "infinite",
						"closeLottery()": "infinite",
						"costPerTicket()": "2474",
						"initialize()": "111343",
						"lotteryDuration()": "2497",
						"lotteryID()": "2451",
						"lotteryStatus()": "2634",
						"owner()": "2633",
						"participants(uint256)": "5046",
						"prizePool()": "2540",
						"randomResult()": "2541",
						"rawFulfillRandomWords(uint256,uint256[])": "infinite",
						"renounceOwnership()": "30463",
						"startLottery(uint256,uint8,uint256)": "infinite",
						"startingTimestamp()": "2518",
						"transferOwnership(address)": "30852",
						"winner()": "2602",
						"winnerPercentage()": "2538",
						"withdrawEth()": "infinite"
					},
					"internal": {
						"_addLottery()": "infinite",
						"_requestRandomWords()": "infinite",
						"_reset()": "infinite",
						"_transferPrize(uint256)": "infinite",
						"fulfillRandomWords(uint256,uint256[] memory)": "infinite"
					}
				},
				"methodIdentifiers": {
					"allLotteries(uint256)": "43531c61",
					"buyTicket()": "edca914c",
					"claimReward()": "b88a802f",
					"closeLottery()": "6fd09816",
					"costPerTicket()": "46f9bedf",
					"initialize()": "8129fc1c",
					"lotteryDuration()": "2d97902f",
					"lotteryID()": "9be064c1",
					"lotteryStatus()": "0d683dd9",
					"owner()": "8da5cb5b",
					"participants(uint256)": "35c1d349",
					"prizePool()": "719ce73e",
					"randomResult()": "42619f66",
					"rawFulfillRandomWords(uint256,uint256[])": "1fe543e3",
					"renounceOwnership()": "715018a6",
					"startLottery(uint256,uint8,uint256)": "82628fbe",
					"startingTimestamp()": "88786272",
					"transferOwnership(address)": "f2fde38b",
					"winner()": "dfbf53ae",
					"winnerPercentage()": "82b98f9d",
					"withdrawEth()": "a0ef91df"
				}
			},
			"storageLayout": {
				"storage": [
					{
						"astId": 277,
						"contract": "contracts/Lottery_backup.sol:Lottery",
						"label": "_initialized",
						"offset": 0,
						"slot": "0",
						"type": "t_uint8"
					},
					{
						"astId": 280,
						"contract": "contracts/Lottery_backup.sol:Lottery",
						"label": "_initializing",
						"offset": 1,
						"slot": "0",
						"type": "t_bool"
					},
					{
						"astId": 696,
						"contract": "contracts/Lottery_backup.sol:Lottery",
						"label": "__gap",
						"offset": 0,
						"slot": "1",
						"type": "t_array(t_uint256)50_storage"
					},
					{
						"astId": 157,
						"contract": "contracts/Lottery_backup.sol:Lottery",
						"label": "_owner",
						"offset": 0,
						"slot": "51",
						"type": "t_address"
					},
					{
						"astId": 269,
						"contract": "contracts/Lottery_backup.sol:Lottery",
						"label": "__gap",
						"offset": 0,
						"slot": "52",
						"type": "t_array(t_uint256)49_storage"
					},
					{
						"astId": 734,
						"contract": "contracts/Lottery_backup.sol:Lottery",
						"label": "randomWords",
						"offset": 0,
						"slot": "101",
						"type": "t_array(t_uint256)dyn_storage"
					},
					{
						"astId": 736,
						"contract": "contracts/Lottery_backup.sol:Lottery",
						"label": "requestId",
						"offset": 0,
						"slot": "102",
						"type": "t_uint256"
					},
					{
						"astId": 738,
						"contract": "contracts/Lottery_backup.sol:Lottery",
						"label": "lotteryID",
						"offset": 0,
						"slot": "103",
						"type": "t_uint256"
					},
					{
						"astId": 741,
						"contract": "contracts/Lottery_backup.sol:Lottery",
						"label": "participants",
						"offset": 0,
						"slot": "104",
						"type": "t_array(t_address_payable)dyn_storage"
					},
					{
						"astId": 744,
						"contract": "contracts/Lottery_backup.sol:Lottery",
						"label": "costPerTicket",
						"offset": 0,
						"slot": "105",
						"type": "t_uint256"
					},
					{
						"astId": 746,
						"contract": "contracts/Lottery_backup.sol:Lottery",
						"label": "prizePool",
						"offset": 0,
						"slot": "106",
						"type": "t_uint256"
					},
					{
						"astId": 748,
						"contract": "contracts/Lottery_backup.sol:Lottery",
						"label": "startingTimestamp",
						"offset": 0,
						"slot": "107",
						"type": "t_uint256"
					},
					{
						"astId": 750,
						"contract": "contracts/Lottery_backup.sol:Lottery",
						"label": "closingTimestamp",
						"offset": 0,
						"slot": "108",
						"type": "t_uint256"
					},
					{
						"astId": 752,
						"contract": "contracts/Lottery_backup.sol:Lottery",
						"label": "winner",
						"offset": 0,
						"slot": "109",
						"type": "t_address_payable"
					},
					{
						"astId": 754,
						"contract": "contracts/Lottery_backup.sol:Lottery",
						"label": "randomResult",
						"offset": 0,
						"slot": "110",
						"type": "t_uint256"
					},
					{
						"astId": 757,
						"contract": "contracts/Lottery_backup.sol:Lottery",
						"label": "lotteryDuration",
						"offset": 0,
						"slot": "111",
						"type": "t_uint256"
					},
					{
						"astId": 760,
						"contract": "contracts/Lottery_backup.sol:Lottery",
						"label": "winnerPercentage",
						"offset": 0,
						"slot": "112",
						"type": "t_uint8"
					},
					{
						"astId": 770,
						"contract": "contracts/Lottery_backup.sol:Lottery",
						"label": "lotteryStatus",
						"offset": 1,
						"slot": "112",
						"type": "t_enum(Status)765"
					},
					{
						"astId": 790,
						"contract": "contracts/Lottery_backup.sol:Lottery",
						"label": "allLotteries",
						"offset": 0,
						"slot": "113",
						"type": "t_mapping(t_uint256,t_struct(LotteryInfo)785_storage)"
					}
				],
				"types": {
					"t_address": {
						"encoding": "inplace",
						"label": "address",
						"numberOfBytes": "20"
					},
					"t_address_payable": {
						"encoding": "inplace",
						"label": "address payable",
						"numberOfBytes": "20"
					},
					"t_array(t_address_payable)dyn_storage": {
						"base": "t_address_payable",
						"encoding": "dynamic_array",
						"label": "address payable[]",
						"numberOfBytes": "32"
					},
					"t_array(t_uint256)49_storage": {
						"base": "t_uint256",
						"encoding": "inplace",
						"label": "uint256[49]",
						"numberOfBytes": "1568"
					},
					"t_array(t_uint256)50_storage": {
						"base": "t_uint256",
						"encoding": "inplace",
						"label": "uint256[50]",
						"numberOfBytes": "1600"
					},
					"t_array(t_uint256)dyn_storage": {
						"base": "t_uint256",
						"encoding": "dynamic_array",
						"label": "uint256[]",
						"numberOfBytes": "32"
					},
					"t_bool": {
						"encoding": "inplace",
						"label": "bool",
						"numberOfBytes": "1"
					},
					"t_enum(Status)765": {
						"encoding": "inplace",
						"label": "enum Lottery.Status",
						"numberOfBytes": "1"
					},
					"t_mapping(t_uint256,t_struct(LotteryInfo)785_storage)": {
						"encoding": "mapping",
						"key": "t_uint256",
						"label": "mapping(uint256 => struct Lottery.LotteryInfo)",
						"numberOfBytes": "32",
						"value": "t_struct(LotteryInfo)785_storage"
					},
					"t_struct(LotteryInfo)785_storage": {
						"encoding": "inplace",
						"label": "struct Lottery.LotteryInfo",
						"members": [
							{
								"astId": 772,
								"contract": "contracts/Lottery_backup.sol:Lottery",
								"label": "lotteryID",
								"offset": 0,
								"slot": "0",
								"type": "t_uint256"
							},
							{
								"astId": 774,
								"contract": "contracts/Lottery_backup.sol:Lottery",
								"label": "prizePool",
								"offset": 0,
								"slot": "1",
								"type": "t_uint256"
							},
							{
								"astId": 776,
								"contract": "contracts/Lottery_backup.sol:Lottery",
								"label": "costPerTicket",
								"offset": 0,
								"slot": "2",
								"type": "t_uint256"
							},
							{
								"astId": 778,
								"contract": "contracts/Lottery_backup.sol:Lottery",
								"label": "startingTimestamp",
								"offset": 0,
								"slot": "3",
								"type": "t_uint256"
							},
							{
								"astId": 780,
								"contract": "contracts/Lottery_backup.sol:Lottery",
								"label": "closingTimestamp",
								"offset": 0,
								"slot": "4",
								"type": "t_uint256"
							},
							{
								"astId": 782,
								"contract": "contracts/Lottery_backup.sol:Lottery",
								"label": "winner",
								"offset": 0,
								"slot": "5",
								"type": "t_address"
							},
							{
								"astId": 784,
								"contract": "contracts/Lottery_backup.sol:Lottery",
								"label": "randomNumber",
								"offset": 0,
								"slot": "6",
								"type": "t_uint256"
							}
						],
						"numberOfBytes": "224"
					},
					"t_uint256": {
						"encoding": "inplace",
						"label": "uint256",
						"numberOfBytes": "32"
					},
					"t_uint8": {
						"encoding": "inplace",
						"label": "uint8",
						"numberOfBytes": "1"
					}
				}
			},
			"userdoc": {
				"kind": "user",
				"methods": {},
				"version": 1
			}
		}
	}
}