{
  "_format": "hh-sol-artifact-1",
  "contractName": "Lottery",
  "sourceName": "contracts/Lottery.sol",
  "abi": [
    {
      "inputs": [
        {
          "internalType": "address",
          "name": "have",
          "type": "address"
        },
        {
          "internalType": "address",
          "name": "want",
          "type": "address"
        }
      ],
      "name": "OnlyCoordinatorCanFulfill",
      "type": "error"
    },
    {
      "anonymous": false,
      "inputs": [
        {
          "indexed": false,
          "internalType": "uint256",
          "name": "lotteryId",
          "type": "uint256"
        }
      ],
      "name": "ClaimedReward",
      "type": "event"
    },
    {
      "anonymous": false,
      "inputs": [
        {
          "indexed": false,
          "internalType": "uint256",
          "name": "lotteryId",
          "type": "uint256"
        }
      ],
      "name": "ClosedLottery",
      "type": "event"
    },
    {
      "anonymous": false,
      "inputs": [
        {
          "indexed": false,
          "internalType": "uint256",
          "name": "lotteryId",
          "type": "uint256"
        }
      ],
      "name": "CompletedLottery",
      "type": "event"
    },
    {
      "anonymous": false,
      "inputs": [
        {
          "indexed": false,
          "internalType": "uint8",
          "name": "version",
          "type": "uint8"
        }
      ],
      "name": "Initialized",
      "type": "event"
    },
    {
      "anonymous": false,
      "inputs": [
        {
          "indexed": false,
          "internalType": "uint256",
          "name": "lotteryId",
          "type": "uint256"
        }
      ],
      "name": "OpenedLottery",
      "type": "event"
    },
    {
      "anonymous": false,
      "inputs": [
        {
          "indexed": true,
          "internalType": "address",
          "name": "previousOwner",
          "type": "address"
        },
        {
          "indexed": true,
          "internalType": "address",
          "name": "newOwner",
          "type": "address"
        }
      ],
      "name": "OwnershipTransferred",
      "type": "event"
    },
    {
      "anonymous": false,
      "inputs": [
        {
          "indexed": false,
          "internalType": "uint256",
          "name": "requestId",
          "type": "uint256"
        }
      ],
      "name": "RequestedRandomWords",
      "type": "event"
    },
    {
      "inputs": [
        {
          "internalType": "uint256",
          "name": "",
          "type": "uint256"
        }
      ],
      "name": "allLotteries",
      "outputs": [
        {
          "internalType": "uint256",
          "name": "lotteryID",
          "type": "uint256"
        },
        {
          "internalType": "uint256",
          "name": "prizePool",
          "type": "uint256"
        },
        {
          "internalType": "uint256",
          "name": "costPerTicket",
          "type": "uint256"
        },
        {
          "internalType": "uint256",
          "name": "startingTimestamp",
          "type": "uint256"
        },
        {
          "internalType": "uint256",
          "name": "closingTimestamp",
          "type": "uint256"
        },
        {
          "internalType": "address",
          "name": "winner",
          "type": "address"
        },
        {
          "internalType": "uint256",
          "name": "randomNumber",
          "type": "uint256"
        }
      ],
      "stateMutability": "view",
      "type": "function"
    },
    {
      "inputs": [],
      "name": "buyTicket",
      "outputs": [],
      "stateMutability": "payable",
      "type": "function"
    },
    {
      "inputs": [],
      "name": "claimReward",
      "outputs": [],
      "stateMutability": "nonpayable",
      "type": "function"
    },
    {
      "inputs": [],
      "name": "closeLottery",
      "outputs": [],
      "stateMutability": "nonpayable",
      "type": "function"
    },
    {
      "inputs": [],
      "name": "costPerTicket",
      "outputs": [
        {
          "internalType": "uint256",
          "name": "",
          "type": "uint256"
        }
      ],
      "stateMutability": "view",
      "type": "function"
    },
    {
      "inputs": [],
      "name": "initialize",
      "outputs": [],
      "stateMutability": "nonpayable",
      "type": "function"
    },
    {
      "inputs": [],
      "name": "lotteryDuration",
      "outputs": [
        {
          "internalType": "uint256",
          "name": "",
          "type": "uint256"
        }
      ],
      "stateMutability": "view",
      "type": "function"
    },
    {
      "inputs": [],
      "name": "lotteryID",
      "outputs": [
        {
          "internalType": "uint256",
          "name": "",
          "type": "uint256"
        }
      ],
      "stateMutability": "view",
      "type": "function"
    },
    {
      "inputs": [],
      "name": "lotteryStatus",
      "outputs": [
        {
          "internalType": "enum Lottery.Status",
          "name": "",
          "type": "uint8"
        }
      ],
      "stateMutability": "view",
      "type": "function"
    },
    {
      "inputs": [],
      "name": "owner",
      "outputs": [
        {
          "internalType": "address",
          "name": "",
          "type": "address"
        }
      ],
      "stateMutability": "view",
      "type": "function"
    },
    {
      "inputs": [
        {
          "internalType": "uint256",
          "name": "",
          "type": "uint256"
        }
      ],
      "name": "participants",
      "outputs": [
        {
          "internalType": "address payable",
          "name": "",
          "type": "address"
        }
      ],
      "stateMutability": "view",
      "type": "function"
    },
    {
      "inputs": [],
      "name": "prizePool",
      "outputs": [
        {
          "internalType": "uint256",
          "name": "",
          "type": "uint256"
        }
      ],
      "stateMutability": "view",
      "type": "function"
    },
    {
      "inputs": [],
      "name": "randomResult",
      "outputs": [
        {
          "internalType": "uint256",
          "name": "",
          "type": "uint256"
        }
      ],
      "stateMutability": "view",
      "type": "function"
    },
    {
      "inputs": [
        {
          "internalType": "uint256",
          "name": "requestId",
          "type": "uint256"
        },
        {
          "internalType": "uint256[]",
          "name": "randomWords",
          "type": "uint256[]"
        }
      ],
      "name": "rawFulfillRandomWords",
      "outputs": [],
      "stateMutability": "nonpayable",
      "type": "function"
    },
    {
      "inputs": [],
      "name": "renounceOwnership",
      "outputs": [],
      "stateMutability": "nonpayable",
      "type": "function"
    },
    {
      "inputs": [
        {
          "internalType": "uint256",
          "name": "_ticketPrice",
          "type": "uint256"
        },
        {
          "internalType": "uint8",
          "name": "_winnerPercentage",
          "type": "uint8"
        },
        {
          "internalType": "uint256",
          "name": "_lotteryDuration",
          "type": "uint256"
        }
      ],
      "name": "startLottery",
      "outputs": [],
      "stateMutability": "nonpayable",
      "type": "function"
    },
    {
      "inputs": [],
      "name": "startingTimestamp",
      "outputs": [
        {
          "internalType": "uint256",
          "name": "",
          "type": "uint256"
        }
      ],
      "stateMutability": "view",
      "type": "function"
    },
    {
      "inputs": [
        {
          "internalType": "address",
          "name": "newOwner",
          "type": "address"
        }
      ],
      "name": "transferOwnership",
      "outputs": [],
      "stateMutability": "nonpayable",
      "type": "function"
    },
    {
      "inputs": [],
      "name": "winner",
      "outputs": [
        {
          "internalType": "address payable",
          "name": "",
          "type": "address"
        }
      ],
      "stateMutability": "view",
      "type": "function"
    },
    {
      "inputs": [],
      "name": "winnerPercentage",
      "outputs": [
        {
          "internalType": "uint8",
          "name": "",
          "type": "uint8"
        }
      ],
      "stateMutability": "view",
      "type": "function"
    },
    {
      "inputs": [],
      "name": "withdrawEth",
      "outputs": [],
      "stateMutability": "nonpayable",
      "type": "function"
    }
  ],
  "bytecode": "0x60a06040526000607060016101000a81548160ff0219169083600381111561002a5761002961008b565b5b021790555034801561003b57600080fd5b50736168499c0cffcacd319c818142124b7a15e857ab8073ffffffffffffffffffffffffffffffffffffffff1660808173ffffffffffffffffffffffffffffffffffffffff1681525050506100ba565b7f4e487b7100000000000000000000000000000000000000000000000000000000600052602160045260246000fd5b6080516129a8620000dd6000396000818161046a01526104be01526129a86000f3fe60806040526004361061012a5760003560e01c80638129fc1c116100ab5780639be064c11161006f5780639be064c11461039e578063a0ef91df146103c9578063b88a802f146103e0578063dfbf53ae146103f7578063edca914c14610422578063f2fde38b1461042c5761012a565b80638129fc1c146102dd57806382628fbe146102f457806382b98f9d1461031d57806388786272146103485780638da5cb5b146103735761012a565b806343531c61116100f257806343531c611461021657806346f9bedf146102595780636fd0981614610284578063715018a61461029b578063719ce73e146102b25761012a565b80630d683dd91461012f5780631fe543e31461015a5780632d97902f1461018357806335c1d349146101ae57806342619f66146101eb575b600080fd5b34801561013b57600080fd5b50610144610455565b6040516101519190611a5c565b60405180910390f35b34801561016657600080fd5b50610181600480360381019061017c9190611c1a565b610468565b005b34801561018f57600080fd5b50610198610528565b6040516101a59190611c85565b60405180910390f35b3480156101ba57600080fd5b506101d560048036038101906101d09190611ca0565b61052e565b6040516101e29190611d0e565b60405180910390f35b3480156101f757600080fd5b5061020061056d565b60405161020d9190611c85565b60405180910390f35b34801561022257600080fd5b5061023d60048036038101906102389190611ca0565b610573565b6040516102509796959493929190611d4a565b60405180910390f35b34801561026557600080fd5b5061026e6105d5565b60405161027b9190611c85565b60405180910390f35b34801561029057600080fd5b506102996105db565b005b3480156102a757600080fd5b506102b0610812565b005b3480156102be57600080fd5b506102c761089a565b6040516102d49190611c85565b60405180910390f35b3480156102e957600080fd5b506102f26108a0565b005b34801561030057600080fd5b5061031b60048036038101906103169190611df2565b610934565b005b34801561032957600080fd5b50610332610a89565b60405161033f9190611e54565b60405180910390f35b34801561035457600080fd5b5061035d610a9c565b60405161036a9190611c85565b60405180910390f35b34801561037f57600080fd5b50610388610aa2565b6040516103959190611e6f565b60405180910390f35b3480156103aa57600080fd5b506103b3610acc565b6040516103c09190611c85565b60405180910390f35b3480156103d557600080fd5b506103de610ad2565b005b3480156103ec57600080fd5b506103f5610bdc565b005b34801561040357600080fd5b5061040c610e35565b6040516104199190611d0e565b60405180910390f35b61042a610e5b565b005b34801561043857600080fd5b50610453600480360381019061044e9190611eb6565b610fe8565b005b607060019054906101000a900460ff1681565b7f000000000000000000000000000000000000000000000000000000000000000073ffffffffffffffffffffffffffffffffffffffff163373ffffffffffffffffffffffffffffffffffffffff161461051a57337f00000000000000000000000000000000000000000000000000000000000000006040517f1cf993f4000000000000000000000000000000000000000000000000000000008152600401610511929190611ee3565b60405180910390fd5b61052482826110e0565b5050565b606f5481565b6068818154811061053e57600080fd5b906000526020600020016000915054906101000a900473ffffffffffffffffffffffffffffffffffffffff1681565b606e5481565b60716020528060005260406000206000915090508060000154908060010154908060020154908060030154908060040154908060050160009054906101000a900473ffffffffffffffffffffffffffffffffffffffff16908060060154905087565b60695481565b600160038111156105ef576105ee6119e5565b5b607060019054906101000a900460ff166003811115610611576106106119e5565b5b14610651576040517f08c379a000000000000000000000000000000000000000000000000000000000815260040161064890611f8f565b60405180910390fd5b606f54606b546106619190611fde565b4210156106a3576040517f08c379a000000000000000000000000000000000000000000000000000000000815260040161069a90612080565b60405180910390fd5b6000606e54146106e8576040517f08c379a00000000000000000000000000000000000000000000000000000000081526004016106df906120ec565b60405180910390fd5b6106f0611215565b73ffffffffffffffffffffffffffffffffffffffff1661070e610aa2565b73ffffffffffffffffffffffffffffffffffffffff1614610764576040517f08c379a000000000000000000000000000000000000000000000000000000000815260040161075b90612158565b60405180910390fd5b61076c61121d565b6002607060016101000a81548160ff02191690836003811115610792576107916119e5565b5b021790555042606c819055507fc3d0c9fbc1987665462eec0262eb7fc743a27d411fd3a0b9c20c1c64d99347d36066546040516107cf9190611c85565b60405180910390a17f9edcbcb9d92149759cf24c59c34fd339e97107442f9c009fa07ec27c726c3af66067546040516108089190611c85565b60405180910390a1565b61081a611215565b73ffffffffffffffffffffffffffffffffffffffff16610838610aa2565b73ffffffffffffffffffffffffffffffffffffffff161461088e576040517f08c379a000000000000000000000000000000000000000000000000000000000815260040161088590612158565b60405180910390fd5b6108986000611362565b565b606a5481565b60006108ac6001611428565b905080156108d0576001600060016101000a81548160ff0219169083151502179055505b6108d8611518565b80156109315760008060016101000a81548160ff0219169083151502179055507f7f26b83ff96e1f2b6a682f133852f6798a09c465da95921460cefb3847402498600160405161092891906121bd565b60405180910390a15b50565b60006003811115610948576109476119e5565b5b607060019054906101000a900460ff16600381111561096a576109696119e5565b5b1461097457600080fd5b61097c611215565b73ffffffffffffffffffffffffffffffffffffffff1661099a610aa2565b73ffffffffffffffffffffffffffffffffffffffff16146109f0576040517f08c379a00000000000000000000000000000000000000000000000000000000081526004016109e790612158565b60405180910390fd5b8260698190555081607060006101000a81548160ff021916908360ff16021790555080606f819055506001607060016101000a81548160ff02191690836003811115610a3f57610a3e6119e5565b5b021790555042606b819055507fce62b71aa24a7ffb1343c139b78d655d7b33bd66b2be4e83d9f6425b02eb197a606754604051610a7c9190611c85565b60405180910390a1505050565b607060009054906101000a900460ff1681565b606b5481565b6000603360009054906101000a900473ffffffffffffffffffffffffffffffffffffffff16905090565b60675481565b610ada611215565b73ffffffffffffffffffffffffffffffffffffffff16610af8610aa2565b73ffffffffffffffffffffffffffffffffffffffff1614610b4e576040517f08c379a0000000000000000000000000000000000000000000000000000000008152600401610b4590612158565b60405180910390fd5b6000606a5414610b93576040517f08c379a0000000000000000000000000000000000000000000000000000000008152600401610b8a90612224565b60405180910390fd5b3373ffffffffffffffffffffffffffffffffffffffff166108fc479081150290604051600060405180830381858888f19350505050158015610bd9573d6000803e3d6000fd5b50565b600380811115610bef57610bee6119e5565b5b607060019054906101000a900460ff166003811115610c1157610c106119e5565b5b14610c51576040517f08c379a0000000000000000000000000000000000000000000000000000000008152600401610c48906122b6565b60405180910390fd5b600073ffffffffffffffffffffffffffffffffffffffff16606d60009054906101000a900473ffffffffffffffffffffffffffffffffffffffff1673ffffffffffffffffffffffffffffffffffffffff161415610ce3576040517f08c379a0000000000000000000000000000000000000000000000000000000008152600401610cda90612348565b60405180910390fd5b606d60009054906101000a900473ffffffffffffffffffffffffffffffffffffffff1673ffffffffffffffffffffffffffffffffffffffff163373ffffffffffffffffffffffffffffffffffffffff161480610d715750610d42610aa2565b73ffffffffffffffffffffffffffffffffffffffff163373ffffffffffffffffffffffffffffffffffffffff16145b610db0576040517f08c379a0000000000000000000000000000000000000000000000000000000008152600401610da7906123b4565b60405180910390fd5b610db8611571565b60006064607060009054906101000a900460ff16610dd69190612403565b60ff16606a54610de69190612434565b9050610df181611699565b610df961176e565b7f1c1f258cbfdae81beabe79c7a44ff65a9c9f4c17cb035f72b14d998c76345deb606754604051610e2a9190611c85565b60405180910390a150565b606d60009054906101000a900473ffffffffffffffffffffffffffffffffffffffff1681565b60016003811115610e6f57610e6e6119e5565b5b607060019054906101000a900460ff166003811115610e9157610e906119e5565b5b14610ed1576040517f08c379a0000000000000000000000000000000000000000000000000000000008152600401610ec8906124da565b60405180910390fd5b606f54606b54610ee19190611fde565b421115610f23576040517f08c379a0000000000000000000000000000000000000000000000000000000008152600401610f1a90612546565b60405180910390fd5b606954341015610f68576040517f08c379a0000000000000000000000000000000000000000000000000000000008152600401610f5f906125b2565b60405180910390fd5b606954606a6000828254610f7c9190611fde565b925050819055506068339080600181540180825580915050600190039060005260206000200160009091909190916101000a81548173ffffffffffffffffffffffffffffffffffffffff021916908373ffffffffffffffffffffffffffffffffffffffff160217905550565b610ff0611215565b73ffffffffffffffffffffffffffffffffffffffff1661100e610aa2565b73ffffffffffffffffffffffffffffffffffffffff1614611064576040517f08c379a000000000000000000000000000000000000000000000000000000000815260040161105b90612158565b60405180910390fd5b600073ffffffffffffffffffffffffffffffffffffffff168173ffffffffffffffffffffffffffffffffffffffff1614156110d4576040517f08c379a00000000000000000000000000000000000000000000000000000000081526004016110cb90612644565b60405180910390fd5b6110dd81611362565b50565b80606590805190602001906110f69291906118f1565b50606560008154811061110c5761110b612664565b5b9060005260206000200154606e8190555060688080549050606e546111319190612693565b8154811061114257611141612664565b5b9060005260206000200160009054906101000a900473ffffffffffffffffffffffffffffffffffffffff16606d60006101000a81548173ffffffffffffffffffffffffffffffffffffffff021916908373ffffffffffffffffffffffffffffffffffffffff1602179055506003607060016101000a81548160ff021916908360038111156111d3576111d26119e5565b5b02179055507fec5fbb90ad904e090f21495aa3914ca1b34c5b7ea3c8c6fb7f0ecb7cf2a9f5436067546040516112099190611c85565b60405180910390a15050565b600033905090565b611225611215565b73ffffffffffffffffffffffffffffffffffffffff16611243610aa2565b73ffffffffffffffffffffffffffffffffffffffff1614611299576040517f08c379a000000000000000000000000000000000000000000000000000000000815260040161129090612158565b60405180910390fd5b736168499c0cffcacd319c818142124b7a15e857ab73ffffffffffffffffffffffffffffffffffffffff16635d3b1d307fd89b2bf150e3b9e13446986e571fb9cab24b13cea0a43ea20a6049a85cc807cc60001b60f76003620f424060016040518663ffffffff1660e01b815260040161131795949392919061273c565b6020604051808303816000875af1158015611336573d6000803e3d6000fd5b505050506040513d601f19601f8201168201806040525081019061135a91906127a4565b606681905550565b6000603360009054906101000a900473ffffffffffffffffffffffffffffffffffffffff16905081603360006101000a81548173ffffffffffffffffffffffffffffffffffffffff021916908373ffffffffffffffffffffffffffffffffffffffff1602179055508173ffffffffffffffffffffffffffffffffffffffff168173ffffffffffffffffffffffffffffffffffffffff167f8be0079c531659141344cd1fd0a4f28419497f9722a3daafe3b4186f6b6457e060405160405180910390a35050565b60008060019054906101000a900460ff161561149f5760018260ff1614801561145757506114553061186d565b155b611496576040517f08c379a000000000000000000000000000000000000000000000000000000000815260040161148d90612843565b60405180910390fd5b60009050611513565b8160ff1660008054906101000a900460ff1660ff16106114f4576040517f08c379a00000000000000000000000000000000000000000000000000000000081526004016114eb90612843565b60405180910390fd5b816000806101000a81548160ff021916908360ff160217905550600190505b919050565b600060019054906101000a900460ff16611567576040517f08c379a000000000000000000000000000000000000000000000000000000000815260040161155e906128d5565b60405180910390fd5b61156f611890565b565b6040518060e001604052806067548152602001606a5481526020016069548152602001606b548152602001606c548152602001606d60009054906101000a900473ffffffffffffffffffffffffffffffffffffffff1673ffffffffffffffffffffffffffffffffffffffff168152602001606e5481525060716000606760008154809291906115ff906128f5565b919050558152602001908152602001600020600082015181600001556020820151816001015560408201518160020155606082015181600301556080820151816004015560a08201518160050160006101000a81548173ffffffffffffffffffffffffffffffffffffffff021916908373ffffffffffffffffffffffffffffffffffffffff16021790555060c08201518160060155905050565b80606a60008282546116ab919061293e565b92505081905550606d60009054906101000a900473ffffffffffffffffffffffffffffffffffffffff1673ffffffffffffffffffffffffffffffffffffffff166108fc829081150290604051600060405180830381858888f1935050505015801561171a573d6000803e3d6000fd5b50611723610aa2565b73ffffffffffffffffffffffffffffffffffffffff166108fc606a549081150290604051600060405180830381858888f1935050505015801561176a573d6000803e3d6000fd5b5050565b6000606c8190555060006069819055506000606f819055506000607060016101000a81548160ff021916908360038111156117ac576117ab6119e5565b5b0217905550600067ffffffffffffffff8111156117cc576117cb611ad7565b5b6040519080825280602002602001820160405280156117fa5781602001602082028036833780820191505090505b506068908051906020019061181092919061193e565b506000606a819055506000606e819055506000606b819055506000606d60006101000a81548173ffffffffffffffffffffffffffffffffffffffff021916908373ffffffffffffffffffffffffffffffffffffffff160217905550565b6000808273ffffffffffffffffffffffffffffffffffffffff163b119050919050565b600060019054906101000a900460ff166118df576040517f08c379a00000000000000000000000000000000000000000000000000000000081526004016118d6906128d5565b60405180910390fd5b6118ef6118ea611215565b611362565b565b82805482825590600052602060002090810192821561192d579160200282015b8281111561192c578251825591602001919060010190611911565b5b50905061193a91906119c8565b5090565b8280548282559060005260206000209081019282156119b7579160200282015b828111156119b65782518260006101000a81548173ffffffffffffffffffffffffffffffffffffffff021916908373ffffffffffffffffffffffffffffffffffffffff1602179055509160200191906001019061195e565b5b5090506119c491906119c8565b5090565b5b808211156119e15760008160009055506001016119c9565b5090565b7f4e487b7100000000000000000000000000000000000000000000000000000000600052602160045260246000fd5b60048110611a2557611a246119e5565b5b50565b6000819050611a3682611a14565b919050565b6000611a4682611a28565b9050919050565b611a5681611a3b565b82525050565b6000602082019050611a716000830184611a4d565b92915050565b6000604051905090565b600080fd5b600080fd5b6000819050919050565b611a9e81611a8b565b8114611aa957600080fd5b50565b600081359050611abb81611a95565b92915050565b600080fd5b6000601f19601f8301169050919050565b7f4e487b7100000000000000000000000000000000000000000000000000000000600052604160045260246000fd5b611b0f82611ac6565b810181811067ffffffffffffffff82111715611b2e57611b2d611ad7565b5b80604052505050565b6000611b41611a77565b9050611b4d8282611b06565b919050565b600067ffffffffffffffff821115611b6d57611b6c611ad7565b5b602082029050602081019050919050565b600080fd5b6000611b96611b9184611b52565b611b37565b90508083825260208201905060208402830185811115611bb957611bb8611b7e565b5b835b81811015611be25780611bce8882611aac565b845260208401935050602081019050611bbb565b5050509392505050565b600082601f830112611c0157611c00611ac1565b5b8135611c11848260208601611b83565b91505092915050565b60008060408385031215611c3157611c30611a81565b5b6000611c3f85828601611aac565b925050602083013567ffffffffffffffff811115611c6057611c5f611a86565b5b611c6c85828601611bec565b9150509250929050565b611c7f81611a8b565b82525050565b6000602082019050611c9a6000830184611c76565b92915050565b600060208284031215611cb657611cb5611a81565b5b6000611cc484828501611aac565b91505092915050565b600073ffffffffffffffffffffffffffffffffffffffff82169050919050565b6000611cf882611ccd565b9050919050565b611d0881611ced565b82525050565b6000602082019050611d236000830184611cff565b92915050565b6000611d3482611ccd565b9050919050565b611d4481611d29565b82525050565b600060e082019050611d5f600083018a611c76565b611d6c6020830189611c76565b611d796040830188611c76565b611d866060830187611c76565b611d936080830186611c76565b611da060a0830185611d3b565b611dad60c0830184611c76565b98975050505050505050565b600060ff82169050919050565b611dcf81611db9565b8114611dda57600080fd5b50565b600081359050611dec81611dc6565b92915050565b600080600060608486031215611e0b57611e0a611a81565b5b6000611e1986828701611aac565b9350506020611e2a86828701611ddd565b9250506040611e3b86828701611aac565b9150509250925092565b611e4e81611db9565b82525050565b6000602082019050611e696000830184611e45565b92915050565b6000602082019050611e846000830184611d3b565b92915050565b611e9381611d29565b8114611e9e57600080fd5b50565b600081359050611eb081611e8a565b92915050565b600060208284031215611ecc57611ecb611a81565b5b6000611eda84828501611ea1565b91505092915050565b6000604082019050611ef86000830185611d3b565b611f056020830184611d3b565b9392505050565b600082825260208201905092915050565b7f596f752063616e206e6f7420636c6f73652074686520756e737461727465642060008201527f6c6f747465727921000000000000000000000000000000000000000000000000602082015250565b6000611f79602883611f0c565b9150611f8482611f1d565b604082019050919050565b60006020820190508181036000830152611fa881611f6c565b9050919050565b7f4e487b7100000000000000000000000000000000000000000000000000000000600052601160045260246000fd5b6000611fe982611a8b565b9150611ff483611a8b565b9250827fffffffffffffffffffffffffffffffffffffffffffffffffffffffffffffffff0382111561202957612028611faf565b5b828201905092915050565b7f54696d65206973206e6f74206f76657221000000000000000000000000000000600082015250565b600061206a601183611f0c565b915061207582612034565b602082019050919050565b600060208201905081810360008301526120998161205d565b9050919050565b7f416c726561647920636c6f736564210000000000000000000000000000000000600082015250565b60006120d6600f83611f0c565b91506120e1826120a0565b602082019050919050565b60006020820190508181036000830152612105816120c9565b9050919050565b7f4f776e61626c653a2063616c6c6572206973206e6f7420746865206f776e6572600082015250565b6000612142602083611f0c565b915061214d8261210c565b602082019050919050565b6000602082019050818103600083015261217181612135565b9050919050565b6000819050919050565b6000819050919050565b60006121a76121a261219d84612178565b612182565b611db9565b9050919050565b6121b78161218c565b82525050565b60006020820190506121d260008301846121ae565b92915050565b7f7072697a65506f6f6c206973206e6f7420656d70747921000000000000000000600082015250565b600061220e601783611f0c565b9150612219826121d8565b602082019050919050565b6000602082019050818103600083015261223d81612201565b9050919050565b7f546865206c6f747465727920686173206e6f7420636f6d706c6574656420796560008201527f7421000000000000000000000000000000000000000000000000000000000000602082015250565b60006122a0602283611f0c565b91506122ab82612244565b604082019050919050565b600060208201905081810360008301526122cf81612293565b9050919050565b7f5468652077696e6e657220686173206e6f74206265656e2073656c656374656460008201527f2100000000000000000000000000000000000000000000000000000000000000602082015250565b6000612332602183611f0c565b915061233d826122d6565b604082019050919050565b6000602082019050818103600083015261236181612325565b9050919050565b7f4f6e6c792077696e6e65722063616e20636c61696d2072657761726421000000600082015250565b600061239e601d83611f0c565b91506123a982612368565b602082019050919050565b600060208201905081810360008301526123cd81612391565b9050919050565b7f4e487b7100000000000000000000000000000000000000000000000000000000600052601260045260246000fd5b600061240e82611db9565b915061241983611db9565b925082612429576124286123d4565b5b828204905092915050565b600061243f82611a8b565b915061244a83611a8b565b9250817fffffffffffffffffffffffffffffffffffffffffffffffffffffffffffffffff048311821515161561248357612482611faf565b5b828202905092915050565b7f546865206c6f747465727920686173206e6f7420737461727465642079657421600082015250565b60006124c4602083611f0c565b91506124cf8261248e565b602082019050919050565b600060208201905081810360008301526124f3816124b7565b9050919050565b7f54696d65206973206f7665722100000000000000000000000000000000000000600082015250565b6000612530600d83611f0c565b915061253b826124fa565b602082019050919050565b6000602082019050818103600083015261255f81612523565b9050919050565b7f506c6561736520656e74657220612076616c69642076616c7565210000000000600082015250565b600061259c601b83611f0c565b91506125a782612566565b602082019050919050565b600060208201905081810360008301526125cb8161258f565b9050919050565b7f4f776e61626c653a206e6577206f776e657220697320746865207a65726f206160008201527f6464726573730000000000000000000000000000000000000000000000000000602082015250565b600061262e602683611f0c565b9150612639826125d2565b604082019050919050565b6000602082019050818103600083015261265d81612621565b9050919050565b7f4e487b7100000000000000000000000000000000000000000000000000000000600052603260045260246000fd5b600061269e82611a8b565b91506126a983611a8b565b9250826126b9576126b86123d4565b5b828206905092915050565b6000819050919050565b6126d7816126c4565b82525050565b600067ffffffffffffffff82169050919050565b6126fa816126dd565b82525050565b600061ffff82169050919050565b61271781612700565b82525050565b600063ffffffff82169050919050565b6127368161271d565b82525050565b600060a08201905061275160008301886126ce565b61275e60208301876126f1565b61276b604083018661270e565b612778606083018561272d565b612785608083018461272d565b9695505050505050565b60008151905061279e81611a95565b92915050565b6000602082840312156127ba576127b9611a81565b5b60006127c88482850161278f565b91505092915050565b7f496e697469616c697a61626c653a20636f6e747261637420697320616c72656160008201527f647920696e697469616c697a6564000000000000000000000000000000000000602082015250565b600061282d602e83611f0c565b9150612838826127d1565b604082019050919050565b6000602082019050818103600083015261285c81612820565b9050919050565b7f496e697469616c697a61626c653a20636f6e7472616374206973206e6f74206960008201527f6e697469616c697a696e67000000000000000000000000000000000000000000602082015250565b60006128bf602b83611f0c565b91506128ca82612863565b604082019050919050565b600060208201905081810360008301526128ee816128b2565b9050919050565b600061290082611a8b565b91507fffffffffffffffffffffffffffffffffffffffffffffffffffffffffffffffff82141561293357612932611faf565b5b600182019050919050565b600061294982611a8b565b915061295483611a8b565b92508282101561296757612966611faf565b5b82820390509291505056fea2646970667358221220ba71b26758ba5097a5957c69c72c949a86583a115db402b6815d9696b1fd5a6c64736f6c634300080b0033",
  "linkReferences": {},
  "deployedLinkReferences": {}
}