{
  "_format": "hh-sol-artifact-1",
  "contractName": "Lottery",
  "sourceName": "contracts/Lottery.sol",
  "abi": [
    {
      "inputs": [],
      "name": "enter",
      "outputs": [],
      "stateMutability": "payable",
      "type": "function"
    },
    {
      "inputs": [],
      "name": "getBalance",
      "outputs": [
        {
          "internalType": "uint256",
          "name": "",
          "type": "uint256"
        }
      ],
      "stateMutability": "view",
      "type": "function"
    },
    {
      "inputs": [],
      "name": "getPlayers",
      "outputs": [
        {
          "internalType": "address payable[]",
          "name": "",
          "type": "address[]"
        }
      ],
      "stateMutability": "view",
      "type": "function"
    },
    {
      "inputs": [
        {
          "internalType": "uint256",
          "name": "lottery",
          "type": "uint256"
        }
      ],
      "name": "getWinnerByLottery",
      "outputs": [
        {
          "internalType": "address payable",
          "name": "",
          "type": "address"
        }
      ],
      "stateMutability": "view",
      "type": "function"
    },
    {
      "inputs": [
        {
          "internalType": "uint256",
          "name": "",
          "type": "uint256"
        }
      ],
      "name": "lotteryHistory",
      "outputs": [
        {
          "internalType": "address payable",
          "name": "",
          "type": "address"
        }
      ],
      "stateMutability": "view",
      "type": "function"
    },
    {
      "inputs": [],
      "name": "lotteryId",
      "outputs": [
        {
          "internalType": "uint256",
          "name": "",
          "type": "uint256"
        }
      ],
      "stateMutability": "view",
      "type": "function"
    },
    {
      "inputs": [],
      "name": "owner",
      "outputs": [
        {
          "internalType": "address",
          "name": "",
          "type": "address"
        }
      ],
      "stateMutability": "view",
      "type": "function"
    },
    {
      "inputs": [],
      "name": "payWinner",
      "outputs": [],
      "stateMutability": "nonpayable",
      "type": "function"
    },
    {
      "inputs": [
        {
          "internalType": "uint256",
          "name": "",
          "type": "uint256"
        }
      ],
      "name": "players",
      "outputs": [
        {
          "internalType": "address payable",
          "name": "",
          "type": "address"
        }
      ],
      "stateMutability": "view",
      "type": "function"
    },
    {
      "inputs": [],
      "name": "randomResult",
      "outputs": [
        {
          "internalType": "uint256",
          "name": "",
          "type": "uint256"
        }
      ],
      "stateMutability": "view",
      "type": "function"
    }
  ],
  "bytecode": "0x608060405234801561001057600080fd5b50610b84806100206000396000f3fe6080604052600436106100915760003560e01c80638da5cb5b116100595780638da5cb5b14610191578063be71248a146101bc578063e580f47b146101d3578063e97dcb62146101fe578063f71d96cb1461020857610091565b806312065fe014610096578063281d098d146100c157806342619f66146100fe5780636d6fe230146101295780638b5b9ccc14610166575b600080fd5b3480156100a257600080fd5b506100ab610245565b6040516100b89190610718565b60405180910390f35b3480156100cd57600080fd5b506100e860048036038101906100e39190610764565b61024d565b6040516100f591906107d2565b60405180910390f35b34801561010a57600080fd5b5061011361028a565b6040516101209190610718565b60405180910390f35b34801561013557600080fd5b50610150600480360381019061014b9190610764565b610290565b60405161015d91906107d2565b60405180910390f35b34801561017257600080fd5b5061017b6102c3565b60405161018891906108ab565b60405180910390f35b34801561019d57600080fd5b506101a6610351565b6040516101b391906108ee565b60405180910390f35b3480156101c857600080fd5b506101d1610375565b005b3480156101df57600080fd5b506101e861056b565b6040516101f59190610718565b60405180910390f35b610206610571565b005b34801561021457600080fd5b5061022f600480360381019061022a9190610764565b610619565b60405161023c91906107d2565b60405180910390f35b600047905090565b60006003600083815260200190815260200160002060009054906101000a900473ffffffffffffffffffffffffffffffffffffffff169050919050565b60065481565b60036020528060005260406000206000915054906101000a900473ffffffffffffffffffffffffffffffffffffffff1681565b6060600180548060200260200160405190810160405280929190818152602001828054801561034757602002820191906000526020600020905b8160009054906101000a900473ffffffffffffffffffffffffffffffffffffffff1673ffffffffffffffffffffffffffffffffffffffff16815260200190600101908083116102fd575b5050505050905090565b60008054906101000a900473ffffffffffffffffffffffffffffffffffffffff1681565b6000600654116103ba576040517f08c379a00000000000000000000000000000000000000000000000000000000081526004016103b19061098c565b60405180910390fd5b60006001805490506006546103cf91906109db565b9050600181815481106103e5576103e4610a0c565b5b9060005260206000200160009054906101000a900473ffffffffffffffffffffffffffffffffffffffff1673ffffffffffffffffffffffffffffffffffffffff166108fc479081150290604051600060405180830381858888f19350505050158015610455573d6000803e3d6000fd5b506001818154811061046a57610469610a0c565b5b9060005260206000200160009054906101000a900473ffffffffffffffffffffffffffffffffffffffff1660036000600254815260200190815260200160002060006101000a81548173ffffffffffffffffffffffffffffffffffffffff021916908373ffffffffffffffffffffffffffffffffffffffff160217905550600260008154809291906104fb90610a6a565b9190505550600067ffffffffffffffff81111561051b5761051a610ab3565b5b6040519080825280602002602001820160405280156105495781602001602082028036833780820191505090505b506001908051906020019061055f929190610658565b50600060068190555050565b60025481565b600234116105b4576040517f08c379a00000000000000000000000000000000000000000000000000000000081526004016105ab90610b2e565b60405180910390fd5b6001339080600181540180825580915050600190039060005260206000200160009091909190916101000a81548173ffffffffffffffffffffffffffffffffffffffff021916908373ffffffffffffffffffffffffffffffffffffffff160217905550565b6001818154811061062957600080fd5b906000526020600020016000915054906101000a900473ffffffffffffffffffffffffffffffffffffffff1681565b8280548282559060005260206000209081019282156106d1579160200282015b828111156106d05782518260006101000a81548173ffffffffffffffffffffffffffffffffffffffff021916908373ffffffffffffffffffffffffffffffffffffffff16021790555091602001919060010190610678565b5b5090506106de91906106e2565b5090565b5b808211156106fb5760008160009055506001016106e3565b5090565b6000819050919050565b610712816106ff565b82525050565b600060208201905061072d6000830184610709565b92915050565b600080fd5b610741816106ff565b811461074c57600080fd5b50565b60008135905061075e81610738565b92915050565b60006020828403121561077a57610779610733565b5b60006107888482850161074f565b91505092915050565b600073ffffffffffffffffffffffffffffffffffffffff82169050919050565b60006107bc82610791565b9050919050565b6107cc816107b1565b82525050565b60006020820190506107e760008301846107c3565b92915050565b600081519050919050565b600082825260208201905092915050565b6000819050602082019050919050565b610822816107b1565b82525050565b60006108348383610819565b60208301905092915050565b6000602082019050919050565b6000610858826107ed565b61086281856107f8565b935061086d83610809565b8060005b8381101561089e5781516108858882610828565b975061089083610840565b925050600181019050610871565b5085935050505092915050565b600060208201905081810360008301526108c5818461084d565b905092915050565b60006108d882610791565b9050919050565b6108e8816108cd565b82525050565b600060208201905061090360008301846108df565b92915050565b600082825260208201905092915050565b7f4d7573742068617665206120736f75726365206f662072616e646f6d6e65737360008201527f206265666f72652063686f6f73696e672077696e6e6572000000000000000000602082015250565b6000610976603783610909565b91506109818261091a565b604082019050919050565b600060208201905081810360008301526109a581610969565b9050919050565b7f4e487b7100000000000000000000000000000000000000000000000000000000600052601260045260246000fd5b60006109e6826106ff565b91506109f1836106ff565b925082610a0157610a006109ac565b5b828206905092915050565b7f4e487b7100000000000000000000000000000000000000000000000000000000600052603260045260246000fd5b7f4e487b7100000000000000000000000000000000000000000000000000000000600052601160045260246000fd5b6000610a75826106ff565b91507fffffffffffffffffffffffffffffffffffffffffffffffffffffffffffffffff821415610aa857610aa7610a3b565b5b600182019050919050565b7f4e487b7100000000000000000000000000000000000000000000000000000000600052604160045260246000fd5b7f4e6f7420656e6f75676820746f6b656e00000000000000000000000000000000600082015250565b6000610b18601083610909565b9150610b2382610ae2565b602082019050919050565b60006020820190508181036000830152610b4781610b0b565b905091905056fea264697066735822122044e30d702324e167f6f960b46eb0e0be1e373812f51c69f1ad26bf70762966cc64736f6c634300080b0033",
  "linkReferences": {},
  "deployedLinkReferences": {}
}