{
  "_format": "hh-sol-artifact-1",
  "contractName": "Lottery",
  "sourceName": "contracts/Lottery.sol",
  "abi": [
    {
      "inputs": [
        {
          "internalType": "contract MyToken",
          "name": "_token",
          "type": "address"
        }
      ],
      "stateMutability": "nonpayable",
      "type": "constructor"
    },
    {
      "inputs": [
        {
          "internalType": "address",
          "name": "have",
          "type": "address"
        },
        {
          "internalType": "address",
          "name": "want",
          "type": "address"
        }
      ],
      "name": "OnlyCoordinatorCanFulfill",
      "type": "error"
    },
    {
      "inputs": [],
      "name": "_requestRandomWords",
      "outputs": [],
      "stateMutability": "nonpayable",
      "type": "function"
    },
    {
      "inputs": [],
      "name": "_reset",
      "outputs": [],
      "stateMutability": "nonpayable",
      "type": "function"
    },
    {
      "inputs": [],
      "name": "admin",
      "outputs": [
        {
          "internalType": "address",
          "name": "",
          "type": "address"
        }
      ],
      "stateMutability": "view",
      "type": "function"
    },
    {
      "inputs": [],
      "name": "costTicket",
      "outputs": [
        {
          "internalType": "uint256",
          "name": "",
          "type": "uint256"
        }
      ],
      "stateMutability": "view",
      "type": "function"
    },
    {
      "inputs": [],
      "name": "endAt",
      "outputs": [
        {
          "internalType": "uint256",
          "name": "",
          "type": "uint256"
        }
      ],
      "stateMutability": "view",
      "type": "function"
    },
    {
      "inputs": [
        {
          "internalType": "uint256",
          "name": "numTicket",
          "type": "uint256"
        }
      ],
      "name": "enter",
      "outputs": [],
      "stateMutability": "payable",
      "type": "function"
    },
    {
      "inputs": [],
      "name": "getAmountPlayer",
      "outputs": [
        {
          "internalType": "uint256",
          "name": "",
          "type": "uint256"
        }
      ],
      "stateMutability": "view",
      "type": "function"
    },
    {
      "inputs": [],
      "name": "getAmountWinner",
      "outputs": [
        {
          "internalType": "uint256",
          "name": "",
          "type": "uint256"
        }
      ],
      "stateMutability": "view",
      "type": "function"
    },
    {
      "inputs": [],
      "name": "getBalance",
      "outputs": [
        {
          "internalType": "uint256",
          "name": "",
          "type": "uint256"
        }
      ],
      "stateMutability": "view",
      "type": "function"
    },
    {
      "inputs": [
        {
          "internalType": "uint256",
          "name": "index",
          "type": "uint256"
        }
      ],
      "name": "getListWinner",
      "outputs": [
        {
          "internalType": "address",
          "name": "",
          "type": "address"
        }
      ],
      "stateMutability": "view",
      "type": "function"
    },
    {
      "inputs": [],
      "name": "getLuckyNumber",
      "outputs": [
        {
          "internalType": "uint256",
          "name": "",
          "type": "uint256"
        }
      ],
      "stateMutability": "view",
      "type": "function"
    },
    {
      "inputs": [
        {
          "internalType": "uint256",
          "name": "_index",
          "type": "uint256"
        }
      ],
      "name": "getPlayers",
      "outputs": [
        {
          "internalType": "address payable",
          "name": "",
          "type": "address"
        },
        {
          "internalType": "uint256",
          "name": "",
          "type": "uint256"
        }
      ],
      "stateMutability": "view",
      "type": "function"
    },
    {
      "inputs": [],
      "name": "lotteryId",
      "outputs": [
        {
          "internalType": "uint256",
          "name": "",
          "type": "uint256"
        }
      ],
      "stateMutability": "view",
      "type": "function"
    },
    {
      "inputs": [],
      "name": "luckyNumber",
      "outputs": [
        {
          "internalType": "uint256",
          "name": "",
          "type": "uint256"
        }
      ],
      "stateMutability": "view",
      "type": "function"
    },
    {
      "inputs": [],
      "name": "randomTicket",
      "outputs": [
        {
          "internalType": "uint256",
          "name": "",
          "type": "uint256"
        }
      ],
      "stateMutability": "nonpayable",
      "type": "function"
    },
    {
      "inputs": [
        {
          "internalType": "uint256",
          "name": "requestId",
          "type": "uint256"
        },
        {
          "internalType": "uint256[]",
          "name": "randomWords",
          "type": "uint256[]"
        }
      ],
      "name": "rawFulfillRandomWords",
      "outputs": [],
      "stateMutability": "nonpayable",
      "type": "function"
    },
    {
      "inputs": [
        {
          "internalType": "uint256",
          "name": "",
          "type": "uint256"
        }
      ],
      "name": "s_randomWords",
      "outputs": [
        {
          "internalType": "uint256",
          "name": "",
          "type": "uint256"
        }
      ],
      "stateMutability": "view",
      "type": "function"
    },
    {
      "inputs": [],
      "name": "s_requestId",
      "outputs": [
        {
          "internalType": "uint256",
          "name": "",
          "type": "uint256"
        }
      ],
      "stateMutability": "view",
      "type": "function"
    },
    {
      "inputs": [
        {
          "internalType": "uint256",
          "name": "_costTicket",
          "type": "uint256"
        }
      ],
      "name": "setCostTicket",
      "outputs": [],
      "stateMutability": "nonpayable",
      "type": "function"
    },
    {
      "inputs": [
        {
          "internalType": "uint256",
          "name": "_endAt",
          "type": "uint256"
        }
      ],
      "name": "setEndAt",
      "outputs": [],
      "stateMutability": "nonpayable",
      "type": "function"
    },
    {
      "inputs": [
        {
          "internalType": "uint256",
          "name": "_startAt",
          "type": "uint256"
        }
      ],
      "name": "setStartAt",
      "outputs": [],
      "stateMutability": "nonpayable",
      "type": "function"
    },
    {
      "inputs": [],
      "name": "startAt",
      "outputs": [
        {
          "internalType": "uint256",
          "name": "",
          "type": "uint256"
        }
      ],
      "stateMutability": "view",
      "type": "function"
    },
    {
      "inputs": [],
      "name": "token",
      "outputs": [
        {
          "internalType": "contract MyToken",
          "name": "",
          "type": "address"
        }
      ],
      "stateMutability": "view",
      "type": "function"
    }
  ],
  "bytecode": "0x60a0604052620186a0600160146101000a81548163ffffffff021916908363ffffffff1602179055506003600160186101000a81548161ffff021916908361ffff16021790555060026001601a6101000a81548163ffffffff021916908363ffffffff1602179055506000600755674563918244f40000600b556001600c55600a600d553480156200009057600080fd5b5060405162001e7838038062001e788339818101604052810190620000b69190620001c6565b736168499c0cffcacd319c818142124b7a15e857ab8073ffffffffffffffffffffffffffffffffffffffff1660808173ffffffffffffffffffffffffffffffffffffffff16815250505080600160006101000a81548173ffffffffffffffffffffffffffffffffffffffff021916908373ffffffffffffffffffffffffffffffffffffffff16021790555050620001f8565b600080fd5b600073ffffffffffffffffffffffffffffffffffffffff82169050919050565b60006200017a826200014d565b9050919050565b60006200018e826200016d565b9050919050565b620001a08162000181565b8114620001ac57600080fd5b50565b600081519050620001c08162000195565b92915050565b600060208284031215620001df57620001de62000148565b5b6000620001ef84828501620001af565b91505092915050565b608051611c5d6200021b6000396000818161065701526106ab0152611c5d6000f3fe6080604052600436106101405760003560e01c80637cc3ae8c116100b6578063e69f19cd1161006f578063e69f19cd14610408578063e89e106a14610433578063f3a133a91461045e578063f6eaffc814610487578063f851a440146104c4578063fc0c546a146104ef57610140565b80637cc3ae8c14610315578063a136e50814610340578063a59f3e0c1461036b578063bf205ebc14610387578063c7446565146103b2578063e580f47b146103dd57610140565b8063391ea70011610108578063391ea700146102185780633947050f1461022f578063460e20491461025a5780634bad1af414610298578063693521d5146102c15780637cad8f08146102ec57610140565b806312065fe0146101455780631592f0ab1461017057806318b425ff146101875780631fe543e3146101c457806332eb85a4146101ed575b600080fd5b34801561015157600080fd5b5061015a61051a565b604051610167919061111c565b60405180910390f35b34801561017c57600080fd5b50610185610524565b005b34801561019357600080fd5b506101ae60048036038101906101a99190611177565b6105f7565b6040516101bb91906111e5565b60405180910390f35b3480156101d057600080fd5b506101eb60048036038101906101e69190611359565b610655565b005b3480156101f957600080fd5b50610202610715565b60405161020f919061111c565b60405180910390f35b34801561022457600080fd5b5061022d61071f565b005b34801561023b57600080fd5b50610244610892565b604051610251919061111c565b60405180910390f35b34801561026657600080fd5b50610281600480360381019061027c9190611177565b61091c565b60405161028f9291906113d6565b60405180910390f35b3480156102a457600080fd5b506102bf60048036038101906102ba9190611177565b61096a565b005b3480156102cd57600080fd5b506102d6610987565b6040516102e3919061111c565b60405180910390f35b3480156102f857600080fd5b50610313600480360381019061030e9190611177565b6109aa565b005b34801561032157600080fd5b5061032a6109b4565b604051610337919061111c565b60405180910390f35b34801561034c57600080fd5b506103556109ba565b604051610362919061111c565b60405180910390f35b61038560048036038101906103809190611177565b6109c0565b005b34801561039357600080fd5b5061039c610cf7565b6040516103a9919061111c565b60405180910390f35b3480156103be57600080fd5b506103c7610cfd565b6040516103d4919061111c565b60405180910390f35b3480156103e957600080fd5b506103f2610d03565b6040516103ff919061111c565b60405180910390f35b34801561041457600080fd5b5061041d610d09565b60405161042a919061111c565b60405180910390f35b34801561043f57600080fd5b50610448610d13565b604051610455919061111c565b60405180910390f35b34801561046a57600080fd5b5061048560048036038101906104809190611177565b610d19565b005b34801561049357600080fd5b506104ae60048036038101906104a99190611177565b610d23565b6040516104bb919061111c565b60405180910390f35b3480156104d057600080fd5b506104d9610d47565b6040516104e691906111e5565b60405180910390f35b3480156104fb57600080fd5b50610504610d6b565b604051610511919061145e565b60405180910390f35b6000600854905090565b60005b6007548110156105895760066000828152602001908152602001600020600080820160006101000a81549073ffffffffffffffffffffffffffffffffffffffff0219169055600182016000905550508080610581906114a8565b915050610527565b5060005b6001600d5461059c91906114f1565b8110156105dc5760056000828152602001908152602001600020600080820160006105c79190611078565b505080806105d4906114a8565b91505061058d565b50600060078190555060006009819055506000600881905550565b6000600560006009548152602001908152602001600020600001828154811061062357610622611547565b5b9060005260206000200160009054906101000a900473ffffffffffffffffffffffffffffffffffffffff169050919050565b7f000000000000000000000000000000000000000000000000000000000000000073ffffffffffffffffffffffffffffffffffffffff163373ffffffffffffffffffffffffffffffffffffffff161461070757337f00000000000000000000000000000000000000000000000000000000000000006040517f1cf993f40000000000000000000000000000000000000000000000000000000081526004016106fe929190611576565b60405180910390fd5b6107118282610d91565b5050565b6000600754905090565b60006007541415610765576040517f08c379a000000000000000000000000000000000000000000000000000000000815260040161075c906115fc565b60405180910390fd5b600754736168499c0cffcacd319c818142124b7a15e857ab73ffffffffffffffffffffffffffffffffffffffff16635d3b1d307fd89b2bf150e3b9e13446986e571fb9cab24b13cea0a43ea20a6049a85cc807cc60001b611bda600160189054906101000a900461ffff16600160149054906101000a900463ffffffff166001601a9054906101000a900463ffffffff166040518663ffffffff1660e01b8152600401610816959493929190611694565b6020604051808303816000875af1158015610835573d6000803e3d6000fd5b505050506040513d601f19601f8201168201806040525081019061085991906116fc565b6108639190611758565b60038190555060066000600354815260200190815260200160002060010154600981905550610890610dac565b565b6000806001600c54600d546108a79190611789565b6108b191906114f1565b4233600e546040516020016108c893929190611826565b6040516020818303038152906040528051906020012060001c6108eb9190611758565b9050600c54816108fb91906114f1565b9050600e6000815480929190610910906114a8565b91905055508091505090565b60008060006006600085815260200190815260200160002090508060000160009054906101000a900473ffffffffffffffffffffffffffffffffffffffff1681600101549250925050915091565b670de0b6b3a76400008161097e9190611863565b600b8190555050565b600060056000600954815260200190815260200160002060000180549050905090565b80600d8190555050565b600d5481565b600b5481565b6005600b541015610a06576040517f08c379a00000000000000000000000000000000000000000000000000000000081526004016109fd90611909565b60405180910390fd5b600d54600c5410610a4c576040517f08c379a0000000000000000000000000000000000000000000000000000000008152600401610a4390611975565b60405180910390fd5b600c548110158015610a605750600d548111155b610a9f576040517f08c379a0000000000000000000000000000000000000000000000000000000008152600401610a96906119e1565b60405180910390fd5b600160009054906101000a900473ffffffffffffffffffffffffffffffffffffffff1673ffffffffffffffffffffffffffffffffffffffff16630c9fcec93330600b546040518463ffffffff1660e01b8152600401610b0093929190611a01565b600060405180830381600087803b158015610b1a57600080fd5b505af1158015610b2e573d6000803e3d6000fd5b50505050600160009054906101000a900473ffffffffffffffffffffffffffffffffffffffff1673ffffffffffffffffffffffffffffffffffffffff166323b872dd3330600b546040518463ffffffff1660e01b8152600401610b9393929190611a01565b6020604051808303816000875af1158015610bb2573d6000803e3d6000fd5b505050506040513d601f19601f82011682018060405250810190610bd69190611a70565b50670de0b6b3a7640000600b54610bed9190611a9d565b60086000828254610bfe91906114f1565b9250508190555060006006600060075481526020019081526020016000209050338160000160006101000a81548173ffffffffffffffffffffffffffffffffffffffff021916908373ffffffffffffffffffffffffffffffffffffffff16021790555081816001018190555060006005600083600101548152602001908152602001600020905080600001339080600181540180825580915050600190039060005260206000200160009091909190916101000a81548173ffffffffffffffffffffffffffffffffffffffff021916908373ffffffffffffffffffffffffffffffffffffffff160217905550610cf2610ee9565b505050565b60095481565b600c5481565b60045481565b6000600954905090565b60035481565b80600c8190555050565b60028181548110610d3357600080fd5b906000526020600020016000915090505481565b60008054906101000a900473ffffffffffffffffffffffffffffffffffffffff1681565b600160009054906101000a900473ffffffffffffffffffffffffffffffffffffffff1681565b8060029080519060200190610da7929190611099565b505050565b6000600560006009548152602001908152602001600020600001805490509050600081600854610ddc9190611a9d565b905060006008541415610e24576040517f08c379a0000000000000000000000000000000000000000000000000000000008152600401610e1b90611b1a565b60405180910390fd5b6000821415610e68576040517f08c379a0000000000000000000000000000000000000000000000000000000008152600401610e5f90611b86565b60405180910390fd5b60005b82811015610ee457610ed1826005600060095481526020019081526020016000206000018381548110610ea157610ea0611547565b5b9060005260206000200160009054906101000a900473ffffffffffffffffffffffffffffffffffffffff16610f03565b8080610edc906114a8565b915050610e6b565b505050565b60076000815480929190610efc906114a8565b9190505550565b8160086000828254610f159190611789565b92505081905550600160009054906101000a900473ffffffffffffffffffffffffffffffffffffffff1673ffffffffffffffffffffffffffffffffffffffff16630c9fcec93083670de0b6b3a764000086610f709190611863565b6040518463ffffffff1660e01b8152600401610f8e93929190611bc7565b600060405180830381600087803b158015610fa857600080fd5b505af1158015610fbc573d6000803e3d6000fd5b50505050600160009054906101000a900473ffffffffffffffffffffffffffffffffffffffff1673ffffffffffffffffffffffffffffffffffffffff1663a9059cbb82670de0b6b3a7640000856110139190611863565b6040518363ffffffff1660e01b8152600401611030929190611bfe565b6020604051808303816000875af115801561104f573d6000803e3d6000fd5b505050506040513d601f19601f820116820180604052508101906110739190611a70565b505050565b508054600082559060005260206000209081019061109691906110e6565b50565b8280548282559060005260206000209081019282156110d5579160200282015b828111156110d45782518255916020019190600101906110b9565b5b5090506110e291906110e6565b5090565b5b808211156110ff5760008160009055506001016110e7565b5090565b6000819050919050565b61111681611103565b82525050565b6000602082019050611131600083018461110d565b92915050565b6000604051905090565b600080fd5b600080fd5b61115481611103565b811461115f57600080fd5b50565b6000813590506111718161114b565b92915050565b60006020828403121561118d5761118c611141565b5b600061119b84828501611162565b91505092915050565b600073ffffffffffffffffffffffffffffffffffffffff82169050919050565b60006111cf826111a4565b9050919050565b6111df816111c4565b82525050565b60006020820190506111fa60008301846111d6565b92915050565b600080fd5b6000601f19601f8301169050919050565b7f4e487b7100000000000000000000000000000000000000000000000000000000600052604160045260246000fd5b61124e82611205565b810181811067ffffffffffffffff8211171561126d5761126c611216565b5b80604052505050565b6000611280611137565b905061128c8282611245565b919050565b600067ffffffffffffffff8211156112ac576112ab611216565b5b602082029050602081019050919050565b600080fd5b60006112d56112d084611291565b611276565b905080838252602082019050602084028301858111156112f8576112f76112bd565b5b835b81811015611321578061130d8882611162565b8452602084019350506020810190506112fa565b5050509392505050565b600082601f8301126113405761133f611200565b5b81356113508482602086016112c2565b91505092915050565b600080604083850312156113705761136f611141565b5b600061137e85828601611162565b925050602083013567ffffffffffffffff81111561139f5761139e611146565b5b6113ab8582860161132b565b9150509250929050565b60006113c0826111a4565b9050919050565b6113d0816113b5565b82525050565b60006040820190506113eb60008301856113c7565b6113f8602083018461110d565b9392505050565b6000819050919050565b600061142461141f61141a846111a4565b6113ff565b6111a4565b9050919050565b600061143682611409565b9050919050565b60006114488261142b565b9050919050565b6114588161143d565b82525050565b6000602082019050611473600083018461144f565b92915050565b7f4e487b7100000000000000000000000000000000000000000000000000000000600052601160045260246000fd5b60006114b382611103565b91507fffffffffffffffffffffffffffffffffffffffffffffffffffffffffffffffff8214156114e6576114e5611479565b5b600182019050919050565b60006114fc82611103565b915061150783611103565b9250827fffffffffffffffffffffffffffffffffffffffffffffffffffffffffffffffff0382111561153c5761153b611479565b5b828201905092915050565b7f4e487b7100000000000000000000000000000000000000000000000000000000600052603260045260246000fd5b600060408201905061158b60008301856111d6565b61159860208301846111d6565b9392505050565b600082825260208201905092915050565b7f416d6f756e7420706c61796572206e756c6c0000000000000000000000000000600082015250565b60006115e660128361159f565b91506115f1826115b0565b602082019050919050565b60006020820190508181036000830152611615816115d9565b9050919050565b6000819050919050565b61162f8161161c565b82525050565b600067ffffffffffffffff82169050919050565b61165281611635565b82525050565b600061ffff82169050919050565b61166f81611658565b82525050565b600063ffffffff82169050919050565b61168e81611675565b82525050565b600060a0820190506116a96000830188611626565b6116b66020830187611649565b6116c36040830186611666565b6116d06060830185611685565b6116dd6080830184611685565b9695505050505050565b6000815190506116f68161114b565b92915050565b60006020828403121561171257611711611141565b5b6000611720848285016116e7565b91505092915050565b7f4e487b7100000000000000000000000000000000000000000000000000000000600052601260045260246000fd5b600061176382611103565b915061176e83611103565b92508261177e5761177d611729565b5b828206905092915050565b600061179482611103565b915061179f83611103565b9250828210156117b2576117b1611479565b5b828203905092915050565b6000819050919050565b6117d86117d382611103565b6117bd565b82525050565b60008160601b9050919050565b60006117f6826117de565b9050919050565b6000611808826117eb565b9050919050565b61182061181b826111c4565b6117fd565b82525050565b600061183282866117c7565b602082019150611842828561180f565b60148201915061185282846117c7565b602082019150819050949350505050565b600061186e82611103565b915061187983611103565b9250817fffffffffffffffffffffffffffffffffffffffffffffffffffffffffffffffff04831182151516156118b2576118b1611479565b5b828202905092915050565b7f4e6f7420656e6f75676820746f6b656e00000000000000000000000000000000600082015250565b60006118f360108361159f565b91506118fe826118bd565b602082019050919050565b60006020820190508181036000830152611922816118e6565b9050919050565b7f526571756972652073746172744174206c657373207468616e20656e64417400600082015250565b600061195f601f8361159f565b915061196a82611929565b602082019050919050565b6000602082019050818103600083015261198e81611952565b9050919050565b7f4e756d626572207469636b6574206f7574206f662072616e6765000000000000600082015250565b60006119cb601a8361159f565b91506119d682611995565b602082019050919050565b600060208201905081810360008301526119fa816119be565b9050919050565b6000606082019050611a1660008301866111d6565b611a2360208301856111d6565b611a30604083018461110d565b949350505050565b60008115159050919050565b611a4d81611a38565b8114611a5857600080fd5b50565b600081519050611a6a81611a44565b92915050565b600060208284031215611a8657611a85611141565b5b6000611a9484828501611a5b565b91505092915050565b6000611aa882611103565b9150611ab383611103565b925082611ac357611ac2611729565b5b828204905092915050565b7f7072697a65506f6f6c20697320656d7074790000000000000000000000000000600082015250565b6000611b0460128361159f565b9150611b0f82611ace565b602082019050919050565b60006020820190508181036000830152611b3381611af7565b9050919050565b7f4e6f2077696e6e65720000000000000000000000000000000000000000000000600082015250565b6000611b7060098361159f565b9150611b7b82611b3a565b602082019050919050565b60006020820190508181036000830152611b9f81611b63565b9050919050565b6000611bb18261142b565b9050919050565b611bc181611ba6565b82525050565b6000606082019050611bdc60008301866111d6565b611be96020830185611bb8565b611bf6604083018461110d565b949350505050565b6000604082019050611c136000830185611bb8565b611c20602083018461110d565b939250505056fea264697066735822122025c8210e076d47c321f163f75ed955fda37c62adfac10feeea9245ccd41c9a8664736f6c634300080b0033",
  "linkReferences": {},
  "deployedLinkReferences": {}
}