{
  "_format": "hh-sol-artifact-1",
  "contractName": "Lottery",
  "sourceName": "contracts/Lottery.sol",
  "abi": [
    {
      "inputs": [
        {
          "internalType": "address",
          "name": "have",
          "type": "address"
        },
        {
          "internalType": "address",
          "name": "want",
          "type": "address"
        }
      ],
      "name": "OnlyCoordinatorCanFulfill",
      "type": "error"
    },
    {
      "inputs": [],
      "name": "_requestRandomWords",
      "outputs": [],
      "stateMutability": "nonpayable",
      "type": "function"
    },
    {
      "inputs": [],
      "name": "closeLottery",
      "outputs": [],
      "stateMutability": "nonpayable",
      "type": "function"
    },
    {
      "inputs": [
        {
          "internalType": "uint256",
          "name": "numTicket",
          "type": "uint256"
        }
      ],
      "name": "enter",
      "outputs": [],
      "stateMutability": "payable",
      "type": "function"
    },
    {
      "inputs": [],
      "name": "getAmountPlayer",
      "outputs": [
        {
          "internalType": "uint256",
          "name": "",
          "type": "uint256"
        }
      ],
      "stateMutability": "view",
      "type": "function"
    },
    {
      "inputs": [],
      "name": "getAmountWinner",
      "outputs": [
        {
          "internalType": "uint256",
          "name": "",
          "type": "uint256"
        }
      ],
      "stateMutability": "view",
      "type": "function"
    },
    {
      "inputs": [],
      "name": "getBalance",
      "outputs": [
        {
          "internalType": "uint256",
          "name": "",
          "type": "uint256"
        }
      ],
      "stateMutability": "view",
      "type": "function"
    },
    {
      "inputs": [
        {
          "internalType": "uint256",
          "name": "index",
          "type": "uint256"
        }
      ],
      "name": "getListWinner",
      "outputs": [
        {
          "internalType": "address",
          "name": "",
          "type": "address"
        }
      ],
      "stateMutability": "view",
      "type": "function"
    },
    {
      "inputs": [
        {
          "internalType": "uint256",
          "name": "_index",
          "type": "uint256"
        }
      ],
      "name": "getPlayers",
      "outputs": [
        {
          "internalType": "address payable",
          "name": "",
          "type": "address"
        },
        {
          "internalType": "uint256",
          "name": "",
          "type": "uint256"
        }
      ],
      "stateMutability": "view",
      "type": "function"
    },
    {
      "inputs": [],
      "name": "lotteryId",
      "outputs": [
        {
          "internalType": "uint256",
          "name": "",
          "type": "uint256"
        }
      ],
      "stateMutability": "view",
      "type": "function"
    },
    {
      "inputs": [
        {
          "internalType": "uint256",
          "name": "requestId",
          "type": "uint256"
        },
        {
          "internalType": "uint256[]",
          "name": "randomWords",
          "type": "uint256[]"
        }
      ],
      "name": "rawFulfillRandomWords",
      "outputs": [],
      "stateMutability": "nonpayable",
      "type": "function"
    },
    {
      "inputs": [
        {
          "internalType": "uint256",
          "name": "",
          "type": "uint256"
        }
      ],
      "name": "s_randomWords",
      "outputs": [
        {
          "internalType": "uint256",
          "name": "",
          "type": "uint256"
        }
      ],
      "stateMutability": "view",
      "type": "function"
    },
    {
      "inputs": [],
      "name": "s_requestId",
      "outputs": [
        {
          "internalType": "uint256",
          "name": "",
          "type": "uint256"
        }
      ],
      "stateMutability": "view",
      "type": "function"
    },
    {
      "inputs": [],
      "name": "token",
      "outputs": [
        {
          "internalType": "contract IERC20",
          "name": "",
          "type": "address"
        }
      ],
      "stateMutability": "view",
      "type": "function"
    }
  ],
  "bytecode": "0x60a0604052620186a06000806101000a81548163ffffffff021916908363ffffffff1602179055506003600060046101000a81548161ffff021916908361ffff1602179055506002600060066101000a81548163ffffffff021916908363ffffffff16021790555033600360006101000a81548173ffffffffffffffffffffffffffffffffffffffff021916908373ffffffffffffffffffffffffffffffffffffffff16021790555060006007553480156100b957600080fd5b50736168499c0cffcacd319c818142124b7a15e857ab8073ffffffffffffffffffffffffffffffffffffffff1660808173ffffffffffffffffffffffffffffffffffffffff1681525050506080516113046101266000396000818161035c01526103b001526113046000f3fe6080604052600436106100c25760003560e01c8063693521d51161007f578063e580f47b11610059578063e580f47b14610236578063e89e106a14610261578063f6eaffc81461028c578063fc0c546a146102c9576100c2565b8063693521d5146101d85780636fd0981614610203578063a59f3e0c1461021a576100c2565b806312065fe0146100c757806318b425ff146100f25780631fe543e31461012f57806332eb85a414610158578063391ea70014610183578063460e20491461019a575b600080fd5b3480156100d357600080fd5b506100dc6102f4565b6040516100e99190610ab8565b60405180910390f35b3480156100fe57600080fd5b5061011960048036038101906101149190610b13565b6102fc565b6040516101269190610b81565b60405180910390f35b34801561013b57600080fd5b5061015660048036038101906101519190610cf5565b61035a565b005b34801561016457600080fd5b5061016d61041a565b60405161017a9190610ab8565b60405180910390f35b34801561018f57600080fd5b50610198610424565b005b3480156101a657600080fd5b506101c160048036038101906101bc9190610b13565b6105a1565b6040516101cf929190610d72565b60405180910390f35b3480156101e457600080fd5b506101ed6105ef565b6040516101fa9190610ab8565b60405180910390f35b34801561020f57600080fd5b50610218610612565b005b610234600480360381019061022f9190610b13565b6107a7565b005b34801561024257600080fd5b5061024b610946565b6040516102589190610ab8565b60405180910390f35b34801561026d57600080fd5b5061027661094c565b6040516102839190610ab8565b60405180910390f35b34801561029857600080fd5b506102b360048036038101906102ae9190610b13565b610952565b6040516102c09190610ab8565b60405180910390f35b3480156102d557600080fd5b506102de610976565b6040516102eb9190610dfa565b60405180910390f35b600047905090565b6000600560006009548152602001908152602001600020600001828154811061032857610327610e15565b5b9060005260206000200160009054906101000a900473ffffffffffffffffffffffffffffffffffffffff169050919050565b7f000000000000000000000000000000000000000000000000000000000000000073ffffffffffffffffffffffffffffffffffffffff163373ffffffffffffffffffffffffffffffffffffffff161461040c57337f00000000000000000000000000000000000000000000000000000000000000006040517f1cf993f4000000000000000000000000000000000000000000000000000000008152600401610403929190610e44565b60405180910390fd5b610416828261099c565b5050565b6000600754905090565b600360009054906101000a900473ffffffffffffffffffffffffffffffffffffffff1673ffffffffffffffffffffffffffffffffffffffff163373ffffffffffffffffffffffffffffffffffffffff161461047e57600080fd5b600754736168499c0cffcacd319c818142124b7a15e857ab73ffffffffffffffffffffffffffffffffffffffff16635d3b1d307fd89b2bf150e3b9e13446986e571fb9cab24b13cea0a43ea20a6049a85cc807cc60001b611cca600060049054906101000a900461ffff1660008054906101000a900463ffffffff16600060069054906101000a900463ffffffff166040518663ffffffff1660e01b815260040161052d959493929190610ee5565b6020604051808303816000875af115801561054c573d6000803e3d6000fd5b505050506040513d601f19601f820116820180604052508101906105709190610f4d565b61057a9190610fa9565b60028190555060066000600254815260200190815260200160002060010154600981905550565b60008060006006600085815260200190815260200160002090508060000160009054906101000a900473ffffffffffffffffffffffffffffffffffffffff1681600101549250925050915091565b600060056000600954815260200190815260200160002060000180549050905090565b600360009054906101000a900473ffffffffffffffffffffffffffffffffffffffff1673ffffffffffffffffffffffffffffffffffffffff163373ffffffffffffffffffffffffffffffffffffffff161461066c57600080fd5b600060056000600954815260200190815260200160002060000180549050905060008160085461069c9190611009565b905060004714156106e2576040517f08c379a00000000000000000000000000000000000000000000000000000000081526004016106d990611097565b60405180910390fd5b6000821415610726576040517f08c379a000000000000000000000000000000000000000000000000000000000815260040161071d90611103565b60405180910390fd5b60005b828110156107a25761078f82600560006009548152602001908152602001600020600001838154811061075f5761075e610e15565b5b9060005260206000200160009054906101000a900473ffffffffffffffffffffffffffffffffffffffff166109b7565b808061079a90611123565b915050610729565b505050565b600234116107ea576040517f08c379a00000000000000000000000000000000000000000000000000000000081526004016107e1906111b8565b60405180910390fd5b600081101580156107fc5750600a8111155b61083b576040517f08c379a000000000000000000000000000000000000000000000000000000000815260040161083290611224565b60405180910390fd5b346008600082825461084d9190611244565b9250508190555060006006600060075481526020019081526020016000209050338160000160006101000a81548173ffffffffffffffffffffffffffffffffffffffff021916908373ffffffffffffffffffffffffffffffffffffffff16021790555081816001018190555060006005600083600101548152602001908152602001600020905080600001339080600181540180825580915050600190039060005260206000200160009091909190916101000a81548173ffffffffffffffffffffffffffffffffffffffff021916908373ffffffffffffffffffffffffffffffffffffffff160217905550610941610a1b565b505050565b60045481565b60025481565b6001818154811061096257600080fd5b906000526020600020016000915090505481565b600b60009054906101000a900473ffffffffffffffffffffffffffffffffffffffff1681565b80600190805190602001906109b2929190610a35565b505050565b81600860008282546109c9919061129a565b925050819055508073ffffffffffffffffffffffffffffffffffffffff166108fc839081150290604051600060405180830381858888f19350505050158015610a16573d6000803e3d6000fd5b505050565b60076000815480929190610a2e90611123565b9190505550565b828054828255906000526020600020908101928215610a71579160200282015b82811115610a70578251825591602001919060010190610a55565b5b509050610a7e9190610a82565b5090565b5b80821115610a9b576000816000905550600101610a83565b5090565b6000819050919050565b610ab281610a9f565b82525050565b6000602082019050610acd6000830184610aa9565b92915050565b6000604051905090565b600080fd5b600080fd5b610af081610a9f565b8114610afb57600080fd5b50565b600081359050610b0d81610ae7565b92915050565b600060208284031215610b2957610b28610add565b5b6000610b3784828501610afe565b91505092915050565b600073ffffffffffffffffffffffffffffffffffffffff82169050919050565b6000610b6b82610b40565b9050919050565b610b7b81610b60565b82525050565b6000602082019050610b966000830184610b72565b92915050565b600080fd5b6000601f19601f8301169050919050565b7f4e487b7100000000000000000000000000000000000000000000000000000000600052604160045260246000fd5b610bea82610ba1565b810181811067ffffffffffffffff82111715610c0957610c08610bb2565b5b80604052505050565b6000610c1c610ad3565b9050610c288282610be1565b919050565b600067ffffffffffffffff821115610c4857610c47610bb2565b5b602082029050602081019050919050565b600080fd5b6000610c71610c6c84610c2d565b610c12565b90508083825260208201905060208402830185811115610c9457610c93610c59565b5b835b81811015610cbd5780610ca98882610afe565b845260208401935050602081019050610c96565b5050509392505050565b600082601f830112610cdc57610cdb610b9c565b5b8135610cec848260208601610c5e565b91505092915050565b60008060408385031215610d0c57610d0b610add565b5b6000610d1a85828601610afe565b925050602083013567ffffffffffffffff811115610d3b57610d3a610ae2565b5b610d4785828601610cc7565b9150509250929050565b6000610d5c82610b40565b9050919050565b610d6c81610d51565b82525050565b6000604082019050610d876000830185610d63565b610d946020830184610aa9565b9392505050565b6000819050919050565b6000610dc0610dbb610db684610b40565b610d9b565b610b40565b9050919050565b6000610dd282610da5565b9050919050565b6000610de482610dc7565b9050919050565b610df481610dd9565b82525050565b6000602082019050610e0f6000830184610deb565b92915050565b7f4e487b7100000000000000000000000000000000000000000000000000000000600052603260045260246000fd5b6000604082019050610e596000830185610b72565b610e666020830184610b72565b9392505050565b6000819050919050565b610e8081610e6d565b82525050565b600067ffffffffffffffff82169050919050565b610ea381610e86565b82525050565b600061ffff82169050919050565b610ec081610ea9565b82525050565b600063ffffffff82169050919050565b610edf81610ec6565b82525050565b600060a082019050610efa6000830188610e77565b610f076020830187610e9a565b610f146040830186610eb7565b610f216060830185610ed6565b610f2e6080830184610ed6565b9695505050505050565b600081519050610f4781610ae7565b92915050565b600060208284031215610f6357610f62610add565b5b6000610f7184828501610f38565b91505092915050565b7f4e487b7100000000000000000000000000000000000000000000000000000000600052601260045260246000fd5b6000610fb482610a9f565b9150610fbf83610a9f565b925082610fcf57610fce610f7a565b5b828206905092915050565b7f4e487b7100000000000000000000000000000000000000000000000000000000600052601160045260246000fd5b600061101482610a9f565b915061101f83610a9f565b92508261102f5761102e610f7a565b5b828204905092915050565b600082825260208201905092915050565b7f7072697a65506f6f6c20697320656d7074790000000000000000000000000000600082015250565b600061108160128361103a565b915061108c8261104b565b602082019050919050565b600060208201905081810360008301526110b081611074565b9050919050565b7f4e6f2077696e6e65720000000000000000000000000000000000000000000000600082015250565b60006110ed60098361103a565b91506110f8826110b7565b602082019050919050565b6000602082019050818103600083015261111c816110e0565b9050919050565b600061112e82610a9f565b91507fffffffffffffffffffffffffffffffffffffffffffffffffffffffffffffffff82141561116157611160610fda565b5b600182019050919050565b7f4e6f7420656e6f75676820746f6b656e00000000000000000000000000000000600082015250565b60006111a260108361103a565b91506111ad8261116c565b602082019050919050565b600060208201905081810360008301526111d181611195565b9050919050565b7f4e756d626572207469636b6574206f7574206f662072616e6765000000000000600082015250565b600061120e601a8361103a565b9150611219826111d8565b602082019050919050565b6000602082019050818103600083015261123d81611201565b9050919050565b600061124f82610a9f565b915061125a83610a9f565b9250827fffffffffffffffffffffffffffffffffffffffffffffffffffffffffffffffff0382111561128f5761128e610fda565b5b828201905092915050565b60006112a582610a9f565b91506112b083610a9f565b9250828210156112c3576112c2610fda565b5b82820390509291505056fea264697066735822122034d72a17ce466f81d505b6f6a42c29c8933b930076702f7ccf86d82e6dee665c64736f6c634300080b0033",
  "linkReferences": {},
  "deployedLinkReferences": {}
}