{
  "_format": "hh-sol-artifact-1",
  "contractName": "Lottery",
  "sourceName": "contracts/Lottery.sol",
  "abi": [
    {
      "inputs": [
        {
          "internalType": "contract MyToken",
          "name": "_token",
          "type": "address"
        }
      ],
      "stateMutability": "nonpayable",
      "type": "constructor"
    },
    {
      "inputs": [
        {
          "internalType": "address",
          "name": "have",
          "type": "address"
        },
        {
          "internalType": "address",
          "name": "want",
          "type": "address"
        }
      ],
      "name": "OnlyCoordinatorCanFulfill",
      "type": "error"
    },
    {
      "inputs": [],
      "name": "_requestRandomWords",
      "outputs": [],
      "stateMutability": "nonpayable",
      "type": "function"
    },
    {
      "inputs": [
        {
          "internalType": "uint256",
          "name": "amountWinner",
          "type": "uint256"
        }
      ],
      "name": "_reset",
      "outputs": [],
      "stateMutability": "nonpayable",
      "type": "function"
    },
    {
      "inputs": [],
      "name": "admin",
      "outputs": [
        {
          "internalType": "address",
          "name": "",
          "type": "address"
        }
      ],
      "stateMutability": "view",
      "type": "function"
    },
    {
      "inputs": [],
      "name": "costTicket",
      "outputs": [
        {
          "internalType": "uint256",
          "name": "",
          "type": "uint256"
        }
      ],
      "stateMutability": "view",
      "type": "function"
    },
    {
      "inputs": [],
      "name": "endAt",
      "outputs": [
        {
          "internalType": "uint256",
          "name": "",
          "type": "uint256"
        }
      ],
      "stateMutability": "view",
      "type": "function"
    },
    {
      "inputs": [
        {
          "internalType": "uint256",
          "name": "numTicket",
          "type": "uint256"
        }
      ],
      "name": "enter",
      "outputs": [],
      "stateMutability": "payable",
      "type": "function"
    },
    {
      "inputs": [],
      "name": "getAmountPlayer",
      "outputs": [
        {
          "internalType": "uint256",
          "name": "",
          "type": "uint256"
        }
      ],
      "stateMutability": "view",
      "type": "function"
    },
    {
      "inputs": [],
      "name": "getAmountWinner",
      "outputs": [
        {
          "internalType": "uint256",
          "name": "",
          "type": "uint256"
        }
      ],
      "stateMutability": "view",
      "type": "function"
    },
    {
      "inputs": [],
      "name": "getBalance",
      "outputs": [
        {
          "internalType": "uint256",
          "name": "",
          "type": "uint256"
        }
      ],
      "stateMutability": "view",
      "type": "function"
    },
    {
      "inputs": [
        {
          "internalType": "uint256",
          "name": "index",
          "type": "uint256"
        }
      ],
      "name": "getListWinner",
      "outputs": [
        {
          "internalType": "address",
          "name": "",
          "type": "address"
        }
      ],
      "stateMutability": "view",
      "type": "function"
    },
    {
      "inputs": [],
      "name": "getLuckyNumber",
      "outputs": [
        {
          "internalType": "uint256",
          "name": "",
          "type": "uint256"
        }
      ],
      "stateMutability": "view",
      "type": "function"
    },
    {
      "inputs": [
        {
          "internalType": "uint256",
          "name": "_index",
          "type": "uint256"
        }
      ],
      "name": "getPlayers",
      "outputs": [
        {
          "internalType": "address payable",
          "name": "",
          "type": "address"
        },
        {
          "internalType": "uint256",
          "name": "",
          "type": "uint256"
        }
      ],
      "stateMutability": "view",
      "type": "function"
    },
    {
      "inputs": [],
      "name": "lotteryId",
      "outputs": [
        {
          "internalType": "uint256",
          "name": "",
          "type": "uint256"
        }
      ],
      "stateMutability": "view",
      "type": "function"
    },
    {
      "inputs": [],
      "name": "luckyNumber",
      "outputs": [
        {
          "internalType": "uint256",
          "name": "",
          "type": "uint256"
        }
      ],
      "stateMutability": "view",
      "type": "function"
    },
    {
      "inputs": [],
      "name": "randomTicket",
      "outputs": [
        {
          "internalType": "uint256",
          "name": "",
          "type": "uint256"
        }
      ],
      "stateMutability": "nonpayable",
      "type": "function"
    },
    {
      "inputs": [
        {
          "internalType": "uint256",
          "name": "requestId",
          "type": "uint256"
        },
        {
          "internalType": "uint256[]",
          "name": "randomWords",
          "type": "uint256[]"
        }
      ],
      "name": "rawFulfillRandomWords",
      "outputs": [],
      "stateMutability": "nonpayable",
      "type": "function"
    },
    {
      "inputs": [
        {
          "internalType": "uint256",
          "name": "",
          "type": "uint256"
        }
      ],
      "name": "s_randomWords",
      "outputs": [
        {
          "internalType": "uint256",
          "name": "",
          "type": "uint256"
        }
      ],
      "stateMutability": "view",
      "type": "function"
    },
    {
      "inputs": [],
      "name": "s_requestId",
      "outputs": [
        {
          "internalType": "uint256",
          "name": "",
          "type": "uint256"
        }
      ],
      "stateMutability": "view",
      "type": "function"
    },
    {
      "inputs": [
        {
          "internalType": "uint256",
          "name": "_costTicket",
          "type": "uint256"
        }
      ],
      "name": "setCostTicket",
      "outputs": [],
      "stateMutability": "nonpayable",
      "type": "function"
    },
    {
      "inputs": [
        {
          "internalType": "uint256",
          "name": "_endAt",
          "type": "uint256"
        }
      ],
      "name": "setEndAt",
      "outputs": [],
      "stateMutability": "nonpayable",
      "type": "function"
    },
    {
      "inputs": [
        {
          "internalType": "uint256",
          "name": "_startAt",
          "type": "uint256"
        }
      ],
      "name": "setStartAt",
      "outputs": [],
      "stateMutability": "nonpayable",
      "type": "function"
    },
    {
      "inputs": [],
      "name": "startAt",
      "outputs": [
        {
          "internalType": "uint256",
          "name": "",
          "type": "uint256"
        }
      ],
      "stateMutability": "view",
      "type": "function"
    },
    {
      "inputs": [],
      "name": "token",
      "outputs": [
        {
          "internalType": "contract MyToken",
          "name": "",
          "type": "address"
        }
      ],
      "stateMutability": "view",
      "type": "function"
    }
  ],
  "bytecode": "0x60a0604052620186a0600160146101000a81548163ffffffff021916908363ffffffff1602179055506003600160186101000a81548161ffff021916908361ffff16021790555060026001601a6101000a81548163ffffffff021916908363ffffffff1602179055506000600755674563918244f40000600b556001600c55600a600d553480156200009057600080fd5b5060405162001e8138038062001e818339818101604052810190620000b69190620001c6565b736168499c0cffcacd319c818142124b7a15e857ab8073ffffffffffffffffffffffffffffffffffffffff1660808173ffffffffffffffffffffffffffffffffffffffff16815250505080600160006101000a81548173ffffffffffffffffffffffffffffffffffffffff021916908373ffffffffffffffffffffffffffffffffffffffff16021790555050620001f8565b600080fd5b600073ffffffffffffffffffffffffffffffffffffffff82169050919050565b60006200017a826200014d565b9050919050565b60006200018e826200016d565b9050919050565b620001a08162000181565b8114620001ac57600080fd5b50565b600081519050620001c08162000195565b92915050565b600060208284031215620001df57620001de62000148565b5b6000620001ef84828501620001af565b91505092915050565b608051611c666200021b6000396000818161059601526105ea0152611c666000f3fe6080604052600436106101405760003560e01c8063a136e508116100b6578063e69f19cd1161006f578063e69f19cd1461041a578063e89e106a14610445578063f3a133a914610470578063f6eaffc814610499578063f851a440146104d6578063fc0c546a1461050157610140565b8063a136e50814610329578063a59f3e0c14610354578063b02e69d314610370578063bf205ebc14610399578063c7446565146103c4578063e580f47b146103ef57610140565b80633947050f116101085780633947050f14610218578063460e2049146102435780634bad1af414610281578063693521d5146102aa5780637cad8f08146102d55780637cc3ae8c146102fe57610140565b806312065fe01461014557806318b425ff146101705780631fe543e3146101ad57806332eb85a4146101d6578063391ea70014610201575b600080fd5b34801561015157600080fd5b5061015a61052c565b6040516101679190611125565b60405180910390f35b34801561017c57600080fd5b5061019760048036038101906101929190611180565b610536565b6040516101a491906111ee565b60405180910390f35b3480156101b957600080fd5b506101d460048036038101906101cf9190611362565b610594565b005b3480156101e257600080fd5b506101eb610654565b6040516101f89190611125565b60405180910390f35b34801561020d57600080fd5b5061021661065e565b005b34801561022457600080fd5b5061022d6107d1565b60405161023a9190611125565b60405180910390f35b34801561024f57600080fd5b5061026a60048036038101906102659190611180565b61085b565b6040516102789291906113df565b60405180910390f35b34801561028d57600080fd5b506102a860048036038101906102a39190611180565b6108a9565b005b3480156102b657600080fd5b506102bf6108c6565b6040516102cc9190611125565b60405180910390f35b3480156102e157600080fd5b506102fc60048036038101906102f79190611180565b6108e9565b005b34801561030a57600080fd5b506103136108f3565b6040516103209190611125565b60405180910390f35b34801561033557600080fd5b5061033e6108f9565b60405161034b9190611125565b60405180910390f35b61036e60048036038101906103699190611180565b6108ff565b005b34801561037c57600080fd5b5061039760048036038101906103929190611180565b610c36565b005b3480156103a557600080fd5b506103ae610d00565b6040516103bb9190611125565b60405180910390f35b3480156103d057600080fd5b506103d9610d06565b6040516103e69190611125565b60405180910390f35b3480156103fb57600080fd5b50610404610d0c565b6040516104119190611125565b60405180910390f35b34801561042657600080fd5b5061042f610d12565b60405161043c9190611125565b60405180910390f35b34801561045157600080fd5b5061045a610d1c565b6040516104679190611125565b60405180910390f35b34801561047c57600080fd5b5061049760048036038101906104929190611180565b610d22565b005b3480156104a557600080fd5b506104c060048036038101906104bb9190611180565b610d2c565b6040516104cd9190611125565b60405180910390f35b3480156104e257600080fd5b506104eb610d50565b6040516104f891906111ee565b60405180910390f35b34801561050d57600080fd5b50610516610d74565b6040516105239190611467565b60405180910390f35b6000600854905090565b6000600560006009548152602001908152602001600020600001828154811061056257610561611482565b5b9060005260206000200160009054906101000a900473ffffffffffffffffffffffffffffffffffffffff169050919050565b7f000000000000000000000000000000000000000000000000000000000000000073ffffffffffffffffffffffffffffffffffffffff163373ffffffffffffffffffffffffffffffffffffffff161461064657337f00000000000000000000000000000000000000000000000000000000000000006040517f1cf993f400000000000000000000000000000000000000000000000000000000815260040161063d9291906114b1565b60405180910390fd5b6106508282610d9a565b5050565b6000600754905090565b600060075414156106a4576040517f08c379a000000000000000000000000000000000000000000000000000000000815260040161069b90611537565b60405180910390fd5b600754736168499c0cffcacd319c818142124b7a15e857ab73ffffffffffffffffffffffffffffffffffffffff16635d3b1d307fd89b2bf150e3b9e13446986e571fb9cab24b13cea0a43ea20a6049a85cc807cc60001b611cca600160189054906101000a900461ffff16600160149054906101000a900463ffffffff166001601a9054906101000a900463ffffffff166040518663ffffffff1660e01b81526004016107559594939291906115cf565b6020604051808303816000875af1158015610774573d6000803e3d6000fd5b505050506040513d601f19601f820116820180604052508101906107989190611637565b6107a29190611693565b600381905550600660006003548152602001908152602001600020600101546009819055506107cf610db5565b565b6000806001600c54600d546107e691906116f3565b6107f09190611727565b4233600e54604051602001610807939291906117e6565b6040516020818303038152906040528051906020012060001c61082a9190611693565b9050600c548161083a9190611727565b9050600e600081548092919061084f90611823565b91905055508091505090565b60008060006006600085815260200190815260200160002090508060000160009054906101000a900473ffffffffffffffffffffffffffffffffffffffff1681600101549250925050915091565b670de0b6b3a7640000816108bd919061186c565b600b8190555050565b600060056000600954815260200190815260200160002060000180549050905090565b80600d8190555050565b600d5481565b600b5481565b6005600b541015610945576040517f08c379a000000000000000000000000000000000000000000000000000000000815260040161093c90611912565b60405180910390fd5b600d54600c541061098b576040517f08c379a00000000000000000000000000000000000000000000000000000000081526004016109829061197e565b60405180910390fd5b600c54811015801561099f5750600d548111155b6109de576040517f08c379a00000000000000000000000000000000000000000000000000000000081526004016109d5906119ea565b60405180910390fd5b600160009054906101000a900473ffffffffffffffffffffffffffffffffffffffff1673ffffffffffffffffffffffffffffffffffffffff16630c9fcec93330600b546040518463ffffffff1660e01b8152600401610a3f93929190611a0a565b600060405180830381600087803b158015610a5957600080fd5b505af1158015610a6d573d6000803e3d6000fd5b50505050600160009054906101000a900473ffffffffffffffffffffffffffffffffffffffff1673ffffffffffffffffffffffffffffffffffffffff166323b872dd3330600b546040518463ffffffff1660e01b8152600401610ad293929190611a0a565b6020604051808303816000875af1158015610af1573d6000803e3d6000fd5b505050506040513d601f19601f82011682018060405250810190610b159190611a79565b50670de0b6b3a7640000600b54610b2c9190611aa6565b60086000828254610b3d9190611727565b9250508190555060006006600060075481526020019081526020016000209050338160000160006101000a81548173ffffffffffffffffffffffffffffffffffffffff021916908373ffffffffffffffffffffffffffffffffffffffff16021790555081816001018190555060006005600083600101548152602001908152602001600020905080600001339080600181540180825580915050600190039060005260206000200160009091909190916101000a81548173ffffffffffffffffffffffffffffffffffffffff021916908373ffffffffffffffffffffffffffffffffffffffff160217905550610c31610ef2565b505050565b60005b600754811015610c9b5760066000828152602001908152602001600020600080820160006101000a81549073ffffffffffffffffffffffffffffffffffffffff0219169055600182016000905550508080610c9390611823565b915050610c39565b5060005b81811015610ce0576005600082815260200190815260200160002060008082016000610ccb9190611081565b50508080610cd890611823565b915050610c9f565b506000905060006007819055506000600981905550600060088190555050565b60095481565b600c5481565b60045481565b6000600954905090565b60035481565b80600c8190555050565b60028181548110610d3c57600080fd5b906000526020600020016000915090505481565b60008054906101000a900473ffffffffffffffffffffffffffffffffffffffff1681565b600160009054906101000a900473ffffffffffffffffffffffffffffffffffffffff1681565b8060029080519060200190610db09291906110a2565b505050565b6000600560006009548152602001908152602001600020600001805490509050600081600854610de59190611aa6565b905060006008541415610e2d576040517f08c379a0000000000000000000000000000000000000000000000000000000008152600401610e2490611b23565b60405180910390fd5b6000821415610e71576040517f08c379a0000000000000000000000000000000000000000000000000000000008152600401610e6890611b8f565b60405180910390fd5b60005b82811015610eed57610eda826005600060095481526020019081526020016000206000018381548110610eaa57610ea9611482565b5b9060005260206000200160009054906101000a900473ffffffffffffffffffffffffffffffffffffffff16610f0c565b8080610ee590611823565b915050610e74565b505050565b60076000815480929190610f0590611823565b9190505550565b8160086000828254610f1e91906116f3565b92505081905550600160009054906101000a900473ffffffffffffffffffffffffffffffffffffffff1673ffffffffffffffffffffffffffffffffffffffff16630c9fcec93083670de0b6b3a764000086610f79919061186c565b6040518463ffffffff1660e01b8152600401610f9793929190611bd0565b600060405180830381600087803b158015610fb157600080fd5b505af1158015610fc5573d6000803e3d6000fd5b50505050600160009054906101000a900473ffffffffffffffffffffffffffffffffffffffff1673ffffffffffffffffffffffffffffffffffffffff1663a9059cbb82670de0b6b3a76400008561101c919061186c565b6040518363ffffffff1660e01b8152600401611039929190611c07565b6020604051808303816000875af1158015611058573d6000803e3d6000fd5b505050506040513d601f19601f8201168201806040525081019061107c9190611a79565b505050565b508054600082559060005260206000209081019061109f91906110ef565b50565b8280548282559060005260206000209081019282156110de579160200282015b828111156110dd5782518255916020019190600101906110c2565b5b5090506110eb91906110ef565b5090565b5b808211156111085760008160009055506001016110f0565b5090565b6000819050919050565b61111f8161110c565b82525050565b600060208201905061113a6000830184611116565b92915050565b6000604051905090565b600080fd5b600080fd5b61115d8161110c565b811461116857600080fd5b50565b60008135905061117a81611154565b92915050565b6000602082840312156111965761119561114a565b5b60006111a48482850161116b565b91505092915050565b600073ffffffffffffffffffffffffffffffffffffffff82169050919050565b60006111d8826111ad565b9050919050565b6111e8816111cd565b82525050565b600060208201905061120360008301846111df565b92915050565b600080fd5b6000601f19601f8301169050919050565b7f4e487b7100000000000000000000000000000000000000000000000000000000600052604160045260246000fd5b6112578261120e565b810181811067ffffffffffffffff821117156112765761127561121f565b5b80604052505050565b6000611289611140565b9050611295828261124e565b919050565b600067ffffffffffffffff8211156112b5576112b461121f565b5b602082029050602081019050919050565b600080fd5b60006112de6112d98461129a565b61127f565b90508083825260208201905060208402830185811115611301576113006112c6565b5b835b8181101561132a5780611316888261116b565b845260208401935050602081019050611303565b5050509392505050565b600082601f83011261134957611348611209565b5b81356113598482602086016112cb565b91505092915050565b600080604083850312156113795761137861114a565b5b60006113878582860161116b565b925050602083013567ffffffffffffffff8111156113a8576113a761114f565b5b6113b485828601611334565b9150509250929050565b60006113c9826111ad565b9050919050565b6113d9816113be565b82525050565b60006040820190506113f460008301856113d0565b6114016020830184611116565b9392505050565b6000819050919050565b600061142d611428611423846111ad565b611408565b6111ad565b9050919050565b600061143f82611412565b9050919050565b600061145182611434565b9050919050565b61146181611446565b82525050565b600060208201905061147c6000830184611458565b92915050565b7f4e487b7100000000000000000000000000000000000000000000000000000000600052603260045260246000fd5b60006040820190506114c660008301856111df565b6114d360208301846111df565b9392505050565b600082825260208201905092915050565b7f416d6f756e7420706c61796572206e756c6c0000000000000000000000000000600082015250565b60006115216012836114da565b915061152c826114eb565b602082019050919050565b6000602082019050818103600083015261155081611514565b9050919050565b6000819050919050565b61156a81611557565b82525050565b600067ffffffffffffffff82169050919050565b61158d81611570565b82525050565b600061ffff82169050919050565b6115aa81611593565b82525050565b600063ffffffff82169050919050565b6115c9816115b0565b82525050565b600060a0820190506115e46000830188611561565b6115f16020830187611584565b6115fe60408301866115a1565b61160b60608301856115c0565b61161860808301846115c0565b9695505050505050565b60008151905061163181611154565b92915050565b60006020828403121561164d5761164c61114a565b5b600061165b84828501611622565b91505092915050565b7f4e487b7100000000000000000000000000000000000000000000000000000000600052601260045260246000fd5b600061169e8261110c565b91506116a98361110c565b9250826116b9576116b8611664565b5b828206905092915050565b7f4e487b7100000000000000000000000000000000000000000000000000000000600052601160045260246000fd5b60006116fe8261110c565b91506117098361110c565b92508282101561171c5761171b6116c4565b5b828203905092915050565b60006117328261110c565b915061173d8361110c565b9250827fffffffffffffffffffffffffffffffffffffffffffffffffffffffffffffffff03821115611772576117716116c4565b5b828201905092915050565b6000819050919050565b6117986117938261110c565b61177d565b82525050565b60008160601b9050919050565b60006117b68261179e565b9050919050565b60006117c8826117ab565b9050919050565b6117e06117db826111cd565b6117bd565b82525050565b60006117f28286611787565b60208201915061180282856117cf565b6014820191506118128284611787565b602082019150819050949350505050565b600061182e8261110c565b91507fffffffffffffffffffffffffffffffffffffffffffffffffffffffffffffffff821415611861576118606116c4565b5b600182019050919050565b60006118778261110c565b91506118828361110c565b9250817fffffffffffffffffffffffffffffffffffffffffffffffffffffffffffffffff04831182151516156118bb576118ba6116c4565b5b828202905092915050565b7f4e6f7420656e6f75676820746f6b656e00000000000000000000000000000000600082015250565b60006118fc6010836114da565b9150611907826118c6565b602082019050919050565b6000602082019050818103600083015261192b816118ef565b9050919050565b7f526571756972652073746172744174206c657373207468616e20656e64417400600082015250565b6000611968601f836114da565b915061197382611932565b602082019050919050565b600060208201905081810360008301526119978161195b565b9050919050565b7f4e756d626572207469636b6574206f7574206f662072616e6765000000000000600082015250565b60006119d4601a836114da565b91506119df8261199e565b602082019050919050565b60006020820190508181036000830152611a03816119c7565b9050919050565b6000606082019050611a1f60008301866111df565b611a2c60208301856111df565b611a396040830184611116565b949350505050565b60008115159050919050565b611a5681611a41565b8114611a6157600080fd5b50565b600081519050611a7381611a4d565b92915050565b600060208284031215611a8f57611a8e61114a565b5b6000611a9d84828501611a64565b91505092915050565b6000611ab18261110c565b9150611abc8361110c565b925082611acc57611acb611664565b5b828204905092915050565b7f7072697a65506f6f6c20697320656d7074790000000000000000000000000000600082015250565b6000611b0d6012836114da565b9150611b1882611ad7565b602082019050919050565b60006020820190508181036000830152611b3c81611b00565b9050919050565b7f4e6f2077696e6e65720000000000000000000000000000000000000000000000600082015250565b6000611b796009836114da565b9150611b8482611b43565b602082019050919050565b60006020820190508181036000830152611ba881611b6c565b9050919050565b6000611bba82611434565b9050919050565b611bca81611baf565b82525050565b6000606082019050611be560008301866111df565b611bf26020830185611bc1565b611bff6040830184611116565b949350505050565b6000604082019050611c1c6000830185611bc1565b611c296020830184611116565b939250505056fea2646970667358221220d1e5676901e6b45f7fd9c45cf34bc83aaea5465fe4ca2535787e98e1ac78381064736f6c634300080b0033",
  "linkReferences": {},
  "deployedLinkReferences": {}
}