{
  "_format": "hh-sol-artifact-1",
  "contractName": "Lottery",
  "sourceName": "contracts/Lottery.sol",
  "abi": [
    {
      "inputs": [
        {
          "internalType": "address",
          "name": "have",
          "type": "address"
        },
        {
          "internalType": "address",
          "name": "want",
          "type": "address"
        }
      ],
      "name": "OnlyCoordinatorCanFulfill",
      "type": "error"
    },
    {
      "inputs": [],
      "name": "_requestRandomWords",
      "outputs": [],
      "stateMutability": "nonpayable",
      "type": "function"
    },
    {
      "inputs": [],
      "name": "closeLottery",
      "outputs": [],
      "stateMutability": "nonpayable",
      "type": "function"
    },
    {
      "inputs": [
        {
          "internalType": "uint256",
          "name": "numTicket",
          "type": "uint256"
        }
      ],
      "name": "enter",
      "outputs": [],
      "stateMutability": "payable",
      "type": "function"
    },
    {
      "inputs": [],
      "name": "getAmountPlayer",
      "outputs": [
        {
          "internalType": "uint256",
          "name": "",
          "type": "uint256"
        }
      ],
      "stateMutability": "view",
      "type": "function"
    },
    {
      "inputs": [],
      "name": "getAmountWinner",
      "outputs": [
        {
          "internalType": "uint256",
          "name": "",
          "type": "uint256"
        }
      ],
      "stateMutability": "view",
      "type": "function"
    },
    {
      "inputs": [],
      "name": "getBalance",
      "outputs": [
        {
          "internalType": "uint256",
          "name": "",
          "type": "uint256"
        }
      ],
      "stateMutability": "view",
      "type": "function"
    },
    {
      "inputs": [
        {
          "internalType": "uint256",
          "name": "index",
          "type": "uint256"
        }
      ],
      "name": "getListWinner",
      "outputs": [
        {
          "internalType": "address",
          "name": "",
          "type": "address"
        }
      ],
      "stateMutability": "view",
      "type": "function"
    },
    {
      "inputs": [
        {
          "internalType": "uint256",
          "name": "_index",
          "type": "uint256"
        }
      ],
      "name": "getPlayers",
      "outputs": [
        {
          "internalType": "address payable",
          "name": "",
          "type": "address"
        },
        {
          "internalType": "uint256",
          "name": "",
          "type": "uint256"
        }
      ],
      "stateMutability": "view",
      "type": "function"
    },
    {
      "inputs": [],
      "name": "lotteryId",
      "outputs": [
        {
          "internalType": "uint256",
          "name": "",
          "type": "uint256"
        }
      ],
      "stateMutability": "view",
      "type": "function"
    },
    {
      "inputs": [
        {
          "internalType": "uint256",
          "name": "requestId",
          "type": "uint256"
        },
        {
          "internalType": "uint256[]",
          "name": "randomWords",
          "type": "uint256[]"
        }
      ],
      "name": "rawFulfillRandomWords",
      "outputs": [],
      "stateMutability": "nonpayable",
      "type": "function"
    },
    {
      "inputs": [
        {
          "internalType": "uint256",
          "name": "",
          "type": "uint256"
        }
      ],
      "name": "s_randomWords",
      "outputs": [
        {
          "internalType": "uint256",
          "name": "",
          "type": "uint256"
        }
      ],
      "stateMutability": "view",
      "type": "function"
    },
    {
      "inputs": [],
      "name": "s_requestId",
      "outputs": [
        {
          "internalType": "uint256",
          "name": "",
          "type": "uint256"
        }
      ],
      "stateMutability": "view",
      "type": "function"
    },
    {
      "inputs": [],
      "name": "token",
      "outputs": [
        {
          "internalType": "contract IERC20",
          "name": "",
          "type": "address"
        }
      ],
      "stateMutability": "view",
      "type": "function"
    }
  ],
  "bytecode": "0x60a0604052620186a06000806101000a81548163ffffffff021916908363ffffffff1602179055506003600060046101000a81548161ffff021916908361ffff1602179055506002600060066101000a81548163ffffffff021916908363ffffffff16021790555033600360006101000a81548173ffffffffffffffffffffffffffffffffffffffff021916908373ffffffffffffffffffffffffffffffffffffffff16021790555060006007553480156100b957600080fd5b50736168499c0cffcacd319c818142124b7a15e857ab8073ffffffffffffffffffffffffffffffffffffffff1660808173ffffffffffffffffffffffffffffffffffffffff1681525050506080516113066101266000396000818161035e01526103b201526113066000f3fe6080604052600436106100c25760003560e01c8063693521d51161007f578063e580f47b11610059578063e580f47b14610236578063e89e106a14610261578063f6eaffc81461028c578063fc0c546a146102c9576100c2565b8063693521d5146101d85780636fd0981614610203578063a59f3e0c1461021a576100c2565b806312065fe0146100c757806318b425ff146100f25780631fe543e31461012f57806332eb85a414610158578063391ea70014610183578063460e20491461019a575b600080fd5b3480156100d357600080fd5b506100dc6102f4565b6040516100e99190610aba565b60405180910390f35b3480156100fe57600080fd5b5061011960048036038101906101149190610b15565b6102fe565b6040516101269190610b83565b60405180910390f35b34801561013b57600080fd5b5061015660048036038101906101519190610cf7565b61035c565b005b34801561016457600080fd5b5061016d61041c565b60405161017a9190610aba565b60405180910390f35b34801561018f57600080fd5b50610198610426565b005b3480156101a657600080fd5b506101c160048036038101906101bc9190610b15565b6105a3565b6040516101cf929190610d74565b60405180910390f35b3480156101e457600080fd5b506101ed6105f1565b6040516101fa9190610aba565b60405180910390f35b34801561020f57600080fd5b50610218610614565b005b610234600480360381019061022f9190610b15565b6107a9565b005b34801561024257600080fd5b5061024b610948565b6040516102589190610aba565b60405180910390f35b34801561026d57600080fd5b5061027661094e565b6040516102839190610aba565b60405180910390f35b34801561029857600080fd5b506102b360048036038101906102ae9190610b15565b610954565b6040516102c09190610aba565b60405180910390f35b3480156102d557600080fd5b506102de610978565b6040516102eb9190610dfc565b60405180910390f35b6000600854905090565b6000600560006009548152602001908152602001600020600001828154811061032a57610329610e17565b5b9060005260206000200160009054906101000a900473ffffffffffffffffffffffffffffffffffffffff169050919050565b7f000000000000000000000000000000000000000000000000000000000000000073ffffffffffffffffffffffffffffffffffffffff163373ffffffffffffffffffffffffffffffffffffffff161461040e57337f00000000000000000000000000000000000000000000000000000000000000006040517f1cf993f4000000000000000000000000000000000000000000000000000000008152600401610405929190610e46565b60405180910390fd5b610418828261099e565b5050565b6000600754905090565b600360009054906101000a900473ffffffffffffffffffffffffffffffffffffffff1673ffffffffffffffffffffffffffffffffffffffff163373ffffffffffffffffffffffffffffffffffffffff161461048057600080fd5b600754736168499c0cffcacd319c818142124b7a15e857ab73ffffffffffffffffffffffffffffffffffffffff16635d3b1d307fd89b2bf150e3b9e13446986e571fb9cab24b13cea0a43ea20a6049a85cc807cc60001b611cca600060049054906101000a900461ffff1660008054906101000a900463ffffffff16600060069054906101000a900463ffffffff166040518663ffffffff1660e01b815260040161052f959493929190610ee7565b6020604051808303816000875af115801561054e573d6000803e3d6000fd5b505050506040513d601f19601f820116820180604052508101906105729190610f4f565b61057c9190610fab565b60028190555060066000600254815260200190815260200160002060010154600981905550565b60008060006006600085815260200190815260200160002090508060000160009054906101000a900473ffffffffffffffffffffffffffffffffffffffff1681600101549250925050915091565b600060056000600954815260200190815260200160002060000180549050905090565b600360009054906101000a900473ffffffffffffffffffffffffffffffffffffffff1673ffffffffffffffffffffffffffffffffffffffff163373ffffffffffffffffffffffffffffffffffffffff161461066e57600080fd5b600060056000600954815260200190815260200160002060000180549050905060008160085461069e919061100b565b905060004714156106e4576040517f08c379a00000000000000000000000000000000000000000000000000000000081526004016106db90611099565b60405180910390fd5b6000821415610728576040517f08c379a000000000000000000000000000000000000000000000000000000000815260040161071f90611105565b60405180910390fd5b60005b828110156107a45761079182600560006009548152602001908152602001600020600001838154811061076157610760610e17565b5b9060005260206000200160009054906101000a900473ffffffffffffffffffffffffffffffffffffffff166109b9565b808061079c90611125565b91505061072b565b505050565b600234116107ec576040517f08c379a00000000000000000000000000000000000000000000000000000000081526004016107e3906111ba565b60405180910390fd5b600081101580156107fe5750600a8111155b61083d576040517f08c379a000000000000000000000000000000000000000000000000000000000815260040161083490611226565b60405180910390fd5b346008600082825461084f9190611246565b9250508190555060006006600060075481526020019081526020016000209050338160000160006101000a81548173ffffffffffffffffffffffffffffffffffffffff021916908373ffffffffffffffffffffffffffffffffffffffff16021790555081816001018190555060006005600083600101548152602001908152602001600020905080600001339080600181540180825580915050600190039060005260206000200160009091909190916101000a81548173ffffffffffffffffffffffffffffffffffffffff021916908373ffffffffffffffffffffffffffffffffffffffff160217905550610943610a1d565b505050565b60045481565b60025481565b6001818154811061096457600080fd5b906000526020600020016000915090505481565b600b60009054906101000a900473ffffffffffffffffffffffffffffffffffffffff1681565b80600190805190602001906109b4929190610a37565b505050565b81600860008282546109cb919061129c565b925050819055508073ffffffffffffffffffffffffffffffffffffffff166108fc839081150290604051600060405180830381858888f19350505050158015610a18573d6000803e3d6000fd5b505050565b60076000815480929190610a3090611125565b9190505550565b828054828255906000526020600020908101928215610a73579160200282015b82811115610a72578251825591602001919060010190610a57565b5b509050610a809190610a84565b5090565b5b80821115610a9d576000816000905550600101610a85565b5090565b6000819050919050565b610ab481610aa1565b82525050565b6000602082019050610acf6000830184610aab565b92915050565b6000604051905090565b600080fd5b600080fd5b610af281610aa1565b8114610afd57600080fd5b50565b600081359050610b0f81610ae9565b92915050565b600060208284031215610b2b57610b2a610adf565b5b6000610b3984828501610b00565b91505092915050565b600073ffffffffffffffffffffffffffffffffffffffff82169050919050565b6000610b6d82610b42565b9050919050565b610b7d81610b62565b82525050565b6000602082019050610b986000830184610b74565b92915050565b600080fd5b6000601f19601f8301169050919050565b7f4e487b7100000000000000000000000000000000000000000000000000000000600052604160045260246000fd5b610bec82610ba3565b810181811067ffffffffffffffff82111715610c0b57610c0a610bb4565b5b80604052505050565b6000610c1e610ad5565b9050610c2a8282610be3565b919050565b600067ffffffffffffffff821115610c4a57610c49610bb4565b5b602082029050602081019050919050565b600080fd5b6000610c73610c6e84610c2f565b610c14565b90508083825260208201905060208402830185811115610c9657610c95610c5b565b5b835b81811015610cbf5780610cab8882610b00565b845260208401935050602081019050610c98565b5050509392505050565b600082601f830112610cde57610cdd610b9e565b5b8135610cee848260208601610c60565b91505092915050565b60008060408385031215610d0e57610d0d610adf565b5b6000610d1c85828601610b00565b925050602083013567ffffffffffffffff811115610d3d57610d3c610ae4565b5b610d4985828601610cc9565b9150509250929050565b6000610d5e82610b42565b9050919050565b610d6e81610d53565b82525050565b6000604082019050610d896000830185610d65565b610d966020830184610aab565b9392505050565b6000819050919050565b6000610dc2610dbd610db884610b42565b610d9d565b610b42565b9050919050565b6000610dd482610da7565b9050919050565b6000610de682610dc9565b9050919050565b610df681610ddb565b82525050565b6000602082019050610e116000830184610ded565b92915050565b7f4e487b7100000000000000000000000000000000000000000000000000000000600052603260045260246000fd5b6000604082019050610e5b6000830185610b74565b610e686020830184610b74565b9392505050565b6000819050919050565b610e8281610e6f565b82525050565b600067ffffffffffffffff82169050919050565b610ea581610e88565b82525050565b600061ffff82169050919050565b610ec281610eab565b82525050565b600063ffffffff82169050919050565b610ee181610ec8565b82525050565b600060a082019050610efc6000830188610e79565b610f096020830187610e9c565b610f166040830186610eb9565b610f236060830185610ed8565b610f306080830184610ed8565b9695505050505050565b600081519050610f4981610ae9565b92915050565b600060208284031215610f6557610f64610adf565b5b6000610f7384828501610f3a565b91505092915050565b7f4e487b7100000000000000000000000000000000000000000000000000000000600052601260045260246000fd5b6000610fb682610aa1565b9150610fc183610aa1565b925082610fd157610fd0610f7c565b5b828206905092915050565b7f4e487b7100000000000000000000000000000000000000000000000000000000600052601160045260246000fd5b600061101682610aa1565b915061102183610aa1565b92508261103157611030610f7c565b5b828204905092915050565b600082825260208201905092915050565b7f7072697a65506f6f6c20697320656d7074790000000000000000000000000000600082015250565b600061108360128361103c565b915061108e8261104d565b602082019050919050565b600060208201905081810360008301526110b281611076565b9050919050565b7f4e6f2077696e6e65720000000000000000000000000000000000000000000000600082015250565b60006110ef60098361103c565b91506110fa826110b9565b602082019050919050565b6000602082019050818103600083015261111e816110e2565b9050919050565b600061113082610aa1565b91507fffffffffffffffffffffffffffffffffffffffffffffffffffffffffffffffff82141561116357611162610fdc565b5b600182019050919050565b7f4e6f7420656e6f75676820746f6b656e00000000000000000000000000000000600082015250565b60006111a460108361103c565b91506111af8261116e565b602082019050919050565b600060208201905081810360008301526111d381611197565b9050919050565b7f4e756d626572207469636b6574206f7574206f662072616e6765000000000000600082015250565b6000611210601a8361103c565b915061121b826111da565b602082019050919050565b6000602082019050818103600083015261123f81611203565b9050919050565b600061125182610aa1565b915061125c83610aa1565b9250827fffffffffffffffffffffffffffffffffffffffffffffffffffffffffffffffff0382111561129157611290610fdc565b5b828201905092915050565b60006112a782610aa1565b91506112b283610aa1565b9250828210156112c5576112c4610fdc565b5b82820390509291505056fea2646970667358221220c21874a22f0d5b0fd3559f1283b171a9a1acac857795a8263272a768da14d12f64736f6c634300080b0033",
  "linkReferences": {},
  "deployedLinkReferences": {}
}