{
  "_format": "hh-sol-artifact-1",
  "contractName": "Lottery",
  "sourceName": "contracts/Lottery.sol",
  "abi": [
    {
      "inputs": [
        {
          "internalType": "contract MyToken",
          "name": "_token",
          "type": "address"
        }
      ],
      "stateMutability": "nonpayable",
      "type": "constructor"
    },
    {
      "inputs": [
        {
          "internalType": "address",
          "name": "have",
          "type": "address"
        },
        {
          "internalType": "address",
          "name": "want",
          "type": "address"
        }
      ],
      "name": "OnlyCoordinatorCanFulfill",
      "type": "error"
    },
    {
      "inputs": [],
      "name": "_requestRandomWords",
      "outputs": [],
      "stateMutability": "nonpayable",
      "type": "function"
    },
    {
      "inputs": [],
      "name": "admin",
      "outputs": [
        {
          "internalType": "address",
          "name": "",
          "type": "address"
        }
      ],
      "stateMutability": "view",
      "type": "function"
    },
    {
      "inputs": [],
      "name": "costTicket",
      "outputs": [
        {
          "internalType": "uint256",
          "name": "",
          "type": "uint256"
        }
      ],
      "stateMutability": "view",
      "type": "function"
    },
    {
      "inputs": [
        {
          "internalType": "uint256",
          "name": "numTicket",
          "type": "uint256"
        }
      ],
      "name": "enter",
      "outputs": [],
      "stateMutability": "payable",
      "type": "function"
    },
    {
      "inputs": [],
      "name": "getAmountPlayer",
      "outputs": [
        {
          "internalType": "uint256",
          "name": "",
          "type": "uint256"
        }
      ],
      "stateMutability": "view",
      "type": "function"
    },
    {
      "inputs": [],
      "name": "getAmountWinner",
      "outputs": [
        {
          "internalType": "uint256",
          "name": "",
          "type": "uint256"
        }
      ],
      "stateMutability": "view",
      "type": "function"
    },
    {
      "inputs": [],
      "name": "getBalance",
      "outputs": [
        {
          "internalType": "uint256",
          "name": "",
          "type": "uint256"
        }
      ],
      "stateMutability": "view",
      "type": "function"
    },
    {
      "inputs": [
        {
          "internalType": "uint256",
          "name": "index",
          "type": "uint256"
        }
      ],
      "name": "getListWinner",
      "outputs": [
        {
          "internalType": "address",
          "name": "",
          "type": "address"
        }
      ],
      "stateMutability": "view",
      "type": "function"
    },
    {
      "inputs": [],
      "name": "getLuckyNumber",
      "outputs": [
        {
          "internalType": "uint256",
          "name": "",
          "type": "uint256"
        }
      ],
      "stateMutability": "view",
      "type": "function"
    },
    {
      "inputs": [
        {
          "internalType": "uint256",
          "name": "_index",
          "type": "uint256"
        }
      ],
      "name": "getPlayers",
      "outputs": [
        {
          "internalType": "address payable",
          "name": "",
          "type": "address"
        },
        {
          "internalType": "uint256",
          "name": "",
          "type": "uint256"
        }
      ],
      "stateMutability": "view",
      "type": "function"
    },
    {
      "inputs": [],
      "name": "lotteryId",
      "outputs": [
        {
          "internalType": "uint256",
          "name": "",
          "type": "uint256"
        }
      ],
      "stateMutability": "view",
      "type": "function"
    },
    {
      "inputs": [],
      "name": "luckyNumber",
      "outputs": [
        {
          "internalType": "uint256",
          "name": "",
          "type": "uint256"
        }
      ],
      "stateMutability": "view",
      "type": "function"
    },
    {
      "inputs": [
        {
          "internalType": "uint256",
          "name": "requestId",
          "type": "uint256"
        },
        {
          "internalType": "uint256[]",
          "name": "randomWords",
          "type": "uint256[]"
        }
      ],
      "name": "rawFulfillRandomWords",
      "outputs": [],
      "stateMutability": "nonpayable",
      "type": "function"
    },
    {
      "inputs": [
        {
          "internalType": "uint256",
          "name": "",
          "type": "uint256"
        }
      ],
      "name": "s_randomWords",
      "outputs": [
        {
          "internalType": "uint256",
          "name": "",
          "type": "uint256"
        }
      ],
      "stateMutability": "view",
      "type": "function"
    },
    {
      "inputs": [],
      "name": "s_requestId",
      "outputs": [
        {
          "internalType": "uint256",
          "name": "",
          "type": "uint256"
        }
      ],
      "stateMutability": "view",
      "type": "function"
    },
    {
      "inputs": [],
      "name": "token",
      "outputs": [
        {
          "internalType": "contract MyToken",
          "name": "",
          "type": "address"
        }
      ],
      "stateMutability": "view",
      "type": "function"
    }
  ],
  "bytecode": "0x60a0604052620186a0600160146101000a81548163ffffffff021916908363ffffffff1602179055506003600160186101000a81548161ffff021916908361ffff16021790555060026001601a6101000a81548163ffffffff021916908363ffffffff1602179055506000600755674563918244f40000600b553480156200008657600080fd5b5060405162001960380380620019608339818101604052810190620000ac9190620001bc565b736168499c0cffcacd319c818142124b7a15e857ab8073ffffffffffffffffffffffffffffffffffffffff1660808173ffffffffffffffffffffffffffffffffffffffff16815250505080600160006101000a81548173ffffffffffffffffffffffffffffffffffffffff021916908373ffffffffffffffffffffffffffffffffffffffff16021790555050620001ee565b600080fd5b600073ffffffffffffffffffffffffffffffffffffffff82169050919050565b6000620001708262000143565b9050919050565b6000620001848262000163565b9050919050565b620001968162000177565b8114620001a257600080fd5b50565b600081519050620001b6816200018b565b92915050565b600060208284031215620001d557620001d46200013e565b5b6000620001e584828501620001a5565b91505092915050565b60805161174f62000211600039600081816104220152610476015261174f6000f3fe6080604052600436106100f35760003560e01c8063a59f3e0c1161008a578063e89e106a11610059578063e89e106a146102fc578063f6eaffc814610327578063f851a44014610364578063fc0c546a1461038f576100f3565b8063a59f3e0c1461025f578063bf205ebc1461027b578063e580f47b146102a6578063e69f19cd146102d1576100f3565b8063391ea700116100c6578063391ea700146101b4578063460e2049146101cb578063693521d514610209578063a136e50814610234576100f3565b806312065fe0146100f857806318b425ff146101235780631fe543e31461016057806332eb85a414610189575b600080fd5b34801561010457600080fd5b5061010d6103ba565b60405161011a9190610d7a565b60405180910390f35b34801561012f57600080fd5b5061014a60048036038101906101459190610dd5565b6103c2565b6040516101579190610e43565b60405180910390f35b34801561016c57600080fd5b5061018760048036038101906101829190610fb7565b610420565b005b34801561019557600080fd5b5061019e6104e0565b6040516101ab9190610d7a565b60405180910390f35b3480156101c057600080fd5b506101c96104ea565b005b3480156101d757600080fd5b506101f260048036038101906101ed9190610dd5565b61065d565b604051610200929190611034565b60405180910390f35b34801561021557600080fd5b5061021e6106ab565b60405161022b9190610d7a565b60405180910390f35b34801561024057600080fd5b506102496106ce565b6040516102569190610d7a565b60405180910390f35b61027960048036038101906102749190610dd5565b6106d4565b005b34801561028757600080fd5b506102906109ae565b60405161029d9190610d7a565b60405180910390f35b3480156102b257600080fd5b506102bb6109b4565b6040516102c89190610d7a565b60405180910390f35b3480156102dd57600080fd5b506102e66109ba565b6040516102f39190610d7a565b60405180910390f35b34801561030857600080fd5b506103116109c4565b60405161031e9190610d7a565b60405180910390f35b34801561033357600080fd5b5061034e60048036038101906103499190610dd5565b6109ca565b60405161035b9190610d7a565b60405180910390f35b34801561037057600080fd5b506103796109ee565b6040516103869190610e43565b60405180910390f35b34801561039b57600080fd5b506103a4610a12565b6040516103b191906110bc565b60405180910390f35b600047905090565b600060056000600954815260200190815260200160002060000182815481106103ee576103ed6110d7565b5b9060005260206000200160009054906101000a900473ffffffffffffffffffffffffffffffffffffffff169050919050565b7f000000000000000000000000000000000000000000000000000000000000000073ffffffffffffffffffffffffffffffffffffffff163373ffffffffffffffffffffffffffffffffffffffff16146104d257337f00000000000000000000000000000000000000000000000000000000000000006040517f1cf993f40000000000000000000000000000000000000000000000000000000081526004016104c9929190611106565b60405180910390fd5b6104dc8282610a38565b5050565b6000600754905090565b60006007541415610530576040517f08c379a00000000000000000000000000000000000000000000000000000000081526004016105279061118c565b60405180910390fd5b600754736168499c0cffcacd319c818142124b7a15e857ab73ffffffffffffffffffffffffffffffffffffffff16635d3b1d307fd89b2bf150e3b9e13446986e571fb9cab24b13cea0a43ea20a6049a85cc807cc60001b611cca600160189054906101000a900461ffff16600160149054906101000a900463ffffffff166001601a9054906101000a900463ffffffff166040518663ffffffff1660e01b81526004016105e1959493929190611224565b6020604051808303816000875af1158015610600573d6000803e3d6000fd5b505050506040513d601f19601f82011682018060405250810190610624919061128c565b61062e91906112e8565b6003819055506006600060035481526020019081526020016000206001015460098190555061065b610a53565b565b60008060006006600085815260200190815260200160002090508060000160009054906101000a900473ffffffffffffffffffffffffffffffffffffffff1681600101549250925050915091565b600060056000600954815260200190815260200160002060000180549050905090565b600b5481565b6005600b54101561071a576040517f08c379a000000000000000000000000000000000000000000000000000000000815260040161071190611365565b60405180910390fd5b6000811015801561072c5750600a8111155b61076b576040517f08c379a0000000000000000000000000000000000000000000000000000000008152600401610762906113d1565b60405180910390fd5b600160009054906101000a900473ffffffffffffffffffffffffffffffffffffffff1673ffffffffffffffffffffffffffffffffffffffff16630c9fcec93330600b546040518463ffffffff1660e01b81526004016107cc939291906113f1565b600060405180830381600087803b1580156107e657600080fd5b505af11580156107fa573d6000803e3d6000fd5b50505050600160009054906101000a900473ffffffffffffffffffffffffffffffffffffffff1673ffffffffffffffffffffffffffffffffffffffff166323b872dd3330600b546040518463ffffffff1660e01b815260040161085f939291906113f1565b6020604051808303816000875af115801561087e573d6000803e3d6000fd5b505050506040513d601f19601f820116820180604052508101906108a29190611460565b5034600860008282546108b591906114bc565b9250508190555060006006600060075481526020019081526020016000209050338160000160006101000a81548173ffffffffffffffffffffffffffffffffffffffff021916908373ffffffffffffffffffffffffffffffffffffffff16021790555081816001018190555060006005600083600101548152602001908152602001600020905080600001339080600181540180825580915050600190039060005260206000200160009091909190916101000a81548173ffffffffffffffffffffffffffffffffffffffff021916908373ffffffffffffffffffffffffffffffffffffffff1602179055506109a9610b8e565b505050565b60095481565b60045481565b6000600954905090565b60035481565b600281815481106109da57600080fd5b906000526020600020016000915090505481565b60008054906101000a900473ffffffffffffffffffffffffffffffffffffffff1681565b600160009054906101000a900473ffffffffffffffffffffffffffffffffffffffff1681565b8060029080519060200190610a4e929190610cf7565b505050565b6000600560006009548152602001908152602001600020600001805490509050600081600854610a839190611512565b90506000471415610ac9576040517f08c379a0000000000000000000000000000000000000000000000000000000008152600401610ac09061158f565b60405180910390fd5b6000821415610b0d576040517f08c379a0000000000000000000000000000000000000000000000000000000008152600401610b04906115fb565b60405180910390fd5b60005b82811015610b8957610b76826005600060095481526020019081526020016000206000018381548110610b4657610b456110d7565b5b9060005260206000200160009054906101000a900473ffffffffffffffffffffffffffffffffffffffff16610ba8565b8080610b819061161b565b915050610b10565b505050565b60076000815480929190610ba19061161b565b9190505550565b8160086000828254610bba9190611664565b92505081905550600160009054906101000a900473ffffffffffffffffffffffffffffffffffffffff1673ffffffffffffffffffffffffffffffffffffffff16630c9fcec93083856040518463ffffffff1660e01b8152600401610c20939291906116b9565b600060405180830381600087803b158015610c3a57600080fd5b505af1158015610c4e573d6000803e3d6000fd5b50505050600160009054906101000a900473ffffffffffffffffffffffffffffffffffffffff1673ffffffffffffffffffffffffffffffffffffffff1663a9059cbb82846040518363ffffffff1660e01b8152600401610caf9291906116f0565b6020604051808303816000875af1158015610cce573d6000803e3d6000fd5b505050506040513d601f19601f82011682018060405250810190610cf29190611460565b505050565b828054828255906000526020600020908101928215610d33579160200282015b82811115610d32578251825591602001919060010190610d17565b5b509050610d409190610d44565b5090565b5b80821115610d5d576000816000905550600101610d45565b5090565b6000819050919050565b610d7481610d61565b82525050565b6000602082019050610d8f6000830184610d6b565b92915050565b6000604051905090565b600080fd5b600080fd5b610db281610d61565b8114610dbd57600080fd5b50565b600081359050610dcf81610da9565b92915050565b600060208284031215610deb57610dea610d9f565b5b6000610df984828501610dc0565b91505092915050565b600073ffffffffffffffffffffffffffffffffffffffff82169050919050565b6000610e2d82610e02565b9050919050565b610e3d81610e22565b82525050565b6000602082019050610e586000830184610e34565b92915050565b600080fd5b6000601f19601f8301169050919050565b7f4e487b7100000000000000000000000000000000000000000000000000000000600052604160045260246000fd5b610eac82610e63565b810181811067ffffffffffffffff82111715610ecb57610eca610e74565b5b80604052505050565b6000610ede610d95565b9050610eea8282610ea3565b919050565b600067ffffffffffffffff821115610f0a57610f09610e74565b5b602082029050602081019050919050565b600080fd5b6000610f33610f2e84610eef565b610ed4565b90508083825260208201905060208402830185811115610f5657610f55610f1b565b5b835b81811015610f7f5780610f6b8882610dc0565b845260208401935050602081019050610f58565b5050509392505050565b600082601f830112610f9e57610f9d610e5e565b5b8135610fae848260208601610f20565b91505092915050565b60008060408385031215610fce57610fcd610d9f565b5b6000610fdc85828601610dc0565b925050602083013567ffffffffffffffff811115610ffd57610ffc610da4565b5b61100985828601610f89565b9150509250929050565b600061101e82610e02565b9050919050565b61102e81611013565b82525050565b60006040820190506110496000830185611025565b6110566020830184610d6b565b9392505050565b6000819050919050565b600061108261107d61107884610e02565b61105d565b610e02565b9050919050565b600061109482611067565b9050919050565b60006110a682611089565b9050919050565b6110b68161109b565b82525050565b60006020820190506110d160008301846110ad565b92915050565b7f4e487b7100000000000000000000000000000000000000000000000000000000600052603260045260246000fd5b600060408201905061111b6000830185610e34565b6111286020830184610e34565b9392505050565b600082825260208201905092915050565b7f416d6f756e7420706c61796572206e756c6c0000000000000000000000000000600082015250565b600061117660128361112f565b915061118182611140565b602082019050919050565b600060208201905081810360008301526111a581611169565b9050919050565b6000819050919050565b6111bf816111ac565b82525050565b600067ffffffffffffffff82169050919050565b6111e2816111c5565b82525050565b600061ffff82169050919050565b6111ff816111e8565b82525050565b600063ffffffff82169050919050565b61121e81611205565b82525050565b600060a08201905061123960008301886111b6565b61124660208301876111d9565b61125360408301866111f6565b6112606060830185611215565b61126d6080830184611215565b9695505050505050565b60008151905061128681610da9565b92915050565b6000602082840312156112a2576112a1610d9f565b5b60006112b084828501611277565b91505092915050565b7f4e487b7100000000000000000000000000000000000000000000000000000000600052601260045260246000fd5b60006112f382610d61565b91506112fe83610d61565b92508261130e5761130d6112b9565b5b828206905092915050565b7f4e6f7420656e6f75676820746f6b656e00000000000000000000000000000000600082015250565b600061134f60108361112f565b915061135a82611319565b602082019050919050565b6000602082019050818103600083015261137e81611342565b9050919050565b7f4e756d626572207469636b6574206f7574206f662072616e6765000000000000600082015250565b60006113bb601a8361112f565b91506113c682611385565b602082019050919050565b600060208201905081810360008301526113ea816113ae565b9050919050565b60006060820190506114066000830186610e34565b6114136020830185610e34565b6114206040830184610d6b565b949350505050565b60008115159050919050565b61143d81611428565b811461144857600080fd5b50565b60008151905061145a81611434565b92915050565b60006020828403121561147657611475610d9f565b5b60006114848482850161144b565b91505092915050565b7f4e487b7100000000000000000000000000000000000000000000000000000000600052601160045260246000fd5b60006114c782610d61565b91506114d283610d61565b9250827fffffffffffffffffffffffffffffffffffffffffffffffffffffffffffffffff038211156115075761150661148d565b5b828201905092915050565b600061151d82610d61565b915061152883610d61565b925082611538576115376112b9565b5b828204905092915050565b7f7072697a65506f6f6c20697320656d7074790000000000000000000000000000600082015250565b600061157960128361112f565b915061158482611543565b602082019050919050565b600060208201905081810360008301526115a88161156c565b9050919050565b7f4e6f2077696e6e65720000000000000000000000000000000000000000000000600082015250565b60006115e560098361112f565b91506115f0826115af565b602082019050919050565b60006020820190508181036000830152611614816115d8565b9050919050565b600061162682610d61565b91507fffffffffffffffffffffffffffffffffffffffffffffffffffffffffffffffff8214156116595761165861148d565b5b600182019050919050565b600061166f82610d61565b915061167a83610d61565b92508282101561168d5761168c61148d565b5b828203905092915050565b60006116a382611089565b9050919050565b6116b381611698565b82525050565b60006060820190506116ce6000830186610e34565b6116db60208301856116aa565b6116e86040830184610d6b565b949350505050565b600060408201905061170560008301856116aa565b6117126020830184610d6b565b939250505056fea26469706673582212200d21e2f1d7740188ea63ff83db4f2646bf779c4e16ab0740b766c0053027902864736f6c634300080b0033",
  "linkReferences": {},
  "deployedLinkReferences": {}
}