{
  "_format": "hh-sol-artifact-1",
  "contractName": "Lottery",
  "sourceName": "contracts/Lottery.sol",
  "abi": [
    {
      "inputs": [
        {
          "internalType": "contract MyToken",
          "name": "_token",
          "type": "address"
        }
      ],
      "stateMutability": "nonpayable",
      "type": "constructor"
    },
    {
      "inputs": [
        {
          "internalType": "address",
          "name": "have",
          "type": "address"
        },
        {
          "internalType": "address",
          "name": "want",
          "type": "address"
        }
      ],
      "name": "OnlyCoordinatorCanFulfill",
      "type": "error"
    },
    {
      "inputs": [],
      "name": "_requestRandomWords",
      "outputs": [],
      "stateMutability": "nonpayable",
      "type": "function"
    },
    {
      "inputs": [],
      "name": "_reset",
      "outputs": [],
      "stateMutability": "nonpayable",
      "type": "function"
    },
    {
      "inputs": [],
      "name": "admin",
      "outputs": [
        {
          "internalType": "address",
          "name": "",
          "type": "address"
        }
      ],
      "stateMutability": "view",
      "type": "function"
    },
    {
      "inputs": [],
      "name": "costTicket",
      "outputs": [
        {
          "internalType": "uint256",
          "name": "",
          "type": "uint256"
        }
      ],
      "stateMutability": "view",
      "type": "function"
    },
    {
      "inputs": [
        {
          "internalType": "uint256",
          "name": "numTicket",
          "type": "uint256"
        }
      ],
      "name": "enter",
      "outputs": [],
      "stateMutability": "payable",
      "type": "function"
    },
    {
      "inputs": [],
      "name": "getAmountPlayer",
      "outputs": [
        {
          "internalType": "uint256",
          "name": "",
          "type": "uint256"
        }
      ],
      "stateMutability": "view",
      "type": "function"
    },
    {
      "inputs": [],
      "name": "getAmountWinner",
      "outputs": [
        {
          "internalType": "uint256",
          "name": "",
          "type": "uint256"
        }
      ],
      "stateMutability": "view",
      "type": "function"
    },
    {
      "inputs": [],
      "name": "getBalance",
      "outputs": [
        {
          "internalType": "uint256",
          "name": "",
          "type": "uint256"
        }
      ],
      "stateMutability": "view",
      "type": "function"
    },
    {
      "inputs": [
        {
          "internalType": "uint256",
          "name": "index",
          "type": "uint256"
        }
      ],
      "name": "getListWinner",
      "outputs": [
        {
          "internalType": "address",
          "name": "",
          "type": "address"
        }
      ],
      "stateMutability": "view",
      "type": "function"
    },
    {
      "inputs": [],
      "name": "getLuckyNumber",
      "outputs": [
        {
          "internalType": "uint256",
          "name": "",
          "type": "uint256"
        }
      ],
      "stateMutability": "view",
      "type": "function"
    },
    {
      "inputs": [
        {
          "internalType": "uint256",
          "name": "_index",
          "type": "uint256"
        }
      ],
      "name": "getPlayers",
      "outputs": [
        {
          "internalType": "address payable",
          "name": "",
          "type": "address"
        },
        {
          "internalType": "uint256",
          "name": "",
          "type": "uint256"
        }
      ],
      "stateMutability": "view",
      "type": "function"
    },
    {
      "inputs": [],
      "name": "lotteryId",
      "outputs": [
        {
          "internalType": "uint256",
          "name": "",
          "type": "uint256"
        }
      ],
      "stateMutability": "view",
      "type": "function"
    },
    {
      "inputs": [],
      "name": "luckyNumber",
      "outputs": [
        {
          "internalType": "uint256",
          "name": "",
          "type": "uint256"
        }
      ],
      "stateMutability": "view",
      "type": "function"
    },
    {
      "inputs": [
        {
          "internalType": "uint256",
          "name": "requestId",
          "type": "uint256"
        },
        {
          "internalType": "uint256[]",
          "name": "randomWords",
          "type": "uint256[]"
        }
      ],
      "name": "rawFulfillRandomWords",
      "outputs": [],
      "stateMutability": "nonpayable",
      "type": "function"
    },
    {
      "inputs": [
        {
          "internalType": "uint256",
          "name": "",
          "type": "uint256"
        }
      ],
      "name": "s_randomWords",
      "outputs": [
        {
          "internalType": "uint256",
          "name": "",
          "type": "uint256"
        }
      ],
      "stateMutability": "view",
      "type": "function"
    },
    {
      "inputs": [],
      "name": "s_requestId",
      "outputs": [
        {
          "internalType": "uint256",
          "name": "",
          "type": "uint256"
        }
      ],
      "stateMutability": "view",
      "type": "function"
    },
    {
      "inputs": [],
      "name": "token",
      "outputs": [
        {
          "internalType": "contract MyToken",
          "name": "",
          "type": "address"
        }
      ],
      "stateMutability": "view",
      "type": "function"
    }
  ],
  "bytecode": "0x60a0604052620186a0600160146101000a81548163ffffffff021916908363ffffffff1602179055506003600160186101000a81548161ffff021916908361ffff16021790555060026001601a6101000a81548163ffffffff021916908363ffffffff1602179055506000600755674563918244f40000600b553480156200008657600080fd5b5060405162001a9338038062001a938339818101604052810190620000ac9190620001bc565b736168499c0cffcacd319c818142124b7a15e857ab8073ffffffffffffffffffffffffffffffffffffffff1660808173ffffffffffffffffffffffffffffffffffffffff16815250505080600160006101000a81548173ffffffffffffffffffffffffffffffffffffffff021916908373ffffffffffffffffffffffffffffffffffffffff16021790555050620001ee565b600080fd5b600073ffffffffffffffffffffffffffffffffffffffff82169050919050565b6000620001708262000143565b9050919050565b6000620001848262000163565b9050919050565b620001968162000177565b8114620001a257600080fd5b50565b600081519050620001b6816200018b565b92915050565b600060208284031215620001d557620001d46200013e565b5b6000620001e584828501620001a5565b91505092915050565b60805161188262000211600039600081816104be015261051201526118826000f3fe6080604052600436106100fe5760003560e01c8063a136e50811610095578063e69f19cd11610064578063e69f19cd146102f3578063e89e106a1461031e578063f6eaffc814610349578063f851a44014610386578063fc0c546a146103b1576100fe565b8063a136e50814610256578063a59f3e0c14610281578063bf205ebc1461029d578063e580f47b146102c8576100fe565b806332eb85a4116100d157806332eb85a4146101ab578063391ea700146101d6578063460e2049146101ed578063693521d51461022b576100fe565b806312065fe0146101035780631592f0ab1461012e57806318b425ff146101455780631fe543e314610182575b600080fd5b34801561010f57600080fd5b506101186103dc565b6040516101259190610e53565b60405180910390f35b34801561013a57600080fd5b506101436103e6565b005b34801561015157600080fd5b5061016c60048036038101906101679190610eae565b61045e565b6040516101799190610f1c565b60405180910390f35b34801561018e57600080fd5b506101a960048036038101906101a49190611090565b6104bc565b005b3480156101b757600080fd5b506101c061057c565b6040516101cd9190610e53565b60405180910390f35b3480156101e257600080fd5b506101eb610586565b005b3480156101f957600080fd5b50610214600480360381019061020f9190610eae565b6106f9565b60405161022292919061110d565b60405180910390f35b34801561023757600080fd5b50610240610747565b60405161024d9190610e53565b60405180910390f35b34801561026257600080fd5b5061026b61076a565b6040516102789190610e53565b60405180910390f35b61029b60048036038101906102969190610eae565b610770565b005b3480156102a957600080fd5b506102b2610a5f565b6040516102bf9190610e53565b60405180910390f35b3480156102d457600080fd5b506102dd610a65565b6040516102ea9190610e53565b60405180910390f35b3480156102ff57600080fd5b50610308610a6b565b6040516103159190610e53565b60405180910390f35b34801561032a57600080fd5b50610333610a75565b6040516103409190610e53565b60405180910390f35b34801561035557600080fd5b50610370600480360381019061036b9190610eae565b610a7b565b60405161037d9190610e53565b60405180910390f35b34801561039257600080fd5b5061039b610a9f565b6040516103a89190610f1c565b60405180910390f35b3480156103bd57600080fd5b506103c6610ac3565b6040516103d39190611195565b60405180910390f35b6000600854905090565b60005b60075481101561044b5760066000828152602001908152602001600020600080820160006101000a81549073ffffffffffffffffffffffffffffffffffffffff0219169055600182016000905550508080610443906111df565b9150506103e9565b5060006007819055506000600981905550565b6000600560006009548152602001908152602001600020600001828154811061048a57610489611228565b5b9060005260206000200160009054906101000a900473ffffffffffffffffffffffffffffffffffffffff169050919050565b7f000000000000000000000000000000000000000000000000000000000000000073ffffffffffffffffffffffffffffffffffffffff163373ffffffffffffffffffffffffffffffffffffffff161461056e57337f00000000000000000000000000000000000000000000000000000000000000006040517f1cf993f4000000000000000000000000000000000000000000000000000000008152600401610565929190611257565b60405180910390fd5b6105788282610ae9565b5050565b6000600754905090565b600060075414156105cc576040517f08c379a00000000000000000000000000000000000000000000000000000000081526004016105c3906112dd565b60405180910390fd5b600754736168499c0cffcacd319c818142124b7a15e857ab73ffffffffffffffffffffffffffffffffffffffff16635d3b1d307fd89b2bf150e3b9e13446986e571fb9cab24b13cea0a43ea20a6049a85cc807cc60001b611bda600160189054906101000a900461ffff16600160149054906101000a900463ffffffff166001601a9054906101000a900463ffffffff166040518663ffffffff1660e01b815260040161067d959493929190611375565b6020604051808303816000875af115801561069c573d6000803e3d6000fd5b505050506040513d601f19601f820116820180604052508101906106c091906113dd565b6106ca9190611439565b600381905550600660006003548152602001908152602001600020600101546009819055506106f7610b04565b565b60008060006006600085815260200190815260200160002090508060000160009054906101000a900473ffffffffffffffffffffffffffffffffffffffff1681600101549250925050915091565b600060056000600954815260200190815260200160002060000180549050905090565b600b5481565b6005600b5410156107b6576040517f08c379a00000000000000000000000000000000000000000000000000000000081526004016107ad906114b6565b60405180910390fd5b600081101580156107c85750600a8111155b610807576040517f08c379a00000000000000000000000000000000000000000000000000000000081526004016107fe90611522565b60405180910390fd5b600160009054906101000a900473ffffffffffffffffffffffffffffffffffffffff1673ffffffffffffffffffffffffffffffffffffffff16630c9fcec93330600b546040518463ffffffff1660e01b815260040161086893929190611542565b600060405180830381600087803b15801561088257600080fd5b505af1158015610896573d6000803e3d6000fd5b50505050600160009054906101000a900473ffffffffffffffffffffffffffffffffffffffff1673ffffffffffffffffffffffffffffffffffffffff166323b872dd3330600b546040518463ffffffff1660e01b81526004016108fb93929190611542565b6020604051808303816000875af115801561091a573d6000803e3d6000fd5b505050506040513d601f19601f8201168201806040525081019061093e91906115b1565b50670de0b6b3a7640000600b5461095591906115de565b60086000828254610966919061160f565b9250508190555060006006600060075481526020019081526020016000209050338160000160006101000a81548173ffffffffffffffffffffffffffffffffffffffff021916908373ffffffffffffffffffffffffffffffffffffffff16021790555081816001018190555060006005600083600101548152602001908152602001600020905080600001339080600181540180825580915050600190039060005260206000200160009091909190916101000a81548173ffffffffffffffffffffffffffffffffffffffff021916908373ffffffffffffffffffffffffffffffffffffffff160217905550610a5a610c41565b505050565b60095481565b60045481565b6000600954905090565b60035481565b60028181548110610a8b57600080fd5b906000526020600020016000915090505481565b60008054906101000a900473ffffffffffffffffffffffffffffffffffffffff1681565b600160009054906101000a900473ffffffffffffffffffffffffffffffffffffffff1681565b8060029080519060200190610aff929190610dd0565b505050565b6000600560006009548152602001908152602001600020600001805490509050600081600854610b3491906115de565b905060006008541415610b7c576040517f08c379a0000000000000000000000000000000000000000000000000000000008152600401610b73906116b1565b60405180910390fd5b6000821415610bc0576040517f08c379a0000000000000000000000000000000000000000000000000000000008152600401610bb79061171d565b60405180910390fd5b60005b82811015610c3c57610c29826005600060095481526020019081526020016000206000018381548110610bf957610bf8611228565b5b9060005260206000200160009054906101000a900473ffffffffffffffffffffffffffffffffffffffff16610c5b565b8080610c34906111df565b915050610bc3565b505050565b60076000815480929190610c54906111df565b9190505550565b8160086000828254610c6d919061173d565b92505081905550600160009054906101000a900473ffffffffffffffffffffffffffffffffffffffff1673ffffffffffffffffffffffffffffffffffffffff16630c9fcec93083670de0b6b3a764000086610cc89190611771565b6040518463ffffffff1660e01b8152600401610ce6939291906117ec565b600060405180830381600087803b158015610d0057600080fd5b505af1158015610d14573d6000803e3d6000fd5b50505050600160009054906101000a900473ffffffffffffffffffffffffffffffffffffffff1673ffffffffffffffffffffffffffffffffffffffff1663a9059cbb82670de0b6b3a764000085610d6b9190611771565b6040518363ffffffff1660e01b8152600401610d88929190611823565b6020604051808303816000875af1158015610da7573d6000803e3d6000fd5b505050506040513d601f19601f82011682018060405250810190610dcb91906115b1565b505050565b828054828255906000526020600020908101928215610e0c579160200282015b82811115610e0b578251825591602001919060010190610df0565b5b509050610e199190610e1d565b5090565b5b80821115610e36576000816000905550600101610e1e565b5090565b6000819050919050565b610e4d81610e3a565b82525050565b6000602082019050610e686000830184610e44565b92915050565b6000604051905090565b600080fd5b600080fd5b610e8b81610e3a565b8114610e9657600080fd5b50565b600081359050610ea881610e82565b92915050565b600060208284031215610ec457610ec3610e78565b5b6000610ed284828501610e99565b91505092915050565b600073ffffffffffffffffffffffffffffffffffffffff82169050919050565b6000610f0682610edb565b9050919050565b610f1681610efb565b82525050565b6000602082019050610f316000830184610f0d565b92915050565b600080fd5b6000601f19601f8301169050919050565b7f4e487b7100000000000000000000000000000000000000000000000000000000600052604160045260246000fd5b610f8582610f3c565b810181811067ffffffffffffffff82111715610fa457610fa3610f4d565b5b80604052505050565b6000610fb7610e6e565b9050610fc38282610f7c565b919050565b600067ffffffffffffffff821115610fe357610fe2610f4d565b5b602082029050602081019050919050565b600080fd5b600061100c61100784610fc8565b610fad565b9050808382526020820190506020840283018581111561102f5761102e610ff4565b5b835b8181101561105857806110448882610e99565b845260208401935050602081019050611031565b5050509392505050565b600082601f83011261107757611076610f37565b5b8135611087848260208601610ff9565b91505092915050565b600080604083850312156110a7576110a6610e78565b5b60006110b585828601610e99565b925050602083013567ffffffffffffffff8111156110d6576110d5610e7d565b5b6110e285828601611062565b9150509250929050565b60006110f782610edb565b9050919050565b611107816110ec565b82525050565b600060408201905061112260008301856110fe565b61112f6020830184610e44565b9392505050565b6000819050919050565b600061115b61115661115184610edb565b611136565b610edb565b9050919050565b600061116d82611140565b9050919050565b600061117f82611162565b9050919050565b61118f81611174565b82525050565b60006020820190506111aa6000830184611186565b92915050565b7f4e487b7100000000000000000000000000000000000000000000000000000000600052601160045260246000fd5b60006111ea82610e3a565b91507fffffffffffffffffffffffffffffffffffffffffffffffffffffffffffffffff82141561121d5761121c6111b0565b5b600182019050919050565b7f4e487b7100000000000000000000000000000000000000000000000000000000600052603260045260246000fd5b600060408201905061126c6000830185610f0d565b6112796020830184610f0d565b9392505050565b600082825260208201905092915050565b7f416d6f756e7420706c61796572206e756c6c0000000000000000000000000000600082015250565b60006112c7601283611280565b91506112d282611291565b602082019050919050565b600060208201905081810360008301526112f6816112ba565b9050919050565b6000819050919050565b611310816112fd565b82525050565b600067ffffffffffffffff82169050919050565b61133381611316565b82525050565b600061ffff82169050919050565b61135081611339565b82525050565b600063ffffffff82169050919050565b61136f81611356565b82525050565b600060a08201905061138a6000830188611307565b611397602083018761132a565b6113a46040830186611347565b6113b16060830185611366565b6113be6080830184611366565b9695505050505050565b6000815190506113d781610e82565b92915050565b6000602082840312156113f3576113f2610e78565b5b6000611401848285016113c8565b91505092915050565b7f4e487b7100000000000000000000000000000000000000000000000000000000600052601260045260246000fd5b600061144482610e3a565b915061144f83610e3a565b92508261145f5761145e61140a565b5b828206905092915050565b7f4e6f7420656e6f75676820746f6b656e00000000000000000000000000000000600082015250565b60006114a0601083611280565b91506114ab8261146a565b602082019050919050565b600060208201905081810360008301526114cf81611493565b9050919050565b7f4e756d626572207469636b6574206f7574206f662072616e6765000000000000600082015250565b600061150c601a83611280565b9150611517826114d6565b602082019050919050565b6000602082019050818103600083015261153b816114ff565b9050919050565b60006060820190506115576000830186610f0d565b6115646020830185610f0d565b6115716040830184610e44565b949350505050565b60008115159050919050565b61158e81611579565b811461159957600080fd5b50565b6000815190506115ab81611585565b92915050565b6000602082840312156115c7576115c6610e78565b5b60006115d58482850161159c565b91505092915050565b60006115e982610e3a565b91506115f483610e3a565b9250826116045761160361140a565b5b828204905092915050565b600061161a82610e3a565b915061162583610e3a565b9250827fffffffffffffffffffffffffffffffffffffffffffffffffffffffffffffffff0382111561165a576116596111b0565b5b828201905092915050565b7f7072697a65506f6f6c20697320656d7074790000000000000000000000000000600082015250565b600061169b601283611280565b91506116a682611665565b602082019050919050565b600060208201905081810360008301526116ca8161168e565b9050919050565b7f4e6f2077696e6e65720000000000000000000000000000000000000000000000600082015250565b6000611707600983611280565b9150611712826116d1565b602082019050919050565b60006020820190508181036000830152611736816116fa565b9050919050565b600061174882610e3a565b915061175383610e3a565b925082821015611766576117656111b0565b5b828203905092915050565b600061177c82610e3a565b915061178783610e3a565b9250817fffffffffffffffffffffffffffffffffffffffffffffffffffffffffffffffff04831182151516156117c0576117bf6111b0565b5b828202905092915050565b60006117d682611162565b9050919050565b6117e6816117cb565b82525050565b60006060820190506118016000830186610f0d565b61180e60208301856117dd565b61181b6040830184610e44565b949350505050565b600060408201905061183860008301856117dd565b6118456020830184610e44565b939250505056fea26469706673582212206e64ac967305a76b2674c85de1ce8a07f1515b121f221d93495f2659da00da5264736f6c634300080b0033",
  "linkReferences": {},
  "deployedLinkReferences": {}
}