{
  "_format": "hh-sol-artifact-1",
  "contractName": "Lottery",
  "sourceName": "contracts/Lottery.sol",
  "abi": [
    {
      "inputs": [
        {
          "internalType": "address",
          "name": "have",
          "type": "address"
        },
        {
          "internalType": "address",
          "name": "want",
          "type": "address"
        }
      ],
      "name": "OnlyCoordinatorCanFulfill",
      "type": "error"
    },
    {
      "inputs": [],
      "name": "_requestRandomWords",
      "outputs": [],
      "stateMutability": "nonpayable",
      "type": "function"
    },
    {
      "inputs": [],
      "name": "_reset",
      "outputs": [],
      "stateMutability": "nonpayable",
      "type": "function"
    },
    {
      "inputs": [],
      "name": "admin",
      "outputs": [
        {
          "internalType": "address",
          "name": "",
          "type": "address"
        }
      ],
      "stateMutability": "view",
      "type": "function"
    },
    {
      "inputs": [],
      "name": "costTicket",
      "outputs": [
        {
          "internalType": "uint256",
          "name": "",
          "type": "uint256"
        }
      ],
      "stateMutability": "view",
      "type": "function"
    },
    {
      "inputs": [],
      "name": "endAt",
      "outputs": [
        {
          "internalType": "uint256",
          "name": "",
          "type": "uint256"
        }
      ],
      "stateMutability": "view",
      "type": "function"
    },
    {
      "inputs": [
        {
          "internalType": "uint256",
          "name": "numTicket",
          "type": "uint256"
        }
      ],
      "name": "enter",
      "outputs": [],
      "stateMutability": "payable",
      "type": "function"
    },
    {
      "inputs": [],
      "name": "getAmountPlayer",
      "outputs": [
        {
          "internalType": "uint256",
          "name": "",
          "type": "uint256"
        }
      ],
      "stateMutability": "view",
      "type": "function"
    },
    {
      "inputs": [],
      "name": "getAmountWinner",
      "outputs": [
        {
          "internalType": "uint256",
          "name": "",
          "type": "uint256"
        }
      ],
      "stateMutability": "view",
      "type": "function"
    },
    {
      "inputs": [],
      "name": "getBalance",
      "outputs": [
        {
          "internalType": "uint256",
          "name": "",
          "type": "uint256"
        }
      ],
      "stateMutability": "view",
      "type": "function"
    },
    {
      "inputs": [
        {
          "internalType": "uint256",
          "name": "index",
          "type": "uint256"
        }
      ],
      "name": "getListWinner",
      "outputs": [
        {
          "internalType": "address",
          "name": "",
          "type": "address"
        }
      ],
      "stateMutability": "view",
      "type": "function"
    },
    {
      "inputs": [],
      "name": "getLuckyNumber",
      "outputs": [
        {
          "internalType": "uint256",
          "name": "",
          "type": "uint256"
        }
      ],
      "stateMutability": "view",
      "type": "function"
    },
    {
      "inputs": [
        {
          "internalType": "uint256",
          "name": "_index",
          "type": "uint256"
        }
      ],
      "name": "getPlayers",
      "outputs": [
        {
          "internalType": "address payable",
          "name": "",
          "type": "address"
        },
        {
          "internalType": "uint256",
          "name": "",
          "type": "uint256"
        }
      ],
      "stateMutability": "view",
      "type": "function"
    },
    {
      "inputs": [
        {
          "internalType": "contract MyToken",
          "name": "_token",
          "type": "address"
        }
      ],
      "name": "initialize",
      "outputs": [],
      "stateMutability": "nonpayable",
      "type": "function"
    },
    {
      "inputs": [],
      "name": "lotteryId",
      "outputs": [
        {
          "internalType": "uint256",
          "name": "",
          "type": "uint256"
        }
      ],
      "stateMutability": "view",
      "type": "function"
    },
    {
      "inputs": [],
      "name": "luckyNumber",
      "outputs": [
        {
          "internalType": "uint256",
          "name": "",
          "type": "uint256"
        }
      ],
      "stateMutability": "view",
      "type": "function"
    },
    {
      "inputs": [
        {
          "internalType": "uint256",
          "name": "requestId",
          "type": "uint256"
        },
        {
          "internalType": "uint256[]",
          "name": "randomWords",
          "type": "uint256[]"
        }
      ],
      "name": "rawFulfillRandomWords",
      "outputs": [],
      "stateMutability": "nonpayable",
      "type": "function"
    },
    {
      "inputs": [
        {
          "internalType": "uint256",
          "name": "",
          "type": "uint256"
        }
      ],
      "name": "s_randomWords",
      "outputs": [
        {
          "internalType": "uint256",
          "name": "",
          "type": "uint256"
        }
      ],
      "stateMutability": "view",
      "type": "function"
    },
    {
      "inputs": [],
      "name": "s_requestId",
      "outputs": [
        {
          "internalType": "uint256",
          "name": "",
          "type": "uint256"
        }
      ],
      "stateMutability": "view",
      "type": "function"
    },
    {
      "inputs": [
        {
          "internalType": "uint256",
          "name": "_costTicket",
          "type": "uint256"
        }
      ],
      "name": "setCostTicket",
      "outputs": [],
      "stateMutability": "nonpayable",
      "type": "function"
    },
    {
      "inputs": [
        {
          "internalType": "uint256",
          "name": "_endAt",
          "type": "uint256"
        }
      ],
      "name": "setEndAt",
      "outputs": [],
      "stateMutability": "nonpayable",
      "type": "function"
    },
    {
      "inputs": [
        {
          "internalType": "uint256",
          "name": "_startAt",
          "type": "uint256"
        }
      ],
      "name": "setStartAt",
      "outputs": [],
      "stateMutability": "nonpayable",
      "type": "function"
    },
    {
      "inputs": [],
      "name": "startAt",
      "outputs": [
        {
          "internalType": "uint256",
          "name": "",
          "type": "uint256"
        }
      ],
      "stateMutability": "view",
      "type": "function"
    },
    {
      "inputs": [],
      "name": "token",
      "outputs": [
        {
          "internalType": "contract MyToken",
          "name": "",
          "type": "address"
        }
      ],
      "stateMutability": "view",
      "type": "function"
    }
  ],
  "bytecode": "0x60a0604052620186a0600160146101000a81548163ffffffff021916908363ffffffff1602179055506003600160186101000a81548161ffff021916908361ffff16021790555060026001601a6101000a81548163ffffffff021916908363ffffffff1602179055506000600755674563918244f40000600b556001600c55600a600d5534801561008f57600080fd5b50736168499c0cffcacd319c818142124b7a15e857ab8073ffffffffffffffffffffffffffffffffffffffff1660808173ffffffffffffffffffffffffffffffffffffffff168152505050608051611b536100fc6000396000818161060201526106560152611b536000f3fe6080604052600436106101405760003560e01c8063a136e508116100b6578063e69f19cd1161006f578063e69f19cd14610406578063e89e106a14610431578063f3a133a91461045c578063f6eaffc814610485578063f851a440146104c2578063fc0c546a146104ed57610140565b8063a136e50814610315578063a59f3e0c14610340578063bf205ebc1461035c578063c4d66de814610387578063c7446565146103b0578063e580f47b146103db57610140565b8063391ea70011610108578063391ea70014610218578063460e20491461022f5780634bad1af41461026d578063693521d5146102965780637cad8f08146102c15780637cc3ae8c146102ea57610140565b806312065fe0146101455780631592f0ab1461017057806318b425ff146101875780631fe543e3146101c457806332eb85a4146101ed575b600080fd5b34801561015157600080fd5b5061015a610518565b604051610167919061104d565b60405180910390f35b34801561017c57600080fd5b50610185610522565b005b34801561019357600080fd5b506101ae60048036038101906101a991906110a8565b6105a2565b6040516101bb9190611116565b60405180910390f35b3480156101d057600080fd5b506101eb60048036038101906101e6919061128a565b610600565b005b3480156101f957600080fd5b506102026106c0565b60405161020f919061104d565b60405180910390f35b34801561022457600080fd5b5061022d6106ca565b005b34801561023b57600080fd5b50610256600480360381019061025191906110a8565b61083d565b604051610264929190611307565b60405180910390f35b34801561027957600080fd5b50610294600480360381019061028f91906110a8565b61088b565b005b3480156102a257600080fd5b506102ab610895565b6040516102b8919061104d565b60405180910390f35b3480156102cd57600080fd5b506102e860048036038101906102e391906110a8565b6108b8565b005b3480156102f657600080fd5b506102ff6108c2565b60405161030c919061104d565b60405180910390f35b34801561032157600080fd5b5061032a6108c8565b604051610337919061104d565b60405180910390f35b61035a600480360381019061035591906110a8565b6108ce565b005b34801561036857600080fd5b50610371610c05565b60405161037e919061104d565b60405180910390f35b34801561039357600080fd5b506103ae60048036038101906103a9919061136e565b610c0b565b005b3480156103bc57600080fd5b506103c5610c4f565b6040516103d2919061104d565b60405180910390f35b3480156103e757600080fd5b506103f0610c55565b6040516103fd919061104d565b60405180910390f35b34801561041257600080fd5b5061041b610c5b565b604051610428919061104d565b60405180910390f35b34801561043d57600080fd5b50610446610c65565b604051610453919061104d565b60405180910390f35b34801561046857600080fd5b50610483600480360381019061047e91906110a8565b610c6b565b005b34801561049157600080fd5b506104ac60048036038101906104a791906110a8565b610c75565b6040516104b9919061104d565b60405180910390f35b3480156104ce57600080fd5b506104d7610c99565b6040516104e49190611116565b60405180910390f35b3480156104f957600080fd5b50610502610cbd565b60405161050f91906113fa565b60405180910390f35b6000600854905090565b60005b6007548110156105875760066000828152602001908152602001600020600080820160006101000a81549073ffffffffffffffffffffffffffffffffffffffff021916905560018201600090555050808061057f90611444565b915050610525565b50600060078190555060006009819055506000600881905550565b600060056000600954815260200190815260200160002060000182815481106105ce576105cd61148d565b5b9060005260206000200160009054906101000a900473ffffffffffffffffffffffffffffffffffffffff169050919050565b7f000000000000000000000000000000000000000000000000000000000000000073ffffffffffffffffffffffffffffffffffffffff163373ffffffffffffffffffffffffffffffffffffffff16146106b257337f00000000000000000000000000000000000000000000000000000000000000006040517f1cf993f40000000000000000000000000000000000000000000000000000000081526004016106a99291906114bc565b60405180910390fd5b6106bc8282610ce3565b5050565b6000600754905090565b60006007541415610710576040517f08c379a000000000000000000000000000000000000000000000000000000000815260040161070790611542565b60405180910390fd5b600754736168499c0cffcacd319c818142124b7a15e857ab73ffffffffffffffffffffffffffffffffffffffff16635d3b1d307fd89b2bf150e3b9e13446986e571fb9cab24b13cea0a43ea20a6049a85cc807cc60001b611bda600160189054906101000a900461ffff16600160149054906101000a900463ffffffff166001601a9054906101000a900463ffffffff166040518663ffffffff1660e01b81526004016107c19594939291906115da565b6020604051808303816000875af11580156107e0573d6000803e3d6000fd5b505050506040513d601f19601f820116820180604052508101906108049190611642565b61080e919061169e565b6003819055506006600060035481526020019081526020016000206001015460098190555061083b610cfe565b565b60008060006006600085815260200190815260200160002090508060000160009054906101000a900473ffffffffffffffffffffffffffffffffffffffff1681600101549250925050915091565b80600b8190555050565b600060056000600954815260200190815260200160002060000180549050905090565b80600d8190555050565b600d5481565b600b5481565b6005600b541015610914576040517f08c379a000000000000000000000000000000000000000000000000000000000815260040161090b9061171b565b60405180910390fd5b600d54600c541061095a576040517f08c379a000000000000000000000000000000000000000000000000000000000815260040161095190611787565b60405180910390fd5b600c54811015801561096e5750600d548111155b6109ad576040517f08c379a00000000000000000000000000000000000000000000000000000000081526004016109a4906117f3565b60405180910390fd5b600160009054906101000a900473ffffffffffffffffffffffffffffffffffffffff1673ffffffffffffffffffffffffffffffffffffffff16630c9fcec93330600b546040518463ffffffff1660e01b8152600401610a0e93929190611813565b600060405180830381600087803b158015610a2857600080fd5b505af1158015610a3c573d6000803e3d6000fd5b50505050600160009054906101000a900473ffffffffffffffffffffffffffffffffffffffff1673ffffffffffffffffffffffffffffffffffffffff166323b872dd3330600b546040518463ffffffff1660e01b8152600401610aa193929190611813565b6020604051808303816000875af1158015610ac0573d6000803e3d6000fd5b505050506040513d601f19601f82011682018060405250810190610ae49190611882565b50670de0b6b3a7640000600b54610afb91906118af565b60086000828254610b0c91906118e0565b9250508190555060006006600060075481526020019081526020016000209050338160000160006101000a81548173ffffffffffffffffffffffffffffffffffffffff021916908373ffffffffffffffffffffffffffffffffffffffff16021790555081816001018190555060006005600083600101548152602001908152602001600020905080600001339080600181540180825580915050600190039060005260206000200160009091909190916101000a81548173ffffffffffffffffffffffffffffffffffffffff021916908373ffffffffffffffffffffffffffffffffffffffff160217905550610c00610e3b565b505050565b60095481565b80600160006101000a81548173ffffffffffffffffffffffffffffffffffffffff021916908373ffffffffffffffffffffffffffffffffffffffff16021790555050565b600c5481565b60045481565b6000600954905090565b60035481565b80600c8190555050565b60028181548110610c8557600080fd5b906000526020600020016000915090505481565b60008054906101000a900473ffffffffffffffffffffffffffffffffffffffff1681565b600160009054906101000a900473ffffffffffffffffffffffffffffffffffffffff1681565b8060029080519060200190610cf9929190610fca565b505050565b6000600560006009548152602001908152602001600020600001805490509050600081600854610d2e91906118af565b905060006008541415610d76576040517f08c379a0000000000000000000000000000000000000000000000000000000008152600401610d6d90611982565b60405180910390fd5b6000821415610dba576040517f08c379a0000000000000000000000000000000000000000000000000000000008152600401610db1906119ee565b60405180910390fd5b60005b82811015610e3657610e23826005600060095481526020019081526020016000206000018381548110610df357610df261148d565b5b9060005260206000200160009054906101000a900473ffffffffffffffffffffffffffffffffffffffff16610e55565b8080610e2e90611444565b915050610dbd565b505050565b60076000815480929190610e4e90611444565b9190505550565b8160086000828254610e679190611a0e565b92505081905550600160009054906101000a900473ffffffffffffffffffffffffffffffffffffffff1673ffffffffffffffffffffffffffffffffffffffff16630c9fcec93083670de0b6b3a764000086610ec29190611a42565b6040518463ffffffff1660e01b8152600401610ee093929190611abd565b600060405180830381600087803b158015610efa57600080fd5b505af1158015610f0e573d6000803e3d6000fd5b50505050600160009054906101000a900473ffffffffffffffffffffffffffffffffffffffff1673ffffffffffffffffffffffffffffffffffffffff1663a9059cbb82670de0b6b3a764000085610f659190611a42565b6040518363ffffffff1660e01b8152600401610f82929190611af4565b6020604051808303816000875af1158015610fa1573d6000803e3d6000fd5b505050506040513d601f19601f82011682018060405250810190610fc59190611882565b505050565b828054828255906000526020600020908101928215611006579160200282015b82811115611005578251825591602001919060010190610fea565b5b5090506110139190611017565b5090565b5b80821115611030576000816000905550600101611018565b5090565b6000819050919050565b61104781611034565b82525050565b6000602082019050611062600083018461103e565b92915050565b6000604051905090565b600080fd5b600080fd5b61108581611034565b811461109057600080fd5b50565b6000813590506110a28161107c565b92915050565b6000602082840312156110be576110bd611072565b5b60006110cc84828501611093565b91505092915050565b600073ffffffffffffffffffffffffffffffffffffffff82169050919050565b6000611100826110d5565b9050919050565b611110816110f5565b82525050565b600060208201905061112b6000830184611107565b92915050565b600080fd5b6000601f19601f8301169050919050565b7f4e487b7100000000000000000000000000000000000000000000000000000000600052604160045260246000fd5b61117f82611136565b810181811067ffffffffffffffff8211171561119e5761119d611147565b5b80604052505050565b60006111b1611068565b90506111bd8282611176565b919050565b600067ffffffffffffffff8211156111dd576111dc611147565b5b602082029050602081019050919050565b600080fd5b6000611206611201846111c2565b6111a7565b90508083825260208201905060208402830185811115611229576112286111ee565b5b835b81811015611252578061123e8882611093565b84526020840193505060208101905061122b565b5050509392505050565b600082601f83011261127157611270611131565b5b81356112818482602086016111f3565b91505092915050565b600080604083850312156112a1576112a0611072565b5b60006112af85828601611093565b925050602083013567ffffffffffffffff8111156112d0576112cf611077565b5b6112dc8582860161125c565b9150509250929050565b60006112f1826110d5565b9050919050565b611301816112e6565b82525050565b600060408201905061131c60008301856112f8565b611329602083018461103e565b9392505050565b600061133b826110f5565b9050919050565b61134b81611330565b811461135657600080fd5b50565b60008135905061136881611342565b92915050565b60006020828403121561138457611383611072565b5b600061139284828501611359565b91505092915050565b6000819050919050565b60006113c06113bb6113b6846110d5565b61139b565b6110d5565b9050919050565b60006113d2826113a5565b9050919050565b60006113e4826113c7565b9050919050565b6113f4816113d9565b82525050565b600060208201905061140f60008301846113eb565b92915050565b7f4e487b7100000000000000000000000000000000000000000000000000000000600052601160045260246000fd5b600061144f82611034565b91507fffffffffffffffffffffffffffffffffffffffffffffffffffffffffffffffff82141561148257611481611415565b5b600182019050919050565b7f4e487b7100000000000000000000000000000000000000000000000000000000600052603260045260246000fd5b60006040820190506114d16000830185611107565b6114de6020830184611107565b9392505050565b600082825260208201905092915050565b7f416d6f756e7420706c61796572206e756c6c0000000000000000000000000000600082015250565b600061152c6012836114e5565b9150611537826114f6565b602082019050919050565b6000602082019050818103600083015261155b8161151f565b9050919050565b6000819050919050565b61157581611562565b82525050565b600067ffffffffffffffff82169050919050565b6115988161157b565b82525050565b600061ffff82169050919050565b6115b58161159e565b82525050565b600063ffffffff82169050919050565b6115d4816115bb565b82525050565b600060a0820190506115ef600083018861156c565b6115fc602083018761158f565b61160960408301866115ac565b61161660608301856115cb565b61162360808301846115cb565b9695505050505050565b60008151905061163c8161107c565b92915050565b60006020828403121561165857611657611072565b5b60006116668482850161162d565b91505092915050565b7f4e487b7100000000000000000000000000000000000000000000000000000000600052601260045260246000fd5b60006116a982611034565b91506116b483611034565b9250826116c4576116c361166f565b5b828206905092915050565b7f4e6f7420656e6f75676820746f6b656e00000000000000000000000000000000600082015250565b60006117056010836114e5565b9150611710826116cf565b602082019050919050565b60006020820190508181036000830152611734816116f8565b9050919050565b7f526571756972652073746172744174206c657373207468616e20656e64417400600082015250565b6000611771601f836114e5565b915061177c8261173b565b602082019050919050565b600060208201905081810360008301526117a081611764565b9050919050565b7f4e756d626572207469636b6574206f7574206f662072616e6765000000000000600082015250565b60006117dd601a836114e5565b91506117e8826117a7565b602082019050919050565b6000602082019050818103600083015261180c816117d0565b9050919050565b60006060820190506118286000830186611107565b6118356020830185611107565b611842604083018461103e565b949350505050565b60008115159050919050565b61185f8161184a565b811461186a57600080fd5b50565b60008151905061187c81611856565b92915050565b60006020828403121561189857611897611072565b5b60006118a68482850161186d565b91505092915050565b60006118ba82611034565b91506118c583611034565b9250826118d5576118d461166f565b5b828204905092915050565b60006118eb82611034565b91506118f683611034565b9250827fffffffffffffffffffffffffffffffffffffffffffffffffffffffffffffffff0382111561192b5761192a611415565b5b828201905092915050565b7f7072697a65506f6f6c20697320656d7074790000000000000000000000000000600082015250565b600061196c6012836114e5565b915061197782611936565b602082019050919050565b6000602082019050818103600083015261199b8161195f565b9050919050565b7f4e6f2077696e6e65720000000000000000000000000000000000000000000000600082015250565b60006119d86009836114e5565b91506119e3826119a2565b602082019050919050565b60006020820190508181036000830152611a07816119cb565b9050919050565b6000611a1982611034565b9150611a2483611034565b925082821015611a3757611a36611415565b5b828203905092915050565b6000611a4d82611034565b9150611a5883611034565b9250817fffffffffffffffffffffffffffffffffffffffffffffffffffffffffffffffff0483118215151615611a9157611a90611415565b5b828202905092915050565b6000611aa7826113c7565b9050919050565b611ab781611a9c565b82525050565b6000606082019050611ad26000830186611107565b611adf6020830185611aae565b611aec604083018461103e565b949350505050565b6000604082019050611b096000830185611aae565b611b16602083018461103e565b939250505056fea264697066735822122070bd31b6b82769fa6399a59605afa961b4115a77a9c51bdf212a9156b4c595ec64736f6c634300080b0033",
  "linkReferences": {},
  "deployedLinkReferences": {}
}