{
  "_format": "hh-sol-artifact-1",
  "contractName": "Lottery",
  "sourceName": "contracts/Lottery.sol",
  "abi": [
    {
      "inputs": [
        {
          "internalType": "address",
          "name": "have",
          "type": "address"
        },
        {
          "internalType": "address",
          "name": "want",
          "type": "address"
        }
      ],
      "name": "OnlyCoordinatorCanFulfill",
      "type": "error"
    },
    {
      "inputs": [],
      "name": "_requestRandomWords",
      "outputs": [],
      "stateMutability": "nonpayable",
      "type": "function"
    },
    {
      "inputs": [],
      "name": "costTicket",
      "outputs": [
        {
          "internalType": "uint256",
          "name": "",
          "type": "uint256"
        }
      ],
      "stateMutability": "view",
      "type": "function"
    },
    {
      "inputs": [
        {
          "internalType": "uint256",
          "name": "numTicket",
          "type": "uint256"
        }
      ],
      "name": "enter",
      "outputs": [],
      "stateMutability": "payable",
      "type": "function"
    },
    {
      "inputs": [],
      "name": "getAmountPlayer",
      "outputs": [
        {
          "internalType": "uint256",
          "name": "",
          "type": "uint256"
        }
      ],
      "stateMutability": "view",
      "type": "function"
    },
    {
      "inputs": [],
      "name": "getAmountWinner",
      "outputs": [
        {
          "internalType": "uint256",
          "name": "",
          "type": "uint256"
        }
      ],
      "stateMutability": "view",
      "type": "function"
    },
    {
      "inputs": [],
      "name": "getBalance",
      "outputs": [
        {
          "internalType": "uint256",
          "name": "",
          "type": "uint256"
        }
      ],
      "stateMutability": "view",
      "type": "function"
    },
    {
      "inputs": [
        {
          "internalType": "uint256",
          "name": "index",
          "type": "uint256"
        }
      ],
      "name": "getListWinner",
      "outputs": [
        {
          "internalType": "address",
          "name": "",
          "type": "address"
        }
      ],
      "stateMutability": "view",
      "type": "function"
    },
    {
      "inputs": [],
      "name": "getLuckyNumber",
      "outputs": [
        {
          "internalType": "uint256",
          "name": "",
          "type": "uint256"
        }
      ],
      "stateMutability": "view",
      "type": "function"
    },
    {
      "inputs": [
        {
          "internalType": "uint256",
          "name": "_index",
          "type": "uint256"
        }
      ],
      "name": "getPlayers",
      "outputs": [
        {
          "internalType": "address payable",
          "name": "",
          "type": "address"
        },
        {
          "internalType": "uint256",
          "name": "",
          "type": "uint256"
        }
      ],
      "stateMutability": "view",
      "type": "function"
    },
    {
      "inputs": [],
      "name": "lotteryId",
      "outputs": [
        {
          "internalType": "uint256",
          "name": "",
          "type": "uint256"
        }
      ],
      "stateMutability": "view",
      "type": "function"
    },
    {
      "inputs": [],
      "name": "luckyNumber",
      "outputs": [
        {
          "internalType": "uint256",
          "name": "",
          "type": "uint256"
        }
      ],
      "stateMutability": "view",
      "type": "function"
    },
    {
      "inputs": [
        {
          "internalType": "uint256",
          "name": "requestId",
          "type": "uint256"
        },
        {
          "internalType": "uint256[]",
          "name": "randomWords",
          "type": "uint256[]"
        }
      ],
      "name": "rawFulfillRandomWords",
      "outputs": [],
      "stateMutability": "nonpayable",
      "type": "function"
    },
    {
      "inputs": [
        {
          "internalType": "uint256",
          "name": "",
          "type": "uint256"
        }
      ],
      "name": "s_randomWords",
      "outputs": [
        {
          "internalType": "uint256",
          "name": "",
          "type": "uint256"
        }
      ],
      "stateMutability": "view",
      "type": "function"
    },
    {
      "inputs": [],
      "name": "s_requestId",
      "outputs": [
        {
          "internalType": "uint256",
          "name": "",
          "type": "uint256"
        }
      ],
      "stateMutability": "view",
      "type": "function"
    },
    {
      "inputs": [],
      "name": "setCostTicket",
      "outputs": [],
      "stateMutability": "payable",
      "type": "function"
    },
    {
      "inputs": [],
      "name": "token",
      "outputs": [
        {
          "internalType": "contract MyToken",
          "name": "",
          "type": "address"
        }
      ],
      "stateMutability": "view",
      "type": "function"
    }
  ],
  "bytecode": "0x60a0604052620186a06000806101000a81548163ffffffff021916908363ffffffff1602179055506003600060046101000a81548161ffff021916908361ffff1602179055506002600060066101000a81548163ffffffff021916908363ffffffff160217905550600060065534801561007857600080fd5b50736168499c0cffcacd319c818142124b7a15e857ab8073ffffffffffffffffffffffffffffffffffffffff1660808173ffffffffffffffffffffffffffffffffffffffff1681525050506080516117116100e56000396000818161040a015261045e01526117116000f3fe6080604052600436106100f35760003560e01c8063a136e5081161008a578063e69f19cd11610059578063e69f19cd146102db578063e89e106a14610306578063f6eaffc814610331578063fc0c546a1461036e576100f3565b8063a136e5081461023e578063a59f3e0c14610269578063bf205ebc14610285578063e580f47b146102b0576100f3565b806332eb85a4116100c657806332eb85a414610193578063391ea700146101be578063460e2049146101d5578063693521d514610213576100f3565b806301964ced146100f857806312065fe01461010257806318b425ff1461012d5780631fe543e31461016a575b600080fd5b610100610399565b005b34801561010e57600080fd5b506101176103a2565b6040516101249190610d3c565b60405180910390f35b34801561013957600080fd5b50610154600480360381019061014f9190610d97565b6103aa565b6040516101619190610e05565b60405180910390f35b34801561017657600080fd5b50610191600480360381019061018c9190610f79565b610408565b005b34801561019f57600080fd5b506101a86104c8565b6040516101b59190610d3c565b60405180910390f35b3480156101ca57600080fd5b506101d36104d2565b005b3480156101e157600080fd5b506101fc60048036038101906101f79190610d97565b610643565b60405161020a929190610ff6565b60405180910390f35b34801561021f57600080fd5b50610228610691565b6040516102359190610d3c565b60405180910390f35b34801561024a57600080fd5b506102536106b4565b6040516102609190610d3c565b60405180910390f35b610283600480360381019061027e9190610d97565b6106ba565b005b34801561029157600080fd5b5061029a610994565b6040516102a79190610d3c565b60405180910390f35b3480156102bc57600080fd5b506102c561099a565b6040516102d29190610d3c565b60405180910390f35b3480156102e757600080fd5b506102f06109a0565b6040516102fd9190610d3c565b60405180910390f35b34801561031257600080fd5b5061031b6109aa565b6040516103289190610d3c565b60405180910390f35b34801561033d57600080fd5b5061035860048036038101906103539190610d97565b6109b0565b6040516103659190610d3c565b60405180910390f35b34801561037a57600080fd5b506103836109d4565b604051610390919061107e565b60405180910390f35b34600a81905550565b600047905090565b600060046000600854815260200190815260200160002060000182815481106103d6576103d5611099565b5b9060005260206000200160009054906101000a900473ffffffffffffffffffffffffffffffffffffffff169050919050565b7f000000000000000000000000000000000000000000000000000000000000000073ffffffffffffffffffffffffffffffffffffffff163373ffffffffffffffffffffffffffffffffffffffff16146104ba57337f00000000000000000000000000000000000000000000000000000000000000006040517f1cf993f40000000000000000000000000000000000000000000000000000000081526004016104b19291906110c8565b60405180910390fd5b6104c482826109fa565b5050565b6000600654905090565b60006006541415610518576040517f08c379a000000000000000000000000000000000000000000000000000000000815260040161050f9061114e565b60405180910390fd5b600654736168499c0cffcacd319c818142124b7a15e857ab73ffffffffffffffffffffffffffffffffffffffff16635d3b1d307fd89b2bf150e3b9e13446986e571fb9cab24b13cea0a43ea20a6049a85cc807cc60001b611cca600060049054906101000a900461ffff1660008054906101000a900463ffffffff16600060069054906101000a900463ffffffff166040518663ffffffff1660e01b81526004016105c79594939291906111e6565b6020604051808303816000875af11580156105e6573d6000803e3d6000fd5b505050506040513d601f19601f8201168201806040525081019061060a919061124e565b61061491906112aa565b60028190555060056000600254815260200190815260200160002060010154600881905550610641610a15565b565b60008060006005600085815260200190815260200160002090508060000160009054906101000a900473ffffffffffffffffffffffffffffffffffffffff1681600101549250925050915091565b600060046000600854815260200190815260200160002060000180549050905090565b600a5481565b6005600a541015610700576040517f08c379a00000000000000000000000000000000000000000000000000000000081526004016106f790611327565b60405180910390fd5b600081101580156107125750600a8111155b610751576040517f08c379a000000000000000000000000000000000000000000000000000000000815260040161074890611393565b60405180910390fd5b600b60009054906101000a900473ffffffffffffffffffffffffffffffffffffffff1673ffffffffffffffffffffffffffffffffffffffff16630c9fcec93330600a546040518463ffffffff1660e01b81526004016107b2939291906113b3565b600060405180830381600087803b1580156107cc57600080fd5b505af11580156107e0573d6000803e3d6000fd5b50505050600b60009054906101000a900473ffffffffffffffffffffffffffffffffffffffff1673ffffffffffffffffffffffffffffffffffffffff166323b872dd3330600a546040518463ffffffff1660e01b8152600401610845939291906113b3565b6020604051808303816000875af1158015610864573d6000803e3d6000fd5b505050506040513d601f19601f820116820180604052508101906108889190611422565b50346007600082825461089b919061147e565b9250508190555060006005600060065481526020019081526020016000209050338160000160006101000a81548173ffffffffffffffffffffffffffffffffffffffff021916908373ffffffffffffffffffffffffffffffffffffffff16021790555081816001018190555060006004600083600101548152602001908152602001600020905080600001339080600181540180825580915050600190039060005260206000200160009091909190916101000a81548173ffffffffffffffffffffffffffffffffffffffff021916908373ffffffffffffffffffffffffffffffffffffffff16021790555061098f610b50565b505050565b60085481565b60035481565b6000600854905090565b60025481565b600181815481106109c057600080fd5b906000526020600020016000915090505481565b600b60009054906101000a900473ffffffffffffffffffffffffffffffffffffffff1681565b8060019080519060200190610a10929190610cb9565b505050565b6000600460006008548152602001908152602001600020600001805490509050600081600754610a4591906114d4565b90506000471415610a8b576040517f08c379a0000000000000000000000000000000000000000000000000000000008152600401610a8290611551565b60405180910390fd5b6000821415610acf576040517f08c379a0000000000000000000000000000000000000000000000000000000008152600401610ac6906115bd565b60405180910390fd5b60005b82811015610b4b57610b38826004600060085481526020019081526020016000206000018381548110610b0857610b07611099565b5b9060005260206000200160009054906101000a900473ffffffffffffffffffffffffffffffffffffffff16610b6a565b8080610b43906115dd565b915050610ad2565b505050565b60066000815480929190610b63906115dd565b9190505550565b8160076000828254610b7c9190611626565b92505081905550600b60009054906101000a900473ffffffffffffffffffffffffffffffffffffffff1673ffffffffffffffffffffffffffffffffffffffff16630c9fcec93083856040518463ffffffff1660e01b8152600401610be29392919061167b565b600060405180830381600087803b158015610bfc57600080fd5b505af1158015610c10573d6000803e3d6000fd5b50505050600b60009054906101000a900473ffffffffffffffffffffffffffffffffffffffff1673ffffffffffffffffffffffffffffffffffffffff1663a9059cbb82846040518363ffffffff1660e01b8152600401610c719291906116b2565b6020604051808303816000875af1158015610c90573d6000803e3d6000fd5b505050506040513d601f19601f82011682018060405250810190610cb49190611422565b505050565b828054828255906000526020600020908101928215610cf5579160200282015b82811115610cf4578251825591602001919060010190610cd9565b5b509050610d029190610d06565b5090565b5b80821115610d1f576000816000905550600101610d07565b5090565b6000819050919050565b610d3681610d23565b82525050565b6000602082019050610d516000830184610d2d565b92915050565b6000604051905090565b600080fd5b600080fd5b610d7481610d23565b8114610d7f57600080fd5b50565b600081359050610d9181610d6b565b92915050565b600060208284031215610dad57610dac610d61565b5b6000610dbb84828501610d82565b91505092915050565b600073ffffffffffffffffffffffffffffffffffffffff82169050919050565b6000610def82610dc4565b9050919050565b610dff81610de4565b82525050565b6000602082019050610e1a6000830184610df6565b92915050565b600080fd5b6000601f19601f8301169050919050565b7f4e487b7100000000000000000000000000000000000000000000000000000000600052604160045260246000fd5b610e6e82610e25565b810181811067ffffffffffffffff82111715610e8d57610e8c610e36565b5b80604052505050565b6000610ea0610d57565b9050610eac8282610e65565b919050565b600067ffffffffffffffff821115610ecc57610ecb610e36565b5b602082029050602081019050919050565b600080fd5b6000610ef5610ef084610eb1565b610e96565b90508083825260208201905060208402830185811115610f1857610f17610edd565b5b835b81811015610f415780610f2d8882610d82565b845260208401935050602081019050610f1a565b5050509392505050565b600082601f830112610f6057610f5f610e20565b5b8135610f70848260208601610ee2565b91505092915050565b60008060408385031215610f9057610f8f610d61565b5b6000610f9e85828601610d82565b925050602083013567ffffffffffffffff811115610fbf57610fbe610d66565b5b610fcb85828601610f4b565b9150509250929050565b6000610fe082610dc4565b9050919050565b610ff081610fd5565b82525050565b600060408201905061100b6000830185610fe7565b6110186020830184610d2d565b9392505050565b6000819050919050565b600061104461103f61103a84610dc4565b61101f565b610dc4565b9050919050565b600061105682611029565b9050919050565b60006110688261104b565b9050919050565b6110788161105d565b82525050565b6000602082019050611093600083018461106f565b92915050565b7f4e487b7100000000000000000000000000000000000000000000000000000000600052603260045260246000fd5b60006040820190506110dd6000830185610df6565b6110ea6020830184610df6565b9392505050565b600082825260208201905092915050565b7f416d6f756e7420706c61796572206e756c6c0000000000000000000000000000600082015250565b60006111386012836110f1565b915061114382611102565b602082019050919050565b600060208201905081810360008301526111678161112b565b9050919050565b6000819050919050565b6111818161116e565b82525050565b600067ffffffffffffffff82169050919050565b6111a481611187565b82525050565b600061ffff82169050919050565b6111c1816111aa565b82525050565b600063ffffffff82169050919050565b6111e0816111c7565b82525050565b600060a0820190506111fb6000830188611178565b611208602083018761119b565b61121560408301866111b8565b61122260608301856111d7565b61122f60808301846111d7565b9695505050505050565b60008151905061124881610d6b565b92915050565b60006020828403121561126457611263610d61565b5b600061127284828501611239565b91505092915050565b7f4e487b7100000000000000000000000000000000000000000000000000000000600052601260045260246000fd5b60006112b582610d23565b91506112c083610d23565b9250826112d0576112cf61127b565b5b828206905092915050565b7f4e6f7420656e6f75676820746f6b656e00000000000000000000000000000000600082015250565b60006113116010836110f1565b915061131c826112db565b602082019050919050565b6000602082019050818103600083015261134081611304565b9050919050565b7f4e756d626572207469636b6574206f7574206f662072616e6765000000000000600082015250565b600061137d601a836110f1565b915061138882611347565b602082019050919050565b600060208201905081810360008301526113ac81611370565b9050919050565b60006060820190506113c86000830186610df6565b6113d56020830185610df6565b6113e26040830184610d2d565b949350505050565b60008115159050919050565b6113ff816113ea565b811461140a57600080fd5b50565b60008151905061141c816113f6565b92915050565b60006020828403121561143857611437610d61565b5b60006114468482850161140d565b91505092915050565b7f4e487b7100000000000000000000000000000000000000000000000000000000600052601160045260246000fd5b600061148982610d23565b915061149483610d23565b9250827fffffffffffffffffffffffffffffffffffffffffffffffffffffffffffffffff038211156114c9576114c861144f565b5b828201905092915050565b60006114df82610d23565b91506114ea83610d23565b9250826114fa576114f961127b565b5b828204905092915050565b7f7072697a65506f6f6c20697320656d7074790000000000000000000000000000600082015250565b600061153b6012836110f1565b915061154682611505565b602082019050919050565b6000602082019050818103600083015261156a8161152e565b9050919050565b7f4e6f2077696e6e65720000000000000000000000000000000000000000000000600082015250565b60006115a76009836110f1565b91506115b282611571565b602082019050919050565b600060208201905081810360008301526115d68161159a565b9050919050565b60006115e882610d23565b91507fffffffffffffffffffffffffffffffffffffffffffffffffffffffffffffffff82141561161b5761161a61144f565b5b600182019050919050565b600061163182610d23565b915061163c83610d23565b92508282101561164f5761164e61144f565b5b828203905092915050565b60006116658261104b565b9050919050565b6116758161165a565b82525050565b60006060820190506116906000830186610df6565b61169d602083018561166c565b6116aa6040830184610d2d565b949350505050565b60006040820190506116c7600083018561166c565b6116d46020830184610d2d565b939250505056fea2646970667358221220b629af800bed415466819ad5e95a2dc2ae943ddf975af78234569eed745bb80364736f6c634300080b0033",
  "linkReferences": {},
  "deployedLinkReferences": {}
}