{
  "_format": "hh-sol-artifact-1",
  "contractName": "Lottery",
  "sourceName": "contracts/Lottery.sol",
  "abi": [
    {
      "inputs": [
        {
          "internalType": "address",
          "name": "have",
          "type": "address"
        },
        {
          "internalType": "address",
          "name": "want",
          "type": "address"
        }
      ],
      "name": "OnlyCoordinatorCanFulfill",
      "type": "error"
    },
    {
      "inputs": [],
      "name": "_requestRandomWords",
      "outputs": [],
      "stateMutability": "nonpayable",
      "type": "function"
    },
    {
      "inputs": [
        {
          "internalType": "uint256",
          "name": "numTicket",
          "type": "uint256"
        }
      ],
      "name": "enter",
      "outputs": [],
      "stateMutability": "payable",
      "type": "function"
    },
    {
      "inputs": [],
      "name": "getAmountPlayer",
      "outputs": [
        {
          "internalType": "uint256",
          "name": "",
          "type": "uint256"
        }
      ],
      "stateMutability": "view",
      "type": "function"
    },
    {
      "inputs": [],
      "name": "getAmountWinner",
      "outputs": [
        {
          "internalType": "uint256",
          "name": "",
          "type": "uint256"
        }
      ],
      "stateMutability": "view",
      "type": "function"
    },
    {
      "inputs": [],
      "name": "getBalance",
      "outputs": [
        {
          "internalType": "uint256",
          "name": "",
          "type": "uint256"
        }
      ],
      "stateMutability": "view",
      "type": "function"
    },
    {
      "inputs": [
        {
          "internalType": "uint256",
          "name": "index",
          "type": "uint256"
        }
      ],
      "name": "getListWinner",
      "outputs": [
        {
          "internalType": "address",
          "name": "",
          "type": "address"
        }
      ],
      "stateMutability": "view",
      "type": "function"
    },
    {
      "inputs": [],
      "name": "getLuckyNumber",
      "outputs": [
        {
          "internalType": "uint256",
          "name": "",
          "type": "uint256"
        }
      ],
      "stateMutability": "view",
      "type": "function"
    },
    {
      "inputs": [
        {
          "internalType": "uint256",
          "name": "_index",
          "type": "uint256"
        }
      ],
      "name": "getPlayers",
      "outputs": [
        {
          "internalType": "address payable",
          "name": "",
          "type": "address"
        },
        {
          "internalType": "uint256",
          "name": "",
          "type": "uint256"
        }
      ],
      "stateMutability": "view",
      "type": "function"
    },
    {
      "inputs": [],
      "name": "lotteryId",
      "outputs": [
        {
          "internalType": "uint256",
          "name": "",
          "type": "uint256"
        }
      ],
      "stateMutability": "view",
      "type": "function"
    },
    {
      "inputs": [],
      "name": "luckyNumber",
      "outputs": [
        {
          "internalType": "uint256",
          "name": "",
          "type": "uint256"
        }
      ],
      "stateMutability": "view",
      "type": "function"
    },
    {
      "inputs": [
        {
          "internalType": "uint256",
          "name": "requestId",
          "type": "uint256"
        },
        {
          "internalType": "uint256[]",
          "name": "randomWords",
          "type": "uint256[]"
        }
      ],
      "name": "rawFulfillRandomWords",
      "outputs": [],
      "stateMutability": "nonpayable",
      "type": "function"
    },
    {
      "inputs": [
        {
          "internalType": "uint256",
          "name": "",
          "type": "uint256"
        }
      ],
      "name": "s_randomWords",
      "outputs": [
        {
          "internalType": "uint256",
          "name": "",
          "type": "uint256"
        }
      ],
      "stateMutability": "view",
      "type": "function"
    },
    {
      "inputs": [],
      "name": "s_requestId",
      "outputs": [
        {
          "internalType": "uint256",
          "name": "",
          "type": "uint256"
        }
      ],
      "stateMutability": "view",
      "type": "function"
    },
    {
      "inputs": [],
      "name": "token",
      "outputs": [
        {
          "internalType": "contract IERC20",
          "name": "",
          "type": "address"
        }
      ],
      "stateMutability": "view",
      "type": "function"
    }
  ],
  "bytecode": "0x60a0604052620186a06000806101000a81548163ffffffff021916908363ffffffff1602179055506003600060046101000a81548161ffff021916908361ffff1602179055506002600060066101000a81548163ffffffff021916908363ffffffff160217905550600060065534801561007857600080fd5b50736168499c0cffcacd319c818142124b7a15e857ab8073ffffffffffffffffffffffffffffffffffffffff1660808173ffffffffffffffffffffffffffffffffffffffff1681525050506080516113f46100e5600039600081816103b6015261040a01526113f46000f3fe6080604052600436106100dd5760003560e01c8063a59f3e0c1161007f578063e69f19cd11610059578063e69f19cd14610290578063e89e106a146102bb578063f6eaffc8146102e6578063fc0c546a14610323576100dd565b8063a59f3e0c1461021e578063bf205ebc1461023a578063e580f47b14610265576100dd565b806332eb85a4116100bb57806332eb85a414610173578063391ea7001461019e578063460e2049146101b5578063693521d5146101f3576100dd565b806312065fe0146100e257806318b425ff1461010d5780631fe543e31461014a575b600080fd5b3480156100ee57600080fd5b506100f761034e565b6040516101049190610b3c565b60405180910390f35b34801561011957600080fd5b50610134600480360381019061012f9190610b97565b610356565b6040516101419190610c05565b60405180910390f35b34801561015657600080fd5b50610171600480360381019061016c9190610d79565b6103b4565b005b34801561017f57600080fd5b50610188610474565b6040516101959190610b3c565b60405180910390f35b3480156101aa57600080fd5b506101b361047e565b005b3480156101c157600080fd5b506101dc60048036038101906101d79190610b97565b6105ef565b6040516101ea929190610df6565b60405180910390f35b3480156101ff57600080fd5b5061020861063d565b6040516102159190610b3c565b60405180910390f35b61023860048036038101906102339190610b97565b610660565b005b34801561024657600080fd5b5061024f6107ff565b60405161025c9190610b3c565b60405180910390f35b34801561027157600080fd5b5061027a610805565b6040516102879190610b3c565b60405180910390f35b34801561029c57600080fd5b506102a561080b565b6040516102b29190610b3c565b60405180910390f35b3480156102c757600080fd5b506102d0610815565b6040516102dd9190610b3c565b60405180910390f35b3480156102f257600080fd5b5061030d60048036038101906103089190610b97565b61081b565b60405161031a9190610b3c565b60405180910390f35b34801561032f57600080fd5b5061033861083f565b6040516103459190610e7e565b60405180910390f35b600047905090565b6000600460006008548152602001908152602001600020600001828154811061038257610381610e99565b5b9060005260206000200160009054906101000a900473ffffffffffffffffffffffffffffffffffffffff169050919050565b7f000000000000000000000000000000000000000000000000000000000000000073ffffffffffffffffffffffffffffffffffffffff163373ffffffffffffffffffffffffffffffffffffffff161461046657337f00000000000000000000000000000000000000000000000000000000000000006040517f1cf993f400000000000000000000000000000000000000000000000000000000815260040161045d929190610ec8565b60405180910390fd5b6104708282610865565b5050565b6000600654905090565b600060065414156104c4576040517f08c379a00000000000000000000000000000000000000000000000000000000081526004016104bb90610f4e565b60405180910390fd5b600654736168499c0cffcacd319c818142124b7a15e857ab73ffffffffffffffffffffffffffffffffffffffff16635d3b1d307fd89b2bf150e3b9e13446986e571fb9cab24b13cea0a43ea20a6049a85cc807cc60001b611cca600060049054906101000a900461ffff1660008054906101000a900463ffffffff16600060069054906101000a900463ffffffff166040518663ffffffff1660e01b8152600401610573959493929190610fe6565b6020604051808303816000875af1158015610592573d6000803e3d6000fd5b505050506040513d601f19601f820116820180604052508101906105b6919061104e565b6105c091906110aa565b600281905550600560006002548152602001908152602001600020600101546008819055506105ed610880565b565b60008060006005600085815260200190815260200160002090508060000160009054906101000a900473ffffffffffffffffffffffffffffffffffffffff1681600101549250925050915091565b600060046000600854815260200190815260200160002060000180549050905090565b600234116106a3576040517f08c379a000000000000000000000000000000000000000000000000000000000815260040161069a90611127565b60405180910390fd5b600081101580156106b55750600a8111155b6106f4576040517f08c379a00000000000000000000000000000000000000000000000000000000081526004016106eb90611193565b60405180910390fd5b346007600082825461070691906111e2565b9250508190555060006005600060065481526020019081526020016000209050338160000160006101000a81548173ffffffffffffffffffffffffffffffffffffffff021916908373ffffffffffffffffffffffffffffffffffffffff16021790555081816001018190555060006004600083600101548152602001908152602001600020905080600001339080600181540180825580915050600190039060005260206000200160009091909190916101000a81548173ffffffffffffffffffffffffffffffffffffffff021916908373ffffffffffffffffffffffffffffffffffffffff1602179055506107fa6109c3565b505050565b60085481565b60035481565b6000600854905090565b60025481565b6001818154811061082b57600080fd5b906000526020600020016000915090505481565b600a60009054906101000a900473ffffffffffffffffffffffffffffffffffffffff1681565b806001908051906020019061087b929190610ab9565b505050565b60006004600060085481526020019081526020016000206000018054905090506000816007546108b09190611238565b905060004714156108f6576040517f08c379a00000000000000000000000000000000000000000000000000000000081526004016108ed906112b5565b60405180910390fd5b600082141561093a576040517f08c379a000000000000000000000000000000000000000000000000000000000815260040161093190611321565b60405180910390fd5b60005b828110156109b6576109a382600460006008548152602001908152602001600020600001838154811061097357610972610e99565b5b9060005260206000200160009054906101000a900473ffffffffffffffffffffffffffffffffffffffff166109dd565b80806109ae90611341565b91505061093d565b506109bf610a41565b5050565b600660008154809291906109d690611341565b9190505550565b81600760008282546109ef919061138a565b925050819055508073ffffffffffffffffffffffffffffffffffffffff166108fc839081150290604051600060405180830381858888f19350505050158015610a3c573d6000803e3d6000fd5b505050565b60005b600654811015610aa65760056000828152602001908152602001600020600080820160006101000a81549073ffffffffffffffffffffffffffffffffffffffff0219169055600182016000905550508080610a9e90611341565b915050610a44565b5060006006819055506000600881905550565b828054828255906000526020600020908101928215610af5579160200282015b82811115610af4578251825591602001919060010190610ad9565b5b509050610b029190610b06565b5090565b5b80821115610b1f576000816000905550600101610b07565b5090565b6000819050919050565b610b3681610b23565b82525050565b6000602082019050610b516000830184610b2d565b92915050565b6000604051905090565b600080fd5b600080fd5b610b7481610b23565b8114610b7f57600080fd5b50565b600081359050610b9181610b6b565b92915050565b600060208284031215610bad57610bac610b61565b5b6000610bbb84828501610b82565b91505092915050565b600073ffffffffffffffffffffffffffffffffffffffff82169050919050565b6000610bef82610bc4565b9050919050565b610bff81610be4565b82525050565b6000602082019050610c1a6000830184610bf6565b92915050565b600080fd5b6000601f19601f8301169050919050565b7f4e487b7100000000000000000000000000000000000000000000000000000000600052604160045260246000fd5b610c6e82610c25565b810181811067ffffffffffffffff82111715610c8d57610c8c610c36565b5b80604052505050565b6000610ca0610b57565b9050610cac8282610c65565b919050565b600067ffffffffffffffff821115610ccc57610ccb610c36565b5b602082029050602081019050919050565b600080fd5b6000610cf5610cf084610cb1565b610c96565b90508083825260208201905060208402830185811115610d1857610d17610cdd565b5b835b81811015610d415780610d2d8882610b82565b845260208401935050602081019050610d1a565b5050509392505050565b600082601f830112610d6057610d5f610c20565b5b8135610d70848260208601610ce2565b91505092915050565b60008060408385031215610d9057610d8f610b61565b5b6000610d9e85828601610b82565b925050602083013567ffffffffffffffff811115610dbf57610dbe610b66565b5b610dcb85828601610d4b565b9150509250929050565b6000610de082610bc4565b9050919050565b610df081610dd5565b82525050565b6000604082019050610e0b6000830185610de7565b610e186020830184610b2d565b9392505050565b6000819050919050565b6000610e44610e3f610e3a84610bc4565b610e1f565b610bc4565b9050919050565b6000610e5682610e29565b9050919050565b6000610e6882610e4b565b9050919050565b610e7881610e5d565b82525050565b6000602082019050610e936000830184610e6f565b92915050565b7f4e487b7100000000000000000000000000000000000000000000000000000000600052603260045260246000fd5b6000604082019050610edd6000830185610bf6565b610eea6020830184610bf6565b9392505050565b600082825260208201905092915050565b7f416d6f756e7420706c61796572206e756c6c0000000000000000000000000000600082015250565b6000610f38601283610ef1565b9150610f4382610f02565b602082019050919050565b60006020820190508181036000830152610f6781610f2b565b9050919050565b6000819050919050565b610f8181610f6e565b82525050565b600067ffffffffffffffff82169050919050565b610fa481610f87565b82525050565b600061ffff82169050919050565b610fc181610faa565b82525050565b600063ffffffff82169050919050565b610fe081610fc7565b82525050565b600060a082019050610ffb6000830188610f78565b6110086020830187610f9b565b6110156040830186610fb8565b6110226060830185610fd7565b61102f6080830184610fd7565b9695505050505050565b60008151905061104881610b6b565b92915050565b60006020828403121561106457611063610b61565b5b600061107284828501611039565b91505092915050565b7f4e487b7100000000000000000000000000000000000000000000000000000000600052601260045260246000fd5b60006110b582610b23565b91506110c083610b23565b9250826110d0576110cf61107b565b5b828206905092915050565b7f4e6f7420656e6f75676820746f6b656e00000000000000000000000000000000600082015250565b6000611111601083610ef1565b915061111c826110db565b602082019050919050565b6000602082019050818103600083015261114081611104565b9050919050565b7f4e756d626572207469636b6574206f7574206f662072616e6765000000000000600082015250565b600061117d601a83610ef1565b915061118882611147565b602082019050919050565b600060208201905081810360008301526111ac81611170565b9050919050565b7f4e487b7100000000000000000000000000000000000000000000000000000000600052601160045260246000fd5b60006111ed82610b23565b91506111f883610b23565b9250827fffffffffffffffffffffffffffffffffffffffffffffffffffffffffffffffff0382111561122d5761122c6111b3565b5b828201905092915050565b600061124382610b23565b915061124e83610b23565b92508261125e5761125d61107b565b5b828204905092915050565b7f7072697a65506f6f6c20697320656d7074790000000000000000000000000000600082015250565b600061129f601283610ef1565b91506112aa82611269565b602082019050919050565b600060208201905081810360008301526112ce81611292565b9050919050565b7f4e6f2077696e6e65720000000000000000000000000000000000000000000000600082015250565b600061130b600983610ef1565b9150611316826112d5565b602082019050919050565b6000602082019050818103600083015261133a816112fe565b9050919050565b600061134c82610b23565b91507fffffffffffffffffffffffffffffffffffffffffffffffffffffffffffffffff82141561137f5761137e6111b3565b5b600182019050919050565b600061139582610b23565b91506113a083610b23565b9250828210156113b3576113b26111b3565b5b82820390509291505056fea2646970667358221220b04058e33d36ff0af44c9e0ad2782c97b2ccde57f5b4b10a1b7dfd25a354637764736f6c634300080b0033",
  "linkReferences": {},
  "deployedLinkReferences": {}
}