{
  "_format": "hh-sol-artifact-1",
  "contractName": "ERC20Upgrade",
  "sourceName": "contracts/upgradeERC20Adress.sol",
  "abi": [
    {
      "inputs": [
        {
          "internalType": "contract MyToken",
          "name": "_token",
          "type": "address"
        }
      ],
      "name": "initialize",
      "outputs": [],
      "stateMutability": "nonpayable",
      "type": "function"
    },
    {
      "inputs": [],
      "name": "token",
      "outputs": [
        {
          "internalType": "contract MyToken",
          "name": "",
          "type": "address"
        }
      ],
      "stateMutability": "view",
      "type": "function"
    }
  ],
  "bytecode": "0x608060405234801561001057600080fd5b5061022e806100206000396000f3fe608060405234801561001057600080fd5b50600436106100365760003560e01c8063c4d66de81461003b578063fc0c546a14610057575b600080fd5b61005560048036038101906100509190610151565b610075565b005b61005f6100b8565b60405161006c91906101dd565b60405180910390f35b806000806101000a81548173ffffffffffffffffffffffffffffffffffffffff021916908373ffffffffffffffffffffffffffffffffffffffff16021790555050565b60008054906101000a900473ffffffffffffffffffffffffffffffffffffffff1681565b600080fd5b600073ffffffffffffffffffffffffffffffffffffffff82169050919050565b600061010c826100e1565b9050919050565b600061011e82610101565b9050919050565b61012e81610113565b811461013957600080fd5b50565b60008135905061014b81610125565b92915050565b600060208284031215610167576101666100dc565b5b60006101758482850161013c565b91505092915050565b6000819050919050565b60006101a361019e610199846100e1565b61017e565b6100e1565b9050919050565b60006101b582610188565b9050919050565b60006101c7826101aa565b9050919050565b6101d7816101bc565b82525050565b60006020820190506101f260008301846101ce565b9291505056fea2646970667358221220f14ad63d4e9b1424123634e6d2e82eb08a5cf9a4e3a3accb4881c4d3285d710564736f6c634300080b0033",
  "linkReferences": {},
  "deployedLinkReferences": {}
}